{
  "address": "0x5EE94c25e3d5113CD055537340B9d19CFA4D9217",
  "abi": [
    {
      "inputs": [
        {
          "internalType": "string",
          "name": "_name",
          "type": "string"
        },
        {
          "internalType": "string",
          "name": "_symbol",
          "type": "string"
        },
        {
          "internalType": "address",
          "name": "_lzEndpoint",
          "type": "address"
        },
        {
          "internalType": "address",
          "name": "_treasury",
          "type": "address"
        }
      ],
      "stateMutability": "nonpayable",
      "type": "constructor"
    },
    {
      "inputs": [],
      "name": "InvalidCaller",
      "type": "error"
    },
    {
      "inputs": [],
      "name": "InvalidEndpoint",
      "type": "error"
    },
    {
      "inputs": [],
      "name": "InvalidPayload",
      "type": "error"
    },
    {
      "inputs": [],
      "name": "InvalidSource",
      "type": "error"
    },
    {
      "inputs": [],
      "name": "InvalidSpender",
      "type": "error"
    },
    {
      "inputs": [],
      "name": "NotGovernor",
      "type": "error"
    },
    {
      "inputs": [],
      "name": "NotGovernorOrGuardian",
      "type": "error"
    },
    {
      "anonymous": false,
      "inputs": [
        {
          "indexed": false,
          "internalType": "uint16",
          "name": "_srcChainId",
          "type": "uint16"
        },
        {
          "indexed": false,
          "internalType": "bytes",
          "name": "_srcAddress",
          "type": "bytes"
        },
        {
          "indexed": false,
          "internalType": "uint64",
          "name": "_nonce",
          "type": "uint64"
        },
        {
          "indexed": false,
          "internalType": "bytes",
          "name": "_payload",
          "type": "bytes"
        }
      ],
      "name": "MessageFailed",
      "type": "event"
    },
    {
      "anonymous": false,
      "inputs": [
        {
          "indexed": false,
          "internalType": "address",
          "name": "account",
          "type": "address"
        }
      ],
      "name": "Paused",
      "type": "event"
    },
    {
      "anonymous": false,
      "inputs": [
        {
          "indexed": true,
          "internalType": "uint16",
          "name": "_srcChainId",
          "type": "uint16"
        },
        {
          "indexed": true,
          "internalType": "bytes",
          "name": "_srcAddress",
          "type": "bytes"
        },
        {
          "indexed": true,
          "internalType": "address",
          "name": "_toAddress",
          "type": "address"
        },
        {
          "indexed": false,
          "internalType": "uint256",
          "name": "_amount",
          "type": "uint256"
        },
        {
          "indexed": false,
          "internalType": "uint64",
          "name": "_nonce",
          "type": "uint64"
        }
      ],
      "name": "ReceiveFromChain",
      "type": "event"
    },
    {
      "anonymous": false,
      "inputs": [
        {
          "indexed": true,
          "internalType": "address",
          "name": "_sender",
          "type": "address"
        },
        {
          "indexed": true,
          "internalType": "uint16",
          "name": "_dstChainId",
          "type": "uint16"
        },
        {
          "indexed": true,
          "internalType": "bytes",
          "name": "_toAddress",
          "type": "bytes"
        },
        {
          "indexed": false,
          "internalType": "uint256",
          "name": "_amount",
          "type": "uint256"
        },
        {
          "indexed": false,
          "internalType": "uint64",
          "name": "_nonce",
          "type": "uint64"
        }
      ],
      "name": "SendToChain",
      "type": "event"
    },
    {
      "anonymous": false,
      "inputs": [
        {
          "indexed": false,
          "internalType": "uint16",
          "name": "_srcChainId",
          "type": "uint16"
        },
        {
          "indexed": false,
          "internalType": "bytes",
          "name": "_srcAddress",
          "type": "bytes"
        }
      ],
      "name": "SetTrustedRemote",
      "type": "event"
    },
    {
      "anonymous": false,
      "inputs": [
        {
          "indexed": false,
          "internalType": "address",
          "name": "account",
          "type": "address"
        }
      ],
      "name": "Unpaused",
      "type": "event"
    },
    {
      "inputs": [
        {
          "internalType": "address",
          "name": "",
          "type": "address"
        }
      ],
      "name": "credit",
      "outputs": [
        {
          "internalType": "uint256",
          "name": "",
          "type": "uint256"
        }
      ],
      "stateMutability": "view",
      "type": "function"
    },
    {
      "inputs": [
        {
          "internalType": "uint16",
          "name": "_dstChainId",
          "type": "uint16"
        },
        {
          "internalType": "bytes",
          "name": "_toAddress",
          "type": "bytes"
        },
        {
          "internalType": "uint256",
          "name": "_amount",
          "type": "uint256"
        },
        {
          "internalType": "bool",
          "name": "_useZro",
          "type": "bool"
        },
        {
          "internalType": "bytes",
          "name": "_adapterParams",
          "type": "bytes"
        }
      ],
      "name": "estimateSendFee",
      "outputs": [
        {
          "internalType": "uint256",
          "name": "nativeFee",
          "type": "uint256"
        },
        {
          "internalType": "uint256",
          "name": "zroFee",
          "type": "uint256"
        }
      ],
      "stateMutability": "view",
      "type": "function"
    },
    {
      "inputs": [
        {
          "internalType": "uint16",
          "name": "",
          "type": "uint16"
        },
        {
          "internalType": "bytes",
          "name": "",
          "type": "bytes"
        },
        {
          "internalType": "uint64",
          "name": "",
          "type": "uint64"
        }
      ],
      "name": "failedMessages",
      "outputs": [
        {
          "internalType": "bytes32",
          "name": "",
          "type": "bytes32"
        }
      ],
      "stateMutability": "view",
      "type": "function"
    },
    {
      "inputs": [
        {
          "internalType": "uint16",
          "name": "_srcChainId",
          "type": "uint16"
        },
        {
          "internalType": "bytes",
          "name": "_srcAddress",
          "type": "bytes"
        }
      ],
      "name": "forceResumeReceive",
      "outputs": [],
      "stateMutability": "nonpayable",
      "type": "function"
    },
    {
      "inputs": [
        {
          "internalType": "uint16",
          "name": "_version",
          "type": "uint16"
        },
        {
          "internalType": "uint16",
          "name": "_chainId",
          "type": "uint16"
        },
        {
          "internalType": "address",
          "name": "",
          "type": "address"
        },
        {
          "internalType": "uint256",
          "name": "_configType",
          "type": "uint256"
        }
      ],
      "name": "getConfig",
      "outputs": [
        {
          "internalType": "bytes",
          "name": "",
          "type": "bytes"
        }
      ],
      "stateMutability": "view",
      "type": "function"
    },
    {
      "inputs": [
        {
          "internalType": "uint16",
          "name": "_srcChainId",
          "type": "uint16"
        },
        {
          "internalType": "bytes",
          "name": "_srcAddress",
          "type": "bytes"
        }
      ],
      "name": "isTrustedRemote",
      "outputs": [
        {
          "internalType": "bool",
          "name": "",
          "type": "bool"
        }
      ],
      "stateMutability": "view",
      "type": "function"
    },
    {
      "inputs": [],
      "name": "lzEndpoint",
      "outputs": [
        {
          "internalType": "contract ILayerZeroEndpoint",
          "name": "",
          "type": "address"
        }
      ],
      "stateMutability": "view",
      "type": "function"
    },
    {
      "inputs": [
        {
          "internalType": "uint16",
          "name": "_srcChainId",
          "type": "uint16"
        },
        {
          "internalType": "bytes",
          "name": "_srcAddress",
          "type": "bytes"
        },
        {
          "internalType": "uint64",
          "name": "_nonce",
          "type": "uint64"
        },
        {
          "internalType": "bytes",
          "name": "_payload",
          "type": "bytes"
        }
      ],
      "name": "lzReceive",
      "outputs": [],
      "stateMutability": "nonpayable",
      "type": "function"
    },
    {
      "inputs": [
        {
          "internalType": "uint16",
          "name": "_srcChainId",
          "type": "uint16"
        },
        {
          "internalType": "bytes",
          "name": "_srcAddress",
          "type": "bytes"
        },
        {
          "internalType": "uint64",
          "name": "_nonce",
          "type": "uint64"
        },
        {
          "internalType": "bytes",
          "name": "_payload",
          "type": "bytes"
        }
      ],
      "name": "nonblockingLzReceive",
      "outputs": [],
      "stateMutability": "nonpayable",
      "type": "function"
    },
    {
      "inputs": [
        {
          "internalType": "bool",
          "name": "pause",
          "type": "bool"
        }
      ],
      "name": "pauseSendTokens",
      "outputs": [],
      "stateMutability": "nonpayable",
      "type": "function"
    },
    {
      "inputs": [],
      "name": "paused",
      "outputs": [
        {
          "internalType": "bool",
          "name": "",
          "type": "bool"
        }
      ],
      "stateMutability": "view",
      "type": "function"
    },
    {
      "inputs": [
        {
          "internalType": "uint16",
          "name": "_srcChainId",
          "type": "uint16"
        },
        {
          "internalType": "bytes",
          "name": "_srcAddress",
          "type": "bytes"
        },
        {
          "internalType": "uint64",
          "name": "_nonce",
          "type": "uint64"
        },
        {
          "internalType": "bytes",
          "name": "_payload",
          "type": "bytes"
        }
      ],
      "name": "retryMessage",
      "outputs": [],
      "stateMutability": "payable",
      "type": "function"
    },
    {
      "inputs": [
        {
          "internalType": "address",
          "name": "_from",
          "type": "address"
        },
        {
          "internalType": "uint16",
          "name": "_dstChainId",
          "type": "uint16"
        },
        {
          "internalType": "bytes",
          "name": "_toAddress",
          "type": "bytes"
        },
        {
          "internalType": "uint256",
          "name": "_amount",
          "type": "uint256"
        },
        {
          "internalType": "address payable",
          "name": "_refundAddress",
          "type": "address"
        },
        {
          "internalType": "address",
          "name": "_zroPaymentAddress",
          "type": "address"
        },
        {
          "internalType": "bytes",
          "name": "_adapterParams",
          "type": "bytes"
        }
      ],
      "name": "sendFrom",
      "outputs": [],
      "stateMutability": "payable",
      "type": "function"
    },
    {
      "inputs": [
        {
          "internalType": "uint16",
          "name": "_version",
          "type": "uint16"
        },
        {
          "internalType": "uint16",
          "name": "_chainId",
          "type": "uint16"
        },
        {
          "internalType": "uint256",
          "name": "_configType",
          "type": "uint256"
        },
        {
          "internalType": "bytes",
          "name": "_config",
          "type": "bytes"
        }
      ],
      "name": "setConfig",
      "outputs": [],
      "stateMutability": "nonpayable",
      "type": "function"
    },
    {
      "inputs": [
        {
          "internalType": "uint16",
          "name": "_version",
          "type": "uint16"
        }
      ],
      "name": "setReceiveVersion",
      "outputs": [],
      "stateMutability": "nonpayable",
      "type": "function"
    },
    {
      "inputs": [
        {
          "internalType": "uint16",
          "name": "_version",
          "type": "uint16"
        }
      ],
      "name": "setSendVersion",
      "outputs": [],
      "stateMutability": "nonpayable",
      "type": "function"
    },
    {
      "inputs": [
        {
          "internalType": "uint16",
          "name": "_srcChainId",
          "type": "uint16"
        },
        {
          "internalType": "bytes",
          "name": "_srcAddress",
          "type": "bytes"
        }
      ],
      "name": "setTrustedRemote",
      "outputs": [],
      "stateMutability": "nonpayable",
      "type": "function"
    },
    {
      "inputs": [
        {
          "internalType": "bytes4",
          "name": "interfaceId",
          "type": "bytes4"
        }
      ],
      "name": "supportsInterface",
      "outputs": [
        {
          "internalType": "bool",
          "name": "",
          "type": "bool"
        }
      ],
      "stateMutability": "view",
      "type": "function"
    },
    {
      "inputs": [
        {
          "internalType": "uint256",
          "name": "amount",
          "type": "uint256"
        },
        {
          "internalType": "address",
          "name": "recipient",
          "type": "address"
        }
      ],
      "name": "sweep",
      "outputs": [],
      "stateMutability": "nonpayable",
      "type": "function"
    },
    {
      "inputs": [],
      "name": "token",
      "outputs": [
        {
          "internalType": "contract IERC20",
          "name": "",
          "type": "address"
        }
      ],
      "stateMutability": "view",
      "type": "function"
    },
    {
      "inputs": [],
      "name": "treasury",
      "outputs": [
        {
          "internalType": "address",
          "name": "",
          "type": "address"
        }
      ],
      "stateMutability": "view",
      "type": "function"
    },
    {
      "inputs": [
        {
          "internalType": "uint16",
          "name": "",
          "type": "uint16"
        }
      ],
      "name": "trustedRemoteLookup",
      "outputs": [
        {
          "internalType": "bytes",
          "name": "",
          "type": "bytes"
        }
      ],
      "stateMutability": "view",
      "type": "function"
    },
    {
      "inputs": [
        {
          "internalType": "uint256",
          "name": "amount",
          "type": "uint256"
        },
        {
          "internalType": "address",
          "name": "recipient",
          "type": "address"
        }
      ],
      "name": "withdraw",
      "outputs": [],
      "stateMutability": "nonpayable",
      "type": "function"
    }
  ],
  "transactionHash": "0x87a644f4485a52bf967f46b0238db914fe58a3542ead854ce04e5292120ce6fa",
  "args": [
    "AgEUR_LayerZero_TEST",
    "AgEUR_LayerZero_TEST",
    "0xb6319cC6c8c27A8F5dAF0dD3DF91EA35C4720dd7",
    "0x97B6897AAd7aBa3861c04C0e6388Fc02AF1F227f"
  ],
  "solcInputHash": "956c77651c73458ed4f997576a111272",
  "bytecode": "0x60e06040523480156200001157600080fd5b5060405162003026380380620030268339810160408190526200003491620001b2565b6001600160a01b03808316608052811660a08190526002805460ff19169055604080516374e5ec1160e11b8152905163e9cbd822916004808201926020929091908290030181865afa1580156200008f573d6000803e3d6000fd5b505050506040513d601f19601f82011682018060405250810190620000b5919062000246565b6001600160a01b031660c052506200026d92505050565b634e487b7160e01b600052604160045260246000fd5b600082601f830112620000f457600080fd5b81516001600160401b0380821115620001115762000111620000cc565b604051601f8301601f19908116603f011681019082821181831017156200013c576200013c620000cc565b816040528381526020925086838588010111156200015957600080fd5b600091505b838210156200017d57858201830151818301840152908201906200015e565b838211156200018f5760008385830101525b9695505050505050565b6001600160a01b0381168114620001af57600080fd5b50565b60008060008060808587031215620001c957600080fd5b84516001600160401b0380821115620001e157600080fd5b620001ef88838901620000e2565b955060208701519150808211156200020657600080fd5b506200021587828801620000e2565b9350506040850151620002288162000199565b60608601519092506200023b8162000199565b939692955090935050565b6000602082840312156200025957600080fd5b8151620002668162000199565b9392505050565b60805160a05160c051612cf66200033060003960008181610503015281816107a001528181611cfd01528181611fac015281816120a201526121610152600081816103490152818161087b015281816109ff01528181610d3401528181610fb9015281816111500152818161137501526114b80152600081816103ef0152818161053d0152818161096301528181610ae701528181610bae01528181610e27015281816110ac015281816115d0015281816118990152611e8b0152612cf66000f3fe60806040526004361061017e5760003560e01c806361d027b3116100d6578063d1deba1f1161007f578063f187892211610059578063f1878922146104b1578063f5ecbdbc146104d1578063fc0c546a146104f157600080fd5b8063d1deba1f14610451578063d5d44d8014610464578063eb8d72b71461049157600080fd5b8063b353aaa7116100b0578063b353aaa7146103dd578063cbed8b9c14610411578063cbf9b84b1461043157600080fd5b806361d027b31461033757806366ad5c8a146103905780637533d788146103b057600080fd5b80632a205e3d11610138578063519056361161011257806351905636146102af5780635b8c41e6146102c25780635c975abb1461031f57600080fd5b80632a205e3d1461023a5780633d8b38f61461026f57806342d65a8d1461028f57600080fd5b806301ffc9a71161016957806301ffc9a7146101c557806307e0db17146101fa57806310ddb1371461021a57600080fd5b80621d356714610183578062f714ce146101a5575b600080fd5b34801561018f57600080fd5b506101a361019e3660046123d7565b610525565b005b3480156101b157600080fd5b506101a36101c0366004612482565b61069b565b3480156101d157600080fd5b506101e56101e03660046124b2565b610812565b60405190151581526020015b60405180910390f35b34801561020657600080fd5b506101a36102153660046124fb565b61084d565b34801561022657600080fd5b506101a36102353660046124fb565b6109d1565b34801561024657600080fd5b5061025a610255366004612524565b610b2b565b604080519283526020830191909152016101f1565b34801561027b57600080fd5b506101e561028a366004612600565b610c3a565b34801561029b57600080fd5b506101a36102aa366004612600565b610d06565b6101a36102bd366004612653565b610e97565b3480156102ce57600080fd5b506103116102dd36600461270d565b6001602090815260009384526040808520845180860184018051928152908401958401959095209452929052825290205481565b6040519081526020016101f1565b34801561032b57600080fd5b5060025460ff166101e5565b34801561034357600080fd5b5061036b7f000000000000000000000000000000000000000000000000000000000000000081565b60405173ffffffffffffffffffffffffffffffffffffffff90911681526020016101f1565b34801561039c57600080fd5b506101a36103ab3660046123d7565b610ea6565b3480156103bc57600080fd5b506103d06103cb3660046124fb565b610ef1565b6040516101f191906127e5565b3480156103e957600080fd5b5061036b7f000000000000000000000000000000000000000000000000000000000000000081565b34801561041d57600080fd5b506101a361042c3660046127f8565b610f8b565b34801561043d57600080fd5b506101a361044c366004612482565b611122565b6101a361045f3660046123d7565b611261565b34801561047057600080fd5b5061031161047f366004612867565b60036020526000908152604090205481565b34801561049d57600080fd5b506101a36104ac366004612600565b611347565b3480156104bd57600080fd5b506101a36104cc366004612884565b61148a565b3480156104dd57600080fd5b506103d06104ec3660046128a1565b611586565b3480156104fd57600080fd5b5061036b7f000000000000000000000000000000000000000000000000000000000000000081565b3373ffffffffffffffffffffffffffffffffffffffff7f00000000000000000000000000000000000000000000000000000000000000001614610594576040517ff1cbb56700000000000000000000000000000000000000000000000000000000815260040160405180910390fd5b61ffff8416600090815260208190526040812080546105b2906128ee565b80601f01602080910402602001604051908101604052809291908181526020018280546105de906128ee565b801561062b5780601f106106005761010080835404028352916020019161062b565b820191906000526020600020905b81548152906001019060200180831161060e57829003601f168201915b505050505090508051845114158061065157508080519060200120848051906020012014155b15610688576040517f8154374b00000000000000000000000000000000000000000000000000000000815260040160405180910390fd5b6106948585858561167b565b5050505050565b60025460ff161561070d576040517f08c379a000000000000000000000000000000000000000000000000000000000815260206004820152601060248201527f5061757361626c653a207061757365640000000000000000000000000000000060448201526064015b60405180910390fd5b73ffffffffffffffffffffffffffffffffffffffff811660009081526003602052604090205461073e908390612942565b73ffffffffffffffffffffffffffffffffffffffff828116600081815260036020526040908190209390935591517fa9059cbb0000000000000000000000000000000000000000000000000000000081526004810192909252602482018490527f0000000000000000000000000000000000000000000000000000000000000000169063a9059cbb906044016020604051808303816000875af11580156107e9573d6000803e3d6000fd5b505050506040513d601f19601f8201168201806040525081019061080d9190612980565b505050565b60007fffffffff0000000000000000000000000000000000000000000000000000000082161580610847575061084782611786565b92915050565b6040517f521d4de90000000000000000000000000000000000000000000000000000000081523360048201527f000000000000000000000000000000000000000000000000000000000000000073ffffffffffffffffffffffffffffffffffffffff169063521d4de990602401602060405180830381865afa1580156108d7573d6000803e3d6000fd5b505050506040513d601f19601f820116820180604052508101906108fb9190612980565b610931576040517f99e120bc00000000000000000000000000000000000000000000000000000000815260040160405180910390fd5b6040517f07e0db1700000000000000000000000000000000000000000000000000000000815261ffff821660048201527f000000000000000000000000000000000000000000000000000000000000000073ffffffffffffffffffffffffffffffffffffffff16906307e0db17906024015b600060405180830381600087803b1580156109bd57600080fd5b505af1158015610694573d6000803e3d6000fd5b6040517f521d4de90000000000000000000000000000000000000000000000000000000081523360048201527f000000000000000000000000000000000000000000000000000000000000000073ffffffffffffffffffffffffffffffffffffffff169063521d4de990602401602060405180830381865afa158015610a5b573d6000803e3d6000fd5b505050506040513d601f19601f82011682018060405250810190610a7f9190612980565b610ab5576040517f99e120bc00000000000000000000000000000000000000000000000000000000815260040160405180910390fd5b6040517f10ddb13700000000000000000000000000000000000000000000000000000000815261ffff821660048201527f000000000000000000000000000000000000000000000000000000000000000073ffffffffffffffffffffffffffffffffffffffff16906310ddb137906024016109a3565b60008060008686604051602001610b4392919061299d565b604080517fffffffffffffffffffffffffffffffffffffffffffffffffffffffffffffffe0818403018152908290527f40a7bb10000000000000000000000000000000000000000000000000000000008252915073ffffffffffffffffffffffffffffffffffffffff7f000000000000000000000000000000000000000000000000000000000000000016906340a7bb1090610beb908b90309086908b908b906004016129bf565b6040805180830381865afa158015610c07573d6000803e3d6000fd5b505050506040513d601f19601f82011682018060405250810190610c2b9190612a1e565b92509250509550959350505050565b61ffff831660009081526020819052604081208054829190610c5b906128ee565b80601f0160208091040260200160405190810160405280929190818152602001828054610c87906128ee565b8015610cd45780601f10610ca957610100808354040283529160200191610cd4565b820191906000526020600020905b815481529060010190602001808311610cb757829003601f168201915b505050505090508383604051610ceb929190612a42565b60405180910390208180519060200120149150509392505050565b6040517f521d4de90000000000000000000000000000000000000000000000000000000081523360048201527f000000000000000000000000000000000000000000000000000000000000000073ffffffffffffffffffffffffffffffffffffffff169063521d4de990602401602060405180830381865afa158015610d90573d6000803e3d6000fd5b505050506040513d601f19601f82011682018060405250810190610db49190612980565b610dea576040517f99e120bc00000000000000000000000000000000000000000000000000000000815260040160405180910390fd5b6040517f42d65a8d00000000000000000000000000000000000000000000000000000000815273ffffffffffffffffffffffffffffffffffffffff7f000000000000000000000000000000000000000000000000000000000000000016906342d65a8d90610e6090869086908690600401612a9b565b600060405180830381600087803b158015610e7a57600080fd5b505af1158015610e8e573d6000803e3d6000fd5b50505050505050565b610e8e8787878787878761181d565b333014610edf576040517f48f5c3ed00000000000000000000000000000000000000000000000000000000815260040160405180910390fd5b610eeb8484848461199b565b50505050565b60006020819052908152604090208054610f0a906128ee565b80601f0160208091040260200160405190810160405280929190818152602001828054610f36906128ee565b8015610f835780601f10610f5857610100808354040283529160200191610f83565b820191906000526020600020905b815481529060010190602001808311610f6657829003601f168201915b505050505081565b6040517f521d4de90000000000000000000000000000000000000000000000000000000081523360048201527f000000000000000000000000000000000000000000000000000000000000000073ffffffffffffffffffffffffffffffffffffffff169063521d4de990602401602060405180830381865afa158015611015573d6000803e3d6000fd5b505050506040513d601f19601f820116820180604052508101906110399190612980565b61106f576040517f99e120bc00000000000000000000000000000000000000000000000000000000815260040160405180910390fd5b6040517fcbed8b9c00000000000000000000000000000000000000000000000000000000815273ffffffffffffffffffffffffffffffffffffffff7f0000000000000000000000000000000000000000000000000000000000000000169063cbed8b9c906110e99088908890889088908890600401612ab9565b600060405180830381600087803b15801561110357600080fd5b505af1158015611117573d6000803e3d6000fd5b505050505050505050565b6040517f521d4de90000000000000000000000000000000000000000000000000000000081523360048201527f000000000000000000000000000000000000000000000000000000000000000073ffffffffffffffffffffffffffffffffffffffff169063521d4de990602401602060405180830381865afa1580156111ac573d6000803e3d6000fd5b505050506040513d601f19601f820116820180604052508101906111d09190612980565b611206576040517f99e120bc00000000000000000000000000000000000000000000000000000000815260040160405180910390fd5b73ffffffffffffffffffffffffffffffffffffffff8116600090815260036020526040902054611237908390612942565b73ffffffffffffffffffffffffffffffffffffffff90911660009081526003602052604090205550565b61ffff84166000908152600160205260408082209051611282908690612af2565b908152604080516020928190038301902067ffffffffffffffff86166000908152925290205490508015806112bd5750815160208301208114155b156112f4576040517f7c6953f900000000000000000000000000000000000000000000000000000000815260040160405180910390fd5b61ffff85166000908152600160205260408082209051611315908790612af2565b908152604080516020928190038301902067ffffffffffffffff8716600090815292529020556106948585858561199b565b6040517f521d4de90000000000000000000000000000000000000000000000000000000081523360048201527f000000000000000000000000000000000000000000000000000000000000000073ffffffffffffffffffffffffffffffffffffffff169063521d4de990602401602060405180830381865afa1580156113d1573d6000803e3d6000fd5b505050506040513d601f19601f820116820180604052508101906113f59190612980565b61142b576040517f99e120bc00000000000000000000000000000000000000000000000000000000815260040160405180910390fd5b61ffff831660009081526020819052604090206114499083836121d9565b507ffa41487ad5d6728f0b19276fa1eddc16558578f5109fc39d2dc33c3230470dab83838360405161147d93929190612a9b565b60405180910390a1505050565b6040517f521d4de90000000000000000000000000000000000000000000000000000000081523360048201527f000000000000000000000000000000000000000000000000000000000000000073ffffffffffffffffffffffffffffffffffffffff169063521d4de990602401602060405180830381865afa158015611514573d6000803e3d6000fd5b505050506040513d601f19601f820116820180604052508101906115389190612980565b61156e576040517f99e120bc00000000000000000000000000000000000000000000000000000000815260040160405180910390fd5b8061157e5761157b611a46565b50565b61157b611b27565b6040517ff5ecbdbc00000000000000000000000000000000000000000000000000000000815261ffff808616600483015284166024820152306044820152606481018290526060907f000000000000000000000000000000000000000000000000000000000000000073ffffffffffffffffffffffffffffffffffffffff169063f5ecbdbc90608401600060405180830381865afa15801561162c573d6000803e3d6000fd5b505050506040513d6000823e601f3d9081017fffffffffffffffffffffffffffffffffffffffffffffffffffffffffffffffe01682016040526116729190810190612b5b565b95945050505050565b6040517f66ad5c8a00000000000000000000000000000000000000000000000000000000815230906366ad5c8a906116bd908790879087908790600401612b90565b600060405180830381600087803b1580156116d757600080fd5b505af19250505080156116e8575060015b610eeb578080519060200120600160008661ffff1661ffff1681526020019081526020016000208460405161171d9190612af2565b90815260408051918290036020908101832067ffffffffffffffff87166000908152915220919091557fe6f254030bcb01ffd20558175c13fcaed6d1520be7becee4c961b65f79243b0d90611779908690869086908690612b90565b60405180910390a1610eeb565b60007fffffffff0000000000000000000000000000000000000000000000000000000082167f7bb0080b00000000000000000000000000000000000000000000000000000000148061084757507f01ffc9a7000000000000000000000000000000000000000000000000000000007fffffffff00000000000000000000000000000000000000000000000000000000831614610847565b61182987878787611be7565b93506000858560405160200161184092919061299d565b604051602081830303815290604052905061185e8782868686611d74565b6040517f7a14574800000000000000000000000000000000000000000000000000000000815261ffff881660048201523060248201526000907f000000000000000000000000000000000000000000000000000000000000000073ffffffffffffffffffffffffffffffffffffffff1690637a14574890604401602060405180830381865afa1580156118f5573d6000803e3d6000fd5b505050506040513d601f19601f820116820180604052508101906119199190612bcf565b9050866040516119299190612af2565b6040805191829003822088835267ffffffffffffffff841660208401529161ffff8b169173ffffffffffffffffffffffffffffffffffffffff8d16917f024797cc77ce15dc717112d54fb1df125fdfd8c81344fb046c5e074427ce1543910160405180910390a4505050505050505050565b600080828060200190518101906119b29190612bec565b601482015191935091506119c7878284611f06565b91508073ffffffffffffffffffffffffffffffffffffffff16866040516119ee9190612af2565b6040805191829003822085835267ffffffffffffffff891660208401529161ffff8b16917f64e10c37f404d128982dce114f5d233c14c5c7f6d8db93099e3d99dacb9e27ba910160405180910390a450505050505050565b60025460ff16611ab2576040517f08c379a000000000000000000000000000000000000000000000000000000000815260206004820152601460248201527f5061757361626c653a206e6f74207061757365640000000000000000000000006044820152606401610704565b600280547fffffffffffffffffffffffffffffffffffffffffffffffffffffffffffffff001690557f5db9ee0a495bf2e6ff9c91a7834c1ba4fdd244a5e8aa4e537bd38aeae4b073aa335b60405173ffffffffffffffffffffffffffffffffffffffff909116815260200160405180910390a1565b60025460ff1615611b94576040517f08c379a000000000000000000000000000000000000000000000000000000000815260206004820152601060248201527f5061757361626c653a20706175736564000000000000000000000000000000006044820152606401610704565b600280547fffffffffffffffffffffffffffffffffffffffffffffffffffffffffffffff001660011790557f62e78cea01bee320cd4e420270b5ea74000d11b0c9f74754ebdbfc544b05a258611afd3390565b6000611bf560025460ff1690565b15611c5c576040517f08c379a000000000000000000000000000000000000000000000000000000000815260206004820152601060248201527f5061757361626c653a20706175736564000000000000000000000000000000006044820152606401610704565b73ffffffffffffffffffffffffffffffffffffffff85163314611cab576040517f5461585f00000000000000000000000000000000000000000000000000000000815260040160405180910390fd5b6040517f23b872dd00000000000000000000000000000000000000000000000000000000815273ffffffffffffffffffffffffffffffffffffffff8681166004830152306024830152604482018490527f000000000000000000000000000000000000000000000000000000000000000016906323b872dd906064016020604051808303816000875af1158015611d46573d6000803e3d6000fd5b505050506040513d601f19601f82011682018060405250810190611d6a9190612980565b5090949350505050565b61ffff851660009081526020819052604081208054611d92906128ee565b80601f0160208091040260200160405190810160405280929190818152602001828054611dbe906128ee565b8015611e0b5780601f10611de057610100808354040283529160200191611e0b565b820191906000526020600020905b815481529060010190602001808311611dee57829003601f168201915b50505050509050805160001415611e4e576040517f8154374b00000000000000000000000000000000000000000000000000000000815260040160405180910390fd5b6040517fc580310000000000000000000000000000000000000000000000000000000000815273ffffffffffffffffffffffffffffffffffffffff7f0000000000000000000000000000000000000000000000000000000000000000169063c5803100903490611ecc908a9086908b908b908b908b90600401612c33565b6000604051808303818588803b158015611ee557600080fd5b505af1158015611ef9573d6000803e3d6000fd5b5050505050505050505050565b6000611f1460025460ff1690565b15611f7b576040517f08c379a000000000000000000000000000000000000000000000000000000000815260206004820152601060248201527f5061757361626c653a20706175736564000000000000000000000000000000006044820152606401610704565b6040517f70a082310000000000000000000000000000000000000000000000000000000081523060048201526000907f000000000000000000000000000000000000000000000000000000000000000073ffffffffffffffffffffffffffffffffffffffff16906370a0823190602401602060405180830381865afa158015612008573d6000803e3d6000fd5b505050506040513d601f19601f8201168201806040525081019061202c9190612ca7565b905082811015612115576120408184612942565b73ffffffffffffffffffffffffffffffffffffffff858116600081815260036020526040908190209390935591517fa9059cbb0000000000000000000000000000000000000000000000000000000081526004810192909252602482018390527f0000000000000000000000000000000000000000000000000000000000000000169063a9059cbb906044016020604051808303816000875af11580156120eb573d6000803e3d6000fd5b505050506040513d601f19601f8201168201806040525081019061210f9190612980565b506121d0565b6040517fa9059cbb00000000000000000000000000000000000000000000000000000000815273ffffffffffffffffffffffffffffffffffffffff8581166004830152602482018590527f0000000000000000000000000000000000000000000000000000000000000000169063a9059cbb906044016020604051808303816000875af11580156121aa573d6000803e3d6000fd5b505050506040513d601f19601f820116820180604052508101906121ce9190612980565b505b50909392505050565b8280546121e5906128ee565b90600052602060002090601f016020900481019282612207576000855561226b565b82601f1061223e578280017fffffffffffffffffffffffffffffffffffffffffffffffffffffffffffffff0082351617855561226b565b8280016001018555821561226b579182015b8281111561226b578235825591602001919060010190612250565b5061227792915061227b565b5090565b5b80821115612277576000815560010161227c565b803561ffff811681146122a257600080fd5b919050565b7f4e487b7100000000000000000000000000000000000000000000000000000000600052604160045260246000fd5b604051601f82017fffffffffffffffffffffffffffffffffffffffffffffffffffffffffffffffe016810167ffffffffffffffff8111828210171561231d5761231d6122a7565b604052919050565b600067ffffffffffffffff82111561233f5761233f6122a7565b50601f017fffffffffffffffffffffffffffffffffffffffffffffffffffffffffffffffe01660200190565b600082601f83011261237c57600080fd5b813561238f61238a82612325565b6122d6565b8181528460208386010111156123a457600080fd5b816020850160208301376000918101602001919091529392505050565b67ffffffffffffffff8116811461157b57600080fd5b600080600080608085870312156123ed57600080fd5b6123f685612290565b9350602085013567ffffffffffffffff8082111561241357600080fd5b61241f8883890161236b565b945060408701359150612431826123c1565b9092506060860135908082111561244757600080fd5b506124548782880161236b565b91505092959194509250565b73ffffffffffffffffffffffffffffffffffffffff8116811461157b57600080fd5b6000806040838503121561249557600080fd5b8235915060208301356124a781612460565b809150509250929050565b6000602082840312156124c457600080fd5b81357fffffffff00000000000000000000000000000000000000000000000000000000811681146124f457600080fd5b9392505050565b60006020828403121561250d57600080fd5b6124f482612290565b801515811461157b57600080fd5b600080600080600060a0868803121561253c57600080fd5b61254586612290565b9450602086013567ffffffffffffffff8082111561256257600080fd5b61256e89838a0161236b565b9550604088013594506060880135915061258782612516565b9092506080870135908082111561259d57600080fd5b506125aa8882890161236b565b9150509295509295909350565b60008083601f8401126125c957600080fd5b50813567ffffffffffffffff8111156125e157600080fd5b6020830191508360208285010111156125f957600080fd5b9250929050565b60008060006040848603121561261557600080fd5b61261e84612290565b9250602084013567ffffffffffffffff81111561263a57600080fd5b612646868287016125b7565b9497909650939450505050565b600080600080600080600060e0888a03121561266e57600080fd5b873561267981612460565b965061268760208901612290565b9550604088013567ffffffffffffffff808211156126a457600080fd5b6126b08b838c0161236b565b965060608a0135955060808a013591506126c982612460565b90935060a0890135906126db82612460565b90925060c089013590808211156126f157600080fd5b506126fe8a828b0161236b565b91505092959891949750929550565b60008060006060848603121561272257600080fd5b61272b84612290565b9250602084013567ffffffffffffffff81111561274757600080fd5b6127538682870161236b565b9250506040840135612764816123c1565b809150509250925092565b60005b8381101561278a578181015183820152602001612772565b83811115610eeb5750506000910152565b600081518084526127b381602086016020860161276f565b601f017fffffffffffffffffffffffffffffffffffffffffffffffffffffffffffffffe0169290920160200192915050565b6020815260006124f4602083018461279b565b60008060008060006080868803121561281057600080fd5b61281986612290565b945061282760208701612290565b935060408601359250606086013567ffffffffffffffff81111561284a57600080fd5b612856888289016125b7565b969995985093965092949392505050565b60006020828403121561287957600080fd5b81356124f481612460565b60006020828403121561289657600080fd5b81356124f481612516565b600080600080608085870312156128b757600080fd5b6128c085612290565b93506128ce60208601612290565b925060408501356128de81612460565b9396929550929360600135925050565b600181811c9082168061290257607f821691505b6020821081141561293c577f4e487b7100000000000000000000000000000000000000000000000000000000600052602260045260246000fd5b50919050565b60008282101561297b577f4e487b7100000000000000000000000000000000000000000000000000000000600052601160045260246000fd5b500390565b60006020828403121561299257600080fd5b81516124f481612516565b6040815260006129b0604083018561279b565b90508260208301529392505050565b61ffff8616815273ffffffffffffffffffffffffffffffffffffffff8516602082015260a0604082015260006129f860a083018661279b565b84151560608401528281036080840152612a12818561279b565b98975050505050505050565b60008060408385031215612a3157600080fd5b505080516020909101519092909150565b8183823760009101908152919050565b8183528181602085013750600060208284010152600060207fffffffffffffffffffffffffffffffffffffffffffffffffffffffffffffffe0601f840116840101905092915050565b61ffff84168152604060208201526000611672604083018486612a52565b600061ffff808816835280871660208401525084604083015260806060830152612ae7608083018486612a52565b979650505050505050565b60008251612b0481846020870161276f565b9190910192915050565b600082601f830112612b1f57600080fd5b8151612b2d61238a82612325565b818152846020838601011115612b4257600080fd5b612b5382602083016020870161276f565b949350505050565b600060208284031215612b6d57600080fd5b815167ffffffffffffffff811115612b8457600080fd5b612b5384828501612b0e565b61ffff85168152608060208201526000612bad608083018661279b565b67ffffffffffffffff851660408401528281036060840152612ae7818561279b565b600060208284031215612be157600080fd5b81516124f4816123c1565b60008060408385031215612bff57600080fd5b825167ffffffffffffffff811115612c1657600080fd5b612c2285828601612b0e565b925050602083015190509250929050565b61ffff8716815260c060208201526000612c5060c083018861279b565b8281036040840152612c62818861279b565b73ffffffffffffffffffffffffffffffffffffffff87811660608601528616608085015283810360a08501529050612c9a818561279b565b9998505050505050505050565b600060208284031215612cb957600080fd5b505191905056fea2646970667358221220d2b66725fda4fc500f857b44b0d8725816b78549bd06fa4353803bda33a185ea64736f6c634300080c0033",
  "devdoc": {
    "kind": "dev",
    "methods": {
      "estimateSendFee(uint16,bytes,uint256,bool,bytes)": {
        "details": "estimate send token `_tokenId` to (`_dstChainId`, `_toAddress`) _dstChainId - L0 defined chain id to send tokens too _toAddress - dynamic bytes array which contains the address to whom you are sending tokens to on the dstChain _amount - amount of the tokens to transfer _useZro - indicates to use zro to pay L0 fees _adapterParam - flexible bytes array to indicate messaging adapter services in L0"
      },
      "paused()": {
        "details": "Returns true if the contract is paused, and false otherwise."
      },
      "sendFrom(address,uint16,bytes,uint256,address,address,bytes)": {
        "details": "send `_amount` amount of token to (`_dstChainId`, `_toAddress`) from `_from` `_from` the owner of token `_dstChainId` the destination chain identifier `_toAddress` can be any size depending on the `dstChainId`. `_amount` the quantity of tokens in wei `_refundAddress` the address LayerZero refunds if too much message fee is sent `_zroPaymentAddress` set to address(0x0) if not paying in ZRO (LayerZero Token) `_adapterParams` is a flexible bytes array to indicate messaging adapter services"
      }
    },
    "version": 1
  },
  "userdoc": {
    "kind": "user",
    "methods": {
      "credit(address)": {
        "notice": "Maps an address to the amount of token bridged but not received"
      },
      "lzEndpoint()": {
        "notice": "Layer Zero endpoint"
      },
      "token()": {
        "notice": "Address of the bridgeable token"
      },
      "treasury()": {
        "notice": "Reference to the treasury contract to fetch access control"
      },
      "trustedRemoteLookup(uint16)": {
        "notice": "Maps chainIds to their OFT address"
      }
    },
    "version": 1
  },
  "storageLayout": {
    "storage": [
      {
        "astId": 9667,
        "contract": "contracts/agToken/layerZero/AngleETHOFT.sol:AngleETHOFT",
        "label": "trustedRemoteLookup",
        "offset": 0,
        "slot": "0",
        "type": "t_mapping(t_uint16,t_bytes_storage)"
      },
      {
        "astId": 9999,
        "contract": "contracts/agToken/layerZero/AngleETHOFT.sol:AngleETHOFT",
        "label": "failedMessages",
        "offset": 0,
        "slot": "1",
        "type": "t_mapping(t_uint16,t_mapping(t_bytes_memory_ptr,t_mapping(t_uint64,t_bytes32)))"
      },
      {
        "astId": 4689,
        "contract": "contracts/agToken/layerZero/AngleETHOFT.sol:AngleETHOFT",
        "label": "_paused",
        "offset": 0,
        "slot": "2",
        "type": "t_bool"
      },
      {
        "astId": 9053,
        "contract": "contracts/agToken/layerZero/AngleETHOFT.sol:AngleETHOFT",
        "label": "credit",
        "offset": 0,
        "slot": "3",
        "type": "t_mapping(t_address,t_uint256)"
      }
    ],
    "types": {
      "t_address": {
        "encoding": "inplace",
        "label": "address",
        "numberOfBytes": "20"
      },
      "t_bool": {
        "encoding": "inplace",
        "label": "bool",
        "numberOfBytes": "1"
      },
      "t_bytes32": {
        "encoding": "inplace",
        "label": "bytes32",
        "numberOfBytes": "32"
      },
      "t_bytes_memory_ptr": {
        "encoding": "bytes",
        "label": "bytes",
        "numberOfBytes": "32"
      },
      "t_bytes_storage": {
        "encoding": "bytes",
        "label": "bytes",
        "numberOfBytes": "32"
      },
      "t_mapping(t_address,t_uint256)": {
        "encoding": "mapping",
        "key": "t_address",
        "label": "mapping(address => uint256)",
        "numberOfBytes": "32",
        "value": "t_uint256"
      },
      "t_mapping(t_bytes_memory_ptr,t_mapping(t_uint64,t_bytes32))": {
        "encoding": "mapping",
        "key": "t_bytes_memory_ptr",
        "label": "mapping(bytes => mapping(uint64 => bytes32))",
        "numberOfBytes": "32",
        "value": "t_mapping(t_uint64,t_bytes32)"
      },
      "t_mapping(t_uint16,t_bytes_storage)": {
        "encoding": "mapping",
        "key": "t_uint16",
        "label": "mapping(uint16 => bytes)",
        "numberOfBytes": "32",
        "value": "t_bytes_storage"
      },
      "t_mapping(t_uint16,t_mapping(t_bytes_memory_ptr,t_mapping(t_uint64,t_bytes32)))": {
        "encoding": "mapping",
        "key": "t_uint16",
        "label": "mapping(uint16 => mapping(bytes => mapping(uint64 => bytes32)))",
        "numberOfBytes": "32",
        "value": "t_mapping(t_bytes_memory_ptr,t_mapping(t_uint64,t_bytes32))"
      },
      "t_mapping(t_uint64,t_bytes32)": {
        "encoding": "mapping",
        "key": "t_uint64",
        "label": "mapping(uint64 => bytes32)",
        "numberOfBytes": "32",
        "value": "t_bytes32"
      },
      "t_uint16": {
        "encoding": "inplace",
        "label": "uint16",
        "numberOfBytes": "2"
      },
      "t_uint256": {
        "encoding": "inplace",
        "label": "uint256",
        "numberOfBytes": "32"
      },
      "t_uint64": {
        "encoding": "inplace",
        "label": "uint64",
        "numberOfBytes": "8"
      }
    }
  }
}