{
  "address": "0xa1252AEf9EF63FAe75670E7F05430607D69dC2c0",
  "abi": [
    {
      "inputs": [],
      "stateMutability": "nonpayable",
      "type": "constructor"
    },
    {
      "inputs": [],
      "name": "InvalidAllowance",
      "type": "error"
    },
    {
      "inputs": [],
      "name": "InvalidCaller",
      "type": "error"
    },
    {
      "inputs": [],
      "name": "InvalidEndpoint",
      "type": "error"
    },
    {
      "inputs": [],
      "name": "InvalidPayload",
      "type": "error"
    },
    {
      "inputs": [],
      "name": "InvalidSource",
      "type": "error"
    },
    {
      "inputs": [],
      "name": "NotGovernor",
      "type": "error"
    },
    {
      "inputs": [],
      "name": "NotGovernorOrGuardian",
      "type": "error"
    },
    {
      "anonymous": false,
      "inputs": [
        {
          "indexed": true,
          "internalType": "address",
          "name": "owner",
          "type": "address"
        },
        {
          "indexed": true,
          "internalType": "address",
          "name": "spender",
          "type": "address"
        },
        {
          "indexed": false,
          "internalType": "uint256",
          "name": "value",
          "type": "uint256"
        }
      ],
      "name": "Approval",
      "type": "event"
    },
    {
      "anonymous": false,
      "inputs": [
        {
          "indexed": false,
          "internalType": "uint16",
          "name": "_srcChainId",
          "type": "uint16"
        },
        {
          "indexed": false,
          "internalType": "bytes",
          "name": "_srcAddress",
          "type": "bytes"
        },
        {
          "indexed": false,
          "internalType": "uint64",
          "name": "_nonce",
          "type": "uint64"
        },
        {
          "indexed": false,
          "internalType": "bytes",
          "name": "_payload",
          "type": "bytes"
        }
      ],
      "name": "MessageFailed",
      "type": "event"
    },
    {
      "anonymous": false,
      "inputs": [
        {
          "indexed": false,
          "internalType": "address",
          "name": "account",
          "type": "address"
        }
      ],
      "name": "Paused",
      "type": "event"
    },
    {
      "anonymous": false,
      "inputs": [
        {
          "indexed": true,
          "internalType": "uint16",
          "name": "_srcChainId",
          "type": "uint16"
        },
        {
          "indexed": true,
          "internalType": "bytes",
          "name": "_srcAddress",
          "type": "bytes"
        },
        {
          "indexed": true,
          "internalType": "address",
          "name": "_toAddress",
          "type": "address"
        },
        {
          "indexed": false,
          "internalType": "uint256",
          "name": "_amount",
          "type": "uint256"
        },
        {
          "indexed": false,
          "internalType": "uint64",
          "name": "_nonce",
          "type": "uint64"
        }
      ],
      "name": "ReceiveFromChain",
      "type": "event"
    },
    {
      "anonymous": false,
      "inputs": [
        {
          "indexed": true,
          "internalType": "address",
          "name": "_sender",
          "type": "address"
        },
        {
          "indexed": true,
          "internalType": "uint16",
          "name": "_dstChainId",
          "type": "uint16"
        },
        {
          "indexed": true,
          "internalType": "bytes",
          "name": "_toAddress",
          "type": "bytes"
        },
        {
          "indexed": false,
          "internalType": "uint256",
          "name": "_amount",
          "type": "uint256"
        },
        {
          "indexed": false,
          "internalType": "uint64",
          "name": "_nonce",
          "type": "uint64"
        }
      ],
      "name": "SendToChain",
      "type": "event"
    },
    {
      "anonymous": false,
      "inputs": [
        {
          "indexed": false,
          "internalType": "uint16",
          "name": "_srcChainId",
          "type": "uint16"
        },
        {
          "indexed": false,
          "internalType": "bytes",
          "name": "_srcAddress",
          "type": "bytes"
        }
      ],
      "name": "SetTrustedRemote",
      "type": "event"
    },
    {
      "anonymous": false,
      "inputs": [
        {
          "indexed": true,
          "internalType": "address",
          "name": "from",
          "type": "address"
        },
        {
          "indexed": true,
          "internalType": "address",
          "name": "to",
          "type": "address"
        },
        {
          "indexed": false,
          "internalType": "uint256",
          "name": "value",
          "type": "uint256"
        }
      ],
      "name": "Transfer",
      "type": "event"
    },
    {
      "anonymous": false,
      "inputs": [
        {
          "indexed": false,
          "internalType": "address",
          "name": "account",
          "type": "address"
        }
      ],
      "name": "Unpaused",
      "type": "event"
    },
    {
      "inputs": [
        {
          "internalType": "address",
          "name": "owner",
          "type": "address"
        },
        {
          "internalType": "address",
          "name": "spender",
          "type": "address"
        }
      ],
      "name": "allowance",
      "outputs": [
        {
          "internalType": "uint256",
          "name": "",
          "type": "uint256"
        }
      ],
      "stateMutability": "view",
      "type": "function"
    },
    {
      "inputs": [
        {
          "internalType": "address",
          "name": "spender",
          "type": "address"
        },
        {
          "internalType": "uint256",
          "name": "amount",
          "type": "uint256"
        }
      ],
      "name": "approve",
      "outputs": [
        {
          "internalType": "bool",
          "name": "",
          "type": "bool"
        }
      ],
      "stateMutability": "nonpayable",
      "type": "function"
    },
    {
      "inputs": [
        {
          "internalType": "address",
          "name": "account",
          "type": "address"
        }
      ],
      "name": "balanceOf",
      "outputs": [
        {
          "internalType": "uint256",
          "name": "",
          "type": "uint256"
        }
      ],
      "stateMutability": "view",
      "type": "function"
    },
    {
      "inputs": [
        {
          "internalType": "uint256",
          "name": "amount",
          "type": "uint256"
        }
      ],
      "name": "burn",
      "outputs": [],
      "stateMutability": "nonpayable",
      "type": "function"
    },
    {
      "inputs": [],
      "name": "canonicalToken",
      "outputs": [
        {
          "internalType": "contract IAgTokenSideChainMultiBridge",
          "name": "",
          "type": "address"
        }
      ],
      "stateMutability": "view",
      "type": "function"
    },
    {
      "inputs": [],
      "name": "decimals",
      "outputs": [
        {
          "internalType": "uint8",
          "name": "",
          "type": "uint8"
        }
      ],
      "stateMutability": "view",
      "type": "function"
    },
    {
      "inputs": [
        {
          "internalType": "address",
          "name": "spender",
          "type": "address"
        },
        {
          "internalType": "uint256",
          "name": "subtractedValue",
          "type": "uint256"
        }
      ],
      "name": "decreaseAllowance",
      "outputs": [
        {
          "internalType": "bool",
          "name": "",
          "type": "bool"
        }
      ],
      "stateMutability": "nonpayable",
      "type": "function"
    },
    {
      "inputs": [
        {
          "internalType": "uint16",
          "name": "_dstChainId",
          "type": "uint16"
        },
        {
          "internalType": "bytes",
          "name": "_toAddress",
          "type": "bytes"
        },
        {
          "internalType": "uint256",
          "name": "_amount",
          "type": "uint256"
        },
        {
          "internalType": "bool",
          "name": "_useZro",
          "type": "bool"
        },
        {
          "internalType": "bytes",
          "name": "_adapterParams",
          "type": "bytes"
        }
      ],
      "name": "estimateSendFee",
      "outputs": [
        {
          "internalType": "uint256",
          "name": "nativeFee",
          "type": "uint256"
        },
        {
          "internalType": "uint256",
          "name": "zroFee",
          "type": "uint256"
        }
      ],
      "stateMutability": "view",
      "type": "function"
    },
    {
      "inputs": [
        {
          "internalType": "uint16",
          "name": "",
          "type": "uint16"
        },
        {
          "internalType": "bytes",
          "name": "",
          "type": "bytes"
        },
        {
          "internalType": "uint64",
          "name": "",
          "type": "uint64"
        }
      ],
      "name": "failedMessages",
      "outputs": [
        {
          "internalType": "bytes32",
          "name": "",
          "type": "bytes32"
        }
      ],
      "stateMutability": "view",
      "type": "function"
    },
    {
      "inputs": [
        {
          "internalType": "uint16",
          "name": "_srcChainId",
          "type": "uint16"
        },
        {
          "internalType": "bytes",
          "name": "_srcAddress",
          "type": "bytes"
        }
      ],
      "name": "forceResumeReceive",
      "outputs": [],
      "stateMutability": "nonpayable",
      "type": "function"
    },
    {
      "inputs": [
        {
          "internalType": "uint16",
          "name": "_version",
          "type": "uint16"
        },
        {
          "internalType": "uint16",
          "name": "_chainId",
          "type": "uint16"
        },
        {
          "internalType": "address",
          "name": "",
          "type": "address"
        },
        {
          "internalType": "uint256",
          "name": "_configType",
          "type": "uint256"
        }
      ],
      "name": "getConfig",
      "outputs": [
        {
          "internalType": "bytes",
          "name": "",
          "type": "bytes"
        }
      ],
      "stateMutability": "view",
      "type": "function"
    },
    {
      "inputs": [
        {
          "internalType": "address",
          "name": "spender",
          "type": "address"
        },
        {
          "internalType": "uint256",
          "name": "addedValue",
          "type": "uint256"
        }
      ],
      "name": "increaseAllowance",
      "outputs": [
        {
          "internalType": "bool",
          "name": "",
          "type": "bool"
        }
      ],
      "stateMutability": "nonpayable",
      "type": "function"
    },
    {
      "inputs": [
        {
          "internalType": "string",
          "name": "_name",
          "type": "string"
        },
        {
          "internalType": "string",
          "name": "_symbol",
          "type": "string"
        },
        {
          "internalType": "address",
          "name": "_lzEndpoint",
          "type": "address"
        },
        {
          "internalType": "address",
          "name": "_treasury",
          "type": "address"
        },
        {
          "internalType": "uint256",
          "name": "initialSupply",
          "type": "uint256"
        }
      ],
      "name": "initialize",
      "outputs": [],
      "stateMutability": "nonpayable",
      "type": "function"
    },
    {
      "inputs": [
        {
          "internalType": "uint16",
          "name": "_srcChainId",
          "type": "uint16"
        },
        {
          "internalType": "bytes",
          "name": "_srcAddress",
          "type": "bytes"
        }
      ],
      "name": "isTrustedRemote",
      "outputs": [
        {
          "internalType": "bool",
          "name": "",
          "type": "bool"
        }
      ],
      "stateMutability": "view",
      "type": "function"
    },
    {
      "inputs": [],
      "name": "lzEndpoint",
      "outputs": [
        {
          "internalType": "contract ILayerZeroEndpoint",
          "name": "",
          "type": "address"
        }
      ],
      "stateMutability": "view",
      "type": "function"
    },
    {
      "inputs": [
        {
          "internalType": "uint16",
          "name": "_srcChainId",
          "type": "uint16"
        },
        {
          "internalType": "bytes",
          "name": "_srcAddress",
          "type": "bytes"
        },
        {
          "internalType": "uint64",
          "name": "_nonce",
          "type": "uint64"
        },
        {
          "internalType": "bytes",
          "name": "_payload",
          "type": "bytes"
        }
      ],
      "name": "lzReceive",
      "outputs": [],
      "stateMutability": "nonpayable",
      "type": "function"
    },
    {
      "inputs": [
        {
          "internalType": "uint256",
          "name": "amount",
          "type": "uint256"
        }
      ],
      "name": "mint",
      "outputs": [],
      "stateMutability": "nonpayable",
      "type": "function"
    },
    {
      "inputs": [],
      "name": "name",
      "outputs": [
        {
          "internalType": "string",
          "name": "",
          "type": "string"
        }
      ],
      "stateMutability": "view",
      "type": "function"
    },
    {
      "inputs": [
        {
          "internalType": "uint16",
          "name": "_srcChainId",
          "type": "uint16"
        },
        {
          "internalType": "bytes",
          "name": "_srcAddress",
          "type": "bytes"
        },
        {
          "internalType": "uint64",
          "name": "_nonce",
          "type": "uint64"
        },
        {
          "internalType": "bytes",
          "name": "_payload",
          "type": "bytes"
        }
      ],
      "name": "nonblockingLzReceive",
      "outputs": [],
      "stateMutability": "nonpayable",
      "type": "function"
    },
    {
      "inputs": [
        {
          "internalType": "bool",
          "name": "pause",
          "type": "bool"
        }
      ],
      "name": "pauseSendTokens",
      "outputs": [],
      "stateMutability": "nonpayable",
      "type": "function"
    },
    {
      "inputs": [],
      "name": "paused",
      "outputs": [
        {
          "internalType": "bool",
          "name": "",
          "type": "bool"
        }
      ],
      "stateMutability": "view",
      "type": "function"
    },
    {
      "inputs": [
        {
          "internalType": "uint16",
          "name": "_srcChainId",
          "type": "uint16"
        },
        {
          "internalType": "bytes",
          "name": "_srcAddress",
          "type": "bytes"
        },
        {
          "internalType": "uint64",
          "name": "_nonce",
          "type": "uint64"
        },
        {
          "internalType": "bytes",
          "name": "_payload",
          "type": "bytes"
        }
      ],
      "name": "retryMessage",
      "outputs": [],
      "stateMutability": "payable",
      "type": "function"
    },
    {
      "inputs": [
        {
          "internalType": "uint16",
          "name": "_dstChainId",
          "type": "uint16"
        },
        {
          "internalType": "bytes",
          "name": "_toAddress",
          "type": "bytes"
        },
        {
          "internalType": "uint256",
          "name": "_amount",
          "type": "uint256"
        },
        {
          "internalType": "address payable",
          "name": "_refundAddress",
          "type": "address"
        },
        {
          "internalType": "address",
          "name": "_zroPaymentAddress",
          "type": "address"
        },
        {
          "internalType": "bytes",
          "name": "_adapterParams",
          "type": "bytes"
        }
      ],
      "name": "send",
      "outputs": [],
      "stateMutability": "payable",
      "type": "function"
    },
    {
      "inputs": [
        {
          "internalType": "uint16",
          "name": "_dstChainId",
          "type": "uint16"
        },
        {
          "internalType": "bytes",
          "name": "_toAddress",
          "type": "bytes"
        },
        {
          "internalType": "uint256",
          "name": "_amount",
          "type": "uint256"
        },
        {
          "internalType": "address payable",
          "name": "_refundAddress",
          "type": "address"
        },
        {
          "internalType": "address",
          "name": "_zroPaymentAddress",
          "type": "address"
        },
        {
          "internalType": "bytes",
          "name": "_adapterParams",
          "type": "bytes"
        },
        {
          "internalType": "uint256",
          "name": "deadline",
          "type": "uint256"
        },
        {
          "internalType": "uint8",
          "name": "v",
          "type": "uint8"
        },
        {
          "internalType": "bytes32",
          "name": "r",
          "type": "bytes32"
        },
        {
          "internalType": "bytes32",
          "name": "s",
          "type": "bytes32"
        }
      ],
      "name": "sendWithPermit",
      "outputs": [],
      "stateMutability": "payable",
      "type": "function"
    },
    {
      "inputs": [
        {
          "internalType": "uint16",
          "name": "_version",
          "type": "uint16"
        },
        {
          "internalType": "uint16",
          "name": "_chainId",
          "type": "uint16"
        },
        {
          "internalType": "uint256",
          "name": "_configType",
          "type": "uint256"
        },
        {
          "internalType": "bytes",
          "name": "_config",
          "type": "bytes"
        }
      ],
      "name": "setConfig",
      "outputs": [],
      "stateMutability": "nonpayable",
      "type": "function"
    },
    {
      "inputs": [
        {
          "internalType": "uint16",
          "name": "_version",
          "type": "uint16"
        }
      ],
      "name": "setReceiveVersion",
      "outputs": [],
      "stateMutability": "nonpayable",
      "type": "function"
    },
    {
      "inputs": [
        {
          "internalType": "uint16",
          "name": "_version",
          "type": "uint16"
        }
      ],
      "name": "setSendVersion",
      "outputs": [],
      "stateMutability": "nonpayable",
      "type": "function"
    },
    {
      "inputs": [
        {
          "internalType": "uint16",
          "name": "_srcChainId",
          "type": "uint16"
        },
        {
          "internalType": "bytes",
          "name": "_srcAddress",
          "type": "bytes"
        }
      ],
      "name": "setTrustedRemote",
      "outputs": [],
      "stateMutability": "nonpayable",
      "type": "function"
    },
    {
      "inputs": [],
      "name": "setupAllowance",
      "outputs": [],
      "stateMutability": "nonpayable",
      "type": "function"
    },
    {
      "inputs": [
        {
          "internalType": "bytes4",
          "name": "interfaceId",
          "type": "bytes4"
        }
      ],
      "name": "supportsInterface",
      "outputs": [
        {
          "internalType": "bool",
          "name": "",
          "type": "bool"
        }
      ],
      "stateMutability": "view",
      "type": "function"
    },
    {
      "inputs": [],
      "name": "symbol",
      "outputs": [
        {
          "internalType": "string",
          "name": "",
          "type": "string"
        }
      ],
      "stateMutability": "view",
      "type": "function"
    },
    {
      "inputs": [],
      "name": "totalSupply",
      "outputs": [
        {
          "internalType": "uint256",
          "name": "",
          "type": "uint256"
        }
      ],
      "stateMutability": "view",
      "type": "function"
    },
    {
      "inputs": [
        {
          "internalType": "address",
          "name": "recipient",
          "type": "address"
        },
        {
          "internalType": "uint256",
          "name": "amount",
          "type": "uint256"
        }
      ],
      "name": "transfer",
      "outputs": [
        {
          "internalType": "bool",
          "name": "",
          "type": "bool"
        }
      ],
      "stateMutability": "nonpayable",
      "type": "function"
    },
    {
      "inputs": [
        {
          "internalType": "address",
          "name": "sender",
          "type": "address"
        },
        {
          "internalType": "address",
          "name": "recipient",
          "type": "address"
        },
        {
          "internalType": "uint256",
          "name": "amount",
          "type": "uint256"
        }
      ],
      "name": "transferFrom",
      "outputs": [
        {
          "internalType": "bool",
          "name": "",
          "type": "bool"
        }
      ],
      "stateMutability": "nonpayable",
      "type": "function"
    },
    {
      "inputs": [],
      "name": "treasury",
      "outputs": [
        {
          "internalType": "address",
          "name": "",
          "type": "address"
        }
      ],
      "stateMutability": "view",
      "type": "function"
    },
    {
      "inputs": [
        {
          "internalType": "uint16",
          "name": "",
          "type": "uint16"
        }
      ],
      "name": "trustedRemoteLookup",
      "outputs": [
        {
          "internalType": "bytes",
          "name": "",
          "type": "bytes"
        }
      ],
      "stateMutability": "view",
      "type": "function"
    }
  ],
  "transactionHash": "0xb070aec27871e1a4dbc64cfcf20313e34728f0cc2e85c6d6f7986cfb1b6a6c2b",
  "args": [],
  "solcInputHash": "4ce071e4e8516cbd14e57ab5e801d58f",
  "bytecode": "0x60806040523480156200001157600080fd5b50600054610100900460ff166200002f5760005460ff161562000039565b62000039620000de565b620000a15760405162461bcd60e51b815260206004820152602e60248201527f496e697469616c697a61626c653a20636f6e747261637420697320616c72656160448201526d191e481a5b9a5d1a585b1a5e995960921b606482015260840160405180910390fd5b600054610100900460ff16158015620000c4576000805461ffff19166101011790555b8015620000d7576000805461ff00191690555b5062000102565b6000620000f630620000fc60201b62001f9c1760201c565b15905090565b3b151590565b613e2680620001126000396000f3fe60806040526004361061024e5760003560e01c806370a0823111610138578063cbed8b9c116100b0578063e09e911e1161007f578063eed33cef11610064578063eed33cef1461073c578063f18789221461074f578063f5ecbdbc1461076f57600080fd5b8063e09e911e14610707578063eb8d72b71461071c57600080fd5b8063cbed8b9c14610653578063ceb76b5514610673578063d1deba1f146106a1578063dd62ed3e146106b457600080fd5b8063a0712d6811610107578063a9059cbb116100ec578063a9059cbb146105e0578063b353aaa714610600578063c9aba0aa1461063357600080fd5b8063a0712d68146105a0578063a457c2d7146105c057600080fd5b806370a08231146105155780637533d7881461055857806385edd8ae1461057857806395d89b411461058b57600080fd5b8063313ce567116101cb57806342d65a8d1161019a5780635c975abb1161017f5780635c975abb1461048b57806361d027b3146104a357806366ad5c8a146104f557600080fd5b806342d65a8d1461041c5780635b8c41e61461043c57600080fd5b8063313ce567146103a057806339509351146103bc5780633d8b38f6146103dc57806342966c68146103fc57600080fd5b8063095ea7b31161022257806318160ddd1161020757806318160ddd1461032c57806323b872dd1461034b5780632a205e3d1461036b57600080fd5b8063095ea7b3146102ec57806310ddb1371461030c57600080fd5b80621d35671461025357806301ffc9a71461027557806306fdde03146102aa57806307e0db17146102cc575b600080fd5b34801561025f57600080fd5b5061027361026e3660046132db565b61078f565b005b34801561028157600080fd5b50610295610290366004613364565b6108ed565b60405190151581526020015b60405180910390f35b3480156102b657600080fd5b506102bf610974565b6040516102a19190613423565b3480156102d857600080fd5b506102736102e7366004613436565b610a06565b3480156102f857600080fd5b5061029561030736600461347e565b610b57565b34801561031857600080fd5b50610273610327366004613436565b610b6d565b34801561033857600080fd5b5060ca545b6040519081526020016102a1565b34801561035757600080fd5b506102956103663660046134aa565b610c94565b34801561037757600080fd5b5061038b6103863660046134f9565b610d7f565b604080519283526020830191909152016102a1565b3480156103ac57600080fd5b50604051601281526020016102a1565b3480156103c857600080fd5b506102956103d736600461347e565b610e77565b3480156103e857600080fd5b506102956103f73660046135d5565b610ec0565b34801561040857600080fd5b50610273610417366004613628565b610f8c565b34801561042857600080fd5b506102736104373660046135d5565b61107b565b34801561044857600080fd5b5061033d610457366004613641565b6001602090815260009384526040808520845180860184018051928152908401958401959095209452929052825290205481565b34801561049757600080fd5b5060fa5460ff16610295565b3480156104af57600080fd5b506003546104d09073ffffffffffffffffffffffffffffffffffffffff1681565b60405173ffffffffffffffffffffffffffffffffffffffff90911681526020016102a1565b34801561050157600080fd5b506102736105103660046132db565b6111d9565b34801561052157600080fd5b5061033d6105303660046136a3565b73ffffffffffffffffffffffffffffffffffffffff16600090815260c8602052604090205490565b34801561056457600080fd5b506102bf610573366004613436565b611224565b6102736105863660046136d1565b6112be565b34801561059757600080fd5b506102bf611387565b3480156105ac57600080fd5b506102736105bb366004613628565b611396565b3480156105cc57600080fd5b506102956105db36600461347e565b611482565b3480156105ec57600080fd5b506102956105fb36600461347e565b61155a565b34801561060c57600080fd5b506000546104d09062010000900473ffffffffffffffffffffffffffffffffffffffff1681565b34801561063f57600080fd5b5061027361064e3660046137a0565b611567565b34801561065f57600080fd5b5061027361066e366004613831565b611814565b34801561067f57600080fd5b5061012c546104d09073ffffffffffffffffffffffffffffffffffffffff1681565b6102736106af3660046132db565b611978565b3480156106c057600080fd5b5061033d6106cf3660046138a0565b73ffffffffffffffffffffffffffffffffffffffff918216600090815260c96020908152604080832093909416825291909152205490565b34801561071357600080fd5b50610273611a5e565b34801561072857600080fd5b506102736107373660046135d5565b611b6e565b61027361074a3660046138d9565b611c95565b34801561075b57600080fd5b5061027361076a36600461397f565b611de2565b34801561077b57600080fd5b506102bf61078a36600461399c565b611ebf565b60005462010000900473ffffffffffffffffffffffffffffffffffffffff1633146107e6576040517ff1cbb56700000000000000000000000000000000000000000000000000000000815260040160405180910390fd5b61ffff841660009081526002602052604081208054610804906139e9565b80601f0160208091040260200160405190810160405280929190818152602001828054610830906139e9565b801561087d5780601f106108525761010080835404028352916020019161087d565b820191906000526020600020905b81548152906001019060200180831161086057829003601f168201915b50505050509050805184511415806108a357508080519060200120848051906020012014155b156108da576040517f8154374b00000000000000000000000000000000000000000000000000000000815260040160405180910390fd5b6108e685858585611fa2565b5050505050565b60007fffffffff000000000000000000000000000000000000000000000000000000008216158061095f57507fffffffff0000000000000000000000000000000000000000000000000000000082167f36372b0700000000000000000000000000000000000000000000000000000000145b8061096e575061096e826120ad565b92915050565b606060cb8054610983906139e9565b80601f01602080910402602001604051908101604052809291908181526020018280546109af906139e9565b80156109fc5780601f106109d1576101008083540402835291602001916109fc565b820191906000526020600020905b8154815290600101906020018083116109df57829003601f168201915b5050505050905090565b6003546040517f521d4de900000000000000000000000000000000000000000000000000000000815233600482015273ffffffffffffffffffffffffffffffffffffffff9091169063521d4de990602401602060405180830381865afa158015610a74573d6000803e3d6000fd5b505050506040513d601f19601f82011682018060405250810190610a989190613a3d565b610ace576040517f99e120bc00000000000000000000000000000000000000000000000000000000815260040160405180910390fd5b6000546040517f07e0db1700000000000000000000000000000000000000000000000000000000815261ffff831660048201526201000090910473ffffffffffffffffffffffffffffffffffffffff16906307e0db17906024015b600060405180830381600087803b158015610b4357600080fd5b505af11580156108e6573d6000803e3d6000fd5b6000610b64338484612144565b50600192915050565b6003546040517f521d4de900000000000000000000000000000000000000000000000000000000815233600482015273ffffffffffffffffffffffffffffffffffffffff9091169063521d4de990602401602060405180830381865afa158015610bdb573d6000803e3d6000fd5b505050506040513d601f19601f82011682018060405250810190610bff9190613a3d565b610c35576040517f99e120bc00000000000000000000000000000000000000000000000000000000815260040160405180910390fd5b6000546040517f10ddb13700000000000000000000000000000000000000000000000000000000815261ffff831660048201526201000090910473ffffffffffffffffffffffffffffffffffffffff16906310ddb13790602401610b29565b6000610ca18484846122f8565b73ffffffffffffffffffffffffffffffffffffffff8416600090815260c96020908152604080832033845290915290205482811015610d67576040517f08c379a000000000000000000000000000000000000000000000000000000000815260206004820152602860248201527f45524332303a207472616e7366657220616d6f756e742065786365656473206160448201527f6c6c6f77616e636500000000000000000000000000000000000000000000000060648201526084015b60405180910390fd5b610d748533858403612144565b506001949350505050565b60008060008686604051602001610d97929190613a5a565b604080518083037fffffffffffffffffffffffffffffffffffffffffffffffffffffffffffffffe0018152908290526000547f40a7bb1000000000000000000000000000000000000000000000000000000000835290925062010000900473ffffffffffffffffffffffffffffffffffffffff16906340a7bb1090610e28908b90309086908b908b90600401613a7c565b6040805180830381865afa158015610e44573d6000803e3d6000fd5b505050506040513d601f19601f82011682018060405250810190610e689190613adb565b92509250509550959350505050565b33600081815260c96020908152604080832073ffffffffffffffffffffffffffffffffffffffff871684529091528120549091610b64918590610ebb908690613b2e565b612144565b61ffff831660009081526002602052604081208054829190610ee1906139e9565b80601f0160208091040260200160405190810160405280929190818152602001828054610f0d906139e9565b8015610f5a5780601f10610f2f57610100808354040283529160200191610f5a565b820191906000526020600020905b815481529060010190602001808311610f3d57829003601f168201915b505050505090508383604051610f71929190613b46565b60405180910390208180519060200120149150509392505050565b6003546040517f521d4de900000000000000000000000000000000000000000000000000000000815233600482015273ffffffffffffffffffffffffffffffffffffffff9091169063521d4de990602401602060405180830381865afa158015610ffa573d6000803e3d6000fd5b505050506040513d601f19601f8201168201806040525081019061101e9190613a3d565b611054576040517f99e120bc00000000000000000000000000000000000000000000000000000000815260040160405180910390fd5b61012c546110789073ffffffffffffffffffffffffffffffffffffffff16826125ab565b50565b6003546040517f521d4de900000000000000000000000000000000000000000000000000000000815233600482015273ffffffffffffffffffffffffffffffffffffffff9091169063521d4de990602401602060405180830381865afa1580156110e9573d6000803e3d6000fd5b505050506040513d601f19601f8201168201806040525081019061110d9190613a3d565b611143576040517f99e120bc00000000000000000000000000000000000000000000000000000000815260040160405180910390fd5b6000546040517f42d65a8d0000000000000000000000000000000000000000000000000000000081526201000090910473ffffffffffffffffffffffffffffffffffffffff16906342d65a8d906111a290869086908690600401613b9f565b600060405180830381600087803b1580156111bc57600080fd5b505af11580156111d0573d6000803e3d6000fd5b50505050505050565b333014611212576040517f48f5c3ed00000000000000000000000000000000000000000000000000000000815260040160405180910390fd5b61121e84848484612795565b50505050565b6002602052600090815260409020805461123d906139e9565b80601f0160208091040260200160405190810160405280929190818152602001828054611269906139e9565b80156112b65780601f1061128b576101008083540402835291602001916112b6565b820191906000526020600020905b81548152906001019060200180831161129957829003601f168201915b505050505081565b61012c546040517fd505accf000000000000000000000000000000000000000000000000000000008152336004820152306024820152604481018a90526064810186905260ff8516608482015260a4810184905260c4810183905273ffffffffffffffffffffffffffffffffffffffff9091169063d505accf9060e401600060405180830381600087803b15801561135557600080fd5b505af1158015611369573d6000803e3d6000fd5b5050505061137b8a8a8a8a8a8a611c95565b50505050505050505050565b606060cc8054610983906139e9565b6003546040517f521d4de900000000000000000000000000000000000000000000000000000000815233600482015273ffffffffffffffffffffffffffffffffffffffff9091169063521d4de990602401602060405180830381865afa158015611404573d6000803e3d6000fd5b505050506040513d601f19601f820116820180604052508101906114289190613a3d565b61145e576040517f99e120bc00000000000000000000000000000000000000000000000000000000815260040160405180910390fd5b61012c546110789073ffffffffffffffffffffffffffffffffffffffff1682612840565b33600090815260c96020908152604080832073ffffffffffffffffffffffffffffffffffffffff8616845290915281205482811015611543576040517f08c379a000000000000000000000000000000000000000000000000000000000815260206004820152602560248201527f45524332303a2064656372656173656420616c6c6f77616e63652062656c6f7760448201527f207a65726f0000000000000000000000000000000000000000000000000000006064820152608401610d5e565b6115503385858403612144565b5060019392505050565b6000610b643384846122f8565b600054610100900460ff166115825760005460ff1615611586565b303b155b611612576040517f08c379a000000000000000000000000000000000000000000000000000000000815260206004820152602e60248201527f496e697469616c697a61626c653a20636f6e747261637420697320616c72656160448201527f647920696e697469616c697a65640000000000000000000000000000000000006064820152608401610d5e565b600054610100900460ff1615801561165157600080547fffffffffffffffffffffffffffffffffffffffffffffffffffffffffffff0000166101011790555b61165b8686612960565b6116d984846000805473ffffffffffffffffffffffffffffffffffffffff93841662010000027fffffffffffffffffffff0000000000000000000000000000000000000000ffff90911617905560038054919092167fffffffffffffffffffffffff0000000000000000000000000000000000000000909116179055565b8273ffffffffffffffffffffffffffffffffffffffff1663e9cbd8226040518163ffffffff1660e01b8152600401602060405180830381865afa158015611724573d6000803e3d6000fd5b505050506040513d601f19601f820116820180604052508101906117489190613bbd565b61012c80547fffffffffffffffffffffffff00000000000000000000000000000000000000001673ffffffffffffffffffffffffffffffffffffffff9290921691821790556117b99030907fffffffffffffffffffffffffffffffffffffffffffffffffffffffffffffffff612144565b61012c546117dd9073ffffffffffffffffffffffffffffffffffffffff1683612840565b801561180c57600080547fffffffffffffffffffffffffffffffffffffffffffffffffffffffffffff00ff1690555b505050505050565b6003546040517f521d4de900000000000000000000000000000000000000000000000000000000815233600482015273ffffffffffffffffffffffffffffffffffffffff9091169063521d4de990602401602060405180830381865afa158015611882573d6000803e3d6000fd5b505050506040513d601f19601f820116820180604052508101906118a69190613a3d565b6118dc576040517f99e120bc00000000000000000000000000000000000000000000000000000000815260040160405180910390fd5b6000546040517fcbed8b9c0000000000000000000000000000000000000000000000000000000081526201000090910473ffffffffffffffffffffffffffffffffffffffff169063cbed8b9c9061193f9088908890889088908890600401613bda565b600060405180830381600087803b15801561195957600080fd5b505af115801561196d573d6000803e3d6000fd5b505050505050505050565b61ffff84166000908152600160205260408082209051611999908690613c13565b908152604080516020928190038301902067ffffffffffffffff86166000908152925290205490508015806119d45750815160208301208114155b15611a0b576040517f7c6953f900000000000000000000000000000000000000000000000000000000815260040160405180910390fd5b61ffff85166000908152600160205260408082209051611a2c908790613c13565b908152604080516020928190038301902067ffffffffffffffff8716600090815292529020556108e685858585612795565b6003546040517f521d4de900000000000000000000000000000000000000000000000000000000815233600482015273ffffffffffffffffffffffffffffffffffffffff9091169063521d4de990602401602060405180830381865afa158015611acc573d6000803e3d6000fd5b505050506040513d601f19601f82011682018060405250810190611af09190613a3d565b611b26576040517f99e120bc00000000000000000000000000000000000000000000000000000000815260040160405180910390fd5b61012c54611b6c90309073ffffffffffffffffffffffffffffffffffffffff167fffffffffffffffffffffffffffffffffffffffffffffffffffffffffffffffff612144565b565b6003546040517f521d4de900000000000000000000000000000000000000000000000000000000815233600482015273ffffffffffffffffffffffffffffffffffffffff9091169063521d4de990602401602060405180830381865afa158015611bdc573d6000803e3d6000fd5b505050506040513d601f19601f82011682018060405250810190611c009190613a3d565b611c36576040517f99e120bc00000000000000000000000000000000000000000000000000000000815260040160405180910390fd5b61ffff83166000908152600260205260409020611c54908383613069565b507ffa41487ad5d6728f0b19276fa1eddc16558578f5109fc39d2dc33c3230470dab838383604051611c8893929190613b9f565b60405180910390a1505050565b611ca0868686612a1e565b935060008585604051602001611cb7929190613a5a565b6040516020818303038152906040529050611cd58782868686612bee565b600080546040517f7a14574800000000000000000000000000000000000000000000000000000000815261ffff8a1660048201523060248201526201000090910473ffffffffffffffffffffffffffffffffffffffff1690637a14574890604401602060405180830381865afa158015611d53573d6000803e3d6000fd5b505050506040513d601f19601f82011682018060405250810190611d779190613c2f565b905086604051611d879190613c13565b6040805191829003822088835267ffffffffffffffff841660208401529161ffff8b169133917f024797cc77ce15dc717112d54fb1df125fdfd8c81344fb046c5e074427ce1543910160405180910390a45050505050505050565b6003546040517f521d4de900000000000000000000000000000000000000000000000000000000815233600482015273ffffffffffffffffffffffffffffffffffffffff9091169063521d4de990602401602060405180830381865afa158015611e50573d6000803e3d6000fd5b505050506040513d601f19601f82011682018060405250810190611e749190613a3d565b611eaa576040517f99e120bc00000000000000000000000000000000000000000000000000000000815260040160405180910390fd5b80611eb757611078612d69565b611078612e4a565b6000546040517ff5ecbdbc00000000000000000000000000000000000000000000000000000000815261ffff8087166004830152851660248201523060448201526064810183905260609162010000900473ffffffffffffffffffffffffffffffffffffffff169063f5ecbdbc90608401600060405180830381865afa158015611f4d573d6000803e3d6000fd5b505050506040513d6000823e601f3d9081017fffffffffffffffffffffffffffffffffffffffffffffffffffffffffffffffe0168201604052611f939190810190613c91565b95945050505050565b3b151590565b6040517f66ad5c8a00000000000000000000000000000000000000000000000000000000815230906366ad5c8a90611fe4908790879087908790600401613cc6565b600060405180830381600087803b158015611ffe57600080fd5b505af192505050801561200f575060015b61121e578080519060200120600160008661ffff1661ffff168152602001908152602001600020846040516120449190613c13565b90815260408051918290036020908101832067ffffffffffffffff87166000908152915220919091557fe6f254030bcb01ffd20558175c13fcaed6d1520be7becee4c961b65f79243b0d906120a0908690869086908690613cc6565b60405180910390a161121e565b60007fffffffff0000000000000000000000000000000000000000000000000000000082167f411eba7c00000000000000000000000000000000000000000000000000000000148061096e57507f01ffc9a7000000000000000000000000000000000000000000000000000000007fffffffff0000000000000000000000000000000000000000000000000000000083161461096e565b73ffffffffffffffffffffffffffffffffffffffff83166121e6576040517f08c379a0000000000000000000000000000000000000000000000000000000008152602060048201526024808201527f45524332303a20617070726f76652066726f6d20746865207a65726f2061646460448201527f72657373000000000000000000000000000000000000000000000000000000006064820152608401610d5e565b73ffffffffffffffffffffffffffffffffffffffff8216612289576040517f08c379a000000000000000000000000000000000000000000000000000000000815260206004820152602260248201527f45524332303a20617070726f766520746f20746865207a65726f20616464726560448201527f73730000000000000000000000000000000000000000000000000000000000006064820152608401610d5e565b73ffffffffffffffffffffffffffffffffffffffff838116600081815260c9602090815260408083209487168084529482529182902085905590518481527f8c5be1e5ebec7d5bd14f71427d1e84f3dd0314c0f7b2291e5b200ac8c7c3b92591015b60405180910390a3505050565b73ffffffffffffffffffffffffffffffffffffffff831661239b576040517f08c379a000000000000000000000000000000000000000000000000000000000815260206004820152602560248201527f45524332303a207472616e736665722066726f6d20746865207a65726f20616460448201527f64726573730000000000000000000000000000000000000000000000000000006064820152608401610d5e565b73ffffffffffffffffffffffffffffffffffffffff821661243e576040517f08c379a000000000000000000000000000000000000000000000000000000000815260206004820152602360248201527f45524332303a207472616e7366657220746f20746865207a65726f206164647260448201527f65737300000000000000000000000000000000000000000000000000000000006064820152608401610d5e565b73ffffffffffffffffffffffffffffffffffffffff8316600090815260c86020526040902054818110156124f4576040517f08c379a000000000000000000000000000000000000000000000000000000000815260206004820152602660248201527f45524332303a207472616e7366657220616d6f756e742065786365656473206260448201527f616c616e636500000000000000000000000000000000000000000000000000006064820152608401610d5e565b73ffffffffffffffffffffffffffffffffffffffff808516600090815260c86020526040808220858503905591851681529081208054849290612538908490613b2e565b925050819055508273ffffffffffffffffffffffffffffffffffffffff168473ffffffffffffffffffffffffffffffffffffffff167fddf252ad1be2c89b69c2b068fc378daa952ba7f163c4a11628f55a4df523b3ef8460405161259e91815260200190565b60405180910390a361121e565b73ffffffffffffffffffffffffffffffffffffffff821661264e576040517f08c379a000000000000000000000000000000000000000000000000000000000815260206004820152602160248201527f45524332303a206275726e2066726f6d20746865207a65726f2061646472657360448201527f73000000000000000000000000000000000000000000000000000000000000006064820152608401610d5e565b73ffffffffffffffffffffffffffffffffffffffff8216600090815260c8602052604090205481811015612704576040517f08c379a000000000000000000000000000000000000000000000000000000000815260206004820152602260248201527f45524332303a206275726e20616d6f756e7420657863656564732062616c616e60448201527f63650000000000000000000000000000000000000000000000000000000000006064820152608401610d5e565b73ffffffffffffffffffffffffffffffffffffffff8316600090815260c860205260408120838303905560ca8054849290612740908490613d05565b909155505060405182815260009073ffffffffffffffffffffffffffffffffffffffff8516907fddf252ad1be2c89b69c2b068fc378daa952ba7f163c4a11628f55a4df523b3ef906020016122eb565b505050565b600080828060200190518101906127ac9190613d1c565b601482015191935091506127c1878284612f0a565b91508073ffffffffffffffffffffffffffffffffffffffff16866040516127e89190613c13565b6040805191829003822085835267ffffffffffffffff891660208401529161ffff8b16917f64e10c37f404d128982dce114f5d233c14c5c7f6d8db93099e3d99dacb9e27ba910160405180910390a450505050505050565b73ffffffffffffffffffffffffffffffffffffffff82166128bd576040517f08c379a000000000000000000000000000000000000000000000000000000000815260206004820152601f60248201527f45524332303a206d696e7420746f20746865207a65726f2061646472657373006044820152606401610d5e565b8060ca60008282546128cf9190613b2e565b909155505073ffffffffffffffffffffffffffffffffffffffff8216600090815260c8602052604081208054839290612909908490613b2e565b909155505060405181815273ffffffffffffffffffffffffffffffffffffffff8316906000907fddf252ad1be2c89b69c2b068fc378daa952ba7f163c4a11628f55a4df523b3ef9060200160405180910390a35050565b600054610100900460ff166129f7576040517f08c379a000000000000000000000000000000000000000000000000000000000815260206004820152602b60248201527f496e697469616c697a61626c653a20636f6e7472616374206973206e6f74206960448201527f6e697469616c697a696e670000000000000000000000000000000000000000006064820152608401610d5e565b8151612a0a9060cb90602085019061310b565b5080516127909060cc90602084019061310b565b6000612a2c60fa5460ff1690565b15612a93576040517f08c379a000000000000000000000000000000000000000000000000000000000815260206004820152601060248201527f5061757361626c653a20706175736564000000000000000000000000000000006044820152606401610d5e565b61012c546040517f23b872dd0000000000000000000000000000000000000000000000000000000081523360048201523060248201526044810184905273ffffffffffffffffffffffffffffffffffffffff909116906323b872dd906064016020604051808303816000875af1158015612b11573d6000803e3d6000fd5b505050506040513d601f19601f82011682018060405250810190612b359190613a3d565b5061012c546040517fd44ad63f000000000000000000000000000000000000000000000000000000008152306004820181905260248201859052604482015260009173ffffffffffffffffffffffffffffffffffffffff169063d44ad63f906064016020604051808303816000875af1158015612bb6573d6000803e3d6000fd5b505050506040513d601f19601f82011682018060405250810190612bda9190613d63565b9050612be630826125ab565b949350505050565b61ffff851660009081526002602052604081208054612c0c906139e9565b80601f0160208091040260200160405190810160405280929190818152602001828054612c38906139e9565b8015612c855780601f10612c5a57610100808354040283529160200191612c85565b820191906000526020600020905b815481529060010190602001808311612c6857829003601f168201915b50505050509050805160001415612cc8576040517f8154374b00000000000000000000000000000000000000000000000000000000815260040160405180910390fd5b6000546040517fc58031000000000000000000000000000000000000000000000000000000000081526201000090910473ffffffffffffffffffffffffffffffffffffffff169063c5803100903490612d2f908a9086908b908b908b908b90600401613d7c565b6000604051808303818588803b158015612d4857600080fd5b505af1158015612d5c573d6000803e3d6000fd5b5050505050505050505050565b60fa5460ff16612dd5576040517f08c379a000000000000000000000000000000000000000000000000000000000815260206004820152601460248201527f5061757361626c653a206e6f74207061757365640000000000000000000000006044820152606401610d5e565b60fa80547fffffffffffffffffffffffffffffffffffffffffffffffffffffffffffffff001690557f5db9ee0a495bf2e6ff9c91a7834c1ba4fdd244a5e8aa4e537bd38aeae4b073aa335b60405173ffffffffffffffffffffffffffffffffffffffff909116815260200160405180910390a1565b60fa5460ff1615612eb7576040517f08c379a000000000000000000000000000000000000000000000000000000000815260206004820152601060248201527f5061757361626c653a20706175736564000000000000000000000000000000006044820152606401610d5e565b60fa80547fffffffffffffffffffffffffffffffffffffffffffffffffffffffffffffff001660011790557f62e78cea01bee320cd4e420270b5ea74000d11b0c9f74754ebdbfc544b05a258612e203390565b6000612f1860fa5460ff1690565b15612f7f576040517f08c379a000000000000000000000000000000000000000000000000000000000815260206004820152601060248201527f5061757361626c653a20706175736564000000000000000000000000000000006044820152606401610d5e565b612f893083612840565b61012c546040517f151dd7550000000000000000000000000000000000000000000000000000000081523060048201526024810184905273ffffffffffffffffffffffffffffffffffffffff8581166044830152600092169063151dd755906064016020604051808303816000875af115801561300a573d6000803e3d6000fd5b505050506040513d601f19601f8201168201806040525081019061302e9190613d63565b9050613060846105fb3073ffffffffffffffffffffffffffffffffffffffff16600090815260c8602052604090205490565b50949350505050565b828054613075906139e9565b90600052602060002090601f01602090048101928261309757600085556130fb565b82601f106130ce578280017fffffffffffffffffffffffffffffffffffffffffffffffffffffffffffffff008235161785556130fb565b828001600101855582156130fb579182015b828111156130fb5782358255916020019190600101906130e0565b5061310792915061317f565b5090565b828054613117906139e9565b90600052602060002090601f01602090048101928261313957600085556130fb565b82601f1061315257805160ff19168380011785556130fb565b828001600101855582156130fb579182015b828111156130fb578251825591602001919060010190613164565b5b808211156131075760008155600101613180565b803561ffff811681146131a657600080fd5b919050565b7f4e487b7100000000000000000000000000000000000000000000000000000000600052604160045260246000fd5b604051601f82017fffffffffffffffffffffffffffffffffffffffffffffffffffffffffffffffe016810167ffffffffffffffff81118282101715613221576132216131ab565b604052919050565b600067ffffffffffffffff821115613243576132436131ab565b50601f017fffffffffffffffffffffffffffffffffffffffffffffffffffffffffffffffe01660200190565b600082601f83011261328057600080fd5b813561329361328e82613229565b6131da565b8181528460208386010111156132a857600080fd5b816020850160208301376000918101602001919091529392505050565b67ffffffffffffffff8116811461107857600080fd5b600080600080608085870312156132f157600080fd5b6132fa85613194565b9350602085013567ffffffffffffffff8082111561331757600080fd5b6133238883890161326f565b945060408701359150613335826132c5565b9092506060860135908082111561334b57600080fd5b506133588782880161326f565b91505092959194509250565b60006020828403121561337657600080fd5b81357fffffffff00000000000000000000000000000000000000000000000000000000811681146133a657600080fd5b9392505050565b60005b838110156133c85781810151838201526020016133b0565b8381111561121e5750506000910152565b600081518084526133f18160208601602086016133ad565b601f017fffffffffffffffffffffffffffffffffffffffffffffffffffffffffffffffe0169290920160200192915050565b6020815260006133a660208301846133d9565b60006020828403121561344857600080fd5b6133a682613194565b73ffffffffffffffffffffffffffffffffffffffff8116811461107857600080fd5b80356131a681613451565b6000806040838503121561349157600080fd5b823561349c81613451565b946020939093013593505050565b6000806000606084860312156134bf57600080fd5b83356134ca81613451565b925060208401356134da81613451565b929592945050506040919091013590565b801515811461107857600080fd5b600080600080600060a0868803121561351157600080fd5b61351a86613194565b9450602086013567ffffffffffffffff8082111561353757600080fd5b61354389838a0161326f565b9550604088013594506060880135915061355c826134eb565b9092506080870135908082111561357257600080fd5b5061357f8882890161326f565b9150509295509295909350565b60008083601f84011261359e57600080fd5b50813567ffffffffffffffff8111156135b657600080fd5b6020830191508360208285010111156135ce57600080fd5b9250929050565b6000806000604084860312156135ea57600080fd5b6135f384613194565b9250602084013567ffffffffffffffff81111561360f57600080fd5b61361b8682870161358c565b9497909650939450505050565b60006020828403121561363a57600080fd5b5035919050565b60008060006060848603121561365657600080fd5b61365f84613194565b9250602084013567ffffffffffffffff81111561367b57600080fd5b6136878682870161326f565b9250506040840135613698816132c5565b809150509250925092565b6000602082840312156136b557600080fd5b81356133a681613451565b803560ff811681146131a657600080fd5b6000806000806000806000806000806101408b8d0312156136f157600080fd5b6136fa8b613194565b995060208b013567ffffffffffffffff8082111561371757600080fd5b6137238e838f0161326f565b9a5060408d0135995061373860608e01613473565b985061374660808e01613473565b975060a08d013591508082111561375c57600080fd5b506137698d828e0161326f565b95505060c08b0135935061377f60e08c016136c0565b92506101008b013591506101208b013590509295989b9194979a5092959850565b600080600080600060a086880312156137b857600080fd5b853567ffffffffffffffff808211156137d057600080fd5b6137dc89838a0161326f565b965060208801359150808211156137f257600080fd5b506137ff8882890161326f565b945050604086013561381081613451565b9250606086013561382081613451565b949793965091946080013592915050565b60008060008060006080868803121561384957600080fd5b61385286613194565b945061386060208701613194565b935060408601359250606086013567ffffffffffffffff81111561388357600080fd5b61388f8882890161358c565b969995985093965092949392505050565b600080604083850312156138b357600080fd5b82356138be81613451565b915060208301356138ce81613451565b809150509250929050565b60008060008060008060c087890312156138f257600080fd5b6138fb87613194565b9550602087013567ffffffffffffffff8082111561391857600080fd5b6139248a838b0161326f565b9650604089013595506060890135915061393d82613451565b90935060808801359061394f82613451565b90925060a0880135908082111561396557600080fd5b5061397289828a0161326f565b9150509295509295509295565b60006020828403121561399157600080fd5b81356133a6816134eb565b600080600080608085870312156139b257600080fd5b6139bb85613194565b93506139c960208601613194565b925060408501356139d981613451565b9396929550929360600135925050565b600181811c908216806139fd57607f821691505b60208210811415613a37577f4e487b7100000000000000000000000000000000000000000000000000000000600052602260045260246000fd5b50919050565b600060208284031215613a4f57600080fd5b81516133a6816134eb565b604081526000613a6d60408301856133d9565b90508260208301529392505050565b61ffff8616815273ffffffffffffffffffffffffffffffffffffffff8516602082015260a060408201526000613ab560a08301866133d9565b84151560608401528281036080840152613acf81856133d9565b98975050505050505050565b60008060408385031215613aee57600080fd5b505080516020909101519092909150565b7f4e487b7100000000000000000000000000000000000000000000000000000000600052601160045260246000fd5b60008219821115613b4157613b41613aff565b500190565b8183823760009101908152919050565b8183528181602085013750600060208284010152600060207fffffffffffffffffffffffffffffffffffffffffffffffffffffffffffffffe0601f840116840101905092915050565b61ffff84168152604060208201526000611f93604083018486613b56565b600060208284031215613bcf57600080fd5b81516133a681613451565b600061ffff808816835280871660208401525084604083015260806060830152613c08608083018486613b56565b979650505050505050565b60008251613c258184602087016133ad565b9190910192915050565b600060208284031215613c4157600080fd5b81516133a6816132c5565b600082601f830112613c5d57600080fd5b8151613c6b61328e82613229565b818152846020838601011115613c8057600080fd5b612be68260208301602087016133ad565b600060208284031215613ca357600080fd5b815167ffffffffffffffff811115613cba57600080fd5b612be684828501613c4c565b61ffff85168152608060208201526000613ce360808301866133d9565b67ffffffffffffffff851660408401528281036060840152613c0881856133d9565b600082821015613d1757613d17613aff565b500390565b60008060408385031215613d2f57600080fd5b825167ffffffffffffffff811115613d4657600080fd5b613d5285828601613c4c565b925050602083015190509250929050565b600060208284031215613d7557600080fd5b5051919050565b61ffff8716815260c060208201526000613d9960c08301886133d9565b8281036040840152613dab81886133d9565b73ffffffffffffffffffffffffffffffffffffffff87811660608601528616608085015283810360a08501529050613de381856133d9565b999850505050505050505056fea26469706673582212205ec1cddd52288cdde8279b73fc6121dde7d2311cccb3c63324fa4732dd12df5264736f6c634300080c0033",
  "devdoc": {
    "author": "Angle Core Team, forked from https://github.com/LayerZero-Labs/solidity-examples/blob/main/contracts/token/oft/OFT.sol",
    "kind": "dev",
    "methods": {
      "allowance(address,address)": {
        "details": "See {IERC20-allowance}."
      },
      "approve(address,uint256)": {
        "details": "See {IERC20-approve}. Requirements: - `spender` cannot be the zero address."
      },
      "balanceOf(address)": {
        "details": "See {IERC20-balanceOf}."
      },
      "burn(uint256)": {
        "details": "Used to decrease the bridging capacity"
      },
      "constructor": {
        "custom:oz-upgrades-unsafe-allow": "constructor"
      },
      "decimals()": {
        "details": "Returns the number of decimals used to get its user representation. For example, if `decimals` equals `2`, a balance of `505` tokens should be displayed to a user as `5.05` (`505 / 10 ** 2`). Tokens usually opt for a value of 18, imitating the relationship between Ether and Wei. This is the value {ERC20} uses, unless this function is overridden; NOTE: This information is only used for _display_ purposes: it in no way affects any of the arithmetic of the contract, including {IERC20-balanceOf} and {IERC20-transfer}."
      },
      "decreaseAllowance(address,uint256)": {
        "details": "Atomically decreases the allowance granted to `spender` by the caller. This is an alternative to {approve} that can be used as a mitigation for problems described in {IERC20-approve}. Emits an {Approval} event indicating the updated allowance. Requirements: - `spender` cannot be the zero address. - `spender` must have allowance for the caller of at least `subtractedValue`."
      },
      "estimateSendFee(uint16,bytes,uint256,bool,bytes)": {
        "params": {
          "_adapterParams": "flexible bytes array to indicate messaging adapter services in L0",
          "_amount": "amount of the tokens to transfer",
          "_dstChainId": "L0 defined chain id to send tokens too",
          "_toAddress": "dynamic bytes array which contains the address to whom you are sending tokens to on the dstChain",
          "_useZro": "indicates to use zro to pay L0 fees"
        }
      },
      "increaseAllowance(address,uint256)": {
        "details": "Atomically increases the allowance granted to `spender` by the caller. This is an alternative to {approve} that can be used as a mitigation for problems described in {IERC20-approve}. Emits an {Approval} event indicating the updated allowance. Requirements: - `spender` cannot be the zero address."
      },
      "lzReceive(uint16,bytes,uint64,bytes)": {
        "params": {
          "_nonce": "Nounce of the message",
          "_payload": "Data: recipient address and amount",
          "_srcAddress": "Sender of the source chain",
          "_srcChainId": "ChainId of the source chain - LayerZero standard"
        }
      },
      "mint(uint256)": {
        "details": "Used to increase the bridging capacity"
      },
      "name()": {
        "details": "Returns the name of the token."
      },
      "nonblockingLzReceive(uint16,bytes,uint64,bytes)": {
        "details": "public for the needs of try / catch but effectively internal",
        "params": {
          "_nonce": "Nounce of the message",
          "_payload": "Data: recipient address and amount",
          "_srcAddress": "Sender of the source chain",
          "_srcChainId": "ChainId of the source chain - LayerZero standard"
        }
      },
      "pauseSendTokens(bool)": {
        "params": {
          "pause": "Future pause status"
        }
      },
      "paused()": {
        "details": "Returns true if the contract is paused, and false otherwise."
      },
      "retryMessage(uint16,bytes,uint64,bytes)": {
        "params": {
          "_nonce": "Nounce of the message",
          "_payload": "Data: recipient address and amount",
          "_srcAddress": "Sender of the source chain",
          "_srcChainId": "ChainId of the source chain - LayerZero standard"
        }
      },
      "send(uint16,bytes,uint256,address,address,bytes)": {
        "params": {
          "_adapterParams": "is a flexible bytes array to indicate messaging adapter services",
          "_amount": "the quantity of tokens in wei",
          "_dstChainId": "the destination chain identifier",
          "_refundAddress": "the address LayerZero refunds if too much message fee is sent",
          "_toAddress": "can be any size depending on the `dstChainId`.",
          "_zroPaymentAddress": "set to address(0x0) if not paying in ZRO (LayerZero Token)"
        }
      },
      "sendWithPermit(uint16,bytes,uint256,address,address,bytes,uint256,uint8,bytes32,bytes32)": {
        "details": "The `v`, `r`, and `s` parameters are used as signature data",
        "params": {
          "_adapterParams": "Flexible bytes array to indicate messaging adapter services",
          "_amount": "Quantity of tokens in wei",
          "_dstChainId": "The destination chain identifier",
          "_refundAddress": "Address LayerZero refunds if too much message fee is sent",
          "_toAddress": "Can be any size depending on the `dstChainId`.",
          "_zroPaymentAddress": "Set to address(0x0) if not paying in ZRO (LayerZero Token)",
          "deadline": "Deadline parameter for the signature to be valid"
        }
      },
      "setTrustedRemote(uint16,bytes)": {
        "details": "Used for both receiving and sending messageThere can only be one trusted source per chainAllows owner to set it multiple times.",
        "params": {
          "_srcAddress": "Address on the source chain",
          "_srcChainId": "ChainId of the source chain - LayerZero standard"
        }
      },
      "supportsInterface(bytes4)": {
        "details": "See {IERC165-supportsInterface}."
      },
      "symbol()": {
        "details": "Returns the symbol of the token, usually a shorter version of the name."
      },
      "totalSupply()": {
        "details": "See {IERC20-totalSupply}."
      },
      "transfer(address,uint256)": {
        "details": "See {IERC20-transfer}. Requirements: - `recipient` cannot be the zero address. - the caller must have a balance of at least `amount`."
      },
      "transferFrom(address,address,uint256)": {
        "details": "See {IERC20-transferFrom}. Emits an {Approval} event indicating the updated allowance. This is not required by the EIP. See the note at the beginning of {ERC20}. Requirements: - `sender` and `recipient` cannot be the zero address. - `sender` must have a balance of at least `amount`. - the caller must have allowance for ``sender``'s tokens of at least `amount`."
      }
    },
    "stateVariables": {
      "canonicalToken": {
        "details": "Immutable"
      }
    },
    "title": "LayerZeroBridgeToken",
    "version": 1
  },
  "userdoc": {
    "kind": "user",
    "methods": {
      "burn(uint256)": {
        "notice": "Burns the intermediate contract from the `canonicalToken`"
      },
      "canonicalToken()": {
        "notice": "Address of the bridgeable token"
      },
      "estimateSendFee(uint16,bytes,uint256,bool,bytes)": {
        "notice": "Estimates send token `_tokenId` to (`_dstChainId`, `_toAddress`)"
      },
      "failedMessages(uint16,bytes,uint64)": {
        "notice": "Maps chainIds to failed messages to retry them"
      },
      "forceResumeReceive(uint16,bytes)": {
        "notice": "Unpauses the receive functionalities"
      },
      "getConfig(uint16,uint16,address,uint256)": {
        "notice": "Fetches the default LZ config"
      },
      "isTrustedRemote(uint16,bytes)": {
        "notice": "Checks if the `_srcAddress` corresponds to the trusted source"
      },
      "lzEndpoint()": {
        "notice": "Layer Zero endpoint"
      },
      "lzReceive(uint16,bytes,uint64,bytes)": {
        "notice": "Receives a message from the LZ endpoint and process it"
      },
      "mint(uint256)": {
        "notice": "Mints the intermediate contract to the `canonicalToken`"
      },
      "nonblockingLzReceive(uint16,bytes,uint64,bytes)": {
        "notice": "Handles message receptions in a non blocking way"
      },
      "pauseSendTokens(bool)": {
        "notice": "Pauses bridging through the contract"
      },
      "retryMessage(uint16,bytes,uint64,bytes)": {
        "notice": "Retries a message that previously failed and was stored"
      },
      "send(uint16,bytes,uint256,address,address,bytes)": {
        "notice": "Sends `_amount` amount of token to (`_dstChainId`, `_toAddress`)"
      },
      "sendWithPermit(uint16,bytes,uint256,address,address,bytes,uint256,uint8,bytes32,bytes32)": {
        "notice": "Sends `_amount` amount of token to (`_dstChainId`, `_toAddress`)"
      },
      "setConfig(uint16,uint16,uint256,bytes)": {
        "notice": "Overrides the default LZ config"
      },
      "setReceiveVersion(uint16)": {
        "notice": "Overrides the default LZ config"
      },
      "setSendVersion(uint16)": {
        "notice": "Overrides the default LZ config"
      },
      "setTrustedRemote(uint16,bytes)": {
        "notice": "Sets the corresponding address on an other chain."
      },
      "setupAllowance()": {
        "notice": "Increases allowance of the `canonicalToken`"
      },
      "treasury()": {
        "notice": "Reference to the treasury contract to fetch access control"
      },
      "trustedRemoteLookup(uint16)": {
        "notice": "Maps chainIds to their OFT address"
      }
    },
    "notice": "Contract for bridging an AgToken using a bridge intermediate token and LayerZero",
    "version": 1
  },
  "storageLayout": {
    "storage": [
      {
        "astId": 772,
        "contract": "contracts/agToken/layerZero/LayerZeroBridgeToken.sol:LayerZeroBridgeToken",
        "label": "_initialized",
        "offset": 0,
        "slot": "0",
        "type": "t_bool"
      },
      {
        "astId": 775,
        "contract": "contracts/agToken/layerZero/LayerZeroBridgeToken.sol:LayerZeroBridgeToken",
        "label": "_initializing",
        "offset": 1,
        "slot": "0",
        "type": "t_bool"
      },
      {
        "astId": 9787,
        "contract": "contracts/agToken/layerZero/LayerZeroBridgeToken.sol:LayerZeroBridgeToken",
        "label": "lzEndpoint",
        "offset": 2,
        "slot": "0",
        "type": "t_contract(ILayerZeroEndpoint)14958"
      },
      {
        "astId": 9796,
        "contract": "contracts/agToken/layerZero/LayerZeroBridgeToken.sol:LayerZeroBridgeToken",
        "label": "failedMessages",
        "offset": 0,
        "slot": "1",
        "type": "t_mapping(t_uint16,t_mapping(t_bytes_memory_ptr,t_mapping(t_uint64,t_bytes32)))"
      },
      {
        "astId": 9801,
        "contract": "contracts/agToken/layerZero/LayerZeroBridgeToken.sol:LayerZeroBridgeToken",
        "label": "trustedRemoteLookup",
        "offset": 0,
        "slot": "2",
        "type": "t_mapping(t_uint16,t_bytes_storage)"
      },
      {
        "astId": 9804,
        "contract": "contracts/agToken/layerZero/LayerZeroBridgeToken.sol:LayerZeroBridgeToken",
        "label": "treasury",
        "offset": 0,
        "slot": "3",
        "type": "t_address"
      },
      {
        "astId": 10281,
        "contract": "contracts/agToken/layerZero/LayerZeroBridgeToken.sol:LayerZeroBridgeToken",
        "label": "__gap",
        "offset": 0,
        "slot": "4",
        "type": "t_array(t_uint256)46_storage"
      },
      {
        "astId": 3454,
        "contract": "contracts/agToken/layerZero/LayerZeroBridgeToken.sol:LayerZeroBridgeToken",
        "label": "__gap",
        "offset": 0,
        "slot": "50",
        "type": "t_array(t_uint256)50_storage"
      },
      {
        "astId": 10520,
        "contract": "contracts/agToken/layerZero/LayerZeroBridgeToken.sol:LayerZeroBridgeToken",
        "label": "__gap",
        "offset": 0,
        "slot": "100",
        "type": "t_array(t_uint256)50_storage"
      },
      {
        "astId": 2592,
        "contract": "contracts/agToken/layerZero/LayerZeroBridgeToken.sol:LayerZeroBridgeToken",
        "label": "__gap",
        "offset": 0,
        "slot": "150",
        "type": "t_array(t_uint256)50_storage"
      },
      {
        "astId": 1029,
        "contract": "contracts/agToken/layerZero/LayerZeroBridgeToken.sol:LayerZeroBridgeToken",
        "label": "_balances",
        "offset": 0,
        "slot": "200",
        "type": "t_mapping(t_address,t_uint256)"
      },
      {
        "astId": 1035,
        "contract": "contracts/agToken/layerZero/LayerZeroBridgeToken.sol:LayerZeroBridgeToken",
        "label": "_allowances",
        "offset": 0,
        "slot": "201",
        "type": "t_mapping(t_address,t_mapping(t_address,t_uint256))"
      },
      {
        "astId": 1037,
        "contract": "contracts/agToken/layerZero/LayerZeroBridgeToken.sol:LayerZeroBridgeToken",
        "label": "_totalSupply",
        "offset": 0,
        "slot": "202",
        "type": "t_uint256"
      },
      {
        "astId": 1039,
        "contract": "contracts/agToken/layerZero/LayerZeroBridgeToken.sol:LayerZeroBridgeToken",
        "label": "_name",
        "offset": 0,
        "slot": "203",
        "type": "t_string_storage"
      },
      {
        "astId": 1041,
        "contract": "contracts/agToken/layerZero/LayerZeroBridgeToken.sol:LayerZeroBridgeToken",
        "label": "_symbol",
        "offset": 0,
        "slot": "204",
        "type": "t_string_storage"
      },
      {
        "astId": 1582,
        "contract": "contracts/agToken/layerZero/LayerZeroBridgeToken.sol:LayerZeroBridgeToken",
        "label": "__gap",
        "offset": 0,
        "slot": "205",
        "type": "t_array(t_uint256)45_storage"
      },
      {
        "astId": 860,
        "contract": "contracts/agToken/layerZero/LayerZeroBridgeToken.sol:LayerZeroBridgeToken",
        "label": "_paused",
        "offset": 0,
        "slot": "250",
        "type": "t_bool"
      },
      {
        "astId": 951,
        "contract": "contracts/agToken/layerZero/LayerZeroBridgeToken.sol:LayerZeroBridgeToken",
        "label": "__gap",
        "offset": 0,
        "slot": "251",
        "type": "t_array(t_uint256)49_storage"
      },
      {
        "astId": 9340,
        "contract": "contracts/agToken/layerZero/LayerZeroBridgeToken.sol:LayerZeroBridgeToken",
        "label": "canonicalToken",
        "offset": 0,
        "slot": "300",
        "type": "t_contract(IAgTokenSideChainMultiBridge)13662"
      },
      {
        "astId": 9670,
        "contract": "contracts/agToken/layerZero/LayerZeroBridgeToken.sol:LayerZeroBridgeToken",
        "label": "__gap",
        "offset": 0,
        "slot": "301",
        "type": "t_array(t_uint256)49_storage"
      }
    ],
    "types": {
      "t_address": {
        "encoding": "inplace",
        "label": "address",
        "numberOfBytes": "20"
      },
      "t_array(t_uint256)45_storage": {
        "base": "t_uint256",
        "encoding": "inplace",
        "label": "uint256[45]",
        "numberOfBytes": "1440"
      },
      "t_array(t_uint256)46_storage": {
        "base": "t_uint256",
        "encoding": "inplace",
        "label": "uint256[46]",
        "numberOfBytes": "1472"
      },
      "t_array(t_uint256)49_storage": {
        "base": "t_uint256",
        "encoding": "inplace",
        "label": "uint256[49]",
        "numberOfBytes": "1568"
      },
      "t_array(t_uint256)50_storage": {
        "base": "t_uint256",
        "encoding": "inplace",
        "label": "uint256[50]",
        "numberOfBytes": "1600"
      },
      "t_bool": {
        "encoding": "inplace",
        "label": "bool",
        "numberOfBytes": "1"
      },
      "t_bytes32": {
        "encoding": "inplace",
        "label": "bytes32",
        "numberOfBytes": "32"
      },
      "t_bytes_memory_ptr": {
        "encoding": "bytes",
        "label": "bytes",
        "numberOfBytes": "32"
      },
      "t_bytes_storage": {
        "encoding": "bytes",
        "label": "bytes",
        "numberOfBytes": "32"
      },
      "t_contract(IAgTokenSideChainMultiBridge)13662": {
        "encoding": "inplace",
        "label": "contract IAgTokenSideChainMultiBridge",
        "numberOfBytes": "20"
      },
      "t_contract(ILayerZeroEndpoint)14958": {
        "encoding": "inplace",
        "label": "contract ILayerZeroEndpoint",
        "numberOfBytes": "20"
      },
      "t_mapping(t_address,t_mapping(t_address,t_uint256))": {
        "encoding": "mapping",
        "key": "t_address",
        "label": "mapping(address => mapping(address => uint256))",
        "numberOfBytes": "32",
        "value": "t_mapping(t_address,t_uint256)"
      },
      "t_mapping(t_address,t_uint256)": {
        "encoding": "mapping",
        "key": "t_address",
        "label": "mapping(address => uint256)",
        "numberOfBytes": "32",
        "value": "t_uint256"
      },
      "t_mapping(t_bytes_memory_ptr,t_mapping(t_uint64,t_bytes32))": {
        "encoding": "mapping",
        "key": "t_bytes_memory_ptr",
        "label": "mapping(bytes => mapping(uint64 => bytes32))",
        "numberOfBytes": "32",
        "value": "t_mapping(t_uint64,t_bytes32)"
      },
      "t_mapping(t_uint16,t_bytes_storage)": {
        "encoding": "mapping",
        "key": "t_uint16",
        "label": "mapping(uint16 => bytes)",
        "numberOfBytes": "32",
        "value": "t_bytes_storage"
      },
      "t_mapping(t_uint16,t_mapping(t_bytes_memory_ptr,t_mapping(t_uint64,t_bytes32)))": {
        "encoding": "mapping",
        "key": "t_uint16",
        "label": "mapping(uint16 => mapping(bytes => mapping(uint64 => bytes32)))",
        "numberOfBytes": "32",
        "value": "t_mapping(t_bytes_memory_ptr,t_mapping(t_uint64,t_bytes32))"
      },
      "t_mapping(t_uint64,t_bytes32)": {
        "encoding": "mapping",
        "key": "t_uint64",
        "label": "mapping(uint64 => bytes32)",
        "numberOfBytes": "32",
        "value": "t_bytes32"
      },
      "t_string_storage": {
        "encoding": "bytes",
        "label": "string",
        "numberOfBytes": "32"
      },
      "t_uint16": {
        "encoding": "inplace",
        "label": "uint16",
        "numberOfBytes": "2"
      },
      "t_uint256": {
        "encoding": "inplace",
        "label": "uint256",
        "numberOfBytes": "32"
      },
      "t_uint64": {
        "encoding": "inplace",
        "label": "uint64",
        "numberOfBytes": "8"
      }
    }
  }
}