{
  "address": "0x16cd38b1B54E7abf307Cb2697E2D9321e843d5AA",
  "abi": [
    {
      "inputs": [
        {
          "internalType": "string",
          "name": "_name",
          "type": "string"
        },
        {
          "internalType": "string",
          "name": "_symbol",
          "type": "string"
        },
        {
          "internalType": "address",
          "name": "_lzEndpoint",
          "type": "address"
        },
        {
          "internalType": "contract IAgTokenSideChainMultiBridge",
          "name": "_canonicalToken",
          "type": "address"
        },
        {
          "internalType": "address",
          "name": "_owner",
          "type": "address"
        }
      ],
      "stateMutability": "nonpayable",
      "type": "constructor"
    },
    {
      "anonymous": false,
      "inputs": [
        {
          "indexed": true,
          "internalType": "address",
          "name": "owner",
          "type": "address"
        },
        {
          "indexed": true,
          "internalType": "address",
          "name": "spender",
          "type": "address"
        },
        {
          "indexed": false,
          "internalType": "uint256",
          "name": "value",
          "type": "uint256"
        }
      ],
      "name": "Approval",
      "type": "event"
    },
    {
      "anonymous": false,
      "inputs": [
        {
          "indexed": false,
          "internalType": "uint16",
          "name": "_srcChainId",
          "type": "uint16"
        },
        {
          "indexed": false,
          "internalType": "bytes",
          "name": "_srcAddress",
          "type": "bytes"
        },
        {
          "indexed": false,
          "internalType": "uint64",
          "name": "_nonce",
          "type": "uint64"
        },
        {
          "indexed": false,
          "internalType": "bytes",
          "name": "_payload",
          "type": "bytes"
        }
      ],
      "name": "MessageFailed",
      "type": "event"
    },
    {
      "anonymous": false,
      "inputs": [
        {
          "indexed": true,
          "internalType": "address",
          "name": "previousOwner",
          "type": "address"
        },
        {
          "indexed": true,
          "internalType": "address",
          "name": "newOwner",
          "type": "address"
        }
      ],
      "name": "OwnershipTransferred",
      "type": "event"
    },
    {
      "anonymous": false,
      "inputs": [
        {
          "indexed": false,
          "internalType": "address",
          "name": "account",
          "type": "address"
        }
      ],
      "name": "Paused",
      "type": "event"
    },
    {
      "anonymous": false,
      "inputs": [
        {
          "indexed": true,
          "internalType": "uint16",
          "name": "_srcChainId",
          "type": "uint16"
        },
        {
          "indexed": true,
          "internalType": "bytes",
          "name": "_srcAddress",
          "type": "bytes"
        },
        {
          "indexed": true,
          "internalType": "address",
          "name": "_toAddress",
          "type": "address"
        },
        {
          "indexed": false,
          "internalType": "uint256",
          "name": "_amount",
          "type": "uint256"
        },
        {
          "indexed": false,
          "internalType": "uint64",
          "name": "_nonce",
          "type": "uint64"
        }
      ],
      "name": "ReceiveFromChain",
      "type": "event"
    },
    {
      "anonymous": false,
      "inputs": [
        {
          "indexed": true,
          "internalType": "address",
          "name": "_sender",
          "type": "address"
        },
        {
          "indexed": true,
          "internalType": "uint16",
          "name": "_dstChainId",
          "type": "uint16"
        },
        {
          "indexed": true,
          "internalType": "bytes",
          "name": "_toAddress",
          "type": "bytes"
        },
        {
          "indexed": false,
          "internalType": "uint256",
          "name": "_amount",
          "type": "uint256"
        },
        {
          "indexed": false,
          "internalType": "uint64",
          "name": "_nonce",
          "type": "uint64"
        }
      ],
      "name": "SendToChain",
      "type": "event"
    },
    {
      "anonymous": false,
      "inputs": [
        {
          "indexed": false,
          "internalType": "uint16",
          "name": "_srcChainId",
          "type": "uint16"
        },
        {
          "indexed": false,
          "internalType": "bytes",
          "name": "_srcAddress",
          "type": "bytes"
        }
      ],
      "name": "SetTrustedRemote",
      "type": "event"
    },
    {
      "anonymous": false,
      "inputs": [
        {
          "indexed": true,
          "internalType": "address",
          "name": "from",
          "type": "address"
        },
        {
          "indexed": true,
          "internalType": "address",
          "name": "to",
          "type": "address"
        },
        {
          "indexed": false,
          "internalType": "uint256",
          "name": "value",
          "type": "uint256"
        }
      ],
      "name": "Transfer",
      "type": "event"
    },
    {
      "anonymous": false,
      "inputs": [
        {
          "indexed": false,
          "internalType": "address",
          "name": "account",
          "type": "address"
        }
      ],
      "name": "Unpaused",
      "type": "event"
    },
    {
      "inputs": [
        {
          "internalType": "address",
          "name": "owner",
          "type": "address"
        },
        {
          "internalType": "address",
          "name": "spender",
          "type": "address"
        }
      ],
      "name": "allowance",
      "outputs": [
        {
          "internalType": "uint256",
          "name": "",
          "type": "uint256"
        }
      ],
      "stateMutability": "view",
      "type": "function"
    },
    {
      "inputs": [
        {
          "internalType": "address",
          "name": "spender",
          "type": "address"
        },
        {
          "internalType": "uint256",
          "name": "amount",
          "type": "uint256"
        }
      ],
      "name": "approve",
      "outputs": [
        {
          "internalType": "bool",
          "name": "",
          "type": "bool"
        }
      ],
      "stateMutability": "nonpayable",
      "type": "function"
    },
    {
      "inputs": [
        {
          "internalType": "address",
          "name": "account",
          "type": "address"
        }
      ],
      "name": "balanceOf",
      "outputs": [
        {
          "internalType": "uint256",
          "name": "",
          "type": "uint256"
        }
      ],
      "stateMutability": "view",
      "type": "function"
    },
    {
      "inputs": [],
      "name": "canonicalToken",
      "outputs": [
        {
          "internalType": "contract IAgTokenSideChainMultiBridge",
          "name": "",
          "type": "address"
        }
      ],
      "stateMutability": "view",
      "type": "function"
    },
    {
      "inputs": [],
      "name": "circulatingSupply",
      "outputs": [
        {
          "internalType": "uint256",
          "name": "",
          "type": "uint256"
        }
      ],
      "stateMutability": "view",
      "type": "function"
    },
    {
      "inputs": [],
      "name": "decimals",
      "outputs": [
        {
          "internalType": "uint8",
          "name": "",
          "type": "uint8"
        }
      ],
      "stateMutability": "view",
      "type": "function"
    },
    {
      "inputs": [
        {
          "internalType": "address",
          "name": "spender",
          "type": "address"
        },
        {
          "internalType": "uint256",
          "name": "subtractedValue",
          "type": "uint256"
        }
      ],
      "name": "decreaseAllowance",
      "outputs": [
        {
          "internalType": "bool",
          "name": "",
          "type": "bool"
        }
      ],
      "stateMutability": "nonpayable",
      "type": "function"
    },
    {
      "inputs": [
        {
          "internalType": "uint16",
          "name": "_dstChainId",
          "type": "uint16"
        },
        {
          "internalType": "bytes",
          "name": "_toAddress",
          "type": "bytes"
        },
        {
          "internalType": "uint256",
          "name": "_amount",
          "type": "uint256"
        },
        {
          "internalType": "bool",
          "name": "_useZro",
          "type": "bool"
        },
        {
          "internalType": "bytes",
          "name": "_adapterParams",
          "type": "bytes"
        }
      ],
      "name": "estimateSendFee",
      "outputs": [
        {
          "internalType": "uint256",
          "name": "nativeFee",
          "type": "uint256"
        },
        {
          "internalType": "uint256",
          "name": "zroFee",
          "type": "uint256"
        }
      ],
      "stateMutability": "view",
      "type": "function"
    },
    {
      "inputs": [
        {
          "internalType": "uint16",
          "name": "",
          "type": "uint16"
        },
        {
          "internalType": "bytes",
          "name": "",
          "type": "bytes"
        },
        {
          "internalType": "uint64",
          "name": "",
          "type": "uint64"
        }
      ],
      "name": "failedMessages",
      "outputs": [
        {
          "internalType": "bytes32",
          "name": "",
          "type": "bytes32"
        }
      ],
      "stateMutability": "view",
      "type": "function"
    },
    {
      "inputs": [
        {
          "internalType": "uint16",
          "name": "_srcChainId",
          "type": "uint16"
        },
        {
          "internalType": "bytes",
          "name": "_srcAddress",
          "type": "bytes"
        }
      ],
      "name": "forceResumeReceive",
      "outputs": [],
      "stateMutability": "nonpayable",
      "type": "function"
    },
    {
      "inputs": [
        {
          "internalType": "uint16",
          "name": "_version",
          "type": "uint16"
        },
        {
          "internalType": "uint16",
          "name": "_chainId",
          "type": "uint16"
        },
        {
          "internalType": "address",
          "name": "",
          "type": "address"
        },
        {
          "internalType": "uint256",
          "name": "_configType",
          "type": "uint256"
        }
      ],
      "name": "getConfig",
      "outputs": [
        {
          "internalType": "bytes",
          "name": "",
          "type": "bytes"
        }
      ],
      "stateMutability": "view",
      "type": "function"
    },
    {
      "inputs": [
        {
          "internalType": "address",
          "name": "spender",
          "type": "address"
        },
        {
          "internalType": "uint256",
          "name": "addedValue",
          "type": "uint256"
        }
      ],
      "name": "increaseAllowance",
      "outputs": [
        {
          "internalType": "bool",
          "name": "",
          "type": "bool"
        }
      ],
      "stateMutability": "nonpayable",
      "type": "function"
    },
    {
      "inputs": [
        {
          "internalType": "uint16",
          "name": "_srcChainId",
          "type": "uint16"
        },
        {
          "internalType": "bytes",
          "name": "_srcAddress",
          "type": "bytes"
        }
      ],
      "name": "isTrustedRemote",
      "outputs": [
        {
          "internalType": "bool",
          "name": "",
          "type": "bool"
        }
      ],
      "stateMutability": "view",
      "type": "function"
    },
    {
      "inputs": [],
      "name": "lzEndpoint",
      "outputs": [
        {
          "internalType": "contract ILayerZeroEndpoint",
          "name": "",
          "type": "address"
        }
      ],
      "stateMutability": "view",
      "type": "function"
    },
    {
      "inputs": [
        {
          "internalType": "uint16",
          "name": "_srcChainId",
          "type": "uint16"
        },
        {
          "internalType": "bytes",
          "name": "_srcAddress",
          "type": "bytes"
        },
        {
          "internalType": "uint64",
          "name": "_nonce",
          "type": "uint64"
        },
        {
          "internalType": "bytes",
          "name": "_payload",
          "type": "bytes"
        }
      ],
      "name": "lzReceive",
      "outputs": [],
      "stateMutability": "nonpayable",
      "type": "function"
    },
    {
      "inputs": [],
      "name": "name",
      "outputs": [
        {
          "internalType": "string",
          "name": "",
          "type": "string"
        }
      ],
      "stateMutability": "view",
      "type": "function"
    },
    {
      "inputs": [
        {
          "internalType": "uint16",
          "name": "_srcChainId",
          "type": "uint16"
        },
        {
          "internalType": "bytes",
          "name": "_srcAddress",
          "type": "bytes"
        },
        {
          "internalType": "uint64",
          "name": "_nonce",
          "type": "uint64"
        },
        {
          "internalType": "bytes",
          "name": "_payload",
          "type": "bytes"
        }
      ],
      "name": "nonblockingLzReceive",
      "outputs": [],
      "stateMutability": "nonpayable",
      "type": "function"
    },
    {
      "inputs": [],
      "name": "owner",
      "outputs": [
        {
          "internalType": "address",
          "name": "",
          "type": "address"
        }
      ],
      "stateMutability": "view",
      "type": "function"
    },
    {
      "inputs": [
        {
          "internalType": "bool",
          "name": "pause",
          "type": "bool"
        }
      ],
      "name": "pauseSendTokens",
      "outputs": [],
      "stateMutability": "nonpayable",
      "type": "function"
    },
    {
      "inputs": [],
      "name": "paused",
      "outputs": [
        {
          "internalType": "bool",
          "name": "",
          "type": "bool"
        }
      ],
      "stateMutability": "view",
      "type": "function"
    },
    {
      "inputs": [],
      "name": "renounceOwnership",
      "outputs": [],
      "stateMutability": "nonpayable",
      "type": "function"
    },
    {
      "inputs": [
        {
          "internalType": "uint16",
          "name": "_srcChainId",
          "type": "uint16"
        },
        {
          "internalType": "bytes",
          "name": "_srcAddress",
          "type": "bytes"
        },
        {
          "internalType": "uint64",
          "name": "_nonce",
          "type": "uint64"
        },
        {
          "internalType": "bytes",
          "name": "_payload",
          "type": "bytes"
        }
      ],
      "name": "retryMessage",
      "outputs": [],
      "stateMutability": "payable",
      "type": "function"
    },
    {
      "inputs": [
        {
          "internalType": "address",
          "name": "_from",
          "type": "address"
        },
        {
          "internalType": "uint16",
          "name": "_dstChainId",
          "type": "uint16"
        },
        {
          "internalType": "bytes",
          "name": "_toAddress",
          "type": "bytes"
        },
        {
          "internalType": "uint256",
          "name": "_amount",
          "type": "uint256"
        },
        {
          "internalType": "address payable",
          "name": "_refundAddress",
          "type": "address"
        },
        {
          "internalType": "address",
          "name": "_zroPaymentAddress",
          "type": "address"
        },
        {
          "internalType": "bytes",
          "name": "_adapterParams",
          "type": "bytes"
        }
      ],
      "name": "sendFrom",
      "outputs": [],
      "stateMutability": "payable",
      "type": "function"
    },
    {
      "inputs": [
        {
          "internalType": "uint16",
          "name": "_version",
          "type": "uint16"
        },
        {
          "internalType": "uint16",
          "name": "_chainId",
          "type": "uint16"
        },
        {
          "internalType": "uint256",
          "name": "_configType",
          "type": "uint256"
        },
        {
          "internalType": "bytes",
          "name": "_config",
          "type": "bytes"
        }
      ],
      "name": "setConfig",
      "outputs": [],
      "stateMutability": "nonpayable",
      "type": "function"
    },
    {
      "inputs": [
        {
          "internalType": "uint16",
          "name": "_version",
          "type": "uint16"
        }
      ],
      "name": "setReceiveVersion",
      "outputs": [],
      "stateMutability": "nonpayable",
      "type": "function"
    },
    {
      "inputs": [
        {
          "internalType": "uint16",
          "name": "_version",
          "type": "uint16"
        }
      ],
      "name": "setSendVersion",
      "outputs": [],
      "stateMutability": "nonpayable",
      "type": "function"
    },
    {
      "inputs": [
        {
          "internalType": "uint16",
          "name": "_srcChainId",
          "type": "uint16"
        },
        {
          "internalType": "bytes",
          "name": "_srcAddress",
          "type": "bytes"
        }
      ],
      "name": "setTrustedRemote",
      "outputs": [],
      "stateMutability": "nonpayable",
      "type": "function"
    },
    {
      "inputs": [],
      "name": "setupAllowance",
      "outputs": [],
      "stateMutability": "nonpayable",
      "type": "function"
    },
    {
      "inputs": [
        {
          "internalType": "bytes4",
          "name": "interfaceId",
          "type": "bytes4"
        }
      ],
      "name": "supportsInterface",
      "outputs": [
        {
          "internalType": "bool",
          "name": "",
          "type": "bool"
        }
      ],
      "stateMutability": "view",
      "type": "function"
    },
    {
      "inputs": [],
      "name": "symbol",
      "outputs": [
        {
          "internalType": "string",
          "name": "",
          "type": "string"
        }
      ],
      "stateMutability": "view",
      "type": "function"
    },
    {
      "inputs": [],
      "name": "totalSupply",
      "outputs": [
        {
          "internalType": "uint256",
          "name": "",
          "type": "uint256"
        }
      ],
      "stateMutability": "view",
      "type": "function"
    },
    {
      "inputs": [
        {
          "internalType": "address",
          "name": "recipient",
          "type": "address"
        },
        {
          "internalType": "uint256",
          "name": "amount",
          "type": "uint256"
        }
      ],
      "name": "transfer",
      "outputs": [
        {
          "internalType": "bool",
          "name": "",
          "type": "bool"
        }
      ],
      "stateMutability": "nonpayable",
      "type": "function"
    },
    {
      "inputs": [
        {
          "internalType": "address",
          "name": "sender",
          "type": "address"
        },
        {
          "internalType": "address",
          "name": "recipient",
          "type": "address"
        },
        {
          "internalType": "uint256",
          "name": "amount",
          "type": "uint256"
        }
      ],
      "name": "transferFrom",
      "outputs": [
        {
          "internalType": "bool",
          "name": "",
          "type": "bool"
        }
      ],
      "stateMutability": "nonpayable",
      "type": "function"
    },
    {
      "inputs": [
        {
          "internalType": "address",
          "name": "newOwner",
          "type": "address"
        }
      ],
      "name": "transferOwnership",
      "outputs": [],
      "stateMutability": "nonpayable",
      "type": "function"
    },
    {
      "inputs": [
        {
          "internalType": "uint16",
          "name": "",
          "type": "uint16"
        }
      ],
      "name": "trustedRemoteLookup",
      "outputs": [
        {
          "internalType": "bytes",
          "name": "",
          "type": "bytes"
        }
      ],
      "stateMutability": "view",
      "type": "function"
    }
  ],
  "transactionHash": "0x7fe7aa06c7287d7992871502d2b039b70eba336ff7d52deb815272e50a60a6af",
  "args": [
    "AgEUR_LayerZero_TEST",
    "AgEUR_LayerZero_TEST",
    "0xb6319cC6c8c27A8F5dAF0dD3DF91EA35C4720dd7",
    "0x5efE48F8383921d950683C46B87E28e21DEa9FB5",
    "0xfdA462548Ce04282f4B6D6619823a7C64Fdc0185"
  ],
  "solcInputHash": "574b719acc242501c374d47684f25576",
  "bytecode": "0x60c06040523480156200001157600080fd5b5060405162003fe038038062003fe0833981016040819052620000349162000434565b84848480806200004433620000b7565b6001600160a01b03166080525050815162000067906006906020850190620002a8565b5080516200007d906007906020840190620002a8565b50506008805460ff19169055506001600160a01b03821660a052620000a162000107565b620000ac81620000b7565b50505050506200051d565b600080546001600160a01b038381166001600160a01b0319831681178455604051919092169283917f8be0079c531659141344cd1fd0a4f28419497f9722a3daafe3b4186f6b6457e09190a35050565b6000546001600160a01b03163314620001675760405162461bcd60e51b815260206004820181905260248201527f4f776e61626c653a2063616c6c6572206973206e6f7420746865206f776e657260448201526064015b60405180910390fd5b6200017e3060a0516000196200018060201b60201c565b565b6001600160a01b038316620001e45760405162461bcd60e51b8152602060048201526024808201527f45524332303a20617070726f76652066726f6d20746865207a65726f206164646044820152637265737360e01b60648201526084016200015e565b6001600160a01b038216620002475760405162461bcd60e51b815260206004820152602260248201527f45524332303a20617070726f766520746f20746865207a65726f206164647265604482015261737360f01b60648201526084016200015e565b6001600160a01b0383811660008181526004602090815260408083209487168084529482529182902085905590518481527f8c5be1e5ebec7d5bd14f71427d1e84f3dd0314c0f7b2291e5b200ac8c7c3b925910160405180910390a3505050565b828054620002b690620004e0565b90600052602060002090601f016020900481019282620002da576000855562000325565b82601f10620002f557805160ff191683800117855562000325565b8280016001018555821562000325579182015b828111156200032557825182559160200191906001019062000308565b506200033392915062000337565b5090565b5b8082111562000333576000815560010162000338565b634e487b7160e01b600052604160045260246000fd5b600082601f8301126200037657600080fd5b81516001600160401b03808211156200039357620003936200034e565b604051601f8301601f19908116603f01168101908282118183101715620003be57620003be6200034e565b81604052838152602092508683858801011115620003db57600080fd5b600091505b83821015620003ff5785820183015181830184015290820190620003e0565b83821115620004115760008385830101525b9695505050505050565b6001600160a01b03811681146200043157600080fd5b50565b600080600080600060a086880312156200044d57600080fd5b85516001600160401b03808211156200046557600080fd5b6200047389838a0162000364565b965060208801519150808211156200048a57600080fd5b50620004998882890162000364565b9450506040860151620004ac816200041b565b6060870151909350620004bf816200041b565b6080870151909250620004d2816200041b565b809150509295509295909350565b600181811c90821680620004f557607f821691505b602082108114156200051757634e487b7160e01b600052602260045260246000fd5b50919050565b60805160a051613a426200059e6000396000818161062f0152818161171e015281816126d7015281816127840152612ad80152600081816105db0152818161074f01528181610b1701528181610c4e01528181610dfb0152818161105a0152818161146301528181611a530152818161218201526129890152613a426000f3fe6080604052600436106102335760003560e01c806370a0823111610138578063cbed8b9c116100b0578063e09e911e1161007f578063f187892211610064578063f1878922146106ec578063f2fde38b1461070c578063f5ecbdbc1461072c57600080fd5b8063e09e911e146106b7578063eb8d72b7146106cc57600080fd5b8063cbed8b9c146105fd578063ceb76b551461061d578063d1deba1f14610651578063dd62ed3e1461066457600080fd5b80639358928b11610107578063a457c2d7116100ec578063a457c2d714610589578063a9059cbb146105a9578063b353aaa7146105c957600080fd5b80639358928b1461055f57806395d89b411461057457600080fd5b806370a082311461049b578063715018a6146104de5780637533d788146104f35780638da5cb5b1461051357600080fd5b80632a205e3d116101cb57806342d65a8d1161019a5780635b8c41e61161017f5780635b8c41e6146104145780635c975abb1461046357806366ad5c8a1461047b57600080fd5b806342d65a8d146103e1578063519056361461040157600080fd5b80632a205e3d14610350578063313ce5671461038557806339509351146103a15780633d8b38f6146103c157600080fd5b8063095ea7b311610207578063095ea7b3146102d157806310ddb137146102f157806318160ddd1461031157806323b872dd1461033057600080fd5b80621d35671461023857806301ffc9a71461025a57806306fdde031461028f57806307e0db17146102b1575b600080fd5b34801561024457600080fd5b5061025861025336600461308d565b61074c565b005b34801561026657600080fd5b5061027a610275366004613116565b61094b565b60405190151581526020015b60405180910390f35b34801561029b57600080fd5b506102a46109d2565b60405161028691906131d5565b3480156102bd57600080fd5b506102586102cc3660046131e8565b610a64565b3480156102dd57600080fd5b5061027a6102ec366004613225565b610b85565b3480156102fd57600080fd5b5061025861030c3660046131e8565b610b9b565b34801561031d57600080fd5b506005545b604051908152602001610286565b34801561033c57600080fd5b5061027a61034b366004613251565b610c92565b34801561035c57600080fd5b5061037061036b3660046132a0565b610d78565b60408051928352602083019190915201610286565b34801561039157600080fd5b5060405160128152602001610286565b3480156103ad57600080fd5b5061027a6103bc366004613225565b610e87565b3480156103cd57600080fd5b5061027a6103dc36600461337c565b610ed0565b3480156103ed57600080fd5b506102586103fc36600461337c565b610f9c565b61025861040f3660046133cf565b6110ca565b34801561042057600080fd5b5061032261042f366004613489565b6002602090815260009384526040808520845180860184018051928152908401958401959095209452929052825290205481565b34801561046f57600080fd5b5060085460ff1661027a565b34801561048757600080fd5b5061025861049636600461308d565b6110d9565b3480156104a757600080fd5b506103226104b63660046134eb565b73ffffffffffffffffffffffffffffffffffffffff1660009081526003602052604090205490565b3480156104ea57600080fd5b5061025861117a565b3480156104ff57600080fd5b506102a461050e3660046131e8565b611207565b34801561051f57600080fd5b5060005473ffffffffffffffffffffffffffffffffffffffff165b60405173ffffffffffffffffffffffffffffffffffffffff9091168152602001610286565b34801561056b57600080fd5b506103226112a1565b34801561058057600080fd5b506102a46112b1565b34801561059557600080fd5b5061027a6105a4366004613225565b6112c0565b3480156105b557600080fd5b5061027a6105c4366004613225565b611398565b3480156105d557600080fd5b5061053a7f000000000000000000000000000000000000000000000000000000000000000081565b34801561060957600080fd5b50610258610618366004613508565b6113a5565b34801561062957600080fd5b5061053a7f000000000000000000000000000000000000000000000000000000000000000081565b61025861065f36600461308d565b6114d9565b34801561067057600080fd5b5061032261067f366004613577565b73ffffffffffffffffffffffffffffffffffffffff918216600090815260046020908152604080832093909416825291909152205490565b3480156106c357600080fd5b50610258611697565b3480156106d857600080fd5b506102586106e736600461337c565b611763565b3480156106f857600080fd5b506102586107073660046135b0565b611843565b34801561071857600080fd5b506102586107273660046134eb565b6118dc565b34801561073857600080fd5b506102a46107473660046135cd565b611a09565b337f000000000000000000000000000000000000000000000000000000000000000073ffffffffffffffffffffffffffffffffffffffff16146107f0576040517f08c379a000000000000000000000000000000000000000000000000000000000815260206004820152601e60248201527f4c7a4170703a20696e76616c696420656e64706f696e742063616c6c6572000060448201526064015b60405180910390fd5b61ffff84166000908152600160205260408120805461080e9061361a565b80601f016020809104026020016040519081016040528092919081815260200182805461083a9061361a565b80156108875780601f1061085c57610100808354040283529160200191610887565b820191906000526020600020905b81548152906001019060200180831161086a57829003601f168201915b50505050509050805184511480156108ac575080805190602001208480519060200120145b610938576040517f08c379a000000000000000000000000000000000000000000000000000000000815260206004820152602660248201527f4c7a4170703a20696e76616c696420736f757263652073656e64696e6720636f60448201527f6e7472616374000000000000000000000000000000000000000000000000000060648201526084016107e7565b61094485858585611afe565b5050505050565b60007fffffffff00000000000000000000000000000000000000000000000000000000821615806109bd57507fffffffff0000000000000000000000000000000000000000000000000000000082167f36372b0700000000000000000000000000000000000000000000000000000000145b806109cc57506109cc82611c09565b92915050565b6060600680546109e19061361a565b80601f0160208091040260200160405190810160405280929190818152602001828054610a0d9061361a565b8015610a5a5780601f10610a2f57610100808354040283529160200191610a5a565b820191906000526020600020905b815481529060010190602001808311610a3d57829003601f168201915b5050505050905090565b60005473ffffffffffffffffffffffffffffffffffffffff163314610ae5576040517f08c379a000000000000000000000000000000000000000000000000000000000815260206004820181905260248201527f4f776e61626c653a2063616c6c6572206973206e6f7420746865206f776e657260448201526064016107e7565b6040517f07e0db1700000000000000000000000000000000000000000000000000000000815261ffff821660048201527f000000000000000000000000000000000000000000000000000000000000000073ffffffffffffffffffffffffffffffffffffffff16906307e0db17906024015b600060405180830381600087803b158015610b7157600080fd5b505af1158015610944573d6000803e3d6000fd5b6000610b92338484611ca0565b50600192915050565b60005473ffffffffffffffffffffffffffffffffffffffff163314610c1c576040517f08c379a000000000000000000000000000000000000000000000000000000000815260206004820181905260248201527f4f776e61626c653a2063616c6c6572206973206e6f7420746865206f776e657260448201526064016107e7565b6040517f10ddb13700000000000000000000000000000000000000000000000000000000815261ffff821660048201527f000000000000000000000000000000000000000000000000000000000000000073ffffffffffffffffffffffffffffffffffffffff16906310ddb13790602401610b57565b6000610c9f848484611e53565b73ffffffffffffffffffffffffffffffffffffffff8416600090815260046020908152604080832033845290915290205482811015610d60576040517f08c379a000000000000000000000000000000000000000000000000000000000815260206004820152602860248201527f45524332303a207472616e7366657220616d6f756e742065786365656473206160448201527f6c6c6f77616e636500000000000000000000000000000000000000000000000060648201526084016107e7565b610d6d8533858403611ca0565b506001949350505050565b60008060008686604051602001610d9092919061366e565b604080517fffffffffffffffffffffffffffffffffffffffffffffffffffffffffffffffe0818403018152908290527f40a7bb10000000000000000000000000000000000000000000000000000000008252915073ffffffffffffffffffffffffffffffffffffffff7f000000000000000000000000000000000000000000000000000000000000000016906340a7bb1090610e38908b90309086908b908b90600401613690565b6040805180830381865afa158015610e54573d6000803e3d6000fd5b505050506040513d601f19601f82011682018060405250810190610e7891906136ef565b92509250509550959350505050565b33600081815260046020908152604080832073ffffffffffffffffffffffffffffffffffffffff871684529091528120549091610b92918590610ecb908690613742565b611ca0565b61ffff831660009081526001602052604081208054829190610ef19061361a565b80601f0160208091040260200160405190810160405280929190818152602001828054610f1d9061361a565b8015610f6a5780601f10610f3f57610100808354040283529160200191610f6a565b820191906000526020600020905b815481529060010190602001808311610f4d57829003601f168201915b505050505090508383604051610f8192919061375a565b60405180910390208180519060200120149150509392505050565b60005473ffffffffffffffffffffffffffffffffffffffff16331461101d576040517f08c379a000000000000000000000000000000000000000000000000000000000815260206004820181905260248201527f4f776e61626c653a2063616c6c6572206973206e6f7420746865206f776e657260448201526064016107e7565b6040517f42d65a8d00000000000000000000000000000000000000000000000000000000815273ffffffffffffffffffffffffffffffffffffffff7f000000000000000000000000000000000000000000000000000000000000000016906342d65a8d90611093908690869086906004016137b3565b600060405180830381600087803b1580156110ad57600080fd5b505af11580156110c1573d6000803e3d6000fd5b50505050505050565b6110c187878787878787612106565b333014611168576040517f08c379a000000000000000000000000000000000000000000000000000000000815260206004820152602660248201527f4e6f6e626c6f636b696e674c7a4170703a2063616c6c6572206d75737420626560448201527f204c7a417070000000000000000000000000000000000000000000000000000060648201526084016107e7565b61117484848484612284565b50505050565b60005473ffffffffffffffffffffffffffffffffffffffff1633146111fb576040517f08c379a000000000000000000000000000000000000000000000000000000000815260206004820181905260248201527f4f776e61626c653a2063616c6c6572206973206e6f7420746865206f776e657260448201526064016107e7565b611205600061232f565b565b600160205260009081526040902080546112209061361a565b80601f016020809104026020016040519081016040528092919081815260200182805461124c9061361a565b80156112995780601f1061126e57610100808354040283529160200191611299565b820191906000526020600020905b81548152906001019060200180831161127c57829003601f168201915b505050505081565b60006112ac60055490565b905090565b6060600780546109e19061361a565b33600090815260046020908152604080832073ffffffffffffffffffffffffffffffffffffffff8616845290915281205482811015611381576040517f08c379a000000000000000000000000000000000000000000000000000000000815260206004820152602560248201527f45524332303a2064656372656173656420616c6c6f77616e63652062656c6f7760448201527f207a65726f00000000000000000000000000000000000000000000000000000060648201526084016107e7565b61138e3385858403611ca0565b5060019392505050565b6000610b92338484611e53565b60005473ffffffffffffffffffffffffffffffffffffffff163314611426576040517f08c379a000000000000000000000000000000000000000000000000000000000815260206004820181905260248201527f4f776e61626c653a2063616c6c6572206973206e6f7420746865206f776e657260448201526064016107e7565b6040517fcbed8b9c00000000000000000000000000000000000000000000000000000000815273ffffffffffffffffffffffffffffffffffffffff7f0000000000000000000000000000000000000000000000000000000000000000169063cbed8b9c906114a090889088908890889088906004016137d1565b600060405180830381600087803b1580156114ba57600080fd5b505af11580156114ce573d6000803e3d6000fd5b505050505050505050565b61ffff841660009081526002602052604080822090516114fa90869061380a565b908152604080516020928190038301902067ffffffffffffffff8616600090815292529020549050806115af576040517f08c379a000000000000000000000000000000000000000000000000000000000815260206004820152602360248201527f4e6f6e626c6f636b696e674c7a4170703a206e6f2073746f726564206d65737360448201527f616765000000000000000000000000000000000000000000000000000000000060648201526084016107e7565b815160208301208114611644576040517f08c379a000000000000000000000000000000000000000000000000000000000815260206004820152602160248201527f4e6f6e626c6f636b696e674c7a4170703a20696e76616c6964207061796c6f6160448201527f640000000000000000000000000000000000000000000000000000000000000060648201526084016107e7565b61ffff8516600090815260026020526040808220905161166590879061380a565b908152604080516020928190038301902067ffffffffffffffff87166000908152925290205561094485858585612284565b60005473ffffffffffffffffffffffffffffffffffffffff163314611718576040517f08c379a000000000000000000000000000000000000000000000000000000000815260206004820181905260248201527f4f776e61626c653a2063616c6c6572206973206e6f7420746865206f776e657260448201526064016107e7565b611205307f00000000000000000000000000000000000000000000000000000000000000007fffffffffffffffffffffffffffffffffffffffffffffffffffffffffffffffff611ca0565b60005473ffffffffffffffffffffffffffffffffffffffff1633146117e4576040517f08c379a000000000000000000000000000000000000000000000000000000000815260206004820181905260248201527f4f776e61626c653a2063616c6c6572206973206e6f7420746865206f776e657260448201526064016107e7565b61ffff83166000908152600160205260409020611802908383612e8f565b507ffa41487ad5d6728f0b19276fa1eddc16558578f5109fc39d2dc33c3230470dab838383604051611836939291906137b3565b60405180910390a1505050565b60005473ffffffffffffffffffffffffffffffffffffffff1633146118c4576040517f08c379a000000000000000000000000000000000000000000000000000000000815260206004820181905260248201527f4f776e61626c653a2063616c6c6572206973206e6f7420746865206f776e657260448201526064016107e7565b806118d4576118d16123a4565b50565b6118d1612485565b60005473ffffffffffffffffffffffffffffffffffffffff16331461195d576040517f08c379a000000000000000000000000000000000000000000000000000000000815260206004820181905260248201527f4f776e61626c653a2063616c6c6572206973206e6f7420746865206f776e657260448201526064016107e7565b73ffffffffffffffffffffffffffffffffffffffff8116611a00576040517f08c379a000000000000000000000000000000000000000000000000000000000815260206004820152602660248201527f4f776e61626c653a206e6577206f776e657220697320746865207a65726f206160448201527f646472657373000000000000000000000000000000000000000000000000000060648201526084016107e7565b6118d18161232f565b6040517ff5ecbdbc00000000000000000000000000000000000000000000000000000000815261ffff808616600483015284166024820152306044820152606481018290526060907f000000000000000000000000000000000000000000000000000000000000000073ffffffffffffffffffffffffffffffffffffffff169063f5ecbdbc90608401600060405180830381865afa158015611aaf573d6000803e3d6000fd5b505050506040513d6000823e601f3d9081017fffffffffffffffffffffffffffffffffffffffffffffffffffffffffffffffe0168201604052611af59190810190613873565b95945050505050565b6040517f66ad5c8a00000000000000000000000000000000000000000000000000000000815230906366ad5c8a90611b409087908790879087906004016138a8565b600060405180830381600087803b158015611b5a57600080fd5b505af1925050508015611b6b575060015b611174578080519060200120600260008661ffff1661ffff16815260200190815260200160002084604051611ba0919061380a565b90815260408051918290036020908101832067ffffffffffffffff87166000908152915220919091557fe6f254030bcb01ffd20558175c13fcaed6d1520be7becee4c961b65f79243b0d90611bfc9086908690869086906138a8565b60405180910390a1611174565b60007fffffffff0000000000000000000000000000000000000000000000000000000082167fe8e89a800000000000000000000000000000000000000000000000000000000014806109cc57507f01ffc9a7000000000000000000000000000000000000000000000000000000007fffffffff000000000000000000000000000000000000000000000000000000008316146109cc565b73ffffffffffffffffffffffffffffffffffffffff8316611d42576040517f08c379a0000000000000000000000000000000000000000000000000000000008152602060048201526024808201527f45524332303a20617070726f76652066726f6d20746865207a65726f2061646460448201527f726573730000000000000000000000000000000000000000000000000000000060648201526084016107e7565b73ffffffffffffffffffffffffffffffffffffffff8216611de5576040517f08c379a000000000000000000000000000000000000000000000000000000000815260206004820152602260248201527f45524332303a20617070726f766520746f20746865207a65726f20616464726560448201527f737300000000000000000000000000000000000000000000000000000000000060648201526084016107e7565b73ffffffffffffffffffffffffffffffffffffffff83811660008181526004602090815260408083209487168084529482529182902085905590518481527f8c5be1e5ebec7d5bd14f71427d1e84f3dd0314c0f7b2291e5b200ac8c7c3b925910160405180910390a3505050565b73ffffffffffffffffffffffffffffffffffffffff8316611ef6576040517f08c379a000000000000000000000000000000000000000000000000000000000815260206004820152602560248201527f45524332303a207472616e736665722066726f6d20746865207a65726f20616460448201527f647265737300000000000000000000000000000000000000000000000000000060648201526084016107e7565b73ffffffffffffffffffffffffffffffffffffffff8216611f99576040517f08c379a000000000000000000000000000000000000000000000000000000000815260206004820152602360248201527f45524332303a207472616e7366657220746f20746865207a65726f206164647260448201527f657373000000000000000000000000000000000000000000000000000000000060648201526084016107e7565b73ffffffffffffffffffffffffffffffffffffffff83166000908152600360205260409020548181101561204f576040517f08c379a000000000000000000000000000000000000000000000000000000000815260206004820152602660248201527f45524332303a207472616e7366657220616d6f756e742065786365656473206260448201527f616c616e6365000000000000000000000000000000000000000000000000000060648201526084016107e7565b73ffffffffffffffffffffffffffffffffffffffff808516600090815260036020526040808220858503905591851681529081208054849290612093908490613742565b925050819055508273ffffffffffffffffffffffffffffffffffffffff168473ffffffffffffffffffffffffffffffffffffffff167fddf252ad1be2c89b69c2b068fc378daa952ba7f163c4a11628f55a4df523b3ef846040516120f991815260200190565b60405180910390a3611174565b61211287878787612545565b93506000858560405160200161212992919061366e565b6040516020818303038152906040529050612147878286868661281c565b6040517f7a14574800000000000000000000000000000000000000000000000000000000815261ffff881660048201523060248201526000907f000000000000000000000000000000000000000000000000000000000000000073ffffffffffffffffffffffffffffffffffffffff1690637a14574890604401602060405180830381865afa1580156121de573d6000803e3d6000fd5b505050506040513d601f19601f8201168201806040525081019061220291906138e7565b905086604051612212919061380a565b6040805191829003822088835267ffffffffffffffff841660208401529161ffff8b169173ffffffffffffffffffffffffffffffffffffffff8d16917f024797cc77ce15dc717112d54fb1df125fdfd8c81344fb046c5e074427ce1543910160405180910390a4505050505050505050565b6000808280602001905181019061229b9190613904565b601482015191935091506122b0878284612a04565b91508073ffffffffffffffffffffffffffffffffffffffff16866040516122d7919061380a565b6040805191829003822085835267ffffffffffffffff891660208401529161ffff8b16917f64e10c37f404d128982dce114f5d233c14c5c7f6d8db93099e3d99dacb9e27ba910160405180910390a450505050505050565b6000805473ffffffffffffffffffffffffffffffffffffffff8381167fffffffffffffffffffffffff0000000000000000000000000000000000000000831681178455604051919092169283917f8be0079c531659141344cd1fd0a4f28419497f9722a3daafe3b4186f6b6457e09190a35050565b60085460ff16612410576040517f08c379a000000000000000000000000000000000000000000000000000000000815260206004820152601460248201527f5061757361626c653a206e6f742070617573656400000000000000000000000060448201526064016107e7565b600880547fffffffffffffffffffffffffffffffffffffffffffffffffffffffffffffff001690557f5db9ee0a495bf2e6ff9c91a7834c1ba4fdd244a5e8aa4e537bd38aeae4b073aa335b60405173ffffffffffffffffffffffffffffffffffffffff909116815260200160405180910390a1565b60085460ff16156124f2576040517f08c379a000000000000000000000000000000000000000000000000000000000815260206004820152601060248201527f5061757361626c653a207061757365640000000000000000000000000000000060448201526064016107e7565b600880547fffffffffffffffffffffffffffffffffffffffffffffffffffffffffffffff001660011790557f62e78cea01bee320cd4e420270b5ea74000d11b0c9f74754ebdbfc544b05a25861245b3390565b600061255360085460ff1690565b156125ba576040517f08c379a000000000000000000000000000000000000000000000000000000000815260206004820152601060248201527f5061757361626c653a207061757365640000000000000000000000000000000060448201526064016107e7565b3373ffffffffffffffffffffffffffffffffffffffff861681146126855760006125e4873361067f565b905083811015612676576040517f08c379a000000000000000000000000000000000000000000000000000000000815260206004820152602860248201527f45524332303a207472616e7366657220616d6f756e742065786365656473206160448201527f6c6c6f77616e636500000000000000000000000000000000000000000000000060648201526084016107e7565b6126838733868403611ca0565b505b6040517f23b872dd00000000000000000000000000000000000000000000000000000000815273ffffffffffffffffffffffffffffffffffffffff8781166004830152306024830152604482018590527f000000000000000000000000000000000000000000000000000000000000000016906323b872dd906064016020604051808303816000875af1158015612720573d6000803e3d6000fd5b505050506040513d601f19601f82011682018060405250810190612744919061394b565b506040517fd44ad63f00000000000000000000000000000000000000000000000000000000815230600482018190526024820185905260448201526000907f000000000000000000000000000000000000000000000000000000000000000073ffffffffffffffffffffffffffffffffffffffff169063d44ad63f906064016020604051808303816000875af11580156127e2573d6000803e3d6000fd5b505050506040513d601f19601f820116820180604052508101906128069190613968565b90506128123082612b82565b9695505050505050565b61ffff85166000908152600160205260408120805461283a9061361a565b80601f01602080910402602001604051908101604052809291908181526020018280546128669061361a565b80156128b35780601f10612888576101008083540402835291602001916128b3565b820191906000526020600020905b81548152906001019060200180831161289657829003601f168201915b5050505050905080516000141561294c576040517f08c379a000000000000000000000000000000000000000000000000000000000815260206004820152603060248201527f4c7a4170703a2064657374696e6174696f6e20636861696e206973206e6f742060448201527f61207472757374656420736f757263650000000000000000000000000000000060648201526084016107e7565b6040517fc580310000000000000000000000000000000000000000000000000000000000815273ffffffffffffffffffffffffffffffffffffffff7f0000000000000000000000000000000000000000000000000000000000000000169063c58031009034906129ca908a9086908b908b908b908b90600401613981565b6000604051808303818588803b1580156129e357600080fd5b505af11580156129f7573d6000803e3d6000fd5b5050505050505050505050565b6000612a1260085460ff1690565b15612a79576040517f08c379a000000000000000000000000000000000000000000000000000000000815260206004820152601060248201527f5061757361626c653a207061757365640000000000000000000000000000000060448201526064016107e7565b612a833083612d6f565b6040517f151dd7550000000000000000000000000000000000000000000000000000000081523060048201526024810183905273ffffffffffffffffffffffffffffffffffffffff84811660448301526000917f00000000000000000000000000000000000000000000000000000000000000009091169063151dd755906064016020604051808303816000875af1158015612b23573d6000803e3d6000fd5b505050506040513d601f19601f82011682018060405250810190612b479190613968565b9050612b79846105c43073ffffffffffffffffffffffffffffffffffffffff1660009081526003602052604090205490565b50949350505050565b73ffffffffffffffffffffffffffffffffffffffff8216612c25576040517f08c379a000000000000000000000000000000000000000000000000000000000815260206004820152602160248201527f45524332303a206275726e2066726f6d20746865207a65726f2061646472657360448201527f730000000000000000000000000000000000000000000000000000000000000060648201526084016107e7565b73ffffffffffffffffffffffffffffffffffffffff821660009081526003602052604090205481811015612cdb576040517f08c379a000000000000000000000000000000000000000000000000000000000815260206004820152602260248201527f45524332303a206275726e20616d6f756e7420657863656564732062616c616e60448201527f636500000000000000000000000000000000000000000000000000000000000060648201526084016107e7565b73ffffffffffffffffffffffffffffffffffffffff83166000908152600360205260408120838303905560058054849290612d179084906139f5565b909155505060405182815260009073ffffffffffffffffffffffffffffffffffffffff8516907fddf252ad1be2c89b69c2b068fc378daa952ba7f163c4a11628f55a4df523b3ef9060200160405180910390a3505050565b73ffffffffffffffffffffffffffffffffffffffff8216612dec576040517f08c379a000000000000000000000000000000000000000000000000000000000815260206004820152601f60248201527f45524332303a206d696e7420746f20746865207a65726f20616464726573730060448201526064016107e7565b8060056000828254612dfe9190613742565b909155505073ffffffffffffffffffffffffffffffffffffffff821660009081526003602052604081208054839290612e38908490613742565b909155505060405181815273ffffffffffffffffffffffffffffffffffffffff8316906000907fddf252ad1be2c89b69c2b068fc378daa952ba7f163c4a11628f55a4df523b3ef9060200160405180910390a35050565b828054612e9b9061361a565b90600052602060002090601f016020900481019282612ebd5760008555612f21565b82601f10612ef4578280017fffffffffffffffffffffffffffffffffffffffffffffffffffffffffffffff00823516178555612f21565b82800160010185558215612f21579182015b82811115612f21578235825591602001919060010190612f06565b50612f2d929150612f31565b5090565b5b80821115612f2d5760008155600101612f32565b803561ffff81168114612f5857600080fd5b919050565b7f4e487b7100000000000000000000000000000000000000000000000000000000600052604160045260246000fd5b604051601f82017fffffffffffffffffffffffffffffffffffffffffffffffffffffffffffffffe016810167ffffffffffffffff81118282101715612fd357612fd3612f5d565b604052919050565b600067ffffffffffffffff821115612ff557612ff5612f5d565b50601f017fffffffffffffffffffffffffffffffffffffffffffffffffffffffffffffffe01660200190565b600082601f83011261303257600080fd5b813561304561304082612fdb565b612f8c565b81815284602083860101111561305a57600080fd5b816020850160208301376000918101602001919091529392505050565b67ffffffffffffffff811681146118d157600080fd5b600080600080608085870312156130a357600080fd5b6130ac85612f46565b9350602085013567ffffffffffffffff808211156130c957600080fd5b6130d588838901613021565b9450604087013591506130e782613077565b909250606086013590808211156130fd57600080fd5b5061310a87828801613021565b91505092959194509250565b60006020828403121561312857600080fd5b81357fffffffff000000000000000000000000000000000000000000000000000000008116811461315857600080fd5b9392505050565b60005b8381101561317a578181015183820152602001613162565b838111156111745750506000910152565b600081518084526131a381602086016020860161315f565b601f017fffffffffffffffffffffffffffffffffffffffffffffffffffffffffffffffe0169290920160200192915050565b602081526000613158602083018461318b565b6000602082840312156131fa57600080fd5b61315882612f46565b73ffffffffffffffffffffffffffffffffffffffff811681146118d157600080fd5b6000806040838503121561323857600080fd5b823561324381613203565b946020939093013593505050565b60008060006060848603121561326657600080fd5b833561327181613203565b9250602084013561328181613203565b929592945050506040919091013590565b80151581146118d157600080fd5b600080600080600060a086880312156132b857600080fd5b6132c186612f46565b9450602086013567ffffffffffffffff808211156132de57600080fd5b6132ea89838a01613021565b9550604088013594506060880135915061330382613292565b9092506080870135908082111561331957600080fd5b5061332688828901613021565b9150509295509295909350565b60008083601f84011261334557600080fd5b50813567ffffffffffffffff81111561335d57600080fd5b60208301915083602082850101111561337557600080fd5b9250929050565b60008060006040848603121561339157600080fd5b61339a84612f46565b9250602084013567ffffffffffffffff8111156133b657600080fd5b6133c286828701613333565b9497909650939450505050565b600080600080600080600060e0888a0312156133ea57600080fd5b87356133f581613203565b965061340360208901612f46565b9550604088013567ffffffffffffffff8082111561342057600080fd5b61342c8b838c01613021565b965060608a0135955060808a0135915061344582613203565b90935060a08901359061345782613203565b90925060c0890135908082111561346d57600080fd5b5061347a8a828b01613021565b91505092959891949750929550565b60008060006060848603121561349e57600080fd5b6134a784612f46565b9250602084013567ffffffffffffffff8111156134c357600080fd5b6134cf86828701613021565b92505060408401356134e081613077565b809150509250925092565b6000602082840312156134fd57600080fd5b813561315881613203565b60008060008060006080868803121561352057600080fd5b61352986612f46565b945061353760208701612f46565b935060408601359250606086013567ffffffffffffffff81111561355a57600080fd5b61356688828901613333565b969995985093965092949392505050565b6000806040838503121561358a57600080fd5b823561359581613203565b915060208301356135a581613203565b809150509250929050565b6000602082840312156135c257600080fd5b813561315881613292565b600080600080608085870312156135e357600080fd5b6135ec85612f46565b93506135fa60208601612f46565b9250604085013561360a81613203565b9396929550929360600135925050565b600181811c9082168061362e57607f821691505b60208210811415613668577f4e487b7100000000000000000000000000000000000000000000000000000000600052602260045260246000fd5b50919050565b604081526000613681604083018561318b565b90508260208301529392505050565b61ffff8616815273ffffffffffffffffffffffffffffffffffffffff8516602082015260a0604082015260006136c960a083018661318b565b841515606084015282810360808401526136e3818561318b565b98975050505050505050565b6000806040838503121561370257600080fd5b505080516020909101519092909150565b7f4e487b7100000000000000000000000000000000000000000000000000000000600052601160045260246000fd5b6000821982111561375557613755613713565b500190565b8183823760009101908152919050565b8183528181602085013750600060208284010152600060207fffffffffffffffffffffffffffffffffffffffffffffffffffffffffffffffe0601f840116840101905092915050565b61ffff84168152604060208201526000611af560408301848661376a565b600061ffff8088168352808716602084015250846040830152608060608301526137ff60808301848661376a565b979650505050505050565b6000825161381c81846020870161315f565b9190910192915050565b600082601f83011261383757600080fd5b815161384561304082612fdb565b81815284602083860101111561385a57600080fd5b61386b82602083016020870161315f565b949350505050565b60006020828403121561388557600080fd5b815167ffffffffffffffff81111561389c57600080fd5b61386b84828501613826565b61ffff851681526080602082015260006138c5608083018661318b565b67ffffffffffffffff8516604084015282810360608401526137ff818561318b565b6000602082840312156138f957600080fd5b815161315881613077565b6000806040838503121561391757600080fd5b825167ffffffffffffffff81111561392e57600080fd5b61393a85828601613826565b925050602083015190509250929050565b60006020828403121561395d57600080fd5b815161315881613292565b60006020828403121561397a57600080fd5b5051919050565b61ffff8716815260c06020820152600061399e60c083018861318b565b82810360408401526139b0818861318b565b73ffffffffffffffffffffffffffffffffffffffff87811660608601528616608085015283810360a085015290506139e8818561318b565b9998505050505050505050565b600082821015613a0757613a07613713565b50039056fea2646970667358221220a4615ca66cd1ba304de25be824fd0edf575769e499ca3f964b3ba26ae2a1003b64736f6c634300080c0033",
  "devdoc": {
    "kind": "dev",
    "methods": {
      "allowance(address,address)": {
        "details": "See {IERC20-allowance}."
      },
      "approve(address,uint256)": {
        "details": "See {IERC20-approve}. Requirements: - `spender` cannot be the zero address."
      },
      "balanceOf(address)": {
        "details": "See {IERC20-balanceOf}."
      },
      "circulatingSupply()": {
        "details": "returns the circulating amount of tokens on current chain"
      },
      "decimals()": {
        "details": "Returns the number of decimals used to get its user representation. For example, if `decimals` equals `2`, a balance of `505` tokens should be displayed to a user as `5.05` (`505 / 10 ** 2`). Tokens usually opt for a value of 18, imitating the relationship between Ether and Wei. This is the value {ERC20} uses, unless this function is overridden; NOTE: This information is only used for _display_ purposes: it in no way affects any of the arithmetic of the contract, including {IERC20-balanceOf} and {IERC20-transfer}."
      },
      "decreaseAllowance(address,uint256)": {
        "details": "Atomically decreases the allowance granted to `spender` by the caller. This is an alternative to {approve} that can be used as a mitigation for problems described in {IERC20-approve}. Emits an {Approval} event indicating the updated allowance. Requirements: - `spender` cannot be the zero address. - `spender` must have allowance for the caller of at least `subtractedValue`."
      },
      "estimateSendFee(uint16,bytes,uint256,bool,bytes)": {
        "details": "estimate send token `_tokenId` to (`_dstChainId`, `_toAddress`) _dstChainId - L0 defined chain id to send tokens too _toAddress - dynamic bytes array which contains the address to whom you are sending tokens to on the dstChain _amount - amount of the tokens to transfer _useZro - indicates to use zro to pay L0 fees _adapterParam - flexible bytes array to indicate messaging adapter services in L0"
      },
      "increaseAllowance(address,uint256)": {
        "details": "Atomically increases the allowance granted to `spender` by the caller. This is an alternative to {approve} that can be used as a mitigation for problems described in {IERC20-approve}. Emits an {Approval} event indicating the updated allowance. Requirements: - `spender` cannot be the zero address."
      },
      "name()": {
        "details": "Returns the name of the token."
      },
      "owner()": {
        "details": "Returns the address of the current owner."
      },
      "paused()": {
        "details": "Returns true if the contract is paused, and false otherwise."
      },
      "renounceOwnership()": {
        "details": "Leaves the contract without owner. It will not be possible to call `onlyOwner` functions anymore. Can only be called by the current owner. NOTE: Renouncing ownership will leave the contract without an owner, thereby removing any functionality that is only available to the owner."
      },
      "sendFrom(address,uint16,bytes,uint256,address,address,bytes)": {
        "details": "send `_amount` amount of token to (`_dstChainId`, `_toAddress`) from `_from` `_from` the owner of token `_dstChainId` the destination chain identifier `_toAddress` can be any size depending on the `dstChainId`. `_amount` the quantity of tokens in wei `_refundAddress` the address LayerZero refunds if too much message fee is sent `_zroPaymentAddress` set to address(0x0) if not paying in ZRO (LayerZero Token) `_adapterParams` is a flexible bytes array to indicate messaging adapter services"
      },
      "symbol()": {
        "details": "Returns the symbol of the token, usually a shorter version of the name."
      },
      "totalSupply()": {
        "details": "See {IERC20-totalSupply}."
      },
      "transfer(address,uint256)": {
        "details": "See {IERC20-transfer}. Requirements: - `recipient` cannot be the zero address. - the caller must have a balance of at least `amount`."
      },
      "transferFrom(address,address,uint256)": {
        "details": "See {IERC20-transferFrom}. Emits an {Approval} event indicating the updated allowance. This is not required by the EIP. See the note at the beginning of {ERC20}. Requirements: - `sender` and `recipient` cannot be the zero address. - `sender` must have a balance of at least `amount`. - the caller must have allowance for ``sender``'s tokens of at least `amount`."
      },
      "transferOwnership(address)": {
        "details": "Transfers ownership of the contract to a new account (`newOwner`). Can only be called by the current owner."
      }
    },
    "version": 1
  },
  "userdoc": {
    "kind": "user",
    "methods": {},
    "version": 1
  },
  "storageLayout": {
    "storage": [
      {
        "astId": 4049,
        "contract": "contracts/agToken/layerZero/AngleOFT.sol:AngleOFT",
        "label": "_owner",
        "offset": 0,
        "slot": "0",
        "type": "t_address"
      },
      {
        "astId": 9407,
        "contract": "contracts/agToken/layerZero/AngleOFT.sol:AngleOFT",
        "label": "trustedRemoteLookup",
        "offset": 0,
        "slot": "1",
        "type": "t_mapping(t_uint16,t_bytes_storage)"
      },
      {
        "astId": 9697,
        "contract": "contracts/agToken/layerZero/AngleOFT.sol:AngleOFT",
        "label": "failedMessages",
        "offset": 0,
        "slot": "2",
        "type": "t_mapping(t_uint16,t_mapping(t_bytes_memory_ptr,t_mapping(t_uint64,t_bytes32)))"
      },
      {
        "astId": 4779,
        "contract": "contracts/agToken/layerZero/AngleOFT.sol:AngleOFT",
        "label": "_balances",
        "offset": 0,
        "slot": "3",
        "type": "t_mapping(t_address,t_uint256)"
      },
      {
        "astId": 4785,
        "contract": "contracts/agToken/layerZero/AngleOFT.sol:AngleOFT",
        "label": "_allowances",
        "offset": 0,
        "slot": "4",
        "type": "t_mapping(t_address,t_mapping(t_address,t_uint256))"
      },
      {
        "astId": 4787,
        "contract": "contracts/agToken/layerZero/AngleOFT.sol:AngleOFT",
        "label": "_totalSupply",
        "offset": 0,
        "slot": "5",
        "type": "t_uint256"
      },
      {
        "astId": 4789,
        "contract": "contracts/agToken/layerZero/AngleOFT.sol:AngleOFT",
        "label": "_name",
        "offset": 0,
        "slot": "6",
        "type": "t_string_storage"
      },
      {
        "astId": 4791,
        "contract": "contracts/agToken/layerZero/AngleOFT.sol:AngleOFT",
        "label": "_symbol",
        "offset": 0,
        "slot": "7",
        "type": "t_string_storage"
      },
      {
        "astId": 4689,
        "contract": "contracts/agToken/layerZero/AngleOFT.sol:AngleOFT",
        "label": "_paused",
        "offset": 0,
        "slot": "8",
        "type": "t_bool"
      }
    ],
    "types": {
      "t_address": {
        "encoding": "inplace",
        "label": "address",
        "numberOfBytes": "20"
      },
      "t_bool": {
        "encoding": "inplace",
        "label": "bool",
        "numberOfBytes": "1"
      },
      "t_bytes32": {
        "encoding": "inplace",
        "label": "bytes32",
        "numberOfBytes": "32"
      },
      "t_bytes_memory_ptr": {
        "encoding": "bytes",
        "label": "bytes",
        "numberOfBytes": "32"
      },
      "t_bytes_storage": {
        "encoding": "bytes",
        "label": "bytes",
        "numberOfBytes": "32"
      },
      "t_mapping(t_address,t_mapping(t_address,t_uint256))": {
        "encoding": "mapping",
        "key": "t_address",
        "label": "mapping(address => mapping(address => uint256))",
        "numberOfBytes": "32",
        "value": "t_mapping(t_address,t_uint256)"
      },
      "t_mapping(t_address,t_uint256)": {
        "encoding": "mapping",
        "key": "t_address",
        "label": "mapping(address => uint256)",
        "numberOfBytes": "32",
        "value": "t_uint256"
      },
      "t_mapping(t_bytes_memory_ptr,t_mapping(t_uint64,t_bytes32))": {
        "encoding": "mapping",
        "key": "t_bytes_memory_ptr",
        "label": "mapping(bytes => mapping(uint64 => bytes32))",
        "numberOfBytes": "32",
        "value": "t_mapping(t_uint64,t_bytes32)"
      },
      "t_mapping(t_uint16,t_bytes_storage)": {
        "encoding": "mapping",
        "key": "t_uint16",
        "label": "mapping(uint16 => bytes)",
        "numberOfBytes": "32",
        "value": "t_bytes_storage"
      },
      "t_mapping(t_uint16,t_mapping(t_bytes_memory_ptr,t_mapping(t_uint64,t_bytes32)))": {
        "encoding": "mapping",
        "key": "t_uint16",
        "label": "mapping(uint16 => mapping(bytes => mapping(uint64 => bytes32)))",
        "numberOfBytes": "32",
        "value": "t_mapping(t_bytes_memory_ptr,t_mapping(t_uint64,t_bytes32))"
      },
      "t_mapping(t_uint64,t_bytes32)": {
        "encoding": "mapping",
        "key": "t_uint64",
        "label": "mapping(uint64 => bytes32)",
        "numberOfBytes": "32",
        "value": "t_bytes32"
      },
      "t_string_storage": {
        "encoding": "bytes",
        "label": "string",
        "numberOfBytes": "32"
      },
      "t_uint16": {
        "encoding": "inplace",
        "label": "uint16",
        "numberOfBytes": "2"
      },
      "t_uint256": {
        "encoding": "inplace",
        "label": "uint256",
        "numberOfBytes": "32"
      },
      "t_uint64": {
        "encoding": "inplace",
        "label": "uint64",
        "numberOfBytes": "8"
      }
    }
  }
}