{
  "address": "0x4924E9740d317c58Edce2f02b4EF747Bc9046ed5",
  "abi": [
    {
      "inputs": [],
      "name": "AssetStillControlledInReserves",
      "type": "error"
    },
    {
      "inputs": [],
      "name": "BurnAmountExceedsAllowance",
      "type": "error"
    },
    {
      "inputs": [],
      "name": "HourlyLimitExceeded",
      "type": "error"
    },
    {
      "inputs": [],
      "name": "InvalidSender",
      "type": "error"
    },
    {
      "inputs": [],
      "name": "InvalidToken",
      "type": "error"
    },
    {
      "inputs": [],
      "name": "InvalidTreasury",
      "type": "error"
    },
    {
      "inputs": [],
      "name": "NotGovernor",
      "type": "error"
    },
    {
      "inputs": [],
      "name": "NotGovernorOrGuardian",
      "type": "error"
    },
    {
      "inputs": [],
      "name": "NotMinter",
      "type": "error"
    },
    {
      "inputs": [],
      "name": "NotTreasury",
      "type": "error"
    },
    {
      "inputs": [],
      "name": "TooBigAmount",
      "type": "error"
    },
    {
      "inputs": [],
      "name": "TooHighParameterValue",
      "type": "error"
    },
    {
      "inputs": [],
      "name": "ZeroAddress",
      "type": "error"
    },
    {
      "anonymous": false,
      "inputs": [
        {
          "indexed": true,
          "internalType": "address",
          "name": "owner",
          "type": "address"
        },
        {
          "indexed": true,
          "internalType": "address",
          "name": "spender",
          "type": "address"
        },
        {
          "indexed": false,
          "internalType": "uint256",
          "name": "value",
          "type": "uint256"
        }
      ],
      "name": "Approval",
      "type": "event"
    },
    {
      "anonymous": false,
      "inputs": [
        {
          "indexed": true,
          "internalType": "address",
          "name": "bridgeToken",
          "type": "address"
        },
        {
          "indexed": false,
          "internalType": "uint256",
          "name": "limit",
          "type": "uint256"
        },
        {
          "indexed": false,
          "internalType": "uint256",
          "name": "hourlyLimit",
          "type": "uint256"
        },
        {
          "indexed": false,
          "internalType": "uint64",
          "name": "fee",
          "type": "uint64"
        },
        {
          "indexed": false,
          "internalType": "bool",
          "name": "paused",
          "type": "bool"
        }
      ],
      "name": "BridgeTokenAdded",
      "type": "event"
    },
    {
      "anonymous": false,
      "inputs": [
        {
          "indexed": true,
          "internalType": "address",
          "name": "bridgeToken",
          "type": "address"
        },
        {
          "indexed": false,
          "internalType": "uint64",
          "name": "fee",
          "type": "uint64"
        }
      ],
      "name": "BridgeTokenFeeUpdated",
      "type": "event"
    },
    {
      "anonymous": false,
      "inputs": [
        {
          "indexed": true,
          "internalType": "address",
          "name": "bridgeToken",
          "type": "address"
        },
        {
          "indexed": false,
          "internalType": "uint256",
          "name": "hourlyLimit",
          "type": "uint256"
        }
      ],
      "name": "BridgeTokenHourlyLimitUpdated",
      "type": "event"
    },
    {
      "anonymous": false,
      "inputs": [
        {
          "indexed": true,
          "internalType": "address",
          "name": "bridgeToken",
          "type": "address"
        },
        {
          "indexed": false,
          "internalType": "uint256",
          "name": "limit",
          "type": "uint256"
        }
      ],
      "name": "BridgeTokenLimitUpdated",
      "type": "event"
    },
    {
      "anonymous": false,
      "inputs": [
        {
          "indexed": true,
          "internalType": "address",
          "name": "bridgeToken",
          "type": "address"
        }
      ],
      "name": "BridgeTokenRemoved",
      "type": "event"
    },
    {
      "anonymous": false,
      "inputs": [
        {
          "indexed": true,
          "internalType": "address",
          "name": "bridgeToken",
          "type": "address"
        },
        {
          "indexed": false,
          "internalType": "bool",
          "name": "toggleStatus",
          "type": "bool"
        }
      ],
      "name": "BridgeTokenToggled",
      "type": "event"
    },
    {
      "anonymous": false,
      "inputs": [
        {
          "indexed": true,
          "internalType": "address",
          "name": "theAddress",
          "type": "address"
        },
        {
          "indexed": false,
          "internalType": "uint256",
          "name": "toggleStatus",
          "type": "uint256"
        }
      ],
      "name": "FeeToggled",
      "type": "event"
    },
    {
      "anonymous": false,
      "inputs": [
        {
          "indexed": false,
          "internalType": "uint256",
          "name": "hourlyLimit",
          "type": "uint256"
        }
      ],
      "name": "HourlyLimitUpdated",
      "type": "event"
    },
    {
      "anonymous": false,
      "inputs": [
        {
          "indexed": false,
          "internalType": "uint8",
          "name": "version",
          "type": "uint8"
        }
      ],
      "name": "Initialized",
      "type": "event"
    },
    {
      "anonymous": false,
      "inputs": [
        {
          "indexed": true,
          "internalType": "address",
          "name": "minter",
          "type": "address"
        }
      ],
      "name": "MinterToggled",
      "type": "event"
    },
    {
      "anonymous": false,
      "inputs": [
        {
          "indexed": true,
          "internalType": "address",
          "name": "token",
          "type": "address"
        },
        {
          "indexed": true,
          "internalType": "address",
          "name": "to",
          "type": "address"
        },
        {
          "indexed": false,
          "internalType": "uint256",
          "name": "amount",
          "type": "uint256"
        }
      ],
      "name": "Recovered",
      "type": "event"
    },
    {
      "anonymous": false,
      "inputs": [
        {
          "indexed": true,
          "internalType": "address",
          "name": "from",
          "type": "address"
        },
        {
          "indexed": true,
          "internalType": "address",
          "name": "to",
          "type": "address"
        },
        {
          "indexed": false,
          "internalType": "uint256",
          "name": "value",
          "type": "uint256"
        }
      ],
      "name": "Transfer",
      "type": "event"
    },
    {
      "anonymous": false,
      "inputs": [
        {
          "indexed": true,
          "internalType": "address",
          "name": "_treasury",
          "type": "address"
        }
      ],
      "name": "TreasuryUpdated",
      "type": "event"
    },
    {
      "inputs": [],
      "name": "BASE_PARAMS",
      "outputs": [
        {
          "internalType": "uint256",
          "name": "",
          "type": "uint256"
        }
      ],
      "stateMutability": "view",
      "type": "function"
    },
    {
      "inputs": [],
      "name": "DOMAIN_SEPARATOR",
      "outputs": [
        {
          "internalType": "bytes32",
          "name": "",
          "type": "bytes32"
        }
      ],
      "stateMutability": "view",
      "type": "function"
    },
    {
      "inputs": [
        {
          "internalType": "address",
          "name": "bridgeToken",
          "type": "address"
        },
        {
          "internalType": "uint256",
          "name": "limit",
          "type": "uint256"
        },
        {
          "internalType": "uint256",
          "name": "hourlyLimit",
          "type": "uint256"
        },
        {
          "internalType": "uint64",
          "name": "fee",
          "type": "uint64"
        },
        {
          "internalType": "bool",
          "name": "paused",
          "type": "bool"
        }
      ],
      "name": "addBridgeToken",
      "outputs": [],
      "stateMutability": "nonpayable",
      "type": "function"
    },
    {
      "inputs": [
        {
          "internalType": "address",
          "name": "minter",
          "type": "address"
        }
      ],
      "name": "addMinter",
      "outputs": [],
      "stateMutability": "nonpayable",
      "type": "function"
    },
    {
      "inputs": [],
      "name": "allBridgeTokens",
      "outputs": [
        {
          "internalType": "address[]",
          "name": "",
          "type": "address[]"
        }
      ],
      "stateMutability": "view",
      "type": "function"
    },
    {
      "inputs": [
        {
          "internalType": "address",
          "name": "owner",
          "type": "address"
        },
        {
          "internalType": "address",
          "name": "spender",
          "type": "address"
        }
      ],
      "name": "allowance",
      "outputs": [
        {
          "internalType": "uint256",
          "name": "",
          "type": "uint256"
        }
      ],
      "stateMutability": "view",
      "type": "function"
    },
    {
      "inputs": [
        {
          "internalType": "address",
          "name": "spender",
          "type": "address"
        },
        {
          "internalType": "uint256",
          "name": "amount",
          "type": "uint256"
        }
      ],
      "name": "approve",
      "outputs": [
        {
          "internalType": "bool",
          "name": "",
          "type": "bool"
        }
      ],
      "stateMutability": "nonpayable",
      "type": "function"
    },
    {
      "inputs": [
        {
          "internalType": "address",
          "name": "account",
          "type": "address"
        }
      ],
      "name": "balanceOf",
      "outputs": [
        {
          "internalType": "uint256",
          "name": "",
          "type": "uint256"
        }
      ],
      "stateMutability": "view",
      "type": "function"
    },
    {
      "inputs": [
        {
          "internalType": "uint256",
          "name": "",
          "type": "uint256"
        }
      ],
      "name": "bridgeTokensList",
      "outputs": [
        {
          "internalType": "address",
          "name": "",
          "type": "address"
        }
      ],
      "stateMutability": "view",
      "type": "function"
    },
    {
      "inputs": [
        {
          "internalType": "address",
          "name": "",
          "type": "address"
        }
      ],
      "name": "bridges",
      "outputs": [
        {
          "internalType": "uint256",
          "name": "limit",
          "type": "uint256"
        },
        {
          "internalType": "uint256",
          "name": "hourlyLimit",
          "type": "uint256"
        },
        {
          "internalType": "uint64",
          "name": "fee",
          "type": "uint64"
        },
        {
          "internalType": "bool",
          "name": "allowed",
          "type": "bool"
        },
        {
          "internalType": "bool",
          "name": "paused",
          "type": "bool"
        }
      ],
      "stateMutability": "view",
      "type": "function"
    },
    {
      "inputs": [
        {
          "internalType": "uint256",
          "name": "amount",
          "type": "uint256"
        },
        {
          "internalType": "address",
          "name": "burner",
          "type": "address"
        },
        {
          "internalType": "address",
          "name": "sender",
          "type": "address"
        }
      ],
      "name": "burnFrom",
      "outputs": [],
      "stateMutability": "nonpayable",
      "type": "function"
    },
    {
      "inputs": [
        {
          "internalType": "uint256",
          "name": "amount",
          "type": "uint256"
        },
        {
          "internalType": "address",
          "name": "burner",
          "type": "address"
        }
      ],
      "name": "burnSelf",
      "outputs": [],
      "stateMutability": "nonpayable",
      "type": "function"
    },
    {
      "inputs": [
        {
          "internalType": "uint256",
          "name": "amount",
          "type": "uint256"
        }
      ],
      "name": "burnStablecoin",
      "outputs": [],
      "stateMutability": "nonpayable",
      "type": "function"
    },
    {
      "inputs": [],
      "name": "chainTotalHourlyLimit",
      "outputs": [
        {
          "internalType": "uint256",
          "name": "",
          "type": "uint256"
        }
      ],
      "stateMutability": "view",
      "type": "function"
    },
    {
      "inputs": [
        {
          "internalType": "uint256",
          "name": "",
          "type": "uint256"
        }
      ],
      "name": "chainTotalUsage",
      "outputs": [
        {
          "internalType": "uint256",
          "name": "",
          "type": "uint256"
        }
      ],
      "stateMutability": "view",
      "type": "function"
    },
    {
      "inputs": [],
      "name": "currentTotalUsage",
      "outputs": [
        {
          "internalType": "uint256",
          "name": "",
          "type": "uint256"
        }
      ],
      "stateMutability": "view",
      "type": "function"
    },
    {
      "inputs": [
        {
          "internalType": "address",
          "name": "bridgeToken",
          "type": "address"
        }
      ],
      "name": "currentUsage",
      "outputs": [
        {
          "internalType": "uint256",
          "name": "",
          "type": "uint256"
        }
      ],
      "stateMutability": "view",
      "type": "function"
    },
    {
      "inputs": [],
      "name": "decimals",
      "outputs": [
        {
          "internalType": "uint8",
          "name": "",
          "type": "uint8"
        }
      ],
      "stateMutability": "view",
      "type": "function"
    },
    {
      "inputs": [
        {
          "internalType": "address",
          "name": "spender",
          "type": "address"
        },
        {
          "internalType": "uint256",
          "name": "subtractedValue",
          "type": "uint256"
        }
      ],
      "name": "decreaseAllowance",
      "outputs": [
        {
          "internalType": "bool",
          "name": "",
          "type": "bool"
        }
      ],
      "stateMutability": "nonpayable",
      "type": "function"
    },
    {
      "inputs": [
        {
          "internalType": "address",
          "name": "spender",
          "type": "address"
        },
        {
          "internalType": "uint256",
          "name": "addedValue",
          "type": "uint256"
        }
      ],
      "name": "increaseAllowance",
      "outputs": [
        {
          "internalType": "bool",
          "name": "",
          "type": "bool"
        }
      ],
      "stateMutability": "nonpayable",
      "type": "function"
    },
    {
      "inputs": [
        {
          "internalType": "string",
          "name": "name_",
          "type": "string"
        },
        {
          "internalType": "string",
          "name": "symbol_",
          "type": "string"
        },
        {
          "internalType": "address",
          "name": "_treasury",
          "type": "address"
        }
      ],
      "name": "initialize",
      "outputs": [],
      "stateMutability": "nonpayable",
      "type": "function"
    },
    {
      "inputs": [
        {
          "internalType": "address",
          "name": "",
          "type": "address"
        }
      ],
      "name": "isFeeExempt",
      "outputs": [
        {
          "internalType": "uint256",
          "name": "",
          "type": "uint256"
        }
      ],
      "stateMutability": "view",
      "type": "function"
    },
    {
      "inputs": [
        {
          "internalType": "address",
          "name": "",
          "type": "address"
        }
      ],
      "name": "isMinter",
      "outputs": [
        {
          "internalType": "bool",
          "name": "",
          "type": "bool"
        }
      ],
      "stateMutability": "view",
      "type": "function"
    },
    {
      "inputs": [
        {
          "internalType": "address",
          "name": "account",
          "type": "address"
        },
        {
          "internalType": "uint256",
          "name": "amount",
          "type": "uint256"
        }
      ],
      "name": "mint",
      "outputs": [],
      "stateMutability": "nonpayable",
      "type": "function"
    },
    {
      "inputs": [],
      "name": "name",
      "outputs": [
        {
          "internalType": "string",
          "name": "",
          "type": "string"
        }
      ],
      "stateMutability": "view",
      "type": "function"
    },
    {
      "inputs": [
        {
          "internalType": "address",
          "name": "owner",
          "type": "address"
        }
      ],
      "name": "nonces",
      "outputs": [
        {
          "internalType": "uint256",
          "name": "",
          "type": "uint256"
        }
      ],
      "stateMutability": "view",
      "type": "function"
    },
    {
      "inputs": [
        {
          "internalType": "address",
          "name": "owner",
          "type": "address"
        },
        {
          "internalType": "address",
          "name": "spender",
          "type": "address"
        },
        {
          "internalType": "uint256",
          "name": "value",
          "type": "uint256"
        },
        {
          "internalType": "uint256",
          "name": "deadline",
          "type": "uint256"
        },
        {
          "internalType": "uint8",
          "name": "v",
          "type": "uint8"
        },
        {
          "internalType": "bytes32",
          "name": "r",
          "type": "bytes32"
        },
        {
          "internalType": "bytes32",
          "name": "s",
          "type": "bytes32"
        }
      ],
      "name": "permit",
      "outputs": [],
      "stateMutability": "nonpayable",
      "type": "function"
    },
    {
      "inputs": [
        {
          "internalType": "address",
          "name": "tokenAddress",
          "type": "address"
        },
        {
          "internalType": "address",
          "name": "to",
          "type": "address"
        },
        {
          "internalType": "uint256",
          "name": "amountToRecover",
          "type": "uint256"
        }
      ],
      "name": "recoverERC20",
      "outputs": [],
      "stateMutability": "nonpayable",
      "type": "function"
    },
    {
      "inputs": [
        {
          "internalType": "address",
          "name": "bridgeToken",
          "type": "address"
        }
      ],
      "name": "removeBridgeToken",
      "outputs": [],
      "stateMutability": "nonpayable",
      "type": "function"
    },
    {
      "inputs": [
        {
          "internalType": "address",
          "name": "minter",
          "type": "address"
        }
      ],
      "name": "removeMinter",
      "outputs": [],
      "stateMutability": "nonpayable",
      "type": "function"
    },
    {
      "inputs": [
        {
          "internalType": "uint256",
          "name": "hourlyLimit",
          "type": "uint256"
        }
      ],
      "name": "setChainTotalHourlyLimit",
      "outputs": [],
      "stateMutability": "nonpayable",
      "type": "function"
    },
    {
      "inputs": [
        {
          "internalType": "address",
          "name": "bridgeToken",
          "type": "address"
        },
        {
          "internalType": "uint256",
          "name": "hourlyLimit",
          "type": "uint256"
        }
      ],
      "name": "setHourlyLimit",
      "outputs": [],
      "stateMutability": "nonpayable",
      "type": "function"
    },
    {
      "inputs": [
        {
          "internalType": "address",
          "name": "bridgeToken",
          "type": "address"
        },
        {
          "internalType": "uint256",
          "name": "limit",
          "type": "uint256"
        }
      ],
      "name": "setLimit",
      "outputs": [],
      "stateMutability": "nonpayable",
      "type": "function"
    },
    {
      "inputs": [
        {
          "internalType": "address",
          "name": "bridgeToken",
          "type": "address"
        },
        {
          "internalType": "uint64",
          "name": "fee",
          "type": "uint64"
        }
      ],
      "name": "setSwapFee",
      "outputs": [],
      "stateMutability": "nonpayable",
      "type": "function"
    },
    {
      "inputs": [
        {
          "internalType": "address",
          "name": "_treasury",
          "type": "address"
        }
      ],
      "name": "setTreasury",
      "outputs": [],
      "stateMutability": "nonpayable",
      "type": "function"
    },
    {
      "inputs": [
        {
          "internalType": "address",
          "name": "bridgeToken",
          "type": "address"
        },
        {
          "internalType": "uint256",
          "name": "amount",
          "type": "uint256"
        },
        {
          "internalType": "address",
          "name": "to",
          "type": "address"
        }
      ],
      "name": "swapIn",
      "outputs": [
        {
          "internalType": "uint256",
          "name": "",
          "type": "uint256"
        }
      ],
      "stateMutability": "nonpayable",
      "type": "function"
    },
    {
      "inputs": [
        {
          "internalType": "address",
          "name": "bridgeToken",
          "type": "address"
        },
        {
          "internalType": "uint256",
          "name": "amount",
          "type": "uint256"
        },
        {
          "internalType": "address",
          "name": "to",
          "type": "address"
        }
      ],
      "name": "swapOut",
      "outputs": [
        {
          "internalType": "uint256",
          "name": "",
          "type": "uint256"
        }
      ],
      "stateMutability": "nonpayable",
      "type": "function"
    },
    {
      "inputs": [],
      "name": "symbol",
      "outputs": [
        {
          "internalType": "string",
          "name": "",
          "type": "string"
        }
      ],
      "stateMutability": "view",
      "type": "function"
    },
    {
      "inputs": [
        {
          "internalType": "address",
          "name": "bridgeToken",
          "type": "address"
        }
      ],
      "name": "toggleBridge",
      "outputs": [],
      "stateMutability": "nonpayable",
      "type": "function"
    },
    {
      "inputs": [
        {
          "internalType": "address",
          "name": "theAddress",
          "type": "address"
        }
      ],
      "name": "toggleFeesForAddress",
      "outputs": [],
      "stateMutability": "nonpayable",
      "type": "function"
    },
    {
      "inputs": [],
      "name": "totalSupply",
      "outputs": [
        {
          "internalType": "uint256",
          "name": "",
          "type": "uint256"
        }
      ],
      "stateMutability": "view",
      "type": "function"
    },
    {
      "inputs": [
        {
          "internalType": "address",
          "name": "to",
          "type": "address"
        },
        {
          "internalType": "uint256",
          "name": "amount",
          "type": "uint256"
        }
      ],
      "name": "transfer",
      "outputs": [
        {
          "internalType": "bool",
          "name": "",
          "type": "bool"
        }
      ],
      "stateMutability": "nonpayable",
      "type": "function"
    },
    {
      "inputs": [
        {
          "internalType": "address",
          "name": "from",
          "type": "address"
        },
        {
          "internalType": "address",
          "name": "to",
          "type": "address"
        },
        {
          "internalType": "uint256",
          "name": "amount",
          "type": "uint256"
        }
      ],
      "name": "transferFrom",
      "outputs": [
        {
          "internalType": "bool",
          "name": "",
          "type": "bool"
        }
      ],
      "stateMutability": "nonpayable",
      "type": "function"
    },
    {
      "inputs": [],
      "name": "treasury",
      "outputs": [
        {
          "internalType": "address",
          "name": "",
          "type": "address"
        }
      ],
      "stateMutability": "view",
      "type": "function"
    },
    {
      "inputs": [
        {
          "internalType": "address",
          "name": "",
          "type": "address"
        },
        {
          "internalType": "uint256",
          "name": "",
          "type": "uint256"
        }
      ],
      "name": "usage",
      "outputs": [
        {
          "internalType": "uint256",
          "name": "",
          "type": "uint256"
        }
      ],
      "stateMutability": "view",
      "type": "function"
    }
  ],
  "transactionHash": "0x8666c37e68a26f2b3ee110baf962cb2f288cc23ca66e295bf4ffb47f96a10a20",
  "args": [],
  "numDeployments": 1,
  "solcInputHash": "871924e0c138825a2736b76def8fef8d",
  "bytecode": "0x60806040523480156200001157600080fd5b50600054610100900460ff1615808015620000335750600054600160ff909116105b8062000063575062000050306200013d60201b6200273a1760201c565b15801562000063575060005460ff166001145b620000cb5760405162461bcd60e51b815260206004820152602e60248201527f496e697469616c697a61626c653a20636f6e747261637420697320616c72656160448201526d191e481a5b9a5d1a585b1a5e995960921b606482015260840160405180910390fd5b6000805460ff191660011790558015620000ef576000805461ff0019166101001790555b801562000136576000805461ff0019169055604051600181527f7f26b83ff96e1f2b6a682f133852f6798a09c465da95921460cefb38474024989060200160405180910390a15b506200014c565b6001600160a01b03163b151590565b6146d0806200015c6000396000f3fe608060405234801561001057600080fd5b50600436106102ff5760003560e01c806361d027b31161019c5780639f48118f116100ee578063ced67f0c11610097578063dd62ed3e11610071578063dd62ed3e14610724578063e3e286551461076a578063f0f442601461077d57600080fd5b8063ced67f0c1461066b578063d44ad63f146106fe578063d505accf1461071157600080fd5b8063aa271e1a116100c8578063aa271e1a14610620578063ba330bd714610643578063cd4839ca1461065657600080fd5b80639f48118f146105ef578063a457c2d7146105fa578063a9059cbb1461060d57600080fd5b80637ecebe001161015057806395d89b411161012a57806395d89b41146105c1578063983b2d56146105c95780639e4e0dae146105dc57600080fd5b80637ecebe00146105705780638933fb791461058357806390218cff146105ae57600080fd5b80637334d020116101815780637334d020146105425780637d4c9c2d146105555780637d74e25f1461056857600080fd5b806361d027b3146104c757806370a082311461050c57600080fd5b80633092afd511610255578063395093511161020957806340c10f19116101e357806340c10f19146104815780634dc32fcc146104945780635bfbec96146104a757600080fd5b8063395093511461043b5780633a55f89d1461044e5780633f4218e01461046157600080fd5b8063350ebe041161023a578063350ebe041461040d5780633644e5151461042057806336db43b51461042857600080fd5b80633092afd5146103eb578063313ce567146103fe57600080fd5b8063151dd755116102b757806323b872dd1161029157806323b872dd146103b25780632b471d8e146103c55780632e403e14146103d857600080fd5b8063151dd7551461038057806318160ddd146103a15780632342fb0e146103a957600080fd5b80630919a951116102e85780630919a95114610337578063095ea7b31461034a5780631171bda91461036d57600080fd5b806306fdde0314610304578063077f224a14610322575b600080fd5b61030c610790565b6040516103199190613e48565b60405180910390f35b610335610330366004613f95565b610822565b005b61033561034536600461400d565b610832565b61035d61035836600461402a565b610995565b6040519015158152602001610319565b61033561037b366004614056565b6109af565b61039361038e366004614097565b610b04565b604051908152602001610319565b603554610393565b61039360d25481565b61035d6103c0366004614056565b610dbe565b6103356103d33660046140ce565b610de2565b6103356103e636600461400d565b610e39565b6103356103f936600461400d565b6111e8565b60405160128152602001610319565b61033561041b3660046140fe565b6112d1565b6103936113da565b61033561043636600461402a565b6113e9565b61035d61044936600461402a565b611579565b61033561045c366004614135565b6115c0565b61039361046f36600461400d565b60d16020526000908152604090205481565b61033561048f36600461402a565b6116c3565b6103936104a236600461400d565b611716565b6103936104b5366004614135565b60d36020526000908152604090205481565b60cd546104e79073ffffffffffffffffffffffffffffffffffffffff1681565b60405173ffffffffffffffffffffffffffffffffffffffff9091168152602001610319565b61039361051a36600461400d565b73ffffffffffffffffffffffffffffffffffffffff1660009081526033602052604090205490565b61033561055036600461402a565b61175e565b610335610563366004614179565b6118f1565b610393611c59565b61039361057e36600461400d565b611c7e565b61039361059136600461402a565b60d060209081526000928352604080842090915290825290205481565b6103356105bc366004614135565b611ca9565b61030c611cb6565b6103356105d736600461400d565b611cc5565b6103356105ea3660046141d6565b611d8d565b610393633b9aca0081565b61035d61060836600461402a565b611f99565b61035d61061b36600461402a565b61206f565b61035d61062e36600461400d565b60cc6020526000908152604090205460ff1681565b6104e7610651366004614135565b61207d565b61065e6120b4565b604051610319919061420b565b6106c561067936600461400d565b60ce6020526000908152604090208054600182015460029092015490919067ffffffffffffffff81169060ff680100000000000000008204811691690100000000000000000090041685565b60408051958652602086019490945267ffffffffffffffff9092169284019290925290151560608301521515608082015260a001610319565b61039361070c366004614097565b612122565b61033561071f366004614265565b6122e7565b6103936107323660046142dc565b73ffffffffffffffffffffffffffffffffffffffff918216600090815260346020908152604080832093909416825291909152205490565b61033561077836600461400d565b6124a6565b61033561078b36600461400d565b61267a565b60606036805461079f9061430a565b80601f01602080910402602001604051908101604052809291908181526020018280546107cb9061430a565b80156108185780601f106107ed57610100808354040283529160200191610818565b820191906000526020600020905b8154815290600101906020018083116107fb57829003601f168201915b5050505050905090565b61082d838383612756565b505050565b60cd546040517f521d4de900000000000000000000000000000000000000000000000000000000815233600482015273ffffffffffffffffffffffffffffffffffffffff9091169063521d4de990602401602060405180830381865afa1580156108a0573d6000803e3d6000fd5b505050506040513d601f19601f820116820180604052508101906108c49190614357565b6108fa576040517f99e120bc00000000000000000000000000000000000000000000000000000000815260040160405180910390fd5b73ffffffffffffffffffffffffffffffffffffffff8116600090815260d1602052604081205461092b9060016143a3565b73ffffffffffffffffffffffffffffffffffffffff8316600081815260d160205260409081902083905551919250907f979ef83e7e7a87cb48064e296dd7e997870d50f43acf8d7ad221313526c8ca0f906109899084815260200190565b60405180910390a25050565b6000336109a3818585612a35565b60019150505b92915050565b60cd546040517fe43581b800000000000000000000000000000000000000000000000000000000815233600482015273ffffffffffffffffffffffffffffffffffffffff9091169063e43581b890602401602060405180830381865afa158015610a1d573d6000803e3d6000fd5b505050506040513d601f19601f82011682018060405250810190610a419190614357565b610a77576040517fee3675d400000000000000000000000000000000000000000000000000000000815260040160405180910390fd5b610a9873ffffffffffffffffffffffffffffffffffffffff84168383612be0565b8173ffffffffffffffffffffffffffffffffffffffff168373ffffffffffffffffffffffffffffffffffffffff167ffff3b3844276f57024e0b42afec1a37f75db36511e43819a4f2a63ab7862b64883604051610af791815260200190565b60405180910390a3505050565b73ffffffffffffffffffffffffffffffffffffffff8316600090815260ce60209081526040808320815160a081018352815481526001820154938101939093526002015467ffffffffffffffff81169183019190915260ff680100000000000000008204811615801560608501526901000000000000000000909204161515608083015280610b94575080608001515b15610bcb576040517fc1ab6dc100000000000000000000000000000000000000000000000000000000815260040160405180910390fd5b6040517f70a0823100000000000000000000000000000000000000000000000000000000815230600482015260009073ffffffffffffffffffffffffffffffffffffffff8716906370a0823190602401602060405180830381865afa158015610c38573d6000803e3d6000fd5b505050506040513d601f19601f82011682018060405250810190610c5c91906143b6565b8251909150610c6b86836143cf565b1115610c93578151811015610c8e578151610c879082906143a3565b9450610c93565b600094505b6000610ca1610e10426143e2565b73ffffffffffffffffffffffffffffffffffffffff8816600090815260d0602090815260408083208484528252909120549085015191925090610ce488836143cf565b1115610d0f5780846020015111610cfc576000610d0c565b808460200151610d0c91906143a3565b96505b610d1987826143cf565b73ffffffffffffffffffffffffffffffffffffffff8916600081815260d060209081526040808320878452909152902091909155610d599033308a612cb4565b33600090815260d16020526040812054889103610da657633b9aca00856040015167ffffffffffffffff1682610d8f919061441d565b610d9991906143e2565b610da390826143a3565b90505b610db08782612d12565b9450505050505b9392505050565b600033610dcc858285612e32565b610dd7858585612f03565b506001949350505050565b33600090815260cc602052604090205460ff16610e2b576040517ff8d2906c00000000000000000000000000000000000000000000000000000000815260040160405180910390fd5b610e3581836131b6565b5050565b60cd546040517fe43581b800000000000000000000000000000000000000000000000000000000815233600482015273ffffffffffffffffffffffffffffffffffffffff9091169063e43581b890602401602060405180830381865afa158015610ea7573d6000803e3d6000fd5b505050506040513d601f19601f82011682018060405250810190610ecb9190614357565b610f01576040517fee3675d400000000000000000000000000000000000000000000000000000000815260040160405180910390fd5b6040517f70a0823100000000000000000000000000000000000000000000000000000000815230600482015273ffffffffffffffffffffffffffffffffffffffff8216906370a0823190602401602060405180830381865afa158015610f6b573d6000803e3d6000fd5b505050506040513d601f19601f82011682018060405250810190610f8f91906143b6565b15610fc6576040517f2ef630ec00000000000000000000000000000000000000000000000000000000815260040160405180910390fd5b73ffffffffffffffffffffffffffffffffffffffff8116600090815260ce602052604081208181556001810182905560020180547fffffffffffffffffffffffffffffffffffffffffffff0000000000000000000016905560cf54905b61102e6001836143a3565b811015611139578273ffffffffffffffffffffffffffffffffffffffff1660cf828154811061105f5761105f614434565b60009182526020909120015473ffffffffffffffffffffffffffffffffffffffff16036111295760cf6110936001846143a3565b815481106110a3576110a3614434565b60009182526020909120015460cf805473ffffffffffffffffffffffffffffffffffffffff90921691839081106110dc576110dc614434565b9060005260206000200160006101000a81548173ffffffffffffffffffffffffffffffffffffffff021916908373ffffffffffffffffffffffffffffffffffffffff160217905550611139565b61113281614463565b9050611023565b5060cf80548061114b5761114b61449b565b60008281526020812082017fffffffffffffffffffffffffffffffffffffffffffffffffffffffffffffffff90810180547fffffffffffffffffffffffff000000000000000000000000000000000000000016905590910190915560405173ffffffffffffffffffffffffffffffffffffffff8416917f5c95b49c4d59d97a2f044167723f29c74b30f99702e3fd406c3830160aa9ccb891a25050565b60cd5473ffffffffffffffffffffffffffffffffffffffff16331480159061122657503373ffffffffffffffffffffffffffffffffffffffff821614155b1561125d576040517fddb5de5e00000000000000000000000000000000000000000000000000000000815260040160405180910390fd5b73ffffffffffffffffffffffffffffffffffffffff8116600081815260cc602052604080822080547fffffffffffffffffffffffffffffffffffffffffffffffffffffffffffffff00169055517f98c15241d6c02bc5ee0b780e11b3ea737a2defd9d04877edbe9f9497065bd02f9190a250565b33600090815260cc602052604090205460ff1661131a576040517ff8d2906c00000000000000000000000000000000000000000000000000000000815260040160405180910390fd5b8073ffffffffffffffffffffffffffffffffffffffff168273ffffffffffffffffffffffffffffffffffffffff16146113d05773ffffffffffffffffffffffffffffffffffffffff828116600090815260346020908152604080832093851683529290522054838110156113ba576040517f715ec26c00000000000000000000000000000000000000000000000000000000815260040160405180910390fd5b6113ce83836113c987856143a3565b612a35565b505b61082d82846131b6565b60006113e46133a3565b905090565b60cd546040517f521d4de900000000000000000000000000000000000000000000000000000000815233600482015273ffffffffffffffffffffffffffffffffffffffff9091169063521d4de990602401602060405180830381865afa158015611457573d6000803e3d6000fd5b505050506040513d601f19601f8201168201806040525081019061147b9190614357565b6114b1576040517f99e120bc00000000000000000000000000000000000000000000000000000000815260040160405180910390fd5b73ffffffffffffffffffffffffffffffffffffffff8216600090815260ce602052604090206002015468010000000000000000900460ff1661151f576040517fc1ab6dc100000000000000000000000000000000000000000000000000000000815260040160405180910390fd5b73ffffffffffffffffffffffffffffffffffffffff8216600081815260ce602052604090819020839055517fe7b113fba37131b6396680a0c55790a697ec975e198ff8cfd89dac90a6379e61906109899084815260200190565b33600081815260346020908152604080832073ffffffffffffffffffffffffffffffffffffffff871684529091528120549091906109a390829086906113c99087906143cf565b60cd546040517f521d4de900000000000000000000000000000000000000000000000000000000815233600482015273ffffffffffffffffffffffffffffffffffffffff9091169063521d4de990602401602060405180830381865afa15801561162e573d6000803e3d6000fd5b505050506040513d601f19601f820116820180604052508101906116529190614357565b611688576040517f99e120bc00000000000000000000000000000000000000000000000000000000815260040160405180910390fd5b60d28190556040518181527fc3b69829afe2345596a02c8b587d41f796ba0094481d899e1b2e07b7532a1e219060200160405180910390a150565b33600090815260cc602052604090205460ff1661170c576040517ff8d2906c00000000000000000000000000000000000000000000000000000000815260040160405180910390fd5b610e358282612d12565b73ffffffffffffffffffffffffffffffffffffffff8116600090815260d06020526040812081611748610e10426143e2565b8152602001908152602001600020549050919050565b60cd546040517f521d4de900000000000000000000000000000000000000000000000000000000815233600482015273ffffffffffffffffffffffffffffffffffffffff9091169063521d4de990602401602060405180830381865afa1580156117cc573d6000803e3d6000fd5b505050506040513d601f19601f820116820180604052508101906117f09190614357565b611826576040517f99e120bc00000000000000000000000000000000000000000000000000000000815260040160405180910390fd5b73ffffffffffffffffffffffffffffffffffffffff8216600090815260ce602052604090206002015468010000000000000000900460ff16611894576040517fc1ab6dc100000000000000000000000000000000000000000000000000000000815260040160405180910390fd5b73ffffffffffffffffffffffffffffffffffffffff8216600081815260ce602052604090819020600101839055517fe13ac9338b2ee623233f83c1b3ceab16490fa3e3737fac7f0970d0830a9f4871906109899084815260200190565b60cd546040517fe43581b800000000000000000000000000000000000000000000000000000000815233600482015273ffffffffffffffffffffffffffffffffffffffff9091169063e43581b890602401602060405180830381865afa15801561195f573d6000803e3d6000fd5b505050506040513d601f19601f820116820180604052508101906119839190614357565b6119b9576040517fee3675d400000000000000000000000000000000000000000000000000000000815260040160405180910390fd5b73ffffffffffffffffffffffffffffffffffffffff8516600090815260ce602052604090206002015468010000000000000000900460ff1680611a10575073ffffffffffffffffffffffffffffffffffffffff8516155b15611a47576040517fc1ab6dc100000000000000000000000000000000000000000000000000000000815260040160405180910390fd5b633b9aca008267ffffffffffffffff161115611a8f576040517feca1d2c600000000000000000000000000000000000000000000000000000000815260040160405180910390fd5b6040805160a08101825260008082526020820181905291810182905260608101829052608081019190915284815260208082018581528315156080840190815267ffffffffffffffff808716604080870191825260016060880181815273ffffffffffffffffffffffffffffffffffffffff8e16600081815260ce9099528389208a5181559751888401559351600290970180549151965115156901000000000000000000027fffffffffffffffffffffffffffffffffffffffffffff00ffffffffffffffffff97151568010000000000000000027fffffffffffffffffffffffffffffffffffffffffffffff000000000000000000909316989096169790971717949094169290921790935560cf805492830181559093527facb8d954e2cfef495862221e91bd7523613cf8808827cb33edfe4904cc51bf290180547fffffffffffffffffffffffff0000000000000000000000000000000000000000168217905590517f53087ff85d80a7671594bd2e86b92af22e0b3c2c441c8033bba7399b7b5cbe2390611c49908890889088908890938452602084019290925267ffffffffffffffff1660408301521515606082015260800190565b60405180910390a2505050505050565b600060d381611c6a610e10426143e2565b815260200190815260200160002054905090565b73ffffffffffffffffffffffffffffffffffffffff81166000908152609960205260408120546109a9565b611cb333826131b6565b50565b60606037805461079f9061430a565b60cd5473ffffffffffffffffffffffffffffffffffffffff163314611d16576040517fb90cdbb100000000000000000000000000000000000000000000000000000000815260040160405180910390fd5b73ffffffffffffffffffffffffffffffffffffffff8116600081815260cc602052604080822080547fffffffffffffffffffffffffffffffffffffffffffffffffffffffffffffff00166001179055517f98c15241d6c02bc5ee0b780e11b3ea737a2defd9d04877edbe9f9497065bd02f9190a250565b60cd546040517f521d4de900000000000000000000000000000000000000000000000000000000815233600482015273ffffffffffffffffffffffffffffffffffffffff9091169063521d4de990602401602060405180830381865afa158015611dfb573d6000803e3d6000fd5b505050506040513d601f19601f82011682018060405250810190611e1f9190614357565b611e55576040517f99e120bc00000000000000000000000000000000000000000000000000000000815260040160405180910390fd5b73ffffffffffffffffffffffffffffffffffffffff8216600090815260ce602052604090206002015468010000000000000000900460ff16611ec3576040517fc1ab6dc100000000000000000000000000000000000000000000000000000000815260040160405180910390fd5b633b9aca008167ffffffffffffffff161115611f0b576040517feca1d2c600000000000000000000000000000000000000000000000000000000815260040160405180910390fd5b73ffffffffffffffffffffffffffffffffffffffff8216600081815260ce602090815260409182902060020180547fffffffffffffffffffffffffffffffffffffffffffffffff00000000000000001667ffffffffffffffff861690811790915591519182527f901f9de19b475adc8da4110434b8df940dce085afd05e2281c86807f3a899d299101610989565b33600081815260346020908152604080832073ffffffffffffffffffffffffffffffffffffffff8716845290915281205490919083811015612062576040517f08c379a000000000000000000000000000000000000000000000000000000000815260206004820152602560248201527f45524332303a2064656372656173656420616c6c6f77616e63652062656c6f7760448201527f207a65726f00000000000000000000000000000000000000000000000000000060648201526084015b60405180910390fd5b610dd78286868403612a35565b6000336109a3818585612f03565b60cf818154811061208d57600080fd5b60009182526020909120015473ffffffffffffffffffffffffffffffffffffffff16905081565b606060cf80548060200260200160405190810160405280929190818152602001828054801561081857602002820191906000526020600020905b815473ffffffffffffffffffffffffffffffffffffffff1681526001909101906020018083116120ee575050505050905090565b73ffffffffffffffffffffffffffffffffffffffff8316600090815260ce60209081526040808320815160a081018352815481526001820154938101939093526002015467ffffffffffffffff81169183019190915260ff6801000000000000000082048116158015606085015269010000000000000000009092041615156080830152806121b2575080608001515b156121e9576040517fc1ab6dc100000000000000000000000000000000000000000000000000000000815260040160405180910390fd5b60006121f7610e10426143e2565b600081815260d36020526040812054919250906122159087906143cf565b905060d254811115612253576040517f6d43d1ac00000000000000000000000000000000000000000000000000000000815260040160405180910390fd5b600082815260d36020526040902081905561226e33876131b6565b33600090815260d160205260408120548791036122bb57633b9aca00846040015167ffffffffffffffff16826122a4919061441d565b6122ae91906143e2565b6122b890826143a3565b90505b6122dc73ffffffffffffffffffffffffffffffffffffffff89168783612be0565b979650505050505050565b83421115612351576040517f08c379a000000000000000000000000000000000000000000000000000000000815260206004820152601d60248201527f45524332305065726d69743a206578706972656420646561646c696e650000006044820152606401612059565b60007f6e71edae12b1b97f4d1f60370fef10105fa2faae0126114a169c64845d6126c98888886123808c61341e565b60408051602081019690965273ffffffffffffffffffffffffffffffffffffffff94851690860152929091166060840152608083015260a082015260c0810186905260e00160405160208183030381529060405280519060200120905060006123e882613453565b905060006123f8828787876134bc565b90508973ffffffffffffffffffffffffffffffffffffffff168173ffffffffffffffffffffffffffffffffffffffff161461248f576040517f08c379a000000000000000000000000000000000000000000000000000000000815260206004820152601e60248201527f45524332305065726d69743a20696e76616c6964207369676e617475726500006044820152606401612059565b61249a8a8a8a612a35565b50505050505050505050565b60cd546040517f521d4de900000000000000000000000000000000000000000000000000000000815233600482015273ffffffffffffffffffffffffffffffffffffffff9091169063521d4de990602401602060405180830381865afa158015612514573d6000803e3d6000fd5b505050506040513d601f19601f820116820180604052508101906125389190614357565b61256e576040517f99e120bc00000000000000000000000000000000000000000000000000000000815260040160405180910390fd5b73ffffffffffffffffffffffffffffffffffffffff8116600090815260ce602052604090206002015468010000000000000000900460ff166125dc576040517fc1ab6dc100000000000000000000000000000000000000000000000000000000815260040160405180910390fd5b73ffffffffffffffffffffffffffffffffffffffff8116600081815260ce602090815260409182902060020180547fffffffffffffffffffffffffffffffffffffffffffff00ffffffffffffffffff811669010000000000000000009182900460ff16801592830291909117909255925192835292917ff7c93079dcbf699749d66345a351afab7d24219bb1d915c9f4fc4cf03f00d3979101610989565b60cd5473ffffffffffffffffffffffffffffffffffffffff1633146126cb576040517fb90cdbb100000000000000000000000000000000000000000000000000000000815260040160405180910390fd5b60cd80547fffffffffffffffffffffffff00000000000000000000000000000000000000001673ffffffffffffffffffffffffffffffffffffffff83169081179091556040517f7dae230f18360d76a040c81f050aa14eb9d6dc7901b20fc5d855e2a20fe814d190600090a250565b73ffffffffffffffffffffffffffffffffffffffff163b151590565b600054610100900460ff16158080156127765750600054600160ff909116105b806127905750303b158015612790575060005460ff166001145b61281c576040517f08c379a000000000000000000000000000000000000000000000000000000000815260206004820152602e60248201527f496e697469616c697a61626c653a20636f6e747261637420697320616c72656160448201527f647920696e697469616c697a65640000000000000000000000000000000000006064820152608401612059565b600080547fffffffffffffffffffffffffffffffffffffffffffffffffffffffffffffff00166001179055801561287a57600080547fffffffffffffffffffffffffffffffffffffffffffffffffffffffffffff00ff166101001790555b3073ffffffffffffffffffffffffffffffffffffffff168273ffffffffffffffffffffffffffffffffffffffff1663e9cbd8226040518163ffffffff1660e01b8152600401602060405180830381865afa1580156128dc573d6000803e3d6000fd5b505050506040513d601f19601f8201168201806040525081019061290091906144ca565b73ffffffffffffffffffffffffffffffffffffffff161461294d576040517f14bcf5c800000000000000000000000000000000000000000000000000000000815260040160405180910390fd5b612956846134e4565b61296084846135ba565b60cd80547fffffffffffffffffffffffff00000000000000000000000000000000000000001673ffffffffffffffffffffffffffffffffffffffff84169081179091556040517f7dae230f18360d76a040c81f050aa14eb9d6dc7901b20fc5d855e2a20fe814d190600090a28015612a2f57600080547fffffffffffffffffffffffffffffffffffffffffffffffffffffffffffff00ff169055604051600181527f7f26b83ff96e1f2b6a682f133852f6798a09c465da95921460cefb38474024989060200160405180910390a15b50505050565b73ffffffffffffffffffffffffffffffffffffffff8316612ad7576040517f08c379a0000000000000000000000000000000000000000000000000000000008152602060048201526024808201527f45524332303a20617070726f76652066726f6d20746865207a65726f2061646460448201527f72657373000000000000000000000000000000000000000000000000000000006064820152608401612059565b73ffffffffffffffffffffffffffffffffffffffff8216612b7a576040517f08c379a000000000000000000000000000000000000000000000000000000000815260206004820152602260248201527f45524332303a20617070726f766520746f20746865207a65726f20616464726560448201527f73730000000000000000000000000000000000000000000000000000000000006064820152608401612059565b73ffffffffffffffffffffffffffffffffffffffff83811660008181526034602090815260408083209487168084529482529182902085905590518481527f8c5be1e5ebec7d5bd14f71427d1e84f3dd0314c0f7b2291e5b200ac8c7c3b9259101610af7565b60405173ffffffffffffffffffffffffffffffffffffffff831660248201526044810182905261082d9084907fa9059cbb00000000000000000000000000000000000000000000000000000000906064015b604080517fffffffffffffffffffffffffffffffffffffffffffffffffffffffffffffffe08184030181529190526020810180517bffffffffffffffffffffffffffffffffffffffffffffffffffffffff167fffffffff000000000000000000000000000000000000000000000000000000009093169290921790915261365b565b60405173ffffffffffffffffffffffffffffffffffffffff80851660248301528316604482015260648101829052612a2f9085907f23b872dd0000000000000000000000000000000000000000000000000000000090608401612c32565b73ffffffffffffffffffffffffffffffffffffffff8216612d8f576040517f08c379a000000000000000000000000000000000000000000000000000000000815260206004820152601f60248201527f45524332303a206d696e7420746f20746865207a65726f2061646472657373006044820152606401612059565b8060356000828254612da191906143cf565b909155505073ffffffffffffffffffffffffffffffffffffffff821660009081526033602052604081208054839290612ddb9084906143cf565b909155505060405181815273ffffffffffffffffffffffffffffffffffffffff8316906000907fddf252ad1be2c89b69c2b068fc378daa952ba7f163c4a11628f55a4df523b3ef9060200160405180910390a35050565b73ffffffffffffffffffffffffffffffffffffffff8381166000908152603460209081526040808320938616835292905220547fffffffffffffffffffffffffffffffffffffffffffffffffffffffffffffffff8114612a2f5781811015612ef6576040517f08c379a000000000000000000000000000000000000000000000000000000000815260206004820152601d60248201527f45524332303a20696e73756666696369656e7420616c6c6f77616e63650000006044820152606401612059565b612a2f8484848403612a35565b73ffffffffffffffffffffffffffffffffffffffff8316612fa6576040517f08c379a000000000000000000000000000000000000000000000000000000000815260206004820152602560248201527f45524332303a207472616e736665722066726f6d20746865207a65726f20616460448201527f64726573730000000000000000000000000000000000000000000000000000006064820152608401612059565b73ffffffffffffffffffffffffffffffffffffffff8216613049576040517f08c379a000000000000000000000000000000000000000000000000000000000815260206004820152602360248201527f45524332303a207472616e7366657220746f20746865207a65726f206164647260448201527f65737300000000000000000000000000000000000000000000000000000000006064820152608401612059565b73ffffffffffffffffffffffffffffffffffffffff8316600090815260336020526040902054818110156130ff576040517f08c379a000000000000000000000000000000000000000000000000000000000815260206004820152602660248201527f45524332303a207472616e7366657220616d6f756e742065786365656473206260448201527f616c616e636500000000000000000000000000000000000000000000000000006064820152608401612059565b73ffffffffffffffffffffffffffffffffffffffff8085166000908152603360205260408082208585039055918516815290812080548492906131439084906143cf565b925050819055508273ffffffffffffffffffffffffffffffffffffffff168473ffffffffffffffffffffffffffffffffffffffff167fddf252ad1be2c89b69c2b068fc378daa952ba7f163c4a11628f55a4df523b3ef846040516131a991815260200190565b60405180910390a3612a2f565b73ffffffffffffffffffffffffffffffffffffffff8216613259576040517f08c379a000000000000000000000000000000000000000000000000000000000815260206004820152602160248201527f45524332303a206275726e2066726f6d20746865207a65726f2061646472657360448201527f73000000000000000000000000000000000000000000000000000000000000006064820152608401612059565b73ffffffffffffffffffffffffffffffffffffffff82166000908152603360205260409020548181101561330f576040517f08c379a000000000000000000000000000000000000000000000000000000000815260206004820152602260248201527f45524332303a206275726e20616d6f756e7420657863656564732062616c616e60448201527f63650000000000000000000000000000000000000000000000000000000000006064820152608401612059565b73ffffffffffffffffffffffffffffffffffffffff8316600090815260336020526040812083830390556035805484929061334b9084906143a3565b909155505060405182815260009073ffffffffffffffffffffffffffffffffffffffff8516907fddf252ad1be2c89b69c2b068fc378daa952ba7f163c4a11628f55a4df523b3ef9060200160405180910390a3505050565b60006113e47f8b73c3c69bb8fe3d512ecc4cf759cc79239f7b179b0ffacaa9a75d522b39400f6133d260655490565b6066546040805160208101859052908101839052606081018290524660808201523060a082015260009060c0016040516020818303038152906040528051906020012090509392505050565b73ffffffffffffffffffffffffffffffffffffffff811660009081526099602052604090208054600181018255905b50919050565b60006109a96134606133a3565b836040517f19010000000000000000000000000000000000000000000000000000000000006020820152602281018390526042810182905260009060620160405160208183030381529060405280519060200120905092915050565b60008060006134cd87878787613767565b915091506134da8161387f565b5095945050505050565b600054610100900460ff1661357b576040517f08c379a000000000000000000000000000000000000000000000000000000000815260206004820152602b60248201527f496e697469616c697a61626c653a20636f6e7472616374206973206e6f74206960448201527f6e697469616c697a696e670000000000000000000000000000000000000000006064820152608401612059565b611cb3816040518060400160405280600181526020017f3100000000000000000000000000000000000000000000000000000000000000815250613ad3565b600054610100900460ff16613651576040517f08c379a000000000000000000000000000000000000000000000000000000000815260206004820152602b60248201527f496e697469616c697a61626c653a20636f6e7472616374206973206e6f74206960448201527f6e697469616c697a696e670000000000000000000000000000000000000000006064820152608401612059565b610e358282613b84565b60006136bd826040518060400160405280602081526020017f5361666545524332303a206c6f772d6c6576656c2063616c6c206661696c65648152508573ffffffffffffffffffffffffffffffffffffffff16613c349092919063ffffffff16565b80519091501561082d57808060200190518101906136db9190614357565b61082d576040517f08c379a000000000000000000000000000000000000000000000000000000000815260206004820152602a60248201527f5361666545524332303a204552433230206f7065726174696f6e20646964206e60448201527f6f742073756363656564000000000000000000000000000000000000000000006064820152608401612059565b6000807f7fffffffffffffffffffffffffffffff5d576e7357a4501ddfe92f46681b20a083111561379e5750600090506003613876565b8460ff16601b141580156137b657508460ff16601c14155b156137c75750600090506004613876565b6040805160008082526020820180845289905260ff881692820192909252606081018690526080810185905260019060a0016020604051602081039080840390855afa15801561381b573d6000803e3d6000fd5b50506040517fffffffffffffffffffffffffffffffffffffffffffffffffffffffffffffffe0015191505073ffffffffffffffffffffffffffffffffffffffff811661386f57600060019250925050613876565b9150600090505b94509492505050565b6000816004811115613893576138936144e7565b0361389b5750565b60018160048111156138af576138af6144e7565b03613916576040517f08c379a000000000000000000000000000000000000000000000000000000000815260206004820152601860248201527f45434453413a20696e76616c6964207369676e617475726500000000000000006044820152606401612059565b600281600481111561392a5761392a6144e7565b03613991576040517f08c379a000000000000000000000000000000000000000000000000000000000815260206004820152601f60248201527f45434453413a20696e76616c6964207369676e6174757265206c656e677468006044820152606401612059565b60038160048111156139a5576139a56144e7565b03613a32576040517f08c379a000000000000000000000000000000000000000000000000000000000815260206004820152602260248201527f45434453413a20696e76616c6964207369676e6174757265202773272076616c60448201527f75650000000000000000000000000000000000000000000000000000000000006064820152608401612059565b6004816004811115613a4657613a466144e7565b03611cb3576040517f08c379a000000000000000000000000000000000000000000000000000000000815260206004820152602260248201527f45434453413a20696e76616c6964207369676e6174757265202776272076616c60448201527f75650000000000000000000000000000000000000000000000000000000000006064820152608401612059565b600054610100900460ff16613b6a576040517f08c379a000000000000000000000000000000000000000000000000000000000815260206004820152602b60248201527f496e697469616c697a61626c653a20636f6e7472616374206973206e6f74206960448201527f6e697469616c697a696e670000000000000000000000000000000000000000006064820152608401612059565b815160209283012081519190920120606591909155606655565b600054610100900460ff16613c1b576040517f08c379a000000000000000000000000000000000000000000000000000000000815260206004820152602b60248201527f496e697469616c697a61626c653a20636f6e7472616374206973206e6f74206960448201527f6e697469616c697a696e670000000000000000000000000000000000000000006064820152608401612059565b6036613c278382614564565b50603761082d8282614564565b6060613c438484600085613c4b565b949350505050565b606082471015613cdd576040517f08c379a000000000000000000000000000000000000000000000000000000000815260206004820152602660248201527f416464726573733a20696e73756666696369656e742062616c616e636520666f60448201527f722063616c6c00000000000000000000000000000000000000000000000000006064820152608401612059565b73ffffffffffffffffffffffffffffffffffffffff85163b613d5b576040517f08c379a000000000000000000000000000000000000000000000000000000000815260206004820152601d60248201527f416464726573733a2063616c6c20746f206e6f6e2d636f6e74726163740000006044820152606401612059565b6000808673ffffffffffffffffffffffffffffffffffffffff168587604051613d84919061467e565b60006040518083038185875af1925050503d8060008114613dc1576040519150601f19603f3d011682016040523d82523d6000602084013e613dc6565b606091505b50915091506122dc82828660608315613de0575081610db7565b825115613df05782518084602001fd5b816040517f08c379a00000000000000000000000000000000000000000000000000000000081526004016120599190613e48565b60005b83811015613e3f578181015183820152602001613e27565b50506000910152565b6020815260008251806020840152613e67816040850160208701613e24565b601f017fffffffffffffffffffffffffffffffffffffffffffffffffffffffffffffffe0169190910160400192915050565b7f4e487b7100000000000000000000000000000000000000000000000000000000600052604160045260246000fd5b600082601f830112613ed957600080fd5b813567ffffffffffffffff80821115613ef457613ef4613e99565b604051601f83017fffffffffffffffffffffffffffffffffffffffffffffffffffffffffffffffe0908116603f01168101908282118183101715613f3a57613f3a613e99565b81604052838152866020858801011115613f5357600080fd5b836020870160208301376000602085830101528094505050505092915050565b73ffffffffffffffffffffffffffffffffffffffff81168114611cb357600080fd5b600080600060608486031215613faa57600080fd5b833567ffffffffffffffff80821115613fc257600080fd5b613fce87838801613ec8565b94506020860135915080821115613fe457600080fd5b50613ff186828701613ec8565b925050604084013561400281613f73565b809150509250925092565b60006020828403121561401f57600080fd5b8135610db781613f73565b6000806040838503121561403d57600080fd5b823561404881613f73565b946020939093013593505050565b60008060006060848603121561406b57600080fd5b833561407681613f73565b9250602084013561408681613f73565b929592945050506040919091013590565b6000806000606084860312156140ac57600080fd5b83356140b781613f73565b925060208401359150604084013561400281613f73565b600080604083850312156140e157600080fd5b8235915060208301356140f381613f73565b809150509250929050565b60008060006060848603121561411357600080fd5b83359250602084013561412581613f73565b9150604084013561400281613f73565b60006020828403121561414757600080fd5b5035919050565b803567ffffffffffffffff8116811461416657600080fd5b919050565b8015158114611cb357600080fd5b600080600080600060a0868803121561419157600080fd5b853561419c81613f73565b945060208601359350604086013592506141b86060870161414e565b915060808601356141c88161416b565b809150509295509295909350565b600080604083850312156141e957600080fd5b82356141f481613f73565b91506142026020840161414e565b90509250929050565b6020808252825182820181905260009190848201906040850190845b8181101561425957835173ffffffffffffffffffffffffffffffffffffffff1683529284019291840191600101614227565b50909695505050505050565b600080600080600080600060e0888a03121561428057600080fd5b873561428b81613f73565b9650602088013561429b81613f73565b95506040880135945060608801359350608088013560ff811681146142bf57600080fd5b9699959850939692959460a0840135945060c09093013592915050565b600080604083850312156142ef57600080fd5b82356142fa81613f73565b915060208301356140f381613f73565b600181811c9082168061431e57607f821691505b60208210810361344d577f4e487b7100000000000000000000000000000000000000000000000000000000600052602260045260246000fd5b60006020828403121561436957600080fd5b8151610db78161416b565b7f4e487b7100000000000000000000000000000000000000000000000000000000600052601160045260246000fd5b818103818111156109a9576109a9614374565b6000602082840312156143c857600080fd5b5051919050565b808201808211156109a9576109a9614374565b600082614418577f4e487b7100000000000000000000000000000000000000000000000000000000600052601260045260246000fd5b500490565b80820281158282048414176109a9576109a9614374565b7f4e487b7100000000000000000000000000000000000000000000000000000000600052603260045260246000fd5b60007fffffffffffffffffffffffffffffffffffffffffffffffffffffffffffffffff820361449457614494614374565b5060010190565b7f4e487b7100000000000000000000000000000000000000000000000000000000600052603160045260246000fd5b6000602082840312156144dc57600080fd5b8151610db781613f73565b7f4e487b7100000000000000000000000000000000000000000000000000000000600052602160045260246000fd5b601f82111561082d57600081815260208120601f850160051c8101602086101561453d5750805b601f850160051c820191505b8181101561455c57828155600101614549565b505050505050565b815167ffffffffffffffff81111561457e5761457e613e99565b6145928161458c845461430a565b84614516565b602080601f8311600181146145e557600084156145af5750858301515b7fffffffffffffffffffffffffffffffffffffffffffffffffffffffffffffffff600386901b1c1916600185901b17855561455c565b6000858152602081207fffffffffffffffffffffffffffffffffffffffffffffffffffffffffffffffe08616915b8281101561463257888601518255948401946001909101908401614613565b508582101561466e57878501517fffffffffffffffffffffffffffffffffffffffffffffffffffffffffffffffff600388901b60f8161c191681555b5050505050600190811b01905550565b60008251614690818460208701613e24565b919091019291505056fea2646970667358221220f2eb02bac1667a72be85ab617a5b5aa3d8f7a9b09b4d1fde9756b7a5636daf2164736f6c63430008110033",
  "devdoc": {
    "author": "Angle Labs, Inc.",
    "details": "This contract supports bridge tokens having a minting right on the stablecoin (also referred to as the canonical or the native token)",
    "kind": "dev",
    "methods": {
      "DOMAIN_SEPARATOR()": {
        "details": "See {IERC20Permit-DOMAIN_SEPARATOR}."
      },
      "addBridgeToken(address,uint256,uint256,uint64,bool)": {
        "params": {
          "bridgeToken": "Bridge token to add: it should be a version of the stablecoin from another bridge",
          "fee": "Fee taken upon swapping for or against this token",
          "hourlyLimit": "Limit on the hourly volume for this bridge",
          "limit": "Limit on the balance of bridge token this contract could hold",
          "paused": "Whether swapping for this token should be paused or not"
        }
      },
      "addMinter(address)": {
        "details": "Zero address checks are performed directly in the `Treasury` contract",
        "params": {
          "minter": "Minter address to add"
        }
      },
      "allBridgeTokens()": {
        "details": "Helpful for UIs"
      },
      "allowance(address,address)": {
        "details": "See {IERC20-allowance}."
      },
      "approve(address,uint256)": {
        "details": "See {IERC20-approve}. NOTE: If `amount` is the maximum `uint256`, the allowance is not updated on `transferFrom`. This is semantically equivalent to an infinite approval. Requirements: - `spender` cannot be the zero address."
      },
      "balanceOf(address)": {
        "details": "See {IERC20-balanceOf}."
      },
      "burnFrom(uint256,address,address)": {
        "details": "This method is to be called by a contract with the minter right after being requested to do so by a `sender` address willing to burn tokens from another `burner` addressThe method checks the allowance between the `sender` and the `burner`",
        "params": {
          "amount": "Amount of tokens to burn",
          "burner": "Address to burn from",
          "sender": "Address which requested the burn from `burner`"
        }
      },
      "burnSelf(uint256,address)": {
        "details": "This method is to be called by a contract with a minter right on the AgToken after being requested to do so by an address willing to burn tokens from its address",
        "params": {
          "amount": "Amount of tokens to burn",
          "burner": "Address to burn from"
        }
      },
      "burnStablecoin(uint256)": {
        "details": "This function can typically be called if there is a settlement mechanism to burn stablecoins",
        "params": {
          "amount": "Amount of stablecoins to burn"
        }
      },
      "currentTotalUsage()": {
        "details": "Helpful for UIs"
      },
      "currentUsage(address)": {
        "details": "Helpful for UIs",
        "params": {
          "bridgeToken": "Bridge used to mint"
        }
      },
      "decimals()": {
        "details": "Returns the number of decimals used to get its user representation. For example, if `decimals` equals `2`, a balance of `505` tokens should be displayed to a user as `5.05` (`505 / 10 ** 2`). Tokens usually opt for a value of 18, imitating the relationship between Ether and Wei. This is the value {ERC20} uses, unless this function is overridden; NOTE: This information is only used for _display_ purposes: it in no way affects any of the arithmetic of the contract, including {IERC20-balanceOf} and {IERC20-transfer}."
      },
      "decreaseAllowance(address,uint256)": {
        "details": "Atomically decreases the allowance granted to `spender` by the caller. This is an alternative to {approve} that can be used as a mitigation for problems described in {IERC20-approve}. Emits an {Approval} event indicating the updated allowance. Requirements: - `spender` cannot be the zero address. - `spender` must have allowance for the caller of at least `subtractedValue`."
      },
      "increaseAllowance(address,uint256)": {
        "details": "Atomically increases the allowance granted to `spender` by the caller. This is an alternative to {approve} that can be used as a mitigation for problems described in {IERC20-approve}. Emits an {Approval} event indicating the updated allowance. Requirements: - `spender` cannot be the zero address."
      },
      "mint(address,uint256)": {
        "details": "The contracts allowed to issue agTokens are the `StableMaster` contract, `VaultManager` contracts associated to this stablecoin as well as the flash loan module (if activated) and potentially contracts whitelisted by governance",
        "params": {
          "account": "Address to mint to",
          "amount": "Amount to mint"
        }
      },
      "name()": {
        "details": "Returns the name of the token."
      },
      "nonces(address)": {
        "details": "See {IERC20Permit-nonces}."
      },
      "permit(address,address,uint256,uint256,uint8,bytes32,bytes32)": {
        "details": "See {IERC20Permit-permit}."
      },
      "recoverERC20(address,address,uint256)": {
        "details": "Can be used to withdraw bridge tokens for them to be de-bridged on mainnet"
      },
      "removeBridgeToken(address)": {
        "params": {
          "bridgeToken": "Address of the bridge token to remove support for"
        }
      },
      "removeMinter(address)": {
        "details": "This function can also be called by a minter wishing to revoke itself",
        "params": {
          "minter": "Minter address to remove"
        }
      },
      "setTreasury(address)": {
        "params": {
          "_treasury": "New treasury address"
        }
      },
      "swapIn(address,uint256,address)": {
        "details": "Some fees may be taken by the protocol depending on the token used and on the address calling",
        "params": {
          "amount": "Amount of bridge tokens to send",
          "bridgeToken": "Bridge token to use to mint",
          "to": "Address to which the stablecoin should be sent"
        },
        "returns": {
          "_0": "Amount of the canonical stablecoin actually minted"
        }
      },
      "swapOut(address,uint256,address)": {
        "details": "Some fees may be taken by the protocol depending on the token used and on the address calling",
        "params": {
          "amount": "Amount of canonical tokens to burn",
          "bridgeToken": "Bridge token required",
          "to": "Address to which the bridge token should be sent"
        },
        "returns": {
          "_0": "Amount of bridge tokens actually sent back"
        }
      },
      "symbol()": {
        "details": "Returns the symbol of the token, usually a shorter version of the name."
      },
      "totalSupply()": {
        "details": "See {IERC20-totalSupply}."
      },
      "transfer(address,uint256)": {
        "details": "See {IERC20-transfer}. Requirements: - `to` cannot be the zero address. - the caller must have a balance of at least `amount`."
      },
      "transferFrom(address,address,uint256)": {
        "details": "See {IERC20-transferFrom}. Emits an {Approval} event indicating the updated allowance. This is not required by the EIP. See the note at the beginning of {ERC20}. NOTE: Does not update the allowance if the current allowance is the maximum `uint256`. Requirements: - `from` and `to` cannot be the zero address. - `from` must have a balance of at least `amount`. - the caller must have allowance for ``from``'s tokens of at least `amount`."
      }
    },
    "title": "AgTokenSideChainMultiBridge",
    "version": 1
  },
  "userdoc": {
    "kind": "user",
    "methods": {
      "BASE_PARAMS()": {
        "notice": "Base used for fee computation"
      },
      "addBridgeToken(address,uint256,uint256,uint64,bool)": {
        "notice": "Adds support for a bridge token"
      },
      "addMinter(address)": {
        "notice": "Adds a minter in the contract"
      },
      "allBridgeTokens()": {
        "notice": "Returns the list of all supported bridge tokens"
      },
      "bridgeTokensList(uint256)": {
        "notice": "List of all bridge tokens"
      },
      "bridges(address)": {
        "notice": "Maps a bridge token to data"
      },
      "burnFrom(uint256,address,address)": {
        "notice": "Burns `amount` tokens from a `burner` address after being asked to by `sender`"
      },
      "burnSelf(uint256,address)": {
        "notice": "Burns `amount` tokens from a `burner` address"
      },
      "burnStablecoin(uint256)": {
        "notice": "Allows anyone to burn stablecoins"
      },
      "chainTotalHourlyLimit()": {
        "notice": "Limit to the amount of tokens that can be sent from that chain to another chain"
      },
      "chainTotalUsage(uint256)": {
        "notice": "Usage per hour on that chain. Maps an hourly timestamp to the total volume swapped out on the chain"
      },
      "currentTotalUsage()": {
        "notice": "Returns the current total volume on the chain for the current hour"
      },
      "currentUsage(address)": {
        "notice": "Returns the current volume for a bridge, for the current hour"
      },
      "initialize(string,string,address)": {
        "notice": "Initializes the `AgToken` contract"
      },
      "isFeeExempt(address)": {
        "notice": "Maps an address to whether it is exempt of fees for when it comes to swapping in and out"
      },
      "isMinter(address)": {
        "notice": "Checks whether an address has the right to mint agTokens"
      },
      "mint(address,uint256)": {
        "notice": "Lets the `StableMaster` contract or another whitelisted contract mint agTokens"
      },
      "recoverERC20(address,address,uint256)": {
        "notice": "Recovers any ERC20 token"
      },
      "removeBridgeToken(address)": {
        "notice": "Removes support for a token"
      },
      "removeMinter(address)": {
        "notice": "Removes a minter from the contract"
      },
      "setChainTotalHourlyLimit(uint256)": {
        "notice": "Updates the `chainTotalHourlyLimit` amount"
      },
      "setHourlyLimit(address,uint256)": {
        "notice": "Updates the `hourlyLimit` amount for `bridgeToken`"
      },
      "setLimit(address,uint256)": {
        "notice": "Updates the `limit` amount for `bridgeToken`"
      },
      "setSwapFee(address,uint64)": {
        "notice": "Updates the `fee` value for `bridgeToken`"
      },
      "setTreasury(address)": {
        "notice": "Sets a new treasury contract"
      },
      "swapIn(address,uint256,address)": {
        "notice": "Mints the canonical token from a supported bridge token"
      },
      "swapOut(address,uint256,address)": {
        "notice": "Burns the canonical token in exchange for a bridge token"
      },
      "toggleBridge(address)": {
        "notice": "Pauses or unpauses swapping in and out for a token"
      },
      "toggleFeesForAddress(address)": {
        "notice": "Toggles fees for the address `theAddress`"
      },
      "treasury()": {
        "notice": "Reference to the treasury contract which can grant minting rights"
      },
      "usage(address,uint256)": {
        "notice": "Maps a bridge token to the associated hourly volume"
      }
    },
    "notice": "Contract for Angle agTokens on other chains than Ethereum mainnet",
    "version": 1
  },
  "storageLayout": {
    "storage": [
      {
        "astId": 770,
        "contract": "contracts/agToken/AgTokenSideChainMultiBridge.sol:AgTokenSideChainMultiBridge",
        "label": "_initialized",
        "offset": 0,
        "slot": "0",
        "type": "t_uint8"
      },
      {
        "astId": 773,
        "contract": "contracts/agToken/AgTokenSideChainMultiBridge.sol:AgTokenSideChainMultiBridge",
        "label": "_initializing",
        "offset": 1,
        "slot": "0",
        "type": "t_bool"
      },
      {
        "astId": 2486,
        "contract": "contracts/agToken/AgTokenSideChainMultiBridge.sol:AgTokenSideChainMultiBridge",
        "label": "__gap",
        "offset": 0,
        "slot": "1",
        "type": "t_array(t_uint256)50_storage"
      },
      {
        "astId": 1119,
        "contract": "contracts/agToken/AgTokenSideChainMultiBridge.sol:AgTokenSideChainMultiBridge",
        "label": "_balances",
        "offset": 0,
        "slot": "51",
        "type": "t_mapping(t_address,t_uint256)"
      },
      {
        "astId": 1125,
        "contract": "contracts/agToken/AgTokenSideChainMultiBridge.sol:AgTokenSideChainMultiBridge",
        "label": "_allowances",
        "offset": 0,
        "slot": "52",
        "type": "t_mapping(t_address,t_mapping(t_address,t_uint256))"
      },
      {
        "astId": 1127,
        "contract": "contracts/agToken/AgTokenSideChainMultiBridge.sol:AgTokenSideChainMultiBridge",
        "label": "_totalSupply",
        "offset": 0,
        "slot": "53",
        "type": "t_uint256"
      },
      {
        "astId": 1129,
        "contract": "contracts/agToken/AgTokenSideChainMultiBridge.sol:AgTokenSideChainMultiBridge",
        "label": "_name",
        "offset": 0,
        "slot": "54",
        "type": "t_string_storage"
      },
      {
        "astId": 1131,
        "contract": "contracts/agToken/AgTokenSideChainMultiBridge.sol:AgTokenSideChainMultiBridge",
        "label": "_symbol",
        "offset": 0,
        "slot": "55",
        "type": "t_string_storage"
      },
      {
        "astId": 1710,
        "contract": "contracts/agToken/AgTokenSideChainMultiBridge.sol:AgTokenSideChainMultiBridge",
        "label": "__gap",
        "offset": 0,
        "slot": "56",
        "type": "t_array(t_uint256)45_storage"
      },
      {
        "astId": 3203,
        "contract": "contracts/agToken/AgTokenSideChainMultiBridge.sol:AgTokenSideChainMultiBridge",
        "label": "_HASHED_NAME",
        "offset": 0,
        "slot": "101",
        "type": "t_bytes32"
      },
      {
        "astId": 3205,
        "contract": "contracts/agToken/AgTokenSideChainMultiBridge.sol:AgTokenSideChainMultiBridge",
        "label": "_HASHED_VERSION",
        "offset": 0,
        "slot": "102",
        "type": "t_bytes32"
      },
      {
        "astId": 3343,
        "contract": "contracts/agToken/AgTokenSideChainMultiBridge.sol:AgTokenSideChainMultiBridge",
        "label": "__gap",
        "offset": 0,
        "slot": "103",
        "type": "t_array(t_uint256)50_storage"
      },
      {
        "astId": 1840,
        "contract": "contracts/agToken/AgTokenSideChainMultiBridge.sol:AgTokenSideChainMultiBridge",
        "label": "_nonces",
        "offset": 0,
        "slot": "153",
        "type": "t_mapping(t_address,t_struct(Counter)2493_storage)"
      },
      {
        "astId": 1848,
        "contract": "contracts/agToken/AgTokenSideChainMultiBridge.sol:AgTokenSideChainMultiBridge",
        "label": "_PERMIT_TYPEHASH_DEPRECATED_SLOT",
        "offset": 0,
        "slot": "154",
        "type": "t_bytes32"
      },
      {
        "astId": 2004,
        "contract": "contracts/agToken/AgTokenSideChainMultiBridge.sol:AgTokenSideChainMultiBridge",
        "label": "__gap",
        "offset": 0,
        "slot": "155",
        "type": "t_array(t_uint256)49_storage"
      },
      {
        "astId": 7427,
        "contract": "contracts/agToken/AgTokenSideChainMultiBridge.sol:AgTokenSideChainMultiBridge",
        "label": "isMinter",
        "offset": 0,
        "slot": "204",
        "type": "t_mapping(t_address,t_bool)"
      },
      {
        "astId": 7430,
        "contract": "contracts/agToken/AgTokenSideChainMultiBridge.sol:AgTokenSideChainMultiBridge",
        "label": "treasury",
        "offset": 0,
        "slot": "205",
        "type": "t_address"
      },
      {
        "astId": 7739,
        "contract": "contracts/agToken/AgTokenSideChainMultiBridge.sol:AgTokenSideChainMultiBridge",
        "label": "bridges",
        "offset": 0,
        "slot": "206",
        "type": "t_mapping(t_address,t_struct(BridgeDetails)7733_storage)"
      },
      {
        "astId": 7743,
        "contract": "contracts/agToken/AgTokenSideChainMultiBridge.sol:AgTokenSideChainMultiBridge",
        "label": "bridgeTokensList",
        "offset": 0,
        "slot": "207",
        "type": "t_array(t_address)dyn_storage"
      },
      {
        "astId": 7750,
        "contract": "contracts/agToken/AgTokenSideChainMultiBridge.sol:AgTokenSideChainMultiBridge",
        "label": "usage",
        "offset": 0,
        "slot": "208",
        "type": "t_mapping(t_address,t_mapping(t_uint256,t_uint256))"
      },
      {
        "astId": 7755,
        "contract": "contracts/agToken/AgTokenSideChainMultiBridge.sol:AgTokenSideChainMultiBridge",
        "label": "isFeeExempt",
        "offset": 0,
        "slot": "209",
        "type": "t_mapping(t_address,t_uint256)"
      },
      {
        "astId": 7758,
        "contract": "contracts/agToken/AgTokenSideChainMultiBridge.sol:AgTokenSideChainMultiBridge",
        "label": "chainTotalHourlyLimit",
        "offset": 0,
        "slot": "210",
        "type": "t_uint256"
      },
      {
        "astId": 7763,
        "contract": "contracts/agToken/AgTokenSideChainMultiBridge.sol:AgTokenSideChainMultiBridge",
        "label": "chainTotalUsage",
        "offset": 0,
        "slot": "211",
        "type": "t_mapping(t_uint256,t_uint256)"
      }
    ],
    "types": {
      "t_address": {
        "encoding": "inplace",
        "label": "address",
        "numberOfBytes": "20"
      },
      "t_array(t_address)dyn_storage": {
        "base": "t_address",
        "encoding": "dynamic_array",
        "label": "address[]",
        "numberOfBytes": "32"
      },
      "t_array(t_uint256)45_storage": {
        "base": "t_uint256",
        "encoding": "inplace",
        "label": "uint256[45]",
        "numberOfBytes": "1440"
      },
      "t_array(t_uint256)49_storage": {
        "base": "t_uint256",
        "encoding": "inplace",
        "label": "uint256[49]",
        "numberOfBytes": "1568"
      },
      "t_array(t_uint256)50_storage": {
        "base": "t_uint256",
        "encoding": "inplace",
        "label": "uint256[50]",
        "numberOfBytes": "1600"
      },
      "t_bool": {
        "encoding": "inplace",
        "label": "bool",
        "numberOfBytes": "1"
      },
      "t_bytes32": {
        "encoding": "inplace",
        "label": "bytes32",
        "numberOfBytes": "32"
      },
      "t_mapping(t_address,t_bool)": {
        "encoding": "mapping",
        "key": "t_address",
        "label": "mapping(address => bool)",
        "numberOfBytes": "32",
        "value": "t_bool"
      },
      "t_mapping(t_address,t_mapping(t_address,t_uint256))": {
        "encoding": "mapping",
        "key": "t_address",
        "label": "mapping(address => mapping(address => uint256))",
        "numberOfBytes": "32",
        "value": "t_mapping(t_address,t_uint256)"
      },
      "t_mapping(t_address,t_mapping(t_uint256,t_uint256))": {
        "encoding": "mapping",
        "key": "t_address",
        "label": "mapping(address => mapping(uint256 => uint256))",
        "numberOfBytes": "32",
        "value": "t_mapping(t_uint256,t_uint256)"
      },
      "t_mapping(t_address,t_struct(BridgeDetails)7733_storage)": {
        "encoding": "mapping",
        "key": "t_address",
        "label": "mapping(address => struct AgTokenSideChainMultiBridge.BridgeDetails)",
        "numberOfBytes": "32",
        "value": "t_struct(BridgeDetails)7733_storage"
      },
      "t_mapping(t_address,t_struct(Counter)2493_storage)": {
        "encoding": "mapping",
        "key": "t_address",
        "label": "mapping(address => struct CountersUpgradeable.Counter)",
        "numberOfBytes": "32",
        "value": "t_struct(Counter)2493_storage"
      },
      "t_mapping(t_address,t_uint256)": {
        "encoding": "mapping",
        "key": "t_address",
        "label": "mapping(address => uint256)",
        "numberOfBytes": "32",
        "value": "t_uint256"
      },
      "t_mapping(t_uint256,t_uint256)": {
        "encoding": "mapping",
        "key": "t_uint256",
        "label": "mapping(uint256 => uint256)",
        "numberOfBytes": "32",
        "value": "t_uint256"
      },
      "t_string_storage": {
        "encoding": "bytes",
        "label": "string",
        "numberOfBytes": "32"
      },
      "t_struct(BridgeDetails)7733_storage": {
        "encoding": "inplace",
        "label": "struct AgTokenSideChainMultiBridge.BridgeDetails",
        "members": [
          {
            "astId": 7724,
            "contract": "contracts/agToken/AgTokenSideChainMultiBridge.sol:AgTokenSideChainMultiBridge",
            "label": "limit",
            "offset": 0,
            "slot": "0",
            "type": "t_uint256"
          },
          {
            "astId": 7726,
            "contract": "contracts/agToken/AgTokenSideChainMultiBridge.sol:AgTokenSideChainMultiBridge",
            "label": "hourlyLimit",
            "offset": 0,
            "slot": "1",
            "type": "t_uint256"
          },
          {
            "astId": 7728,
            "contract": "contracts/agToken/AgTokenSideChainMultiBridge.sol:AgTokenSideChainMultiBridge",
            "label": "fee",
            "offset": 0,
            "slot": "2",
            "type": "t_uint64"
          },
          {
            "astId": 7730,
            "contract": "contracts/agToken/AgTokenSideChainMultiBridge.sol:AgTokenSideChainMultiBridge",
            "label": "allowed",
            "offset": 8,
            "slot": "2",
            "type": "t_bool"
          },
          {
            "astId": 7732,
            "contract": "contracts/agToken/AgTokenSideChainMultiBridge.sol:AgTokenSideChainMultiBridge",
            "label": "paused",
            "offset": 9,
            "slot": "2",
            "type": "t_bool"
          }
        ],
        "numberOfBytes": "96"
      },
      "t_struct(Counter)2493_storage": {
        "encoding": "inplace",
        "label": "struct CountersUpgradeable.Counter",
        "members": [
          {
            "astId": 2492,
            "contract": "contracts/agToken/AgTokenSideChainMultiBridge.sol:AgTokenSideChainMultiBridge",
            "label": "_value",
            "offset": 0,
            "slot": "0",
            "type": "t_uint256"
          }
        ],
        "numberOfBytes": "32"
      },
      "t_uint256": {
        "encoding": "inplace",
        "label": "uint256",
        "numberOfBytes": "32"
      },
      "t_uint64": {
        "encoding": "inplace",
        "label": "uint64",
        "numberOfBytes": "8"
      },
      "t_uint8": {
        "encoding": "inplace",
        "label": "uint8",
        "numberOfBytes": "1"
      }
    }
  }
}