{
  "address": "0x09f143d3Af1Af9af6AB6BCe1B53fc5a8dc1baA79",
  "abi": [
    {
      "inputs": [],
      "name": "AssetStillControlledInReserves",
      "type": "error"
    },
    {
      "inputs": [],
      "name": "BurnAmountExceedsAllowance",
      "type": "error"
    },
    {
      "inputs": [],
      "name": "HourlyLimitExceeded",
      "type": "error"
    },
    {
      "inputs": [],
      "name": "InvalidSender",
      "type": "error"
    },
    {
      "inputs": [],
      "name": "InvalidToken",
      "type": "error"
    },
    {
      "inputs": [],
      "name": "InvalidTreasury",
      "type": "error"
    },
    {
      "inputs": [],
      "name": "NotGovernor",
      "type": "error"
    },
    {
      "inputs": [],
      "name": "NotGovernorOrGuardian",
      "type": "error"
    },
    {
      "inputs": [],
      "name": "NotMinter",
      "type": "error"
    },
    {
      "inputs": [],
      "name": "NotTreasury",
      "type": "error"
    },
    {
      "inputs": [],
      "name": "TooBigAmount",
      "type": "error"
    },
    {
      "inputs": [],
      "name": "TooHighParameterValue",
      "type": "error"
    },
    {
      "inputs": [],
      "name": "TreasuryAlreadyInitialized",
      "type": "error"
    },
    {
      "inputs": [],
      "name": "ZeroAddress",
      "type": "error"
    },
    {
      "anonymous": false,
      "inputs": [
        {
          "indexed": true,
          "internalType": "address",
          "name": "owner",
          "type": "address"
        },
        {
          "indexed": true,
          "internalType": "address",
          "name": "spender",
          "type": "address"
        },
        {
          "indexed": false,
          "internalType": "uint256",
          "name": "value",
          "type": "uint256"
        }
      ],
      "name": "Approval",
      "type": "event"
    },
    {
      "anonymous": false,
      "inputs": [
        {
          "indexed": true,
          "internalType": "address",
          "name": "bridgeToken",
          "type": "address"
        },
        {
          "indexed": false,
          "internalType": "uint256",
          "name": "limit",
          "type": "uint256"
        },
        {
          "indexed": false,
          "internalType": "uint256",
          "name": "hourlyLimit",
          "type": "uint256"
        },
        {
          "indexed": false,
          "internalType": "uint64",
          "name": "fee",
          "type": "uint64"
        },
        {
          "indexed": false,
          "internalType": "bool",
          "name": "paused",
          "type": "bool"
        }
      ],
      "name": "BridgeTokenAdded",
      "type": "event"
    },
    {
      "anonymous": false,
      "inputs": [
        {
          "indexed": true,
          "internalType": "address",
          "name": "bridgeToken",
          "type": "address"
        },
        {
          "indexed": false,
          "internalType": "uint64",
          "name": "fee",
          "type": "uint64"
        }
      ],
      "name": "BridgeTokenFeeUpdated",
      "type": "event"
    },
    {
      "anonymous": false,
      "inputs": [
        {
          "indexed": true,
          "internalType": "address",
          "name": "bridgeToken",
          "type": "address"
        },
        {
          "indexed": false,
          "internalType": "uint256",
          "name": "hourlyLimit",
          "type": "uint256"
        }
      ],
      "name": "BridgeTokenHourlyLimitUpdated",
      "type": "event"
    },
    {
      "anonymous": false,
      "inputs": [
        {
          "indexed": true,
          "internalType": "address",
          "name": "bridgeToken",
          "type": "address"
        },
        {
          "indexed": false,
          "internalType": "uint256",
          "name": "limit",
          "type": "uint256"
        }
      ],
      "name": "BridgeTokenLimitUpdated",
      "type": "event"
    },
    {
      "anonymous": false,
      "inputs": [
        {
          "indexed": true,
          "internalType": "address",
          "name": "bridgeToken",
          "type": "address"
        }
      ],
      "name": "BridgeTokenRemoved",
      "type": "event"
    },
    {
      "anonymous": false,
      "inputs": [
        {
          "indexed": true,
          "internalType": "address",
          "name": "bridgeToken",
          "type": "address"
        },
        {
          "indexed": false,
          "internalType": "bool",
          "name": "toggleStatus",
          "type": "bool"
        }
      ],
      "name": "BridgeTokenToggled",
      "type": "event"
    },
    {
      "anonymous": false,
      "inputs": [
        {
          "indexed": false,
          "internalType": "address",
          "name": "newAddress",
          "type": "address"
        }
      ],
      "name": "ChildChainManagerAdded",
      "type": "event"
    },
    {
      "anonymous": false,
      "inputs": [
        {
          "indexed": false,
          "internalType": "address",
          "name": "oldAddress",
          "type": "address"
        }
      ],
      "name": "ChildChainManagerRevoked",
      "type": "event"
    },
    {
      "anonymous": false,
      "inputs": [
        {
          "indexed": true,
          "internalType": "address",
          "name": "theAddress",
          "type": "address"
        },
        {
          "indexed": false,
          "internalType": "uint256",
          "name": "toggleStatus",
          "type": "uint256"
        }
      ],
      "name": "FeeToggled",
      "type": "event"
    },
    {
      "anonymous": false,
      "inputs": [
        {
          "indexed": false,
          "internalType": "uint256",
          "name": "hourlyLimit",
          "type": "uint256"
        }
      ],
      "name": "HourlyLimitUpdated",
      "type": "event"
    },
    {
      "anonymous": false,
      "inputs": [
        {
          "indexed": false,
          "internalType": "uint8",
          "name": "version",
          "type": "uint8"
        }
      ],
      "name": "Initialized",
      "type": "event"
    },
    {
      "anonymous": false,
      "inputs": [
        {
          "indexed": true,
          "internalType": "address",
          "name": "keeper",
          "type": "address"
        },
        {
          "indexed": false,
          "internalType": "bool",
          "name": "toggleStatus",
          "type": "bool"
        }
      ],
      "name": "KeeperToggled",
      "type": "event"
    },
    {
      "anonymous": false,
      "inputs": [
        {
          "indexed": true,
          "internalType": "address",
          "name": "minter",
          "type": "address"
        }
      ],
      "name": "MinterToggled",
      "type": "event"
    },
    {
      "anonymous": false,
      "inputs": [
        {
          "indexed": true,
          "internalType": "address",
          "name": "token",
          "type": "address"
        },
        {
          "indexed": true,
          "internalType": "address",
          "name": "to",
          "type": "address"
        },
        {
          "indexed": false,
          "internalType": "uint256",
          "name": "amount",
          "type": "uint256"
        }
      ],
      "name": "Recovered",
      "type": "event"
    },
    {
      "anonymous": false,
      "inputs": [
        {
          "indexed": true,
          "internalType": "bytes32",
          "name": "role",
          "type": "bytes32"
        },
        {
          "indexed": true,
          "internalType": "bytes32",
          "name": "previousAdminRole",
          "type": "bytes32"
        },
        {
          "indexed": true,
          "internalType": "bytes32",
          "name": "newAdminRole",
          "type": "bytes32"
        }
      ],
      "name": "RoleAdminChanged",
      "type": "event"
    },
    {
      "anonymous": false,
      "inputs": [
        {
          "indexed": true,
          "internalType": "bytes32",
          "name": "role",
          "type": "bytes32"
        },
        {
          "indexed": true,
          "internalType": "address",
          "name": "account",
          "type": "address"
        },
        {
          "indexed": true,
          "internalType": "address",
          "name": "sender",
          "type": "address"
        }
      ],
      "name": "RoleGranted",
      "type": "event"
    },
    {
      "anonymous": false,
      "inputs": [
        {
          "indexed": true,
          "internalType": "bytes32",
          "name": "role",
          "type": "bytes32"
        },
        {
          "indexed": true,
          "internalType": "address",
          "name": "account",
          "type": "address"
        },
        {
          "indexed": true,
          "internalType": "address",
          "name": "sender",
          "type": "address"
        }
      ],
      "name": "RoleRevoked",
      "type": "event"
    },
    {
      "anonymous": false,
      "inputs": [
        {
          "indexed": true,
          "internalType": "address",
          "name": "from",
          "type": "address"
        },
        {
          "indexed": true,
          "internalType": "address",
          "name": "to",
          "type": "address"
        },
        {
          "indexed": false,
          "internalType": "uint256",
          "name": "value",
          "type": "uint256"
        }
      ],
      "name": "Transfer",
      "type": "event"
    },
    {
      "anonymous": false,
      "inputs": [
        {
          "indexed": true,
          "internalType": "address",
          "name": "_treasury",
          "type": "address"
        }
      ],
      "name": "TreasuryUpdated",
      "type": "event"
    },
    {
      "inputs": [],
      "name": "BASE_PARAMS",
      "outputs": [
        {
          "internalType": "uint256",
          "name": "",
          "type": "uint256"
        }
      ],
      "stateMutability": "view",
      "type": "function"
    },
    {
      "inputs": [],
      "name": "DEFAULT_ADMIN_ROLE",
      "outputs": [
        {
          "internalType": "bytes32",
          "name": "",
          "type": "bytes32"
        }
      ],
      "stateMutability": "view",
      "type": "function"
    },
    {
      "inputs": [],
      "name": "DEPOSITOR_ROLE",
      "outputs": [
        {
          "internalType": "bytes32",
          "name": "",
          "type": "bytes32"
        }
      ],
      "stateMutability": "view",
      "type": "function"
    },
    {
      "inputs": [
        {
          "internalType": "address",
          "name": "bridgeToken",
          "type": "address"
        },
        {
          "internalType": "uint256",
          "name": "limit",
          "type": "uint256"
        },
        {
          "internalType": "uint256",
          "name": "hourlyLimit",
          "type": "uint256"
        },
        {
          "internalType": "uint64",
          "name": "fee",
          "type": "uint64"
        },
        {
          "internalType": "bool",
          "name": "paused",
          "type": "bool"
        }
      ],
      "name": "addBridgeToken",
      "outputs": [],
      "stateMutability": "nonpayable",
      "type": "function"
    },
    {
      "inputs": [
        {
          "internalType": "address",
          "name": "minter",
          "type": "address"
        }
      ],
      "name": "addMinter",
      "outputs": [],
      "stateMutability": "nonpayable",
      "type": "function"
    },
    {
      "inputs": [],
      "name": "allBridgeTokens",
      "outputs": [
        {
          "internalType": "address[]",
          "name": "",
          "type": "address[]"
        }
      ],
      "stateMutability": "view",
      "type": "function"
    },
    {
      "inputs": [
        {
          "internalType": "address",
          "name": "owner",
          "type": "address"
        },
        {
          "internalType": "address",
          "name": "spender",
          "type": "address"
        }
      ],
      "name": "allowance",
      "outputs": [
        {
          "internalType": "uint256",
          "name": "",
          "type": "uint256"
        }
      ],
      "stateMutability": "view",
      "type": "function"
    },
    {
      "inputs": [
        {
          "internalType": "address",
          "name": "spender",
          "type": "address"
        },
        {
          "internalType": "uint256",
          "name": "amount",
          "type": "uint256"
        }
      ],
      "name": "approve",
      "outputs": [
        {
          "internalType": "bool",
          "name": "",
          "type": "bool"
        }
      ],
      "stateMutability": "nonpayable",
      "type": "function"
    },
    {
      "inputs": [
        {
          "internalType": "address",
          "name": "account",
          "type": "address"
        }
      ],
      "name": "balanceOf",
      "outputs": [
        {
          "internalType": "uint256",
          "name": "",
          "type": "uint256"
        }
      ],
      "stateMutability": "view",
      "type": "function"
    },
    {
      "inputs": [
        {
          "internalType": "uint256",
          "name": "",
          "type": "uint256"
        }
      ],
      "name": "bridgeTokensList",
      "outputs": [
        {
          "internalType": "address",
          "name": "",
          "type": "address"
        }
      ],
      "stateMutability": "view",
      "type": "function"
    },
    {
      "inputs": [
        {
          "internalType": "address",
          "name": "",
          "type": "address"
        }
      ],
      "name": "bridges",
      "outputs": [
        {
          "internalType": "uint256",
          "name": "limit",
          "type": "uint256"
        },
        {
          "internalType": "uint256",
          "name": "hourlyLimit",
          "type": "uint256"
        },
        {
          "internalType": "uint64",
          "name": "fee",
          "type": "uint64"
        },
        {
          "internalType": "bool",
          "name": "allowed",
          "type": "bool"
        },
        {
          "internalType": "bool",
          "name": "paused",
          "type": "bool"
        }
      ],
      "stateMutability": "view",
      "type": "function"
    },
    {
      "inputs": [
        {
          "internalType": "uint256",
          "name": "amount",
          "type": "uint256"
        },
        {
          "internalType": "address",
          "name": "burner",
          "type": "address"
        },
        {
          "internalType": "address",
          "name": "sender",
          "type": "address"
        }
      ],
      "name": "burnFrom",
      "outputs": [],
      "stateMutability": "nonpayable",
      "type": "function"
    },
    {
      "inputs": [
        {
          "internalType": "uint256",
          "name": "amount",
          "type": "uint256"
        },
        {
          "internalType": "address",
          "name": "burner",
          "type": "address"
        }
      ],
      "name": "burnSelf",
      "outputs": [],
      "stateMutability": "nonpayable",
      "type": "function"
    },
    {
      "inputs": [
        {
          "internalType": "uint256",
          "name": "amount",
          "type": "uint256"
        }
      ],
      "name": "burnStablecoin",
      "outputs": [],
      "stateMutability": "nonpayable",
      "type": "function"
    },
    {
      "inputs": [],
      "name": "chainTotalHourlyLimit",
      "outputs": [
        {
          "internalType": "uint256",
          "name": "",
          "type": "uint256"
        }
      ],
      "stateMutability": "view",
      "type": "function"
    },
    {
      "inputs": [
        {
          "internalType": "uint256",
          "name": "",
          "type": "uint256"
        }
      ],
      "name": "chainTotalUsage",
      "outputs": [
        {
          "internalType": "uint256",
          "name": "",
          "type": "uint256"
        }
      ],
      "stateMutability": "view",
      "type": "function"
    },
    {
      "inputs": [],
      "name": "currentTotalUsage",
      "outputs": [
        {
          "internalType": "uint256",
          "name": "",
          "type": "uint256"
        }
      ],
      "stateMutability": "view",
      "type": "function"
    },
    {
      "inputs": [
        {
          "internalType": "address",
          "name": "bridge",
          "type": "address"
        }
      ],
      "name": "currentUsage",
      "outputs": [
        {
          "internalType": "uint256",
          "name": "",
          "type": "uint256"
        }
      ],
      "stateMutability": "view",
      "type": "function"
    },
    {
      "inputs": [],
      "name": "decimals",
      "outputs": [
        {
          "internalType": "uint8",
          "name": "",
          "type": "uint8"
        }
      ],
      "stateMutability": "view",
      "type": "function"
    },
    {
      "inputs": [
        {
          "internalType": "address",
          "name": "spender",
          "type": "address"
        },
        {
          "internalType": "uint256",
          "name": "subtractedValue",
          "type": "uint256"
        }
      ],
      "name": "decreaseAllowance",
      "outputs": [
        {
          "internalType": "bool",
          "name": "",
          "type": "bool"
        }
      ],
      "stateMutability": "nonpayable",
      "type": "function"
    },
    {
      "inputs": [
        {
          "internalType": "address",
          "name": "user",
          "type": "address"
        },
        {
          "internalType": "bytes",
          "name": "depositData",
          "type": "bytes"
        }
      ],
      "name": "deposit",
      "outputs": [],
      "stateMutability": "nonpayable",
      "type": "function"
    },
    {
      "inputs": [
        {
          "internalType": "bytes32",
          "name": "role",
          "type": "bytes32"
        }
      ],
      "name": "getRoleAdmin",
      "outputs": [
        {
          "internalType": "bytes32",
          "name": "",
          "type": "bytes32"
        }
      ],
      "stateMutability": "view",
      "type": "function"
    },
    {
      "inputs": [
        {
          "internalType": "bytes32",
          "name": "role",
          "type": "bytes32"
        },
        {
          "internalType": "address",
          "name": "account",
          "type": "address"
        }
      ],
      "name": "grantRole",
      "outputs": [],
      "stateMutability": "nonpayable",
      "type": "function"
    },
    {
      "inputs": [
        {
          "internalType": "bytes32",
          "name": "role",
          "type": "bytes32"
        },
        {
          "internalType": "address",
          "name": "account",
          "type": "address"
        }
      ],
      "name": "hasRole",
      "outputs": [
        {
          "internalType": "bool",
          "name": "",
          "type": "bool"
        }
      ],
      "stateMutability": "view",
      "type": "function"
    },
    {
      "inputs": [
        {
          "internalType": "address",
          "name": "spender",
          "type": "address"
        },
        {
          "internalType": "uint256",
          "name": "addedValue",
          "type": "uint256"
        }
      ],
      "name": "increaseAllowance",
      "outputs": [
        {
          "internalType": "bool",
          "name": "",
          "type": "bool"
        }
      ],
      "stateMutability": "nonpayable",
      "type": "function"
    },
    {
      "inputs": [
        {
          "internalType": "string",
          "name": "_name",
          "type": "string"
        },
        {
          "internalType": "string",
          "name": "_symbol",
          "type": "string"
        },
        {
          "internalType": "address",
          "name": "childChainManager",
          "type": "address"
        },
        {
          "internalType": "address",
          "name": "guardian",
          "type": "address"
        }
      ],
      "name": "initialize",
      "outputs": [],
      "stateMutability": "nonpayable",
      "type": "function"
    },
    {
      "inputs": [
        {
          "internalType": "address",
          "name": "",
          "type": "address"
        }
      ],
      "name": "isFeeExempt",
      "outputs": [
        {
          "internalType": "uint256",
          "name": "",
          "type": "uint256"
        }
      ],
      "stateMutability": "view",
      "type": "function"
    },
    {
      "inputs": [
        {
          "internalType": "address",
          "name": "",
          "type": "address"
        }
      ],
      "name": "isMinter",
      "outputs": [
        {
          "internalType": "bool",
          "name": "",
          "type": "bool"
        }
      ],
      "stateMutability": "view",
      "type": "function"
    },
    {
      "inputs": [
        {
          "internalType": "address",
          "name": "account",
          "type": "address"
        },
        {
          "internalType": "uint256",
          "name": "amount",
          "type": "uint256"
        }
      ],
      "name": "mint",
      "outputs": [],
      "stateMutability": "nonpayable",
      "type": "function"
    },
    {
      "inputs": [],
      "name": "name",
      "outputs": [
        {
          "internalType": "string",
          "name": "",
          "type": "string"
        }
      ],
      "stateMutability": "view",
      "type": "function"
    },
    {
      "inputs": [
        {
          "internalType": "address",
          "name": "tokenAddress",
          "type": "address"
        },
        {
          "internalType": "address",
          "name": "to",
          "type": "address"
        },
        {
          "internalType": "uint256",
          "name": "amountToRecover",
          "type": "uint256"
        }
      ],
      "name": "recoverERC20",
      "outputs": [],
      "stateMutability": "nonpayable",
      "type": "function"
    },
    {
      "inputs": [
        {
          "internalType": "address",
          "name": "bridgeToken",
          "type": "address"
        }
      ],
      "name": "removeBridgeToken",
      "outputs": [],
      "stateMutability": "nonpayable",
      "type": "function"
    },
    {
      "inputs": [
        {
          "internalType": "address",
          "name": "minter",
          "type": "address"
        }
      ],
      "name": "removeMinter",
      "outputs": [],
      "stateMutability": "nonpayable",
      "type": "function"
    },
    {
      "inputs": [
        {
          "internalType": "bytes32",
          "name": "role",
          "type": "bytes32"
        },
        {
          "internalType": "address",
          "name": "account",
          "type": "address"
        }
      ],
      "name": "renounceRole",
      "outputs": [],
      "stateMutability": "nonpayable",
      "type": "function"
    },
    {
      "inputs": [
        {
          "internalType": "bytes32",
          "name": "role",
          "type": "bytes32"
        },
        {
          "internalType": "address",
          "name": "account",
          "type": "address"
        }
      ],
      "name": "revokeRole",
      "outputs": [],
      "stateMutability": "nonpayable",
      "type": "function"
    },
    {
      "inputs": [
        {
          "internalType": "uint256",
          "name": "hourlyLimit",
          "type": "uint256"
        }
      ],
      "name": "setChainTotalHourlyLimit",
      "outputs": [],
      "stateMutability": "nonpayable",
      "type": "function"
    },
    {
      "inputs": [
        {
          "internalType": "address",
          "name": "bridgeToken",
          "type": "address"
        },
        {
          "internalType": "uint256",
          "name": "hourlyLimit",
          "type": "uint256"
        }
      ],
      "name": "setHourlyLimit",
      "outputs": [],
      "stateMutability": "nonpayable",
      "type": "function"
    },
    {
      "inputs": [
        {
          "internalType": "address",
          "name": "bridgeToken",
          "type": "address"
        },
        {
          "internalType": "uint256",
          "name": "limit",
          "type": "uint256"
        }
      ],
      "name": "setLimit",
      "outputs": [],
      "stateMutability": "nonpayable",
      "type": "function"
    },
    {
      "inputs": [
        {
          "internalType": "string",
          "name": "newName",
          "type": "string"
        },
        {
          "internalType": "string",
          "name": "newSymbol",
          "type": "string"
        }
      ],
      "name": "setNameAndSymbol",
      "outputs": [],
      "stateMutability": "nonpayable",
      "type": "function"
    },
    {
      "inputs": [
        {
          "internalType": "address",
          "name": "bridgeToken",
          "type": "address"
        },
        {
          "internalType": "uint64",
          "name": "fee",
          "type": "uint64"
        }
      ],
      "name": "setSwapFee",
      "outputs": [],
      "stateMutability": "nonpayable",
      "type": "function"
    },
    {
      "inputs": [
        {
          "internalType": "address",
          "name": "_treasury",
          "type": "address"
        }
      ],
      "name": "setTreasury",
      "outputs": [],
      "stateMutability": "nonpayable",
      "type": "function"
    },
    {
      "inputs": [
        {
          "internalType": "address",
          "name": "_treasury",
          "type": "address"
        }
      ],
      "name": "setUpTreasury",
      "outputs": [],
      "stateMutability": "nonpayable",
      "type": "function"
    },
    {
      "inputs": [
        {
          "internalType": "bytes4",
          "name": "interfaceId",
          "type": "bytes4"
        }
      ],
      "name": "supportsInterface",
      "outputs": [
        {
          "internalType": "bool",
          "name": "",
          "type": "bool"
        }
      ],
      "stateMutability": "view",
      "type": "function"
    },
    {
      "inputs": [
        {
          "internalType": "address",
          "name": "bridgeToken",
          "type": "address"
        },
        {
          "internalType": "uint256",
          "name": "amount",
          "type": "uint256"
        },
        {
          "internalType": "address",
          "name": "to",
          "type": "address"
        }
      ],
      "name": "swapIn",
      "outputs": [
        {
          "internalType": "uint256",
          "name": "",
          "type": "uint256"
        }
      ],
      "stateMutability": "nonpayable",
      "type": "function"
    },
    {
      "inputs": [
        {
          "internalType": "address",
          "name": "bridgeToken",
          "type": "address"
        },
        {
          "internalType": "uint256",
          "name": "amount",
          "type": "uint256"
        },
        {
          "internalType": "address",
          "name": "to",
          "type": "address"
        }
      ],
      "name": "swapOut",
      "outputs": [
        {
          "internalType": "uint256",
          "name": "",
          "type": "uint256"
        }
      ],
      "stateMutability": "nonpayable",
      "type": "function"
    },
    {
      "inputs": [],
      "name": "symbol",
      "outputs": [
        {
          "internalType": "string",
          "name": "",
          "type": "string"
        }
      ],
      "stateMutability": "view",
      "type": "function"
    },
    {
      "inputs": [
        {
          "internalType": "address",
          "name": "bridgeToken",
          "type": "address"
        }
      ],
      "name": "toggleBridge",
      "outputs": [],
      "stateMutability": "nonpayable",
      "type": "function"
    },
    {
      "inputs": [
        {
          "internalType": "address",
          "name": "theAddress",
          "type": "address"
        }
      ],
      "name": "toggleFeesForAddress",
      "outputs": [],
      "stateMutability": "nonpayable",
      "type": "function"
    },
    {
      "inputs": [],
      "name": "totalSupply",
      "outputs": [
        {
          "internalType": "uint256",
          "name": "",
          "type": "uint256"
        }
      ],
      "stateMutability": "view",
      "type": "function"
    },
    {
      "inputs": [
        {
          "internalType": "address",
          "name": "recipient",
          "type": "address"
        },
        {
          "internalType": "uint256",
          "name": "amount",
          "type": "uint256"
        }
      ],
      "name": "transfer",
      "outputs": [
        {
          "internalType": "bool",
          "name": "",
          "type": "bool"
        }
      ],
      "stateMutability": "nonpayable",
      "type": "function"
    },
    {
      "inputs": [
        {
          "internalType": "address",
          "name": "sender",
          "type": "address"
        },
        {
          "internalType": "address",
          "name": "recipient",
          "type": "address"
        },
        {
          "internalType": "uint256",
          "name": "amount",
          "type": "uint256"
        }
      ],
      "name": "transferFrom",
      "outputs": [
        {
          "internalType": "bool",
          "name": "",
          "type": "bool"
        }
      ],
      "stateMutability": "nonpayable",
      "type": "function"
    },
    {
      "inputs": [],
      "name": "treasury",
      "outputs": [
        {
          "internalType": "address",
          "name": "",
          "type": "address"
        }
      ],
      "stateMutability": "view",
      "type": "function"
    },
    {
      "inputs": [],
      "name": "treasuryInitialized",
      "outputs": [
        {
          "internalType": "bool",
          "name": "",
          "type": "bool"
        }
      ],
      "stateMutability": "view",
      "type": "function"
    },
    {
      "inputs": [
        {
          "internalType": "address",
          "name": "",
          "type": "address"
        },
        {
          "internalType": "uint256",
          "name": "",
          "type": "uint256"
        }
      ],
      "name": "usage",
      "outputs": [
        {
          "internalType": "uint256",
          "name": "",
          "type": "uint256"
        }
      ],
      "stateMutability": "view",
      "type": "function"
    },
    {
      "inputs": [
        {
          "internalType": "uint256",
          "name": "amount",
          "type": "uint256"
        }
      ],
      "name": "withdraw",
      "outputs": [],
      "stateMutability": "nonpayable",
      "type": "function"
    }
  ],
  "transactionHash": "0x521a1a27a7f36291ce32d23b93868f3d9b0120280cd753fd672b24d82c884f60",
  "args": [],
  "numDeployments": 1,
  "solcInputHash": "e71bf606f9ed7ef74d163868fe658038",
  "bytecode": "0x60806040523480156200001157600080fd5b50600054610100900460ff1615808015620000335750600054600160ff909116105b8062000063575062000050306200013d60201b62002e6a1760201c565b15801562000063575060005460ff166001145b620000cb5760405162461bcd60e51b815260206004820152602e60248201527f496e697469616c697a61626c653a20636f6e747261637420697320616c72656160448201526d191e481a5b9a5d1a585b1a5e995960921b606482015260840160405180910390fd5b6000805460ff191660011790558015620000ef576000805461ff0019166101001790555b801562000136576000805461ff0019169055604051600181527f7f26b83ff96e1f2b6a682f133852f6798a09c465da95921460cefb38474024989060200160405180910390a15b506200014c565b6001600160a01b03163b151590565b614ee3806200015c6000396000f3fe608060405234801561001057600080fd5b506004361061036d5760003560e01c806370a08231116101d3578063a457c2d711610104578063cf2c52cb116100a2578063dd62ed3e1161007c578063dd62ed3e14610895578063e3e28655146108db578063f0f44260146108ee578063f1cc2dea1461090157600080fd5b8063cf2c52cb1461085c578063d44ad63f1461086f578063d547741f1461088257600080fd5b8063ba330bd7116100de578063ba330bd71461078d578063cd4839ca146107a0578063cdc5aa9d146107b5578063ced67f0c146107c857600080fd5b8063a457c2d714610744578063a9059cbb14610757578063aa271e1a1461076a57600080fd5b806391d14854116101715780639e4e0dae1161014b5780639e4e0dae146106f75780639f48118f1461070a578063a217fddf14610715578063a3b0b5a31461071d57600080fd5b806391d148541461069657806395d89b41146106dc578063983b2d56146106e457600080fd5b80637d74e25f116101ad5780637d74e25f1461063c5780638933fb79146106445780638f15b4141461067057806390218cff1461068357600080fd5b806370a08231146105e05780637334d020146106165780637d4c9c2d1461062957600080fd5b80632f2ff15d116102ad5780633a55f89d1161024b5780634dc32fcc116102255780634dc32fcc146105545780635a446215146105675780635bfbec961461057a57806361d027b31461059b57600080fd5b80633a55f89d1461050d5780633f4218e01461052057806340c10f191461054157600080fd5b8063350ebe0411610287578063350ebe04146104c157806336568abe146104d457806336db43b5146104e757806339509351146104fa57600080fd5b80632f2ff15d1461048c5780633092afd51461049f578063313ce567146104b257600080fd5b806318160ddd1161031a578063248a9ca3116102f4578063248a9ca3146104305780632b471d8e146104535780632e1a7d4d146104665780632e403e141461047957600080fd5b806318160ddd1461040b5780632342fb0e1461041357806323b872dd1461041d57600080fd5b8063095ea7b31161034b578063095ea7b3146103c45780631171bda9146103d7578063151dd755146103ea57600080fd5b806301ffc9a71461037257806306fdde031461039a5780630919a951146103af575b600080fd5b6103856103803660046144da565b610926565b60405190151581526020015b60405180910390f35b6103a26109bf565b6040516103919190614540565b6103c26103bd3660046145b3565b610a52565b005b6103856103d23660046145d0565b610bb7565b6103c26103e53660046145fc565b610bcd565b6103fd6103f836600461463d565b610d22565b604051908152602001610391565b6035546103fd565b6103fd6101035481565b61038561042b3660046145fc565b611066565b6103fd61043e36600461467f565b60009081526097602052604090206001015490565b6103c2610461366004614698565b611151565b6103c261047436600461467f565b6111a8565b6103c26104873660046145b3565b6111b5565b6103c261049a366004614698565b611569565b6103c26104ad3660046145b3565b611593565b60405160128152602001610391565b6103c26104cf3660046146c8565b61167c565b6103c26104e2366004614698565b6116d0565b6103c26104f53660046145d0565b61177f565b6103856105083660046145d0565b611910565b6103c261051b36600461467f565b611959565b6103fd61052e3660046145b3565b6101026020526000908152604090205481565b6103c261054f3660046145d0565b611a5d565b6103fd6105623660046145b3565b611ab0565b6103c26105753660046147d9565b611af9565b6103fd61058836600461467f565b6101046020526000908152604090205481565b60fe546105bb9073ffffffffffffffffffffffffffffffffffffffff1681565b60405173ffffffffffffffffffffffffffffffffffffffff9091168152602001610391565b6103fd6105ee3660046145b3565b73ffffffffffffffffffffffffffffffffffffffff1660009081526033602052604090205490565b6103c26106243660046145d0565b611bdc565b6103c2610637366004614868565b611d70565b6103fd6120da565b6103fd6106523660046145d0565b61010160209081526000928352604080842090915290825290205481565b6103c261067e3660046148c5565b612100565b6103c261069136600461467f565b612314565b6103856106a4366004614698565b600091825260976020908152604080842073ffffffffffffffffffffffffffffffffffffffff93909316845291905290205460ff1690565b6103a261231e565b6103c26106f23660046145b3565b61232e565b6103c261070536600461494e565b6123f6565b6103fd633b9aca0081565b6103fd600081565b6103fd7f8f4f2da22e8ac8f11e15f9fc141cddbb5deea8800186560abb6e68c5496619a981565b6103856107523660046145d0565b612603565b6103856107653660046145d0565b6126db565b6103856107783660046145b3565b60fd6020526000908152604090205460ff1681565b6105bb61079b36600461467f565b6126e8565b6107a8612720565b6040516103919190614983565b6103c26107c33660046145b3565b61278f565b6108236107d63660046145b3565b60ff60208190526000918252604090912080546001820154600290920154909267ffffffffffffffff82169168010000000000000000810482169169010000000000000000009091041685565b60408051958652602086019490945267ffffffffffffffff9092169284019290925290151560608301521515608082015260a001610391565b6103c261086a3660046149dd565b61298a565b6103fd61087d36600461463d565b6129e5565b6103c2610890366004614698565b612baf565b6103fd6108a3366004614a62565b73ffffffffffffffffffffffffffffffffffffffff918216600090815260346020908152604080832093909416825291909152205490565b6103c26108e93660046145b3565b612bd4565b6103c26108fc3660046145b3565b612daa565b60fe546103859074010000000000000000000000000000000000000000900460ff1681565b60007fffffffff0000000000000000000000000000000000000000000000000000000082167f7965db0b0000000000000000000000000000000000000000000000000000000014806109b957507f01ffc9a7000000000000000000000000000000000000000000000000000000007fffffffff000000000000000000000000000000000000000000000000000000008316145b92915050565b606061012f80546109cf90614a90565b80601f01602080910402602001604051908101604052809291908181526020018280546109fb90614a90565b8015610a485780601f10610a1d57610100808354040283529160200191610a48565b820191906000526020600020905b815481529060010190602001808311610a2b57829003601f168201915b5050505050905090565b60fe546040517f521d4de900000000000000000000000000000000000000000000000000000000815233600482015273ffffffffffffffffffffffffffffffffffffffff9091169063521d4de990602401602060405180830381865afa158015610ac0573d6000803e3d6000fd5b505050506040513d601f19601f82011682018060405250810190610ae49190614ae3565b610b1a576040517f99e120bc00000000000000000000000000000000000000000000000000000000815260040160405180910390fd5b73ffffffffffffffffffffffffffffffffffffffff811660009081526101026020526040812054610b4c906001614b2f565b73ffffffffffffffffffffffffffffffffffffffff8316600081815261010260205260409081902083905551919250907f979ef83e7e7a87cb48064e296dd7e997870d50f43acf8d7ad221313526c8ca0f90610bab9084815260200190565b60405180910390a25050565b6000610bc4338484612e86565b50600192915050565b60fe546040517fe43581b800000000000000000000000000000000000000000000000000000000815233600482015273ffffffffffffffffffffffffffffffffffffffff9091169063e43581b890602401602060405180830381865afa158015610c3b573d6000803e3d6000fd5b505050506040513d601f19601f82011682018060405250810190610c5f9190614ae3565b610c95576040517fee3675d400000000000000000000000000000000000000000000000000000000815260040160405180910390fd5b610cb673ffffffffffffffffffffffffffffffffffffffff84168383613031565b8173ffffffffffffffffffffffffffffffffffffffff168373ffffffffffffffffffffffffffffffffffffffff167ffff3b3844276f57024e0b42afec1a37f75db36511e43819a4f2a63ab7862b64883604051610d1591815260200190565b60405180910390a3505050565b73ffffffffffffffffffffffffffffffffffffffff8316600090815260ff60208181526040808420815160a081018352815481526001820154938101939093526002015467ffffffffffffffff811691830191909152680100000000000000008104831615801560608401526901000000000000000000909104909216151560808201529080610db3575080608001515b15610dea576040517fc1ab6dc100000000000000000000000000000000000000000000000000000000815260040160405180910390fd5b6040517f70a0823100000000000000000000000000000000000000000000000000000000815230600482015260009073ffffffffffffffffffffffffffffffffffffffff8716906370a0823190602401602060405180830381865afa158015610e57573d6000803e3d6000fd5b505050506040513d601f19601f82011682018060405250810190610e7b9190614b42565b8251909150610e8a8683614b5b565b1115610eb2578151811015610ead578151610ea6908290614b2f565b9450610eb2565b600094505b6000610ec0610e1042614b6e565b73ffffffffffffffffffffffffffffffffffffffff881660009081526101016020908152604080832084845290915281205491925090610f01908890614b5b565b90508360200151811115610f975773ffffffffffffffffffffffffffffffffffffffff8816600090815261010160209081526040808320858452825290912054908501511115610f925773ffffffffffffffffffffffffffffffffffffffff881660009081526101016020908152604080832085845282529091205490850151610f8b9190614b2f565b9650610f97565b600096505b73ffffffffffffffffffffffffffffffffffffffff881660009081526101016020908152604080832085845290915281208054899290610fd8908490614b5b565b90915550611000905073ffffffffffffffffffffffffffffffffffffffff891633308a613105565b336000908152610102602052604081205488910361104e57633b9aca00856040015167ffffffffffffffff16826110379190614ba9565b6110419190614b6e565b61104b9082614b2f565b90505b6110588782613163565b9450505050505b9392505050565b6000611073848484613283565b73ffffffffffffffffffffffffffffffffffffffff8416600090815260346020908152604080832033845290915290205482811015611139576040517f08c379a000000000000000000000000000000000000000000000000000000000815260206004820152602860248201527f45524332303a207472616e7366657220616d6f756e742065786365656473206160448201527f6c6c6f77616e636500000000000000000000000000000000000000000000000060648201526084015b60405180910390fd5b6111468533858403612e86565b506001949350505050565b33600090815260fd602052604090205460ff1661119a576040517ff8d2906c00000000000000000000000000000000000000000000000000000000815260040160405180910390fd5b6111a48183613536565b5050565b6111b23382613722565b50565b60fe546040517fe43581b800000000000000000000000000000000000000000000000000000000815233600482015273ffffffffffffffffffffffffffffffffffffffff9091169063e43581b890602401602060405180830381865afa158015611223573d6000803e3d6000fd5b505050506040513d601f19601f820116820180604052508101906112479190614ae3565b61127d576040517fee3675d400000000000000000000000000000000000000000000000000000000815260040160405180910390fd5b6040517f70a0823100000000000000000000000000000000000000000000000000000000815230600482015273ffffffffffffffffffffffffffffffffffffffff8216906370a0823190602401602060405180830381865afa1580156112e7573d6000803e3d6000fd5b505050506040513d601f19601f8201168201806040525081019061130b9190614b42565b15611342576040517f2ef630ec00000000000000000000000000000000000000000000000000000000815260040160405180910390fd5b73ffffffffffffffffffffffffffffffffffffffff8116600090815260ff602052604081208181556001810182905560020180547fffffffffffffffffffffffffffffffffffffffffffff0000000000000000000016905561010054905b6113ab600183614b2f565b8110156114b9578273ffffffffffffffffffffffffffffffffffffffff1661010082815481106113dd576113dd614bc0565b60009182526020909120015473ffffffffffffffffffffffffffffffffffffffff16036114a957610100611412600184614b2f565b8154811061142257611422614bc0565b600091825260209091200154610100805473ffffffffffffffffffffffffffffffffffffffff909216918390811061145c5761145c614bc0565b9060005260206000200160006101000a81548173ffffffffffffffffffffffffffffffffffffffff021916908373ffffffffffffffffffffffffffffffffffffffff1602179055506114b9565b6114b281614bef565b90506113a0565b506101008054806114cc576114cc614c27565b60008281526020812082017fffffffffffffffffffffffffffffffffffffffffffffffffffffffffffffffff90810180547fffffffffffffffffffffffff000000000000000000000000000000000000000016905590910190915560405173ffffffffffffffffffffffffffffffffffffffff8416917f5c95b49c4d59d97a2f044167723f29c74b30f99702e3fd406c3830160aa9ccb891a25050565b60008281526097602052604090206001015461158481613907565b61158e8383613911565b505050565b60fe5473ffffffffffffffffffffffffffffffffffffffff1633148015906115d157503373ffffffffffffffffffffffffffffffffffffffff821614155b15611608576040517fddb5de5e00000000000000000000000000000000000000000000000000000000815260040160405180910390fd5b73ffffffffffffffffffffffffffffffffffffffff8116600081815260fd602052604080822080547fffffffffffffffffffffffffffffffffffffffffffffffffffffffffffffff00169055517f98c15241d6c02bc5ee0b780e11b3ea737a2defd9d04877edbe9f9497065bd02f9190a250565b33600090815260fd602052604090205460ff166116c5576040517ff8d2906c00000000000000000000000000000000000000000000000000000000815260040160405180910390fd5b61158e838383613a05565b73ffffffffffffffffffffffffffffffffffffffff81163314611775576040517f08c379a000000000000000000000000000000000000000000000000000000000815260206004820152602f60248201527f416363657373436f6e74726f6c3a2063616e206f6e6c792072656e6f756e636560448201527f20726f6c657320666f722073656c6600000000000000000000000000000000006064820152608401611130565b6111a48282613ac0565b60fe546040517f521d4de900000000000000000000000000000000000000000000000000000000815233600482015273ffffffffffffffffffffffffffffffffffffffff9091169063521d4de990602401602060405180830381865afa1580156117ed573d6000803e3d6000fd5b505050506040513d601f19601f820116820180604052508101906118119190614ae3565b611847576040517f99e120bc00000000000000000000000000000000000000000000000000000000815260040160405180910390fd5b73ffffffffffffffffffffffffffffffffffffffff8216600090815260ff6020819052604090912060020154680100000000000000009004166118b6576040517fc1ab6dc100000000000000000000000000000000000000000000000000000000815260040160405180910390fd5b73ffffffffffffffffffffffffffffffffffffffff8216600081815260ff602052604090819020839055517fe7b113fba37131b6396680a0c55790a697ec975e198ff8cfd89dac90a6379e6190610bab9084815260200190565b33600081815260346020908152604080832073ffffffffffffffffffffffffffffffffffffffff871684529091528120549091610bc4918590611954908690614b5b565b612e86565b60fe546040517f521d4de900000000000000000000000000000000000000000000000000000000815233600482015273ffffffffffffffffffffffffffffffffffffffff9091169063521d4de990602401602060405180830381865afa1580156119c7573d6000803e3d6000fd5b505050506040513d601f19601f820116820180604052508101906119eb9190614ae3565b611a21576040517f99e120bc00000000000000000000000000000000000000000000000000000000815260040160405180910390fd5b6101038190556040518181527fc3b69829afe2345596a02c8b587d41f796ba0094481d899e1b2e07b7532a1e219060200160405180910390a150565b33600090815260fd602052604090205460ff16611aa6576040517ff8d2906c00000000000000000000000000000000000000000000000000000000815260040160405180910390fd5b6111a48282613163565b73ffffffffffffffffffffffffffffffffffffffff811660009081526101016020526040812081611ae3610e1042614b6e565b8152602001908152602001600020549050919050565b60fe546040517fe43581b800000000000000000000000000000000000000000000000000000000815233600482015273ffffffffffffffffffffffffffffffffffffffff9091169063e43581b890602401602060405180830381865afa158015611b67573d6000803e3d6000fd5b505050506040513d601f19601f82011682018060405250810190611b8b9190614ae3565b611bc1576040517fee3675d400000000000000000000000000000000000000000000000000000000815260040160405180910390fd5b61012f611bce8382614ca4565b5061013061158e8282614ca4565b60fe546040517f521d4de900000000000000000000000000000000000000000000000000000000815233600482015273ffffffffffffffffffffffffffffffffffffffff9091169063521d4de990602401602060405180830381865afa158015611c4a573d6000803e3d6000fd5b505050506040513d601f19601f82011682018060405250810190611c6e9190614ae3565b611ca4576040517f99e120bc00000000000000000000000000000000000000000000000000000000815260040160405180910390fd5b73ffffffffffffffffffffffffffffffffffffffff8216600090815260ff602081905260409091206002015468010000000000000000900416611d13576040517fc1ab6dc100000000000000000000000000000000000000000000000000000000815260040160405180910390fd5b73ffffffffffffffffffffffffffffffffffffffff8216600081815260ff602052604090819020600101839055517fe13ac9338b2ee623233f83c1b3ceab16490fa3e3737fac7f0970d0830a9f487190610bab9084815260200190565b60fe546040517fe43581b800000000000000000000000000000000000000000000000000000000815233600482015273ffffffffffffffffffffffffffffffffffffffff9091169063e43581b890602401602060405180830381865afa158015611dde573d6000803e3d6000fd5b505050506040513d601f19601f82011682018060405250810190611e029190614ae3565b611e38576040517fee3675d400000000000000000000000000000000000000000000000000000000815260040160405180910390fd5b73ffffffffffffffffffffffffffffffffffffffff8516600090815260ff60208190526040909120600201546801000000000000000090041680611e90575073ffffffffffffffffffffffffffffffffffffffff8516155b15611ec7576040517fc1ab6dc100000000000000000000000000000000000000000000000000000000815260040160405180910390fd5b633b9aca008267ffffffffffffffff161115611f0f576040517feca1d2c600000000000000000000000000000000000000000000000000000000815260040160405180910390fd5b6040805160a08101825260008082526020820181905291810182905260608101829052608081019190915284815260208082018581528315156080840190815267ffffffffffffffff808716604080870191825260016060880181815273ffffffffffffffffffffffffffffffffffffffff8e16600081815260ff9099528389208a5181559751888401559351600290970180549151965115156901000000000000000000027fffffffffffffffffffffffffffffffffffffffffffff00ffffffffffffffffff97151568010000000000000000027fffffffffffffffffffffffffffffffffffffffffffffff0000000000000000009093169890961697909717179490941692909217909355610100805492830181559093527f45e010b9ae401e2eb71529478da8bd513a9bdc2d095a111e324f5b95c09ed87b0180547fffffffffffffffffffffffff0000000000000000000000000000000000000000168217905590517f53087ff85d80a7671594bd2e86b92af22e0b3c2c441c8033bba7399b7b5cbe23906120ca908890889088908890938452602084019290925267ffffffffffffffff1660408301521515606082015260800190565b60405180910390a2505050505050565b6000610104816120ec610e1042614b6e565b815260200190815260200160002054905090565b600054610100900460ff16158080156121205750600054600160ff909116105b8061213a5750303b15801561213a575060005460ff166001145b6121c6576040517f08c379a000000000000000000000000000000000000000000000000000000000815260206004820152602e60248201527f496e697469616c697a61626c653a20636f6e747261637420697320616c72656160448201527f647920696e697469616c697a65640000000000000000000000000000000000006064820152608401611130565b600080547fffffffffffffffffffffffffffffffffffffffffffffffffffffffffffffff00166001179055801561222457600080547fffffffffffffffffffffffffffffffffffffffffffffffffffffffffffff00ff166101001790555b61222e8585613b7b565b612236613c24565b612241600083613cbd565b61226b7f8f4f2da22e8ac8f11e15f9fc141cddbb5deea8800186560abb6e68c5496619a984613cbd565b6122aa856040518060400160405280600181526020017f3100000000000000000000000000000000000000000000000000000000000000815250613cc7565b801561230d57600080547fffffffffffffffffffffffffffffffffffffffffffffffffffffffffffff00ff169055604051600181527f7f26b83ff96e1f2b6a682f133852f6798a09c465da95921460cefb38474024989060200160405180910390a15b5050505050565b6111b23382613536565b606061013080546109cf90614a90565b60fe5473ffffffffffffffffffffffffffffffffffffffff16331461237f576040517fb90cdbb100000000000000000000000000000000000000000000000000000000815260040160405180910390fd5b73ffffffffffffffffffffffffffffffffffffffff8116600081815260fd602052604080822080547fffffffffffffffffffffffffffffffffffffffffffffffffffffffffffffff00166001179055517f98c15241d6c02bc5ee0b780e11b3ea737a2defd9d04877edbe9f9497065bd02f9190a250565b60fe546040517f521d4de900000000000000000000000000000000000000000000000000000000815233600482015273ffffffffffffffffffffffffffffffffffffffff9091169063521d4de990602401602060405180830381865afa158015612464573d6000803e3d6000fd5b505050506040513d601f19601f820116820180604052508101906124889190614ae3565b6124be576040517f99e120bc00000000000000000000000000000000000000000000000000000000815260040160405180910390fd5b73ffffffffffffffffffffffffffffffffffffffff8216600090815260ff60208190526040909120600201546801000000000000000090041661252d576040517fc1ab6dc100000000000000000000000000000000000000000000000000000000815260040160405180910390fd5b633b9aca008167ffffffffffffffff161115612575576040517feca1d2c600000000000000000000000000000000000000000000000000000000815260040160405180910390fd5b73ffffffffffffffffffffffffffffffffffffffff8216600081815260ff602090815260409182902060020180547fffffffffffffffffffffffffffffffffffffffffffffffff00000000000000001667ffffffffffffffff861690811790915591519182527f901f9de19b475adc8da4110434b8df940dce085afd05e2281c86807f3a899d299101610bab565b33600090815260346020908152604080832073ffffffffffffffffffffffffffffffffffffffff86168452909152812054828110156126c4576040517f08c379a000000000000000000000000000000000000000000000000000000000815260206004820152602560248201527f45524332303a2064656372656173656420616c6c6f77616e63652062656c6f7760448201527f207a65726f0000000000000000000000000000000000000000000000000000006064820152608401611130565b6126d13385858403612e86565b5060019392505050565b6000610bc4338484613283565b61010081815481106126f957600080fd5b60009182526020909120015473ffffffffffffffffffffffffffffffffffffffff16905081565b6060610100805480602002602001604051908101604052809291908181526020018280548015610a4857602002820191906000526020600020905b815473ffffffffffffffffffffffffffffffffffffffff16815260019091019060200180831161275b575050505050905090565b73da2d2f638d6fcbe306236583845e5822554c02ea33146127dc576040517fee3675d400000000000000000000000000000000000000000000000000000000815260040160405180910390fd5b3073ffffffffffffffffffffffffffffffffffffffff168173ffffffffffffffffffffffffffffffffffffffff1663e9cbd8226040518163ffffffff1660e01b8152600401602060405180830381865afa15801561283e573d6000803e3d6000fd5b505050506040513d601f19601f820116820180604052508101906128629190614dbe565b73ffffffffffffffffffffffffffffffffffffffff16146128af576040517f14bcf5c800000000000000000000000000000000000000000000000000000000815260040160405180910390fd5b60fe5474010000000000000000000000000000000000000000900460ff1615612904576040517fe1a1cccf00000000000000000000000000000000000000000000000000000000815260040160405180910390fd5b60fe80547fffffffffffffffffffffff0000000000000000000000000000000000000000001673ffffffffffffffffffffffffffffffffffffffff831690811774010000000000000000000000000000000000000000179091556040517f7dae230f18360d76a040c81f050aa14eb9d6dc7901b20fc5d855e2a20fe814d190600090a250565b3360009081527f28e8759d778413ba386bd9f909ab886584d0c872d3157abd7018c4ab794baf5a602052604090205460ff166129c557600080fd5b60006129d38284018461467f565b90506129df8482613163565b50505050565b73ffffffffffffffffffffffffffffffffffffffff8316600090815260ff60208181526040808420815160a081018352815481526001820154938101939093526002015467ffffffffffffffff811691830191909152680100000000000000008104831615801560608401526901000000000000000000909104909216151560808201529080612a76575080608001515b15612aad576040517fc1ab6dc100000000000000000000000000000000000000000000000000000000815260040160405180910390fd5b6000612abb610e1042614b6e565b6000818152610104602052604081205491925090612ada908790614b5b565b905061010354811115612b19576040517f6d43d1ac00000000000000000000000000000000000000000000000000000000815260040160405180910390fd5b600082815261010460205260409020819055612b353387613536565b3360009081526101026020526040812054879103612b8357633b9aca00846040015167ffffffffffffffff1682612b6c9190614ba9565b612b769190614b6e565b612b809082614b2f565b90505b612ba473ffffffffffffffffffffffffffffffffffffffff89168783613031565b979650505050505050565b600082815260976020526040902060010154612bca81613907565b61158e8383613ac0565b60fe546040517f521d4de900000000000000000000000000000000000000000000000000000000815233600482015273ffffffffffffffffffffffffffffffffffffffff9091169063521d4de990602401602060405180830381865afa158015612c42573d6000803e3d6000fd5b505050506040513d601f19601f82011682018060405250810190612c669190614ae3565b612c9c576040517f99e120bc00000000000000000000000000000000000000000000000000000000815260040160405180910390fd5b73ffffffffffffffffffffffffffffffffffffffff8116600090815260ff602081905260409091206002015468010000000000000000900416612d0b576040517fc1ab6dc100000000000000000000000000000000000000000000000000000000815260040160405180910390fd5b73ffffffffffffffffffffffffffffffffffffffff8116600081815260ff602081815260409283902060020180547fffffffffffffffffffffffffffffffffffffffffffff00ffffffffffffffffff811669010000000000000000009182900490941680159182029490941790915592519283529092917ff7c93079dcbf699749d66345a351afab7d24219bb1d915c9f4fc4cf03f00d3979101610bab565b60fe5473ffffffffffffffffffffffffffffffffffffffff163314612dfb576040517fb90cdbb100000000000000000000000000000000000000000000000000000000815260040160405180910390fd5b60fe80547fffffffffffffffffffffffff00000000000000000000000000000000000000001673ffffffffffffffffffffffffffffffffffffffff83169081179091556040517f7dae230f18360d76a040c81f050aa14eb9d6dc7901b20fc5d855e2a20fe814d190600090a250565b73ffffffffffffffffffffffffffffffffffffffff163b151590565b73ffffffffffffffffffffffffffffffffffffffff8316612f28576040517f08c379a0000000000000000000000000000000000000000000000000000000008152602060048201526024808201527f45524332303a20617070726f76652066726f6d20746865207a65726f2061646460448201527f72657373000000000000000000000000000000000000000000000000000000006064820152608401611130565b73ffffffffffffffffffffffffffffffffffffffff8216612fcb576040517f08c379a000000000000000000000000000000000000000000000000000000000815260206004820152602260248201527f45524332303a20617070726f766520746f20746865207a65726f20616464726560448201527f73730000000000000000000000000000000000000000000000000000000000006064820152608401611130565b73ffffffffffffffffffffffffffffffffffffffff83811660008181526034602090815260408083209487168084529482529182902085905590518481527f8c5be1e5ebec7d5bd14f71427d1e84f3dd0314c0f7b2291e5b200ac8c7c3b9259101610d15565b60405173ffffffffffffffffffffffffffffffffffffffff831660248201526044810182905261158e9084907fa9059cbb00000000000000000000000000000000000000000000000000000000906064015b604080517fffffffffffffffffffffffffffffffffffffffffffffffffffffffffffffffe08184030181529190526020810180517bffffffffffffffffffffffffffffffffffffffffffffffffffffffff167fffffffff0000000000000000000000000000000000000000000000000000000090931692909217909152613d68565b60405173ffffffffffffffffffffffffffffffffffffffff808516602483015283166044820152606481018290526129df9085907f23b872dd0000000000000000000000000000000000000000000000000000000090608401613083565b73ffffffffffffffffffffffffffffffffffffffff82166131e0576040517f08c379a000000000000000000000000000000000000000000000000000000000815260206004820152601f60248201527f45524332303a206d696e7420746f20746865207a65726f2061646472657373006044820152606401611130565b80603560008282546131f29190614b5b565b909155505073ffffffffffffffffffffffffffffffffffffffff82166000908152603360205260408120805483929061322c908490614b5b565b909155505060405181815273ffffffffffffffffffffffffffffffffffffffff8316906000907fddf252ad1be2c89b69c2b068fc378daa952ba7f163c4a11628f55a4df523b3ef9060200160405180910390a35050565b73ffffffffffffffffffffffffffffffffffffffff8316613326576040517f08c379a000000000000000000000000000000000000000000000000000000000815260206004820152602560248201527f45524332303a207472616e736665722066726f6d20746865207a65726f20616460448201527f64726573730000000000000000000000000000000000000000000000000000006064820152608401611130565b73ffffffffffffffffffffffffffffffffffffffff82166133c9576040517f08c379a000000000000000000000000000000000000000000000000000000000815260206004820152602360248201527f45524332303a207472616e7366657220746f20746865207a65726f206164647260448201527f65737300000000000000000000000000000000000000000000000000000000006064820152608401611130565b73ffffffffffffffffffffffffffffffffffffffff83166000908152603360205260409020548181101561347f576040517f08c379a000000000000000000000000000000000000000000000000000000000815260206004820152602660248201527f45524332303a207472616e7366657220616d6f756e742065786365656473206260448201527f616c616e636500000000000000000000000000000000000000000000000000006064820152608401611130565b73ffffffffffffffffffffffffffffffffffffffff8085166000908152603360205260408082208585039055918516815290812080548492906134c3908490614b5b565b925050819055508273ffffffffffffffffffffffffffffffffffffffff168473ffffffffffffffffffffffffffffffffffffffff167fddf252ad1be2c89b69c2b068fc378daa952ba7f163c4a11628f55a4df523b3ef8460405161352991815260200190565b60405180910390a36129df565b73ffffffffffffffffffffffffffffffffffffffff82166135d9576040517f08c379a000000000000000000000000000000000000000000000000000000000815260206004820152602160248201527f45524332303a206275726e2066726f6d20746865207a65726f2061646472657360448201527f73000000000000000000000000000000000000000000000000000000000000006064820152608401611130565b73ffffffffffffffffffffffffffffffffffffffff82166000908152603360205260409020548181101561368f576040517f08c379a000000000000000000000000000000000000000000000000000000000815260206004820152602260248201527f45524332303a206275726e20616d6f756e7420657863656564732062616c616e60448201527f63650000000000000000000000000000000000000000000000000000000000006064820152608401611130565b73ffffffffffffffffffffffffffffffffffffffff831660009081526033602052604081208383039055603580548492906136cb908490614b2f565b9091555050604051828152309073ffffffffffffffffffffffffffffffffffffffff8516907fddf252ad1be2c89b69c2b068fc378daa952ba7f163c4a11628f55a4df523b3ef9060200160405180910390a3505050565b73ffffffffffffffffffffffffffffffffffffffff82166137c5576040517f08c379a000000000000000000000000000000000000000000000000000000000815260206004820152602160248201527f45524332303a206275726e2066726f6d20746865207a65726f2061646472657360448201527f73000000000000000000000000000000000000000000000000000000000000006064820152608401611130565b73ffffffffffffffffffffffffffffffffffffffff82166000908152603360205260409020548181101561387b576040517f08c379a000000000000000000000000000000000000000000000000000000000815260206004820152602260248201527f45524332303a206275726e20616d6f756e7420657863656564732062616c616e60448201527f63650000000000000000000000000000000000000000000000000000000000006064820152608401611130565b73ffffffffffffffffffffffffffffffffffffffff831660009081526033602052604081208383039055603580548492906138b7908490614b2f565b909155505060405182815260009073ffffffffffffffffffffffffffffffffffffffff8516907fddf252ad1be2c89b69c2b068fc378daa952ba7f163c4a11628f55a4df523b3ef90602001610d15565b6111b28133613e74565b600082815260976020908152604080832073ffffffffffffffffffffffffffffffffffffffff8516845290915290205460ff166111a457600082815260976020908152604080832073ffffffffffffffffffffffffffffffffffffffff85168452909152902080547fffffffffffffffffffffffffffffffffffffffffffffffffffffffffffffff001660011790556139a73390565b73ffffffffffffffffffffffffffffffffffffffff168173ffffffffffffffffffffffffffffffffffffffff16837f2f8788117e7eff1d82e926ec794901d17c78024a50270940304540a733656f0d60405160405180910390a45050565b8073ffffffffffffffffffffffffffffffffffffffff168273ffffffffffffffffffffffffffffffffffffffff1614613ab65773ffffffffffffffffffffffffffffffffffffffff82811660009081526034602090815260408083209385168352929052205483811015613aa5576040517f715ec26c00000000000000000000000000000000000000000000000000000000815260040160405180910390fd5b613ab483836119548785614b2f565b505b61158e8284613536565b600082815260976020908152604080832073ffffffffffffffffffffffffffffffffffffffff8516845290915290205460ff16156111a457600082815260976020908152604080832073ffffffffffffffffffffffffffffffffffffffff8516808552925280832080547fffffffffffffffffffffffffffffffffffffffffffffffffffffffffffffff0016905551339285917ff6391f5c32d9c69d2a47ea670b442974b53935d1edc7fd64eb21e047a839171b9190a45050565b600054610100900460ff16613c12576040517f08c379a000000000000000000000000000000000000000000000000000000000815260206004820152602b60248201527f496e697469616c697a61626c653a20636f6e7472616374206973206e6f74206960448201527f6e697469616c697a696e670000000000000000000000000000000000000000006064820152608401611130565b613c1a613c24565b6111a48282613f46565b600054610100900460ff16613cbb576040517f08c379a000000000000000000000000000000000000000000000000000000000815260206004820152602b60248201527f496e697469616c697a61626c653a20636f6e7472616374206973206e6f74206960448201527f6e697469616c697a696e670000000000000000000000000000000000000000006064820152608401611130565b565b6111a48282613911565b600054610100900460ff16613d5e576040517f08c379a000000000000000000000000000000000000000000000000000000000815260206004820152602b60248201527f496e697469616c697a61626c653a20636f6e7472616374206973206e6f74206960448201527f6e697469616c697a696e670000000000000000000000000000000000000000006064820152608401611130565b6111a48282613ff6565b6000613dca826040518060400160405280602081526020017f5361666545524332303a206c6f772d6c6576656c2063616c6c206661696c65648152508573ffffffffffffffffffffffffffffffffffffffff166140a79092919063ffffffff16565b80519091501561158e5780806020019051810190613de89190614ae3565b61158e576040517f08c379a000000000000000000000000000000000000000000000000000000000815260206004820152602a60248201527f5361666545524332303a204552433230206f7065726174696f6e20646964206e60448201527f6f742073756363656564000000000000000000000000000000000000000000006064820152608401611130565b600082815260976020908152604080832073ffffffffffffffffffffffffffffffffffffffff8516845290915290205460ff166111a457613ecc8173ffffffffffffffffffffffffffffffffffffffff1660146140be565b613ed78360206140be565b604051602001613ee8929190614ddb565b604080517fffffffffffffffffffffffffffffffffffffffffffffffffffffffffffffffe0818403018152908290527f08c379a000000000000000000000000000000000000000000000000000000000825261113091600401614540565b600054610100900460ff16613fdd576040517f08c379a000000000000000000000000000000000000000000000000000000000815260206004820152602b60248201527f496e697469616c697a61626c653a20636f6e7472616374206973206e6f74206960448201527f6e697469616c697a696e670000000000000000000000000000000000000000006064820152608401611130565b6036613fe98382614ca4565b50603761158e8282614ca4565b600054610100900460ff1661408d576040517f08c379a000000000000000000000000000000000000000000000000000000000815260206004820152602b60248201527f496e697469616c697a61626c653a20636f6e7472616374206973206e6f74206960448201527f6e697469616c697a696e670000000000000000000000000000000000000000006064820152608401611130565b81516020928301208151919092012060c99190915560ca55565b60606140b68484600085614301565b949350505050565b606060006140cd836002614ba9565b6140d8906002614b5b565b67ffffffffffffffff8111156140f0576140f06146ff565b6040519080825280601f01601f19166020018201604052801561411a576020820181803683370190505b5090507f30000000000000000000000000000000000000000000000000000000000000008160008151811061415157614151614bc0565b60200101907effffffffffffffffffffffffffffffffffffffffffffffffffffffffffffff1916908160001a9053507f7800000000000000000000000000000000000000000000000000000000000000816001815181106141b4576141b4614bc0565b60200101907effffffffffffffffffffffffffffffffffffffffffffffffffffffffffffff1916908160001a90535060006141f0846002614ba9565b6141fb906001614b5b565b90505b6001811115614298577f303132333435363738396162636465660000000000000000000000000000000085600f166010811061423c5761423c614bc0565b1a60f81b82828151811061425257614252614bc0565b60200101907effffffffffffffffffffffffffffffffffffffffffffffffffffffffffffff1916908160001a90535060049490941c9361429181614e5c565b90506141fe565b50831561105f576040517f08c379a000000000000000000000000000000000000000000000000000000000815260206004820181905260248201527f537472696e67733a20686578206c656e67746820696e73756666696369656e746044820152606401611130565b606082471015614393576040517f08c379a000000000000000000000000000000000000000000000000000000000815260206004820152602660248201527f416464726573733a20696e73756666696369656e742062616c616e636520666f60448201527f722063616c6c00000000000000000000000000000000000000000000000000006064820152608401611130565b73ffffffffffffffffffffffffffffffffffffffff85163b614411576040517f08c379a000000000000000000000000000000000000000000000000000000000815260206004820152601d60248201527f416464726573733a2063616c6c20746f206e6f6e2d636f6e74726163740000006044820152606401611130565b6000808673ffffffffffffffffffffffffffffffffffffffff16858760405161443a9190614e91565b60006040518083038185875af1925050503d8060008114614477576040519150601f19603f3d011682016040523d82523d6000602084013e61447c565b606091505b5091509150612ba48282866060831561449657508161105f565b8251156144a65782518084602001fd5b816040517f08c379a00000000000000000000000000000000000000000000000000000000081526004016111309190614540565b6000602082840312156144ec57600080fd5b81357fffffffff000000000000000000000000000000000000000000000000000000008116811461105f57600080fd5b60005b8381101561453757818101518382015260200161451f565b50506000910152565b602081526000825180602084015261455f81604085016020870161451c565b601f017fffffffffffffffffffffffffffffffffffffffffffffffffffffffffffffffe0169190910160400192915050565b73ffffffffffffffffffffffffffffffffffffffff811681146111b257600080fd5b6000602082840312156145c557600080fd5b813561105f81614591565b600080604083850312156145e357600080fd5b82356145ee81614591565b946020939093013593505050565b60008060006060848603121561461157600080fd5b833561461c81614591565b9250602084013561462c81614591565b929592945050506040919091013590565b60008060006060848603121561465257600080fd5b833561465d81614591565b925060208401359150604084013561467481614591565b809150509250925092565b60006020828403121561469157600080fd5b5035919050565b600080604083850312156146ab57600080fd5b8235915060208301356146bd81614591565b809150509250929050565b6000806000606084860312156146dd57600080fd5b8335925060208401356146ef81614591565b9150604084013561467481614591565b7f4e487b7100000000000000000000000000000000000000000000000000000000600052604160045260246000fd5b600082601f83011261473f57600080fd5b813567ffffffffffffffff8082111561475a5761475a6146ff565b604051601f83017fffffffffffffffffffffffffffffffffffffffffffffffffffffffffffffffe0908116603f011681019082821181831017156147a0576147a06146ff565b816040528381528660208588010111156147b957600080fd5b836020870160208301376000602085830101528094505050505092915050565b600080604083850312156147ec57600080fd5b823567ffffffffffffffff8082111561480457600080fd5b6148108683870161472e565b9350602085013591508082111561482657600080fd5b506148338582860161472e565b9150509250929050565b803567ffffffffffffffff8116811461485557600080fd5b919050565b80151581146111b257600080fd5b600080600080600060a0868803121561488057600080fd5b853561488b81614591565b945060208601359350604086013592506148a76060870161483d565b915060808601356148b78161485a565b809150509295509295909350565b600080600080608085870312156148db57600080fd5b843567ffffffffffffffff808211156148f357600080fd5b6148ff8883890161472e565b9550602087013591508082111561491557600080fd5b506149228782880161472e565b935050604085013561493381614591565b9150606085013561494381614591565b939692955090935050565b6000806040838503121561496157600080fd5b823561496c81614591565b915061497a6020840161483d565b90509250929050565b6020808252825182820181905260009190848201906040850190845b818110156149d157835173ffffffffffffffffffffffffffffffffffffffff168352928401929184019160010161499f565b50909695505050505050565b6000806000604084860312156149f257600080fd5b83356149fd81614591565b9250602084013567ffffffffffffffff80821115614a1a57600080fd5b818601915086601f830112614a2e57600080fd5b813581811115614a3d57600080fd5b876020828501011115614a4f57600080fd5b6020830194508093505050509250925092565b60008060408385031215614a7557600080fd5b8235614a8081614591565b915060208301356146bd81614591565b600181811c90821680614aa457607f821691505b602082108103614add577f4e487b7100000000000000000000000000000000000000000000000000000000600052602260045260246000fd5b50919050565b600060208284031215614af557600080fd5b815161105f8161485a565b7f4e487b7100000000000000000000000000000000000000000000000000000000600052601160045260246000fd5b818103818111156109b9576109b9614b00565b600060208284031215614b5457600080fd5b5051919050565b808201808211156109b9576109b9614b00565b600082614ba4577f4e487b7100000000000000000000000000000000000000000000000000000000600052601260045260246000fd5b500490565b80820281158282048414176109b9576109b9614b00565b7f4e487b7100000000000000000000000000000000000000000000000000000000600052603260045260246000fd5b60007fffffffffffffffffffffffffffffffffffffffffffffffffffffffffffffffff8203614c2057614c20614b00565b5060010190565b7f4e487b7100000000000000000000000000000000000000000000000000000000600052603160045260246000fd5b601f82111561158e57600081815260208120601f850160051c81016020861015614c7d5750805b601f850160051c820191505b81811015614c9c57828155600101614c89565b505050505050565b815167ffffffffffffffff811115614cbe57614cbe6146ff565b614cd281614ccc8454614a90565b84614c56565b602080601f831160018114614d255760008415614cef5750858301515b7fffffffffffffffffffffffffffffffffffffffffffffffffffffffffffffffff600386901b1c1916600185901b178555614c9c565b6000858152602081207fffffffffffffffffffffffffffffffffffffffffffffffffffffffffffffffe08616915b82811015614d7257888601518255948401946001909101908401614d53565b5085821015614dae57878501517fffffffffffffffffffffffffffffffffffffffffffffffffffffffffffffffff600388901b60f8161c191681555b5050505050600190811b01905550565b600060208284031215614dd057600080fd5b815161105f81614591565b7f416363657373436f6e74726f6c3a206163636f756e7420000000000000000000815260008351614e1381601785016020880161451c565b7f206973206d697373696e6720726f6c65200000000000000000000000000000006017918401918201528351614e5081602884016020880161451c565b01602801949350505050565b600081614e6b57614e6b614b00565b507fffffffffffffffffffffffffffffffffffffffffffffffffffffffffffffffff0190565b60008251614ea381846020870161451c565b919091019291505056fea264697066735822122022df3b92370505b5112df5c228eb393a0b8f1a5380e586ea4031998342f41d1664736f6c63430008110033",
  "devdoc": {
    "author": "Angle Labs, Inc.",
    "kind": "dev",
    "methods": {
      "addBridgeToken(address,uint256,uint256,uint64,bool)": {
        "params": {
          "bridgeToken": "Bridge token to add: it should be a version of the stablecoin from another bridge",
          "fee": "Fee taken upon swapping for or against this token",
          "hourlyLimit": "Limit on the hourly volume for this bridge",
          "limit": "Limit on the balance of bridge token this contract could hold",
          "paused": "Whether swapping for this token should be paused or not"
        }
      },
      "allBridgeTokens()": {
        "details": "Helpful for UIs"
      },
      "allowance(address,address)": {
        "details": "See {IERC20-allowance}."
      },
      "approve(address,uint256)": {
        "details": "See {IERC20-approve}. Requirements: - `spender` cannot be the zero address."
      },
      "balanceOf(address)": {
        "details": "See {IERC20-balanceOf}."
      },
      "burnStablecoin(uint256)": {
        "details": "This function can typically be called if there is a settlement mechanism to burn stablecoins",
        "params": {
          "amount": "Amount of stablecoins to burn"
        }
      },
      "currentTotalUsage()": {
        "details": "Helpful for UIs"
      },
      "currentUsage(address)": {
        "details": "Helpful for UIs"
      },
      "decimals()": {
        "details": "Returns the number of decimals used to get its user representation. For example, if `decimals` equals `2`, a balance of `505` tokens should be displayed to a user as `5.05` (`505 / 10 ** 2`). Tokens usually opt for a value of 18, imitating the relationship between Ether and Wei. This is the value {ERC20} uses, unless this function is overridden; NOTE: This information is only used for _display_ purposes: it in no way affects any of the arithmetic of the contract, including {IERC20-balanceOf} and {IERC20-transfer}."
      },
      "decreaseAllowance(address,uint256)": {
        "details": "Atomically decreases the allowance granted to `spender` by the caller. This is an alternative to {approve} that can be used as a mitigation for problems described in {IERC20-approve}. Emits an {Approval} event indicating the updated allowance. Requirements: - `spender` cannot be the zero address. - `spender` must have allowance for the caller of at least `subtractedValue`."
      },
      "deposit(address,bytes)": {
        "params": {
          "depositData": "Encoded amount to mint",
          "user": "Address to mint the token to"
        }
      },
      "getRoleAdmin(bytes32)": {
        "details": "Returns the admin role that controls `role`. See {grantRole} and {revokeRole}. To change a role's admin, use {_setRoleAdmin}."
      },
      "grantRole(bytes32,address)": {
        "details": "Grants `role` to `account`. If `account` had not been already granted `role`, emits a {RoleGranted} event. Requirements: - the caller must have ``role``'s admin role. May emit a {RoleGranted} event."
      },
      "hasRole(bytes32,address)": {
        "details": "Returns `true` if `account` has been granted `role`."
      },
      "increaseAllowance(address,uint256)": {
        "details": "Atomically increases the allowance granted to `spender` by the caller. This is an alternative to {approve} that can be used as a mitigation for problems described in {IERC20-approve}. Emits an {Approval} event indicating the updated allowance. Requirements: - `spender` cannot be the zero address."
      },
      "name()": {
        "details": "Returns the name of the token."
      },
      "recoverERC20(address,address,uint256)": {
        "details": "Can be used to withdraw bridge tokens for them to be de-bridged on mainnet"
      },
      "removeBridgeToken(address)": {
        "params": {
          "bridgeToken": "Address of the bridge token to remove support for"
        }
      },
      "renounceRole(bytes32,address)": {
        "details": "Revokes `role` from the calling account. Roles are often managed via {grantRole} and {revokeRole}: this function's purpose is to provide a mechanism for accounts to lose their privileges if they are compromised (such as when a trusted device is misplaced). If the calling account had been revoked `role`, emits a {RoleRevoked} event. Requirements: - the caller must be `account`. May emit a {RoleRevoked} event."
      },
      "revokeRole(bytes32,address)": {
        "details": "Revokes `role` from `account`. If `account` had been granted `role`, emits a {RoleRevoked} event. Requirements: - the caller must have ``role``'s admin role. May emit a {RoleRevoked} event."
      },
      "setUpTreasury(address)": {
        "params": {
          "_treasury": "Address of the treasury contract"
        }
      },
      "supportsInterface(bytes4)": {
        "details": "See {IERC165-supportsInterface}."
      },
      "swapIn(address,uint256,address)": {
        "details": "Some fees may be taken by the protocol depending on the token used and on the address calling",
        "params": {
          "amount": "Amount of bridge tokens to send",
          "bridgeToken": "Bridge token to use to mint",
          "to": "Address to which the stablecoin should be sent"
        }
      },
      "swapOut(address,uint256,address)": {
        "details": "Some fees may be taken by the protocol depending on the token used and on the address calling",
        "params": {
          "amount": "Amount of canonical tokens to burn",
          "bridgeToken": "Bridge token required",
          "to": "Address to which the bridge token should be sent"
        }
      },
      "symbol()": {
        "details": "Returns the symbol of the token, usually a shorter version of the name."
      },
      "totalSupply()": {
        "details": "See {IERC20-totalSupply}."
      },
      "transfer(address,uint256)": {
        "details": "See {IERC20-transfer}. Requirements: - `recipient` cannot be the zero address. - the caller must have a balance of at least `amount`."
      },
      "transferFrom(address,address,uint256)": {
        "details": "See {IERC20-transferFrom}. Emits an {Approval} event indicating the updated allowance. This is not required by the EIP. See the note at the beginning of {ERC20}. Requirements: - `sender` and `recipient` cannot be the zero address. - `sender` must have a balance of at least `amount`. - the caller must have allowance for `sender`'s tokens of at least `amount`."
      },
      "withdraw(uint256)": {
        "details": "Should burn user's tokens. This transaction will be verified when exiting on root chain",
        "params": {
          "amount": "Amount of tokens to withdraw"
        }
      }
    },
    "title": "TokenPolygonUpgradeableNameable",
    "version": 1
  },
  "userdoc": {
    "kind": "user",
    "methods": {
      "BASE_PARAMS()": {
        "notice": "Base used for fee computation"
      },
      "addBridgeToken(address,uint256,uint256,uint64,bool)": {
        "notice": "Adds support for a bridge token"
      },
      "allBridgeTokens()": {
        "notice": "Returns the list of all supported bridge tokens"
      },
      "bridgeTokensList(uint256)": {
        "notice": "List of all bridge tokens"
      },
      "bridges(address)": {
        "notice": "Maps a bridge token to data"
      },
      "burnStablecoin(uint256)": {
        "notice": "Allows anyone to burn agToken without redeeming collateral back"
      },
      "chainTotalHourlyLimit()": {
        "notice": "Limit to the amount of tokens that can be sent from that chain to another chain"
      },
      "chainTotalUsage(uint256)": {
        "notice": "Usage per hour on that chain. Maps an hourly timestamp to the total volume swapped out on the chain"
      },
      "currentTotalUsage()": {
        "notice": "Returns the current total volume on the chain for the current hour"
      },
      "currentUsage(address)": {
        "notice": "Returns the current volume for a bridge, for the current hour"
      },
      "deposit(address,bytes)": {
        "notice": "Called when the bridge has tokens to mint"
      },
      "isFeeExempt(address)": {
        "notice": "Maps an address to whether it is exempt of fees for when it comes to swapping in and out"
      },
      "recoverERC20(address,address,uint256)": {
        "notice": "Recovers any ERC20 token"
      },
      "removeBridgeToken(address)": {
        "notice": "Removes support for a token"
      },
      "setChainTotalHourlyLimit(uint256)": {
        "notice": "Updates the `chainTotalHourlyLimit` amount"
      },
      "setHourlyLimit(address,uint256)": {
        "notice": "Updates the `hourlyLimit` amount for `bridgeToken`"
      },
      "setLimit(address,uint256)": {
        "notice": "Updates the `limit` amount for `bridgeToken`"
      },
      "setNameAndSymbol(string,string)": {
        "notice": "Updates the name and symbol of the token"
      },
      "setSwapFee(address,uint64)": {
        "notice": "Updates the `fee` value for `bridgeToken`"
      },
      "setUpTreasury(address)": {
        "notice": "Sets up the treasury contract on Polygon after the upgrade"
      },
      "swapIn(address,uint256,address)": {
        "notice": "Mints the canonical token from a supported bridge token"
      },
      "swapOut(address,uint256,address)": {
        "notice": "Burns the canonical token in exchange for a bridge token"
      },
      "toggleBridge(address)": {
        "notice": "Pauses or unpauses swapping in and out for a token"
      },
      "toggleFeesForAddress(address)": {
        "notice": "Toggles fees for the address `theAddress`"
      },
      "treasury()": {
        "notice": "Reference to the treasury contract which can grant minting rights"
      },
      "treasuryInitialized()": {
        "notice": "Boolean to check whether the contract has been reinitialized after its upgrade"
      },
      "usage(address,uint256)": {
        "notice": "Maps a bridge token to the associated hourly volume"
      },
      "withdraw(uint256)": {
        "notice": "Called when user wants to withdraw tokens back to root chain"
      }
    },
    "version": 1
  },
  "storageLayout": {
    "storage": [
      {
        "astId": 770,
        "contract": "contracts/agToken/nameable/TokenPolygonUpgradeableNameable.sol:TokenPolygonUpgradeableNameable",
        "label": "_initialized",
        "offset": 0,
        "slot": "0",
        "type": "t_uint8"
      },
      {
        "astId": 773,
        "contract": "contracts/agToken/nameable/TokenPolygonUpgradeableNameable.sol:TokenPolygonUpgradeableNameable",
        "label": "_initializing",
        "offset": 1,
        "slot": "0",
        "type": "t_bool"
      },
      {
        "astId": 2527,
        "contract": "contracts/agToken/nameable/TokenPolygonUpgradeableNameable.sol:TokenPolygonUpgradeableNameable",
        "label": "__gap",
        "offset": 0,
        "slot": "1",
        "type": "t_array(t_uint256)50_storage"
      },
      {
        "astId": 12094,
        "contract": "contracts/agToken/nameable/TokenPolygonUpgradeableNameable.sol:TokenPolygonUpgradeableNameable",
        "label": "_balances",
        "offset": 0,
        "slot": "51",
        "type": "t_mapping(t_address,t_uint256)"
      },
      {
        "astId": 12100,
        "contract": "contracts/agToken/nameable/TokenPolygonUpgradeableNameable.sol:TokenPolygonUpgradeableNameable",
        "label": "_allowances",
        "offset": 0,
        "slot": "52",
        "type": "t_mapping(t_address,t_mapping(t_address,t_uint256))"
      },
      {
        "astId": 12102,
        "contract": "contracts/agToken/nameable/TokenPolygonUpgradeableNameable.sol:TokenPolygonUpgradeableNameable",
        "label": "_totalSupply",
        "offset": 0,
        "slot": "53",
        "type": "t_uint256"
      },
      {
        "astId": 12104,
        "contract": "contracts/agToken/nameable/TokenPolygonUpgradeableNameable.sol:TokenPolygonUpgradeableNameable",
        "label": "_name",
        "offset": 0,
        "slot": "54",
        "type": "t_string_storage"
      },
      {
        "astId": 12106,
        "contract": "contracts/agToken/nameable/TokenPolygonUpgradeableNameable.sol:TokenPolygonUpgradeableNameable",
        "label": "_symbol",
        "offset": 0,
        "slot": "55",
        "type": "t_string_storage"
      },
      {
        "astId": 12719,
        "contract": "contracts/agToken/nameable/TokenPolygonUpgradeableNameable.sol:TokenPolygonUpgradeableNameable",
        "label": "__gap",
        "offset": 0,
        "slot": "56",
        "type": "t_array(t_uint256)45_storage"
      },
      {
        "astId": 3428,
        "contract": "contracts/agToken/nameable/TokenPolygonUpgradeableNameable.sol:TokenPolygonUpgradeableNameable",
        "label": "__gap",
        "offset": 0,
        "slot": "101",
        "type": "t_array(t_uint256)50_storage"
      },
      {
        "astId": 230,
        "contract": "contracts/agToken/nameable/TokenPolygonUpgradeableNameable.sol:TokenPolygonUpgradeableNameable",
        "label": "_roles",
        "offset": 0,
        "slot": "151",
        "type": "t_mapping(t_bytes32,t_struct(RoleData)225_storage)"
      },
      {
        "astId": 529,
        "contract": "contracts/agToken/nameable/TokenPolygonUpgradeableNameable.sol:TokenPolygonUpgradeableNameable",
        "label": "__gap",
        "offset": 0,
        "slot": "152",
        "type": "t_array(t_uint256)49_storage"
      },
      {
        "astId": 3244,
        "contract": "contracts/agToken/nameable/TokenPolygonUpgradeableNameable.sol:TokenPolygonUpgradeableNameable",
        "label": "_HASHED_NAME",
        "offset": 0,
        "slot": "201",
        "type": "t_bytes32"
      },
      {
        "astId": 3246,
        "contract": "contracts/agToken/nameable/TokenPolygonUpgradeableNameable.sol:TokenPolygonUpgradeableNameable",
        "label": "_HASHED_VERSION",
        "offset": 0,
        "slot": "202",
        "type": "t_bytes32"
      },
      {
        "astId": 3384,
        "contract": "contracts/agToken/nameable/TokenPolygonUpgradeableNameable.sol:TokenPolygonUpgradeableNameable",
        "label": "__gap",
        "offset": 0,
        "slot": "203",
        "type": "t_array(t_uint256)50_storage"
      },
      {
        "astId": 10949,
        "contract": "contracts/agToken/nameable/TokenPolygonUpgradeableNameable.sol:TokenPolygonUpgradeableNameable",
        "label": "isMinter",
        "offset": 0,
        "slot": "253",
        "type": "t_mapping(t_address,t_bool)"
      },
      {
        "astId": 10952,
        "contract": "contracts/agToken/nameable/TokenPolygonUpgradeableNameable.sol:TokenPolygonUpgradeableNameable",
        "label": "treasury",
        "offset": 0,
        "slot": "254",
        "type": "t_address"
      },
      {
        "astId": 10955,
        "contract": "contracts/agToken/nameable/TokenPolygonUpgradeableNameable.sol:TokenPolygonUpgradeableNameable",
        "label": "treasuryInitialized",
        "offset": 20,
        "slot": "254",
        "type": "t_bool"
      },
      {
        "astId": 10982,
        "contract": "contracts/agToken/nameable/TokenPolygonUpgradeableNameable.sol:TokenPolygonUpgradeableNameable",
        "label": "bridges",
        "offset": 0,
        "slot": "255",
        "type": "t_mapping(t_address,t_struct(BridgeDetails)10976_storage)"
      },
      {
        "astId": 10986,
        "contract": "contracts/agToken/nameable/TokenPolygonUpgradeableNameable.sol:TokenPolygonUpgradeableNameable",
        "label": "bridgeTokensList",
        "offset": 0,
        "slot": "256",
        "type": "t_array(t_address)dyn_storage"
      },
      {
        "astId": 10993,
        "contract": "contracts/agToken/nameable/TokenPolygonUpgradeableNameable.sol:TokenPolygonUpgradeableNameable",
        "label": "usage",
        "offset": 0,
        "slot": "257",
        "type": "t_mapping(t_address,t_mapping(t_uint256,t_uint256))"
      },
      {
        "astId": 10998,
        "contract": "contracts/agToken/nameable/TokenPolygonUpgradeableNameable.sol:TokenPolygonUpgradeableNameable",
        "label": "isFeeExempt",
        "offset": 0,
        "slot": "258",
        "type": "t_mapping(t_address,t_uint256)"
      },
      {
        "astId": 11001,
        "contract": "contracts/agToken/nameable/TokenPolygonUpgradeableNameable.sol:TokenPolygonUpgradeableNameable",
        "label": "chainTotalHourlyLimit",
        "offset": 0,
        "slot": "259",
        "type": "t_uint256"
      },
      {
        "astId": 11006,
        "contract": "contracts/agToken/nameable/TokenPolygonUpgradeableNameable.sol:TokenPolygonUpgradeableNameable",
        "label": "chainTotalUsage",
        "offset": 0,
        "slot": "260",
        "type": "t_mapping(t_uint256,t_uint256)"
      },
      {
        "astId": 11010,
        "contract": "contracts/agToken/nameable/TokenPolygonUpgradeableNameable.sol:TokenPolygonUpgradeableNameable",
        "label": "__gap",
        "offset": 0,
        "slot": "261",
        "type": "t_array(t_uint256)42_storage"
      },
      {
        "astId": 10762,
        "contract": "contracts/agToken/nameable/TokenPolygonUpgradeableNameable.sol:TokenPolygonUpgradeableNameable",
        "label": "__name",
        "offset": 0,
        "slot": "303",
        "type": "t_string_storage"
      },
      {
        "astId": 10764,
        "contract": "contracts/agToken/nameable/TokenPolygonUpgradeableNameable.sol:TokenPolygonUpgradeableNameable",
        "label": "__symbol",
        "offset": 0,
        "slot": "304",
        "type": "t_string_storage"
      },
      {
        "astId": 10768,
        "contract": "contracts/agToken/nameable/TokenPolygonUpgradeableNameable.sol:TokenPolygonUpgradeableNameable",
        "label": "__gapNameable",
        "offset": 0,
        "slot": "305",
        "type": "t_array(t_uint256)48_storage"
      }
    ],
    "types": {
      "t_address": {
        "encoding": "inplace",
        "label": "address",
        "numberOfBytes": "20"
      },
      "t_array(t_address)dyn_storage": {
        "base": "t_address",
        "encoding": "dynamic_array",
        "label": "address[]",
        "numberOfBytes": "32"
      },
      "t_array(t_uint256)42_storage": {
        "base": "t_uint256",
        "encoding": "inplace",
        "label": "uint256[42]",
        "numberOfBytes": "1344"
      },
      "t_array(t_uint256)45_storage": {
        "base": "t_uint256",
        "encoding": "inplace",
        "label": "uint256[45]",
        "numberOfBytes": "1440"
      },
      "t_array(t_uint256)48_storage": {
        "base": "t_uint256",
        "encoding": "inplace",
        "label": "uint256[48]",
        "numberOfBytes": "1536"
      },
      "t_array(t_uint256)49_storage": {
        "base": "t_uint256",
        "encoding": "inplace",
        "label": "uint256[49]",
        "numberOfBytes": "1568"
      },
      "t_array(t_uint256)50_storage": {
        "base": "t_uint256",
        "encoding": "inplace",
        "label": "uint256[50]",
        "numberOfBytes": "1600"
      },
      "t_bool": {
        "encoding": "inplace",
        "label": "bool",
        "numberOfBytes": "1"
      },
      "t_bytes32": {
        "encoding": "inplace",
        "label": "bytes32",
        "numberOfBytes": "32"
      },
      "t_mapping(t_address,t_bool)": {
        "encoding": "mapping",
        "key": "t_address",
        "label": "mapping(address => bool)",
        "numberOfBytes": "32",
        "value": "t_bool"
      },
      "t_mapping(t_address,t_mapping(t_address,t_uint256))": {
        "encoding": "mapping",
        "key": "t_address",
        "label": "mapping(address => mapping(address => uint256))",
        "numberOfBytes": "32",
        "value": "t_mapping(t_address,t_uint256)"
      },
      "t_mapping(t_address,t_mapping(t_uint256,t_uint256))": {
        "encoding": "mapping",
        "key": "t_address",
        "label": "mapping(address => mapping(uint256 => uint256))",
        "numberOfBytes": "32",
        "value": "t_mapping(t_uint256,t_uint256)"
      },
      "t_mapping(t_address,t_struct(BridgeDetails)10976_storage)": {
        "encoding": "mapping",
        "key": "t_address",
        "label": "mapping(address => struct TokenPolygonUpgradeable.BridgeDetails)",
        "numberOfBytes": "32",
        "value": "t_struct(BridgeDetails)10976_storage"
      },
      "t_mapping(t_address,t_uint256)": {
        "encoding": "mapping",
        "key": "t_address",
        "label": "mapping(address => uint256)",
        "numberOfBytes": "32",
        "value": "t_uint256"
      },
      "t_mapping(t_bytes32,t_struct(RoleData)225_storage)": {
        "encoding": "mapping",
        "key": "t_bytes32",
        "label": "mapping(bytes32 => struct AccessControlUpgradeable.RoleData)",
        "numberOfBytes": "32",
        "value": "t_struct(RoleData)225_storage"
      },
      "t_mapping(t_uint256,t_uint256)": {
        "encoding": "mapping",
        "key": "t_uint256",
        "label": "mapping(uint256 => uint256)",
        "numberOfBytes": "32",
        "value": "t_uint256"
      },
      "t_string_storage": {
        "encoding": "bytes",
        "label": "string",
        "numberOfBytes": "32"
      },
      "t_struct(BridgeDetails)10976_storage": {
        "encoding": "inplace",
        "label": "struct TokenPolygonUpgradeable.BridgeDetails",
        "members": [
          {
            "astId": 10967,
            "contract": "contracts/agToken/nameable/TokenPolygonUpgradeableNameable.sol:TokenPolygonUpgradeableNameable",
            "label": "limit",
            "offset": 0,
            "slot": "0",
            "type": "t_uint256"
          },
          {
            "astId": 10969,
            "contract": "contracts/agToken/nameable/TokenPolygonUpgradeableNameable.sol:TokenPolygonUpgradeableNameable",
            "label": "hourlyLimit",
            "offset": 0,
            "slot": "1",
            "type": "t_uint256"
          },
          {
            "astId": 10971,
            "contract": "contracts/agToken/nameable/TokenPolygonUpgradeableNameable.sol:TokenPolygonUpgradeableNameable",
            "label": "fee",
            "offset": 0,
            "slot": "2",
            "type": "t_uint64"
          },
          {
            "astId": 10973,
            "contract": "contracts/agToken/nameable/TokenPolygonUpgradeableNameable.sol:TokenPolygonUpgradeableNameable",
            "label": "allowed",
            "offset": 8,
            "slot": "2",
            "type": "t_bool"
          },
          {
            "astId": 10975,
            "contract": "contracts/agToken/nameable/TokenPolygonUpgradeableNameable.sol:TokenPolygonUpgradeableNameable",
            "label": "paused",
            "offset": 9,
            "slot": "2",
            "type": "t_bool"
          }
        ],
        "numberOfBytes": "96"
      },
      "t_struct(RoleData)225_storage": {
        "encoding": "inplace",
        "label": "struct AccessControlUpgradeable.RoleData",
        "members": [
          {
            "astId": 222,
            "contract": "contracts/agToken/nameable/TokenPolygonUpgradeableNameable.sol:TokenPolygonUpgradeableNameable",
            "label": "members",
            "offset": 0,
            "slot": "0",
            "type": "t_mapping(t_address,t_bool)"
          },
          {
            "astId": 224,
            "contract": "contracts/agToken/nameable/TokenPolygonUpgradeableNameable.sol:TokenPolygonUpgradeableNameable",
            "label": "adminRole",
            "offset": 0,
            "slot": "1",
            "type": "t_bytes32"
          }
        ],
        "numberOfBytes": "64"
      },
      "t_uint256": {
        "encoding": "inplace",
        "label": "uint256",
        "numberOfBytes": "32"
      },
      "t_uint64": {
        "encoding": "inplace",
        "label": "uint64",
        "numberOfBytes": "8"
      },
      "t_uint8": {
        "encoding": "inplace",
        "label": "uint8",
        "numberOfBytes": "1"
      }
    }
  }
}