{
  "address": "0xA2875bC2e4D1567190FA7A045427041D51B7C2B1",
  "abi": [
    {
      "inputs": [],
      "stateMutability": "nonpayable",
      "type": "constructor"
    },
    {
      "inputs": [],
      "name": "IncompatibleGovernorAndGuardian",
      "type": "error"
    },
    {
      "inputs": [],
      "name": "InvalidCore",
      "type": "error"
    },
    {
      "inputs": [],
      "name": "NotEnoughGovernorsLeft",
      "type": "error"
    },
    {
      "inputs": [],
      "name": "ZeroAddress",
      "type": "error"
    },
    {
      "anonymous": false,
      "inputs": [
        {
          "indexed": true,
          "internalType": "address",
          "name": "_core",
          "type": "address"
        }
      ],
      "name": "CoreUpdated",
      "type": "event"
    },
    {
      "anonymous": false,
      "inputs": [
        {
          "indexed": true,
          "internalType": "address",
          "name": "_flashloanModule",
          "type": "address"
        }
      ],
      "name": "FlashLoanModuleUpdated",
      "type": "event"
    },
    {
      "anonymous": false,
      "inputs": [
        {
          "indexed": true,
          "internalType": "bytes32",
          "name": "role",
          "type": "bytes32"
        },
        {
          "indexed": true,
          "internalType": "bytes32",
          "name": "previousAdminRole",
          "type": "bytes32"
        },
        {
          "indexed": true,
          "internalType": "bytes32",
          "name": "newAdminRole",
          "type": "bytes32"
        }
      ],
      "name": "RoleAdminChanged",
      "type": "event"
    },
    {
      "anonymous": false,
      "inputs": [
        {
          "indexed": true,
          "internalType": "bytes32",
          "name": "role",
          "type": "bytes32"
        },
        {
          "indexed": true,
          "internalType": "address",
          "name": "account",
          "type": "address"
        },
        {
          "indexed": true,
          "internalType": "address",
          "name": "sender",
          "type": "address"
        }
      ],
      "name": "RoleGranted",
      "type": "event"
    },
    {
      "anonymous": false,
      "inputs": [
        {
          "indexed": true,
          "internalType": "bytes32",
          "name": "role",
          "type": "bytes32"
        },
        {
          "indexed": true,
          "internalType": "address",
          "name": "account",
          "type": "address"
        },
        {
          "indexed": true,
          "internalType": "address",
          "name": "sender",
          "type": "address"
        }
      ],
      "name": "RoleRevoked",
      "type": "event"
    },
    {
      "inputs": [],
      "name": "DEFAULT_ADMIN_ROLE",
      "outputs": [
        {
          "internalType": "bytes32",
          "name": "",
          "type": "bytes32"
        }
      ],
      "stateMutability": "view",
      "type": "function"
    },
    {
      "inputs": [],
      "name": "FLASHLOANER_TREASURY_ROLE",
      "outputs": [
        {
          "internalType": "bytes32",
          "name": "",
          "type": "bytes32"
        }
      ],
      "stateMutability": "view",
      "type": "function"
    },
    {
      "inputs": [],
      "name": "GOVERNOR_ROLE",
      "outputs": [
        {
          "internalType": "bytes32",
          "name": "",
          "type": "bytes32"
        }
      ],
      "stateMutability": "view",
      "type": "function"
    },
    {
      "inputs": [],
      "name": "GUARDIAN_ROLE",
      "outputs": [
        {
          "internalType": "bytes32",
          "name": "",
          "type": "bytes32"
        }
      ],
      "stateMutability": "view",
      "type": "function"
    },
    {
      "inputs": [
        {
          "internalType": "address",
          "name": "treasury",
          "type": "address"
        }
      ],
      "name": "addFlashLoanerTreasuryRole",
      "outputs": [],
      "stateMutability": "nonpayable",
      "type": "function"
    },
    {
      "inputs": [
        {
          "internalType": "address",
          "name": "governor",
          "type": "address"
        }
      ],
      "name": "addGovernor",
      "outputs": [],
      "stateMutability": "nonpayable",
      "type": "function"
    },
    {
      "inputs": [],
      "name": "flashLoanModule",
      "outputs": [
        {
          "internalType": "address",
          "name": "",
          "type": "address"
        }
      ],
      "stateMutability": "view",
      "type": "function"
    },
    {
      "inputs": [
        {
          "internalType": "bytes32",
          "name": "role",
          "type": "bytes32"
        }
      ],
      "name": "getRoleAdmin",
      "outputs": [
        {
          "internalType": "bytes32",
          "name": "",
          "type": "bytes32"
        }
      ],
      "stateMutability": "view",
      "type": "function"
    },
    {
      "inputs": [
        {
          "internalType": "bytes32",
          "name": "role",
          "type": "bytes32"
        },
        {
          "internalType": "uint256",
          "name": "index",
          "type": "uint256"
        }
      ],
      "name": "getRoleMember",
      "outputs": [
        {
          "internalType": "address",
          "name": "",
          "type": "address"
        }
      ],
      "stateMutability": "view",
      "type": "function"
    },
    {
      "inputs": [
        {
          "internalType": "bytes32",
          "name": "role",
          "type": "bytes32"
        }
      ],
      "name": "getRoleMemberCount",
      "outputs": [
        {
          "internalType": "uint256",
          "name": "",
          "type": "uint256"
        }
      ],
      "stateMutability": "view",
      "type": "function"
    },
    {
      "inputs": [
        {
          "internalType": "bytes32",
          "name": "role",
          "type": "bytes32"
        },
        {
          "internalType": "address",
          "name": "account",
          "type": "address"
        }
      ],
      "name": "grantRole",
      "outputs": [],
      "stateMutability": "nonpayable",
      "type": "function"
    },
    {
      "inputs": [
        {
          "internalType": "bytes32",
          "name": "role",
          "type": "bytes32"
        },
        {
          "internalType": "address",
          "name": "account",
          "type": "address"
        }
      ],
      "name": "hasRole",
      "outputs": [
        {
          "internalType": "bool",
          "name": "",
          "type": "bool"
        }
      ],
      "stateMutability": "view",
      "type": "function"
    },
    {
      "inputs": [
        {
          "internalType": "address",
          "name": "governor",
          "type": "address"
        },
        {
          "internalType": "address",
          "name": "guardian",
          "type": "address"
        }
      ],
      "name": "initialize",
      "outputs": [],
      "stateMutability": "nonpayable",
      "type": "function"
    },
    {
      "inputs": [
        {
          "internalType": "address",
          "name": "treasury",
          "type": "address"
        }
      ],
      "name": "isFlashLoanerTreasury",
      "outputs": [
        {
          "internalType": "bool",
          "name": "",
          "type": "bool"
        }
      ],
      "stateMutability": "view",
      "type": "function"
    },
    {
      "inputs": [
        {
          "internalType": "address",
          "name": "admin",
          "type": "address"
        }
      ],
      "name": "isGovernor",
      "outputs": [
        {
          "internalType": "bool",
          "name": "",
          "type": "bool"
        }
      ],
      "stateMutability": "view",
      "type": "function"
    },
    {
      "inputs": [
        {
          "internalType": "address",
          "name": "admin",
          "type": "address"
        }
      ],
      "name": "isGovernorOrGuardian",
      "outputs": [
        {
          "internalType": "bool",
          "name": "",
          "type": "bool"
        }
      ],
      "stateMutability": "view",
      "type": "function"
    },
    {
      "inputs": [
        {
          "internalType": "address",
          "name": "treasury",
          "type": "address"
        }
      ],
      "name": "removeFlashLoanerTreasuryRole",
      "outputs": [],
      "stateMutability": "nonpayable",
      "type": "function"
    },
    {
      "inputs": [
        {
          "internalType": "address",
          "name": "governor",
          "type": "address"
        }
      ],
      "name": "removeGovernor",
      "outputs": [],
      "stateMutability": "nonpayable",
      "type": "function"
    },
    {
      "inputs": [
        {
          "internalType": "bytes32",
          "name": "role",
          "type": "bytes32"
        },
        {
          "internalType": "address",
          "name": "account",
          "type": "address"
        }
      ],
      "name": "renounceRole",
      "outputs": [],
      "stateMutability": "nonpayable",
      "type": "function"
    },
    {
      "inputs": [
        {
          "internalType": "bytes32",
          "name": "role",
          "type": "bytes32"
        },
        {
          "internalType": "address",
          "name": "account",
          "type": "address"
        }
      ],
      "name": "revokeRole",
      "outputs": [],
      "stateMutability": "nonpayable",
      "type": "function"
    },
    {
      "inputs": [
        {
          "internalType": "contract ICoreBorrow",
          "name": "_core",
          "type": "address"
        }
      ],
      "name": "setCore",
      "outputs": [],
      "stateMutability": "nonpayable",
      "type": "function"
    },
    {
      "inputs": [
        {
          "internalType": "address",
          "name": "_flashLoanModule",
          "type": "address"
        }
      ],
      "name": "setFlashLoanModule",
      "outputs": [],
      "stateMutability": "nonpayable",
      "type": "function"
    },
    {
      "inputs": [
        {
          "internalType": "bytes4",
          "name": "interfaceId",
          "type": "bytes4"
        }
      ],
      "name": "supportsInterface",
      "outputs": [
        {
          "internalType": "bool",
          "name": "",
          "type": "bool"
        }
      ],
      "stateMutability": "view",
      "type": "function"
    }
  ],
  "transactionHash": "0xb49727ba445be3f77b1ffe479b68d20878ade5e1e817c33c423315d810cd8836",
  "args": [],
  "solcInputHash": "72f813822ab8e3f9a9095394adc60e2a",
  "bytecode": "0x60806040523480156200001157600080fd5b50600054610100900460ff166200002f5760005460ff161562000039565b62000039620000de565b620000a15760405162461bcd60e51b815260206004820152602e60248201527f496e697469616c697a61626c653a20636f6e747261637420697320616c72656160448201526d191e481a5b9a5d1a585b1a5e995960921b606482015260840160405180910390fd5b600054610100900460ff16158015620000c4576000805461ffff19166101011790555b8015620000d7576000805461ff00191690555b5062000102565b6000620000f630620000fc60201b6200123a1760201c565b15905090565b3b151590565b611e2180620001126000396000f3fe608060405234801561001057600080fd5b506004361061018d5760003560e01c806380009630116100e3578063ccc574901161008c578063eecdac8811610066578063eecdac88146103c5578063ef5f12c5146103d8578063f02dd8a2146103ff57600080fd5b8063ccc5749014610378578063d547741f1461039f578063e43581b8146103b257600080fd5b8063959d5a01116100bd578063959d5a011461033d578063a217fddf1461035d578063ca15c8731461036557600080fd5b806380009630146102ac5780639010d07c146102bf57806391d14854146102f757600080fd5b806336568abe11610145578063485cc9551161011f578063485cc95514610273578063521d4de9146102865780635704cc461461029957600080fd5b806336568abe1461023a5780633c4a25d01461024d578063449ba8811461026057600080fd5b8063248a9ca311610176578063248a9ca3146101cf57806324ea54f4146102005780632f2ff15d1461022757600080fd5b806301ffc9a71461019257806321c29f92146101ba575b600080fd5b6101a56101a03660046119fa565b610412565b60405190151581526020015b60405180910390f35b6101cd6101c8366004611a5e565b61046e565b005b6101f26101dd366004611a7b565b60009081526065602052604090206001015490565b6040519081526020016101b1565b6101f27f55435dd261a4b9b3364963f7738a7a662ad9c84396d64be3365284bb7f0a504181565b6101cd610235366004611a94565b6106f2565b6101cd610248366004611a94565b61071d565b6101cd61025b366004611a5e565b6107d5565b6101cd61026e366004611a5e565b61082c565b6101cd610281366004611ac4565b610980565b6101a5610294366004611a5e565b610cad565b6101cd6102a7366004611a5e565b610cfa565b6101cd6102ba366004611a5e565b610e18565b6102d26102cd366004611af2565b61108e565b60405173ffffffffffffffffffffffffffffffffffffffff90911681526020016101b1565b6101a5610305366004611a94565b600091825260656020908152604080842073ffffffffffffffffffffffffffffffffffffffff93909316845291905290205460ff1690565b60c9546102d29073ffffffffffffffffffffffffffffffffffffffff1681565b6101f2600081565b6101f2610373366004611a7b565b6110ad565b6101f27f7935bd0ae54bc31f548c14dba4d37c5c64b3f8ca900cb468fb8abd54d5894f5581565b6101cd6103ad366004611a94565b6110c4565b6101a56103c0366004611a5e565b6110ea565b6101cd6103d3366004611a5e565b611137565b6101f27f0ae0130c6b34f32239dfe5e419a3fbd7546b44e99783257f2d93526d5a936d4681565b6101a561040d366004611a5e565b6111ed565b60007fffffffff0000000000000000000000000000000000000000000000000000000082167f5a05180f000000000000000000000000000000000000000000000000000000001480610468575061046882611240565b92915050565b7f7935bd0ae54bc31f548c14dba4d37c5c64b3f8ca900cb468fb8abd54d5894f5561049981336112d7565b73ffffffffffffffffffffffffffffffffffffffff821615610588573073ffffffffffffffffffffffffffffffffffffffff168273ffffffffffffffffffffffffffffffffffffffff1663f2f4eb266040518163ffffffff1660e01b8152600401602060405180830381865afa158015610517573d6000803e3d6000fd5b505050506040513d601f19601f8201168201806040525081019061053b9190611b14565b73ffffffffffffffffffffffffffffffffffffffff1614610588576040517fc5c23c8d00000000000000000000000000000000000000000000000000000000815260040160405180910390fd5b60006105b37f0ae0130c6b34f32239dfe5e419a3fbd7546b44e99783257f2d93526d5a936d466110ad565b905060005b81811015610680576105ea7f0ae0130c6b34f32239dfe5e419a3fbd7546b44e99783257f2d93526d5a936d468261108e565b6040517f21c29f9200000000000000000000000000000000000000000000000000000000815273ffffffffffffffffffffffffffffffffffffffff868116600483015291909116906321c29f9290602401600060405180830381600087803b15801561065557600080fd5b505af1158015610669573d6000803e3d6000fd5b50505050808061067890611b60565b9150506105b8565b5060c980547fffffffffffffffffffffffff00000000000000000000000000000000000000001673ffffffffffffffffffffffffffffffffffffffff85169081179091556040517ffcbb758b478e66ede9f90baed6bef1a7563f6da23642cf16a274e18b66cd8baa90600090a2505050565b60008281526065602052604090206001015461070e81336112d7565b61071883836113a9565b505050565b73ffffffffffffffffffffffffffffffffffffffff811633146107c7576040517f08c379a000000000000000000000000000000000000000000000000000000000815260206004820152602f60248201527f416363657373436f6e74726f6c3a2063616e206f6e6c792072656e6f756e636560448201527f20726f6c657320666f722073656c66000000000000000000000000000000000060648201526084015b60405180910390fd5b6107d182826113cb565b5050565b6107ff7f7935bd0ae54bc31f548c14dba4d37c5c64b3f8ca900cb468fb8abd54d5894f55826106f2565b6108297f55435dd261a4b9b3364963f7738a7a662ad9c84396d64be3365284bb7f0a5041826106f2565b50565b6108567f0ae0130c6b34f32239dfe5e419a3fbd7546b44e99783257f2d93526d5a936d46826110c4565b6040517f21c29f920000000000000000000000000000000000000000000000000000000081526000600482015273ffffffffffffffffffffffffffffffffffffffff8216906321c29f9290602401600060405180830381600087803b1580156108be57600080fd5b505af11580156108d2573d6000803e3d6000fd5b505060c95473ffffffffffffffffffffffffffffffffffffffff1691505080156107d15760c9546040517f543bd64700000000000000000000000000000000000000000000000000000000815273ffffffffffffffffffffffffffffffffffffffff84811660048301529091169063543bd647906024015b600060405180830381600087803b15801561096457600080fd5b505af1158015610978573d6000803e3d6000fd5b505050505050565b600054610100900460ff1661099b5760005460ff161561099f565b303b155b610a2b576040517f08c379a000000000000000000000000000000000000000000000000000000000815260206004820152602e60248201527f496e697469616c697a61626c653a20636f6e747261637420697320616c72656160448201527f647920696e697469616c697a656400000000000000000000000000000000000060648201526084016107be565b600054610100900460ff16158015610a6a57600080547fffffffffffffffffffffffffffffffffffffffffffffffffffffffffffff0000166101011790555b73ffffffffffffffffffffffffffffffffffffffff83161580610aa1575073ffffffffffffffffffffffffffffffffffffffff8216155b15610ad8576040517fd92e233d00000000000000000000000000000000000000000000000000000000815260040160405180910390fd5b8173ffffffffffffffffffffffffffffffffffffffff168373ffffffffffffffffffffffffffffffffffffffff161415610b3e576040517f5468228700000000000000000000000000000000000000000000000000000000815260040160405180910390fd5b610b687f7935bd0ae54bc31f548c14dba4d37c5c64b3f8ca900cb468fb8abd54d5894f55846113ed565b610b927f55435dd261a4b9b3364963f7738a7a662ad9c84396d64be3365284bb7f0a5041836113ed565b610bbc7f55435dd261a4b9b3364963f7738a7a662ad9c84396d64be3365284bb7f0a5041846113ed565b610c067f55435dd261a4b9b3364963f7738a7a662ad9c84396d64be3365284bb7f0a50417f7935bd0ae54bc31f548c14dba4d37c5c64b3f8ca900cb468fb8abd54d5894f556113f7565b610c307f7935bd0ae54bc31f548c14dba4d37c5c64b3f8ca900cb468fb8abd54d5894f55806113f7565b610c7a7f0ae0130c6b34f32239dfe5e419a3fbd7546b44e99783257f2d93526d5a936d467f7935bd0ae54bc31f548c14dba4d37c5c64b3f8ca900cb468fb8abd54d5894f556113f7565b801561071857600080547fffffffffffffffffffffffffffffffffffffffffffffffffffffffffffff00ff169055505050565b73ffffffffffffffffffffffffffffffffffffffff811660009081527f069cdf9dfc2229276970916c1858214fdc1e7fbd582c817d68d15a269f9e469c602052604081205460ff16610468565b610d247f0ae0130c6b34f32239dfe5e419a3fbd7546b44e99783257f2d93526d5a936d46826106f2565b60c95473ffffffffffffffffffffffffffffffffffffffff1680156107d1576040517f21c29f9200000000000000000000000000000000000000000000000000000000815273ffffffffffffffffffffffffffffffffffffffff82811660048301528316906321c29f9290602401600060405180830381600087803b158015610dac57600080fd5b505af1158015610dc0573d6000803e3d6000fd5b50506040517f442320c100000000000000000000000000000000000000000000000000000000815273ffffffffffffffffffffffffffffffffffffffff85811660048301528416925063442320c1915060240161094a565b7f7935bd0ae54bc31f548c14dba4d37c5c64b3f8ca900cb468fb8abd54d5894f55610e4381336112d7565b6000610e6e7f7935bd0ae54bc31f548c14dba4d37c5c64b3f8ca900cb468fb8abd54d5894f556110ad565b90506000805b82811015610f6d578473ffffffffffffffffffffffffffffffffffffffff1663e43581b8610ec27f7935bd0ae54bc31f548c14dba4d37c5c64b3f8ca900cb468fb8abd54d5894f558461108e565b6040517fffffffff0000000000000000000000000000000000000000000000000000000060e084901b16815273ffffffffffffffffffffffffffffffffffffffff9091166004820152602401602060405180830381865afa158015610f2b573d6000803e3d6000fd5b505050506040513d601f19601f82011682018060405250810190610f4f9190611b99565b915081610f5b57610f6d565b80610f6581611b60565b915050610e74565b5080610fa5576040517fc5c23c8d00000000000000000000000000000000000000000000000000000000815260040160405180910390fd5b60c95473ffffffffffffffffffffffffffffffffffffffff168015611046576040517f8000963000000000000000000000000000000000000000000000000000000000815273ffffffffffffffffffffffffffffffffffffffff8681166004830152821690638000963090602401600060405180830381600087803b15801561102d57600080fd5b505af1158015611041573d6000803e3d6000fd5b505050505b60405173ffffffffffffffffffffffffffffffffffffffff8616907f0c9c0f914e121785e2cd2269d6698bc11f59a50b85ef9aa1197fb4ddb96c4e5690600090a25050505050565b60008281526097602052604081206110a69083611442565b9392505050565b60008181526097602052604081206104689061144e565b6000828152606560205260409020600101546110e081336112d7565b61071883836113cb565b73ffffffffffffffffffffffffffffffffffffffff811660009081527f5b3690852b26f7232357f142d58d00e1cca98c361fba25f077120aefa687fb54602052604081205460ff16610468565b60016111627f7935bd0ae54bc31f548c14dba4d37c5c64b3f8ca900cb468fb8abd54d5894f556110ad565b11611199576040517fb76a773a00000000000000000000000000000000000000000000000000000000815260040160405180910390fd5b6111c37f55435dd261a4b9b3364963f7738a7a662ad9c84396d64be3365284bb7f0a5041826110c4565b6108297f7935bd0ae54bc31f548c14dba4d37c5c64b3f8ca900cb468fb8abd54d5894f55826110c4565b73ffffffffffffffffffffffffffffffffffffffff811660009081527f8c1a1c2e4dcafefdcb61fcbadefc1a4e194ef54665c481e5a1f8b483cf279726602052604081205460ff16610468565b3b151590565b60007fffffffff0000000000000000000000000000000000000000000000000000000082167f7965db0b00000000000000000000000000000000000000000000000000000000148061046857507f01ffc9a7000000000000000000000000000000000000000000000000000000007fffffffff00000000000000000000000000000000000000000000000000000000831614610468565b600082815260656020908152604080832073ffffffffffffffffffffffffffffffffffffffff8516845290915290205460ff166107d15761132f8173ffffffffffffffffffffffffffffffffffffffff166014611458565b61133a836020611458565b60405160200161134b929190611beb565b604080517fffffffffffffffffffffffffffffffffffffffffffffffffffffffffffffffe0818403018152908290527f08c379a00000000000000000000000000000000000000000000000000000000082526107be91600401611c6c565b6113b3828261169b565b6000828152609760205260409020610718908261178f565b6113d582826117b1565b6000828152609760205260409020610718908261186c565b6107d182826113a9565b600082815260656020526040808220600101805490849055905190918391839186917fbd79b86ffe0ab8e8776151514217cd7cacd52c909f66475c3af44e129f0b00ff9190a4505050565b60006110a6838361188e565b6000610468825490565b60606000611467836002611cbd565b611472906002611cfa565b67ffffffffffffffff81111561148a5761148a611d12565b6040519080825280601f01601f1916602001820160405280156114b4576020820181803683370190505b5090507f3000000000000000000000000000000000000000000000000000000000000000816000815181106114eb576114eb611d41565b60200101907effffffffffffffffffffffffffffffffffffffffffffffffffffffffffffff1916908160001a9053507f78000000000000000000000000000000000000000000000000000000000000008160018151811061154e5761154e611d41565b60200101907effffffffffffffffffffffffffffffffffffffffffffffffffffffffffffff1916908160001a905350600061158a846002611cbd565b611595906001611cfa565b90505b6001811115611632577f303132333435363738396162636465660000000000000000000000000000000085600f16601081106115d6576115d6611d41565b1a60f81b8282815181106115ec576115ec611d41565b60200101907effffffffffffffffffffffffffffffffffffffffffffffffffffffffffffff1916908160001a90535060049490941c9361162b81611d70565b9050611598565b5083156110a6576040517f08c379a000000000000000000000000000000000000000000000000000000000815260206004820181905260248201527f537472696e67733a20686578206c656e67746820696e73756666696369656e7460448201526064016107be565b600082815260656020908152604080832073ffffffffffffffffffffffffffffffffffffffff8516845290915290205460ff166107d157600082815260656020908152604080832073ffffffffffffffffffffffffffffffffffffffff85168452909152902080547fffffffffffffffffffffffffffffffffffffffffffffffffffffffffffffff001660011790556117313390565b73ffffffffffffffffffffffffffffffffffffffff168173ffffffffffffffffffffffffffffffffffffffff16837f2f8788117e7eff1d82e926ec794901d17c78024a50270940304540a733656f0d60405160405180910390a45050565b60006110a68373ffffffffffffffffffffffffffffffffffffffff84166118b8565b600082815260656020908152604080832073ffffffffffffffffffffffffffffffffffffffff8516845290915290205460ff16156107d157600082815260656020908152604080832073ffffffffffffffffffffffffffffffffffffffff8516808552925280832080547fffffffffffffffffffffffffffffffffffffffffffffffffffffffffffffff0016905551339285917ff6391f5c32d9c69d2a47ea670b442974b53935d1edc7fd64eb21e047a839171b9190a45050565b60006110a68373ffffffffffffffffffffffffffffffffffffffff8416611907565b60008260000182815481106118a5576118a5611d41565b9060005260206000200154905092915050565b60008181526001830160205260408120546118ff57508154600181810184556000848152602080822090930184905584548482528286019093526040902091909155610468565b506000610468565b600081815260018301602052604081205480156119f057600061192b600183611da5565b855490915060009061193f90600190611da5565b90508181146119a457600086600001828154811061195f5761195f611d41565b906000526020600020015490508087600001848154811061198257611982611d41565b6000918252602080832090910192909255918252600188019052604090208390555b85548690806119b5576119b5611dbc565b600190038181906000526020600020016000905590558560010160008681526020019081526020016000206000905560019350505050610468565b6000915050610468565b600060208284031215611a0c57600080fd5b81357fffffffff00000000000000000000000000000000000000000000000000000000811681146110a657600080fd5b73ffffffffffffffffffffffffffffffffffffffff8116811461082957600080fd5b600060208284031215611a7057600080fd5b81356110a681611a3c565b600060208284031215611a8d57600080fd5b5035919050565b60008060408385031215611aa757600080fd5b823591506020830135611ab981611a3c565b809150509250929050565b60008060408385031215611ad757600080fd5b8235611ae281611a3c565b91506020830135611ab981611a3c565b60008060408385031215611b0557600080fd5b50508035926020909101359150565b600060208284031215611b2657600080fd5b81516110a681611a3c565b7f4e487b7100000000000000000000000000000000000000000000000000000000600052601160045260246000fd5b60007fffffffffffffffffffffffffffffffffffffffffffffffffffffffffffffffff821415611b9257611b92611b31565b5060010190565b600060208284031215611bab57600080fd5b815180151581146110a657600080fd5b60005b83811015611bd6578181015183820152602001611bbe565b83811115611be5576000848401525b50505050565b7f416363657373436f6e74726f6c3a206163636f756e7420000000000000000000815260008351611c23816017850160208801611bbb565b7f206973206d697373696e6720726f6c65200000000000000000000000000000006017918401918201528351611c60816028840160208801611bbb565b01602801949350505050565b6020815260008251806020840152611c8b816040850160208701611bbb565b601f017fffffffffffffffffffffffffffffffffffffffffffffffffffffffffffffffe0169190910160400192915050565b6000817fffffffffffffffffffffffffffffffffffffffffffffffffffffffffffffffff0483118215151615611cf557611cf5611b31565b500290565b60008219821115611d0d57611d0d611b31565b500190565b7f4e487b7100000000000000000000000000000000000000000000000000000000600052604160045260246000fd5b7f4e487b7100000000000000000000000000000000000000000000000000000000600052603260045260246000fd5b600081611d7f57611d7f611b31565b507fffffffffffffffffffffffffffffffffffffffffffffffffffffffffffffffff0190565b600082821015611db757611db7611b31565b500390565b7f4e487b7100000000000000000000000000000000000000000000000000000000600052603160045260246000fdfea2646970667358221220faf50b4e1cfe5514a26d332a59bba2961ddbd993de4a7ef16cefbe90fcfe29fe64736f6c634300080c0033",
  "devdoc": {
    "author": "Angle Core Team",
    "kind": "dev",
    "methods": {
      "addFlashLoanerTreasuryRole(address)": {
        "details": "This function can be used to allow flash loans on a stablecoin of the protocol",
        "params": {
          "treasury": "Contract to grant the role to"
        }
      },
      "addGovernor(address)": {
        "details": "It is necessary to call this function to grant a governor role to make sure all governors also have the guardian role",
        "params": {
          "governor": "Address to grant the role to"
        }
      },
      "constructor": {
        "custom:oz-upgrades-unsafe-allow": "constructor"
      },
      "getRoleAdmin(bytes32)": {
        "details": "Returns the admin role that controls `role`. See {grantRole} and {revokeRole}. To change a role's admin, use {_setRoleAdmin}."
      },
      "getRoleMember(bytes32,uint256)": {
        "details": "Returns one of the accounts that have `role`. `index` must be a value between 0 and {getRoleMemberCount}, non-inclusive. Role bearers are not sorted in any particular way, and their ordering may change at any point. WARNING: When using {getRoleMember} and {getRoleMemberCount}, make sure you perform all queries on the same block. See the following https://forum.openzeppelin.com/t/iterating-over-elements-on-enumerableset-in-openzeppelin-contracts/2296[forum post] for more information."
      },
      "getRoleMemberCount(bytes32)": {
        "details": "Returns the number of accounts that have `role`. Can be used together with {getRoleMember} to enumerate all bearers of a role."
      },
      "grantRole(bytes32,address)": {
        "details": "Grants `role` to `account`. If `account` had not been already granted `role`, emits a {RoleGranted} event. Requirements: - the caller must have ``role``'s admin role."
      },
      "hasRole(bytes32,address)": {
        "details": "Returns `true` if `account` has been granted `role`."
      },
      "initialize(address,address)": {
        "params": {
          "governor": "Address of the governor of the Angle Protocol",
          "guardian": "Guardian address of the protocol"
        }
      },
      "isFlashLoanerTreasury(address)": {
        "params": {
          "treasury": "Address to check"
        },
        "returns": {
          "_0": "Whether the address has the `FLASHLOANER_TREASURY_ROLE` or not"
        }
      },
      "isGovernor(address)": {
        "params": {
          "admin": "Address to check"
        },
        "returns": {
          "_0": "Whether the address has the `GOVERNOR_ROLE` or not"
        }
      },
      "isGovernorOrGuardian(address)": {
        "details": "Governance should make sure when adding a governor to also give this governor the guardian role by calling the `addGovernor` function",
        "params": {
          "admin": "Address to check"
        },
        "returns": {
          "_0": "Whether the address has the `GUARDIAN_ROLE` or not"
        }
      },
      "removeFlashLoanerTreasuryRole(address)": {
        "params": {
          "treasury": "Treasury address associated with the stablecoin for which flash loans should no longer be available"
        }
      },
      "removeGovernor(address)": {
        "details": "It is necessary to call this function to remove a governor role to make sure the address also loses its guardian role",
        "params": {
          "governor": "Address to remove the role to"
        }
      },
      "renounceRole(bytes32,address)": {
        "details": "Revokes `role` from the calling account. Roles are often managed via {grantRole} and {revokeRole}: this function's purpose is to provide a mechanism for accounts to lose their privileges if they are compromised (such as when a trusted device is misplaced). If the calling account had been revoked `role`, emits a {RoleRevoked} event. Requirements: - the caller must be `account`."
      },
      "revokeRole(bytes32,address)": {
        "details": "Revokes `role` from `account`. If `account` had been granted `role`, emits a {RoleRevoked} event. Requirements: - the caller must have ``role``'s admin role."
      },
      "setCore(address)": {
        "details": "This function verifies that all governors of the current core contract are also governors of the new core contract. It also notifies the `flashLoanModule` of the change.Governance wishing to change the core contract should also make sure to call `setCore` in the different treasury contracts",
        "params": {
          "_core": "New core contract"
        }
      },
      "setFlashLoanModule(address)": {
        "params": {
          "_flashLoanModule": "Address of the new flash loan module"
        }
      },
      "supportsInterface(bytes4)": {
        "details": "See {IERC165-supportsInterface}."
      }
    },
    "title": "CoreBorrow",
    "version": 1
  },
  "userdoc": {
    "kind": "user",
    "methods": {
      "FLASHLOANER_TREASURY_ROLE()": {
        "notice": "Role for treasury contract"
      },
      "GOVERNOR_ROLE()": {
        "notice": "Role for governors"
      },
      "GUARDIAN_ROLE()": {
        "notice": "Role for guardians"
      },
      "addFlashLoanerTreasuryRole(address)": {
        "notice": "Grants the `FLASHLOANER_TREASURY_ROLE` to a `treasury` contract"
      },
      "addGovernor(address)": {
        "notice": "Adds a governor in the protocol"
      },
      "flashLoanModule()": {
        "notice": "Reference to the `flashLoanModule` with minting rights over the different stablecoins of the protocol"
      },
      "initialize(address,address)": {
        "notice": "Initializes the `CoreBorrow` contract and the access control of the borrowing module"
      },
      "isFlashLoanerTreasury(address)": {
        "notice": "Checks if an address corresponds to a treasury of a stablecoin with a flash loan module initialized on it"
      },
      "isGovernor(address)": {
        "notice": "Checks whether an address is governor of the Angle Protocol or not"
      },
      "isGovernorOrGuardian(address)": {
        "notice": "Checks whether an address is governor or a guardian of the Angle Protocol or not"
      },
      "removeFlashLoanerTreasuryRole(address)": {
        "notice": "Revokes the flash loan ability for a stablecoin"
      },
      "removeGovernor(address)": {
        "notice": "Revokes a governor from the protocol"
      },
      "setCore(address)": {
        "notice": "Changes the core contract of the protocol"
      },
      "setFlashLoanModule(address)": {
        "notice": "Changes the `flashLoanModule` of the protocol"
      }
    },
    "notice": "Core contract of the borrowing module. This contract handles the access control across all contracts (it is read by all treasury contracts), and manages the `flashLoanModule`. It has no minting rights over the stablecoin contracts",
    "version": 1
  },
  "storageLayout": {
    "storage": [
      {
        "astId": 772,
        "contract": "contracts/coreBorrow/CoreBorrow.sol:CoreBorrow",
        "label": "_initialized",
        "offset": 0,
        "slot": "0",
        "type": "t_bool"
      },
      {
        "astId": 775,
        "contract": "contracts/coreBorrow/CoreBorrow.sol:CoreBorrow",
        "label": "_initializing",
        "offset": 1,
        "slot": "0",
        "type": "t_bool"
      },
      {
        "astId": 2479,
        "contract": "contracts/coreBorrow/CoreBorrow.sol:CoreBorrow",
        "label": "__gap",
        "offset": 0,
        "slot": "1",
        "type": "t_array(t_uint256)50_storage"
      },
      {
        "astId": 3341,
        "contract": "contracts/coreBorrow/CoreBorrow.sol:CoreBorrow",
        "label": "__gap",
        "offset": 0,
        "slot": "51",
        "type": "t_array(t_uint256)50_storage"
      },
      {
        "astId": 250,
        "contract": "contracts/coreBorrow/CoreBorrow.sol:CoreBorrow",
        "label": "_roles",
        "offset": 0,
        "slot": "101",
        "type": "t_mapping(t_bytes32,t_struct(RoleData)245_storage)"
      },
      {
        "astId": 537,
        "contract": "contracts/coreBorrow/CoreBorrow.sol:CoreBorrow",
        "label": "__gap",
        "offset": 0,
        "slot": "102",
        "type": "t_array(t_uint256)49_storage"
      },
      {
        "astId": 91,
        "contract": "contracts/coreBorrow/CoreBorrow.sol:CoreBorrow",
        "label": "_roleMembers",
        "offset": 0,
        "slot": "151",
        "type": "t_mapping(t_bytes32,t_struct(AddressSet)3754_storage)"
      },
      {
        "astId": 200,
        "contract": "contracts/coreBorrow/CoreBorrow.sol:CoreBorrow",
        "label": "__gap",
        "offset": 0,
        "slot": "152",
        "type": "t_array(t_uint256)49_storage"
      },
      {
        "astId": 10702,
        "contract": "contracts/coreBorrow/CoreBorrow.sol:CoreBorrow",
        "label": "flashLoanModule",
        "offset": 0,
        "slot": "201",
        "type": "t_address"
      }
    ],
    "types": {
      "t_address": {
        "encoding": "inplace",
        "label": "address",
        "numberOfBytes": "20"
      },
      "t_array(t_bytes32)dyn_storage": {
        "base": "t_bytes32",
        "encoding": "dynamic_array",
        "label": "bytes32[]",
        "numberOfBytes": "32"
      },
      "t_array(t_uint256)49_storage": {
        "base": "t_uint256",
        "encoding": "inplace",
        "label": "uint256[49]",
        "numberOfBytes": "1568"
      },
      "t_array(t_uint256)50_storage": {
        "base": "t_uint256",
        "encoding": "inplace",
        "label": "uint256[50]",
        "numberOfBytes": "1600"
      },
      "t_bool": {
        "encoding": "inplace",
        "label": "bool",
        "numberOfBytes": "1"
      },
      "t_bytes32": {
        "encoding": "inplace",
        "label": "bytes32",
        "numberOfBytes": "32"
      },
      "t_mapping(t_address,t_bool)": {
        "encoding": "mapping",
        "key": "t_address",
        "label": "mapping(address => bool)",
        "numberOfBytes": "32",
        "value": "t_bool"
      },
      "t_mapping(t_bytes32,t_struct(AddressSet)3754_storage)": {
        "encoding": "mapping",
        "key": "t_bytes32",
        "label": "mapping(bytes32 => struct EnumerableSetUpgradeable.AddressSet)",
        "numberOfBytes": "32",
        "value": "t_struct(AddressSet)3754_storage"
      },
      "t_mapping(t_bytes32,t_struct(RoleData)245_storage)": {
        "encoding": "mapping",
        "key": "t_bytes32",
        "label": "mapping(bytes32 => struct AccessControlUpgradeable.RoleData)",
        "numberOfBytes": "32",
        "value": "t_struct(RoleData)245_storage"
      },
      "t_mapping(t_bytes32,t_uint256)": {
        "encoding": "mapping",
        "key": "t_bytes32",
        "label": "mapping(bytes32 => uint256)",
        "numberOfBytes": "32",
        "value": "t_uint256"
      },
      "t_struct(AddressSet)3754_storage": {
        "encoding": "inplace",
        "label": "struct EnumerableSetUpgradeable.AddressSet",
        "members": [
          {
            "astId": 3753,
            "contract": "contracts/coreBorrow/CoreBorrow.sol:CoreBorrow",
            "label": "_inner",
            "offset": 0,
            "slot": "0",
            "type": "t_struct(Set)3453_storage"
          }
        ],
        "numberOfBytes": "64"
      },
      "t_struct(RoleData)245_storage": {
        "encoding": "inplace",
        "label": "struct AccessControlUpgradeable.RoleData",
        "members": [
          {
            "astId": 242,
            "contract": "contracts/coreBorrow/CoreBorrow.sol:CoreBorrow",
            "label": "members",
            "offset": 0,
            "slot": "0",
            "type": "t_mapping(t_address,t_bool)"
          },
          {
            "astId": 244,
            "contract": "contracts/coreBorrow/CoreBorrow.sol:CoreBorrow",
            "label": "adminRole",
            "offset": 0,
            "slot": "1",
            "type": "t_bytes32"
          }
        ],
        "numberOfBytes": "64"
      },
      "t_struct(Set)3453_storage": {
        "encoding": "inplace",
        "label": "struct EnumerableSetUpgradeable.Set",
        "members": [
          {
            "astId": 3448,
            "contract": "contracts/coreBorrow/CoreBorrow.sol:CoreBorrow",
            "label": "_values",
            "offset": 0,
            "slot": "0",
            "type": "t_array(t_bytes32)dyn_storage"
          },
          {
            "astId": 3452,
            "contract": "contracts/coreBorrow/CoreBorrow.sol:CoreBorrow",
            "label": "_indexes",
            "offset": 0,
            "slot": "1",
            "type": "t_mapping(t_bytes32,t_uint256)"
          }
        ],
        "numberOfBytes": "64"
      },
      "t_uint256": {
        "encoding": "inplace",
        "label": "uint256",
        "numberOfBytes": "32"
      }
    }
  }
}