{
  "address": "0x379963C34161C4Af22851769D2EeDf17CcFDFb26",
  "abi": [
    {
      "inputs": [],
      "stateMutability": "nonpayable",
      "type": "constructor"
    },
    {
      "inputs": [],
      "name": "InvalidLengths",
      "type": "error"
    },
    {
      "inputs": [],
      "name": "InvalidProof",
      "type": "error"
    },
    {
      "inputs": [],
      "name": "NotGovernorOrGuardian",
      "type": "error"
    },
    {
      "inputs": [],
      "name": "NotTrusted",
      "type": "error"
    },
    {
      "inputs": [],
      "name": "ZeroAddress",
      "type": "error"
    },
    {
      "anonymous": false,
      "inputs": [
        {
          "indexed": false,
          "internalType": "address",
          "name": "user",
          "type": "address"
        },
        {
          "indexed": false,
          "internalType": "address",
          "name": "token",
          "type": "address"
        },
        {
          "indexed": false,
          "internalType": "uint256",
          "name": "amount",
          "type": "uint256"
        }
      ],
      "name": "Claimed",
      "type": "event"
    },
    {
      "anonymous": false,
      "inputs": [
        {
          "indexed": true,
          "internalType": "address",
          "name": "token",
          "type": "address"
        },
        {
          "indexed": true,
          "internalType": "address",
          "name": "to",
          "type": "address"
        },
        {
          "indexed": false,
          "internalType": "uint256",
          "name": "amount",
          "type": "uint256"
        }
      ],
      "name": "Recovered",
      "type": "event"
    },
    {
      "anonymous": false,
      "inputs": [
        {
          "indexed": false,
          "internalType": "bytes32",
          "name": "merkleRoot",
          "type": "bytes32"
        },
        {
          "indexed": false,
          "internalType": "bytes32",
          "name": "ipfsHash",
          "type": "bytes32"
        }
      ],
      "name": "TreeUpdated",
      "type": "event"
    },
    {
      "anonymous": false,
      "inputs": [
        {
          "indexed": true,
          "internalType": "address",
          "name": "eoa",
          "type": "address"
        },
        {
          "indexed": false,
          "internalType": "bool",
          "name": "trust",
          "type": "bool"
        }
      ],
      "name": "TrustedToggled",
      "type": "event"
    },
    {
      "inputs": [
        {
          "internalType": "address[]",
          "name": "users",
          "type": "address[]"
        },
        {
          "internalType": "address[]",
          "name": "tokens",
          "type": "address[]"
        },
        {
          "internalType": "uint256[]",
          "name": "amounts",
          "type": "uint256[]"
        },
        {
          "internalType": "bytes32[][]",
          "name": "proofs",
          "type": "bytes32[][]"
        }
      ],
      "name": "claim",
      "outputs": [],
      "stateMutability": "nonpayable",
      "type": "function"
    },
    {
      "inputs": [
        {
          "internalType": "address",
          "name": "",
          "type": "address"
        },
        {
          "internalType": "address",
          "name": "",
          "type": "address"
        }
      ],
      "name": "claimed",
      "outputs": [
        {
          "internalType": "uint256",
          "name": "",
          "type": "uint256"
        }
      ],
      "stateMutability": "view",
      "type": "function"
    },
    {
      "inputs": [
        {
          "internalType": "contract IERC20",
          "name": "token",
          "type": "address"
        },
        {
          "internalType": "uint256",
          "name": "amount",
          "type": "uint256"
        }
      ],
      "name": "deposit_reward_token",
      "outputs": [],
      "stateMutability": "nonpayable",
      "type": "function"
    },
    {
      "inputs": [
        {
          "internalType": "contract ITreasury",
          "name": "_treasury",
          "type": "address"
        }
      ],
      "name": "initialize",
      "outputs": [],
      "stateMutability": "nonpayable",
      "type": "function"
    },
    {
      "inputs": [
        {
          "internalType": "address",
          "name": "tokenAddress",
          "type": "address"
        },
        {
          "internalType": "address",
          "name": "to",
          "type": "address"
        },
        {
          "internalType": "uint256",
          "name": "amountToRecover",
          "type": "uint256"
        }
      ],
      "name": "recoverERC20",
      "outputs": [],
      "stateMutability": "nonpayable",
      "type": "function"
    },
    {
      "inputs": [
        {
          "internalType": "address",
          "name": "eoa",
          "type": "address"
        }
      ],
      "name": "toggleTrusted",
      "outputs": [],
      "stateMutability": "nonpayable",
      "type": "function"
    },
    {
      "inputs": [],
      "name": "treasury",
      "outputs": [
        {
          "internalType": "contract ITreasury",
          "name": "",
          "type": "address"
        }
      ],
      "stateMutability": "view",
      "type": "function"
    },
    {
      "inputs": [],
      "name": "tree",
      "outputs": [
        {
          "internalType": "bytes32",
          "name": "merkleRoot",
          "type": "bytes32"
        },
        {
          "internalType": "bytes32",
          "name": "ipfsHash",
          "type": "bytes32"
        }
      ],
      "stateMutability": "view",
      "type": "function"
    },
    {
      "inputs": [
        {
          "internalType": "address",
          "name": "",
          "type": "address"
        }
      ],
      "name": "trusted",
      "outputs": [
        {
          "internalType": "uint256",
          "name": "",
          "type": "uint256"
        }
      ],
      "stateMutability": "view",
      "type": "function"
    },
    {
      "inputs": [
        {
          "components": [
            {
              "internalType": "bytes32",
              "name": "merkleRoot",
              "type": "bytes32"
            },
            {
              "internalType": "bytes32",
              "name": "ipfsHash",
              "type": "bytes32"
            }
          ],
          "internalType": "struct MerkleTree",
          "name": "_tree",
          "type": "tuple"
        }
      ],
      "name": "updateTree",
      "outputs": [],
      "stateMutability": "nonpayable",
      "type": "function"
    }
  ],
  "transactionHash": "0x29c3cb0c42d186b139c1aceabee94ac2dce37f4ba7f194d3142a465d6d09a53e",
  "args": [],
  "numDeployments": 1,
  "solcInputHash": "7015e36ddeec6176c9f19000935f8f99",
  "bytecode": "0x608060405234801561001057600080fd5b50600054610100900460ff1661002c5760005460ff1615610034565b6100346100d5565b61009b5760405162461bcd60e51b815260206004820152602e60248201527f496e697469616c697a61626c653a20636f6e747261637420697320616c72656160448201526d191e481a5b9a5d1a585b1a5e995960921b606482015260840160405180910390fd5b600054610100900460ff161580156100bd576000805461ffff19166101011790555b80156100cf576000805461ff00191690555b506100f6565b60006100ea306100f060201b610afe1760201c565b15905090565b3b151590565b6113a980620001066000396000f3fe608060405234801561001057600080fd5b50600436106100be5760003560e01c80637ee8434911610076578063c4d66de81161005b578063c4d66de8146101b4578063d9c98087146101c7578063fd54b228146101da57600080fd5b80637ee843491461018e57806393f7aa67146101a157600080fd5b806361d027b3116100a757806361d027b3146101165780636e9821c21461015b57806371ee95c01461017b57600080fd5b80630c9cbf0e146100c35780631171bda914610101575b600080fd5b6100ee6100d1366004610f9b565b600460209081526000928352604080842090915290825290205481565b6040519081526020015b60405180910390f35b61011461010f366004610fd4565b6101fd565b005b6003546101369073ffffffffffffffffffffffffffffffffffffffff1681565b60405173ffffffffffffffffffffffffffffffffffffffff90911681526020016100f8565b6100ee610169366004611015565b60056020526000908152604090205481565b61011461018936600461107e565b610352565b61011461019c366004611015565b61061a565b6101146101af366004611142565b61077b565b6101146101c2366004611015565b61081d565b6101146101d536600461116e565b6109cc565b6001546002546101e8919082565b604080519283526020830191909152016100f8565b6003546040517f521d4de900000000000000000000000000000000000000000000000000000000815233600482015273ffffffffffffffffffffffffffffffffffffffff9091169063521d4de990602401602060405180830381865afa15801561026b573d6000803e3d6000fd5b505050506040513d601f19601f8201168201806040525081019061028f9190611186565b6102c5576040517f99e120bc00000000000000000000000000000000000000000000000000000000815260040160405180910390fd5b6102e673ffffffffffffffffffffffffffffffffffffffff84168383610b04565b8173ffffffffffffffffffffffffffffffffffffffff168373ffffffffffffffffffffffffffffffffffffffff167ffff3b3844276f57024e0b42afec1a37f75db36511e43819a4f2a63ab7862b6488360405161034591815260200190565b60405180910390a3505050565b86158061035f5750868514155b8061036a5750868314155b806103755750868114155b156103ac576040517f1df89e8b00000000000000000000000000000000000000000000000000000000815260040160405180910390fd5b60005b8781101561060f5760008989838181106103cb576103cb6111a8565b90506020020160208101906103e09190611015565b905060008888848181106103f6576103f66111a8565b905060200201602081019061040b9190611015565b90506000878785818110610421576104216111a8565b905060200201359050600083838360405160200161046d9392919073ffffffffffffffffffffffffffffffffffffffff9384168152919092166020820152604081019190915260600190565b6040516020818303038152906040528051906020012090506104e48188888881811061049b5761049b6111a8565b90506020028101906104ad91906111d7565b80806020026020016040519081016040528093929190818152602001838360200280828437600092019190915250610b9192505050565b61051a576040517f09bde33900000000000000000000000000000000000000000000000000000000815260040160405180910390fd5b73ffffffffffffffffffffffffffffffffffffffff8085166000908152600460209081526040808320938716835292905290812054610559908461126e565b73ffffffffffffffffffffffffffffffffffffffff808716600090815260046020908152604080832093891680845293909152902085905590915061059f908683610b04565b6040805173ffffffffffffffffffffffffffffffffffffffff8088168252861660208201529081018290527ff7a40077ff7a04c7e61f6f26fb13774259ddf1b6bce9ecf26a8276cdd39926839060600160405180910390a15050505050808061060790611285565b9150506103af565b505050505050505050565b6003546040517f521d4de900000000000000000000000000000000000000000000000000000000815233600482015273ffffffffffffffffffffffffffffffffffffffff9091169063521d4de990602401602060405180830381865afa158015610688573d6000803e3d6000fd5b505050506040513d601f19601f820116820180604052508101906106ac9190611186565b6106e2576040517f99e120bc00000000000000000000000000000000000000000000000000000000815260040160405180910390fd5b73ffffffffffffffffffffffffffffffffffffffff811660009081526005602052604081205461071390600161126e565b73ffffffffffffffffffffffffffffffffffffffff8316600081815260056020908152604091829020849055905160018414815292935090917f7628ea5f6112a16b36a8239aa208395a8e8f221688cfb3a5461faffb9700abcd910160405180910390a25050565b6040517f23b872dd0000000000000000000000000000000000000000000000000000000081523360048201523060248201526044810182905273ffffffffffffffffffffffffffffffffffffffff8316906323b872dd906064016020604051808303816000875af11580156107f4573d6000803e3d6000fd5b505050506040513d601f19601f820116820180604052508101906108189190611186565b505050565b600054610100900460ff166108385760005460ff161561083c565b303b155b6108cd576040517f08c379a000000000000000000000000000000000000000000000000000000000815260206004820152602e60248201527f496e697469616c697a61626c653a20636f6e747261637420697320616c72656160448201527f647920696e697469616c697a656400000000000000000000000000000000000060648201526084015b60405180910390fd5b600054610100900460ff1615801561090c57600080547fffffffffffffffffffffffffffffffffffffffffffffffffffffffffffff0000166101011790555b73ffffffffffffffffffffffffffffffffffffffff8216610959576040517fd92e233d00000000000000000000000000000000000000000000000000000000815260040160405180910390fd5b600380547fffffffffffffffffffffffff00000000000000000000000000000000000000001673ffffffffffffffffffffffffffffffffffffffff841617905580156109c857600080547fffffffffffffffffffffffffffffffffffffffffffffffffffffffffffff00ff1690555b5050565b6003546040517f521d4de900000000000000000000000000000000000000000000000000000000815233600482015273ffffffffffffffffffffffffffffffffffffffff9091169063521d4de990602401602060405180830381865afa158015610a3a573d6000803e3d6000fd5b505050506040513d601f19601f82011682018060405250810190610a5e9190611186565b158015610a7b575033600090815260056020526040902054600114155b15610ab2576040517fc22a648e00000000000000000000000000000000000000000000000000000000815260040160405180910390fd5b803560018190556020808301356002819055604080519384529183015280517f39f3c4d5c2bbcbf0e3945f22aa618f4e654952eaafcdaa119f0ef12dfce4f2f39281900390910190a150565b3b151590565b6040805173ffffffffffffffffffffffffffffffffffffffff8416602482015260448082018490528251808303909101815260649091019091526020810180517bffffffffffffffffffffffffffffffffffffffffffffffffffffffff167fa9059cbb00000000000000000000000000000000000000000000000000000000179052610818908490610c7e565b600082815b8351811015610c7257838181518110610bb157610bb16111a8565b6020026020010151821015610c125781848281518110610bd357610bd36111a8565b6020026020010151604051602001610bf5929190918252602082015260400190565b604051602081830303815290604052805190602001209150610c60565b838181518110610c2457610c246111a8565b602002602001015182604051602001610c47929190918252602082015260400190565b6040516020818303038152906040528051906020012091505b610c6b6001826112be565b9050610b96565b50600154149392505050565b6000610ce0826040518060400160405280602081526020017f5361666545524332303a206c6f772d6c6576656c2063616c6c206661696c65648152508573ffffffffffffffffffffffffffffffffffffffff16610d8a9092919063ffffffff16565b8051909150156108185780806020019051810190610cfe9190611186565b610818576040517f08c379a000000000000000000000000000000000000000000000000000000000815260206004820152602a60248201527f5361666545524332303a204552433230206f7065726174696f6e20646964206e60448201527f6f7420737563636565640000000000000000000000000000000000000000000060648201526084016108c4565b6060610d998484600085610da3565b90505b9392505050565b606082471015610e35576040517f08c379a000000000000000000000000000000000000000000000000000000000815260206004820152602660248201527f416464726573733a20696e73756666696369656e742062616c616e636520666f60448201527f722063616c6c000000000000000000000000000000000000000000000000000060648201526084016108c4565b843b610e9d576040517f08c379a000000000000000000000000000000000000000000000000000000000815260206004820152601d60248201527f416464726573733a2063616c6c20746f206e6f6e2d636f6e747261637400000060448201526064016108c4565b6000808673ffffffffffffffffffffffffffffffffffffffff168587604051610ec69190611306565b60006040518083038185875af1925050503d8060008114610f03576040519150601f19603f3d011682016040523d82523d6000602084013e610f08565b606091505b5091509150610f18828286610f23565b979650505050505050565b60608315610f32575081610d9c565b825115610f425782518084602001fd5b816040517f08c379a00000000000000000000000000000000000000000000000000000000081526004016108c49190611322565b73ffffffffffffffffffffffffffffffffffffffff81168114610f9857600080fd5b50565b60008060408385031215610fae57600080fd5b8235610fb981610f76565b91506020830135610fc981610f76565b809150509250929050565b600080600060608486031215610fe957600080fd5b8335610ff481610f76565b9250602084013561100481610f76565b929592945050506040919091013590565b60006020828403121561102757600080fd5b8135610d9c81610f76565b60008083601f84011261104457600080fd5b50813567ffffffffffffffff81111561105c57600080fd5b6020830191508360208260051b850101111561107757600080fd5b9250929050565b6000806000806000806000806080898b03121561109a57600080fd5b883567ffffffffffffffff808211156110b257600080fd5b6110be8c838d01611032565b909a50985060208b01359150808211156110d757600080fd5b6110e38c838d01611032565b909850965060408b01359150808211156110fc57600080fd5b6111088c838d01611032565b909650945060608b013591508082111561112157600080fd5b5061112e8b828c01611032565b999c989b5096995094979396929594505050565b6000806040838503121561115557600080fd5b823561116081610f76565b946020939093013593505050565b60006040828403121561118057600080fd5b50919050565b60006020828403121561119857600080fd5b81518015158114610d9c57600080fd5b7f4e487b7100000000000000000000000000000000000000000000000000000000600052603260045260246000fd5b60008083357fffffffffffffffffffffffffffffffffffffffffffffffffffffffffffffffe184360301811261120c57600080fd5b83018035915067ffffffffffffffff82111561122757600080fd5b6020019150600581901b360382131561107757600080fd5b7f4e487b7100000000000000000000000000000000000000000000000000000000600052601160045260246000fd5b6000828210156112805761128061123f565b500390565b60007fffffffffffffffffffffffffffffffffffffffffffffffffffffffffffffffff8214156112b7576112b761123f565b5060010190565b600082198211156112d1576112d161123f565b500190565b60005b838110156112f15781810151838201526020016112d9565b83811115611300576000848401525b50505050565b600082516113188184602087016112d6565b9190910192915050565b60208152600082518060208401526113418160408501602087016112d6565b601f017fffffffffffffffffffffffffffffffffffffffffffffffffffffffffffffffe016919091016040019291505056fea264697066735822122087294d0986dfcc10ef33ff11a51f9643a2c989ac28b20650f9ce39748b24506364736f6c634300080c0033",
  "devdoc": {
    "author": "Angle Core Team",
    "kind": "dev",
    "methods": {
      "claim(address[],address[],uint256[],bytes32[][])": {
        "details": "Anyone may call this function for anyone else, funds go to destination regardless, it's just a question of who provides the proof and pays the gas: `msg.sender` is not used in this function",
        "params": {
          "amounts": "Amount of tokens that will be sent to the corresponding users",
          "proofs": "Array of hashes bridging from leaf (hash of user | token | amount) to Merkle root",
          "tokens": "ERC20 claimed",
          "users": "Recipient of tokens"
        }
      }
    },
    "title": "MerkleRootDistributor",
    "version": 1
  },
  "userdoc": {
    "kind": "user",
    "methods": {
      "claim(address[],address[],uint256[],bytes32[][])": {
        "notice": "Claims rewards for a given set of users"
      },
      "claimed(address,address)": {
        "notice": "Mapping user -> token -> amount to track claimed amounts"
      },
      "deposit_reward_token(address,uint256)": {
        "notice": "Pull reward amount from caller"
      },
      "recoverERC20(address,address,uint256)": {
        "notice": "Recovers any ERC20 token"
      },
      "toggleTrusted(address)": {
        "notice": "Adds or removes trusted EOA"
      },
      "treasury()": {
        "notice": "Treasury contract handling access control"
      },
      "tree()": {
        "notice": "Tree of claimable tokens through this contract"
      },
      "trusted(address)": {
        "notice": "Trusted EOAs to update the merkle root"
      },
      "updateTree((bytes32,bytes32))": {
        "notice": "Updates Merkle Tree"
      }
    },
    "notice": "Allows the DAO to distribute rewards through Merkle Roots",
    "version": 1
  },
  "storageLayout": {
    "storage": [
      {
        "astId": 772,
        "contract": "contracts/merkleRootDistributor/MerkleRootDistributor.sol:MerkleRootDistributor",
        "label": "_initialized",
        "offset": 0,
        "slot": "0",
        "type": "t_bool"
      },
      {
        "astId": 775,
        "contract": "contracts/merkleRootDistributor/MerkleRootDistributor.sol:MerkleRootDistributor",
        "label": "_initializing",
        "offset": 1,
        "slot": "0",
        "type": "t_bool"
      },
      {
        "astId": 16418,
        "contract": "contracts/merkleRootDistributor/MerkleRootDistributor.sol:MerkleRootDistributor",
        "label": "tree",
        "offset": 0,
        "slot": "1",
        "type": "t_struct(MerkleTree)16407_storage"
      },
      {
        "astId": 16422,
        "contract": "contracts/merkleRootDistributor/MerkleRootDistributor.sol:MerkleRootDistributor",
        "label": "treasury",
        "offset": 0,
        "slot": "3",
        "type": "t_contract(ITreasury)14377"
      },
      {
        "astId": 16429,
        "contract": "contracts/merkleRootDistributor/MerkleRootDistributor.sol:MerkleRootDistributor",
        "label": "claimed",
        "offset": 0,
        "slot": "4",
        "type": "t_mapping(t_address,t_mapping(t_address,t_uint256))"
      },
      {
        "astId": 16434,
        "contract": "contracts/merkleRootDistributor/MerkleRootDistributor.sol:MerkleRootDistributor",
        "label": "trusted",
        "offset": 0,
        "slot": "5",
        "type": "t_mapping(t_address,t_uint256)"
      },
      {
        "astId": 16438,
        "contract": "contracts/merkleRootDistributor/MerkleRootDistributor.sol:MerkleRootDistributor",
        "label": "__gap",
        "offset": 0,
        "slot": "6",
        "type": "t_array(t_uint256)46_storage"
      }
    ],
    "types": {
      "t_address": {
        "encoding": "inplace",
        "label": "address",
        "numberOfBytes": "20"
      },
      "t_array(t_uint256)46_storage": {
        "base": "t_uint256",
        "encoding": "inplace",
        "label": "uint256[46]",
        "numberOfBytes": "1472"
      },
      "t_bool": {
        "encoding": "inplace",
        "label": "bool",
        "numberOfBytes": "1"
      },
      "t_bytes32": {
        "encoding": "inplace",
        "label": "bytes32",
        "numberOfBytes": "32"
      },
      "t_contract(ITreasury)14377": {
        "encoding": "inplace",
        "label": "contract ITreasury",
        "numberOfBytes": "20"
      },
      "t_mapping(t_address,t_mapping(t_address,t_uint256))": {
        "encoding": "mapping",
        "key": "t_address",
        "label": "mapping(address => mapping(address => uint256))",
        "numberOfBytes": "32",
        "value": "t_mapping(t_address,t_uint256)"
      },
      "t_mapping(t_address,t_uint256)": {
        "encoding": "mapping",
        "key": "t_address",
        "label": "mapping(address => uint256)",
        "numberOfBytes": "32",
        "value": "t_uint256"
      },
      "t_struct(MerkleTree)16407_storage": {
        "encoding": "inplace",
        "label": "struct MerkleTree",
        "members": [
          {
            "astId": 16404,
            "contract": "contracts/merkleRootDistributor/MerkleRootDistributor.sol:MerkleRootDistributor",
            "label": "merkleRoot",
            "offset": 0,
            "slot": "0",
            "type": "t_bytes32"
          },
          {
            "astId": 16406,
            "contract": "contracts/merkleRootDistributor/MerkleRootDistributor.sol:MerkleRootDistributor",
            "label": "ipfsHash",
            "offset": 0,
            "slot": "1",
            "type": "t_bytes32"
          }
        ],
        "numberOfBytes": "64"
      },
      "t_uint256": {
        "encoding": "inplace",
        "label": "uint256",
        "numberOfBytes": "32"
      }
    }
  }
}