{
  "address": "0xE0c4Db05a515f2EcE758ab02e6cE4d1C30245752",
  "abi": [
    {
      "inputs": [
        {
          "internalType": "contract IFlashAngle",
          "name": "flashAngle",
          "type": "address"
        },
        {
          "internalType": "address",
          "name": "_treasury",
          "type": "address"
        }
      ],
      "name": "addStablecoinSupport",
      "outputs": [],
      "stateMutability": "nonpayable",
      "type": "function"
    },
    {
      "inputs": [
        {
          "internalType": "address",
          "name": "",
          "type": "address"
        }
      ],
      "name": "flashLoaners",
      "outputs": [
        {
          "internalType": "bool",
          "name": "",
          "type": "bool"
        }
      ],
      "stateMutability": "view",
      "type": "function"
    },
    {
      "inputs": [
        {
          "internalType": "address",
          "name": "",
          "type": "address"
        }
      ],
      "name": "governors",
      "outputs": [
        {
          "internalType": "bool",
          "name": "",
          "type": "bool"
        }
      ],
      "stateMutability": "view",
      "type": "function"
    },
    {
      "inputs": [
        {
          "internalType": "address",
          "name": "",
          "type": "address"
        }
      ],
      "name": "guardians",
      "outputs": [
        {
          "internalType": "bool",
          "name": "",
          "type": "bool"
        }
      ],
      "stateMutability": "view",
      "type": "function"
    },
    {
      "inputs": [
        {
          "internalType": "address",
          "name": "treasury",
          "type": "address"
        }
      ],
      "name": "isFlashLoanerTreasury",
      "outputs": [
        {
          "internalType": "bool",
          "name": "",
          "type": "bool"
        }
      ],
      "stateMutability": "view",
      "type": "function"
    },
    {
      "inputs": [
        {
          "internalType": "address",
          "name": "admin",
          "type": "address"
        }
      ],
      "name": "isGovernor",
      "outputs": [
        {
          "internalType": "bool",
          "name": "",
          "type": "bool"
        }
      ],
      "stateMutability": "view",
      "type": "function"
    },
    {
      "inputs": [
        {
          "internalType": "address",
          "name": "admin",
          "type": "address"
        }
      ],
      "name": "isGovernorOrGuardian",
      "outputs": [
        {
          "internalType": "bool",
          "name": "",
          "type": "bool"
        }
      ],
      "stateMutability": "view",
      "type": "function"
    },
    {
      "inputs": [
        {
          "internalType": "contract IFlashAngle",
          "name": "flashAngle",
          "type": "address"
        },
        {
          "internalType": "address",
          "name": "_treasury",
          "type": "address"
        }
      ],
      "name": "removeStablecoinSupport",
      "outputs": [],
      "stateMutability": "nonpayable",
      "type": "function"
    },
    {
      "inputs": [
        {
          "internalType": "contract IFlashAngle",
          "name": "flashAngle",
          "type": "address"
        },
        {
          "internalType": "address",
          "name": "_core",
          "type": "address"
        }
      ],
      "name": "setCore",
      "outputs": [],
      "stateMutability": "nonpayable",
      "type": "function"
    },
    {
      "inputs": [
        {
          "internalType": "contract ITreasury",
          "name": "_treasury",
          "type": "address"
        },
        {
          "internalType": "address",
          "name": "_flashLoanModule",
          "type": "address"
        }
      ],
      "name": "setFlashLoanModule",
      "outputs": [],
      "stateMutability": "nonpayable",
      "type": "function"
    },
    {
      "inputs": [
        {
          "internalType": "address",
          "name": "admin",
          "type": "address"
        }
      ],
      "name": "toggleFlashLoaners",
      "outputs": [],
      "stateMutability": "nonpayable",
      "type": "function"
    },
    {
      "inputs": [
        {
          "internalType": "address",
          "name": "admin",
          "type": "address"
        }
      ],
      "name": "toggleGovernor",
      "outputs": [],
      "stateMutability": "nonpayable",
      "type": "function"
    },
    {
      "inputs": [
        {
          "internalType": "address",
          "name": "admin",
          "type": "address"
        }
      ],
      "name": "toggleGuardian",
      "outputs": [],
      "stateMutability": "nonpayable",
      "type": "function"
    }
  ],
  "transactionHash": "0x1b742f58fa7ad69206fa1f3bd63637f6f9def2afa03485530add659813902fb1",
  "args": [],
  "numDeployments": 1,
  "solcInputHash": "6f4425f71fc851428aa4b6d27ae33edb",
  "bytecode": "0x608060405234801561001057600080fd5b506105f3806100206000396000f3fe608060405234801561001057600080fd5b50600436106100df5760003560e01c80636166632d1161008c578063e42456c811610066578063e42456c814610273578063e43581b8146102d5578063f02dd8a21461030e578063fce53df61461034757600080fd5b80636166632d146101db57806366234daa1461023d578063e3eece261461025057600080fd5b80634bf15fab116100bd5780634bf15fab14610153578063521d4de9146101665780635480278b1461017957600080fd5b80630633b14a146100e45780632d3a1a051461011b5780633b529ddf1461013e575b600080fd5b6101076100f2366004610560565b60026020526000908152604090205460ff1681565b604051901515815260200160405180910390f35b610107610129366004610560565b60006020819052908152604090205460ff1681565b61015161014c366004610584565b61035a565b005b610151610161366004610584565b6103e0565b610107610174366004610560565b610434565b610151610187366004610560565b73ffffffffffffffffffffffffffffffffffffffff16600090815260026020526040902080547fffffffffffffffffffffffffffffffffffffffffffffffffffffffffffffff00811660ff90911615179055565b6101516101e9366004610560565b73ffffffffffffffffffffffffffffffffffffffff16600090815260016020526040902080547fffffffffffffffffffffffffffffffffffffffffffffffffffffffffffffff00811660ff90911615179055565b61015161024b366004610584565b610493565b61010761025e366004610560565b60016020526000908152604090205460ff1681565b610151610281366004610560565b73ffffffffffffffffffffffffffffffffffffffff16600090815260208190526040902080547fffffffffffffffffffffffffffffffffffffffffffffffffffffffffffffff00811660ff90911615179055565b6101076102e3366004610560565b73ffffffffffffffffffffffffffffffffffffffff1660009081526001602052604090205460ff1690565b61010761031c366004610560565b73ffffffffffffffffffffffffffffffffffffffff1660009081526020819052604090205460ff1690565b610151610355366004610584565b6104e7565b6040517f543bd64700000000000000000000000000000000000000000000000000000000815273ffffffffffffffffffffffffffffffffffffffff828116600483015283169063543bd647906024015b600060405180830381600087803b1580156103c457600080fd5b505af11580156103d8573d6000803e3d6000fd5b505050505050565b6040517f8000963000000000000000000000000000000000000000000000000000000000815273ffffffffffffffffffffffffffffffffffffffff82811660048301528316906380009630906024016103aa565b73ffffffffffffffffffffffffffffffffffffffff811660009081526001602052604081205460ff168061048d575073ffffffffffffffffffffffffffffffffffffffff821660009081526002602052604090205460ff165b92915050565b6040517f21c29f9200000000000000000000000000000000000000000000000000000000815273ffffffffffffffffffffffffffffffffffffffff82811660048301528316906321c29f92906024016103aa565b6040517f442320c100000000000000000000000000000000000000000000000000000000815273ffffffffffffffffffffffffffffffffffffffff828116600483015283169063442320c1906024016103aa565b73ffffffffffffffffffffffffffffffffffffffff8116811461055d57600080fd5b50565b60006020828403121561057257600080fd5b813561057d8161053b565b9392505050565b6000806040838503121561059757600080fd5b82356105a28161053b565b915060208301356105b28161053b565b80915050925092905056fea2646970667358221220dab6e6955d5f195aea8e45d1f074fcf2253e81ae69e196d762ce06aa1b9cf72b64736f6c63430008110033",
  "devdoc": {
    "kind": "dev",
    "methods": {
      "isFlashLoanerTreasury(address)": {
        "params": {
          "treasury": "Address to check"
        },
        "returns": {
          "_0": "Whether the address has the `FLASHLOANER_TREASURY_ROLE` or not"
        }
      },
      "isGovernor(address)": {
        "params": {
          "admin": "Address to check"
        },
        "returns": {
          "_0": "Whether the address has the `GOVERNOR_ROLE` or not"
        }
      },
      "isGovernorOrGuardian(address)": {
        "details": "Governance should make sure when adding a governor to also give this governor the guardian role by calling the `addGovernor` function",
        "params": {
          "admin": "Address to check"
        },
        "returns": {
          "_0": "Whether the address has the `GUARDIAN_ROLE` or not"
        }
      }
    },
    "version": 1
  },
  "userdoc": {
    "kind": "user",
    "methods": {
      "isFlashLoanerTreasury(address)": {
        "notice": "Checks if an address corresponds to a treasury of a stablecoin with a flash loan module initialized on it"
      },
      "isGovernor(address)": {
        "notice": "Checks whether an address is governor of the Angle Protocol or not"
      },
      "isGovernorOrGuardian(address)": {
        "notice": "Checks whether an address is governor or a guardian of the Angle Protocol or not"
      }
    },
    "version": 1
  },
  "storageLayout": {
    "storage": [
      {
        "astId": 20523,
        "contract": "contracts/mock/MockCoreBorrow.sol:MockCoreBorrow",
        "label": "flashLoaners",
        "offset": 0,
        "slot": "0",
        "type": "t_mapping(t_address,t_bool)"
      },
      {
        "astId": 20527,
        "contract": "contracts/mock/MockCoreBorrow.sol:MockCoreBorrow",
        "label": "governors",
        "offset": 0,
        "slot": "1",
        "type": "t_mapping(t_address,t_bool)"
      },
      {
        "astId": 20531,
        "contract": "contracts/mock/MockCoreBorrow.sol:MockCoreBorrow",
        "label": "guardians",
        "offset": 0,
        "slot": "2",
        "type": "t_mapping(t_address,t_bool)"
      }
    ],
    "types": {
      "t_address": {
        "encoding": "inplace",
        "label": "address",
        "numberOfBytes": "20"
      },
      "t_bool": {
        "encoding": "inplace",
        "label": "bool",
        "numberOfBytes": "1"
      },
      "t_mapping(t_address,t_bool)": {
        "encoding": "mapping",
        "key": "t_address",
        "label": "mapping(address => bool)",
        "numberOfBytes": "32",
        "value": "t_bool"
      }
    }
  }
}