{
  "address": "0x6d92Ac3091f99c032b5c7E33ac846dB783Cf909c",
  "abi": [
    {
      "inputs": [
        {
          "internalType": "contract IAgToken",
          "name": "_stablecoin",
          "type": "address"
        },
        {
          "internalType": "address",
          "name": "_governor",
          "type": "address"
        },
        {
          "internalType": "address",
          "name": "_guardian",
          "type": "address"
        },
        {
          "internalType": "address",
          "name": "_vaultManager1",
          "type": "address"
        },
        {
          "internalType": "address",
          "name": "_vaultManager2",
          "type": "address"
        },
        {
          "internalType": "address",
          "name": "_flashLoanModule",
          "type": "address"
        }
      ],
      "stateMutability": "nonpayable",
      "type": "constructor"
    },
    {
      "inputs": [
        {
          "internalType": "contract IFlashAngle",
          "name": "flashAngle",
          "type": "address"
        }
      ],
      "name": "accrueInterestToTreasury",
      "outputs": [
        {
          "internalType": "uint256",
          "name": "balance",
          "type": "uint256"
        }
      ],
      "stateMutability": "nonpayable",
      "type": "function"
    },
    {
      "inputs": [
        {
          "internalType": "contract IVaultManager",
          "name": "_vaultManager",
          "type": "address"
        }
      ],
      "name": "accrueInterestToTreasuryVaultManager",
      "outputs": [
        {
          "internalType": "uint256",
          "name": "",
          "type": "uint256"
        },
        {
          "internalType": "uint256",
          "name": "",
          "type": "uint256"
        }
      ],
      "stateMutability": "nonpayable",
      "type": "function"
    },
    {
      "inputs": [
        {
          "internalType": "contract IAgToken",
          "name": "_agToken",
          "type": "address"
        },
        {
          "internalType": "address",
          "name": "_minter",
          "type": "address"
        }
      ],
      "name": "addMinter",
      "outputs": [],
      "stateMutability": "nonpayable",
      "type": "function"
    },
    {
      "inputs": [],
      "name": "flashLoanModule",
      "outputs": [
        {
          "internalType": "address",
          "name": "",
          "type": "address"
        }
      ],
      "stateMutability": "view",
      "type": "function"
    },
    {
      "inputs": [],
      "name": "governor",
      "outputs": [
        {
          "internalType": "address",
          "name": "",
          "type": "address"
        }
      ],
      "stateMutability": "view",
      "type": "function"
    },
    {
      "inputs": [],
      "name": "guardian",
      "outputs": [
        {
          "internalType": "address",
          "name": "",
          "type": "address"
        }
      ],
      "stateMutability": "view",
      "type": "function"
    },
    {
      "inputs": [
        {
          "internalType": "address",
          "name": "admin",
          "type": "address"
        }
      ],
      "name": "isGovernor",
      "outputs": [
        {
          "internalType": "bool",
          "name": "",
          "type": "bool"
        }
      ],
      "stateMutability": "view",
      "type": "function"
    },
    {
      "inputs": [
        {
          "internalType": "address",
          "name": "admin",
          "type": "address"
        }
      ],
      "name": "isGovernorOrGuardian",
      "outputs": [
        {
          "internalType": "bool",
          "name": "",
          "type": "bool"
        }
      ],
      "stateMutability": "view",
      "type": "function"
    },
    {
      "inputs": [
        {
          "internalType": "address",
          "name": "_vaultManager",
          "type": "address"
        }
      ],
      "name": "isVaultManager",
      "outputs": [
        {
          "internalType": "bool",
          "name": "",
          "type": "bool"
        }
      ],
      "stateMutability": "view",
      "type": "function"
    },
    {
      "inputs": [
        {
          "internalType": "contract IAgToken",
          "name": "_agToken",
          "type": "address"
        },
        {
          "internalType": "address",
          "name": "_minter",
          "type": "address"
        }
      ],
      "name": "removeMinter",
      "outputs": [],
      "stateMutability": "nonpayable",
      "type": "function"
    },
    {
      "inputs": [
        {
          "internalType": "address",
          "name": "_flashLoanModule",
          "type": "address"
        }
      ],
      "name": "setFlashLoanModule",
      "outputs": [],
      "stateMutability": "nonpayable",
      "type": "function"
    },
    {
      "inputs": [
        {
          "internalType": "address",
          "name": "_governor",
          "type": "address"
        }
      ],
      "name": "setGovernor",
      "outputs": [],
      "stateMutability": "nonpayable",
      "type": "function"
    },
    {
      "inputs": [
        {
          "internalType": "contract IAgToken",
          "name": "_stablecoin",
          "type": "address"
        }
      ],
      "name": "setStablecoin",
      "outputs": [],
      "stateMutability": "nonpayable",
      "type": "function"
    },
    {
      "inputs": [
        {
          "internalType": "address",
          "name": "_agTokenOrVaultManager",
          "type": "address"
        },
        {
          "internalType": "address",
          "name": "_treasury",
          "type": "address"
        }
      ],
      "name": "setTreasury",
      "outputs": [],
      "stateMutability": "nonpayable",
      "type": "function"
    },
    {
      "inputs": [
        {
          "internalType": "address",
          "name": "_vaultManager",
          "type": "address"
        }
      ],
      "name": "setVaultManager",
      "outputs": [],
      "stateMutability": "nonpayable",
      "type": "function"
    },
    {
      "inputs": [
        {
          "internalType": "address",
          "name": "_vaultManager",
          "type": "address"
        }
      ],
      "name": "setVaultManager2",
      "outputs": [],
      "stateMutability": "nonpayable",
      "type": "function"
    },
    {
      "inputs": [],
      "name": "stablecoin",
      "outputs": [
        {
          "internalType": "contract IAgToken",
          "name": "",
          "type": "address"
        }
      ],
      "stateMutability": "view",
      "type": "function"
    },
    {
      "inputs": [],
      "name": "vaultManager1",
      "outputs": [
        {
          "internalType": "address",
          "name": "",
          "type": "address"
        }
      ],
      "stateMutability": "view",
      "type": "function"
    },
    {
      "inputs": [],
      "name": "vaultManager2",
      "outputs": [
        {
          "internalType": "address",
          "name": "",
          "type": "address"
        }
      ],
      "stateMutability": "view",
      "type": "function"
    }
  ],
  "transactionHash": "0xc943ca8a0539883b67387ecd09de14b7f98557beb47d757a5a5b9defbb5b3ec8",
  "args": [
    "0xe80A456A755E3fA94E010b3Bb0114F2Fe8668ec9",
    "0xEd42E58A303E20523A695CB31ac31df26C50397B",
    "0xEd42E58A303E20523A695CB31ac31df26C50397B",
    "0x0000000000000000000000000000000000000000",
    "0x0000000000000000000000000000000000000000",
    "0x0000000000000000000000000000000000000000"
  ],
  "solcInputHash": "73837120e578046a4872b917fc1be19c",
  "bytecode": "0x608060405234801561001057600080fd5b506040516109ec3803806109ec83398101604081905261002f916100b9565b600080546001600160a01b03199081166001600160a01b0398891617909155600180548216968816969096179095556002805486169487169490941790935560038054851692861692909217909155600480548416918516919091179055600580549092169216919091179055610140565b6001600160a01b03811681146100b657600080fd5b50565b60008060008060008060c087890312156100d257600080fd5b86516100dd816100a1565b60208801519096506100ee816100a1565b60408801519095506100ff816100a1565b6060880151909450610110816100a1565b6080880151909350610121816100a1565b60a0880151909250610132816100a1565b809150509295509295509295565b61089d8061014f6000396000f3fe608060405234801561001057600080fd5b50600436106101515760003560e01c8063adfe0870116100cd578063e43581b811610081578063f28de7ed11610066578063f28de7ed14610477578063f92176a914610497578063fa188df2146104bf57600080fd5b8063e43581b814610428578063e9cbd8221461045757600080fd5b8063b543503e116100b2578063b543503e14610329578063c42cf5351461037e578063e088bfc0146103d357600080fd5b8063adfe0870146102c1578063b487ef52146102d457600080fd5b8063676a553e11610124578063959d5a0111610109578063959d5a011461026057806396337bd51461028057806397f5a956146102a157600080fd5b8063676a553e1461023a5780637b1d63181461024d57600080fd5b80630c340a241461015657806321c29f92146101a0578063452a9320146101f7578063521d4de914610217575b600080fd5b6001546101769073ffffffffffffffffffffffffffffffffffffffff1681565b60405173ffffffffffffffffffffffffffffffffffffffff90911681526020015b60405180910390f35b6101f56101ae3660046107cd565b600580547fffffffffffffffffffffffff00000000000000000000000000000000000000001673ffffffffffffffffffffffffffffffffffffffff92909216919091179055565b005b6002546101769073ffffffffffffffffffffffffffffffffffffffff1681565b61022a6102253660046107cd565b6104d2565b6040519015158152602001610197565b61022a6102483660046107cd565b61051e565b6101f561025b3660046107f1565b610567565b6005546101769073ffffffffffffffffffffffffffffffffffffffff1681565b61029361028e3660046107cd565b6105ed565b604051908152602001610197565b6003546101769073ffffffffffffffffffffffffffffffffffffffff1681565b6101f56102cf3660046107f1565b610684565b6101f56102e23660046107cd565b600480547fffffffffffffffffffffffff00000000000000000000000000000000000000001673ffffffffffffffffffffffffffffffffffffffff92909216919091179055565b6101f56103373660046107cd565b600380547fffffffffffffffffffffffff00000000000000000000000000000000000000001673ffffffffffffffffffffffffffffffffffffffff92909216919091179055565b6101f561038c3660046107cd565b600180547fffffffffffffffffffffffff00000000000000000000000000000000000000001673ffffffffffffffffffffffffffffffffffffffff92909216919091179055565b6101f56103e13660046107cd565b600080547fffffffffffffffffffffffff00000000000000000000000000000000000000001673ffffffffffffffffffffffffffffffffffffffff92909216919091179055565b61022a6104363660046107cd565b60015473ffffffffffffffffffffffffffffffffffffffff91821691161490565b6000546101769073ffffffffffffffffffffffffffffffffffffffff1681565b6004546101769073ffffffffffffffffffffffffffffffffffffffff1681565b6104aa6104a53660046107cd565b6106d8565b60408051928352602083019190915201610197565b6101f56104cd3660046107f1565b610754565b60015460009073ffffffffffffffffffffffffffffffffffffffff83811691161480610518575060025473ffffffffffffffffffffffffffffffffffffffff8381169116145b92915050565b60035460009073ffffffffffffffffffffffffffffffffffffffff8381169116148061051857505060045473ffffffffffffffffffffffffffffffffffffffff90811691161490565b6040517f3092afd500000000000000000000000000000000000000000000000000000000815273ffffffffffffffffffffffffffffffffffffffff8281166004830152831690633092afd5906024015b600060405180830381600087803b1580156105d157600080fd5b505af11580156105e5573d6000803e3d6000fd5b505050505050565b600080546040517f96337bd500000000000000000000000000000000000000000000000000000000815273ffffffffffffffffffffffffffffffffffffffff9182166004820152908316906396337bd5906024016020604051808303816000875af1158015610660573d6000803e3d6000fd5b505050506040513d601f19601f82011682018060405250810190610518919061082a565b6040517ff0f4426000000000000000000000000000000000000000000000000000000000815273ffffffffffffffffffffffffffffffffffffffff828116600483015283169063f0f44260906024016105b7565b6000808273ffffffffffffffffffffffffffffffffffffffff1663fd527cf86040518163ffffffff1660e01b815260040160408051808303816000875af1158015610727573d6000803e3d6000fd5b505050506040513d601f19601f8201168201806040525081019061074b9190610843565b91509150915091565b6040517f983b2d5600000000000000000000000000000000000000000000000000000000815273ffffffffffffffffffffffffffffffffffffffff828116600483015283169063983b2d56906024016105b7565b73ffffffffffffffffffffffffffffffffffffffff811681146107ca57600080fd5b50565b6000602082840312156107df57600080fd5b81356107ea816107a8565b9392505050565b6000806040838503121561080457600080fd5b823561080f816107a8565b9150602083013561081f816107a8565b809150509250929050565b60006020828403121561083c57600080fd5b5051919050565b6000806040838503121561085657600080fd5b50508051602090910151909290915056fea26469706673582212205750cdce047ff465fb1b7a3bd2ddffa17da90c91583de6667399b7ec804071b564736f6c634300080c0033",
  "devdoc": {
    "kind": "dev",
    "methods": {
      "isGovernor(address)": {
        "details": "Access control is only kept in the `CoreBorrow` contract",
        "params": {
          "admin": "Address to check"
        },
        "returns": {
          "_0": "Whether the address has the governor role"
        }
      },
      "isGovernorOrGuardian(address)": {
        "details": "Access control is only kept in the `CoreBorrow` contract which means that this function queries the `CoreBorrow` contract",
        "params": {
          "admin": "Address to check"
        },
        "returns": {
          "_0": "Whether the address has the guardian or the governor role"
        }
      },
      "isVaultManager(address)": {
        "params": {
          "_vaultManager": "Address to check"
        },
        "returns": {
          "_0": "Whether the address has been initialized or not"
        }
      },
      "setFlashLoanModule(address)": {
        "details": "This function removes the minting right to the old flash loan module and grants it to the new module",
        "params": {
          "_flashLoanModule": "Reference to the new flash loan module"
        }
      }
    },
    "version": 1
  },
  "userdoc": {
    "kind": "user",
    "methods": {
      "isGovernor(address)": {
        "notice": "Checks whether a given address has the  governor role"
      },
      "isGovernorOrGuardian(address)": {
        "notice": "Checks whether a given address has the guardian or the governor role"
      },
      "isVaultManager(address)": {
        "notice": "Checks whether a given address has well been initialized in this contract as a `VaultManager``"
      },
      "setFlashLoanModule(address)": {
        "notice": "Sets a new flash loan module for this stablecoin"
      },
      "stablecoin()": {
        "notice": "Stablecoin handled by this `treasury` contract"
      }
    },
    "version": 1
  },
  "storageLayout": {
    "storage": [
      {
        "astId": 17859,
        "contract": "contracts/mock/MockTreasury.sol:MockTreasury",
        "label": "stablecoin",
        "offset": 0,
        "slot": "0",
        "type": "t_contract(IAgToken)13628"
      },
      {
        "astId": 17861,
        "contract": "contracts/mock/MockTreasury.sol:MockTreasury",
        "label": "governor",
        "offset": 0,
        "slot": "1",
        "type": "t_address"
      },
      {
        "astId": 17863,
        "contract": "contracts/mock/MockTreasury.sol:MockTreasury",
        "label": "guardian",
        "offset": 0,
        "slot": "2",
        "type": "t_address"
      },
      {
        "astId": 17865,
        "contract": "contracts/mock/MockTreasury.sol:MockTreasury",
        "label": "vaultManager1",
        "offset": 0,
        "slot": "3",
        "type": "t_address"
      },
      {
        "astId": 17867,
        "contract": "contracts/mock/MockTreasury.sol:MockTreasury",
        "label": "vaultManager2",
        "offset": 0,
        "slot": "4",
        "type": "t_address"
      },
      {
        "astId": 17869,
        "contract": "contracts/mock/MockTreasury.sol:MockTreasury",
        "label": "flashLoanModule",
        "offset": 0,
        "slot": "5",
        "type": "t_address"
      }
    ],
    "types": {
      "t_address": {
        "encoding": "inplace",
        "label": "address",
        "numberOfBytes": "20"
      },
      "t_contract(IAgToken)13628": {
        "encoding": "inplace",
        "label": "contract IAgToken",
        "numberOfBytes": "20"
      }
    }
  }
}