{
  "address": "0x9De6Efe3454F8EFF8C8C8d1314CD019AF2432e59",
  "abi": [
    {
      "inputs": [
        {
          "internalType": "contract IAgToken",
          "name": "_stablecoin",
          "type": "address"
        },
        {
          "internalType": "address",
          "name": "_governor",
          "type": "address"
        },
        {
          "internalType": "address",
          "name": "_guardian",
          "type": "address"
        },
        {
          "internalType": "address",
          "name": "_vaultManager1",
          "type": "address"
        },
        {
          "internalType": "address",
          "name": "_vaultManager2",
          "type": "address"
        },
        {
          "internalType": "address",
          "name": "_flashLoanModule",
          "type": "address"
        }
      ],
      "stateMutability": "nonpayable",
      "type": "constructor"
    },
    {
      "inputs": [
        {
          "internalType": "contract IFlashAngle",
          "name": "flashAngle",
          "type": "address"
        }
      ],
      "name": "accrueInterestToTreasury",
      "outputs": [
        {
          "internalType": "uint256",
          "name": "balance",
          "type": "uint256"
        }
      ],
      "stateMutability": "nonpayable",
      "type": "function"
    },
    {
      "inputs": [
        {
          "internalType": "contract IVaultManager",
          "name": "_vaultManager",
          "type": "address"
        }
      ],
      "name": "accrueInterestToTreasuryVaultManager",
      "outputs": [
        {
          "internalType": "uint256",
          "name": "",
          "type": "uint256"
        },
        {
          "internalType": "uint256",
          "name": "",
          "type": "uint256"
        }
      ],
      "stateMutability": "nonpayable",
      "type": "function"
    },
    {
      "inputs": [
        {
          "internalType": "contract IAgToken",
          "name": "_agToken",
          "type": "address"
        },
        {
          "internalType": "address",
          "name": "_minter",
          "type": "address"
        }
      ],
      "name": "addMinter",
      "outputs": [],
      "stateMutability": "nonpayable",
      "type": "function"
    },
    {
      "inputs": [],
      "name": "flashLoanModule",
      "outputs": [
        {
          "internalType": "address",
          "name": "",
          "type": "address"
        }
      ],
      "stateMutability": "view",
      "type": "function"
    },
    {
      "inputs": [],
      "name": "governor",
      "outputs": [
        {
          "internalType": "address",
          "name": "",
          "type": "address"
        }
      ],
      "stateMutability": "view",
      "type": "function"
    },
    {
      "inputs": [],
      "name": "guardian",
      "outputs": [
        {
          "internalType": "address",
          "name": "",
          "type": "address"
        }
      ],
      "stateMutability": "view",
      "type": "function"
    },
    {
      "inputs": [
        {
          "internalType": "address",
          "name": "admin",
          "type": "address"
        }
      ],
      "name": "isGovernor",
      "outputs": [
        {
          "internalType": "bool",
          "name": "",
          "type": "bool"
        }
      ],
      "stateMutability": "view",
      "type": "function"
    },
    {
      "inputs": [
        {
          "internalType": "address",
          "name": "admin",
          "type": "address"
        }
      ],
      "name": "isGovernorOrGuardian",
      "outputs": [
        {
          "internalType": "bool",
          "name": "",
          "type": "bool"
        }
      ],
      "stateMutability": "view",
      "type": "function"
    },
    {
      "inputs": [
        {
          "internalType": "address",
          "name": "_vaultManager",
          "type": "address"
        }
      ],
      "name": "isVaultManager",
      "outputs": [
        {
          "internalType": "bool",
          "name": "",
          "type": "bool"
        }
      ],
      "stateMutability": "view",
      "type": "function"
    },
    {
      "inputs": [
        {
          "internalType": "contract IAgToken",
          "name": "_agToken",
          "type": "address"
        },
        {
          "internalType": "address",
          "name": "_minter",
          "type": "address"
        }
      ],
      "name": "removeMinter",
      "outputs": [],
      "stateMutability": "nonpayable",
      "type": "function"
    },
    {
      "inputs": [
        {
          "internalType": "address",
          "name": "_flashLoanModule",
          "type": "address"
        }
      ],
      "name": "setFlashLoanModule",
      "outputs": [],
      "stateMutability": "nonpayable",
      "type": "function"
    },
    {
      "inputs": [
        {
          "internalType": "address",
          "name": "_governor",
          "type": "address"
        }
      ],
      "name": "setGovernor",
      "outputs": [],
      "stateMutability": "nonpayable",
      "type": "function"
    },
    {
      "inputs": [
        {
          "internalType": "address",
          "name": "_agTokenOrVaultManager",
          "type": "address"
        },
        {
          "internalType": "address",
          "name": "_treasury",
          "type": "address"
        }
      ],
      "name": "setTreasury",
      "outputs": [],
      "stateMutability": "nonpayable",
      "type": "function"
    },
    {
      "inputs": [
        {
          "internalType": "address",
          "name": "_vaultManager",
          "type": "address"
        }
      ],
      "name": "setVaultManager",
      "outputs": [],
      "stateMutability": "nonpayable",
      "type": "function"
    },
    {
      "inputs": [
        {
          "internalType": "address",
          "name": "_vaultManager",
          "type": "address"
        }
      ],
      "name": "setVaultManager2",
      "outputs": [],
      "stateMutability": "nonpayable",
      "type": "function"
    },
    {
      "inputs": [],
      "name": "stablecoin",
      "outputs": [
        {
          "internalType": "contract IAgToken",
          "name": "",
          "type": "address"
        }
      ],
      "stateMutability": "view",
      "type": "function"
    },
    {
      "inputs": [],
      "name": "vaultManager1",
      "outputs": [
        {
          "internalType": "address",
          "name": "",
          "type": "address"
        }
      ],
      "stateMutability": "view",
      "type": "function"
    },
    {
      "inputs": [],
      "name": "vaultManager2",
      "outputs": [
        {
          "internalType": "address",
          "name": "",
          "type": "address"
        }
      ],
      "stateMutability": "view",
      "type": "function"
    }
  ],
  "transactionHash": "0x34386375341a45c6be2d521c9e4a56c187c82e024408129b5f7843b3e668d42a",
  "args": [
    "0x8928d0C942CA48Ea86F458857de61b92D6f5A564",
    "0xfdA462548Ce04282f4B6D6619823a7C64Fdc0185",
    "0xfdA462548Ce04282f4B6D6619823a7C64Fdc0185",
    "0x0000000000000000000000000000000000000000",
    "0x0000000000000000000000000000000000000000",
    "0x0000000000000000000000000000000000000000"
  ],
  "solcInputHash": "574b719acc242501c374d47684f25576",
  "bytecode": "0x608060405234801561001057600080fd5b5060405161097c38038061097c83398101604081905261002f916100b9565b600080546001600160a01b03199081166001600160a01b0398891617909155600180548216968816969096179095556002805486169487169490941790935560038054851692861692909217909155600480548416918516919091179055600580549092169216919091179055610140565b6001600160a01b03811681146100b657600080fd5b50565b60008060008060008060c087890312156100d257600080fd5b86516100dd816100a1565b60208801519096506100ee816100a1565b60408801519095506100ff816100a1565b6060880151909450610110816100a1565b6080880151909350610121816100a1565b60a0880151909250610132816100a1565b809150509295509295509295565b61082d8061014f6000396000f3fe608060405234801561001057600080fd5b50600436106101365760003560e01c8063adfe0870116100b2578063e43581b811610081578063f28de7ed11610066578063f28de7ed14610407578063f92176a914610427578063fa188df21461044f57600080fd5b8063e43581b8146103b8578063e9cbd822146103e757600080fd5b8063adfe0870146102a6578063b487ef52146102b9578063b543503e1461030e578063c42cf5351461036357600080fd5b8063676a553e11610109578063959d5a01116100ee578063959d5a011461024557806396337bd51461026557806397f5a9561461028657600080fd5b8063676a553e1461021f5780637b1d63181461023257600080fd5b80630c340a241461013b57806321c29f9214610185578063452a9320146101dc578063521d4de9146101fc575b600080fd5b60015461015b9073ffffffffffffffffffffffffffffffffffffffff1681565b60405173ffffffffffffffffffffffffffffffffffffffff90911681526020015b60405180910390f35b6101da61019336600461075d565b600580547fffffffffffffffffffffffff00000000000000000000000000000000000000001673ffffffffffffffffffffffffffffffffffffffff92909216919091179055565b005b60025461015b9073ffffffffffffffffffffffffffffffffffffffff1681565b61020f61020a36600461075d565b610462565b604051901515815260200161017c565b61020f61022d36600461075d565b6104ae565b6101da610240366004610781565b6104f7565b60055461015b9073ffffffffffffffffffffffffffffffffffffffff1681565b61027861027336600461075d565b61057d565b60405190815260200161017c565b60035461015b9073ffffffffffffffffffffffffffffffffffffffff1681565b6101da6102b4366004610781565b610614565b6101da6102c736600461075d565b600480547fffffffffffffffffffffffff00000000000000000000000000000000000000001673ffffffffffffffffffffffffffffffffffffffff92909216919091179055565b6101da61031c36600461075d565b600380547fffffffffffffffffffffffff00000000000000000000000000000000000000001673ffffffffffffffffffffffffffffffffffffffff92909216919091179055565b6101da61037136600461075d565b600180547fffffffffffffffffffffffff00000000000000000000000000000000000000001673ffffffffffffffffffffffffffffffffffffffff92909216919091179055565b61020f6103c636600461075d565b60015473ffffffffffffffffffffffffffffffffffffffff91821691161490565b60005461015b9073ffffffffffffffffffffffffffffffffffffffff1681565b60045461015b9073ffffffffffffffffffffffffffffffffffffffff1681565b61043a61043536600461075d565b610668565b6040805192835260208301919091520161017c565b6101da61045d366004610781565b6106e4565b60015460009073ffffffffffffffffffffffffffffffffffffffff838116911614806104a8575060025473ffffffffffffffffffffffffffffffffffffffff8381169116145b92915050565b60035460009073ffffffffffffffffffffffffffffffffffffffff838116911614806104a857505060045473ffffffffffffffffffffffffffffffffffffffff90811691161490565b6040517f3092afd500000000000000000000000000000000000000000000000000000000815273ffffffffffffffffffffffffffffffffffffffff8281166004830152831690633092afd5906024015b600060405180830381600087803b15801561056157600080fd5b505af1158015610575573d6000803e3d6000fd5b505050505050565b600080546040517f96337bd500000000000000000000000000000000000000000000000000000000815273ffffffffffffffffffffffffffffffffffffffff9182166004820152908316906396337bd5906024016020604051808303816000875af11580156105f0573d6000803e3d6000fd5b505050506040513d601f19601f820116820180604052508101906104a891906107ba565b6040517ff0f4426000000000000000000000000000000000000000000000000000000000815273ffffffffffffffffffffffffffffffffffffffff828116600483015283169063f0f4426090602401610547565b6000808273ffffffffffffffffffffffffffffffffffffffff1663fd527cf86040518163ffffffff1660e01b815260040160408051808303816000875af11580156106b7573d6000803e3d6000fd5b505050506040513d601f19601f820116820180604052508101906106db91906107d3565b91509150915091565b6040517f983b2d5600000000000000000000000000000000000000000000000000000000815273ffffffffffffffffffffffffffffffffffffffff828116600483015283169063983b2d5690602401610547565b73ffffffffffffffffffffffffffffffffffffffff8116811461075a57600080fd5b50565b60006020828403121561076f57600080fd5b813561077a81610738565b9392505050565b6000806040838503121561079457600080fd5b823561079f81610738565b915060208301356107af81610738565b809150509250929050565b6000602082840312156107cc57600080fd5b5051919050565b600080604083850312156107e657600080fd5b50508051602090910151909290915056fea26469706673582212207a6bb8d4b04720e0891c2e1b76c70db02cd7cf0ba721d55ea369f1c3d225805364736f6c634300080c0033",
  "devdoc": {
    "kind": "dev",
    "methods": {
      "isGovernor(address)": {
        "details": "Access control is only kept in the `CoreBorrow` contract",
        "params": {
          "admin": "Address to check"
        },
        "returns": {
          "_0": "Whether the address has the governor role"
        }
      },
      "isGovernorOrGuardian(address)": {
        "details": "Access control is only kept in the `CoreBorrow` contract which means that this function queries the `CoreBorrow` contract",
        "params": {
          "admin": "Address to check"
        },
        "returns": {
          "_0": "Whether the address has the guardian or the governor role"
        }
      },
      "isVaultManager(address)": {
        "params": {
          "_vaultManager": "Address to check"
        },
        "returns": {
          "_0": "Whether the address has been initialized or not"
        }
      },
      "setFlashLoanModule(address)": {
        "details": "This function removes the minting right to the old flash loan module and grants it to the new module",
        "params": {
          "_flashLoanModule": "Reference to the new flash loan module"
        }
      }
    },
    "version": 1
  },
  "userdoc": {
    "kind": "user",
    "methods": {
      "isGovernor(address)": {
        "notice": "Checks whether a given address has the  governor role"
      },
      "isGovernorOrGuardian(address)": {
        "notice": "Checks whether a given address has the guardian or the governor role"
      },
      "isVaultManager(address)": {
        "notice": "Checks whether a given address has well been initialized in this contract as a `VaultManager``"
      },
      "setFlashLoanModule(address)": {
        "notice": "Sets a new flash loan module for this stablecoin"
      },
      "stablecoin()": {
        "notice": "Stablecoin handled by this `treasury` contract"
      }
    },
    "version": 1
  },
  "storageLayout": {
    "storage": [
      {
        "astId": 17446,
        "contract": "contracts/mock/MockTreasury.sol:MockTreasury",
        "label": "stablecoin",
        "offset": 0,
        "slot": "0",
        "type": "t_contract(IAgToken)13218"
      },
      {
        "astId": 17448,
        "contract": "contracts/mock/MockTreasury.sol:MockTreasury",
        "label": "governor",
        "offset": 0,
        "slot": "1",
        "type": "t_address"
      },
      {
        "astId": 17450,
        "contract": "contracts/mock/MockTreasury.sol:MockTreasury",
        "label": "guardian",
        "offset": 0,
        "slot": "2",
        "type": "t_address"
      },
      {
        "astId": 17452,
        "contract": "contracts/mock/MockTreasury.sol:MockTreasury",
        "label": "vaultManager1",
        "offset": 0,
        "slot": "3",
        "type": "t_address"
      },
      {
        "astId": 17454,
        "contract": "contracts/mock/MockTreasury.sol:MockTreasury",
        "label": "vaultManager2",
        "offset": 0,
        "slot": "4",
        "type": "t_address"
      },
      {
        "astId": 17456,
        "contract": "contracts/mock/MockTreasury.sol:MockTreasury",
        "label": "flashLoanModule",
        "offset": 0,
        "slot": "5",
        "type": "t_address"
      }
    ],
    "types": {
      "t_address": {
        "encoding": "inplace",
        "label": "address",
        "numberOfBytes": "20"
      },
      "t_contract(IAgToken)13218": {
        "encoding": "inplace",
        "label": "contract IAgToken",
        "numberOfBytes": "20"
      }
    }
  }
}