{
  "address": "0xb74d948e463e5390a76cD2e63b78E48dA027398b",
  "abi": [
    {
      "inputs": [],
      "stateMutability": "nonpayable",
      "type": "constructor"
    },
    {
      "inputs": [],
      "name": "InvalidCaller",
      "type": "error"
    },
    {
      "inputs": [],
      "name": "InvalidEndpoint",
      "type": "error"
    },
    {
      "inputs": [],
      "name": "InvalidPayload",
      "type": "error"
    },
    {
      "inputs": [],
      "name": "InvalidSource",
      "type": "error"
    },
    {
      "inputs": [],
      "name": "NotGovernor",
      "type": "error"
    },
    {
      "inputs": [],
      "name": "NotGovernorOrGuardian",
      "type": "error"
    },
    {
      "inputs": [],
      "name": "ZeroAddress",
      "type": "error"
    },
    {
      "anonymous": false,
      "inputs": [
        {
          "indexed": false,
          "internalType": "uint16",
          "name": "_srcChainId",
          "type": "uint16"
        },
        {
          "indexed": false,
          "internalType": "bytes",
          "name": "_srcAddress",
          "type": "bytes"
        },
        {
          "indexed": false,
          "internalType": "uint64",
          "name": "_nonce",
          "type": "uint64"
        },
        {
          "indexed": false,
          "internalType": "bytes",
          "name": "_payload",
          "type": "bytes"
        }
      ],
      "name": "MessageFailed",
      "type": "event"
    },
    {
      "anonymous": false,
      "inputs": [
        {
          "indexed": false,
          "internalType": "address",
          "name": "account",
          "type": "address"
        }
      ],
      "name": "Paused",
      "type": "event"
    },
    {
      "anonymous": false,
      "inputs": [
        {
          "indexed": true,
          "internalType": "uint16",
          "name": "_srcChainId",
          "type": "uint16"
        },
        {
          "indexed": true,
          "internalType": "bytes",
          "name": "_srcAddress",
          "type": "bytes"
        },
        {
          "indexed": true,
          "internalType": "address",
          "name": "_toAddress",
          "type": "address"
        },
        {
          "indexed": false,
          "internalType": "uint256",
          "name": "_amount",
          "type": "uint256"
        },
        {
          "indexed": false,
          "internalType": "uint64",
          "name": "_nonce",
          "type": "uint64"
        }
      ],
      "name": "ReceiveFromChain",
      "type": "event"
    },
    {
      "anonymous": false,
      "inputs": [
        {
          "indexed": true,
          "internalType": "address",
          "name": "_sender",
          "type": "address"
        },
        {
          "indexed": true,
          "internalType": "uint16",
          "name": "_dstChainId",
          "type": "uint16"
        },
        {
          "indexed": true,
          "internalType": "bytes",
          "name": "_toAddress",
          "type": "bytes"
        },
        {
          "indexed": false,
          "internalType": "uint256",
          "name": "_amount",
          "type": "uint256"
        },
        {
          "indexed": false,
          "internalType": "uint64",
          "name": "_nonce",
          "type": "uint64"
        }
      ],
      "name": "SendToChain",
      "type": "event"
    },
    {
      "anonymous": false,
      "inputs": [
        {
          "indexed": false,
          "internalType": "uint16",
          "name": "_srcChainId",
          "type": "uint16"
        },
        {
          "indexed": false,
          "internalType": "bytes",
          "name": "_srcAddress",
          "type": "bytes"
        }
      ],
      "name": "SetTrustedRemote",
      "type": "event"
    },
    {
      "anonymous": false,
      "inputs": [
        {
          "indexed": false,
          "internalType": "address",
          "name": "account",
          "type": "address"
        }
      ],
      "name": "Unpaused",
      "type": "event"
    },
    {
      "inputs": [
        {
          "internalType": "address",
          "name": "",
          "type": "address"
        }
      ],
      "name": "balanceOf",
      "outputs": [
        {
          "internalType": "uint256",
          "name": "",
          "type": "uint256"
        }
      ],
      "stateMutability": "view",
      "type": "function"
    },
    {
      "inputs": [],
      "name": "canonicalToken",
      "outputs": [
        {
          "internalType": "contract IERC20",
          "name": "",
          "type": "address"
        }
      ],
      "stateMutability": "view",
      "type": "function"
    },
    {
      "inputs": [
        {
          "internalType": "uint16",
          "name": "_dstChainId",
          "type": "uint16"
        },
        {
          "internalType": "bytes",
          "name": "_toAddress",
          "type": "bytes"
        },
        {
          "internalType": "uint256",
          "name": "_amount",
          "type": "uint256"
        },
        {
          "internalType": "bool",
          "name": "_useZro",
          "type": "bool"
        },
        {
          "internalType": "bytes",
          "name": "_adapterParams",
          "type": "bytes"
        }
      ],
      "name": "estimateSendFee",
      "outputs": [
        {
          "internalType": "uint256",
          "name": "nativeFee",
          "type": "uint256"
        },
        {
          "internalType": "uint256",
          "name": "zroFee",
          "type": "uint256"
        }
      ],
      "stateMutability": "view",
      "type": "function"
    },
    {
      "inputs": [
        {
          "internalType": "uint16",
          "name": "",
          "type": "uint16"
        },
        {
          "internalType": "bytes",
          "name": "",
          "type": "bytes"
        },
        {
          "internalType": "uint64",
          "name": "",
          "type": "uint64"
        }
      ],
      "name": "failedMessages",
      "outputs": [
        {
          "internalType": "bytes32",
          "name": "",
          "type": "bytes32"
        }
      ],
      "stateMutability": "view",
      "type": "function"
    },
    {
      "inputs": [
        {
          "internalType": "uint16",
          "name": "_srcChainId",
          "type": "uint16"
        },
        {
          "internalType": "bytes",
          "name": "_srcAddress",
          "type": "bytes"
        }
      ],
      "name": "forceResumeReceive",
      "outputs": [],
      "stateMutability": "nonpayable",
      "type": "function"
    },
    {
      "inputs": [
        {
          "internalType": "uint16",
          "name": "_version",
          "type": "uint16"
        },
        {
          "internalType": "uint16",
          "name": "_chainId",
          "type": "uint16"
        },
        {
          "internalType": "address",
          "name": "",
          "type": "address"
        },
        {
          "internalType": "uint256",
          "name": "_configType",
          "type": "uint256"
        }
      ],
      "name": "getConfig",
      "outputs": [
        {
          "internalType": "bytes",
          "name": "",
          "type": "bytes"
        }
      ],
      "stateMutability": "view",
      "type": "function"
    },
    {
      "inputs": [
        {
          "internalType": "address",
          "name": "_lzEndpoint",
          "type": "address"
        },
        {
          "internalType": "address",
          "name": "_treasury",
          "type": "address"
        }
      ],
      "name": "initialize",
      "outputs": [],
      "stateMutability": "nonpayable",
      "type": "function"
    },
    {
      "inputs": [
        {
          "internalType": "uint16",
          "name": "_srcChainId",
          "type": "uint16"
        },
        {
          "internalType": "bytes",
          "name": "_srcAddress",
          "type": "bytes"
        }
      ],
      "name": "isTrustedRemote",
      "outputs": [
        {
          "internalType": "bool",
          "name": "",
          "type": "bool"
        }
      ],
      "stateMutability": "view",
      "type": "function"
    },
    {
      "inputs": [],
      "name": "lzEndpoint",
      "outputs": [
        {
          "internalType": "contract ILayerZeroEndpoint",
          "name": "",
          "type": "address"
        }
      ],
      "stateMutability": "view",
      "type": "function"
    },
    {
      "inputs": [
        {
          "internalType": "uint16",
          "name": "_srcChainId",
          "type": "uint16"
        },
        {
          "internalType": "bytes",
          "name": "_srcAddress",
          "type": "bytes"
        },
        {
          "internalType": "uint64",
          "name": "_nonce",
          "type": "uint64"
        },
        {
          "internalType": "bytes",
          "name": "_payload",
          "type": "bytes"
        }
      ],
      "name": "lzReceive",
      "outputs": [],
      "stateMutability": "nonpayable",
      "type": "function"
    },
    {
      "inputs": [
        {
          "internalType": "uint16",
          "name": "_srcChainId",
          "type": "uint16"
        },
        {
          "internalType": "bytes",
          "name": "_srcAddress",
          "type": "bytes"
        },
        {
          "internalType": "uint64",
          "name": "_nonce",
          "type": "uint64"
        },
        {
          "internalType": "bytes",
          "name": "_payload",
          "type": "bytes"
        }
      ],
      "name": "nonblockingLzReceive",
      "outputs": [],
      "stateMutability": "nonpayable",
      "type": "function"
    },
    {
      "inputs": [
        {
          "internalType": "bool",
          "name": "pause",
          "type": "bool"
        }
      ],
      "name": "pauseSendTokens",
      "outputs": [],
      "stateMutability": "nonpayable",
      "type": "function"
    },
    {
      "inputs": [],
      "name": "paused",
      "outputs": [
        {
          "internalType": "bool",
          "name": "",
          "type": "bool"
        }
      ],
      "stateMutability": "view",
      "type": "function"
    },
    {
      "inputs": [
        {
          "internalType": "uint16",
          "name": "_srcChainId",
          "type": "uint16"
        },
        {
          "internalType": "bytes",
          "name": "_srcAddress",
          "type": "bytes"
        },
        {
          "internalType": "uint64",
          "name": "_nonce",
          "type": "uint64"
        },
        {
          "internalType": "bytes",
          "name": "_payload",
          "type": "bytes"
        }
      ],
      "name": "retryMessage",
      "outputs": [],
      "stateMutability": "payable",
      "type": "function"
    },
    {
      "inputs": [
        {
          "internalType": "uint16",
          "name": "_dstChainId",
          "type": "uint16"
        },
        {
          "internalType": "bytes",
          "name": "_toAddress",
          "type": "bytes"
        },
        {
          "internalType": "uint256",
          "name": "_amount",
          "type": "uint256"
        },
        {
          "internalType": "address payable",
          "name": "_refundAddress",
          "type": "address"
        },
        {
          "internalType": "address",
          "name": "_zroPaymentAddress",
          "type": "address"
        },
        {
          "internalType": "bytes",
          "name": "_adapterParams",
          "type": "bytes"
        }
      ],
      "name": "send",
      "outputs": [],
      "stateMutability": "payable",
      "type": "function"
    },
    {
      "inputs": [
        {
          "internalType": "uint16",
          "name": "_dstChainId",
          "type": "uint16"
        },
        {
          "internalType": "bytes",
          "name": "_toAddress",
          "type": "bytes"
        },
        {
          "internalType": "uint256",
          "name": "_amount",
          "type": "uint256"
        },
        {
          "internalType": "address payable",
          "name": "_refundAddress",
          "type": "address"
        },
        {
          "internalType": "address",
          "name": "_zroPaymentAddress",
          "type": "address"
        },
        {
          "internalType": "bytes",
          "name": "_adapterParams",
          "type": "bytes"
        },
        {
          "internalType": "uint256",
          "name": "deadline",
          "type": "uint256"
        },
        {
          "internalType": "uint8",
          "name": "v",
          "type": "uint8"
        },
        {
          "internalType": "bytes32",
          "name": "r",
          "type": "bytes32"
        },
        {
          "internalType": "bytes32",
          "name": "s",
          "type": "bytes32"
        }
      ],
      "name": "sendWithPermit",
      "outputs": [],
      "stateMutability": "payable",
      "type": "function"
    },
    {
      "inputs": [
        {
          "internalType": "uint16",
          "name": "_version",
          "type": "uint16"
        },
        {
          "internalType": "uint16",
          "name": "_chainId",
          "type": "uint16"
        },
        {
          "internalType": "uint256",
          "name": "_configType",
          "type": "uint256"
        },
        {
          "internalType": "bytes",
          "name": "_config",
          "type": "bytes"
        }
      ],
      "name": "setConfig",
      "outputs": [],
      "stateMutability": "nonpayable",
      "type": "function"
    },
    {
      "inputs": [
        {
          "internalType": "uint16",
          "name": "_version",
          "type": "uint16"
        }
      ],
      "name": "setReceiveVersion",
      "outputs": [],
      "stateMutability": "nonpayable",
      "type": "function"
    },
    {
      "inputs": [
        {
          "internalType": "uint16",
          "name": "_version",
          "type": "uint16"
        }
      ],
      "name": "setSendVersion",
      "outputs": [],
      "stateMutability": "nonpayable",
      "type": "function"
    },
    {
      "inputs": [
        {
          "internalType": "uint16",
          "name": "_srcChainId",
          "type": "uint16"
        },
        {
          "internalType": "bytes",
          "name": "_srcAddress",
          "type": "bytes"
        }
      ],
      "name": "setTrustedRemote",
      "outputs": [],
      "stateMutability": "nonpayable",
      "type": "function"
    },
    {
      "inputs": [
        {
          "internalType": "bytes4",
          "name": "interfaceId",
          "type": "bytes4"
        }
      ],
      "name": "supportsInterface",
      "outputs": [
        {
          "internalType": "bool",
          "name": "",
          "type": "bool"
        }
      ],
      "stateMutability": "view",
      "type": "function"
    },
    {
      "inputs": [
        {
          "internalType": "uint256",
          "name": "amount",
          "type": "uint256"
        },
        {
          "internalType": "address",
          "name": "recipient",
          "type": "address"
        }
      ],
      "name": "sweep",
      "outputs": [],
      "stateMutability": "nonpayable",
      "type": "function"
    },
    {
      "inputs": [],
      "name": "treasury",
      "outputs": [
        {
          "internalType": "address",
          "name": "",
          "type": "address"
        }
      ],
      "stateMutability": "view",
      "type": "function"
    },
    {
      "inputs": [
        {
          "internalType": "uint16",
          "name": "",
          "type": "uint16"
        }
      ],
      "name": "trustedRemoteLookup",
      "outputs": [
        {
          "internalType": "bytes",
          "name": "",
          "type": "bytes"
        }
      ],
      "stateMutability": "view",
      "type": "function"
    },
    {
      "inputs": [
        {
          "internalType": "uint256",
          "name": "amount",
          "type": "uint256"
        },
        {
          "internalType": "address",
          "name": "recipient",
          "type": "address"
        }
      ],
      "name": "withdraw",
      "outputs": [
        {
          "internalType": "uint256",
          "name": "",
          "type": "uint256"
        }
      ],
      "stateMutability": "nonpayable",
      "type": "function"
    },
    {
      "inputs": [
        {
          "internalType": "uint256",
          "name": "amount",
          "type": "uint256"
        },
        {
          "internalType": "address",
          "name": "recipient",
          "type": "address"
        }
      ],
      "name": "withdrawFor",
      "outputs": [
        {
          "internalType": "uint256",
          "name": "",
          "type": "uint256"
        }
      ],
      "stateMutability": "nonpayable",
      "type": "function"
    }
  ],
  "transactionHash": "0xdf46c01a381188f0e4e6bbd7297194da02861be76433278d29b8064688b424cc",
  "args": [],
  "solcInputHash": "a02d50cf6d909256c07dcb36a8119563",
  "bytecode": "0x60806040523480156200001157600080fd5b50600054610100900460ff166200002f5760005460ff161562000039565b62000039620000de565b620000a15760405162461bcd60e51b815260206004820152602e60248201527f496e697469616c697a61626c653a20636f6e747261637420697320616c72656160448201526d191e481a5b9a5d1a585b1a5e995960921b606482015260840160405180910390fd5b600054610100900460ff16158015620000c4576000805461ffff19166101011790555b8015620000d7576000805461ff00191690555b5062000102565b6000620000f630620000fc60201b6200182b1760201c565b15905090565b3b151590565b612fc880620001126000396000f3fe60806040526004361061019f5760003560e01c806366ad5c8a116100e1578063cbf9b84b1161008a578063eb8d72b711610064578063eb8d72b714610517578063eed33cef14610537578063f18789221461054a578063f5ecbdbc1461056a57600080fd5b8063cbf9b84b146104b7578063ceb76b55146104d7578063d1deba1f1461050457600080fd5b806385edd8ae116100bb57806385edd8ae14610451578063b353aaa714610464578063cbed8b9c1461049757600080fd5b806366ad5c8a146103d757806370a08231146103f75780637533d7881461042457600080fd5b80633576f6cc1161014e578063485cc95511610128578063485cc955146102fe5780635b8c41e61461031e5780635c975abb1461036d57806361d027b31461038557600080fd5b80633576f6cc1461029e5780633d8b38f6146102be57806342d65a8d146102de57600080fd5b806307e0db171161017f57806307e0db171461022957806310ddb137146102495780632a205e3d1461026957600080fd5b80621d3567146101a4578062f714ce146101c657806301ffc9a7146101f9575b600080fd5b3480156101b057600080fd5b506101c46101bf36600461258e565b61058a565b005b3480156101d257600080fd5b506101e66101e1366004612644565b6106e8565b6040519081526020015b60405180910390f35b34801561020557600080fd5b50610219610214366004612674565b6106fc565b60405190151581526020016101f0565b34801561023557600080fd5b506101c46102443660046126b6565b610758565b34801561025557600080fd5b506101c46102643660046126b6565b6108a9565b34801561027557600080fd5b506102896102843660046126df565b6109d0565b604080519283526020830191909152016101f0565b3480156102aa57600080fd5b506101e66102b9366004612644565b610ac8565b3480156102ca57600080fd5b506102196102d93660046127bb565b610ad5565b3480156102ea57600080fd5b506101c46102f93660046127bb565b610ba1565b34801561030a57600080fd5b506101c461031936600461280e565b610cff565b34801561032a57600080fd5b506101e661033936600461283c565b6001602090815260009384526040808520845180860184018051928152908401958401959095209452929052825290205481565b34801561037957600080fd5b5060c85460ff16610219565b34801561039157600080fd5b506003546103b29073ffffffffffffffffffffffffffffffffffffffff1681565b60405173ffffffffffffffffffffffffffffffffffffffff90911681526020016101f0565b3480156103e357600080fd5b506101c46103f236600461258e565b610ee0565b34801561040357600080fd5b506101e661041236600461289e565b60fb6020526000908152604090205481565b34801561043057600080fd5b5061044461043f3660046126b6565b610f2b565b6040516101f09190612931565b6101c461045f366004612955565b610fc5565b34801561047057600080fd5b506000546103b29062010000900473ffffffffffffffffffffffffffffffffffffffff1681565b3480156104a357600080fd5b506101c46104b2366004612a24565b61108d565b3480156104c357600080fd5b506101c46104d2366004612644565b6111f1565b3480156104e357600080fd5b5060fa546103b29073ffffffffffffffffffffffffffffffffffffffff1681565b6101c461051236600461258e565b611314565b34801561052357600080fd5b506101c46105323660046127bb565b6113fa565b6101c4610545366004612a93565b611521565b34801561055657600080fd5b506101c4610565366004612b39565b61166e565b34801561057657600080fd5b50610444610585366004612b56565b61174e565b60005462010000900473ffffffffffffffffffffffffffffffffffffffff1633146105e1576040517ff1cbb56700000000000000000000000000000000000000000000000000000000815260040160405180910390fd5b61ffff8416600090815260026020526040812080546105ff90612ba3565b80601f016020809104026020016040519081016040528092919081815260200182805461062b90612ba3565b80156106785780601f1061064d57610100808354040283529160200191610678565b820191906000526020600020905b81548152906001019060200180831161065b57829003601f168201915b505050505090508051845114158061069e57508080519060200120848051906020012014155b156106d5576040517f8154374b00000000000000000000000000000000000000000000000000000000815260040160405180910390fd5b6106e185858585611831565b5050505050565b60006106f583338461193c565b9392505050565b60007fffffffff0000000000000000000000000000000000000000000000000000000082167f41e9aeb2000000000000000000000000000000000000000000000000000000001480610752575061075282611a9d565b92915050565b6003546040517f521d4de900000000000000000000000000000000000000000000000000000000815233600482015273ffffffffffffffffffffffffffffffffffffffff9091169063521d4de990602401602060405180830381865afa1580156107c6573d6000803e3d6000fd5b505050506040513d601f19601f820116820180604052508101906107ea9190612bf7565b610820576040517f99e120bc00000000000000000000000000000000000000000000000000000000815260040160405180910390fd5b6000546040517f07e0db1700000000000000000000000000000000000000000000000000000000815261ffff831660048201526201000090910473ffffffffffffffffffffffffffffffffffffffff16906307e0db17906024015b600060405180830381600087803b15801561089557600080fd5b505af11580156106e1573d6000803e3d6000fd5b6003546040517f521d4de900000000000000000000000000000000000000000000000000000000815233600482015273ffffffffffffffffffffffffffffffffffffffff9091169063521d4de990602401602060405180830381865afa158015610917573d6000803e3d6000fd5b505050506040513d601f19601f8201168201806040525081019061093b9190612bf7565b610971576040517f99e120bc00000000000000000000000000000000000000000000000000000000815260040160405180910390fd5b6000546040517f10ddb13700000000000000000000000000000000000000000000000000000000815261ffff831660048201526201000090910473ffffffffffffffffffffffffffffffffffffffff16906310ddb1379060240161087b565b600080600086866040516020016109e8929190612c14565b604080518083037fffffffffffffffffffffffffffffffffffffffffffffffffffffffffffffffe0018152908290526000547f40a7bb1000000000000000000000000000000000000000000000000000000000835290925062010000900473ffffffffffffffffffffffffffffffffffffffff16906340a7bb1090610a79908b90309086908b908b90600401612c36565b6040805180830381865afa158015610a95573d6000803e3d6000fd5b505050506040513d601f19601f82011682018060405250810190610ab99190612c95565b92509250509550959350505050565b60006106f583838461193c565b61ffff831660009081526002602052604081208054829190610af690612ba3565b80601f0160208091040260200160405190810160405280929190818152602001828054610b2290612ba3565b8015610b6f5780601f10610b4457610100808354040283529160200191610b6f565b820191906000526020600020905b815481529060010190602001808311610b5257829003601f168201915b505050505090508383604051610b86929190612cb9565b60405180910390208180519060200120149150509392505050565b6003546040517f521d4de900000000000000000000000000000000000000000000000000000000815233600482015273ffffffffffffffffffffffffffffffffffffffff9091169063521d4de990602401602060405180830381865afa158015610c0f573d6000803e3d6000fd5b505050506040513d601f19601f82011682018060405250810190610c339190612bf7565b610c69576040517f99e120bc00000000000000000000000000000000000000000000000000000000815260040160405180910390fd5b6000546040517f42d65a8d0000000000000000000000000000000000000000000000000000000081526201000090910473ffffffffffffffffffffffffffffffffffffffff16906342d65a8d90610cc890869086908690600401612d12565b600060405180830381600087803b158015610ce257600080fd5b505af1158015610cf6573d6000803e3d6000fd5b50505050505050565b600054610100900460ff16610d1a5760005460ff1615610d1e565b303b155b610daf576040517f08c379a000000000000000000000000000000000000000000000000000000000815260206004820152602e60248201527f496e697469616c697a61626c653a20636f6e747261637420697320616c72656160448201527f647920696e697469616c697a656400000000000000000000000000000000000060648201526084015b60405180910390fd5b600054610100900460ff16158015610dee57600080547fffffffffffffffffffffffffffffffffffffffffffffffffffffffffffff0000166101011790555b610df88383611b34565b8173ffffffffffffffffffffffffffffffffffffffff1663e9cbd8226040518163ffffffff1660e01b8152600401602060405180830381865afa158015610e43573d6000803e3d6000fd5b505050506040513d601f19601f82011682018060405250810190610e679190612d30565b60fa80547fffffffffffffffffffffffff00000000000000000000000000000000000000001673ffffffffffffffffffffffffffffffffffffffff929092169190911790558015610edb57600080547fffffffffffffffffffffffffffffffffffffffffffffffffffffffffffff00ff1690555b505050565b333014610f19576040517f48f5c3ed00000000000000000000000000000000000000000000000000000000815260040160405180910390fd5b610f2584848484611c17565b50505050565b60026020526000908152604090208054610f4490612ba3565b80601f0160208091040260200160405190810160405280929190818152602001828054610f7090612ba3565b8015610fbd5780601f10610f9257610100808354040283529160200191610fbd565b820191906000526020600020905b815481529060010190602001808311610fa057829003601f168201915b505050505081565b60fa546040517fd505accf000000000000000000000000000000000000000000000000000000008152336004820152306024820152604481018a90526064810186905260ff8516608482015260a4810184905260c4810183905273ffffffffffffffffffffffffffffffffffffffff9091169063d505accf9060e401600060405180830381600087803b15801561105b57600080fd5b505af115801561106f573d6000803e3d6000fd5b505050506110818a8a8a8a8a8a611521565b50505050505050505050565b6003546040517f521d4de900000000000000000000000000000000000000000000000000000000815233600482015273ffffffffffffffffffffffffffffffffffffffff9091169063521d4de990602401602060405180830381865afa1580156110fb573d6000803e3d6000fd5b505050506040513d601f19601f8201168201806040525081019061111f9190612bf7565b611155576040517f99e120bc00000000000000000000000000000000000000000000000000000000815260040160405180910390fd5b6000546040517fcbed8b9c0000000000000000000000000000000000000000000000000000000081526201000090910473ffffffffffffffffffffffffffffffffffffffff169063cbed8b9c906111b89088908890889088908890600401612d4d565b600060405180830381600087803b1580156111d257600080fd5b505af11580156111e6573d6000803e3d6000fd5b505050505050505050565b6003546040517f521d4de900000000000000000000000000000000000000000000000000000000815233600482015273ffffffffffffffffffffffffffffffffffffffff9091169063521d4de990602401602060405180830381865afa15801561125f573d6000803e3d6000fd5b505050506040513d601f19601f820116820180604052508101906112839190612bf7565b6112b9576040517f99e120bc00000000000000000000000000000000000000000000000000000000815260040160405180910390fd5b73ffffffffffffffffffffffffffffffffffffffff8116600090815260fb60205260409020546112ea908390612d86565b73ffffffffffffffffffffffffffffffffffffffff909116600090815260fb602052604090205550565b61ffff84166000908152600160205260408082209051611335908690612dc4565b908152604080516020928190038301902067ffffffffffffffff86166000908152925290205490508015806113705750815160208301208114155b156113a7576040517f7c6953f900000000000000000000000000000000000000000000000000000000815260040160405180910390fd5b61ffff851660009081526001602052604080822090516113c8908790612dc4565b908152604080516020928190038301902067ffffffffffffffff8716600090815292529020556106e185858585611c17565b6003546040517f521d4de900000000000000000000000000000000000000000000000000000000815233600482015273ffffffffffffffffffffffffffffffffffffffff9091169063521d4de990602401602060405180830381865afa158015611468573d6000803e3d6000fd5b505050506040513d601f19601f8201168201806040525081019061148c9190612bf7565b6114c2576040517f99e120bc00000000000000000000000000000000000000000000000000000000815260040160405180910390fd5b61ffff831660009081526002602052604090206114e0908383612390565b507ffa41487ad5d6728f0b19276fa1eddc16558578f5109fc39d2dc33c3230470dab83838360405161151493929190612d12565b60405180910390a1505050565b61152c868686611cc2565b935060008585604051602001611543929190612c14565b60405160208183030381529060405290506115618782868686611de1565b600080546040517f7a14574800000000000000000000000000000000000000000000000000000000815261ffff8a1660048201523060248201526201000090910473ffffffffffffffffffffffffffffffffffffffff1690637a14574890604401602060405180830381865afa1580156115df573d6000803e3d6000fd5b505050506040513d601f19601f820116820180604052508101906116039190612de0565b9050866040516116139190612dc4565b6040805191829003822088835267ffffffffffffffff841660208401529161ffff8b169133917f024797cc77ce15dc717112d54fb1df125fdfd8c81344fb046c5e074427ce1543910160405180910390a45050505050505050565b6003546040517f521d4de900000000000000000000000000000000000000000000000000000000815233600482015273ffffffffffffffffffffffffffffffffffffffff9091169063521d4de990602401602060405180830381865afa1580156116dc573d6000803e3d6000fd5b505050506040513d601f19601f820116820180604052508101906117009190612bf7565b611736576040517f99e120bc00000000000000000000000000000000000000000000000000000000815260040160405180910390fd5b8061174657611743611f5c565b50565b61174361203d565b6000546040517ff5ecbdbc00000000000000000000000000000000000000000000000000000000815261ffff8087166004830152851660248201523060448201526064810183905260609162010000900473ffffffffffffffffffffffffffffffffffffffff169063f5ecbdbc90608401600060405180830381865afa1580156117dc573d6000803e3d6000fd5b505050506040513d6000823e601f3d9081017fffffffffffffffffffffffffffffffffffffffffffffffffffffffffffffffe01682016040526118229190810190612e4a565b95945050505050565b3b151590565b6040517f66ad5c8a00000000000000000000000000000000000000000000000000000000815230906366ad5c8a90611873908790879087908790600401612e7f565b600060405180830381600087803b15801561188d57600080fd5b505af192505050801561189e575060015b610f25578080519060200120600160008661ffff1661ffff168152602001908152602001600020846040516118d39190612dc4565b90815260408051918290036020908101832067ffffffffffffffff87166000908152915220919091557fe6f254030bcb01ffd20558175c13fcaed6d1520be7becee4c961b65f79243b0d9061192f908690869086908690612e7f565b60405180910390a1610f25565b600061194a60c85460ff1690565b156119b1576040517f08c379a000000000000000000000000000000000000000000000000000000000815260206004820152601060248201527f5061757361626c653a20706175736564000000000000000000000000000000006044820152606401610da6565b73ffffffffffffffffffffffffffffffffffffffff8316600090815260fb60205260409020546119e2908590612d86565b73ffffffffffffffffffffffffffffffffffffffff848116600090815260fb6020526040908190209290925560fa5491517fa9059cbb00000000000000000000000000000000000000000000000000000000815284821660048201526024810187905291169063a9059cbb906044016020604051808303816000875af1158015611a70573d6000803e3d6000fd5b505050506040513d601f19601f82011682018060405250810190611a949190612bf7565b50929392505050565b60007fffffffff0000000000000000000000000000000000000000000000000000000082167f41e9aeb200000000000000000000000000000000000000000000000000000000148061075257507f01ffc9a7000000000000000000000000000000000000000000000000000000007fffffffff00000000000000000000000000000000000000000000000000000000831614610752565b73ffffffffffffffffffffffffffffffffffffffff82161580611b6b575073ffffffffffffffffffffffffffffffffffffffff8116155b15611ba2576040517fd92e233d00000000000000000000000000000000000000000000000000000000815260040160405180910390fd5b600080547fffffffffffffffffffff0000000000000000000000000000000000000000ffff166201000073ffffffffffffffffffffffffffffffffffffffff94851602179055600380547fffffffffffffffffffffffff00000000000000000000000000000000000000001691909216179055565b60008082806020019051810190611c2e9190612ebe565b60148201519193509150611c438782846120fd565b91508073ffffffffffffffffffffffffffffffffffffffff1686604051611c6a9190612dc4565b6040805191829003822085835267ffffffffffffffff891660208401529161ffff8b16917f64e10c37f404d128982dce114f5d233c14c5c7f6d8db93099e3d99dacb9e27ba910160405180910390a450505050505050565b6000611cd060c85460ff1690565b15611d37576040517f08c379a000000000000000000000000000000000000000000000000000000000815260206004820152601060248201527f5061757361626c653a20706175736564000000000000000000000000000000006044820152606401610da6565b60fa546040517f23b872dd0000000000000000000000000000000000000000000000000000000081523360048201523060248201526044810184905273ffffffffffffffffffffffffffffffffffffffff909116906323b872dd906064016020604051808303816000875af1158015611db4573d6000803e3d6000fd5b505050506040513d601f19601f82011682018060405250810190611dd89190612bf7565b50909392505050565b61ffff851660009081526002602052604081208054611dff90612ba3565b80601f0160208091040260200160405190810160405280929190818152602001828054611e2b90612ba3565b8015611e785780601f10611e4d57610100808354040283529160200191611e78565b820191906000526020600020905b815481529060010190602001808311611e5b57829003601f168201915b50505050509050805160001415611ebb576040517f8154374b00000000000000000000000000000000000000000000000000000000815260040160405180910390fd5b6000546040517fc58031000000000000000000000000000000000000000000000000000000000081526201000090910473ffffffffffffffffffffffffffffffffffffffff169063c5803100903490611f22908a9086908b908b908b908b90600401612f05565b6000604051808303818588803b158015611f3b57600080fd5b505af1158015611f4f573d6000803e3d6000fd5b5050505050505050505050565b60c85460ff16611fc8576040517f08c379a000000000000000000000000000000000000000000000000000000000815260206004820152601460248201527f5061757361626c653a206e6f74207061757365640000000000000000000000006044820152606401610da6565b60c880547fffffffffffffffffffffffffffffffffffffffffffffffffffffffffffffff001690557f5db9ee0a495bf2e6ff9c91a7834c1ba4fdd244a5e8aa4e537bd38aeae4b073aa335b60405173ffffffffffffffffffffffffffffffffffffffff909116815260200160405180910390a1565b60c85460ff16156120aa576040517f08c379a000000000000000000000000000000000000000000000000000000000815260206004820152601060248201527f5061757361626c653a20706175736564000000000000000000000000000000006044820152606401610da6565b60c880547fffffffffffffffffffffffffffffffffffffffffffffffffffffffffffffff001660011790557f62e78cea01bee320cd4e420270b5ea74000d11b0c9f74754ebdbfc544b05a2586120133390565b600061210b60c85460ff1690565b15612172576040517f08c379a000000000000000000000000000000000000000000000000000000000815260206004820152601060248201527f5061757361626c653a20706175736564000000000000000000000000000000006044820152606401610da6565b60fa546040517f70a0823100000000000000000000000000000000000000000000000000000000815230600482015260009173ffffffffffffffffffffffffffffffffffffffff16906370a0823190602401602060405180830381865afa1580156121e1573d6000803e3d6000fd5b505050506040513d601f19601f820116820180604052508101906122059190612f79565b9050828110156122e9576122198184612d86565b73ffffffffffffffffffffffffffffffffffffffff8516600090815260fb602052604090205580156122e45760fa546040517fa9059cbb00000000000000000000000000000000000000000000000000000000815273ffffffffffffffffffffffffffffffffffffffff8681166004830152602482018490529091169063a9059cbb906044016020604051808303816000875af11580156122be573d6000803e3d6000fd5b505050506040513d601f19601f820116820180604052508101906122e29190612bf7565b505b611dd8565b60fa546040517fa9059cbb00000000000000000000000000000000000000000000000000000000815273ffffffffffffffffffffffffffffffffffffffff8681166004830152602482018690529091169063a9059cbb906044016020604051808303816000875af1158015612362573d6000803e3d6000fd5b505050506040513d601f19601f820116820180604052508101906123869190612bf7565b5050909392505050565b82805461239c90612ba3565b90600052602060002090601f0160209004810192826123be5760008555612422565b82601f106123f5578280017fffffffffffffffffffffffffffffffffffffffffffffffffffffffffffffff00823516178555612422565b82800160010185558215612422579182015b82811115612422578235825591602001919060010190612407565b5061242e929150612432565b5090565b5b8082111561242e5760008155600101612433565b803561ffff8116811461245957600080fd5b919050565b7f4e487b7100000000000000000000000000000000000000000000000000000000600052604160045260246000fd5b604051601f82017fffffffffffffffffffffffffffffffffffffffffffffffffffffffffffffffe016810167ffffffffffffffff811182821017156124d4576124d461245e565b604052919050565b600067ffffffffffffffff8211156124f6576124f661245e565b50601f017fffffffffffffffffffffffffffffffffffffffffffffffffffffffffffffffe01660200190565b600082601f83011261253357600080fd5b8135612546612541826124dc565b61248d565b81815284602083860101111561255b57600080fd5b816020850160208301376000918101602001919091529392505050565b67ffffffffffffffff8116811461174357600080fd5b600080600080608085870312156125a457600080fd5b6125ad85612447565b9350602085013567ffffffffffffffff808211156125ca57600080fd5b6125d688838901612522565b9450604087013591506125e882612578565b909250606086013590808211156125fe57600080fd5b5061260b87828801612522565b91505092959194509250565b73ffffffffffffffffffffffffffffffffffffffff8116811461174357600080fd5b803561245981612617565b6000806040838503121561265757600080fd5b82359150602083013561266981612617565b809150509250929050565b60006020828403121561268657600080fd5b81357fffffffff00000000000000000000000000000000000000000000000000000000811681146106f557600080fd5b6000602082840312156126c857600080fd5b6106f582612447565b801515811461174357600080fd5b600080600080600060a086880312156126f757600080fd5b61270086612447565b9450602086013567ffffffffffffffff8082111561271d57600080fd5b61272989838a01612522565b95506040880135945060608801359150612742826126d1565b9092506080870135908082111561275857600080fd5b5061276588828901612522565b9150509295509295909350565b60008083601f84011261278457600080fd5b50813567ffffffffffffffff81111561279c57600080fd5b6020830191508360208285010111156127b457600080fd5b9250929050565b6000806000604084860312156127d057600080fd5b6127d984612447565b9250602084013567ffffffffffffffff8111156127f557600080fd5b61280186828701612772565b9497909650939450505050565b6000806040838503121561282157600080fd5b823561282c81612617565b9150602083013561266981612617565b60008060006060848603121561285157600080fd5b61285a84612447565b9250602084013567ffffffffffffffff81111561287657600080fd5b61288286828701612522565b925050604084013561289381612578565b809150509250925092565b6000602082840312156128b057600080fd5b81356106f581612617565b60005b838110156128d65781810151838201526020016128be565b83811115610f255750506000910152565b600081518084526128ff8160208601602086016128bb565b601f017fffffffffffffffffffffffffffffffffffffffffffffffffffffffffffffffe0169290920160200192915050565b6020815260006106f560208301846128e7565b803560ff8116811461245957600080fd5b6000806000806000806000806000806101408b8d03121561297557600080fd5b61297e8b612447565b995060208b013567ffffffffffffffff8082111561299b57600080fd5b6129a78e838f01612522565b9a5060408d013599506129bc60608e01612639565b98506129ca60808e01612639565b975060a08d01359150808211156129e057600080fd5b506129ed8d828e01612522565b95505060c08b01359350612a0360e08c01612944565b92506101008b013591506101208b013590509295989b9194979a5092959850565b600080600080600060808688031215612a3c57600080fd5b612a4586612447565b9450612a5360208701612447565b935060408601359250606086013567ffffffffffffffff811115612a7657600080fd5b612a8288828901612772565b969995985093965092949392505050565b60008060008060008060c08789031215612aac57600080fd5b612ab587612447565b9550602087013567ffffffffffffffff80821115612ad257600080fd5b612ade8a838b01612522565b96506040890135955060608901359150612af782612617565b909350608088013590612b0982612617565b90925060a08801359080821115612b1f57600080fd5b50612b2c89828a01612522565b9150509295509295509295565b600060208284031215612b4b57600080fd5b81356106f5816126d1565b60008060008060808587031215612b6c57600080fd5b612b7585612447565b9350612b8360208601612447565b92506040850135612b9381612617565b9396929550929360600135925050565b600181811c90821680612bb757607f821691505b60208210811415612bf1577f4e487b7100000000000000000000000000000000000000000000000000000000600052602260045260246000fd5b50919050565b600060208284031215612c0957600080fd5b81516106f5816126d1565b604081526000612c2760408301856128e7565b90508260208301529392505050565b61ffff8616815273ffffffffffffffffffffffffffffffffffffffff8516602082015260a060408201526000612c6f60a08301866128e7565b84151560608401528281036080840152612c8981856128e7565b98975050505050505050565b60008060408385031215612ca857600080fd5b505080516020909101519092909150565b8183823760009101908152919050565b8183528181602085013750600060208284010152600060207fffffffffffffffffffffffffffffffffffffffffffffffffffffffffffffffe0601f840116840101905092915050565b61ffff84168152604060208201526000611822604083018486612cc9565b600060208284031215612d4257600080fd5b81516106f581612617565b600061ffff808816835280871660208401525084604083015260806060830152612d7b608083018486612cc9565b979650505050505050565b600082821015612dbf577f4e487b7100000000000000000000000000000000000000000000000000000000600052601160045260246000fd5b500390565b60008251612dd68184602087016128bb565b9190910192915050565b600060208284031215612df257600080fd5b81516106f581612578565b600082601f830112612e0e57600080fd5b8151612e1c612541826124dc565b818152846020838601011115612e3157600080fd5b612e428260208301602087016128bb565b949350505050565b600060208284031215612e5c57600080fd5b815167ffffffffffffffff811115612e7357600080fd5b612e4284828501612dfd565b61ffff85168152608060208201526000612e9c60808301866128e7565b67ffffffffffffffff851660408401528281036060840152612d7b81856128e7565b60008060408385031215612ed157600080fd5b825167ffffffffffffffff811115612ee857600080fd5b612ef485828601612dfd565b925050602083015190509250929050565b61ffff8716815260c060208201526000612f2260c08301886128e7565b8281036040840152612f3481886128e7565b73ffffffffffffffffffffffffffffffffffffffff87811660608601528616608085015283810360a08501529050612f6c81856128e7565b9998505050505050505050565b600060208284031215612f8b57600080fd5b505191905056fea264697066735822122053f74afde4f243e8429cdf29e77079055b1c1be72179cd08a7852bac86e0528164736f6c634300080c0033",
  "devdoc": {
    "author": "Angle Core Team, forked from https://github.com/LayerZero-Labs/solidity-examples/blob/main/contracts/token/oft/OFT.sol",
    "kind": "dev",
    "methods": {
      "constructor": {
        "custom:oz-upgrades-unsafe-allow": "constructor"
      },
      "estimateSendFee(uint16,bytes,uint256,bool,bytes)": {
        "params": {
          "_adapterParams": "flexible bytes array to indicate messaging adapter services in L0",
          "_amount": "amount of the tokens to transfer",
          "_dstChainId": "L0 defined chain id to send tokens too",
          "_toAddress": "dynamic bytes array which contains the address to whom you are sending tokens to on the dstChain",
          "_useZro": "indicates to use zro to pay L0 fees"
        }
      },
      "initialize(address,address)": {
        "params": {
          "_lzEndpoint": "Layer zero endpoint to pass messages",
          "_treasury": "Address of the treasury contract used for access control"
        }
      },
      "lzReceive(uint16,bytes,uint64,bytes)": {
        "params": {
          "_nonce": "Nounce of the message",
          "_payload": "Data: recipient address and amount",
          "_srcAddress": "Sender of the source chain",
          "_srcChainId": "ChainId of the source chain - LayerZero standard"
        }
      },
      "nonblockingLzReceive(uint16,bytes,uint64,bytes)": {
        "details": "public for the needs of try / catch but effectively internal",
        "params": {
          "_nonce": "Nounce of the message",
          "_payload": "Data: recipient address and amount",
          "_srcAddress": "Sender of the source chain",
          "_srcChainId": "ChainId of the source chain - LayerZero standard"
        }
      },
      "pauseSendTokens(bool)": {
        "params": {
          "pause": "Future pause status"
        }
      },
      "paused()": {
        "details": "Returns true if the contract is paused, and false otherwise."
      },
      "retryMessage(uint16,bytes,uint64,bytes)": {
        "params": {
          "_nonce": "Nounce of the message",
          "_payload": "Data: recipient address and amount",
          "_srcAddress": "Sender of the source chain",
          "_srcChainId": "ChainId of the source chain - LayerZero standard"
        }
      },
      "send(uint16,bytes,uint256,address,address,bytes)": {
        "params": {
          "_adapterParams": "is a flexible bytes array to indicate messaging adapter services",
          "_amount": "the quantity of tokens in wei",
          "_dstChainId": "the destination chain identifier",
          "_refundAddress": "the address LayerZero refunds if too much message fee is sent",
          "_toAddress": "can be any size depending on the `dstChainId`.",
          "_zroPaymentAddress": "set to address(0x0) if not paying in ZRO (LayerZero Token)"
        }
      },
      "sendWithPermit(uint16,bytes,uint256,address,address,bytes,uint256,uint8,bytes32,bytes32)": {
        "details": "The `v`, `r`, and `s` parameters are used as signature data",
        "params": {
          "_adapterParams": "Flexible bytes array to indicate messaging adapter services",
          "_amount": "Quantity of tokens in wei",
          "_dstChainId": "The destination chain identifier",
          "_refundAddress": "Address LayerZero refunds if too much message fee is sent",
          "_toAddress": "Can be any size depending on the `dstChainId`.",
          "_zroPaymentAddress": "Set to address(0x0) if not paying in ZRO (LayerZero Token)",
          "deadline": "Deadline parameter for the signature to be valid"
        }
      },
      "setTrustedRemote(uint16,bytes)": {
        "details": "Used for both receiving and sending messageThere can only be one trusted source per chainAllows owner to set it multiple times.",
        "params": {
          "_srcAddress": "Address on the source chain",
          "_srcChainId": "ChainId of the source chain - LayerZero standard"
        }
      },
      "supportsInterface(bytes4)": {
        "details": "See {IERC165-supportsInterface}."
      },
      "sweep(uint256,address)": {
        "params": {
          "amount": "Amount to withdraw from balance",
          "recipient": "Address to withdraw from"
        }
      },
      "withdraw(uint256,address)": {
        "params": {
          "amount": "Amount to withdraw",
          "recipient": "Address to send the canonical token to"
        },
        "returns": {
          "_0": "The amount of canonical token sent"
        }
      },
      "withdrawFor(uint256,address)": {
        "params": {
          "amount": "Amount to withdraw",
          "recipient": "Address to withdraw for"
        },
        "returns": {
          "_0": "The amount of canonical token sent"
        }
      }
    },
    "stateVariables": {
      "canonicalToken": {
        "details": "Immutable"
      }
    },
    "title": "LayerZeroBridge",
    "version": 1
  },
  "userdoc": {
    "kind": "user",
    "methods": {
      "balanceOf(address)": {
        "notice": "Maps an address to the amount of token bridged but not received"
      },
      "canonicalToken()": {
        "notice": "Address of the bridgeable token"
      },
      "estimateSendFee(uint16,bytes,uint256,bool,bytes)": {
        "notice": "Estimates send token `_tokenId` to (`_dstChainId`, `_toAddress`)"
      },
      "failedMessages(uint16,bytes,uint64)": {
        "notice": "Maps chainIds to failed messages to retry them"
      },
      "forceResumeReceive(uint16,bytes)": {
        "notice": "Unpauses the receive functionalities"
      },
      "getConfig(uint16,uint16,address,uint256)": {
        "notice": "Fetches the default LZ config"
      },
      "initialize(address,address)": {
        "notice": "Initializes the contract"
      },
      "isTrustedRemote(uint16,bytes)": {
        "notice": "Checks if the `_srcAddress` corresponds to the trusted source"
      },
      "lzEndpoint()": {
        "notice": "Layer Zero endpoint"
      },
      "lzReceive(uint16,bytes,uint64,bytes)": {
        "notice": "Receives a message from the LZ endpoint and process it"
      },
      "nonblockingLzReceive(uint16,bytes,uint64,bytes)": {
        "notice": "Handles message receptions in a non blocking way"
      },
      "pauseSendTokens(bool)": {
        "notice": "Pauses bridging through the contract"
      },
      "retryMessage(uint16,bytes,uint64,bytes)": {
        "notice": "Retries a message that previously failed and was stored"
      },
      "send(uint16,bytes,uint256,address,address,bytes)": {
        "notice": "Sends `_amount` amount of token to (`_dstChainId`, `_toAddress`)"
      },
      "sendWithPermit(uint16,bytes,uint256,address,address,bytes,uint256,uint8,bytes32,bytes32)": {
        "notice": "Sends `_amount` amount of token to (`_dstChainId`, `_toAddress`)"
      },
      "setConfig(uint16,uint16,uint256,bytes)": {
        "notice": "Overrides the default LZ config"
      },
      "setReceiveVersion(uint16)": {
        "notice": "Overrides the default LZ config"
      },
      "setSendVersion(uint16)": {
        "notice": "Overrides the default LZ config"
      },
      "setTrustedRemote(uint16,bytes)": {
        "notice": "Sets the corresponding address on an other chain."
      },
      "sweep(uint256,address)": {
        "notice": "Decreases the balance of an address"
      },
      "treasury()": {
        "notice": "Reference to the treasury contract to fetch access control"
      },
      "trustedRemoteLookup(uint16)": {
        "notice": "Maps chainIds to their OFT address"
      },
      "withdraw(uint256,address)": {
        "notice": "Withdraws amount of canonical token from the `msg.sender` balance and sends it to the recipient"
      },
      "withdrawFor(uint256,address)": {
        "notice": "Withdraws amount of `token` from the contract and sends it to the recipient"
      }
    },
    "notice": "Contract to be deployed on Ethereum for bridging an AgToken using a bridge intermediate token and LayerZero",
    "version": 1
  },
  "storageLayout": {
    "storage": [
      {
        "astId": 772,
        "contract": "contracts/agToken/layerZero/LayerZeroBridge.sol:LayerZeroBridge",
        "label": "_initialized",
        "offset": 0,
        "slot": "0",
        "type": "t_bool"
      },
      {
        "astId": 775,
        "contract": "contracts/agToken/layerZero/LayerZeroBridge.sol:LayerZeroBridge",
        "label": "_initializing",
        "offset": 1,
        "slot": "0",
        "type": "t_bool"
      },
      {
        "astId": 9890,
        "contract": "contracts/agToken/layerZero/LayerZeroBridge.sol:LayerZeroBridge",
        "label": "lzEndpoint",
        "offset": 2,
        "slot": "0",
        "type": "t_contract(ILayerZeroEndpoint)15086"
      },
      {
        "astId": 9899,
        "contract": "contracts/agToken/layerZero/LayerZeroBridge.sol:LayerZeroBridge",
        "label": "failedMessages",
        "offset": 0,
        "slot": "1",
        "type": "t_mapping(t_uint16,t_mapping(t_bytes_memory_ptr,t_mapping(t_uint64,t_bytes32)))"
      },
      {
        "astId": 9904,
        "contract": "contracts/agToken/layerZero/LayerZeroBridge.sol:LayerZeroBridge",
        "label": "trustedRemoteLookup",
        "offset": 0,
        "slot": "2",
        "type": "t_mapping(t_uint16,t_bytes_storage)"
      },
      {
        "astId": 9907,
        "contract": "contracts/agToken/layerZero/LayerZeroBridge.sol:LayerZeroBridge",
        "label": "treasury",
        "offset": 0,
        "slot": "3",
        "type": "t_address"
      },
      {
        "astId": 10386,
        "contract": "contracts/agToken/layerZero/LayerZeroBridge.sol:LayerZeroBridge",
        "label": "__gap",
        "offset": 0,
        "slot": "4",
        "type": "t_array(t_uint256)46_storage"
      },
      {
        "astId": 3454,
        "contract": "contracts/agToken/layerZero/LayerZeroBridge.sol:LayerZeroBridge",
        "label": "__gap",
        "offset": 0,
        "slot": "50",
        "type": "t_array(t_uint256)50_storage"
      },
      {
        "astId": 10634,
        "contract": "contracts/agToken/layerZero/LayerZeroBridge.sol:LayerZeroBridge",
        "label": "__gap",
        "offset": 0,
        "slot": "100",
        "type": "t_array(t_uint256)50_storage"
      },
      {
        "astId": 2592,
        "contract": "contracts/agToken/layerZero/LayerZeroBridge.sol:LayerZeroBridge",
        "label": "__gap",
        "offset": 0,
        "slot": "150",
        "type": "t_array(t_uint256)50_storage"
      },
      {
        "astId": 860,
        "contract": "contracts/agToken/layerZero/LayerZeroBridge.sol:LayerZeroBridge",
        "label": "_paused",
        "offset": 0,
        "slot": "200",
        "type": "t_bool"
      },
      {
        "astId": 951,
        "contract": "contracts/agToken/layerZero/LayerZeroBridge.sol:LayerZeroBridge",
        "label": "__gap",
        "offset": 0,
        "slot": "201",
        "type": "t_array(t_uint256)49_storage"
      },
      {
        "astId": 9063,
        "contract": "contracts/agToken/layerZero/LayerZeroBridge.sol:LayerZeroBridge",
        "label": "canonicalToken",
        "offset": 0,
        "slot": "250",
        "type": "t_contract(IERC20)5408"
      },
      {
        "astId": 9068,
        "contract": "contracts/agToken/layerZero/LayerZeroBridge.sol:LayerZeroBridge",
        "label": "balanceOf",
        "offset": 0,
        "slot": "251",
        "type": "t_mapping(t_address,t_uint256)"
      },
      {
        "astId": 9382,
        "contract": "contracts/agToken/layerZero/LayerZeroBridge.sol:LayerZeroBridge",
        "label": "__gap",
        "offset": 0,
        "slot": "252",
        "type": "t_array(t_uint256)48_storage"
      }
    ],
    "types": {
      "t_address": {
        "encoding": "inplace",
        "label": "address",
        "numberOfBytes": "20"
      },
      "t_array(t_uint256)46_storage": {
        "base": "t_uint256",
        "encoding": "inplace",
        "label": "uint256[46]",
        "numberOfBytes": "1472"
      },
      "t_array(t_uint256)48_storage": {
        "base": "t_uint256",
        "encoding": "inplace",
        "label": "uint256[48]",
        "numberOfBytes": "1536"
      },
      "t_array(t_uint256)49_storage": {
        "base": "t_uint256",
        "encoding": "inplace",
        "label": "uint256[49]",
        "numberOfBytes": "1568"
      },
      "t_array(t_uint256)50_storage": {
        "base": "t_uint256",
        "encoding": "inplace",
        "label": "uint256[50]",
        "numberOfBytes": "1600"
      },
      "t_bool": {
        "encoding": "inplace",
        "label": "bool",
        "numberOfBytes": "1"
      },
      "t_bytes32": {
        "encoding": "inplace",
        "label": "bytes32",
        "numberOfBytes": "32"
      },
      "t_bytes_memory_ptr": {
        "encoding": "bytes",
        "label": "bytes",
        "numberOfBytes": "32"
      },
      "t_bytes_storage": {
        "encoding": "bytes",
        "label": "bytes",
        "numberOfBytes": "32"
      },
      "t_contract(IERC20)5408": {
        "encoding": "inplace",
        "label": "contract IERC20",
        "numberOfBytes": "20"
      },
      "t_contract(ILayerZeroEndpoint)15086": {
        "encoding": "inplace",
        "label": "contract ILayerZeroEndpoint",
        "numberOfBytes": "20"
      },
      "t_mapping(t_address,t_uint256)": {
        "encoding": "mapping",
        "key": "t_address",
        "label": "mapping(address => uint256)",
        "numberOfBytes": "32",
        "value": "t_uint256"
      },
      "t_mapping(t_bytes_memory_ptr,t_mapping(t_uint64,t_bytes32))": {
        "encoding": "mapping",
        "key": "t_bytes_memory_ptr",
        "label": "mapping(bytes => mapping(uint64 => bytes32))",
        "numberOfBytes": "32",
        "value": "t_mapping(t_uint64,t_bytes32)"
      },
      "t_mapping(t_uint16,t_bytes_storage)": {
        "encoding": "mapping",
        "key": "t_uint16",
        "label": "mapping(uint16 => bytes)",
        "numberOfBytes": "32",
        "value": "t_bytes_storage"
      },
      "t_mapping(t_uint16,t_mapping(t_bytes_memory_ptr,t_mapping(t_uint64,t_bytes32)))": {
        "encoding": "mapping",
        "key": "t_uint16",
        "label": "mapping(uint16 => mapping(bytes => mapping(uint64 => bytes32)))",
        "numberOfBytes": "32",
        "value": "t_mapping(t_bytes_memory_ptr,t_mapping(t_uint64,t_bytes32))"
      },
      "t_mapping(t_uint64,t_bytes32)": {
        "encoding": "mapping",
        "key": "t_uint64",
        "label": "mapping(uint64 => bytes32)",
        "numberOfBytes": "32",
        "value": "t_bytes32"
      },
      "t_uint16": {
        "encoding": "inplace",
        "label": "uint16",
        "numberOfBytes": "2"
      },
      "t_uint256": {
        "encoding": "inplace",
        "label": "uint256",
        "numberOfBytes": "32"
      },
      "t_uint64": {
        "encoding": "inplace",
        "label": "uint64",
        "numberOfBytes": "8"
      }
    }
  }
}