{
  "address": "0xAd96B6342e4EbbbFBAfF0DF248E84C7304fFF5a5",
  "abi": [
    {
      "inputs": [],
      "name": "SubcallFailed",
      "type": "error"
    },
    {
      "inputs": [
        {
          "components": [
            {
              "internalType": "address",
              "name": "target",
              "type": "address"
            },
            {
              "internalType": "bytes",
              "name": "data",
              "type": "bytes"
            },
            {
              "internalType": "bool",
              "name": "canFail",
              "type": "bool"
            }
          ],
          "internalType": "struct MultiCallWithFailure.Call[]",
          "name": "calls",
          "type": "tuple[]"
        }
      ],
      "name": "multiCall",
      "outputs": [
        {
          "internalType": "bytes[]",
          "name": "",
          "type": "bytes[]"
        }
      ],
      "stateMutability": "view",
      "type": "function"
    }
  ],
  "transactionHash": "0x76930535371b97394e740ded6e2df8e3c281395d04a12102c0aa95c3a0e46277",
  "args": [],
  "solcInputHash": "160762b0bc38dbf69d24068e344416ab",
  "bytecode": "0x608060405234801561001057600080fd5b5061061a806100206000396000f3fe608060405234801561001057600080fd5b506004361061002b5760003560e01c806395871dd414610030575b600080fd5b61004361003e3660046102af565b610059565b6040516100509190610483565b60405180910390f35b60606000825167ffffffffffffffff811115610077576100776101f3565b6040519080825280602002602001820160405280156100aa57816020015b60608152602001906001900390816100955790505b50905060005b83518110156101ec576000808583815181106100ce576100ce610539565b60200260200101516000015173ffffffffffffffffffffffffffffffffffffffff1686848151811061010257610102610539565b60200260200101516020015160405161011b9190610568565b600060405180830381855afa9150503d8060008114610156576040519150601f19603f3d011682016040523d82523d6000602084013e61015b565b606091505b509150915085838151811061017257610172610539565b6020026020010151604001516101b957816101b9576040517fb8e728da00000000000000000000000000000000000000000000000000000000815260040160405180910390fd5b808484815181106101cc576101cc610539565b6020026020010181905250505080806101e490610584565b9150506100b0565b5092915050565b7f4e487b7100000000000000000000000000000000000000000000000000000000600052604160045260246000fd5b6040516060810167ffffffffffffffff81118282101715610245576102456101f3565b60405290565b604051601f82017fffffffffffffffffffffffffffffffffffffffffffffffffffffffffffffffe016810167ffffffffffffffff81118282101715610292576102926101f3565b604052919050565b803580151581146102aa57600080fd5b919050565b600060208083850312156102c257600080fd5b823567ffffffffffffffff808211156102da57600080fd5b818501915085601f8301126102ee57600080fd5b813581811115610300576103006101f3565b8060051b61030f85820161024b565b918252838101850191858101908984111561032957600080fd5b86860192505b838310156104465782358581111561034657600080fd5b86017fffffffffffffffffffffffffffffffffffffffffffffffffffffffffffffffe06060828d038201121561037c5760008081fd5b610384610222565b8983013573ffffffffffffffffffffffffffffffffffffffff811681146103ab5760008081fd5b8152604083810135898111156103c15760008081fd5b8401603f81018f136103d35760008081fd5b8b8101358a8111156103e7576103e76101f3565b6103f78d86601f8401160161024b565b94508085528f8382840101111561040e5760008081fd5b808383018e87013760008d82870101525050828b8301526104316060850161029a565b9082015284525050918601919086019061032f565b9998505050505050505050565b60005b8381101561046e578181015183820152602001610456565b8381111561047d576000848401525b50505050565b6000602080830181845280855180835260408601915060408160051b870101925083870160005b8281101561052c577fffffffffffffffffffffffffffffffffffffffffffffffffffffffffffffffc0888603018452815180518087526104ef818989018a8501610453565b601f017fffffffffffffffffffffffffffffffffffffffffffffffffffffffffffffffe016959095018601945092850192908501906001016104aa565b5092979650505050505050565b7f4e487b7100000000000000000000000000000000000000000000000000000000600052603260045260246000fd5b6000825161057a818460208701610453565b9190910192915050565b60007fffffffffffffffffffffffffffffffffffffffffffffffffffffffffffffffff8214156105dd577f4e487b7100000000000000000000000000000000000000000000000000000000600052601160045260246000fd5b506001019056fea2646970667358221220fed87948002cdbaac5f64c30192befaa2f75907cfed41123cb6d93880f84535164736f6c634300080c0033",
  "devdoc": {
    "author": "Angle Core Team",
    "kind": "dev",
    "methods": {},
    "title": "MultiCallWithFailure",
    "version": 1
  },
  "userdoc": {
    "kind": "user",
    "methods": {},
    "notice": "Multicall contract allowing subcalls to fail without reverting the entire call",
    "version": 1
  },
  "storageLayout": {
    "storage": [],
    "types": null
  }
}