{
  "address": "0xC492fBAe68cE6C5E14C7ed5cd8a59babD5c90e4C",
  "abi": [
    {
      "inputs": [
        {
          "internalType": "uint32",
          "name": "_stalePeriod",
          "type": "uint32"
        },
        {
          "internalType": "address",
          "name": "_treasury",
          "type": "address"
        }
      ],
      "stateMutability": "nonpayable",
      "type": "constructor"
    },
    {
      "inputs": [],
      "name": "InvalidChainlinkRate",
      "type": "error"
    },
    {
      "inputs": [],
      "name": "NotGovernorOrGuardian",
      "type": "error"
    },
    {
      "inputs": [],
      "name": "NotVaultManagerOrGovernor",
      "type": "error"
    },
    {
      "anonymous": false,
      "inputs": [
        {
          "indexed": false,
          "internalType": "uint32",
          "name": "_stalePeriod",
          "type": "uint32"
        }
      ],
      "name": "StalePeriodUpdated",
      "type": "event"
    },
    {
      "inputs": [],
      "name": "DESCRIPTION",
      "outputs": [
        {
          "internalType": "string",
          "name": "",
          "type": "string"
        }
      ],
      "stateMutability": "view",
      "type": "function"
    },
    {
      "inputs": [],
      "name": "OUTBASE",
      "outputs": [
        {
          "internalType": "uint256",
          "name": "",
          "type": "uint256"
        }
      ],
      "stateMutability": "view",
      "type": "function"
    },
    {
      "inputs": [
        {
          "internalType": "uint32",
          "name": "_stalePeriod",
          "type": "uint32"
        }
      ],
      "name": "changeStalePeriod",
      "outputs": [],
      "stateMutability": "nonpayable",
      "type": "function"
    },
    {
      "inputs": [],
      "name": "read",
      "outputs": [
        {
          "internalType": "uint256",
          "name": "quoteAmount",
          "type": "uint256"
        }
      ],
      "stateMutability": "view",
      "type": "function"
    },
    {
      "inputs": [
        {
          "internalType": "address",
          "name": "_treasury",
          "type": "address"
        }
      ],
      "name": "setTreasury",
      "outputs": [],
      "stateMutability": "nonpayable",
      "type": "function"
    },
    {
      "inputs": [],
      "name": "stalePeriod",
      "outputs": [
        {
          "internalType": "uint32",
          "name": "",
          "type": "uint32"
        }
      ],
      "stateMutability": "view",
      "type": "function"
    },
    {
      "inputs": [],
      "name": "treasury",
      "outputs": [
        {
          "internalType": "contract ITreasury",
          "name": "",
          "type": "address"
        }
      ],
      "stateMutability": "view",
      "type": "function"
    }
  ],
  "transactionHash": "0xd19827d670b535792196d5dc52fcab4ff6aeb5514af0c33b5dffaf7632cd7bd3",
  "args": [
    172800,
    "0xdE725566Fa2bAfd175066943D8D50ae762058e92"
  ],
  "solcInputHash": "d5ace9280091f91616a313b95eefc190",
  "bytecode": "0x608060405234801561001057600080fd5b50604051610ba4380380610ba483398101604081905261002f91610071565b600080546001600160c01b031916600160a01b63ffffffff94909416939093026001600160a01b031916929092176001600160a01b03919091161790556100c0565b6000806040838503121561008457600080fd5b825163ffffffff8116811461009857600080fd5b60208401519092506001600160a01b03811681146100b557600080fd5b809150509250929050565b610ad5806100cf6000396000f3fe608060405234801561001057600080fd5b506004361061007d5760003560e01c80636c47d3311161005b5780636c47d331146100f7578063a5b36a3614610106578063f0f4426014610143578063f1ae88561461015657600080fd5b806357de26a41461008257806361d027b31461009d578063630914d1146100e2575b600080fd5b61008a61019f565b6040519081526020015b60405180910390f35b6000546100bd9073ffffffffffffffffffffffffffffffffffffffff1681565b60405173ffffffffffffffffffffffffffffffffffffffff9091168152602001610094565b6100f56100f03660046106e4565b610286565b005b61008a670de0b6b3a764000081565b60005461012e9074010000000000000000000000000000000000000000900463ffffffff1681565b60405163ffffffff9091168152602001610094565b6100f5610151366004610711565b6103d1565b6101926040518060400160405280601081526020017f4d415449432f455552204f7261636c650000000000000000000000000000000081525081565b6040516100949190610747565b60408051808201825273ab594600376ec9fd91f8e885dadf0ce036862de081527373366fe0aa0ded304479862808e02506fe556a98602080830191909152825180840184526001815260008183018190528451808601909552600880865292850192909252670de0b6b3a76400009390915b600281101561027f5761026b85858360028110610230576102306107ba565b6020020151858460028110610247576102476107ba565b602002015185856002811061025e5761025e6107ba565b602002015160ff1661057d565b94508061027781610818565b915050610211565b5050505090565b6000546040517f521d4de900000000000000000000000000000000000000000000000000000000815233600482015273ffffffffffffffffffffffffffffffffffffffff9091169063521d4de990602401602060405180830381865afa1580156102f4573d6000803e3d6000fd5b505050506040513d601f19601f820116820180604052508101906103189190610851565b61034e576040517f99e120bc00000000000000000000000000000000000000000000000000000000815260040160405180910390fd5b600080547fffffffffffffffff00000000ffffffffffffffffffffffffffffffffffffffff167401000000000000000000000000000000000000000063ffffffff8416908102919091179091556040519081527f4040b15332969bfd8b2035c1a701c8e13f2b5d62ce89b311684a601b2eb44e019060200160405180910390a150565b6000546040517f676a553e00000000000000000000000000000000000000000000000000000000815233600482015273ffffffffffffffffffffffffffffffffffffffff9091169063676a553e90602401602060405180830381865afa15801561043f573d6000803e3d6000fd5b505050506040513d601f19601f820116820180604052508101906104639190610851565b1580156104ff57506000546040517fe43581b800000000000000000000000000000000000000000000000000000000815233600482015273ffffffffffffffffffffffffffffffffffffffff9091169063e43581b890602401602060405180830381865afa1580156104d9573d6000803e3d6000fd5b505050506040513d601f19601f820116820180604052508101906104fd9190610851565b155b15610536576040517fb05b9b9f00000000000000000000000000000000000000000000000000000000815260040160405180910390fd5b600080547fffffffffffffffffffffffff00000000000000000000000000000000000000001673ffffffffffffffffffffffffffffffffffffffff92909216919091179055565b60008060008060008773ffffffffffffffffffffffffffffffffffffffff1663feaf968c6040518163ffffffff1660e01b815260040160a060405180830381865afa1580156105d0573d6000803e3d6000fd5b505050506040513d601f19601f820116820180604052508101906105f49190610892565b94509450509350935060008313158061062457508069ffffffffffffffffffff168469ffffffffffffffffffff16115b80610657575060005474010000000000000000000000000000000000000000900463ffffffff1661065583426108e2565b115b1561068e576040517fae19356300000000000000000000000000000000000000000000000000000000815260040160405180910390fd5b82600160ff891614156106c6576106a687600a610a1b565b6106b0828c610a27565b6106ba9190610a64565b955050505050506106dc565b806106d288600a610a1b565b6106b0908c610a27565b949350505050565b6000602082840312156106f657600080fd5b813563ffffffff8116811461070a57600080fd5b9392505050565b60006020828403121561072357600080fd5b813573ffffffffffffffffffffffffffffffffffffffff8116811461070a57600080fd5b600060208083528351808285015260005b8181101561077457858101830151858201604001528201610758565b81811115610786576000604083870101525b50601f017fffffffffffffffffffffffffffffffffffffffffffffffffffffffffffffffe016929092016040019392505050565b7f4e487b7100000000000000000000000000000000000000000000000000000000600052603260045260246000fd5b7f4e487b7100000000000000000000000000000000000000000000000000000000600052601160045260246000fd5b60007fffffffffffffffffffffffffffffffffffffffffffffffffffffffffffffffff82141561084a5761084a6107e9565b5060010190565b60006020828403121561086357600080fd5b8151801515811461070a57600080fd5b805169ffffffffffffffffffff8116811461088d57600080fd5b919050565b600080600080600060a086880312156108aa57600080fd5b6108b386610873565b94506020860151935060408601519250606086015191506108d660808701610873565b90509295509295909350565b6000828210156108f4576108f46107e9565b500390565b600181815b8085111561095257817fffffffffffffffffffffffffffffffffffffffffffffffffffffffffffffffff04821115610938576109386107e9565b8085161561094557918102915b93841c93908002906108fe565b509250929050565b60008261096957506001610a15565b8161097657506000610a15565b816001811461098c5760028114610996576109b2565b6001915050610a15565b60ff8411156109a7576109a76107e9565b50506001821b610a15565b5060208310610133831016604e8410600b84101617156109d5575081810a610a15565b6109df83836108f9565b807fffffffffffffffffffffffffffffffffffffffffffffffffffffffffffffffff04821115610a1157610a116107e9565b0290505b92915050565b600061070a838361095a565b6000817fffffffffffffffffffffffffffffffffffffffffffffffffffffffffffffffff0483118215151615610a5f57610a5f6107e9565b500290565b600082610a9a577f4e487b7100000000000000000000000000000000000000000000000000000000600052601260045260246000fd5b50049056fea2646970667358221220af0aedd217df44c24ab673d9ffc94dae6550db91b07dd85018843c7bcc88a78264736f6c634300080c0033",
  "devdoc": {
    "author": "Angle Core Team",
    "details": "This contract is built to be deployed on Polygon",
    "kind": "dev",
    "methods": {
      "changeStalePeriod(uint32)": {
        "params": {
          "_stalePeriod": "New stale period (in seconds)"
        }
      },
      "constructor": {
        "params": {
          "_stalePeriod": "Minimum feed update frequency for the oracle to not revert",
          "_treasury": "Treasury associated to the `VaultManager` which reads from this feed"
        }
      },
      "read()": {
        "details": "For instance if the out currency is EUR (and hence agEUR), then the base of the returned value is 10**18",
        "returns": {
          "quoteAmount": "The current rate between the in-currency and out-currency in the base of the out currency"
        }
      },
      "setTreasury(address)": {
        "details": "This function can be called by an approved `VaultManager` contract which can call this function after being requested to do so by a `treasury` contractIn some situations (like reactor contracts), the `VaultManager` may not directly be linked to the `oracle` contract and as such we may need governors to be able to call this function as well",
        "params": {
          "_treasury": "Address of the new treasury contract"
        }
      }
    },
    "title": "OracleMATICEURChainlinkPolygon",
    "version": 1
  },
  "userdoc": {
    "kind": "user",
    "methods": {
      "changeStalePeriod(uint32)": {
        "notice": "Changes the stale period"
      },
      "constructor": {
        "notice": "Constructor of the contract"
      },
      "read()": {
        "notice": "Reads the rate from the Chainlink circuit and other data provided"
      },
      "setTreasury(address)": {
        "notice": "Changes the treasury contract"
      },
      "stalePeriod()": {
        "notice": "Represent the maximum amount of time (in seconds) between each Chainlink update before the price feed is considered stale"
      },
      "treasury()": {
        "notice": "Reference to the `treasury` contract handling this `VaultManager`"
      }
    },
    "notice": "Gives the price of MATIC in Euro in base 18",
    "version": 1
  },
  "storageLayout": {
    "storage": [
      {
        "astId": 16490,
        "contract": "contracts/oracle/implementations/polygon/OracleMATICEURChainlinkPolygon.sol:OracleMATICEURChainlinkPolygon",
        "label": "treasury",
        "offset": 0,
        "slot": "0",
        "type": "t_contract(ITreasury)12199"
      },
      {
        "astId": 16493,
        "contract": "contracts/oracle/implementations/polygon/OracleMATICEURChainlinkPolygon.sol:OracleMATICEURChainlinkPolygon",
        "label": "stalePeriod",
        "offset": 20,
        "slot": "0",
        "type": "t_uint32"
      }
    ],
    "types": {
      "t_contract(ITreasury)12199": {
        "encoding": "inplace",
        "label": "contract ITreasury",
        "numberOfBytes": "20"
      },
      "t_uint32": {
        "encoding": "inplace",
        "label": "uint32",
        "numberOfBytes": "4"
      }
    }
  }
}