{
  "address": "0x61fd1A75Ca73Fd43408085AAB97E75d5a586BfeF",
  "abi": [
    {
      "inputs": [
        {
          "internalType": "uint256",
          "name": "rate_",
          "type": "uint256"
        },
        {
          "internalType": "contract ITreasury",
          "name": "_treasury",
          "type": "address"
        }
      ],
      "stateMutability": "nonpayable",
      "type": "constructor"
    },
    {
      "anonymous": false,
      "inputs": [
        {
          "indexed": false,
          "internalType": "uint256",
          "name": "_peg",
          "type": "uint256"
        }
      ],
      "name": "Update",
      "type": "event"
    },
    {
      "inputs": [],
      "name": "base",
      "outputs": [
        {
          "internalType": "uint256",
          "name": "",
          "type": "uint256"
        }
      ],
      "stateMutability": "view",
      "type": "function"
    },
    {
      "inputs": [],
      "name": "outdated",
      "outputs": [
        {
          "internalType": "bool",
          "name": "",
          "type": "bool"
        }
      ],
      "stateMutability": "view",
      "type": "function"
    },
    {
      "inputs": [],
      "name": "precision",
      "outputs": [
        {
          "internalType": "uint256",
          "name": "",
          "type": "uint256"
        }
      ],
      "stateMutability": "view",
      "type": "function"
    },
    {
      "inputs": [],
      "name": "rate",
      "outputs": [
        {
          "internalType": "uint256",
          "name": "",
          "type": "uint256"
        }
      ],
      "stateMutability": "view",
      "type": "function"
    },
    {
      "inputs": [],
      "name": "read",
      "outputs": [
        {
          "internalType": "uint256",
          "name": "",
          "type": "uint256"
        }
      ],
      "stateMutability": "view",
      "type": "function"
    },
    {
      "inputs": [
        {
          "internalType": "address",
          "name": "_treasury",
          "type": "address"
        }
      ],
      "name": "setTreasury",
      "outputs": [],
      "stateMutability": "nonpayable",
      "type": "function"
    },
    {
      "inputs": [],
      "name": "treasury",
      "outputs": [
        {
          "internalType": "contract ITreasury",
          "name": "",
          "type": "address"
        }
      ],
      "stateMutability": "view",
      "type": "function"
    },
    {
      "inputs": [
        {
          "internalType": "uint256",
          "name": "newRate",
          "type": "uint256"
        }
      ],
      "name": "update",
      "outputs": [],
      "stateMutability": "nonpayable",
      "type": "function"
    }
  ],
  "transactionHash": "0x0224610defcb427f227c428634ea8cb76ae39b856d171939e03fe4b4eae355fd",
  "args": [
    "1086509677194259882891",
    "0xdE725566Fa2bAfd175066943D8D50ae762058e92"
  ],
  "solcInputHash": "d5ace9280091f91616a313b95eefc190",
  "bytecode": "0x6080604052670de0b6b3a7640000600155670de0b6b3a764000060025534801561002857600080fd5b506040516102d83803806102d883398101604081905261004791610071565b600391909155600080546001600160a01b0319166001600160a01b039092169190911790556100ae565b6000806040838503121561008457600080fd5b825160208401519092506001600160a01b03811681146100a357600080fd5b809150509250929050565b61021b806100bd6000396000f3fe608060405234801561001057600080fd5b50600436106100885760003560e01c806361d027b31161005b57806361d027b3146100d757806382ab890a1461011c578063d3b5dc3b14610131578063f0f442601461013a57600080fd5b80632c4e722e1461008d5780633cccb49c146100a95780635001f3b5146100c657806357de26a4146100cf575b600080fd5b61009660035481565b6040519081526020015b60405180910390f35b6004546100b69060ff1681565b60405190151581526020016100a0565b61009660015481565b600354610096565b6000546100f79073ffffffffffffffffffffffffffffffffffffffff1681565b60405173ffffffffffffffffffffffffffffffffffffffff90911681526020016100a0565b61012f61012a36600461018f565b600355565b005b61009660025481565b61012f6101483660046101a8565b600080547fffffffffffffffffffffffff00000000000000000000000000000000000000001673ffffffffffffffffffffffffffffffffffffffff92909216919091179055565b6000602082840312156101a157600080fd5b5035919050565b6000602082840312156101ba57600080fd5b813573ffffffffffffffffffffffffffffffffffffffff811681146101de57600080fd5b939250505056fea2646970667358221220a6064bfbc9edb32b522c2592044e0a4800764dc0be0abddedd8ebc7e227513c164736f6c634300080c0033",
  "devdoc": {
    "kind": "dev",
    "methods": {
      "setTreasury(address)": {
        "details": "This function can be called by an approved `VaultManager` contract which can call this function after being requested to do so by a `treasury` contractIn some situations (like reactor contracts), the `VaultManager` may not directly be linked to the `oracle` contract and as such we may need governors to be able to call this function as well",
        "params": {
          "_treasury": "Address of the new treasury contract"
        }
      }
    },
    "version": 1
  },
  "userdoc": {
    "kind": "user",
    "methods": {
      "constructor": {
        "notice": "Initiate with a fixe change rate"
      },
      "read()": {
        "notice": "Mock read"
      },
      "setTreasury(address)": {
        "notice": "Changes the treasury contract"
      },
      "treasury()": {
        "notice": "Reference to the `treasury` contract handling this `VaultManager`"
      },
      "update(uint256)": {
        "notice": "change oracle rate"
      }
    },
    "version": 1
  },
  "storageLayout": {
    "storage": [
      {
        "astId": 14832,
        "contract": "contracts/mock/MockOracle.sol:MockOracle",
        "label": "treasury",
        "offset": 0,
        "slot": "0",
        "type": "t_contract(ITreasury)12199"
      },
      {
        "astId": 14835,
        "contract": "contracts/mock/MockOracle.sol:MockOracle",
        "label": "base",
        "offset": 0,
        "slot": "1",
        "type": "t_uint256"
      },
      {
        "astId": 14838,
        "contract": "contracts/mock/MockOracle.sol:MockOracle",
        "label": "precision",
        "offset": 0,
        "slot": "2",
        "type": "t_uint256"
      },
      {
        "astId": 14840,
        "contract": "contracts/mock/MockOracle.sol:MockOracle",
        "label": "rate",
        "offset": 0,
        "slot": "3",
        "type": "t_uint256"
      },
      {
        "astId": 14842,
        "contract": "contracts/mock/MockOracle.sol:MockOracle",
        "label": "outdated",
        "offset": 0,
        "slot": "4",
        "type": "t_bool"
      }
    ],
    "types": {
      "t_bool": {
        "encoding": "inplace",
        "label": "bool",
        "numberOfBytes": "1"
      },
      "t_contract(ITreasury)12199": {
        "encoding": "inplace",
        "label": "contract ITreasury",
        "numberOfBytes": "20"
      },
      "t_uint256": {
        "encoding": "inplace",
        "label": "uint256",
        "numberOfBytes": "32"
      }
    }
  }
}