{
  "address": "0x516735bF9a517fc66F53a798B1910498a8a621c5",
  "abi": [
    {
      "inputs": [
        {
          "internalType": "contract ICoreBorrow",
          "name": "_core",
          "type": "address"
        },
        {
          "internalType": "contract IUniswapV3Router",
          "name": "_uniV3Router",
          "type": "address"
        },
        {
          "internalType": "address",
          "name": "_oneInch",
          "type": "address"
        },
        {
          "internalType": "contract IAngleRouterSidechain",
          "name": "_angleRouter",
          "type": "address"
        }
      ],
      "stateMutability": "nonpayable",
      "type": "constructor"
    },
    {
      "inputs": [],
      "name": "EmptyReturnMessage",
      "type": "error"
    },
    {
      "inputs": [],
      "name": "IncompatibleLengths",
      "type": "error"
    },
    {
      "inputs": [],
      "name": "NotGovernorOrGuardian",
      "type": "error"
    },
    {
      "inputs": [],
      "name": "TooSmallAmountOut",
      "type": "error"
    },
    {
      "inputs": [],
      "name": "ZeroAddress",
      "type": "error"
    },
    {
      "inputs": [],
      "name": "angleRouter",
      "outputs": [
        {
          "internalType": "contract IAngleRouterSidechain",
          "name": "",
          "type": "address"
        }
      ],
      "stateMutability": "view",
      "type": "function"
    },
    {
      "inputs": [
        {
          "internalType": "contract IERC20[]",
          "name": "tokens",
          "type": "address[]"
        },
        {
          "internalType": "address[]",
          "name": "spenders",
          "type": "address[]"
        },
        {
          "internalType": "uint256[]",
          "name": "amounts",
          "type": "uint256[]"
        }
      ],
      "name": "changeAllowance",
      "outputs": [],
      "stateMutability": "nonpayable",
      "type": "function"
    },
    {
      "inputs": [],
      "name": "core",
      "outputs": [
        {
          "internalType": "contract ICoreBorrow",
          "name": "",
          "type": "address"
        }
      ],
      "stateMutability": "view",
      "type": "function"
    },
    {
      "inputs": [],
      "name": "oneInch",
      "outputs": [
        {
          "internalType": "address",
          "name": "",
          "type": "address"
        }
      ],
      "stateMutability": "view",
      "type": "function"
    },
    {
      "inputs": [
        {
          "internalType": "contract IERC20",
          "name": "inToken",
          "type": "address"
        },
        {
          "internalType": "contract IERC20",
          "name": "outToken",
          "type": "address"
        },
        {
          "internalType": "address",
          "name": "outTokenRecipient",
          "type": "address"
        },
        {
          "internalType": "uint256",
          "name": "outTokenOwed",
          "type": "uint256"
        },
        {
          "internalType": "uint256",
          "name": "inTokenObtained",
          "type": "uint256"
        },
        {
          "internalType": "bytes",
          "name": "data",
          "type": "bytes"
        }
      ],
      "name": "swap",
      "outputs": [],
      "stateMutability": "nonpayable",
      "type": "function"
    },
    {
      "inputs": [],
      "name": "uniV3Router",
      "outputs": [
        {
          "internalType": "contract IUniswapV3Router",
          "name": "",
          "type": "address"
        }
      ],
      "stateMutability": "view",
      "type": "function"
    }
  ],
  "transactionHash": "0xfd1c5e311f728287b825cd0b8c551ee5b509a9a13d670f0f3f468524ca695235",
  "args": [
    "0x78754109cb73772d70A6560297037657C2AF51b8",
    "0xE592427A0AEce92De3Edee1F18E0157C05861564",
    "0x1111111254eeb25477b68fb85ed929f73a960582",
    "0x595AB88628CD1Af06706E25f10c485B651C47aa8"
  ],
  "numDeployments": 1,
  "solcInputHash": "891a411f4f277461fb1354bee4d4be13",
  "bytecode": "0x6101006040523480156200001257600080fd5b5060405162001d2f38038062001d2f8339810160408190526200003591620000c1565b6001600160a01b03841615806200005357506001600160a01b038216155b806200006657506001600160a01b038116155b15620000855760405163d92e233d60e01b815260040160405180910390fd5b6001600160a01b0393841660805291831660a052821660c0521660e05262000129565b6001600160a01b0381168114620000be57600080fd5b50565b60008060008060808587031215620000d857600080fd5b8451620000e581620000a8565b6020860151909450620000f881620000a8565b60408601519093506200010b81620000a8565b60608601519092506200011e81620000a8565b939692955090935050565b60805160a05160c05160e051611b9e620001916000396000818160cc01528181610b090152610b8e015260008181607c015281816109e90152610a3301526000818160f3015281816108db015261096201526000818161014201526104c80152611b9e6000f3fe608060405234801561001057600080fd5b50600436106100725760003560e01c8063a5d4096b11610050578063a5d4096b14610115578063b82c4dc11461012a578063f2f4eb261461013d57600080fd5b8063045c08d5146100775780630b6942c2146100c75780635fafa589146100ee575b600080fd5b61009e7f000000000000000000000000000000000000000000000000000000000000000081565b60405173ffffffffffffffffffffffffffffffffffffffff909116815260200160405180910390f35b61009e7f000000000000000000000000000000000000000000000000000000000000000081565b61009e7f000000000000000000000000000000000000000000000000000000000000000081565b610128610123366004611390565b610164565b005b6101286101383660046114a6565b61049a565b61009e7f000000000000000000000000000000000000000000000000000000000000000081565b60008060008380602001905181019061017d91906115b1565b96509194509250905073ffffffffffffffffffffffffffffffffffffffff8316156101a857826101aa565b865b92506101c989868360048111156101c3576101c3611616565b87610659565b6040517f70a0823100000000000000000000000000000000000000000000000000000000815230600482015260009073ffffffffffffffffffffffffffffffffffffffff8a16906370a0823190602401602060405180830381865afa158015610236573d6000803e3d6000fd5b505050506040513d601f19601f8201168201806040525081019061025a9190611645565b905082811015610296576040517fa1aabbe100000000000000000000000000000000000000000000000000000000815260040160405180910390fd5b6040517f70a0823100000000000000000000000000000000000000000000000000000000815273ffffffffffffffffffffffffffffffffffffffff8981166004830152600091908b16906370a0823190602401602060405180830381865afa158015610306573d6000803e3d6000fd5b505050506040513d601f19601f8201168201806040525081019061032a9190611645565b9050878110158061036657508873ffffffffffffffffffffffffffffffffffffffff168573ffffffffffffffffffffffffffffffffffffffff16145b156103915761038c73ffffffffffffffffffffffffffffffffffffffff8b1686846106f6565b6103d6565b6103bd8961039f838b61168d565b73ffffffffffffffffffffffffffffffffffffffff8d1691906106f6565b6103d685896103cc85856116a4565b61039f919061168d565b6040517f70a0823100000000000000000000000000000000000000000000000000000000815230600482015273ffffffffffffffffffffffffffffffffffffffff8c16906370a0823190602401602060405180830381865afa158015610440573d6000803e3d6000fd5b505050506040513d601f19601f820116820180604052508101906104649190611645565b9650861561048d5761048d73ffffffffffffffffffffffffffffffffffffffff8c1686896106f6565b5050505050505050505050565b6040517f521d4de90000000000000000000000000000000000000000000000000000000081523360048201527f000000000000000000000000000000000000000000000000000000000000000073ffffffffffffffffffffffffffffffffffffffff169063521d4de990602401602060405180830381865afa158015610524573d6000803e3d6000fd5b505050506040513d601f19601f8201168201806040525081019061054891906116bc565b61057e576040517f99e120bc00000000000000000000000000000000000000000000000000000000815260040160405180910390fd5b84838114158061058e5750808214155b156105c5576040517f46282e8d00000000000000000000000000000000000000000000000000000000815260040160405180910390fd5b60005b8181101561064f5761063f8888838181106105e5576105e56116de565b90506020020160208101906105fa919061170d565b87878481811061060c5761060c6116de565b9050602002016020810190610621919061170d565b868685818110610633576106336116de565b905060200201356107cf565b6106488161172a565b90506105c8565b5050505050505050565b600082600481111561066d5761066d611616565b14156106845761067e8484836108d3565b506106f0565b600182600481111561069857610698611616565b14156106a85761067e84826109e1565b60028260048111156106bc576106bc611616565b14156106d1576106cc8482610ae8565b6106f0565b60038260048111156106e5576106e5611616565b14156106f05760005b505b50505050565b60405173ffffffffffffffffffffffffffffffffffffffff83166024820152604481018290526107ca9084907fa9059cbb00000000000000000000000000000000000000000000000000000000906064015b604080517fffffffffffffffffffffffffffffffffffffffffffffffffffffffffffffffe08184030181529190526020810180517bffffffffffffffffffffffffffffffffffffffffffffffffffffffff167fffffffff0000000000000000000000000000000000000000000000000000000090931692909217909152610c00565b505050565b6040517fdd62ed3e00000000000000000000000000000000000000000000000000000000815230600482015273ffffffffffffffffffffffffffffffffffffffff83811660248301526000919085169063dd62ed3e90604401602060405180830381865afa158015610845573d6000803e3d6000fd5b505050506040513d601f19601f820116820180604052508101906108699190611645565b90508181101561089f576106cc83610881838561168d565b73ffffffffffffffffffffffffffffffffffffffff87169190610d11565b818111156106f0576106f0836108b5848461168d565b73ffffffffffffffffffffffffffffffffffffffff87169190610e0f565b6000610900847f000000000000000000000000000000000000000000000000000000000000000085610f95565b6040805160a0810182528381523060208201524281830152606081018590526000608082015290517fc04b8d5900000000000000000000000000000000000000000000000000000000815273ffffffffffffffffffffffffffffffffffffffff7f0000000000000000000000000000000000000000000000000000000000000000169163c04b8d599161099691906004016117ad565b6020604051808303816000875af11580156109b5573d6000803e3d6000fd5b505050506040513d601f19601f820116820180604052508101906109d99190611645565b949350505050565b6000610a2e837f00000000000000000000000000000000000000000000000000000000000000007fffffffffffffffffffffffffffffffffffffffffffffffffffffffffffffffff6107cf565b6000807f000000000000000000000000000000000000000000000000000000000000000073ffffffffffffffffffffffffffffffffffffffff1684604051610a769190611813565b6000604051808303816000865af19150503d8060008114610ab3576040519150601f19603f3d011682016040523d82523d6000602084013e610ab8565b606091505b509150915081610acb57610acb81611067565b80806020019051810190610adf9190611645565b95945050505050565b60008082806020019051810190610aff91906118de565b91509150610b4e847f00000000000000000000000000000000000000000000000000000000000000007fffffffffffffffffffffffffffffffffffffffffffffffffffffffffffffffff6107cf565b6040517f848c48da00000000000000000000000000000000000000000000000000000000815260609073ffffffffffffffffffffffffffffffffffffffff7f0000000000000000000000000000000000000000000000000000000000000000169063848c48da90610bc790849087908790600401611a90565b600060405180830381600087803b158015610be157600080fd5b505af1158015610bf5573d6000803e3d6000fd5b505050505050505050565b6000610c62826040518060400160405280602081526020017f5361666545524332303a206c6f772d6c6576656c2063616c6c206661696c65648152508573ffffffffffffffffffffffffffffffffffffffff166110a89092919063ffffffff16565b8051909150156107ca5780806020019051810190610c8091906116bc565b6107ca576040517f08c379a000000000000000000000000000000000000000000000000000000000815260206004820152602a60248201527f5361666545524332303a204552433230206f7065726174696f6e20646964206e60448201527f6f7420737563636565640000000000000000000000000000000000000000000060648201526084015b60405180910390fd5b6040517fdd62ed3e00000000000000000000000000000000000000000000000000000000815230600482015273ffffffffffffffffffffffffffffffffffffffff8381166024830152600091839186169063dd62ed3e90604401602060405180830381865afa158015610d88573d6000803e3d6000fd5b505050506040513d601f19601f82011682018060405250810190610dac9190611645565b610db691906116a4565b60405173ffffffffffffffffffffffffffffffffffffffff85166024820152604481018290529091506106f09085907f095ea7b30000000000000000000000000000000000000000000000000000000090606401610748565b6040517fdd62ed3e00000000000000000000000000000000000000000000000000000000815230600482015273ffffffffffffffffffffffffffffffffffffffff83811660248301526000919085169063dd62ed3e90604401602060405180830381865afa158015610e85573d6000803e3d6000fd5b505050506040513d601f19601f82011682018060405250810190610ea99190611645565b905081811015610f3b576040517f08c379a000000000000000000000000000000000000000000000000000000000815260206004820152602960248201527f5361666545524332303a2064656372656173656420616c6c6f77616e6365206260448201527f656c6f77207a65726f00000000000000000000000000000000000000000000006064820152608401610d08565b60405173ffffffffffffffffffffffffffffffffffffffff8416602482015282820360448201819052906106ee9086907f095ea7b30000000000000000000000000000000000000000000000000000000090606401610748565b6040517fdd62ed3e00000000000000000000000000000000000000000000000000000000815230600482015273ffffffffffffffffffffffffffffffffffffffff83811660248301526000919085169063dd62ed3e90604401602060405180830381865afa15801561100b573d6000803e3d6000fd5b505050506040513d601f19601f8201168201806040525081019061102f9190611645565b9050818110156106f0576106f083610881837fffffffffffffffffffffffffffffffffffffffffffffffffffffffffffffffff61168d565b80511561107657805181602001fd5b6040517f6a8df6a800000000000000000000000000000000000000000000000000000000815260040160405180910390fd5b60606109d984846000856110be565b9392505050565b606082471015611150576040517f08c379a000000000000000000000000000000000000000000000000000000000815260206004820152602660248201527f416464726573733a20696e73756666696369656e742062616c616e636520666f60448201527f722063616c6c00000000000000000000000000000000000000000000000000006064820152608401610d08565b73ffffffffffffffffffffffffffffffffffffffff85163b6111ce576040517f08c379a000000000000000000000000000000000000000000000000000000000815260206004820152601d60248201527f416464726573733a2063616c6c20746f206e6f6e2d636f6e74726163740000006044820152606401610d08565b6000808673ffffffffffffffffffffffffffffffffffffffff1685876040516111f79190611813565b60006040518083038185875af1925050503d8060008114611234576040519150601f19603f3d011682016040523d82523d6000602084013e611239565b606091505b5091509150611249828286611254565b979650505050505050565b606083156112635750816110b7565b8251156112735782518084602001fd5b816040517f08c379a0000000000000000000000000000000000000000000000000000000008152600401610d089190611b55565b73ffffffffffffffffffffffffffffffffffffffff811681146112c957600080fd5b50565b7f4e487b7100000000000000000000000000000000000000000000000000000000600052604160045260246000fd5b604051601f82017fffffffffffffffffffffffffffffffffffffffffffffffffffffffffffffffe016810167ffffffffffffffff81118282101715611342576113426112cc565b604052919050565b600067ffffffffffffffff821115611364576113646112cc565b50601f017fffffffffffffffffffffffffffffffffffffffffffffffffffffffffffffffe01660200190565b60008060008060008060c087890312156113a957600080fd5b86356113b4816112a7565b955060208701356113c4816112a7565b945060408701356113d4816112a7565b9350606087013592506080870135915060a087013567ffffffffffffffff8111156113fe57600080fd5b8701601f8101891361140f57600080fd5b803561142261141d8261134a565b6112fb565b8181528a602083850101111561143757600080fd5b816020840160208301376000602083830101528093505050509295509295509295565b60008083601f84011261146c57600080fd5b50813567ffffffffffffffff81111561148457600080fd5b6020830191508360208260051b850101111561149f57600080fd5b9250929050565b600080600080600080606087890312156114bf57600080fd5b863567ffffffffffffffff808211156114d757600080fd5b6114e38a838b0161145a565b909850965060208901359150808211156114fc57600080fd5b6115088a838b0161145a565b9096509450604089013591508082111561152157600080fd5b5061152e89828a0161145a565b979a9699509497509295939492505050565b60005b8381101561155b578181015183820152602001611543565b838111156106f05750506000910152565b600082601f83011261157d57600080fd5b815161158b61141d8261134a565b8181528460208386010111156115a057600080fd5b6109d9826020830160208701611540565b600080600080608085870312156115c757600080fd5b84516115d2816112a7565b809450506020850151925060408501519150606085015167ffffffffffffffff8111156115fe57600080fd5b61160a8782880161156c565b91505092959194509250565b7f4e487b7100000000000000000000000000000000000000000000000000000000600052602160045260246000fd5b60006020828403121561165757600080fd5b5051919050565b7f4e487b7100000000000000000000000000000000000000000000000000000000600052601160045260246000fd5b60008282101561169f5761169f61165e565b500390565b600082198211156116b7576116b761165e565b500190565b6000602082840312156116ce57600080fd5b815180151581146110b757600080fd5b7f4e487b7100000000000000000000000000000000000000000000000000000000600052603260045260246000fd5b60006020828403121561171f57600080fd5b81356110b7816112a7565b60007fffffffffffffffffffffffffffffffffffffffffffffffffffffffffffffffff82141561175c5761175c61165e565b5060010190565b6000815180845261177b816020860160208601611540565b601f017fffffffffffffffffffffffffffffffffffffffffffffffffffffffffffffffe0169290920160200192915050565b602081526000825160a060208401526117c960c0840182611763565b905073ffffffffffffffffffffffffffffffffffffffff60208501511660408401526040840151606084015260608401516080840152608084015160a08401528091505092915050565b60008251611825818460208701611540565b9190910192915050565b600067ffffffffffffffff821115611849576118496112cc565b5060051b60200190565b600082601f83011261186457600080fd5b8151602061187461141d8361182f565b82815260059290921b8401810191818101908684111561189357600080fd5b8286015b848110156118d357805167ffffffffffffffff8111156118b75760008081fd5b6118c58986838b010161156c565b845250918301918301611897565b509695505050505050565b600080604083850312156118f157600080fd5b825167ffffffffffffffff8082111561190957600080fd5b818501915085601f83011261191d57600080fd5b8151602061192d61141d8361182f565b82815260059290921b8401810191818101908984111561194c57600080fd5b948201945b83861015611978578551600e81106119695760008081fd5b82529482019490820190611951565b9188015191965090935050508082111561199157600080fd5b5061199e85828601611853565b9150509250929050565b60008151808452602080850194508084016000805b84811015611a0e578251600e81106119fc577f4e487b710000000000000000000000000000000000000000000000000000000083526021600452602483fd5b885296830196918301916001016119bd565b50959695505050505050565b600082825180855260208086019550808260051b84010181860160005b84811015611a83577fffffffffffffffffffffffffffffffffffffffffffffffffffffffffffffffe0868403018952611a71838351611763565b98840198925090830190600101611a37565b5090979650505050505050565b6060808252845182820181905260009190608090818501906020808a01865b83811015611b21578151805173ffffffffffffffffffffffffffffffffffffffff90811687528482015116848701526040808201519087015287810151888701528681015160ff168787015260a0808201519087015260c0908101519086015260e09094019390820190600101611aaf565b50508683039087015250611b3581886119a8565b925050508281036040840152611b4b8185611a1a565b9695505050505050565b6020815260006110b7602083018461176356fea26469706673582212204a55b8e73ee0e70258dd3a66c7ad89c1cd4595c2de64e8ee28c59340b77ffcc864736f6c634300080c0033",
  "devdoc": {
    "author": "Angle Labs, Inc.",
    "kind": "dev",
    "methods": {
      "changeAllowance(address[],address[],uint256[])": {
        "params": {
          "amounts": "Amounts to allow",
          "spenders": "Addresses to allow transfer",
          "tokens": "Addresses of the tokens to allow"
        }
      },
      "constructor": {
        "params": {
          "_angleRouter": "AngleRouter contract address",
          "_core": "Core address",
          "_oneInch": "1inch Router address",
          "_uniV3Router": "UniswapV3 Router address"
        }
      },
      "swap(address,address,address,uint256,uint256,bytes)": {
        "details": "This function swaps the `inToken` to the `outToken` by doing a UniV3 swap, a 1inch swap or by interacting with the `AngleRouter` contractOne slippage check is performed at the end of the callIn this implementation, the function tries to make sure that the `outTokenRecipient` address has at the end of the call `outTokenOwed`, leftover tokens are sent to a `to` address which by default is the `outTokenRecipient`",
        "params": {
          "data": "Extra data needed (to encode Uniswap swaps for instance)",
          "inToken": "Address of the token received",
          "inTokenObtained": "Amount of collateral obtained by a related address prior to the call to this function",
          "outToken": "Address of the token to obtain",
          "outTokenOwed": "Minimum amount of outToken the `outTokenRecipient` address should have at the end of the call",
          "outTokenRecipient": "Address to which the outToken should be sent"
        }
      }
    },
    "title": "Swapper",
    "version": 1
  },
  "userdoc": {
    "kind": "user",
    "methods": {
      "angleRouter()": {
        "notice": "AngleRouter"
      },
      "changeAllowance(address[],address[],uint256[])": {
        "notice": "Changes allowances of this contract for different tokens"
      },
      "constructor": {
        "notice": "Constructor of the contract"
      },
      "core()": {
        "notice": "Reference to the `CoreBorrow` contract of the module which handles all AccessControl logic"
      },
      "oneInch()": {
        "notice": "1inch Router"
      },
      "swap(address,address,address,uint256,uint256,bytes)": {
        "notice": "Notifies a contract that an address should be given `outToken` from `inToken`"
      },
      "uniV3Router()": {
        "notice": "Uniswap Router contract"
      }
    },
    "notice": "Swapper contract facilitating interactions with Angle VaultManager contracts, notably liquidation and leverage transactions",
    "version": 1
  },
  "storageLayout": {
    "storage": [],
    "types": null
  }
}