{
  "address": "0x6f2C6d2f10aa87DC24276fFd05d53267C88bAE14",
  "abi": [
    {
      "inputs": [],
      "stateMutability": "nonpayable",
      "type": "constructor"
    },
    {
      "inputs": [],
      "name": "AssetStillControlledInReserves",
      "type": "error"
    },
    {
      "inputs": [],
      "name": "BurnAmountExceedsAllowance",
      "type": "error"
    },
    {
      "inputs": [],
      "name": "HourlyLimitExceeded",
      "type": "error"
    },
    {
      "inputs": [],
      "name": "InvalidSender",
      "type": "error"
    },
    {
      "inputs": [],
      "name": "InvalidToken",
      "type": "error"
    },
    {
      "inputs": [],
      "name": "InvalidTreasury",
      "type": "error"
    },
    {
      "inputs": [],
      "name": "NotGovernor",
      "type": "error"
    },
    {
      "inputs": [],
      "name": "NotGovernorOrGuardian",
      "type": "error"
    },
    {
      "inputs": [],
      "name": "NotMinter",
      "type": "error"
    },
    {
      "inputs": [],
      "name": "NotTreasury",
      "type": "error"
    },
    {
      "inputs": [],
      "name": "TooBigAmount",
      "type": "error"
    },
    {
      "inputs": [],
      "name": "TooHighParameterValue",
      "type": "error"
    },
    {
      "inputs": [],
      "name": "TreasuryAlreadyInitialized",
      "type": "error"
    },
    {
      "inputs": [],
      "name": "ZeroAddress",
      "type": "error"
    },
    {
      "anonymous": false,
      "inputs": [
        {
          "indexed": true,
          "internalType": "address",
          "name": "owner",
          "type": "address"
        },
        {
          "indexed": true,
          "internalType": "address",
          "name": "spender",
          "type": "address"
        },
        {
          "indexed": false,
          "internalType": "uint256",
          "name": "value",
          "type": "uint256"
        }
      ],
      "name": "Approval",
      "type": "event"
    },
    {
      "anonymous": false,
      "inputs": [
        {
          "indexed": true,
          "internalType": "address",
          "name": "bridgeToken",
          "type": "address"
        },
        {
          "indexed": false,
          "internalType": "uint256",
          "name": "limit",
          "type": "uint256"
        },
        {
          "indexed": false,
          "internalType": "uint256",
          "name": "hourlyLimit",
          "type": "uint256"
        },
        {
          "indexed": false,
          "internalType": "uint64",
          "name": "fee",
          "type": "uint64"
        },
        {
          "indexed": false,
          "internalType": "bool",
          "name": "paused",
          "type": "bool"
        }
      ],
      "name": "BridgeTokenAdded",
      "type": "event"
    },
    {
      "anonymous": false,
      "inputs": [
        {
          "indexed": true,
          "internalType": "address",
          "name": "bridgeToken",
          "type": "address"
        },
        {
          "indexed": false,
          "internalType": "uint64",
          "name": "fee",
          "type": "uint64"
        }
      ],
      "name": "BridgeTokenFeeUpdated",
      "type": "event"
    },
    {
      "anonymous": false,
      "inputs": [
        {
          "indexed": true,
          "internalType": "address",
          "name": "bridgeToken",
          "type": "address"
        },
        {
          "indexed": false,
          "internalType": "uint256",
          "name": "hourlyLimit",
          "type": "uint256"
        }
      ],
      "name": "BridgeTokenHourlyLimitUpdated",
      "type": "event"
    },
    {
      "anonymous": false,
      "inputs": [
        {
          "indexed": true,
          "internalType": "address",
          "name": "bridgeToken",
          "type": "address"
        },
        {
          "indexed": false,
          "internalType": "uint256",
          "name": "limit",
          "type": "uint256"
        }
      ],
      "name": "BridgeTokenLimitUpdated",
      "type": "event"
    },
    {
      "anonymous": false,
      "inputs": [
        {
          "indexed": true,
          "internalType": "address",
          "name": "bridgeToken",
          "type": "address"
        }
      ],
      "name": "BridgeTokenRemoved",
      "type": "event"
    },
    {
      "anonymous": false,
      "inputs": [
        {
          "indexed": true,
          "internalType": "address",
          "name": "bridgeToken",
          "type": "address"
        },
        {
          "indexed": false,
          "internalType": "bool",
          "name": "toggleStatus",
          "type": "bool"
        }
      ],
      "name": "BridgeTokenToggled",
      "type": "event"
    },
    {
      "anonymous": false,
      "inputs": [
        {
          "indexed": false,
          "internalType": "address",
          "name": "newAddress",
          "type": "address"
        }
      ],
      "name": "ChildChainManagerAdded",
      "type": "event"
    },
    {
      "anonymous": false,
      "inputs": [
        {
          "indexed": false,
          "internalType": "address",
          "name": "oldAddress",
          "type": "address"
        }
      ],
      "name": "ChildChainManagerRevoked",
      "type": "event"
    },
    {
      "anonymous": false,
      "inputs": [
        {
          "indexed": true,
          "internalType": "address",
          "name": "theAddress",
          "type": "address"
        },
        {
          "indexed": false,
          "internalType": "uint256",
          "name": "toggleStatus",
          "type": "uint256"
        }
      ],
      "name": "FeeToggled",
      "type": "event"
    },
    {
      "anonymous": false,
      "inputs": [
        {
          "indexed": false,
          "internalType": "uint256",
          "name": "hourlyLimit",
          "type": "uint256"
        }
      ],
      "name": "HourlyLimitUpdated",
      "type": "event"
    },
    {
      "anonymous": false,
      "inputs": [
        {
          "indexed": true,
          "internalType": "address",
          "name": "keeper",
          "type": "address"
        },
        {
          "indexed": false,
          "internalType": "bool",
          "name": "toggleStatus",
          "type": "bool"
        }
      ],
      "name": "KeeperToggled",
      "type": "event"
    },
    {
      "anonymous": false,
      "inputs": [
        {
          "indexed": true,
          "internalType": "address",
          "name": "minter",
          "type": "address"
        }
      ],
      "name": "MinterToggled",
      "type": "event"
    },
    {
      "anonymous": false,
      "inputs": [
        {
          "indexed": true,
          "internalType": "address",
          "name": "token",
          "type": "address"
        },
        {
          "indexed": true,
          "internalType": "address",
          "name": "to",
          "type": "address"
        },
        {
          "indexed": false,
          "internalType": "uint256",
          "name": "amount",
          "type": "uint256"
        }
      ],
      "name": "Recovered",
      "type": "event"
    },
    {
      "anonymous": false,
      "inputs": [
        {
          "indexed": true,
          "internalType": "bytes32",
          "name": "role",
          "type": "bytes32"
        },
        {
          "indexed": true,
          "internalType": "bytes32",
          "name": "previousAdminRole",
          "type": "bytes32"
        },
        {
          "indexed": true,
          "internalType": "bytes32",
          "name": "newAdminRole",
          "type": "bytes32"
        }
      ],
      "name": "RoleAdminChanged",
      "type": "event"
    },
    {
      "anonymous": false,
      "inputs": [
        {
          "indexed": true,
          "internalType": "bytes32",
          "name": "role",
          "type": "bytes32"
        },
        {
          "indexed": true,
          "internalType": "address",
          "name": "account",
          "type": "address"
        },
        {
          "indexed": true,
          "internalType": "address",
          "name": "sender",
          "type": "address"
        }
      ],
      "name": "RoleGranted",
      "type": "event"
    },
    {
      "anonymous": false,
      "inputs": [
        {
          "indexed": true,
          "internalType": "bytes32",
          "name": "role",
          "type": "bytes32"
        },
        {
          "indexed": true,
          "internalType": "address",
          "name": "account",
          "type": "address"
        },
        {
          "indexed": true,
          "internalType": "address",
          "name": "sender",
          "type": "address"
        }
      ],
      "name": "RoleRevoked",
      "type": "event"
    },
    {
      "anonymous": false,
      "inputs": [
        {
          "indexed": true,
          "internalType": "address",
          "name": "from",
          "type": "address"
        },
        {
          "indexed": true,
          "internalType": "address",
          "name": "to",
          "type": "address"
        },
        {
          "indexed": false,
          "internalType": "uint256",
          "name": "value",
          "type": "uint256"
        }
      ],
      "name": "Transfer",
      "type": "event"
    },
    {
      "anonymous": false,
      "inputs": [
        {
          "indexed": true,
          "internalType": "address",
          "name": "_treasury",
          "type": "address"
        }
      ],
      "name": "TreasuryUpdated",
      "type": "event"
    },
    {
      "inputs": [],
      "name": "BASE_PARAMS",
      "outputs": [
        {
          "internalType": "uint256",
          "name": "",
          "type": "uint256"
        }
      ],
      "stateMutability": "view",
      "type": "function"
    },
    {
      "inputs": [],
      "name": "DEFAULT_ADMIN_ROLE",
      "outputs": [
        {
          "internalType": "bytes32",
          "name": "",
          "type": "bytes32"
        }
      ],
      "stateMutability": "view",
      "type": "function"
    },
    {
      "inputs": [],
      "name": "DEPOSITOR_ROLE",
      "outputs": [
        {
          "internalType": "bytes32",
          "name": "",
          "type": "bytes32"
        }
      ],
      "stateMutability": "view",
      "type": "function"
    },
    {
      "inputs": [
        {
          "internalType": "address",
          "name": "bridgeToken",
          "type": "address"
        },
        {
          "internalType": "uint256",
          "name": "limit",
          "type": "uint256"
        },
        {
          "internalType": "uint256",
          "name": "hourlyLimit",
          "type": "uint256"
        },
        {
          "internalType": "uint64",
          "name": "fee",
          "type": "uint64"
        },
        {
          "internalType": "bool",
          "name": "paused",
          "type": "bool"
        }
      ],
      "name": "addBridgeToken",
      "outputs": [],
      "stateMutability": "nonpayable",
      "type": "function"
    },
    {
      "inputs": [
        {
          "internalType": "address",
          "name": "minter",
          "type": "address"
        }
      ],
      "name": "addMinter",
      "outputs": [],
      "stateMutability": "nonpayable",
      "type": "function"
    },
    {
      "inputs": [],
      "name": "allBridgeTokens",
      "outputs": [
        {
          "internalType": "address[]",
          "name": "",
          "type": "address[]"
        }
      ],
      "stateMutability": "view",
      "type": "function"
    },
    {
      "inputs": [
        {
          "internalType": "address",
          "name": "owner",
          "type": "address"
        },
        {
          "internalType": "address",
          "name": "spender",
          "type": "address"
        }
      ],
      "name": "allowance",
      "outputs": [
        {
          "internalType": "uint256",
          "name": "",
          "type": "uint256"
        }
      ],
      "stateMutability": "view",
      "type": "function"
    },
    {
      "inputs": [
        {
          "internalType": "address",
          "name": "spender",
          "type": "address"
        },
        {
          "internalType": "uint256",
          "name": "amount",
          "type": "uint256"
        }
      ],
      "name": "approve",
      "outputs": [
        {
          "internalType": "bool",
          "name": "",
          "type": "bool"
        }
      ],
      "stateMutability": "nonpayable",
      "type": "function"
    },
    {
      "inputs": [
        {
          "internalType": "address",
          "name": "account",
          "type": "address"
        }
      ],
      "name": "balanceOf",
      "outputs": [
        {
          "internalType": "uint256",
          "name": "",
          "type": "uint256"
        }
      ],
      "stateMutability": "view",
      "type": "function"
    },
    {
      "inputs": [
        {
          "internalType": "uint256",
          "name": "",
          "type": "uint256"
        }
      ],
      "name": "bridgeTokensList",
      "outputs": [
        {
          "internalType": "address",
          "name": "",
          "type": "address"
        }
      ],
      "stateMutability": "view",
      "type": "function"
    },
    {
      "inputs": [
        {
          "internalType": "address",
          "name": "",
          "type": "address"
        }
      ],
      "name": "bridges",
      "outputs": [
        {
          "internalType": "uint256",
          "name": "limit",
          "type": "uint256"
        },
        {
          "internalType": "uint256",
          "name": "hourlyLimit",
          "type": "uint256"
        },
        {
          "internalType": "uint64",
          "name": "fee",
          "type": "uint64"
        },
        {
          "internalType": "bool",
          "name": "allowed",
          "type": "bool"
        },
        {
          "internalType": "bool",
          "name": "paused",
          "type": "bool"
        }
      ],
      "stateMutability": "view",
      "type": "function"
    },
    {
      "inputs": [
        {
          "internalType": "uint256",
          "name": "amount",
          "type": "uint256"
        },
        {
          "internalType": "address",
          "name": "burner",
          "type": "address"
        },
        {
          "internalType": "address",
          "name": "sender",
          "type": "address"
        }
      ],
      "name": "burnFrom",
      "outputs": [],
      "stateMutability": "nonpayable",
      "type": "function"
    },
    {
      "inputs": [
        {
          "internalType": "uint256",
          "name": "amount",
          "type": "uint256"
        },
        {
          "internalType": "address",
          "name": "burner",
          "type": "address"
        }
      ],
      "name": "burnSelf",
      "outputs": [],
      "stateMutability": "nonpayable",
      "type": "function"
    },
    {
      "inputs": [
        {
          "internalType": "uint256",
          "name": "amount",
          "type": "uint256"
        }
      ],
      "name": "burnStablecoin",
      "outputs": [],
      "stateMutability": "nonpayable",
      "type": "function"
    },
    {
      "inputs": [],
      "name": "chainTotalHourlyLimit",
      "outputs": [
        {
          "internalType": "uint256",
          "name": "",
          "type": "uint256"
        }
      ],
      "stateMutability": "view",
      "type": "function"
    },
    {
      "inputs": [
        {
          "internalType": "uint256",
          "name": "",
          "type": "uint256"
        }
      ],
      "name": "chainTotalUsage",
      "outputs": [
        {
          "internalType": "uint256",
          "name": "",
          "type": "uint256"
        }
      ],
      "stateMutability": "view",
      "type": "function"
    },
    {
      "inputs": [],
      "name": "currentTotalUsage",
      "outputs": [
        {
          "internalType": "uint256",
          "name": "",
          "type": "uint256"
        }
      ],
      "stateMutability": "view",
      "type": "function"
    },
    {
      "inputs": [
        {
          "internalType": "address",
          "name": "bridge",
          "type": "address"
        }
      ],
      "name": "currentUsage",
      "outputs": [
        {
          "internalType": "uint256",
          "name": "",
          "type": "uint256"
        }
      ],
      "stateMutability": "view",
      "type": "function"
    },
    {
      "inputs": [],
      "name": "decimals",
      "outputs": [
        {
          "internalType": "uint8",
          "name": "",
          "type": "uint8"
        }
      ],
      "stateMutability": "view",
      "type": "function"
    },
    {
      "inputs": [
        {
          "internalType": "address",
          "name": "spender",
          "type": "address"
        },
        {
          "internalType": "uint256",
          "name": "subtractedValue",
          "type": "uint256"
        }
      ],
      "name": "decreaseAllowance",
      "outputs": [
        {
          "internalType": "bool",
          "name": "",
          "type": "bool"
        }
      ],
      "stateMutability": "nonpayable",
      "type": "function"
    },
    {
      "inputs": [
        {
          "internalType": "address",
          "name": "user",
          "type": "address"
        },
        {
          "internalType": "bytes",
          "name": "depositData",
          "type": "bytes"
        }
      ],
      "name": "deposit",
      "outputs": [],
      "stateMutability": "nonpayable",
      "type": "function"
    },
    {
      "inputs": [
        {
          "internalType": "bytes32",
          "name": "role",
          "type": "bytes32"
        }
      ],
      "name": "getRoleAdmin",
      "outputs": [
        {
          "internalType": "bytes32",
          "name": "",
          "type": "bytes32"
        }
      ],
      "stateMutability": "view",
      "type": "function"
    },
    {
      "inputs": [
        {
          "internalType": "bytes32",
          "name": "role",
          "type": "bytes32"
        },
        {
          "internalType": "address",
          "name": "account",
          "type": "address"
        }
      ],
      "name": "grantRole",
      "outputs": [],
      "stateMutability": "nonpayable",
      "type": "function"
    },
    {
      "inputs": [
        {
          "internalType": "bytes32",
          "name": "role",
          "type": "bytes32"
        },
        {
          "internalType": "address",
          "name": "account",
          "type": "address"
        }
      ],
      "name": "hasRole",
      "outputs": [
        {
          "internalType": "bool",
          "name": "",
          "type": "bool"
        }
      ],
      "stateMutability": "view",
      "type": "function"
    },
    {
      "inputs": [
        {
          "internalType": "address",
          "name": "spender",
          "type": "address"
        },
        {
          "internalType": "uint256",
          "name": "addedValue",
          "type": "uint256"
        }
      ],
      "name": "increaseAllowance",
      "outputs": [
        {
          "internalType": "bool",
          "name": "",
          "type": "bool"
        }
      ],
      "stateMutability": "nonpayable",
      "type": "function"
    },
    {
      "inputs": [
        {
          "internalType": "string",
          "name": "_name",
          "type": "string"
        },
        {
          "internalType": "string",
          "name": "_symbol",
          "type": "string"
        },
        {
          "internalType": "address",
          "name": "childChainManager",
          "type": "address"
        },
        {
          "internalType": "address",
          "name": "guardian",
          "type": "address"
        }
      ],
      "name": "initialize",
      "outputs": [],
      "stateMutability": "nonpayable",
      "type": "function"
    },
    {
      "inputs": [
        {
          "internalType": "address",
          "name": "",
          "type": "address"
        }
      ],
      "name": "isFeeExempt",
      "outputs": [
        {
          "internalType": "uint256",
          "name": "",
          "type": "uint256"
        }
      ],
      "stateMutability": "view",
      "type": "function"
    },
    {
      "inputs": [
        {
          "internalType": "address",
          "name": "",
          "type": "address"
        }
      ],
      "name": "isMinter",
      "outputs": [
        {
          "internalType": "bool",
          "name": "",
          "type": "bool"
        }
      ],
      "stateMutability": "view",
      "type": "function"
    },
    {
      "inputs": [
        {
          "internalType": "address",
          "name": "account",
          "type": "address"
        },
        {
          "internalType": "uint256",
          "name": "amount",
          "type": "uint256"
        }
      ],
      "name": "mint",
      "outputs": [],
      "stateMutability": "nonpayable",
      "type": "function"
    },
    {
      "inputs": [],
      "name": "name",
      "outputs": [
        {
          "internalType": "string",
          "name": "",
          "type": "string"
        }
      ],
      "stateMutability": "view",
      "type": "function"
    },
    {
      "inputs": [
        {
          "internalType": "address",
          "name": "tokenAddress",
          "type": "address"
        },
        {
          "internalType": "address",
          "name": "to",
          "type": "address"
        },
        {
          "internalType": "uint256",
          "name": "amountToRecover",
          "type": "uint256"
        }
      ],
      "name": "recoverERC20",
      "outputs": [],
      "stateMutability": "nonpayable",
      "type": "function"
    },
    {
      "inputs": [
        {
          "internalType": "address",
          "name": "bridgeToken",
          "type": "address"
        }
      ],
      "name": "removeBridgeToken",
      "outputs": [],
      "stateMutability": "nonpayable",
      "type": "function"
    },
    {
      "inputs": [
        {
          "internalType": "address",
          "name": "minter",
          "type": "address"
        }
      ],
      "name": "removeMinter",
      "outputs": [],
      "stateMutability": "nonpayable",
      "type": "function"
    },
    {
      "inputs": [
        {
          "internalType": "bytes32",
          "name": "role",
          "type": "bytes32"
        },
        {
          "internalType": "address",
          "name": "account",
          "type": "address"
        }
      ],
      "name": "renounceRole",
      "outputs": [],
      "stateMutability": "nonpayable",
      "type": "function"
    },
    {
      "inputs": [
        {
          "internalType": "bytes32",
          "name": "role",
          "type": "bytes32"
        },
        {
          "internalType": "address",
          "name": "account",
          "type": "address"
        }
      ],
      "name": "revokeRole",
      "outputs": [],
      "stateMutability": "nonpayable",
      "type": "function"
    },
    {
      "inputs": [
        {
          "internalType": "uint256",
          "name": "hourlyLimit",
          "type": "uint256"
        }
      ],
      "name": "setChainTotalHourlyLimit",
      "outputs": [],
      "stateMutability": "nonpayable",
      "type": "function"
    },
    {
      "inputs": [
        {
          "internalType": "address",
          "name": "bridgeToken",
          "type": "address"
        },
        {
          "internalType": "uint256",
          "name": "hourlyLimit",
          "type": "uint256"
        }
      ],
      "name": "setHourlyLimit",
      "outputs": [],
      "stateMutability": "nonpayable",
      "type": "function"
    },
    {
      "inputs": [
        {
          "internalType": "address",
          "name": "bridgeToken",
          "type": "address"
        },
        {
          "internalType": "uint256",
          "name": "limit",
          "type": "uint256"
        }
      ],
      "name": "setLimit",
      "outputs": [],
      "stateMutability": "nonpayable",
      "type": "function"
    },
    {
      "inputs": [
        {
          "internalType": "address",
          "name": "bridgeToken",
          "type": "address"
        },
        {
          "internalType": "uint64",
          "name": "fee",
          "type": "uint64"
        }
      ],
      "name": "setSwapFee",
      "outputs": [],
      "stateMutability": "nonpayable",
      "type": "function"
    },
    {
      "inputs": [
        {
          "internalType": "address",
          "name": "_treasury",
          "type": "address"
        }
      ],
      "name": "setTreasury",
      "outputs": [],
      "stateMutability": "nonpayable",
      "type": "function"
    },
    {
      "inputs": [
        {
          "internalType": "address",
          "name": "_treasury",
          "type": "address"
        }
      ],
      "name": "setUpTreasury",
      "outputs": [],
      "stateMutability": "nonpayable",
      "type": "function"
    },
    {
      "inputs": [
        {
          "internalType": "bytes4",
          "name": "interfaceId",
          "type": "bytes4"
        }
      ],
      "name": "supportsInterface",
      "outputs": [
        {
          "internalType": "bool",
          "name": "",
          "type": "bool"
        }
      ],
      "stateMutability": "view",
      "type": "function"
    },
    {
      "inputs": [
        {
          "internalType": "address",
          "name": "bridgeToken",
          "type": "address"
        },
        {
          "internalType": "uint256",
          "name": "amount",
          "type": "uint256"
        },
        {
          "internalType": "address",
          "name": "to",
          "type": "address"
        }
      ],
      "name": "swapIn",
      "outputs": [
        {
          "internalType": "uint256",
          "name": "",
          "type": "uint256"
        }
      ],
      "stateMutability": "nonpayable",
      "type": "function"
    },
    {
      "inputs": [
        {
          "internalType": "address",
          "name": "bridgeToken",
          "type": "address"
        },
        {
          "internalType": "uint256",
          "name": "amount",
          "type": "uint256"
        },
        {
          "internalType": "address",
          "name": "to",
          "type": "address"
        }
      ],
      "name": "swapOut",
      "outputs": [
        {
          "internalType": "uint256",
          "name": "",
          "type": "uint256"
        }
      ],
      "stateMutability": "nonpayable",
      "type": "function"
    },
    {
      "inputs": [],
      "name": "symbol",
      "outputs": [
        {
          "internalType": "string",
          "name": "",
          "type": "string"
        }
      ],
      "stateMutability": "view",
      "type": "function"
    },
    {
      "inputs": [
        {
          "internalType": "address",
          "name": "bridgeToken",
          "type": "address"
        }
      ],
      "name": "toggleBridge",
      "outputs": [],
      "stateMutability": "nonpayable",
      "type": "function"
    },
    {
      "inputs": [
        {
          "internalType": "address",
          "name": "theAddress",
          "type": "address"
        }
      ],
      "name": "toggleFeesForAddress",
      "outputs": [],
      "stateMutability": "nonpayable",
      "type": "function"
    },
    {
      "inputs": [],
      "name": "totalSupply",
      "outputs": [
        {
          "internalType": "uint256",
          "name": "",
          "type": "uint256"
        }
      ],
      "stateMutability": "view",
      "type": "function"
    },
    {
      "inputs": [
        {
          "internalType": "address",
          "name": "recipient",
          "type": "address"
        },
        {
          "internalType": "uint256",
          "name": "amount",
          "type": "uint256"
        }
      ],
      "name": "transfer",
      "outputs": [
        {
          "internalType": "bool",
          "name": "",
          "type": "bool"
        }
      ],
      "stateMutability": "nonpayable",
      "type": "function"
    },
    {
      "inputs": [
        {
          "internalType": "address",
          "name": "sender",
          "type": "address"
        },
        {
          "internalType": "address",
          "name": "recipient",
          "type": "address"
        },
        {
          "internalType": "uint256",
          "name": "amount",
          "type": "uint256"
        }
      ],
      "name": "transferFrom",
      "outputs": [
        {
          "internalType": "bool",
          "name": "",
          "type": "bool"
        }
      ],
      "stateMutability": "nonpayable",
      "type": "function"
    },
    {
      "inputs": [],
      "name": "treasury",
      "outputs": [
        {
          "internalType": "address",
          "name": "",
          "type": "address"
        }
      ],
      "stateMutability": "view",
      "type": "function"
    },
    {
      "inputs": [],
      "name": "treasuryInitialized",
      "outputs": [
        {
          "internalType": "bool",
          "name": "",
          "type": "bool"
        }
      ],
      "stateMutability": "view",
      "type": "function"
    },
    {
      "inputs": [
        {
          "internalType": "address",
          "name": "",
          "type": "address"
        },
        {
          "internalType": "uint256",
          "name": "",
          "type": "uint256"
        }
      ],
      "name": "usage",
      "outputs": [
        {
          "internalType": "uint256",
          "name": "",
          "type": "uint256"
        }
      ],
      "stateMutability": "view",
      "type": "function"
    },
    {
      "inputs": [
        {
          "internalType": "uint256",
          "name": "amount",
          "type": "uint256"
        }
      ],
      "name": "withdraw",
      "outputs": [],
      "stateMutability": "nonpayable",
      "type": "function"
    }
  ],
  "transactionHash": "0xbbca418b7acb08ba49352993e2c910cb464ee01e2d973fef688bcd0b44c06fb8",
  "args": [],
  "solcInputHash": "8a26d6606024625e1a63f4cee8837487",
  "bytecode": "0x60806040523480156200001157600080fd5b50600054610100900460ff166200002f5760005460ff161562000039565b62000039620000de565b620000a15760405162461bcd60e51b815260206004820152602e60248201527f496e697469616c697a61626c653a20636f6e747261637420697320616c72656160448201526d191e481a5b9a5d1a585b1a5e995960921b606482015260840160405180910390fd5b600054610100900460ff16158015620000c4576000805461ffff19166101011790555b8015620000d7576000805461ff00191690555b5062000102565b6000620000f630620000fc60201b62002d111760201c565b15905090565b3b151590565b614d1780620001126000396000f3fe608060405234801561001057600080fd5b50600436106103625760003560e01c80637334d020116101c8578063a457c2d711610104578063cf2c52cb116100a2578063dd62ed3e1161007c578063dd62ed3e14610877578063e3e28655146108bd578063f0f44260146108d0578063f1cc2dea146108e357600080fd5b8063cf2c52cb1461083e578063d44ad63f14610851578063d547741f1461086457600080fd5b8063ba330bd7116100de578063ba330bd71461076f578063cd4839ca14610782578063cdc5aa9d14610797578063ced67f0c146107aa57600080fd5b8063a457c2d714610726578063a9059cbb14610739578063aa271e1a1461074c57600080fd5b806391d14854116101715780639e4e0dae1161014b5780639e4e0dae146106d95780639f48118f146106ec578063a217fddf146106f7578063a3b0b5a3146106ff57600080fd5b806391d148541461067857806395d89b41146106be578063983b2d56146106c657600080fd5b80638933fb79116101a25780638933fb79146106265780638f15b4141461065257806390218cff1461066557600080fd5b80637334d020146105f85780637d4c9c2d1461060b5780637d74e25f1461061e57600080fd5b80632f2ff15d116102a25780633a55f89d116102405780634dc32fcc1161021a5780634dc32fcc146105495780635bfbec961461055c57806361d027b31461057d57806370a08231146105c257600080fd5b80633a55f89d146105025780633f4218e01461051557806340c10f191461053657600080fd5b8063350ebe041161027c578063350ebe04146104b657806336568abe146104c957806336db43b5146104dc57806339509351146104ef57600080fd5b80632f2ff15d146104815780633092afd514610494578063313ce567146104a757600080fd5b806318160ddd1161030f578063248a9ca3116102e9578063248a9ca3146104255780632b471d8e146104485780632e1a7d4d1461045b5780632e403e141461046e57600080fd5b806318160ddd146104005780632342fb0e1461040857806323b872dd1461041257600080fd5b8063095ea7b311610340578063095ea7b3146103b95780631171bda9146103cc578063151dd755146103df57600080fd5b806301ffc9a71461036757806306fdde031461038f5780630919a951146103a4575b600080fd5b61037a6103753660046144a1565b610908565b60405190151581526020015b60405180910390f35b6103976109a1565b604051610386919061450f565b6103b76103b2366004614582565b610a33565b005b61037a6103c736600461459f565b610b98565b6103b76103da3660046145cb565b610bae565b6103f26103ed36600461460c565b610d03565b604051908152602001610386565b6035546103f2565b6103f26101035481565b61037a6104203660046145cb565b61105b565b6103f261043336600461464e565b60009081526097602052604090206001015490565b6103b7610456366004614667565b611146565b6103b761046936600461464e565b61119d565b6103b761047c366004614582565b6111aa565b6103b761048f366004614667565b611561565b6103b76104a2366004614582565b61158c565b60405160128152602001610386565b6103b76104c4366004614697565b611675565b6103b76104d7366004614667565b6116c9565b6103b76104ea36600461459f565b611778565b61037a6104fd36600461459f565b611909565b6103b761051036600461464e565b611952565b6103f2610523366004614582565b6101026020526000908152604090205481565b6103b761054436600461459f565b611a56565b6103f2610557366004614582565b611aa9565b6103f261056a36600461464e565b6101046020526000908152604090205481565b60fe5461059d9073ffffffffffffffffffffffffffffffffffffffff1681565b60405173ffffffffffffffffffffffffffffffffffffffff9091168152602001610386565b6103f26105d0366004614582565b73ffffffffffffffffffffffffffffffffffffffff1660009081526033602052604090205490565b6103b761060636600461459f565b611af2565b6103b76106193660046146f9565b611c86565b6103f2611ff0565b6103f261063436600461459f565b61010160209081526000928352604080842090915290825290205481565b6103b7610660366004614830565b612016565b6103b761067336600461464e565b6121bc565b61037a610686366004614667565b600091825260976020908152604080842073ffffffffffffffffffffffffffffffffffffffff93909316845291905290205460ff1690565b6103976121c6565b6103b76106d4366004614582565b6121d5565b6103b76106e73660046148b9565b61229d565b6103f2633b9aca0081565b6103f2600081565b6103f27f8f4f2da22e8ac8f11e15f9fc141cddbb5deea8800186560abb6e68c5496619a981565b61037a61073436600461459f565b6124aa565b61037a61074736600461459f565b612582565b61037a61075a366004614582565b60fd6020526000908152604090205460ff1681565b61059d61077d36600461464e565b61258f565b61078a6125c7565b60405161038691906148ee565b6103b76107a5366004614582565b612636565b6108056107b8366004614582565b60ff60208190526000918252604090912080546001820154600290920154909267ffffffffffffffff82169168010000000000000000810482169169010000000000000000009091041685565b60408051958652602086019490945267ffffffffffffffff9092169284019290925290151560608301521515608082015260a001610386565b6103b761084c366004614948565b612831565b6103f261085f36600461460c565b61288c565b6103b7610872366004614667565b612a55565b6103f26108853660046149cd565b73ffffffffffffffffffffffffffffffffffffffff918216600090815260346020908152604080832093909416825291909152205490565b6103b76108cb366004614582565b612a7b565b6103b76108de366004614582565b612c51565b60fe5461037a9074010000000000000000000000000000000000000000900460ff1681565b60007fffffffff0000000000000000000000000000000000000000000000000000000082167f7965db0b00000000000000000000000000000000000000000000000000000000148061099b57507f01ffc9a7000000000000000000000000000000000000000000000000000000007fffffffff000000000000000000000000000000000000000000000000000000008316145b92915050565b6060603680546109b0906149fb565b80601f01602080910402602001604051908101604052809291908181526020018280546109dc906149fb565b8015610a295780601f106109fe57610100808354040283529160200191610a29565b820191906000526020600020905b815481529060010190602001808311610a0c57829003601f168201915b5050505050905090565b60fe546040517f521d4de900000000000000000000000000000000000000000000000000000000815233600482015273ffffffffffffffffffffffffffffffffffffffff9091169063521d4de990602401602060405180830381865afa158015610aa1573d6000803e3d6000fd5b505050506040513d601f19601f82011682018060405250810190610ac59190614a4f565b610afb576040517f99e120bc00000000000000000000000000000000000000000000000000000000815260040160405180910390fd5b73ffffffffffffffffffffffffffffffffffffffff811660009081526101026020526040812054610b2d906001614a9b565b73ffffffffffffffffffffffffffffffffffffffff8316600081815261010260205260409081902083905551919250907f979ef83e7e7a87cb48064e296dd7e997870d50f43acf8d7ad221313526c8ca0f90610b8c9084815260200190565b60405180910390a25050565b6000610ba5338484612d17565b50600192915050565b60fe546040517fe43581b800000000000000000000000000000000000000000000000000000000815233600482015273ffffffffffffffffffffffffffffffffffffffff9091169063e43581b890602401602060405180830381865afa158015610c1c573d6000803e3d6000fd5b505050506040513d601f19601f82011682018060405250810190610c409190614a4f565b610c76576040517fee3675d400000000000000000000000000000000000000000000000000000000815260040160405180910390fd5b610c9773ffffffffffffffffffffffffffffffffffffffff84168383612ec2565b8173ffffffffffffffffffffffffffffffffffffffff168373ffffffffffffffffffffffffffffffffffffffff167ffff3b3844276f57024e0b42afec1a37f75db36511e43819a4f2a63ab7862b64883604051610cf691815260200190565b60405180910390a3505050565b73ffffffffffffffffffffffffffffffffffffffff8316600090815260ff60208181526040808420815160a081018352815481526001820154938101939093526002015467ffffffffffffffff811691830191909152680100000000000000008104831615801560608401526901000000000000000000909104909216151560808201529080610d94575080608001515b15610dcb576040517fc1ab6dc100000000000000000000000000000000000000000000000000000000815260040160405180910390fd5b6040517f70a0823100000000000000000000000000000000000000000000000000000000815230600482015260009073ffffffffffffffffffffffffffffffffffffffff8716906370a0823190602401602060405180830381865afa158015610e38573d6000803e3d6000fd5b505050506040513d601f19601f82011682018060405250810190610e5c9190614ab2565b8251909150610e6b8683614acb565b1115610e93578151811015610e8e578151610e87908290614a9b565b9450610e93565b600094505b6000610ea1610e1042614ae3565b73ffffffffffffffffffffffffffffffffffffffff881660009081526101016020908152604080832084845290915281205491925090610ee2908890614acb565b90508360200151811115610f785773ffffffffffffffffffffffffffffffffffffffff8816600090815261010160209081526040808320858452825290912054908501511115610f735773ffffffffffffffffffffffffffffffffffffffff881660009081526101016020908152604080832085845282529091205490850151610f6c9190614a9b565b9650610f78565b600096505b73ffffffffffffffffffffffffffffffffffffffff8816600090815261010160209081526040808320858452909152902054610fb5908890614acb565b73ffffffffffffffffffffffffffffffffffffffff8916600081815261010160209081526040808320878452909152902091909155610ff69033308a612f96565b3360009081526101026020526040902054879061104357633b9aca00856040015167ffffffffffffffff168261102c9190614b1e565b6110369190614ae3565b6110409082614a9b565b90505b61104d8782612ff4565b9450505050505b9392505050565b6000611068848484613114565b73ffffffffffffffffffffffffffffffffffffffff841660009081526034602090815260408083203384529091529020548281101561112e576040517f08c379a000000000000000000000000000000000000000000000000000000000815260206004820152602860248201527f45524332303a207472616e7366657220616d6f756e742065786365656473206160448201527f6c6c6f77616e636500000000000000000000000000000000000000000000000060648201526084015b60405180910390fd5b61113b8533858403612d17565b506001949350505050565b33600090815260fd602052604090205460ff1661118f576040517ff8d2906c00000000000000000000000000000000000000000000000000000000815260040160405180910390fd5b61119981836133c7565b5050565b6111a733826135b3565b50565b60fe546040517fe43581b800000000000000000000000000000000000000000000000000000000815233600482015273ffffffffffffffffffffffffffffffffffffffff9091169063e43581b890602401602060405180830381865afa158015611218573d6000803e3d6000fd5b505050506040513d601f19601f8201168201806040525081019061123c9190614a4f565b611272576040517fee3675d400000000000000000000000000000000000000000000000000000000815260040160405180910390fd5b6040517f70a0823100000000000000000000000000000000000000000000000000000000815230600482015273ffffffffffffffffffffffffffffffffffffffff8216906370a0823190602401602060405180830381865afa1580156112dc573d6000803e3d6000fd5b505050506040513d601f19601f820116820180604052508101906113009190614ab2565b15611337576040517f2ef630ec00000000000000000000000000000000000000000000000000000000815260040160405180910390fd5b73ffffffffffffffffffffffffffffffffffffffff8116600090815260ff602052604081208181556001810182905560020180547fffffffffffffffffffffffffffffffffffffffffffff0000000000000000000016905561010054905b6113a0600183614a9b565b8110156114b1578273ffffffffffffffffffffffffffffffffffffffff1661010082815481106113d2576113d2614b5b565b60009182526020909120015473ffffffffffffffffffffffffffffffffffffffff16141561149f57610100611408600184614a9b565b8154811061141857611418614b5b565b600091825260209091200154610100805473ffffffffffffffffffffffffffffffffffffffff909216918390811061145257611452614b5b565b9060005260206000200160006101000a81548173ffffffffffffffffffffffffffffffffffffffff021916908373ffffffffffffffffffffffffffffffffffffffff1602179055506114b1565b806114a981614b8a565b915050611395565b506101008054806114c4576114c4614bc3565b60008281526020812082017fffffffffffffffffffffffffffffffffffffffffffffffffffffffffffffffff90810180547fffffffffffffffffffffffff000000000000000000000000000000000000000016905590910190915560405173ffffffffffffffffffffffffffffffffffffffff8416917f5c95b49c4d59d97a2f044167723f29c74b30f99702e3fd406c3830160aa9ccb891a25050565b60008281526097602052604090206001015461157d8133613798565b611587838361386a565b505050565b60fe5473ffffffffffffffffffffffffffffffffffffffff1633148015906115ca57503373ffffffffffffffffffffffffffffffffffffffff821614155b15611601576040517fddb5de5e00000000000000000000000000000000000000000000000000000000815260040160405180910390fd5b73ffffffffffffffffffffffffffffffffffffffff8116600081815260fd602052604080822080547fffffffffffffffffffffffffffffffffffffffffffffffffffffffffffffff00169055517f98c15241d6c02bc5ee0b780e11b3ea737a2defd9d04877edbe9f9497065bd02f9190a250565b33600090815260fd602052604090205460ff166116be576040517ff8d2906c00000000000000000000000000000000000000000000000000000000815260040160405180910390fd5b61158783838361395e565b73ffffffffffffffffffffffffffffffffffffffff8116331461176e576040517f08c379a000000000000000000000000000000000000000000000000000000000815260206004820152602f60248201527f416363657373436f6e74726f6c3a2063616e206f6e6c792072656e6f756e636560448201527f20726f6c657320666f722073656c6600000000000000000000000000000000006064820152608401611125565b6111998282613a19565b60fe546040517f521d4de900000000000000000000000000000000000000000000000000000000815233600482015273ffffffffffffffffffffffffffffffffffffffff9091169063521d4de990602401602060405180830381865afa1580156117e6573d6000803e3d6000fd5b505050506040513d601f19601f8201168201806040525081019061180a9190614a4f565b611840576040517f99e120bc00000000000000000000000000000000000000000000000000000000815260040160405180910390fd5b73ffffffffffffffffffffffffffffffffffffffff8216600090815260ff6020819052604090912060020154680100000000000000009004166118af576040517fc1ab6dc100000000000000000000000000000000000000000000000000000000815260040160405180910390fd5b73ffffffffffffffffffffffffffffffffffffffff8216600081815260ff602052604090819020839055517fe7b113fba37131b6396680a0c55790a697ec975e198ff8cfd89dac90a6379e6190610b8c9084815260200190565b33600081815260346020908152604080832073ffffffffffffffffffffffffffffffffffffffff871684529091528120549091610ba591859061194d908690614acb565b612d17565b60fe546040517f521d4de900000000000000000000000000000000000000000000000000000000815233600482015273ffffffffffffffffffffffffffffffffffffffff9091169063521d4de990602401602060405180830381865afa1580156119c0573d6000803e3d6000fd5b505050506040513d601f19601f820116820180604052508101906119e49190614a4f565b611a1a576040517f99e120bc00000000000000000000000000000000000000000000000000000000815260040160405180910390fd5b6101038190556040518181527fc3b69829afe2345596a02c8b587d41f796ba0094481d899e1b2e07b7532a1e219060200160405180910390a150565b33600090815260fd602052604090205460ff16611a9f576040517ff8d2906c00000000000000000000000000000000000000000000000000000000815260040160405180910390fd5b6111998282612ff4565b73ffffffffffffffffffffffffffffffffffffffff811660009081526101016020526040812081611adc610e1042614ae3565b8152602001908152602001600020549050919050565b60fe546040517f521d4de900000000000000000000000000000000000000000000000000000000815233600482015273ffffffffffffffffffffffffffffffffffffffff9091169063521d4de990602401602060405180830381865afa158015611b60573d6000803e3d6000fd5b505050506040513d601f19601f82011682018060405250810190611b849190614a4f565b611bba576040517f99e120bc00000000000000000000000000000000000000000000000000000000815260040160405180910390fd5b73ffffffffffffffffffffffffffffffffffffffff8216600090815260ff602081905260409091206002015468010000000000000000900416611c29576040517fc1ab6dc100000000000000000000000000000000000000000000000000000000815260040160405180910390fd5b73ffffffffffffffffffffffffffffffffffffffff8216600081815260ff602052604090819020600101839055517fe13ac9338b2ee623233f83c1b3ceab16490fa3e3737fac7f0970d0830a9f487190610b8c9084815260200190565b60fe546040517fe43581b800000000000000000000000000000000000000000000000000000000815233600482015273ffffffffffffffffffffffffffffffffffffffff9091169063e43581b890602401602060405180830381865afa158015611cf4573d6000803e3d6000fd5b505050506040513d601f19601f82011682018060405250810190611d189190614a4f565b611d4e576040517fee3675d400000000000000000000000000000000000000000000000000000000815260040160405180910390fd5b73ffffffffffffffffffffffffffffffffffffffff8516600090815260ff60208190526040909120600201546801000000000000000090041680611da6575073ffffffffffffffffffffffffffffffffffffffff8516155b15611ddd576040517fc1ab6dc100000000000000000000000000000000000000000000000000000000815260040160405180910390fd5b633b9aca008267ffffffffffffffff161115611e25576040517feca1d2c600000000000000000000000000000000000000000000000000000000815260040160405180910390fd5b6040805160a08101825260008082526020820181905291810182905260608101829052608081019190915284815260208082018581528315156080840190815267ffffffffffffffff808716604080870191825260016060880181815273ffffffffffffffffffffffffffffffffffffffff8e16600081815260ff9099528389208a5181559751888401559351600290970180549151965115156901000000000000000000027fffffffffffffffffffffffffffffffffffffffffffff00ffffffffffffffffff97151568010000000000000000027fffffffffffffffffffffffffffffffffffffffffffffff0000000000000000009093169890961697909717179490941692909217909355610100805492830181559093527f45e010b9ae401e2eb71529478da8bd513a9bdc2d095a111e324f5b95c09ed87b0180547fffffffffffffffffffffffff0000000000000000000000000000000000000000168217905590517f53087ff85d80a7671594bd2e86b92af22e0b3c2c441c8033bba7399b7b5cbe2390611fe0908890889088908890938452602084019290925267ffffffffffffffff1660408301521515606082015260800190565b60405180910390a2505050505050565b600061010481612002610e1042614ae3565b815260200190815260200160002054905090565b600054610100900460ff166120315760005460ff1615612035565b303b155b6120c1576040517f08c379a000000000000000000000000000000000000000000000000000000000815260206004820152602e60248201527f496e697469616c697a61626c653a20636f6e747261637420697320616c72656160448201527f647920696e697469616c697a65640000000000000000000000000000000000006064820152608401611125565b600054610100900460ff1615801561210057600080547fffffffffffffffffffffffffffffffffffffffffffffffffffffffffffff0000166101011790555b61210a8585613ad4565b612112613b7d565b61211d600083613c2e565b6121477f8f4f2da22e8ac8f11e15f9fc141cddbb5deea8800186560abb6e68c5496619a984613c2e565b612186856040518060400160405280600181526020017f3100000000000000000000000000000000000000000000000000000000000000815250613c38565b80156121b557600080547fffffffffffffffffffffffffffffffffffffffffffffffffffffffffffff00ff1690555b5050505050565b6111a733826133c7565b6060603780546109b0906149fb565b60fe5473ffffffffffffffffffffffffffffffffffffffff163314612226576040517fb90cdbb100000000000000000000000000000000000000000000000000000000815260040160405180910390fd5b73ffffffffffffffffffffffffffffffffffffffff8116600081815260fd602052604080822080547fffffffffffffffffffffffffffffffffffffffffffffffffffffffffffffff00166001179055517f98c15241d6c02bc5ee0b780e11b3ea737a2defd9d04877edbe9f9497065bd02f9190a250565b60fe546040517f521d4de900000000000000000000000000000000000000000000000000000000815233600482015273ffffffffffffffffffffffffffffffffffffffff9091169063521d4de990602401602060405180830381865afa15801561230b573d6000803e3d6000fd5b505050506040513d601f19601f8201168201806040525081019061232f9190614a4f565b612365576040517f99e120bc00000000000000000000000000000000000000000000000000000000815260040160405180910390fd5b73ffffffffffffffffffffffffffffffffffffffff8216600090815260ff6020819052604090912060020154680100000000000000009004166123d4576040517fc1ab6dc100000000000000000000000000000000000000000000000000000000815260040160405180910390fd5b633b9aca008167ffffffffffffffff16111561241c576040517feca1d2c600000000000000000000000000000000000000000000000000000000815260040160405180910390fd5b73ffffffffffffffffffffffffffffffffffffffff8216600081815260ff602090815260409182902060020180547fffffffffffffffffffffffffffffffffffffffffffffffff00000000000000001667ffffffffffffffff861690811790915591519182527f901f9de19b475adc8da4110434b8df940dce085afd05e2281c86807f3a899d299101610b8c565b33600090815260346020908152604080832073ffffffffffffffffffffffffffffffffffffffff861684529091528120548281101561256b576040517f08c379a000000000000000000000000000000000000000000000000000000000815260206004820152602560248201527f45524332303a2064656372656173656420616c6c6f77616e63652062656c6f7760448201527f207a65726f0000000000000000000000000000000000000000000000000000006064820152608401611125565b6125783385858403612d17565b5060019392505050565b6000610ba5338484613114565b61010081815481106125a057600080fd5b60009182526020909120015473ffffffffffffffffffffffffffffffffffffffff16905081565b6060610100805480602002602001604051908101604052809291908181526020018280548015610a2957602002820191906000526020600020905b815473ffffffffffffffffffffffffffffffffffffffff168152600190910190602001808311612602575050505050905090565b73da2d2f638d6fcbe306236583845e5822554c02ea3314612683576040517fee3675d400000000000000000000000000000000000000000000000000000000815260040160405180910390fd5b3073ffffffffffffffffffffffffffffffffffffffff168173ffffffffffffffffffffffffffffffffffffffff1663e9cbd8226040518163ffffffff1660e01b8152600401602060405180830381865afa1580156126e5573d6000803e3d6000fd5b505050506040513d601f19601f820116820180604052508101906127099190614bf2565b73ffffffffffffffffffffffffffffffffffffffff1614612756576040517f14bcf5c800000000000000000000000000000000000000000000000000000000815260040160405180910390fd5b60fe5474010000000000000000000000000000000000000000900460ff16156127ab576040517fe1a1cccf00000000000000000000000000000000000000000000000000000000815260040160405180910390fd5b60fe80547fffffffffffffffffffffff0000000000000000000000000000000000000000001673ffffffffffffffffffffffffffffffffffffffff831690811774010000000000000000000000000000000000000000179091556040517f7dae230f18360d76a040c81f050aa14eb9d6dc7901b20fc5d855e2a20fe814d190600090a250565b3360009081527f28e8759d778413ba386bd9f909ab886584d0c872d3157abd7018c4ab794baf5a602052604090205460ff1661286c57600080fd5b600061287a8284018461464e565b90506128868482612ff4565b50505050565b73ffffffffffffffffffffffffffffffffffffffff8316600090815260ff60208181526040808420815160a081018352815481526001820154938101939093526002015467ffffffffffffffff81169183019190915268010000000000000000810483161580156060840152690100000000000000000090910490921615156080820152908061291d575080608001515b15612954576040517fc1ab6dc100000000000000000000000000000000000000000000000000000000815260040160405180910390fd5b6000612962610e1042614ae3565b6000818152610104602052604081205491925090612981908790614acb565b9050610103548111156129c0576040517f6d43d1ac00000000000000000000000000000000000000000000000000000000815260040160405180910390fd5b6000828152610104602052604090208190556129dc33876133c7565b33600090815261010260205260409020548690612a2957633b9aca00846040015167ffffffffffffffff1682612a129190614b1e565b612a1c9190614ae3565b612a269082614a9b565b90505b612a4a73ffffffffffffffffffffffffffffffffffffffff89168783612ec2565b979650505050505050565b600082815260976020526040902060010154612a718133613798565b6115878383613a19565b60fe546040517f521d4de900000000000000000000000000000000000000000000000000000000815233600482015273ffffffffffffffffffffffffffffffffffffffff9091169063521d4de990602401602060405180830381865afa158015612ae9573d6000803e3d6000fd5b505050506040513d601f19601f82011682018060405250810190612b0d9190614a4f565b612b43576040517f99e120bc00000000000000000000000000000000000000000000000000000000815260040160405180910390fd5b73ffffffffffffffffffffffffffffffffffffffff8116600090815260ff602081905260409091206002015468010000000000000000900416612bb2576040517fc1ab6dc100000000000000000000000000000000000000000000000000000000815260040160405180910390fd5b73ffffffffffffffffffffffffffffffffffffffff8116600081815260ff602081815260409283902060020180547fffffffffffffffffffffffffffffffffffffffffffff00ffffffffffffffffff811669010000000000000000009182900490941680159182029490941790915592519283529092917ff7c93079dcbf699749d66345a351afab7d24219bb1d915c9f4fc4cf03f00d3979101610b8c565b60fe5473ffffffffffffffffffffffffffffffffffffffff163314612ca2576040517fb90cdbb100000000000000000000000000000000000000000000000000000000815260040160405180910390fd5b60fe80547fffffffffffffffffffffffff00000000000000000000000000000000000000001673ffffffffffffffffffffffffffffffffffffffff83169081179091556040517f7dae230f18360d76a040c81f050aa14eb9d6dc7901b20fc5d855e2a20fe814d190600090a250565b3b151590565b73ffffffffffffffffffffffffffffffffffffffff8316612db9576040517f08c379a0000000000000000000000000000000000000000000000000000000008152602060048201526024808201527f45524332303a20617070726f76652066726f6d20746865207a65726f2061646460448201527f72657373000000000000000000000000000000000000000000000000000000006064820152608401611125565b73ffffffffffffffffffffffffffffffffffffffff8216612e5c576040517f08c379a000000000000000000000000000000000000000000000000000000000815260206004820152602260248201527f45524332303a20617070726f766520746f20746865207a65726f20616464726560448201527f73730000000000000000000000000000000000000000000000000000000000006064820152608401611125565b73ffffffffffffffffffffffffffffffffffffffff83811660008181526034602090815260408083209487168084529482529182902085905590518481527f8c5be1e5ebec7d5bd14f71427d1e84f3dd0314c0f7b2291e5b200ac8c7c3b9259101610cf6565b60405173ffffffffffffffffffffffffffffffffffffffff83166024820152604481018290526115879084907fa9059cbb00000000000000000000000000000000000000000000000000000000906064015b604080517fffffffffffffffffffffffffffffffffffffffffffffffffffffffffffffffe08184030181529190526020810180517bffffffffffffffffffffffffffffffffffffffffffffffffffffffff167fffffffff0000000000000000000000000000000000000000000000000000000090931692909217909152613cd9565b60405173ffffffffffffffffffffffffffffffffffffffff808516602483015283166044820152606481018290526128869085907f23b872dd0000000000000000000000000000000000000000000000000000000090608401612f14565b73ffffffffffffffffffffffffffffffffffffffff8216613071576040517f08c379a000000000000000000000000000000000000000000000000000000000815260206004820152601f60248201527f45524332303a206d696e7420746f20746865207a65726f2061646472657373006044820152606401611125565b80603560008282546130839190614acb565b909155505073ffffffffffffffffffffffffffffffffffffffff8216600090815260336020526040812080548392906130bd908490614acb565b909155505060405181815273ffffffffffffffffffffffffffffffffffffffff8316906000907fddf252ad1be2c89b69c2b068fc378daa952ba7f163c4a11628f55a4df523b3ef9060200160405180910390a35050565b73ffffffffffffffffffffffffffffffffffffffff83166131b7576040517f08c379a000000000000000000000000000000000000000000000000000000000815260206004820152602560248201527f45524332303a207472616e736665722066726f6d20746865207a65726f20616460448201527f64726573730000000000000000000000000000000000000000000000000000006064820152608401611125565b73ffffffffffffffffffffffffffffffffffffffff821661325a576040517f08c379a000000000000000000000000000000000000000000000000000000000815260206004820152602360248201527f45524332303a207472616e7366657220746f20746865207a65726f206164647260448201527f65737300000000000000000000000000000000000000000000000000000000006064820152608401611125565b73ffffffffffffffffffffffffffffffffffffffff831660009081526033602052604090205481811015613310576040517f08c379a000000000000000000000000000000000000000000000000000000000815260206004820152602660248201527f45524332303a207472616e7366657220616d6f756e742065786365656473206260448201527f616c616e636500000000000000000000000000000000000000000000000000006064820152608401611125565b73ffffffffffffffffffffffffffffffffffffffff808516600090815260336020526040808220858503905591851681529081208054849290613354908490614acb565b925050819055508273ffffffffffffffffffffffffffffffffffffffff168473ffffffffffffffffffffffffffffffffffffffff167fddf252ad1be2c89b69c2b068fc378daa952ba7f163c4a11628f55a4df523b3ef846040516133ba91815260200190565b60405180910390a3612886565b73ffffffffffffffffffffffffffffffffffffffff821661346a576040517f08c379a000000000000000000000000000000000000000000000000000000000815260206004820152602160248201527f45524332303a206275726e2066726f6d20746865207a65726f2061646472657360448201527f73000000000000000000000000000000000000000000000000000000000000006064820152608401611125565b73ffffffffffffffffffffffffffffffffffffffff821660009081526033602052604090205481811015613520576040517f08c379a000000000000000000000000000000000000000000000000000000000815260206004820152602260248201527f45524332303a206275726e20616d6f756e7420657863656564732062616c616e60448201527f63650000000000000000000000000000000000000000000000000000000000006064820152608401611125565b73ffffffffffffffffffffffffffffffffffffffff8316600090815260336020526040812083830390556035805484929061355c908490614a9b565b9091555050604051828152309073ffffffffffffffffffffffffffffffffffffffff8516907fddf252ad1be2c89b69c2b068fc378daa952ba7f163c4a11628f55a4df523b3ef9060200160405180910390a3505050565b73ffffffffffffffffffffffffffffffffffffffff8216613656576040517f08c379a000000000000000000000000000000000000000000000000000000000815260206004820152602160248201527f45524332303a206275726e2066726f6d20746865207a65726f2061646472657360448201527f73000000000000000000000000000000000000000000000000000000000000006064820152608401611125565b73ffffffffffffffffffffffffffffffffffffffff82166000908152603360205260409020548181101561370c576040517f08c379a000000000000000000000000000000000000000000000000000000000815260206004820152602260248201527f45524332303a206275726e20616d6f756e7420657863656564732062616c616e60448201527f63650000000000000000000000000000000000000000000000000000000000006064820152608401611125565b73ffffffffffffffffffffffffffffffffffffffff83166000908152603360205260408120838303905560358054849290613748908490614a9b565b909155505060405182815260009073ffffffffffffffffffffffffffffffffffffffff8516907fddf252ad1be2c89b69c2b068fc378daa952ba7f163c4a11628f55a4df523b3ef90602001610cf6565b600082815260976020908152604080832073ffffffffffffffffffffffffffffffffffffffff8516845290915290205460ff16611199576137f08173ffffffffffffffffffffffffffffffffffffffff166014613de5565b6137fb836020613de5565b60405160200161380c929190614c0f565b604080517fffffffffffffffffffffffffffffffffffffffffffffffffffffffffffffffe0818403018152908290527f08c379a00000000000000000000000000000000000000000000000000000000082526111259160040161450f565b600082815260976020908152604080832073ffffffffffffffffffffffffffffffffffffffff8516845290915290205460ff1661119957600082815260976020908152604080832073ffffffffffffffffffffffffffffffffffffffff85168452909152902080547fffffffffffffffffffffffffffffffffffffffffffffffffffffffffffffff001660011790556139003390565b73ffffffffffffffffffffffffffffffffffffffff168173ffffffffffffffffffffffffffffffffffffffff16837f2f8788117e7eff1d82e926ec794901d17c78024a50270940304540a733656f0d60405160405180910390a45050565b8073ffffffffffffffffffffffffffffffffffffffff168273ffffffffffffffffffffffffffffffffffffffff1614613a0f5773ffffffffffffffffffffffffffffffffffffffff828116600090815260346020908152604080832093851683529290522054838110156139fe576040517f715ec26c00000000000000000000000000000000000000000000000000000000815260040160405180910390fd5b613a0d838361194d8785614a9b565b505b61158782846133c7565b600082815260976020908152604080832073ffffffffffffffffffffffffffffffffffffffff8516845290915290205460ff161561119957600082815260976020908152604080832073ffffffffffffffffffffffffffffffffffffffff8516808552925280832080547fffffffffffffffffffffffffffffffffffffffffffffffffffffffffffffff0016905551339285917ff6391f5c32d9c69d2a47ea670b442974b53935d1edc7fd64eb21e047a839171b9190a45050565b600054610100900460ff16613b6b576040517f08c379a000000000000000000000000000000000000000000000000000000000815260206004820152602b60248201527f496e697469616c697a61626c653a20636f6e7472616374206973206e6f74206960448201527f6e697469616c697a696e670000000000000000000000000000000000000000006064820152608401611125565b613b73614028565b61119982826140bf565b600054610100900460ff16613c14576040517f08c379a000000000000000000000000000000000000000000000000000000000815260206004820152602b60248201527f496e697469616c697a61626c653a20636f6e7472616374206973206e6f74206960448201527f6e697469616c697a696e670000000000000000000000000000000000000000006064820152608401611125565b613c1c614028565b613c24614028565b613c2c614028565b565b611199828261386a565b600054610100900460ff16613ccf576040517f08c379a000000000000000000000000000000000000000000000000000000000815260206004820152602b60248201527f496e697469616c697a61626c653a20636f6e7472616374206973206e6f74206960448201527f6e697469616c697a696e670000000000000000000000000000000000000000006064820152608401611125565b611199828261417d565b6000613d3b826040518060400160405280602081526020017f5361666545524332303a206c6f772d6c6576656c2063616c6c206661696c65648152508573ffffffffffffffffffffffffffffffffffffffff1661422e9092919063ffffffff16565b8051909150156115875780806020019051810190613d599190614a4f565b611587576040517f08c379a000000000000000000000000000000000000000000000000000000000815260206004820152602a60248201527f5361666545524332303a204552433230206f7065726174696f6e20646964206e60448201527f6f742073756363656564000000000000000000000000000000000000000000006064820152608401611125565b60606000613df4836002614b1e565b613dff906002614acb565b67ffffffffffffffff811115613e1757613e17614756565b6040519080825280601f01601f191660200182016040528015613e41576020820181803683370190505b5090507f300000000000000000000000000000000000000000000000000000000000000081600081518110613e7857613e78614b5b565b60200101907effffffffffffffffffffffffffffffffffffffffffffffffffffffffffffff1916908160001a9053507f780000000000000000000000000000000000000000000000000000000000000081600181518110613edb57613edb614b5b565b60200101907effffffffffffffffffffffffffffffffffffffffffffffffffffffffffffff1916908160001a9053506000613f17846002614b1e565b613f22906001614acb565b90505b6001811115613fbf577f303132333435363738396162636465660000000000000000000000000000000085600f1660108110613f6357613f63614b5b565b1a60f81b828281518110613f7957613f79614b5b565b60200101907effffffffffffffffffffffffffffffffffffffffffffffffffffffffffffff1916908160001a90535060049490941c93613fb881614c90565b9050613f25565b508315611054576040517f08c379a000000000000000000000000000000000000000000000000000000000815260206004820181905260248201527f537472696e67733a20686578206c656e67746820696e73756666696369656e746044820152606401611125565b600054610100900460ff16613c2c576040517f08c379a000000000000000000000000000000000000000000000000000000000815260206004820152602b60248201527f496e697469616c697a61626c653a20636f6e7472616374206973206e6f74206960448201527f6e697469616c697a696e670000000000000000000000000000000000000000006064820152608401611125565b600054610100900460ff16614156576040517f08c379a000000000000000000000000000000000000000000000000000000000815260206004820152602b60248201527f496e697469616c697a61626c653a20636f6e7472616374206973206e6f74206960448201527f6e697469616c697a696e670000000000000000000000000000000000000000006064820152608401611125565b8151614169906036906020850190614408565b508051611587906037906020840190614408565b600054610100900460ff16614214576040517f08c379a000000000000000000000000000000000000000000000000000000000815260206004820152602b60248201527f496e697469616c697a61626c653a20636f6e7472616374206973206e6f74206960448201527f6e697469616c697a696e670000000000000000000000000000000000000000006064820152608401611125565b81516020928301208151919092012060c99190915560ca55565b606061423d8484600085614245565b949350505050565b6060824710156142d7576040517f08c379a000000000000000000000000000000000000000000000000000000000815260206004820152602660248201527f416464726573733a20696e73756666696369656e742062616c616e636520666f60448201527f722063616c6c00000000000000000000000000000000000000000000000000006064820152608401611125565b843b61433f576040517f08c379a000000000000000000000000000000000000000000000000000000000815260206004820152601d60248201527f416464726573733a2063616c6c20746f206e6f6e2d636f6e74726163740000006044820152606401611125565b6000808673ffffffffffffffffffffffffffffffffffffffff1685876040516143689190614cc5565b60006040518083038185875af1925050503d80600081146143a5576040519150601f19603f3d011682016040523d82523d6000602084013e6143aa565b606091505b5091509150612a4a828286606083156143c4575081611054565b8251156143d45782518084602001fd5b816040517f08c379a0000000000000000000000000000000000000000000000000000000008152600401611125919061450f565b828054614414906149fb565b90600052602060002090601f016020900481019282614436576000855561447c565b82601f1061444f57805160ff191683800117855561447c565b8280016001018555821561447c579182015b8281111561447c578251825591602001919060010190614461565b5061448892915061448c565b5090565b5b80821115614488576000815560010161448d565b6000602082840312156144b357600080fd5b81357fffffffff000000000000000000000000000000000000000000000000000000008116811461105457600080fd5b60005b838110156144fe5781810151838201526020016144e6565b838111156128865750506000910152565b602081526000825180602084015261452e8160408501602087016144e3565b601f017fffffffffffffffffffffffffffffffffffffffffffffffffffffffffffffffe0169190910160400192915050565b73ffffffffffffffffffffffffffffffffffffffff811681146111a757600080fd5b60006020828403121561459457600080fd5b813561105481614560565b600080604083850312156145b257600080fd5b82356145bd81614560565b946020939093013593505050565b6000806000606084860312156145e057600080fd5b83356145eb81614560565b925060208401356145fb81614560565b929592945050506040919091013590565b60008060006060848603121561462157600080fd5b833561462c81614560565b925060208401359150604084013561464381614560565b809150509250925092565b60006020828403121561466057600080fd5b5035919050565b6000806040838503121561467a57600080fd5b82359150602083013561468c81614560565b809150509250929050565b6000806000606084860312156146ac57600080fd5b8335925060208401356146be81614560565b9150604084013561464381614560565b803567ffffffffffffffff811681146146e657600080fd5b919050565b80151581146111a757600080fd5b600080600080600060a0868803121561471157600080fd5b853561471c81614560565b94506020860135935060408601359250614738606087016146ce565b91506080860135614748816146eb565b809150509295509295909350565b7f4e487b7100000000000000000000000000000000000000000000000000000000600052604160045260246000fd5b600082601f83011261479657600080fd5b813567ffffffffffffffff808211156147b1576147b1614756565b604051601f83017fffffffffffffffffffffffffffffffffffffffffffffffffffffffffffffffe0908116603f011681019082821181831017156147f7576147f7614756565b8160405283815286602085880101111561481057600080fd5b836020870160208301376000602085830101528094505050505092915050565b6000806000806080858703121561484657600080fd5b843567ffffffffffffffff8082111561485e57600080fd5b61486a88838901614785565b9550602087013591508082111561488057600080fd5b5061488d87828801614785565b935050604085013561489e81614560565b915060608501356148ae81614560565b939692955090935050565b600080604083850312156148cc57600080fd5b82356148d781614560565b91506148e5602084016146ce565b90509250929050565b6020808252825182820181905260009190848201906040850190845b8181101561493c57835173ffffffffffffffffffffffffffffffffffffffff168352928401929184019160010161490a565b50909695505050505050565b60008060006040848603121561495d57600080fd5b833561496881614560565b9250602084013567ffffffffffffffff8082111561498557600080fd5b818601915086601f83011261499957600080fd5b8135818111156149a857600080fd5b8760208285010111156149ba57600080fd5b6020830194508093505050509250925092565b600080604083850312156149e057600080fd5b82356149eb81614560565b9150602083013561468c81614560565b600181811c90821680614a0f57607f821691505b60208210811415614a49577f4e487b7100000000000000000000000000000000000000000000000000000000600052602260045260246000fd5b50919050565b600060208284031215614a6157600080fd5b8151611054816146eb565b7f4e487b7100000000000000000000000000000000000000000000000000000000600052601160045260246000fd5b600082821015614aad57614aad614a6c565b500390565b600060208284031215614ac457600080fd5b5051919050565b60008219821115614ade57614ade614a6c565b500190565b600082614b19577f4e487b7100000000000000000000000000000000000000000000000000000000600052601260045260246000fd5b500490565b6000817fffffffffffffffffffffffffffffffffffffffffffffffffffffffffffffffff0483118215151615614b5657614b56614a6c565b500290565b7f4e487b7100000000000000000000000000000000000000000000000000000000600052603260045260246000fd5b60007fffffffffffffffffffffffffffffffffffffffffffffffffffffffffffffffff821415614bbc57614bbc614a6c565b5060010190565b7f4e487b7100000000000000000000000000000000000000000000000000000000600052603160045260246000fd5b600060208284031215614c0457600080fd5b815161105481614560565b7f416363657373436f6e74726f6c3a206163636f756e7420000000000000000000815260008351614c478160178501602088016144e3565b7f206973206d697373696e6720726f6c65200000000000000000000000000000006017918401918201528351614c848160288401602088016144e3565b01602801949350505050565b600081614c9f57614c9f614a6c565b507fffffffffffffffffffffffffffffffffffffffffffffffffffffffffffffffff0190565b60008251614cd78184602087016144e3565b919091019291505056fea26469706673582212203b5a2f4f9f05f4f426610dc895fe2c82a65dbb7a9cd25318df27c6268f4c848364736f6c634300080c0033",
  "devdoc": {
    "events": {
      "ChildChainManagerAdded(address)": {
        "details": "Emitted when the child chain manager changes"
      }
    },
    "kind": "dev",
    "methods": {
      "addBridgeToken(address,uint256,uint256,uint64,bool)": {
        "params": {
          "bridgeToken": "Bridge token to add: it should be a version of the stablecoin from another bridge",
          "fee": "Fee taken upon swapping for or against this token",
          "hourlyLimit": "Limit on the hourly volume for this bridge",
          "limit": "Limit on the balance of bridge token this contract could hold",
          "paused": "Whether swapping for this token should be paused or not"
        }
      },
      "allBridgeTokens()": {
        "details": "Helpful for UIs"
      },
      "allowance(address,address)": {
        "details": "See {IERC20-allowance}."
      },
      "approve(address,uint256)": {
        "details": "See {IERC20-approve}. Requirements: - `spender` cannot be the zero address."
      },
      "balanceOf(address)": {
        "details": "See {IERC20-balanceOf}."
      },
      "burnStablecoin(uint256)": {
        "details": "This function can typically be called if there is a settlement mechanism to burn stablecoins",
        "params": {
          "amount": "Amount of stablecoins to burn"
        }
      },
      "currentTotalUsage()": {
        "details": "Helpful for UIs"
      },
      "currentUsage(address)": {
        "details": "Helpful for UIs"
      },
      "decimals()": {
        "details": "Returns the number of decimals used to get its user representation. For example, if `decimals` equals `2`, a balance of `505` tokens should be displayed to a user as `5.05` (`505 / 10 ** 2`). Tokens usually opt for a value of 18, imitating the relationship between Ether and Wei. This is the value {ERC20} uses, unless this function is overridden; NOTE: This information is only used for _display_ purposes: it in no way affects any of the arithmetic of the contract, including {IERC20-balanceOf} and {IERC20-transfer}."
      },
      "decreaseAllowance(address,uint256)": {
        "details": "Atomically decreases the allowance granted to `spender` by the caller. This is an alternative to {approve} that can be used as a mitigation for problems described in {IERC20-approve}. Emits an {Approval} event indicating the updated allowance. Requirements: - `spender` cannot be the zero address. - `spender` must have allowance for the caller of at least `subtractedValue`."
      },
      "deposit(address,bytes)": {
        "params": {
          "depositData": "Encoded amount to mint",
          "user": "Address to mint the token to"
        }
      },
      "getRoleAdmin(bytes32)": {
        "details": "Returns the admin role that controls `role`. See {grantRole} and {revokeRole}. To change a role's admin, use {_setRoleAdmin}."
      },
      "grantRole(bytes32,address)": {
        "details": "Grants `role` to `account`. If `account` had not been already granted `role`, emits a {RoleGranted} event. Requirements: - the caller must have ``role``'s admin role."
      },
      "hasRole(bytes32,address)": {
        "details": "Returns `true` if `account` has been granted `role`."
      },
      "increaseAllowance(address,uint256)": {
        "details": "Atomically increases the allowance granted to `spender` by the caller. This is an alternative to {approve} that can be used as a mitigation for problems described in {IERC20-approve}. Emits an {Approval} event indicating the updated allowance. Requirements: - `spender` cannot be the zero address."
      },
      "name()": {
        "details": "Returns the name of the token."
      },
      "recoverERC20(address,address,uint256)": {
        "details": "Can be used to withdraw bridge tokens for them to be de-bridged on mainnet"
      },
      "removeBridgeToken(address)": {
        "params": {
          "bridgeToken": "Address of the bridge token to remove support for"
        }
      },
      "renounceRole(bytes32,address)": {
        "details": "Revokes `role` from the calling account. Roles are often managed via {grantRole} and {revokeRole}: this function's purpose is to provide a mechanism for accounts to lose their privileges if they are compromised (such as when a trusted device is misplaced). If the calling account had been revoked `role`, emits a {RoleRevoked} event. Requirements: - the caller must be `account`."
      },
      "revokeRole(bytes32,address)": {
        "details": "Revokes `role` from `account`. If `account` had been granted `role`, emits a {RoleRevoked} event. Requirements: - the caller must have ``role``'s admin role."
      },
      "setUpTreasury(address)": {
        "params": {
          "_treasury": "Address of the treasury contract"
        }
      },
      "supportsInterface(bytes4)": {
        "details": "See {IERC165-supportsInterface}."
      },
      "swapIn(address,uint256,address)": {
        "details": "Some fees may be taken by the protocol depending on the token used and on the address calling",
        "params": {
          "amount": "Amount of bridge tokens to send",
          "bridgeToken": "Bridge token to use to mint",
          "to": "Address to which the stablecoin should be sent"
        }
      },
      "swapOut(address,uint256,address)": {
        "details": "Some fees may be taken by the protocol depending on the token used and on the address calling",
        "params": {
          "amount": "Amount of canonical tokens to burn",
          "bridgeToken": "Bridge token required",
          "to": "Address to which the bridge token should be sent"
        }
      },
      "symbol()": {
        "details": "Returns the symbol of the token, usually a shorter version of the name."
      },
      "totalSupply()": {
        "details": "See {IERC20-totalSupply}."
      },
      "transfer(address,uint256)": {
        "details": "See {IERC20-transfer}. Requirements: - `recipient` cannot be the zero address. - the caller must have a balance of at least `amount`."
      },
      "transferFrom(address,address,uint256)": {
        "details": "See {IERC20-transferFrom}. Emits an {Approval} event indicating the updated allowance. This is not required by the EIP. See the note at the beginning of {ERC20}. Requirements: - `sender` and `recipient` cannot be the zero address. - `sender` must have a balance of at least `amount`. - the caller must have allowance for ``sender``'s tokens of at least `amount`."
      },
      "withdraw(uint256)": {
        "details": "Should burn user's tokens. This transaction will be verified when exiting on root chain",
        "params": {
          "amount": "Amount of tokens to withdraw"
        }
      }
    },
    "version": 1
  },
  "userdoc": {
    "kind": "user",
    "methods": {
      "BASE_PARAMS()": {
        "notice": "Base used for fee computation"
      },
      "addBridgeToken(address,uint256,uint256,uint64,bool)": {
        "notice": "Adds support for a bridge token"
      },
      "allBridgeTokens()": {
        "notice": "Returns the list of all supported bridge tokens"
      },
      "bridgeTokensList(uint256)": {
        "notice": "List of all bridge tokens"
      },
      "bridges(address)": {
        "notice": "Maps a bridge token to data"
      },
      "burnStablecoin(uint256)": {
        "notice": "Allows anyone to burn agToken without redeeming collateral back"
      },
      "chainTotalHourlyLimit()": {
        "notice": "Limit to the amount of tokens that can be sent from that chain to another chain"
      },
      "chainTotalUsage(uint256)": {
        "notice": "Usage per hour on that chain. Maps an hourly timestamp to the total volume swapped out on the chain"
      },
      "currentTotalUsage()": {
        "notice": "Returns the current total volume on the chain for the current hour"
      },
      "currentUsage(address)": {
        "notice": "Returns the current volume for a bridge, for the current hour"
      },
      "deposit(address,bytes)": {
        "notice": "Called when the bridge has tokens to mint"
      },
      "isFeeExempt(address)": {
        "notice": "Maps an address to whether it is exempt of fees for when it comes to swapping in and out"
      },
      "recoverERC20(address,address,uint256)": {
        "notice": "Recovers any ERC20 token"
      },
      "removeBridgeToken(address)": {
        "notice": "Removes support for a token"
      },
      "setChainTotalHourlyLimit(uint256)": {
        "notice": "Updates the `chainTotalHourlyLimit` amount"
      },
      "setHourlyLimit(address,uint256)": {
        "notice": "Updates the `hourlyLimit` amount for `bridgeToken`"
      },
      "setLimit(address,uint256)": {
        "notice": "Updates the `limit` amount for `bridgeToken`"
      },
      "setSwapFee(address,uint64)": {
        "notice": "Updates the `fee` value for `bridgeToken`"
      },
      "setUpTreasury(address)": {
        "notice": "Sets up the treasury contract on Polygon after the upgrade"
      },
      "swapIn(address,uint256,address)": {
        "notice": "Mints the canonical token from a supported bridge token"
      },
      "swapOut(address,uint256,address)": {
        "notice": "Burns the canonical token in exchange for a bridge token"
      },
      "toggleBridge(address)": {
        "notice": "Pauses or unpauses swapping in and out for a token"
      },
      "toggleFeesForAddress(address)": {
        "notice": "Toggles fees for the address `theAddress`"
      },
      "treasury()": {
        "notice": "Reference to the treasury contract which can grant minting rights"
      },
      "treasuryInitialized()": {
        "notice": "Boolean to check whether the contract has been reinitialized after its upgrade"
      },
      "usage(address,uint256)": {
        "notice": "Maps a bridge token to the associated hourly volume"
      },
      "withdraw(uint256)": {
        "notice": "Called when user wants to withdraw tokens back to root chain"
      }
    },
    "version": 1
  },
  "storageLayout": {
    "storage": [
      {
        "astId": 772,
        "contract": "contracts/agToken/polygon/TokenPolygonUpgradeable.sol:TokenPolygonUpgradeable",
        "label": "_initialized",
        "offset": 0,
        "slot": "0",
        "type": "t_bool"
      },
      {
        "astId": 775,
        "contract": "contracts/agToken/polygon/TokenPolygonUpgradeable.sol:TokenPolygonUpgradeable",
        "label": "_initializing",
        "offset": 1,
        "slot": "0",
        "type": "t_bool"
      },
      {
        "astId": 2592,
        "contract": "contracts/agToken/polygon/TokenPolygonUpgradeable.sol:TokenPolygonUpgradeable",
        "label": "__gap",
        "offset": 0,
        "slot": "1",
        "type": "t_array(t_uint256)50_storage"
      },
      {
        "astId": 12198,
        "contract": "contracts/agToken/polygon/TokenPolygonUpgradeable.sol:TokenPolygonUpgradeable",
        "label": "_balances",
        "offset": 0,
        "slot": "51",
        "type": "t_mapping(t_address,t_uint256)"
      },
      {
        "astId": 12204,
        "contract": "contracts/agToken/polygon/TokenPolygonUpgradeable.sol:TokenPolygonUpgradeable",
        "label": "_allowances",
        "offset": 0,
        "slot": "52",
        "type": "t_mapping(t_address,t_mapping(t_address,t_uint256))"
      },
      {
        "astId": 12206,
        "contract": "contracts/agToken/polygon/TokenPolygonUpgradeable.sol:TokenPolygonUpgradeable",
        "label": "_totalSupply",
        "offset": 0,
        "slot": "53",
        "type": "t_uint256"
      },
      {
        "astId": 12208,
        "contract": "contracts/agToken/polygon/TokenPolygonUpgradeable.sol:TokenPolygonUpgradeable",
        "label": "_name",
        "offset": 0,
        "slot": "54",
        "type": "t_string_storage"
      },
      {
        "astId": 12210,
        "contract": "contracts/agToken/polygon/TokenPolygonUpgradeable.sol:TokenPolygonUpgradeable",
        "label": "_symbol",
        "offset": 0,
        "slot": "55",
        "type": "t_string_storage"
      },
      {
        "astId": 12823,
        "contract": "contracts/agToken/polygon/TokenPolygonUpgradeable.sol:TokenPolygonUpgradeable",
        "label": "__gap",
        "offset": 0,
        "slot": "56",
        "type": "t_array(t_uint256)45_storage"
      },
      {
        "astId": 3454,
        "contract": "contracts/agToken/polygon/TokenPolygonUpgradeable.sol:TokenPolygonUpgradeable",
        "label": "__gap",
        "offset": 0,
        "slot": "101",
        "type": "t_array(t_uint256)50_storage"
      },
      {
        "astId": 250,
        "contract": "contracts/agToken/polygon/TokenPolygonUpgradeable.sol:TokenPolygonUpgradeable",
        "label": "_roles",
        "offset": 0,
        "slot": "151",
        "type": "t_mapping(t_bytes32,t_struct(RoleData)245_storage)"
      },
      {
        "astId": 537,
        "contract": "contracts/agToken/polygon/TokenPolygonUpgradeable.sol:TokenPolygonUpgradeable",
        "label": "__gap",
        "offset": 0,
        "slot": "152",
        "type": "t_array(t_uint256)49_storage"
      },
      {
        "astId": 3269,
        "contract": "contracts/agToken/polygon/TokenPolygonUpgradeable.sol:TokenPolygonUpgradeable",
        "label": "_HASHED_NAME",
        "offset": 0,
        "slot": "201",
        "type": "t_bytes32"
      },
      {
        "astId": 3271,
        "contract": "contracts/agToken/polygon/TokenPolygonUpgradeable.sol:TokenPolygonUpgradeable",
        "label": "_HASHED_VERSION",
        "offset": 0,
        "slot": "202",
        "type": "t_bytes32"
      },
      {
        "astId": 3408,
        "contract": "contracts/agToken/polygon/TokenPolygonUpgradeable.sol:TokenPolygonUpgradeable",
        "label": "__gap",
        "offset": 0,
        "slot": "203",
        "type": "t_array(t_uint256)50_storage"
      },
      {
        "astId": 11046,
        "contract": "contracts/agToken/polygon/TokenPolygonUpgradeable.sol:TokenPolygonUpgradeable",
        "label": "isMinter",
        "offset": 0,
        "slot": "253",
        "type": "t_mapping(t_address,t_bool)"
      },
      {
        "astId": 11049,
        "contract": "contracts/agToken/polygon/TokenPolygonUpgradeable.sol:TokenPolygonUpgradeable",
        "label": "treasury",
        "offset": 0,
        "slot": "254",
        "type": "t_address"
      },
      {
        "astId": 11052,
        "contract": "contracts/agToken/polygon/TokenPolygonUpgradeable.sol:TokenPolygonUpgradeable",
        "label": "treasuryInitialized",
        "offset": 20,
        "slot": "254",
        "type": "t_bool"
      },
      {
        "astId": 11079,
        "contract": "contracts/agToken/polygon/TokenPolygonUpgradeable.sol:TokenPolygonUpgradeable",
        "label": "bridges",
        "offset": 0,
        "slot": "255",
        "type": "t_mapping(t_address,t_struct(BridgeDetails)11073_storage)"
      },
      {
        "astId": 11083,
        "contract": "contracts/agToken/polygon/TokenPolygonUpgradeable.sol:TokenPolygonUpgradeable",
        "label": "bridgeTokensList",
        "offset": 0,
        "slot": "256",
        "type": "t_array(t_address)dyn_storage"
      },
      {
        "astId": 11090,
        "contract": "contracts/agToken/polygon/TokenPolygonUpgradeable.sol:TokenPolygonUpgradeable",
        "label": "usage",
        "offset": 0,
        "slot": "257",
        "type": "t_mapping(t_address,t_mapping(t_uint256,t_uint256))"
      },
      {
        "astId": 11095,
        "contract": "contracts/agToken/polygon/TokenPolygonUpgradeable.sol:TokenPolygonUpgradeable",
        "label": "isFeeExempt",
        "offset": 0,
        "slot": "258",
        "type": "t_mapping(t_address,t_uint256)"
      },
      {
        "astId": 11098,
        "contract": "contracts/agToken/polygon/TokenPolygonUpgradeable.sol:TokenPolygonUpgradeable",
        "label": "chainTotalHourlyLimit",
        "offset": 0,
        "slot": "259",
        "type": "t_uint256"
      },
      {
        "astId": 11103,
        "contract": "contracts/agToken/polygon/TokenPolygonUpgradeable.sol:TokenPolygonUpgradeable",
        "label": "chainTotalUsage",
        "offset": 0,
        "slot": "260",
        "type": "t_mapping(t_uint256,t_uint256)"
      },
      {
        "astId": 11107,
        "contract": "contracts/agToken/polygon/TokenPolygonUpgradeable.sol:TokenPolygonUpgradeable",
        "label": "__gap",
        "offset": 0,
        "slot": "261",
        "type": "t_array(t_uint256)42_storage"
      }
    ],
    "types": {
      "t_address": {
        "encoding": "inplace",
        "label": "address",
        "numberOfBytes": "20"
      },
      "t_array(t_address)dyn_storage": {
        "base": "t_address",
        "encoding": "dynamic_array",
        "label": "address[]",
        "numberOfBytes": "32"
      },
      "t_array(t_uint256)42_storage": {
        "base": "t_uint256",
        "encoding": "inplace",
        "label": "uint256[42]",
        "numberOfBytes": "1344"
      },
      "t_array(t_uint256)45_storage": {
        "base": "t_uint256",
        "encoding": "inplace",
        "label": "uint256[45]",
        "numberOfBytes": "1440"
      },
      "t_array(t_uint256)49_storage": {
        "base": "t_uint256",
        "encoding": "inplace",
        "label": "uint256[49]",
        "numberOfBytes": "1568"
      },
      "t_array(t_uint256)50_storage": {
        "base": "t_uint256",
        "encoding": "inplace",
        "label": "uint256[50]",
        "numberOfBytes": "1600"
      },
      "t_bool": {
        "encoding": "inplace",
        "label": "bool",
        "numberOfBytes": "1"
      },
      "t_bytes32": {
        "encoding": "inplace",
        "label": "bytes32",
        "numberOfBytes": "32"
      },
      "t_mapping(t_address,t_bool)": {
        "encoding": "mapping",
        "key": "t_address",
        "label": "mapping(address => bool)",
        "numberOfBytes": "32",
        "value": "t_bool"
      },
      "t_mapping(t_address,t_mapping(t_address,t_uint256))": {
        "encoding": "mapping",
        "key": "t_address",
        "label": "mapping(address => mapping(address => uint256))",
        "numberOfBytes": "32",
        "value": "t_mapping(t_address,t_uint256)"
      },
      "t_mapping(t_address,t_mapping(t_uint256,t_uint256))": {
        "encoding": "mapping",
        "key": "t_address",
        "label": "mapping(address => mapping(uint256 => uint256))",
        "numberOfBytes": "32",
        "value": "t_mapping(t_uint256,t_uint256)"
      },
      "t_mapping(t_address,t_struct(BridgeDetails)11073_storage)": {
        "encoding": "mapping",
        "key": "t_address",
        "label": "mapping(address => struct TokenPolygonUpgradeable.BridgeDetails)",
        "numberOfBytes": "32",
        "value": "t_struct(BridgeDetails)11073_storage"
      },
      "t_mapping(t_address,t_uint256)": {
        "encoding": "mapping",
        "key": "t_address",
        "label": "mapping(address => uint256)",
        "numberOfBytes": "32",
        "value": "t_uint256"
      },
      "t_mapping(t_bytes32,t_struct(RoleData)245_storage)": {
        "encoding": "mapping",
        "key": "t_bytes32",
        "label": "mapping(bytes32 => struct AccessControlUpgradeable.RoleData)",
        "numberOfBytes": "32",
        "value": "t_struct(RoleData)245_storage"
      },
      "t_mapping(t_uint256,t_uint256)": {
        "encoding": "mapping",
        "key": "t_uint256",
        "label": "mapping(uint256 => uint256)",
        "numberOfBytes": "32",
        "value": "t_uint256"
      },
      "t_string_storage": {
        "encoding": "bytes",
        "label": "string",
        "numberOfBytes": "32"
      },
      "t_struct(BridgeDetails)11073_storage": {
        "encoding": "inplace",
        "label": "struct TokenPolygonUpgradeable.BridgeDetails",
        "members": [
          {
            "astId": 11064,
            "contract": "contracts/agToken/polygon/TokenPolygonUpgradeable.sol:TokenPolygonUpgradeable",
            "label": "limit",
            "offset": 0,
            "slot": "0",
            "type": "t_uint256"
          },
          {
            "astId": 11066,
            "contract": "contracts/agToken/polygon/TokenPolygonUpgradeable.sol:TokenPolygonUpgradeable",
            "label": "hourlyLimit",
            "offset": 0,
            "slot": "1",
            "type": "t_uint256"
          },
          {
            "astId": 11068,
            "contract": "contracts/agToken/polygon/TokenPolygonUpgradeable.sol:TokenPolygonUpgradeable",
            "label": "fee",
            "offset": 0,
            "slot": "2",
            "type": "t_uint64"
          },
          {
            "astId": 11070,
            "contract": "contracts/agToken/polygon/TokenPolygonUpgradeable.sol:TokenPolygonUpgradeable",
            "label": "allowed",
            "offset": 8,
            "slot": "2",
            "type": "t_bool"
          },
          {
            "astId": 11072,
            "contract": "contracts/agToken/polygon/TokenPolygonUpgradeable.sol:TokenPolygonUpgradeable",
            "label": "paused",
            "offset": 9,
            "slot": "2",
            "type": "t_bool"
          }
        ],
        "numberOfBytes": "96"
      },
      "t_struct(RoleData)245_storage": {
        "encoding": "inplace",
        "label": "struct AccessControlUpgradeable.RoleData",
        "members": [
          {
            "astId": 242,
            "contract": "contracts/agToken/polygon/TokenPolygonUpgradeable.sol:TokenPolygonUpgradeable",
            "label": "members",
            "offset": 0,
            "slot": "0",
            "type": "t_mapping(t_address,t_bool)"
          },
          {
            "astId": 244,
            "contract": "contracts/agToken/polygon/TokenPolygonUpgradeable.sol:TokenPolygonUpgradeable",
            "label": "adminRole",
            "offset": 0,
            "slot": "1",
            "type": "t_bytes32"
          }
        ],
        "numberOfBytes": "64"
      },
      "t_uint256": {
        "encoding": "inplace",
        "label": "uint256",
        "numberOfBytes": "32"
      },
      "t_uint64": {
        "encoding": "inplace",
        "label": "uint64",
        "numberOfBytes": "8"
      }
    }
  }
}