{
  "address": "0x18471f8629C5F284256a4eB0dfF901E3F4987223",
  "abi": [
    {
      "inputs": [
        {
          "internalType": "uint256",
          "name": "dust_",
          "type": "uint256"
        },
        {
          "internalType": "uint256",
          "name": "dustCollateral_",
          "type": "uint256"
        }
      ],
      "stateMutability": "nonpayable",
      "type": "constructor"
    },
    {
      "inputs": [],
      "name": "ApprovalToCaller",
      "type": "error"
    },
    {
      "inputs": [],
      "name": "ApprovalToOwner",
      "type": "error"
    },
    {
      "inputs": [],
      "name": "DebtCeilingExceeded",
      "type": "error"
    },
    {
      "inputs": [],
      "name": "DustyLeftoverAmount",
      "type": "error"
    },
    {
      "inputs": [],
      "name": "ExpiredDeadline",
      "type": "error"
    },
    {
      "inputs": [],
      "name": "HealthyVault",
      "type": "error"
    },
    {
      "inputs": [],
      "name": "IncompatibleLengths",
      "type": "error"
    },
    {
      "inputs": [],
      "name": "InsolventVault",
      "type": "error"
    },
    {
      "inputs": [],
      "name": "InvalidParameterType",
      "type": "error"
    },
    {
      "inputs": [],
      "name": "InvalidParameterValue",
      "type": "error"
    },
    {
      "inputs": [],
      "name": "InvalidSetOfParameters",
      "type": "error"
    },
    {
      "inputs": [],
      "name": "InvalidSignature",
      "type": "error"
    },
    {
      "inputs": [],
      "name": "InvalidTreasury",
      "type": "error"
    },
    {
      "inputs": [],
      "name": "NonERC721Receiver",
      "type": "error"
    },
    {
      "inputs": [],
      "name": "NonexistentVault",
      "type": "error"
    },
    {
      "inputs": [],
      "name": "NotApproved",
      "type": "error"
    },
    {
      "inputs": [],
      "name": "NotGovernor",
      "type": "error"
    },
    {
      "inputs": [],
      "name": "NotGovernorOrGuardian",
      "type": "error"
    },
    {
      "inputs": [],
      "name": "NotTreasury",
      "type": "error"
    },
    {
      "inputs": [],
      "name": "NotVaultManager",
      "type": "error"
    },
    {
      "inputs": [],
      "name": "NotWhitelisted",
      "type": "error"
    },
    {
      "inputs": [],
      "name": "Paused",
      "type": "error"
    },
    {
      "inputs": [],
      "name": "TooHighParameterValue",
      "type": "error"
    },
    {
      "inputs": [],
      "name": "TooSmallParameterValue",
      "type": "error"
    },
    {
      "inputs": [],
      "name": "ZeroAddress",
      "type": "error"
    },
    {
      "anonymous": false,
      "inputs": [
        {
          "indexed": false,
          "internalType": "uint256",
          "name": "surplusEndValue",
          "type": "uint256"
        },
        {
          "indexed": false,
          "internalType": "uint256",
          "name": "badDebtEndValue",
          "type": "uint256"
        }
      ],
      "name": "AccruedToTreasury",
      "type": "event"
    },
    {
      "anonymous": false,
      "inputs": [
        {
          "indexed": true,
          "internalType": "address",
          "name": "owner",
          "type": "address"
        },
        {
          "indexed": true,
          "internalType": "address",
          "name": "approved",
          "type": "address"
        },
        {
          "indexed": true,
          "internalType": "uint256",
          "name": "tokenId",
          "type": "uint256"
        }
      ],
      "name": "Approval",
      "type": "event"
    },
    {
      "anonymous": false,
      "inputs": [
        {
          "indexed": true,
          "internalType": "address",
          "name": "owner",
          "type": "address"
        },
        {
          "indexed": true,
          "internalType": "address",
          "name": "operator",
          "type": "address"
        },
        {
          "indexed": false,
          "internalType": "bool",
          "name": "approved",
          "type": "bool"
        }
      ],
      "name": "ApprovalForAll",
      "type": "event"
    },
    {
      "anonymous": false,
      "inputs": [
        {
          "indexed": false,
          "internalType": "uint256",
          "name": "vaultID",
          "type": "uint256"
        },
        {
          "indexed": false,
          "internalType": "uint256",
          "name": "collateralAmount",
          "type": "uint256"
        },
        {
          "indexed": false,
          "internalType": "uint8",
          "name": "isIncrease",
          "type": "uint8"
        }
      ],
      "name": "CollateralAmountUpdated",
      "type": "event"
    },
    {
      "anonymous": false,
      "inputs": [
        {
          "indexed": false,
          "internalType": "uint256",
          "name": "debtCeiling",
          "type": "uint256"
        }
      ],
      "name": "DebtCeilingUpdated",
      "type": "event"
    },
    {
      "anonymous": false,
      "inputs": [
        {
          "indexed": false,
          "internalType": "uint256",
          "name": "srcVaultID",
          "type": "uint256"
        },
        {
          "indexed": false,
          "internalType": "uint256",
          "name": "dstVaultID",
          "type": "uint256"
        },
        {
          "indexed": false,
          "internalType": "address",
          "name": "dstVaultManager",
          "type": "address"
        },
        {
          "indexed": false,
          "internalType": "uint256",
          "name": "amount",
          "type": "uint256"
        }
      ],
      "name": "DebtTransferred",
      "type": "event"
    },
    {
      "anonymous": false,
      "inputs": [
        {
          "indexed": false,
          "internalType": "uint64",
          "name": "param",
          "type": "uint64"
        },
        {
          "indexed": false,
          "internalType": "bytes32",
          "name": "what",
          "type": "bytes32"
        }
      ],
      "name": "FiledUint64",
      "type": "event"
    },
    {
      "anonymous": false,
      "inputs": [
        {
          "indexed": false,
          "internalType": "uint256",
          "name": "value",
          "type": "uint256"
        },
        {
          "indexed": false,
          "internalType": "uint256",
          "name": "timestamp",
          "type": "uint256"
        }
      ],
      "name": "InterestAccumulatorUpdated",
      "type": "event"
    },
    {
      "anonymous": false,
      "inputs": [
        {
          "indexed": false,
          "internalType": "uint256",
          "name": "vaultID",
          "type": "uint256"
        },
        {
          "indexed": false,
          "internalType": "uint256",
          "name": "internalAmount",
          "type": "uint256"
        },
        {
          "indexed": false,
          "internalType": "uint8",
          "name": "isIncrease",
          "type": "uint8"
        }
      ],
      "name": "InternalDebtUpdated",
      "type": "event"
    },
    {
      "anonymous": false,
      "inputs": [
        {
          "indexed": false,
          "internalType": "uint256[]",
          "name": "vaultIDs",
          "type": "uint256[]"
        }
      ],
      "name": "LiquidatedVaults",
      "type": "event"
    },
    {
      "anonymous": false,
      "inputs": [
        {
          "indexed": true,
          "internalType": "address",
          "name": "_veBoostProxy",
          "type": "address"
        },
        {
          "indexed": false,
          "internalType": "uint256[]",
          "name": "xBoost",
          "type": "uint256[]"
        },
        {
          "indexed": false,
          "internalType": "uint256[]",
          "name": "yBoost",
          "type": "uint256[]"
        }
      ],
      "name": "LiquidationBoostParametersUpdated",
      "type": "event"
    },
    {
      "anonymous": false,
      "inputs": [
        {
          "indexed": true,
          "internalType": "address",
          "name": "from",
          "type": "address"
        },
        {
          "indexed": true,
          "internalType": "address",
          "name": "to",
          "type": "address"
        },
        {
          "indexed": true,
          "internalType": "uint256",
          "name": "tokenId",
          "type": "uint256"
        }
      ],
      "name": "Transfer",
      "type": "event"
    },
    {
      "inputs": [],
      "name": "BASE_INTEREST",
      "outputs": [
        {
          "internalType": "uint256",
          "name": "",
          "type": "uint256"
        }
      ],
      "stateMutability": "view",
      "type": "function"
    },
    {
      "inputs": [],
      "name": "BASE_PARAMS",
      "outputs": [
        {
          "internalType": "uint256",
          "name": "",
          "type": "uint256"
        }
      ],
      "stateMutability": "view",
      "type": "function"
    },
    {
      "inputs": [],
      "name": "DOMAIN_SEPARATOR",
      "outputs": [
        {
          "internalType": "bytes32",
          "name": "",
          "type": "bytes32"
        }
      ],
      "stateMutability": "view",
      "type": "function"
    },
    {
      "inputs": [],
      "name": "HALF_BASE_INTEREST",
      "outputs": [
        {
          "internalType": "uint256",
          "name": "",
          "type": "uint256"
        }
      ],
      "stateMutability": "view",
      "type": "function"
    },
    {
      "inputs": [],
      "name": "accrueInterestToTreasury",
      "outputs": [
        {
          "internalType": "uint256",
          "name": "surplusValue",
          "type": "uint256"
        },
        {
          "internalType": "uint256",
          "name": "badDebtValue",
          "type": "uint256"
        }
      ],
      "stateMutability": "nonpayable",
      "type": "function"
    },
    {
      "inputs": [
        {
          "internalType": "enum ActionType[]",
          "name": "actions",
          "type": "uint8[]"
        },
        {
          "internalType": "bytes[]",
          "name": "datas",
          "type": "bytes[]"
        },
        {
          "internalType": "address",
          "name": "from",
          "type": "address"
        },
        {
          "internalType": "address",
          "name": "to",
          "type": "address"
        }
      ],
      "name": "angle",
      "outputs": [
        {
          "components": [
            {
              "internalType": "uint256",
              "name": "stablecoinAmountToGive",
              "type": "uint256"
            },
            {
              "internalType": "uint256",
              "name": "stablecoinAmountToReceive",
              "type": "uint256"
            },
            {
              "internalType": "uint256",
              "name": "collateralAmountToGive",
              "type": "uint256"
            },
            {
              "internalType": "uint256",
              "name": "collateralAmountToReceive",
              "type": "uint256"
            }
          ],
          "internalType": "struct PaymentData",
          "name": "",
          "type": "tuple"
        }
      ],
      "stateMutability": "nonpayable",
      "type": "function"
    },
    {
      "inputs": [
        {
          "internalType": "enum ActionType[]",
          "name": "actions",
          "type": "uint8[]"
        },
        {
          "internalType": "bytes[]",
          "name": "datas",
          "type": "bytes[]"
        },
        {
          "internalType": "address",
          "name": "from",
          "type": "address"
        },
        {
          "internalType": "address",
          "name": "to",
          "type": "address"
        },
        {
          "internalType": "address",
          "name": "who",
          "type": "address"
        },
        {
          "internalType": "bytes",
          "name": "repayData",
          "type": "bytes"
        }
      ],
      "name": "angle",
      "outputs": [
        {
          "components": [
            {
              "internalType": "uint256",
              "name": "stablecoinAmountToGive",
              "type": "uint256"
            },
            {
              "internalType": "uint256",
              "name": "stablecoinAmountToReceive",
              "type": "uint256"
            },
            {
              "internalType": "uint256",
              "name": "collateralAmountToGive",
              "type": "uint256"
            },
            {
              "internalType": "uint256",
              "name": "collateralAmountToReceive",
              "type": "uint256"
            }
          ],
          "internalType": "struct PaymentData",
          "name": "paymentData",
          "type": "tuple"
        }
      ],
      "stateMutability": "nonpayable",
      "type": "function"
    },
    {
      "inputs": [
        {
          "internalType": "address",
          "name": "to",
          "type": "address"
        },
        {
          "internalType": "uint256",
          "name": "vaultID",
          "type": "uint256"
        }
      ],
      "name": "approve",
      "outputs": [],
      "stateMutability": "nonpayable",
      "type": "function"
    },
    {
      "inputs": [],
      "name": "badDebt",
      "outputs": [
        {
          "internalType": "uint256",
          "name": "",
          "type": "uint256"
        }
      ],
      "stateMutability": "view",
      "type": "function"
    },
    {
      "inputs": [
        {
          "internalType": "address",
          "name": "owner",
          "type": "address"
        }
      ],
      "name": "balanceOf",
      "outputs": [
        {
          "internalType": "uint256",
          "name": "",
          "type": "uint256"
        }
      ],
      "stateMutability": "view",
      "type": "function"
    },
    {
      "inputs": [],
      "name": "borrowFee",
      "outputs": [
        {
          "internalType": "uint64",
          "name": "",
          "type": "uint64"
        }
      ],
      "stateMutability": "view",
      "type": "function"
    },
    {
      "inputs": [
        {
          "internalType": "uint256",
          "name": "vaultID",
          "type": "uint256"
        },
        {
          "internalType": "address",
          "name": "liquidator",
          "type": "address"
        }
      ],
      "name": "checkLiquidation",
      "outputs": [
        {
          "components": [
            {
              "internalType": "uint256",
              "name": "maxStablecoinAmountToRepay",
              "type": "uint256"
            },
            {
              "internalType": "uint256",
              "name": "maxCollateralAmountGiven",
              "type": "uint256"
            },
            {
              "internalType": "uint256",
              "name": "thresholdRepayAmount",
              "type": "uint256"
            },
            {
              "internalType": "uint256",
              "name": "discount",
              "type": "uint256"
            },
            {
              "internalType": "uint256",
              "name": "currentDebt",
              "type": "uint256"
            }
          ],
          "internalType": "struct LiquidationOpportunity",
          "name": "liqOpp",
          "type": "tuple"
        }
      ],
      "stateMutability": "view",
      "type": "function"
    },
    {
      "inputs": [],
      "name": "collateral",
      "outputs": [
        {
          "internalType": "contract IERC20",
          "name": "",
          "type": "address"
        }
      ],
      "stateMutability": "view",
      "type": "function"
    },
    {
      "inputs": [],
      "name": "collateralFactor",
      "outputs": [
        {
          "internalType": "uint64",
          "name": "",
          "type": "uint64"
        }
      ],
      "stateMutability": "view",
      "type": "function"
    },
    {
      "inputs": [
        {
          "internalType": "address",
          "name": "toVault",
          "type": "address"
        }
      ],
      "name": "createVault",
      "outputs": [
        {
          "internalType": "uint256",
          "name": "",
          "type": "uint256"
        }
      ],
      "stateMutability": "nonpayable",
      "type": "function"
    },
    {
      "inputs": [],
      "name": "debtCeiling",
      "outputs": [
        {
          "internalType": "uint256",
          "name": "",
          "type": "uint256"
        }
      ],
      "stateMutability": "view",
      "type": "function"
    },
    {
      "inputs": [],
      "name": "dust",
      "outputs": [
        {
          "internalType": "uint256",
          "name": "",
          "type": "uint256"
        }
      ],
      "stateMutability": "view",
      "type": "function"
    },
    {
      "inputs": [
        {
          "internalType": "uint256",
          "name": "vaultID",
          "type": "uint256"
        }
      ],
      "name": "getApproved",
      "outputs": [
        {
          "internalType": "address",
          "name": "",
          "type": "address"
        }
      ],
      "stateMutability": "view",
      "type": "function"
    },
    {
      "inputs": [
        {
          "internalType": "address",
          "name": "spender",
          "type": "address"
        }
      ],
      "name": "getControlledVaults",
      "outputs": [
        {
          "internalType": "uint256[]",
          "name": "",
          "type": "uint256[]"
        },
        {
          "internalType": "uint256",
          "name": "",
          "type": "uint256"
        }
      ],
      "stateMutability": "view",
      "type": "function"
    },
    {
      "inputs": [
        {
          "internalType": "uint256",
          "name": "vaultID",
          "type": "uint256"
        },
        {
          "internalType": "uint256",
          "name": "stablecoinAmount",
          "type": "uint256"
        },
        {
          "internalType": "uint256",
          "name": "senderBorrowFee",
          "type": "uint256"
        },
        {
          "internalType": "uint256",
          "name": "senderRepayFee",
          "type": "uint256"
        }
      ],
      "name": "getDebtOut",
      "outputs": [],
      "stateMutability": "nonpayable",
      "type": "function"
    },
    {
      "inputs": [],
      "name": "getTotalDebt",
      "outputs": [
        {
          "internalType": "uint256",
          "name": "",
          "type": "uint256"
        }
      ],
      "stateMutability": "view",
      "type": "function"
    },
    {
      "inputs": [
        {
          "internalType": "uint256",
          "name": "vaultID",
          "type": "uint256"
        }
      ],
      "name": "getVaultDebt",
      "outputs": [
        {
          "internalType": "uint256",
          "name": "",
          "type": "uint256"
        }
      ],
      "stateMutability": "view",
      "type": "function"
    },
    {
      "inputs": [
        {
          "internalType": "contract ITreasury",
          "name": "_treasury",
          "type": "address"
        },
        {
          "internalType": "contract IERC20",
          "name": "_collateral",
          "type": "address"
        },
        {
          "internalType": "contract IOracle",
          "name": "_oracle",
          "type": "address"
        },
        {
          "components": [
            {
              "internalType": "uint256",
              "name": "debtCeiling",
              "type": "uint256"
            },
            {
              "internalType": "uint64",
              "name": "collateralFactor",
              "type": "uint64"
            },
            {
              "internalType": "uint64",
              "name": "targetHealthFactor",
              "type": "uint64"
            },
            {
              "internalType": "uint64",
              "name": "interestRate",
              "type": "uint64"
            },
            {
              "internalType": "uint64",
              "name": "liquidationSurcharge",
              "type": "uint64"
            },
            {
              "internalType": "uint64",
              "name": "maxLiquidationDiscount",
              "type": "uint64"
            },
            {
              "internalType": "bool",
              "name": "whitelistingActivated",
              "type": "bool"
            },
            {
              "internalType": "uint256",
              "name": "baseBoost",
              "type": "uint256"
            }
          ],
          "internalType": "struct VaultParameters",
          "name": "params",
          "type": "tuple"
        },
        {
          "internalType": "string",
          "name": "_symbol",
          "type": "string"
        }
      ],
      "name": "initialize",
      "outputs": [],
      "stateMutability": "nonpayable",
      "type": "function"
    },
    {
      "inputs": [],
      "name": "interestAccumulator",
      "outputs": [
        {
          "internalType": "uint256",
          "name": "",
          "type": "uint256"
        }
      ],
      "stateMutability": "view",
      "type": "function"
    },
    {
      "inputs": [],
      "name": "interestRate",
      "outputs": [
        {
          "internalType": "uint64",
          "name": "",
          "type": "uint64"
        }
      ],
      "stateMutability": "view",
      "type": "function"
    },
    {
      "inputs": [
        {
          "internalType": "address",
          "name": "owner",
          "type": "address"
        },
        {
          "internalType": "address",
          "name": "operator",
          "type": "address"
        }
      ],
      "name": "isApprovedForAll",
      "outputs": [
        {
          "internalType": "bool",
          "name": "",
          "type": "bool"
        }
      ],
      "stateMutability": "view",
      "type": "function"
    },
    {
      "inputs": [
        {
          "internalType": "address",
          "name": "spender",
          "type": "address"
        },
        {
          "internalType": "uint256",
          "name": "vaultID",
          "type": "uint256"
        }
      ],
      "name": "isApprovedOrOwner",
      "outputs": [
        {
          "internalType": "bool",
          "name": "",
          "type": "bool"
        }
      ],
      "stateMutability": "view",
      "type": "function"
    },
    {
      "inputs": [
        {
          "internalType": "address",
          "name": "",
          "type": "address"
        }
      ],
      "name": "isWhitelisted",
      "outputs": [
        {
          "internalType": "uint256",
          "name": "",
          "type": "uint256"
        }
      ],
      "stateMutability": "view",
      "type": "function"
    },
    {
      "inputs": [],
      "name": "lastInterestAccumulatorUpdated",
      "outputs": [
        {
          "internalType": "uint256",
          "name": "",
          "type": "uint256"
        }
      ],
      "stateMutability": "view",
      "type": "function"
    },
    {
      "inputs": [
        {
          "internalType": "uint256[]",
          "name": "vaultIDs",
          "type": "uint256[]"
        },
        {
          "internalType": "uint256[]",
          "name": "amounts",
          "type": "uint256[]"
        },
        {
          "internalType": "address",
          "name": "from",
          "type": "address"
        },
        {
          "internalType": "address",
          "name": "to",
          "type": "address"
        },
        {
          "internalType": "address",
          "name": "who",
          "type": "address"
        },
        {
          "internalType": "bytes",
          "name": "data",
          "type": "bytes"
        }
      ],
      "name": "liquidate",
      "outputs": [
        {
          "components": [
            {
              "internalType": "uint256",
              "name": "stablecoinAmountToReceive",
              "type": "uint256"
            },
            {
              "internalType": "uint256",
              "name": "collateralAmountToGive",
              "type": "uint256"
            },
            {
              "internalType": "uint256",
              "name": "badDebtFromLiquidation",
              "type": "uint256"
            },
            {
              "internalType": "uint256",
              "name": "oracleValue",
              "type": "uint256"
            },
            {
              "internalType": "uint256",
              "name": "newInterestAccumulator",
              "type": "uint256"
            }
          ],
          "internalType": "struct LiquidatorData",
          "name": "liqData",
          "type": "tuple"
        }
      ],
      "stateMutability": "nonpayable",
      "type": "function"
    },
    {
      "inputs": [
        {
          "internalType": "uint256[]",
          "name": "vaultIDs",
          "type": "uint256[]"
        },
        {
          "internalType": "uint256[]",
          "name": "amounts",
          "type": "uint256[]"
        },
        {
          "internalType": "address",
          "name": "from",
          "type": "address"
        },
        {
          "internalType": "address",
          "name": "to",
          "type": "address"
        }
      ],
      "name": "liquidate",
      "outputs": [
        {
          "components": [
            {
              "internalType": "uint256",
              "name": "stablecoinAmountToReceive",
              "type": "uint256"
            },
            {
              "internalType": "uint256",
              "name": "collateralAmountToGive",
              "type": "uint256"
            },
            {
              "internalType": "uint256",
              "name": "badDebtFromLiquidation",
              "type": "uint256"
            },
            {
              "internalType": "uint256",
              "name": "oracleValue",
              "type": "uint256"
            },
            {
              "internalType": "uint256",
              "name": "newInterestAccumulator",
              "type": "uint256"
            }
          ],
          "internalType": "struct LiquidatorData",
          "name": "",
          "type": "tuple"
        }
      ],
      "stateMutability": "nonpayable",
      "type": "function"
    },
    {
      "inputs": [],
      "name": "liquidationSurcharge",
      "outputs": [
        {
          "internalType": "uint64",
          "name": "",
          "type": "uint64"
        }
      ],
      "stateMutability": "view",
      "type": "function"
    },
    {
      "inputs": [],
      "name": "maxLiquidationDiscount",
      "outputs": [
        {
          "internalType": "uint64",
          "name": "",
          "type": "uint64"
        }
      ],
      "stateMutability": "view",
      "type": "function"
    },
    {
      "inputs": [],
      "name": "name",
      "outputs": [
        {
          "internalType": "string",
          "name": "",
          "type": "string"
        }
      ],
      "stateMutability": "view",
      "type": "function"
    },
    {
      "inputs": [
        {
          "internalType": "address",
          "name": "owner",
          "type": "address"
        }
      ],
      "name": "nonces",
      "outputs": [
        {
          "internalType": "uint256",
          "name": "",
          "type": "uint256"
        }
      ],
      "stateMutability": "view",
      "type": "function"
    },
    {
      "inputs": [],
      "name": "oracle",
      "outputs": [
        {
          "internalType": "contract IOracle",
          "name": "",
          "type": "address"
        }
      ],
      "stateMutability": "view",
      "type": "function"
    },
    {
      "inputs": [
        {
          "internalType": "uint256",
          "name": "vaultID",
          "type": "uint256"
        }
      ],
      "name": "ownerOf",
      "outputs": [
        {
          "internalType": "address",
          "name": "",
          "type": "address"
        }
      ],
      "stateMutability": "view",
      "type": "function"
    },
    {
      "inputs": [],
      "name": "paused",
      "outputs": [
        {
          "internalType": "bool",
          "name": "",
          "type": "bool"
        }
      ],
      "stateMutability": "view",
      "type": "function"
    },
    {
      "inputs": [
        {
          "internalType": "address",
          "name": "owner",
          "type": "address"
        },
        {
          "internalType": "address",
          "name": "spender",
          "type": "address"
        },
        {
          "internalType": "bool",
          "name": "approved",
          "type": "bool"
        },
        {
          "internalType": "uint256",
          "name": "deadline",
          "type": "uint256"
        },
        {
          "internalType": "uint8",
          "name": "v",
          "type": "uint8"
        },
        {
          "internalType": "bytes32",
          "name": "r",
          "type": "bytes32"
        },
        {
          "internalType": "bytes32",
          "name": "s",
          "type": "bytes32"
        }
      ],
      "name": "permit",
      "outputs": [],
      "stateMutability": "nonpayable",
      "type": "function"
    },
    {
      "inputs": [],
      "name": "repayFee",
      "outputs": [
        {
          "internalType": "uint64",
          "name": "",
          "type": "uint64"
        }
      ],
      "stateMutability": "view",
      "type": "function"
    },
    {
      "inputs": [
        {
          "internalType": "address",
          "name": "from",
          "type": "address"
        },
        {
          "internalType": "address",
          "name": "to",
          "type": "address"
        },
        {
          "internalType": "uint256",
          "name": "vaultID",
          "type": "uint256"
        }
      ],
      "name": "safeTransferFrom",
      "outputs": [],
      "stateMutability": "nonpayable",
      "type": "function"
    },
    {
      "inputs": [
        {
          "internalType": "address",
          "name": "from",
          "type": "address"
        },
        {
          "internalType": "address",
          "name": "to",
          "type": "address"
        },
        {
          "internalType": "uint256",
          "name": "vaultID",
          "type": "uint256"
        },
        {
          "internalType": "bytes",
          "name": "_data",
          "type": "bytes"
        }
      ],
      "name": "safeTransferFrom",
      "outputs": [],
      "stateMutability": "nonpayable",
      "type": "function"
    },
    {
      "inputs": [
        {
          "internalType": "address",
          "name": "operator",
          "type": "address"
        },
        {
          "internalType": "bool",
          "name": "approved",
          "type": "bool"
        }
      ],
      "name": "setApprovalForAll",
      "outputs": [],
      "stateMutability": "nonpayable",
      "type": "function"
    },
    {
      "inputs": [
        {
          "internalType": "string",
          "name": "baseURI_",
          "type": "string"
        }
      ],
      "name": "setBaseURI",
      "outputs": [],
      "stateMutability": "nonpayable",
      "type": "function"
    },
    {
      "inputs": [
        {
          "internalType": "uint256",
          "name": "_debtCeiling",
          "type": "uint256"
        }
      ],
      "name": "setDebtCeiling",
      "outputs": [],
      "stateMutability": "nonpayable",
      "type": "function"
    },
    {
      "inputs": [
        {
          "internalType": "address",
          "name": "_veBoostProxy",
          "type": "address"
        },
        {
          "internalType": "uint256[]",
          "name": "xBoost",
          "type": "uint256[]"
        },
        {
          "internalType": "uint256[]",
          "name": "yBoost",
          "type": "uint256[]"
        }
      ],
      "name": "setLiquidationBoostParameters",
      "outputs": [],
      "stateMutability": "nonpayable",
      "type": "function"
    },
    {
      "inputs": [
        {
          "internalType": "address",
          "name": "_oracle",
          "type": "address"
        }
      ],
      "name": "setOracle",
      "outputs": [],
      "stateMutability": "nonpayable",
      "type": "function"
    },
    {
      "inputs": [
        {
          "internalType": "address",
          "name": "_treasury",
          "type": "address"
        }
      ],
      "name": "setTreasury",
      "outputs": [],
      "stateMutability": "nonpayable",
      "type": "function"
    },
    {
      "inputs": [
        {
          "internalType": "uint64",
          "name": "param",
          "type": "uint64"
        },
        {
          "internalType": "bytes32",
          "name": "what",
          "type": "bytes32"
        }
      ],
      "name": "setUint64",
      "outputs": [],
      "stateMutability": "nonpayable",
      "type": "function"
    },
    {
      "inputs": [],
      "name": "stablecoin",
      "outputs": [
        {
          "internalType": "contract IAgToken",
          "name": "",
          "type": "address"
        }
      ],
      "stateMutability": "view",
      "type": "function"
    },
    {
      "inputs": [
        {
          "internalType": "bytes4",
          "name": "interfaceId",
          "type": "bytes4"
        }
      ],
      "name": "supportsInterface",
      "outputs": [
        {
          "internalType": "bool",
          "name": "",
          "type": "bool"
        }
      ],
      "stateMutability": "pure",
      "type": "function"
    },
    {
      "inputs": [],
      "name": "surplus",
      "outputs": [
        {
          "internalType": "uint256",
          "name": "",
          "type": "uint256"
        }
      ],
      "stateMutability": "view",
      "type": "function"
    },
    {
      "inputs": [],
      "name": "symbol",
      "outputs": [
        {
          "internalType": "string",
          "name": "",
          "type": "string"
        }
      ],
      "stateMutability": "view",
      "type": "function"
    },
    {
      "inputs": [],
      "name": "targetHealthFactor",
      "outputs": [
        {
          "internalType": "uint64",
          "name": "",
          "type": "uint64"
        }
      ],
      "stateMutability": "view",
      "type": "function"
    },
    {
      "inputs": [],
      "name": "togglePause",
      "outputs": [],
      "stateMutability": "nonpayable",
      "type": "function"
    },
    {
      "inputs": [
        {
          "internalType": "address",
          "name": "target",
          "type": "address"
        }
      ],
      "name": "toggleWhitelist",
      "outputs": [],
      "stateMutability": "nonpayable",
      "type": "function"
    },
    {
      "inputs": [
        {
          "internalType": "uint256",
          "name": "vaultID",
          "type": "uint256"
        }
      ],
      "name": "tokenURI",
      "outputs": [
        {
          "internalType": "string",
          "name": "",
          "type": "string"
        }
      ],
      "stateMutability": "view",
      "type": "function"
    },
    {
      "inputs": [],
      "name": "totalNormalizedDebt",
      "outputs": [
        {
          "internalType": "uint256",
          "name": "",
          "type": "uint256"
        }
      ],
      "stateMutability": "view",
      "type": "function"
    },
    {
      "inputs": [
        {
          "internalType": "address",
          "name": "from",
          "type": "address"
        },
        {
          "internalType": "address",
          "name": "to",
          "type": "address"
        },
        {
          "internalType": "uint256",
          "name": "vaultID",
          "type": "uint256"
        }
      ],
      "name": "transferFrom",
      "outputs": [],
      "stateMutability": "nonpayable",
      "type": "function"
    },
    {
      "inputs": [],
      "name": "treasury",
      "outputs": [
        {
          "internalType": "contract ITreasury",
          "name": "",
          "type": "address"
        }
      ],
      "stateMutability": "view",
      "type": "function"
    },
    {
      "inputs": [
        {
          "internalType": "uint256",
          "name": "",
          "type": "uint256"
        }
      ],
      "name": "vaultData",
      "outputs": [
        {
          "internalType": "uint256",
          "name": "collateralAmount",
          "type": "uint256"
        },
        {
          "internalType": "uint256",
          "name": "normalizedDebt",
          "type": "uint256"
        }
      ],
      "stateMutability": "view",
      "type": "function"
    },
    {
      "inputs": [],
      "name": "vaultIDCount",
      "outputs": [
        {
          "internalType": "uint256",
          "name": "",
          "type": "uint256"
        }
      ],
      "stateMutability": "view",
      "type": "function"
    },
    {
      "inputs": [],
      "name": "veBoostProxy",
      "outputs": [
        {
          "internalType": "contract IVeBoostProxy",
          "name": "",
          "type": "address"
        }
      ],
      "stateMutability": "view",
      "type": "function"
    },
    {
      "inputs": [],
      "name": "whitelistingActivated",
      "outputs": [
        {
          "internalType": "bool",
          "name": "",
          "type": "bool"
        }
      ],
      "stateMutability": "view",
      "type": "function"
    },
    {
      "inputs": [
        {
          "internalType": "uint256",
          "name": "",
          "type": "uint256"
        }
      ],
      "name": "xLiquidationBoost",
      "outputs": [
        {
          "internalType": "uint256",
          "name": "",
          "type": "uint256"
        }
      ],
      "stateMutability": "view",
      "type": "function"
    },
    {
      "inputs": [
        {
          "internalType": "uint256",
          "name": "",
          "type": "uint256"
        }
      ],
      "name": "yLiquidationBoost",
      "outputs": [
        {
          "internalType": "uint256",
          "name": "",
          "type": "uint256"
        }
      ],
      "stateMutability": "view",
      "type": "function"
    }
  ],
  "transactionHash": "0x434a153b7a2ac8936f19f686d74b93653407999e07b51665fc59d70f6003a5aa",
  "args": [
    "20000000000000000000",
    "20000000000000000000"
  ],
  "solcInputHash": "9ea856cdf8f1232f10dd822c4eca9f06",
  "bytecode": "0x60c06040523480156200001157600080fd5b506040516200616d3803806200616d833981016040819052620000349162000136565b60005482908290610100900460ff16620000555760005460ff16156200005f565b6200005f62000112565b620000c75760405162461bcd60e51b815260206004820152602e60248201527f496e697469616c697a61626c653a20636f6e747261637420697320616c72656160448201526d191e481a5b9a5d1a585b1a5e995960921b606482015260840160405180910390fd5b600054610100900460ff16158015620000ea576000805461ffff19166101011790555b608083905260a0829052801562000107576000805461ff00191690555b50505050506200015b565b60006200012a306200013060201b620033711760201c565b15905090565b3b151590565b600080604083850312156200014a57600080fd5b505080516020909101519092909150565b60805160a051615fc9620001a460003960008181613a930152613ac40152600081816108400152818161396e01528181613a0f01528181613d020152614b130152615fc96000f3fe608060405234801561001057600080fd5b50600436106102f65760003560e01c8063010db195146102fb57806301ffc9a71461032457806306fdde0314610347578063081812fc1461035c578063087a60071461036f578063095ea7b3146103865780630e198f221461039b57806313888565146103a457806323b872dd146103ad578063254cf439146103c0578063307439af146103f257806334ce998a1461041257806335836f151461041a5780633644e5151461042d57806339393ac91461043557806339eb4dc6146104485780633ae2325f1461045c5780633af32abf1461046f5780633c2e941b1461048f57806342842e0e14610498578063430c2081146104ab5780634f7e43df146104be57806355f804b3146104d85780635c975abb146104eb57806361d027b3146104ff5780636352211e1461051257806370a082311461052557806374107543146105385780637aacfffa1461054b5780637adbf973146105875780637c0f59f41461059a5780637c3a00fd146105b45780637dc0d1d0146105c75780637e53bd97146105da5780637e56d47c146105ed5780637ecebe0014610600578063835986b41461062957806383ba59fc1461063c57806389050f1d1461065d57806395d89b411461066f5780639a3b6f2f146106775780639f48118f146106bd578063a22cb465146106c8578063af2c8c2e146106db578063b1511cc9146106e4578063b4bd6f46146106f7578063b88d4fde1461070a578063bbcac5571461071d578063c4ae316814610726578063c66d8b011461072e578063c87b56dd14610748578063d8dfeb451461075b578063d9b1cb5b1461076e578063de1f776514610781578063de8fc69814610793578063df011c41146107a6578063e182b883146107b9578063e1c84ea4146107cc578063e626648a146107d5578063e985e9c5146107ef578063e9cbd82214610802578063f0f4426014610815578063f51cc7dd14610828578063fad9aba31461083b578063fc29b02114610862578063fd527cf814610875575b600080fd5b60375461030e906001600160a01b031681565b60405161031b9190614f7d565b60405180910390f35b610337610332366004614fa7565b61087d565b604051901515815260200161031b565b61034f6108e2565b60405161031b919061501c565b61030e61036a36600461502f565b610970565b610378603f5481565b60405190815260200161031b565b61039961039436600461505d565b6109a1565b005b610378603e5481565b61037860415481565b6103996103bb366004615089565b610a2e565b603c546103da90600160401b90046001600160401b031681565b6040516001600160401b03909116815260200161031b565b6104056104003660046150ca565b610a69565b60405161031b91906150fa565b610378610b1b565b61037861042836600461502f565b610b4d565b610378610b89565b610399610443366004615133565b610b93565b603d5461033790600160c01b900460ff1681565b61037861046a36600461502f565b610c93565b61037861047d366004615133565b60446020526000908152604090205481565b61037860455481565b6103996104a6366004615089565b610cb4565b6103376104b936600461505d565b610ccf565b603d546103da90600160801b90046001600160401b031681565b6103996104e6366004615205565b610cdb565b603d5461033790600160c81b900460ff1681565b60335461030e906001600160a01b031681565b61030e61052036600461502f565b610d80565b610378610533366004615133565b610d8b565b610399610546366004615250565b610dd0565b61057261055936600461502f565b6043602052600090815260409020805460019091015482565b6040805192835260208301919091520161031b565b610399610595366004615133565b61119c565b603c546103da90600160c01b90046001600160401b031681565b603d546103da906001600160401b031681565b60365461030e906001600160a01b031681565b6103996105e83660046152fa565b6112e3565b6104056105fb36600461536f565b6114d4565b61037861060e366004615133565b6001600160a01b03166000908152607f602052604090205490565b610399610637366004615433565b611a40565b61064f61064a366004615133565b611bf8565b60405161031b9291906154a0565b610378676765c793fa10079d601a1b81565b61034f611d18565b61068a6106853660046155aa565b611d25565b60405161031b91908151815260208083015190820152604080830151908201526060918201519181019190915260800190565b610378633b9aca0081565b6103996106d6366004615640565b611d5a565b61037860405481565b6103996106f236600461502f565b611d65565b610378610705366004615133565b611e2e565b61039961071836600461566e565b611e6a565b61037860425481565b610399611ea7565b603d546103da90600160401b90046001600160401b031681565b61034f61075636600461502f565b611f56565b60345461030e906001600160a01b031681565b61039961077c3660046156d9565b6120af565b610378676765c793fa10079d601b1b81565b61068a6107a136600461576d565b612603565b603c546103da906001600160401b031681565b6103786107c736600461502f565b612e8a565b61037860395481565b603c546103da90600160801b90046001600160401b031681565b6103376107fd3660046157cb565b612e9a565b60355461030e906001600160a01b031681565b610399610823366004615133565b612ec8565b610399610836366004615808565b612f68565b6103787f000000000000000000000000000000000000000000000000000000000000000081565b610405610870366004615882565b613228565b610572613252565b60006001600160e01b03198216635b5e139f60e01b14806108ae57506001600160e01b031982166380ac58cd60e01b145b806108c157506001600160e01b03198216155b806108dc57506001600160e01b031982166301ffc9a760e01b145b92915050565b607d80546108ef906158de565b80601f016020809104026020016040519081016040528092919081815260200182805461091b906158de565b80156109685780601f1061093d57610100808354040283529160200191610968565b820191906000526020600020905b81548152906001019060200180831161094b57829003601f168201915b505050505081565b600061097b82613377565b6109985760405163062a39dd60e11b815260040160405180910390fd5b6108dc82613394565b60006109ac826133af565b9050806001600160a01b0316836001600160a01b031614156109e1576040516349fa8bc360e11b815260040160405180910390fd5b336001600160a01b03821614801590610a0157506109ff8133612e9a565b155b15610a1f5760405163c19f17a960e01b815260040160405180910390fd5b610a2983836133e5565b505050565b3381610a3a8282613453565b610a575760405163c19f17a960e01b815260040160405180910390fd5b610a628585856134d1565b5050505050565b610a71614e53565b60008381526043602090815260409182902082518084018452815481526001909101548183015260365483516315f789a960e21b81529351610b1494929387936001600160a01b03909316926357de26a492600480830193928290030181865afa158015610ae3573d6000803e3d6000fd5b505050506040513d601f19601f82011682018060405250810190610b079190615913565b610b0f6135f8565b61378d565b9392505050565b6000676765c793fa10079d601b1b610b316135f8565b604054610b3e9190615942565b610b489190615977565b905090565b6000676765c793fa10079d601b1b610b636135f8565b600084815260436020526040902060010154610b7f9190615942565b6108dc9190615977565b6000610b48613b3e565b603354604051631c86b03760e31b81526001600160a01b039091169063e43581b890610bc3903390600401614f7d565b602060405180830381865afa158015610be0573d6000803e3d6000fd5b505050506040513d601f19601f82011682018060405250810190610c04919061598b565b610c2157604051633b8d9d7560e21b815260040160405180910390fd5b6001600160a01b03811615610c70576001600160a01b038116600090815260446020526040902054610c549060016159a8565b6001600160a01b03821660009081526044602052604090205550565b603d805460ff60c01b198116600160c01b9182900460ff16159091021790555b50565b603b8181548110610ca357600080fd5b600091825260209091200154905081565b610a2983838360405180602001604052806000815250611e6a565b6000610b148383613453565b60335460405163521d4de960e01b81526001600160a01b039091169063521d4de990610d0b903390600401614f7d565b602060405180830381865afa158015610d28573d6000803e3d6000fd5b505050506040513d601f19601f82011682018060405250810190610d4c919061598b565b610d6957604051632678482f60e21b815260040160405180910390fd5b8051610d7c906046906020840190614e82565b5050565b60006108dc826133af565b60006001600160a01b038216610db45760405163d92e233d60e01b815260040160405180910390fd5b506001600160a01b031660009081526048602052604090205490565b60335460405163521d4de960e01b81526001600160a01b039091169063521d4de990610e00903390600401614f7d565b602060405180830381865afa158015610e1d573d6000803e3d6000fd5b505050506040513d601f19601f82011682018060405250810190610e41919061598b565b610e5e57604051632678482f60e21b815260040160405180910390fd5b806121a360f11b1415610ec257603d546001600160401b03600160401b90910481169083161115610ea257604051637650e96360e11b815260040160405180910390fd5b603c80546001600160401b0319166001600160401b038416179055611155565b80622a242360e91b1415610f2757633b9aca00826001600160401b03161015610efe5760405163da6a17b960e01b815260040160405180910390fd5b603c8054600160401b600160801b031916600160401b6001600160401b03851602179055611155565b8061212360f11b1415610f8b57633b9aca00826001600160401b03161115610f6257604051637650e96360e11b815260040160405180910390fd5b603c8054600160801b600160c01b031916600160801b6001600160401b03851602179055611155565b8061292360f11b141561100857603d54633b9aca0090610fbb90600160401b90046001600160401b0316846159bf565b6001600160401b03161115610fe357604051637650e96360e11b815260040160405180910390fd5b603c80546001600160c01b0316600160c01b6001600160401b03851602179055611155565b806124a960f11b141561103e5761101d613baa565b50603d80546001600160401b0319166001600160401b038416179055611155565b80614c5360f01b14156110d757603c546001600160401b03808416911611806110905750603c54633b9aca009061108590600160c01b90046001600160401b0316846159bf565b6001600160401b0316115b156110ae5760405163180d062b60e31b815260040160405180910390fd5b603d8054600160401b600160801b031916600160401b6001600160401b03851602179055611155565b806213531160ea1b141561113c57633b9aca00826001600160401b0316111561111357604051637650e96360e11b815260040160405180910390fd5b603d8054600160801b600160c01b031916600160801b6001600160401b03851602179055611155565b60405163e1daa9cf60e01b815260040160405180910390fd5b604080516001600160401b0384168152602081018390527f13b367dac93b85d1ed9b3d8961d8b48e1a677c9800bb1613b4b0416b2d5b61d091015b60405180910390a15050565b603354604051631c86b03760e31b81526001600160a01b039091169063e43581b8906111cc903390600401614f7d565b602060405180830381865afa1580156111e9573d6000803e3d6000fd5b505050506040513d601f19601f8201168201806040525081019061120d919061598b565b61122a57604051633b8d9d7560e21b815260040160405180910390fd5b603354604080516361d027b360e01b815290516001600160a01b03928316928416916361d027b39160048083019260209291908290030181865afa158015611276573d6000803e3d6000fd5b505050506040513d601f19601f8201168201806040525081019061129a91906159ea565b6001600160a01b0316146112c1576040516302979eb960e31b815260040160405180910390fd5b603680546001600160a01b0319166001600160a01b0392909216919091179055565b60335460405163521d4de960e01b81526001600160a01b039091169063521d4de990611313903390600401614f7d565b602060405180830381865afa158015611330573d6000803e3d6000fd5b505050506040513d601f19601f82011682018060405250810190611354919061598b565b61137157604051632678482f60e21b815260040160405180910390fd5b8051825114158061139c57508060008151811061139057611390615a07565b60200260200101516000145b8061142b57506001600160a01b0383161580159061142b5750816000815181106113c8576113c8615a07565b6020026020010151826001815181106113e3576113e3615a07565b602002602001015111158061142b57508060008151811061140657611406615a07565b60200260200101518160018151811061142157611421615a07565b6020026020010151105b1561144957604051631746545d60e11b815260040160405180910390fd5b603780546001600160a01b0319166001600160a01b038516179055815161147790603a906020850190614f06565b50805161148b90603b906020840190614f06565b50826001600160a01b03167feb74d4d9fea592587c926aeb35eb6a7893fb28db0c1c8eb2eb3c586e7164b76c83836040516114c7929190615a1d565b60405180910390a2505050565b6114dc614e53565b603d54600160c81b900460ff1615611507576040516313d0ff5960e31b815260040160405180910390fd5b600260015414156115335760405162461bcd60e51b815260040161152a90615a42565b60405180910390fd5b60026001558551875114158061154857508551155b15611566576040516346282e8d60e01b815260040160405180910390fd5b603660009054906101000a90046001600160a01b03166001600160a01b03166357de26a46040518163ffffffff1660e01b8152600401602060405180830381865afa1580156115b9573d6000803e3d6000fd5b505050506040513d601f19601f820116820180604052508101906115dd9190615913565b60608201526115ea613baa565b60808201526040517f965a177723c641ee49150b583a0b9ad4730bb20d3474e00ae5a65e777c00d67b9061161f908990615a79565b60405180910390a160005b87518110156119b1576000604360008a848151811061164b5761164b615a07565b60200260200101518152602001908152602001600020604051806040016040529081600082015481526020016001820154815250509050600061169882338660600151876080015161378d565b9050600081604001511180156116ca575080604001518984815181106116c0576116c0615a07565b6020026020010151115b806116f1575080600001518984815181106116e7576116e7615a07565b6020026020010151115b1561171a57806000015189848151811061170d5761170d615a07565b6020026020010181815250505b6000846060015182606001516117309190615942565b603854633b9aca008c878151811061174a5761174a615a07565b602002602001015161175c9190615942565b6117669190615942565b6117709190615977565b905080836000015111611893575081516020830151604080546000906117979084906159a8565b92505081905550604360008c86815181106117b4576117b4615a07565b6020908102919091018101518252810191909152604001600090812081815560010155603d548a51633b9aca0091600160401b90046001600160401b0316908c908790811061180557611805615a07565b60200260200101516118179190615942565b6118219190615977565b826080015161183091906159a8565b856040018181516118419190615a8c565b9052508a51600080516020615f34833981519152908c908690811061186857611868615a07565b60200260200101518460200151600060405161188693929190615aa4565b60405180910390a1611954565b80604360008d87815181106118aa576118aa615a07565b6020026020010151815260200190815260200160002060000160008282546118d291906159a8565b925050819055506119528b85815181106118ee576118ee615a07565b6020026020010151633b9aca00603d60089054906101000a90046001600160401b03166001600160401b03168d888151811061192c5761192c615a07565b602002602001015161193e9190615942565b6119489190615977565b8760800151613c4b565b505b80856020018181516119669190615a8c565b90525089518a908590811061197d5761197d615a07565b6020026020010151856000018181516119969190615a8c565b9052508392506119a99150829050615abd565b91505061162a565b50603d54633b9aca00906119d590600160401b90046001600160401b0316826159a8565b82516119e19190615942565b6119eb9190615977565b604160008282546119fc9190615a8c565b9091555050604081015160428054600090611a18908490615a8c565b909155505060208101518151611a32919087878787613d96565b600180559695505050505050565b603d54600160c81b900460ff1615611a6b576040516313d0ff5960e31b815260040160405180910390fd5b6033546040516333b52a9f60e11b81526001600160a01b039091169063676a553e90611a9b903390600401614f7d565b602060405180830381865afa158015611ab8573d6000803e3d6000fd5b505050506040513d601f19601f82011682018060405250810190611adc919061598b565b611af95760405163027f480760e01b815260040160405180910390fd5b603c54600090600160c01b90046001600160401b0316821015611b3757603c54611b34908390600160c01b90046001600160401b03166159a8565b90505b603c54600090600160801b90046001600160401b0316841115611b7457603c54611b7190600160801b90046001600160401b0316856159a8565b90505b6000611b856002633b9aca00615bbc565b611b9383633b9aca006159a8565b611ba185633b9aca006159a8565b611bab9089615942565b611bb59190615942565b611bbf9190615977565b9050611bcb81876159a8565b60416000828254611bdc9190615a8c565b90915550611bee905087826000613c4b565b5050505050505050565b60455460609060009081816001600160401b03811115611c1a57611c1a615150565b604051908082528060200260200182016040528015611c43578160200160208202803683370190505b50905060008060015b848111611d0a576000818152604760205260409020546001600160a01b0390811693508816831480611c975750876001600160a01b0316611c8c82613394565b6001600160a01b0316145b80611cc757506001600160a01b038084166000908152604a60209081526040808320938c16835292905220546001145b15611cf85780848381518110611cdf57611cdf615a07565b6020908102919091010152611cf5600183615a8c565b91505b80611d0281615abd565b915050611c4c565b509196919550909350505050565b607e80546108ef906158de565b611d2d614f40565b60408051600080825260208201909252611d4f91879187918791879190612603565b90505b949350505050565b610d7c338383613ea0565b60335460405163521d4de960e01b81526001600160a01b039091169063521d4de990611d95903390600401614f7d565b602060405180830381865afa158015611db2573d6000803e3d6000fd5b505050506040513d601f19601f82011682018060405250810190611dd6919061598b565b611df357604051632678482f60e21b815260040160405180910390fd5b60398190556040518181527fdd63b3dcdbebad734892f7c7a26d0f647fbc7eec973e0775f5229018ac4ab47a9060200160405180910390a150565b603d54600090600160c81b900460ff1615611e5c576040516313d0ff5960e31b815260040160405180910390fd5b6108dc82613f56565b919050565b3382611e768282613453565b611e935760405163c19f17a960e01b815260040160405180910390fd5b611e9f86868686614087565b505050505050565b60335460405163521d4de960e01b81526001600160a01b039091169063521d4de990611ed7903390600401614f7d565b602060405180830381865afa158015611ef4573d6000803e3d6000fd5b505050506040513d601f19601f82011682018060405250810190611f18919061598b565b611f3557604051632678482f60e21b815260040160405180910390fd5b603d805460ff60c81b198116600160c81b9182900460ff1615909102179055565b6060611f6182613377565b611f7e5760405163062a39dd60e11b815260040160405180910390fd5b8160005b8115611fa85780611f9281615abd565b9150611fa19050600a83615977565b9150611f82565b6000816001600160401b03811115611fc257611fc2615150565b6040519080825280601f01601f191660200182016040528015611fec576020820181803683370190505b5090505b8415612057576120016001836159a8565b915061200e600a86615bcb565b612019906030615a8c565b60f81b81838151811061202e5761202e615a07565b60200101906001600160f81b031916908160001a905350612050600a86615977565b9450611ff0565b600060468054612066906158de565b90501161208257604051806020016040528060008152506120a6565b604681604051602001612096929190615bfb565b6040516020818303038152906040525b95945050505050565b600054610100900460ff166120ca5760005460ff16156120ce565b303b155b6121315760405162461bcd60e51b815260206004820152602e60248201527f496e697469616c697a61626c653a20636f6e747261637420697320616c72656160448201526d191e481a5b9a5d1a585b1a5e995960921b606482015260840161152a565b600054610100900460ff16158015612153576000805461ffff19166101011790555b856001600160a01b0316846001600160a01b03166361d027b36040518163ffffffff1660e01b8152600401602060405180830381865afa15801561219b573d6000803e3d6000fd5b505050506040513d601f19601f820116820180604052508101906121bf91906159ea565b6001600160a01b0316146121e6576040516302979eb960e31b815260040160405180910390fd5b603380546001600160a01b038089166001600160a01b0319928316179092556034805492881692909116821790556040805163313ce56760e01b8152905163313ce567916004808201926020929091908290030181865afa15801561224f573d6000803e3d6000fd5b505050506040513d601f19601f820116820180604052508101906122739190615c99565b61227e90600a615bbc565b603881905550856001600160a01b031663e9cbd8226040518163ffffffff1660e01b8152600401602060405180830381865afa1580156122c2573d6000803e3d6000fd5b505050506040513d601f19601f820116820180604052508101906122e691906159ea565b603580546001600160a01b03199081166001600160a01b039384161790915560368054909116918616919091179055604051600090612329908490602001615cb6565b60408051601f19818403018152919052805190915061234f90607d906020840190614e82565b50612359816140c1565b8260405160200161236a9190615cfd565b604051602081830303815290604052607e908051906020019061238e929190614e82565b50676765c793fa10079d601b1b603f5542603e556123b260a0850160808601615d27565b6001600160401b03166123cb6040860160208701615d27565b6001600160401b031611806123fb5750633b9aca006123f060a0860160808701615d27565b6001600160401b0316115b8061242157506124116060850160408601615d27565b6001600160401b0316633b9aca00115b806124485750633b9aca0061243c60c0860160a08701615d27565b6001600160401b031610155b80612455575060e0840135155b1561247357604051631746545d60e11b815260040160405180910390fd5b83356039556124886040850160208601615d27565b603c80546001600160401b0319166001600160401b03929092169190911790556124b86060850160408601615d27565b603c80546001600160401b0392909216600160401b02600160401b600160801b03199092169190911790556124f36080850160608601615d27565b603d80546001600160401b0319166001600160401b039290921691909117905561252360a0850160808601615d27565b603d80546001600160401b0392909216600160401b02600160401b600160801b031990921691909117905561255e60c0850160a08601615d27565b603d80546001600160401b0392909216600160801b02600160801b600160c01b031990921691909117905561259960e0850160c08601615d42565b603d8054911515600160c01b0260ff60c01b19909216919091179055604080516020810190915260e085013581526125d590603b906001614f06565b5050603d805460ff60c81b1916600160c81b1790558015611e9f576000805461ff0019169055505050505050565b61260b614f40565b603d54600160c81b900460ff1615612636576040516313d0ff5960e31b815260040160405180910390fd5b600260015414156126595760405162461bcd60e51b815260040161152a90615a42565b60026001558551875114158061266e57508651155b1561268c576040516346282e8d60e01b815260040160405180910390fd5b600080808080805b8c51811015612bf35760008d82815181106126b1576126b1615a07565b60200260200101519050600060078111156126ce576126ce615d5f565b8160078111156126e0576126e0615d5f565b14156127215761271b8d83815181106126fb576126fb615a07565b602002602001015180602001905181019061271691906159ea565b613f56565b50612be0565b600281600781111561273557612735615d5f565b141561279b578c828151811061274d5761274d615a07565b60200260200101518060200190518101906127689190615d75565b95509250826127775760455492505b6127818386614197565b84886060018181516127939190615a8c565b905250612be0565b60078160078111156127af576127af615d5f565b14156128885760008060008f85815181106127cc576127cc615a07565b60200260200101518060200190518101906127e79190615d99565b60345460405163d505accf60e01b81526001600160a01b038089166004830152306024830152604482018890526064820187905260ff8616608483015260a4820185905260c48201849052969f50939d50939b509497509550929350169063d505accf9060e401600060405180830381600087803b15801561286857600080fd5b505af115801561287c573d6000803e3d6000fd5b50505050505050612be0565b8661289857612895613baa565b96505b60048160078111156128ac576128ac615d5f565b1415612978578c82815181106128c4576128c4615a07565b60200260200101518060200190518101906128df9190615d75565b94509250826128ee5760455492505b6128f9838589613c4b565b603c5490945060009061292090600160c01b90046001600160401b0316633b9aca006159a8565b61292e633b9aca0087615942565b6129389190615977565b905061294485826159a8565b604160008282546129559190615a8c565b92505081905550808960200181815161296e9190615a8c565b905250612be09050565b856129f757603660009054906101000a90046001600160a01b03166001600160a01b03166357de26a46040518163ffffffff1660e01b8152600401602060405180830381865afa1580156129d0573d6000803e3d6000fd5b505050506040513d601f19601f820116820180604052508101906129f49190615913565b95505b6001816007811115612a0b57612a0b615d5f565b1415612a87578c8281518110612a2357612a23615a07565b6020026020010151806020019051810190612a3e9190615913565b925082612a4b5760455492505b612a56838789614203565b80965081955050508488604001818151612a709190615a8c565b905250602088018051859190612793908390615a8c565b6003816007811115612a9b57612a9b615d5f565b1415612afb578c8281518110612ab357612ab3615a07565b6020026020010151806020019051810190612ace9190615d75565b9550925082612add5760455492505b612ae98386888a614323565b84886040018181516127939190615a8c565b6005816007811115612b0f57612b0f615d5f565b1415612b71578c8281518110612b2757612b27615a07565b6020026020010151806020019051810190612b429190615d75565b9450925082612b515760455492505b612b5d8385888a6143fd565b935083886000018181516127939190615a8c565b6006816007811115612b8557612b85615d5f565b1415612be0576000808e8481518110612ba057612ba0615a07565b6020026020010151806020019051810190612bbb9190615dec565b98509196509250905084612bcf5760455494505b612bdd858383898c8e614498565b50505b5080612beb81615abd565b915050612694565b508551602087015110612cea5785516020870151600091612c13916159a8565b90508660600151876040015110612c4a57612c4587606001518860400151612c3b91906159a8565b828d8d8d8d613d96565b612ce4565b8015612cb757603554604051630d43af8160e21b81526001600160a01b039091169063350ebe0490612c849084908f903390600401615e2a565b600060405180830381600087803b158015612c9e57600080fd5b505af1158015612cb2573d6000803e3d6000fd5b505050505b612ce4333089604001518a60600151612cd091906159a8565b6034546001600160a01b03169291906145d4565b50612e76565b60208601518651600091612cfd916159a8565b6035546040516340c10f1960e01b81529192506001600160a01b0316906340c10f1990612d30908d908590600401615e49565b600060405180830381600087803b158015612d4a57600080fd5b505af1158015612d5e573d6000803e3d6000fd5b50505050866060015187604001511115612da257612d9d8a88606001518960400151612d8a91906159a8565b6034546001600160a01b0316919061463f565b612e74565b600087604001518860600151612db891906159a8565b90508015612e7257885115612e5a57896001600160a01b031663a5d4096b603560009054906101000a90046001600160a01b0316603460009054906101000a90046001600160a01b03163385878f6040518763ffffffff1660e01b8152600401612e2796959493929190615e62565b600060405180830381600087803b158015612e4157600080fd5b505af1158015612e55573d6000803e3d6000fd5b505050505b603454612e72906001600160a01b03163330846145d4565b505b505b505060018055509198975050505050505050565b603a8181548110610ca357600080fd5b6001600160a01b039182166000908152604a6020908152604080832093909416825291909152205460011490565b6033546001600160a01b03163314612ef35760405163b90cdbb160e01b815260040160405180910390fd5b603380546001600160a01b0319166001600160a01b0383811691909117909155603654604051630787a21360e51b815291169063f0f4426090612f3a908490600401614f7d565b600060405180830381600087803b158015612f5457600080fd5b505af1158015610a62573d6000803e3d6000fd5b83421115612f895760405163f87d927160e01b815260040160405180910390fd5b6fa2a8918ca85bafe22016d0b997e4df60600160ff1b03811180612fc057508260ff16601b14158015612fc057508260ff16601c14155b15612fde57604051638baa579f60e01b815260040160405180910390fd5b6000612fe8613b3e565b608254898989612ff78d61465e565b6040805160208101969096526001600160a01b03948516908601529290911660608401521515608083015260a082015260c0810187905260e0016040516020818303038152906040528051906020012060405160200161306e92919061190160f01b81526002810192909252602282015260420190565b604051602081830303815290604052805190602001209050613099886001600160a01b03163b151590565b1561317557604080516020810185905280820184905260f886901b6001600160f81b0319166060820152815160418183030181526061820192839052630b135d3f60e11b9092526001600160a01b038a1691631626ba7e916130ff918591606501615ea4565b602060405180830381865afa15801561311c573d6000803e3d6000fd5b505050506040513d601f19601f820116820180604052508101906131409190615ebd565b6001600160e01b031916631626ba7e60e01b1461317057604051638baa579f60e01b815260040160405180910390fd5b61321d565b6040805160008082526020820180845284905260ff871692820192909252606081018590526080810184905260019060a0016020604051602081039080840390855afa1580156131c9573d6000803e3d6000fd5b505050602060405103519050886001600160a01b0316816001600160a01b03161415806131fd57506001600160a01b038116155b1561321b57604051638baa579f60e01b815260040160405180910390fd5b505b611bee888888613ea0565b613230614e53565b60408051600080825260208201909252611d4f918791879187918791906114d4565b60335460009081906001600160a01b031633146132825760405163b90cdbb160e01b815260040160405180910390fd5b61328a613baa565b505060418054604280546000938490559290559150808210613323576132b081836159a8565b6035546033546040516340c10f1960e01b8152929450600093506001600160a01b03918216926340c10f19926132ec9216908690600401615e49565b600060405180830381600087803b15801561330657600080fd5b505af115801561331a573d6000803e3d6000fd5b50505050613334565b61332d82826159a8565b9050600091505b60408051838152602081018390527ffeb12225c131aab793a00c5239afb778932d170fa28ce6e9d23703e4bd892121910160405180910390a19091565b3b151590565b6000908152604760205260409020546001600160a01b0316151590565b6000908152604960205260409020546001600160a01b031690565b6000818152604760205260409020546001600160a01b031680611e655760405163062a39dd60e11b815260040160405180910390fd5b600081815260496020526040902080546001600160a01b0319166001600160a01b038416908117909155819061341a826133af565b6001600160a01b03167f8c5be1e5ebec7d5bd14f71427d1e84f3dd0314c0f7b2291e5b200ac8c7c3b92560405160405180910390a45050565b60008061345f836133af565b9050806001600160a01b0316846001600160a01b0316148061349a5750836001600160a01b031661348f84613394565b6001600160a01b0316145b80611d5257506001600160a01b038082166000908152604a6020908152604080832093881683529290522054600114949350505050565b826001600160a01b03166134e4826133af565b6001600160a01b03161461350b5760405163c19f17a960e01b815260040160405180910390fd5b6001600160a01b0382166135325760405163d92e233d60e01b815260040160405180910390fd5b603d54600160c01b900460ff16801561356457506001600160a01b038216600090815260446020526040902054600114155b1561358257604051630b094f2760e31b815260040160405180910390fd5b61358d6000826133e5565b6001600160a01b038084166000818152604860209081526040808320805460001901905593861680835284832080546001019055858352604790915283822080546001600160a01b03191682179055925184939291600080516020615f7483398151915291a4505050565b600080603e544261360991906159a8565b603d549091506001600160401b0316811580613623575080155b1561363257603f549250505090565b600061363f6001846159a8565b905060006002841161365257600061365d565b61365d6002856159a8565b90506000676765c793fa10079d601b1b676765c793fa10079d601a1b6136838680615942565b61368d9190615a8c565b6136979190615977565b90506000676765c793fa10079d601b1b676765c793fa10079d601a1b6136bd8785615942565b6136c79190615a8c565b6136d19190615977565b905060006002836136e2878a615942565b6136ec9190615942565b6136f69190615977565b9050600060068386613708898c615942565b6137129190615942565b61371c9190615942565b6137269190615977565b9050676765c793fa10079d601b1b81836137408b8b615942565b61375590676765c793fa10079d601b1b615a8c565b61375f9190615a8c565b6137699190615a8c565b603f546137769190615942565b6137809190615977565b9850505050505050505090565b613795614e53565b60008060006137a58887876146a2565b925092509250633b9aca0083106137cf576040516315fe9b6160e21b815260040160405180910390fd5b6000633b9aca006137e085826159a8565b6137e98a61472b565b6137f39190615942565b6137fd9190615977565b603d54909150600160801b90046001600160401b031681101561382d5761382881633b9aca006159a8565b61384e565b603d5461384e90600160801b90046001600160401b0316633b9aca006159a8565b603d54909150600160401b90046001600160401b03166000806138766002633b9aca00615bbc565b603c5461388c91906001600160401b0316615942565b83613897868a615942565b6138a19190615942565b10613a5057603c546001600160401b03166138c16002633b9aca00615bbc565b6138cb9190615942565b603c5485906138ea90600160401b90046001600160401b031686615942565b6138f49190615942565b6138fe91906159a8565b603c548590633b9aca009061391c906001600160401b031689615942565b603c5461393a908b90600160401b90046001600160401b0316615942565b61394491906159a8565b61394e9190615942565b6139589190615942565b6139629190615977565b9150613992633b9aca007f0000000000000000000000000000000000000000000000000000000000000000615942565b61399c8484615942565b6139a69190615a8c565b6139b4633b9aca0088615942565b11613a4b576139ce676765c793fa10079d601b1b84615942565b633b9aca008a8e602001516139e39190615942565b6139ed9190615942565b6139f79190615977565b613a02906001615a8c565b915082633b9aca00613a347f0000000000000000000000000000000000000000000000000000000000000000896159a8565b613a3e9190615942565b613a489190615977565b90505b613aec565b603854613a6190633b9aca00615942565b8c518b90613a70908790615942565b613a7a9190615942565b613a849190615977565b613a8f906001615a8c565b91507f0000000000000000000000000000000000000000000000000000000000000000851115613ae957633b9aca0084613a347f0000000000000000000000000000000000000000000000000000000000000000886159a8565b50805b818852613af9848b615942565b603854613b0a633b9aca0085615942565b613b149190615942565b613b1e9190615977565b602089015260408801525050606085015250608083015250949350505050565b60808054608154604080517f8b73c3c69bb8fe3d512ecc4cf759cc79239f7b179b0ffacaa9a75d522b39400f602082015290810192909252606082015246918101919091523060a082015260009060c00160405160208183030381529060405280519060200120905090565b6000613bb46135f8565b90506000676765c793fa10079d601b1b603f5483613bd291906159a8565b604054613bdf9190615942565b613be99190615977565b90508060416000828254613bfd9190615a8c565b9091555050603f82905542603e8190556040805184815260208101929092527fd1fa8ba00a3bf20274346919dce0de62d2a140af2c71fe7e29fa6472eea3bb9d910160405180910390a15090565b600081613c5d57613c5a613baa565b91505b60008481526043602052604081206001015490676765c793fa10079d601b1b613c868584615942565b613c909190615977565b9050808510613ca157935080613cc4565b83613cb7676765c793fa10079d601b1b87615942565b613cc19190615977565b90505b613cce81836159a8565b91508060406000828254613ce291906159a8565b90915550508115801590613d335750613d26676765c793fa10079d601b1b7f0000000000000000000000000000000000000000000000000000000000000000615942565b613d308584615942565b11155b15613d515760405163228af07f60e21b815260040160405180910390fd5b60008681526043602052604080822060010184905551600080516020615f3483398151915291613d849189918591615aa4565b60405180910390a15092949350505050565b8515613db357603454613db3906001600160a01b0316848861463f565b8415611e9f57805115613e325760345460355460405163a5d4096b60e01b81526001600160a01b038086169363a5d4096b93613dff9391831692169089908b908d908990600401615e62565b600060405180830381600087803b158015613e1957600080fd5b505af1158015613e2d573d6000803e3d6000fd5b505050505b603554604051630d43af8160e21b81526001600160a01b039091169063350ebe0490613e6690889088903390600401615e2a565b600060405180830381600087803b158015613e8057600080fd5b505af1158015613e94573d6000803e3d6000fd5b50505050505050505050565b826001600160a01b0316826001600160a01b03161415613ed3576040516320c5195360e21b815260040160405180910390fd5b600081613ee1576000613ee4565b60015b6001600160a01b038581166000818152604a602090815260408083209489168084529482529182902060ff959095169485905590518615158152939450919290917f17307eab39ab6107e8899845ad3d59bd9653f200f220920489ca2b5937696c31910160405180910390a350505050565b603d54600090600160c01b900460ff168015613fa557506001600160a01b0382166000908152604460205260409020546001141580613fa5575033600090815260446020526040902054600114155b15613fc357604051630b094f2760e31b815260040160405180910390fd5b6001600160a01b038216613fea5760405163d92e233d60e01b815260040160405180910390fd5b5060458054600190810182556001600160a01b038316600081815260486020908152604080832080549095019094559354808252604790945282812080546001600160a01b031916831790559151839290600080516020615f74833981519152908290a461406a600083836040518060200160405280600081525061495a565b611e65576040516320149b4360e21b815260040160405180910390fd5b6140928484846134d1565b61409e8484848461495a565b6140bb576040516320149b4360e21b815260040160405180910390fd5b50505050565b600054610100900460ff1661412c5760405162461bcd60e51b815260206004820152602b60248201527f496e697469616c697a61626c653a20636f6e7472616374206973206e6f74206960448201526a6e697469616c697a696e6760a81b606482015260840161152a565b7f3f43a9c6bafb5c7aab4e0cfe239dc5d4c15caf0381c6104188191f78a6640bd860825580516020918201206080556040805180820190915260018152603160f81b9101527fc89efdaa54c0f20c7adf612882df0950f5a951637e0307cdcb4c672f298b8bc6608155565b6141a082613377565b6141bd5760405163062a39dd60e11b815260040160405180910390fd5b600082815260436020526040812080548392906141db908490615a8c565b9091555050604051600080516020615f54833981519152906111909084908490600190615aa4565b60008033856142128282613453565b61422f5760405163c19f17a960e01b815260040160405180910390fd5b600087815260436020908152604080832081518083019092528054825260010154918101919091529080614264838a8a6146a2565b5091509150633b9aca00821161428d57604051631527804d60e31b815260040160405180910390fd5b8260200151604060008282546142a391906159a8565b909155506142b290508a614a56565b603c546000906142d690600160c01b90046001600160401b0316633b9aca006159a8565b6142e4633b9aca0084615942565b6142ee9190615977565b90506142fa82826159a8565b6041600082825461430b9190615a8c565b90915550509251929a92995091975050505050505050565b338461432f8282613453565b61434c5760405163c19f17a960e01b815260040160405180910390fd5b6000868152604360205260408120805487929061436a9084906159a8565b9091555050600086815260436020908152604080832081518083019092528054825260010154918101919091526143a29086866146a2565b50509050633b9aca0081116143ca57604051631527804d60e31b815260040160405180910390fd5b600080516020615f54833981519152878760006040516143ec93929190615aa4565b60405180910390a150505050505050565b6000338561440b8282613453565b6144285760405163c19f17a960e01b815260040160405180910390fd5b61443487878787614ad5565b603c54909650600090633b9aca009061445e908990600160801b90046001600160401b0316615942565b6144689190615977565b9050806041600082825461447c9190615a8c565b9091555061448c905081886159a8565b98975050505050505050565b33866144a48282613453565b6144c15760405163c19f17a960e01b815260040160405180910390fd5b60408051898152602081018890526001600160a01b038916818301526060810187905290517fddd3b70af631334f7552aadb582ed091018e62e103fa8b150ca66cc700d4dac69181900360800190a161451c88868686614ad5565b94506001600160a01b0387163014156145405761453a868685613c4b565b50611bee565b603c546040516320d661ad60e21b815260048101889052602481018790526001600160401b03600160801b830481166044830152600160c01b90920490911660648201526001600160a01b0388169063835986b490608401600060405180830381600087803b1580156145b257600080fd5b505af11580156145c6573d6000803e3d6000fd5b505050505050505050505050565b6040516001600160a01b03808516602483015283166044820152606481018290526140bb9085906323b872dd60e01b906084015b60408051601f198184030181529190526020810180516001600160e01b03166001600160e01b031990931692909217909152614c86565b610a298363a9059cbb60e01b8484604051602401614608929190615e49565b6001600160a01b0381166000908152607f6020526040902054614682816001615a8c565b6001600160a01b039092166000908152607f602052604090209190915590565b6000806000676765c793fa10079d601b1b8487602001516146c39190615942565b6146cd9190615977565b91506038548587600001516146e29190615942565b6146ec9190615977565b9050816146fd576000199250614722565b603c548290614715906001600160401b031683615942565b61471f9190615977565b92505b93509350939050565b6037546000906001600160a01b031661476457603b60008154811061475257614752615a07565b90600052602060002001549050919050565b603754604051635dfba04560e11b81526000916001600160a01b03169063bbf7408a90614795908690600401614f7d565b602060405180830381865afa1580156147b2573d6000803e3d6000fd5b505050506040513d601f19601f820116820180604052508101906147d69190615913565b9050603a6001815481106147ec576147ec615a07565b9060005260206000200154811061482457603b60018154811061481157614811615a07565b9060005260206000200154915050919050565b603a60008154811061483857614838615a07565b9060005260206000200154811161485d57603b60008154811061481157614811615a07565b603a60008154811061487157614871615a07565b9060005260206000200154603a60018154811061489057614890615a07565b90600052602060002001546148a591906159a8565b603a6000815481106148b9576148b9615a07565b9060005260206000200154826148cf91906159a8565b603b6000815481106148e3576148e3615a07565b9060005260206000200154603b60018154811061490257614902615a07565b906000526020600020015461491791906159a8565b6149219190615942565b61492b9190615977565b603b60008154811061493f5761493f615a07565b9060005260206000200154610b149190615a8c565b50919050565b60006001600160a01b0384163b15614a4e57604051630a85bd0160e11b81526001600160a01b0385169063150b7a029061499e903390899088908890600401615eda565b6020604051808303816000875af19250505080156149d9575060408051601f3d908101601f191682019092526149d691810190615ebd565b60015b614a34573d808015614a07576040519150601f19603f3d011682016040523d82523d6000602084013e614a0c565b606091505b508051614a2c576040516320149b4360e21b815260040160405180910390fd5b805181602001fd5b6001600160e01b031916630a85bd0160e11b149050611d52565b506001611d52565b6000614a61826133af565b9050614a6e6000836133e5565b6001600160a01b038116600081815260486020908152604080832080546000190190558583526047825280832080546001600160a01b0319169055604390915280822082815560010182905551849290600080516020615f74833981519152908390a45050565b60008082614aee676765c793fa10079d601b1b87615942565b614af89190615977565b600087815260436020526040902060010154909150614b51577f00000000000000000000000000000000000000000000000000000000000000008511614b515760405163228af07f60e21b815260040160405180910390fd5b60008681526043602052604081206001018054839290614b72908490615a8c565b925050819055508060406000828254614b8b9190615a8c565b9091555050603954614ba990676765c793fa10079d601b1b90615942565b83604054614bb79190615942565b1115614bd6576040516371239a6160e11b815260040160405180910390fd5b60008681526043602090815260408083208151808301909252805482526001015491810191909152614c099086866146a2565b50509050633b9aca008111614c3157604051631527804d60e31b815260040160405180910390fd5b600080516020615f3483398151915287836001604051614c5393929190615aa4565b60405180910390a1676765c793fa10079d601b1b614c718584615942565b614c7b9190615977565b979650505050505050565b6000614cdb826040518060400160405280602081526020017f5361666545524332303a206c6f772d6c6576656c2063616c6c206661696c6564815250856001600160a01b0316614d589092919063ffffffff16565b805190915015610a295780806020019051810190614cf9919061598b565b610a295760405162461bcd60e51b815260206004820152602a60248201527f5361666545524332303a204552433230206f7065726174696f6e20646964206e6044820152691bdd081cdd58d8d9595960b21b606482015260840161152a565b6060611d52848460008585843b614db15760405162461bcd60e51b815260206004820152601d60248201527f416464726573733a2063616c6c20746f206e6f6e2d636f6e7472616374000000604482015260640161152a565b600080866001600160a01b03168587604051614dcd9190615f17565b60006040518083038185875af1925050503d8060008114614e0a576040519150601f19603f3d011682016040523d82523d6000602084013e614e0f565b606091505b5091509150614c7b82828660608315614e29575081610b14565b825115614e395782518084602001fd5b8160405162461bcd60e51b815260040161152a919061501c565b6040518060a0016040528060008152602001600081526020016000815260200160008152602001600081525090565b828054614e8e906158de565b90600052602060002090601f016020900481019282614eb05760008555614ef6565b82601f10614ec957805160ff1916838001178555614ef6565b82800160010185558215614ef6579182015b82811115614ef6578251825591602001919060010190614edb565b50614f02929150614f68565b5090565b828054828255906000526020600020908101928215614ef65791602002820182811115614ef6578251825591602001919060010190614edb565b6040518060800160405280600081526020016000815260200160008152602001600081525090565b5b80821115614f025760008155600101614f69565b6001600160a01b0391909116815260200190565b6001600160e01b031981168114610c9057600080fd5b600060208284031215614fb957600080fd5b8135610b1481614f91565b60005b83811015614fdf578181015183820152602001614fc7565b838111156140bb5750506000910152565b60008151808452615008816020860160208601614fc4565b601f01601f19169290920160200192915050565b602081526000610b146020830184614ff0565b60006020828403121561504157600080fd5b5035919050565b6001600160a01b0381168114610c9057600080fd5b6000806040838503121561507057600080fd5b823561507b81615048565b946020939093013593505050565b60008060006060848603121561509e57600080fd5b83356150a981615048565b925060208401356150b981615048565b929592945050506040919091013590565b600080604083850312156150dd57600080fd5b8235915060208301356150ef81615048565b809150509250929050565b60a081016108dc828480518252602081015160208301526040810151604083015260608101516060830152608081015160808301525050565b60006020828403121561514557600080fd5b8135610b1481615048565b634e487b7160e01b600052604160045260246000fd5b604051601f8201601f191681016001600160401b038111828210171561518e5761518e615150565b604052919050565b600082601f8301126151a757600080fd5b81356001600160401b038111156151c0576151c0615150565b6151d3601f8201601f1916602001615166565b8181528460208386010111156151e857600080fd5b816020850160208301376000918101602001919091529392505050565b60006020828403121561521757600080fd5b81356001600160401b0381111561522d57600080fd5b611d5284828501615196565b80356001600160401b0381168114611e6557600080fd5b6000806040838503121561526357600080fd5b61507b83615239565b60006001600160401b0382111561528557615285615150565b5060051b60200190565b600082601f8301126152a057600080fd5b813560206152b56152b08361526c565b615166565b82815260059290921b840181019181810190868411156152d457600080fd5b8286015b848110156152ef57803583529183019183016152d8565b509695505050505050565b60008060006060848603121561530f57600080fd5b833561531a81615048565b925060208401356001600160401b038082111561533657600080fd5b6153428783880161528f565b9350604086013591508082111561535857600080fd5b506153658682870161528f565b9150509250925092565b60008060008060008060c0878903121561538857600080fd5b86356001600160401b038082111561539f57600080fd5b6153ab8a838b0161528f565b975060208901359150808211156153c157600080fd5b6153cd8a838b0161528f565b9650604089013591506153df82615048565b9094506060880135906153f182615048565b90935060808801359061540382615048565b90925060a0880135908082111561541957600080fd5b5061542689828a01615196565b9150509295509295509295565b6000806000806080858703121561544957600080fd5b5050823594602084013594506040840135936060013592509050565b600081518084526020808501945080840160005b8381101561549557815187529582019590820190600101615479565b509495945050505050565b6040815260006154b36040830185615465565b90508260208301529392505050565b600082601f8301126154d357600080fd5b813560206154e36152b08361526c565b82815260059290921b8401810191818101908684111561550257600080fd5b8286015b848110156152ef5780356008811061551e5760008081fd5b8352918301918301615506565b600082601f83011261553c57600080fd5b8135602061554c6152b08361526c565b82815260059290921b8401810191818101908684111561556b57600080fd5b8286015b848110156152ef5780356001600160401b0381111561558e5760008081fd5b61559c8986838b0101615196565b84525091830191830161556f565b600080600080608085870312156155c057600080fd5b84356001600160401b03808211156155d757600080fd5b6155e3888389016154c2565b955060208701359150808211156155f957600080fd5b506156068782880161552b565b935050604085013561561781615048565b9150606085013561562781615048565b939692955090935050565b8015158114610c9057600080fd5b6000806040838503121561565357600080fd5b823561565e81615048565b915060208301356150ef81615632565b6000806000806080858703121561568457600080fd5b843561568f81615048565b9350602085013561569f81615048565b92506040850135915060608501356001600160401b038111156156c157600080fd5b6156cd87828801615196565b91505092959194509250565b60008060008060008587036101808112156156f357600080fd5b86356156fe81615048565b9550602087013561570e81615048565b9450604087013561571e81615048565b9350610100605f198201121561573357600080fd5b506060860191506101608601356001600160401b0381111561575457600080fd5b61576088828901615196565b9150509295509295909350565b60008060008060008060c0878903121561578657600080fd5b86356001600160401b038082111561579d57600080fd5b6157a98a838b016154c2565b975060208901359150808211156157bf57600080fd5b6153cd8a838b0161552b565b600080604083850312156157de57600080fd5b82356157e981615048565b915060208301356150ef81615048565b60ff81168114610c9057600080fd5b600080600080600080600060e0888a03121561582357600080fd5b873561582e81615048565b9650602088013561583e81615048565b9550604088013561584e81615632565b9450606088013593506080880135615865816157f9565b9699959850939692959460a0840135945060c09093013592915050565b6000806000806080858703121561589857600080fd5b84356001600160401b03808211156158af57600080fd5b6158bb8883890161528f565b955060208701359150808211156158d157600080fd5b506156068782880161528f565b600181811c908216806158f257607f821691505b6020821081141561495457634e487b7160e01b600052602260045260246000fd5b60006020828403121561592557600080fd5b5051919050565b634e487b7160e01b600052601160045260246000fd5b600081600019048311821515161561595c5761595c61592c565b500290565b634e487b7160e01b600052601260045260246000fd5b60008261598657615986615961565b500490565b60006020828403121561599d57600080fd5b8151610b1481615632565b6000828210156159ba576159ba61592c565b500390565b60006001600160401b038281168482168083038211156159e1576159e161592c565b01949350505050565b6000602082840312156159fc57600080fd5b8151610b1481615048565b634e487b7160e01b600052603260045260246000fd5b604081526000615a306040830185615465565b82810360208401526120a68185615465565b6020808252601f908201527f5265656e7472616e637947756172643a207265656e7472616e742063616c6c00604082015260600190565b602081526000610b146020830184615465565b60008219821115615a9f57615a9f61592c565b500190565b928352602083019190915260ff16604082015260600190565b6000600019821415615ad157615ad161592c565b5060010190565b600181815b80851115615b13578160001904821115615af957615af961592c565b80851615615b0657918102915b93841c9390800290615add565b509250929050565b600082615b2a575060016108dc565b81615b37575060006108dc565b8160018114615b4d5760028114615b5757615b73565b60019150506108dc565b60ff841115615b6857615b6861592c565b50506001821b6108dc565b5060208310610133831016604e8410600b8410161715615b96575081810a6108dc565b615ba08383615ad8565b8060001904821115615bb457615bb461592c565b029392505050565b6000610b1460ff841683615b1b565b600082615bda57615bda615961565b500690565b60008151615bf1818560208601614fc4565b9290920192915050565b600080845481600182811c915080831680615c1757607f831692505b6020808410821415615c3757634e487b7160e01b86526022600452602486fd5b818015615c4b5760018114615c5c57615c89565b60ff19861689528489019650615c89565b60008b81526020902060005b86811015615c815781548b820152908501908301615c68565b505084890196505b5050505050506120a68185615bdf565b600060208284031215615cab57600080fd5b8151610b14816157f9565b6e020b733b63290283937ba37b1b7b61608d1b815260008251615ce081600f850160208701614fc4565b650815985d5b1d60d21b600f939091019283015250601501919050565b60008251615d0f818460208701614fc4565b650b5d985d5b1d60d21b920191825250600601919050565b600060208284031215615d3957600080fd5b610b1482615239565b600060208284031215615d5457600080fd5b8135610b1481615632565b634e487b7160e01b600052602160045260246000fd5b60008060408385031215615d8857600080fd5b505080516020909101519092909150565b60008060008060008060c08789031215615db257600080fd5b8651615dbd81615048565b6020880151604089015160608a015160808b015160a0909b0151939c929b509099909850965090945092505050565b60008060008060808587031215615e0257600080fd5b845193506020850151615e1481615048565b6040860151606090960151949790965092505050565b9283526001600160a01b03918216602084015216604082015260600190565b6001600160a01b03929092168252602082015260400190565b6001600160a01b038781168252868116602083015285166040820152606081018490526080810183905260c060a0820181905260009061448c90830184614ff0565b828152604060208201526000611d526040830184614ff0565b600060208284031215615ecf57600080fd5b8151610b1481614f91565b6001600160a01b0385811682528416602082015260408101839052608060608201819052600090615f0d90830184614ff0565b9695505050505050565b60008251615f29818460208701614fc4565b919091019291505056fe70cf49afe7355562d5b022e594790f22b71ad8cc7eec902fa5feac7c67f71091722cb71fa87c947148cefc06dd890af5802a6a00207c5ddecf1191bf71ce3cd4ddf252ad1be2c89b69c2b068fc378daa952ba7f163c4a11628f55a4df523b3efa2646970667358221220fddeaede99c04f40ff9417ad82811c91b5f913e223b938913620e3a42942f00264736f6c634300080c0033"
}