{
  "address": "0x5E9ab86e99CaeE6df6578E0fBBD4A915a4A294BC",
  "abi": [
    {
      "inputs": [],
      "stateMutability": "nonpayable",
      "type": "constructor"
    },
    {
      "inputs": [
        {
          "internalType": "contract IVaultManager",
          "name": "vaultManager",
          "type": "address"
        },
        {
          "internalType": "address",
          "name": "spender",
          "type": "address"
        }
      ],
      "name": "getControlledVaults",
      "outputs": [
        {
          "internalType": "uint256[]",
          "name": "",
          "type": "uint256[]"
        },
        {
          "internalType": "uint256",
          "name": "",
          "type": "uint256"
        }
      ],
      "stateMutability": "view",
      "type": "function"
    }
  ],
  "transactionHash": "0x4b9d3ef3b1a000b8b338ed19ba0bb65bde1cf895673ff280e096463c9c42d267",
  "args": [],
  "numDeployments": 1,
  "solcInputHash": "e49dc14d7106b3ed7417bcbb86d3114c",
  "bytecode": "0x608060405234801561001057600080fd5b50600054610100900460ff1661002c5760005460ff1615610034565b6100346100d5565b61009b5760405162461bcd60e51b815260206004820152602e60248201527f496e697469616c697a61626c653a20636f6e747261637420697320616c72656160448201526d191e481a5b9a5d1a585b1a5e995960921b606482015260840160405180910390fd5b600054610100900460ff161580156100bd576000805461ffff19166101011790555b80156100cf576000805461ff00191690555b506100f6565b60006100ea306100f060201b61022c1760201c565b15905090565b3b151590565b61042e806101056000396000f3fe608060405234801561001057600080fd5b506004361061002b5760003560e01c80632ee4345014610030575b600080fd5b61004361003e366004610257565b61005a565b604051610051929190610290565b60405180910390f35b60606000808473ffffffffffffffffffffffffffffffffffffffff16633c2e941b6040518163ffffffff1660e01b8152600401602060405180830381865afa1580156100aa573d6000803e3d6000fd5b505050506040513d601f19601f820116820180604052508101906100ce91906102d8565b905060008167ffffffffffffffff8111156100eb576100eb6102f1565b604051908082528060200260200182016040528015610114578160200160208202803683370190505b509050600060015b83811161021f576040517f430c208100000000000000000000000000000000000000000000000000000000815273ffffffffffffffffffffffffffffffffffffffff88811660048301526024820183905289169063430c208190604401602060405180830381865afa9250505080156101d0575060408051601f3d9081017fffffffffffffffffffffffffffffffffffffffffffffffffffffffffffffffe01682019092526101cd91810190610320565b60015b6101d95761020d565b801561020b57818484815181106101f2576101f2610349565b60209081029190910101526102086001846103a7565b92505b505b80610217816103bf565b91505061011c565b5090969095509350505050565b3b151590565b73ffffffffffffffffffffffffffffffffffffffff8116811461025457600080fd5b50565b6000806040838503121561026a57600080fd5b823561027581610232565b9150602083013561028581610232565b809150509250929050565b604080825283519082018190526000906020906060840190828701845b828110156102c9578151845292840192908401906001016102ad565b50505092019290925292915050565b6000602082840312156102ea57600080fd5b5051919050565b7f4e487b7100000000000000000000000000000000000000000000000000000000600052604160045260246000fd5b60006020828403121561033257600080fd5b8151801515811461034257600080fd5b9392505050565b7f4e487b7100000000000000000000000000000000000000000000000000000000600052603260045260246000fd5b7f4e487b7100000000000000000000000000000000000000000000000000000000600052601160045260246000fd5b600082198211156103ba576103ba610378565b500190565b60007fffffffffffffffffffffffffffffffffffffffffffffffffffffffffffffffff8214156103f1576103f1610378565b506001019056fea26469706673582212206ba0552a59fa20b46b4f92b9a2b138760fbc785b9b0cecb57b7d1f905627618c64736f6c634300080c0033",
  "devdoc": {
    "author": "Angle Labs, Inc.",
    "details": "This contract only contains view functions to be queried off-chain. It was thus not optimized for gas consumption",
    "kind": "dev",
    "methods": {
      "constructor": {
        "custom:oz-upgrades-unsafe-allow": "constructor"
      },
      "getControlledVaults(address,address)": {
        "details": "This function is never to be called on-chain since it iterates over all vaultIDs. It is here to reduce dependency on an external graph to link an ID to its owner",
        "params": {
          "spender": "Address for which vault ownerships should be checked",
          "vaultManager": "VaultManager address to query vaultIDs on"
        },
        "returns": {
          "_0": "List of `vaultID` controlled by this address",
          "_1": "Count of vaults owned by the address"
        }
      }
    },
    "title": "AngleBorrowHelpers",
    "version": 1
  },
  "userdoc": {
    "kind": "user",
    "methods": {
      "getControlledVaults(address,address)": {
        "notice": "Returns all the vaults owned or controlled (under the form of approval) by an address"
      }
    },
    "notice": "Contract with view functions designed to facilitate integrations on the Borrow module of the Angle Protocol",
    "version": 1
  },
  "storageLayout": {
    "storage": [
      {
        "astId": 772,
        "contract": "contracts/ui-helpers/AngleBorrowHelpers.sol:AngleBorrowHelpers",
        "label": "_initialized",
        "offset": 0,
        "slot": "0",
        "type": "t_bool"
      },
      {
        "astId": 775,
        "contract": "contracts/ui-helpers/AngleBorrowHelpers.sol:AngleBorrowHelpers",
        "label": "_initializing",
        "offset": 1,
        "slot": "0",
        "type": "t_bool"
      }
    ],
    "types": {
      "t_bool": {
        "encoding": "inplace",
        "label": "bool",
        "numberOfBytes": "1"
      }
    }
  }
}