{
  "address": "0x9818BC9C4E09B1c542235dC969Ad1c6136899Ad1",
  "abi": [
    {
      "inputs": [],
      "name": "ApprovalToCaller",
      "type": "error"
    },
    {
      "inputs": [],
      "name": "ApprovalToOwner",
      "type": "error"
    },
    {
      "inputs": [],
      "name": "DebtCeilingExceeded",
      "type": "error"
    },
    {
      "inputs": [],
      "name": "DustyLeftoverAmount",
      "type": "error"
    },
    {
      "inputs": [],
      "name": "ExpiredDeadline",
      "type": "error"
    },
    {
      "inputs": [],
      "name": "HealthyVault",
      "type": "error"
    },
    {
      "inputs": [],
      "name": "IncompatibleLengths",
      "type": "error"
    },
    {
      "inputs": [],
      "name": "InsolventVault",
      "type": "error"
    },
    {
      "inputs": [],
      "name": "InvalidParameterType",
      "type": "error"
    },
    {
      "inputs": [],
      "name": "InvalidParameterValue",
      "type": "error"
    },
    {
      "inputs": [],
      "name": "InvalidSetOfParameters",
      "type": "error"
    },
    {
      "inputs": [],
      "name": "InvalidSignature",
      "type": "error"
    },
    {
      "inputs": [],
      "name": "InvalidTreasury",
      "type": "error"
    },
    {
      "inputs": [],
      "name": "NonERC721Receiver",
      "type": "error"
    },
    {
      "inputs": [],
      "name": "NonexistentVault",
      "type": "error"
    },
    {
      "inputs": [],
      "name": "NotApproved",
      "type": "error"
    },
    {
      "inputs": [],
      "name": "NotGovernor",
      "type": "error"
    },
    {
      "inputs": [],
      "name": "NotGovernorOrGuardian",
      "type": "error"
    },
    {
      "inputs": [],
      "name": "NotTreasury",
      "type": "error"
    },
    {
      "inputs": [],
      "name": "NotVaultManager",
      "type": "error"
    },
    {
      "inputs": [],
      "name": "NotWhitelisted",
      "type": "error"
    },
    {
      "inputs": [],
      "name": "Paused",
      "type": "error"
    },
    {
      "inputs": [],
      "name": "TooHighParameterValue",
      "type": "error"
    },
    {
      "inputs": [],
      "name": "TooSmallParameterValue",
      "type": "error"
    },
    {
      "inputs": [],
      "name": "ZeroAddress",
      "type": "error"
    },
    {
      "anonymous": false,
      "inputs": [
        {
          "indexed": false,
          "internalType": "uint256",
          "name": "surplusEndValue",
          "type": "uint256"
        },
        {
          "indexed": false,
          "internalType": "uint256",
          "name": "badDebtEndValue",
          "type": "uint256"
        }
      ],
      "name": "AccruedToTreasury",
      "type": "event"
    },
    {
      "anonymous": false,
      "inputs": [
        {
          "indexed": true,
          "internalType": "address",
          "name": "owner",
          "type": "address"
        },
        {
          "indexed": true,
          "internalType": "address",
          "name": "approved",
          "type": "address"
        },
        {
          "indexed": true,
          "internalType": "uint256",
          "name": "tokenId",
          "type": "uint256"
        }
      ],
      "name": "Approval",
      "type": "event"
    },
    {
      "anonymous": false,
      "inputs": [
        {
          "indexed": true,
          "internalType": "address",
          "name": "owner",
          "type": "address"
        },
        {
          "indexed": true,
          "internalType": "address",
          "name": "operator",
          "type": "address"
        },
        {
          "indexed": false,
          "internalType": "bool",
          "name": "approved",
          "type": "bool"
        }
      ],
      "name": "ApprovalForAll",
      "type": "event"
    },
    {
      "anonymous": false,
      "inputs": [
        {
          "indexed": false,
          "internalType": "uint256",
          "name": "vaultID",
          "type": "uint256"
        },
        {
          "indexed": false,
          "internalType": "uint256",
          "name": "collateralAmount",
          "type": "uint256"
        },
        {
          "indexed": false,
          "internalType": "uint8",
          "name": "isIncrease",
          "type": "uint8"
        }
      ],
      "name": "CollateralAmountUpdated",
      "type": "event"
    },
    {
      "anonymous": false,
      "inputs": [
        {
          "indexed": false,
          "internalType": "uint256",
          "name": "debtCeiling",
          "type": "uint256"
        }
      ],
      "name": "DebtCeilingUpdated",
      "type": "event"
    },
    {
      "anonymous": false,
      "inputs": [
        {
          "indexed": false,
          "internalType": "uint256",
          "name": "srcVaultID",
          "type": "uint256"
        },
        {
          "indexed": false,
          "internalType": "uint256",
          "name": "dstVaultID",
          "type": "uint256"
        },
        {
          "indexed": false,
          "internalType": "address",
          "name": "dstVaultManager",
          "type": "address"
        },
        {
          "indexed": false,
          "internalType": "uint256",
          "name": "amount",
          "type": "uint256"
        }
      ],
      "name": "DebtTransferred",
      "type": "event"
    },
    {
      "anonymous": false,
      "inputs": [
        {
          "indexed": false,
          "internalType": "uint64",
          "name": "param",
          "type": "uint64"
        },
        {
          "indexed": false,
          "internalType": "bytes32",
          "name": "what",
          "type": "bytes32"
        }
      ],
      "name": "FiledUint64",
      "type": "event"
    },
    {
      "anonymous": false,
      "inputs": [
        {
          "indexed": false,
          "internalType": "uint8",
          "name": "version",
          "type": "uint8"
        }
      ],
      "name": "Initialized",
      "type": "event"
    },
    {
      "anonymous": false,
      "inputs": [
        {
          "indexed": false,
          "internalType": "uint256",
          "name": "value",
          "type": "uint256"
        },
        {
          "indexed": false,
          "internalType": "uint256",
          "name": "timestamp",
          "type": "uint256"
        }
      ],
      "name": "InterestAccumulatorUpdated",
      "type": "event"
    },
    {
      "anonymous": false,
      "inputs": [
        {
          "indexed": false,
          "internalType": "uint256",
          "name": "vaultID",
          "type": "uint256"
        },
        {
          "indexed": false,
          "internalType": "uint256",
          "name": "internalAmount",
          "type": "uint256"
        },
        {
          "indexed": false,
          "internalType": "uint8",
          "name": "isIncrease",
          "type": "uint8"
        }
      ],
      "name": "InternalDebtUpdated",
      "type": "event"
    },
    {
      "anonymous": false,
      "inputs": [
        {
          "indexed": false,
          "internalType": "uint256[]",
          "name": "vaultIDs",
          "type": "uint256[]"
        }
      ],
      "name": "LiquidatedVaults",
      "type": "event"
    },
    {
      "anonymous": false,
      "inputs": [
        {
          "indexed": true,
          "internalType": "address",
          "name": "_veBoostProxy",
          "type": "address"
        },
        {
          "indexed": false,
          "internalType": "uint256[]",
          "name": "xBoost",
          "type": "uint256[]"
        },
        {
          "indexed": false,
          "internalType": "uint256[]",
          "name": "yBoost",
          "type": "uint256[]"
        }
      ],
      "name": "LiquidationBoostParametersUpdated",
      "type": "event"
    },
    {
      "anonymous": false,
      "inputs": [
        {
          "indexed": true,
          "internalType": "address",
          "name": "from",
          "type": "address"
        },
        {
          "indexed": true,
          "internalType": "address",
          "name": "to",
          "type": "address"
        },
        {
          "indexed": true,
          "internalType": "uint256",
          "name": "tokenId",
          "type": "uint256"
        }
      ],
      "name": "Transfer",
      "type": "event"
    },
    {
      "inputs": [],
      "name": "BASE_INTEREST",
      "outputs": [
        {
          "internalType": "uint256",
          "name": "",
          "type": "uint256"
        }
      ],
      "stateMutability": "view",
      "type": "function"
    },
    {
      "inputs": [],
      "name": "BASE_PARAMS",
      "outputs": [
        {
          "internalType": "uint256",
          "name": "",
          "type": "uint256"
        }
      ],
      "stateMutability": "view",
      "type": "function"
    },
    {
      "inputs": [],
      "name": "DOMAIN_SEPARATOR",
      "outputs": [
        {
          "internalType": "bytes32",
          "name": "",
          "type": "bytes32"
        }
      ],
      "stateMutability": "view",
      "type": "function"
    },
    {
      "inputs": [],
      "name": "HALF_BASE_INTEREST",
      "outputs": [
        {
          "internalType": "uint256",
          "name": "",
          "type": "uint256"
        }
      ],
      "stateMutability": "view",
      "type": "function"
    },
    {
      "inputs": [],
      "name": "accrueInterestToTreasury",
      "outputs": [
        {
          "internalType": "uint256",
          "name": "surplusValue",
          "type": "uint256"
        },
        {
          "internalType": "uint256",
          "name": "badDebtValue",
          "type": "uint256"
        }
      ],
      "stateMutability": "nonpayable",
      "type": "function"
    },
    {
      "inputs": [
        {
          "internalType": "enum ActionType[]",
          "name": "actions",
          "type": "uint8[]"
        },
        {
          "internalType": "bytes[]",
          "name": "datas",
          "type": "bytes[]"
        },
        {
          "internalType": "address",
          "name": "from",
          "type": "address"
        },
        {
          "internalType": "address",
          "name": "to",
          "type": "address"
        }
      ],
      "name": "angle",
      "outputs": [
        {
          "components": [
            {
              "internalType": "uint256",
              "name": "stablecoinAmountToGive",
              "type": "uint256"
            },
            {
              "internalType": "uint256",
              "name": "stablecoinAmountToReceive",
              "type": "uint256"
            },
            {
              "internalType": "uint256",
              "name": "collateralAmountToGive",
              "type": "uint256"
            },
            {
              "internalType": "uint256",
              "name": "collateralAmountToReceive",
              "type": "uint256"
            }
          ],
          "internalType": "struct PaymentData",
          "name": "",
          "type": "tuple"
        }
      ],
      "stateMutability": "nonpayable",
      "type": "function"
    },
    {
      "inputs": [
        {
          "internalType": "enum ActionType[]",
          "name": "actions",
          "type": "uint8[]"
        },
        {
          "internalType": "bytes[]",
          "name": "datas",
          "type": "bytes[]"
        },
        {
          "internalType": "address",
          "name": "from",
          "type": "address"
        },
        {
          "internalType": "address",
          "name": "to",
          "type": "address"
        },
        {
          "internalType": "address",
          "name": "who",
          "type": "address"
        },
        {
          "internalType": "bytes",
          "name": "repayData",
          "type": "bytes"
        }
      ],
      "name": "angle",
      "outputs": [
        {
          "components": [
            {
              "internalType": "uint256",
              "name": "stablecoinAmountToGive",
              "type": "uint256"
            },
            {
              "internalType": "uint256",
              "name": "stablecoinAmountToReceive",
              "type": "uint256"
            },
            {
              "internalType": "uint256",
              "name": "collateralAmountToGive",
              "type": "uint256"
            },
            {
              "internalType": "uint256",
              "name": "collateralAmountToReceive",
              "type": "uint256"
            }
          ],
          "internalType": "struct PaymentData",
          "name": "paymentData",
          "type": "tuple"
        }
      ],
      "stateMutability": "nonpayable",
      "type": "function"
    },
    {
      "inputs": [
        {
          "internalType": "address",
          "name": "to",
          "type": "address"
        },
        {
          "internalType": "uint256",
          "name": "vaultID",
          "type": "uint256"
        }
      ],
      "name": "approve",
      "outputs": [],
      "stateMutability": "nonpayable",
      "type": "function"
    },
    {
      "inputs": [],
      "name": "badDebt",
      "outputs": [
        {
          "internalType": "uint256",
          "name": "",
          "type": "uint256"
        }
      ],
      "stateMutability": "view",
      "type": "function"
    },
    {
      "inputs": [
        {
          "internalType": "address",
          "name": "owner",
          "type": "address"
        }
      ],
      "name": "balanceOf",
      "outputs": [
        {
          "internalType": "uint256",
          "name": "",
          "type": "uint256"
        }
      ],
      "stateMutability": "view",
      "type": "function"
    },
    {
      "inputs": [],
      "name": "borrowFee",
      "outputs": [
        {
          "internalType": "uint64",
          "name": "",
          "type": "uint64"
        }
      ],
      "stateMutability": "view",
      "type": "function"
    },
    {
      "inputs": [
        {
          "internalType": "uint256",
          "name": "vaultID",
          "type": "uint256"
        },
        {
          "internalType": "address",
          "name": "liquidator",
          "type": "address"
        }
      ],
      "name": "checkLiquidation",
      "outputs": [
        {
          "components": [
            {
              "internalType": "uint256",
              "name": "maxStablecoinAmountToRepay",
              "type": "uint256"
            },
            {
              "internalType": "uint256",
              "name": "maxCollateralAmountGiven",
              "type": "uint256"
            },
            {
              "internalType": "uint256",
              "name": "thresholdRepayAmount",
              "type": "uint256"
            },
            {
              "internalType": "uint256",
              "name": "discount",
              "type": "uint256"
            },
            {
              "internalType": "uint256",
              "name": "currentDebt",
              "type": "uint256"
            }
          ],
          "internalType": "struct LiquidationOpportunity",
          "name": "liqOpp",
          "type": "tuple"
        }
      ],
      "stateMutability": "view",
      "type": "function"
    },
    {
      "inputs": [],
      "name": "collateral",
      "outputs": [
        {
          "internalType": "contract IERC20",
          "name": "",
          "type": "address"
        }
      ],
      "stateMutability": "view",
      "type": "function"
    },
    {
      "inputs": [],
      "name": "collateralFactor",
      "outputs": [
        {
          "internalType": "uint64",
          "name": "",
          "type": "uint64"
        }
      ],
      "stateMutability": "view",
      "type": "function"
    },
    {
      "inputs": [
        {
          "internalType": "address",
          "name": "toVault",
          "type": "address"
        }
      ],
      "name": "createVault",
      "outputs": [
        {
          "internalType": "uint256",
          "name": "",
          "type": "uint256"
        }
      ],
      "stateMutability": "nonpayable",
      "type": "function"
    },
    {
      "inputs": [],
      "name": "debtCeiling",
      "outputs": [
        {
          "internalType": "uint256",
          "name": "",
          "type": "uint256"
        }
      ],
      "stateMutability": "view",
      "type": "function"
    },
    {
      "inputs": [],
      "name": "dust",
      "outputs": [
        {
          "internalType": "uint256",
          "name": "",
          "type": "uint256"
        }
      ],
      "stateMutability": "view",
      "type": "function"
    },
    {
      "inputs": [],
      "name": "dustLiquidation",
      "outputs": [
        {
          "internalType": "uint256",
          "name": "",
          "type": "uint256"
        }
      ],
      "stateMutability": "view",
      "type": "function"
    },
    {
      "inputs": [
        {
          "internalType": "uint256",
          "name": "vaultID",
          "type": "uint256"
        }
      ],
      "name": "getApproved",
      "outputs": [
        {
          "internalType": "address",
          "name": "",
          "type": "address"
        }
      ],
      "stateMutability": "view",
      "type": "function"
    },
    {
      "inputs": [
        {
          "internalType": "uint256",
          "name": "vaultID",
          "type": "uint256"
        },
        {
          "internalType": "uint256",
          "name": "stablecoinAmount",
          "type": "uint256"
        },
        {
          "internalType": "uint256",
          "name": "senderBorrowFee",
          "type": "uint256"
        },
        {
          "internalType": "uint256",
          "name": "senderRepayFee",
          "type": "uint256"
        }
      ],
      "name": "getDebtOut",
      "outputs": [],
      "stateMutability": "nonpayable",
      "type": "function"
    },
    {
      "inputs": [],
      "name": "getTotalDebt",
      "outputs": [
        {
          "internalType": "uint256",
          "name": "",
          "type": "uint256"
        }
      ],
      "stateMutability": "view",
      "type": "function"
    },
    {
      "inputs": [
        {
          "internalType": "uint256",
          "name": "vaultID",
          "type": "uint256"
        }
      ],
      "name": "getVaultDebt",
      "outputs": [
        {
          "internalType": "uint256",
          "name": "",
          "type": "uint256"
        }
      ],
      "stateMutability": "view",
      "type": "function"
    },
    {
      "inputs": [
        {
          "internalType": "contract ITreasury",
          "name": "_treasury",
          "type": "address"
        },
        {
          "internalType": "contract IERC20",
          "name": "_collateral",
          "type": "address"
        },
        {
          "internalType": "contract IOracle",
          "name": "_oracle",
          "type": "address"
        },
        {
          "components": [
            {
              "internalType": "uint256",
              "name": "debtCeiling",
              "type": "uint256"
            },
            {
              "internalType": "uint64",
              "name": "collateralFactor",
              "type": "uint64"
            },
            {
              "internalType": "uint64",
              "name": "targetHealthFactor",
              "type": "uint64"
            },
            {
              "internalType": "uint64",
              "name": "interestRate",
              "type": "uint64"
            },
            {
              "internalType": "uint64",
              "name": "liquidationSurcharge",
              "type": "uint64"
            },
            {
              "internalType": "uint64",
              "name": "maxLiquidationDiscount",
              "type": "uint64"
            },
            {
              "internalType": "bool",
              "name": "whitelistingActivated",
              "type": "bool"
            },
            {
              "internalType": "uint256",
              "name": "baseBoost",
              "type": "uint256"
            }
          ],
          "internalType": "struct VaultParameters",
          "name": "params",
          "type": "tuple"
        },
        {
          "internalType": "string",
          "name": "_symbol",
          "type": "string"
        }
      ],
      "name": "initialize",
      "outputs": [],
      "stateMutability": "nonpayable",
      "type": "function"
    },
    {
      "inputs": [],
      "name": "interestAccumulator",
      "outputs": [
        {
          "internalType": "uint256",
          "name": "",
          "type": "uint256"
        }
      ],
      "stateMutability": "view",
      "type": "function"
    },
    {
      "inputs": [],
      "name": "interestRate",
      "outputs": [
        {
          "internalType": "uint64",
          "name": "",
          "type": "uint64"
        }
      ],
      "stateMutability": "view",
      "type": "function"
    },
    {
      "inputs": [
        {
          "internalType": "address",
          "name": "owner",
          "type": "address"
        },
        {
          "internalType": "address",
          "name": "operator",
          "type": "address"
        }
      ],
      "name": "isApprovedForAll",
      "outputs": [
        {
          "internalType": "bool",
          "name": "",
          "type": "bool"
        }
      ],
      "stateMutability": "view",
      "type": "function"
    },
    {
      "inputs": [
        {
          "internalType": "address",
          "name": "spender",
          "type": "address"
        },
        {
          "internalType": "uint256",
          "name": "vaultID",
          "type": "uint256"
        }
      ],
      "name": "isApprovedOrOwner",
      "outputs": [
        {
          "internalType": "bool",
          "name": "",
          "type": "bool"
        }
      ],
      "stateMutability": "view",
      "type": "function"
    },
    {
      "inputs": [
        {
          "internalType": "address",
          "name": "",
          "type": "address"
        }
      ],
      "name": "isWhitelisted",
      "outputs": [
        {
          "internalType": "uint256",
          "name": "",
          "type": "uint256"
        }
      ],
      "stateMutability": "view",
      "type": "function"
    },
    {
      "inputs": [],
      "name": "lastInterestAccumulatorUpdated",
      "outputs": [
        {
          "internalType": "uint256",
          "name": "",
          "type": "uint256"
        }
      ],
      "stateMutability": "view",
      "type": "function"
    },
    {
      "inputs": [
        {
          "internalType": "uint256[]",
          "name": "vaultIDs",
          "type": "uint256[]"
        },
        {
          "internalType": "uint256[]",
          "name": "amounts",
          "type": "uint256[]"
        },
        {
          "internalType": "address",
          "name": "from",
          "type": "address"
        },
        {
          "internalType": "address",
          "name": "to",
          "type": "address"
        },
        {
          "internalType": "address",
          "name": "who",
          "type": "address"
        },
        {
          "internalType": "bytes",
          "name": "data",
          "type": "bytes"
        }
      ],
      "name": "liquidate",
      "outputs": [
        {
          "components": [
            {
              "internalType": "uint256",
              "name": "stablecoinAmountToReceive",
              "type": "uint256"
            },
            {
              "internalType": "uint256",
              "name": "collateralAmountToGive",
              "type": "uint256"
            },
            {
              "internalType": "uint256",
              "name": "badDebtFromLiquidation",
              "type": "uint256"
            },
            {
              "internalType": "uint256",
              "name": "oracleValue",
              "type": "uint256"
            },
            {
              "internalType": "uint256",
              "name": "newInterestAccumulator",
              "type": "uint256"
            }
          ],
          "internalType": "struct LiquidatorData",
          "name": "liqData",
          "type": "tuple"
        }
      ],
      "stateMutability": "nonpayable",
      "type": "function"
    },
    {
      "inputs": [
        {
          "internalType": "uint256[]",
          "name": "vaultIDs",
          "type": "uint256[]"
        },
        {
          "internalType": "uint256[]",
          "name": "amounts",
          "type": "uint256[]"
        },
        {
          "internalType": "address",
          "name": "from",
          "type": "address"
        },
        {
          "internalType": "address",
          "name": "to",
          "type": "address"
        }
      ],
      "name": "liquidate",
      "outputs": [
        {
          "components": [
            {
              "internalType": "uint256",
              "name": "stablecoinAmountToReceive",
              "type": "uint256"
            },
            {
              "internalType": "uint256",
              "name": "collateralAmountToGive",
              "type": "uint256"
            },
            {
              "internalType": "uint256",
              "name": "badDebtFromLiquidation",
              "type": "uint256"
            },
            {
              "internalType": "uint256",
              "name": "oracleValue",
              "type": "uint256"
            },
            {
              "internalType": "uint256",
              "name": "newInterestAccumulator",
              "type": "uint256"
            }
          ],
          "internalType": "struct LiquidatorData",
          "name": "",
          "type": "tuple"
        }
      ],
      "stateMutability": "nonpayable",
      "type": "function"
    },
    {
      "inputs": [],
      "name": "liquidationSurcharge",
      "outputs": [
        {
          "internalType": "uint64",
          "name": "",
          "type": "uint64"
        }
      ],
      "stateMutability": "view",
      "type": "function"
    },
    {
      "inputs": [],
      "name": "maxLiquidationDiscount",
      "outputs": [
        {
          "internalType": "uint64",
          "name": "",
          "type": "uint64"
        }
      ],
      "stateMutability": "view",
      "type": "function"
    },
    {
      "inputs": [],
      "name": "name",
      "outputs": [
        {
          "internalType": "string",
          "name": "",
          "type": "string"
        }
      ],
      "stateMutability": "view",
      "type": "function"
    },
    {
      "inputs": [
        {
          "internalType": "address",
          "name": "owner",
          "type": "address"
        }
      ],
      "name": "nonces",
      "outputs": [
        {
          "internalType": "uint256",
          "name": "",
          "type": "uint256"
        }
      ],
      "stateMutability": "view",
      "type": "function"
    },
    {
      "inputs": [],
      "name": "oracle",
      "outputs": [
        {
          "internalType": "contract IOracle",
          "name": "",
          "type": "address"
        }
      ],
      "stateMutability": "view",
      "type": "function"
    },
    {
      "inputs": [
        {
          "internalType": "uint256",
          "name": "vaultID",
          "type": "uint256"
        }
      ],
      "name": "ownerOf",
      "outputs": [
        {
          "internalType": "address",
          "name": "",
          "type": "address"
        }
      ],
      "stateMutability": "view",
      "type": "function"
    },
    {
      "inputs": [],
      "name": "paused",
      "outputs": [
        {
          "internalType": "bool",
          "name": "",
          "type": "bool"
        }
      ],
      "stateMutability": "view",
      "type": "function"
    },
    {
      "inputs": [
        {
          "internalType": "address",
          "name": "owner",
          "type": "address"
        },
        {
          "internalType": "address",
          "name": "spender",
          "type": "address"
        },
        {
          "internalType": "bool",
          "name": "approved",
          "type": "bool"
        },
        {
          "internalType": "uint256",
          "name": "deadline",
          "type": "uint256"
        },
        {
          "internalType": "uint8",
          "name": "v",
          "type": "uint8"
        },
        {
          "internalType": "bytes32",
          "name": "r",
          "type": "bytes32"
        },
        {
          "internalType": "bytes32",
          "name": "s",
          "type": "bytes32"
        }
      ],
      "name": "permit",
      "outputs": [],
      "stateMutability": "nonpayable",
      "type": "function"
    },
    {
      "inputs": [],
      "name": "repayFee",
      "outputs": [
        {
          "internalType": "uint64",
          "name": "",
          "type": "uint64"
        }
      ],
      "stateMutability": "view",
      "type": "function"
    },
    {
      "inputs": [
        {
          "internalType": "address",
          "name": "from",
          "type": "address"
        },
        {
          "internalType": "address",
          "name": "to",
          "type": "address"
        },
        {
          "internalType": "uint256",
          "name": "vaultID",
          "type": "uint256"
        }
      ],
      "name": "safeTransferFrom",
      "outputs": [],
      "stateMutability": "nonpayable",
      "type": "function"
    },
    {
      "inputs": [
        {
          "internalType": "address",
          "name": "from",
          "type": "address"
        },
        {
          "internalType": "address",
          "name": "to",
          "type": "address"
        },
        {
          "internalType": "uint256",
          "name": "vaultID",
          "type": "uint256"
        },
        {
          "internalType": "bytes",
          "name": "_data",
          "type": "bytes"
        }
      ],
      "name": "safeTransferFrom",
      "outputs": [],
      "stateMutability": "nonpayable",
      "type": "function"
    },
    {
      "inputs": [
        {
          "internalType": "address",
          "name": "operator",
          "type": "address"
        },
        {
          "internalType": "bool",
          "name": "approved",
          "type": "bool"
        }
      ],
      "name": "setApprovalForAll",
      "outputs": [],
      "stateMutability": "nonpayable",
      "type": "function"
    },
    {
      "inputs": [
        {
          "internalType": "string",
          "name": "baseURI_",
          "type": "string"
        }
      ],
      "name": "setBaseURI",
      "outputs": [],
      "stateMutability": "nonpayable",
      "type": "function"
    },
    {
      "inputs": [
        {
          "internalType": "uint256",
          "name": "_debtCeiling",
          "type": "uint256"
        }
      ],
      "name": "setDebtCeiling",
      "outputs": [],
      "stateMutability": "nonpayable",
      "type": "function"
    },
    {
      "inputs": [
        {
          "internalType": "uint256",
          "name": "_dust",
          "type": "uint256"
        },
        {
          "internalType": "uint256",
          "name": "_dustLiquidation",
          "type": "uint256"
        },
        {
          "internalType": "uint256",
          "name": "dustCollateral_",
          "type": "uint256"
        }
      ],
      "name": "setDusts",
      "outputs": [],
      "stateMutability": "nonpayable",
      "type": "function"
    },
    {
      "inputs": [
        {
          "internalType": "address",
          "name": "_veBoostProxy",
          "type": "address"
        },
        {
          "internalType": "uint256[]",
          "name": "xBoost",
          "type": "uint256[]"
        },
        {
          "internalType": "uint256[]",
          "name": "yBoost",
          "type": "uint256[]"
        }
      ],
      "name": "setLiquidationBoostParameters",
      "outputs": [],
      "stateMutability": "nonpayable",
      "type": "function"
    },
    {
      "inputs": [
        {
          "internalType": "address",
          "name": "_oracle",
          "type": "address"
        }
      ],
      "name": "setOracle",
      "outputs": [],
      "stateMutability": "nonpayable",
      "type": "function"
    },
    {
      "inputs": [
        {
          "internalType": "address",
          "name": "_treasury",
          "type": "address"
        }
      ],
      "name": "setTreasury",
      "outputs": [],
      "stateMutability": "nonpayable",
      "type": "function"
    },
    {
      "inputs": [
        {
          "internalType": "uint64",
          "name": "param",
          "type": "uint64"
        },
        {
          "internalType": "bytes32",
          "name": "what",
          "type": "bytes32"
        }
      ],
      "name": "setUint64",
      "outputs": [],
      "stateMutability": "nonpayable",
      "type": "function"
    },
    {
      "inputs": [],
      "name": "stablecoin",
      "outputs": [
        {
          "internalType": "contract IAgToken",
          "name": "",
          "type": "address"
        }
      ],
      "stateMutability": "view",
      "type": "function"
    },
    {
      "inputs": [
        {
          "internalType": "bytes4",
          "name": "interfaceId",
          "type": "bytes4"
        }
      ],
      "name": "supportsInterface",
      "outputs": [
        {
          "internalType": "bool",
          "name": "",
          "type": "bool"
        }
      ],
      "stateMutability": "pure",
      "type": "function"
    },
    {
      "inputs": [],
      "name": "surplus",
      "outputs": [
        {
          "internalType": "uint256",
          "name": "",
          "type": "uint256"
        }
      ],
      "stateMutability": "view",
      "type": "function"
    },
    {
      "inputs": [],
      "name": "symbol",
      "outputs": [
        {
          "internalType": "string",
          "name": "",
          "type": "string"
        }
      ],
      "stateMutability": "view",
      "type": "function"
    },
    {
      "inputs": [],
      "name": "targetHealthFactor",
      "outputs": [
        {
          "internalType": "uint64",
          "name": "",
          "type": "uint64"
        }
      ],
      "stateMutability": "view",
      "type": "function"
    },
    {
      "inputs": [],
      "name": "togglePause",
      "outputs": [],
      "stateMutability": "nonpayable",
      "type": "function"
    },
    {
      "inputs": [
        {
          "internalType": "address",
          "name": "target",
          "type": "address"
        }
      ],
      "name": "toggleWhitelist",
      "outputs": [],
      "stateMutability": "nonpayable",
      "type": "function"
    },
    {
      "inputs": [
        {
          "internalType": "uint256",
          "name": "vaultID",
          "type": "uint256"
        }
      ],
      "name": "tokenURI",
      "outputs": [
        {
          "internalType": "string",
          "name": "",
          "type": "string"
        }
      ],
      "stateMutability": "view",
      "type": "function"
    },
    {
      "inputs": [],
      "name": "totalNormalizedDebt",
      "outputs": [
        {
          "internalType": "uint256",
          "name": "",
          "type": "uint256"
        }
      ],
      "stateMutability": "view",
      "type": "function"
    },
    {
      "inputs": [
        {
          "internalType": "address",
          "name": "from",
          "type": "address"
        },
        {
          "internalType": "address",
          "name": "to",
          "type": "address"
        },
        {
          "internalType": "uint256",
          "name": "vaultID",
          "type": "uint256"
        }
      ],
      "name": "transferFrom",
      "outputs": [],
      "stateMutability": "nonpayable",
      "type": "function"
    },
    {
      "inputs": [],
      "name": "treasury",
      "outputs": [
        {
          "internalType": "contract ITreasury",
          "name": "",
          "type": "address"
        }
      ],
      "stateMutability": "view",
      "type": "function"
    },
    {
      "inputs": [
        {
          "internalType": "uint256",
          "name": "",
          "type": "uint256"
        }
      ],
      "name": "vaultData",
      "outputs": [
        {
          "internalType": "uint256",
          "name": "collateralAmount",
          "type": "uint256"
        },
        {
          "internalType": "uint256",
          "name": "normalizedDebt",
          "type": "uint256"
        }
      ],
      "stateMutability": "view",
      "type": "function"
    },
    {
      "inputs": [],
      "name": "vaultIDCount",
      "outputs": [
        {
          "internalType": "uint256",
          "name": "",
          "type": "uint256"
        }
      ],
      "stateMutability": "view",
      "type": "function"
    },
    {
      "inputs": [],
      "name": "veBoostProxy",
      "outputs": [
        {
          "internalType": "contract IVeBoostProxy",
          "name": "",
          "type": "address"
        }
      ],
      "stateMutability": "view",
      "type": "function"
    },
    {
      "inputs": [],
      "name": "whitelistingActivated",
      "outputs": [
        {
          "internalType": "bool",
          "name": "",
          "type": "bool"
        }
      ],
      "stateMutability": "view",
      "type": "function"
    },
    {
      "inputs": [
        {
          "internalType": "uint256",
          "name": "",
          "type": "uint256"
        }
      ],
      "name": "xLiquidationBoost",
      "outputs": [
        {
          "internalType": "uint256",
          "name": "",
          "type": "uint256"
        }
      ],
      "stateMutability": "view",
      "type": "function"
    },
    {
      "inputs": [
        {
          "internalType": "uint256",
          "name": "",
          "type": "uint256"
        }
      ],
      "name": "yLiquidationBoost",
      "outputs": [
        {
          "internalType": "uint256",
          "name": "",
          "type": "uint256"
        }
      ],
      "stateMutability": "view",
      "type": "function"
    }
  ],
  "transactionHash": "0xc46f84c26e2dad9e72b3a79201cfd73117f7fb8282c6297a5072968c472c3056",
  "args": [],
  "numDeployments": 1,
  "solcInputHash": "03f0adfd447d71396b30d5cf988c2b53",
  "bytecode": "0x60806040523480156200001157600080fd5b50600054610100900460ff1615808015620000335750600054600160ff909116105b8062000063575062000050306200013d60201b620033911760201c565b15801562000063575060005460ff166001145b620000cb5760405162461bcd60e51b815260206004820152602e60248201527f496e697469616c697a61626c653a20636f6e747261637420697320616c72656160448201526d191e481a5b9a5d1a585b1a5e995960921b606482015260840160405180910390fd5b6000805460ff191660011790558015620000ef576000805461ff0019166101001790555b801562000136576000805461ff0019169055604051600181527f7f26b83ff96e1f2b6a682f133852f6798a09c465da95921460cefb38474024989060200160405180910390a15b506200014c565b6001600160a01b03163b151590565b615f85806200015c6000396000f3fe608060405234801561001057600080fd5b50600436106103015760003560e01c8063010db1951461030657806301ffc9a71461032f57806306fdde0314610352578063081812fc14610367578063087a60071461037a578063095ea7b3146103915780630e198f22146103a657806313888565146103af57806323b872dd146103b8578063254cf439146103cb578063307439af146103fd57806334ce998a1461041d57806335836f15146104255780633644e5151461043857806339393ac91461044057806339eb4dc6146104535780633ae2325f146104675780633af32abf1461047a5780633c2e941b1461049a57806342842e0e146104a3578063430c2081146104b65780634f7e43df146104c957806355f804b3146104e35780635c975abb146104f657806361d027b31461050a5780636352211e1461051d57806370a082311461053057806374107543146105435780637aacfffa146105565780637adbf973146105925780637c0f59f4146105a55780637c3a00fd146105bf5780637dc0d1d0146105d25780637e53bd97146105e55780637e56d47c146105f85780637ecebe001461060b578063835986b41461063457806389050f1d1461064757806395d89b41146106595780639a3b6f2f146106615780639f48118f146106a7578063a22cb465146106b2578063af2c8c2e146106c5578063b1511cc9146106ce578063b4bd6f46146106e1578063b88d4fde146106f4578063bbcac55714610707578063bfc7ad2e14610710578063c13cacae14610719578063c4ae31681461072c578063c66d8b0114610734578063c87b56dd1461074e578063d8dfeb4514610761578063d9b1cb5b14610774578063de1f776514610787578063de8fc69814610799578063df011c41146107ac578063e182b883146107bf578063e1c84ea4146107d2578063e626648a146107db578063e985e9c5146107f5578063e9cbd82214610808578063f0f442601461081b578063f51cc7dd1461082e578063fad9aba314610841578063fc29b0211461084a578063fd527cf81461085d575b600080fd5b603754610319906001600160a01b031681565b6040516103269190614f2f565b60405180910390f35b61034261033d366004614f59565b610865565b6040519015158152602001610326565b61035a6108d2565b6040516103269190614fce565b610319610375366004614fe1565b610960565b610383603f5481565b604051908152602001610326565b6103a461039f36600461500f565b610991565b005b610383603e5481565b61038360415481565b6103a46103c636600461503b565b610a1e565b603c546103e590600160401b90046001600160401b031681565b6040516001600160401b039091168152602001610326565b61041061040b36600461507c565b610a59565b60405161032691906150ac565b610383610b0b565b610383610433366004614fe1565b610b3d565b610383610b79565b6103a461044e3660046150e5565b610b83565b603d5461034290600160c01b900460ff1681565b610383610475366004614fe1565b610c83565b6103836104883660046150e5565b60446020526000908152604090205481565b61038360455481565b6103a46104b136600461503b565b610ca4565b6103426104c436600461500f565b610cbf565b603d546103e590600160801b90046001600160401b031681565b6103a46104f13660046151b7565b610ccb565b603d5461034290600160c81b900460ff1681565b603354610319906001600160a01b031681565b61031961052b366004614fe1565b610d70565b61038361053e3660046150e5565b610d7b565b6103a4610551366004615202565b610dc0565b61057d610564366004614fe1565b6043602052600090815260409020805460019091015482565b60408051928352602083019190915201610326565b6103a46105a03660046150e5565b61118c565b603c546103e590600160c01b90046001600160401b031681565b603d546103e5906001600160401b031681565b603654610319906001600160a01b031681565b6103a46105f33660046152ac565b6112d3565b610410610606366004615321565b6114c4565b6103836106193660046150e5565b6001600160a01b03166000908152607f602052604090205490565b6103a46106423660046153e5565b611a71565b610383676765c793fa10079d601a1b81565b61035a611c29565b61067461066f3660046154ff565b611c36565b60405161032691908151815260208083015190820152604080830151908201526060918201519181019190915260800190565b610383633b9aca0081565b6103a46106c0366004615595565b611c6b565b61038360405481565b6103a46106dc366004614fe1565b611c76565b6103836106ef3660046150e5565b611d3f565b6103a46107023660046155c3565b611d7b565b61038360425481565b61038360b65481565b6103a461072736600461562e565b611db8565b6103a4611e75565b603d546103e590600160401b90046001600160401b031681565b61035a61075c366004614fe1565b611f24565b603454610319906001600160a01b031681565b6103a461078236600461565a565b612079565b610383676765c793fa10079d601b1b81565b6106746107a73660046156ee565b612624565b603c546103e5906001600160401b031681565b6103836107cd366004614fe1565b612eab565b61038360395481565b603c546103e590600160801b90046001600160401b031681565b61034261080336600461574c565b612ebb565b603554610319906001600160a01b031681565b6103a46108293660046150e5565b612ee9565b6103a461083c366004615789565b612f89565b61038360b45481565b610410610858366004615803565b613248565b61057d613272565b60006001600160e01b03198216635b5e139f60e01b148061089657506001600160e01b031982166380ac58cd60e01b145b806108b157506001600160e01b0319821663430c208160e01b145b806108cc57506001600160e01b031982166301ffc9a760e01b145b92915050565b607d80546108df9061585f565b80601f016020809104026020016040519081016040528092919081815260200182805461090b9061585f565b80156109585780601f1061092d57610100808354040283529160200191610958565b820191906000526020600020905b81548152906001019060200180831161093b57829003601f168201915b505050505081565b600061096b826133a0565b6109885760405163062a39dd60e11b815260040160405180910390fd5b6108cc826133bd565b600061099c826133d8565b9050806001600160a01b0316836001600160a01b031614156109d1576040516349fa8bc360e11b815260040160405180910390fd5b336001600160a01b038216148015906109f157506109ef8133612ebb565b155b15610a0f5760405163c19f17a960e01b815260040160405180910390fd5b610a19838361340e565b505050565b3381610a2a828261347c565b610a475760405163c19f17a960e01b815260040160405180910390fd5b610a528585856134fa565b5050505050565b610a61614e05565b60008381526043602090815260409182902082518084018452815481526001909101548183015260365483516315f789a960e21b81529351610b0494929387936001600160a01b03909316926357de26a492600480830193928290030181865afa158015610ad3573d6000803e3d6000fd5b505050506040513d601f19601f82011682018060405250810190610af79190615894565b610aff613621565b6137b6565b9392505050565b6000676765c793fa10079d601b1b610b21613621565b604054610b2e91906158c3565b610b3891906158f8565b905090565b6000676765c793fa10079d601b1b610b53613621565b600084815260436020526040902060010154610b6f91906158c3565b6108cc91906158f8565b6000610b38613b1f565b603354604051631c86b03760e31b81526001600160a01b039091169063e43581b890610bb3903390600401614f2f565b602060405180830381865afa158015610bd0573d6000803e3d6000fd5b505050506040513d601f19601f82011682018060405250810190610bf4919061590c565b610c1157604051633b8d9d7560e21b815260040160405180910390fd5b6001600160a01b03811615610c60576001600160a01b038116600090815260446020526040902054610c44906001615929565b6001600160a01b03821660009081526044602052604090205550565b603d805460ff60c01b198116600160c01b9182900460ff16159091021790555b50565b603b8181548110610c9357600080fd5b600091825260209091200154905081565b610a1983838360405180602001604052806000815250611d7b565b6000610b04838361347c565b60335460405163521d4de960e01b81526001600160a01b039091169063521d4de990610cfb903390600401614f2f565b602060405180830381865afa158015610d18573d6000803e3d6000fd5b505050506040513d601f19601f82011682018060405250810190610d3c919061590c565b610d5957604051632678482f60e21b815260040160405180910390fd5b8051610d6c906046906020840190614e34565b5050565b60006108cc826133d8565b60006001600160a01b038216610da45760405163d92e233d60e01b815260040160405180910390fd5b506001600160a01b031660009081526048602052604090205490565b60335460405163521d4de960e01b81526001600160a01b039091169063521d4de990610df0903390600401614f2f565b602060405180830381865afa158015610e0d573d6000803e3d6000fd5b505050506040513d601f19601f82011682018060405250810190610e31919061590c565b610e4e57604051632678482f60e21b815260040160405180910390fd5b806121a360f11b1415610eb257603d546001600160401b03600160401b90910481169083161115610e9257604051637650e96360e11b815260040160405180910390fd5b603c80546001600160401b0319166001600160401b038416179055611145565b80622a242360e91b1415610f1757633b9aca00826001600160401b03161015610eee5760405163da6a17b960e01b815260040160405180910390fd5b603c8054600160401b600160801b031916600160401b6001600160401b03851602179055611145565b8061212360f11b1415610f7b57633b9aca00826001600160401b03161115610f5257604051637650e96360e11b815260040160405180910390fd5b603c8054600160801b600160c01b031916600160801b6001600160401b03851602179055611145565b8061292360f11b1415610ff857603d54633b9aca0090610fab90600160401b90046001600160401b031684615940565b6001600160401b03161115610fd357604051637650e96360e11b815260040160405180910390fd5b603c80546001600160c01b0316600160c01b6001600160401b03851602179055611145565b806124a960f11b141561102e5761100d613b8b565b50603d80546001600160401b0319166001600160401b038416179055611145565b80614c5360f01b14156110c757603c546001600160401b03808416911611806110805750603c54633b9aca009061107590600160c01b90046001600160401b031684615940565b6001600160401b0316115b1561109e5760405163180d062b60e31b815260040160405180910390fd5b603d8054600160401b600160801b031916600160401b6001600160401b03851602179055611145565b806213531160ea1b141561112c57633b9aca00826001600160401b0316111561110357604051637650e96360e11b815260040160405180910390fd5b603d8054600160801b600160c01b031916600160801b6001600160401b03851602179055611145565b60405163e1daa9cf60e01b815260040160405180910390fd5b604080516001600160401b0384168152602081018390527f13b367dac93b85d1ed9b3d8961d8b48e1a677c9800bb1613b4b0416b2d5b61d091015b60405180910390a15050565b603354604051631c86b03760e31b81526001600160a01b039091169063e43581b8906111bc903390600401614f2f565b602060405180830381865afa1580156111d9573d6000803e3d6000fd5b505050506040513d601f19601f820116820180604052508101906111fd919061590c565b61121a57604051633b8d9d7560e21b815260040160405180910390fd5b603354604080516361d027b360e01b815290516001600160a01b03928316928416916361d027b39160048083019260209291908290030181865afa158015611266573d6000803e3d6000fd5b505050506040513d601f19601f8201168201806040525081019061128a919061596b565b6001600160a01b0316146112b1576040516302979eb960e31b815260040160405180910390fd5b603680546001600160a01b0319166001600160a01b0392909216919091179055565b60335460405163521d4de960e01b81526001600160a01b039091169063521d4de990611303903390600401614f2f565b602060405180830381865afa158015611320573d6000803e3d6000fd5b505050506040513d601f19601f82011682018060405250810190611344919061590c565b61136157604051632678482f60e21b815260040160405180910390fd5b8051825114158061138c57508060008151811061138057611380615988565b60200260200101516000145b8061141b57506001600160a01b0383161580159061141b5750816000815181106113b8576113b8615988565b6020026020010151826001815181106113d3576113d3615988565b602002602001015111158061141b5750806000815181106113f6576113f6615988565b60200260200101518160018151811061141157611411615988565b6020026020010151105b1561143957604051631746545d60e11b815260040160405180910390fd5b603780546001600160a01b0319166001600160a01b038516179055815161146790603a906020850190614eb8565b50805161147b90603b906020840190614eb8565b50826001600160a01b03167feb74d4d9fea592587c926aeb35eb6a7893fb28db0c1c8eb2eb3c586e7164b76c83836040516114b79291906159d9565b60405180910390a2505050565b6114cc614e05565b603d54600160c81b900460ff16156114f7576040516313d0ff5960e31b815260040160405180910390fd5b600260015414156115235760405162461bcd60e51b815260040161151a906159fe565b60405180910390fd5b60026001558651865181141580611538575080155b15611556576040516346282e8d60e01b815260040160405180910390fd5b603660009054906101000a90046001600160a01b03166001600160a01b03166357de26a46040518163ffffffff1660e01b8152600401602060405180830381865afa1580156115a9573d6000803e3d6000fd5b505050506040513d601f19601f820116820180604052508101906115cd9190615894565b60608301526115da613b8b565b60808301526040517f965a177723c641ee49150b583a0b9ad4730bb20d3474e00ae5a65e777c00d67b9061160f908a90615a35565b60405180910390a160005b818110156119e1576000604360008b848151811061163a5761163a615988565b6020026020010151815260200190815260200160002060405180604001604052908160008201548152602001600182015481525050905060006116878233876060015188608001516137b6565b905080604001516000141580156116bb575080604001518a84815181106116b0576116b0615988565b602002602001015110155b806116e2575080600001518a84815181106116d8576116d8615988565b6020026020010151115b1561170b5780600001518a84815181106116fe576116fe615988565b6020026020010181815250505b60008560600151826060015161172191906158c3565b603854633b9aca008d878151811061173b5761173b615988565b602002602001015161174d91906158c3565b61175791906158c3565b61176191906158f8565b905061178f8c858151811061177857611778615988565b60200260200101518285600001511115610c805750565b825181106118c5575081516020830151604080546000906117b1908490615929565b92505081905550604360008d86815181106117ce576117ce615988565b60209081029190910181015182528101919091526040016000908120818155600101819055603d548c51633b9aca0091600160401b90046001600160401b0316908e908890811061182157611821615988565b602002602001015161183391906158c3565b61183d91906158f8565b905082608001518110611851576000611861565b8083608001516118619190615929565b876040018181516118729190615a48565b905250508b51600080516020615ef0833981519152908d908690811061189a5761189a615988565b6020026020010151846020015160006040516118b893929190615a60565b60405180910390a1611986565b80604360008e87815181106118dc576118dc615988565b6020026020010151815260200190815260200160002060000160008282546119049190615929565b925050819055506119848c858151811061192057611920615988565b6020026020010151633b9aca00603d60089054906101000a90046001600160401b03166001600160401b03168e888151811061195e5761195e615988565b602002602001015161197091906158c3565b61197a91906158f8565b8860800151613c2c565b505b80866020018181516119989190615a48565b9052508a518b90859081106119af576119af615988565b6020026020010151866000018181516119c89190615a48565b9052506119da9250839150615a799050565b905061161a565b50603d54633b9aca0090611a0590600160401b90046001600160401b031682615929565b8351611a1191906158c3565b611a1b91906158f8565b60416000828254611a2c9190615a48565b9091555050604082015160428054600090611a48908490615a48565b909155505060208201518251611a62919088888888613d5b565b50600180559695505050505050565b603d54600160c81b900460ff1615611a9c576040516313d0ff5960e31b815260040160405180910390fd5b6033546040516333b52a9f60e11b81526001600160a01b039091169063676a553e90611acc903390600401614f2f565b602060405180830381865afa158015611ae9573d6000803e3d6000fd5b505050506040513d601f19601f82011682018060405250810190611b0d919061590c565b611b2a5760405163027f480760e01b815260040160405180910390fd5b603c54600090600160c01b90046001600160401b0316821015611b6857603c54611b65908390600160c01b90046001600160401b0316615929565b90505b603c54600090600160801b90046001600160401b0316841115611ba557603c54611ba290600160801b90046001600160401b031685615929565b90505b6000611bb66002633b9aca00615b78565b611bc483633b9aca00615929565b611bd285633b9aca00615929565b611bdc90896158c3565b611be691906158c3565b611bf091906158f8565b9050611bfc8187615929565b60416000828254611c0d9190615a48565b90915550611c1f905087826000613c2c565b5050505050505050565b607e80546108df9061585f565b611c3e614ef2565b60408051600080825260208201909252611c6091879187918791879190612624565b90505b949350505050565b610d6c338383613e65565b60335460405163521d4de960e01b81526001600160a01b039091169063521d4de990611ca6903390600401614f2f565b602060405180830381865afa158015611cc3573d6000803e3d6000fd5b505050506040513d601f19601f82011682018060405250810190611ce7919061590c565b611d0457604051632678482f60e21b815260040160405180910390fd5b60398190556040518181527fdd63b3dcdbebad734892f7c7a26d0f647fbc7eec973e0775f5229018ac4ab47a9060200160405180910390a150565b603d54600090600160c81b900460ff1615611d6d576040516313d0ff5960e31b815260040160405180910390fd5b6108cc82613f1b565b919050565b3382611d87828261347c565b611da45760405163c19f17a960e01b815260040160405180910390fd5b611db086868686614049565b505050505050565b603354604051631c86b03760e31b81526001600160a01b039091169063e43581b890611de8903390600401614f2f565b602060405180830381865afa158015611e05573d6000803e3d6000fd5b505050506040513d601f19601f82011682018060405250810190611e29919061590c565b611e4657604051633b8d9d7560e21b815260040160405180910390fd5b81831115611e675760405163180d062b60e31b815260040160405180910390fd5b60b49290925560b65560b555565b60335460405163521d4de960e01b81526001600160a01b039091169063521d4de990611ea5903390600401614f2f565b602060405180830381865afa158015611ec2573d6000803e3d6000fd5b505050506040513d601f19601f82011682018060405250810190611ee6919061590c565b611f0357604051632678482f60e21b815260040160405180910390fd5b603d805460ff60c81b198116600160c81b9182900460ff1615909102179055565b6060611f2f826133a0565b611f4c5760405163062a39dd60e11b815260040160405180910390fd5b8160005b8115611f7357611f5f81615a79565b9050611f6c600a836158f8565b9150611f50565b6000816001600160401b03811115611f8d57611f8d615102565b6040519080825280601f01601f191660200182016040528015611fb7576020820181803683370190505b5090505b841561202257611fcc600183615929565b9150611fd9600a86615b87565b611fe4906030615a48565b60f81b818381518110611ff957611ff9615988565b60200101906001600160f81b031916908160001a90535061201b600a866158f8565b9450611fbb565b6046805461202f9061585f565b1515905061204c5760405180602001604052806000815250612070565b604681604051602001612060929190615bb7565b6040516020818303038152906040525b95945050505050565b600054610100900460ff16158080156120995750600054600160ff909116105b806120ba57506120a830613391565b1580156120ba575060005460ff166001145b61211d5760405162461bcd60e51b815260206004820152602e60248201527f496e697469616c697a61626c653a20636f6e747261637420697320616c72656160448201526d191e481a5b9a5d1a585b1a5e995960921b606482015260840161151a565b6000805460ff191660011790558015612140576000805461ff0019166101001790555b856001600160a01b0316846001600160a01b03166361d027b36040518163ffffffff1660e01b8152600401602060405180830381865afa158015612188573d6000803e3d6000fd5b505050506040513d601f19601f820116820180604052508101906121ac919061596b565b6001600160a01b0316146121d3576040516302979eb960e31b815260040160405180910390fd5b603380546001600160a01b038089166001600160a01b0319928316179092556034805492881692909116821790556040805163313ce56760e01b8152905163313ce567916004808201926020929091908290030181865afa15801561223c573d6000803e3d6000fd5b505050506040513d601f19601f820116820180604052508101906122609190615c55565b61226b90600a615b78565b603881905550856001600160a01b031663e9cbd8226040518163ffffffff1660e01b8152600401602060405180830381865afa1580156122af573d6000803e3d6000fd5b505050506040513d601f19601f820116820180604052508101906122d3919061596b565b603580546001600160a01b03199081166001600160a01b039384161790915560368054909116918616919091179055604051600090612316908490602001615c72565b60408051601f19818403018152919052805190915061233c90607d906020840190614e34565b5061234681614083565b826040516020016123579190615cb9565b604051602081830303815290604052607e908051906020019061237b929190614e34565b50676765c793fa10079d601b1b603f5542603e5561239f60a0850160808601615ce3565b6001600160401b03166123b86040860160208701615ce3565b6001600160401b031611806123e85750633b9aca006123dd60a0860160808701615ce3565b6001600160401b0316115b8061240e57506123fe6060850160408601615ce3565b6001600160401b0316633b9aca00115b806124355750633b9aca0061242960c0860160a08701615ce3565b6001600160401b031610155b80612442575060e0840135155b1561246057604051631746545d60e11b815260040160405180910390fd5b83356039556124756040850160208601615ce3565b603c80546001600160401b0319166001600160401b03929092169190911790556124a56060850160408601615ce3565b603c80546001600160401b0392909216600160401b02600160401b600160801b03199092169190911790556124e06080850160608601615ce3565b603d80546001600160401b0319166001600160401b039290921691909117905561251060a0850160808601615ce3565b603d80546001600160401b0392909216600160401b02600160401b600160801b031990921691909117905561254b60c0850160a08601615ce3565b603d80546001600160401b0392909216600160801b02600160801b600160c01b031990921691909117905561258660e0850160c08601615cfe565b603d8054911515600160c01b0260ff60c01b19909216919091179055604080516020810190915260e085013581526125c290603b906001614eb8565b5050603d805460ff60c81b1916600160c81b1790558015611db0576000805461ff0019169055604051600181527f7f26b83ff96e1f2b6a682f133852f6798a09c465da95921460cefb38474024989060200160405180910390a1505050505050565b61262c614ef2565b603d54600160c81b900460ff1615612657576040516313d0ff5960e31b815260040160405180910390fd5b6002600154141561267a5760405162461bcd60e51b815260040161151a906159fe565b60026001558551875114158061268f57508651155b156126ad576040516346282e8d60e01b815260040160405180910390fd5b6000806000806000805b8c51811015612c145760008d82815181106126d4576126d4615988565b60200260200101519050600060078111156126f1576126f1615d1b565b81600781111561270357612703615d1b565b14156127445761273e8d838151811061271e5761271e615988565b6020026020010151806020019051810190612739919061596b565b613f1b565b50612c03565b600281600781111561275857612758615d1b565b14156127be578c828151811061277057612770615988565b602002602001015180602001905181019061278b9190615d31565b955092508261279a5760455492505b6127a48386614159565b84886060018181516127b69190615a48565b905250612c03565b60078160078111156127d2576127d2615d1b565b14156128ab5760008060008f85815181106127ef576127ef615988565b602002602001015180602001905181019061280a9190615d55565b60345460405163d505accf60e01b81526001600160a01b038089166004830152306024830152604482018890526064820187905260ff8616608483015260a4820185905260c48201849052969f50939d50939b509497509550929350169063d505accf9060e401600060405180830381600087803b15801561288b57600080fd5b505af115801561289f573d6000803e3d6000fd5b50505050505050612c03565b866128bb576128b8613b8b565b96505b60048160078111156128cf576128cf615d1b565b141561299b578c82815181106128e7576128e7615988565b60200260200101518060200190518101906129029190615d31565b94509250826129115760455492505b61291c838589613c2c565b603c5490945060009061294390600160c01b90046001600160401b0316633b9aca00615929565b612951633b9aca00876158c3565b61295b91906158f8565b90506129678582615929565b604160008282546129789190615a48565b9250508190555080896020018181516129919190615a48565b905250612c039050565b85612a1a57603660009054906101000a90046001600160a01b03166001600160a01b03166357de26a46040518163ffffffff1660e01b8152600401602060405180830381865afa1580156129f3573d6000803e3d6000fd5b505050506040513d601f19601f82011682018060405250810190612a179190615894565b95505b6001816007811115612a2e57612a2e615d1b565b1415612aaa578c8281518110612a4657612a46615988565b6020026020010151806020019051810190612a619190615894565b925082612a6e5760455492505b612a798387896141c5565b80965081955050508488604001818151612a939190615a48565b9052506020880180518591906127b6908390615a48565b6003816007811115612abe57612abe615d1b565b1415612b1e578c8281518110612ad657612ad6615988565b6020026020010151806020019051810190612af19190615d31565b9550925082612b005760455492505b612b0c8386888a6142e5565b84886040018181516127b69190615a48565b6005816007811115612b3257612b32615d1b565b1415612b94578c8281518110612b4a57612b4a615988565b6020026020010151806020019051810190612b659190615d31565b9450925082612b745760455492505b612b808385888a6143bf565b935083886000018181516127b69190615a48565b6006816007811115612ba857612ba8615d1b565b1415612c03576000808e8481518110612bc357612bc3615988565b6020026020010151806020019051810190612bde9190615da8565b98509196509250905084612bf25760455494505b612c00858383898c8e61445a565b50505b50612c0d81615a79565b90506126b7565b508551602087015110612d0b5785516020870151600091612c3491615929565b90508660600151876040015110612c6b57612c6687606001518860400151612c5c9190615929565b828d8d8d8d613d5b565b612d05565b8015612cd857603554604051630d43af8160e21b81526001600160a01b039091169063350ebe0490612ca59084908f903390600401615de6565b600060405180830381600087803b158015612cbf57600080fd5b505af1158015612cd3573d6000803e3d6000fd5b505050505b612d05333089604001518a60600151612cf19190615929565b6034546001600160a01b0316929190614596565b50612e97565b60208601518651600091612d1e91615929565b6035546040516340c10f1960e01b81529192506001600160a01b0316906340c10f1990612d51908d908590600401615e05565b600060405180830381600087803b158015612d6b57600080fd5b505af1158015612d7f573d6000803e3d6000fd5b50505050866060015187604001511115612dc357612dbe8a88606001518960400151612dab9190615929565b6034546001600160a01b03169190614601565b612e95565b600087604001518860600151612dd99190615929565b90508015612e9357885115612e7b57896001600160a01b031663a5d4096b603560009054906101000a90046001600160a01b0316603460009054906101000a90046001600160a01b03163385878f6040518763ffffffff1660e01b8152600401612e4896959493929190615e1e565b600060405180830381600087803b158015612e6257600080fd5b505af1158015612e76573d6000803e3d6000fd5b505050505b603454612e93906001600160a01b0316333084614596565b505b505b505060018055509198975050505050505050565b603a8181548110610c9357600080fd5b6001600160a01b039182166000908152604a6020908152604080832093909416825291909152205460011490565b6033546001600160a01b03163314612f145760405163b90cdbb160e01b815260040160405180910390fd5b603380546001600160a01b0319166001600160a01b0383811691909117909155603654604051630787a21360e51b815291169063f0f4426090612f5b908490600401614f2f565b600060405180830381600087803b158015612f7557600080fd5b505af1158015610a52573d6000803e3d6000fd5b83421115612faa5760405163f87d927160e01b815260040160405180910390fd5b6fa2a8918ca85bafe22016d0b997e4df60600160ff1b03811180612fe157508260ff16601b14158015612fe157508260ff16601c14155b15612fff57604051638baa579f60e01b815260040160405180910390fd5b6000613009613b1f565b6082548989896130188d614620565b6040805160208101969096526001600160a01b03948516908601529290911660608401521515608083015260a082015260c0810187905260e0016040516020818303038152906040528051906020012060405160200161308f92919061190160f01b81526002810192909252602282015260420190565b6040516020818303038152906040528051906020012090506130b9886001600160a01b0316613391565b1561319557604080516020810185905280820184905260f886901b6001600160f81b0319166060820152815160418183030181526061820192839052630b135d3f60e11b9092526001600160a01b038a1691631626ba7e9161311f918591606501615e60565b602060405180830381865afa15801561313c573d6000803e3d6000fd5b505050506040513d601f19601f820116820180604052508101906131609190615e79565b6001600160e01b031916631626ba7e60e01b1461319057604051638baa579f60e01b815260040160405180910390fd5b61323d565b6040805160008082526020820180845284905260ff871692820192909252606081018590526080810184905260019060a0016020604051602081039080840390855afa1580156131e9573d6000803e3d6000fd5b505050602060405103519050886001600160a01b0316816001600160a01b031614158061321d57506001600160a01b038116155b1561323b57604051638baa579f60e01b815260040160405180910390fd5b505b611c1f888888613e65565b613250614e05565b60408051600080825260208201909252611c60918791879187918791906114c4565b60335460009081906001600160a01b031633146132a25760405163b90cdbb160e01b815260040160405180910390fd5b6132aa613b8b565b505060418054604280546000938490559290559150808210613343576132d08183615929565b6035546033546040516340c10f1960e01b8152929450600093506001600160a01b03918216926340c10f199261330c9216908690600401615e05565b600060405180830381600087803b15801561332657600080fd5b505af115801561333a573d6000803e3d6000fd5b50505050613354565b61334d8282615929565b9050600091505b60408051838152602081018390527ffeb12225c131aab793a00c5239afb778932d170fa28ce6e9d23703e4bd892121910160405180910390a19091565b6001600160a01b03163b151590565b6000908152604760205260409020546001600160a01b0316151590565b6000908152604960205260409020546001600160a01b031690565b6000818152604760205260409020546001600160a01b031680611d765760405163062a39dd60e11b815260040160405180910390fd5b600081815260496020526040902080546001600160a01b0319166001600160a01b0384169081179091558190613443826133d8565b6001600160a01b03167f8c5be1e5ebec7d5bd14f71427d1e84f3dd0314c0f7b2291e5b200ac8c7c3b92560405160405180910390a45050565b600080613488836133d8565b9050806001600160a01b0316846001600160a01b031614806134c35750836001600160a01b03166134b8846133bd565b6001600160a01b0316145b80611c6357506001600160a01b038082166000908152604a6020908152604080832093881683529290522054600114949350505050565b826001600160a01b031661350d826133d8565b6001600160a01b0316146135345760405163c19f17a960e01b815260040160405180910390fd5b6001600160a01b03821661355b5760405163d92e233d60e01b815260040160405180910390fd5b603d54600160c01b900460ff16801561358d57506001600160a01b038216600090815260446020526040902054600114155b156135ab57604051630b094f2760e31b815260040160405180910390fd5b6135b660008261340e565b6001600160a01b038084166000818152604860209081526040808320805460001901905593861680835284832080546001019055858352604790915283822080546001600160a01b03191682179055925184939291600080516020615f3083398151915291a4505050565b600080603e54426136329190615929565b603d549091506001600160401b031681158061364c575080155b1561365b57603f549250505090565b6000613668600184615929565b905060006002841161367b576000613686565b613686600285615929565b90506000676765c793fa10079d601b1b676765c793fa10079d601a1b6136ac86806158c3565b6136b69190615a48565b6136c091906158f8565b90506000676765c793fa10079d601b1b676765c793fa10079d601a1b6136e687856158c3565b6136f09190615a48565b6136fa91906158f8565b9050600060028361370b878a6158c3565b61371591906158c3565b61371f91906158f8565b9050600060068386613731898c6158c3565b61373b91906158c3565b61374591906158c3565b61374f91906158f8565b9050676765c793fa10079d601b1b81836137698b8b6158c3565b61377e90676765c793fa10079d601b1b615a48565b6137889190615a48565b6137929190615a48565b603f5461379f91906158c3565b6137a991906158f8565b9850505050505050505090565b6137be614e05565b60008060006137ce888787614664565b925092509250633b9aca0083106137f8576040516315fe9b6160e21b815260040160405180910390fd5b6000633b9aca006138098582615929565b6138128a6146ed565b61381c91906158c3565b61382691906158f8565b603d54909150600160801b90046001600160401b03168110156138565761385181633b9aca00615929565b613877565b603d5461387790600160801b90046001600160401b0316633b9aca00615929565b603d54909150600160401b90046001600160401b031660008061389f6002633b9aca00615b78565b603c546138b591906001600160401b03166158c3565b836138c0868a6158c3565b6138ca91906158c3565b10613a4f57603c546001600160401b03166138ea6002633b9aca00615b78565b6138f491906158c3565b603c54859061391390600160401b90046001600160401b0316866158c3565b61391d91906158c3565b6139279190615929565b603c548590633b9aca0090613945906001600160401b0316896158c3565b603c54613963908b90600160401b90046001600160401b03166158c3565b61396d9190615929565b61397791906158c3565b61398191906158c3565b61398b91906158f8565b60b65490925061399f633b9aca00826158c3565b6139a985856158c3565b6139b39190615a48565b6139c1633b9aca00896158c3565b11613a49576139db676765c793fa10079d601b1b856158c3565b633b9aca008b8f602001516139f091906158c3565b6139fa91906158c3565b613a0491906158f8565b613a0f906001615a48565b925080871115613a445783633b9aca00613a29838a615929565b613a3391906158c3565b613a3d91906158f8565b9150613a49565b600191505b50613acd565b603854613a6090633b9aca006158c3565b8c518b90613a6f9087906158c3565b613a7991906158c3565b613a8391906158f8565b613a8e906001615a48565b915060b554851115613ac957633b9aca008460b55487613aae9190615929565b613ab891906158c3565b613ac291906158f8565b9050613acd565b5060015b818852613ada848b6158c3565b603854613aeb633b9aca00856158c3565b613af591906158c3565b613aff91906158f8565b602089015260408801525050606085015250608083015250949350505050565b60808054608154604080517f8b73c3c69bb8fe3d512ecc4cf759cc79239f7b179b0ffacaa9a75d522b39400f602082015290810192909252606082015246918101919091523060a082015260009060c00160405160208183030381529060405280519060200120905090565b6000613b95613621565b90506000676765c793fa10079d601b1b603f5483613bb39190615929565b604054613bc091906158c3565b613bca91906158f8565b90508060416000828254613bde9190615a48565b9091555050603f82905542603e8190556040805184815260208101929092527fd1fa8ba00a3bf20274346919dce0de62d2a140af2c71fe7e29fa6472eea3bb9d910160405180910390a15090565b600081613c3e57613c3b613b8b565b91505b60008481526043602052604081206001015490676765c793fa10079d601b1b613c6785846158c3565b613c7191906158f8565b9050808510613c8257935080613ca5565b83613c98676765c793fa10079d601b1b876158c3565b613ca291906158f8565b90505b613caf8183615929565b91508060406000828254613cc39190615929565b90915550508115801590613cf85750676765c793fa10079d601b1b60b454613ceb91906158c3565b613cf585846158c3565b11155b15613d165760405163228af07f60e21b815260040160405180910390fd5b60008681526043602052604080822060010184905551600080516020615ef083398151915291613d499189918591615a60565b60405180910390a15092949350505050565b8515613d7857603454613d78906001600160a01b03168488614601565b8415611db057805115613df75760345460355460405163a5d4096b60e01b81526001600160a01b038086169363a5d4096b93613dc49391831692169089908b908d908990600401615e1e565b600060405180830381600087803b158015613dde57600080fd5b505af1158015613df2573d6000803e3d6000fd5b505050505b603554604051630d43af8160e21b81526001600160a01b039091169063350ebe0490613e2b90889088903390600401615de6565b600060405180830381600087803b158015613e4557600080fd5b505af1158015613e59573d6000803e3d6000fd5b50505050505050505050565b826001600160a01b0316826001600160a01b03161415613e98576040516320c5195360e21b815260040160405180910390fd5b600081613ea6576000613ea9565b60015b6001600160a01b038581166000818152604a602090815260408083209489168084529482529182902060ff959095169485905590518615158152939450919290917f17307eab39ab6107e8899845ad3d59bd9653f200f220920489ca2b5937696c31910160405180910390a350505050565b603d54600090600160c01b900460ff168015613f6a57506001600160a01b0382166000908152604460205260409020546001141580613f6a575033600090815260446020526040902054600114155b15613f8857604051630b094f2760e31b815260040160405180910390fd5b6001600160a01b038216613faf5760405163d92e233d60e01b815260040160405180910390fd5b5060458054600101908190556001600160a01b038216600081815260486020908152604080832080546001019055848352604790915280822080546001600160a01b031916841790555183929190600080516020615f30833981519152908290a461402c600083836040518060200160405280600081525061491c565b611d76576040516320149b4360e21b815260040160405180910390fd5b6140548484846134fa565b6140608484848461491c565b61407d576040516320149b4360e21b815260040160405180910390fd5b50505050565b600054610100900460ff166140ee5760405162461bcd60e51b815260206004820152602b60248201527f496e697469616c697a61626c653a20636f6e7472616374206973206e6f74206960448201526a6e697469616c697a696e6760a81b606482015260840161151a565b7f3f43a9c6bafb5c7aab4e0cfe239dc5d4c15caf0381c6104188191f78a6640bd860825580516020918201206080556040805180820190915260018152603160f81b9101527fc89efdaa54c0f20c7adf612882df0950f5a951637e0307cdcb4c672f298b8bc6608155565b614162826133a0565b61417f5760405163062a39dd60e11b815260040160405180910390fd5b6000828152604360205260408120805483929061419d908490615a48565b9091555050604051600080516020615f10833981519152906111809084908490600190615a60565b60008033856141d4828261347c565b6141f15760405163c19f17a960e01b815260040160405180910390fd5b600087815260436020908152604080832081518083019092528054825260010154918101919091529080614226838a8a614664565b5091509150633b9aca00821161424f57604051631527804d60e31b815260040160405180910390fd5b8260200151604060008282546142659190615929565b9091555061427490508a614a1f565b603c5460009061429890600160c01b90046001600160401b0316633b9aca00615929565b6142a6633b9aca00846158c3565b6142b091906158f8565b90506142bc8282615929565b604160008282546142cd9190615a48565b90915550509251929a92995091975050505050505050565b33846142f1828261347c565b61430e5760405163c19f17a960e01b815260040160405180910390fd5b6000868152604360205260408120805487929061432c908490615929565b909155505060008681526043602090815260408083208151808301909252805482526001015491810191909152614364908686614664565b50509050633b9aca00811161438c57604051631527804d60e31b815260040160405180910390fd5b600080516020615f10833981519152878760006040516143ae93929190615a60565b60405180910390a150505050505050565b600033856143cd828261347c565b6143ea5760405163c19f17a960e01b815260040160405180910390fd5b6143f687878787614a9e565b603c54909650600090633b9aca0090614420908990600160801b90046001600160401b03166158c3565b61442a91906158f8565b9050806041600082825461443e9190615a48565b9091555061444e90508188615929565b98975050505050505050565b3386614466828261347c565b6144835760405163c19f17a960e01b815260040160405180910390fd5b60408051898152602081018890526001600160a01b038916818301526060810187905290517fddd3b70af631334f7552aadb582ed091018e62e103fa8b150ca66cc700d4dac69181900360800190a16144de88868686614a9e565b94506001600160a01b038716301415614502576144fc868685613c2c565b50611c1f565b603c546040516320d661ad60e21b815260048101889052602481018790526001600160401b03600160801b830481166044830152600160c01b90920490911660648201526001600160a01b0388169063835986b490608401600060405180830381600087803b15801561457457600080fd5b505af1158015614588573d6000803e3d6000fd5b505050505050505050505050565b6040516001600160a01b038085166024830152831660448201526064810182905261407d9085906323b872dd60e01b906084015b60408051601f198184030181529190526020810180516001600160e01b03166001600160e01b031990931692909217909152614c31565b610a198363a9059cbb60e01b84846040516024016145ca929190615e05565b6001600160a01b0381166000908152607f6020526040902054614644816001615a48565b6001600160a01b039092166000908152607f602052604090209190915590565b6000806000676765c793fa10079d601b1b84876020015161468591906158c3565b61468f91906158f8565b91506038548587600001516146a491906158c3565b6146ae91906158f8565b9050816146bf5760001992506146e4565b603c5482906146d7906001600160401b0316836158c3565b6146e191906158f8565b92505b93509350939050565b6037546000906001600160a01b031661472657603b60008154811061471457614714615988565b90600052602060002001549050919050565b603754604051635dfba04560e11b81526000916001600160a01b03169063bbf7408a90614757908690600401614f2f565b602060405180830381865afa158015614774573d6000803e3d6000fd5b505050506040513d601f19601f820116820180604052508101906147989190615894565b9050603a6001815481106147ae576147ae615988565b906000526020600020015481106147e657603b6001815481106147d3576147d3615988565b9060005260206000200154915050919050565b603a6000815481106147fa576147fa615988565b9060005260206000200154811161481f57603b6000815481106147d3576147d3615988565b603a60008154811061483357614833615988565b9060005260206000200154603a60018154811061485257614852615988565b90600052602060002001546148679190615929565b603a60008154811061487b5761487b615988565b9060005260206000200154826148919190615929565b603b6000815481106148a5576148a5615988565b9060005260206000200154603b6001815481106148c4576148c4615988565b90600052602060002001546148d99190615929565b6148e391906158c3565b6148ed91906158f8565b603b60008154811061490157614901615988565b9060005260206000200154610b049190615a48565b50919050565b6000614930846001600160a01b0316613391565b15614a1757604051630a85bd0160e11b81526001600160a01b0385169063150b7a0290614967903390899088908890600401615e96565b6020604051808303816000875af19250505080156149a2575060408051601f3d908101601f1916820190925261499f91810190615e79565b60015b6149fd573d8080156149d0576040519150601f19603f3d011682016040523d82523d6000602084013e6149d5565b606091505b5080516149f5576040516320149b4360e21b815260040160405180910390fd5b805181602001fd5b6001600160e01b031916630a85bd0160e11b149050611c63565b506001611c63565b6000614a2a826133d8565b9050614a3760008361340e565b6001600160a01b038116600081815260486020908152604080832080546000190190558583526047825280832080546001600160a01b0319169055604390915280822082815560010182905551849290600080516020615f30833981519152908390a45050565b60008082614ab7676765c793fa10079d601b1b876158c3565b614ac191906158f8565b600087815260436020526040902060010154909150614afc5760b4548511614afc5760405163228af07f60e21b815260040160405180910390fd5b60008681526043602052604081206001018054839290614b1d908490615a48565b925050819055508060406000828254614b369190615a48565b9091555050603954614b5490676765c793fa10079d601b1b906158c3565b83604054614b6291906158c3565b1115614b81576040516371239a6160e11b815260040160405180910390fd5b60008681526043602090815260408083208151808301909252805482526001015491810191909152614bb4908686614664565b50509050633b9aca008111614bdc57604051631527804d60e31b815260040160405180910390fd5b600080516020615ef083398151915287836001604051614bfe93929190615a60565b60405180910390a1676765c793fa10079d601b1b614c1c85846158c3565b614c2691906158f8565b979650505050505050565b6000614c86826040518060400160405280602081526020017f5361666545524332303a206c6f772d6c6576656c2063616c6c206661696c6564815250856001600160a01b0316614d039092919063ffffffff16565b805190915015610a195780806020019051810190614ca4919061590c565b610a195760405162461bcd60e51b815260206004820152602a60248201527f5361666545524332303a204552433230206f7065726174696f6e20646964206e6044820152691bdd081cdd58d8d9595960b21b606482015260840161151a565b6060611c63848460008585614d1785613391565b614d635760405162461bcd60e51b815260206004820152601d60248201527f416464726573733a2063616c6c20746f206e6f6e2d636f6e7472616374000000604482015260640161151a565b600080866001600160a01b03168587604051614d7f9190615ed3565b60006040518083038185875af1925050503d8060008114614dbc576040519150601f19603f3d011682016040523d82523d6000602084013e614dc1565b606091505b5091509150614c2682828660608315614ddb575081610b04565b825115614deb5782518084602001fd5b8160405162461bcd60e51b815260040161151a9190614fce565b6040518060a0016040528060008152602001600081526020016000815260200160008152602001600081525090565b828054614e409061585f565b90600052602060002090601f016020900481019282614e625760008555614ea8565b82601f10614e7b57805160ff1916838001178555614ea8565b82800160010185558215614ea8579182015b82811115614ea8578251825591602001919060010190614e8d565b50614eb4929150614f1a565b5090565b828054828255906000526020600020908101928215614ea85791602002820182811115614ea8578251825591602001919060010190614e8d565b6040518060800160405280600081526020016000815260200160008152602001600081525090565b5b80821115614eb45760008155600101614f1b565b6001600160a01b0391909116815260200190565b6001600160e01b031981168114610c8057600080fd5b600060208284031215614f6b57600080fd5b8135610b0481614f43565b60005b83811015614f91578181015183820152602001614f79565b8381111561407d5750506000910152565b60008151808452614fba816020860160208601614f76565b601f01601f19169290920160200192915050565b602081526000610b046020830184614fa2565b600060208284031215614ff357600080fd5b5035919050565b6001600160a01b0381168114610c8057600080fd5b6000806040838503121561502257600080fd5b823561502d81614ffa565b946020939093013593505050565b60008060006060848603121561505057600080fd5b833561505b81614ffa565b9250602084013561506b81614ffa565b929592945050506040919091013590565b6000806040838503121561508f57600080fd5b8235915060208301356150a181614ffa565b809150509250929050565b60a081016108cc828480518252602081015160208301526040810151604083015260608101516060830152608081015160808301525050565b6000602082840312156150f757600080fd5b8135610b0481614ffa565b634e487b7160e01b600052604160045260246000fd5b604051601f8201601f191681016001600160401b038111828210171561514057615140615102565b604052919050565b600082601f83011261515957600080fd5b81356001600160401b0381111561517257615172615102565b615185601f8201601f1916602001615118565b81815284602083860101111561519a57600080fd5b816020850160208301376000918101602001919091529392505050565b6000602082840312156151c957600080fd5b81356001600160401b038111156151df57600080fd5b611c6384828501615148565b80356001600160401b0381168114611d7657600080fd5b6000806040838503121561521557600080fd5b61502d836151eb565b60006001600160401b0382111561523757615237615102565b5060051b60200190565b600082601f83011261525257600080fd5b813560206152676152628361521e565b615118565b82815260059290921b8401810191818101908684111561528657600080fd5b8286015b848110156152a1578035835291830191830161528a565b509695505050505050565b6000806000606084860312156152c157600080fd5b83356152cc81614ffa565b925060208401356001600160401b03808211156152e857600080fd5b6152f487838801615241565b9350604086013591508082111561530a57600080fd5b5061531786828701615241565b9150509250925092565b60008060008060008060c0878903121561533a57600080fd5b86356001600160401b038082111561535157600080fd5b61535d8a838b01615241565b9750602089013591508082111561537357600080fd5b61537f8a838b01615241565b96506040890135915061539182614ffa565b9094506060880135906153a382614ffa565b9093506080880135906153b582614ffa565b90925060a088013590808211156153cb57600080fd5b506153d889828a01615148565b9150509295509295509295565b600080600080608085870312156153fb57600080fd5b5050823594602084013594506040840135936060013592509050565b600082601f83011261542857600080fd5b813560206154386152628361521e565b82815260059290921b8401810191818101908684111561545757600080fd5b8286015b848110156152a1578035600881106154735760008081fd5b835291830191830161545b565b600082601f83011261549157600080fd5b813560206154a16152628361521e565b82815260059290921b840181019181810190868411156154c057600080fd5b8286015b848110156152a15780356001600160401b038111156154e35760008081fd5b6154f18986838b0101615148565b8452509183019183016154c4565b6000806000806080858703121561551557600080fd5b84356001600160401b038082111561552c57600080fd5b61553888838901615417565b9550602087013591508082111561554e57600080fd5b5061555b87828801615480565b935050604085013561556c81614ffa565b9150606085013561557c81614ffa565b939692955090935050565b8015158114610c8057600080fd5b600080604083850312156155a857600080fd5b82356155b381614ffa565b915060208301356150a181615587565b600080600080608085870312156155d957600080fd5b84356155e481614ffa565b935060208501356155f481614ffa565b92506040850135915060608501356001600160401b0381111561561657600080fd5b61562287828801615148565b91505092959194509250565b60008060006060848603121561564357600080fd5b505081359360208301359350604090920135919050565b600080600080600085870361018081121561567457600080fd5b863561567f81614ffa565b9550602087013561568f81614ffa565b9450604087013561569f81614ffa565b9350610100605f19820112156156b457600080fd5b506060860191506101608601356001600160401b038111156156d557600080fd5b6156e188828901615148565b9150509295509295909350565b60008060008060008060c0878903121561570757600080fd5b86356001600160401b038082111561571e57600080fd5b61572a8a838b01615417565b9750602089013591508082111561574057600080fd5b61537f8a838b01615480565b6000806040838503121561575f57600080fd5b823561576a81614ffa565b915060208301356150a181614ffa565b60ff81168114610c8057600080fd5b600080600080600080600060e0888a0312156157a457600080fd5b87356157af81614ffa565b965060208801356157bf81614ffa565b955060408801356157cf81615587565b94506060880135935060808801356157e68161577a565b9699959850939692959460a0840135945060c09093013592915050565b6000806000806080858703121561581957600080fd5b84356001600160401b038082111561583057600080fd5b61583c88838901615241565b9550602087013591508082111561585257600080fd5b5061555b87828801615241565b600181811c9082168061587357607f821691505b6020821081141561491657634e487b7160e01b600052602260045260246000fd5b6000602082840312156158a657600080fd5b5051919050565b634e487b7160e01b600052601160045260246000fd5b60008160001904831182151516156158dd576158dd6158ad565b500290565b634e487b7160e01b600052601260045260246000fd5b600082615907576159076158e2565b500490565b60006020828403121561591e57600080fd5b8151610b0481615587565b60008282101561593b5761593b6158ad565b500390565b60006001600160401b03828116848216808303821115615962576159626158ad565b01949350505050565b60006020828403121561597d57600080fd5b8151610b0481614ffa565b634e487b7160e01b600052603260045260246000fd5b600081518084526020808501945080840160005b838110156159ce578151875295820195908201906001016159b2565b509495945050505050565b6040815260006159ec604083018561599e565b8281036020840152612070818561599e565b6020808252601f908201527f5265656e7472616e637947756172643a207265656e7472616e742063616c6c00604082015260600190565b602081526000610b04602083018461599e565b60008219821115615a5b57615a5b6158ad565b500190565b928352602083019190915260ff16604082015260600190565b6000600019821415615a8d57615a8d6158ad565b5060010190565b600181815b80851115615acf578160001904821115615ab557615ab56158ad565b80851615615ac257918102915b93841c9390800290615a99565b509250929050565b600082615ae6575060016108cc565b81615af3575060006108cc565b8160018114615b095760028114615b1357615b2f565b60019150506108cc565b60ff841115615b2457615b246158ad565b50506001821b6108cc565b5060208310610133831016604e8410600b8410161715615b52575081810a6108cc565b615b5c8383615a94565b8060001904821115615b7057615b706158ad565b029392505050565b6000610b0460ff841683615ad7565b600082615b9657615b966158e2565b500690565b60008151615bad818560208601614f76565b9290920192915050565b600080845481600182811c915080831680615bd357607f831692505b6020808410821415615bf357634e487b7160e01b86526022600452602486fd5b818015615c075760018114615c1857615c45565b60ff19861689528489019650615c45565b60008b81526020902060005b86811015615c3d5781548b820152908501908301615c24565b505084890196505b5050505050506120708185615b9b565b600060208284031215615c6757600080fd5b8151610b048161577a565b6e020b733b63290283937ba37b1b7b61608d1b815260008251615c9c81600f850160208701614f76565b650815985d5b1d60d21b600f939091019283015250601501919050565b60008251615ccb818460208701614f76565b650b5d985d5b1d60d21b920191825250600601919050565b600060208284031215615cf557600080fd5b610b04826151eb565b600060208284031215615d1057600080fd5b8135610b0481615587565b634e487b7160e01b600052602160045260246000fd5b60008060408385031215615d4457600080fd5b505080516020909101519092909150565b60008060008060008060c08789031215615d6e57600080fd5b8651615d7981614ffa565b6020880151604089015160608a015160808b015160a0909b0151939c929b509099909850965090945092505050565b60008060008060808587031215615dbe57600080fd5b845193506020850151615dd081614ffa565b6040860151606090960151949790965092505050565b9283526001600160a01b03918216602084015216604082015260600190565b6001600160a01b03929092168252602082015260400190565b6001600160a01b038781168252868116602083015285166040820152606081018490526080810183905260c060a0820181905260009061444e90830184614fa2565b828152604060208201526000611c636040830184614fa2565b600060208284031215615e8b57600080fd5b8151610b0481614f43565b6001600160a01b0385811682528416602082015260408101839052608060608201819052600090615ec990830184614fa2565b9695505050505050565b60008251615ee5818460208701614f76565b919091019291505056fe70cf49afe7355562d5b022e594790f22b71ad8cc7eec902fa5feac7c67f71091722cb71fa87c947148cefc06dd890af5802a6a00207c5ddecf1191bf71ce3cd4ddf252ad1be2c89b69c2b068fc378daa952ba7f163c4a11628f55a4df523b3efa2646970667358221220146abc5955fa7df1746292da9edc7699beb6f8b7ae9777dd09e6785817fd221a64736f6c634300080c0033"
}