{
  "address": "0x6cd24ac05103C2C911347a6D3628d64a9F07eAf5",
  "abi": [
    {
      "inputs": [],
      "stateMutability": "nonpayable",
      "type": "constructor"
    },
    {
      "inputs": [],
      "name": "InvalidAllowance",
      "type": "error"
    },
    {
      "inputs": [],
      "name": "InvalidCaller",
      "type": "error"
    },
    {
      "inputs": [],
      "name": "InvalidEndpoint",
      "type": "error"
    },
    {
      "inputs": [],
      "name": "InvalidPayload",
      "type": "error"
    },
    {
      "inputs": [],
      "name": "InvalidSource",
      "type": "error"
    },
    {
      "inputs": [],
      "name": "NotGovernor",
      "type": "error"
    },
    {
      "inputs": [],
      "name": "NotGovernorOrGuardian",
      "type": "error"
    },
    {
      "inputs": [],
      "name": "ZeroAddress",
      "type": "error"
    },
    {
      "anonymous": false,
      "inputs": [
        {
          "indexed": true,
          "internalType": "address",
          "name": "owner",
          "type": "address"
        },
        {
          "indexed": true,
          "internalType": "address",
          "name": "spender",
          "type": "address"
        },
        {
          "indexed": false,
          "internalType": "uint256",
          "name": "value",
          "type": "uint256"
        }
      ],
      "name": "Approval",
      "type": "event"
    },
    {
      "anonymous": false,
      "inputs": [
        {
          "indexed": false,
          "internalType": "uint16",
          "name": "_srcChainId",
          "type": "uint16"
        },
        {
          "indexed": false,
          "internalType": "bytes",
          "name": "_srcAddress",
          "type": "bytes"
        },
        {
          "indexed": false,
          "internalType": "uint64",
          "name": "_nonce",
          "type": "uint64"
        },
        {
          "indexed": false,
          "internalType": "bytes",
          "name": "_payload",
          "type": "bytes"
        }
      ],
      "name": "MessageFailed",
      "type": "event"
    },
    {
      "anonymous": false,
      "inputs": [
        {
          "indexed": false,
          "internalType": "address",
          "name": "account",
          "type": "address"
        }
      ],
      "name": "Paused",
      "type": "event"
    },
    {
      "anonymous": false,
      "inputs": [
        {
          "indexed": true,
          "internalType": "uint16",
          "name": "_srcChainId",
          "type": "uint16"
        },
        {
          "indexed": true,
          "internalType": "bytes",
          "name": "_srcAddress",
          "type": "bytes"
        },
        {
          "indexed": true,
          "internalType": "address",
          "name": "_toAddress",
          "type": "address"
        },
        {
          "indexed": false,
          "internalType": "uint256",
          "name": "_amount",
          "type": "uint256"
        },
        {
          "indexed": false,
          "internalType": "uint64",
          "name": "_nonce",
          "type": "uint64"
        }
      ],
      "name": "ReceiveFromChain",
      "type": "event"
    },
    {
      "anonymous": false,
      "inputs": [
        {
          "indexed": true,
          "internalType": "address",
          "name": "_sender",
          "type": "address"
        },
        {
          "indexed": true,
          "internalType": "uint16",
          "name": "_dstChainId",
          "type": "uint16"
        },
        {
          "indexed": true,
          "internalType": "bytes",
          "name": "_toAddress",
          "type": "bytes"
        },
        {
          "indexed": false,
          "internalType": "uint256",
          "name": "_amount",
          "type": "uint256"
        },
        {
          "indexed": false,
          "internalType": "uint64",
          "name": "_nonce",
          "type": "uint64"
        }
      ],
      "name": "SendToChain",
      "type": "event"
    },
    {
      "anonymous": false,
      "inputs": [
        {
          "indexed": false,
          "internalType": "uint16",
          "name": "_srcChainId",
          "type": "uint16"
        },
        {
          "indexed": false,
          "internalType": "bytes",
          "name": "_srcAddress",
          "type": "bytes"
        }
      ],
      "name": "SetTrustedRemote",
      "type": "event"
    },
    {
      "anonymous": false,
      "inputs": [
        {
          "indexed": true,
          "internalType": "address",
          "name": "from",
          "type": "address"
        },
        {
          "indexed": true,
          "internalType": "address",
          "name": "to",
          "type": "address"
        },
        {
          "indexed": false,
          "internalType": "uint256",
          "name": "value",
          "type": "uint256"
        }
      ],
      "name": "Transfer",
      "type": "event"
    },
    {
      "anonymous": false,
      "inputs": [
        {
          "indexed": false,
          "internalType": "address",
          "name": "account",
          "type": "address"
        }
      ],
      "name": "Unpaused",
      "type": "event"
    },
    {
      "inputs": [
        {
          "internalType": "address",
          "name": "owner",
          "type": "address"
        },
        {
          "internalType": "address",
          "name": "spender",
          "type": "address"
        }
      ],
      "name": "allowance",
      "outputs": [
        {
          "internalType": "uint256",
          "name": "",
          "type": "uint256"
        }
      ],
      "stateMutability": "view",
      "type": "function"
    },
    {
      "inputs": [
        {
          "internalType": "address",
          "name": "spender",
          "type": "address"
        },
        {
          "internalType": "uint256",
          "name": "amount",
          "type": "uint256"
        }
      ],
      "name": "approve",
      "outputs": [
        {
          "internalType": "bool",
          "name": "",
          "type": "bool"
        }
      ],
      "stateMutability": "nonpayable",
      "type": "function"
    },
    {
      "inputs": [
        {
          "internalType": "address",
          "name": "account",
          "type": "address"
        }
      ],
      "name": "balanceOf",
      "outputs": [
        {
          "internalType": "uint256",
          "name": "",
          "type": "uint256"
        }
      ],
      "stateMutability": "view",
      "type": "function"
    },
    {
      "inputs": [
        {
          "internalType": "uint256",
          "name": "amount",
          "type": "uint256"
        }
      ],
      "name": "burn",
      "outputs": [],
      "stateMutability": "nonpayable",
      "type": "function"
    },
    {
      "inputs": [],
      "name": "canonicalToken",
      "outputs": [
        {
          "internalType": "contract IAgTokenSideChainMultiBridge",
          "name": "",
          "type": "address"
        }
      ],
      "stateMutability": "view",
      "type": "function"
    },
    {
      "inputs": [],
      "name": "decimals",
      "outputs": [
        {
          "internalType": "uint8",
          "name": "",
          "type": "uint8"
        }
      ],
      "stateMutability": "view",
      "type": "function"
    },
    {
      "inputs": [
        {
          "internalType": "address",
          "name": "spender",
          "type": "address"
        },
        {
          "internalType": "uint256",
          "name": "subtractedValue",
          "type": "uint256"
        }
      ],
      "name": "decreaseAllowance",
      "outputs": [
        {
          "internalType": "bool",
          "name": "",
          "type": "bool"
        }
      ],
      "stateMutability": "nonpayable",
      "type": "function"
    },
    {
      "inputs": [
        {
          "internalType": "uint16",
          "name": "_dstChainId",
          "type": "uint16"
        },
        {
          "internalType": "bytes",
          "name": "_toAddress",
          "type": "bytes"
        },
        {
          "internalType": "uint256",
          "name": "_amount",
          "type": "uint256"
        },
        {
          "internalType": "bool",
          "name": "_useZro",
          "type": "bool"
        },
        {
          "internalType": "bytes",
          "name": "_adapterParams",
          "type": "bytes"
        }
      ],
      "name": "estimateSendFee",
      "outputs": [
        {
          "internalType": "uint256",
          "name": "nativeFee",
          "type": "uint256"
        },
        {
          "internalType": "uint256",
          "name": "zroFee",
          "type": "uint256"
        }
      ],
      "stateMutability": "view",
      "type": "function"
    },
    {
      "inputs": [
        {
          "internalType": "uint16",
          "name": "",
          "type": "uint16"
        },
        {
          "internalType": "bytes",
          "name": "",
          "type": "bytes"
        },
        {
          "internalType": "uint64",
          "name": "",
          "type": "uint64"
        }
      ],
      "name": "failedMessages",
      "outputs": [
        {
          "internalType": "bytes32",
          "name": "",
          "type": "bytes32"
        }
      ],
      "stateMutability": "view",
      "type": "function"
    },
    {
      "inputs": [
        {
          "internalType": "uint16",
          "name": "_srcChainId",
          "type": "uint16"
        },
        {
          "internalType": "bytes",
          "name": "_srcAddress",
          "type": "bytes"
        }
      ],
      "name": "forceResumeReceive",
      "outputs": [],
      "stateMutability": "nonpayable",
      "type": "function"
    },
    {
      "inputs": [
        {
          "internalType": "uint16",
          "name": "_version",
          "type": "uint16"
        },
        {
          "internalType": "uint16",
          "name": "_chainId",
          "type": "uint16"
        },
        {
          "internalType": "address",
          "name": "",
          "type": "address"
        },
        {
          "internalType": "uint256",
          "name": "_configType",
          "type": "uint256"
        }
      ],
      "name": "getConfig",
      "outputs": [
        {
          "internalType": "bytes",
          "name": "",
          "type": "bytes"
        }
      ],
      "stateMutability": "view",
      "type": "function"
    },
    {
      "inputs": [
        {
          "internalType": "address",
          "name": "spender",
          "type": "address"
        },
        {
          "internalType": "uint256",
          "name": "addedValue",
          "type": "uint256"
        }
      ],
      "name": "increaseAllowance",
      "outputs": [
        {
          "internalType": "bool",
          "name": "",
          "type": "bool"
        }
      ],
      "stateMutability": "nonpayable",
      "type": "function"
    },
    {
      "inputs": [
        {
          "internalType": "string",
          "name": "_name",
          "type": "string"
        },
        {
          "internalType": "string",
          "name": "_symbol",
          "type": "string"
        },
        {
          "internalType": "address",
          "name": "_lzEndpoint",
          "type": "address"
        },
        {
          "internalType": "address",
          "name": "_treasury",
          "type": "address"
        },
        {
          "internalType": "uint256",
          "name": "initialSupply",
          "type": "uint256"
        }
      ],
      "name": "initialize",
      "outputs": [],
      "stateMutability": "nonpayable",
      "type": "function"
    },
    {
      "inputs": [
        {
          "internalType": "uint16",
          "name": "_srcChainId",
          "type": "uint16"
        },
        {
          "internalType": "bytes",
          "name": "_srcAddress",
          "type": "bytes"
        }
      ],
      "name": "isTrustedRemote",
      "outputs": [
        {
          "internalType": "bool",
          "name": "",
          "type": "bool"
        }
      ],
      "stateMutability": "view",
      "type": "function"
    },
    {
      "inputs": [],
      "name": "lzEndpoint",
      "outputs": [
        {
          "internalType": "contract ILayerZeroEndpoint",
          "name": "",
          "type": "address"
        }
      ],
      "stateMutability": "view",
      "type": "function"
    },
    {
      "inputs": [
        {
          "internalType": "uint16",
          "name": "_srcChainId",
          "type": "uint16"
        },
        {
          "internalType": "bytes",
          "name": "_srcAddress",
          "type": "bytes"
        },
        {
          "internalType": "uint64",
          "name": "_nonce",
          "type": "uint64"
        },
        {
          "internalType": "bytes",
          "name": "_payload",
          "type": "bytes"
        }
      ],
      "name": "lzReceive",
      "outputs": [],
      "stateMutability": "nonpayable",
      "type": "function"
    },
    {
      "inputs": [
        {
          "internalType": "uint256",
          "name": "amount",
          "type": "uint256"
        }
      ],
      "name": "mint",
      "outputs": [],
      "stateMutability": "nonpayable",
      "type": "function"
    },
    {
      "inputs": [],
      "name": "name",
      "outputs": [
        {
          "internalType": "string",
          "name": "",
          "type": "string"
        }
      ],
      "stateMutability": "view",
      "type": "function"
    },
    {
      "inputs": [
        {
          "internalType": "uint16",
          "name": "_srcChainId",
          "type": "uint16"
        },
        {
          "internalType": "bytes",
          "name": "_srcAddress",
          "type": "bytes"
        },
        {
          "internalType": "uint64",
          "name": "_nonce",
          "type": "uint64"
        },
        {
          "internalType": "bytes",
          "name": "_payload",
          "type": "bytes"
        }
      ],
      "name": "nonblockingLzReceive",
      "outputs": [],
      "stateMutability": "nonpayable",
      "type": "function"
    },
    {
      "inputs": [
        {
          "internalType": "bool",
          "name": "pause",
          "type": "bool"
        }
      ],
      "name": "pauseSendTokens",
      "outputs": [],
      "stateMutability": "nonpayable",
      "type": "function"
    },
    {
      "inputs": [],
      "name": "paused",
      "outputs": [
        {
          "internalType": "bool",
          "name": "",
          "type": "bool"
        }
      ],
      "stateMutability": "view",
      "type": "function"
    },
    {
      "inputs": [
        {
          "internalType": "uint16",
          "name": "_srcChainId",
          "type": "uint16"
        },
        {
          "internalType": "bytes",
          "name": "_srcAddress",
          "type": "bytes"
        },
        {
          "internalType": "uint64",
          "name": "_nonce",
          "type": "uint64"
        },
        {
          "internalType": "bytes",
          "name": "_payload",
          "type": "bytes"
        }
      ],
      "name": "retryMessage",
      "outputs": [],
      "stateMutability": "payable",
      "type": "function"
    },
    {
      "inputs": [
        {
          "internalType": "uint16",
          "name": "_dstChainId",
          "type": "uint16"
        },
        {
          "internalType": "bytes",
          "name": "_toAddress",
          "type": "bytes"
        },
        {
          "internalType": "uint256",
          "name": "_amount",
          "type": "uint256"
        },
        {
          "internalType": "address payable",
          "name": "_refundAddress",
          "type": "address"
        },
        {
          "internalType": "address",
          "name": "_zroPaymentAddress",
          "type": "address"
        },
        {
          "internalType": "bytes",
          "name": "_adapterParams",
          "type": "bytes"
        }
      ],
      "name": "send",
      "outputs": [],
      "stateMutability": "payable",
      "type": "function"
    },
    {
      "inputs": [
        {
          "internalType": "uint16",
          "name": "_dstChainId",
          "type": "uint16"
        },
        {
          "internalType": "bytes",
          "name": "_toAddress",
          "type": "bytes"
        },
        {
          "internalType": "uint256",
          "name": "_amount",
          "type": "uint256"
        },
        {
          "internalType": "address payable",
          "name": "_refundAddress",
          "type": "address"
        },
        {
          "internalType": "address",
          "name": "_zroPaymentAddress",
          "type": "address"
        },
        {
          "internalType": "bytes",
          "name": "_adapterParams",
          "type": "bytes"
        }
      ],
      "name": "sendCredit",
      "outputs": [],
      "stateMutability": "payable",
      "type": "function"
    },
    {
      "inputs": [
        {
          "internalType": "uint16",
          "name": "_dstChainId",
          "type": "uint16"
        },
        {
          "internalType": "bytes",
          "name": "_toAddress",
          "type": "bytes"
        },
        {
          "internalType": "uint256",
          "name": "_amount",
          "type": "uint256"
        },
        {
          "internalType": "address payable",
          "name": "_refundAddress",
          "type": "address"
        },
        {
          "internalType": "address",
          "name": "_zroPaymentAddress",
          "type": "address"
        },
        {
          "internalType": "bytes",
          "name": "_adapterParams",
          "type": "bytes"
        },
        {
          "internalType": "uint256",
          "name": "deadline",
          "type": "uint256"
        },
        {
          "internalType": "uint8",
          "name": "v",
          "type": "uint8"
        },
        {
          "internalType": "bytes32",
          "name": "r",
          "type": "bytes32"
        },
        {
          "internalType": "bytes32",
          "name": "s",
          "type": "bytes32"
        }
      ],
      "name": "sendWithPermit",
      "outputs": [],
      "stateMutability": "payable",
      "type": "function"
    },
    {
      "inputs": [
        {
          "internalType": "uint16",
          "name": "_version",
          "type": "uint16"
        },
        {
          "internalType": "uint16",
          "name": "_chainId",
          "type": "uint16"
        },
        {
          "internalType": "uint256",
          "name": "_configType",
          "type": "uint256"
        },
        {
          "internalType": "bytes",
          "name": "_config",
          "type": "bytes"
        }
      ],
      "name": "setConfig",
      "outputs": [],
      "stateMutability": "nonpayable",
      "type": "function"
    },
    {
      "inputs": [
        {
          "internalType": "uint16",
          "name": "_version",
          "type": "uint16"
        }
      ],
      "name": "setReceiveVersion",
      "outputs": [],
      "stateMutability": "nonpayable",
      "type": "function"
    },
    {
      "inputs": [
        {
          "internalType": "uint16",
          "name": "_version",
          "type": "uint16"
        }
      ],
      "name": "setSendVersion",
      "outputs": [],
      "stateMutability": "nonpayable",
      "type": "function"
    },
    {
      "inputs": [
        {
          "internalType": "uint16",
          "name": "_srcChainId",
          "type": "uint16"
        },
        {
          "internalType": "bytes",
          "name": "_srcAddress",
          "type": "bytes"
        }
      ],
      "name": "setTrustedRemote",
      "outputs": [],
      "stateMutability": "nonpayable",
      "type": "function"
    },
    {
      "inputs": [],
      "name": "setupAllowance",
      "outputs": [],
      "stateMutability": "nonpayable",
      "type": "function"
    },
    {
      "inputs": [
        {
          "internalType": "bytes4",
          "name": "interfaceId",
          "type": "bytes4"
        }
      ],
      "name": "supportsInterface",
      "outputs": [
        {
          "internalType": "bool",
          "name": "",
          "type": "bool"
        }
      ],
      "stateMutability": "view",
      "type": "function"
    },
    {
      "inputs": [],
      "name": "symbol",
      "outputs": [
        {
          "internalType": "string",
          "name": "",
          "type": "string"
        }
      ],
      "stateMutability": "view",
      "type": "function"
    },
    {
      "inputs": [],
      "name": "totalSupply",
      "outputs": [
        {
          "internalType": "uint256",
          "name": "",
          "type": "uint256"
        }
      ],
      "stateMutability": "view",
      "type": "function"
    },
    {
      "inputs": [
        {
          "internalType": "address",
          "name": "recipient",
          "type": "address"
        },
        {
          "internalType": "uint256",
          "name": "amount",
          "type": "uint256"
        }
      ],
      "name": "transfer",
      "outputs": [
        {
          "internalType": "bool",
          "name": "",
          "type": "bool"
        }
      ],
      "stateMutability": "nonpayable",
      "type": "function"
    },
    {
      "inputs": [
        {
          "internalType": "address",
          "name": "sender",
          "type": "address"
        },
        {
          "internalType": "address",
          "name": "recipient",
          "type": "address"
        },
        {
          "internalType": "uint256",
          "name": "amount",
          "type": "uint256"
        }
      ],
      "name": "transferFrom",
      "outputs": [
        {
          "internalType": "bool",
          "name": "",
          "type": "bool"
        }
      ],
      "stateMutability": "nonpayable",
      "type": "function"
    },
    {
      "inputs": [],
      "name": "treasury",
      "outputs": [
        {
          "internalType": "address",
          "name": "",
          "type": "address"
        }
      ],
      "stateMutability": "view",
      "type": "function"
    },
    {
      "inputs": [
        {
          "internalType": "uint16",
          "name": "",
          "type": "uint16"
        }
      ],
      "name": "trustedRemoteLookup",
      "outputs": [
        {
          "internalType": "bytes",
          "name": "",
          "type": "bytes"
        }
      ],
      "stateMutability": "view",
      "type": "function"
    },
    {
      "inputs": [
        {
          "internalType": "uint256",
          "name": "amount",
          "type": "uint256"
        },
        {
          "internalType": "address",
          "name": "recipient",
          "type": "address"
        }
      ],
      "name": "withdraw",
      "outputs": [
        {
          "internalType": "uint256",
          "name": "amountMinted",
          "type": "uint256"
        }
      ],
      "stateMutability": "nonpayable",
      "type": "function"
    }
  ],
  "transactionHash": "0x70dba4099102f731179a27c9bf40ba8eac16927c1355b6cbe440f242b1677e9a",
  "args": [],
  "numDeployments": 1,
  "solcInputHash": "c738595b9b57358bae83408c8b980d54",
  "bytecode": "0x60806040523480156200001157600080fd5b50600054610100900460ff166200002f5760005460ff161562000039565b62000039620000de565b620000a15760405162461bcd60e51b815260206004820152602e60248201527f496e697469616c697a61626c653a20636f6e747261637420697320616c72656160448201526d191e481a5b9a5d1a585b1a5e995960921b606482015260840160405180910390fd5b600054610100900460ff16158015620000c4576000805461ffff19166101011790555b8015620000d7576000805461ff00191690555b5062000102565b6000620000f630620000fc60201b620020941760201c565b15905090565b3b151590565b6140a280620001126000396000f3fe6080604052600436106102835760003560e01c806366ad5c8a11610153578063c9aba0aa116100cb578063e09e911e1161007f578063eed33cef11610064578063eed33cef146107a8578063f1878922146107bb578063f5ecbdbc146107db57600080fd5b8063e09e911e14610773578063eb8d72b71461078857600080fd5b8063ceb76b55116100b0578063ceb76b55146106df578063d1deba1f1461070d578063dd62ed3e1461072057600080fd5b8063c9aba0aa1461069f578063cbed8b9c146106bf57600080fd5b806395d89b4111610122578063a457c2d711610107578063a457c2d71461062c578063a9059cbb1461064c578063b353aaa71461066c57600080fd5b806395d89b41146105f7578063a0712d681461060c57600080fd5b806366ad5c8a1461056157806370a08231146105815780637533d788146105c457806385edd8ae146105e457600080fd5b806323b872dd1161020157806342966c68116101b55780635b8c41e61161019a5780635b8c41e6146104a85780635c975abb146104f757806361d027b31461050f57600080fd5b806342966c681461046857806342d65a8d1461048857600080fd5b8063313ce567116101e6578063313ce5671461040c57806339509351146104285780633d8b38f61461044857600080fd5b806323b872dd146103b75780632a205e3d146103d757600080fd5b806307e0db171161025857806310ddb1371161023d57806310ddb1371461036f57806310f958251461038f57806318160ddd146103a257600080fd5b806307e0db171461032f578063095ea7b31461034f57600080fd5b80621d356714610288578062f714ce146102aa57806301ffc9a7146102dd57806306fdde031461030d575b600080fd5b34801561029457600080fd5b506102a86102a3366004613531565b6107fb565b005b3480156102b657600080fd5b506102ca6102c53660046135e7565b610959565b6040519081526020015b60405180910390f35b3480156102e957600080fd5b506102fd6102f8366004613617565b610a35565b60405190151581526020016102d4565b34801561031957600080fd5b50610322610abc565b6040516102d491906136cf565b34801561033b57600080fd5b506102a861034a3660046136e2565b610b4e565b34801561035b57600080fd5b506102fd61036a3660046136fd565b610c9f565b34801561037b57600080fd5b506102a861038a3660046136e2565b610cb5565b6102a861039d366004613729565b610ddc565b3480156103ae57600080fd5b5060ca546102ca565b3480156103c357600080fd5b506102fd6103d23660046137cf565b610dff565b3480156103e357600080fd5b506103f76103f236600461381e565b610eec565b604080519283526020830191909152016102d4565b34801561041857600080fd5b50604051601281526020016102d4565b34801561043457600080fd5b506102fd6104433660046136fd565b610fe4565b34801561045457600080fd5b506102fd6104633660046138fa565b61102d565b34801561047457600080fd5b506102a861048336600461394d565b6110f9565b34801561049457600080fd5b506102a86104a33660046138fa565b6111e8565b3480156104b457600080fd5b506102ca6104c3366004613966565b6001602090815260009384526040808520845180860184018051928152908401958401959095209452929052825290205481565b34801561050357600080fd5b5060fa5460ff166102fd565b34801561051b57600080fd5b5060035461053c9073ffffffffffffffffffffffffffffffffffffffff1681565b60405173ffffffffffffffffffffffffffffffffffffffff90911681526020016102d4565b34801561056d57600080fd5b506102a861057c366004613531565b611346565b34801561058d57600080fd5b506102ca61059c3660046139c8565b73ffffffffffffffffffffffffffffffffffffffff16600090815260c8602052604090205490565b3480156105d057600080fd5b506103226105df3660046136e2565b611391565b6102a86105f23660046139f6565b61142b565b34801561060357600080fd5b506103226114f4565b34801561061857600080fd5b506102a861062736600461394d565b611503565b34801561063857600080fd5b506102fd6106473660046136fd565b6115ef565b34801561065857600080fd5b506102fd6106673660046136fd565b6116c7565b34801561067857600080fd5b5060005461053c9062010000900473ffffffffffffffffffffffffffffffffffffffff1681565b3480156106ab57600080fd5b506102a86106ba366004613ac5565b6116d4565b3480156106cb57600080fd5b506102a86106da366004613b56565b61190c565b3480156106eb57600080fd5b5061012c5461053c9073ffffffffffffffffffffffffffffffffffffffff1681565b6102a861071b366004613531565b611a70565b34801561072c57600080fd5b506102ca61073b366004613bc5565b73ffffffffffffffffffffffffffffffffffffffff918216600090815260c96020908152604080832093909416825291909152205490565b34801561077f57600080fd5b506102a8611b56565b34801561079457600080fd5b506102a86107a33660046138fa565b611c66565b6102a86107b6366004613729565b611d8d565b3480156107c757600080fd5b506102a86107d6366004613bf3565b611eda565b3480156107e757600080fd5b506103226107f6366004613c10565b611fb7565b60005462010000900473ffffffffffffffffffffffffffffffffffffffff163314610852576040517ff1cbb56700000000000000000000000000000000000000000000000000000000815260040160405180910390fd5b61ffff84166000908152600260205260408120805461087090613c5d565b80601f016020809104026020016040519081016040528092919081815260200182805461089c90613c5d565b80156108e95780601f106108be576101008083540402835291602001916108e9565b820191906000526020600020905b8154815290600101906020018083116108cc57829003601f168201915b505050505090508051845114158061090f57508080519060200120848051906020012014155b15610946576040517f8154374b00000000000000000000000000000000000000000000000000000000815260040160405180910390fd5b6109528585858561209a565b5050505050565b60006109663330856121a5565b61012c546040517f151dd7550000000000000000000000000000000000000000000000000000000081523060048201526024810185905273ffffffffffffffffffffffffffffffffffffffff84811660448301529091169063151dd755906064016020604051808303816000875af11580156109e6573d6000803e3d6000fd5b505050506040513d601f19601f82011682018060405250810190610a0a9190613cb1565b30600090815260c860205260409020549091508015610a2e57610a2e3033836121a5565b5092915050565b60007fffffffff0000000000000000000000000000000000000000000000000000000082161580610aa757507fffffffff0000000000000000000000000000000000000000000000000000000082167f36372b0700000000000000000000000000000000000000000000000000000000145b80610ab65750610ab682612458565b92915050565b606060cb8054610acb90613c5d565b80601f0160208091040260200160405190810160405280929190818152602001828054610af790613c5d565b8015610b445780601f10610b1957610100808354040283529160200191610b44565b820191906000526020600020905b815481529060010190602001808311610b2757829003601f168201915b5050505050905090565b6003546040517f521d4de900000000000000000000000000000000000000000000000000000000815233600482015273ffffffffffffffffffffffffffffffffffffffff9091169063521d4de990602401602060405180830381865afa158015610bbc573d6000803e3d6000fd5b505050506040513d601f19601f82011682018060405250810190610be09190613cca565b610c16576040517f99e120bc00000000000000000000000000000000000000000000000000000000815260040160405180910390fd5b6000546040517f07e0db1700000000000000000000000000000000000000000000000000000000815261ffff831660048201526201000090910473ffffffffffffffffffffffffffffffffffffffff16906307e0db17906024015b600060405180830381600087803b158015610c8b57600080fd5b505af1158015610952573d6000803e3d6000fd5b6000610cac3384846124ef565b50600192915050565b6003546040517f521d4de900000000000000000000000000000000000000000000000000000000815233600482015273ffffffffffffffffffffffffffffffffffffffff9091169063521d4de990602401602060405180830381865afa158015610d23573d6000803e3d6000fd5b505050506040513d601f19601f82011682018060405250810190610d479190613cca565b610d7d576040517f99e120bc00000000000000000000000000000000000000000000000000000000815260040160405180910390fd5b6000546040517f10ddb13700000000000000000000000000000000000000000000000000000000815261ffff831660048201526201000090910473ffffffffffffffffffffffffffffffffffffffff16906310ddb13790602401610c71565b610de78686866126a3565b9350610df7868686868686612722565b505050505050565b6000610e0c8484846121a5565b73ffffffffffffffffffffffffffffffffffffffff8416600090815260c96020908152604080832033845290915290205482811015610ed2576040517f08c379a000000000000000000000000000000000000000000000000000000000815260206004820152602860248201527f45524332303a207472616e7366657220616d6f756e742065786365656473206160448201527f6c6c6f77616e636500000000000000000000000000000000000000000000000060648201526084015b60405180910390fd5b610edf85338584036124ef565b60019150505b9392505050565b60008060008686604051602001610f04929190613ce7565b604080518083037fffffffffffffffffffffffffffffffffffffffffffffffffffffffffffffffe0018152908290526000547f40a7bb1000000000000000000000000000000000000000000000000000000000835290925062010000900473ffffffffffffffffffffffffffffffffffffffff16906340a7bb1090610f95908b90309086908b908b90600401613d09565b6040805180830381865afa158015610fb1573d6000803e3d6000fd5b505050506040513d601f19601f82011682018060405250810190610fd59190613d68565b92509250509550959350505050565b33600081815260c96020908152604080832073ffffffffffffffffffffffffffffffffffffffff871684529091528120549091610cac918590611028908690613dbb565b6124ef565b61ffff83166000908152600260205260408120805482919061104e90613c5d565b80601f016020809104026020016040519081016040528092919081815260200182805461107a90613c5d565b80156110c75780601f1061109c576101008083540402835291602001916110c7565b820191906000526020600020905b8154815290600101906020018083116110aa57829003601f168201915b5050505050905083836040516110de929190613dd3565b60405180910390208180519060200120149150509392505050565b6003546040517f521d4de900000000000000000000000000000000000000000000000000000000815233600482015273ffffffffffffffffffffffffffffffffffffffff9091169063521d4de990602401602060405180830381865afa158015611167573d6000803e3d6000fd5b505050506040513d601f19601f8201168201806040525081019061118b9190613cca565b6111c1576040517f99e120bc00000000000000000000000000000000000000000000000000000000815260040160405180910390fd5b61012c546111e59073ffffffffffffffffffffffffffffffffffffffff1682612737565b50565b6003546040517f521d4de900000000000000000000000000000000000000000000000000000000815233600482015273ffffffffffffffffffffffffffffffffffffffff9091169063521d4de990602401602060405180830381865afa158015611256573d6000803e3d6000fd5b505050506040513d601f19601f8201168201806040525081019061127a9190613cca565b6112b0576040517f99e120bc00000000000000000000000000000000000000000000000000000000815260040160405180910390fd5b6000546040517f42d65a8d0000000000000000000000000000000000000000000000000000000081526201000090910473ffffffffffffffffffffffffffffffffffffffff16906342d65a8d9061130f90869086908690600401613e2c565b600060405180830381600087803b15801561132957600080fd5b505af115801561133d573d6000803e3d6000fd5b50505050505050565b33301461137f576040517f48f5c3ed00000000000000000000000000000000000000000000000000000000815260040160405180910390fd5b61138b84848484612921565b50505050565b600260205260009081526040902080546113aa90613c5d565b80601f01602080910402602001604051908101604052809291908181526020018280546113d690613c5d565b80156114235780601f106113f857610100808354040283529160200191611423565b820191906000526020600020905b81548152906001019060200180831161140657829003601f168201915b505050505081565b61012c546040517fd505accf000000000000000000000000000000000000000000000000000000008152336004820152306024820152604481018a90526064810186905260ff8516608482015260a4810184905260c4810183905273ffffffffffffffffffffffffffffffffffffffff9091169063d505accf9060e401600060405180830381600087803b1580156114c257600080fd5b505af11580156114d6573d6000803e3d6000fd5b505050506114e88a8a8a8a8a8a611d8d565b50505050505050505050565b606060cc8054610acb90613c5d565b6003546040517f521d4de900000000000000000000000000000000000000000000000000000000815233600482015273ffffffffffffffffffffffffffffffffffffffff9091169063521d4de990602401602060405180830381865afa158015611571573d6000803e3d6000fd5b505050506040513d601f19601f820116820180604052508101906115959190613cca565b6115cb576040517f99e120bc00000000000000000000000000000000000000000000000000000000815260040160405180910390fd5b61012c546111e59073ffffffffffffffffffffffffffffffffffffffff16826129cc565b33600090815260c96020908152604080832073ffffffffffffffffffffffffffffffffffffffff86168452909152812054828110156116b0576040517f08c379a000000000000000000000000000000000000000000000000000000000815260206004820152602560248201527f45524332303a2064656372656173656420616c6c6f77616e63652062656c6f7760448201527f207a65726f0000000000000000000000000000000000000000000000000000006064820152608401610ec9565b6116bd33858584036124ef565b5060019392505050565b6000610cac3384846121a5565b600054610100900460ff166116ef5760005460ff16156116f3565b303b155b61177f576040517f08c379a000000000000000000000000000000000000000000000000000000000815260206004820152602e60248201527f496e697469616c697a61626c653a20636f6e747261637420697320616c72656160448201527f647920696e697469616c697a65640000000000000000000000000000000000006064820152608401610ec9565b600054610100900460ff161580156117be57600080547fffffffffffffffffffffffffffffffffffffffffffffffffffffffffffff0000166101011790555b6117c88686612aec565b6117d28484612baa565b8273ffffffffffffffffffffffffffffffffffffffff1663e9cbd8226040518163ffffffff1660e01b8152600401602060405180830381865afa15801561181d573d6000803e3d6000fd5b505050506040513d601f19601f820116820180604052508101906118419190613e4a565b61012c80547fffffffffffffffffffffffff00000000000000000000000000000000000000001673ffffffffffffffffffffffffffffffffffffffff9290921691821790556118b29030907fffffffffffffffffffffffffffffffffffffffffffffffffffffffffffffffff6124ef565b61012c546118d69073ffffffffffffffffffffffffffffffffffffffff16836129cc565b8015610df757600080547fffffffffffffffffffffffffffffffffffffffffffffffffffffffffffff00ff169055505050505050565b6003546040517f521d4de900000000000000000000000000000000000000000000000000000000815233600482015273ffffffffffffffffffffffffffffffffffffffff9091169063521d4de990602401602060405180830381865afa15801561197a573d6000803e3d6000fd5b505050506040513d601f19601f8201168201806040525081019061199e9190613cca565b6119d4576040517f99e120bc00000000000000000000000000000000000000000000000000000000815260040160405180910390fd5b6000546040517fcbed8b9c0000000000000000000000000000000000000000000000000000000081526201000090910473ffffffffffffffffffffffffffffffffffffffff169063cbed8b9c90611a379088908890889088908890600401613e67565b600060405180830381600087803b158015611a5157600080fd5b505af1158015611a65573d6000803e3d6000fd5b505050505050505050565b61ffff84166000908152600160205260408082209051611a91908690613ea0565b908152604080516020928190038301902067ffffffffffffffff8616600090815292529020549050801580611acc5750815160208301208114155b15611b03576040517f7c6953f900000000000000000000000000000000000000000000000000000000815260040160405180910390fd5b61ffff85166000908152600160205260408082209051611b24908790613ea0565b908152604080516020928190038301902067ffffffffffffffff87166000908152925290205561095285858585612921565b6003546040517f521d4de900000000000000000000000000000000000000000000000000000000815233600482015273ffffffffffffffffffffffffffffffffffffffff9091169063521d4de990602401602060405180830381865afa158015611bc4573d6000803e3d6000fd5b505050506040513d601f19601f82011682018060405250810190611be89190613cca565b611c1e576040517f99e120bc00000000000000000000000000000000000000000000000000000000815260040160405180910390fd5b61012c54611c6490309073ffffffffffffffffffffffffffffffffffffffff167fffffffffffffffffffffffffffffffffffffffffffffffffffffffffffffffff6124ef565b565b6003546040517f521d4de900000000000000000000000000000000000000000000000000000000815233600482015273ffffffffffffffffffffffffffffffffffffffff9091169063521d4de990602401602060405180830381865afa158015611cd4573d6000803e3d6000fd5b505050506040513d601f19601f82011682018060405250810190611cf89190613cca565b611d2e576040517f99e120bc00000000000000000000000000000000000000000000000000000000815260040160405180910390fd5b61ffff83166000908152600260205260409020611d4c9083836132bf565b507ffa41487ad5d6728f0b19276fa1eddc16558578f5109fc39d2dc33c3230470dab838383604051611d8093929190613e2c565b60405180910390a1505050565b611d98868686612c8d565b935060008585604051602001611daf929190613ce7565b6040516020818303038152906040529050611dcd8782868686612e54565b600080546040517f7a14574800000000000000000000000000000000000000000000000000000000815261ffff8a1660048201523060248201526201000090910473ffffffffffffffffffffffffffffffffffffffff1690637a14574890604401602060405180830381865afa158015611e4b573d6000803e3d6000fd5b505050506040513d601f19601f82011682018060405250810190611e6f9190613ebc565b905086604051611e7f9190613ea0565b6040805191829003822088835267ffffffffffffffff841660208401529161ffff8b169133917f024797cc77ce15dc717112d54fb1df125fdfd8c81344fb046c5e074427ce1543910160405180910390a45050505050505050565b6003546040517f521d4de900000000000000000000000000000000000000000000000000000000815233600482015273ffffffffffffffffffffffffffffffffffffffff9091169063521d4de990602401602060405180830381865afa158015611f48573d6000803e3d6000fd5b505050506040513d601f19601f82011682018060405250810190611f6c9190613cca565b611fa2576040517f99e120bc00000000000000000000000000000000000000000000000000000000815260040160405180910390fd5b80611faf576111e5612fcf565b6111e56130b0565b6000546040517ff5ecbdbc00000000000000000000000000000000000000000000000000000000815261ffff8087166004830152851660248201523060448201526064810183905260609162010000900473ffffffffffffffffffffffffffffffffffffffff169063f5ecbdbc90608401600060405180830381865afa158015612045573d6000803e3d6000fd5b505050506040513d6000823e601f3d9081017fffffffffffffffffffffffffffffffffffffffffffffffffffffffffffffffe016820160405261208b9190810190613f26565b95945050505050565b3b151590565b6040517f66ad5c8a00000000000000000000000000000000000000000000000000000000815230906366ad5c8a906120dc908790879087908790600401613f5b565b600060405180830381600087803b1580156120f657600080fd5b505af1925050508015612107575060015b61138b578080519060200120600160008661ffff1661ffff1681526020019081526020016000208460405161213c9190613ea0565b90815260408051918290036020908101832067ffffffffffffffff87166000908152915220919091557fe6f254030bcb01ffd20558175c13fcaed6d1520be7becee4c961b65f79243b0d90612198908690869086908690613f5b565b60405180910390a161138b565b73ffffffffffffffffffffffffffffffffffffffff8316612248576040517f08c379a000000000000000000000000000000000000000000000000000000000815260206004820152602560248201527f45524332303a207472616e736665722066726f6d20746865207a65726f20616460448201527f64726573730000000000000000000000000000000000000000000000000000006064820152608401610ec9565b73ffffffffffffffffffffffffffffffffffffffff82166122eb576040517f08c379a000000000000000000000000000000000000000000000000000000000815260206004820152602360248201527f45524332303a207472616e7366657220746f20746865207a65726f206164647260448201527f65737300000000000000000000000000000000000000000000000000000000006064820152608401610ec9565b73ffffffffffffffffffffffffffffffffffffffff8316600090815260c86020526040902054818110156123a1576040517f08c379a000000000000000000000000000000000000000000000000000000000815260206004820152602660248201527f45524332303a207472616e7366657220616d6f756e742065786365656473206260448201527f616c616e636500000000000000000000000000000000000000000000000000006064820152608401610ec9565b73ffffffffffffffffffffffffffffffffffffffff808516600090815260c860205260408082208585039055918516815290812080548492906123e5908490613dbb565b925050819055508273ffffffffffffffffffffffffffffffffffffffff168473ffffffffffffffffffffffffffffffffffffffff167fddf252ad1be2c89b69c2b068fc378daa952ba7f163c4a11628f55a4df523b3ef8460405161244b91815260200190565b60405180910390a361138b565b60007fffffffff0000000000000000000000000000000000000000000000000000000082167f5110f697000000000000000000000000000000000000000000000000000000001480610ab657507f01ffc9a7000000000000000000000000000000000000000000000000000000007fffffffff00000000000000000000000000000000000000000000000000000000831614610ab6565b73ffffffffffffffffffffffffffffffffffffffff8316612591576040517f08c379a0000000000000000000000000000000000000000000000000000000008152602060048201526024808201527f45524332303a20617070726f76652066726f6d20746865207a65726f2061646460448201527f72657373000000000000000000000000000000000000000000000000000000006064820152608401610ec9565b73ffffffffffffffffffffffffffffffffffffffff8216612634576040517f08c379a000000000000000000000000000000000000000000000000000000000815260206004820152602260248201527f45524332303a20617070726f766520746f20746865207a65726f20616464726560448201527f73730000000000000000000000000000000000000000000000000000000000006064820152608401610ec9565b73ffffffffffffffffffffffffffffffffffffffff838116600081815260c9602090815260408083209487168084529482529182902085905590518481527f8c5be1e5ebec7d5bd14f71427d1e84f3dd0314c0f7b2291e5b200ac8c7c3b92591015b60405180910390a3505050565b60006126b160fa5460ff1690565b15612718576040517f08c379a000000000000000000000000000000000000000000000000000000000815260206004820152601060248201527f5061757361626c653a20706175736564000000000000000000000000000000006044820152606401610ec9565b610a2e3383612737565b60008585604051602001611daf929190613ce7565b73ffffffffffffffffffffffffffffffffffffffff82166127da576040517f08c379a000000000000000000000000000000000000000000000000000000000815260206004820152602160248201527f45524332303a206275726e2066726f6d20746865207a65726f2061646472657360448201527f73000000000000000000000000000000000000000000000000000000000000006064820152608401610ec9565b73ffffffffffffffffffffffffffffffffffffffff8216600090815260c8602052604090205481811015612890576040517f08c379a000000000000000000000000000000000000000000000000000000000815260206004820152602260248201527f45524332303a206275726e20616d6f756e7420657863656564732062616c616e60448201527f63650000000000000000000000000000000000000000000000000000000000006064820152608401610ec9565b73ffffffffffffffffffffffffffffffffffffffff8316600090815260c860205260408120838303905560ca80548492906128cc908490613f9a565b909155505060405182815260009073ffffffffffffffffffffffffffffffffffffffff8516907fddf252ad1be2c89b69c2b068fc378daa952ba7f163c4a11628f55a4df523b3ef90602001612696565b505050565b600080828060200190518101906129389190613fb1565b6014820151919350915061294d878284613170565b91508073ffffffffffffffffffffffffffffffffffffffff16866040516129749190613ea0565b6040805191829003822085835267ffffffffffffffff891660208401529161ffff8b16917f64e10c37f404d128982dce114f5d233c14c5c7f6d8db93099e3d99dacb9e27ba910160405180910390a450505050505050565b73ffffffffffffffffffffffffffffffffffffffff8216612a49576040517f08c379a000000000000000000000000000000000000000000000000000000000815260206004820152601f60248201527f45524332303a206d696e7420746f20746865207a65726f2061646472657373006044820152606401610ec9565b8060ca6000828254612a5b9190613dbb565b909155505073ffffffffffffffffffffffffffffffffffffffff8216600090815260c8602052604081208054839290612a95908490613dbb565b909155505060405181815273ffffffffffffffffffffffffffffffffffffffff8316906000907fddf252ad1be2c89b69c2b068fc378daa952ba7f163c4a11628f55a4df523b3ef9060200160405180910390a35050565b600054610100900460ff16612b83576040517f08c379a000000000000000000000000000000000000000000000000000000000815260206004820152602b60248201527f496e697469616c697a61626c653a20636f6e7472616374206973206e6f74206960448201527f6e697469616c697a696e670000000000000000000000000000000000000000006064820152608401610ec9565b8151612b969060cb906020850190613361565b50805161291c9060cc906020840190613361565b73ffffffffffffffffffffffffffffffffffffffff82161580612be1575073ffffffffffffffffffffffffffffffffffffffff8116155b15612c18576040517fd92e233d00000000000000000000000000000000000000000000000000000000815260040160405180910390fd5b600080547fffffffffffffffffffff0000000000000000000000000000000000000000ffff166201000073ffffffffffffffffffffffffffffffffffffffff94851602179055600380547fffffffffffffffffffffffff00000000000000000000000000000000000000001691909216179055565b6000612c9b60fa5460ff1690565b15612d02576040517f08c379a000000000000000000000000000000000000000000000000000000000815260206004820152601060248201527f5061757361626c653a20706175736564000000000000000000000000000000006044820152606401610ec9565b61012c546040517f23b872dd0000000000000000000000000000000000000000000000000000000081523360048201523060248201526044810184905273ffffffffffffffffffffffffffffffffffffffff909116906323b872dd906064016020604051808303816000875af1158015612d80573d6000803e3d6000fd5b505050506040513d601f19601f82011682018060405250810190612da49190613cca565b5061012c546040517fd44ad63f000000000000000000000000000000000000000000000000000000008152306004820181905260248201859052604482015273ffffffffffffffffffffffffffffffffffffffff9091169063d44ad63f906064016020604051808303816000875af1158015612e24573d6000803e3d6000fd5b505050506040513d601f19601f82011682018060405250810190612e489190613cb1565b9050610ee53082612737565b61ffff851660009081526002602052604081208054612e7290613c5d565b80601f0160208091040260200160405190810160405280929190818152602001828054612e9e90613c5d565b8015612eeb5780601f10612ec057610100808354040283529160200191612eeb565b820191906000526020600020905b815481529060010190602001808311612ece57829003601f168201915b50505050509050805160001415612f2e576040517f8154374b00000000000000000000000000000000000000000000000000000000815260040160405180910390fd5b6000546040517fc58031000000000000000000000000000000000000000000000000000000000081526201000090910473ffffffffffffffffffffffffffffffffffffffff169063c5803100903490612f95908a9086908b908b908b908b90600401613ff8565b6000604051808303818588803b158015612fae57600080fd5b505af1158015612fc2573d6000803e3d6000fd5b5050505050505050505050565b60fa5460ff1661303b576040517f08c379a000000000000000000000000000000000000000000000000000000000815260206004820152601460248201527f5061757361626c653a206e6f74207061757365640000000000000000000000006044820152606401610ec9565b60fa80547fffffffffffffffffffffffffffffffffffffffffffffffffffffffffffffff001690557f5db9ee0a495bf2e6ff9c91a7834c1ba4fdd244a5e8aa4e537bd38aeae4b073aa335b60405173ffffffffffffffffffffffffffffffffffffffff909116815260200160405180910390a1565b60fa5460ff161561311d576040517f08c379a000000000000000000000000000000000000000000000000000000000815260206004820152601060248201527f5061757361626c653a20706175736564000000000000000000000000000000006044820152606401610ec9565b60fa80547fffffffffffffffffffffffffffffffffffffffffffffffffffffffffffffff001660011790557f62e78cea01bee320cd4e420270b5ea74000d11b0c9f74754ebdbfc544b05a2586130863390565b600061317e60fa5460ff1690565b156131e5576040517f08c379a000000000000000000000000000000000000000000000000000000000815260206004820152601060248201527f5061757361626c653a20706175736564000000000000000000000000000000006044820152606401610ec9565b6131ef30836129cc565b61012c546040517f151dd7550000000000000000000000000000000000000000000000000000000081523060048201526024810184905273ffffffffffffffffffffffffffffffffffffffff85811660448301529091169063151dd755906064016020604051808303816000875af115801561326f573d6000803e3d6000fd5b505050506040513d601f19601f820116820180604052508101906132939190613cb1565b30600090815260c8602052604090205490915080156132b7576132b73085836121a5565b509392505050565b8280546132cb90613c5d565b90600052602060002090601f0160209004810192826132ed5760008555613351565b82601f10613324578280017fffffffffffffffffffffffffffffffffffffffffffffffffffffffffffffff00823516178555613351565b82800160010185558215613351579182015b82811115613351578235825591602001919060010190613336565b5061335d9291506133d5565b5090565b82805461336d90613c5d565b90600052602060002090601f01602090048101928261338f5760008555613351565b82601f106133a857805160ff1916838001178555613351565b82800160010185558215613351579182015b828111156133515782518255916020019190600101906133ba565b5b8082111561335d57600081556001016133d6565b803561ffff811681146133fc57600080fd5b919050565b7f4e487b7100000000000000000000000000000000000000000000000000000000600052604160045260246000fd5b604051601f82017fffffffffffffffffffffffffffffffffffffffffffffffffffffffffffffffe016810167ffffffffffffffff8111828210171561347757613477613401565b604052919050565b600067ffffffffffffffff82111561349957613499613401565b50601f017fffffffffffffffffffffffffffffffffffffffffffffffffffffffffffffffe01660200190565b600082601f8301126134d657600080fd5b81356134e96134e48261347f565b613430565b8181528460208386010111156134fe57600080fd5b816020850160208301376000918101602001919091529392505050565b67ffffffffffffffff811681146111e557600080fd5b6000806000806080858703121561354757600080fd5b613550856133ea565b9350602085013567ffffffffffffffff8082111561356d57600080fd5b613579888389016134c5565b94506040870135915061358b8261351b565b909250606086013590808211156135a157600080fd5b506135ae878288016134c5565b91505092959194509250565b73ffffffffffffffffffffffffffffffffffffffff811681146111e557600080fd5b80356133fc816135ba565b600080604083850312156135fa57600080fd5b82359150602083013561360c816135ba565b809150509250929050565b60006020828403121561362957600080fd5b81357fffffffff0000000000000000000000000000000000000000000000000000000081168114610ee557600080fd5b60005b8381101561367457818101518382015260200161365c565b8381111561138b5750506000910152565b6000815180845261369d816020860160208601613659565b601f017fffffffffffffffffffffffffffffffffffffffffffffffffffffffffffffffe0169290920160200192915050565b602081526000610ee56020830184613685565b6000602082840312156136f457600080fd5b610ee5826133ea565b6000806040838503121561371057600080fd5b823561371b816135ba565b946020939093013593505050565b60008060008060008060c0878903121561374257600080fd5b61374b876133ea565b9550602087013567ffffffffffffffff8082111561376857600080fd5b6137748a838b016134c5565b9650604089013595506060890135915061378d826135ba565b90935060808801359061379f826135ba565b90925060a088013590808211156137b557600080fd5b506137c289828a016134c5565b9150509295509295509295565b6000806000606084860312156137e457600080fd5b83356137ef816135ba565b925060208401356137ff816135ba565b929592945050506040919091013590565b80151581146111e557600080fd5b600080600080600060a0868803121561383657600080fd5b61383f866133ea565b9450602086013567ffffffffffffffff8082111561385c57600080fd5b61386889838a016134c5565b9550604088013594506060880135915061388182613810565b9092506080870135908082111561389757600080fd5b506138a4888289016134c5565b9150509295509295909350565b60008083601f8401126138c357600080fd5b50813567ffffffffffffffff8111156138db57600080fd5b6020830191508360208285010111156138f357600080fd5b9250929050565b60008060006040848603121561390f57600080fd5b613918846133ea565b9250602084013567ffffffffffffffff81111561393457600080fd5b613940868287016138b1565b9497909650939450505050565b60006020828403121561395f57600080fd5b5035919050565b60008060006060848603121561397b57600080fd5b613984846133ea565b9250602084013567ffffffffffffffff8111156139a057600080fd5b6139ac868287016134c5565b92505060408401356139bd8161351b565b809150509250925092565b6000602082840312156139da57600080fd5b8135610ee5816135ba565b803560ff811681146133fc57600080fd5b6000806000806000806000806000806101408b8d031215613a1657600080fd5b613a1f8b6133ea565b995060208b013567ffffffffffffffff80821115613a3c57600080fd5b613a488e838f016134c5565b9a5060408d01359950613a5d60608e016135dc565b9850613a6b60808e016135dc565b975060a08d0135915080821115613a8157600080fd5b50613a8e8d828e016134c5565b95505060c08b01359350613aa460e08c016139e5565b92506101008b013591506101208b013590509295989b9194979a5092959850565b600080600080600060a08688031215613add57600080fd5b853567ffffffffffffffff80821115613af557600080fd5b613b0189838a016134c5565b96506020880135915080821115613b1757600080fd5b50613b24888289016134c5565b9450506040860135613b35816135ba565b92506060860135613b45816135ba565b949793965091946080013592915050565b600080600080600060808688031215613b6e57600080fd5b613b77866133ea565b9450613b85602087016133ea565b935060408601359250606086013567ffffffffffffffff811115613ba857600080fd5b613bb4888289016138b1565b969995985093965092949392505050565b60008060408385031215613bd857600080fd5b8235613be3816135ba565b9150602083013561360c816135ba565b600060208284031215613c0557600080fd5b8135610ee581613810565b60008060008060808587031215613c2657600080fd5b613c2f856133ea565b9350613c3d602086016133ea565b92506040850135613c4d816135ba565b9396929550929360600135925050565b600181811c90821680613c7157607f821691505b60208210811415613cab577f4e487b7100000000000000000000000000000000000000000000000000000000600052602260045260246000fd5b50919050565b600060208284031215613cc357600080fd5b5051919050565b600060208284031215613cdc57600080fd5b8151610ee581613810565b604081526000613cfa6040830185613685565b90508260208301529392505050565b61ffff8616815273ffffffffffffffffffffffffffffffffffffffff8516602082015260a060408201526000613d4260a0830186613685565b84151560608401528281036080840152613d5c8185613685565b98975050505050505050565b60008060408385031215613d7b57600080fd5b505080516020909101519092909150565b7f4e487b7100000000000000000000000000000000000000000000000000000000600052601160045260246000fd5b60008219821115613dce57613dce613d8c565b500190565b8183823760009101908152919050565b8183528181602085013750600060208284010152600060207fffffffffffffffffffffffffffffffffffffffffffffffffffffffffffffffe0601f840116840101905092915050565b61ffff8416815260406020820152600061208b604083018486613de3565b600060208284031215613e5c57600080fd5b8151610ee5816135ba565b600061ffff808816835280871660208401525084604083015260806060830152613e95608083018486613de3565b979650505050505050565b60008251613eb2818460208701613659565b9190910192915050565b600060208284031215613ece57600080fd5b8151610ee58161351b565b600082601f830112613eea57600080fd5b8151613ef86134e48261347f565b818152846020838601011115613f0d57600080fd5b613f1e826020830160208701613659565b949350505050565b600060208284031215613f3857600080fd5b815167ffffffffffffffff811115613f4f57600080fd5b613f1e84828501613ed9565b61ffff85168152608060208201526000613f786080830186613685565b67ffffffffffffffff851660408401528281036060840152613e958185613685565b600082821015613fac57613fac613d8c565b500390565b60008060408385031215613fc457600080fd5b825167ffffffffffffffff811115613fdb57600080fd5b613fe785828601613ed9565b925050602083015190509250929050565b61ffff8716815260c06020820152600061401560c0830188613685565b82810360408401526140278188613685565b73ffffffffffffffffffffffffffffffffffffffff87811660608601528616608085015283810360a0850152905061405f8185613685565b999850505050505050505056fea2646970667358221220d9683c390df6982687d1acd7a04eaff5d7c4eadad30edb98754705321e77ec5964736f6c634300080c0033",
  "devdoc": {
    "author": "Angle Core Team, forked from https://github.com/LayerZero-Labs/solidity-examples/blob/main/contracts/token/oft/OFT.sol",
    "kind": "dev",
    "methods": {
      "allowance(address,address)": {
        "details": "See {IERC20-allowance}."
      },
      "approve(address,uint256)": {
        "details": "See {IERC20-approve}. Requirements: - `spender` cannot be the zero address."
      },
      "balanceOf(address)": {
        "details": "See {IERC20-balanceOf}."
      },
      "burn(uint256)": {
        "details": "Used to decrease the bridging capacity"
      },
      "constructor": {
        "custom:oz-upgrades-unsafe-allow": "constructor"
      },
      "decimals()": {
        "details": "Returns the number of decimals used to get its user representation. For example, if `decimals` equals `2`, a balance of `505` tokens should be displayed to a user as `5.05` (`505 / 10 ** 2`). Tokens usually opt for a value of 18, imitating the relationship between Ether and Wei. This is the value {ERC20} uses, unless this function is overridden; NOTE: This information is only used for _display_ purposes: it in no way affects any of the arithmetic of the contract, including {IERC20-balanceOf} and {IERC20-transfer}."
      },
      "decreaseAllowance(address,uint256)": {
        "details": "Atomically decreases the allowance granted to `spender` by the caller. This is an alternative to {approve} that can be used as a mitigation for problems described in {IERC20-approve}. Emits an {Approval} event indicating the updated allowance. Requirements: - `spender` cannot be the zero address. - `spender` must have allowance for the caller of at least `subtractedValue`."
      },
      "estimateSendFee(uint16,bytes,uint256,bool,bytes)": {
        "params": {
          "_adapterParams": "flexible bytes array to indicate messaging adapter services in L0",
          "_amount": "amount of the tokens to transfer",
          "_dstChainId": "L0 defined chain id to send tokens too",
          "_toAddress": "dynamic bytes array which contains the address to whom you are sending tokens to on the dstChain",
          "_useZro": "indicates to use zro to pay L0 fees"
        }
      },
      "increaseAllowance(address,uint256)": {
        "details": "Atomically increases the allowance granted to `spender` by the caller. This is an alternative to {approve} that can be used as a mitigation for problems described in {IERC20-approve}. Emits an {Approval} event indicating the updated allowance. Requirements: - `spender` cannot be the zero address."
      },
      "initialize(string,string,address,address,uint256)": {
        "details": "The initial supply corresponds to the initial amount that could be bridged using this OFT",
        "params": {
          "_lzEndpoint": "Layer zero endpoint to pass messages",
          "_name": "Name of the token corresponding to this contract",
          "_symbol": "Symbol of the token corresponding to this contract",
          "_treasury": "Address of the treasury contract used for access control",
          "initialSupply": "Initial supply to mint to the canonical token address"
        }
      },
      "lzReceive(uint16,bytes,uint64,bytes)": {
        "params": {
          "_nonce": "Nounce of the message",
          "_payload": "Data: recipient address and amount",
          "_srcAddress": "Sender of the source chain",
          "_srcChainId": "ChainId of the source chain - LayerZero standard"
        }
      },
      "mint(uint256)": {
        "details": "Used to increase the bridging capacity"
      },
      "name()": {
        "details": "Returns the name of the token."
      },
      "nonblockingLzReceive(uint16,bytes,uint64,bytes)": {
        "details": "public for the needs of try / catch but effectively internal",
        "params": {
          "_nonce": "Nounce of the message",
          "_payload": "Data: recipient address and amount",
          "_srcAddress": "Sender of the source chain",
          "_srcChainId": "ChainId of the source chain - LayerZero standard"
        }
      },
      "pauseSendTokens(bool)": {
        "params": {
          "pause": "Future pause status"
        }
      },
      "paused()": {
        "details": "Returns true if the contract is paused, and false otherwise."
      },
      "retryMessage(uint16,bytes,uint64,bytes)": {
        "params": {
          "_nonce": "Nounce of the message",
          "_payload": "Data: recipient address and amount",
          "_srcAddress": "Sender of the source chain",
          "_srcChainId": "ChainId of the source chain - LayerZero standard"
        }
      },
      "send(uint16,bytes,uint256,address,address,bytes)": {
        "params": {
          "_adapterParams": "is a flexible bytes array to indicate messaging adapter services",
          "_amount": "the quantity of tokens in wei",
          "_dstChainId": "the destination chain identifier",
          "_refundAddress": "the address LayerZero refunds if too much message fee is sent",
          "_toAddress": "can be any size depending on the `dstChainId`.",
          "_zroPaymentAddress": "set to address(0x0) if not paying in ZRO (LayerZero Token)"
        }
      },
      "sendCredit(uint16,bytes,uint256,address,address,bytes)": {
        "params": {
          "_adapterParams": "is a flexible bytes array to indicate messaging adapter services",
          "_amount": "the quantity of credit to send in wei",
          "_dstChainId": "the destination chain identifier",
          "_refundAddress": "the address LayerZero refunds if too much message fee is sent",
          "_toAddress": "can be any size depending on the `dstChainId`.",
          "_zroPaymentAddress": "set to address(0x0) if not paying in ZRO (LayerZero Token)"
        }
      },
      "sendWithPermit(uint16,bytes,uint256,address,address,bytes,uint256,uint8,bytes32,bytes32)": {
        "details": "The `v`, `r`, and `s` parameters are used as signature data",
        "params": {
          "_adapterParams": "Flexible bytes array to indicate messaging adapter services",
          "_amount": "Quantity of tokens in wei",
          "_dstChainId": "The destination chain identifier",
          "_refundAddress": "Address LayerZero refunds if too much message fee is sent",
          "_toAddress": "Can be any size depending on the `dstChainId`.",
          "_zroPaymentAddress": "Set to address(0x0) if not paying in ZRO (LayerZero Token)",
          "deadline": "Deadline parameter for the signature to be valid"
        }
      },
      "setTrustedRemote(uint16,bytes)": {
        "details": "Used for both receiving and sending messageThere can only be one trusted source per chainAllows owner to set it multiple times.",
        "params": {
          "_srcAddress": "Address on the source chain",
          "_srcChainId": "ChainId of the source chain - LayerZero standard"
        }
      },
      "supportsInterface(bytes4)": {
        "details": "See {IERC165-supportsInterface}."
      },
      "symbol()": {
        "details": "Returns the symbol of the token, usually a shorter version of the name."
      },
      "totalSupply()": {
        "details": "See {IERC20-totalSupply}."
      },
      "transfer(address,uint256)": {
        "details": "See {IERC20-transfer}. Requirements: - `recipient` cannot be the zero address. - the caller must have a balance of at least `amount`."
      },
      "transferFrom(address,address,uint256)": {
        "details": "See {IERC20-transferFrom}. Emits an {Approval} event indicating the updated allowance. This is not required by the EIP. See the note at the beginning of {ERC20}. Requirements: - `sender` and `recipient` cannot be the zero address. - `sender` must have a balance of at least `amount`. - the caller must have allowance for ``sender``'s tokens of at least `amount`."
      },
      "withdraw(uint256,address)": {
        "params": {
          "amount": "Amount to withdraw",
          "recipient": "Address to send the canonical token to"
        },
        "returns": {
          "amountMinted": "The amount of canonical token sent"
        }
      }
    },
    "stateVariables": {
      "canonicalToken": {
        "details": "Immutable"
      }
    },
    "title": "LayerZeroBridgeToken",
    "version": 1
  },
  "userdoc": {
    "kind": "user",
    "methods": {
      "burn(uint256)": {
        "notice": "Burns the intermediate contract from the `canonicalToken`"
      },
      "canonicalToken()": {
        "notice": "Address of the bridgeable token"
      },
      "estimateSendFee(uint16,bytes,uint256,bool,bytes)": {
        "notice": "Estimates send token `_tokenId` to (`_dstChainId`, `_toAddress`)"
      },
      "failedMessages(uint16,bytes,uint64)": {
        "notice": "Maps chainIds to failed messages to retry them"
      },
      "forceResumeReceive(uint16,bytes)": {
        "notice": "Unpauses the receive functionalities"
      },
      "getConfig(uint16,uint16,address,uint256)": {
        "notice": "Fetches the default LZ config"
      },
      "initialize(string,string,address,address,uint256)": {
        "notice": "Initializes the contract"
      },
      "isTrustedRemote(uint16,bytes)": {
        "notice": "Checks if the `_srcAddress` corresponds to the trusted source"
      },
      "lzEndpoint()": {
        "notice": "Layer Zero endpoint"
      },
      "lzReceive(uint16,bytes,uint64,bytes)": {
        "notice": "Receives a message from the LZ endpoint and process it"
      },
      "mint(uint256)": {
        "notice": "Mints the intermediate contract to the `canonicalToken`"
      },
      "nonblockingLzReceive(uint16,bytes,uint64,bytes)": {
        "notice": "Handles message receptions in a non blocking way"
      },
      "pauseSendTokens(bool)": {
        "notice": "Pauses bridging through the contract"
      },
      "retryMessage(uint16,bytes,uint64,bytes)": {
        "notice": "Retries a message that previously failed and was stored"
      },
      "send(uint16,bytes,uint256,address,address,bytes)": {
        "notice": "Sends `_amount` amount of token to (`_dstChainId`, `_toAddress`)"
      },
      "sendCredit(uint16,bytes,uint256,address,address,bytes)": {
        "notice": "Sends `_amount` amount of credit to (`_dstChainId`, `_toAddress`)"
      },
      "sendWithPermit(uint16,bytes,uint256,address,address,bytes,uint256,uint8,bytes32,bytes32)": {
        "notice": "Sends `_amount` amount of token to (`_dstChainId`, `_toAddress`)"
      },
      "setConfig(uint16,uint16,uint256,bytes)": {
        "notice": "Overrides the default LZ config"
      },
      "setReceiveVersion(uint16)": {
        "notice": "Overrides the default LZ config"
      },
      "setSendVersion(uint16)": {
        "notice": "Overrides the default LZ config"
      },
      "setTrustedRemote(uint16,bytes)": {
        "notice": "Sets the corresponding address on an other chain."
      },
      "setupAllowance()": {
        "notice": "Increases allowance of the `canonicalToken`"
      },
      "treasury()": {
        "notice": "Reference to the treasury contract to fetch access control"
      },
      "trustedRemoteLookup(uint16)": {
        "notice": "Maps chainIds to their OFT address"
      },
      "withdraw(uint256,address)": {
        "notice": "Withdraws amount of canonical token from the `msg.sender` balance and sends it to the recipient"
      }
    },
    "notice": "Contract to be deployed on a L2/sidechain for bridging an AgToken using a bridge intermediate token and LayerZero",
    "version": 1
  },
  "storageLayout": {
    "storage": [
      {
        "astId": 772,
        "contract": "contracts/agToken/layerZero/LayerZeroBridgeToken.sol:LayerZeroBridgeToken",
        "label": "_initialized",
        "offset": 0,
        "slot": "0",
        "type": "t_bool"
      },
      {
        "astId": 775,
        "contract": "contracts/agToken/layerZero/LayerZeroBridgeToken.sol:LayerZeroBridgeToken",
        "label": "_initializing",
        "offset": 1,
        "slot": "0",
        "type": "t_bool"
      },
      {
        "astId": 10070,
        "contract": "contracts/agToken/layerZero/LayerZeroBridgeToken.sol:LayerZeroBridgeToken",
        "label": "lzEndpoint",
        "offset": 2,
        "slot": "0",
        "type": "t_contract(ILayerZeroEndpoint)15661"
      },
      {
        "astId": 10079,
        "contract": "contracts/agToken/layerZero/LayerZeroBridgeToken.sol:LayerZeroBridgeToken",
        "label": "failedMessages",
        "offset": 0,
        "slot": "1",
        "type": "t_mapping(t_uint16,t_mapping(t_bytes_memory_ptr,t_mapping(t_uint64,t_bytes32)))"
      },
      {
        "astId": 10084,
        "contract": "contracts/agToken/layerZero/LayerZeroBridgeToken.sol:LayerZeroBridgeToken",
        "label": "trustedRemoteLookup",
        "offset": 0,
        "slot": "2",
        "type": "t_mapping(t_uint16,t_bytes_storage)"
      },
      {
        "astId": 10087,
        "contract": "contracts/agToken/layerZero/LayerZeroBridgeToken.sol:LayerZeroBridgeToken",
        "label": "treasury",
        "offset": 0,
        "slot": "3",
        "type": "t_address"
      },
      {
        "astId": 10566,
        "contract": "contracts/agToken/layerZero/LayerZeroBridgeToken.sol:LayerZeroBridgeToken",
        "label": "__gap",
        "offset": 0,
        "slot": "4",
        "type": "t_array(t_uint256)46_storage"
      },
      {
        "astId": 3454,
        "contract": "contracts/agToken/layerZero/LayerZeroBridgeToken.sol:LayerZeroBridgeToken",
        "label": "__gap",
        "offset": 0,
        "slot": "50",
        "type": "t_array(t_uint256)50_storage"
      },
      {
        "astId": 10913,
        "contract": "contracts/agToken/layerZero/LayerZeroBridgeToken.sol:LayerZeroBridgeToken",
        "label": "__gap",
        "offset": 0,
        "slot": "100",
        "type": "t_array(t_uint256)50_storage"
      },
      {
        "astId": 2592,
        "contract": "contracts/agToken/layerZero/LayerZeroBridgeToken.sol:LayerZeroBridgeToken",
        "label": "__gap",
        "offset": 0,
        "slot": "150",
        "type": "t_array(t_uint256)50_storage"
      },
      {
        "astId": 1029,
        "contract": "contracts/agToken/layerZero/LayerZeroBridgeToken.sol:LayerZeroBridgeToken",
        "label": "_balances",
        "offset": 0,
        "slot": "200",
        "type": "t_mapping(t_address,t_uint256)"
      },
      {
        "astId": 1035,
        "contract": "contracts/agToken/layerZero/LayerZeroBridgeToken.sol:LayerZeroBridgeToken",
        "label": "_allowances",
        "offset": 0,
        "slot": "201",
        "type": "t_mapping(t_address,t_mapping(t_address,t_uint256))"
      },
      {
        "astId": 1037,
        "contract": "contracts/agToken/layerZero/LayerZeroBridgeToken.sol:LayerZeroBridgeToken",
        "label": "_totalSupply",
        "offset": 0,
        "slot": "202",
        "type": "t_uint256"
      },
      {
        "astId": 1039,
        "contract": "contracts/agToken/layerZero/LayerZeroBridgeToken.sol:LayerZeroBridgeToken",
        "label": "_name",
        "offset": 0,
        "slot": "203",
        "type": "t_string_storage"
      },
      {
        "astId": 1041,
        "contract": "contracts/agToken/layerZero/LayerZeroBridgeToken.sol:LayerZeroBridgeToken",
        "label": "_symbol",
        "offset": 0,
        "slot": "204",
        "type": "t_string_storage"
      },
      {
        "astId": 1582,
        "contract": "contracts/agToken/layerZero/LayerZeroBridgeToken.sol:LayerZeroBridgeToken",
        "label": "__gap",
        "offset": 0,
        "slot": "205",
        "type": "t_array(t_uint256)45_storage"
      },
      {
        "astId": 860,
        "contract": "contracts/agToken/layerZero/LayerZeroBridgeToken.sol:LayerZeroBridgeToken",
        "label": "_paused",
        "offset": 0,
        "slot": "250",
        "type": "t_bool"
      },
      {
        "astId": 951,
        "contract": "contracts/agToken/layerZero/LayerZeroBridgeToken.sol:LayerZeroBridgeToken",
        "label": "__gap",
        "offset": 0,
        "slot": "251",
        "type": "t_array(t_uint256)49_storage"
      },
      {
        "astId": 9505,
        "contract": "contracts/agToken/layerZero/LayerZeroBridgeToken.sol:LayerZeroBridgeToken",
        "label": "canonicalToken",
        "offset": 0,
        "slot": "300",
        "type": "t_contract(IAgTokenSideChainMultiBridge)14140"
      },
      {
        "astId": 9927,
        "contract": "contracts/agToken/layerZero/LayerZeroBridgeToken.sol:LayerZeroBridgeToken",
        "label": "__gap",
        "offset": 0,
        "slot": "301",
        "type": "t_array(t_uint256)49_storage"
      }
    ],
    "types": {
      "t_address": {
        "encoding": "inplace",
        "label": "address",
        "numberOfBytes": "20"
      },
      "t_array(t_uint256)45_storage": {
        "base": "t_uint256",
        "encoding": "inplace",
        "label": "uint256[45]",
        "numberOfBytes": "1440"
      },
      "t_array(t_uint256)46_storage": {
        "base": "t_uint256",
        "encoding": "inplace",
        "label": "uint256[46]",
        "numberOfBytes": "1472"
      },
      "t_array(t_uint256)49_storage": {
        "base": "t_uint256",
        "encoding": "inplace",
        "label": "uint256[49]",
        "numberOfBytes": "1568"
      },
      "t_array(t_uint256)50_storage": {
        "base": "t_uint256",
        "encoding": "inplace",
        "label": "uint256[50]",
        "numberOfBytes": "1600"
      },
      "t_bool": {
        "encoding": "inplace",
        "label": "bool",
        "numberOfBytes": "1"
      },
      "t_bytes32": {
        "encoding": "inplace",
        "label": "bytes32",
        "numberOfBytes": "32"
      },
      "t_bytes_memory_ptr": {
        "encoding": "bytes",
        "label": "bytes",
        "numberOfBytes": "32"
      },
      "t_bytes_storage": {
        "encoding": "bytes",
        "label": "bytes",
        "numberOfBytes": "32"
      },
      "t_contract(IAgTokenSideChainMultiBridge)14140": {
        "encoding": "inplace",
        "label": "contract IAgTokenSideChainMultiBridge",
        "numberOfBytes": "20"
      },
      "t_contract(ILayerZeroEndpoint)15661": {
        "encoding": "inplace",
        "label": "contract ILayerZeroEndpoint",
        "numberOfBytes": "20"
      },
      "t_mapping(t_address,t_mapping(t_address,t_uint256))": {
        "encoding": "mapping",
        "key": "t_address",
        "label": "mapping(address => mapping(address => uint256))",
        "numberOfBytes": "32",
        "value": "t_mapping(t_address,t_uint256)"
      },
      "t_mapping(t_address,t_uint256)": {
        "encoding": "mapping",
        "key": "t_address",
        "label": "mapping(address => uint256)",
        "numberOfBytes": "32",
        "value": "t_uint256"
      },
      "t_mapping(t_bytes_memory_ptr,t_mapping(t_uint64,t_bytes32))": {
        "encoding": "mapping",
        "key": "t_bytes_memory_ptr",
        "label": "mapping(bytes => mapping(uint64 => bytes32))",
        "numberOfBytes": "32",
        "value": "t_mapping(t_uint64,t_bytes32)"
      },
      "t_mapping(t_uint16,t_bytes_storage)": {
        "encoding": "mapping",
        "key": "t_uint16",
        "label": "mapping(uint16 => bytes)",
        "numberOfBytes": "32",
        "value": "t_bytes_storage"
      },
      "t_mapping(t_uint16,t_mapping(t_bytes_memory_ptr,t_mapping(t_uint64,t_bytes32)))": {
        "encoding": "mapping",
        "key": "t_uint16",
        "label": "mapping(uint16 => mapping(bytes => mapping(uint64 => bytes32)))",
        "numberOfBytes": "32",
        "value": "t_mapping(t_bytes_memory_ptr,t_mapping(t_uint64,t_bytes32))"
      },
      "t_mapping(t_uint64,t_bytes32)": {
        "encoding": "mapping",
        "key": "t_uint64",
        "label": "mapping(uint64 => bytes32)",
        "numberOfBytes": "32",
        "value": "t_bytes32"
      },
      "t_string_storage": {
        "encoding": "bytes",
        "label": "string",
        "numberOfBytes": "32"
      },
      "t_uint16": {
        "encoding": "inplace",
        "label": "uint16",
        "numberOfBytes": "2"
      },
      "t_uint256": {
        "encoding": "inplace",
        "label": "uint256",
        "numberOfBytes": "32"
      },
      "t_uint64": {
        "encoding": "inplace",
        "label": "uint64",
        "numberOfBytes": "8"
      }
    }
  }
}