{
  "address": "0x16cd38b1B54E7abf307Cb2697E2D9321e843d5AA",
  "abi": [
    {
      "inputs": [],
      "stateMutability": "nonpayable",
      "type": "constructor"
    },
    {
      "inputs": [],
      "name": "AlreadyVaultManager",
      "type": "error"
    },
    {
      "inputs": [],
      "name": "InvalidAddress",
      "type": "error"
    },
    {
      "inputs": [],
      "name": "InvalidTreasury",
      "type": "error"
    },
    {
      "inputs": [],
      "name": "NotCore",
      "type": "error"
    },
    {
      "inputs": [],
      "name": "NotGovernor",
      "type": "error"
    },
    {
      "inputs": [],
      "name": "NotVaultManager",
      "type": "error"
    },
    {
      "inputs": [],
      "name": "RightsNotRemoved",
      "type": "error"
    },
    {
      "inputs": [],
      "name": "TooBigAmount",
      "type": "error"
    },
    {
      "inputs": [],
      "name": "TooHighParameterValue",
      "type": "error"
    },
    {
      "inputs": [],
      "name": "ZeroAddress",
      "type": "error"
    },
    {
      "anonymous": false,
      "inputs": [
        {
          "indexed": false,
          "internalType": "uint256",
          "name": "badDebtValue",
          "type": "uint256"
        }
      ],
      "name": "BadDebtUpdated",
      "type": "event"
    },
    {
      "anonymous": false,
      "inputs": [
        {
          "indexed": true,
          "internalType": "address",
          "name": "_core",
          "type": "address"
        }
      ],
      "name": "CoreUpdated",
      "type": "event"
    },
    {
      "anonymous": false,
      "inputs": [
        {
          "indexed": true,
          "internalType": "address",
          "name": "_treasury",
          "type": "address"
        }
      ],
      "name": "NewTreasurySet",
      "type": "event"
    },
    {
      "anonymous": false,
      "inputs": [
        {
          "indexed": true,
          "internalType": "address",
          "name": "token",
          "type": "address"
        },
        {
          "indexed": true,
          "internalType": "address",
          "name": "to",
          "type": "address"
        },
        {
          "indexed": false,
          "internalType": "uint256",
          "name": "amount",
          "type": "uint256"
        }
      ],
      "name": "Recovered",
      "type": "event"
    },
    {
      "anonymous": false,
      "inputs": [
        {
          "indexed": false,
          "internalType": "uint256",
          "name": "surplusBufferValue",
          "type": "uint256"
        }
      ],
      "name": "SurplusBufferUpdated",
      "type": "event"
    },
    {
      "anonymous": false,
      "inputs": [
        {
          "indexed": false,
          "internalType": "uint64",
          "name": "_surplusForGovernance",
          "type": "uint64"
        }
      ],
      "name": "SurplusForGovernanceUpdated",
      "type": "event"
    },
    {
      "anonymous": false,
      "inputs": [
        {
          "indexed": true,
          "internalType": "address",
          "name": "_surplusManager",
          "type": "address"
        }
      ],
      "name": "SurplusManagerUpdated",
      "type": "event"
    },
    {
      "anonymous": false,
      "inputs": [
        {
          "indexed": true,
          "internalType": "address",
          "name": "vaultManager",
          "type": "address"
        }
      ],
      "name": "VaultManagerToggled",
      "type": "event"
    },
    {
      "inputs": [],
      "name": "BASE_PARAMS",
      "outputs": [
        {
          "internalType": "uint256",
          "name": "",
          "type": "uint256"
        }
      ],
      "stateMutability": "view",
      "type": "function"
    },
    {
      "inputs": [
        {
          "internalType": "address",
          "name": "minter",
          "type": "address"
        }
      ],
      "name": "addMinter",
      "outputs": [],
      "stateMutability": "nonpayable",
      "type": "function"
    },
    {
      "inputs": [
        {
          "internalType": "address",
          "name": "vaultManager",
          "type": "address"
        }
      ],
      "name": "addVaultManager",
      "outputs": [],
      "stateMutability": "nonpayable",
      "type": "function"
    },
    {
      "inputs": [],
      "name": "badDebt",
      "outputs": [
        {
          "internalType": "uint256",
          "name": "",
          "type": "uint256"
        }
      ],
      "stateMutability": "view",
      "type": "function"
    },
    {
      "inputs": [],
      "name": "core",
      "outputs": [
        {
          "internalType": "contract ICoreBorrow",
          "name": "",
          "type": "address"
        }
      ],
      "stateMutability": "view",
      "type": "function"
    },
    {
      "inputs": [],
      "name": "fetchSurplusFromAll",
      "outputs": [
        {
          "internalType": "uint256",
          "name": "",
          "type": "uint256"
        },
        {
          "internalType": "uint256",
          "name": "",
          "type": "uint256"
        }
      ],
      "stateMutability": "nonpayable",
      "type": "function"
    },
    {
      "inputs": [],
      "name": "fetchSurplusFromFlashLoan",
      "outputs": [
        {
          "internalType": "uint256",
          "name": "",
          "type": "uint256"
        },
        {
          "internalType": "uint256",
          "name": "",
          "type": "uint256"
        }
      ],
      "stateMutability": "nonpayable",
      "type": "function"
    },
    {
      "inputs": [],
      "name": "flashLoanModule",
      "outputs": [
        {
          "internalType": "contract IFlashAngle",
          "name": "",
          "type": "address"
        }
      ],
      "stateMutability": "view",
      "type": "function"
    },
    {
      "inputs": [
        {
          "internalType": "contract ICoreBorrow",
          "name": "_core",
          "type": "address"
        },
        {
          "internalType": "contract IAgToken",
          "name": "_stablecoin",
          "type": "address"
        }
      ],
      "name": "initialize",
      "outputs": [],
      "stateMutability": "nonpayable",
      "type": "function"
    },
    {
      "inputs": [
        {
          "internalType": "address",
          "name": "admin",
          "type": "address"
        }
      ],
      "name": "isGovernor",
      "outputs": [
        {
          "internalType": "bool",
          "name": "",
          "type": "bool"
        }
      ],
      "stateMutability": "view",
      "type": "function"
    },
    {
      "inputs": [
        {
          "internalType": "address",
          "name": "admin",
          "type": "address"
        }
      ],
      "name": "isGovernorOrGuardian",
      "outputs": [
        {
          "internalType": "bool",
          "name": "",
          "type": "bool"
        }
      ],
      "stateMutability": "view",
      "type": "function"
    },
    {
      "inputs": [
        {
          "internalType": "address",
          "name": "_vaultManager",
          "type": "address"
        }
      ],
      "name": "isVaultManager",
      "outputs": [
        {
          "internalType": "bool",
          "name": "",
          "type": "bool"
        }
      ],
      "stateMutability": "view",
      "type": "function"
    },
    {
      "inputs": [],
      "name": "pushSurplus",
      "outputs": [
        {
          "internalType": "uint256",
          "name": "governanceAllocation",
          "type": "uint256"
        }
      ],
      "stateMutability": "nonpayable",
      "type": "function"
    },
    {
      "inputs": [
        {
          "internalType": "address",
          "name": "tokenAddress",
          "type": "address"
        },
        {
          "internalType": "address",
          "name": "to",
          "type": "address"
        },
        {
          "internalType": "uint256",
          "name": "amountToRecover",
          "type": "uint256"
        }
      ],
      "name": "recoverERC20",
      "outputs": [],
      "stateMutability": "nonpayable",
      "type": "function"
    },
    {
      "inputs": [
        {
          "internalType": "address",
          "name": "minter",
          "type": "address"
        }
      ],
      "name": "removeMinter",
      "outputs": [],
      "stateMutability": "nonpayable",
      "type": "function"
    },
    {
      "inputs": [
        {
          "internalType": "address",
          "name": "vaultManager",
          "type": "address"
        }
      ],
      "name": "removeVaultManager",
      "outputs": [],
      "stateMutability": "nonpayable",
      "type": "function"
    },
    {
      "inputs": [
        {
          "internalType": "contract ICoreBorrow",
          "name": "_core",
          "type": "address"
        }
      ],
      "name": "setCore",
      "outputs": [],
      "stateMutability": "nonpayable",
      "type": "function"
    },
    {
      "inputs": [
        {
          "internalType": "address",
          "name": "_flashLoanModule",
          "type": "address"
        }
      ],
      "name": "setFlashLoanModule",
      "outputs": [],
      "stateMutability": "nonpayable",
      "type": "function"
    },
    {
      "inputs": [
        {
          "internalType": "uint64",
          "name": "_surplusForGovernance",
          "type": "uint64"
        }
      ],
      "name": "setSurplusForGovernance",
      "outputs": [],
      "stateMutability": "nonpayable",
      "type": "function"
    },
    {
      "inputs": [
        {
          "internalType": "address",
          "name": "_surplusManager",
          "type": "address"
        }
      ],
      "name": "setSurplusManager",
      "outputs": [],
      "stateMutability": "nonpayable",
      "type": "function"
    },
    {
      "inputs": [
        {
          "internalType": "address",
          "name": "_treasury",
          "type": "address"
        }
      ],
      "name": "setTreasury",
      "outputs": [],
      "stateMutability": "nonpayable",
      "type": "function"
    },
    {
      "inputs": [],
      "name": "stablecoin",
      "outputs": [
        {
          "internalType": "contract IAgToken",
          "name": "",
          "type": "address"
        }
      ],
      "stateMutability": "view",
      "type": "function"
    },
    {
      "inputs": [],
      "name": "surplusBuffer",
      "outputs": [
        {
          "internalType": "uint256",
          "name": "",
          "type": "uint256"
        }
      ],
      "stateMutability": "view",
      "type": "function"
    },
    {
      "inputs": [],
      "name": "surplusForGovernance",
      "outputs": [
        {
          "internalType": "uint64",
          "name": "",
          "type": "uint64"
        }
      ],
      "stateMutability": "view",
      "type": "function"
    },
    {
      "inputs": [],
      "name": "surplusManager",
      "outputs": [
        {
          "internalType": "address",
          "name": "",
          "type": "address"
        }
      ],
      "stateMutability": "view",
      "type": "function"
    },
    {
      "inputs": [
        {
          "internalType": "uint256",
          "name": "amount",
          "type": "uint256"
        }
      ],
      "name": "updateBadDebt",
      "outputs": [
        {
          "internalType": "uint256",
          "name": "badDebtValue",
          "type": "uint256"
        }
      ],
      "stateMutability": "nonpayable",
      "type": "function"
    },
    {
      "inputs": [
        {
          "internalType": "uint256",
          "name": "",
          "type": "uint256"
        }
      ],
      "name": "vaultManagerList",
      "outputs": [
        {
          "internalType": "address",
          "name": "",
          "type": "address"
        }
      ],
      "stateMutability": "view",
      "type": "function"
    },
    {
      "inputs": [
        {
          "internalType": "address",
          "name": "",
          "type": "address"
        }
      ],
      "name": "vaultManagerMap",
      "outputs": [
        {
          "internalType": "uint256",
          "name": "",
          "type": "uint256"
        }
      ],
      "stateMutability": "view",
      "type": "function"
    }
  ],
  "transactionHash": "0x106e37e91837210caa3863d0adb56f7cb85492e4658bb27c1450bdeea879ab9f",
  "args": [],
  "numDeployments": 1,
  "solcInputHash": "c738595b9b57358bae83408c8b980d54",
  "bytecode": "0x60806040523480156200001157600080fd5b50600054610100900460ff166200002f5760005460ff161562000039565b62000039620000de565b620000a15760405162461bcd60e51b815260206004820152602e60248201527f496e697469616c697a61626c653a20636f6e747261637420697320616c72656160448201526d191e481a5b9a5d1a585b1a5e995960921b606482015260840160405180910390fd5b600054610100900460ff16158015620000c4576000805461ffff19166101011790555b8015620000d7576000805461ff00191690555b5062000102565b6000620000f630620000fc60201b6200223e1760201c565b15905090565b3b151590565b612d8580620001126000396000f3fe608060405234801561001057600080fd5b50600436106101c45760003560e01c8063676a553e116100f9578063bbcac55711610097578063e9cbd82211610071578063e9cbd8221461040d578063f0f442601461042d578063f2f4eb2614610440578063f5ec243c1461046657600080fd5b8063bbcac557146103de578063df486819146103e7578063e43581b8146103fa57600080fd5b8063959d5a01116100d3578063959d5a0114610368578063983b2d56146103ad5780639f48118f146103c0578063a9462410146103cb57600080fd5b8063676a553e146102fc5780638000963014610335578063891102351461034857600080fd5b80633092afd5116101665780635290e6a6116101405780635290e6a6146102bb5780635c77f285146102ce5780635e654522146102d65780635f80fcad146102e957600080fd5b80633092afd514610272578063485cc95514610285578063521d4de91461029857600080fd5b806319106b67116101a257806319106b671461022157806321c29f92146102295780632a608d5b1461023c5780632f15caed1461024557600080fd5b80630d45456d146101c95780631171bda9146101eb578063137f3b0a14610200575b600080fd5b6101d1610486565b604080519283526020830191909152015b60405180910390f35b6101fe6101f93660046129ef565b610499565b005b61021361020e366004612a30565b6107a0565b6040519081526020016101e2565b610213610879565b6101fe610237366004612a49565b6109e1565b61021360075481565b6008546102599067ffffffffffffffff1681565b60405167ffffffffffffffff90911681526020016101e2565b6101fe610280366004612a49565b610baf565b6101fe610293366004612a66565b610d65565b6102ab6102a6366004612a49565b610f72565b60405190151581526020016101e2565b6101fe6102c9366004612a49565b611015565b6101d161138a565b6101fe6102e4366004612a9f565b61144d565b6101fe6102f7366004612a49565b6115cf565b6102ab61030a366004612a49565b73ffffffffffffffffffffffffffffffffffffffff1660009081526005602052604090205460011490565b6101fe610343366004612a49565b6118cd565b610213610356366004612a49565b60056020526000908152604090205481565b6001546103889073ffffffffffffffffffffffffffffffffffffffff1681565b60405173ffffffffffffffffffffffffffffffffffffffff90911681526020016101e2565b6101fe6103bb366004612a49565b611ad3565b610213633b9aca0081565b6101fe6103d9366004612a49565b611c45565b61021360065481565b6103886103f5366004612a30565b611dce565b6102ab610408366004612a49565b611e05565b6002546103889073ffffffffffffffffffffffffffffffffffffffff1681565b6101fe61043b366004612a49565b611e65565b6000546103889062010000900473ffffffffffffffffffffffffffffffffffffffff1681565b6003546103889073ffffffffffffffffffffffffffffffffffffffff1681565b600080610491612244565b915091509091565b6000546040517fe43581b80000000000000000000000000000000000000000000000000000000081523360048201526201000090910473ffffffffffffffffffffffffffffffffffffffff169063e43581b890602401602060405180830381865afa15801561050c573d6000803e3d6000fd5b505050506040513d601f19601f820116820180604052508101906105309190612ac9565b610566576040517fee3675d400000000000000000000000000000000000000000000000000000000815260040160405180910390fd5b60025473ffffffffffffffffffffffffffffffffffffffff8481169116141561071357610591612244565b50506002546040517f70a0823100000000000000000000000000000000000000000000000000000000815230600482015260009173ffffffffffffffffffffffffffffffffffffffff16906370a0823190602401602060405180830381865afa158015610602573d6000803e3d6000fd5b505050506040513d601f19601f820116820180604052508101906106269190612aeb565b905080600754836106379190612b33565b111561066f576040517ff7432d9600000000000000000000000000000000000000000000000000000000815260040160405180910390fd5b6002546040517fa9059cbb00000000000000000000000000000000000000000000000000000000815273ffffffffffffffffffffffffffffffffffffffff8581166004830152602482018590529091169063a9059cbb906044016020604051808303816000875af11580156106e8573d6000803e3d6000fd5b505050506040513d601f19601f8201168201806040525081019061070c9190612ac9565b5050610734565b61073473ffffffffffffffffffffffffffffffffffffffff84168383612392565b8173ffffffffffffffffffffffffffffffffffffffff168373ffffffffffffffffffffffffffffffffffffffff167ffff3b3844276f57024e0b42afec1a37f75db36511e43819a4f2a63ab7862b6488360405161079391815260200190565b60405180910390a3505050565b6002546040517f2b471d8e0000000000000000000000000000000000000000000000000000000081526004810183905230602482015260009173ffffffffffffffffffffffffffffffffffffffff1690632b471d8e90604401600060405180830381600087803b15801561081357600080fd5b505af1158015610827573d6000803e3d6000fd5b50505050816006546108399190612b4b565b60068190556040518181529091507f6ec1ccf63c33130734196ff1971d19a46a2b28ce37b81f90ea52f4311319203f9060200160405180910390a1919050565b60035460009073ffffffffffffffffffffffffffffffffffffffff16806108cc576040517fd92e233d00000000000000000000000000000000000000000000000000000000815260040160405180910390fd5b60006108d6612244565b50600060078190556040519081529091507f2f439c0500f79f2f3322b3665dcdaaa6967182caf9916f6ce2c64f296e609ed29060200160405180910390a1600854633b9aca009061093290839067ffffffffffffffff16612b62565b61093c9190612b9f565b6002546040517fa9059cbb00000000000000000000000000000000000000000000000000000000815273ffffffffffffffffffffffffffffffffffffffff85811660048301526024820184905292955091169063a9059cbb906044016020604051808303816000875af11580156109b7573d6000803e3d6000fd5b505050506040513d601f19601f820116820180604052508101906109db9190612ac9565b50505090565b60005462010000900473ffffffffffffffffffffffffffffffffffffffff163314610a38576040517fe2aae06b00000000000000000000000000000000000000000000000000000000815260040160405180910390fd5b6001805473ffffffffffffffffffffffffffffffffffffffff8381167fffffffffffffffffffffffff0000000000000000000000000000000000000000831617909255168015610b08576002546040517f3092afd500000000000000000000000000000000000000000000000000000000815273ffffffffffffffffffffffffffffffffffffffff838116600483015290911690633092afd590602401600060405180830381600087803b158015610aef57600080fd5b505af1158015610b03573d6000803e3d6000fd5b505050505b73ffffffffffffffffffffffffffffffffffffffff821615610bab576002546040517f983b2d5600000000000000000000000000000000000000000000000000000000815273ffffffffffffffffffffffffffffffffffffffff84811660048301529091169063983b2d56906024015b600060405180830381600087803b158015610b9257600080fd5b505af1158015610ba6573d6000803e3d6000fd5b505050505b5050565b6000546040517fe43581b80000000000000000000000000000000000000000000000000000000081523360048201526201000090910473ffffffffffffffffffffffffffffffffffffffff169063e43581b890602401602060405180830381865afa158015610c22573d6000803e3d6000fd5b505050506040513d601f19601f82011682018060405250810190610c469190612ac9565b610c7c576040517fee3675d400000000000000000000000000000000000000000000000000000000815260040160405180910390fd5b73ffffffffffffffffffffffffffffffffffffffff811660009081526005602052604090205460011415610cdc576040517fe6c4247b00000000000000000000000000000000000000000000000000000000815260040160405180910390fd5b6002546040517f3092afd500000000000000000000000000000000000000000000000000000000815273ffffffffffffffffffffffffffffffffffffffff838116600483015290911690633092afd5906024015b600060405180830381600087803b158015610d4a57600080fd5b505af1158015610d5e573d6000803e3d6000fd5b5050505050565b600054610100900460ff16610d805760005460ff1615610d84565b303b155b610e15576040517f08c379a000000000000000000000000000000000000000000000000000000000815260206004820152602e60248201527f496e697469616c697a61626c653a20636f6e747261637420697320616c72656160448201527f647920696e697469616c697a656400000000000000000000000000000000000060648201526084015b60405180910390fd5b600054610100900460ff16158015610e5457600080547fffffffffffffffffffffffffffffffffffffffffffffffffffffffffffff0000166101011790555b73ffffffffffffffffffffffffffffffffffffffff82161580610e8b575073ffffffffffffffffffffffffffffffffffffffff8316155b15610ec2576040517fd92e233d00000000000000000000000000000000000000000000000000000000815260040160405180910390fd5b600080547fffffffffffffffffffff0000000000000000000000000000000000000000ffff166201000073ffffffffffffffffffffffffffffffffffffffff8681169190910291909117909155600280547fffffffffffffffffffffffff0000000000000000000000000000000000000000169184169190911790558015610f6d57600080547fffffffffffffffffffffffffffffffffffffffffffffffffffffffffffff00ff1690555b505050565b600080546040517f521d4de900000000000000000000000000000000000000000000000000000000815273ffffffffffffffffffffffffffffffffffffffff8481166004830152620100009092049091169063521d4de9906024015b602060405180830381865afa158015610feb573d6000803e3d6000fd5b505050506040513d601f19601f8201168201806040525081019061100f9190612ac9565b92915050565b6000546040517fe43581b80000000000000000000000000000000000000000000000000000000081523360048201526201000090910473ffffffffffffffffffffffffffffffffffffffff169063e43581b890602401602060405180830381865afa158015611088573d6000803e3d6000fd5b505050506040513d601f19601f820116820180604052508101906110ac9190612ac9565b6110e2576040517fee3675d400000000000000000000000000000000000000000000000000000000815260040160405180910390fd5b73ffffffffffffffffffffffffffffffffffffffff8116600090815260056020526040902054600114611141576040517f027f480700000000000000000000000000000000000000000000000000000000815260040160405180910390fd5b73ffffffffffffffffffffffffffffffffffffffff81166000908152600560205260408120819055600454905b611179600183612b4b565b811015611287578273ffffffffffffffffffffffffffffffffffffffff16600482815481106111aa576111aa612bda565b60009182526020909120015473ffffffffffffffffffffffffffffffffffffffff1614156112755760046111df600184612b4b565b815481106111ef576111ef612bda565b6000918252602090912001546004805473ffffffffffffffffffffffffffffffffffffffff909216918390811061122857611228612bda565b9060005260206000200160006101000a81548173ffffffffffffffffffffffffffffffffffffffff021916908373ffffffffffffffffffffffffffffffffffffffff160217905550611287565b8061127f81612c09565b91505061116e565b50600480548061129957611299612c42565b60008281526020812082017fffffffffffffffffffffffffffffffffffffffffffffffffffffffffffffffff90810180547fffffffffffffffffffffffff000000000000000000000000000000000000000016905590910190915560405173ffffffffffffffffffffffffffffffffffffffff8416917ff1e53200c691f394b84864158f7d32772fed29ce025460533f94d6b5ef66906491a26002546040517f3092afd500000000000000000000000000000000000000000000000000000000815273ffffffffffffffffffffffffffffffffffffffff848116600483015290911690633092afd590602401610b78565b6001546002546040517f96337bd500000000000000000000000000000000000000000000000000000000815273ffffffffffffffffffffffffffffffffffffffff9182166004820152600092839283929116906396337bd5906024016020604051808303816000875af1158015611405573d6000803e3d6000fd5b505050506040513d601f19601f820116820180604052508101906114299190612aeb565b6007546114369190612b33565b90506114448160065461241f565b92509250509091565b6000546040517fe43581b80000000000000000000000000000000000000000000000000000000081523360048201526201000090910473ffffffffffffffffffffffffffffffffffffffff169063e43581b890602401602060405180830381865afa1580156114c0573d6000803e3d6000fd5b505050506040513d601f19601f820116820180604052508101906114e49190612ac9565b61151a576040517fee3675d400000000000000000000000000000000000000000000000000000000815260040160405180910390fd5b633b9aca008167ffffffffffffffff161115611562576040517feca1d2c600000000000000000000000000000000000000000000000000000000815260040160405180910390fd5b600880547fffffffffffffffffffffffffffffffffffffffffffffffff00000000000000001667ffffffffffffffff83169081179091556040519081527fe4c9afce87963212e0d33e6b4b43fee7103b8c57228620e450e5064b95ee08ec9060200160405180910390a150565b6000546040517fe43581b80000000000000000000000000000000000000000000000000000000081523360048201526201000090910473ffffffffffffffffffffffffffffffffffffffff169063e43581b890602401602060405180830381865afa158015611642573d6000803e3d6000fd5b505050506040513d601f19601f820116820180604052508101906116669190612ac9565b61169c576040517fee3675d400000000000000000000000000000000000000000000000000000000815260040160405180910390fd5b73ffffffffffffffffffffffffffffffffffffffff8116600090815260056020526040902054600114156116fc576040517fc357636900000000000000000000000000000000000000000000000000000000815260040160405180910390fd5b3073ffffffffffffffffffffffffffffffffffffffff168173ffffffffffffffffffffffffffffffffffffffff166361d027b36040518163ffffffff1660e01b8152600401602060405180830381865afa15801561175e573d6000803e3d6000fd5b505050506040513d601f19601f820116820180604052508101906117829190612c71565b73ffffffffffffffffffffffffffffffffffffffff16146117cf576040517f14bcf5c800000000000000000000000000000000000000000000000000000000815260040160405180910390fd5b73ffffffffffffffffffffffffffffffffffffffff811660008181526005602052604080822060019081905560048054918201815583527f8a35acfbc15ff81a39ae7d344fd709f28e8600b4aa8c65c6b64bfe7fe36bd19b0180547fffffffffffffffffffffffff00000000000000000000000000000000000000001684179055517ff1e53200c691f394b84864158f7d32772fed29ce025460533f94d6b5ef6690649190a26002546040517f983b2d5600000000000000000000000000000000000000000000000000000000815273ffffffffffffffffffffffffffffffffffffffff83811660048301529091169063983b2d5690602401610d30565b6000546040517fe43581b80000000000000000000000000000000000000000000000000000000081523360048201526201000090910473ffffffffffffffffffffffffffffffffffffffff169063e43581b890602401602060405180830381865afa158015611940573d6000803e3d6000fd5b505050506040513d601f19601f820116820180604052508101906119649190612ac9565b61199a576040517fee3675d400000000000000000000000000000000000000000000000000000000815260040160405180910390fd5b6040517fe43581b800000000000000000000000000000000000000000000000000000000815233600482015273ffffffffffffffffffffffffffffffffffffffff82169063e43581b890602401602060405180830381865afa158015611a04573d6000803e3d6000fd5b505050506040513d601f19601f82011682018060405250810190611a289190612ac9565b611a5e576040517fee3675d400000000000000000000000000000000000000000000000000000000815260040160405180910390fd5b600080547fffffffffffffffffffff0000000000000000000000000000000000000000ffff166201000073ffffffffffffffffffffffffffffffffffffffff841690810291909117825560405190917f0c9c0f914e121785e2cd2269d6698bc11f59a50b85ef9aa1197fb4ddb96c4e5691a250565b6000546040517fe43581b80000000000000000000000000000000000000000000000000000000081523360048201526201000090910473ffffffffffffffffffffffffffffffffffffffff169063e43581b890602401602060405180830381865afa158015611b46573d6000803e3d6000fd5b505050506040513d601f19601f82011682018060405250810190611b6a9190612ac9565b611ba0576040517fee3675d400000000000000000000000000000000000000000000000000000000815260040160405180910390fd5b73ffffffffffffffffffffffffffffffffffffffff8116611bed576040517fd92e233d00000000000000000000000000000000000000000000000000000000815260040160405180910390fd5b6002546040517f983b2d5600000000000000000000000000000000000000000000000000000000815273ffffffffffffffffffffffffffffffffffffffff83811660048301529091169063983b2d5690602401610d30565b6000546040517fe43581b80000000000000000000000000000000000000000000000000000000081523360048201526201000090910473ffffffffffffffffffffffffffffffffffffffff169063e43581b890602401602060405180830381865afa158015611cb8573d6000803e3d6000fd5b505050506040513d601f19601f82011682018060405250810190611cdc9190612ac9565b611d12576040517fee3675d400000000000000000000000000000000000000000000000000000000815260040160405180910390fd5b73ffffffffffffffffffffffffffffffffffffffff8116611d5f576040517fd92e233d00000000000000000000000000000000000000000000000000000000815260040160405180910390fd5b600380547fffffffffffffffffffffffff00000000000000000000000000000000000000001673ffffffffffffffffffffffffffffffffffffffff83169081179091556040517f8e34f87614920d3825860be957926690888c7cb9ed7fb5ec457edaaad64bd28c90600090a250565b60048181548110611dde57600080fd5b60009182526020909120015473ffffffffffffffffffffffffffffffffffffffff16905081565b600080546040517fe43581b800000000000000000000000000000000000000000000000000000000815273ffffffffffffffffffffffffffffffffffffffff8481166004830152620100009092049091169063e43581b890602401610fce565b6000546040517fe43581b80000000000000000000000000000000000000000000000000000000081523360048201526201000090910473ffffffffffffffffffffffffffffffffffffffff169063e43581b890602401602060405180830381865afa158015611ed8573d6000803e3d6000fd5b505050506040513d601f19601f82011682018060405250810190611efc9190612ac9565b611f32576040517fee3675d400000000000000000000000000000000000000000000000000000000815260040160405180910390fd5b600254604080517fe9cbd822000000000000000000000000000000000000000000000000000000008152905173ffffffffffffffffffffffffffffffffffffffff9283169284169163e9cbd8229160048083019260209291908290030181865afa158015611fa4573d6000803e3d6000fd5b505050506040513d601f19601f82011682018060405250810190611fc89190612c71565b73ffffffffffffffffffffffffffffffffffffffff1614612015576040517f14bcf5c800000000000000000000000000000000000000000000000000000000815260040160405180910390fd5b6000546040517ff02dd8a20000000000000000000000000000000000000000000000000000000081523060048201526201000090910473ffffffffffffffffffffffffffffffffffffffff169063f02dd8a290602401602060405180830381865afa158015612088573d6000803e3d6000fd5b505050506040513d601f19601f820116820180604052508101906120ac9190612ac9565b156120e3576040517f87c4c6b500000000000000000000000000000000000000000000000000000000815260040160405180910390fd5b60405173ffffffffffffffffffffffffffffffffffffffff8216907fa74e71df5980104def7b321d0fa7d4b885191d40a2ae420acb543c3eba54253290600090a260005b6004548110156121e5576004818154811061214457612144612bda565b6000918252602090912001546040517ff0f4426000000000000000000000000000000000000000000000000000000000815273ffffffffffffffffffffffffffffffffffffffff84811660048301529091169063f0f4426090602401600060405180830381600087803b1580156121ba57600080fd5b505af11580156121ce573d6000803e3d6000fd5b5050505080806121dd90612c09565b915050612127565b506002546040517ff0f4426000000000000000000000000000000000000000000000000000000000815273ffffffffffffffffffffffffffffffffffffffff83811660048301529091169063f0f4426090602401610d30565b3b151590565b6000806122b760048054806020026020016040519081016040528092919081815260200182805480156122ad57602002820191906000526020600020905b815473ffffffffffffffffffffffffffffffffffffffff168152600190910190602001808311612282575b50505050506125fd565b600154919350915073ffffffffffffffffffffffffffffffffffffffff161561237f576001546002546040517f96337bd500000000000000000000000000000000000000000000000000000000815273ffffffffffffffffffffffffffffffffffffffff91821660048201529116906396337bd5906024016020604051808303816000875af115801561234e573d6000803e3d6000fd5b505050506040513d601f19601f820116820180604052508101906123729190612aeb565b61237c9083612b33565b91505b612389828261241f565b90939092509050565b6040805173ffffffffffffffffffffffffffffffffffffffff8416602482015260448082018490528251808303909101815260649091019091526020810180517bffffffffffffffffffffffffffffffffffffffffffffffffffffffff167fa9059cbb00000000000000000000000000000000000000000000000000000000179052610f6d9084906126d2565b6000808215612585576002546040517f70a0823100000000000000000000000000000000000000000000000000000000815230600482015260009173ffffffffffffffffffffffffffffffffffffffff16906370a0823190602401602060405180830381865afa158015612497573d6000803e3d6000fd5b505050506040513d601f19601f820116820180604052508101906124bb9190612aeb565b90506000848211156124cd57846124cf565b815b6002546040517f2b471d8e0000000000000000000000000000000000000000000000000000000081526004810183905230602482015291925073ffffffffffffffffffffffffffffffffffffffff1690632b471d8e90604401600060405180830381600087803b15801561254257600080fd5b505af1158015612556573d6000803e3d6000fd5b50505050858110156125715761256c8187612b4b565b612574565b60005b95506125808186612b4b565b945050505b600784905560068390556040518481527f2f439c0500f79f2f3322b3665dcdaaa6967182caf9916f6ce2c64f296e609ed29060200160405180910390a16040518381527f6ec1ccf63c33130734196ff1971d19a46a2b28ce37b81f90ea52f4311319203f9060200160405180910390a1509192909150565b60065460075490600080805b85518110156126ca5785818151811061262457612624612bda565b602002602001015173ffffffffffffffffffffffffffffffffffffffff1663fd527cf86040518163ffffffff1660e01b815260040160408051808303816000875af1158015612677573d6000803e3d6000fd5b505050506040513d601f19601f8201168201806040525081019061269b9190612c8e565b90935091506126aa8386612b33565b94506126b68285612b33565b9350806126c281612c09565b915050612609565b505050915091565b6000612734826040518060400160405280602081526020017f5361666545524332303a206c6f772d6c6576656c2063616c6c206661696c65648152508573ffffffffffffffffffffffffffffffffffffffff166127de9092919063ffffffff16565b805190915015610f6d57808060200190518101906127529190612ac9565b610f6d576040517f08c379a000000000000000000000000000000000000000000000000000000000815260206004820152602a60248201527f5361666545524332303a204552433230206f7065726174696f6e20646964206e60448201527f6f742073756363656564000000000000000000000000000000000000000000006064820152608401610e0c565b60606127ed84846000856127f7565b90505b9392505050565b606082471015612889576040517f08c379a000000000000000000000000000000000000000000000000000000000815260206004820152602660248201527f416464726573733a20696e73756666696369656e742062616c616e636520666f60448201527f722063616c6c00000000000000000000000000000000000000000000000000006064820152608401610e0c565b843b6128f1576040517f08c379a000000000000000000000000000000000000000000000000000000000815260206004820152601d60248201527f416464726573733a2063616c6c20746f206e6f6e2d636f6e74726163740000006044820152606401610e0c565b6000808673ffffffffffffffffffffffffffffffffffffffff16858760405161291a9190612ce2565b60006040518083038185875af1925050503d8060008114612957576040519150601f19603f3d011682016040523d82523d6000602084013e61295c565b606091505b509150915061296c828286612977565b979650505050505050565b606083156129865750816127f0565b8251156129965782518084602001fd5b816040517f08c379a0000000000000000000000000000000000000000000000000000000008152600401610e0c9190612cfe565b73ffffffffffffffffffffffffffffffffffffffff811681146129ec57600080fd5b50565b600080600060608486031215612a0457600080fd5b8335612a0f816129ca565b92506020840135612a1f816129ca565b929592945050506040919091013590565b600060208284031215612a4257600080fd5b5035919050565b600060208284031215612a5b57600080fd5b81356127f0816129ca565b60008060408385031215612a7957600080fd5b8235612a84816129ca565b91506020830135612a94816129ca565b809150509250929050565b600060208284031215612ab157600080fd5b813567ffffffffffffffff811681146127f057600080fd5b600060208284031215612adb57600080fd5b815180151581146127f057600080fd5b600060208284031215612afd57600080fd5b5051919050565b7f4e487b7100000000000000000000000000000000000000000000000000000000600052601160045260246000fd5b60008219821115612b4657612b46612b04565b500190565b600082821015612b5d57612b5d612b04565b500390565b6000817fffffffffffffffffffffffffffffffffffffffffffffffffffffffffffffffff0483118215151615612b9a57612b9a612b04565b500290565b600082612bd5577f4e487b7100000000000000000000000000000000000000000000000000000000600052601260045260246000fd5b500490565b7f4e487b7100000000000000000000000000000000000000000000000000000000600052603260045260246000fd5b60007fffffffffffffffffffffffffffffffffffffffffffffffffffffffffffffffff821415612c3b57612c3b612b04565b5060010190565b7f4e487b7100000000000000000000000000000000000000000000000000000000600052603160045260246000fd5b600060208284031215612c8357600080fd5b81516127f0816129ca565b60008060408385031215612ca157600080fd5b505080516020909101519092909150565b60005b83811015612ccd578181015183820152602001612cb5565b83811115612cdc576000848401525b50505050565b60008251612cf4818460208701612cb2565b9190910192915050565b6020815260008251806020840152612d1d816040850160208701612cb2565b601f017fffffffffffffffffffffffffffffffffffffffffffffffffffffffffffffffe016919091016040019291505056fea26469706673582212202e993ac36574e05eec09995b261f98ff13b87944436fbb772f5dfc238911781d64736f6c634300080c0033",
  "devdoc": {
    "author": "Angle Core Team",
    "kind": "dev",
    "methods": {
      "addMinter(address)": {
        "params": {
          "minter": "Minter address to add"
        }
      },
      "addVaultManager(address)": {
        "details": "This contract should have already been initialized with a correct treasury addressIt's this function that gives the minter right to the `VaultManager`",
        "params": {
          "vaultManager": "`VaultManager` contract to add"
        }
      },
      "constructor": {
        "custom:oz-upgrades-unsafe-allow": "constructor"
      },
      "fetchSurplusFromAll()": {
        "details": "This function pools surplus and bad debt across all contracts and then updates the `surplusBuffer` (or the `badDebt` if more losses were made than profits)",
        "returns": {
          "_0": "Surplus buffer value at the end of the call",
          "_1": "Bad debt value at the end of the call"
        }
      },
      "fetchSurplusFromFlashLoan()": {
        "details": "This function fails if the `flashLoanModule` has not been initialized yet",
        "returns": {
          "_0": "Surplus buffer value at the end of the call",
          "_1": "Bad debt value at the end of the call"
        }
      },
      "initialize(address,address)": {
        "params": {
          "_core": "Address of the `CoreBorrow` contract of the module",
          "_stablecoin": "Address of the stablecoin"
        }
      },
      "isGovernor(address)": {
        "details": "Access control is only kept in the `CoreBorrow` contract",
        "params": {
          "admin": "Address to check"
        },
        "returns": {
          "_0": "Whether the address has the governor role"
        }
      },
      "isGovernorOrGuardian(address)": {
        "details": "Access control is only kept in the `CoreBorrow` contract which means that this function queries the `CoreBorrow` contract",
        "params": {
          "admin": "Address to check"
        },
        "returns": {
          "_0": "Whether the address has the guardian or the governor role"
        }
      },
      "isVaultManager(address)": {
        "params": {
          "_vaultManager": "Address to check"
        },
        "returns": {
          "_0": "Whether the address has been initialized or not"
        }
      },
      "pushSurplus()": {
        "details": "It makes sure to fetch the surplus from all the contracts handled by this treasury to avoid the situation where rewards are still distributed to governance even though a `VaultManager` has made a big lossTypically this function is to be called once every week by a keeper to distribute rewards to veANGLE holders`stablecoin` must be an AgToken and hence `transfer` reverts if the call is not successful",
        "returns": {
          "governanceAllocation": "Amount transferred to governance"
        }
      },
      "recoverERC20(address,address,uint256)": {
        "details": "It is impossible to recover the stablecoin of the protocol if there is some bad debt for itIn this case, the function makes sure to fetch the surplus/bad debt from all the `VaultManager` contracts and from the flash loan moduleIf the token to recover is the stablecoin, tokens recovered are fetched from the surplus and not from the `surplusBuffer`",
        "params": {
          "amountToRecover": "Amount of collateral to transfer",
          "to": "Address of the contract to send collateral to",
          "tokenAddress": "Address of the token to recover"
        }
      },
      "removeMinter(address)": {
        "params": {
          "minter": "Minter address to remove"
        }
      },
      "removeVaultManager(address)": {
        "details": "A removed `VaultManager` loses its minter right on the stablecoin",
        "params": {
          "vaultManager": "`VaultManager` contract to remove"
        }
      },
      "setCore(address)": {
        "details": "This function should typically be called on all treasury contracts after the `setCore` function has been called on the `CoreBorrow` contractOne sanity check that can be performed here is to verify whether at least the governor calling the contract is still a governor in the new core"
      },
      "setFlashLoanModule(address)": {
        "details": "This function removes the minting right to the old flash loan module and grants it to the new module",
        "params": {
          "_flashLoanModule": "Reference to the new flash loan module"
        }
      },
      "setSurplusForGovernance(uint64)": {
        "details": "To pause surplus distribution, governance needs to set a zero value for `surplusForGovernance` which means",
        "params": {
          "_surplusForGovernance": "New value of the parameter"
        }
      },
      "setSurplusManager(address)": {
        "params": {
          "_surplusManager": "New address responsible for handling the surplus"
        }
      },
      "setTreasury(address)": {
        "details": "This function is basically a way to remove rights to this contract and grant them to a new oneIt could be used to set a new core contract",
        "params": {
          "_treasury": "New treasury address for this stablecoin"
        }
      },
      "updateBadDebt(uint256)": {
        "details": "If the protocol has made a loss and managed to make some profits to recover for this loss (through a program like Olympus Pro), then this function needs to be called`badDebt` is simply reduced here by burning stablecoinsIt is impossible to burn more than the `badDebt` otherwise this function could be used to manipulate the `surplusBuffer` and hence the amount going to governance",
        "params": {
          "amount": "Amount to reduce the bad debt of"
        },
        "returns": {
          "badDebtValue": "Value of the bad debt at the end of the call"
        }
      }
    },
    "title": "Treasury",
    "version": 1
  },
  "userdoc": {
    "kind": "user",
    "methods": {
      "BASE_PARAMS()": {
        "notice": "Base used for parameter computation"
      },
      "addMinter(address)": {
        "notice": "Adds a new minter for the stablecoin"
      },
      "addVaultManager(address)": {
        "notice": "Adds a new `VaultManager`"
      },
      "badDebt()": {
        "notice": "Amount of bad debt (unbacked stablecoin) accumulated across all `VaultManager` contracts linked to this stablecoin"
      },
      "core()": {
        "notice": "Reference to the `CoreBorrow` contract of the module which handles all AccessControl logic"
      },
      "fetchSurplusFromAll()": {
        "notice": "Fetches the surplus accrued across all the `VaultManager` contracts controlled by this `Treasury` contract as well as from the fees of the `FlashLoan` module"
      },
      "fetchSurplusFromFlashLoan()": {
        "notice": "Fetches the surplus accrued in the flash loan module and updates the `surplusBuffer`"
      },
      "flashLoanModule()": {
        "notice": "Flash Loan Module with a minter right on the stablecoin"
      },
      "initialize(address,address)": {
        "notice": "Initializes the treasury contract"
      },
      "isGovernor(address)": {
        "notice": "Checks whether a given address has the  governor role"
      },
      "isGovernorOrGuardian(address)": {
        "notice": "Checks whether a given address has the guardian or the governor role"
      },
      "isVaultManager(address)": {
        "notice": "Checks whether a given address has well been initialized in this contract as a `VaultManager``"
      },
      "pushSurplus()": {
        "notice": "Pushes the surplus buffer to the `surplusManager` contract"
      },
      "recoverERC20(address,address,uint256)": {
        "notice": "Allows to recover any ERC20 token, including the stablecoin handled by this contract, and to send it to a contract"
      },
      "removeMinter(address)": {
        "notice": "Removes a minter from the stablecoin contract"
      },
      "removeVaultManager(address)": {
        "notice": "Removes a `VaultManager`"
      },
      "setCore(address)": {
        "notice": "Sets a new `core` contract"
      },
      "setFlashLoanModule(address)": {
        "notice": "Sets a new flash loan module for this stablecoin"
      },
      "setSurplusForGovernance(uint64)": {
        "notice": "Sets the `surplusForGovernance` parameter"
      },
      "setSurplusManager(address)": {
        "notice": "Sets the `surplusManager` contract responsible for handling the surplus of the protocol"
      },
      "setTreasury(address)": {
        "notice": "Changes the treasury contract and communicates this change to all `VaultManager` contract"
      },
      "stablecoin()": {
        "notice": "Stablecoin handled by this `treasury` contract"
      },
      "surplusBuffer()": {
        "notice": "Surplus amount accumulated by the contract waiting to be distributed to governance. Technically only a share of this `surplusBuffer` will go to governance. Once a share of the surplus buffer has been given to governance, then this surplus is reset"
      },
      "surplusForGovernance()": {
        "notice": "Share of the `surplusBuffer` distributed to governance (in `BASE_PARAMS`)"
      },
      "surplusManager()": {
        "notice": "Address responsible for handling the surplus made by the treasury"
      },
      "updateBadDebt(uint256)": {
        "notice": "Updates the bad debt of the protocol in case where the protocol has accumulated some revenue from an external source"
      },
      "vaultManagerList(uint256)": {
        "notice": "List of the accepted `VaultManager` of the protocol"
      },
      "vaultManagerMap(address)": {
        "notice": "Maps an address to 1 if it was initialized as a `VaultManager` contract"
      }
    },
    "notice": "Treasury of Angle Borrowing Module doing the accounting across all VaultManagers for a given stablecoin",
    "version": 1
  },
  "storageLayout": {
    "storage": [
      {
        "astId": 772,
        "contract": "contracts/treasury/Treasury.sol:Treasury",
        "label": "_initialized",
        "offset": 0,
        "slot": "0",
        "type": "t_bool"
      },
      {
        "astId": 775,
        "contract": "contracts/treasury/Treasury.sol:Treasury",
        "label": "_initializing",
        "offset": 1,
        "slot": "0",
        "type": "t_bool"
      },
      {
        "astId": 28552,
        "contract": "contracts/treasury/Treasury.sol:Treasury",
        "label": "core",
        "offset": 2,
        "slot": "0",
        "type": "t_contract(ICoreBorrow)14261"
      },
      {
        "astId": 28556,
        "contract": "contracts/treasury/Treasury.sol:Treasury",
        "label": "flashLoanModule",
        "offset": 0,
        "slot": "1",
        "type": "t_contract(IFlashAngle)14301"
      },
      {
        "astId": 28560,
        "contract": "contracts/treasury/Treasury.sol:Treasury",
        "label": "stablecoin",
        "offset": 0,
        "slot": "2",
        "type": "t_contract(IAgToken)14106"
      },
      {
        "astId": 28563,
        "contract": "contracts/treasury/Treasury.sol:Treasury",
        "label": "surplusManager",
        "offset": 0,
        "slot": "3",
        "type": "t_address"
      },
      {
        "astId": 28567,
        "contract": "contracts/treasury/Treasury.sol:Treasury",
        "label": "vaultManagerList",
        "offset": 0,
        "slot": "4",
        "type": "t_array(t_address)dyn_storage"
      },
      {
        "astId": 28572,
        "contract": "contracts/treasury/Treasury.sol:Treasury",
        "label": "vaultManagerMap",
        "offset": 0,
        "slot": "5",
        "type": "t_mapping(t_address,t_uint256)"
      },
      {
        "astId": 28575,
        "contract": "contracts/treasury/Treasury.sol:Treasury",
        "label": "badDebt",
        "offset": 0,
        "slot": "6",
        "type": "t_uint256"
      },
      {
        "astId": 28578,
        "contract": "contracts/treasury/Treasury.sol:Treasury",
        "label": "surplusBuffer",
        "offset": 0,
        "slot": "7",
        "type": "t_uint256"
      },
      {
        "astId": 28581,
        "contract": "contracts/treasury/Treasury.sol:Treasury",
        "label": "surplusForGovernance",
        "offset": 0,
        "slot": "8",
        "type": "t_uint64"
      }
    ],
    "types": {
      "t_address": {
        "encoding": "inplace",
        "label": "address",
        "numberOfBytes": "20"
      },
      "t_array(t_address)dyn_storage": {
        "base": "t_address",
        "encoding": "dynamic_array",
        "label": "address[]",
        "numberOfBytes": "32"
      },
      "t_bool": {
        "encoding": "inplace",
        "label": "bool",
        "numberOfBytes": "1"
      },
      "t_contract(IAgToken)14106": {
        "encoding": "inplace",
        "label": "contract IAgToken",
        "numberOfBytes": "20"
      },
      "t_contract(ICoreBorrow)14261": {
        "encoding": "inplace",
        "label": "contract ICoreBorrow",
        "numberOfBytes": "20"
      },
      "t_contract(IFlashAngle)14301": {
        "encoding": "inplace",
        "label": "contract IFlashAngle",
        "numberOfBytes": "20"
      },
      "t_mapping(t_address,t_uint256)": {
        "encoding": "mapping",
        "key": "t_address",
        "label": "mapping(address => uint256)",
        "numberOfBytes": "32",
        "value": "t_uint256"
      },
      "t_uint256": {
        "encoding": "inplace",
        "label": "uint256",
        "numberOfBytes": "32"
      },
      "t_uint64": {
        "encoding": "inplace",
        "label": "uint64",
        "numberOfBytes": "8"
      }
    }
  }
}