{
  "address": "0x4A44f77978Daa3E92Eb3D97210bd11645cF935Ab",
  "abi": [
    {
      "inputs": [],
      "name": "ApprovalToCaller",
      "type": "error"
    },
    {
      "inputs": [],
      "name": "ApprovalToOwner",
      "type": "error"
    },
    {
      "inputs": [],
      "name": "DebtCeilingExceeded",
      "type": "error"
    },
    {
      "inputs": [],
      "name": "DustyLeftoverAmount",
      "type": "error"
    },
    {
      "inputs": [],
      "name": "ExpiredDeadline",
      "type": "error"
    },
    {
      "inputs": [],
      "name": "HealthyVault",
      "type": "error"
    },
    {
      "inputs": [],
      "name": "IncompatibleLengths",
      "type": "error"
    },
    {
      "inputs": [],
      "name": "InsolventVault",
      "type": "error"
    },
    {
      "inputs": [],
      "name": "InvalidParameterType",
      "type": "error"
    },
    {
      "inputs": [],
      "name": "InvalidParameterValue",
      "type": "error"
    },
    {
      "inputs": [],
      "name": "InvalidSetOfParameters",
      "type": "error"
    },
    {
      "inputs": [],
      "name": "InvalidSignature",
      "type": "error"
    },
    {
      "inputs": [],
      "name": "InvalidTreasury",
      "type": "error"
    },
    {
      "inputs": [],
      "name": "NonERC721Receiver",
      "type": "error"
    },
    {
      "inputs": [],
      "name": "NonexistentVault",
      "type": "error"
    },
    {
      "inputs": [],
      "name": "NotApproved",
      "type": "error"
    },
    {
      "inputs": [],
      "name": "NotGovernor",
      "type": "error"
    },
    {
      "inputs": [],
      "name": "NotGovernorOrGuardian",
      "type": "error"
    },
    {
      "inputs": [],
      "name": "NotTreasury",
      "type": "error"
    },
    {
      "inputs": [],
      "name": "NotVaultManager",
      "type": "error"
    },
    {
      "inputs": [],
      "name": "NotWhitelisted",
      "type": "error"
    },
    {
      "inputs": [],
      "name": "Paused",
      "type": "error"
    },
    {
      "inputs": [],
      "name": "TooHighParameterValue",
      "type": "error"
    },
    {
      "inputs": [],
      "name": "TooSmallParameterValue",
      "type": "error"
    },
    {
      "inputs": [],
      "name": "ZeroAddress",
      "type": "error"
    },
    {
      "anonymous": false,
      "inputs": [
        {
          "indexed": false,
          "internalType": "uint256",
          "name": "surplusEndValue",
          "type": "uint256"
        },
        {
          "indexed": false,
          "internalType": "uint256",
          "name": "badDebtEndValue",
          "type": "uint256"
        }
      ],
      "name": "AccruedToTreasury",
      "type": "event"
    },
    {
      "anonymous": false,
      "inputs": [
        {
          "indexed": true,
          "internalType": "address",
          "name": "owner",
          "type": "address"
        },
        {
          "indexed": true,
          "internalType": "address",
          "name": "approved",
          "type": "address"
        },
        {
          "indexed": true,
          "internalType": "uint256",
          "name": "tokenId",
          "type": "uint256"
        }
      ],
      "name": "Approval",
      "type": "event"
    },
    {
      "anonymous": false,
      "inputs": [
        {
          "indexed": true,
          "internalType": "address",
          "name": "owner",
          "type": "address"
        },
        {
          "indexed": true,
          "internalType": "address",
          "name": "operator",
          "type": "address"
        },
        {
          "indexed": false,
          "internalType": "bool",
          "name": "approved",
          "type": "bool"
        }
      ],
      "name": "ApprovalForAll",
      "type": "event"
    },
    {
      "anonymous": false,
      "inputs": [
        {
          "indexed": false,
          "internalType": "uint256",
          "name": "vaultID",
          "type": "uint256"
        },
        {
          "indexed": false,
          "internalType": "uint256",
          "name": "collateralAmount",
          "type": "uint256"
        },
        {
          "indexed": false,
          "internalType": "uint8",
          "name": "isIncrease",
          "type": "uint8"
        }
      ],
      "name": "CollateralAmountUpdated",
      "type": "event"
    },
    {
      "anonymous": false,
      "inputs": [
        {
          "indexed": false,
          "internalType": "uint256",
          "name": "debtCeiling",
          "type": "uint256"
        }
      ],
      "name": "DebtCeilingUpdated",
      "type": "event"
    },
    {
      "anonymous": false,
      "inputs": [
        {
          "indexed": false,
          "internalType": "uint256",
          "name": "srcVaultID",
          "type": "uint256"
        },
        {
          "indexed": false,
          "internalType": "uint256",
          "name": "dstVaultID",
          "type": "uint256"
        },
        {
          "indexed": false,
          "internalType": "address",
          "name": "dstVaultManager",
          "type": "address"
        },
        {
          "indexed": false,
          "internalType": "uint256",
          "name": "amount",
          "type": "uint256"
        }
      ],
      "name": "DebtTransferred",
      "type": "event"
    },
    {
      "anonymous": false,
      "inputs": [
        {
          "indexed": false,
          "internalType": "uint64",
          "name": "param",
          "type": "uint64"
        },
        {
          "indexed": false,
          "internalType": "bytes32",
          "name": "what",
          "type": "bytes32"
        }
      ],
      "name": "FiledUint64",
      "type": "event"
    },
    {
      "anonymous": false,
      "inputs": [
        {
          "indexed": false,
          "internalType": "uint8",
          "name": "version",
          "type": "uint8"
        }
      ],
      "name": "Initialized",
      "type": "event"
    },
    {
      "anonymous": false,
      "inputs": [
        {
          "indexed": false,
          "internalType": "uint256",
          "name": "value",
          "type": "uint256"
        },
        {
          "indexed": false,
          "internalType": "uint256",
          "name": "timestamp",
          "type": "uint256"
        }
      ],
      "name": "InterestAccumulatorUpdated",
      "type": "event"
    },
    {
      "anonymous": false,
      "inputs": [
        {
          "indexed": false,
          "internalType": "uint256",
          "name": "vaultID",
          "type": "uint256"
        },
        {
          "indexed": false,
          "internalType": "uint256",
          "name": "internalAmount",
          "type": "uint256"
        },
        {
          "indexed": false,
          "internalType": "uint8",
          "name": "isIncrease",
          "type": "uint8"
        }
      ],
      "name": "InternalDebtUpdated",
      "type": "event"
    },
    {
      "anonymous": false,
      "inputs": [
        {
          "indexed": false,
          "internalType": "uint256[]",
          "name": "vaultIDs",
          "type": "uint256[]"
        }
      ],
      "name": "LiquidatedVaults",
      "type": "event"
    },
    {
      "anonymous": false,
      "inputs": [
        {
          "indexed": true,
          "internalType": "address",
          "name": "_veBoostProxy",
          "type": "address"
        },
        {
          "indexed": false,
          "internalType": "uint256[]",
          "name": "xBoost",
          "type": "uint256[]"
        },
        {
          "indexed": false,
          "internalType": "uint256[]",
          "name": "yBoost",
          "type": "uint256[]"
        }
      ],
      "name": "LiquidationBoostParametersUpdated",
      "type": "event"
    },
    {
      "anonymous": false,
      "inputs": [
        {
          "indexed": true,
          "internalType": "address",
          "name": "from",
          "type": "address"
        },
        {
          "indexed": true,
          "internalType": "address",
          "name": "to",
          "type": "address"
        },
        {
          "indexed": true,
          "internalType": "uint256",
          "name": "tokenId",
          "type": "uint256"
        }
      ],
      "name": "Transfer",
      "type": "event"
    },
    {
      "inputs": [],
      "name": "BASE_INTEREST",
      "outputs": [
        {
          "internalType": "uint256",
          "name": "",
          "type": "uint256"
        }
      ],
      "stateMutability": "view",
      "type": "function"
    },
    {
      "inputs": [],
      "name": "BASE_PARAMS",
      "outputs": [
        {
          "internalType": "uint256",
          "name": "",
          "type": "uint256"
        }
      ],
      "stateMutability": "view",
      "type": "function"
    },
    {
      "inputs": [],
      "name": "DOMAIN_SEPARATOR",
      "outputs": [
        {
          "internalType": "bytes32",
          "name": "",
          "type": "bytes32"
        }
      ],
      "stateMutability": "view",
      "type": "function"
    },
    {
      "inputs": [],
      "name": "HALF_BASE_INTEREST",
      "outputs": [
        {
          "internalType": "uint256",
          "name": "",
          "type": "uint256"
        }
      ],
      "stateMutability": "view",
      "type": "function"
    },
    {
      "inputs": [],
      "name": "accrueInterestToTreasury",
      "outputs": [
        {
          "internalType": "uint256",
          "name": "surplusValue",
          "type": "uint256"
        },
        {
          "internalType": "uint256",
          "name": "badDebtValue",
          "type": "uint256"
        }
      ],
      "stateMutability": "nonpayable",
      "type": "function"
    },
    {
      "inputs": [
        {
          "internalType": "enum ActionType[]",
          "name": "actions",
          "type": "uint8[]"
        },
        {
          "internalType": "bytes[]",
          "name": "datas",
          "type": "bytes[]"
        },
        {
          "internalType": "address",
          "name": "from",
          "type": "address"
        },
        {
          "internalType": "address",
          "name": "to",
          "type": "address"
        }
      ],
      "name": "angle",
      "outputs": [
        {
          "components": [
            {
              "internalType": "uint256",
              "name": "stablecoinAmountToGive",
              "type": "uint256"
            },
            {
              "internalType": "uint256",
              "name": "stablecoinAmountToReceive",
              "type": "uint256"
            },
            {
              "internalType": "uint256",
              "name": "collateralAmountToGive",
              "type": "uint256"
            },
            {
              "internalType": "uint256",
              "name": "collateralAmountToReceive",
              "type": "uint256"
            }
          ],
          "internalType": "struct PaymentData",
          "name": "",
          "type": "tuple"
        }
      ],
      "stateMutability": "nonpayable",
      "type": "function"
    },
    {
      "inputs": [
        {
          "internalType": "enum ActionType[]",
          "name": "actions",
          "type": "uint8[]"
        },
        {
          "internalType": "bytes[]",
          "name": "datas",
          "type": "bytes[]"
        },
        {
          "internalType": "address",
          "name": "from",
          "type": "address"
        },
        {
          "internalType": "address",
          "name": "to",
          "type": "address"
        },
        {
          "internalType": "address",
          "name": "who",
          "type": "address"
        },
        {
          "internalType": "bytes",
          "name": "repayData",
          "type": "bytes"
        }
      ],
      "name": "angle",
      "outputs": [
        {
          "components": [
            {
              "internalType": "uint256",
              "name": "stablecoinAmountToGive",
              "type": "uint256"
            },
            {
              "internalType": "uint256",
              "name": "stablecoinAmountToReceive",
              "type": "uint256"
            },
            {
              "internalType": "uint256",
              "name": "collateralAmountToGive",
              "type": "uint256"
            },
            {
              "internalType": "uint256",
              "name": "collateralAmountToReceive",
              "type": "uint256"
            }
          ],
          "internalType": "struct PaymentData",
          "name": "paymentData",
          "type": "tuple"
        }
      ],
      "stateMutability": "nonpayable",
      "type": "function"
    },
    {
      "inputs": [
        {
          "internalType": "address",
          "name": "to",
          "type": "address"
        },
        {
          "internalType": "uint256",
          "name": "vaultID",
          "type": "uint256"
        }
      ],
      "name": "approve",
      "outputs": [],
      "stateMutability": "nonpayable",
      "type": "function"
    },
    {
      "inputs": [],
      "name": "badDebt",
      "outputs": [
        {
          "internalType": "uint256",
          "name": "",
          "type": "uint256"
        }
      ],
      "stateMutability": "view",
      "type": "function"
    },
    {
      "inputs": [
        {
          "internalType": "address",
          "name": "owner",
          "type": "address"
        }
      ],
      "name": "balanceOf",
      "outputs": [
        {
          "internalType": "uint256",
          "name": "",
          "type": "uint256"
        }
      ],
      "stateMutability": "view",
      "type": "function"
    },
    {
      "inputs": [],
      "name": "borrowFee",
      "outputs": [
        {
          "internalType": "uint64",
          "name": "",
          "type": "uint64"
        }
      ],
      "stateMutability": "view",
      "type": "function"
    },
    {
      "inputs": [
        {
          "internalType": "uint256",
          "name": "vaultID",
          "type": "uint256"
        },
        {
          "internalType": "address",
          "name": "liquidator",
          "type": "address"
        }
      ],
      "name": "checkLiquidation",
      "outputs": [
        {
          "components": [
            {
              "internalType": "uint256",
              "name": "maxStablecoinAmountToRepay",
              "type": "uint256"
            },
            {
              "internalType": "uint256",
              "name": "maxCollateralAmountGiven",
              "type": "uint256"
            },
            {
              "internalType": "uint256",
              "name": "thresholdRepayAmount",
              "type": "uint256"
            },
            {
              "internalType": "uint256",
              "name": "discount",
              "type": "uint256"
            },
            {
              "internalType": "uint256",
              "name": "currentDebt",
              "type": "uint256"
            }
          ],
          "internalType": "struct LiquidationOpportunity",
          "name": "liqOpp",
          "type": "tuple"
        }
      ],
      "stateMutability": "view",
      "type": "function"
    },
    {
      "inputs": [],
      "name": "collateral",
      "outputs": [
        {
          "internalType": "contract IERC20",
          "name": "",
          "type": "address"
        }
      ],
      "stateMutability": "view",
      "type": "function"
    },
    {
      "inputs": [],
      "name": "collateralFactor",
      "outputs": [
        {
          "internalType": "uint64",
          "name": "",
          "type": "uint64"
        }
      ],
      "stateMutability": "view",
      "type": "function"
    },
    {
      "inputs": [
        {
          "internalType": "address",
          "name": "toVault",
          "type": "address"
        }
      ],
      "name": "createVault",
      "outputs": [
        {
          "internalType": "uint256",
          "name": "",
          "type": "uint256"
        }
      ],
      "stateMutability": "nonpayable",
      "type": "function"
    },
    {
      "inputs": [],
      "name": "debtCeiling",
      "outputs": [
        {
          "internalType": "uint256",
          "name": "",
          "type": "uint256"
        }
      ],
      "stateMutability": "view",
      "type": "function"
    },
    {
      "inputs": [],
      "name": "dust",
      "outputs": [
        {
          "internalType": "uint256",
          "name": "",
          "type": "uint256"
        }
      ],
      "stateMutability": "view",
      "type": "function"
    },
    {
      "inputs": [
        {
          "internalType": "uint256",
          "name": "vaultID",
          "type": "uint256"
        }
      ],
      "name": "getApproved",
      "outputs": [
        {
          "internalType": "address",
          "name": "",
          "type": "address"
        }
      ],
      "stateMutability": "view",
      "type": "function"
    },
    {
      "inputs": [
        {
          "internalType": "uint256",
          "name": "vaultID",
          "type": "uint256"
        },
        {
          "internalType": "uint256",
          "name": "stablecoinAmount",
          "type": "uint256"
        },
        {
          "internalType": "uint256",
          "name": "senderBorrowFee",
          "type": "uint256"
        },
        {
          "internalType": "uint256",
          "name": "senderRepayFee",
          "type": "uint256"
        }
      ],
      "name": "getDebtOut",
      "outputs": [],
      "stateMutability": "nonpayable",
      "type": "function"
    },
    {
      "inputs": [],
      "name": "getTotalDebt",
      "outputs": [
        {
          "internalType": "uint256",
          "name": "",
          "type": "uint256"
        }
      ],
      "stateMutability": "view",
      "type": "function"
    },
    {
      "inputs": [
        {
          "internalType": "uint256",
          "name": "vaultID",
          "type": "uint256"
        }
      ],
      "name": "getVaultDebt",
      "outputs": [
        {
          "internalType": "uint256",
          "name": "",
          "type": "uint256"
        }
      ],
      "stateMutability": "view",
      "type": "function"
    },
    {
      "inputs": [
        {
          "internalType": "contract ITreasury",
          "name": "_treasury",
          "type": "address"
        },
        {
          "internalType": "contract IERC20",
          "name": "_collateral",
          "type": "address"
        },
        {
          "internalType": "contract IOracle",
          "name": "_oracle",
          "type": "address"
        },
        {
          "components": [
            {
              "internalType": "uint256",
              "name": "debtCeiling",
              "type": "uint256"
            },
            {
              "internalType": "uint64",
              "name": "collateralFactor",
              "type": "uint64"
            },
            {
              "internalType": "uint64",
              "name": "targetHealthFactor",
              "type": "uint64"
            },
            {
              "internalType": "uint64",
              "name": "interestRate",
              "type": "uint64"
            },
            {
              "internalType": "uint64",
              "name": "liquidationSurcharge",
              "type": "uint64"
            },
            {
              "internalType": "uint64",
              "name": "maxLiquidationDiscount",
              "type": "uint64"
            },
            {
              "internalType": "bool",
              "name": "whitelistingActivated",
              "type": "bool"
            },
            {
              "internalType": "uint256",
              "name": "baseBoost",
              "type": "uint256"
            }
          ],
          "internalType": "struct VaultParameters",
          "name": "params",
          "type": "tuple"
        },
        {
          "internalType": "string",
          "name": "_symbol",
          "type": "string"
        }
      ],
      "name": "initialize",
      "outputs": [],
      "stateMutability": "nonpayable",
      "type": "function"
    },
    {
      "inputs": [],
      "name": "interestAccumulator",
      "outputs": [
        {
          "internalType": "uint256",
          "name": "",
          "type": "uint256"
        }
      ],
      "stateMutability": "view",
      "type": "function"
    },
    {
      "inputs": [],
      "name": "interestRate",
      "outputs": [
        {
          "internalType": "uint64",
          "name": "",
          "type": "uint64"
        }
      ],
      "stateMutability": "view",
      "type": "function"
    },
    {
      "inputs": [
        {
          "internalType": "address",
          "name": "owner",
          "type": "address"
        },
        {
          "internalType": "address",
          "name": "operator",
          "type": "address"
        }
      ],
      "name": "isApprovedForAll",
      "outputs": [
        {
          "internalType": "bool",
          "name": "",
          "type": "bool"
        }
      ],
      "stateMutability": "view",
      "type": "function"
    },
    {
      "inputs": [
        {
          "internalType": "address",
          "name": "spender",
          "type": "address"
        },
        {
          "internalType": "uint256",
          "name": "vaultID",
          "type": "uint256"
        }
      ],
      "name": "isApprovedOrOwner",
      "outputs": [
        {
          "internalType": "bool",
          "name": "",
          "type": "bool"
        }
      ],
      "stateMutability": "view",
      "type": "function"
    },
    {
      "inputs": [
        {
          "internalType": "address",
          "name": "",
          "type": "address"
        }
      ],
      "name": "isWhitelisted",
      "outputs": [
        {
          "internalType": "uint256",
          "name": "",
          "type": "uint256"
        }
      ],
      "stateMutability": "view",
      "type": "function"
    },
    {
      "inputs": [],
      "name": "lastInterestAccumulatorUpdated",
      "outputs": [
        {
          "internalType": "uint256",
          "name": "",
          "type": "uint256"
        }
      ],
      "stateMutability": "view",
      "type": "function"
    },
    {
      "inputs": [
        {
          "internalType": "uint256[]",
          "name": "vaultIDs",
          "type": "uint256[]"
        },
        {
          "internalType": "uint256[]",
          "name": "amounts",
          "type": "uint256[]"
        },
        {
          "internalType": "address",
          "name": "from",
          "type": "address"
        },
        {
          "internalType": "address",
          "name": "to",
          "type": "address"
        },
        {
          "internalType": "address",
          "name": "who",
          "type": "address"
        },
        {
          "internalType": "bytes",
          "name": "data",
          "type": "bytes"
        }
      ],
      "name": "liquidate",
      "outputs": [
        {
          "components": [
            {
              "internalType": "uint256",
              "name": "stablecoinAmountToReceive",
              "type": "uint256"
            },
            {
              "internalType": "uint256",
              "name": "collateralAmountToGive",
              "type": "uint256"
            },
            {
              "internalType": "uint256",
              "name": "badDebtFromLiquidation",
              "type": "uint256"
            },
            {
              "internalType": "uint256",
              "name": "oracleValue",
              "type": "uint256"
            },
            {
              "internalType": "uint256",
              "name": "newInterestAccumulator",
              "type": "uint256"
            }
          ],
          "internalType": "struct LiquidatorData",
          "name": "liqData",
          "type": "tuple"
        }
      ],
      "stateMutability": "nonpayable",
      "type": "function"
    },
    {
      "inputs": [
        {
          "internalType": "uint256[]",
          "name": "vaultIDs",
          "type": "uint256[]"
        },
        {
          "internalType": "uint256[]",
          "name": "amounts",
          "type": "uint256[]"
        },
        {
          "internalType": "address",
          "name": "from",
          "type": "address"
        },
        {
          "internalType": "address",
          "name": "to",
          "type": "address"
        }
      ],
      "name": "liquidate",
      "outputs": [
        {
          "components": [
            {
              "internalType": "uint256",
              "name": "stablecoinAmountToReceive",
              "type": "uint256"
            },
            {
              "internalType": "uint256",
              "name": "collateralAmountToGive",
              "type": "uint256"
            },
            {
              "internalType": "uint256",
              "name": "badDebtFromLiquidation",
              "type": "uint256"
            },
            {
              "internalType": "uint256",
              "name": "oracleValue",
              "type": "uint256"
            },
            {
              "internalType": "uint256",
              "name": "newInterestAccumulator",
              "type": "uint256"
            }
          ],
          "internalType": "struct LiquidatorData",
          "name": "",
          "type": "tuple"
        }
      ],
      "stateMutability": "nonpayable",
      "type": "function"
    },
    {
      "inputs": [],
      "name": "liquidationSurcharge",
      "outputs": [
        {
          "internalType": "uint64",
          "name": "",
          "type": "uint64"
        }
      ],
      "stateMutability": "view",
      "type": "function"
    },
    {
      "inputs": [],
      "name": "maxLiquidationDiscount",
      "outputs": [
        {
          "internalType": "uint64",
          "name": "",
          "type": "uint64"
        }
      ],
      "stateMutability": "view",
      "type": "function"
    },
    {
      "inputs": [],
      "name": "name",
      "outputs": [
        {
          "internalType": "string",
          "name": "",
          "type": "string"
        }
      ],
      "stateMutability": "view",
      "type": "function"
    },
    {
      "inputs": [
        {
          "internalType": "address",
          "name": "owner",
          "type": "address"
        }
      ],
      "name": "nonces",
      "outputs": [
        {
          "internalType": "uint256",
          "name": "",
          "type": "uint256"
        }
      ],
      "stateMutability": "view",
      "type": "function"
    },
    {
      "inputs": [],
      "name": "oracle",
      "outputs": [
        {
          "internalType": "contract IOracle",
          "name": "",
          "type": "address"
        }
      ],
      "stateMutability": "view",
      "type": "function"
    },
    {
      "inputs": [
        {
          "internalType": "uint256",
          "name": "vaultID",
          "type": "uint256"
        }
      ],
      "name": "ownerOf",
      "outputs": [
        {
          "internalType": "address",
          "name": "",
          "type": "address"
        }
      ],
      "stateMutability": "view",
      "type": "function"
    },
    {
      "inputs": [],
      "name": "paused",
      "outputs": [
        {
          "internalType": "bool",
          "name": "",
          "type": "bool"
        }
      ],
      "stateMutability": "view",
      "type": "function"
    },
    {
      "inputs": [
        {
          "internalType": "address",
          "name": "owner",
          "type": "address"
        },
        {
          "internalType": "address",
          "name": "spender",
          "type": "address"
        },
        {
          "internalType": "bool",
          "name": "approved",
          "type": "bool"
        },
        {
          "internalType": "uint256",
          "name": "deadline",
          "type": "uint256"
        },
        {
          "internalType": "uint8",
          "name": "v",
          "type": "uint8"
        },
        {
          "internalType": "bytes32",
          "name": "r",
          "type": "bytes32"
        },
        {
          "internalType": "bytes32",
          "name": "s",
          "type": "bytes32"
        }
      ],
      "name": "permit",
      "outputs": [],
      "stateMutability": "nonpayable",
      "type": "function"
    },
    {
      "inputs": [],
      "name": "repayFee",
      "outputs": [
        {
          "internalType": "uint64",
          "name": "",
          "type": "uint64"
        }
      ],
      "stateMutability": "view",
      "type": "function"
    },
    {
      "inputs": [
        {
          "internalType": "address",
          "name": "from",
          "type": "address"
        },
        {
          "internalType": "address",
          "name": "to",
          "type": "address"
        },
        {
          "internalType": "uint256",
          "name": "vaultID",
          "type": "uint256"
        }
      ],
      "name": "safeTransferFrom",
      "outputs": [],
      "stateMutability": "nonpayable",
      "type": "function"
    },
    {
      "inputs": [
        {
          "internalType": "address",
          "name": "from",
          "type": "address"
        },
        {
          "internalType": "address",
          "name": "to",
          "type": "address"
        },
        {
          "internalType": "uint256",
          "name": "vaultID",
          "type": "uint256"
        },
        {
          "internalType": "bytes",
          "name": "_data",
          "type": "bytes"
        }
      ],
      "name": "safeTransferFrom",
      "outputs": [],
      "stateMutability": "nonpayable",
      "type": "function"
    },
    {
      "inputs": [
        {
          "internalType": "address",
          "name": "operator",
          "type": "address"
        },
        {
          "internalType": "bool",
          "name": "approved",
          "type": "bool"
        }
      ],
      "name": "setApprovalForAll",
      "outputs": [],
      "stateMutability": "nonpayable",
      "type": "function"
    },
    {
      "inputs": [
        {
          "internalType": "string",
          "name": "baseURI_",
          "type": "string"
        }
      ],
      "name": "setBaseURI",
      "outputs": [],
      "stateMutability": "nonpayable",
      "type": "function"
    },
    {
      "inputs": [
        {
          "internalType": "uint256",
          "name": "_debtCeiling",
          "type": "uint256"
        }
      ],
      "name": "setDebtCeiling",
      "outputs": [],
      "stateMutability": "nonpayable",
      "type": "function"
    },
    {
      "inputs": [
        {
          "internalType": "uint256",
          "name": "_dust",
          "type": "uint256"
        },
        {
          "internalType": "uint256",
          "name": "dustCollateral_",
          "type": "uint256"
        }
      ],
      "name": "setDusts",
      "outputs": [],
      "stateMutability": "nonpayable",
      "type": "function"
    },
    {
      "inputs": [
        {
          "internalType": "address",
          "name": "_veBoostProxy",
          "type": "address"
        },
        {
          "internalType": "uint256[]",
          "name": "xBoost",
          "type": "uint256[]"
        },
        {
          "internalType": "uint256[]",
          "name": "yBoost",
          "type": "uint256[]"
        }
      ],
      "name": "setLiquidationBoostParameters",
      "outputs": [],
      "stateMutability": "nonpayable",
      "type": "function"
    },
    {
      "inputs": [
        {
          "internalType": "address",
          "name": "_oracle",
          "type": "address"
        }
      ],
      "name": "setOracle",
      "outputs": [],
      "stateMutability": "nonpayable",
      "type": "function"
    },
    {
      "inputs": [
        {
          "internalType": "address",
          "name": "_treasury",
          "type": "address"
        }
      ],
      "name": "setTreasury",
      "outputs": [],
      "stateMutability": "nonpayable",
      "type": "function"
    },
    {
      "inputs": [
        {
          "internalType": "uint64",
          "name": "param",
          "type": "uint64"
        },
        {
          "internalType": "bytes32",
          "name": "what",
          "type": "bytes32"
        }
      ],
      "name": "setUint64",
      "outputs": [],
      "stateMutability": "nonpayable",
      "type": "function"
    },
    {
      "inputs": [],
      "name": "stablecoin",
      "outputs": [
        {
          "internalType": "contract IAgToken",
          "name": "",
          "type": "address"
        }
      ],
      "stateMutability": "view",
      "type": "function"
    },
    {
      "inputs": [
        {
          "internalType": "bytes4",
          "name": "interfaceId",
          "type": "bytes4"
        }
      ],
      "name": "supportsInterface",
      "outputs": [
        {
          "internalType": "bool",
          "name": "",
          "type": "bool"
        }
      ],
      "stateMutability": "pure",
      "type": "function"
    },
    {
      "inputs": [],
      "name": "surplus",
      "outputs": [
        {
          "internalType": "uint256",
          "name": "",
          "type": "uint256"
        }
      ],
      "stateMutability": "view",
      "type": "function"
    },
    {
      "inputs": [],
      "name": "symbol",
      "outputs": [
        {
          "internalType": "string",
          "name": "",
          "type": "string"
        }
      ],
      "stateMutability": "view",
      "type": "function"
    },
    {
      "inputs": [],
      "name": "targetHealthFactor",
      "outputs": [
        {
          "internalType": "uint64",
          "name": "",
          "type": "uint64"
        }
      ],
      "stateMutability": "view",
      "type": "function"
    },
    {
      "inputs": [],
      "name": "togglePause",
      "outputs": [],
      "stateMutability": "nonpayable",
      "type": "function"
    },
    {
      "inputs": [
        {
          "internalType": "address",
          "name": "target",
          "type": "address"
        }
      ],
      "name": "toggleWhitelist",
      "outputs": [],
      "stateMutability": "nonpayable",
      "type": "function"
    },
    {
      "inputs": [
        {
          "internalType": "uint256",
          "name": "vaultID",
          "type": "uint256"
        }
      ],
      "name": "tokenURI",
      "outputs": [
        {
          "internalType": "string",
          "name": "",
          "type": "string"
        }
      ],
      "stateMutability": "view",
      "type": "function"
    },
    {
      "inputs": [],
      "name": "totalNormalizedDebt",
      "outputs": [
        {
          "internalType": "uint256",
          "name": "",
          "type": "uint256"
        }
      ],
      "stateMutability": "view",
      "type": "function"
    },
    {
      "inputs": [
        {
          "internalType": "address",
          "name": "from",
          "type": "address"
        },
        {
          "internalType": "address",
          "name": "to",
          "type": "address"
        },
        {
          "internalType": "uint256",
          "name": "vaultID",
          "type": "uint256"
        }
      ],
      "name": "transferFrom",
      "outputs": [],
      "stateMutability": "nonpayable",
      "type": "function"
    },
    {
      "inputs": [],
      "name": "treasury",
      "outputs": [
        {
          "internalType": "contract ITreasury",
          "name": "",
          "type": "address"
        }
      ],
      "stateMutability": "view",
      "type": "function"
    },
    {
      "inputs": [
        {
          "internalType": "uint256",
          "name": "",
          "type": "uint256"
        }
      ],
      "name": "vaultData",
      "outputs": [
        {
          "internalType": "uint256",
          "name": "collateralAmount",
          "type": "uint256"
        },
        {
          "internalType": "uint256",
          "name": "normalizedDebt",
          "type": "uint256"
        }
      ],
      "stateMutability": "view",
      "type": "function"
    },
    {
      "inputs": [],
      "name": "vaultIDCount",
      "outputs": [
        {
          "internalType": "uint256",
          "name": "",
          "type": "uint256"
        }
      ],
      "stateMutability": "view",
      "type": "function"
    },
    {
      "inputs": [],
      "name": "veBoostProxy",
      "outputs": [
        {
          "internalType": "contract IVeBoostProxy",
          "name": "",
          "type": "address"
        }
      ],
      "stateMutability": "view",
      "type": "function"
    },
    {
      "inputs": [],
      "name": "whitelistingActivated",
      "outputs": [
        {
          "internalType": "bool",
          "name": "",
          "type": "bool"
        }
      ],
      "stateMutability": "view",
      "type": "function"
    },
    {
      "inputs": [
        {
          "internalType": "uint256",
          "name": "",
          "type": "uint256"
        }
      ],
      "name": "xLiquidationBoost",
      "outputs": [
        {
          "internalType": "uint256",
          "name": "",
          "type": "uint256"
        }
      ],
      "stateMutability": "view",
      "type": "function"
    },
    {
      "inputs": [
        {
          "internalType": "uint256",
          "name": "",
          "type": "uint256"
        }
      ],
      "name": "yLiquidationBoost",
      "outputs": [
        {
          "internalType": "uint256",
          "name": "",
          "type": "uint256"
        }
      ],
      "stateMutability": "view",
      "type": "function"
    }
  ],
  "transactionHash": "0x8be16e760de13a72dc195cbf06b208c93509dd7c69f8a15a30875e6cc3a19734",
  "args": [],
  "numDeployments": 1,
  "solcInputHash": "34ac966051885505101d28a8bff44f50",
  "bytecode": "0x60806040523480156200001157600080fd5b50600054610100900460ff1615808015620000335750600054600160ff909116105b8062000063575062000050306200013d60201b620033591760201c565b15801562000063575060005460ff166001145b620000cb5760405162461bcd60e51b815260206004820152602e60248201527f496e697469616c697a61626c653a20636f6e747261637420697320616c72656160448201526d191e481a5b9a5d1a585b1a5e995960921b606482015260840160405180910390fd5b6000805460ff191660011790558015620000ef576000805461ff0019166101001790555b801562000136576000805461ff0019169055604051600181527f7f26b83ff96e1f2b6a682f133852f6798a09c465da95921460cefb38474024989060200160405180910390a15b506200014c565b6001600160a01b03163b151590565b615f2c806200015c6000396000f3fe608060405234801561001057600080fd5b50600436106102f65760003560e01c8063010db195146102fb57806301ffc9a71461032457806306fdde0314610347578063081812fc1461035c578063087a60071461036f578063095ea7b3146103865780630e198f221461039b57806313888565146103a457806323b872dd146103ad578063254cf439146103c0578063307439af146103f257806334ce998a1461041257806335836f151461041a5780633644e5151461042d57806339393ac91461043557806339eb4dc6146104485780633ae2325f1461045c5780633af32abf1461046f5780633c2e941b1461048f57806342842e0e14610498578063430c2081146104ab5780634f7e43df146104be57806355f804b3146104d85780635b84d88a146104eb5780635c975abb146104fe57806361d027b3146105125780636352211e1461052557806370a0823114610538578063741075431461054b5780637aacfffa1461055e5780637adbf9731461059a5780637c0f59f4146105ad5780637c3a00fd146105c75780637dc0d1d0146105da5780637e53bd97146105ed5780637e56d47c146106005780637ecebe0014610613578063835986b41461063c57806389050f1d1461064f57806395d89b41146106615780639a3b6f2f146106695780639f48118f146106af578063a22cb465146106ba578063af2c8c2e146106cd578063b1511cc9146106d6578063b4bd6f46146106e9578063b88d4fde146106fc578063bbcac5571461070f578063c4ae316814610718578063c66d8b0114610720578063c87b56dd1461073a578063d8dfeb451461074d578063d9b1cb5b14610760578063de1f776514610773578063de8fc69814610785578063df011c4114610798578063e182b883146107ab578063e1c84ea4146107be578063e626648a146107c7578063e985e9c5146107e1578063e9cbd822146107f4578063f0f4426014610807578063f51cc7dd1461081a578063fad9aba31461082d578063fc29b02114610836578063fd527cf814610849575b600080fd5b60375461030e906001600160a01b031681565b60405161031b9190614ee0565b60405180910390f35b610337610332366004614f0a565b610851565b604051901515815260200161031b565b61034f6108be565b60405161031b9190614f7f565b61030e61036a366004614f92565b61094c565b610378603f5481565b60405190815260200161031b565b610399610394366004614fc0565b61097d565b005b610378603e5481565b61037860415481565b6103996103bb366004614fec565b610a0a565b603c546103da90600160401b90046001600160401b031681565b6040516001600160401b03909116815260200161031b565b61040561040036600461502d565b610a45565b60405161031b919061505d565b610378610af7565b610378610428366004614f92565b610b29565b610378610b65565b610399610443366004615096565b610b6f565b603d5461033790600160c01b900460ff1681565b61037861046a366004614f92565b610c6f565b61037861047d366004615096565b60446020526000908152604090205481565b61037860455481565b6103996104a6366004614fec565b610c90565b6103376104b9366004614fc0565b610cab565b603d546103da90600160801b90046001600160401b031681565b6103996104e6366004615168565b610cb7565b6103996104f936600461519c565b610d5c565b603d5461033790600160c81b900460ff1681565b60335461030e906001600160a01b031681565b61030e610533366004614f92565b610df5565b610378610546366004615096565b610e00565b6103996105593660046151d5565b610e45565b61058561056c366004614f92565b6043602052600090815260409020805460019091015482565b6040805192835260208301919091520161031b565b6103996105a8366004615096565b611211565b603c546103da90600160c01b90046001600160401b031681565b603d546103da906001600160401b031681565b60365461030e906001600160a01b031681565b6103996105fb36600461527f565b611358565b61040561060e3660046152f4565b611549565b610378610621366004615096565b6001600160a01b03166000908152607f602052604090205490565b61039961064a3660046153b8565b611af6565b610378676765c793fa10079d601a1b81565b61034f611cae565b61067c6106773660046154d2565b611cbb565b60405161031b91908151815260208083015190820152604080830151908201526060918201519181019190915260800190565b610378633b9aca0081565b6103996106c8366004615568565b611cf0565b61037860405481565b6103996106e4366004614f92565b611cfb565b6103786106f7366004615096565b611dc4565b61039961070a366004615596565b611e00565b61037860425481565b610399611e3d565b603d546103da90600160401b90046001600160401b031681565b61034f610748366004614f92565b611eec565b60345461030e906001600160a01b031681565b61039961076e366004615601565b612041565b610378676765c793fa10079d601b1b81565b61067c610793366004615695565b6125ec565b603c546103da906001600160401b031681565b6103786107b9366004614f92565b612e73565b61037860395481565b603c546103da90600160801b90046001600160401b031681565b6103376107ef3660046156f3565b612e83565b60355461030e906001600160a01b031681565b610399610815366004615096565b612eb1565b610399610828366004615730565b612f51565b61037860b45481565b6104056108443660046157aa565b613210565b61058561323a565b60006001600160e01b03198216635b5e139f60e01b148061088257506001600160e01b031982166380ac58cd60e01b145b8061089d57506001600160e01b0319821663430c208160e01b145b806108b857506001600160e01b031982166301ffc9a760e01b145b92915050565b607d80546108cb90615806565b80601f01602080910402602001604051908101604052809291908181526020018280546108f790615806565b80156109445780601f1061091957610100808354040283529160200191610944565b820191906000526020600020905b81548152906001019060200180831161092757829003601f168201915b505050505081565b600061095782613368565b6109745760405163062a39dd60e11b815260040160405180910390fd5b6108b882613385565b6000610988826133a0565b9050806001600160a01b0316836001600160a01b031614156109bd576040516349fa8bc360e11b815260040160405180910390fd5b336001600160a01b038216148015906109dd57506109db8133612e83565b155b156109fb5760405163c19f17a960e01b815260040160405180910390fd5b610a0583836133d6565b505050565b3381610a168282613444565b610a335760405163c19f17a960e01b815260040160405180910390fd5b610a3e8585856134c2565b5050505050565b610a4d614db6565b60008381526043602090815260409182902082518084018452815481526001909101548183015260365483516315f789a960e21b81529351610af094929387936001600160a01b03909316926357de26a492600480830193928290030181865afa158015610abf573d6000803e3d6000fd5b505050506040513d601f19601f82011682018060405250810190610ae3919061583b565b610aeb6135e9565b61377e565b9392505050565b6000676765c793fa10079d601b1b610b0d6135e9565b604054610b1a919061586a565b610b24919061589f565b905090565b6000676765c793fa10079d601b1b610b3f6135e9565b600084815260436020526040902060010154610b5b919061586a565b6108b8919061589f565b6000610b24613ad0565b603354604051631c86b03760e31b81526001600160a01b039091169063e43581b890610b9f903390600401614ee0565b602060405180830381865afa158015610bbc573d6000803e3d6000fd5b505050506040513d601f19601f82011682018060405250810190610be091906158b3565b610bfd57604051633b8d9d7560e21b815260040160405180910390fd5b6001600160a01b03811615610c4c576001600160a01b038116600090815260446020526040902054610c309060016158d0565b6001600160a01b03821660009081526044602052604090205550565b603d805460ff60c01b198116600160c01b9182900460ff16159091021790555b50565b603b8181548110610c7f57600080fd5b600091825260209091200154905081565b610a0583838360405180602001604052806000815250611e00565b6000610af08383613444565b60335460405163521d4de960e01b81526001600160a01b039091169063521d4de990610ce7903390600401614ee0565b602060405180830381865afa158015610d04573d6000803e3d6000fd5b505050506040513d601f19601f82011682018060405250810190610d2891906158b3565b610d4557604051632678482f60e21b815260040160405180910390fd5b8051610d58906046906020840190614de5565b5050565b603354604051631c86b03760e31b81526001600160a01b039091169063e43581b890610d8c903390600401614ee0565b602060405180830381865afa158015610da9573d6000803e3d6000fd5b505050506040513d601f19601f82011682018060405250810190610dcd91906158b3565b610dea57604051633b8d9d7560e21b815260040160405180910390fd5b60b49190915560b555565b60006108b8826133a0565b60006001600160a01b038216610e295760405163d92e233d60e01b815260040160405180910390fd5b506001600160a01b031660009081526048602052604090205490565b60335460405163521d4de960e01b81526001600160a01b039091169063521d4de990610e75903390600401614ee0565b602060405180830381865afa158015610e92573d6000803e3d6000fd5b505050506040513d601f19601f82011682018060405250810190610eb691906158b3565b610ed357604051632678482f60e21b815260040160405180910390fd5b806121a360f11b1415610f3757603d546001600160401b03600160401b90910481169083161115610f1757604051637650e96360e11b815260040160405180910390fd5b603c80546001600160401b0319166001600160401b0384161790556111ca565b80622a242360e91b1415610f9c57633b9aca00826001600160401b03161015610f735760405163da6a17b960e01b815260040160405180910390fd5b603c8054600160401b600160801b031916600160401b6001600160401b038516021790556111ca565b8061212360f11b141561100057633b9aca00826001600160401b03161115610fd757604051637650e96360e11b815260040160405180910390fd5b603c8054600160801b600160c01b031916600160801b6001600160401b038516021790556111ca565b8061292360f11b141561107d57603d54633b9aca009061103090600160401b90046001600160401b0316846158e7565b6001600160401b0316111561105857604051637650e96360e11b815260040160405180910390fd5b603c80546001600160c01b0316600160c01b6001600160401b038516021790556111ca565b806124a960f11b14156110b357611092613b3c565b50603d80546001600160401b0319166001600160401b0384161790556111ca565b80614c5360f01b141561114c57603c546001600160401b03808416911611806111055750603c54633b9aca00906110fa90600160c01b90046001600160401b0316846158e7565b6001600160401b0316115b156111235760405163180d062b60e31b815260040160405180910390fd5b603d8054600160401b600160801b031916600160401b6001600160401b038516021790556111ca565b806213531160ea1b14156111b157633b9aca00826001600160401b0316111561118857604051637650e96360e11b815260040160405180910390fd5b603d8054600160801b600160c01b031916600160801b6001600160401b038516021790556111ca565b60405163e1daa9cf60e01b815260040160405180910390fd5b604080516001600160401b0384168152602081018390527f13b367dac93b85d1ed9b3d8961d8b48e1a677c9800bb1613b4b0416b2d5b61d091015b60405180910390a15050565b603354604051631c86b03760e31b81526001600160a01b039091169063e43581b890611241903390600401614ee0565b602060405180830381865afa15801561125e573d6000803e3d6000fd5b505050506040513d601f19601f8201168201806040525081019061128291906158b3565b61129f57604051633b8d9d7560e21b815260040160405180910390fd5b603354604080516361d027b360e01b815290516001600160a01b03928316928416916361d027b39160048083019260209291908290030181865afa1580156112eb573d6000803e3d6000fd5b505050506040513d601f19601f8201168201806040525081019061130f9190615912565b6001600160a01b031614611336576040516302979eb960e31b815260040160405180910390fd5b603680546001600160a01b0319166001600160a01b0392909216919091179055565b60335460405163521d4de960e01b81526001600160a01b039091169063521d4de990611388903390600401614ee0565b602060405180830381865afa1580156113a5573d6000803e3d6000fd5b505050506040513d601f19601f820116820180604052508101906113c991906158b3565b6113e657604051632678482f60e21b815260040160405180910390fd5b805182511415806114115750806000815181106114055761140561592f565b60200260200101516000145b806114a057506001600160a01b038316158015906114a057508160008151811061143d5761143d61592f565b6020026020010151826001815181106114585761145861592f565b60200260200101511115806114a057508060008151811061147b5761147b61592f565b6020026020010151816001815181106114965761149661592f565b6020026020010151105b156114be57604051631746545d60e11b815260040160405180910390fd5b603780546001600160a01b0319166001600160a01b03851617905581516114ec90603a906020850190614e69565b50805161150090603b906020840190614e69565b50826001600160a01b03167feb74d4d9fea592587c926aeb35eb6a7893fb28db0c1c8eb2eb3c586e7164b76c838360405161153c929190615980565b60405180910390a2505050565b611551614db6565b603d54600160c81b900460ff161561157c576040516313d0ff5960e31b815260040160405180910390fd5b600260015414156115a85760405162461bcd60e51b815260040161159f906159a5565b60405180910390fd5b600260015586518651811415806115bd575080155b156115db576040516346282e8d60e01b815260040160405180910390fd5b603660009054906101000a90046001600160a01b03166001600160a01b03166357de26a46040518163ffffffff1660e01b8152600401602060405180830381865afa15801561162e573d6000803e3d6000fd5b505050506040513d601f19601f82011682018060405250810190611652919061583b565b606083015261165f613b3c565b60808301526040517f965a177723c641ee49150b583a0b9ad4730bb20d3474e00ae5a65e777c00d67b90611694908a906159dc565b60405180910390a160005b81811015611a66576000604360008b84815181106116bf576116bf61592f565b60200260200101518152602001908152602001600020604051806040016040529081600082015481526020016001820154815250509050600061170c82338760600151886080015161377e565b90508060400151600014158015611740575080604001518a84815181106117355761173561592f565b602002602001015110155b80611767575080600001518a848151811061175d5761175d61592f565b6020026020010151115b156117905780600001518a84815181106117835761178361592f565b6020026020010181815250505b6000856060015182606001516117a6919061586a565b603854633b9aca008d87815181106117c0576117c061592f565b60200260200101516117d2919061586a565b6117dc919061586a565b6117e6919061589f565b90506118148c85815181106117fd576117fd61592f565b60200260200101518285600001511115610c6c5750565b8251811061194a575081516020830151604080546000906118369084906158d0565b92505081905550604360008d86815181106118535761185361592f565b60209081029190910181015182528101919091526040016000908120818155600101819055603d548c51633b9aca0091600160401b90046001600160401b0316908e90889081106118a6576118a661592f565b60200260200101516118b8919061586a565b6118c2919061589f565b9050826080015181106118d65760006118e6565b8083608001516118e691906158d0565b876040018181516118f791906159ef565b905250508b51600080516020615e97833981519152908d908690811061191f5761191f61592f565b60200260200101518460200151600060405161193d93929190615a07565b60405180910390a1611a0b565b80604360008e87815181106119615761196161592f565b60200260200101518152602001908152602001600020600001600082825461198991906158d0565b92505081905550611a098c85815181106119a5576119a561592f565b6020026020010151633b9aca00603d60089054906101000a90046001600160401b03166001600160401b03168e88815181106119e3576119e361592f565b60200260200101516119f5919061586a565b6119ff919061589f565b8860800151613bdd565b505b8086602001818151611a1d91906159ef565b9052508a518b9085908110611a3457611a3461592f565b602002602001015186600001818151611a4d91906159ef565b905250611a5f9250839150615a209050565b905061169f565b50603d54633b9aca0090611a8a90600160401b90046001600160401b0316826158d0565b8351611a96919061586a565b611aa0919061589f565b60416000828254611ab191906159ef565b9091555050604082015160428054600090611acd9084906159ef565b909155505060208201518251611ae7919088888888613d0c565b50600180559695505050505050565b603d54600160c81b900460ff1615611b21576040516313d0ff5960e31b815260040160405180910390fd5b6033546040516333b52a9f60e11b81526001600160a01b039091169063676a553e90611b51903390600401614ee0565b602060405180830381865afa158015611b6e573d6000803e3d6000fd5b505050506040513d601f19601f82011682018060405250810190611b9291906158b3565b611baf5760405163027f480760e01b815260040160405180910390fd5b603c54600090600160c01b90046001600160401b0316821015611bed57603c54611bea908390600160c01b90046001600160401b03166158d0565b90505b603c54600090600160801b90046001600160401b0316841115611c2a57603c54611c2790600160801b90046001600160401b0316856158d0565b90505b6000611c3b6002633b9aca00615b1f565b611c4983633b9aca006158d0565b611c5785633b9aca006158d0565b611c61908961586a565b611c6b919061586a565b611c75919061589f565b9050611c8181876158d0565b60416000828254611c9291906159ef565b90915550611ca4905087826000613bdd565b5050505050505050565b607e80546108cb90615806565b611cc3614ea3565b60408051600080825260208201909252611ce5918791879187918791906125ec565b90505b949350505050565b610d58338383613e16565b60335460405163521d4de960e01b81526001600160a01b039091169063521d4de990611d2b903390600401614ee0565b602060405180830381865afa158015611d48573d6000803e3d6000fd5b505050506040513d601f19601f82011682018060405250810190611d6c91906158b3565b611d8957604051632678482f60e21b815260040160405180910390fd5b60398190556040518181527fdd63b3dcdbebad734892f7c7a26d0f647fbc7eec973e0775f5229018ac4ab47a9060200160405180910390a150565b603d54600090600160c81b900460ff1615611df2576040516313d0ff5960e31b815260040160405180910390fd5b6108b882613ecc565b919050565b3382611e0c8282613444565b611e295760405163c19f17a960e01b815260040160405180910390fd5b611e3586868686613ffa565b505050505050565b60335460405163521d4de960e01b81526001600160a01b039091169063521d4de990611e6d903390600401614ee0565b602060405180830381865afa158015611e8a573d6000803e3d6000fd5b505050506040513d601f19601f82011682018060405250810190611eae91906158b3565b611ecb57604051632678482f60e21b815260040160405180910390fd5b603d805460ff60c81b198116600160c81b9182900460ff1615909102179055565b6060611ef782613368565b611f145760405163062a39dd60e11b815260040160405180910390fd5b8160005b8115611f3b57611f2781615a20565b9050611f34600a8361589f565b9150611f18565b6000816001600160401b03811115611f5557611f556150b3565b6040519080825280601f01601f191660200182016040528015611f7f576020820181803683370190505b5090505b8415611fea57611f946001836158d0565b9150611fa1600a86615b2e565b611fac9060306159ef565b60f81b818381518110611fc157611fc161592f565b60200101906001600160f81b031916908160001a905350611fe3600a8661589f565b9450611f83565b60468054611ff790615806565b151590506120145760405180602001604052806000815250612038565b604681604051602001612028929190615b5e565b6040516020818303038152906040525b95945050505050565b600054610100900460ff16158080156120615750600054600160ff909116105b80612082575061207030613359565b158015612082575060005460ff166001145b6120e55760405162461bcd60e51b815260206004820152602e60248201527f496e697469616c697a61626c653a20636f6e747261637420697320616c72656160448201526d191e481a5b9a5d1a585b1a5e995960921b606482015260840161159f565b6000805460ff191660011790558015612108576000805461ff0019166101001790555b856001600160a01b0316846001600160a01b03166361d027b36040518163ffffffff1660e01b8152600401602060405180830381865afa158015612150573d6000803e3d6000fd5b505050506040513d601f19601f820116820180604052508101906121749190615912565b6001600160a01b03161461219b576040516302979eb960e31b815260040160405180910390fd5b603380546001600160a01b038089166001600160a01b0319928316179092556034805492881692909116821790556040805163313ce56760e01b8152905163313ce567916004808201926020929091908290030181865afa158015612204573d6000803e3d6000fd5b505050506040513d601f19601f820116820180604052508101906122289190615bfc565b61223390600a615b1f565b603881905550856001600160a01b031663e9cbd8226040518163ffffffff1660e01b8152600401602060405180830381865afa158015612277573d6000803e3d6000fd5b505050506040513d601f19601f8201168201806040525081019061229b9190615912565b603580546001600160a01b03199081166001600160a01b0393841617909155603680549091169186169190911790556040516000906122de908490602001615c19565b60408051601f19818403018152919052805190915061230490607d906020840190614de5565b5061230e81614034565b8260405160200161231f9190615c60565b604051602081830303815290604052607e9080519060200190612343929190614de5565b50676765c793fa10079d601b1b603f5542603e5561236760a0850160808601615c8a565b6001600160401b03166123806040860160208701615c8a565b6001600160401b031611806123b05750633b9aca006123a560a0860160808701615c8a565b6001600160401b0316115b806123d657506123c66060850160408601615c8a565b6001600160401b0316633b9aca00115b806123fd5750633b9aca006123f160c0860160a08701615c8a565b6001600160401b031610155b8061240a575060e0840135155b1561242857604051631746545d60e11b815260040160405180910390fd5b833560395561243d6040850160208601615c8a565b603c80546001600160401b0319166001600160401b039290921691909117905561246d6060850160408601615c8a565b603c80546001600160401b0392909216600160401b02600160401b600160801b03199092169190911790556124a86080850160608601615c8a565b603d80546001600160401b0319166001600160401b03929092169190911790556124d860a0850160808601615c8a565b603d80546001600160401b0392909216600160401b02600160401b600160801b031990921691909117905561251360c0850160a08601615c8a565b603d80546001600160401b0392909216600160801b02600160801b600160c01b031990921691909117905561254e60e0850160c08601615ca5565b603d8054911515600160c01b0260ff60c01b19909216919091179055604080516020810190915260e0850135815261258a90603b906001614e69565b5050603d805460ff60c81b1916600160c81b1790558015611e35576000805461ff0019169055604051600181527f7f26b83ff96e1f2b6a682f133852f6798a09c465da95921460cefb38474024989060200160405180910390a1505050505050565b6125f4614ea3565b603d54600160c81b900460ff161561261f576040516313d0ff5960e31b815260040160405180910390fd5b600260015414156126425760405162461bcd60e51b815260040161159f906159a5565b60026001558551875114158061265757508651155b15612675576040516346282e8d60e01b815260040160405180910390fd5b6000806000806000805b8c51811015612bdc5760008d828151811061269c5761269c61592f565b60200260200101519050600060078111156126b9576126b9615cc2565b8160078111156126cb576126cb615cc2565b141561270c576127068d83815181106126e6576126e661592f565b60200260200101518060200190518101906127019190615912565b613ecc565b50612bcb565b600281600781111561272057612720615cc2565b1415612786578c82815181106127385761273861592f565b60200260200101518060200190518101906127539190615cd8565b95509250826127625760455492505b61276c838661410a565b848860600181815161277e91906159ef565b905250612bcb565b600781600781111561279a5761279a615cc2565b14156128735760008060008f85815181106127b7576127b761592f565b60200260200101518060200190518101906127d29190615cfc565b60345460405163d505accf60e01b81526001600160a01b038089166004830152306024830152604482018890526064820187905260ff8616608483015260a4820185905260c48201849052969f50939d50939b509497509550929350169063d505accf9060e401600060405180830381600087803b15801561285357600080fd5b505af1158015612867573d6000803e3d6000fd5b50505050505050612bcb565b8661288357612880613b3c565b96505b600481600781111561289757612897615cc2565b1415612963578c82815181106128af576128af61592f565b60200260200101518060200190518101906128ca9190615cd8565b94509250826128d95760455492505b6128e4838589613bdd565b603c5490945060009061290b90600160c01b90046001600160401b0316633b9aca006158d0565b612919633b9aca008761586a565b612923919061589f565b905061292f85826158d0565b6041600082825461294091906159ef565b92505081905550808960200181815161295991906159ef565b905250612bcb9050565b856129e257603660009054906101000a90046001600160a01b03166001600160a01b03166357de26a46040518163ffffffff1660e01b8152600401602060405180830381865afa1580156129bb573d6000803e3d6000fd5b505050506040513d601f19601f820116820180604052508101906129df919061583b565b95505b60018160078111156129f6576129f6615cc2565b1415612a72578c8281518110612a0e57612a0e61592f565b6020026020010151806020019051810190612a29919061583b565b925082612a365760455492505b612a41838789614176565b80965081955050508488604001818151612a5b91906159ef565b90525060208801805185919061277e9083906159ef565b6003816007811115612a8657612a86615cc2565b1415612ae6578c8281518110612a9e57612a9e61592f565b6020026020010151806020019051810190612ab99190615cd8565b9550925082612ac85760455492505b612ad48386888a614296565b848860400181815161277e91906159ef565b6005816007811115612afa57612afa615cc2565b1415612b5c578c8281518110612b1257612b1261592f565b6020026020010151806020019051810190612b2d9190615cd8565b9450925082612b3c5760455492505b612b488385888a614370565b9350838860000181815161277e91906159ef565b6006816007811115612b7057612b70615cc2565b1415612bcb576000808e8481518110612b8b57612b8b61592f565b6020026020010151806020019051810190612ba69190615d4f565b98509196509250905084612bba5760455494505b612bc8858383898c8e61440b565b50505b50612bd581615a20565b905061267f565b508551602087015110612cd35785516020870151600091612bfc916158d0565b90508660600151876040015110612c3357612c2e87606001518860400151612c2491906158d0565b828d8d8d8d613d0c565b612ccd565b8015612ca057603554604051630d43af8160e21b81526001600160a01b039091169063350ebe0490612c6d9084908f903390600401615d8d565b600060405180830381600087803b158015612c8757600080fd5b505af1158015612c9b573d6000803e3d6000fd5b505050505b612ccd333089604001518a60600151612cb991906158d0565b6034546001600160a01b0316929190614547565b50612e5f565b60208601518651600091612ce6916158d0565b6035546040516340c10f1960e01b81529192506001600160a01b0316906340c10f1990612d19908d908590600401615dac565b600060405180830381600087803b158015612d3357600080fd5b505af1158015612d47573d6000803e3d6000fd5b50505050866060015187604001511115612d8b57612d868a88606001518960400151612d7391906158d0565b6034546001600160a01b031691906145b2565b612e5d565b600087604001518860600151612da191906158d0565b90508015612e5b57885115612e4357896001600160a01b031663a5d4096b603560009054906101000a90046001600160a01b0316603460009054906101000a90046001600160a01b03163385878f6040518763ffffffff1660e01b8152600401612e1096959493929190615dc5565b600060405180830381600087803b158015612e2a57600080fd5b505af1158015612e3e573d6000803e3d6000fd5b505050505b603454612e5b906001600160a01b0316333084614547565b505b505b505060018055509198975050505050505050565b603a8181548110610c7f57600080fd5b6001600160a01b039182166000908152604a6020908152604080832093909416825291909152205460011490565b6033546001600160a01b03163314612edc5760405163b90cdbb160e01b815260040160405180910390fd5b603380546001600160a01b0319166001600160a01b0383811691909117909155603654604051630787a21360e51b815291169063f0f4426090612f23908490600401614ee0565b600060405180830381600087803b158015612f3d57600080fd5b505af1158015610a3e573d6000803e3d6000fd5b83421115612f725760405163f87d927160e01b815260040160405180910390fd5b6fa2a8918ca85bafe22016d0b997e4df60600160ff1b03811180612fa957508260ff16601b14158015612fa957508260ff16601c14155b15612fc757604051638baa579f60e01b815260040160405180910390fd5b6000612fd1613ad0565b608254898989612fe08d6145d1565b6040805160208101969096526001600160a01b03948516908601529290911660608401521515608083015260a082015260c0810187905260e0016040516020818303038152906040528051906020012060405160200161305792919061190160f01b81526002810192909252602282015260420190565b604051602081830303815290604052805190602001209050613081886001600160a01b0316613359565b1561315d57604080516020810185905280820184905260f886901b6001600160f81b0319166060820152815160418183030181526061820192839052630b135d3f60e11b9092526001600160a01b038a1691631626ba7e916130e7918591606501615e07565b602060405180830381865afa158015613104573d6000803e3d6000fd5b505050506040513d601f19601f820116820180604052508101906131289190615e20565b6001600160e01b031916631626ba7e60e01b1461315857604051638baa579f60e01b815260040160405180910390fd5b613205565b6040805160008082526020820180845284905260ff871692820192909252606081018590526080810184905260019060a0016020604051602081039080840390855afa1580156131b1573d6000803e3d6000fd5b505050602060405103519050886001600160a01b0316816001600160a01b03161415806131e557506001600160a01b038116155b1561320357604051638baa579f60e01b815260040160405180910390fd5b505b611ca4888888613e16565b613218614db6565b60408051600080825260208201909252611ce591879187918791879190611549565b60335460009081906001600160a01b0316331461326a5760405163b90cdbb160e01b815260040160405180910390fd5b613272613b3c565b50506041805460428054600093849055929055915080821061330b5761329881836158d0565b6035546033546040516340c10f1960e01b8152929450600093506001600160a01b03918216926340c10f19926132d49216908690600401615dac565b600060405180830381600087803b1580156132ee57600080fd5b505af1158015613302573d6000803e3d6000fd5b5050505061331c565b61331582826158d0565b9050600091505b60408051838152602081018390527ffeb12225c131aab793a00c5239afb778932d170fa28ce6e9d23703e4bd892121910160405180910390a19091565b6001600160a01b03163b151590565b6000908152604760205260409020546001600160a01b0316151590565b6000908152604960205260409020546001600160a01b031690565b6000818152604760205260409020546001600160a01b031680611dfb5760405163062a39dd60e11b815260040160405180910390fd5b600081815260496020526040902080546001600160a01b0319166001600160a01b038416908117909155819061340b826133a0565b6001600160a01b03167f8c5be1e5ebec7d5bd14f71427d1e84f3dd0314c0f7b2291e5b200ac8c7c3b92560405160405180910390a45050565b600080613450836133a0565b9050806001600160a01b0316846001600160a01b0316148061348b5750836001600160a01b031661348084613385565b6001600160a01b0316145b80611ce857506001600160a01b038082166000908152604a6020908152604080832093881683529290522054600114949350505050565b826001600160a01b03166134d5826133a0565b6001600160a01b0316146134fc5760405163c19f17a960e01b815260040160405180910390fd5b6001600160a01b0382166135235760405163d92e233d60e01b815260040160405180910390fd5b603d54600160c01b900460ff16801561355557506001600160a01b038216600090815260446020526040902054600114155b1561357357604051630b094f2760e31b815260040160405180910390fd5b61357e6000826133d6565b6001600160a01b038084166000818152604860209081526040808320805460001901905593861680835284832080546001019055858352604790915283822080546001600160a01b03191682179055925184939291600080516020615ed783398151915291a4505050565b600080603e54426135fa91906158d0565b603d549091506001600160401b0316811580613614575080155b1561362357603f549250505090565b60006136306001846158d0565b905060006002841161364357600061364e565b61364e6002856158d0565b90506000676765c793fa10079d601b1b676765c793fa10079d601a1b613674868061586a565b61367e91906159ef565b613688919061589f565b90506000676765c793fa10079d601b1b676765c793fa10079d601a1b6136ae878561586a565b6136b891906159ef565b6136c2919061589f565b905060006002836136d3878a61586a565b6136dd919061586a565b6136e7919061589f565b90506000600683866136f9898c61586a565b613703919061586a565b61370d919061586a565b613717919061589f565b9050676765c793fa10079d601b1b81836137318b8b61586a565b61374690676765c793fa10079d601b1b6159ef565b61375091906159ef565b61375a91906159ef565b603f54613767919061586a565b613771919061589f565b9850505050505050505090565b613786614db6565b6000806000613796888787614615565b925092509250633b9aca0083106137c0576040516315fe9b6160e21b815260040160405180910390fd5b6000633b9aca006137d185826158d0565b6137da8a61469e565b6137e4919061586a565b6137ee919061589f565b603d54909150600160801b90046001600160401b031681101561381e5761381981633b9aca006158d0565b61383f565b603d5461383f90600160801b90046001600160401b0316633b9aca006158d0565b603d54909150600160401b90046001600160401b03166000806138676002633b9aca00615b1f565b603c5461387d91906001600160401b031661586a565b83613888868a61586a565b613892919061586a565b10613a1b57603c546001600160401b03166138b26002633b9aca00615b1f565b6138bc919061586a565b603c5485906138db90600160401b90046001600160401b03168661586a565b6138e5919061586a565b6138ef91906158d0565b603c548590633b9aca009061390d906001600160401b03168961586a565b603c5461392b908b90600160401b90046001600160401b031661586a565b61393591906158d0565b61393f919061586a565b613949919061586a565b613953919061589f565b9150633b9aca0060b454613967919061586a565b613971848461586a565b61397b91906159ef565b613989633b9aca008861586a565b11613a16576139a3676765c793fa10079d601b1b8461586a565b633b9aca008a8e602001516139b8919061586a565b6139c2919061586a565b6139cc919061589f565b6139d79060016159ef565b915060b454861115613a125782633b9aca0060b454886139f791906158d0565b613a01919061586a565b613a0b919061589f565b9050613a7e565b5060015b613a7e565b603854613a2c90633b9aca0061586a565b8c518b90613a3b90879061586a565b613a45919061586a565b613a4f919061589f565b613a5a9060016159ef565b915060b554851115613a7a57633b9aca008460b554876139f791906158d0565b5060015b818852613a8b848b61586a565b603854613a9c633b9aca008561586a565b613aa6919061586a565b613ab0919061589f565b602089015260408801525050606085015250608083015250949350505050565b60808054608154604080517f8b73c3c69bb8fe3d512ecc4cf759cc79239f7b179b0ffacaa9a75d522b39400f602082015290810192909252606082015246918101919091523060a082015260009060c00160405160208183030381529060405280519060200120905090565b6000613b466135e9565b90506000676765c793fa10079d601b1b603f5483613b6491906158d0565b604054613b71919061586a565b613b7b919061589f565b90508060416000828254613b8f91906159ef565b9091555050603f82905542603e8190556040805184815260208101929092527fd1fa8ba00a3bf20274346919dce0de62d2a140af2c71fe7e29fa6472eea3bb9d910160405180910390a15090565b600081613bef57613bec613b3c565b91505b60008481526043602052604081206001015490676765c793fa10079d601b1b613c18858461586a565b613c22919061589f565b9050808510613c3357935080613c56565b83613c49676765c793fa10079d601b1b8761586a565b613c53919061589f565b90505b613c6081836158d0565b91508060406000828254613c7491906158d0565b90915550508115801590613ca95750676765c793fa10079d601b1b60b454613c9c919061586a565b613ca6858461586a565b11155b15613cc75760405163228af07f60e21b815260040160405180910390fd5b60008681526043602052604080822060010184905551600080516020615e9783398151915291613cfa9189918591615a07565b60405180910390a15092949350505050565b8515613d2957603454613d29906001600160a01b031684886145b2565b8415611e3557805115613da85760345460355460405163a5d4096b60e01b81526001600160a01b038086169363a5d4096b93613d759391831692169089908b908d908990600401615dc5565b600060405180830381600087803b158015613d8f57600080fd5b505af1158015613da3573d6000803e3d6000fd5b505050505b603554604051630d43af8160e21b81526001600160a01b039091169063350ebe0490613ddc90889088903390600401615d8d565b600060405180830381600087803b158015613df657600080fd5b505af1158015613e0a573d6000803e3d6000fd5b50505050505050505050565b826001600160a01b0316826001600160a01b03161415613e49576040516320c5195360e21b815260040160405180910390fd5b600081613e57576000613e5a565b60015b6001600160a01b038581166000818152604a602090815260408083209489168084529482529182902060ff959095169485905590518615158152939450919290917f17307eab39ab6107e8899845ad3d59bd9653f200f220920489ca2b5937696c31910160405180910390a350505050565b603d54600090600160c01b900460ff168015613f1b57506001600160a01b0382166000908152604460205260409020546001141580613f1b575033600090815260446020526040902054600114155b15613f3957604051630b094f2760e31b815260040160405180910390fd5b6001600160a01b038216613f605760405163d92e233d60e01b815260040160405180910390fd5b5060458054600101908190556001600160a01b038216600081815260486020908152604080832080546001019055848352604790915280822080546001600160a01b031916841790555183929190600080516020615ed7833981519152908290a4613fdd60008383604051806020016040528060008152506148cd565b611dfb576040516320149b4360e21b815260040160405180910390fd5b6140058484846134c2565b614011848484846148cd565b61402e576040516320149b4360e21b815260040160405180910390fd5b50505050565b600054610100900460ff1661409f5760405162461bcd60e51b815260206004820152602b60248201527f496e697469616c697a61626c653a20636f6e7472616374206973206e6f74206960448201526a6e697469616c697a696e6760a81b606482015260840161159f565b7f3f43a9c6bafb5c7aab4e0cfe239dc5d4c15caf0381c6104188191f78a6640bd860825580516020918201206080556040805180820190915260018152603160f81b9101527fc89efdaa54c0f20c7adf612882df0950f5a951637e0307cdcb4c672f298b8bc6608155565b61411382613368565b6141305760405163062a39dd60e11b815260040160405180910390fd5b6000828152604360205260408120805483929061414e9084906159ef565b9091555050604051600080516020615eb7833981519152906112059084908490600190615a07565b60008033856141858282613444565b6141a25760405163c19f17a960e01b815260040160405180910390fd5b6000878152604360209081526040808320815180830190925280548252600101549181019190915290806141d7838a8a614615565b5091509150633b9aca00821161420057604051631527804d60e31b815260040160405180910390fd5b82602001516040600082825461421691906158d0565b9091555061422590508a6149d0565b603c5460009061424990600160c01b90046001600160401b0316633b9aca006158d0565b614257633b9aca008461586a565b614261919061589f565b905061426d82826158d0565b6041600082825461427e91906159ef565b90915550509251929a92995091975050505050505050565b33846142a28282613444565b6142bf5760405163c19f17a960e01b815260040160405180910390fd5b600086815260436020526040812080548792906142dd9084906158d0565b909155505060008681526043602090815260408083208151808301909252805482526001015491810191909152614315908686614615565b50509050633b9aca00811161433d57604051631527804d60e31b815260040160405180910390fd5b600080516020615eb78339815191528787600060405161435f93929190615a07565b60405180910390a150505050505050565b6000338561437e8282613444565b61439b5760405163c19f17a960e01b815260040160405180910390fd5b6143a787878787614a4f565b603c54909650600090633b9aca00906143d1908990600160801b90046001600160401b031661586a565b6143db919061589f565b905080604160008282546143ef91906159ef565b909155506143ff905081886158d0565b98975050505050505050565b33866144178282613444565b6144345760405163c19f17a960e01b815260040160405180910390fd5b60408051898152602081018890526001600160a01b038916818301526060810187905290517fddd3b70af631334f7552aadb582ed091018e62e103fa8b150ca66cc700d4dac69181900360800190a161448f88868686614a4f565b94506001600160a01b0387163014156144b3576144ad868685613bdd565b50611ca4565b603c546040516320d661ad60e21b815260048101889052602481018790526001600160401b03600160801b830481166044830152600160c01b90920490911660648201526001600160a01b0388169063835986b490608401600060405180830381600087803b15801561452557600080fd5b505af1158015614539573d6000803e3d6000fd5b505050505050505050505050565b6040516001600160a01b038085166024830152831660448201526064810182905261402e9085906323b872dd60e01b906084015b60408051601f198184030181529190526020810180516001600160e01b03166001600160e01b031990931692909217909152614be2565b610a058363a9059cbb60e01b848460405160240161457b929190615dac565b6001600160a01b0381166000908152607f60205260409020546145f58160016159ef565b6001600160a01b039092166000908152607f602052604090209190915590565b6000806000676765c793fa10079d601b1b848760200151614636919061586a565b614640919061589f565b9150603854858760000151614655919061586a565b61465f919061589f565b905081614670576000199250614695565b603c548290614688906001600160401b03168361586a565b614692919061589f565b92505b93509350939050565b6037546000906001600160a01b03166146d757603b6000815481106146c5576146c561592f565b90600052602060002001549050919050565b603754604051635dfba04560e11b81526000916001600160a01b03169063bbf7408a90614708908690600401614ee0565b602060405180830381865afa158015614725573d6000803e3d6000fd5b505050506040513d601f19601f82011682018060405250810190614749919061583b565b9050603a60018154811061475f5761475f61592f565b9060005260206000200154811061479757603b6001815481106147845761478461592f565b9060005260206000200154915050919050565b603a6000815481106147ab576147ab61592f565b906000526020600020015481116147d057603b6000815481106147845761478461592f565b603a6000815481106147e4576147e461592f565b9060005260206000200154603a6001815481106148035761480361592f565b906000526020600020015461481891906158d0565b603a60008154811061482c5761482c61592f565b90600052602060002001548261484291906158d0565b603b6000815481106148565761485661592f565b9060005260206000200154603b6001815481106148755761487561592f565b906000526020600020015461488a91906158d0565b614894919061586a565b61489e919061589f565b603b6000815481106148b2576148b261592f565b9060005260206000200154610af091906159ef565b50919050565b60006148e1846001600160a01b0316613359565b156149c857604051630a85bd0160e11b81526001600160a01b0385169063150b7a0290614918903390899088908890600401615e3d565b6020604051808303816000875af1925050508015614953575060408051601f3d908101601f1916820190925261495091810190615e20565b60015b6149ae573d808015614981576040519150601f19603f3d011682016040523d82523d6000602084013e614986565b606091505b5080516149a6576040516320149b4360e21b815260040160405180910390fd5b805181602001fd5b6001600160e01b031916630a85bd0160e11b149050611ce8565b506001611ce8565b60006149db826133a0565b90506149e86000836133d6565b6001600160a01b038116600081815260486020908152604080832080546000190190558583526047825280832080546001600160a01b0319169055604390915280822082815560010182905551849290600080516020615ed7833981519152908390a45050565b60008082614a68676765c793fa10079d601b1b8761586a565b614a72919061589f565b600087815260436020526040902060010154909150614aad5760b4548511614aad5760405163228af07f60e21b815260040160405180910390fd5b60008681526043602052604081206001018054839290614ace9084906159ef565b925050819055508060406000828254614ae791906159ef565b9091555050603954614b0590676765c793fa10079d601b1b9061586a565b83604054614b13919061586a565b1115614b32576040516371239a6160e11b815260040160405180910390fd5b60008681526043602090815260408083208151808301909252805482526001015491810191909152614b65908686614615565b50509050633b9aca008111614b8d57604051631527804d60e31b815260040160405180910390fd5b600080516020615e9783398151915287836001604051614baf93929190615a07565b60405180910390a1676765c793fa10079d601b1b614bcd858461586a565b614bd7919061589f565b979650505050505050565b6000614c37826040518060400160405280602081526020017f5361666545524332303a206c6f772d6c6576656c2063616c6c206661696c6564815250856001600160a01b0316614cb49092919063ffffffff16565b805190915015610a055780806020019051810190614c5591906158b3565b610a055760405162461bcd60e51b815260206004820152602a60248201527f5361666545524332303a204552433230206f7065726174696f6e20646964206e6044820152691bdd081cdd58d8d9595960b21b606482015260840161159f565b6060611ce8848460008585614cc885613359565b614d145760405162461bcd60e51b815260206004820152601d60248201527f416464726573733a2063616c6c20746f206e6f6e2d636f6e7472616374000000604482015260640161159f565b600080866001600160a01b03168587604051614d309190615e7a565b60006040518083038185875af1925050503d8060008114614d6d576040519150601f19603f3d011682016040523d82523d6000602084013e614d72565b606091505b5091509150614bd782828660608315614d8c575081610af0565b825115614d9c5782518084602001fd5b8160405162461bcd60e51b815260040161159f9190614f7f565b6040518060a0016040528060008152602001600081526020016000815260200160008152602001600081525090565b828054614df190615806565b90600052602060002090601f016020900481019282614e135760008555614e59565b82601f10614e2c57805160ff1916838001178555614e59565b82800160010185558215614e59579182015b82811115614e59578251825591602001919060010190614e3e565b50614e65929150614ecb565b5090565b828054828255906000526020600020908101928215614e595791602002820182811115614e59578251825591602001919060010190614e3e565b6040518060800160405280600081526020016000815260200160008152602001600081525090565b5b80821115614e655760008155600101614ecc565b6001600160a01b0391909116815260200190565b6001600160e01b031981168114610c6c57600080fd5b600060208284031215614f1c57600080fd5b8135610af081614ef4565b60005b83811015614f42578181015183820152602001614f2a565b8381111561402e5750506000910152565b60008151808452614f6b816020860160208601614f27565b601f01601f19169290920160200192915050565b602081526000610af06020830184614f53565b600060208284031215614fa457600080fd5b5035919050565b6001600160a01b0381168114610c6c57600080fd5b60008060408385031215614fd357600080fd5b8235614fde81614fab565b946020939093013593505050565b60008060006060848603121561500157600080fd5b833561500c81614fab565b9250602084013561501c81614fab565b929592945050506040919091013590565b6000806040838503121561504057600080fd5b82359150602083013561505281614fab565b809150509250929050565b60a081016108b8828480518252602081015160208301526040810151604083015260608101516060830152608081015160808301525050565b6000602082840312156150a857600080fd5b8135610af081614fab565b634e487b7160e01b600052604160045260246000fd5b604051601f8201601f191681016001600160401b03811182821017156150f1576150f16150b3565b604052919050565b600082601f83011261510a57600080fd5b81356001600160401b03811115615123576151236150b3565b615136601f8201601f19166020016150c9565b81815284602083860101111561514b57600080fd5b816020850160208301376000918101602001919091529392505050565b60006020828403121561517a57600080fd5b81356001600160401b0381111561519057600080fd5b611ce8848285016150f9565b600080604083850312156151af57600080fd5b50508035926020909101359150565b80356001600160401b0381168114611dfb57600080fd5b600080604083850312156151e857600080fd5b614fde836151be565b60006001600160401b0382111561520a5761520a6150b3565b5060051b60200190565b600082601f83011261522557600080fd5b8135602061523a615235836151f1565b6150c9565b82815260059290921b8401810191818101908684111561525957600080fd5b8286015b84811015615274578035835291830191830161525d565b509695505050505050565b60008060006060848603121561529457600080fd5b833561529f81614fab565b925060208401356001600160401b03808211156152bb57600080fd5b6152c787838801615214565b935060408601359150808211156152dd57600080fd5b506152ea86828701615214565b9150509250925092565b60008060008060008060c0878903121561530d57600080fd5b86356001600160401b038082111561532457600080fd5b6153308a838b01615214565b9750602089013591508082111561534657600080fd5b6153528a838b01615214565b96506040890135915061536482614fab565b90945060608801359061537682614fab565b90935060808801359061538882614fab565b90925060a0880135908082111561539e57600080fd5b506153ab89828a016150f9565b9150509295509295509295565b600080600080608085870312156153ce57600080fd5b5050823594602084013594506040840135936060013592509050565b600082601f8301126153fb57600080fd5b8135602061540b615235836151f1565b82815260059290921b8401810191818101908684111561542a57600080fd5b8286015b84811015615274578035600881106154465760008081fd5b835291830191830161542e565b600082601f83011261546457600080fd5b81356020615474615235836151f1565b82815260059290921b8401810191818101908684111561549357600080fd5b8286015b848110156152745780356001600160401b038111156154b65760008081fd5b6154c48986838b01016150f9565b845250918301918301615497565b600080600080608085870312156154e857600080fd5b84356001600160401b03808211156154ff57600080fd5b61550b888389016153ea565b9550602087013591508082111561552157600080fd5b5061552e87828801615453565b935050604085013561553f81614fab565b9150606085013561554f81614fab565b939692955090935050565b8015158114610c6c57600080fd5b6000806040838503121561557b57600080fd5b823561558681614fab565b915060208301356150528161555a565b600080600080608085870312156155ac57600080fd5b84356155b781614fab565b935060208501356155c781614fab565b92506040850135915060608501356001600160401b038111156155e957600080fd5b6155f5878288016150f9565b91505092959194509250565b600080600080600085870361018081121561561b57600080fd5b863561562681614fab565b9550602087013561563681614fab565b9450604087013561564681614fab565b9350610100605f198201121561565b57600080fd5b506060860191506101608601356001600160401b0381111561567c57600080fd5b615688888289016150f9565b9150509295509295909350565b60008060008060008060c087890312156156ae57600080fd5b86356001600160401b03808211156156c557600080fd5b6156d18a838b016153ea565b975060208901359150808211156156e757600080fd5b6153528a838b01615453565b6000806040838503121561570657600080fd5b823561571181614fab565b9150602083013561505281614fab565b60ff81168114610c6c57600080fd5b600080600080600080600060e0888a03121561574b57600080fd5b873561575681614fab565b9650602088013561576681614fab565b955060408801356157768161555a565b945060608801359350608088013561578d81615721565b9699959850939692959460a0840135945060c09093013592915050565b600080600080608085870312156157c057600080fd5b84356001600160401b03808211156157d757600080fd5b6157e388838901615214565b955060208701359150808211156157f957600080fd5b5061552e87828801615214565b600181811c9082168061581a57607f821691505b602082108114156148c757634e487b7160e01b600052602260045260246000fd5b60006020828403121561584d57600080fd5b5051919050565b634e487b7160e01b600052601160045260246000fd5b600081600019048311821515161561588457615884615854565b500290565b634e487b7160e01b600052601260045260246000fd5b6000826158ae576158ae615889565b500490565b6000602082840312156158c557600080fd5b8151610af08161555a565b6000828210156158e2576158e2615854565b500390565b60006001600160401b0382811684821680830382111561590957615909615854565b01949350505050565b60006020828403121561592457600080fd5b8151610af081614fab565b634e487b7160e01b600052603260045260246000fd5b600081518084526020808501945080840160005b8381101561597557815187529582019590820190600101615959565b509495945050505050565b6040815260006159936040830185615945565b82810360208401526120388185615945565b6020808252601f908201527f5265656e7472616e637947756172643a207265656e7472616e742063616c6c00604082015260600190565b602081526000610af06020830184615945565b60008219821115615a0257615a02615854565b500190565b928352602083019190915260ff16604082015260600190565b6000600019821415615a3457615a34615854565b5060010190565b600181815b80851115615a76578160001904821115615a5c57615a5c615854565b80851615615a6957918102915b93841c9390800290615a40565b509250929050565b600082615a8d575060016108b8565b81615a9a575060006108b8565b8160018114615ab05760028114615aba57615ad6565b60019150506108b8565b60ff841115615acb57615acb615854565b50506001821b6108b8565b5060208310610133831016604e8410600b8410161715615af9575081810a6108b8565b615b038383615a3b565b8060001904821115615b1757615b17615854565b029392505050565b6000610af060ff841683615a7e565b600082615b3d57615b3d615889565b500690565b60008151615b54818560208601614f27565b9290920192915050565b600080845481600182811c915080831680615b7a57607f831692505b6020808410821415615b9a57634e487b7160e01b86526022600452602486fd5b818015615bae5760018114615bbf57615bec565b60ff19861689528489019650615bec565b60008b81526020902060005b86811015615be45781548b820152908501908301615bcb565b505084890196505b5050505050506120388185615b42565b600060208284031215615c0e57600080fd5b8151610af081615721565b6e020b733b63290283937ba37b1b7b61608d1b815260008251615c4381600f850160208701614f27565b650815985d5b1d60d21b600f939091019283015250601501919050565b60008251615c72818460208701614f27565b650b5d985d5b1d60d21b920191825250600601919050565b600060208284031215615c9c57600080fd5b610af0826151be565b600060208284031215615cb757600080fd5b8135610af08161555a565b634e487b7160e01b600052602160045260246000fd5b60008060408385031215615ceb57600080fd5b505080516020909101519092909150565b60008060008060008060c08789031215615d1557600080fd5b8651615d2081614fab565b6020880151604089015160608a015160808b015160a0909b0151939c929b509099909850965090945092505050565b60008060008060808587031215615d6557600080fd5b845193506020850151615d7781614fab565b6040860151606090960151949790965092505050565b9283526001600160a01b03918216602084015216604082015260600190565b6001600160a01b03929092168252602082015260400190565b6001600160a01b038781168252868116602083015285166040820152606081018490526080810183905260c060a082018190526000906143ff90830184614f53565b828152604060208201526000611ce86040830184614f53565b600060208284031215615e3257600080fd5b8151610af081614ef4565b6001600160a01b0385811682528416602082015260408101839052608060608201819052600090615e7090830184614f53565b9695505050505050565b60008251615e8c818460208701614f27565b919091019291505056fe70cf49afe7355562d5b022e594790f22b71ad8cc7eec902fa5feac7c67f71091722cb71fa87c947148cefc06dd890af5802a6a00207c5ddecf1191bf71ce3cd4ddf252ad1be2c89b69c2b068fc378daa952ba7f163c4a11628f55a4df523b3efa2646970667358221220505bf0ddf1ceb5c9876a214857d56b6c44c96e0b48234e13e90a8121715df51264736f6c634300080c0033"
}