{
  "address": "0xc42b7A34Cb37eE450cc8059B10D839e4753229d5",
  "abi": [
    {
      "inputs": [],
      "name": "AssetStillControlledInReserves",
      "type": "error"
    },
    {
      "inputs": [],
      "name": "BurnAmountExceedsAllowance",
      "type": "error"
    },
    {
      "inputs": [],
      "name": "HourlyLimitExceeded",
      "type": "error"
    },
    {
      "inputs": [],
      "name": "InvalidSender",
      "type": "error"
    },
    {
      "inputs": [],
      "name": "InvalidToken",
      "type": "error"
    },
    {
      "inputs": [],
      "name": "InvalidTreasury",
      "type": "error"
    },
    {
      "inputs": [],
      "name": "NotGovernor",
      "type": "error"
    },
    {
      "inputs": [],
      "name": "NotGovernorOrGuardian",
      "type": "error"
    },
    {
      "inputs": [],
      "name": "NotMinter",
      "type": "error"
    },
    {
      "inputs": [],
      "name": "NotTreasury",
      "type": "error"
    },
    {
      "inputs": [],
      "name": "TooBigAmount",
      "type": "error"
    },
    {
      "inputs": [],
      "name": "TooHighParameterValue",
      "type": "error"
    },
    {
      "inputs": [],
      "name": "ZeroAddress",
      "type": "error"
    },
    {
      "anonymous": false,
      "inputs": [
        {
          "indexed": true,
          "internalType": "address",
          "name": "owner",
          "type": "address"
        },
        {
          "indexed": true,
          "internalType": "address",
          "name": "spender",
          "type": "address"
        },
        {
          "indexed": false,
          "internalType": "uint256",
          "name": "value",
          "type": "uint256"
        }
      ],
      "name": "Approval",
      "type": "event"
    },
    {
      "anonymous": false,
      "inputs": [
        {
          "indexed": true,
          "internalType": "address",
          "name": "bridgeToken",
          "type": "address"
        },
        {
          "indexed": false,
          "internalType": "uint256",
          "name": "limit",
          "type": "uint256"
        },
        {
          "indexed": false,
          "internalType": "uint256",
          "name": "hourlyLimit",
          "type": "uint256"
        },
        {
          "indexed": false,
          "internalType": "uint64",
          "name": "fee",
          "type": "uint64"
        },
        {
          "indexed": false,
          "internalType": "bool",
          "name": "paused",
          "type": "bool"
        }
      ],
      "name": "BridgeTokenAdded",
      "type": "event"
    },
    {
      "anonymous": false,
      "inputs": [
        {
          "indexed": true,
          "internalType": "address",
          "name": "bridgeToken",
          "type": "address"
        },
        {
          "indexed": false,
          "internalType": "uint64",
          "name": "fee",
          "type": "uint64"
        }
      ],
      "name": "BridgeTokenFeeUpdated",
      "type": "event"
    },
    {
      "anonymous": false,
      "inputs": [
        {
          "indexed": true,
          "internalType": "address",
          "name": "bridgeToken",
          "type": "address"
        },
        {
          "indexed": false,
          "internalType": "uint256",
          "name": "hourlyLimit",
          "type": "uint256"
        }
      ],
      "name": "BridgeTokenHourlyLimitUpdated",
      "type": "event"
    },
    {
      "anonymous": false,
      "inputs": [
        {
          "indexed": true,
          "internalType": "address",
          "name": "bridgeToken",
          "type": "address"
        },
        {
          "indexed": false,
          "internalType": "uint256",
          "name": "limit",
          "type": "uint256"
        }
      ],
      "name": "BridgeTokenLimitUpdated",
      "type": "event"
    },
    {
      "anonymous": false,
      "inputs": [
        {
          "indexed": true,
          "internalType": "address",
          "name": "bridgeToken",
          "type": "address"
        }
      ],
      "name": "BridgeTokenRemoved",
      "type": "event"
    },
    {
      "anonymous": false,
      "inputs": [
        {
          "indexed": true,
          "internalType": "address",
          "name": "bridgeToken",
          "type": "address"
        },
        {
          "indexed": false,
          "internalType": "bool",
          "name": "toggleStatus",
          "type": "bool"
        }
      ],
      "name": "BridgeTokenToggled",
      "type": "event"
    },
    {
      "anonymous": false,
      "inputs": [
        {
          "indexed": true,
          "internalType": "address",
          "name": "theAddress",
          "type": "address"
        },
        {
          "indexed": false,
          "internalType": "uint256",
          "name": "toggleStatus",
          "type": "uint256"
        }
      ],
      "name": "FeeToggled",
      "type": "event"
    },
    {
      "anonymous": false,
      "inputs": [
        {
          "indexed": false,
          "internalType": "uint256",
          "name": "hourlyLimit",
          "type": "uint256"
        }
      ],
      "name": "HourlyLimitUpdated",
      "type": "event"
    },
    {
      "anonymous": false,
      "inputs": [
        {
          "indexed": false,
          "internalType": "uint8",
          "name": "version",
          "type": "uint8"
        }
      ],
      "name": "Initialized",
      "type": "event"
    },
    {
      "anonymous": false,
      "inputs": [
        {
          "indexed": true,
          "internalType": "address",
          "name": "minter",
          "type": "address"
        }
      ],
      "name": "MinterToggled",
      "type": "event"
    },
    {
      "anonymous": false,
      "inputs": [
        {
          "indexed": true,
          "internalType": "address",
          "name": "token",
          "type": "address"
        },
        {
          "indexed": true,
          "internalType": "address",
          "name": "to",
          "type": "address"
        },
        {
          "indexed": false,
          "internalType": "uint256",
          "name": "amount",
          "type": "uint256"
        }
      ],
      "name": "Recovered",
      "type": "event"
    },
    {
      "anonymous": false,
      "inputs": [
        {
          "indexed": true,
          "internalType": "address",
          "name": "from",
          "type": "address"
        },
        {
          "indexed": true,
          "internalType": "address",
          "name": "to",
          "type": "address"
        },
        {
          "indexed": false,
          "internalType": "uint256",
          "name": "value",
          "type": "uint256"
        }
      ],
      "name": "Transfer",
      "type": "event"
    },
    {
      "anonymous": false,
      "inputs": [
        {
          "indexed": true,
          "internalType": "address",
          "name": "_treasury",
          "type": "address"
        }
      ],
      "name": "TreasuryUpdated",
      "type": "event"
    },
    {
      "inputs": [],
      "name": "BASE_PARAMS",
      "outputs": [
        {
          "internalType": "uint256",
          "name": "",
          "type": "uint256"
        }
      ],
      "stateMutability": "view",
      "type": "function"
    },
    {
      "inputs": [],
      "name": "DOMAIN_SEPARATOR",
      "outputs": [
        {
          "internalType": "bytes32",
          "name": "",
          "type": "bytes32"
        }
      ],
      "stateMutability": "view",
      "type": "function"
    },
    {
      "inputs": [
        {
          "internalType": "address",
          "name": "bridgeToken",
          "type": "address"
        },
        {
          "internalType": "uint256",
          "name": "limit",
          "type": "uint256"
        },
        {
          "internalType": "uint256",
          "name": "hourlyLimit",
          "type": "uint256"
        },
        {
          "internalType": "uint64",
          "name": "fee",
          "type": "uint64"
        },
        {
          "internalType": "bool",
          "name": "paused",
          "type": "bool"
        }
      ],
      "name": "addBridgeToken",
      "outputs": [],
      "stateMutability": "nonpayable",
      "type": "function"
    },
    {
      "inputs": [
        {
          "internalType": "address",
          "name": "minter",
          "type": "address"
        }
      ],
      "name": "addMinter",
      "outputs": [],
      "stateMutability": "nonpayable",
      "type": "function"
    },
    {
      "inputs": [],
      "name": "allBridgeTokens",
      "outputs": [
        {
          "internalType": "address[]",
          "name": "",
          "type": "address[]"
        }
      ],
      "stateMutability": "view",
      "type": "function"
    },
    {
      "inputs": [
        {
          "internalType": "address",
          "name": "owner",
          "type": "address"
        },
        {
          "internalType": "address",
          "name": "spender",
          "type": "address"
        }
      ],
      "name": "allowance",
      "outputs": [
        {
          "internalType": "uint256",
          "name": "",
          "type": "uint256"
        }
      ],
      "stateMutability": "view",
      "type": "function"
    },
    {
      "inputs": [
        {
          "internalType": "address",
          "name": "spender",
          "type": "address"
        },
        {
          "internalType": "uint256",
          "name": "amount",
          "type": "uint256"
        }
      ],
      "name": "approve",
      "outputs": [
        {
          "internalType": "bool",
          "name": "",
          "type": "bool"
        }
      ],
      "stateMutability": "nonpayable",
      "type": "function"
    },
    {
      "inputs": [
        {
          "internalType": "address",
          "name": "account",
          "type": "address"
        }
      ],
      "name": "balanceOf",
      "outputs": [
        {
          "internalType": "uint256",
          "name": "",
          "type": "uint256"
        }
      ],
      "stateMutability": "view",
      "type": "function"
    },
    {
      "inputs": [
        {
          "internalType": "uint256",
          "name": "",
          "type": "uint256"
        }
      ],
      "name": "bridgeTokensList",
      "outputs": [
        {
          "internalType": "address",
          "name": "",
          "type": "address"
        }
      ],
      "stateMutability": "view",
      "type": "function"
    },
    {
      "inputs": [
        {
          "internalType": "address",
          "name": "",
          "type": "address"
        }
      ],
      "name": "bridges",
      "outputs": [
        {
          "internalType": "uint256",
          "name": "limit",
          "type": "uint256"
        },
        {
          "internalType": "uint256",
          "name": "hourlyLimit",
          "type": "uint256"
        },
        {
          "internalType": "uint64",
          "name": "fee",
          "type": "uint64"
        },
        {
          "internalType": "bool",
          "name": "allowed",
          "type": "bool"
        },
        {
          "internalType": "bool",
          "name": "paused",
          "type": "bool"
        }
      ],
      "stateMutability": "view",
      "type": "function"
    },
    {
      "inputs": [
        {
          "internalType": "uint256",
          "name": "amount",
          "type": "uint256"
        },
        {
          "internalType": "address",
          "name": "burner",
          "type": "address"
        },
        {
          "internalType": "address",
          "name": "sender",
          "type": "address"
        }
      ],
      "name": "burnFrom",
      "outputs": [],
      "stateMutability": "nonpayable",
      "type": "function"
    },
    {
      "inputs": [
        {
          "internalType": "uint256",
          "name": "amount",
          "type": "uint256"
        },
        {
          "internalType": "address",
          "name": "burner",
          "type": "address"
        }
      ],
      "name": "burnSelf",
      "outputs": [],
      "stateMutability": "nonpayable",
      "type": "function"
    },
    {
      "inputs": [
        {
          "internalType": "uint256",
          "name": "amount",
          "type": "uint256"
        }
      ],
      "name": "burnStablecoin",
      "outputs": [],
      "stateMutability": "nonpayable",
      "type": "function"
    },
    {
      "inputs": [],
      "name": "chainTotalHourlyLimit",
      "outputs": [
        {
          "internalType": "uint256",
          "name": "",
          "type": "uint256"
        }
      ],
      "stateMutability": "view",
      "type": "function"
    },
    {
      "inputs": [
        {
          "internalType": "uint256",
          "name": "",
          "type": "uint256"
        }
      ],
      "name": "chainTotalUsage",
      "outputs": [
        {
          "internalType": "uint256",
          "name": "",
          "type": "uint256"
        }
      ],
      "stateMutability": "view",
      "type": "function"
    },
    {
      "inputs": [],
      "name": "currentTotalUsage",
      "outputs": [
        {
          "internalType": "uint256",
          "name": "",
          "type": "uint256"
        }
      ],
      "stateMutability": "view",
      "type": "function"
    },
    {
      "inputs": [
        {
          "internalType": "address",
          "name": "bridgeToken",
          "type": "address"
        }
      ],
      "name": "currentUsage",
      "outputs": [
        {
          "internalType": "uint256",
          "name": "",
          "type": "uint256"
        }
      ],
      "stateMutability": "view",
      "type": "function"
    },
    {
      "inputs": [],
      "name": "decimals",
      "outputs": [
        {
          "internalType": "uint8",
          "name": "",
          "type": "uint8"
        }
      ],
      "stateMutability": "view",
      "type": "function"
    },
    {
      "inputs": [
        {
          "internalType": "address",
          "name": "spender",
          "type": "address"
        },
        {
          "internalType": "uint256",
          "name": "subtractedValue",
          "type": "uint256"
        }
      ],
      "name": "decreaseAllowance",
      "outputs": [
        {
          "internalType": "bool",
          "name": "",
          "type": "bool"
        }
      ],
      "stateMutability": "nonpayable",
      "type": "function"
    },
    {
      "inputs": [
        {
          "internalType": "address",
          "name": "spender",
          "type": "address"
        },
        {
          "internalType": "uint256",
          "name": "addedValue",
          "type": "uint256"
        }
      ],
      "name": "increaseAllowance",
      "outputs": [
        {
          "internalType": "bool",
          "name": "",
          "type": "bool"
        }
      ],
      "stateMutability": "nonpayable",
      "type": "function"
    },
    {
      "inputs": [
        {
          "internalType": "string",
          "name": "name_",
          "type": "string"
        },
        {
          "internalType": "string",
          "name": "symbol_",
          "type": "string"
        },
        {
          "internalType": "address",
          "name": "_treasury",
          "type": "address"
        }
      ],
      "name": "initialize",
      "outputs": [],
      "stateMutability": "nonpayable",
      "type": "function"
    },
    {
      "inputs": [
        {
          "internalType": "address",
          "name": "",
          "type": "address"
        }
      ],
      "name": "isFeeExempt",
      "outputs": [
        {
          "internalType": "uint256",
          "name": "",
          "type": "uint256"
        }
      ],
      "stateMutability": "view",
      "type": "function"
    },
    {
      "inputs": [
        {
          "internalType": "address",
          "name": "",
          "type": "address"
        }
      ],
      "name": "isMinter",
      "outputs": [
        {
          "internalType": "bool",
          "name": "",
          "type": "bool"
        }
      ],
      "stateMutability": "view",
      "type": "function"
    },
    {
      "inputs": [
        {
          "internalType": "address",
          "name": "account",
          "type": "address"
        },
        {
          "internalType": "uint256",
          "name": "amount",
          "type": "uint256"
        }
      ],
      "name": "mint",
      "outputs": [],
      "stateMutability": "nonpayable",
      "type": "function"
    },
    {
      "inputs": [],
      "name": "name",
      "outputs": [
        {
          "internalType": "string",
          "name": "",
          "type": "string"
        }
      ],
      "stateMutability": "view",
      "type": "function"
    },
    {
      "inputs": [
        {
          "internalType": "address",
          "name": "owner",
          "type": "address"
        }
      ],
      "name": "nonces",
      "outputs": [
        {
          "internalType": "uint256",
          "name": "",
          "type": "uint256"
        }
      ],
      "stateMutability": "view",
      "type": "function"
    },
    {
      "inputs": [
        {
          "internalType": "address",
          "name": "owner",
          "type": "address"
        },
        {
          "internalType": "address",
          "name": "spender",
          "type": "address"
        },
        {
          "internalType": "uint256",
          "name": "value",
          "type": "uint256"
        },
        {
          "internalType": "uint256",
          "name": "deadline",
          "type": "uint256"
        },
        {
          "internalType": "uint8",
          "name": "v",
          "type": "uint8"
        },
        {
          "internalType": "bytes32",
          "name": "r",
          "type": "bytes32"
        },
        {
          "internalType": "bytes32",
          "name": "s",
          "type": "bytes32"
        }
      ],
      "name": "permit",
      "outputs": [],
      "stateMutability": "nonpayable",
      "type": "function"
    },
    {
      "inputs": [
        {
          "internalType": "address",
          "name": "tokenAddress",
          "type": "address"
        },
        {
          "internalType": "address",
          "name": "to",
          "type": "address"
        },
        {
          "internalType": "uint256",
          "name": "amountToRecover",
          "type": "uint256"
        }
      ],
      "name": "recoverERC20",
      "outputs": [],
      "stateMutability": "nonpayable",
      "type": "function"
    },
    {
      "inputs": [
        {
          "internalType": "address",
          "name": "bridgeToken",
          "type": "address"
        }
      ],
      "name": "removeBridgeToken",
      "outputs": [],
      "stateMutability": "nonpayable",
      "type": "function"
    },
    {
      "inputs": [
        {
          "internalType": "address",
          "name": "minter",
          "type": "address"
        }
      ],
      "name": "removeMinter",
      "outputs": [],
      "stateMutability": "nonpayable",
      "type": "function"
    },
    {
      "inputs": [
        {
          "internalType": "uint256",
          "name": "hourlyLimit",
          "type": "uint256"
        }
      ],
      "name": "setChainTotalHourlyLimit",
      "outputs": [],
      "stateMutability": "nonpayable",
      "type": "function"
    },
    {
      "inputs": [
        {
          "internalType": "address",
          "name": "bridgeToken",
          "type": "address"
        },
        {
          "internalType": "uint256",
          "name": "hourlyLimit",
          "type": "uint256"
        }
      ],
      "name": "setHourlyLimit",
      "outputs": [],
      "stateMutability": "nonpayable",
      "type": "function"
    },
    {
      "inputs": [
        {
          "internalType": "address",
          "name": "bridgeToken",
          "type": "address"
        },
        {
          "internalType": "uint256",
          "name": "limit",
          "type": "uint256"
        }
      ],
      "name": "setLimit",
      "outputs": [],
      "stateMutability": "nonpayable",
      "type": "function"
    },
    {
      "inputs": [
        {
          "internalType": "string",
          "name": "newName",
          "type": "string"
        },
        {
          "internalType": "string",
          "name": "newSymbol",
          "type": "string"
        }
      ],
      "name": "setNameAndSymbol",
      "outputs": [],
      "stateMutability": "nonpayable",
      "type": "function"
    },
    {
      "inputs": [
        {
          "internalType": "address",
          "name": "bridgeToken",
          "type": "address"
        },
        {
          "internalType": "uint64",
          "name": "fee",
          "type": "uint64"
        }
      ],
      "name": "setSwapFee",
      "outputs": [],
      "stateMutability": "nonpayable",
      "type": "function"
    },
    {
      "inputs": [
        {
          "internalType": "address",
          "name": "_treasury",
          "type": "address"
        }
      ],
      "name": "setTreasury",
      "outputs": [],
      "stateMutability": "nonpayable",
      "type": "function"
    },
    {
      "inputs": [
        {
          "internalType": "address",
          "name": "bridgeToken",
          "type": "address"
        },
        {
          "internalType": "uint256",
          "name": "amount",
          "type": "uint256"
        },
        {
          "internalType": "address",
          "name": "to",
          "type": "address"
        }
      ],
      "name": "swapIn",
      "outputs": [
        {
          "internalType": "uint256",
          "name": "",
          "type": "uint256"
        }
      ],
      "stateMutability": "nonpayable",
      "type": "function"
    },
    {
      "inputs": [
        {
          "internalType": "address",
          "name": "bridgeToken",
          "type": "address"
        },
        {
          "internalType": "uint256",
          "name": "amount",
          "type": "uint256"
        },
        {
          "internalType": "address",
          "name": "to",
          "type": "address"
        }
      ],
      "name": "swapOut",
      "outputs": [
        {
          "internalType": "uint256",
          "name": "",
          "type": "uint256"
        }
      ],
      "stateMutability": "nonpayable",
      "type": "function"
    },
    {
      "inputs": [],
      "name": "symbol",
      "outputs": [
        {
          "internalType": "string",
          "name": "",
          "type": "string"
        }
      ],
      "stateMutability": "view",
      "type": "function"
    },
    {
      "inputs": [
        {
          "internalType": "address",
          "name": "bridgeToken",
          "type": "address"
        }
      ],
      "name": "toggleBridge",
      "outputs": [],
      "stateMutability": "nonpayable",
      "type": "function"
    },
    {
      "inputs": [
        {
          "internalType": "address",
          "name": "theAddress",
          "type": "address"
        }
      ],
      "name": "toggleFeesForAddress",
      "outputs": [],
      "stateMutability": "nonpayable",
      "type": "function"
    },
    {
      "inputs": [],
      "name": "totalSupply",
      "outputs": [
        {
          "internalType": "uint256",
          "name": "",
          "type": "uint256"
        }
      ],
      "stateMutability": "view",
      "type": "function"
    },
    {
      "inputs": [
        {
          "internalType": "address",
          "name": "to",
          "type": "address"
        },
        {
          "internalType": "uint256",
          "name": "amount",
          "type": "uint256"
        }
      ],
      "name": "transfer",
      "outputs": [
        {
          "internalType": "bool",
          "name": "",
          "type": "bool"
        }
      ],
      "stateMutability": "nonpayable",
      "type": "function"
    },
    {
      "inputs": [
        {
          "internalType": "address",
          "name": "from",
          "type": "address"
        },
        {
          "internalType": "address",
          "name": "to",
          "type": "address"
        },
        {
          "internalType": "uint256",
          "name": "amount",
          "type": "uint256"
        }
      ],
      "name": "transferFrom",
      "outputs": [
        {
          "internalType": "bool",
          "name": "",
          "type": "bool"
        }
      ],
      "stateMutability": "nonpayable",
      "type": "function"
    },
    {
      "inputs": [],
      "name": "treasury",
      "outputs": [
        {
          "internalType": "address",
          "name": "",
          "type": "address"
        }
      ],
      "stateMutability": "view",
      "type": "function"
    },
    {
      "inputs": [
        {
          "internalType": "address",
          "name": "",
          "type": "address"
        },
        {
          "internalType": "uint256",
          "name": "",
          "type": "uint256"
        }
      ],
      "name": "usage",
      "outputs": [
        {
          "internalType": "uint256",
          "name": "",
          "type": "uint256"
        }
      ],
      "stateMutability": "view",
      "type": "function"
    }
  ],
  "transactionHash": "0x9a5a7a0c8192ed1eeb906a2dea3d5fbf49e7adbe87d7f062d33b1ba881099dfc",
  "args": [],
  "numDeployments": 1,
  "solcInputHash": "e71bf606f9ed7ef74d163868fe658038",
  "bytecode": "0x60806040523480156200001157600080fd5b50600054610100900460ff1615808015620000335750600054600160ff909116105b8062000063575062000050306200013d60201b6200283d1760201c565b15801562000063575060005460ff166001145b620000cb5760405162461bcd60e51b815260206004820152602e60248201527f496e697469616c697a61626c653a20636f6e747261637420697320616c72656160448201526d191e481a5b9a5d1a585b1a5e995960921b606482015260840160405180910390fd5b6000805460ff191660011790558015620000ef576000805461ff0019166101001790555b801562000136576000805461ff0019169055604051600181527f7f26b83ff96e1f2b6a682f133852f6798a09c465da95921460cefb38474024989060200160405180910390a15b506200014c565b6001600160a01b03163b151590565b614837806200015c6000396000f3fe608060405234801561001057600080fd5b506004361061030a5760003560e01c806361d027b31161019c5780639f48118f116100ee578063ced67f0c11610097578063dd62ed3e11610071578063dd62ed3e14610742578063e3e2865514610788578063f0f442601461079b57600080fd5b8063ced67f0c14610689578063d44ad63f1461071c578063d505accf1461072f57600080fd5b8063aa271e1a116100c8578063aa271e1a1461063e578063ba330bd714610661578063cd4839ca1461067457600080fd5b80639f48118f1461060d578063a457c2d714610618578063a9059cbb1461062b57600080fd5b80637ecebe001161015057806395d89b411161012a57806395d89b41146105df578063983b2d56146105e75780639e4e0dae146105fa57600080fd5b80637ecebe001461058e5780638933fb79146105a157806390218cff146105cc57600080fd5b80637334d020116101815780637334d020146105605780637d4c9c2d146105735780637d74e25f1461058657600080fd5b806361d027b3146104e557806370a082311461052a57600080fd5b80633092afd5116102605780633a55f89d116102095780634dc32fcc116101e35780634dc32fcc1461049f5780635a446215146104b25780635bfbec96146104c557600080fd5b80633a55f89d146104595780633f4218e01461046c57806340c10f191461048c57600080fd5b80633644e5151161023a5780633644e5151461042b57806336db43b514610433578063395093511461044657600080fd5b80633092afd5146103f6578063313ce56714610409578063350ebe041461041857600080fd5b8063151dd755116102c257806323b872dd1161029c57806323b872dd146103bd5780632b471d8e146103d05780632e403e14146103e357600080fd5b8063151dd7551461038b57806318160ddd146103ac5780632342fb0e146103b457600080fd5b80630919a951116102f35780630919a95114610342578063095ea7b3146103555780631171bda91461037857600080fd5b806306fdde031461030f578063077f224a1461032d575b600080fd5b6103176107ae565b6040516103249190613f4b565b60405180910390f35b61034061033b366004614098565b610841565b005b610340610350366004614110565b610851565b61036861036336600461412d565b6109b4565b6040519015158152602001610324565b610340610386366004614159565b6109ce565b61039e61039936600461419a565b610b23565b604051908152602001610324565b60355461039e565b61039e60d25481565b6103686103cb366004614159565b610ddd565b6103406103de3660046141d1565b610e01565b6103406103f1366004614110565b610e58565b610340610404366004614110565b611207565b60405160128152602001610324565b610340610426366004614201565b6112f0565b61039e6113f9565b61034061044136600461412d565b611408565b61036861045436600461412d565b611598565b610340610467366004614238565b6115df565b61039e61047a366004614110565b60d16020526000908152604090205481565b61034061049a36600461412d565b6116e2565b61039e6104ad366004614110565b611735565b6103406104c0366004614251565b61177d565b61039e6104d3366004614238565b60d36020526000908152604090205481565b60cd546105059073ffffffffffffffffffffffffffffffffffffffff1681565b60405173ffffffffffffffffffffffffffffffffffffffff9091168152602001610324565b61039e610538366004614110565b73ffffffffffffffffffffffffffffffffffffffff1660009081526033602052604090205490565b61034061056e36600461412d565b611860565b6103406105813660046142e0565b6119f3565b61039e611d5b565b61039e61059c366004614110565b611d80565b61039e6105af36600461412d565b60d060209081526000928352604080842090915290825290205481565b6103406105da366004614238565b611dab565b610317611db8565b6103406105f5366004614110565b611dc8565b61034061060836600461433d565b611e90565b61039e633b9aca0081565b61036861062636600461412d565b61209c565b61036861063936600461412d565b612172565b61036861064c366004614110565b60cc6020526000908152604090205460ff1681565b61050561066f366004614238565b612180565b61067c6121b7565b6040516103249190614372565b6106e3610697366004614110565b60ce6020526000908152604090208054600182015460029092015490919067ffffffffffffffff81169060ff680100000000000000008204811691690100000000000000000090041685565b60408051958652602086019490945267ffffffffffffffff9092169284019290925290151560608301521515608082015260a001610324565b61039e61072a36600461419a565b612225565b61034061073d3660046143cc565b6123ea565b61039e610750366004614443565b73ffffffffffffffffffffffffffffffffffffffff918216600090815260346020908152604080832093909416825291909152205490565b610340610796366004614110565b6125a9565b6103406107a9366004614110565b61277d565b606061010080546107be90614471565b80601f01602080910402602001604051908101604052809291908181526020018280546107ea90614471565b80156108375780601f1061080c57610100808354040283529160200191610837565b820191906000526020600020905b81548152906001019060200180831161081a57829003601f168201915b5050505050905090565b61084c838383612859565b505050565b60cd546040517f521d4de900000000000000000000000000000000000000000000000000000000815233600482015273ffffffffffffffffffffffffffffffffffffffff9091169063521d4de990602401602060405180830381865afa1580156108bf573d6000803e3d6000fd5b505050506040513d601f19601f820116820180604052508101906108e391906144be565b610919576040517f99e120bc00000000000000000000000000000000000000000000000000000000815260040160405180910390fd5b73ffffffffffffffffffffffffffffffffffffffff8116600090815260d1602052604081205461094a90600161450a565b73ffffffffffffffffffffffffffffffffffffffff8316600081815260d160205260409081902083905551919250907f979ef83e7e7a87cb48064e296dd7e997870d50f43acf8d7ad221313526c8ca0f906109a89084815260200190565b60405180910390a25050565b6000336109c2818585612b38565b60019150505b92915050565b60cd546040517fe43581b800000000000000000000000000000000000000000000000000000000815233600482015273ffffffffffffffffffffffffffffffffffffffff9091169063e43581b890602401602060405180830381865afa158015610a3c573d6000803e3d6000fd5b505050506040513d601f19601f82011682018060405250810190610a6091906144be565b610a96576040517fee3675d400000000000000000000000000000000000000000000000000000000815260040160405180910390fd5b610ab773ffffffffffffffffffffffffffffffffffffffff84168383612ce3565b8173ffffffffffffffffffffffffffffffffffffffff168373ffffffffffffffffffffffffffffffffffffffff167ffff3b3844276f57024e0b42afec1a37f75db36511e43819a4f2a63ab7862b64883604051610b1691815260200190565b60405180910390a3505050565b73ffffffffffffffffffffffffffffffffffffffff8316600090815260ce60209081526040808320815160a081018352815481526001820154938101939093526002015467ffffffffffffffff81169183019190915260ff680100000000000000008204811615801560608501526901000000000000000000909204161515608083015280610bb3575080608001515b15610bea576040517fc1ab6dc100000000000000000000000000000000000000000000000000000000815260040160405180910390fd5b6040517f70a0823100000000000000000000000000000000000000000000000000000000815230600482015260009073ffffffffffffffffffffffffffffffffffffffff8716906370a0823190602401602060405180830381865afa158015610c57573d6000803e3d6000fd5b505050506040513d601f19601f82011682018060405250810190610c7b919061451d565b8251909150610c8a8683614536565b1115610cb2578151811015610cad578151610ca690829061450a565b9450610cb2565b600094505b6000610cc0610e1042614549565b73ffffffffffffffffffffffffffffffffffffffff8816600090815260d0602090815260408083208484528252909120549085015191925090610d038883614536565b1115610d2e5780846020015111610d1b576000610d2b565b808460200151610d2b919061450a565b96505b610d388782614536565b73ffffffffffffffffffffffffffffffffffffffff8916600081815260d060209081526040808320878452909152902091909155610d789033308a612db7565b33600090815260d16020526040812054889103610dc557633b9aca00856040015167ffffffffffffffff1682610dae9190614584565b610db89190614549565b610dc2908261450a565b90505b610dcf8782612e15565b9450505050505b9392505050565b600033610deb858285612f35565b610df6858585613006565b506001949350505050565b33600090815260cc602052604090205460ff16610e4a576040517ff8d2906c00000000000000000000000000000000000000000000000000000000815260040160405180910390fd5b610e5481836132b9565b5050565b60cd546040517fe43581b800000000000000000000000000000000000000000000000000000000815233600482015273ffffffffffffffffffffffffffffffffffffffff9091169063e43581b890602401602060405180830381865afa158015610ec6573d6000803e3d6000fd5b505050506040513d601f19601f82011682018060405250810190610eea91906144be565b610f20576040517fee3675d400000000000000000000000000000000000000000000000000000000815260040160405180910390fd5b6040517f70a0823100000000000000000000000000000000000000000000000000000000815230600482015273ffffffffffffffffffffffffffffffffffffffff8216906370a0823190602401602060405180830381865afa158015610f8a573d6000803e3d6000fd5b505050506040513d601f19601f82011682018060405250810190610fae919061451d565b15610fe5576040517f2ef630ec00000000000000000000000000000000000000000000000000000000815260040160405180910390fd5b73ffffffffffffffffffffffffffffffffffffffff8116600090815260ce602052604081208181556001810182905560020180547fffffffffffffffffffffffffffffffffffffffffffff0000000000000000000016905560cf54905b61104d60018361450a565b811015611158578273ffffffffffffffffffffffffffffffffffffffff1660cf828154811061107e5761107e61459b565b60009182526020909120015473ffffffffffffffffffffffffffffffffffffffff16036111485760cf6110b260018461450a565b815481106110c2576110c261459b565b60009182526020909120015460cf805473ffffffffffffffffffffffffffffffffffffffff90921691839081106110fb576110fb61459b565b9060005260206000200160006101000a81548173ffffffffffffffffffffffffffffffffffffffff021916908373ffffffffffffffffffffffffffffffffffffffff160217905550611158565b611151816145ca565b9050611042565b5060cf80548061116a5761116a614602565b60008281526020812082017fffffffffffffffffffffffffffffffffffffffffffffffffffffffffffffffff90810180547fffffffffffffffffffffffff000000000000000000000000000000000000000016905590910190915560405173ffffffffffffffffffffffffffffffffffffffff8416917f5c95b49c4d59d97a2f044167723f29c74b30f99702e3fd406c3830160aa9ccb891a25050565b60cd5473ffffffffffffffffffffffffffffffffffffffff16331480159061124557503373ffffffffffffffffffffffffffffffffffffffff821614155b1561127c576040517fddb5de5e00000000000000000000000000000000000000000000000000000000815260040160405180910390fd5b73ffffffffffffffffffffffffffffffffffffffff8116600081815260cc602052604080822080547fffffffffffffffffffffffffffffffffffffffffffffffffffffffffffffff00169055517f98c15241d6c02bc5ee0b780e11b3ea737a2defd9d04877edbe9f9497065bd02f9190a250565b33600090815260cc602052604090205460ff16611339576040517ff8d2906c00000000000000000000000000000000000000000000000000000000815260040160405180910390fd5b8073ffffffffffffffffffffffffffffffffffffffff168273ffffffffffffffffffffffffffffffffffffffff16146113ef5773ffffffffffffffffffffffffffffffffffffffff828116600090815260346020908152604080832093851683529290522054838110156113d9576040517f715ec26c00000000000000000000000000000000000000000000000000000000815260040160405180910390fd5b6113ed83836113e8878561450a565b612b38565b505b61084c82846132b9565b60006114036134a6565b905090565b60cd546040517f521d4de900000000000000000000000000000000000000000000000000000000815233600482015273ffffffffffffffffffffffffffffffffffffffff9091169063521d4de990602401602060405180830381865afa158015611476573d6000803e3d6000fd5b505050506040513d601f19601f8201168201806040525081019061149a91906144be565b6114d0576040517f99e120bc00000000000000000000000000000000000000000000000000000000815260040160405180910390fd5b73ffffffffffffffffffffffffffffffffffffffff8216600090815260ce602052604090206002015468010000000000000000900460ff1661153e576040517fc1ab6dc100000000000000000000000000000000000000000000000000000000815260040160405180910390fd5b73ffffffffffffffffffffffffffffffffffffffff8216600081815260ce602052604090819020839055517fe7b113fba37131b6396680a0c55790a697ec975e198ff8cfd89dac90a6379e61906109a89084815260200190565b33600081815260346020908152604080832073ffffffffffffffffffffffffffffffffffffffff871684529091528120549091906109c290829086906113e8908790614536565b60cd546040517f521d4de900000000000000000000000000000000000000000000000000000000815233600482015273ffffffffffffffffffffffffffffffffffffffff9091169063521d4de990602401602060405180830381865afa15801561164d573d6000803e3d6000fd5b505050506040513d601f19601f8201168201806040525081019061167191906144be565b6116a7576040517f99e120bc00000000000000000000000000000000000000000000000000000000815260040160405180910390fd5b60d28190556040518181527fc3b69829afe2345596a02c8b587d41f796ba0094481d899e1b2e07b7532a1e219060200160405180910390a150565b33600090815260cc602052604090205460ff1661172b576040517ff8d2906c00000000000000000000000000000000000000000000000000000000815260040160405180910390fd5b610e548282612e15565b73ffffffffffffffffffffffffffffffffffffffff8116600090815260d06020526040812081611767610e1042614549565b8152602001908152602001600020549050919050565b60cd546040517fe43581b800000000000000000000000000000000000000000000000000000000815233600482015273ffffffffffffffffffffffffffffffffffffffff9091169063e43581b890602401602060405180830381865afa1580156117eb573d6000803e3d6000fd5b505050506040513d601f19601f8201168201806040525081019061180f91906144be565b611845576040517fee3675d400000000000000000000000000000000000000000000000000000000815260040160405180910390fd5b610100611852838261467f565b5061010161084c828261467f565b60cd546040517f521d4de900000000000000000000000000000000000000000000000000000000815233600482015273ffffffffffffffffffffffffffffffffffffffff9091169063521d4de990602401602060405180830381865afa1580156118ce573d6000803e3d6000fd5b505050506040513d601f19601f820116820180604052508101906118f291906144be565b611928576040517f99e120bc00000000000000000000000000000000000000000000000000000000815260040160405180910390fd5b73ffffffffffffffffffffffffffffffffffffffff8216600090815260ce602052604090206002015468010000000000000000900460ff16611996576040517fc1ab6dc100000000000000000000000000000000000000000000000000000000815260040160405180910390fd5b73ffffffffffffffffffffffffffffffffffffffff8216600081815260ce602052604090819020600101839055517fe13ac9338b2ee623233f83c1b3ceab16490fa3e3737fac7f0970d0830a9f4871906109a89084815260200190565b60cd546040517fe43581b800000000000000000000000000000000000000000000000000000000815233600482015273ffffffffffffffffffffffffffffffffffffffff9091169063e43581b890602401602060405180830381865afa158015611a61573d6000803e3d6000fd5b505050506040513d601f19601f82011682018060405250810190611a8591906144be565b611abb576040517fee3675d400000000000000000000000000000000000000000000000000000000815260040160405180910390fd5b73ffffffffffffffffffffffffffffffffffffffff8516600090815260ce602052604090206002015468010000000000000000900460ff1680611b12575073ffffffffffffffffffffffffffffffffffffffff8516155b15611b49576040517fc1ab6dc100000000000000000000000000000000000000000000000000000000815260040160405180910390fd5b633b9aca008267ffffffffffffffff161115611b91576040517feca1d2c600000000000000000000000000000000000000000000000000000000815260040160405180910390fd5b6040805160a08101825260008082526020820181905291810182905260608101829052608081019190915284815260208082018581528315156080840190815267ffffffffffffffff808716604080870191825260016060880181815273ffffffffffffffffffffffffffffffffffffffff8e16600081815260ce9099528389208a5181559751888401559351600290970180549151965115156901000000000000000000027fffffffffffffffffffffffffffffffffffffffffffff00ffffffffffffffffff97151568010000000000000000027fffffffffffffffffffffffffffffffffffffffffffffff000000000000000000909316989096169790971717949094169290921790935560cf805492830181559093527facb8d954e2cfef495862221e91bd7523613cf8808827cb33edfe4904cc51bf290180547fffffffffffffffffffffffff0000000000000000000000000000000000000000168217905590517f53087ff85d80a7671594bd2e86b92af22e0b3c2c441c8033bba7399b7b5cbe2390611d4b908890889088908890938452602084019290925267ffffffffffffffff1660408301521515606082015260800190565b60405180910390a2505050505050565b600060d381611d6c610e1042614549565b815260200190815260200160002054905090565b73ffffffffffffffffffffffffffffffffffffffff81166000908152609960205260408120546109c8565b611db533826132b9565b50565b606061010180546107be90614471565b60cd5473ffffffffffffffffffffffffffffffffffffffff163314611e19576040517fb90cdbb100000000000000000000000000000000000000000000000000000000815260040160405180910390fd5b73ffffffffffffffffffffffffffffffffffffffff8116600081815260cc602052604080822080547fffffffffffffffffffffffffffffffffffffffffffffffffffffffffffffff00166001179055517f98c15241d6c02bc5ee0b780e11b3ea737a2defd9d04877edbe9f9497065bd02f9190a250565b60cd546040517f521d4de900000000000000000000000000000000000000000000000000000000815233600482015273ffffffffffffffffffffffffffffffffffffffff9091169063521d4de990602401602060405180830381865afa158015611efe573d6000803e3d6000fd5b505050506040513d601f19601f82011682018060405250810190611f2291906144be565b611f58576040517f99e120bc00000000000000000000000000000000000000000000000000000000815260040160405180910390fd5b73ffffffffffffffffffffffffffffffffffffffff8216600090815260ce602052604090206002015468010000000000000000900460ff16611fc6576040517fc1ab6dc100000000000000000000000000000000000000000000000000000000815260040160405180910390fd5b633b9aca008167ffffffffffffffff16111561200e576040517feca1d2c600000000000000000000000000000000000000000000000000000000815260040160405180910390fd5b73ffffffffffffffffffffffffffffffffffffffff8216600081815260ce602090815260409182902060020180547fffffffffffffffffffffffffffffffffffffffffffffffff00000000000000001667ffffffffffffffff861690811790915591519182527f901f9de19b475adc8da4110434b8df940dce085afd05e2281c86807f3a899d2991016109a8565b33600081815260346020908152604080832073ffffffffffffffffffffffffffffffffffffffff8716845290915281205490919083811015612165576040517f08c379a000000000000000000000000000000000000000000000000000000000815260206004820152602560248201527f45524332303a2064656372656173656420616c6c6f77616e63652062656c6f7760448201527f207a65726f00000000000000000000000000000000000000000000000000000060648201526084015b60405180910390fd5b610df68286868403612b38565b6000336109c2818585613006565b60cf818154811061219057600080fd5b60009182526020909120015473ffffffffffffffffffffffffffffffffffffffff16905081565b606060cf80548060200260200160405190810160405280929190818152602001828054801561083757602002820191906000526020600020905b815473ffffffffffffffffffffffffffffffffffffffff1681526001909101906020018083116121f1575050505050905090565b73ffffffffffffffffffffffffffffffffffffffff8316600090815260ce60209081526040808320815160a081018352815481526001820154938101939093526002015467ffffffffffffffff81169183019190915260ff6801000000000000000082048116158015606085015269010000000000000000009092041615156080830152806122b5575080608001515b156122ec576040517fc1ab6dc100000000000000000000000000000000000000000000000000000000815260040160405180910390fd5b60006122fa610e1042614549565b600081815260d3602052604081205491925090612318908790614536565b905060d254811115612356576040517f6d43d1ac00000000000000000000000000000000000000000000000000000000815260040160405180910390fd5b600082815260d36020526040902081905561237133876132b9565b33600090815260d160205260408120548791036123be57633b9aca00846040015167ffffffffffffffff16826123a79190614584565b6123b19190614549565b6123bb908261450a565b90505b6123df73ffffffffffffffffffffffffffffffffffffffff89168783612ce3565b979650505050505050565b83421115612454576040517f08c379a000000000000000000000000000000000000000000000000000000000815260206004820152601d60248201527f45524332305065726d69743a206578706972656420646561646c696e65000000604482015260640161215c565b60007f6e71edae12b1b97f4d1f60370fef10105fa2faae0126114a169c64845d6126c98888886124838c613521565b60408051602081019690965273ffffffffffffffffffffffffffffffffffffffff94851690860152929091166060840152608083015260a082015260c0810186905260e00160405160208183030381529060405280519060200120905060006124eb82613556565b905060006124fb828787876135bf565b90508973ffffffffffffffffffffffffffffffffffffffff168173ffffffffffffffffffffffffffffffffffffffff1614612592576040517f08c379a000000000000000000000000000000000000000000000000000000000815260206004820152601e60248201527f45524332305065726d69743a20696e76616c6964207369676e61747572650000604482015260640161215c565b61259d8a8a8a612b38565b50505050505050505050565b60cd546040517f521d4de900000000000000000000000000000000000000000000000000000000815233600482015273ffffffffffffffffffffffffffffffffffffffff9091169063521d4de990602401602060405180830381865afa158015612617573d6000803e3d6000fd5b505050506040513d601f19601f8201168201806040525081019061263b91906144be565b612671576040517f99e120bc00000000000000000000000000000000000000000000000000000000815260040160405180910390fd5b73ffffffffffffffffffffffffffffffffffffffff8116600090815260ce602052604090206002015468010000000000000000900460ff166126df576040517fc1ab6dc100000000000000000000000000000000000000000000000000000000815260040160405180910390fd5b73ffffffffffffffffffffffffffffffffffffffff8116600081815260ce602090815260409182902060020180547fffffffffffffffffffffffffffffffffffffffffffff00ffffffffffffffffff811669010000000000000000009182900460ff16801592830291909117909255925192835292917ff7c93079dcbf699749d66345a351afab7d24219bb1d915c9f4fc4cf03f00d39791016109a8565b60cd5473ffffffffffffffffffffffffffffffffffffffff1633146127ce576040517fb90cdbb100000000000000000000000000000000000000000000000000000000815260040160405180910390fd5b60cd80547fffffffffffffffffffffffff00000000000000000000000000000000000000001673ffffffffffffffffffffffffffffffffffffffff83169081179091556040517f7dae230f18360d76a040c81f050aa14eb9d6dc7901b20fc5d855e2a20fe814d190600090a250565b73ffffffffffffffffffffffffffffffffffffffff163b151590565b600054610100900460ff16158080156128795750600054600160ff909116105b806128935750303b158015612893575060005460ff166001145b61291f576040517f08c379a000000000000000000000000000000000000000000000000000000000815260206004820152602e60248201527f496e697469616c697a61626c653a20636f6e747261637420697320616c72656160448201527f647920696e697469616c697a6564000000000000000000000000000000000000606482015260840161215c565b600080547fffffffffffffffffffffffffffffffffffffffffffffffffffffffffffffff00166001179055801561297d57600080547fffffffffffffffffffffffffffffffffffffffffffffffffffffffffffff00ff166101001790555b3073ffffffffffffffffffffffffffffffffffffffff168273ffffffffffffffffffffffffffffffffffffffff1663e9cbd8226040518163ffffffff1660e01b8152600401602060405180830381865afa1580156129df573d6000803e3d6000fd5b505050506040513d601f19601f82011682018060405250810190612a039190614799565b73ffffffffffffffffffffffffffffffffffffffff1614612a50576040517f14bcf5c800000000000000000000000000000000000000000000000000000000815260040160405180910390fd5b612a59846135e7565b612a6384846136bd565b60cd80547fffffffffffffffffffffffff00000000000000000000000000000000000000001673ffffffffffffffffffffffffffffffffffffffff84169081179091556040517f7dae230f18360d76a040c81f050aa14eb9d6dc7901b20fc5d855e2a20fe814d190600090a28015612b3257600080547fffffffffffffffffffffffffffffffffffffffffffffffffffffffffffff00ff169055604051600181527f7f26b83ff96e1f2b6a682f133852f6798a09c465da95921460cefb38474024989060200160405180910390a15b50505050565b73ffffffffffffffffffffffffffffffffffffffff8316612bda576040517f08c379a0000000000000000000000000000000000000000000000000000000008152602060048201526024808201527f45524332303a20617070726f76652066726f6d20746865207a65726f2061646460448201527f7265737300000000000000000000000000000000000000000000000000000000606482015260840161215c565b73ffffffffffffffffffffffffffffffffffffffff8216612c7d576040517f08c379a000000000000000000000000000000000000000000000000000000000815260206004820152602260248201527f45524332303a20617070726f766520746f20746865207a65726f20616464726560448201527f7373000000000000000000000000000000000000000000000000000000000000606482015260840161215c565b73ffffffffffffffffffffffffffffffffffffffff83811660008181526034602090815260408083209487168084529482529182902085905590518481527f8c5be1e5ebec7d5bd14f71427d1e84f3dd0314c0f7b2291e5b200ac8c7c3b9259101610b16565b60405173ffffffffffffffffffffffffffffffffffffffff831660248201526044810182905261084c9084907fa9059cbb00000000000000000000000000000000000000000000000000000000906064015b604080517fffffffffffffffffffffffffffffffffffffffffffffffffffffffffffffffe08184030181529190526020810180517bffffffffffffffffffffffffffffffffffffffffffffffffffffffff167fffffffff000000000000000000000000000000000000000000000000000000009093169290921790915261375e565b60405173ffffffffffffffffffffffffffffffffffffffff80851660248301528316604482015260648101829052612b329085907f23b872dd0000000000000000000000000000000000000000000000000000000090608401612d35565b73ffffffffffffffffffffffffffffffffffffffff8216612e92576040517f08c379a000000000000000000000000000000000000000000000000000000000815260206004820152601f60248201527f45524332303a206d696e7420746f20746865207a65726f206164647265737300604482015260640161215c565b8060356000828254612ea49190614536565b909155505073ffffffffffffffffffffffffffffffffffffffff821660009081526033602052604081208054839290612ede908490614536565b909155505060405181815273ffffffffffffffffffffffffffffffffffffffff8316906000907fddf252ad1be2c89b69c2b068fc378daa952ba7f163c4a11628f55a4df523b3ef9060200160405180910390a35050565b73ffffffffffffffffffffffffffffffffffffffff8381166000908152603460209081526040808320938616835292905220547fffffffffffffffffffffffffffffffffffffffffffffffffffffffffffffffff8114612b325781811015612ff9576040517f08c379a000000000000000000000000000000000000000000000000000000000815260206004820152601d60248201527f45524332303a20696e73756666696369656e7420616c6c6f77616e6365000000604482015260640161215c565b612b328484848403612b38565b73ffffffffffffffffffffffffffffffffffffffff83166130a9576040517f08c379a000000000000000000000000000000000000000000000000000000000815260206004820152602560248201527f45524332303a207472616e736665722066726f6d20746865207a65726f20616460448201527f6472657373000000000000000000000000000000000000000000000000000000606482015260840161215c565b73ffffffffffffffffffffffffffffffffffffffff821661314c576040517f08c379a000000000000000000000000000000000000000000000000000000000815260206004820152602360248201527f45524332303a207472616e7366657220746f20746865207a65726f206164647260448201527f6573730000000000000000000000000000000000000000000000000000000000606482015260840161215c565b73ffffffffffffffffffffffffffffffffffffffff831660009081526033602052604090205481811015613202576040517f08c379a000000000000000000000000000000000000000000000000000000000815260206004820152602660248201527f45524332303a207472616e7366657220616d6f756e742065786365656473206260448201527f616c616e63650000000000000000000000000000000000000000000000000000606482015260840161215c565b73ffffffffffffffffffffffffffffffffffffffff808516600090815260336020526040808220858503905591851681529081208054849290613246908490614536565b925050819055508273ffffffffffffffffffffffffffffffffffffffff168473ffffffffffffffffffffffffffffffffffffffff167fddf252ad1be2c89b69c2b068fc378daa952ba7f163c4a11628f55a4df523b3ef846040516132ac91815260200190565b60405180910390a3612b32565b73ffffffffffffffffffffffffffffffffffffffff821661335c576040517f08c379a000000000000000000000000000000000000000000000000000000000815260206004820152602160248201527f45524332303a206275726e2066726f6d20746865207a65726f2061646472657360448201527f7300000000000000000000000000000000000000000000000000000000000000606482015260840161215c565b73ffffffffffffffffffffffffffffffffffffffff821660009081526033602052604090205481811015613412576040517f08c379a000000000000000000000000000000000000000000000000000000000815260206004820152602260248201527f45524332303a206275726e20616d6f756e7420657863656564732062616c616e60448201527f6365000000000000000000000000000000000000000000000000000000000000606482015260840161215c565b73ffffffffffffffffffffffffffffffffffffffff8316600090815260336020526040812083830390556035805484929061344e90849061450a565b909155505060405182815260009073ffffffffffffffffffffffffffffffffffffffff8516907fddf252ad1be2c89b69c2b068fc378daa952ba7f163c4a11628f55a4df523b3ef9060200160405180910390a3505050565b60006114037f8b73c3c69bb8fe3d512ecc4cf759cc79239f7b179b0ffacaa9a75d522b39400f6134d560655490565b6066546040805160208101859052908101839052606081018290524660808201523060a082015260009060c0016040516020818303038152906040528051906020012090509392505050565b73ffffffffffffffffffffffffffffffffffffffff811660009081526099602052604090208054600181018255905b50919050565b60006109c86135636134a6565b836040517f19010000000000000000000000000000000000000000000000000000000000006020820152602281018390526042810182905260009060620160405160208183030381529060405280519060200120905092915050565b60008060006135d08787878761386a565b915091506135dd81613982565b5095945050505050565b600054610100900460ff1661367e576040517f08c379a000000000000000000000000000000000000000000000000000000000815260206004820152602b60248201527f496e697469616c697a61626c653a20636f6e7472616374206973206e6f74206960448201527f6e697469616c697a696e67000000000000000000000000000000000000000000606482015260840161215c565b611db5816040518060400160405280600181526020017f3100000000000000000000000000000000000000000000000000000000000000815250613bd6565b600054610100900460ff16613754576040517f08c379a000000000000000000000000000000000000000000000000000000000815260206004820152602b60248201527f496e697469616c697a61626c653a20636f6e7472616374206973206e6f74206960448201527f6e697469616c697a696e67000000000000000000000000000000000000000000606482015260840161215c565b610e548282613c87565b60006137c0826040518060400160405280602081526020017f5361666545524332303a206c6f772d6c6576656c2063616c6c206661696c65648152508573ffffffffffffffffffffffffffffffffffffffff16613d379092919063ffffffff16565b80519091501561084c57808060200190518101906137de91906144be565b61084c576040517f08c379a000000000000000000000000000000000000000000000000000000000815260206004820152602a60248201527f5361666545524332303a204552433230206f7065726174696f6e20646964206e60448201527f6f74207375636365656400000000000000000000000000000000000000000000606482015260840161215c565b6000807f7fffffffffffffffffffffffffffffff5d576e7357a4501ddfe92f46681b20a08311156138a15750600090506003613979565b8460ff16601b141580156138b957508460ff16601c14155b156138ca5750600090506004613979565b6040805160008082526020820180845289905260ff881692820192909252606081018690526080810185905260019060a0016020604051602081039080840390855afa15801561391e573d6000803e3d6000fd5b50506040517fffffffffffffffffffffffffffffffffffffffffffffffffffffffffffffffe0015191505073ffffffffffffffffffffffffffffffffffffffff811661397257600060019250925050613979565b9150600090505b94509492505050565b6000816004811115613996576139966147b6565b0361399e5750565b60018160048111156139b2576139b26147b6565b03613a19576040517f08c379a000000000000000000000000000000000000000000000000000000000815260206004820152601860248201527f45434453413a20696e76616c6964207369676e61747572650000000000000000604482015260640161215c565b6002816004811115613a2d57613a2d6147b6565b03613a94576040517f08c379a000000000000000000000000000000000000000000000000000000000815260206004820152601f60248201527f45434453413a20696e76616c6964207369676e6174757265206c656e67746800604482015260640161215c565b6003816004811115613aa857613aa86147b6565b03613b35576040517f08c379a000000000000000000000000000000000000000000000000000000000815260206004820152602260248201527f45434453413a20696e76616c6964207369676e6174757265202773272076616c60448201527f7565000000000000000000000000000000000000000000000000000000000000606482015260840161215c565b6004816004811115613b4957613b496147b6565b03611db5576040517f08c379a000000000000000000000000000000000000000000000000000000000815260206004820152602260248201527f45434453413a20696e76616c6964207369676e6174757265202776272076616c60448201527f7565000000000000000000000000000000000000000000000000000000000000606482015260840161215c565b600054610100900460ff16613c6d576040517f08c379a000000000000000000000000000000000000000000000000000000000815260206004820152602b60248201527f496e697469616c697a61626c653a20636f6e7472616374206973206e6f74206960448201527f6e697469616c697a696e67000000000000000000000000000000000000000000606482015260840161215c565b815160209283012081519190920120606591909155606655565b600054610100900460ff16613d1e576040517f08c379a000000000000000000000000000000000000000000000000000000000815260206004820152602b60248201527f496e697469616c697a61626c653a20636f6e7472616374206973206e6f74206960448201527f6e697469616c697a696e67000000000000000000000000000000000000000000606482015260840161215c565b6036613d2a838261467f565b50603761084c828261467f565b6060613d468484600085613d4e565b949350505050565b606082471015613de0576040517f08c379a000000000000000000000000000000000000000000000000000000000815260206004820152602660248201527f416464726573733a20696e73756666696369656e742062616c616e636520666f60448201527f722063616c6c0000000000000000000000000000000000000000000000000000606482015260840161215c565b73ffffffffffffffffffffffffffffffffffffffff85163b613e5e576040517f08c379a000000000000000000000000000000000000000000000000000000000815260206004820152601d60248201527f416464726573733a2063616c6c20746f206e6f6e2d636f6e7472616374000000604482015260640161215c565b6000808673ffffffffffffffffffffffffffffffffffffffff168587604051613e8791906147e5565b60006040518083038185875af1925050503d8060008114613ec4576040519150601f19603f3d011682016040523d82523d6000602084013e613ec9565b606091505b50915091506123df82828660608315613ee3575081610dd6565b825115613ef35782518084602001fd5b816040517f08c379a000000000000000000000000000000000000000000000000000000000815260040161215c9190613f4b565b60005b83811015613f42578181015183820152602001613f2a565b50506000910152565b6020815260008251806020840152613f6a816040850160208701613f27565b601f017fffffffffffffffffffffffffffffffffffffffffffffffffffffffffffffffe0169190910160400192915050565b7f4e487b7100000000000000000000000000000000000000000000000000000000600052604160045260246000fd5b600082601f830112613fdc57600080fd5b813567ffffffffffffffff80821115613ff757613ff7613f9c565b604051601f83017fffffffffffffffffffffffffffffffffffffffffffffffffffffffffffffffe0908116603f0116810190828211818310171561403d5761403d613f9c565b8160405283815286602085880101111561405657600080fd5b836020870160208301376000602085830101528094505050505092915050565b73ffffffffffffffffffffffffffffffffffffffff81168114611db557600080fd5b6000806000606084860312156140ad57600080fd5b833567ffffffffffffffff808211156140c557600080fd5b6140d187838801613fcb565b945060208601359150808211156140e757600080fd5b506140f486828701613fcb565b925050604084013561410581614076565b809150509250925092565b60006020828403121561412257600080fd5b8135610dd681614076565b6000806040838503121561414057600080fd5b823561414b81614076565b946020939093013593505050565b60008060006060848603121561416e57600080fd5b833561417981614076565b9250602084013561418981614076565b929592945050506040919091013590565b6000806000606084860312156141af57600080fd5b83356141ba81614076565b925060208401359150604084013561410581614076565b600080604083850312156141e457600080fd5b8235915060208301356141f681614076565b809150509250929050565b60008060006060848603121561421657600080fd5b83359250602084013561422881614076565b9150604084013561410581614076565b60006020828403121561424a57600080fd5b5035919050565b6000806040838503121561426457600080fd5b823567ffffffffffffffff8082111561427c57600080fd5b61428886838701613fcb565b9350602085013591508082111561429e57600080fd5b506142ab85828601613fcb565b9150509250929050565b803567ffffffffffffffff811681146142cd57600080fd5b919050565b8015158114611db557600080fd5b600080600080600060a086880312156142f857600080fd5b853561430381614076565b9450602086013593506040860135925061431f606087016142b5565b9150608086013561432f816142d2565b809150509295509295909350565b6000806040838503121561435057600080fd5b823561435b81614076565b9150614369602084016142b5565b90509250929050565b6020808252825182820181905260009190848201906040850190845b818110156143c057835173ffffffffffffffffffffffffffffffffffffffff168352928401929184019160010161438e565b50909695505050505050565b600080600080600080600060e0888a0312156143e757600080fd5b87356143f281614076565b9650602088013561440281614076565b95506040880135945060608801359350608088013560ff8116811461442657600080fd5b9699959850939692959460a0840135945060c09093013592915050565b6000806040838503121561445657600080fd5b823561446181614076565b915060208301356141f681614076565b600181811c9082168061448557607f821691505b602082108103613550577f4e487b7100000000000000000000000000000000000000000000000000000000600052602260045260246000fd5b6000602082840312156144d057600080fd5b8151610dd6816142d2565b7f4e487b7100000000000000000000000000000000000000000000000000000000600052601160045260246000fd5b818103818111156109c8576109c86144db565b60006020828403121561452f57600080fd5b5051919050565b808201808211156109c8576109c86144db565b60008261457f577f4e487b7100000000000000000000000000000000000000000000000000000000600052601260045260246000fd5b500490565b80820281158282048414176109c8576109c86144db565b7f4e487b7100000000000000000000000000000000000000000000000000000000600052603260045260246000fd5b60007fffffffffffffffffffffffffffffffffffffffffffffffffffffffffffffffff82036145fb576145fb6144db565b5060010190565b7f4e487b7100000000000000000000000000000000000000000000000000000000600052603160045260246000fd5b601f82111561084c57600081815260208120601f850160051c810160208610156146585750805b601f850160051c820191505b8181101561467757828155600101614664565b505050505050565b815167ffffffffffffffff81111561469957614699613f9c565b6146ad816146a78454614471565b84614631565b602080601f83116001811461470057600084156146ca5750858301515b7fffffffffffffffffffffffffffffffffffffffffffffffffffffffffffffffff600386901b1c1916600185901b178555614677565b6000858152602081207fffffffffffffffffffffffffffffffffffffffffffffffffffffffffffffffe08616915b8281101561474d5788860151825594840194600190910190840161472e565b508582101561478957878501517fffffffffffffffffffffffffffffffffffffffffffffffffffffffffffffffff600388901b60f8161c191681555b5050505050600190811b01905550565b6000602082840312156147ab57600080fd5b8151610dd681614076565b7f4e487b7100000000000000000000000000000000000000000000000000000000600052602160045260246000fd5b600082516147f7818460208701613f27565b919091019291505056fea264697066735822122025207107911e66a77d8c95629245083ef3e18fe6e1762c95b27b6a8aea6c52d764736f6c63430008110033",
  "devdoc": {
    "author": "Angle Labs, Inc.",
    "kind": "dev",
    "methods": {
      "DOMAIN_SEPARATOR()": {
        "details": "See {IERC20Permit-DOMAIN_SEPARATOR}."
      },
      "addBridgeToken(address,uint256,uint256,uint64,bool)": {
        "params": {
          "bridgeToken": "Bridge token to add: it should be a version of the stablecoin from another bridge",
          "fee": "Fee taken upon swapping for or against this token",
          "hourlyLimit": "Limit on the hourly volume for this bridge",
          "limit": "Limit on the balance of bridge token this contract could hold",
          "paused": "Whether swapping for this token should be paused or not"
        }
      },
      "addMinter(address)": {
        "details": "Zero address checks are performed directly in the `Treasury` contract",
        "params": {
          "minter": "Minter address to add"
        }
      },
      "allBridgeTokens()": {
        "details": "Helpful for UIs"
      },
      "allowance(address,address)": {
        "details": "See {IERC20-allowance}."
      },
      "approve(address,uint256)": {
        "details": "See {IERC20-approve}. NOTE: If `amount` is the maximum `uint256`, the allowance is not updated on `transferFrom`. This is semantically equivalent to an infinite approval. Requirements: - `spender` cannot be the zero address."
      },
      "balanceOf(address)": {
        "details": "See {IERC20-balanceOf}."
      },
      "burnFrom(uint256,address,address)": {
        "details": "This method is to be called by a contract with the minter right after being requested to do so by a `sender` address willing to burn tokens from another `burner` addressThe method checks the allowance between the `sender` and the `burner`",
        "params": {
          "amount": "Amount of tokens to burn",
          "burner": "Address to burn from",
          "sender": "Address which requested the burn from `burner`"
        }
      },
      "burnSelf(uint256,address)": {
        "details": "This method is to be called by a contract with a minter right on the AgToken after being requested to do so by an address willing to burn tokens from its address",
        "params": {
          "amount": "Amount of tokens to burn",
          "burner": "Address to burn from"
        }
      },
      "burnStablecoin(uint256)": {
        "details": "This function can typically be called if there is a settlement mechanism to burn stablecoins",
        "params": {
          "amount": "Amount of stablecoins to burn"
        }
      },
      "currentTotalUsage()": {
        "details": "Helpful for UIs"
      },
      "currentUsage(address)": {
        "details": "Helpful for UIs",
        "params": {
          "bridgeToken": "Bridge used to mint"
        }
      },
      "decimals()": {
        "details": "Returns the number of decimals used to get its user representation. For example, if `decimals` equals `2`, a balance of `505` tokens should be displayed to a user as `5.05` (`505 / 10 ** 2`). Tokens usually opt for a value of 18, imitating the relationship between Ether and Wei. This is the value {ERC20} uses, unless this function is overridden; NOTE: This information is only used for _display_ purposes: it in no way affects any of the arithmetic of the contract, including {IERC20-balanceOf} and {IERC20-transfer}."
      },
      "decreaseAllowance(address,uint256)": {
        "details": "Atomically decreases the allowance granted to `spender` by the caller. This is an alternative to {approve} that can be used as a mitigation for problems described in {IERC20-approve}. Emits an {Approval} event indicating the updated allowance. Requirements: - `spender` cannot be the zero address. - `spender` must have allowance for the caller of at least `subtractedValue`."
      },
      "increaseAllowance(address,uint256)": {
        "details": "Atomically increases the allowance granted to `spender` by the caller. This is an alternative to {approve} that can be used as a mitigation for problems described in {IERC20-approve}. Emits an {Approval} event indicating the updated allowance. Requirements: - `spender` cannot be the zero address."
      },
      "mint(address,uint256)": {
        "details": "The contracts allowed to issue agTokens are the `StableMaster` contract, `VaultManager` contracts associated to this stablecoin as well as the flash loan module (if activated) and potentially contracts whitelisted by governance",
        "params": {
          "account": "Address to mint to",
          "amount": "Amount to mint"
        }
      },
      "name()": {
        "details": "Returns the name of the token."
      },
      "nonces(address)": {
        "details": "See {IERC20Permit-nonces}."
      },
      "permit(address,address,uint256,uint256,uint8,bytes32,bytes32)": {
        "details": "See {IERC20Permit-permit}."
      },
      "recoverERC20(address,address,uint256)": {
        "details": "Can be used to withdraw bridge tokens for them to be de-bridged on mainnet"
      },
      "removeBridgeToken(address)": {
        "params": {
          "bridgeToken": "Address of the bridge token to remove support for"
        }
      },
      "removeMinter(address)": {
        "details": "This function can also be called by a minter wishing to revoke itself",
        "params": {
          "minter": "Minter address to remove"
        }
      },
      "setTreasury(address)": {
        "params": {
          "_treasury": "New treasury address"
        }
      },
      "swapIn(address,uint256,address)": {
        "details": "Some fees may be taken by the protocol depending on the token used and on the address calling",
        "params": {
          "amount": "Amount of bridge tokens to send",
          "bridgeToken": "Bridge token to use to mint",
          "to": "Address to which the stablecoin should be sent"
        },
        "returns": {
          "_0": "Amount of the canonical stablecoin actually minted"
        }
      },
      "swapOut(address,uint256,address)": {
        "details": "Some fees may be taken by the protocol depending on the token used and on the address calling",
        "params": {
          "amount": "Amount of canonical tokens to burn",
          "bridgeToken": "Bridge token required",
          "to": "Address to which the bridge token should be sent"
        },
        "returns": {
          "_0": "Amount of bridge tokens actually sent back"
        }
      },
      "symbol()": {
        "details": "Returns the symbol of the token, usually a shorter version of the name."
      },
      "totalSupply()": {
        "details": "See {IERC20-totalSupply}."
      },
      "transfer(address,uint256)": {
        "details": "See {IERC20-transfer}. Requirements: - `to` cannot be the zero address. - the caller must have a balance of at least `amount`."
      },
      "transferFrom(address,address,uint256)": {
        "details": "See {IERC20-transferFrom}. Emits an {Approval} event indicating the updated allowance. This is not required by the EIP. See the note at the beginning of {ERC20}. NOTE: Does not update the allowance if the current allowance is the maximum `uint256`. Requirements: - `from` and `to` cannot be the zero address. - `from` must have a balance of at least `amount`. - the caller must have allowance for ``from``'s tokens of at least `amount`."
      }
    },
    "title": "AgTokenSideChainMultiBridgeNameable",
    "version": 1
  },
  "userdoc": {
    "kind": "user",
    "methods": {
      "BASE_PARAMS()": {
        "notice": "Base used for fee computation"
      },
      "addBridgeToken(address,uint256,uint256,uint64,bool)": {
        "notice": "Adds support for a bridge token"
      },
      "addMinter(address)": {
        "notice": "Adds a minter in the contract"
      },
      "allBridgeTokens()": {
        "notice": "Returns the list of all supported bridge tokens"
      },
      "bridgeTokensList(uint256)": {
        "notice": "List of all bridge tokens"
      },
      "bridges(address)": {
        "notice": "Maps a bridge token to data"
      },
      "burnFrom(uint256,address,address)": {
        "notice": "Burns `amount` tokens from a `burner` address after being asked to by `sender`"
      },
      "burnSelf(uint256,address)": {
        "notice": "Burns `amount` tokens from a `burner` address"
      },
      "burnStablecoin(uint256)": {
        "notice": "Allows anyone to burn stablecoins"
      },
      "chainTotalHourlyLimit()": {
        "notice": "Limit to the amount of tokens that can be sent from that chain to another chain"
      },
      "chainTotalUsage(uint256)": {
        "notice": "Usage per hour on that chain. Maps an hourly timestamp to the total volume swapped out on the chain"
      },
      "currentTotalUsage()": {
        "notice": "Returns the current total volume on the chain for the current hour"
      },
      "currentUsage(address)": {
        "notice": "Returns the current volume for a bridge, for the current hour"
      },
      "initialize(string,string,address)": {
        "notice": "Initializes the `AgToken` contract"
      },
      "isFeeExempt(address)": {
        "notice": "Maps an address to whether it is exempt of fees for when it comes to swapping in and out"
      },
      "isMinter(address)": {
        "notice": "Checks whether an address has the right to mint agTokens"
      },
      "mint(address,uint256)": {
        "notice": "Lets the `StableMaster` contract or another whitelisted contract mint agTokens"
      },
      "recoverERC20(address,address,uint256)": {
        "notice": "Recovers any ERC20 token"
      },
      "removeBridgeToken(address)": {
        "notice": "Removes support for a token"
      },
      "removeMinter(address)": {
        "notice": "Removes a minter from the contract"
      },
      "setChainTotalHourlyLimit(uint256)": {
        "notice": "Updates the `chainTotalHourlyLimit` amount"
      },
      "setHourlyLimit(address,uint256)": {
        "notice": "Updates the `hourlyLimit` amount for `bridgeToken`"
      },
      "setLimit(address,uint256)": {
        "notice": "Updates the `limit` amount for `bridgeToken`"
      },
      "setNameAndSymbol(string,string)": {
        "notice": "Updates the name and symbol of the token"
      },
      "setSwapFee(address,uint64)": {
        "notice": "Updates the `fee` value for `bridgeToken`"
      },
      "setTreasury(address)": {
        "notice": "Sets a new treasury contract"
      },
      "swapIn(address,uint256,address)": {
        "notice": "Mints the canonical token from a supported bridge token"
      },
      "swapOut(address,uint256,address)": {
        "notice": "Burns the canonical token in exchange for a bridge token"
      },
      "toggleBridge(address)": {
        "notice": "Pauses or unpauses swapping in and out for a token"
      },
      "toggleFeesForAddress(address)": {
        "notice": "Toggles fees for the address `theAddress`"
      },
      "treasury()": {
        "notice": "Reference to the treasury contract which can grant minting rights"
      },
      "usage(address,uint256)": {
        "notice": "Maps a bridge token to the associated hourly volume"
      }
    },
    "version": 1
  },
  "storageLayout": {
    "storage": [
      {
        "astId": 770,
        "contract": "contracts/agToken/nameable/AgTokenSideChainMultiBridgeNameable.sol:AgTokenSideChainMultiBridgeNameable",
        "label": "_initialized",
        "offset": 0,
        "slot": "0",
        "type": "t_uint8"
      },
      {
        "astId": 773,
        "contract": "contracts/agToken/nameable/AgTokenSideChainMultiBridgeNameable.sol:AgTokenSideChainMultiBridgeNameable",
        "label": "_initializing",
        "offset": 1,
        "slot": "0",
        "type": "t_bool"
      },
      {
        "astId": 2527,
        "contract": "contracts/agToken/nameable/AgTokenSideChainMultiBridgeNameable.sol:AgTokenSideChainMultiBridgeNameable",
        "label": "__gap",
        "offset": 0,
        "slot": "1",
        "type": "t_array(t_uint256)50_storage"
      },
      {
        "astId": 1160,
        "contract": "contracts/agToken/nameable/AgTokenSideChainMultiBridgeNameable.sol:AgTokenSideChainMultiBridgeNameable",
        "label": "_balances",
        "offset": 0,
        "slot": "51",
        "type": "t_mapping(t_address,t_uint256)"
      },
      {
        "astId": 1166,
        "contract": "contracts/agToken/nameable/AgTokenSideChainMultiBridgeNameable.sol:AgTokenSideChainMultiBridgeNameable",
        "label": "_allowances",
        "offset": 0,
        "slot": "52",
        "type": "t_mapping(t_address,t_mapping(t_address,t_uint256))"
      },
      {
        "astId": 1168,
        "contract": "contracts/agToken/nameable/AgTokenSideChainMultiBridgeNameable.sol:AgTokenSideChainMultiBridgeNameable",
        "label": "_totalSupply",
        "offset": 0,
        "slot": "53",
        "type": "t_uint256"
      },
      {
        "astId": 1170,
        "contract": "contracts/agToken/nameable/AgTokenSideChainMultiBridgeNameable.sol:AgTokenSideChainMultiBridgeNameable",
        "label": "_name",
        "offset": 0,
        "slot": "54",
        "type": "t_string_storage"
      },
      {
        "astId": 1172,
        "contract": "contracts/agToken/nameable/AgTokenSideChainMultiBridgeNameable.sol:AgTokenSideChainMultiBridgeNameable",
        "label": "_symbol",
        "offset": 0,
        "slot": "55",
        "type": "t_string_storage"
      },
      {
        "astId": 1751,
        "contract": "contracts/agToken/nameable/AgTokenSideChainMultiBridgeNameable.sol:AgTokenSideChainMultiBridgeNameable",
        "label": "__gap",
        "offset": 0,
        "slot": "56",
        "type": "t_array(t_uint256)45_storage"
      },
      {
        "astId": 3244,
        "contract": "contracts/agToken/nameable/AgTokenSideChainMultiBridgeNameable.sol:AgTokenSideChainMultiBridgeNameable",
        "label": "_HASHED_NAME",
        "offset": 0,
        "slot": "101",
        "type": "t_bytes32"
      },
      {
        "astId": 3246,
        "contract": "contracts/agToken/nameable/AgTokenSideChainMultiBridgeNameable.sol:AgTokenSideChainMultiBridgeNameable",
        "label": "_HASHED_VERSION",
        "offset": 0,
        "slot": "102",
        "type": "t_bytes32"
      },
      {
        "astId": 3384,
        "contract": "contracts/agToken/nameable/AgTokenSideChainMultiBridgeNameable.sol:AgTokenSideChainMultiBridgeNameable",
        "label": "__gap",
        "offset": 0,
        "slot": "103",
        "type": "t_array(t_uint256)50_storage"
      },
      {
        "astId": 1881,
        "contract": "contracts/agToken/nameable/AgTokenSideChainMultiBridgeNameable.sol:AgTokenSideChainMultiBridgeNameable",
        "label": "_nonces",
        "offset": 0,
        "slot": "153",
        "type": "t_mapping(t_address,t_struct(Counter)2534_storage)"
      },
      {
        "astId": 1889,
        "contract": "contracts/agToken/nameable/AgTokenSideChainMultiBridgeNameable.sol:AgTokenSideChainMultiBridgeNameable",
        "label": "_PERMIT_TYPEHASH_DEPRECATED_SLOT",
        "offset": 0,
        "slot": "154",
        "type": "t_bytes32"
      },
      {
        "astId": 2045,
        "contract": "contracts/agToken/nameable/AgTokenSideChainMultiBridgeNameable.sol:AgTokenSideChainMultiBridgeNameable",
        "label": "__gap",
        "offset": 0,
        "slot": "155",
        "type": "t_array(t_uint256)49_storage"
      },
      {
        "astId": 7468,
        "contract": "contracts/agToken/nameable/AgTokenSideChainMultiBridgeNameable.sol:AgTokenSideChainMultiBridgeNameable",
        "label": "isMinter",
        "offset": 0,
        "slot": "204",
        "type": "t_mapping(t_address,t_bool)"
      },
      {
        "astId": 7471,
        "contract": "contracts/agToken/nameable/AgTokenSideChainMultiBridgeNameable.sol:AgTokenSideChainMultiBridgeNameable",
        "label": "treasury",
        "offset": 0,
        "slot": "205",
        "type": "t_address"
      },
      {
        "astId": 7780,
        "contract": "contracts/agToken/nameable/AgTokenSideChainMultiBridgeNameable.sol:AgTokenSideChainMultiBridgeNameable",
        "label": "bridges",
        "offset": 0,
        "slot": "206",
        "type": "t_mapping(t_address,t_struct(BridgeDetails)7774_storage)"
      },
      {
        "astId": 7784,
        "contract": "contracts/agToken/nameable/AgTokenSideChainMultiBridgeNameable.sol:AgTokenSideChainMultiBridgeNameable",
        "label": "bridgeTokensList",
        "offset": 0,
        "slot": "207",
        "type": "t_array(t_address)dyn_storage"
      },
      {
        "astId": 7791,
        "contract": "contracts/agToken/nameable/AgTokenSideChainMultiBridgeNameable.sol:AgTokenSideChainMultiBridgeNameable",
        "label": "usage",
        "offset": 0,
        "slot": "208",
        "type": "t_mapping(t_address,t_mapping(t_uint256,t_uint256))"
      },
      {
        "astId": 7796,
        "contract": "contracts/agToken/nameable/AgTokenSideChainMultiBridgeNameable.sol:AgTokenSideChainMultiBridgeNameable",
        "label": "isFeeExempt",
        "offset": 0,
        "slot": "209",
        "type": "t_mapping(t_address,t_uint256)"
      },
      {
        "astId": 7799,
        "contract": "contracts/agToken/nameable/AgTokenSideChainMultiBridgeNameable.sol:AgTokenSideChainMultiBridgeNameable",
        "label": "chainTotalHourlyLimit",
        "offset": 0,
        "slot": "210",
        "type": "t_uint256"
      },
      {
        "astId": 7804,
        "contract": "contracts/agToken/nameable/AgTokenSideChainMultiBridgeNameable.sol:AgTokenSideChainMultiBridgeNameable",
        "label": "chainTotalUsage",
        "offset": 0,
        "slot": "211",
        "type": "t_mapping(t_uint256,t_uint256)"
      },
      {
        "astId": 7808,
        "contract": "contracts/agToken/nameable/AgTokenSideChainMultiBridgeNameable.sol:AgTokenSideChainMultiBridgeNameable",
        "label": "__gapMultiBridge",
        "offset": 0,
        "slot": "212",
        "type": "t_array(t_uint256)44_storage"
      },
      {
        "astId": 10708,
        "contract": "contracts/agToken/nameable/AgTokenSideChainMultiBridgeNameable.sol:AgTokenSideChainMultiBridgeNameable",
        "label": "__name",
        "offset": 0,
        "slot": "256",
        "type": "t_string_storage"
      },
      {
        "astId": 10710,
        "contract": "contracts/agToken/nameable/AgTokenSideChainMultiBridgeNameable.sol:AgTokenSideChainMultiBridgeNameable",
        "label": "__symbol",
        "offset": 0,
        "slot": "257",
        "type": "t_string_storage"
      },
      {
        "astId": 10714,
        "contract": "contracts/agToken/nameable/AgTokenSideChainMultiBridgeNameable.sol:AgTokenSideChainMultiBridgeNameable",
        "label": "__gapNameable",
        "offset": 0,
        "slot": "258",
        "type": "t_array(t_uint256)48_storage"
      }
    ],
    "types": {
      "t_address": {
        "encoding": "inplace",
        "label": "address",
        "numberOfBytes": "20"
      },
      "t_array(t_address)dyn_storage": {
        "base": "t_address",
        "encoding": "dynamic_array",
        "label": "address[]",
        "numberOfBytes": "32"
      },
      "t_array(t_uint256)44_storage": {
        "base": "t_uint256",
        "encoding": "inplace",
        "label": "uint256[44]",
        "numberOfBytes": "1408"
      },
      "t_array(t_uint256)45_storage": {
        "base": "t_uint256",
        "encoding": "inplace",
        "label": "uint256[45]",
        "numberOfBytes": "1440"
      },
      "t_array(t_uint256)48_storage": {
        "base": "t_uint256",
        "encoding": "inplace",
        "label": "uint256[48]",
        "numberOfBytes": "1536"
      },
      "t_array(t_uint256)49_storage": {
        "base": "t_uint256",
        "encoding": "inplace",
        "label": "uint256[49]",
        "numberOfBytes": "1568"
      },
      "t_array(t_uint256)50_storage": {
        "base": "t_uint256",
        "encoding": "inplace",
        "label": "uint256[50]",
        "numberOfBytes": "1600"
      },
      "t_bool": {
        "encoding": "inplace",
        "label": "bool",
        "numberOfBytes": "1"
      },
      "t_bytes32": {
        "encoding": "inplace",
        "label": "bytes32",
        "numberOfBytes": "32"
      },
      "t_mapping(t_address,t_bool)": {
        "encoding": "mapping",
        "key": "t_address",
        "label": "mapping(address => bool)",
        "numberOfBytes": "32",
        "value": "t_bool"
      },
      "t_mapping(t_address,t_mapping(t_address,t_uint256))": {
        "encoding": "mapping",
        "key": "t_address",
        "label": "mapping(address => mapping(address => uint256))",
        "numberOfBytes": "32",
        "value": "t_mapping(t_address,t_uint256)"
      },
      "t_mapping(t_address,t_mapping(t_uint256,t_uint256))": {
        "encoding": "mapping",
        "key": "t_address",
        "label": "mapping(address => mapping(uint256 => uint256))",
        "numberOfBytes": "32",
        "value": "t_mapping(t_uint256,t_uint256)"
      },
      "t_mapping(t_address,t_struct(BridgeDetails)7774_storage)": {
        "encoding": "mapping",
        "key": "t_address",
        "label": "mapping(address => struct AgTokenSideChainMultiBridge.BridgeDetails)",
        "numberOfBytes": "32",
        "value": "t_struct(BridgeDetails)7774_storage"
      },
      "t_mapping(t_address,t_struct(Counter)2534_storage)": {
        "encoding": "mapping",
        "key": "t_address",
        "label": "mapping(address => struct CountersUpgradeable.Counter)",
        "numberOfBytes": "32",
        "value": "t_struct(Counter)2534_storage"
      },
      "t_mapping(t_address,t_uint256)": {
        "encoding": "mapping",
        "key": "t_address",
        "label": "mapping(address => uint256)",
        "numberOfBytes": "32",
        "value": "t_uint256"
      },
      "t_mapping(t_uint256,t_uint256)": {
        "encoding": "mapping",
        "key": "t_uint256",
        "label": "mapping(uint256 => uint256)",
        "numberOfBytes": "32",
        "value": "t_uint256"
      },
      "t_string_storage": {
        "encoding": "bytes",
        "label": "string",
        "numberOfBytes": "32"
      },
      "t_struct(BridgeDetails)7774_storage": {
        "encoding": "inplace",
        "label": "struct AgTokenSideChainMultiBridge.BridgeDetails",
        "members": [
          {
            "astId": 7765,
            "contract": "contracts/agToken/nameable/AgTokenSideChainMultiBridgeNameable.sol:AgTokenSideChainMultiBridgeNameable",
            "label": "limit",
            "offset": 0,
            "slot": "0",
            "type": "t_uint256"
          },
          {
            "astId": 7767,
            "contract": "contracts/agToken/nameable/AgTokenSideChainMultiBridgeNameable.sol:AgTokenSideChainMultiBridgeNameable",
            "label": "hourlyLimit",
            "offset": 0,
            "slot": "1",
            "type": "t_uint256"
          },
          {
            "astId": 7769,
            "contract": "contracts/agToken/nameable/AgTokenSideChainMultiBridgeNameable.sol:AgTokenSideChainMultiBridgeNameable",
            "label": "fee",
            "offset": 0,
            "slot": "2",
            "type": "t_uint64"
          },
          {
            "astId": 7771,
            "contract": "contracts/agToken/nameable/AgTokenSideChainMultiBridgeNameable.sol:AgTokenSideChainMultiBridgeNameable",
            "label": "allowed",
            "offset": 8,
            "slot": "2",
            "type": "t_bool"
          },
          {
            "astId": 7773,
            "contract": "contracts/agToken/nameable/AgTokenSideChainMultiBridgeNameable.sol:AgTokenSideChainMultiBridgeNameable",
            "label": "paused",
            "offset": 9,
            "slot": "2",
            "type": "t_bool"
          }
        ],
        "numberOfBytes": "96"
      },
      "t_struct(Counter)2534_storage": {
        "encoding": "inplace",
        "label": "struct CountersUpgradeable.Counter",
        "members": [
          {
            "astId": 2533,
            "contract": "contracts/agToken/nameable/AgTokenSideChainMultiBridgeNameable.sol:AgTokenSideChainMultiBridgeNameable",
            "label": "_value",
            "offset": 0,
            "slot": "0",
            "type": "t_uint256"
          }
        ],
        "numberOfBytes": "32"
      },
      "t_uint256": {
        "encoding": "inplace",
        "label": "uint256",
        "numberOfBytes": "32"
      },
      "t_uint64": {
        "encoding": "inplace",
        "label": "uint64",
        "numberOfBytes": "8"
      },
      "t_uint8": {
        "encoding": "inplace",
        "label": "uint8",
        "numberOfBytes": "1"
      }
    }
  }
}