{
  "address": "0x5adDc89785D75C86aB939E9e15bfBBb7Fc086A87",
  "abi": [
    {
      "inputs": [],
      "stateMutability": "nonpayable",
      "type": "constructor"
    },
    {
      "inputs": [],
      "name": "AlreadyVaultManager",
      "type": "error"
    },
    {
      "inputs": [],
      "name": "InvalidAddress",
      "type": "error"
    },
    {
      "inputs": [],
      "name": "InvalidTreasury",
      "type": "error"
    },
    {
      "inputs": [],
      "name": "NotCore",
      "type": "error"
    },
    {
      "inputs": [],
      "name": "NotGovernor",
      "type": "error"
    },
    {
      "inputs": [],
      "name": "NotVaultManager",
      "type": "error"
    },
    {
      "inputs": [],
      "name": "RightsNotRemoved",
      "type": "error"
    },
    {
      "inputs": [],
      "name": "TooBigAmount",
      "type": "error"
    },
    {
      "inputs": [],
      "name": "TooHighParameterValue",
      "type": "error"
    },
    {
      "inputs": [],
      "name": "ZeroAddress",
      "type": "error"
    },
    {
      "anonymous": false,
      "inputs": [
        {
          "indexed": false,
          "internalType": "uint256",
          "name": "badDebtValue",
          "type": "uint256"
        }
      ],
      "name": "BadDebtUpdated",
      "type": "event"
    },
    {
      "anonymous": false,
      "inputs": [
        {
          "indexed": true,
          "internalType": "address",
          "name": "_core",
          "type": "address"
        }
      ],
      "name": "CoreUpdated",
      "type": "event"
    },
    {
      "anonymous": false,
      "inputs": [
        {
          "indexed": false,
          "internalType": "uint8",
          "name": "version",
          "type": "uint8"
        }
      ],
      "name": "Initialized",
      "type": "event"
    },
    {
      "anonymous": false,
      "inputs": [
        {
          "indexed": true,
          "internalType": "address",
          "name": "_treasury",
          "type": "address"
        }
      ],
      "name": "NewTreasurySet",
      "type": "event"
    },
    {
      "anonymous": false,
      "inputs": [
        {
          "indexed": true,
          "internalType": "address",
          "name": "token",
          "type": "address"
        },
        {
          "indexed": true,
          "internalType": "address",
          "name": "to",
          "type": "address"
        },
        {
          "indexed": false,
          "internalType": "uint256",
          "name": "amount",
          "type": "uint256"
        }
      ],
      "name": "Recovered",
      "type": "event"
    },
    {
      "anonymous": false,
      "inputs": [
        {
          "indexed": false,
          "internalType": "uint256",
          "name": "surplusBufferValue",
          "type": "uint256"
        }
      ],
      "name": "SurplusBufferUpdated",
      "type": "event"
    },
    {
      "anonymous": false,
      "inputs": [
        {
          "indexed": false,
          "internalType": "uint64",
          "name": "_surplusForGovernance",
          "type": "uint64"
        }
      ],
      "name": "SurplusForGovernanceUpdated",
      "type": "event"
    },
    {
      "anonymous": false,
      "inputs": [
        {
          "indexed": true,
          "internalType": "address",
          "name": "_surplusManager",
          "type": "address"
        }
      ],
      "name": "SurplusManagerUpdated",
      "type": "event"
    },
    {
      "anonymous": false,
      "inputs": [
        {
          "indexed": true,
          "internalType": "address",
          "name": "vaultManager",
          "type": "address"
        }
      ],
      "name": "VaultManagerToggled",
      "type": "event"
    },
    {
      "inputs": [],
      "name": "BASE_PARAMS",
      "outputs": [
        {
          "internalType": "uint256",
          "name": "",
          "type": "uint256"
        }
      ],
      "stateMutability": "view",
      "type": "function"
    },
    {
      "inputs": [
        {
          "internalType": "address",
          "name": "minter",
          "type": "address"
        }
      ],
      "name": "addMinter",
      "outputs": [],
      "stateMutability": "nonpayable",
      "type": "function"
    },
    {
      "inputs": [
        {
          "internalType": "address",
          "name": "vaultManager",
          "type": "address"
        }
      ],
      "name": "addVaultManager",
      "outputs": [],
      "stateMutability": "nonpayable",
      "type": "function"
    },
    {
      "inputs": [],
      "name": "badDebt",
      "outputs": [
        {
          "internalType": "uint256",
          "name": "",
          "type": "uint256"
        }
      ],
      "stateMutability": "view",
      "type": "function"
    },
    {
      "inputs": [],
      "name": "core",
      "outputs": [
        {
          "internalType": "contract ICoreBorrow",
          "name": "",
          "type": "address"
        }
      ],
      "stateMutability": "view",
      "type": "function"
    },
    {
      "inputs": [],
      "name": "fetchSurplusFromAll",
      "outputs": [
        {
          "internalType": "uint256",
          "name": "",
          "type": "uint256"
        },
        {
          "internalType": "uint256",
          "name": "",
          "type": "uint256"
        }
      ],
      "stateMutability": "nonpayable",
      "type": "function"
    },
    {
      "inputs": [],
      "name": "fetchSurplusFromFlashLoan",
      "outputs": [
        {
          "internalType": "uint256",
          "name": "",
          "type": "uint256"
        },
        {
          "internalType": "uint256",
          "name": "",
          "type": "uint256"
        }
      ],
      "stateMutability": "nonpayable",
      "type": "function"
    },
    {
      "inputs": [],
      "name": "flashLoanModule",
      "outputs": [
        {
          "internalType": "contract IFlashAngle",
          "name": "",
          "type": "address"
        }
      ],
      "stateMutability": "view",
      "type": "function"
    },
    {
      "inputs": [
        {
          "internalType": "contract ICoreBorrow",
          "name": "_core",
          "type": "address"
        },
        {
          "internalType": "contract IAgToken",
          "name": "_stablecoin",
          "type": "address"
        }
      ],
      "name": "initialize",
      "outputs": [],
      "stateMutability": "nonpayable",
      "type": "function"
    },
    {
      "inputs": [
        {
          "internalType": "address",
          "name": "admin",
          "type": "address"
        }
      ],
      "name": "isGovernor",
      "outputs": [
        {
          "internalType": "bool",
          "name": "",
          "type": "bool"
        }
      ],
      "stateMutability": "view",
      "type": "function"
    },
    {
      "inputs": [
        {
          "internalType": "address",
          "name": "admin",
          "type": "address"
        }
      ],
      "name": "isGovernorOrGuardian",
      "outputs": [
        {
          "internalType": "bool",
          "name": "",
          "type": "bool"
        }
      ],
      "stateMutability": "view",
      "type": "function"
    },
    {
      "inputs": [
        {
          "internalType": "address",
          "name": "_vaultManager",
          "type": "address"
        }
      ],
      "name": "isVaultManager",
      "outputs": [
        {
          "internalType": "bool",
          "name": "",
          "type": "bool"
        }
      ],
      "stateMutability": "view",
      "type": "function"
    },
    {
      "inputs": [],
      "name": "pushSurplus",
      "outputs": [
        {
          "internalType": "uint256",
          "name": "governanceAllocation",
          "type": "uint256"
        }
      ],
      "stateMutability": "nonpayable",
      "type": "function"
    },
    {
      "inputs": [
        {
          "internalType": "address",
          "name": "tokenAddress",
          "type": "address"
        },
        {
          "internalType": "address",
          "name": "to",
          "type": "address"
        },
        {
          "internalType": "uint256",
          "name": "amountToRecover",
          "type": "uint256"
        }
      ],
      "name": "recoverERC20",
      "outputs": [],
      "stateMutability": "nonpayable",
      "type": "function"
    },
    {
      "inputs": [
        {
          "internalType": "address",
          "name": "minter",
          "type": "address"
        }
      ],
      "name": "removeMinter",
      "outputs": [],
      "stateMutability": "nonpayable",
      "type": "function"
    },
    {
      "inputs": [
        {
          "internalType": "address",
          "name": "vaultManager",
          "type": "address"
        }
      ],
      "name": "removeVaultManager",
      "outputs": [],
      "stateMutability": "nonpayable",
      "type": "function"
    },
    {
      "inputs": [
        {
          "internalType": "contract ICoreBorrow",
          "name": "_core",
          "type": "address"
        }
      ],
      "name": "setCore",
      "outputs": [],
      "stateMutability": "nonpayable",
      "type": "function"
    },
    {
      "inputs": [
        {
          "internalType": "address",
          "name": "_flashLoanModule",
          "type": "address"
        }
      ],
      "name": "setFlashLoanModule",
      "outputs": [],
      "stateMutability": "nonpayable",
      "type": "function"
    },
    {
      "inputs": [
        {
          "internalType": "uint64",
          "name": "_surplusForGovernance",
          "type": "uint64"
        }
      ],
      "name": "setSurplusForGovernance",
      "outputs": [],
      "stateMutability": "nonpayable",
      "type": "function"
    },
    {
      "inputs": [
        {
          "internalType": "address",
          "name": "_surplusManager",
          "type": "address"
        }
      ],
      "name": "setSurplusManager",
      "outputs": [],
      "stateMutability": "nonpayable",
      "type": "function"
    },
    {
      "inputs": [
        {
          "internalType": "address",
          "name": "_treasury",
          "type": "address"
        }
      ],
      "name": "setTreasury",
      "outputs": [],
      "stateMutability": "nonpayable",
      "type": "function"
    },
    {
      "inputs": [],
      "name": "stablecoin",
      "outputs": [
        {
          "internalType": "contract IAgToken",
          "name": "",
          "type": "address"
        }
      ],
      "stateMutability": "view",
      "type": "function"
    },
    {
      "inputs": [],
      "name": "surplusBuffer",
      "outputs": [
        {
          "internalType": "uint256",
          "name": "",
          "type": "uint256"
        }
      ],
      "stateMutability": "view",
      "type": "function"
    },
    {
      "inputs": [],
      "name": "surplusForGovernance",
      "outputs": [
        {
          "internalType": "uint64",
          "name": "",
          "type": "uint64"
        }
      ],
      "stateMutability": "view",
      "type": "function"
    },
    {
      "inputs": [],
      "name": "surplusManager",
      "outputs": [
        {
          "internalType": "address",
          "name": "",
          "type": "address"
        }
      ],
      "stateMutability": "view",
      "type": "function"
    },
    {
      "inputs": [
        {
          "internalType": "uint256",
          "name": "amount",
          "type": "uint256"
        }
      ],
      "name": "updateBadDebt",
      "outputs": [
        {
          "internalType": "uint256",
          "name": "badDebtValue",
          "type": "uint256"
        }
      ],
      "stateMutability": "nonpayable",
      "type": "function"
    },
    {
      "inputs": [
        {
          "internalType": "uint256",
          "name": "",
          "type": "uint256"
        }
      ],
      "name": "vaultManagerList",
      "outputs": [
        {
          "internalType": "address",
          "name": "",
          "type": "address"
        }
      ],
      "stateMutability": "view",
      "type": "function"
    },
    {
      "inputs": [
        {
          "internalType": "address",
          "name": "",
          "type": "address"
        }
      ],
      "name": "vaultManagerMap",
      "outputs": [
        {
          "internalType": "uint256",
          "name": "",
          "type": "uint256"
        }
      ],
      "stateMutability": "view",
      "type": "function"
    }
  ],
  "transactionHash": "0x547c5c892c2bfefab9d676c3492b3a24391b12551753904cd2f8647f9a91d92c",
  "args": [],
  "numDeployments": 1,
  "solcInputHash": "c606e725ea45ecbe7e658f2c49b9df15",
  "bytecode": "0x60806040523480156200001157600080fd5b50600054610100900460ff1615808015620000335750600054600160ff909116105b8062000063575062000050306200013d60201b620022a91760201c565b15801562000063575060005460ff166001145b620000cb5760405162461bcd60e51b815260206004820152602e60248201527f496e697469616c697a61626c653a20636f6e747261637420697320616c72656160448201526d191e481a5b9a5d1a585b1a5e995960921b606482015260840160405180910390fd5b6000805460ff191660011790558015620000ef576000805461ff0019166101001790555b801562000136576000805461ff0019169055604051600181527f7f26b83ff96e1f2b6a682f133852f6798a09c465da95921460cefb38474024989060200160405180910390a15b506200014c565b6001600160a01b03163b151590565b612e20806200015c6000396000f3fe608060405234801561001057600080fd5b50600436106101c45760003560e01c8063676a553e116100f9578063bbcac55711610097578063e9cbd82211610071578063e9cbd8221461040d578063f0f442601461042d578063f2f4eb2614610440578063f5ec243c1461046657600080fd5b8063bbcac557146103de578063df486819146103e7578063e43581b8146103fa57600080fd5b8063959d5a01116100d3578063959d5a0114610368578063983b2d56146103ad5780639f48118f146103c0578063a9462410146103cb57600080fd5b8063676a553e146102fc5780638000963014610335578063891102351461034857600080fd5b80633092afd5116101665780635290e6a6116101405780635290e6a6146102bb5780635c77f285146102ce5780635e654522146102d65780635f80fcad146102e957600080fd5b80633092afd514610272578063485cc95514610285578063521d4de91461029857600080fd5b806319106b67116101a257806319106b671461022157806321c29f92146102295780632a608d5b1461023c5780632f15caed1461024557600080fd5b80630d45456d146101c95780631171bda9146101eb578063137f3b0a14610200575b600080fd5b6101d1610486565b604080519283526020830191909152015b60405180910390f35b6101fe6101f9366004612a8a565b610499565b005b61021361020e366004612acb565b6107a0565b6040519081526020016101e2565b610213610879565b6101fe610237366004612ae4565b6109e1565b61021360075481565b6008546102599067ffffffffffffffff1681565b60405167ffffffffffffffff90911681526020016101e2565b6101fe610280366004612ae4565b610baf565b6101fe610293366004612b01565b610d65565b6102ab6102a6366004612ae4565b610fe0565b60405190151581526020016101e2565b6101fe6102c9366004612ae4565b611083565b6101d16113f6565b6101fe6102e4366004612b3a565b6114b9565b6101fe6102f7366004612ae4565b61163b565b6102ab61030a366004612ae4565b73ffffffffffffffffffffffffffffffffffffffff1660009081526005602052604090205460011490565b6101fe610343366004612ae4565b611939565b610213610356366004612ae4565b60056020526000908152604090205481565b6001546103889073ffffffffffffffffffffffffffffffffffffffff1681565b60405173ffffffffffffffffffffffffffffffffffffffff90911681526020016101e2565b6101fe6103bb366004612ae4565b611b3f565b610213633b9aca0081565b6101fe6103d9366004612ae4565b611cb1565b61021360065481565b6103886103f5366004612acb565b611e3a565b6102ab610408366004612ae4565b611e71565b6002546103889073ffffffffffffffffffffffffffffffffffffffff1681565b6101fe61043b366004612ae4565b611ed1565b6000546103889062010000900473ffffffffffffffffffffffffffffffffffffffff1681565b6003546103889073ffffffffffffffffffffffffffffffffffffffff1681565b6000806104916122c5565b915091509091565b6000546040517fe43581b80000000000000000000000000000000000000000000000000000000081523360048201526201000090910473ffffffffffffffffffffffffffffffffffffffff169063e43581b890602401602060405180830381865afa15801561050c573d6000803e3d6000fd5b505050506040513d601f19601f820116820180604052508101906105309190612b64565b610566576040517fee3675d400000000000000000000000000000000000000000000000000000000815260040160405180910390fd5b60025473ffffffffffffffffffffffffffffffffffffffff84811691161415610713576105916122c5565b50506002546040517f70a0823100000000000000000000000000000000000000000000000000000000815230600482015260009173ffffffffffffffffffffffffffffffffffffffff16906370a0823190602401602060405180830381865afa158015610602573d6000803e3d6000fd5b505050506040513d601f19601f820116820180604052508101906106269190612b86565b905080600754836106379190612bce565b111561066f576040517ff7432d9600000000000000000000000000000000000000000000000000000000815260040160405180910390fd5b6002546040517fa9059cbb00000000000000000000000000000000000000000000000000000000815273ffffffffffffffffffffffffffffffffffffffff8581166004830152602482018590529091169063a9059cbb906044016020604051808303816000875af11580156106e8573d6000803e3d6000fd5b505050506040513d601f19601f8201168201806040525081019061070c9190612b64565b5050610734565b61073473ffffffffffffffffffffffffffffffffffffffff84168383612413565b8173ffffffffffffffffffffffffffffffffffffffff168373ffffffffffffffffffffffffffffffffffffffff167ffff3b3844276f57024e0b42afec1a37f75db36511e43819a4f2a63ab7862b6488360405161079391815260200190565b60405180910390a3505050565b6002546040517f2b471d8e0000000000000000000000000000000000000000000000000000000081526004810183905230602482015260009173ffffffffffffffffffffffffffffffffffffffff1690632b471d8e90604401600060405180830381600087803b15801561081357600080fd5b505af1158015610827573d6000803e3d6000fd5b50505050816006546108399190612be6565b60068190556040518181529091507f6ec1ccf63c33130734196ff1971d19a46a2b28ce37b81f90ea52f4311319203f9060200160405180910390a1919050565b60035460009073ffffffffffffffffffffffffffffffffffffffff16806108cc576040517fd92e233d00000000000000000000000000000000000000000000000000000000815260040160405180910390fd5b60006108d66122c5565b50600060078190556040519081529091507f2f439c0500f79f2f3322b3665dcdaaa6967182caf9916f6ce2c64f296e609ed29060200160405180910390a1600854633b9aca009061093290839067ffffffffffffffff16612bfd565b61093c9190612c3a565b6002546040517fa9059cbb00000000000000000000000000000000000000000000000000000000815273ffffffffffffffffffffffffffffffffffffffff85811660048301526024820184905292955091169063a9059cbb906044016020604051808303816000875af11580156109b7573d6000803e3d6000fd5b505050506040513d601f19601f820116820180604052508101906109db9190612b64565b50505090565b60005462010000900473ffffffffffffffffffffffffffffffffffffffff163314610a38576040517fe2aae06b00000000000000000000000000000000000000000000000000000000815260040160405180910390fd5b6001805473ffffffffffffffffffffffffffffffffffffffff8381167fffffffffffffffffffffffff0000000000000000000000000000000000000000831617909255168015610b08576002546040517f3092afd500000000000000000000000000000000000000000000000000000000815273ffffffffffffffffffffffffffffffffffffffff838116600483015290911690633092afd590602401600060405180830381600087803b158015610aef57600080fd5b505af1158015610b03573d6000803e3d6000fd5b505050505b73ffffffffffffffffffffffffffffffffffffffff821615610bab576002546040517f983b2d5600000000000000000000000000000000000000000000000000000000815273ffffffffffffffffffffffffffffffffffffffff84811660048301529091169063983b2d56906024015b600060405180830381600087803b158015610b9257600080fd5b505af1158015610ba6573d6000803e3d6000fd5b505050505b5050565b6000546040517fe43581b80000000000000000000000000000000000000000000000000000000081523360048201526201000090910473ffffffffffffffffffffffffffffffffffffffff169063e43581b890602401602060405180830381865afa158015610c22573d6000803e3d6000fd5b505050506040513d601f19601f82011682018060405250810190610c469190612b64565b610c7c576040517fee3675d400000000000000000000000000000000000000000000000000000000815260040160405180910390fd5b73ffffffffffffffffffffffffffffffffffffffff811660009081526005602052604090205460011415610cdc576040517fe6c4247b00000000000000000000000000000000000000000000000000000000815260040160405180910390fd5b6002546040517f3092afd500000000000000000000000000000000000000000000000000000000815273ffffffffffffffffffffffffffffffffffffffff838116600483015290911690633092afd5906024015b600060405180830381600087803b158015610d4a57600080fd5b505af1158015610d5e573d6000803e3d6000fd5b5050505050565b600054610100900460ff1615808015610d855750600054600160ff909116105b80610d9f5750303b158015610d9f575060005460ff166001145b610e30576040517f08c379a000000000000000000000000000000000000000000000000000000000815260206004820152602e60248201527f496e697469616c697a61626c653a20636f6e747261637420697320616c72656160448201527f647920696e697469616c697a656400000000000000000000000000000000000060648201526084015b60405180910390fd5b600080547fffffffffffffffffffffffffffffffffffffffffffffffffffffffffffffff001660011790558015610e8e57600080547fffffffffffffffffffffffffffffffffffffffffffffffffffffffffffff00ff166101001790555b73ffffffffffffffffffffffffffffffffffffffff82161580610ec5575073ffffffffffffffffffffffffffffffffffffffff8316155b15610efc576040517fd92e233d00000000000000000000000000000000000000000000000000000000815260040160405180910390fd5b600080547fffffffffffffffffffff0000000000000000000000000000000000000000ffff166201000073ffffffffffffffffffffffffffffffffffffffff8681169190910291909117909155600280547fffffffffffffffffffffffff0000000000000000000000000000000000000000169184169190911790558015610fdb57600080547fffffffffffffffffffffffffffffffffffffffffffffffffffffffffffff00ff169055604051600181527f7f26b83ff96e1f2b6a682f133852f6798a09c465da95921460cefb38474024989060200160405180910390a15b505050565b600080546040517f521d4de900000000000000000000000000000000000000000000000000000000815273ffffffffffffffffffffffffffffffffffffffff8481166004830152620100009092049091169063521d4de9906024015b602060405180830381865afa158015611059573d6000803e3d6000fd5b505050506040513d601f19601f8201168201806040525081019061107d9190612b64565b92915050565b6000546040517fe43581b80000000000000000000000000000000000000000000000000000000081523360048201526201000090910473ffffffffffffffffffffffffffffffffffffffff169063e43581b890602401602060405180830381865afa1580156110f6573d6000803e3d6000fd5b505050506040513d601f19601f8201168201806040525081019061111a9190612b64565b611150576040517fee3675d400000000000000000000000000000000000000000000000000000000815260040160405180910390fd5b73ffffffffffffffffffffffffffffffffffffffff81166000908152600560205260409020546001146111af576040517f027f480700000000000000000000000000000000000000000000000000000000815260040160405180910390fd5b73ffffffffffffffffffffffffffffffffffffffff81166000908152600560205260408120819055600454905b6111e7600183612be6565b8110156112f3578273ffffffffffffffffffffffffffffffffffffffff166004828154811061121857611218612c75565b60009182526020909120015473ffffffffffffffffffffffffffffffffffffffff1614156112e357600461124d600184612be6565b8154811061125d5761125d612c75565b6000918252602090912001546004805473ffffffffffffffffffffffffffffffffffffffff909216918390811061129657611296612c75565b9060005260206000200160006101000a81548173ffffffffffffffffffffffffffffffffffffffff021916908373ffffffffffffffffffffffffffffffffffffffff1602179055506112f3565b6112ec81612ca4565b90506111dc565b50600480548061130557611305612cdd565b60008281526020812082017fffffffffffffffffffffffffffffffffffffffffffffffffffffffffffffffff90810180547fffffffffffffffffffffffff000000000000000000000000000000000000000016905590910190915560405173ffffffffffffffffffffffffffffffffffffffff8416917ff1e53200c691f394b84864158f7d32772fed29ce025460533f94d6b5ef66906491a26002546040517f3092afd500000000000000000000000000000000000000000000000000000000815273ffffffffffffffffffffffffffffffffffffffff848116600483015290911690633092afd590602401610b78565b6001546002546040517f96337bd500000000000000000000000000000000000000000000000000000000815273ffffffffffffffffffffffffffffffffffffffff9182166004820152600092839283929116906396337bd5906024016020604051808303816000875af1158015611471573d6000803e3d6000fd5b505050506040513d601f19601f820116820180604052508101906114959190612b86565b6007546114a29190612bce565b90506114b0816006546124a0565b92509250509091565b6000546040517fe43581b80000000000000000000000000000000000000000000000000000000081523360048201526201000090910473ffffffffffffffffffffffffffffffffffffffff169063e43581b890602401602060405180830381865afa15801561152c573d6000803e3d6000fd5b505050506040513d601f19601f820116820180604052508101906115509190612b64565b611586576040517fee3675d400000000000000000000000000000000000000000000000000000000815260040160405180910390fd5b633b9aca008167ffffffffffffffff1611156115ce576040517feca1d2c600000000000000000000000000000000000000000000000000000000815260040160405180910390fd5b600880547fffffffffffffffffffffffffffffffffffffffffffffffff00000000000000001667ffffffffffffffff83169081179091556040519081527fe4c9afce87963212e0d33e6b4b43fee7103b8c57228620e450e5064b95ee08ec9060200160405180910390a150565b6000546040517fe43581b80000000000000000000000000000000000000000000000000000000081523360048201526201000090910473ffffffffffffffffffffffffffffffffffffffff169063e43581b890602401602060405180830381865afa1580156116ae573d6000803e3d6000fd5b505050506040513d601f19601f820116820180604052508101906116d29190612b64565b611708576040517fee3675d400000000000000000000000000000000000000000000000000000000815260040160405180910390fd5b73ffffffffffffffffffffffffffffffffffffffff811660009081526005602052604090205460011415611768576040517fc357636900000000000000000000000000000000000000000000000000000000815260040160405180910390fd5b3073ffffffffffffffffffffffffffffffffffffffff168173ffffffffffffffffffffffffffffffffffffffff166361d027b36040518163ffffffff1660e01b8152600401602060405180830381865afa1580156117ca573d6000803e3d6000fd5b505050506040513d601f19601f820116820180604052508101906117ee9190612d0c565b73ffffffffffffffffffffffffffffffffffffffff161461183b576040517f14bcf5c800000000000000000000000000000000000000000000000000000000815260040160405180910390fd5b73ffffffffffffffffffffffffffffffffffffffff811660008181526005602052604080822060019081905560048054918201815583527f8a35acfbc15ff81a39ae7d344fd709f28e8600b4aa8c65c6b64bfe7fe36bd19b0180547fffffffffffffffffffffffff00000000000000000000000000000000000000001684179055517ff1e53200c691f394b84864158f7d32772fed29ce025460533f94d6b5ef6690649190a26002546040517f983b2d5600000000000000000000000000000000000000000000000000000000815273ffffffffffffffffffffffffffffffffffffffff83811660048301529091169063983b2d5690602401610d30565b6000546040517fe43581b80000000000000000000000000000000000000000000000000000000081523360048201526201000090910473ffffffffffffffffffffffffffffffffffffffff169063e43581b890602401602060405180830381865afa1580156119ac573d6000803e3d6000fd5b505050506040513d601f19601f820116820180604052508101906119d09190612b64565b611a06576040517fee3675d400000000000000000000000000000000000000000000000000000000815260040160405180910390fd5b6040517fe43581b800000000000000000000000000000000000000000000000000000000815233600482015273ffffffffffffffffffffffffffffffffffffffff82169063e43581b890602401602060405180830381865afa158015611a70573d6000803e3d6000fd5b505050506040513d601f19601f82011682018060405250810190611a949190612b64565b611aca576040517fee3675d400000000000000000000000000000000000000000000000000000000815260040160405180910390fd5b600080547fffffffffffffffffffff0000000000000000000000000000000000000000ffff166201000073ffffffffffffffffffffffffffffffffffffffff841690810291909117825560405190917f0c9c0f914e121785e2cd2269d6698bc11f59a50b85ef9aa1197fb4ddb96c4e5691a250565b6000546040517fe43581b80000000000000000000000000000000000000000000000000000000081523360048201526201000090910473ffffffffffffffffffffffffffffffffffffffff169063e43581b890602401602060405180830381865afa158015611bb2573d6000803e3d6000fd5b505050506040513d601f19601f82011682018060405250810190611bd69190612b64565b611c0c576040517fee3675d400000000000000000000000000000000000000000000000000000000815260040160405180910390fd5b73ffffffffffffffffffffffffffffffffffffffff8116611c59576040517fd92e233d00000000000000000000000000000000000000000000000000000000815260040160405180910390fd5b6002546040517f983b2d5600000000000000000000000000000000000000000000000000000000815273ffffffffffffffffffffffffffffffffffffffff83811660048301529091169063983b2d5690602401610d30565b6000546040517fe43581b80000000000000000000000000000000000000000000000000000000081523360048201526201000090910473ffffffffffffffffffffffffffffffffffffffff169063e43581b890602401602060405180830381865afa158015611d24573d6000803e3d6000fd5b505050506040513d601f19601f82011682018060405250810190611d489190612b64565b611d7e576040517fee3675d400000000000000000000000000000000000000000000000000000000815260040160405180910390fd5b73ffffffffffffffffffffffffffffffffffffffff8116611dcb576040517fd92e233d00000000000000000000000000000000000000000000000000000000815260040160405180910390fd5b600380547fffffffffffffffffffffffff00000000000000000000000000000000000000001673ffffffffffffffffffffffffffffffffffffffff83169081179091556040517f8e34f87614920d3825860be957926690888c7cb9ed7fb5ec457edaaad64bd28c90600090a250565b60048181548110611e4a57600080fd5b60009182526020909120015473ffffffffffffffffffffffffffffffffffffffff16905081565b600080546040517fe43581b800000000000000000000000000000000000000000000000000000000815273ffffffffffffffffffffffffffffffffffffffff8481166004830152620100009092049091169063e43581b89060240161103c565b6000546040517fe43581b80000000000000000000000000000000000000000000000000000000081523360048201526201000090910473ffffffffffffffffffffffffffffffffffffffff169063e43581b890602401602060405180830381865afa158015611f44573d6000803e3d6000fd5b505050506040513d601f19601f82011682018060405250810190611f689190612b64565b611f9e576040517fee3675d400000000000000000000000000000000000000000000000000000000815260040160405180910390fd5b600254604080517fe9cbd822000000000000000000000000000000000000000000000000000000008152905173ffffffffffffffffffffffffffffffffffffffff9283169284169163e9cbd8229160048083019260209291908290030181865afa158015612010573d6000803e3d6000fd5b505050506040513d601f19601f820116820180604052508101906120349190612d0c565b73ffffffffffffffffffffffffffffffffffffffff1614612081576040517f14bcf5c800000000000000000000000000000000000000000000000000000000815260040160405180910390fd5b6000546040517ff02dd8a20000000000000000000000000000000000000000000000000000000081523060048201526201000090910473ffffffffffffffffffffffffffffffffffffffff169063f02dd8a290602401602060405180830381865afa1580156120f4573d6000803e3d6000fd5b505050506040513d601f19601f820116820180604052508101906121189190612b64565b1561214f576040517f87c4c6b500000000000000000000000000000000000000000000000000000000815260040160405180910390fd5b60405173ffffffffffffffffffffffffffffffffffffffff8216907fa74e71df5980104def7b321d0fa7d4b885191d40a2ae420acb543c3eba54253290600090a260045460005b8181101561225057600481815481106121b1576121b1612c75565b6000918252602090912001546040517ff0f4426000000000000000000000000000000000000000000000000000000000815273ffffffffffffffffffffffffffffffffffffffff85811660048301529091169063f0f4426090602401600060405180830381600087803b15801561222757600080fd5b505af115801561223b573d6000803e3d6000fd5b505050508061224990612ca4565b9050612196565b506002546040517ff0f4426000000000000000000000000000000000000000000000000000000000815273ffffffffffffffffffffffffffffffffffffffff84811660048301529091169063f0f4426090602401610b78565b73ffffffffffffffffffffffffffffffffffffffff163b151590565b600080612338600480548060200260200160405190810160405280929190818152602001828054801561232e57602002820191906000526020600020905b815473ffffffffffffffffffffffffffffffffffffffff168152600190910190602001808311612303575b505050505061267e565b600154919350915073ffffffffffffffffffffffffffffffffffffffff1615612400576001546002546040517f96337bd500000000000000000000000000000000000000000000000000000000815273ffffffffffffffffffffffffffffffffffffffff91821660048201529116906396337bd5906024016020604051808303816000875af11580156123cf573d6000803e3d6000fd5b505050506040513d601f19601f820116820180604052508101906123f39190612b86565b6123fd9083612bce565b91505b61240a82826124a0565b90939092509050565b6040805173ffffffffffffffffffffffffffffffffffffffff8416602482015260448082018490528251808303909101815260649091019091526020810180517bffffffffffffffffffffffffffffffffffffffffffffffffffffffff167fa9059cbb00000000000000000000000000000000000000000000000000000000179052610fdb908490612757565b6000808215612606576002546040517f70a0823100000000000000000000000000000000000000000000000000000000815230600482015260009173ffffffffffffffffffffffffffffffffffffffff16906370a0823190602401602060405180830381865afa158015612518573d6000803e3d6000fd5b505050506040513d601f19601f8201168201806040525081019061253c9190612b86565b905060008482111561254e5784612550565b815b6002546040517f2b471d8e0000000000000000000000000000000000000000000000000000000081526004810183905230602482015291925073ffffffffffffffffffffffffffffffffffffffff1690632b471d8e90604401600060405180830381600087803b1580156125c357600080fd5b505af11580156125d7573d6000803e3d6000fd5b50505050858110156125f2576125ed8187612be6565b6125f5565b60005b95506126018186612be6565b945050505b600784905560068390556040518481527f2f439c0500f79f2f3322b3665dcdaaa6967182caf9916f6ce2c64f296e609ed29060200160405180910390a16040518381527f6ec1ccf63c33130734196ff1971d19a46a2b28ce37b81f90ea52f4311319203f9060200160405180910390a1509192909150565b60065460075482519091906000908190815b8181101561274e578681815181106126aa576126aa612c75565b602002602001015173ffffffffffffffffffffffffffffffffffffffff1663fd527cf86040518163ffffffff1660e01b815260040160408051808303816000875af11580156126fd573d6000803e3d6000fd5b505050506040513d601f19601f820116820180604052508101906127219190612d29565b90945092506127308487612bce565b955061273c8386612bce565b945061274781612ca4565b9050612690565b50505050915091565b60006127b9826040518060400160405280602081526020017f5361666545524332303a206c6f772d6c6576656c2063616c6c206661696c65648152508573ffffffffffffffffffffffffffffffffffffffff166128639092919063ffffffff16565b805190915015610fdb57808060200190518101906127d79190612b64565b610fdb576040517f08c379a000000000000000000000000000000000000000000000000000000000815260206004820152602a60248201527f5361666545524332303a204552433230206f7065726174696f6e20646964206e60448201527f6f742073756363656564000000000000000000000000000000000000000000006064820152608401610e27565b6060612872848460008561287c565b90505b9392505050565b60608247101561290e576040517f08c379a000000000000000000000000000000000000000000000000000000000815260206004820152602660248201527f416464726573733a20696e73756666696369656e742062616c616e636520666f60448201527f722063616c6c00000000000000000000000000000000000000000000000000006064820152608401610e27565b73ffffffffffffffffffffffffffffffffffffffff85163b61298c576040517f08c379a000000000000000000000000000000000000000000000000000000000815260206004820152601d60248201527f416464726573733a2063616c6c20746f206e6f6e2d636f6e74726163740000006044820152606401610e27565b6000808673ffffffffffffffffffffffffffffffffffffffff1685876040516129b59190612d7d565b60006040518083038185875af1925050503d80600081146129f2576040519150601f19603f3d011682016040523d82523d6000602084013e6129f7565b606091505b5091509150612a07828286612a12565b979650505050505050565b60608315612a21575081612875565b825115612a315782518084602001fd5b816040517f08c379a0000000000000000000000000000000000000000000000000000000008152600401610e279190612d99565b73ffffffffffffffffffffffffffffffffffffffff81168114612a8757600080fd5b50565b600080600060608486031215612a9f57600080fd5b8335612aaa81612a65565b92506020840135612aba81612a65565b929592945050506040919091013590565b600060208284031215612add57600080fd5b5035919050565b600060208284031215612af657600080fd5b813561287581612a65565b60008060408385031215612b1457600080fd5b8235612b1f81612a65565b91506020830135612b2f81612a65565b809150509250929050565b600060208284031215612b4c57600080fd5b813567ffffffffffffffff8116811461287557600080fd5b600060208284031215612b7657600080fd5b8151801515811461287557600080fd5b600060208284031215612b9857600080fd5b5051919050565b7f4e487b7100000000000000000000000000000000000000000000000000000000600052601160045260246000fd5b60008219821115612be157612be1612b9f565b500190565b600082821015612bf857612bf8612b9f565b500390565b6000817fffffffffffffffffffffffffffffffffffffffffffffffffffffffffffffffff0483118215151615612c3557612c35612b9f565b500290565b600082612c70577f4e487b7100000000000000000000000000000000000000000000000000000000600052601260045260246000fd5b500490565b7f4e487b7100000000000000000000000000000000000000000000000000000000600052603260045260246000fd5b60007fffffffffffffffffffffffffffffffffffffffffffffffffffffffffffffffff821415612cd657612cd6612b9f565b5060010190565b7f4e487b7100000000000000000000000000000000000000000000000000000000600052603160045260246000fd5b600060208284031215612d1e57600080fd5b815161287581612a65565b60008060408385031215612d3c57600080fd5b505080516020909101519092909150565b60005b83811015612d68578181015183820152602001612d50565b83811115612d77576000848401525b50505050565b60008251612d8f818460208701612d4d565b9190910192915050565b6020815260008251806020840152612db8816040850160208701612d4d565b601f017fffffffffffffffffffffffffffffffffffffffffffffffffffffffffffffffe016919091016040019291505056fea2646970667358221220f91303461e314e356b4670b4bbc72159277c88be35c3ab0e093d0caaadc6de5764736f6c634300080c0033",
  "devdoc": {
    "author": "Angle Labs, Inc.",
    "kind": "dev",
    "methods": {
      "addMinter(address)": {
        "params": {
          "minter": "Minter address to add"
        }
      },
      "addVaultManager(address)": {
        "details": "This contract should have already been initialized with a correct treasury addressIt's this function that gives the minter right to the `VaultManager`",
        "params": {
          "vaultManager": "`VaultManager` contract to add"
        }
      },
      "constructor": {
        "custom:oz-upgrades-unsafe-allow": "constructor"
      },
      "fetchSurplusFromAll()": {
        "details": "This function pools surplus and bad debt across all contracts and then updates the `surplusBuffer` (or the `badDebt` if more losses were made than profits)",
        "returns": {
          "_0": "Surplus buffer value at the end of the call",
          "_1": "Bad debt value at the end of the call"
        }
      },
      "fetchSurplusFromFlashLoan()": {
        "details": "This function fails if the `flashLoanModule` has not been initialized yet",
        "returns": {
          "_0": "Surplus buffer value at the end of the call",
          "_1": "Bad debt value at the end of the call"
        }
      },
      "initialize(address,address)": {
        "params": {
          "_core": "Address of the `CoreBorrow` contract of the module",
          "_stablecoin": "Address of the stablecoin"
        }
      },
      "isGovernor(address)": {
        "details": "Access control is only kept in the `CoreBorrow` contract",
        "params": {
          "admin": "Address to check"
        },
        "returns": {
          "_0": "Whether the address has the governor role"
        }
      },
      "isGovernorOrGuardian(address)": {
        "details": "Access control is only kept in the `CoreBorrow` contract which means that this function queries the `CoreBorrow` contract",
        "params": {
          "admin": "Address to check"
        },
        "returns": {
          "_0": "Whether the address has the guardian or the governor role"
        }
      },
      "isVaultManager(address)": {
        "params": {
          "_vaultManager": "Address to check"
        },
        "returns": {
          "_0": "Whether the address has been initialized or not"
        }
      },
      "pushSurplus()": {
        "details": "It makes sure to fetch the surplus from all the contracts handled by this treasury to avoid the situation where rewards are still distributed to governance even though a `VaultManager` has made a big lossTypically this function is to be called once every week by a keeper to distribute rewards to veANGLE holders`stablecoin` must be an AgToken and hence `transfer` reverts if the call is not successful",
        "returns": {
          "governanceAllocation": "Amount transferred to governance"
        }
      },
      "recoverERC20(address,address,uint256)": {
        "details": "It is impossible to recover the stablecoin of the protocol if there is some bad debt for itIn this case, the function makes sure to fetch the surplus/bad debt from all the `VaultManager` contracts and from the flash loan moduleIf the token to recover is the stablecoin, tokens recovered are fetched from the surplus and not from the `surplusBuffer`",
        "params": {
          "amountToRecover": "Amount of collateral to transfer",
          "to": "Address of the contract to send collateral to",
          "tokenAddress": "Address of the token to recover"
        }
      },
      "removeMinter(address)": {
        "params": {
          "minter": "Minter address to remove"
        }
      },
      "removeVaultManager(address)": {
        "details": "A removed `VaultManager` loses its minter right on the stablecoin",
        "params": {
          "vaultManager": "`VaultManager` contract to remove"
        }
      },
      "setCore(address)": {
        "details": "This function should typically be called on all treasury contracts after the `setCore` function has been called on the `CoreBorrow` contractOne sanity check that can be performed here is to verify whether at least the governor calling the contract is still a governor in the new core"
      },
      "setFlashLoanModule(address)": {
        "details": "This function removes the minting right to the old flash loan module and grants it to the new module",
        "params": {
          "_flashLoanModule": "Reference to the new flash loan module"
        }
      },
      "setSurplusForGovernance(uint64)": {
        "details": "To pause surplus distribution, governance needs to set a zero value for `surplusForGovernance` which means",
        "params": {
          "_surplusForGovernance": "New value of the parameter"
        }
      },
      "setSurplusManager(address)": {
        "params": {
          "_surplusManager": "New address responsible for handling the surplus"
        }
      },
      "setTreasury(address)": {
        "details": "This function is basically a way to remove rights to this contract and grant them to a new oneIt could be used to set a new core contract",
        "params": {
          "_treasury": "New treasury address for this stablecoin"
        }
      },
      "updateBadDebt(uint256)": {
        "details": "If the protocol has made a loss and managed to make some profits to recover for this loss (through a program like Olympus Pro), then this function needs to be called`badDebt` is simply reduced here by burning stablecoinsIt is impossible to burn more than the `badDebt` otherwise this function could be used to manipulate the `surplusBuffer` and hence the amount going to governance",
        "params": {
          "amount": "Amount to reduce the bad debt of"
        },
        "returns": {
          "badDebtValue": "Value of the bad debt at the end of the call"
        }
      }
    },
    "title": "Treasury",
    "version": 1
  },
  "userdoc": {
    "kind": "user",
    "methods": {
      "BASE_PARAMS()": {
        "notice": "Base used for parameter computation"
      },
      "addMinter(address)": {
        "notice": "Adds a new minter for the stablecoin"
      },
      "addVaultManager(address)": {
        "notice": "Adds a new `VaultManager`"
      },
      "badDebt()": {
        "notice": "Amount of bad debt (unbacked stablecoin) accumulated across all `VaultManager` contracts linked to this stablecoin"
      },
      "core()": {
        "notice": "Reference to the `CoreBorrow` contract of the module which handles all AccessControl logic"
      },
      "fetchSurplusFromAll()": {
        "notice": "Fetches the surplus accrued across all the `VaultManager` contracts controlled by this `Treasury` contract as well as from the fees of the `FlashLoan` module"
      },
      "fetchSurplusFromFlashLoan()": {
        "notice": "Fetches the surplus accrued in the flash loan module and updates the `surplusBuffer`"
      },
      "flashLoanModule()": {
        "notice": "Flash Loan Module with a minter right on the stablecoin"
      },
      "initialize(address,address)": {
        "notice": "Initializes the treasury contract"
      },
      "isGovernor(address)": {
        "notice": "Checks whether a given address has the  governor role"
      },
      "isGovernorOrGuardian(address)": {
        "notice": "Checks whether a given address has the guardian or the governor role"
      },
      "isVaultManager(address)": {
        "notice": "Checks whether a given address has well been initialized in this contract as a `VaultManager`"
      },
      "pushSurplus()": {
        "notice": "Pushes the surplus buffer to the `surplusManager` contract"
      },
      "recoverERC20(address,address,uint256)": {
        "notice": "Allows to recover any ERC20 token, including the stablecoin handled by this contract, and to send it to a contract"
      },
      "removeMinter(address)": {
        "notice": "Removes a minter from the stablecoin contract"
      },
      "removeVaultManager(address)": {
        "notice": "Removes a `VaultManager`"
      },
      "setCore(address)": {
        "notice": "Sets a new `core` contract"
      },
      "setFlashLoanModule(address)": {
        "notice": "Sets a new flash loan module for this stablecoin"
      },
      "setSurplusForGovernance(uint64)": {
        "notice": "Sets the `surplusForGovernance` parameter"
      },
      "setSurplusManager(address)": {
        "notice": "Sets the `surplusManager` contract responsible for handling the surplus of the protocol"
      },
      "setTreasury(address)": {
        "notice": "Changes the treasury contract and communicates this change to all `VaultManager` contract"
      },
      "stablecoin()": {
        "notice": "Stablecoin handled by this `treasury` contract"
      },
      "surplusBuffer()": {
        "notice": "Surplus amount accumulated by the contract waiting to be distributed to governance. Technically only a share of this `surplusBuffer` will go to governance. Once a share of the surplus buffer has been given to governance, then this surplus is reset"
      },
      "surplusForGovernance()": {
        "notice": "Share of the `surplusBuffer` distributed to governance (in `BASE_PARAMS`)"
      },
      "surplusManager()": {
        "notice": "Address responsible for handling the surplus made by the treasury"
      },
      "updateBadDebt(uint256)": {
        "notice": "Updates the bad debt of the protocol in case where the protocol has accumulated some revenue from an external source"
      },
      "vaultManagerList(uint256)": {
        "notice": "List of the accepted `VaultManager` of the protocol"
      },
      "vaultManagerMap(address)": {
        "notice": "Maps an address to 1 if it was initialized as a `VaultManager` contract"
      }
    },
    "notice": "Treasury of Angle Borrowing Module doing the accounting across all VaultManagers for a given stablecoin",
    "version": 1
  },
  "storageLayout": {
    "storage": [
      {
        "astId": 770,
        "contract": "contracts/treasury/Treasury.sol:Treasury",
        "label": "_initialized",
        "offset": 0,
        "slot": "0",
        "type": "t_uint8"
      },
      {
        "astId": 773,
        "contract": "contracts/treasury/Treasury.sol:Treasury",
        "label": "_initializing",
        "offset": 1,
        "slot": "0",
        "type": "t_bool"
      },
      {
        "astId": 34548,
        "contract": "contracts/treasury/Treasury.sol:Treasury",
        "label": "core",
        "offset": 2,
        "slot": "0",
        "type": "t_contract(ICoreBorrow)17664"
      },
      {
        "astId": 34552,
        "contract": "contracts/treasury/Treasury.sol:Treasury",
        "label": "flashLoanModule",
        "offset": 0,
        "slot": "1",
        "type": "t_contract(IFlashAngle)17704"
      },
      {
        "astId": 34556,
        "contract": "contracts/treasury/Treasury.sol:Treasury",
        "label": "stablecoin",
        "offset": 0,
        "slot": "2",
        "type": "t_contract(IAgToken)17465"
      },
      {
        "astId": 34559,
        "contract": "contracts/treasury/Treasury.sol:Treasury",
        "label": "surplusManager",
        "offset": 0,
        "slot": "3",
        "type": "t_address"
      },
      {
        "astId": 34563,
        "contract": "contracts/treasury/Treasury.sol:Treasury",
        "label": "vaultManagerList",
        "offset": 0,
        "slot": "4",
        "type": "t_array(t_address)dyn_storage"
      },
      {
        "astId": 34568,
        "contract": "contracts/treasury/Treasury.sol:Treasury",
        "label": "vaultManagerMap",
        "offset": 0,
        "slot": "5",
        "type": "t_mapping(t_address,t_uint256)"
      },
      {
        "astId": 34571,
        "contract": "contracts/treasury/Treasury.sol:Treasury",
        "label": "badDebt",
        "offset": 0,
        "slot": "6",
        "type": "t_uint256"
      },
      {
        "astId": 34574,
        "contract": "contracts/treasury/Treasury.sol:Treasury",
        "label": "surplusBuffer",
        "offset": 0,
        "slot": "7",
        "type": "t_uint256"
      },
      {
        "astId": 34577,
        "contract": "contracts/treasury/Treasury.sol:Treasury",
        "label": "surplusForGovernance",
        "offset": 0,
        "slot": "8",
        "type": "t_uint64"
      }
    ],
    "types": {
      "t_address": {
        "encoding": "inplace",
        "label": "address",
        "numberOfBytes": "20"
      },
      "t_array(t_address)dyn_storage": {
        "base": "t_address",
        "encoding": "dynamic_array",
        "label": "address[]",
        "numberOfBytes": "32"
      },
      "t_bool": {
        "encoding": "inplace",
        "label": "bool",
        "numberOfBytes": "1"
      },
      "t_contract(IAgToken)17465": {
        "encoding": "inplace",
        "label": "contract IAgToken",
        "numberOfBytes": "20"
      },
      "t_contract(ICoreBorrow)17664": {
        "encoding": "inplace",
        "label": "contract ICoreBorrow",
        "numberOfBytes": "20"
      },
      "t_contract(IFlashAngle)17704": {
        "encoding": "inplace",
        "label": "contract IFlashAngle",
        "numberOfBytes": "20"
      },
      "t_mapping(t_address,t_uint256)": {
        "encoding": "mapping",
        "key": "t_address",
        "label": "mapping(address => uint256)",
        "numberOfBytes": "32",
        "value": "t_uint256"
      },
      "t_uint256": {
        "encoding": "inplace",
        "label": "uint256",
        "numberOfBytes": "32"
      },
      "t_uint64": {
        "encoding": "inplace",
        "label": "uint64",
        "numberOfBytes": "8"
      },
      "t_uint8": {
        "encoding": "inplace",
        "label": "uint8",
        "numberOfBytes": "1"
      }
    }
  }
}