{
  "address": "0x9a5b060Bd7b8f86c4C0D720a17367729670AfB19",
  "abi": [
    {
      "inputs": [],
      "stateMutability": "nonpayable",
      "type": "constructor"
    },
    {
      "inputs": [],
      "name": "IncompatibleGovernorAndGuardian",
      "type": "error"
    },
    {
      "inputs": [],
      "name": "InvalidCore",
      "type": "error"
    },
    {
      "inputs": [],
      "name": "NotEnoughGovernorsLeft",
      "type": "error"
    },
    {
      "inputs": [],
      "name": "ZeroAddress",
      "type": "error"
    },
    {
      "anonymous": false,
      "inputs": [
        {
          "indexed": true,
          "internalType": "address",
          "name": "_core",
          "type": "address"
        }
      ],
      "name": "CoreUpdated",
      "type": "event"
    },
    {
      "anonymous": false,
      "inputs": [
        {
          "indexed": true,
          "internalType": "address",
          "name": "_flashloanModule",
          "type": "address"
        }
      ],
      "name": "FlashLoanModuleUpdated",
      "type": "event"
    },
    {
      "anonymous": false,
      "inputs": [
        {
          "indexed": false,
          "internalType": "uint8",
          "name": "version",
          "type": "uint8"
        }
      ],
      "name": "Initialized",
      "type": "event"
    },
    {
      "anonymous": false,
      "inputs": [
        {
          "indexed": true,
          "internalType": "bytes32",
          "name": "role",
          "type": "bytes32"
        },
        {
          "indexed": true,
          "internalType": "bytes32",
          "name": "previousAdminRole",
          "type": "bytes32"
        },
        {
          "indexed": true,
          "internalType": "bytes32",
          "name": "newAdminRole",
          "type": "bytes32"
        }
      ],
      "name": "RoleAdminChanged",
      "type": "event"
    },
    {
      "anonymous": false,
      "inputs": [
        {
          "indexed": true,
          "internalType": "bytes32",
          "name": "role",
          "type": "bytes32"
        },
        {
          "indexed": true,
          "internalType": "address",
          "name": "account",
          "type": "address"
        },
        {
          "indexed": true,
          "internalType": "address",
          "name": "sender",
          "type": "address"
        }
      ],
      "name": "RoleGranted",
      "type": "event"
    },
    {
      "anonymous": false,
      "inputs": [
        {
          "indexed": true,
          "internalType": "bytes32",
          "name": "role",
          "type": "bytes32"
        },
        {
          "indexed": true,
          "internalType": "address",
          "name": "account",
          "type": "address"
        },
        {
          "indexed": true,
          "internalType": "address",
          "name": "sender",
          "type": "address"
        }
      ],
      "name": "RoleRevoked",
      "type": "event"
    },
    {
      "inputs": [],
      "name": "DEFAULT_ADMIN_ROLE",
      "outputs": [
        {
          "internalType": "bytes32",
          "name": "",
          "type": "bytes32"
        }
      ],
      "stateMutability": "view",
      "type": "function"
    },
    {
      "inputs": [],
      "name": "FLASHLOANER_TREASURY_ROLE",
      "outputs": [
        {
          "internalType": "bytes32",
          "name": "",
          "type": "bytes32"
        }
      ],
      "stateMutability": "view",
      "type": "function"
    },
    {
      "inputs": [],
      "name": "GOVERNOR_ROLE",
      "outputs": [
        {
          "internalType": "bytes32",
          "name": "",
          "type": "bytes32"
        }
      ],
      "stateMutability": "view",
      "type": "function"
    },
    {
      "inputs": [],
      "name": "GUARDIAN_ROLE",
      "outputs": [
        {
          "internalType": "bytes32",
          "name": "",
          "type": "bytes32"
        }
      ],
      "stateMutability": "view",
      "type": "function"
    },
    {
      "inputs": [
        {
          "internalType": "address",
          "name": "treasury",
          "type": "address"
        }
      ],
      "name": "addFlashLoanerTreasuryRole",
      "outputs": [],
      "stateMutability": "nonpayable",
      "type": "function"
    },
    {
      "inputs": [
        {
          "internalType": "address",
          "name": "governor",
          "type": "address"
        }
      ],
      "name": "addGovernor",
      "outputs": [],
      "stateMutability": "nonpayable",
      "type": "function"
    },
    {
      "inputs": [],
      "name": "flashLoanModule",
      "outputs": [
        {
          "internalType": "address",
          "name": "",
          "type": "address"
        }
      ],
      "stateMutability": "view",
      "type": "function"
    },
    {
      "inputs": [
        {
          "internalType": "bytes32",
          "name": "role",
          "type": "bytes32"
        }
      ],
      "name": "getRoleAdmin",
      "outputs": [
        {
          "internalType": "bytes32",
          "name": "",
          "type": "bytes32"
        }
      ],
      "stateMutability": "view",
      "type": "function"
    },
    {
      "inputs": [
        {
          "internalType": "bytes32",
          "name": "role",
          "type": "bytes32"
        },
        {
          "internalType": "uint256",
          "name": "index",
          "type": "uint256"
        }
      ],
      "name": "getRoleMember",
      "outputs": [
        {
          "internalType": "address",
          "name": "",
          "type": "address"
        }
      ],
      "stateMutability": "view",
      "type": "function"
    },
    {
      "inputs": [
        {
          "internalType": "bytes32",
          "name": "role",
          "type": "bytes32"
        }
      ],
      "name": "getRoleMemberCount",
      "outputs": [
        {
          "internalType": "uint256",
          "name": "",
          "type": "uint256"
        }
      ],
      "stateMutability": "view",
      "type": "function"
    },
    {
      "inputs": [
        {
          "internalType": "bytes32",
          "name": "role",
          "type": "bytes32"
        },
        {
          "internalType": "address",
          "name": "account",
          "type": "address"
        }
      ],
      "name": "grantRole",
      "outputs": [],
      "stateMutability": "nonpayable",
      "type": "function"
    },
    {
      "inputs": [
        {
          "internalType": "bytes32",
          "name": "role",
          "type": "bytes32"
        },
        {
          "internalType": "address",
          "name": "account",
          "type": "address"
        }
      ],
      "name": "hasRole",
      "outputs": [
        {
          "internalType": "bool",
          "name": "",
          "type": "bool"
        }
      ],
      "stateMutability": "view",
      "type": "function"
    },
    {
      "inputs": [
        {
          "internalType": "address",
          "name": "governor",
          "type": "address"
        },
        {
          "internalType": "address",
          "name": "guardian",
          "type": "address"
        }
      ],
      "name": "initialize",
      "outputs": [],
      "stateMutability": "nonpayable",
      "type": "function"
    },
    {
      "inputs": [
        {
          "internalType": "address",
          "name": "treasury",
          "type": "address"
        }
      ],
      "name": "isFlashLoanerTreasury",
      "outputs": [
        {
          "internalType": "bool",
          "name": "",
          "type": "bool"
        }
      ],
      "stateMutability": "view",
      "type": "function"
    },
    {
      "inputs": [
        {
          "internalType": "address",
          "name": "admin",
          "type": "address"
        }
      ],
      "name": "isGovernor",
      "outputs": [
        {
          "internalType": "bool",
          "name": "",
          "type": "bool"
        }
      ],
      "stateMutability": "view",
      "type": "function"
    },
    {
      "inputs": [
        {
          "internalType": "address",
          "name": "admin",
          "type": "address"
        }
      ],
      "name": "isGovernorOrGuardian",
      "outputs": [
        {
          "internalType": "bool",
          "name": "",
          "type": "bool"
        }
      ],
      "stateMutability": "view",
      "type": "function"
    },
    {
      "inputs": [
        {
          "internalType": "address",
          "name": "treasury",
          "type": "address"
        }
      ],
      "name": "removeFlashLoanerTreasuryRole",
      "outputs": [],
      "stateMutability": "nonpayable",
      "type": "function"
    },
    {
      "inputs": [
        {
          "internalType": "address",
          "name": "governor",
          "type": "address"
        }
      ],
      "name": "removeGovernor",
      "outputs": [],
      "stateMutability": "nonpayable",
      "type": "function"
    },
    {
      "inputs": [
        {
          "internalType": "bytes32",
          "name": "role",
          "type": "bytes32"
        },
        {
          "internalType": "address",
          "name": "account",
          "type": "address"
        }
      ],
      "name": "renounceRole",
      "outputs": [],
      "stateMutability": "nonpayable",
      "type": "function"
    },
    {
      "inputs": [
        {
          "internalType": "bytes32",
          "name": "role",
          "type": "bytes32"
        },
        {
          "internalType": "address",
          "name": "account",
          "type": "address"
        }
      ],
      "name": "revokeRole",
      "outputs": [],
      "stateMutability": "nonpayable",
      "type": "function"
    },
    {
      "inputs": [
        {
          "internalType": "contract ICoreBorrow",
          "name": "_core",
          "type": "address"
        }
      ],
      "name": "setCore",
      "outputs": [],
      "stateMutability": "nonpayable",
      "type": "function"
    },
    {
      "inputs": [
        {
          "internalType": "address",
          "name": "_flashLoanModule",
          "type": "address"
        }
      ],
      "name": "setFlashLoanModule",
      "outputs": [],
      "stateMutability": "nonpayable",
      "type": "function"
    },
    {
      "inputs": [
        {
          "internalType": "bytes4",
          "name": "interfaceId",
          "type": "bytes4"
        }
      ],
      "name": "supportsInterface",
      "outputs": [
        {
          "internalType": "bool",
          "name": "",
          "type": "bool"
        }
      ],
      "stateMutability": "view",
      "type": "function"
    }
  ],
  "transactionHash": "0x1c1f15c9f9b61858ba3b28d95ee5f0de9afaff15d6e8023f955005a87d74aa57",
  "args": [],
  "numDeployments": 1,
  "solcInputHash": "c1b0a0ed63155d980ec50a220c46f41c",
  "bytecode": "0x60806040523480156200001157600080fd5b50600054610100900460ff1615808015620000335750600054600160ff909116105b8062000063575062000050306200013d60201b6200129b1760201c565b15801562000063575060005460ff166001145b620000cb5760405162461bcd60e51b815260206004820152602e60248201527f496e697469616c697a61626c653a20636f6e747261637420697320616c72656160448201526d191e481a5b9a5d1a585b1a5e995960921b606482015260840160405180910390fd5b6000805460ff191660011790558015620000ef576000805461ff0019166101001790555b801562000136576000805461ff0019169055604051600181527f7f26b83ff96e1f2b6a682f133852f6798a09c465da95921460cefb38474024989060200160405180910390a15b506200014c565b6001600160a01b03163b151590565b611e66806200015c6000396000f3fe608060405234801561001057600080fd5b506004361061018d5760003560e01c806380009630116100e3578063ccc574901161008c578063eecdac8811610066578063eecdac88146103c5578063ef5f12c5146103d8578063f02dd8a2146103ff57600080fd5b8063ccc5749014610378578063d547741f1461039f578063e43581b8146103b257600080fd5b8063959d5a01116100bd578063959d5a011461033d578063a217fddf1461035d578063ca15c8731461036557600080fd5b806380009630146102ac5780639010d07c146102bf57806391d14854146102f757600080fd5b806336568abe11610145578063485cc9551161011f578063485cc95514610273578063521d4de9146102865780635704cc461461029957600080fd5b806336568abe1461023a5780633c4a25d01461024d578063449ba8811461026057600080fd5b8063248a9ca311610176578063248a9ca3146101cf57806324ea54f4146102005780632f2ff15d1461022757600080fd5b806301ffc9a71461019257806321c29f92146101ba575b600080fd5b6101a56101a0366004611a7b565b610412565b60405190151581526020015b60405180910390f35b6101cd6101c8366004611adf565b61046e565b005b6101f26101dd366004611afc565b60009081526065602052604090206001015490565b6040519081526020016101b1565b6101f27f55435dd261a4b9b3364963f7738a7a662ad9c84396d64be3365284bb7f0a504181565b6101cd610235366004611b15565b6106ef565b6101cd610248366004611b15565b610719565b6101cd61025b366004611adf565b6107d1565b6101cd61026e366004611adf565b610828565b6101cd610281366004611b45565b61097c565b6101a5610294366004611adf565b610d16565b6101cd6102a7366004611adf565b610d63565b6101cd6102ba366004611adf565b610e81565b6102d26102cd366004611b73565b6110f0565b60405173ffffffffffffffffffffffffffffffffffffffff90911681526020016101b1565b6101a5610305366004611b15565b600091825260656020908152604080842073ffffffffffffffffffffffffffffffffffffffff93909316845291905290205460ff1690565b60c9546102d29073ffffffffffffffffffffffffffffffffffffffff1681565b6101f2600081565b6101f2610373366004611afc565b61110f565b6101f27f7935bd0ae54bc31f548c14dba4d37c5c64b3f8ca900cb468fb8abd54d5894f5581565b6101cd6103ad366004611b15565b611126565b6101a56103c0366004611adf565b61114b565b6101cd6103d3366004611adf565b611198565b6101f27f0ae0130c6b34f32239dfe5e419a3fbd7546b44e99783257f2d93526d5a936d4681565b6101a561040d366004611adf565b61124e565b60007fffffffff0000000000000000000000000000000000000000000000000000000082167f5a05180f0000000000000000000000000000000000000000000000000000000014806104685750610468826112b7565b92915050565b7f7935bd0ae54bc31f548c14dba4d37c5c64b3f8ca900cb468fb8abd54d5894f556104988161134e565b73ffffffffffffffffffffffffffffffffffffffff821615610587573073ffffffffffffffffffffffffffffffffffffffff168273ffffffffffffffffffffffffffffffffffffffff1663f2f4eb266040518163ffffffff1660e01b8152600401602060405180830381865afa158015610516573d6000803e3d6000fd5b505050506040513d601f19601f8201168201806040525081019061053a9190611b95565b73ffffffffffffffffffffffffffffffffffffffff1614610587576040517fc5c23c8d00000000000000000000000000000000000000000000000000000000815260040160405180910390fd5b60006105b27f0ae0130c6b34f32239dfe5e419a3fbd7546b44e99783257f2d93526d5a936d4661110f565b905060005b8181101561067d576105e97f0ae0130c6b34f32239dfe5e419a3fbd7546b44e99783257f2d93526d5a936d46826110f0565b6040517f21c29f9200000000000000000000000000000000000000000000000000000000815273ffffffffffffffffffffffffffffffffffffffff868116600483015291909116906321c29f9290602401600060405180830381600087803b15801561065457600080fd5b505af1158015610668573d6000803e3d6000fd5b505050508061067690611be1565b90506105b7565b5060c980547fffffffffffffffffffffffff00000000000000000000000000000000000000001673ffffffffffffffffffffffffffffffffffffffff85169081179091556040517ffcbb758b478e66ede9f90baed6bef1a7563f6da23642cf16a274e18b66cd8baa90600090a2505050565b60008281526065602052604090206001015461070a8161134e565b6107148383611358565b505050565b73ffffffffffffffffffffffffffffffffffffffff811633146107c3576040517f08c379a000000000000000000000000000000000000000000000000000000000815260206004820152602f60248201527f416363657373436f6e74726f6c3a2063616e206f6e6c792072656e6f756e636560448201527f20726f6c657320666f722073656c66000000000000000000000000000000000060648201526084015b60405180910390fd5b6107cd828261137a565b5050565b6107fb7f7935bd0ae54bc31f548c14dba4d37c5c64b3f8ca900cb468fb8abd54d5894f55826106ef565b6108257f55435dd261a4b9b3364963f7738a7a662ad9c84396d64be3365284bb7f0a5041826106ef565b50565b6108527f0ae0130c6b34f32239dfe5e419a3fbd7546b44e99783257f2d93526d5a936d4682611126565b6040517f21c29f920000000000000000000000000000000000000000000000000000000081526000600482015273ffffffffffffffffffffffffffffffffffffffff8216906321c29f9290602401600060405180830381600087803b1580156108ba57600080fd5b505af11580156108ce573d6000803e3d6000fd5b505060c95473ffffffffffffffffffffffffffffffffffffffff1691505080156107cd5760c9546040517f543bd64700000000000000000000000000000000000000000000000000000000815273ffffffffffffffffffffffffffffffffffffffff84811660048301529091169063543bd647906024015b600060405180830381600087803b15801561096057600080fd5b505af1158015610974573d6000803e3d6000fd5b505050505050565b600054610100900460ff161580801561099c5750600054600160ff909116105b806109b65750303b1580156109b6575060005460ff166001145b610a42576040517f08c379a000000000000000000000000000000000000000000000000000000000815260206004820152602e60248201527f496e697469616c697a61626c653a20636f6e747261637420697320616c72656160448201527f647920696e697469616c697a656400000000000000000000000000000000000060648201526084016107ba565b600080547fffffffffffffffffffffffffffffffffffffffffffffffffffffffffffffff001660011790558015610aa057600080547fffffffffffffffffffffffffffffffffffffffffffffffffffffffffffff00ff166101001790555b73ffffffffffffffffffffffffffffffffffffffff83161580610ad7575073ffffffffffffffffffffffffffffffffffffffff8216155b15610b0e576040517fd92e233d00000000000000000000000000000000000000000000000000000000815260040160405180910390fd5b8173ffffffffffffffffffffffffffffffffffffffff168373ffffffffffffffffffffffffffffffffffffffff1603610b73576040517f5468228700000000000000000000000000000000000000000000000000000000815260040160405180910390fd5b610b9d7f7935bd0ae54bc31f548c14dba4d37c5c64b3f8ca900cb468fb8abd54d5894f558461139c565b610bc77f55435dd261a4b9b3364963f7738a7a662ad9c84396d64be3365284bb7f0a50418361139c565b610bf17f55435dd261a4b9b3364963f7738a7a662ad9c84396d64be3365284bb7f0a50418461139c565b610c3b7f55435dd261a4b9b3364963f7738a7a662ad9c84396d64be3365284bb7f0a50417f7935bd0ae54bc31f548c14dba4d37c5c64b3f8ca900cb468fb8abd54d5894f556113a6565b610c657f7935bd0ae54bc31f548c14dba4d37c5c64b3f8ca900cb468fb8abd54d5894f55806113a6565b610caf7f0ae0130c6b34f32239dfe5e419a3fbd7546b44e99783257f2d93526d5a936d467f7935bd0ae54bc31f548c14dba4d37c5c64b3f8ca900cb468fb8abd54d5894f556113a6565b801561071457600080547fffffffffffffffffffffffffffffffffffffffffffffffffffffffffffff00ff169055604051600181527f7f26b83ff96e1f2b6a682f133852f6798a09c465da95921460cefb38474024989060200160405180910390a1505050565b73ffffffffffffffffffffffffffffffffffffffff811660009081527f069cdf9dfc2229276970916c1858214fdc1e7fbd582c817d68d15a269f9e469c602052604081205460ff16610468565b610d8d7f0ae0130c6b34f32239dfe5e419a3fbd7546b44e99783257f2d93526d5a936d46826106ef565b60c95473ffffffffffffffffffffffffffffffffffffffff1680156107cd576040517f21c29f9200000000000000000000000000000000000000000000000000000000815273ffffffffffffffffffffffffffffffffffffffff82811660048301528316906321c29f9290602401600060405180830381600087803b158015610e1557600080fd5b505af1158015610e29573d6000803e3d6000fd5b50506040517f442320c100000000000000000000000000000000000000000000000000000000815273ffffffffffffffffffffffffffffffffffffffff85811660048301528416925063442320c19150602401610946565b7f7935bd0ae54bc31f548c14dba4d37c5c64b3f8ca900cb468fb8abd54d5894f55610eab8161134e565b6000610ed67f7935bd0ae54bc31f548c14dba4d37c5c64b3f8ca900cb468fb8abd54d5894f5561110f565b90506000805b82811015610fcf578473ffffffffffffffffffffffffffffffffffffffff1663e43581b8610f2a7f7935bd0ae54bc31f548c14dba4d37c5c64b3f8ca900cb468fb8abd54d5894f55846110f0565b6040517fffffffff0000000000000000000000000000000000000000000000000000000060e084901b16815273ffffffffffffffffffffffffffffffffffffffff9091166004820152602401602060405180830381865afa158015610f93573d6000803e3d6000fd5b505050506040513d601f19601f82011682018060405250810190610fb79190611c19565b91508115610fcf57610fc881611be1565b9050610edc565b5080611007576040517fc5c23c8d00000000000000000000000000000000000000000000000000000000815260040160405180910390fd5b60c95473ffffffffffffffffffffffffffffffffffffffff1680156110a8576040517f8000963000000000000000000000000000000000000000000000000000000000815273ffffffffffffffffffffffffffffffffffffffff8681166004830152821690638000963090602401600060405180830381600087803b15801561108f57600080fd5b505af11580156110a3573d6000803e3d6000fd5b505050505b60405173ffffffffffffffffffffffffffffffffffffffff8616907f0c9c0f914e121785e2cd2269d6698bc11f59a50b85ef9aa1197fb4ddb96c4e5690600090a25050505050565b600082815260976020526040812061110890836113f1565b9392505050565b6000818152609760205260408120610468906113fd565b6000828152606560205260409020600101546111418161134e565b610714838361137a565b73ffffffffffffffffffffffffffffffffffffffff811660009081527f5b3690852b26f7232357f142d58d00e1cca98c361fba25f077120aefa687fb54602052604081205460ff16610468565b60016111c37f7935bd0ae54bc31f548c14dba4d37c5c64b3f8ca900cb468fb8abd54d5894f5561110f565b116111fa576040517fb76a773a00000000000000000000000000000000000000000000000000000000815260040160405180910390fd5b6112247f55435dd261a4b9b3364963f7738a7a662ad9c84396d64be3365284bb7f0a504182611126565b6108257f7935bd0ae54bc31f548c14dba4d37c5c64b3f8ca900cb468fb8abd54d5894f5582611126565b73ffffffffffffffffffffffffffffffffffffffff811660009081527f8c1a1c2e4dcafefdcb61fcbadefc1a4e194ef54665c481e5a1f8b483cf279726602052604081205460ff16610468565b73ffffffffffffffffffffffffffffffffffffffff163b151590565b60007fffffffff0000000000000000000000000000000000000000000000000000000082167f7965db0b00000000000000000000000000000000000000000000000000000000148061046857507f01ffc9a7000000000000000000000000000000000000000000000000000000007fffffffff00000000000000000000000000000000000000000000000000000000831614610468565b6108258133611407565b61136282826114d9565b600082815260976020526040902061071490826115cd565b61138482826115ef565b600082815260976020526040902061071490826116aa565b6107cd8282611358565b600082815260656020526040808220600101805490849055905190918391839186917fbd79b86ffe0ab8e8776151514217cd7cacd52c909f66475c3af44e129f0b00ff9190a4505050565b600061110883836116cc565b6000610468825490565b600082815260656020908152604080832073ffffffffffffffffffffffffffffffffffffffff8516845290915290205460ff166107cd5761145f8173ffffffffffffffffffffffffffffffffffffffff1660146116f6565b61146a8360206116f6565b60405160200161147b929190611c5f565b604080517fffffffffffffffffffffffffffffffffffffffffffffffffffffffffffffffe0818403018152908290527f08c379a00000000000000000000000000000000000000000000000000000000082526107ba91600401611ce0565b600082815260656020908152604080832073ffffffffffffffffffffffffffffffffffffffff8516845290915290205460ff166107cd57600082815260656020908152604080832073ffffffffffffffffffffffffffffffffffffffff85168452909152902080547fffffffffffffffffffffffffffffffffffffffffffffffffffffffffffffff0016600117905561156f3390565b73ffffffffffffffffffffffffffffffffffffffff168173ffffffffffffffffffffffffffffffffffffffff16837f2f8788117e7eff1d82e926ec794901d17c78024a50270940304540a733656f0d60405160405180910390a45050565b60006111088373ffffffffffffffffffffffffffffffffffffffff8416611939565b600082815260656020908152604080832073ffffffffffffffffffffffffffffffffffffffff8516845290915290205460ff16156107cd57600082815260656020908152604080832073ffffffffffffffffffffffffffffffffffffffff8516808552925280832080547fffffffffffffffffffffffffffffffffffffffffffffffffffffffffffffff0016905551339285917ff6391f5c32d9c69d2a47ea670b442974b53935d1edc7fd64eb21e047a839171b9190a45050565b60006111088373ffffffffffffffffffffffffffffffffffffffff8416611988565b60008260000182815481106116e3576116e3611d31565b9060005260206000200154905092915050565b60606000611705836002611d60565b611710906002611d77565b67ffffffffffffffff81111561172857611728611d8a565b6040519080825280601f01601f191660200182016040528015611752576020820181803683370190505b5090507f30000000000000000000000000000000000000000000000000000000000000008160008151811061178957611789611d31565b60200101907effffffffffffffffffffffffffffffffffffffffffffffffffffffffffffff1916908160001a9053507f7800000000000000000000000000000000000000000000000000000000000000816001815181106117ec576117ec611d31565b60200101907effffffffffffffffffffffffffffffffffffffffffffffffffffffffffffff1916908160001a9053506000611828846002611d60565b611833906001611d77565b90505b60018111156118d0577f303132333435363738396162636465660000000000000000000000000000000085600f166010811061187457611874611d31565b1a60f81b82828151811061188a5761188a611d31565b60200101907effffffffffffffffffffffffffffffffffffffffffffffffffffffffffffff1916908160001a90535060049490941c936118c981611db9565b9050611836565b508315611108576040517f08c379a000000000000000000000000000000000000000000000000000000000815260206004820181905260248201527f537472696e67733a20686578206c656e67746820696e73756666696369656e7460448201526064016107ba565b600081815260018301602052604081205461198057508154600181810184556000848152602080822090930184905584548482528286019093526040902091909155610468565b506000610468565b60008181526001830160205260408120548015611a715760006119ac600183611dee565b85549091506000906119c090600190611dee565b9050818114611a255760008660000182815481106119e0576119e0611d31565b9060005260206000200154905080876000018481548110611a0357611a03611d31565b6000918252602080832090910192909255918252600188019052604090208390555b8554869080611a3657611a36611e01565b600190038181906000526020600020016000905590558560010160008681526020019081526020016000206000905560019350505050610468565b6000915050610468565b600060208284031215611a8d57600080fd5b81357fffffffff000000000000000000000000000000000000000000000000000000008116811461110857600080fd5b73ffffffffffffffffffffffffffffffffffffffff8116811461082557600080fd5b600060208284031215611af157600080fd5b813561110881611abd565b600060208284031215611b0e57600080fd5b5035919050565b60008060408385031215611b2857600080fd5b823591506020830135611b3a81611abd565b809150509250929050565b60008060408385031215611b5857600080fd5b8235611b6381611abd565b91506020830135611b3a81611abd565b60008060408385031215611b8657600080fd5b50508035926020909101359150565b600060208284031215611ba757600080fd5b815161110881611abd565b7f4e487b7100000000000000000000000000000000000000000000000000000000600052601160045260246000fd5b60007fffffffffffffffffffffffffffffffffffffffffffffffffffffffffffffffff8203611c1257611c12611bb2565b5060010190565b600060208284031215611c2b57600080fd5b8151801515811461110857600080fd5b60005b83811015611c56578181015183820152602001611c3e565b50506000910152565b7f416363657373436f6e74726f6c3a206163636f756e7420000000000000000000815260008351611c97816017850160208801611c3b565b7f206973206d697373696e6720726f6c65200000000000000000000000000000006017918401918201528351611cd4816028840160208801611c3b565b01602801949350505050565b6020815260008251806020840152611cff816040850160208701611c3b565b601f017fffffffffffffffffffffffffffffffffffffffffffffffffffffffffffffffe0169190910160400192915050565b7f4e487b7100000000000000000000000000000000000000000000000000000000600052603260045260246000fd5b808202811582820484141761046857610468611bb2565b8082018082111561046857610468611bb2565b7f4e487b7100000000000000000000000000000000000000000000000000000000600052604160045260246000fd5b600081611dc857611dc8611bb2565b507fffffffffffffffffffffffffffffffffffffffffffffffffffffffffffffffff0190565b8181038181111561046857610468611bb2565b7f4e487b7100000000000000000000000000000000000000000000000000000000600052603160045260246000fdfea2646970667358221220815945a413b1568d5ee4cbd9504a0d893de763c45b3213247d4bd714e141a2f664736f6c63430008110033",
  "devdoc": {
    "author": "Angle Labs, Inc.",
    "kind": "dev",
    "methods": {
      "addFlashLoanerTreasuryRole(address)": {
        "details": "This function can be used to allow flash loans on a stablecoin of the protocol",
        "params": {
          "treasury": "Contract to grant the role to"
        }
      },
      "addGovernor(address)": {
        "details": "It is necessary to call this function to grant a governor role to make sure all governors also have the guardian role",
        "params": {
          "governor": "Address to grant the role to"
        }
      },
      "constructor": {
        "custom:oz-upgrades-unsafe-allow": "constructor"
      },
      "getRoleAdmin(bytes32)": {
        "details": "Returns the admin role that controls `role`. See {grantRole} and {revokeRole}. To change a role's admin, use {_setRoleAdmin}."
      },
      "getRoleMember(bytes32,uint256)": {
        "details": "Returns one of the accounts that have `role`. `index` must be a value between 0 and {getRoleMemberCount}, non-inclusive. Role bearers are not sorted in any particular way, and their ordering may change at any point. WARNING: When using {getRoleMember} and {getRoleMemberCount}, make sure you perform all queries on the same block. See the following https://forum.openzeppelin.com/t/iterating-over-elements-on-enumerableset-in-openzeppelin-contracts/2296[forum post] for more information."
      },
      "getRoleMemberCount(bytes32)": {
        "details": "Returns the number of accounts that have `role`. Can be used together with {getRoleMember} to enumerate all bearers of a role."
      },
      "grantRole(bytes32,address)": {
        "details": "Grants `role` to `account`. If `account` had not been already granted `role`, emits a {RoleGranted} event. Requirements: - the caller must have ``role``'s admin role. May emit a {RoleGranted} event."
      },
      "hasRole(bytes32,address)": {
        "details": "Returns `true` if `account` has been granted `role`."
      },
      "initialize(address,address)": {
        "params": {
          "governor": "Address of the governor of the Angle Protocol",
          "guardian": "Guardian address of the protocol"
        }
      },
      "isFlashLoanerTreasury(address)": {
        "params": {
          "treasury": "Address to check"
        },
        "returns": {
          "_0": "Whether the address has the `FLASHLOANER_TREASURY_ROLE` or not"
        }
      },
      "isGovernor(address)": {
        "params": {
          "admin": "Address to check"
        },
        "returns": {
          "_0": "Whether the address has the `GOVERNOR_ROLE` or not"
        }
      },
      "isGovernorOrGuardian(address)": {
        "details": "Governance should make sure when adding a governor to also give this governor the guardian role by calling the `addGovernor` function",
        "params": {
          "admin": "Address to check"
        },
        "returns": {
          "_0": "Whether the address has the `GUARDIAN_ROLE` or not"
        }
      },
      "removeFlashLoanerTreasuryRole(address)": {
        "params": {
          "treasury": "Treasury address associated with the stablecoin for which flash loans should no longer be available"
        }
      },
      "removeGovernor(address)": {
        "details": "It is necessary to call this function to remove a governor role to make sure the address also loses its guardian role",
        "params": {
          "governor": "Address to remove the role to"
        }
      },
      "renounceRole(bytes32,address)": {
        "details": "Revokes `role` from the calling account. Roles are often managed via {grantRole} and {revokeRole}: this function's purpose is to provide a mechanism for accounts to lose their privileges if they are compromised (such as when a trusted device is misplaced). If the calling account had been revoked `role`, emits a {RoleRevoked} event. Requirements: - the caller must be `account`. May emit a {RoleRevoked} event."
      },
      "revokeRole(bytes32,address)": {
        "details": "Revokes `role` from `account`. If `account` had been granted `role`, emits a {RoleRevoked} event. Requirements: - the caller must have ``role``'s admin role. May emit a {RoleRevoked} event."
      },
      "setCore(address)": {
        "details": "This function verifies that all governors of the current core contract are also governors of the new core contract. It also notifies the `flashLoanModule` of the change.Governance wishing to change the core contract should also make sure to call `setCore` in the different treasury contracts",
        "params": {
          "_core": "New core contract"
        }
      },
      "setFlashLoanModule(address)": {
        "params": {
          "_flashLoanModule": "Address of the new flash loan module"
        }
      },
      "supportsInterface(bytes4)": {
        "details": "See {IERC165-supportsInterface}."
      }
    },
    "title": "CoreBorrow",
    "version": 1
  },
  "userdoc": {
    "kind": "user",
    "methods": {
      "FLASHLOANER_TREASURY_ROLE()": {
        "notice": "Role for treasury contract"
      },
      "GOVERNOR_ROLE()": {
        "notice": "Role for governors"
      },
      "GUARDIAN_ROLE()": {
        "notice": "Role for guardians"
      },
      "addFlashLoanerTreasuryRole(address)": {
        "notice": "Grants the `FLASHLOANER_TREASURY_ROLE` to a `treasury` contract"
      },
      "addGovernor(address)": {
        "notice": "Adds a governor in the protocol"
      },
      "flashLoanModule()": {
        "notice": "Reference to the `flashLoanModule` with minting rights over the different stablecoins of the protocol"
      },
      "initialize(address,address)": {
        "notice": "Initializes the `CoreBorrow` contract and the access control of the borrowing module"
      },
      "isFlashLoanerTreasury(address)": {
        "notice": "Checks if an address corresponds to a treasury of a stablecoin with a flash loan module initialized on it"
      },
      "isGovernor(address)": {
        "notice": "Checks whether an address is governor of the Angle Protocol or not"
      },
      "isGovernorOrGuardian(address)": {
        "notice": "Checks whether an address is governor or a guardian of the Angle Protocol or not"
      },
      "removeFlashLoanerTreasuryRole(address)": {
        "notice": "Revokes the flash loan ability for a stablecoin"
      },
      "removeGovernor(address)": {
        "notice": "Revokes a governor from the protocol"
      },
      "setCore(address)": {
        "notice": "Changes the core contract of the protocol"
      },
      "setFlashLoanModule(address)": {
        "notice": "Changes the `flashLoanModule` of the protocol"
      }
    },
    "notice": "Core contract of the borrowing module. This contract handles the access control across all contracts (it is read by all treasury contracts), and manages the `flashLoanModule`. It has no minting rights over the stablecoin contracts",
    "version": 1
  },
  "storageLayout": {
    "storage": [
      {
        "astId": 770,
        "contract": "contracts/coreBorrow/CoreBorrow.sol:CoreBorrow",
        "label": "_initialized",
        "offset": 0,
        "slot": "0",
        "type": "t_uint8"
      },
      {
        "astId": 773,
        "contract": "contracts/coreBorrow/CoreBorrow.sol:CoreBorrow",
        "label": "_initializing",
        "offset": 1,
        "slot": "0",
        "type": "t_bool"
      },
      {
        "astId": 2486,
        "contract": "contracts/coreBorrow/CoreBorrow.sol:CoreBorrow",
        "label": "__gap",
        "offset": 0,
        "slot": "1",
        "type": "t_array(t_uint256)50_storage"
      },
      {
        "astId": 3387,
        "contract": "contracts/coreBorrow/CoreBorrow.sol:CoreBorrow",
        "label": "__gap",
        "offset": 0,
        "slot": "51",
        "type": "t_array(t_uint256)50_storage"
      },
      {
        "astId": 230,
        "contract": "contracts/coreBorrow/CoreBorrow.sol:CoreBorrow",
        "label": "_roles",
        "offset": 0,
        "slot": "101",
        "type": "t_mapping(t_bytes32,t_struct(RoleData)225_storage)"
      },
      {
        "astId": 529,
        "contract": "contracts/coreBorrow/CoreBorrow.sol:CoreBorrow",
        "label": "__gap",
        "offset": 0,
        "slot": "102",
        "type": "t_array(t_uint256)49_storage"
      },
      {
        "astId": 79,
        "contract": "contracts/coreBorrow/CoreBorrow.sol:CoreBorrow",
        "label": "_roleMembers",
        "offset": 0,
        "slot": "151",
        "type": "t_mapping(t_bytes32,t_struct(AddressSet)3712_storage)"
      },
      {
        "astId": 189,
        "contract": "contracts/coreBorrow/CoreBorrow.sol:CoreBorrow",
        "label": "__gap",
        "offset": 0,
        "slot": "152",
        "type": "t_array(t_uint256)49_storage"
      },
      {
        "astId": 12724,
        "contract": "contracts/coreBorrow/CoreBorrow.sol:CoreBorrow",
        "label": "flashLoanModule",
        "offset": 0,
        "slot": "201",
        "type": "t_address"
      }
    ],
    "types": {
      "t_address": {
        "encoding": "inplace",
        "label": "address",
        "numberOfBytes": "20"
      },
      "t_array(t_bytes32)dyn_storage": {
        "base": "t_bytes32",
        "encoding": "dynamic_array",
        "label": "bytes32[]",
        "numberOfBytes": "32"
      },
      "t_array(t_uint256)49_storage": {
        "base": "t_uint256",
        "encoding": "inplace",
        "label": "uint256[49]",
        "numberOfBytes": "1568"
      },
      "t_array(t_uint256)50_storage": {
        "base": "t_uint256",
        "encoding": "inplace",
        "label": "uint256[50]",
        "numberOfBytes": "1600"
      },
      "t_bool": {
        "encoding": "inplace",
        "label": "bool",
        "numberOfBytes": "1"
      },
      "t_bytes32": {
        "encoding": "inplace",
        "label": "bytes32",
        "numberOfBytes": "32"
      },
      "t_mapping(t_address,t_bool)": {
        "encoding": "mapping",
        "key": "t_address",
        "label": "mapping(address => bool)",
        "numberOfBytes": "32",
        "value": "t_bool"
      },
      "t_mapping(t_bytes32,t_struct(AddressSet)3712_storage)": {
        "encoding": "mapping",
        "key": "t_bytes32",
        "label": "mapping(bytes32 => struct EnumerableSetUpgradeable.AddressSet)",
        "numberOfBytes": "32",
        "value": "t_struct(AddressSet)3712_storage"
      },
      "t_mapping(t_bytes32,t_struct(RoleData)225_storage)": {
        "encoding": "mapping",
        "key": "t_bytes32",
        "label": "mapping(bytes32 => struct AccessControlUpgradeable.RoleData)",
        "numberOfBytes": "32",
        "value": "t_struct(RoleData)225_storage"
      },
      "t_mapping(t_bytes32,t_uint256)": {
        "encoding": "mapping",
        "key": "t_bytes32",
        "label": "mapping(bytes32 => uint256)",
        "numberOfBytes": "32",
        "value": "t_uint256"
      },
      "t_struct(AddressSet)3712_storage": {
        "encoding": "inplace",
        "label": "struct EnumerableSetUpgradeable.AddressSet",
        "members": [
          {
            "astId": 3711,
            "contract": "contracts/coreBorrow/CoreBorrow.sol:CoreBorrow",
            "label": "_inner",
            "offset": 0,
            "slot": "0",
            "type": "t_struct(Set)3411_storage"
          }
        ],
        "numberOfBytes": "64"
      },
      "t_struct(RoleData)225_storage": {
        "encoding": "inplace",
        "label": "struct AccessControlUpgradeable.RoleData",
        "members": [
          {
            "astId": 222,
            "contract": "contracts/coreBorrow/CoreBorrow.sol:CoreBorrow",
            "label": "members",
            "offset": 0,
            "slot": "0",
            "type": "t_mapping(t_address,t_bool)"
          },
          {
            "astId": 224,
            "contract": "contracts/coreBorrow/CoreBorrow.sol:CoreBorrow",
            "label": "adminRole",
            "offset": 0,
            "slot": "1",
            "type": "t_bytes32"
          }
        ],
        "numberOfBytes": "64"
      },
      "t_struct(Set)3411_storage": {
        "encoding": "inplace",
        "label": "struct EnumerableSetUpgradeable.Set",
        "members": [
          {
            "astId": 3406,
            "contract": "contracts/coreBorrow/CoreBorrow.sol:CoreBorrow",
            "label": "_values",
            "offset": 0,
            "slot": "0",
            "type": "t_array(t_bytes32)dyn_storage"
          },
          {
            "astId": 3410,
            "contract": "contracts/coreBorrow/CoreBorrow.sol:CoreBorrow",
            "label": "_indexes",
            "offset": 0,
            "slot": "1",
            "type": "t_mapping(t_bytes32,t_uint256)"
          }
        ],
        "numberOfBytes": "64"
      },
      "t_uint256": {
        "encoding": "inplace",
        "label": "uint256",
        "numberOfBytes": "32"
      },
      "t_uint8": {
        "encoding": "inplace",
        "label": "uint8",
        "numberOfBytes": "1"
      }
    }
  }
}