{
  "address": "0x0D710512E100C171139D2Cf5708f22C680eccF52",
  "abi": [
    {
      "inputs": [],
      "stateMutability": "nonpayable",
      "type": "constructor"
    },
    {
      "inputs": [],
      "name": "InsufficientGas",
      "type": "error"
    },
    {
      "inputs": [],
      "name": "InvalidAllowance",
      "type": "error"
    },
    {
      "inputs": [],
      "name": "InvalidCaller",
      "type": "error"
    },
    {
      "inputs": [],
      "name": "InvalidEndpoint",
      "type": "error"
    },
    {
      "inputs": [],
      "name": "InvalidParams",
      "type": "error"
    },
    {
      "inputs": [],
      "name": "InvalidPayload",
      "type": "error"
    },
    {
      "inputs": [],
      "name": "InvalidSource",
      "type": "error"
    },
    {
      "inputs": [],
      "name": "NotGovernor",
      "type": "error"
    },
    {
      "inputs": [],
      "name": "NotGovernorOrGuardian",
      "type": "error"
    },
    {
      "inputs": [],
      "name": "ZeroAddress",
      "type": "error"
    },
    {
      "anonymous": false,
      "inputs": [
        {
          "indexed": true,
          "internalType": "address",
          "name": "owner",
          "type": "address"
        },
        {
          "indexed": true,
          "internalType": "address",
          "name": "spender",
          "type": "address"
        },
        {
          "indexed": false,
          "internalType": "uint256",
          "name": "value",
          "type": "uint256"
        }
      ],
      "name": "Approval",
      "type": "event"
    },
    {
      "anonymous": false,
      "inputs": [
        {
          "indexed": false,
          "internalType": "uint8",
          "name": "version",
          "type": "uint8"
        }
      ],
      "name": "Initialized",
      "type": "event"
    },
    {
      "anonymous": false,
      "inputs": [
        {
          "indexed": false,
          "internalType": "uint16",
          "name": "_srcChainId",
          "type": "uint16"
        },
        {
          "indexed": false,
          "internalType": "bytes",
          "name": "_srcAddress",
          "type": "bytes"
        },
        {
          "indexed": false,
          "internalType": "uint64",
          "name": "_nonce",
          "type": "uint64"
        },
        {
          "indexed": false,
          "internalType": "bytes",
          "name": "_payload",
          "type": "bytes"
        }
      ],
      "name": "MessageFailed",
      "type": "event"
    },
    {
      "anonymous": false,
      "inputs": [
        {
          "indexed": false,
          "internalType": "address",
          "name": "account",
          "type": "address"
        }
      ],
      "name": "Paused",
      "type": "event"
    },
    {
      "anonymous": false,
      "inputs": [
        {
          "indexed": true,
          "internalType": "uint16",
          "name": "_srcChainId",
          "type": "uint16"
        },
        {
          "indexed": true,
          "internalType": "bytes",
          "name": "_srcAddress",
          "type": "bytes"
        },
        {
          "indexed": true,
          "internalType": "address",
          "name": "_toAddress",
          "type": "address"
        },
        {
          "indexed": false,
          "internalType": "uint256",
          "name": "_amount",
          "type": "uint256"
        },
        {
          "indexed": false,
          "internalType": "uint64",
          "name": "_nonce",
          "type": "uint64"
        }
      ],
      "name": "ReceiveFromChain",
      "type": "event"
    },
    {
      "anonymous": false,
      "inputs": [
        {
          "indexed": true,
          "internalType": "address",
          "name": "_sender",
          "type": "address"
        },
        {
          "indexed": true,
          "internalType": "uint16",
          "name": "_dstChainId",
          "type": "uint16"
        },
        {
          "indexed": true,
          "internalType": "bytes",
          "name": "_toAddress",
          "type": "bytes"
        },
        {
          "indexed": false,
          "internalType": "uint256",
          "name": "_amount",
          "type": "uint256"
        },
        {
          "indexed": false,
          "internalType": "uint64",
          "name": "_nonce",
          "type": "uint64"
        }
      ],
      "name": "SendToChain",
      "type": "event"
    },
    {
      "anonymous": false,
      "inputs": [
        {
          "indexed": false,
          "internalType": "uint16",
          "name": "_srcChainId",
          "type": "uint16"
        },
        {
          "indexed": false,
          "internalType": "bytes",
          "name": "_srcAddress",
          "type": "bytes"
        }
      ],
      "name": "SetTrustedRemote",
      "type": "event"
    },
    {
      "anonymous": false,
      "inputs": [
        {
          "indexed": true,
          "internalType": "address",
          "name": "from",
          "type": "address"
        },
        {
          "indexed": true,
          "internalType": "address",
          "name": "to",
          "type": "address"
        },
        {
          "indexed": false,
          "internalType": "uint256",
          "name": "value",
          "type": "uint256"
        }
      ],
      "name": "Transfer",
      "type": "event"
    },
    {
      "anonymous": false,
      "inputs": [
        {
          "indexed": false,
          "internalType": "address",
          "name": "account",
          "type": "address"
        }
      ],
      "name": "Unpaused",
      "type": "event"
    },
    {
      "inputs": [],
      "name": "EXTRA_GAS",
      "outputs": [
        {
          "internalType": "uint256",
          "name": "",
          "type": "uint256"
        }
      ],
      "stateMutability": "view",
      "type": "function"
    },
    {
      "inputs": [],
      "name": "PT_SEND",
      "outputs": [
        {
          "internalType": "uint16",
          "name": "",
          "type": "uint16"
        }
      ],
      "stateMutability": "view",
      "type": "function"
    },
    {
      "inputs": [
        {
          "internalType": "address",
          "name": "owner",
          "type": "address"
        },
        {
          "internalType": "address",
          "name": "spender",
          "type": "address"
        }
      ],
      "name": "allowance",
      "outputs": [
        {
          "internalType": "uint256",
          "name": "",
          "type": "uint256"
        }
      ],
      "stateMutability": "view",
      "type": "function"
    },
    {
      "inputs": [
        {
          "internalType": "address",
          "name": "spender",
          "type": "address"
        },
        {
          "internalType": "uint256",
          "name": "amount",
          "type": "uint256"
        }
      ],
      "name": "approve",
      "outputs": [
        {
          "internalType": "bool",
          "name": "",
          "type": "bool"
        }
      ],
      "stateMutability": "nonpayable",
      "type": "function"
    },
    {
      "inputs": [
        {
          "internalType": "address",
          "name": "account",
          "type": "address"
        }
      ],
      "name": "balanceOf",
      "outputs": [
        {
          "internalType": "uint256",
          "name": "",
          "type": "uint256"
        }
      ],
      "stateMutability": "view",
      "type": "function"
    },
    {
      "inputs": [
        {
          "internalType": "uint256",
          "name": "amount",
          "type": "uint256"
        }
      ],
      "name": "burn",
      "outputs": [],
      "stateMutability": "nonpayable",
      "type": "function"
    },
    {
      "inputs": [],
      "name": "canonicalToken",
      "outputs": [
        {
          "internalType": "contract IAgTokenSideChainMultiBridge",
          "name": "",
          "type": "address"
        }
      ],
      "stateMutability": "view",
      "type": "function"
    },
    {
      "inputs": [],
      "name": "decimals",
      "outputs": [
        {
          "internalType": "uint8",
          "name": "",
          "type": "uint8"
        }
      ],
      "stateMutability": "view",
      "type": "function"
    },
    {
      "inputs": [
        {
          "internalType": "address",
          "name": "spender",
          "type": "address"
        },
        {
          "internalType": "uint256",
          "name": "subtractedValue",
          "type": "uint256"
        }
      ],
      "name": "decreaseAllowance",
      "outputs": [
        {
          "internalType": "bool",
          "name": "",
          "type": "bool"
        }
      ],
      "stateMutability": "nonpayable",
      "type": "function"
    },
    {
      "inputs": [
        {
          "internalType": "uint16",
          "name": "_dstChainId",
          "type": "uint16"
        },
        {
          "internalType": "bytes",
          "name": "_toAddress",
          "type": "bytes"
        },
        {
          "internalType": "uint256",
          "name": "_amount",
          "type": "uint256"
        },
        {
          "internalType": "bool",
          "name": "_useZro",
          "type": "bool"
        },
        {
          "internalType": "bytes",
          "name": "_adapterParams",
          "type": "bytes"
        }
      ],
      "name": "estimateSendFee",
      "outputs": [
        {
          "internalType": "uint256",
          "name": "nativeFee",
          "type": "uint256"
        },
        {
          "internalType": "uint256",
          "name": "zroFee",
          "type": "uint256"
        }
      ],
      "stateMutability": "view",
      "type": "function"
    },
    {
      "inputs": [
        {
          "internalType": "uint16",
          "name": "",
          "type": "uint16"
        },
        {
          "internalType": "bytes",
          "name": "",
          "type": "bytes"
        },
        {
          "internalType": "uint64",
          "name": "",
          "type": "uint64"
        }
      ],
      "name": "failedMessages",
      "outputs": [
        {
          "internalType": "bytes32",
          "name": "",
          "type": "bytes32"
        }
      ],
      "stateMutability": "view",
      "type": "function"
    },
    {
      "inputs": [
        {
          "internalType": "uint16",
          "name": "_srcChainId",
          "type": "uint16"
        },
        {
          "internalType": "bytes",
          "name": "_srcAddress",
          "type": "bytes"
        }
      ],
      "name": "forceResumeReceive",
      "outputs": [],
      "stateMutability": "nonpayable",
      "type": "function"
    },
    {
      "inputs": [
        {
          "internalType": "uint16",
          "name": "_version",
          "type": "uint16"
        },
        {
          "internalType": "uint16",
          "name": "_chainId",
          "type": "uint16"
        },
        {
          "internalType": "address",
          "name": "",
          "type": "address"
        },
        {
          "internalType": "uint256",
          "name": "_configType",
          "type": "uint256"
        }
      ],
      "name": "getConfig",
      "outputs": [
        {
          "internalType": "bytes",
          "name": "",
          "type": "bytes"
        }
      ],
      "stateMutability": "view",
      "type": "function"
    },
    {
      "inputs": [
        {
          "internalType": "address",
          "name": "spender",
          "type": "address"
        },
        {
          "internalType": "uint256",
          "name": "addedValue",
          "type": "uint256"
        }
      ],
      "name": "increaseAllowance",
      "outputs": [
        {
          "internalType": "bool",
          "name": "",
          "type": "bool"
        }
      ],
      "stateMutability": "nonpayable",
      "type": "function"
    },
    {
      "inputs": [
        {
          "internalType": "string",
          "name": "_name",
          "type": "string"
        },
        {
          "internalType": "string",
          "name": "_symbol",
          "type": "string"
        },
        {
          "internalType": "address",
          "name": "_lzEndpoint",
          "type": "address"
        },
        {
          "internalType": "address",
          "name": "_treasury",
          "type": "address"
        },
        {
          "internalType": "uint256",
          "name": "initialSupply",
          "type": "uint256"
        }
      ],
      "name": "initialize",
      "outputs": [],
      "stateMutability": "nonpayable",
      "type": "function"
    },
    {
      "inputs": [
        {
          "internalType": "uint16",
          "name": "_srcChainId",
          "type": "uint16"
        },
        {
          "internalType": "bytes",
          "name": "_srcAddress",
          "type": "bytes"
        }
      ],
      "name": "isTrustedRemote",
      "outputs": [
        {
          "internalType": "bool",
          "name": "",
          "type": "bool"
        }
      ],
      "stateMutability": "view",
      "type": "function"
    },
    {
      "inputs": [],
      "name": "lzEndpoint",
      "outputs": [
        {
          "internalType": "contract ILayerZeroEndpoint",
          "name": "",
          "type": "address"
        }
      ],
      "stateMutability": "view",
      "type": "function"
    },
    {
      "inputs": [
        {
          "internalType": "uint16",
          "name": "_srcChainId",
          "type": "uint16"
        },
        {
          "internalType": "bytes",
          "name": "_srcAddress",
          "type": "bytes"
        },
        {
          "internalType": "uint64",
          "name": "_nonce",
          "type": "uint64"
        },
        {
          "internalType": "bytes",
          "name": "_payload",
          "type": "bytes"
        }
      ],
      "name": "lzReceive",
      "outputs": [],
      "stateMutability": "nonpayable",
      "type": "function"
    },
    {
      "inputs": [
        {
          "internalType": "uint16",
          "name": "",
          "type": "uint16"
        },
        {
          "internalType": "uint16",
          "name": "",
          "type": "uint16"
        }
      ],
      "name": "minDstGasLookup",
      "outputs": [
        {
          "internalType": "uint256",
          "name": "",
          "type": "uint256"
        }
      ],
      "stateMutability": "view",
      "type": "function"
    },
    {
      "inputs": [
        {
          "internalType": "uint256",
          "name": "amount",
          "type": "uint256"
        }
      ],
      "name": "mint",
      "outputs": [],
      "stateMutability": "nonpayable",
      "type": "function"
    },
    {
      "inputs": [],
      "name": "name",
      "outputs": [
        {
          "internalType": "string",
          "name": "",
          "type": "string"
        }
      ],
      "stateMutability": "view",
      "type": "function"
    },
    {
      "inputs": [
        {
          "internalType": "uint16",
          "name": "_srcChainId",
          "type": "uint16"
        },
        {
          "internalType": "bytes",
          "name": "_srcAddress",
          "type": "bytes"
        },
        {
          "internalType": "uint64",
          "name": "_nonce",
          "type": "uint64"
        },
        {
          "internalType": "bytes",
          "name": "_payload",
          "type": "bytes"
        }
      ],
      "name": "nonblockingLzReceive",
      "outputs": [],
      "stateMutability": "nonpayable",
      "type": "function"
    },
    {
      "inputs": [
        {
          "internalType": "bool",
          "name": "pause",
          "type": "bool"
        }
      ],
      "name": "pauseSendTokens",
      "outputs": [],
      "stateMutability": "nonpayable",
      "type": "function"
    },
    {
      "inputs": [],
      "name": "paused",
      "outputs": [
        {
          "internalType": "bool",
          "name": "",
          "type": "bool"
        }
      ],
      "stateMutability": "view",
      "type": "function"
    },
    {
      "inputs": [],
      "name": "precrime",
      "outputs": [
        {
          "internalType": "address",
          "name": "",
          "type": "address"
        }
      ],
      "stateMutability": "view",
      "type": "function"
    },
    {
      "inputs": [
        {
          "internalType": "uint16",
          "name": "_srcChainId",
          "type": "uint16"
        },
        {
          "internalType": "bytes",
          "name": "_srcAddress",
          "type": "bytes"
        },
        {
          "internalType": "uint64",
          "name": "_nonce",
          "type": "uint64"
        },
        {
          "internalType": "bytes",
          "name": "_payload",
          "type": "bytes"
        }
      ],
      "name": "retryMessage",
      "outputs": [],
      "stateMutability": "payable",
      "type": "function"
    },
    {
      "inputs": [
        {
          "internalType": "uint16",
          "name": "_dstChainId",
          "type": "uint16"
        },
        {
          "internalType": "bytes",
          "name": "_toAddress",
          "type": "bytes"
        },
        {
          "internalType": "uint256",
          "name": "_amount",
          "type": "uint256"
        },
        {
          "internalType": "address payable",
          "name": "_refundAddress",
          "type": "address"
        },
        {
          "internalType": "address",
          "name": "_zroPaymentAddress",
          "type": "address"
        },
        {
          "internalType": "bytes",
          "name": "_adapterParams",
          "type": "bytes"
        }
      ],
      "name": "send",
      "outputs": [],
      "stateMutability": "payable",
      "type": "function"
    },
    {
      "inputs": [
        {
          "internalType": "uint16",
          "name": "_dstChainId",
          "type": "uint16"
        },
        {
          "internalType": "bytes",
          "name": "_toAddress",
          "type": "bytes"
        },
        {
          "internalType": "uint256",
          "name": "_amount",
          "type": "uint256"
        },
        {
          "internalType": "address payable",
          "name": "_refundAddress",
          "type": "address"
        },
        {
          "internalType": "address",
          "name": "_zroPaymentAddress",
          "type": "address"
        },
        {
          "internalType": "bytes",
          "name": "_adapterParams",
          "type": "bytes"
        }
      ],
      "name": "sendCredit",
      "outputs": [],
      "stateMutability": "payable",
      "type": "function"
    },
    {
      "inputs": [
        {
          "internalType": "uint16",
          "name": "_dstChainId",
          "type": "uint16"
        },
        {
          "internalType": "bytes",
          "name": "_toAddress",
          "type": "bytes"
        },
        {
          "internalType": "uint256",
          "name": "_amount",
          "type": "uint256"
        },
        {
          "internalType": "address payable",
          "name": "_refundAddress",
          "type": "address"
        },
        {
          "internalType": "address",
          "name": "_zroPaymentAddress",
          "type": "address"
        },
        {
          "internalType": "bytes",
          "name": "_adapterParams",
          "type": "bytes"
        },
        {
          "internalType": "uint256",
          "name": "deadline",
          "type": "uint256"
        },
        {
          "internalType": "uint8",
          "name": "v",
          "type": "uint8"
        },
        {
          "internalType": "bytes32",
          "name": "r",
          "type": "bytes32"
        },
        {
          "internalType": "bytes32",
          "name": "s",
          "type": "bytes32"
        }
      ],
      "name": "sendWithPermit",
      "outputs": [],
      "stateMutability": "payable",
      "type": "function"
    },
    {
      "inputs": [
        {
          "internalType": "uint16",
          "name": "_version",
          "type": "uint16"
        },
        {
          "internalType": "uint16",
          "name": "_chainId",
          "type": "uint16"
        },
        {
          "internalType": "uint256",
          "name": "_configType",
          "type": "uint256"
        },
        {
          "internalType": "bytes",
          "name": "_config",
          "type": "bytes"
        }
      ],
      "name": "setConfig",
      "outputs": [],
      "stateMutability": "nonpayable",
      "type": "function"
    },
    {
      "inputs": [
        {
          "internalType": "uint16",
          "name": "_dstChainId",
          "type": "uint16"
        },
        {
          "internalType": "uint16",
          "name": "_packetType",
          "type": "uint16"
        },
        {
          "internalType": "uint256",
          "name": "_minGas",
          "type": "uint256"
        }
      ],
      "name": "setMinDstGas",
      "outputs": [],
      "stateMutability": "nonpayable",
      "type": "function"
    },
    {
      "inputs": [
        {
          "internalType": "address",
          "name": "_precrime",
          "type": "address"
        }
      ],
      "name": "setPrecrime",
      "outputs": [],
      "stateMutability": "nonpayable",
      "type": "function"
    },
    {
      "inputs": [
        {
          "internalType": "uint16",
          "name": "_version",
          "type": "uint16"
        }
      ],
      "name": "setReceiveVersion",
      "outputs": [],
      "stateMutability": "nonpayable",
      "type": "function"
    },
    {
      "inputs": [
        {
          "internalType": "uint16",
          "name": "_version",
          "type": "uint16"
        }
      ],
      "name": "setSendVersion",
      "outputs": [],
      "stateMutability": "nonpayable",
      "type": "function"
    },
    {
      "inputs": [
        {
          "internalType": "uint16",
          "name": "_srcChainId",
          "type": "uint16"
        },
        {
          "internalType": "bytes",
          "name": "_srcAddress",
          "type": "bytes"
        }
      ],
      "name": "setTrustedRemote",
      "outputs": [],
      "stateMutability": "nonpayable",
      "type": "function"
    },
    {
      "inputs": [
        {
          "internalType": "uint8",
          "name": "_useCustomAdapterParams",
          "type": "uint8"
        }
      ],
      "name": "setUseCustomAdapterParams",
      "outputs": [],
      "stateMutability": "nonpayable",
      "type": "function"
    },
    {
      "inputs": [],
      "name": "setupAllowance",
      "outputs": [],
      "stateMutability": "nonpayable",
      "type": "function"
    },
    {
      "inputs": [
        {
          "internalType": "bytes4",
          "name": "interfaceId",
          "type": "bytes4"
        }
      ],
      "name": "supportsInterface",
      "outputs": [
        {
          "internalType": "bool",
          "name": "",
          "type": "bool"
        }
      ],
      "stateMutability": "view",
      "type": "function"
    },
    {
      "inputs": [],
      "name": "symbol",
      "outputs": [
        {
          "internalType": "string",
          "name": "",
          "type": "string"
        }
      ],
      "stateMutability": "view",
      "type": "function"
    },
    {
      "inputs": [],
      "name": "totalSupply",
      "outputs": [
        {
          "internalType": "uint256",
          "name": "",
          "type": "uint256"
        }
      ],
      "stateMutability": "view",
      "type": "function"
    },
    {
      "inputs": [
        {
          "internalType": "address",
          "name": "to",
          "type": "address"
        },
        {
          "internalType": "uint256",
          "name": "amount",
          "type": "uint256"
        }
      ],
      "name": "transfer",
      "outputs": [
        {
          "internalType": "bool",
          "name": "",
          "type": "bool"
        }
      ],
      "stateMutability": "nonpayable",
      "type": "function"
    },
    {
      "inputs": [
        {
          "internalType": "address",
          "name": "from",
          "type": "address"
        },
        {
          "internalType": "address",
          "name": "to",
          "type": "address"
        },
        {
          "internalType": "uint256",
          "name": "amount",
          "type": "uint256"
        }
      ],
      "name": "transferFrom",
      "outputs": [
        {
          "internalType": "bool",
          "name": "",
          "type": "bool"
        }
      ],
      "stateMutability": "nonpayable",
      "type": "function"
    },
    {
      "inputs": [],
      "name": "treasury",
      "outputs": [
        {
          "internalType": "address",
          "name": "",
          "type": "address"
        }
      ],
      "stateMutability": "view",
      "type": "function"
    },
    {
      "inputs": [
        {
          "internalType": "uint16",
          "name": "",
          "type": "uint16"
        }
      ],
      "name": "trustedRemoteLookup",
      "outputs": [
        {
          "internalType": "bytes",
          "name": "",
          "type": "bytes"
        }
      ],
      "stateMutability": "view",
      "type": "function"
    },
    {
      "inputs": [],
      "name": "useCustomAdapterParams",
      "outputs": [
        {
          "internalType": "uint8",
          "name": "",
          "type": "uint8"
        }
      ],
      "stateMutability": "view",
      "type": "function"
    },
    {
      "inputs": [
        {
          "internalType": "uint256",
          "name": "amount",
          "type": "uint256"
        },
        {
          "internalType": "address",
          "name": "recipient",
          "type": "address"
        }
      ],
      "name": "withdraw",
      "outputs": [
        {
          "internalType": "uint256",
          "name": "amountMinted",
          "type": "uint256"
        }
      ],
      "stateMutability": "nonpayable",
      "type": "function"
    }
  ],
  "transactionHash": "0xc1ee2705725e14f712dd375044f259f19b124699d9d7be2cf55df11a573aa087",
  "args": [],
  "numDeployments": 1,
  "solcInputHash": "5b32b398159a217fe332309d645e3f53",
  "bytecode": "0x60806040523480156200001157600080fd5b50600054610100900460ff1615808015620000335750600054600160ff909116105b8062000063575062000050306200013d60201b6200253a1760201c565b15801562000063575060005460ff166001145b620000cb5760405162461bcd60e51b815260206004820152602e60248201527f496e697469616c697a61626c653a20636f6e747261637420697320616c72656160448201526d191e481a5b9a5d1a585b1a5e995960921b606482015260840160405180910390fd5b6000805460ff191660011790558015620000ef576000805461ff0019166101001790555b801562000136576000805461ff0019169055604051600181527f7f26b83ff96e1f2b6a682f133852f6798a09c465da95921460cefb38474024989060200160405180910390a15b506200014c565b6001600160a01b03163b151590565b6147cc806200015c6000396000f3fe6080604052600436106102fb5760003560e01c806370a082311161018f578063c9aba0aa116100e1578063e09e911e1161008a578063eed33cef11610064578063eed33cef14610944578063f187892214610957578063f5ecbdbc1461097757600080fd5b8063e09e911e146108f5578063eb8d72b71461090a578063ed629c5c1461092a57600080fd5b8063d1deba1f116100bb578063d1deba1f1461086f578063dd62ed3e14610882578063df2a5b3b146108d557600080fd5b8063c9aba0aa14610801578063cbed8b9c14610821578063ceb76b551461084157600080fd5b806395d89b4111610143578063a9059cbb1161011d578063a9059cbb1461078e578063b353aaa7146107ae578063baf3292d146107e157600080fd5b806395d89b4114610739578063a0712d681461074e578063a457c2d71461076e57600080fd5b806385edd8ae1161017457806385edd8ae146106c15780638cfd8f5c146106d4578063950c8a741461070c57600080fd5b806370a082311461065e5780637533d788146106a157600080fd5b80632a205e3d116102535780634c42899a116101fc5780636147def2116101d65780636147def2146105cc57806361d027b3146105ec57806366ad5c8a1461063e57600080fd5b80634c42899a1461053d5780635b8c41e6146105655780635c975abb146105b457600080fd5b80633d8b38f61161022d5780633d8b38f6146104dd57806342966c68146104fd57806342d65a8d1461051d57600080fd5b80632a205e3d14610466578063313ce5671461049b57806339509351146104bd57600080fd5b8063095ea7b3116102b557806318160ddd1161028f57806318160ddd1461041a5780631d82e9c71461042f57806323b872dd1461044657600080fd5b8063095ea7b3146103c757806310ddb137146103e757806310f958251461040757600080fd5b806301ffc9a7116102e657806301ffc9a71461035557806306fdde031461038557806307e0db17146103a757600080fd5b80621d356714610300578062f714ce14610322575b600080fd5b34801561030c57600080fd5b5061032061031b366004613969565b610997565b005b34801561032e57600080fd5b5061034261033d366004613a1f565b610af5565b6040519081526020015b60405180910390f35b34801561036157600080fd5b50610375610370366004613a4f565b610bd1565b604051901515815260200161034c565b34801561039157600080fd5b5061039a610c58565b60405161034c9190613aff565b3480156103b357600080fd5b506103206103c2366004613b12565b610cea565b3480156103d357600080fd5b506103756103e2366004613b2d565b610e3b565b3480156103f357600080fd5b50610320610402366004613b12565b610e53565b610320610415366004613b59565b610f7a565b34801561042657600080fd5b5060ca54610342565b34801561043b57600080fd5b5061034262030d4081565b34801561045257600080fd5b50610375610461366004613bff565b610fad565b34801561047257600080fd5b50610486610481366004613c4e565b610fd3565b6040805192835260208301919091520161034c565b3480156104a757600080fd5b5060125b60405160ff909116815260200161034c565b3480156104c957600080fd5b506103756104d8366004613b2d565b6110cb565b3480156104e957600080fd5b506103756104f8366004613d2a565b611117565b34801561050957600080fd5b50610320610518366004613d7d565b6111e3565b34801561052957600080fd5b50610320610538366004613d2a565b6112d2565b34801561054957600080fd5b50610552600081565b60405161ffff909116815260200161034c565b34801561057157600080fd5b50610342610580366004613d96565b6001602090815260009384526040808520845180860184018051928152908401958401959095209452929052825290205481565b3480156105c057600080fd5b5060fa5460ff16610375565b3480156105d857600080fd5b506103206105e7366004613e09565b611430565b3480156105f857600080fd5b506003546106199073ffffffffffffffffffffffffffffffffffffffff1681565b60405173ffffffffffffffffffffffffffffffffffffffff909116815260200161034c565b34801561064a57600080fd5b50610320610659366004613969565b61152c565b34801561066a57600080fd5b50610342610679366004613e24565b73ffffffffffffffffffffffffffffffffffffffff16600090815260c8602052604090205490565b3480156106ad57600080fd5b5061039a6106bc366004613b12565b611577565b6103206106cf366004613e41565b611611565b3480156106e057600080fd5b506103426106ef366004613f10565b600460209081526000928352604080842090915290825290205481565b34801561071857600080fd5b506005546106199073ffffffffffffffffffffffffffffffffffffffff1681565b34801561074557600080fd5b5061039a6116da565b34801561075a57600080fd5b50610320610769366004613d7d565b6116e9565b34801561077a57600080fd5b50610375610789366004613b2d565b6117d5565b34801561079a57600080fd5b506103756107a9366004613b2d565b6118b6565b3480156107ba57600080fd5b506000546106199062010000900473ffffffffffffffffffffffffffffffffffffffff1681565b3480156107ed57600080fd5b506103206107fc366004613e24565b6118c4565b34801561080d57600080fd5b5061032061081c366004613f43565b6119d3565b34801561082d57600080fd5b5061032061083c366004613fd4565b611c79565b34801561084d57600080fd5b5061012c546106199073ffffffffffffffffffffffffffffffffffffffff1681565b61032061087d366004613969565b611ddd565b34801561088e57600080fd5b5061034261089d366004614043565b73ffffffffffffffffffffffffffffffffffffffff918216600090815260c96020908152604080832093909416825291909152205490565b3480156108e157600080fd5b506103206108f0366004614071565b611ec3565b34801561090157600080fd5b50610320611fec565b34801561091657600080fd5b50610320610925366004613d2a565b6120fc565b34801561093657600080fd5b506064546104ab9060ff1681565b610320610952366004613b59565b612223565b34801561096357600080fd5b506103206109723660046140ad565b612380565b34801561098357600080fd5b5061039a6109923660046140ca565b61245d565b60005462010000900473ffffffffffffffffffffffffffffffffffffffff1633146109ee576040517ff1cbb56700000000000000000000000000000000000000000000000000000000815260040160405180910390fd5b61ffff841660009081526002602052604081208054610a0c90614117565b80601f0160208091040260200160405190810160405280929190818152602001828054610a3890614117565b8015610a855780601f10610a5a57610100808354040283529160200191610a85565b820191906000526020600020905b815481529060010190602001808311610a6857829003601f168201915b5050505050905080518451141580610aab57508080519060200120848051906020012014155b15610ae2576040517f8154374b00000000000000000000000000000000000000000000000000000000815260040160405180910390fd5b610aee85858585612556565b5050505050565b6000610b02333085612661565b61012c546040517f151dd7550000000000000000000000000000000000000000000000000000000081523060048201526024810185905273ffffffffffffffffffffffffffffffffffffffff84811660448301529091169063151dd755906064016020604051808303816000875af1158015610b82573d6000803e3d6000fd5b505050506040513d601f19601f82011682018060405250810190610ba6919061416a565b30600090815260c860205260409020549091508015610bca57610bca303383612661565b5092915050565b60007fffffffff0000000000000000000000000000000000000000000000000000000082161580610c4357507fffffffff0000000000000000000000000000000000000000000000000000000082167f36372b0700000000000000000000000000000000000000000000000000000000145b80610c525750610c5282612914565b92915050565b606060cb8054610c6790614117565b80601f0160208091040260200160405190810160405280929190818152602001828054610c9390614117565b8015610ce05780601f10610cb557610100808354040283529160200191610ce0565b820191906000526020600020905b815481529060010190602001808311610cc357829003601f168201915b5050505050905090565b6003546040517f521d4de900000000000000000000000000000000000000000000000000000000815233600482015273ffffffffffffffffffffffffffffffffffffffff9091169063521d4de990602401602060405180830381865afa158015610d58573d6000803e3d6000fd5b505050506040513d601f19601f82011682018060405250810190610d7c9190614183565b610db2576040517f99e120bc00000000000000000000000000000000000000000000000000000000815260040160405180910390fd5b6000546040517f07e0db1700000000000000000000000000000000000000000000000000000000815261ffff831660048201526201000090910473ffffffffffffffffffffffffffffffffffffffff16906307e0db17906024015b600060405180830381600087803b158015610e2757600080fd5b505af1158015610aee573d6000803e3d6000fd5b600033610e498185856129ab565b5060019392505050565b6003546040517f521d4de900000000000000000000000000000000000000000000000000000000815233600482015273ffffffffffffffffffffffffffffffffffffffff9091169063521d4de990602401602060405180830381865afa158015610ec1573d6000803e3d6000fd5b505050506040513d601f19601f82011682018060405250810190610ee59190614183565b610f1b576040517f99e120bc00000000000000000000000000000000000000000000000000000000815260040160405180910390fd5b6000546040517f10ddb13700000000000000000000000000000000000000000000000000000000815261ffff831660048201526201000090910473ffffffffffffffffffffffffffffffffffffffff16906310ddb13790602401610e0d565b610f8a8660008362030d40612b5f565b610f95868686612bb4565b9350610fa5868686868686612bc8565b505050505050565b600033610fbb858285612bdd565b610fc6858585612661565b60019150505b9392505050565b60008060008686604051602001610feb9291906141a0565b604080518083037fffffffffffffffffffffffffffffffffffffffffffffffffffffffffffffffe0018152908290526000547f40a7bb1000000000000000000000000000000000000000000000000000000000835290925062010000900473ffffffffffffffffffffffffffffffffffffffff16906340a7bb109061107c908b90309086908b908b906004016141c2565b6040805180830381865afa158015611098573d6000803e3d6000fd5b505050506040513d601f19601f820116820180604052508101906110bc9190614221565b92509250509550959350505050565b33600081815260c96020908152604080832073ffffffffffffffffffffffffffffffffffffffff87168452909152812054909190610e499082908690611112908790614274565b6129ab565b61ffff83166000908152600260205260408120805482919061113890614117565b80601f016020809104026020016040519081016040528092919081815260200182805461116490614117565b80156111b15780601f10611186576101008083540402835291602001916111b1565b820191906000526020600020905b81548152906001019060200180831161119457829003601f168201915b5050505050905083836040516111c8929190614287565b60405180910390208180519060200120149150509392505050565b6003546040517f521d4de900000000000000000000000000000000000000000000000000000000815233600482015273ffffffffffffffffffffffffffffffffffffffff9091169063521d4de990602401602060405180830381865afa158015611251573d6000803e3d6000fd5b505050506040513d601f19601f820116820180604052508101906112759190614183565b6112ab576040517f99e120bc00000000000000000000000000000000000000000000000000000000815260040160405180910390fd5b61012c546112cf9073ffffffffffffffffffffffffffffffffffffffff1682612cae565b50565b6003546040517f521d4de900000000000000000000000000000000000000000000000000000000815233600482015273ffffffffffffffffffffffffffffffffffffffff9091169063521d4de990602401602060405180830381865afa158015611340573d6000803e3d6000fd5b505050506040513d601f19601f820116820180604052508101906113649190614183565b61139a576040517f99e120bc00000000000000000000000000000000000000000000000000000000815260040160405180910390fd5b6000546040517f42d65a8d0000000000000000000000000000000000000000000000000000000081526201000090910473ffffffffffffffffffffffffffffffffffffffff16906342d65a8d906113f9908690869086906004016142e0565b600060405180830381600087803b15801561141357600080fd5b505af1158015611427573d6000803e3d6000fd5b50505050505050565b6003546040517f521d4de900000000000000000000000000000000000000000000000000000000815233600482015273ffffffffffffffffffffffffffffffffffffffff9091169063521d4de990602401602060405180830381865afa15801561149e573d6000803e3d6000fd5b505050506040513d601f19601f820116820180604052508101906114c29190614183565b6114f8576040517f99e120bc00000000000000000000000000000000000000000000000000000000815260040160405180910390fd5b606480547fffffffffffffffffffffffffffffffffffffffffffffffffffffffffffffff001660ff92909216919091179055565b333014611565576040517f48f5c3ed00000000000000000000000000000000000000000000000000000000815260040160405180910390fd5b61157184848484612e98565b50505050565b6002602052600090815260409020805461159090614117565b80601f01602080910402602001604051908101604052809291908181526020018280546115bc90614117565b80156116095780601f106115de57610100808354040283529160200191611609565b820191906000526020600020905b8154815290600101906020018083116115ec57829003601f168201915b505050505081565b61012c546040517fd505accf000000000000000000000000000000000000000000000000000000008152336004820152306024820152604481018a90526064810186905260ff8516608482015260a4810184905260c4810183905273ffffffffffffffffffffffffffffffffffffffff9091169063d505accf9060e401600060405180830381600087803b1580156116a857600080fd5b505af11580156116bc573d6000803e3d6000fd5b505050506116ce8a8a8a8a8a8a612223565b50505050505050505050565b606060cc8054610c6790614117565b6003546040517f521d4de900000000000000000000000000000000000000000000000000000000815233600482015273ffffffffffffffffffffffffffffffffffffffff9091169063521d4de990602401602060405180830381865afa158015611757573d6000803e3d6000fd5b505050506040513d601f19601f8201168201806040525081019061177b9190614183565b6117b1576040517f99e120bc00000000000000000000000000000000000000000000000000000000815260040160405180910390fd5b61012c546112cf9073ffffffffffffffffffffffffffffffffffffffff1682612f43565b33600081815260c96020908152604080832073ffffffffffffffffffffffffffffffffffffffff871684529091528120549091908381101561189e576040517f08c379a000000000000000000000000000000000000000000000000000000000815260206004820152602560248201527f45524332303a2064656372656173656420616c6c6f77616e63652062656c6f7760448201527f207a65726f00000000000000000000000000000000000000000000000000000060648201526084015b60405180910390fd5b6118ab82868684036129ab565b506001949350505050565b600033610e49818585612661565b6003546040517f521d4de900000000000000000000000000000000000000000000000000000000815233600482015273ffffffffffffffffffffffffffffffffffffffff9091169063521d4de990602401602060405180830381865afa158015611932573d6000803e3d6000fd5b505050506040513d601f19601f820116820180604052508101906119569190614183565b61198c576040517f99e120bc00000000000000000000000000000000000000000000000000000000815260040160405180910390fd5b600580547fffffffffffffffffffffffff00000000000000000000000000000000000000001673ffffffffffffffffffffffffffffffffffffffff92909216919091179055565b600054610100900460ff16158080156119f35750600054600160ff909116105b80611a0d5750303b158015611a0d575060005460ff166001145b611a99576040517f08c379a000000000000000000000000000000000000000000000000000000000815260206004820152602e60248201527f496e697469616c697a61626c653a20636f6e747261637420697320616c72656160448201527f647920696e697469616c697a65640000000000000000000000000000000000006064820152608401611895565b600080547fffffffffffffffffffffffffffffffffffffffffffffffffffffffffffffff001660011790558015611af757600080547fffffffffffffffffffffffffffffffffffffffffffffffffffffffffffff00ff166101001790555b611b018686613063565b611b0b8484613113565b8273ffffffffffffffffffffffffffffffffffffffff1663e9cbd8226040518163ffffffff1660e01b8152600401602060405180830381865afa158015611b56573d6000803e3d6000fd5b505050506040513d601f19601f82011682018060405250810190611b7a91906142fe565b61012c80547fffffffffffffffffffffffff00000000000000000000000000000000000000001673ffffffffffffffffffffffffffffffffffffffff929092169182179055611beb9030907fffffffffffffffffffffffffffffffffffffffffffffffffffffffffffffffff6129ab565b61012c54611c0f9073ffffffffffffffffffffffffffffffffffffffff1683612f43565b8015610fa557600080547fffffffffffffffffffffffffffffffffffffffffffffffffffffffffffff00ff169055604051600181527f7f26b83ff96e1f2b6a682f133852f6798a09c465da95921460cefb38474024989060200160405180910390a1505050505050565b6003546040517f521d4de900000000000000000000000000000000000000000000000000000000815233600482015273ffffffffffffffffffffffffffffffffffffffff9091169063521d4de990602401602060405180830381865afa158015611ce7573d6000803e3d6000fd5b505050506040513d601f19601f82011682018060405250810190611d0b9190614183565b611d41576040517f99e120bc00000000000000000000000000000000000000000000000000000000815260040160405180910390fd5b6000546040517fcbed8b9c0000000000000000000000000000000000000000000000000000000081526201000090910473ffffffffffffffffffffffffffffffffffffffff169063cbed8b9c90611da4908890889088908890889060040161431b565b600060405180830381600087803b158015611dbe57600080fd5b505af1158015611dd2573d6000803e3d6000fd5b505050505050505050565b61ffff84166000908152600160205260408082209051611dfe908690614354565b908152604080516020928190038301902067ffffffffffffffff8616600090815292529020549050801580611e395750815160208301208114155b15611e70576040517f7c6953f900000000000000000000000000000000000000000000000000000000815260040160405180910390fd5b61ffff85166000908152600160205260408082209051611e91908790614354565b908152604080516020928190038301902067ffffffffffffffff871660009081529252902055610aee85858585612e98565b6003546040517f521d4de900000000000000000000000000000000000000000000000000000000815233600482015273ffffffffffffffffffffffffffffffffffffffff9091169063521d4de990602401602060405180830381865afa158015611f31573d6000803e3d6000fd5b505050506040513d601f19601f82011682018060405250810190611f559190614183565b611f8b576040517f99e120bc00000000000000000000000000000000000000000000000000000000815260040160405180910390fd5b80600003611fc5576040517fa86b651200000000000000000000000000000000000000000000000000000000815260040160405180910390fd5b61ffff92831660009081526004602090815260408083209490951682529290925291902055565b6003546040517f521d4de900000000000000000000000000000000000000000000000000000000815233600482015273ffffffffffffffffffffffffffffffffffffffff9091169063521d4de990602401602060405180830381865afa15801561205a573d6000803e3d6000fd5b505050506040513d601f19601f8201168201806040525081019061207e9190614183565b6120b4576040517f99e120bc00000000000000000000000000000000000000000000000000000000815260040160405180910390fd5b61012c546120fa90309073ffffffffffffffffffffffffffffffffffffffff167fffffffffffffffffffffffffffffffffffffffffffffffffffffffffffffffff6129ab565b565b6003546040517f521d4de900000000000000000000000000000000000000000000000000000000815233600482015273ffffffffffffffffffffffffffffffffffffffff9091169063521d4de990602401602060405180830381865afa15801561216a573d6000803e3d6000fd5b505050506040513d601f19601f8201168201806040525081019061218e9190614183565b6121c4576040517f99e120bc00000000000000000000000000000000000000000000000000000000815260040160405180910390fd5b61ffff831660009081526002602052604090206121e28284836143b6565b507ffa41487ad5d6728f0b19276fa1eddc16558578f5109fc39d2dc33c3230470dab838383604051612216939291906142e0565b60405180910390a1505050565b6122338660008362030d40612b5f565b61223e8686866131f6565b9350600085856040516020016122559291906141a0565b60405160208183030381529060405290506122738782868686613352565b600080546040517f7a14574800000000000000000000000000000000000000000000000000000000815261ffff8a1660048201523060248201526201000090910473ffffffffffffffffffffffffffffffffffffffff1690637a14574890604401602060405180830381865afa1580156122f1573d6000803e3d6000fd5b505050506040513d601f19601f8201168201806040525081019061231591906144d0565b9050866040516123259190614354565b6040805191829003822088835267ffffffffffffffff841660208401529161ffff8b169133917f024797cc77ce15dc717112d54fb1df125fdfd8c81344fb046c5e074427ce1543910160405180910390a45050505050505050565b6003546040517f521d4de900000000000000000000000000000000000000000000000000000000815233600482015273ffffffffffffffffffffffffffffffffffffffff9091169063521d4de990602401602060405180830381865afa1580156123ee573d6000803e3d6000fd5b505050506040513d601f19601f820116820180604052508101906124129190614183565b612448576040517f99e120bc00000000000000000000000000000000000000000000000000000000815260040160405180910390fd5b80612455576112cf6134cc565b6112cf613549565b6000546040517ff5ecbdbc00000000000000000000000000000000000000000000000000000000815261ffff8087166004830152851660248201523060448201526064810183905260609162010000900473ffffffffffffffffffffffffffffffffffffffff169063f5ecbdbc90608401600060405180830381865afa1580156124eb573d6000803e3d6000fd5b505050506040513d6000823e601f3d9081017fffffffffffffffffffffffffffffffffffffffffffffffffffffffffffffffe0168201604052612531919081019061453a565b95945050505050565b73ffffffffffffffffffffffffffffffffffffffff163b151590565b6040517f66ad5c8a00000000000000000000000000000000000000000000000000000000815230906366ad5c8a9061259890879087908790879060040161456f565b600060405180830381600087803b1580156125b257600080fd5b505af19250505080156125c3575060015b611571578080519060200120600160008661ffff1661ffff168152602001908152602001600020846040516125f89190614354565b90815260408051918290036020908101832067ffffffffffffffff87166000908152915220919091557fe6f254030bcb01ffd20558175c13fcaed6d1520be7becee4c961b65f79243b0d9061265490869086908690869061456f565b60405180910390a1611571565b73ffffffffffffffffffffffffffffffffffffffff8316612704576040517f08c379a000000000000000000000000000000000000000000000000000000000815260206004820152602560248201527f45524332303a207472616e736665722066726f6d20746865207a65726f20616460448201527f64726573730000000000000000000000000000000000000000000000000000006064820152608401611895565b73ffffffffffffffffffffffffffffffffffffffff82166127a7576040517f08c379a000000000000000000000000000000000000000000000000000000000815260206004820152602360248201527f45524332303a207472616e7366657220746f20746865207a65726f206164647260448201527f65737300000000000000000000000000000000000000000000000000000000006064820152608401611895565b73ffffffffffffffffffffffffffffffffffffffff8316600090815260c860205260409020548181101561285d576040517f08c379a000000000000000000000000000000000000000000000000000000000815260206004820152602660248201527f45524332303a207472616e7366657220616d6f756e742065786365656473206260448201527f616c616e636500000000000000000000000000000000000000000000000000006064820152608401611895565b73ffffffffffffffffffffffffffffffffffffffff808516600090815260c860205260408082208585039055918516815290812080548492906128a1908490614274565b925050819055508273ffffffffffffffffffffffffffffffffffffffff168473ffffffffffffffffffffffffffffffffffffffff167fddf252ad1be2c89b69c2b068fc378daa952ba7f163c4a11628f55a4df523b3ef8460405161290791815260200190565b60405180910390a3611571565b60007fffffffff0000000000000000000000000000000000000000000000000000000082167f5110f697000000000000000000000000000000000000000000000000000000001480610c5257507f01ffc9a7000000000000000000000000000000000000000000000000000000007fffffffff00000000000000000000000000000000000000000000000000000000831614610c52565b73ffffffffffffffffffffffffffffffffffffffff8316612a4d576040517f08c379a0000000000000000000000000000000000000000000000000000000008152602060048201526024808201527f45524332303a20617070726f76652066726f6d20746865207a65726f2061646460448201527f72657373000000000000000000000000000000000000000000000000000000006064820152608401611895565b73ffffffffffffffffffffffffffffffffffffffff8216612af0576040517f08c379a000000000000000000000000000000000000000000000000000000000815260206004820152602260248201527f45524332303a20617070726f766520746f20746865207a65726f20616464726560448201527f73730000000000000000000000000000000000000000000000000000000000006064820152608401611895565b73ffffffffffffffffffffffffffffffffffffffff838116600081815260c9602090815260408083209487168084529482529182902085905590518481527f8c5be1e5ebec7d5bd14f71427d1e84f3dd0314c0f7b2291e5b200ac8c7c3b92591015b60405180910390a3505050565b60645460ff1615612b7b57612b76848484846135a4565b611571565b815115611571576040517fa86b651200000000000000000000000000000000000000000000000000000000815260040160405180910390fd5b6000612bbe61361f565b610bca3383612cae565b600085856040516020016122559291906141a0565b73ffffffffffffffffffffffffffffffffffffffff838116600090815260c960209081526040808320938616835292905220547fffffffffffffffffffffffffffffffffffffffffffffffffffffffffffffffff81146115715781811015612ca1576040517f08c379a000000000000000000000000000000000000000000000000000000000815260206004820152601d60248201527f45524332303a20696e73756666696369656e7420616c6c6f77616e63650000006044820152606401611895565b61157184848484036129ab565b73ffffffffffffffffffffffffffffffffffffffff8216612d51576040517f08c379a000000000000000000000000000000000000000000000000000000000815260206004820152602160248201527f45524332303a206275726e2066726f6d20746865207a65726f2061646472657360448201527f73000000000000000000000000000000000000000000000000000000000000006064820152608401611895565b73ffffffffffffffffffffffffffffffffffffffff8216600090815260c8602052604090205481811015612e07576040517f08c379a000000000000000000000000000000000000000000000000000000000815260206004820152602260248201527f45524332303a206275726e20616d6f756e7420657863656564732062616c616e60448201527f63650000000000000000000000000000000000000000000000000000000000006064820152608401611895565b73ffffffffffffffffffffffffffffffffffffffff8316600090815260c860205260408120838303905560ca8054849290612e439084906145ae565b909155505060405182815260009073ffffffffffffffffffffffffffffffffffffffff8516907fddf252ad1be2c89b69c2b068fc378daa952ba7f163c4a11628f55a4df523b3ef90602001612b52565b505050565b60008082806020019051810190612eaf91906145c1565b60148201519193509150612ec487828461368c565b91508073ffffffffffffffffffffffffffffffffffffffff1686604051612eeb9190614354565b6040805191829003822085835267ffffffffffffffff891660208401529161ffff8b16917f64e10c37f404d128982dce114f5d233c14c5c7f6d8db93099e3d99dacb9e27ba910160405180910390a450505050505050565b73ffffffffffffffffffffffffffffffffffffffff8216612fc0576040517f08c379a000000000000000000000000000000000000000000000000000000000815260206004820152601f60248201527f45524332303a206d696e7420746f20746865207a65726f2061646472657373006044820152606401611895565b8060ca6000828254612fd29190614274565b909155505073ffffffffffffffffffffffffffffffffffffffff8216600090815260c860205260408120805483929061300c908490614274565b909155505060405181815273ffffffffffffffffffffffffffffffffffffffff8316906000907fddf252ad1be2c89b69c2b068fc378daa952ba7f163c4a11628f55a4df523b3ef9060200160405180910390a35050565b600054610100900460ff166130fa576040517f08c379a000000000000000000000000000000000000000000000000000000000815260206004820152602b60248201527f496e697469616c697a61626c653a20636f6e7472616374206973206e6f74206960448201527f6e697469616c697a696e670000000000000000000000000000000000000000006064820152608401611895565b60cb6131068382614608565b5060cc612e938282614608565b73ffffffffffffffffffffffffffffffffffffffff8216158061314a575073ffffffffffffffffffffffffffffffffffffffff8116155b15613181576040517fd92e233d00000000000000000000000000000000000000000000000000000000815260040160405180910390fd5b600080547fffffffffffffffffffff0000000000000000000000000000000000000000ffff166201000073ffffffffffffffffffffffffffffffffffffffff94851602179055600380547fffffffffffffffffffffffff00000000000000000000000000000000000000001691909216179055565b600061320061361f565b61012c546040517f23b872dd0000000000000000000000000000000000000000000000000000000081523360048201523060248201526044810184905273ffffffffffffffffffffffffffffffffffffffff909116906323b872dd906064016020604051808303816000875af115801561327e573d6000803e3d6000fd5b505050506040513d601f19601f820116820180604052508101906132a29190614183565b5061012c546040517fd44ad63f000000000000000000000000000000000000000000000000000000008152306004820181905260248201859052604482015273ffffffffffffffffffffffffffffffffffffffff9091169063d44ad63f906064016020604051808303816000875af1158015613322573d6000803e3d6000fd5b505050506040513d601f19601f82011682018060405250810190613346919061416a565b9050610fcc3082612cae565b61ffff85166000908152600260205260408120805461337090614117565b80601f016020809104026020016040519081016040528092919081815260200182805461339c90614117565b80156133e95780601f106133be576101008083540402835291602001916133e9565b820191906000526020600020905b8154815290600101906020018083116133cc57829003601f168201915b50505050509050805160000361342b576040517f8154374b00000000000000000000000000000000000000000000000000000000815260040160405180910390fd5b6000546040517fc58031000000000000000000000000000000000000000000000000000000000081526201000090910473ffffffffffffffffffffffffffffffffffffffff169063c5803100903490613492908a9086908b908b908b908b90600401614722565b6000604051808303818588803b1580156134ab57600080fd5b505af11580156134bf573d6000803e3d6000fd5b5050505050505050505050565b6134d4613770565b60fa80547fffffffffffffffffffffffffffffffffffffffffffffffffffffffffffffff001690557f5db9ee0a495bf2e6ff9c91a7834c1ba4fdd244a5e8aa4e537bd38aeae4b073aa335b60405173ffffffffffffffffffffffffffffffffffffffff909116815260200160405180910390a1565b61355161361f565b60fa80547fffffffffffffffffffffffffffffffffffffffffffffffffffffffffffffff001660011790557f62e78cea01bee320cd4e420270b5ea74000d11b0c9f74754ebdbfc544b05a25861351f3390565b61ffff80851660009081526004602090815260408083209387168352929052908120546135d2908390614274565b90508015806135e857506135e5836137dc565b81115b15610aee576040517f1c26714c00000000000000000000000000000000000000000000000000000000815260040160405180910390fd5b60fa5460ff16156120fa576040517f08c379a000000000000000000000000000000000000000000000000000000000815260206004820152601060248201527f5061757361626c653a20706175736564000000000000000000000000000000006044820152606401611895565b600061369661361f565b6136a03083612f43565b61012c546040517f151dd7550000000000000000000000000000000000000000000000000000000081523060048201526024810184905273ffffffffffffffffffffffffffffffffffffffff85811660448301529091169063151dd755906064016020604051808303816000875af1158015613720573d6000803e3d6000fd5b505050506040513d601f19601f82011682018060405250810190613744919061416a565b30600090815260c86020526040902054909150801561376857613768308583612661565b509392505050565b60fa5460ff166120fa576040517f08c379a000000000000000000000000000000000000000000000000000000000815260206004820152601460248201527f5061757361626c653a206e6f74207061757365640000000000000000000000006044820152606401611895565b600060228251101561381a576040517fa86b651200000000000000000000000000000000000000000000000000000000815260040160405180910390fd5b506022015190565b803561ffff8116811461383457600080fd5b919050565b7f4e487b7100000000000000000000000000000000000000000000000000000000600052604160045260246000fd5b604051601f82017fffffffffffffffffffffffffffffffffffffffffffffffffffffffffffffffe016810167ffffffffffffffff811182821017156138af576138af613839565b604052919050565b600067ffffffffffffffff8211156138d1576138d1613839565b50601f017fffffffffffffffffffffffffffffffffffffffffffffffffffffffffffffffe01660200190565b600082601f83011261390e57600080fd5b813561392161391c826138b7565b613868565b81815284602083860101111561393657600080fd5b816020850160208301376000918101602001919091529392505050565b67ffffffffffffffff811681146112cf57600080fd5b6000806000806080858703121561397f57600080fd5b61398885613822565b9350602085013567ffffffffffffffff808211156139a557600080fd5b6139b1888389016138fd565b9450604087013591506139c382613953565b909250606086013590808211156139d957600080fd5b506139e6878288016138fd565b91505092959194509250565b73ffffffffffffffffffffffffffffffffffffffff811681146112cf57600080fd5b8035613834816139f2565b60008060408385031215613a3257600080fd5b823591506020830135613a44816139f2565b809150509250929050565b600060208284031215613a6157600080fd5b81357fffffffff0000000000000000000000000000000000000000000000000000000081168114610fcc57600080fd5b60005b83811015613aac578181015183820152602001613a94565b50506000910152565b60008151808452613acd816020860160208601613a91565b601f017fffffffffffffffffffffffffffffffffffffffffffffffffffffffffffffffe0169290920160200192915050565b602081526000610fcc6020830184613ab5565b600060208284031215613b2457600080fd5b610fcc82613822565b60008060408385031215613b4057600080fd5b8235613b4b816139f2565b946020939093013593505050565b60008060008060008060c08789031215613b7257600080fd5b613b7b87613822565b9550602087013567ffffffffffffffff80821115613b9857600080fd5b613ba48a838b016138fd565b96506040890135955060608901359150613bbd826139f2565b909350608088013590613bcf826139f2565b90925060a08801359080821115613be557600080fd5b50613bf289828a016138fd565b9150509295509295509295565b600080600060608486031215613c1457600080fd5b8335613c1f816139f2565b92506020840135613c2f816139f2565b929592945050506040919091013590565b80151581146112cf57600080fd5b600080600080600060a08688031215613c6657600080fd5b613c6f86613822565b9450602086013567ffffffffffffffff80821115613c8c57600080fd5b613c9889838a016138fd565b95506040880135945060608801359150613cb182613c40565b90925060808701359080821115613cc757600080fd5b50613cd4888289016138fd565b9150509295509295909350565b60008083601f840112613cf357600080fd5b50813567ffffffffffffffff811115613d0b57600080fd5b602083019150836020828501011115613d2357600080fd5b9250929050565b600080600060408486031215613d3f57600080fd5b613d4884613822565b9250602084013567ffffffffffffffff811115613d6457600080fd5b613d7086828701613ce1565b9497909650939450505050565b600060208284031215613d8f57600080fd5b5035919050565b600080600060608486031215613dab57600080fd5b613db484613822565b9250602084013567ffffffffffffffff811115613dd057600080fd5b613ddc868287016138fd565b9250506040840135613ded81613953565b809150509250925092565b803560ff8116811461383457600080fd5b600060208284031215613e1b57600080fd5b610fcc82613df8565b600060208284031215613e3657600080fd5b8135610fcc816139f2565b6000806000806000806000806000806101408b8d031215613e6157600080fd5b613e6a8b613822565b995060208b013567ffffffffffffffff80821115613e8757600080fd5b613e938e838f016138fd565b9a5060408d01359950613ea860608e01613a14565b9850613eb660808e01613a14565b975060a08d0135915080821115613ecc57600080fd5b50613ed98d828e016138fd565b95505060c08b01359350613eef60e08c01613df8565b92506101008b013591506101208b013590509295989b9194979a5092959850565b60008060408385031215613f2357600080fd5b613f2c83613822565b9150613f3a60208401613822565b90509250929050565b600080600080600060a08688031215613f5b57600080fd5b853567ffffffffffffffff80821115613f7357600080fd5b613f7f89838a016138fd565b96506020880135915080821115613f9557600080fd5b50613fa2888289016138fd565b9450506040860135613fb3816139f2565b92506060860135613fc3816139f2565b949793965091946080013592915050565b600080600080600060808688031215613fec57600080fd5b613ff586613822565b945061400360208701613822565b935060408601359250606086013567ffffffffffffffff81111561402657600080fd5b61403288828901613ce1565b969995985093965092949392505050565b6000806040838503121561405657600080fd5b8235614061816139f2565b91506020830135613a44816139f2565b60008060006060848603121561408657600080fd5b61408f84613822565b925061409d60208501613822565b9150604084013590509250925092565b6000602082840312156140bf57600080fd5b8135610fcc81613c40565b600080600080608085870312156140e057600080fd5b6140e985613822565b93506140f760208601613822565b92506040850135614107816139f2565b9396929550929360600135925050565b600181811c9082168061412b57607f821691505b602082108103614164577f4e487b7100000000000000000000000000000000000000000000000000000000600052602260045260246000fd5b50919050565b60006020828403121561417c57600080fd5b5051919050565b60006020828403121561419557600080fd5b8151610fcc81613c40565b6040815260006141b36040830185613ab5565b90508260208301529392505050565b61ffff8616815273ffffffffffffffffffffffffffffffffffffffff8516602082015260a0604082015260006141fb60a0830186613ab5565b841515606084015282810360808401526142158185613ab5565b98975050505050505050565b6000806040838503121561423457600080fd5b505080516020909101519092909150565b7f4e487b7100000000000000000000000000000000000000000000000000000000600052601160045260246000fd5b80820180821115610c5257610c52614245565b8183823760009101908152919050565b8183528181602085013750600060208284010152600060207fffffffffffffffffffffffffffffffffffffffffffffffffffffffffffffffe0601f840116840101905092915050565b61ffff84168152604060208201526000612531604083018486614297565b60006020828403121561431057600080fd5b8151610fcc816139f2565b600061ffff808816835280871660208401525084604083015260806060830152614349608083018486614297565b979650505050505050565b60008251614366818460208701613a91565b9190910192915050565b601f821115612e9357600081815260208120601f850160051c810160208610156143975750805b601f850160051c820191505b81811015610fa5578281556001016143a3565b67ffffffffffffffff8311156143ce576143ce613839565b6143e2836143dc8354614117565b83614370565b6000601f84116001811461443457600085156143fe5750838201355b7fffffffffffffffffffffffffffffffffffffffffffffffffffffffffffffffff600387901b1c1916600186901b178355610aee565b6000838152602090207fffffffffffffffffffffffffffffffffffffffffffffffffffffffffffffffe0861690835b828110156144835786850135825560209485019460019092019101614463565b50868210156144be577fffffffffffffffffffffffffffffffffffffffffffffffffffffffffffffffff60f88860031b161c19848701351681555b505060018560011b0183555050505050565b6000602082840312156144e257600080fd5b8151610fcc81613953565b600082601f8301126144fe57600080fd5b815161450c61391c826138b7565b81815284602083860101111561452157600080fd5b614532826020830160208701613a91565b949350505050565b60006020828403121561454c57600080fd5b815167ffffffffffffffff81111561456357600080fd5b614532848285016144ed565b61ffff8516815260806020820152600061458c6080830186613ab5565b67ffffffffffffffff8516604084015282810360608401526143498185613ab5565b81810381811115610c5257610c52614245565b600080604083850312156145d457600080fd5b825167ffffffffffffffff8111156145eb57600080fd5b6145f7858286016144ed565b925050602083015190509250929050565b815167ffffffffffffffff81111561462257614622613839565b614636816146308454614117565b84614370565b602080601f83116001811461468957600084156146535750858301515b7fffffffffffffffffffffffffffffffffffffffffffffffffffffffffffffffff600386901b1c1916600185901b178555610fa5565b6000858152602081207fffffffffffffffffffffffffffffffffffffffffffffffffffffffffffffffe08616915b828110156146d6578886015182559484019460019091019084016146b7565b508582101561471257878501517fffffffffffffffffffffffffffffffffffffffffffffffffffffffffffffffff600388901b60f8161c191681555b5050505050600190811b01905550565b61ffff8716815260c06020820152600061473f60c0830188613ab5565b82810360408401526147518188613ab5565b73ffffffffffffffffffffffffffffffffffffffff87811660608601528616608085015283810360a085015290506147898185613ab5565b999850505050505050505056fea264697066735822122011582645250ee8b89f137c3d9f750329c880929df9f314bc1ff895e119873c5b64736f6c63430008110033",
  "devdoc": {
    "author": "Angle Labs, Inc., forked from https://github.com/LayerZero-Labs/solidity-examples/blob/main/contracts/token/oft/OFT.sol",
    "kind": "dev",
    "methods": {
      "allowance(address,address)": {
        "details": "See {IERC20-allowance}."
      },
      "approve(address,uint256)": {
        "details": "See {IERC20-approve}. NOTE: If `amount` is the maximum `uint256`, the allowance is not updated on `transferFrom`. This is semantically equivalent to an infinite approval. Requirements: - `spender` cannot be the zero address."
      },
      "balanceOf(address)": {
        "details": "See {IERC20-balanceOf}."
      },
      "burn(uint256)": {
        "details": "Used to decrease the bridging capacity"
      },
      "constructor": {
        "custom:oz-upgrades-unsafe-allow": "constructor"
      },
      "decimals()": {
        "details": "Returns the number of decimals used to get its user representation. For example, if `decimals` equals `2`, a balance of `505` tokens should be displayed to a user as `5.05` (`505 / 10 ** 2`). Tokens usually opt for a value of 18, imitating the relationship between Ether and Wei. This is the value {ERC20} uses, unless this function is overridden; NOTE: This information is only used for _display_ purposes: it in no way affects any of the arithmetic of the contract, including {IERC20-balanceOf} and {IERC20-transfer}."
      },
      "decreaseAllowance(address,uint256)": {
        "details": "Atomically decreases the allowance granted to `spender` by the caller. This is an alternative to {approve} that can be used as a mitigation for problems described in {IERC20-approve}. Emits an {Approval} event indicating the updated allowance. Requirements: - `spender` cannot be the zero address. - `spender` must have allowance for the caller of at least `subtractedValue`."
      },
      "estimateSendFee(uint16,bytes,uint256,bool,bytes)": {
        "params": {
          "_adapterParams": "flexible bytes array to indicate messaging adapter services in L0",
          "_amount": "amount of the tokens to transfer",
          "_dstChainId": "L0 defined chain id to send tokens too",
          "_toAddress": "dynamic bytes array which contains the address to whom you are sending tokens to on the dstChain",
          "_useZro": "indicates to use zro to pay L0 fees"
        }
      },
      "increaseAllowance(address,uint256)": {
        "details": "Atomically increases the allowance granted to `spender` by the caller. This is an alternative to {approve} that can be used as a mitigation for problems described in {IERC20-approve}. Emits an {Approval} event indicating the updated allowance. Requirements: - `spender` cannot be the zero address."
      },
      "initialize(string,string,address,address,uint256)": {
        "details": "The initial supply corresponds to the initial amount that could be bridged using this OFT",
        "params": {
          "_lzEndpoint": "Layer zero endpoint to pass messages",
          "_name": "Name of the token corresponding to this contract",
          "_symbol": "Symbol of the token corresponding to this contract",
          "_treasury": "Address of the treasury contract used for access control",
          "initialSupply": "Initial supply to mint to the canonical token address"
        }
      },
      "lzReceive(uint16,bytes,uint64,bytes)": {
        "params": {
          "_nonce": "Nounce of the message",
          "_payload": "Data: recipient address and amount",
          "_srcAddress": "Sender of the source chain",
          "_srcChainId": "ChainId of the source chain - LayerZero standard"
        }
      },
      "mint(uint256)": {
        "details": "Used to increase the bridging capacity"
      },
      "name()": {
        "details": "Returns the name of the token."
      },
      "nonblockingLzReceive(uint16,bytes,uint64,bytes)": {
        "details": "public for the needs of try / catch but effectively internal",
        "params": {
          "_nonce": "Nounce of the message",
          "_payload": "Data: recipient address and amount",
          "_srcAddress": "Sender of the source chain",
          "_srcChainId": "ChainId of the source chain - LayerZero standard"
        }
      },
      "pauseSendTokens(bool)": {
        "params": {
          "pause": "Future pause status"
        }
      },
      "paused()": {
        "details": "Returns true if the contract is paused, and false otherwise."
      },
      "retryMessage(uint16,bytes,uint64,bytes)": {
        "params": {
          "_nonce": "Nounce of the message",
          "_payload": "Data: recipient address and amount",
          "_srcAddress": "Sender of the source chain",
          "_srcChainId": "ChainId of the source chain - LayerZero standard"
        }
      },
      "send(uint16,bytes,uint256,address,address,bytes)": {
        "params": {
          "_adapterParams": "is a flexible bytes array to indicate messaging adapter services",
          "_amount": "the quantity of tokens in wei",
          "_dstChainId": "the destination chain identifier",
          "_refundAddress": "the address LayerZero refunds if too much message fee is sent",
          "_toAddress": "can be any size depending on the `dstChainId`.",
          "_zroPaymentAddress": "set to address(0x0) if not paying in ZRO (LayerZero Token)"
        }
      },
      "sendCredit(uint16,bytes,uint256,address,address,bytes)": {
        "params": {
          "_adapterParams": "is a flexible bytes array to indicate messaging adapter services",
          "_amount": "the quantity of credit to send in wei",
          "_dstChainId": "the destination chain identifier",
          "_refundAddress": "the address LayerZero refunds if too much message fee is sent",
          "_toAddress": "can be any size depending on the `dstChainId`.",
          "_zroPaymentAddress": "set to address(0x0) if not paying in ZRO (LayerZero Token)"
        }
      },
      "sendWithPermit(uint16,bytes,uint256,address,address,bytes,uint256,uint8,bytes32,bytes32)": {
        "details": "The `v`, `r`, and `s` parameters are used as signature data",
        "params": {
          "_adapterParams": "Flexible bytes array to indicate messaging adapter services",
          "_amount": "Quantity of tokens in wei",
          "_dstChainId": "The destination chain identifier",
          "_refundAddress": "Address LayerZero refunds if too much message fee is sent",
          "_toAddress": "Can be any size depending on the `dstChainId`.",
          "_zroPaymentAddress": "Set to address(0x0) if not paying in ZRO (LayerZero Token)",
          "deadline": "Deadline parameter for the signature to be valid"
        }
      },
      "setTrustedRemote(uint16,bytes)": {
        "details": "Used for both receiving and sending messageThere can only be one trusted source per chainAllows owner to set it multiple times.",
        "params": {
          "_srcAddress": "Address on the source chain",
          "_srcChainId": "ChainId of the source chain - LayerZero standard"
        }
      },
      "supportsInterface(bytes4)": {
        "details": "See {IERC165-supportsInterface}."
      },
      "symbol()": {
        "details": "Returns the symbol of the token, usually a shorter version of the name."
      },
      "totalSupply()": {
        "details": "See {IERC20-totalSupply}."
      },
      "transfer(address,uint256)": {
        "details": "See {IERC20-transfer}. Requirements: - `to` cannot be the zero address. - the caller must have a balance of at least `amount`."
      },
      "transferFrom(address,address,uint256)": {
        "details": "See {IERC20-transferFrom}. Emits an {Approval} event indicating the updated allowance. This is not required by the EIP. See the note at the beginning of {ERC20}. NOTE: Does not update the allowance if the current allowance is the maximum `uint256`. Requirements: - `from` and `to` cannot be the zero address. - `from` must have a balance of at least `amount`. - the caller must have allowance for ``from``'s tokens of at least `amount`."
      },
      "withdraw(uint256,address)": {
        "params": {
          "amount": "Amount to withdraw",
          "recipient": "Address to send the canonical token to"
        },
        "returns": {
          "amountMinted": "The amount of canonical token sent"
        }
      }
    },
    "stateVariables": {
      "canonicalToken": {
        "details": "Immutable"
      }
    },
    "title": "LayerZeroBridgeToken",
    "version": 1
  },
  "userdoc": {
    "kind": "user",
    "methods": {
      "EXTRA_GAS()": {
        "notice": "Amount of additional gas specified"
      },
      "PT_SEND()": {
        "notice": "Packet type for token transfer"
      },
      "burn(uint256)": {
        "notice": "Burns the intermediate contract from the `canonicalToken`"
      },
      "canonicalToken()": {
        "notice": "Address of the bridgeable token"
      },
      "estimateSendFee(uint16,bytes,uint256,bool,bytes)": {
        "notice": "Estimates send token `_tokenId` to (`_dstChainId`, `_toAddress`)"
      },
      "failedMessages(uint16,bytes,uint64)": {
        "notice": "Maps chainIds to failed messages to retry them"
      },
      "forceResumeReceive(uint16,bytes)": {
        "notice": "Unpauses the receive functionalities"
      },
      "getConfig(uint16,uint16,address,uint256)": {
        "notice": "Fetches the default LZ config"
      },
      "initialize(string,string,address,address,uint256)": {
        "notice": "Initializes the contract"
      },
      "isTrustedRemote(uint16,bytes)": {
        "notice": "Checks if the `_srcAddress` corresponds to the trusted source"
      },
      "lzEndpoint()": {
        "notice": "Layer Zero endpoint"
      },
      "lzReceive(uint16,bytes,uint64,bytes)": {
        "notice": "Receives a message from the LZ endpoint and process it"
      },
      "minDstGasLookup(uint16,uint16)": {
        "notice": "Maps pairs of (`to` chain, `packetType`) to the minimum amount of gas needed on the destination chain"
      },
      "mint(uint256)": {
        "notice": "Mints the intermediate contract to the `canonicalToken`"
      },
      "nonblockingLzReceive(uint16,bytes,uint64,bytes)": {
        "notice": "Handles message receptions in a non blocking way"
      },
      "pauseSendTokens(bool)": {
        "notice": "Pauses bridging through the contract"
      },
      "precrime()": {
        "notice": "For future LayerZero compatibility"
      },
      "retryMessage(uint16,bytes,uint64,bytes)": {
        "notice": "Retries a message that previously failed and was stored"
      },
      "send(uint16,bytes,uint256,address,address,bytes)": {
        "notice": "Sends `_amount` amount of token to (`_dstChainId`, `_toAddress`)"
      },
      "sendCredit(uint16,bytes,uint256,address,address,bytes)": {
        "notice": "Sends `_amount` amount of credit to (`_dstChainId`, `_toAddress`)"
      },
      "sendWithPermit(uint16,bytes,uint256,address,address,bytes,uint256,uint8,bytes32,bytes32)": {
        "notice": "Sends `_amount` amount of token to (`_dstChainId`, `_toAddress`)"
      },
      "setConfig(uint16,uint16,uint256,bytes)": {
        "notice": "Overrides the default LZ config"
      },
      "setMinDstGas(uint16,uint16,uint256)": {
        "notice": "Sets the minimum gas parameter for a packet type on a given chain"
      },
      "setPrecrime(address)": {
        "notice": "Sets the precrime variable"
      },
      "setReceiveVersion(uint16)": {
        "notice": "Overrides the default LZ config"
      },
      "setSendVersion(uint16)": {
        "notice": "Overrides the default LZ config"
      },
      "setTrustedRemote(uint16,bytes)": {
        "notice": "Sets the corresponding address on an other chain."
      },
      "setUseCustomAdapterParams(uint8)": {
        "notice": "Sets whether custom adapter parameters can be used or not"
      },
      "setupAllowance()": {
        "notice": "Increases allowance of the `canonicalToken`"
      },
      "treasury()": {
        "notice": "Reference to the treasury contract to fetch access control"
      },
      "trustedRemoteLookup(uint16)": {
        "notice": "Maps chainIds to their OFT address"
      },
      "useCustomAdapterParams()": {
        "notice": "Whether to use custom parameters in transactions"
      },
      "withdraw(uint256,address)": {
        "notice": "Withdraws amount of canonical token from the `msg.sender` balance and sends it to the recipient"
      }
    },
    "notice": "Contract to be deployed on a L2/sidechain for bridging an AgToken using a bridge intermediate token and LayerZero",
    "version": 1
  },
  "storageLayout": {
    "storage": [
      {
        "astId": 770,
        "contract": "contracts/agToken/layerZero/LayerZeroBridgeToken.sol:LayerZeroBridgeToken",
        "label": "_initialized",
        "offset": 0,
        "slot": "0",
        "type": "t_uint8"
      },
      {
        "astId": 773,
        "contract": "contracts/agToken/layerZero/LayerZeroBridgeToken.sol:LayerZeroBridgeToken",
        "label": "_initializing",
        "offset": 1,
        "slot": "0",
        "type": "t_bool"
      },
      {
        "astId": 9754,
        "contract": "contracts/agToken/layerZero/LayerZeroBridgeToken.sol:LayerZeroBridgeToken",
        "label": "lzEndpoint",
        "offset": 2,
        "slot": "0",
        "type": "t_contract(ILayerZeroEndpoint)19404"
      },
      {
        "astId": 9763,
        "contract": "contracts/agToken/layerZero/LayerZeroBridgeToken.sol:LayerZeroBridgeToken",
        "label": "failedMessages",
        "offset": 0,
        "slot": "1",
        "type": "t_mapping(t_uint16,t_mapping(t_bytes_memory_ptr,t_mapping(t_uint64,t_bytes32)))"
      },
      {
        "astId": 9768,
        "contract": "contracts/agToken/layerZero/LayerZeroBridgeToken.sol:LayerZeroBridgeToken",
        "label": "trustedRemoteLookup",
        "offset": 0,
        "slot": "2",
        "type": "t_mapping(t_uint16,t_bytes_storage)"
      },
      {
        "astId": 9771,
        "contract": "contracts/agToken/layerZero/LayerZeroBridgeToken.sol:LayerZeroBridgeToken",
        "label": "treasury",
        "offset": 0,
        "slot": "3",
        "type": "t_address"
      },
      {
        "astId": 9778,
        "contract": "contracts/agToken/layerZero/LayerZeroBridgeToken.sol:LayerZeroBridgeToken",
        "label": "minDstGasLookup",
        "offset": 0,
        "slot": "4",
        "type": "t_mapping(t_uint16,t_mapping(t_uint16,t_uint256))"
      },
      {
        "astId": 9781,
        "contract": "contracts/agToken/layerZero/LayerZeroBridgeToken.sol:LayerZeroBridgeToken",
        "label": "precrime",
        "offset": 0,
        "slot": "5",
        "type": "t_address"
      },
      {
        "astId": 10359,
        "contract": "contracts/agToken/layerZero/LayerZeroBridgeToken.sol:LayerZeroBridgeToken",
        "label": "__gap",
        "offset": 0,
        "slot": "6",
        "type": "t_array(t_uint256)44_storage"
      },
      {
        "astId": 3387,
        "contract": "contracts/agToken/layerZero/LayerZeroBridgeToken.sol:LayerZeroBridgeToken",
        "label": "__gap",
        "offset": 0,
        "slot": "50",
        "type": "t_array(t_uint256)50_storage"
      },
      {
        "astId": 10383,
        "contract": "contracts/agToken/layerZero/LayerZeroBridgeToken.sol:LayerZeroBridgeToken",
        "label": "useCustomAdapterParams",
        "offset": 0,
        "slot": "100",
        "type": "t_uint8"
      },
      {
        "astId": 10776,
        "contract": "contracts/agToken/layerZero/LayerZeroBridgeToken.sol:LayerZeroBridgeToken",
        "label": "__gap",
        "offset": 0,
        "slot": "101",
        "type": "t_array(t_uint256)49_storage"
      },
      {
        "astId": 2486,
        "contract": "contracts/agToken/layerZero/LayerZeroBridgeToken.sol:LayerZeroBridgeToken",
        "label": "__gap",
        "offset": 0,
        "slot": "150",
        "type": "t_array(t_uint256)50_storage"
      },
      {
        "astId": 1119,
        "contract": "contracts/agToken/layerZero/LayerZeroBridgeToken.sol:LayerZeroBridgeToken",
        "label": "_balances",
        "offset": 0,
        "slot": "200",
        "type": "t_mapping(t_address,t_uint256)"
      },
      {
        "astId": 1125,
        "contract": "contracts/agToken/layerZero/LayerZeroBridgeToken.sol:LayerZeroBridgeToken",
        "label": "_allowances",
        "offset": 0,
        "slot": "201",
        "type": "t_mapping(t_address,t_mapping(t_address,t_uint256))"
      },
      {
        "astId": 1127,
        "contract": "contracts/agToken/layerZero/LayerZeroBridgeToken.sol:LayerZeroBridgeToken",
        "label": "_totalSupply",
        "offset": 0,
        "slot": "202",
        "type": "t_uint256"
      },
      {
        "astId": 1129,
        "contract": "contracts/agToken/layerZero/LayerZeroBridgeToken.sol:LayerZeroBridgeToken",
        "label": "_name",
        "offset": 0,
        "slot": "203",
        "type": "t_string_storage"
      },
      {
        "astId": 1131,
        "contract": "contracts/agToken/layerZero/LayerZeroBridgeToken.sol:LayerZeroBridgeToken",
        "label": "_symbol",
        "offset": 0,
        "slot": "204",
        "type": "t_string_storage"
      },
      {
        "astId": 1710,
        "contract": "contracts/agToken/layerZero/LayerZeroBridgeToken.sol:LayerZeroBridgeToken",
        "label": "__gap",
        "offset": 0,
        "slot": "205",
        "type": "t_array(t_uint256)45_storage"
      },
      {
        "astId": 935,
        "contract": "contracts/agToken/layerZero/LayerZeroBridgeToken.sol:LayerZeroBridgeToken",
        "label": "_paused",
        "offset": 0,
        "slot": "250",
        "type": "t_bool"
      },
      {
        "astId": 1040,
        "contract": "contracts/agToken/layerZero/LayerZeroBridgeToken.sol:LayerZeroBridgeToken",
        "label": "__gap",
        "offset": 0,
        "slot": "251",
        "type": "t_array(t_uint256)49_storage"
      },
      {
        "astId": 9189,
        "contract": "contracts/agToken/layerZero/LayerZeroBridgeToken.sol:LayerZeroBridgeToken",
        "label": "canonicalToken",
        "offset": 0,
        "slot": "300",
        "type": "t_contract(IAgTokenSideChainMultiBridge)18237"
      },
      {
        "astId": 9611,
        "contract": "contracts/agToken/layerZero/LayerZeroBridgeToken.sol:LayerZeroBridgeToken",
        "label": "__gap",
        "offset": 0,
        "slot": "301",
        "type": "t_array(t_uint256)49_storage"
      }
    ],
    "types": {
      "t_address": {
        "encoding": "inplace",
        "label": "address",
        "numberOfBytes": "20"
      },
      "t_array(t_uint256)44_storage": {
        "base": "t_uint256",
        "encoding": "inplace",
        "label": "uint256[44]",
        "numberOfBytes": "1408"
      },
      "t_array(t_uint256)45_storage": {
        "base": "t_uint256",
        "encoding": "inplace",
        "label": "uint256[45]",
        "numberOfBytes": "1440"
      },
      "t_array(t_uint256)49_storage": {
        "base": "t_uint256",
        "encoding": "inplace",
        "label": "uint256[49]",
        "numberOfBytes": "1568"
      },
      "t_array(t_uint256)50_storage": {
        "base": "t_uint256",
        "encoding": "inplace",
        "label": "uint256[50]",
        "numberOfBytes": "1600"
      },
      "t_bool": {
        "encoding": "inplace",
        "label": "bool",
        "numberOfBytes": "1"
      },
      "t_bytes32": {
        "encoding": "inplace",
        "label": "bytes32",
        "numberOfBytes": "32"
      },
      "t_bytes_memory_ptr": {
        "encoding": "bytes",
        "label": "bytes",
        "numberOfBytes": "32"
      },
      "t_bytes_storage": {
        "encoding": "bytes",
        "label": "bytes",
        "numberOfBytes": "32"
      },
      "t_contract(IAgTokenSideChainMultiBridge)18237": {
        "encoding": "inplace",
        "label": "contract IAgTokenSideChainMultiBridge",
        "numberOfBytes": "20"
      },
      "t_contract(ILayerZeroEndpoint)19404": {
        "encoding": "inplace",
        "label": "contract ILayerZeroEndpoint",
        "numberOfBytes": "20"
      },
      "t_mapping(t_address,t_mapping(t_address,t_uint256))": {
        "encoding": "mapping",
        "key": "t_address",
        "label": "mapping(address => mapping(address => uint256))",
        "numberOfBytes": "32",
        "value": "t_mapping(t_address,t_uint256)"
      },
      "t_mapping(t_address,t_uint256)": {
        "encoding": "mapping",
        "key": "t_address",
        "label": "mapping(address => uint256)",
        "numberOfBytes": "32",
        "value": "t_uint256"
      },
      "t_mapping(t_bytes_memory_ptr,t_mapping(t_uint64,t_bytes32))": {
        "encoding": "mapping",
        "key": "t_bytes_memory_ptr",
        "label": "mapping(bytes => mapping(uint64 => bytes32))",
        "numberOfBytes": "32",
        "value": "t_mapping(t_uint64,t_bytes32)"
      },
      "t_mapping(t_uint16,t_bytes_storage)": {
        "encoding": "mapping",
        "key": "t_uint16",
        "label": "mapping(uint16 => bytes)",
        "numberOfBytes": "32",
        "value": "t_bytes_storage"
      },
      "t_mapping(t_uint16,t_mapping(t_bytes_memory_ptr,t_mapping(t_uint64,t_bytes32)))": {
        "encoding": "mapping",
        "key": "t_uint16",
        "label": "mapping(uint16 => mapping(bytes => mapping(uint64 => bytes32)))",
        "numberOfBytes": "32",
        "value": "t_mapping(t_bytes_memory_ptr,t_mapping(t_uint64,t_bytes32))"
      },
      "t_mapping(t_uint16,t_mapping(t_uint16,t_uint256))": {
        "encoding": "mapping",
        "key": "t_uint16",
        "label": "mapping(uint16 => mapping(uint16 => uint256))",
        "numberOfBytes": "32",
        "value": "t_mapping(t_uint16,t_uint256)"
      },
      "t_mapping(t_uint16,t_uint256)": {
        "encoding": "mapping",
        "key": "t_uint16",
        "label": "mapping(uint16 => uint256)",
        "numberOfBytes": "32",
        "value": "t_uint256"
      },
      "t_mapping(t_uint64,t_bytes32)": {
        "encoding": "mapping",
        "key": "t_uint64",
        "label": "mapping(uint64 => bytes32)",
        "numberOfBytes": "32",
        "value": "t_bytes32"
      },
      "t_string_storage": {
        "encoding": "bytes",
        "label": "string",
        "numberOfBytes": "32"
      },
      "t_uint16": {
        "encoding": "inplace",
        "label": "uint16",
        "numberOfBytes": "2"
      },
      "t_uint256": {
        "encoding": "inplace",
        "label": "uint256",
        "numberOfBytes": "32"
      },
      "t_uint64": {
        "encoding": "inplace",
        "label": "uint64",
        "numberOfBytes": "8"
      },
      "t_uint8": {
        "encoding": "inplace",
        "label": "uint8",
        "numberOfBytes": "1"
      }
    }
  }
}