{
  "address": "0xCb5461E68212f607D427d61a99200dcCa8BCee62",
  "abi": [
    {
      "inputs": [],
      "stateMutability": "nonpayable",
      "type": "constructor"
    },
    {
      "anonymous": false,
      "inputs": [
        {
          "indexed": true,
          "internalType": "address",
          "name": "owner",
          "type": "address"
        },
        {
          "indexed": true,
          "internalType": "address",
          "name": "spender",
          "type": "address"
        },
        {
          "indexed": false,
          "internalType": "uint256",
          "name": "value",
          "type": "uint256"
        }
      ],
      "name": "Approval",
      "type": "event"
    },
    {
      "anonymous": false,
      "inputs": [
        {
          "indexed": true,
          "internalType": "bytes32",
          "name": "role",
          "type": "bytes32"
        },
        {
          "indexed": true,
          "internalType": "bytes32",
          "name": "previousAdminRole",
          "type": "bytes32"
        },
        {
          "indexed": true,
          "internalType": "bytes32",
          "name": "newAdminRole",
          "type": "bytes32"
        }
      ],
      "name": "RoleAdminChanged",
      "type": "event"
    },
    {
      "anonymous": false,
      "inputs": [
        {
          "indexed": true,
          "internalType": "bytes32",
          "name": "role",
          "type": "bytes32"
        },
        {
          "indexed": true,
          "internalType": "address",
          "name": "account",
          "type": "address"
        },
        {
          "indexed": true,
          "internalType": "address",
          "name": "sender",
          "type": "address"
        }
      ],
      "name": "RoleGranted",
      "type": "event"
    },
    {
      "anonymous": false,
      "inputs": [
        {
          "indexed": true,
          "internalType": "bytes32",
          "name": "role",
          "type": "bytes32"
        },
        {
          "indexed": true,
          "internalType": "address",
          "name": "account",
          "type": "address"
        },
        {
          "indexed": true,
          "internalType": "address",
          "name": "sender",
          "type": "address"
        }
      ],
      "name": "RoleRevoked",
      "type": "event"
    },
    {
      "anonymous": false,
      "inputs": [
        {
          "indexed": true,
          "internalType": "address",
          "name": "from",
          "type": "address"
        },
        {
          "indexed": true,
          "internalType": "address",
          "name": "to",
          "type": "address"
        },
        {
          "indexed": false,
          "internalType": "uint256",
          "name": "value",
          "type": "uint256"
        }
      ],
      "name": "Transfer",
      "type": "event"
    },
    {
      "inputs": [],
      "name": "DEFAULT_ADMIN_ROLE",
      "outputs": [
        {
          "internalType": "bytes32",
          "name": "",
          "type": "bytes32"
        }
      ],
      "stateMutability": "view",
      "type": "function"
    },
    {
      "inputs": [],
      "name": "DEPOSITOR_ROLE",
      "outputs": [
        {
          "internalType": "bytes32",
          "name": "",
          "type": "bytes32"
        }
      ],
      "stateMutability": "view",
      "type": "function"
    },
    {
      "inputs": [
        {
          "internalType": "address",
          "name": "owner",
          "type": "address"
        },
        {
          "internalType": "address",
          "name": "spender",
          "type": "address"
        }
      ],
      "name": "allowance",
      "outputs": [
        {
          "internalType": "uint256",
          "name": "",
          "type": "uint256"
        }
      ],
      "stateMutability": "view",
      "type": "function"
    },
    {
      "inputs": [
        {
          "internalType": "address",
          "name": "spender",
          "type": "address"
        },
        {
          "internalType": "uint256",
          "name": "amount",
          "type": "uint256"
        }
      ],
      "name": "approve",
      "outputs": [
        {
          "internalType": "bool",
          "name": "",
          "type": "bool"
        }
      ],
      "stateMutability": "nonpayable",
      "type": "function"
    },
    {
      "inputs": [
        {
          "internalType": "address",
          "name": "account",
          "type": "address"
        }
      ],
      "name": "balanceOf",
      "outputs": [
        {
          "internalType": "uint256",
          "name": "",
          "type": "uint256"
        }
      ],
      "stateMutability": "view",
      "type": "function"
    },
    {
      "inputs": [],
      "name": "decimals",
      "outputs": [
        {
          "internalType": "uint8",
          "name": "",
          "type": "uint8"
        }
      ],
      "stateMutability": "view",
      "type": "function"
    },
    {
      "inputs": [
        {
          "internalType": "address",
          "name": "spender",
          "type": "address"
        },
        {
          "internalType": "uint256",
          "name": "subtractedValue",
          "type": "uint256"
        }
      ],
      "name": "decreaseAllowance",
      "outputs": [
        {
          "internalType": "bool",
          "name": "",
          "type": "bool"
        }
      ],
      "stateMutability": "nonpayable",
      "type": "function"
    },
    {
      "inputs": [
        {
          "internalType": "address",
          "name": "user",
          "type": "address"
        },
        {
          "internalType": "bytes",
          "name": "depositData",
          "type": "bytes"
        }
      ],
      "name": "deposit",
      "outputs": [],
      "stateMutability": "nonpayable",
      "type": "function"
    },
    {
      "inputs": [
        {
          "internalType": "bytes32",
          "name": "role",
          "type": "bytes32"
        }
      ],
      "name": "getRoleAdmin",
      "outputs": [
        {
          "internalType": "bytes32",
          "name": "",
          "type": "bytes32"
        }
      ],
      "stateMutability": "view",
      "type": "function"
    },
    {
      "inputs": [
        {
          "internalType": "bytes32",
          "name": "role",
          "type": "bytes32"
        },
        {
          "internalType": "address",
          "name": "account",
          "type": "address"
        }
      ],
      "name": "grantRole",
      "outputs": [],
      "stateMutability": "nonpayable",
      "type": "function"
    },
    {
      "inputs": [
        {
          "internalType": "bytes32",
          "name": "role",
          "type": "bytes32"
        },
        {
          "internalType": "address",
          "name": "account",
          "type": "address"
        }
      ],
      "name": "hasRole",
      "outputs": [
        {
          "internalType": "bool",
          "name": "",
          "type": "bool"
        }
      ],
      "stateMutability": "view",
      "type": "function"
    },
    {
      "inputs": [
        {
          "internalType": "address",
          "name": "spender",
          "type": "address"
        },
        {
          "internalType": "uint256",
          "name": "addedValue",
          "type": "uint256"
        }
      ],
      "name": "increaseAllowance",
      "outputs": [
        {
          "internalType": "bool",
          "name": "",
          "type": "bool"
        }
      ],
      "stateMutability": "nonpayable",
      "type": "function"
    },
    {
      "inputs": [
        {
          "internalType": "string",
          "name": "_name",
          "type": "string"
        },
        {
          "internalType": "string",
          "name": "_symbol",
          "type": "string"
        },
        {
          "internalType": "address",
          "name": "childChainManager",
          "type": "address"
        },
        {
          "internalType": "address",
          "name": "guardian",
          "type": "address"
        }
      ],
      "name": "initialize",
      "outputs": [],
      "stateMutability": "nonpayable",
      "type": "function"
    },
    {
      "inputs": [],
      "name": "name",
      "outputs": [
        {
          "internalType": "string",
          "name": "",
          "type": "string"
        }
      ],
      "stateMutability": "view",
      "type": "function"
    },
    {
      "inputs": [
        {
          "internalType": "bytes32",
          "name": "role",
          "type": "bytes32"
        },
        {
          "internalType": "address",
          "name": "account",
          "type": "address"
        }
      ],
      "name": "renounceRole",
      "outputs": [],
      "stateMutability": "nonpayable",
      "type": "function"
    },
    {
      "inputs": [
        {
          "internalType": "bytes32",
          "name": "role",
          "type": "bytes32"
        },
        {
          "internalType": "address",
          "name": "account",
          "type": "address"
        }
      ],
      "name": "revokeRole",
      "outputs": [],
      "stateMutability": "nonpayable",
      "type": "function"
    },
    {
      "inputs": [
        {
          "internalType": "bytes4",
          "name": "interfaceId",
          "type": "bytes4"
        }
      ],
      "name": "supportsInterface",
      "outputs": [
        {
          "internalType": "bool",
          "name": "",
          "type": "bool"
        }
      ],
      "stateMutability": "view",
      "type": "function"
    },
    {
      "inputs": [],
      "name": "symbol",
      "outputs": [
        {
          "internalType": "string",
          "name": "",
          "type": "string"
        }
      ],
      "stateMutability": "view",
      "type": "function"
    },
    {
      "inputs": [],
      "name": "totalSupply",
      "outputs": [
        {
          "internalType": "uint256",
          "name": "",
          "type": "uint256"
        }
      ],
      "stateMutability": "view",
      "type": "function"
    },
    {
      "inputs": [
        {
          "internalType": "address",
          "name": "recipient",
          "type": "address"
        },
        {
          "internalType": "uint256",
          "name": "amount",
          "type": "uint256"
        }
      ],
      "name": "transfer",
      "outputs": [
        {
          "internalType": "bool",
          "name": "",
          "type": "bool"
        }
      ],
      "stateMutability": "nonpayable",
      "type": "function"
    },
    {
      "inputs": [
        {
          "internalType": "address",
          "name": "sender",
          "type": "address"
        },
        {
          "internalType": "address",
          "name": "recipient",
          "type": "address"
        },
        {
          "internalType": "uint256",
          "name": "amount",
          "type": "uint256"
        }
      ],
      "name": "transferFrom",
      "outputs": [
        {
          "internalType": "bool",
          "name": "",
          "type": "bool"
        }
      ],
      "stateMutability": "nonpayable",
      "type": "function"
    },
    {
      "inputs": [
        {
          "internalType": "uint256",
          "name": "amount",
          "type": "uint256"
        }
      ],
      "name": "withdraw",
      "outputs": [],
      "stateMutability": "nonpayable",
      "type": "function"
    }
  ],
  "transactionHash": "0x1fde71e7676c9e9393d4ca10c9b173775865d41aa2d29f93ae02c184ba4dce66",
  "args": [],
  "solcInputHash": "0c166bb8c05cbc366a89e5b27dc91a8a",
  "bytecode": "0x60806040523480156200001157600080fd5b50600060019054906101000a900460ff168062000039575060008054906101000a900460ff16155b6200007b576040517f08c379a000000000000000000000000000000000000000000000000000000000815260040162000072906200011c565b60405180910390fd5b60008060019054906101000a900460ff161590508015620000cc576001600060016101000a81548160ff02191690831515021790555060016000806101000a81548160ff0219169083151502179055505b8015620000ee5760008060016101000a81548160ff0219169083151502179055505b506200019e565b600062000104602e836200013e565b915062000111826200014f565b604082019050919050565b600060208201905081810360008301526200013781620000f5565b9050919050565b600082825260208201905092915050565b7f496e697469616c697a61626c653a20636f6e747261637420697320616c72656160008201527f647920696e697469616c697a6564000000000000000000000000000000000000602082015250565b61331180620001ae6000396000f3fe608060405234801561001057600080fd5b50600436106101425760003560e01c806370a08231116100b8578063a3b0b5a31161007c578063a3b0b5a31461039d578063a457c2d7146103bb578063a9059cbb146103eb578063cf2c52cb1461041b578063d547741f14610437578063dd62ed3e1461045357610142565b806370a08231146102e55780638f15b4141461031557806391d148541461033157806395d89b4114610361578063a217fddf1461037f57610142565b8063248a9ca31161010a578063248a9ca3146102135780632e1a7d4d146102435780632f2ff15d1461025f578063313ce5671461027b57806336568abe1461029957806339509351146102b557610142565b806301ffc9a71461014757806306fdde0314610177578063095ea7b31461019557806318160ddd146101c557806323b872dd146101e3575b600080fd5b610161600480360381019061015c91906124bc565b610483565b60405161016e91906128a2565b60405180910390f35b61017f6104fd565b60405161018c91906128d8565b60405180910390f35b6101af60048036038101906101aa919061240f565b61058f565b6040516101bc91906128a2565b60405180910390f35b6101cd6105ad565b6040516101da9190612a9a565b60405180910390f35b6101fd60048036038101906101f8919061235c565b6105b7565b60405161020a91906128a2565b60405180910390f35b61022d6004803603810190610228919061244f565b6106af565b60405161023a91906128bd565b60405180910390f35b61025d60048036038101906102589190612588565b6106cf565b005b6102796004803603810190610274919061247c565b6106e3565b005b61028361070c565b6040516102909190612ab5565b60405180910390f35b6102b360048036038101906102ae919061247c565b610715565b005b6102cf60048036038101906102ca919061240f565b610798565b6040516102dc91906128a2565b60405180910390f35b6102ff60048036038101906102fa91906122ef565b610844565b60405161030c9190612a9a565b60405180910390f35b61032f600480360381019061032a91906124e9565b61088d565b005b61034b6004803603810190610346919061247c565b6109f2565b60405161035891906128a2565b60405180910390f35b610369610a5d565b60405161037691906128d8565b60405180910390f35b610387610aef565b60405161039491906128bd565b60405180910390f35b6103a5610af6565b6040516103b291906128bd565b60405180910390f35b6103d560048036038101906103d0919061240f565b610b1a565b6040516103e291906128a2565b60405180910390f35b6104056004803603810190610400919061240f565b610c05565b60405161041291906128a2565b60405180910390f35b610435600480360381019061043091906123af565b610c23565b005b610451600480360381019061044c919061247c565b610c79565b005b61046d6004803603810190610468919061231c565b610ca2565b60405161047a9190612a9a565b60405180910390f35b60007f7965db0b000000000000000000000000000000000000000000000000000000007bffffffffffffffffffffffffffffffffffffffffffffffffffffffff1916827bffffffffffffffffffffffffffffffffffffffffffffffffffffffff191614806104f657506104f582610d29565b5b9050919050565b60606036805461050c90612d28565b80601f016020809104026020016040519081016040528092919081815260200182805461053890612d28565b80156105855780601f1061055a57610100808354040283529160200191610585565b820191906000526020600020905b81548152906001019060200180831161056857829003601f168201915b5050505050905090565b60006105a361059c610d93565b8484610d9b565b6001905092915050565b6000603554905090565b60006105c4848484610f66565b6000603460008673ffffffffffffffffffffffffffffffffffffffff1673ffffffffffffffffffffffffffffffffffffffff168152602001908152602001600020600061060f610d93565b73ffffffffffffffffffffffffffffffffffffffff1673ffffffffffffffffffffffffffffffffffffffff1681526020019081526020016000205490508281101561068f576040517f08c379a0000000000000000000000000000000000000000000000000000000008152600401610686906129ba565b60405180910390fd5b6106a38561069b610d93565b858403610d9b565b60019150509392505050565b600060976000838152602001908152602001600020600101549050919050565b6106e06106da610d93565b826111ea565b50565b6106ec826106af565b6106fd816106f8610d93565b6113c3565b6107078383611460565b505050565b60006012905090565b61071d610d93565b73ffffffffffffffffffffffffffffffffffffffff168173ffffffffffffffffffffffffffffffffffffffff161461078a576040517f08c379a000000000000000000000000000000000000000000000000000000000815260040161078190612a5a565b60405180910390fd5b6107948282611541565b5050565b600061083a6107a5610d93565b8484603460006107b3610d93565b73ffffffffffffffffffffffffffffffffffffffff1673ffffffffffffffffffffffffffffffffffffffff16815260200190815260200160002060008873ffffffffffffffffffffffffffffffffffffffff1673ffffffffffffffffffffffffffffffffffffffff168152602001908152602001600020546108359190612b4d565b610d9b565b6001905092915050565b6000603360008373ffffffffffffffffffffffffffffffffffffffff1673ffffffffffffffffffffffffffffffffffffffff168152602001908152602001600020549050919050565b600060019054906101000a900460ff16806108b3575060008054906101000a900460ff16155b6108f2576040517f08c379a00000000000000000000000000000000000000000000000000000000081526004016108e99061299a565b60405180910390fd5b60008060019054906101000a900460ff161590508015610942576001600060016101000a81548160ff02191690831515021790555060016000806101000a81548160ff0219169083151502179055505b61094c8585611623565b610954611710565b6109616000801b83611801565b61098b7f8f4f2da22e8ac8f11e15f9fc141cddbb5deea8800186560abb6e68c5496619a984611801565b6109ca856040518060400160405280600181526020017f310000000000000000000000000000000000000000000000000000000000000081525061180f565b80156109eb5760008060016101000a81548160ff0219169083151502179055505b5050505050565b60006097600084815260200190815260200160002060000160008373ffffffffffffffffffffffffffffffffffffffff1673ffffffffffffffffffffffffffffffffffffffff16815260200190815260200160002060009054906101000a900460ff16905092915050565b606060378054610a6c90612d28565b80601f0160208091040260200160405190810160405280929190818152602001828054610a9890612d28565b8015610ae55780601f10610aba57610100808354040283529160200191610ae5565b820191906000526020600020905b815481529060010190602001808311610ac857829003601f168201915b5050505050905090565b6000801b81565b7f8f4f2da22e8ac8f11e15f9fc141cddbb5deea8800186560abb6e68c5496619a981565b60008060346000610b29610d93565b73ffffffffffffffffffffffffffffffffffffffff1673ffffffffffffffffffffffffffffffffffffffff16815260200190815260200160002060008573ffffffffffffffffffffffffffffffffffffffff1673ffffffffffffffffffffffffffffffffffffffff16815260200190815260200160002054905082811015610be6576040517f08c379a0000000000000000000000000000000000000000000000000000000008152600401610bdd90612a3a565b60405180910390fd5b610bfa610bf1610d93565b85858403610d9b565b600191505092915050565b6000610c19610c12610d93565b8484610f66565b6001905092915050565b7f8f4f2da22e8ac8f11e15f9fc141cddbb5deea8800186560abb6e68c5496619a9610c5581610c50610d93565b6113c3565b60008383810190610c669190612588565b9050610c7285826118f4565b5050505050565b610c82826106af565b610c9381610c8e610d93565b6113c3565b610c9d8383611541565b505050565b6000603460008473ffffffffffffffffffffffffffffffffffffffff1673ffffffffffffffffffffffffffffffffffffffff16815260200190815260200160002060008373ffffffffffffffffffffffffffffffffffffffff1673ffffffffffffffffffffffffffffffffffffffff16815260200190815260200160002054905092915050565b60007f01ffc9a7000000000000000000000000000000000000000000000000000000007bffffffffffffffffffffffffffffffffffffffffffffffffffffffff1916827bffffffffffffffffffffffffffffffffffffffffffffffffffffffff1916149050919050565b600033905090565b600073ffffffffffffffffffffffffffffffffffffffff168373ffffffffffffffffffffffffffffffffffffffff161415610e0b576040517f08c379a0000000000000000000000000000000000000000000000000000000008152600401610e0290612a1a565b60405180910390fd5b600073ffffffffffffffffffffffffffffffffffffffff168273ffffffffffffffffffffffffffffffffffffffff161415610e7b576040517f08c379a0000000000000000000000000000000000000000000000000000000008152600401610e729061295a565b60405180910390fd5b80603460008573ffffffffffffffffffffffffffffffffffffffff1673ffffffffffffffffffffffffffffffffffffffff16815260200190815260200160002060008473ffffffffffffffffffffffffffffffffffffffff1673ffffffffffffffffffffffffffffffffffffffff168152602001908152602001600020819055508173ffffffffffffffffffffffffffffffffffffffff168373ffffffffffffffffffffffffffffffffffffffff167f8c5be1e5ebec7d5bd14f71427d1e84f3dd0314c0f7b2291e5b200ac8c7c3b92583604051610f599190612a9a565b60405180910390a3505050565b600073ffffffffffffffffffffffffffffffffffffffff168373ffffffffffffffffffffffffffffffffffffffff161415610fd6576040517f08c379a0000000000000000000000000000000000000000000000000000000008152600401610fcd906129fa565b60405180910390fd5b600073ffffffffffffffffffffffffffffffffffffffff168273ffffffffffffffffffffffffffffffffffffffff161415611046576040517f08c379a000000000000000000000000000000000000000000000000000000000815260040161103d9061291a565b60405180910390fd5b611051838383611a55565b6000603360008573ffffffffffffffffffffffffffffffffffffffff1673ffffffffffffffffffffffffffffffffffffffff168152602001908152602001600020549050818110156110d8576040517f08c379a00000000000000000000000000000000000000000000000000000000081526004016110cf9061297a565b60405180910390fd5b818103603360008673ffffffffffffffffffffffffffffffffffffffff1673ffffffffffffffffffffffffffffffffffffffff1681526020019081526020016000208190555081603360008573ffffffffffffffffffffffffffffffffffffffff1673ffffffffffffffffffffffffffffffffffffffff168152602001908152602001600020600082825461116d9190612b4d565b925050819055508273ffffffffffffffffffffffffffffffffffffffff168473ffffffffffffffffffffffffffffffffffffffff167fddf252ad1be2c89b69c2b068fc378daa952ba7f163c4a11628f55a4df523b3ef846040516111d19190612a9a565b60405180910390a36111e4848484611a5a565b50505050565b600073ffffffffffffffffffffffffffffffffffffffff168273ffffffffffffffffffffffffffffffffffffffff16141561125a576040517f08c379a0000000000000000000000000000000000000000000000000000000008152600401611251906129da565b60405180910390fd5b61126682600083611a55565b6000603360008473ffffffffffffffffffffffffffffffffffffffff1673ffffffffffffffffffffffffffffffffffffffff168152602001908152602001600020549050818110156112ed576040517f08c379a00000000000000000000000000000000000000000000000000000000081526004016112e49061293a565b60405180910390fd5b818103603360008573ffffffffffffffffffffffffffffffffffffffff1673ffffffffffffffffffffffffffffffffffffffff1681526020019081526020016000208190555081603560008282546113459190612bfd565b92505081905550600073ffffffffffffffffffffffffffffffffffffffff168373ffffffffffffffffffffffffffffffffffffffff167fddf252ad1be2c89b69c2b068fc378daa952ba7f163c4a11628f55a4df523b3ef846040516113aa9190612a9a565b60405180910390a36113be83600084611a5a565b505050565b6113cd82826109f2565b61145c576113f28173ffffffffffffffffffffffffffffffffffffffff166014611a5f565b6114008360001c6020611a5f565b604051602001611411929190612868565b6040516020818303038152906040526040517f08c379a000000000000000000000000000000000000000000000000000000000815260040161145391906128d8565b60405180910390fd5b5050565b61146a82826109f2565b61153d5760016097600084815260200190815260200160002060000160008373ffffffffffffffffffffffffffffffffffffffff1673ffffffffffffffffffffffffffffffffffffffff16815260200190815260200160002060006101000a81548160ff0219169083151502179055506114e2610d93565b73ffffffffffffffffffffffffffffffffffffffff168173ffffffffffffffffffffffffffffffffffffffff16837f2f8788117e7eff1d82e926ec794901d17c78024a50270940304540a733656f0d60405160405180910390a45b5050565b61154b82826109f2565b1561161f5760006097600084815260200190815260200160002060000160008373ffffffffffffffffffffffffffffffffffffffff1673ffffffffffffffffffffffffffffffffffffffff16815260200190815260200160002060006101000a81548160ff0219169083151502179055506115c4610d93565b73ffffffffffffffffffffffffffffffffffffffff168173ffffffffffffffffffffffffffffffffffffffff16837ff6391f5c32d9c69d2a47ea670b442974b53935d1edc7fd64eb21e047a839171b60405160405180910390a45b5050565b600060019054906101000a900460ff1680611649575060008054906101000a900460ff16155b611688576040517f08c379a000000000000000000000000000000000000000000000000000000000815260040161167f9061299a565b60405180910390fd5b60008060019054906101000a900460ff1615905080156116d8576001600060016101000a81548160ff02191690831515021790555060016000806101000a81548160ff0219169083151502179055505b6116e0611c9b565b6116ea8383611d74565b801561170b5760008060016101000a81548160ff0219169083151502179055505b505050565b600060019054906101000a900460ff1680611736575060008054906101000a900460ff16155b611775576040517f08c379a000000000000000000000000000000000000000000000000000000000815260040161176c9061299a565b60405180910390fd5b60008060019054906101000a900460ff1615905080156117c5576001600060016101000a81548160ff02191690831515021790555060016000806101000a81548160ff0219169083151502179055505b6117cd611c9b565b6117d5611e7d565b6117dd611f56565b80156117fe5760008060016101000a81548160ff0219169083151502179055505b50565b61180b8282611460565b5050565b600060019054906101000a900460ff1680611835575060008054906101000a900460ff16155b611874576040517f08c379a000000000000000000000000000000000000000000000000000000000815260040161186b9061299a565b60405180910390fd5b60008060019054906101000a900460ff1615905080156118c4576001600060016101000a81548160ff02191690831515021790555060016000806101000a81548160ff0219169083151502179055505b6118ce838361202f565b80156118ef5760008060016101000a81548160ff0219169083151502179055505b505050565b600073ffffffffffffffffffffffffffffffffffffffff168273ffffffffffffffffffffffffffffffffffffffff161415611964576040517f08c379a000000000000000000000000000000000000000000000000000000000815260040161195b90612a7a565b60405180910390fd5b61197060008383611a55565b80603560008282546119829190612b4d565b9250508190555080603360008473ffffffffffffffffffffffffffffffffffffffff1673ffffffffffffffffffffffffffffffffffffffff16815260200190815260200160002060008282546119d89190612b4d565b925050819055508173ffffffffffffffffffffffffffffffffffffffff16600073ffffffffffffffffffffffffffffffffffffffff167fddf252ad1be2c89b69c2b068fc378daa952ba7f163c4a11628f55a4df523b3ef83604051611a3d9190612a9a565b60405180910390a3611a5160008383611a5a565b5050565b505050565b505050565b606060006002836002611a729190612ba3565b611a7c9190612b4d565b67ffffffffffffffff811115611a9557611a94612e18565b5b6040519080825280601f01601f191660200182016040528015611ac75781602001600182028036833780820191505090505b5090507f300000000000000000000000000000000000000000000000000000000000000081600081518110611aff57611afe612de9565b5b60200101907effffffffffffffffffffffffffffffffffffffffffffffffffffffffffffff1916908160001a9053507f780000000000000000000000000000000000000000000000000000000000000081600181518110611b6357611b62612de9565b5b60200101907effffffffffffffffffffffffffffffffffffffffffffffffffffffffffffff1916908160001a90535060006001846002611ba39190612ba3565b611bad9190612b4d565b90505b6001811115611c4d577f3031323334353637383961626364656600000000000000000000000000000000600f861660108110611bef57611bee612de9565b5b1a60f81b828281518110611c0657611c05612de9565b5b60200101907effffffffffffffffffffffffffffffffffffffffffffffffffffffffffffff1916908160001a905350600485901c945080611c4690612cfe565b9050611bb0565b5060008414611c91576040517f08c379a0000000000000000000000000000000000000000000000000000000008152600401611c88906128fa565b60405180910390fd5b8091505092915050565b600060019054906101000a900460ff1680611cc1575060008054906101000a900460ff16155b611d00576040517f08c379a0000000000000000000000000000000000000000000000000000000008152600401611cf79061299a565b60405180910390fd5b60008060019054906101000a900460ff161590508015611d50576001600060016101000a81548160ff02191690831515021790555060016000806101000a81548160ff0219169083151502179055505b8015611d715760008060016101000a81548160ff0219169083151502179055505b50565b600060019054906101000a900460ff1680611d9a575060008054906101000a900460ff16155b611dd9576040517f08c379a0000000000000000000000000000000000000000000000000000000008152600401611dd09061299a565b60405180910390fd5b60008060019054906101000a900460ff161590508015611e29576001600060016101000a81548160ff02191690831515021790555060016000806101000a81548160ff0219169083151502179055505b8260369080519060200190611e3f929190612132565b508160379080519060200190611e56929190612132565b508015611e785760008060016101000a81548160ff0219169083151502179055505b505050565b600060019054906101000a900460ff1680611ea3575060008054906101000a900460ff16155b611ee2576040517f08c379a0000000000000000000000000000000000000000000000000000000008152600401611ed99061299a565b60405180910390fd5b60008060019054906101000a900460ff161590508015611f32576001600060016101000a81548160ff02191690831515021790555060016000806101000a81548160ff0219169083151502179055505b8015611f535760008060016101000a81548160ff0219169083151502179055505b50565b600060019054906101000a900460ff1680611f7c575060008054906101000a900460ff16155b611fbb576040517f08c379a0000000000000000000000000000000000000000000000000000000008152600401611fb29061299a565b60405180910390fd5b60008060019054906101000a900460ff16159050801561200b576001600060016101000a81548160ff02191690831515021790555060016000806101000a81548160ff0219169083151502179055505b801561202c5760008060016101000a81548160ff0219169083151502179055505b50565b600060019054906101000a900460ff1680612055575060008054906101000a900460ff16155b612094576040517f08c379a000000000000000000000000000000000000000000000000000000000815260040161208b9061299a565b60405180910390fd5b60008060019054906101000a900460ff1615905080156120e4576001600060016101000a81548160ff02191690831515021790555060016000806101000a81548160ff0219169083151502179055505b6000838051906020012090506000838051906020012090508160c9819055508060ca819055505050801561212d5760008060016101000a81548160ff0219169083151502179055505b505050565b82805461213e90612d28565b90600052602060002090601f01602090048101928261216057600085556121a7565b82601f1061217957805160ff19168380011785556121a7565b828001600101855582156121a7579182015b828111156121a657825182559160200191906001019061218b565b5b5090506121b491906121b8565b5090565b5b808211156121d15760008160009055506001016121b9565b5090565b60006121e86121e384612af5565b612ad0565b90508281526020810184848401111561220457612203612e56565b5b61220f848285612cbc565b509392505050565b6000813590506122268161327f565b92915050565b60008135905061223b81613296565b92915050565b600081359050612250816132ad565b92915050565b60008083601f84011261226c5761226b612e4c565b5b8235905067ffffffffffffffff81111561228957612288612e47565b5b6020830191508360018202830111156122a5576122a4612e51565b5b9250929050565b600082601f8301126122c1576122c0612e4c565b5b81356122d18482602086016121d5565b91505092915050565b6000813590506122e9816132c4565b92915050565b60006020828403121561230557612304612e60565b5b600061231384828501612217565b91505092915050565b6000806040838503121561233357612332612e60565b5b600061234185828601612217565b925050602061235285828601612217565b9150509250929050565b60008060006060848603121561237557612374612e60565b5b600061238386828701612217565b935050602061239486828701612217565b92505060406123a5868287016122da565b9150509250925092565b6000806000604084860312156123c8576123c7612e60565b5b60006123d686828701612217565b935050602084013567ffffffffffffffff8111156123f7576123f6612e5b565b5b61240386828701612256565b92509250509250925092565b6000806040838503121561242657612425612e60565b5b600061243485828601612217565b9250506020612445858286016122da565b9150509250929050565b60006020828403121561246557612464612e60565b5b60006124738482850161222c565b91505092915050565b6000806040838503121561249357612492612e60565b5b60006124a18582860161222c565b92505060206124b285828601612217565b9150509250929050565b6000602082840312156124d2576124d1612e60565b5b60006124e084828501612241565b91505092915050565b6000806000806080858703121561250357612502612e60565b5b600085013567ffffffffffffffff81111561252157612520612e5b565b5b61252d878288016122ac565b945050602085013567ffffffffffffffff81111561254e5761254d612e5b565b5b61255a878288016122ac565b935050604061256b87828801612217565b925050606061257c87828801612217565b91505092959194509250565b60006020828403121561259e5761259d612e60565b5b60006125ac848285016122da565b91505092915050565b6125be81612c43565b82525050565b6125cd81612c4f565b82525050565b60006125de82612b26565b6125e88185612b31565b93506125f8818560208601612ccb565b61260181612e65565b840191505092915050565b600061261782612b26565b6126218185612b42565b9350612631818560208601612ccb565b80840191505092915050565b600061264a602083612b31565b915061265582612e76565b602082019050919050565b600061266d602383612b31565b915061267882612e9f565b604082019050919050565b6000612690602283612b31565b915061269b82612eee565b604082019050919050565b60006126b3602283612b31565b91506126be82612f3d565b604082019050919050565b60006126d6602683612b31565b91506126e182612f8c565b604082019050919050565b60006126f9602e83612b31565b915061270482612fdb565b604082019050919050565b600061271c602883612b31565b91506127278261302a565b604082019050919050565b600061273f602183612b31565b915061274a82613079565b604082019050919050565b6000612762602583612b31565b915061276d826130c8565b604082019050919050565b6000612785602483612b31565b915061279082613117565b604082019050919050565b60006127a8601783612b42565b91506127b382613166565b601782019050919050565b60006127cb602583612b31565b91506127d68261318f565b604082019050919050565b60006127ee601183612b42565b91506127f9826131de565b601182019050919050565b6000612811602f83612b31565b915061281c82613207565b604082019050919050565b6000612834601f83612b31565b915061283f82613256565b602082019050919050565b61285381612ca5565b82525050565b61286281612caf565b82525050565b60006128738261279b565b915061287f828561260c565b915061288a826127e1565b9150612896828461260c565b91508190509392505050565b60006020820190506128b760008301846125b5565b92915050565b60006020820190506128d260008301846125c4565b92915050565b600060208201905081810360008301526128f281846125d3565b905092915050565b600060208201905081810360008301526129138161263d565b9050919050565b6000602082019050818103600083015261293381612660565b9050919050565b6000602082019050818103600083015261295381612683565b9050919050565b60006020820190508181036000830152612973816126a6565b9050919050565b60006020820190508181036000830152612993816126c9565b9050919050565b600060208201905081810360008301526129b3816126ec565b9050919050565b600060208201905081810360008301526129d38161270f565b9050919050565b600060208201905081810360008301526129f381612732565b9050919050565b60006020820190508181036000830152612a1381612755565b9050919050565b60006020820190508181036000830152612a3381612778565b9050919050565b60006020820190508181036000830152612a53816127be565b9050919050565b60006020820190508181036000830152612a7381612804565b9050919050565b60006020820190508181036000830152612a9381612827565b9050919050565b6000602082019050612aaf600083018461284a565b92915050565b6000602082019050612aca6000830184612859565b92915050565b6000612ada612aeb565b9050612ae68282612d5a565b919050565b6000604051905090565b600067ffffffffffffffff821115612b1057612b0f612e18565b5b612b1982612e65565b9050602081019050919050565b600081519050919050565b600082825260208201905092915050565b600081905092915050565b6000612b5882612ca5565b9150612b6383612ca5565b9250827fffffffffffffffffffffffffffffffffffffffffffffffffffffffffffffffff03821115612b9857612b97612d8b565b5b828201905092915050565b6000612bae82612ca5565b9150612bb983612ca5565b9250817fffffffffffffffffffffffffffffffffffffffffffffffffffffffffffffffff0483118215151615612bf257612bf1612d8b565b5b828202905092915050565b6000612c0882612ca5565b9150612c1383612ca5565b925082821015612c2657612c25612d8b565b5b828203905092915050565b6000612c3c82612c85565b9050919050565b60008115159050919050565b6000819050919050565b60007fffffffff0000000000000000000000000000000000000000000000000000000082169050919050565b600073ffffffffffffffffffffffffffffffffffffffff82169050919050565b6000819050919050565b600060ff82169050919050565b82818337600083830152505050565b60005b83811015612ce9578082015181840152602081019050612cce565b83811115612cf8576000848401525b50505050565b6000612d0982612ca5565b91506000821415612d1d57612d1c612d8b565b5b600182039050919050565b60006002820490506001821680612d4057607f821691505b60208210811415612d5457612d53612dba565b5b50919050565b612d6382612e65565b810181811067ffffffffffffffff82111715612d8257612d81612e18565b5b80604052505050565b7f4e487b7100000000000000000000000000000000000000000000000000000000600052601160045260246000fd5b7f4e487b7100000000000000000000000000000000000000000000000000000000600052602260045260246000fd5b7f4e487b7100000000000000000000000000000000000000000000000000000000600052603260045260246000fd5b7f4e487b7100000000000000000000000000000000000000000000000000000000600052604160045260246000fd5b600080fd5b600080fd5b600080fd5b600080fd5b600080fd5b600080fd5b6000601f19601f8301169050919050565b7f537472696e67733a20686578206c656e67746820696e73756666696369656e74600082015250565b7f45524332303a207472616e7366657220746f20746865207a65726f206164647260008201527f6573730000000000000000000000000000000000000000000000000000000000602082015250565b7f45524332303a206275726e20616d6f756e7420657863656564732062616c616e60008201527f6365000000000000000000000000000000000000000000000000000000000000602082015250565b7f45524332303a20617070726f766520746f20746865207a65726f20616464726560008201527f7373000000000000000000000000000000000000000000000000000000000000602082015250565b7f45524332303a207472616e7366657220616d6f756e742065786365656473206260008201527f616c616e63650000000000000000000000000000000000000000000000000000602082015250565b7f496e697469616c697a61626c653a20636f6e747261637420697320616c72656160008201527f647920696e697469616c697a6564000000000000000000000000000000000000602082015250565b7f45524332303a207472616e7366657220616d6f756e742065786365656473206160008201527f6c6c6f77616e6365000000000000000000000000000000000000000000000000602082015250565b7f45524332303a206275726e2066726f6d20746865207a65726f2061646472657360008201527f7300000000000000000000000000000000000000000000000000000000000000602082015250565b7f45524332303a207472616e736665722066726f6d20746865207a65726f20616460008201527f6472657373000000000000000000000000000000000000000000000000000000602082015250565b7f45524332303a20617070726f76652066726f6d20746865207a65726f2061646460008201527f7265737300000000000000000000000000000000000000000000000000000000602082015250565b7f416363657373436f6e74726f6c3a206163636f756e7420000000000000000000600082015250565b7f45524332303a2064656372656173656420616c6c6f77616e63652062656c6f7760008201527f207a65726f000000000000000000000000000000000000000000000000000000602082015250565b7f206973206d697373696e6720726f6c6520000000000000000000000000000000600082015250565b7f416363657373436f6e74726f6c3a2063616e206f6e6c792072656e6f756e636560008201527f20726f6c657320666f722073656c660000000000000000000000000000000000602082015250565b7f45524332303a206d696e7420746f20746865207a65726f206164647265737300600082015250565b61328881612c31565b811461329357600080fd5b50565b61329f81612c4f565b81146132aa57600080fd5b50565b6132b681612c59565b81146132c157600080fd5b50565b6132cd81612ca5565b81146132d857600080fd5b5056fea264697066735822122002a96b6cdb4bc591362c6185f6678417818096d5ce3a045e0e49ae6e9cb90c8264736f6c63430008070033",
  "devdoc": {
    "kind": "dev",
    "methods": {
      "allowance(address,address)": {
        "details": "See {IERC20-allowance}."
      },
      "approve(address,uint256)": {
        "details": "See {IERC20-approve}. Requirements: - `spender` cannot be the zero address."
      },
      "balanceOf(address)": {
        "details": "See {IERC20-balanceOf}."
      },
      "constructor": {
        "custom:oz-upgrades-unsafe-allow": "constructor"
      },
      "decimals()": {
        "details": "Returns the number of decimals used to get its user representation. For example, if `decimals` equals `2`, a balance of `505` tokens should be displayed to a user as `5.05` (`505 / 10 ** 2`). Tokens usually opt for a value of 18, imitating the relationship between Ether and Wei. This is the value {ERC20} uses, unless this function is overridden; NOTE: This information is only used for _display_ purposes: it in no way affects any of the arithmetic of the contract, including {IERC20-balanceOf} and {IERC20-transfer}."
      },
      "decreaseAllowance(address,uint256)": {
        "details": "Atomically decreases the allowance granted to `spender` by the caller. This is an alternative to {approve} that can be used as a mitigation for problems described in {IERC20-approve}. Emits an {Approval} event indicating the updated allowance. Requirements: - `spender` cannot be the zero address. - `spender` must have allowance for the caller of at least `subtractedValue`."
      },
      "deposit(address,bytes)": {
        "params": {
          "depositData": "encoded amount to mint",
          "user": "address to mint the token to"
        }
      },
      "getRoleAdmin(bytes32)": {
        "details": "Returns the admin role that controls `role`. See {grantRole} and {revokeRole}. To change a role's admin, use {_setRoleAdmin}."
      },
      "grantRole(bytes32,address)": {
        "details": "Grants `role` to `account`. If `account` had not been already granted `role`, emits a {RoleGranted} event. Requirements: - the caller must have ``role``'s admin role."
      },
      "hasRole(bytes32,address)": {
        "details": "Returns `true` if `account` has been granted `role`."
      },
      "increaseAllowance(address,uint256)": {
        "details": "Atomically increases the allowance granted to `spender` by the caller. This is an alternative to {approve} that can be used as a mitigation for problems described in {IERC20-approve}. Emits an {Approval} event indicating the updated allowance. Requirements: - `spender` cannot be the zero address."
      },
      "name()": {
        "details": "Returns the name of the token."
      },
      "renounceRole(bytes32,address)": {
        "details": "Revokes `role` from the calling account. Roles are often managed via {grantRole} and {revokeRole}: this function's purpose is to provide a mechanism for accounts to lose their privileges if they are compromised (such as when a trusted device is misplaced). If the calling account had been granted `role`, emits a {RoleRevoked} event. Requirements: - the caller must be `account`."
      },
      "revokeRole(bytes32,address)": {
        "details": "Revokes `role` from `account`. If `account` had been granted `role`, emits a {RoleRevoked} event. Requirements: - the caller must have ``role``'s admin role."
      },
      "supportsInterface(bytes4)": {
        "details": "See {IERC165-supportsInterface}."
      },
      "symbol()": {
        "details": "Returns the symbol of the token, usually a shorter version of the name."
      },
      "totalSupply()": {
        "details": "See {IERC20-totalSupply}."
      },
      "transfer(address,uint256)": {
        "details": "See {IERC20-transfer}. Requirements: - `recipient` cannot be the zero address. - the caller must have a balance of at least `amount`."
      },
      "transferFrom(address,address,uint256)": {
        "details": "See {IERC20-transferFrom}. Emits an {Approval} event indicating the updated allowance. This is not required by the EIP. See the note at the beginning of {ERC20}. Requirements: - `sender` and `recipient` cannot be the zero address. - `sender` must have a balance of at least `amount`. - the caller must have allowance for ``sender``'s tokens of at least `amount`."
      },
      "withdraw(uint256)": {
        "details": "Should burn user's tokens. This transaction will be verified when exiting on root chain",
        "params": {
          "amount": "amount of tokens to withdraw"
        }
      }
    },
    "version": 1
  },
  "userdoc": {
    "kind": "user",
    "methods": {
      "deposit(address,bytes)": {
        "notice": "called when the bridge has tokens to mint"
      },
      "withdraw(uint256)": {
        "notice": "called when user wants to withdraw tokens back to root chain"
      }
    },
    "version": 1
  },
  "storageLayout": {
    "storage": [
      {
        "astId": 413,
        "contract": "contracts/TokenPolygonUpgradeable.sol:TokenPolygonUpgradeable",
        "label": "_initialized",
        "offset": 0,
        "slot": "0",
        "type": "t_bool"
      },
      {
        "astId": 416,
        "contract": "contracts/TokenPolygonUpgradeable.sol:TokenPolygonUpgradeable",
        "label": "_initializing",
        "offset": 1,
        "slot": "0",
        "type": "t_bool"
      },
      {
        "astId": 1172,
        "contract": "contracts/TokenPolygonUpgradeable.sol:TokenPolygonUpgradeable",
        "label": "__gap",
        "offset": 0,
        "slot": "1",
        "type": "t_array(t_uint256)50_storage"
      },
      {
        "astId": 472,
        "contract": "contracts/TokenPolygonUpgradeable.sol:TokenPolygonUpgradeable",
        "label": "_balances",
        "offset": 0,
        "slot": "51",
        "type": "t_mapping(t_address,t_uint256)"
      },
      {
        "astId": 478,
        "contract": "contracts/TokenPolygonUpgradeable.sol:TokenPolygonUpgradeable",
        "label": "_allowances",
        "offset": 0,
        "slot": "52",
        "type": "t_mapping(t_address,t_mapping(t_address,t_uint256))"
      },
      {
        "astId": 480,
        "contract": "contracts/TokenPolygonUpgradeable.sol:TokenPolygonUpgradeable",
        "label": "_totalSupply",
        "offset": 0,
        "slot": "53",
        "type": "t_uint256"
      },
      {
        "astId": 482,
        "contract": "contracts/TokenPolygonUpgradeable.sol:TokenPolygonUpgradeable",
        "label": "_name",
        "offset": 0,
        "slot": "54",
        "type": "t_string_storage"
      },
      {
        "astId": 484,
        "contract": "contracts/TokenPolygonUpgradeable.sol:TokenPolygonUpgradeable",
        "label": "_symbol",
        "offset": 0,
        "slot": "55",
        "type": "t_string_storage"
      },
      {
        "astId": 1025,
        "contract": "contracts/TokenPolygonUpgradeable.sol:TokenPolygonUpgradeable",
        "label": "__gap",
        "offset": 0,
        "slot": "56",
        "type": "t_array(t_uint256)45_storage"
      },
      {
        "astId": 1937,
        "contract": "contracts/TokenPolygonUpgradeable.sol:TokenPolygonUpgradeable",
        "label": "__gap",
        "offset": 0,
        "slot": "101",
        "type": "t_array(t_uint256)50_storage"
      },
      {
        "astId": 48,
        "contract": "contracts/TokenPolygonUpgradeable.sol:TokenPolygonUpgradeable",
        "label": "_roles",
        "offset": 0,
        "slot": "151",
        "type": "t_mapping(t_bytes32,t_struct(RoleData)43_storage)"
      },
      {
        "astId": 333,
        "contract": "contracts/TokenPolygonUpgradeable.sol:TokenPolygonUpgradeable",
        "label": "__gap",
        "offset": 0,
        "slot": "152",
        "type": "t_array(t_uint256)49_storage"
      },
      {
        "astId": 1752,
        "contract": "contracts/TokenPolygonUpgradeable.sol:TokenPolygonUpgradeable",
        "label": "_HASHED_NAME",
        "offset": 0,
        "slot": "201",
        "type": "t_bytes32"
      },
      {
        "astId": 1754,
        "contract": "contracts/TokenPolygonUpgradeable.sol:TokenPolygonUpgradeable",
        "label": "_HASHED_VERSION",
        "offset": 0,
        "slot": "202",
        "type": "t_bytes32"
      },
      {
        "astId": 1891,
        "contract": "contracts/TokenPolygonUpgradeable.sol:TokenPolygonUpgradeable",
        "label": "__gap",
        "offset": 0,
        "slot": "203",
        "type": "t_array(t_uint256)50_storage"
      }
    ],
    "types": {
      "t_address": {
        "encoding": "inplace",
        "label": "address",
        "numberOfBytes": "20"
      },
      "t_array(t_uint256)45_storage": {
        "base": "t_uint256",
        "encoding": "inplace",
        "label": "uint256[45]",
        "numberOfBytes": "1440"
      },
      "t_array(t_uint256)49_storage": {
        "base": "t_uint256",
        "encoding": "inplace",
        "label": "uint256[49]",
        "numberOfBytes": "1568"
      },
      "t_array(t_uint256)50_storage": {
        "base": "t_uint256",
        "encoding": "inplace",
        "label": "uint256[50]",
        "numberOfBytes": "1600"
      },
      "t_bool": {
        "encoding": "inplace",
        "label": "bool",
        "numberOfBytes": "1"
      },
      "t_bytes32": {
        "encoding": "inplace",
        "label": "bytes32",
        "numberOfBytes": "32"
      },
      "t_mapping(t_address,t_bool)": {
        "encoding": "mapping",
        "key": "t_address",
        "label": "mapping(address => bool)",
        "numberOfBytes": "32",
        "value": "t_bool"
      },
      "t_mapping(t_address,t_mapping(t_address,t_uint256))": {
        "encoding": "mapping",
        "key": "t_address",
        "label": "mapping(address => mapping(address => uint256))",
        "numberOfBytes": "32",
        "value": "t_mapping(t_address,t_uint256)"
      },
      "t_mapping(t_address,t_uint256)": {
        "encoding": "mapping",
        "key": "t_address",
        "label": "mapping(address => uint256)",
        "numberOfBytes": "32",
        "value": "t_uint256"
      },
      "t_mapping(t_bytes32,t_struct(RoleData)43_storage)": {
        "encoding": "mapping",
        "key": "t_bytes32",
        "label": "mapping(bytes32 => struct AccessControlUpgradeable.RoleData)",
        "numberOfBytes": "32",
        "value": "t_struct(RoleData)43_storage"
      },
      "t_string_storage": {
        "encoding": "bytes",
        "label": "string",
        "numberOfBytes": "32"
      },
      "t_struct(RoleData)43_storage": {
        "encoding": "inplace",
        "label": "struct AccessControlUpgradeable.RoleData",
        "members": [
          {
            "astId": 40,
            "contract": "contracts/TokenPolygonUpgradeable.sol:TokenPolygonUpgradeable",
            "label": "members",
            "offset": 0,
            "slot": "0",
            "type": "t_mapping(t_address,t_bool)"
          },
          {
            "astId": 42,
            "contract": "contracts/TokenPolygonUpgradeable.sol:TokenPolygonUpgradeable",
            "label": "adminRole",
            "offset": 0,
            "slot": "1",
            "type": "t_bytes32"
          }
        ],
        "numberOfBytes": "64"
      },
      "t_uint256": {
        "encoding": "inplace",
        "label": "uint256",
        "numberOfBytes": "32"
      }
    }
  }
}