{
  "address": "0x42b722d44e68d512201F3340f741120bc6917519",
  "abi": [
    {
      "inputs": [],
      "stateMutability": "nonpayable",
      "type": "constructor"
    },
    {
      "anonymous": false,
      "inputs": [
        {
          "indexed": true,
          "internalType": "address",
          "name": "owner",
          "type": "address"
        },
        {
          "indexed": true,
          "internalType": "address",
          "name": "spender",
          "type": "address"
        },
        {
          "indexed": false,
          "internalType": "uint256",
          "name": "value",
          "type": "uint256"
        }
      ],
      "name": "Approval",
      "type": "event"
    },
    {
      "anonymous": false,
      "inputs": [
        {
          "indexed": true,
          "internalType": "address",
          "name": "minter",
          "type": "address"
        }
      ],
      "name": "MinterToggled",
      "type": "event"
    },
    {
      "anonymous": false,
      "inputs": [
        {
          "indexed": true,
          "internalType": "address",
          "name": "from",
          "type": "address"
        },
        {
          "indexed": true,
          "internalType": "address",
          "name": "to",
          "type": "address"
        },
        {
          "indexed": false,
          "internalType": "uint256",
          "name": "value",
          "type": "uint256"
        }
      ],
      "name": "Transfer",
      "type": "event"
    },
    {
      "anonymous": false,
      "inputs": [
        {
          "indexed": true,
          "internalType": "address",
          "name": "_treasury",
          "type": "address"
        }
      ],
      "name": "TreasuryUpdated",
      "type": "event"
    },
    {
      "inputs": [],
      "name": "DOMAIN_SEPARATOR",
      "outputs": [
        {
          "internalType": "bytes32",
          "name": "",
          "type": "bytes32"
        }
      ],
      "stateMutability": "view",
      "type": "function"
    },
    {
      "inputs": [
        {
          "internalType": "address",
          "name": "minter",
          "type": "address"
        }
      ],
      "name": "addMinter",
      "outputs": [],
      "stateMutability": "nonpayable",
      "type": "function"
    },
    {
      "inputs": [
        {
          "internalType": "address",
          "name": "owner",
          "type": "address"
        },
        {
          "internalType": "address",
          "name": "spender",
          "type": "address"
        }
      ],
      "name": "allowance",
      "outputs": [
        {
          "internalType": "uint256",
          "name": "",
          "type": "uint256"
        }
      ],
      "stateMutability": "view",
      "type": "function"
    },
    {
      "inputs": [
        {
          "internalType": "address",
          "name": "spender",
          "type": "address"
        },
        {
          "internalType": "uint256",
          "name": "amount",
          "type": "uint256"
        }
      ],
      "name": "approve",
      "outputs": [
        {
          "internalType": "bool",
          "name": "",
          "type": "bool"
        }
      ],
      "stateMutability": "nonpayable",
      "type": "function"
    },
    {
      "inputs": [
        {
          "internalType": "address",
          "name": "account",
          "type": "address"
        }
      ],
      "name": "balanceOf",
      "outputs": [
        {
          "internalType": "uint256",
          "name": "",
          "type": "uint256"
        }
      ],
      "stateMutability": "view",
      "type": "function"
    },
    {
      "inputs": [
        {
          "internalType": "uint256",
          "name": "amount",
          "type": "uint256"
        },
        {
          "internalType": "address",
          "name": "burner",
          "type": "address"
        },
        {
          "internalType": "address",
          "name": "sender",
          "type": "address"
        }
      ],
      "name": "burnFrom",
      "outputs": [],
      "stateMutability": "nonpayable",
      "type": "function"
    },
    {
      "inputs": [
        {
          "internalType": "uint256",
          "name": "amount",
          "type": "uint256"
        },
        {
          "internalType": "address",
          "name": "burner",
          "type": "address"
        }
      ],
      "name": "burnSelf",
      "outputs": [],
      "stateMutability": "nonpayable",
      "type": "function"
    },
    {
      "inputs": [
        {
          "internalType": "uint256",
          "name": "amount",
          "type": "uint256"
        }
      ],
      "name": "burnStablecoin",
      "outputs": [],
      "stateMutability": "nonpayable",
      "type": "function"
    },
    {
      "inputs": [],
      "name": "decimals",
      "outputs": [
        {
          "internalType": "uint8",
          "name": "",
          "type": "uint8"
        }
      ],
      "stateMutability": "view",
      "type": "function"
    },
    {
      "inputs": [
        {
          "internalType": "address",
          "name": "spender",
          "type": "address"
        },
        {
          "internalType": "uint256",
          "name": "subtractedValue",
          "type": "uint256"
        }
      ],
      "name": "decreaseAllowance",
      "outputs": [
        {
          "internalType": "bool",
          "name": "",
          "type": "bool"
        }
      ],
      "stateMutability": "nonpayable",
      "type": "function"
    },
    {
      "inputs": [
        {
          "internalType": "address",
          "name": "spender",
          "type": "address"
        },
        {
          "internalType": "uint256",
          "name": "addedValue",
          "type": "uint256"
        }
      ],
      "name": "increaseAllowance",
      "outputs": [
        {
          "internalType": "bool",
          "name": "",
          "type": "bool"
        }
      ],
      "stateMutability": "nonpayable",
      "type": "function"
    },
    {
      "inputs": [
        {
          "internalType": "string",
          "name": "name_",
          "type": "string"
        },
        {
          "internalType": "string",
          "name": "symbol_",
          "type": "string"
        },
        {
          "internalType": "contract ITreasury",
          "name": "_treasury",
          "type": "address"
        }
      ],
      "name": "initialize",
      "outputs": [],
      "stateMutability": "nonpayable",
      "type": "function"
    },
    {
      "inputs": [
        {
          "internalType": "address",
          "name": "",
          "type": "address"
        }
      ],
      "name": "isMinter",
      "outputs": [
        {
          "internalType": "bool",
          "name": "",
          "type": "bool"
        }
      ],
      "stateMutability": "view",
      "type": "function"
    },
    {
      "inputs": [
        {
          "internalType": "address",
          "name": "account",
          "type": "address"
        },
        {
          "internalType": "uint256",
          "name": "amount",
          "type": "uint256"
        }
      ],
      "name": "mint",
      "outputs": [],
      "stateMutability": "nonpayable",
      "type": "function"
    },
    {
      "inputs": [],
      "name": "name",
      "outputs": [
        {
          "internalType": "string",
          "name": "",
          "type": "string"
        }
      ],
      "stateMutability": "view",
      "type": "function"
    },
    {
      "inputs": [
        {
          "internalType": "address",
          "name": "owner",
          "type": "address"
        }
      ],
      "name": "nonces",
      "outputs": [
        {
          "internalType": "uint256",
          "name": "",
          "type": "uint256"
        }
      ],
      "stateMutability": "view",
      "type": "function"
    },
    {
      "inputs": [
        {
          "internalType": "address",
          "name": "owner",
          "type": "address"
        },
        {
          "internalType": "address",
          "name": "spender",
          "type": "address"
        },
        {
          "internalType": "uint256",
          "name": "value",
          "type": "uint256"
        },
        {
          "internalType": "uint256",
          "name": "deadline",
          "type": "uint256"
        },
        {
          "internalType": "uint8",
          "name": "v",
          "type": "uint8"
        },
        {
          "internalType": "bytes32",
          "name": "r",
          "type": "bytes32"
        },
        {
          "internalType": "bytes32",
          "name": "s",
          "type": "bytes32"
        }
      ],
      "name": "permit",
      "outputs": [],
      "stateMutability": "nonpayable",
      "type": "function"
    },
    {
      "inputs": [
        {
          "internalType": "address",
          "name": "minter",
          "type": "address"
        }
      ],
      "name": "removeMinter",
      "outputs": [],
      "stateMutability": "nonpayable",
      "type": "function"
    },
    {
      "inputs": [
        {
          "internalType": "address",
          "name": "_treasury",
          "type": "address"
        }
      ],
      "name": "setTreasury",
      "outputs": [],
      "stateMutability": "nonpayable",
      "type": "function"
    },
    {
      "inputs": [],
      "name": "symbol",
      "outputs": [
        {
          "internalType": "string",
          "name": "",
          "type": "string"
        }
      ],
      "stateMutability": "view",
      "type": "function"
    },
    {
      "inputs": [],
      "name": "totalSupply",
      "outputs": [
        {
          "internalType": "uint256",
          "name": "",
          "type": "uint256"
        }
      ],
      "stateMutability": "view",
      "type": "function"
    },
    {
      "inputs": [
        {
          "internalType": "address",
          "name": "recipient",
          "type": "address"
        },
        {
          "internalType": "uint256",
          "name": "amount",
          "type": "uint256"
        }
      ],
      "name": "transfer",
      "outputs": [
        {
          "internalType": "bool",
          "name": "",
          "type": "bool"
        }
      ],
      "stateMutability": "nonpayable",
      "type": "function"
    },
    {
      "inputs": [
        {
          "internalType": "address",
          "name": "sender",
          "type": "address"
        },
        {
          "internalType": "address",
          "name": "recipient",
          "type": "address"
        },
        {
          "internalType": "uint256",
          "name": "amount",
          "type": "uint256"
        }
      ],
      "name": "transferFrom",
      "outputs": [
        {
          "internalType": "bool",
          "name": "",
          "type": "bool"
        }
      ],
      "stateMutability": "nonpayable",
      "type": "function"
    },
    {
      "inputs": [],
      "name": "treasury",
      "outputs": [
        {
          "internalType": "contract ITreasury",
          "name": "",
          "type": "address"
        }
      ],
      "stateMutability": "view",
      "type": "function"
    }
  ],
  "transactionHash": "0x92255023113538726e183128d245b28a107a6666f239c2b8c90d41d729639ee0",
  "args": [],
  "solcInputHash": "287711340bb2f0b50186fde1b66d6003",
  "bytecode": "0x60806040523480156200001157600080fd5b50600054610100900460ff166200002f5760005460ff161562000039565b62000039620000de565b620000a15760405162461bcd60e51b815260206004820152602e60248201527f496e697469616c697a61626c653a20636f6e747261637420697320616c72656160448201526d191e481a5b9a5d1a585b1a5e995960921b606482015260840160405180910390fd5b600054610100900460ff16158015620000c4576000805461ffff19166101011790555b8015620000d7576000805461ff00191690555b5062000102565b6000620000f630620000fc60201b62000b0a1760201c565b15905090565b3b151590565b611b3380620001126000396000f3fe608060405234801561001057600080fd5b50600436106101285760003560e01c806306fdde031461012d578063077f224a1461014b578063095ea7b31461016057806318160ddd1461018357806323b872dd146101955780632b471d8e146101a85780633092afd5146101bb578063313ce567146101ce578063350ebe04146101dd5780633644e515146101f057806339509351146101f857806340c10f191461020b57806361d027b31461021e57806370a08231146102495780637ecebe001461027257806390218cff1461028557806395d89b4114610298578063983b2d56146102a0578063a457c2d7146102b3578063a9059cbb146102c6578063aa271e1a146102d9578063d505accf146102fc578063dd62ed3e1461030f578063f0f4426014610322575b600080fd5b610135610335565b6040516101429190611655565b60405180910390f35b61015e610159366004611761565b6103c7565b005b61017361016e3660046117d8565b61055c565b6040519015158152602001610142565b6035545b604051908152602001610142565b6101736101a3366004611804565b610572565b61015e6101b6366004611845565b61061c565b61015e6101c9366004611875565b610659565b60405160128152602001610142565b61015e6101eb366004611899565b6106e2565b610187610721565b6101736102063660046117d8565b610730565b61015e6102193660046117d8565b61076c565b60cd54610231906001600160a01b031681565b6040516001600160a01b039091168152602001610142565b610187610257366004611875565b6001600160a01b031660009081526033602052604090205490565b610187610280366004611875565b6107a5565b61015e6102933660046118d0565b6107c5565b6101356107d2565b61015e6102ae366004611875565b6107e1565b6101736102c13660046117d8565b61087f565b6101736102d43660046117d8565b610918565b6101736102e7366004611875565b60cc6020526000908152604090205460ff1681565b61015e61030a3660046118e9565b610925565b61018761031d366004611960565b610a6b565b61015e610330366004611875565b610a96565b6060603680546103449061198e565b80601f01602080910402602001604051908101604052809291908181526020018280546103709061198e565b80156103bd5780601f10610392576101008083540402835291602001916103bd565b820191906000526020600020905b8154815290600101906020018083116103a057829003601f168201915b5050505050905090565b600054610100900460ff166103e25760005460ff16156103e6565b303b155b61044e5760405162461bcd60e51b815260206004820152602e60248201527f496e697469616c697a61626c653a20636f6e747261637420697320616c72656160448201526d191e481a5b9a5d1a585b1a5e995960921b60648201526084015b60405180910390fd5b600054610100900460ff16158015610470576000805461ffff19166101011790555b61047984610b10565b6104838484610b6b565b306001600160a01b0316826001600160a01b031663e9cbd8226040518163ffffffff1660e01b8152600401602060405180830381865afa1580156104cb573d6000803e3d6000fd5b505050506040513d601f19601f820116820180604052508101906104ef91906119c3565b6001600160a01b0316146105295760405162461bcd60e51b81526020600482015260016024820152601b60f91b6044820152606401610445565b60cd80546001600160a01b0319166001600160a01b0384161790558015610556576000805461ff00191690555b50505050565b6000610569338484610ba4565b50600192915050565b600061057f848484610cc8565b6001600160a01b0384166000908152603460209081526040808320338452909152902054828110156106045760405162461bcd60e51b815260206004820152602860248201527f45524332303a207472616e7366657220616d6f756e74206578636565647320616044820152676c6c6f77616e636560c01b6064820152608401610445565b6106118533858403610ba4565b506001949350505050565b33600090815260cc602052604090205460ff1661064b5760405162461bcd60e51b8152600401610445906119e0565b6106558183610e84565b5050565b60cd546001600160a01b031633148061067a5750336001600160a01b038216145b6106ab5760405162461bcd60e51b8152602060048201526002602482015261199b60f11b6044820152606401610445565b6001600160a01b038116600081815260cc6020526040808220805460ff1916905551600080516020611abe8339815191529190a250565b33600090815260cc602052604090205460ff166107115760405162461bcd60e51b8152600401610445906119e0565b61071c838383610fc0565b505050565b600061072b611037565b905090565b3360008181526034602090815260408083206001600160a01b03871684529091528120549091610569918590610767908690611a12565b610ba4565b33600090815260cc602052604090205460ff1661079b5760405162461bcd60e51b8152600401610445906119e0565b61065582826110b2565b6001600160a01b0381166000908152609960205260408120545b92915050565b6107cf3382610e84565b50565b6060603780546103449061198e565b60cd546001600160a01b0316331461080b5760405162461bcd60e51b815260040161044590611a2a565b6001600160a01b0381166108455760405162461bcd60e51b81526020600482015260016024820152600360fc1b6044820152606401610445565b6001600160a01b038116600081815260cc6020526040808220805460ff1916600117905551600080516020611abe8339815191529190a250565b3360009081526034602090815260408083206001600160a01b0386168452909152812054828110156109015760405162461bcd60e51b815260206004820152602560248201527f45524332303a2064656372656173656420616c6c6f77616e63652062656c6f77604482015264207a65726f60d81b6064820152608401610445565b61090e3385858403610ba4565b5060019392505050565b6000610569338484610cc8565b834211156109755760405162461bcd60e51b815260206004820152601d60248201527f45524332305065726d69743a206578706972656420646561646c696e650000006044820152606401610445565b6000609a548888886109868c61117f565b6040805160208101969096526001600160a01b0394851690860152929091166060840152608083015260a082015260c0810186905260e00160405160208183030381529060405280519060200120905060006109e1826111a7565b905060006109f1828787876111f5565b9050896001600160a01b0316816001600160a01b031614610a545760405162461bcd60e51b815260206004820152601e60248201527f45524332305065726d69743a20696e76616c6964207369676e617475726500006044820152606401610445565b610a5f8a8a8a610ba4565b50505050505050505050565b6001600160a01b03918216600090815260346020908152604080832093909416825291909152205490565b60cd546001600160a01b03163314610ac05760405162461bcd60e51b815260040161044590611a2a565b60cd80546001600160a01b0319166001600160a01b0383169081179091556040517f7dae230f18360d76a040c81f050aa14eb9d6dc7901b20fc5d855e2a20fe814d190600090a250565b3b151590565b600054610100900460ff16610b375760405162461bcd60e51b815260040161044590611a45565b610b3f61121d565b610b6281604051806040016040528060018152602001603160f81b815250611246565b6107cf81611287565b600054610100900460ff16610b925760405162461bcd60e51b815260040161044590611a45565b610b9a61121d565b61065582826112d5565b6001600160a01b038316610c065760405162461bcd60e51b8152602060048201526024808201527f45524332303a20617070726f76652066726f6d20746865207a65726f206164646044820152637265737360e01b6064820152608401610445565b6001600160a01b038216610c675760405162461bcd60e51b815260206004820152602260248201527f45524332303a20617070726f766520746f20746865207a65726f206164647265604482015261737360f01b6064820152608401610445565b6001600160a01b0383811660008181526034602090815260408083209487168084529482529182902085905590518481527f8c5be1e5ebec7d5bd14f71427d1e84f3dd0314c0f7b2291e5b200ac8c7c3b925910160405180910390a3505050565b6001600160a01b038316610d2c5760405162461bcd60e51b815260206004820152602560248201527f45524332303a207472616e736665722066726f6d20746865207a65726f206164604482015264647265737360d81b6064820152608401610445565b6001600160a01b038216610d8e5760405162461bcd60e51b815260206004820152602360248201527f45524332303a207472616e7366657220746f20746865207a65726f206164647260448201526265737360e81b6064820152608401610445565b6001600160a01b03831660009081526033602052604090205481811015610e065760405162461bcd60e51b815260206004820152602660248201527f45524332303a207472616e7366657220616d6f756e7420657863656564732062604482015265616c616e636560d01b6064820152608401610445565b6001600160a01b03808516600090815260336020526040808220858503905591851681529081208054849290610e3d908490611a12565b92505081905550826001600160a01b0316846001600160a01b0316600080516020611ade83398151915284604051610e7791815260200190565b60405180910390a3610556565b6001600160a01b038216610ee45760405162461bcd60e51b815260206004820152602160248201527f45524332303a206275726e2066726f6d20746865207a65726f206164647265736044820152607360f81b6064820152608401610445565b6001600160a01b03821660009081526033602052604090205481811015610f585760405162461bcd60e51b815260206004820152602260248201527f45524332303a206275726e20616d6f756e7420657863656564732062616c616e604482015261636560f01b6064820152608401610445565b6001600160a01b0383166000908152603360205260408120838303905560358054849290610f87908490611a90565b90915550506040518281526000906001600160a01b03851690600080516020611ade8339815191529060200160405180910390a3505050565b806001600160a01b0316826001600160a01b03161461102d576000610fe58383610a6b565b90508381101561101c5760405162461bcd60e51b8152602060048201526002602482015261323360f01b6044820152606401610445565b61102b83836107678785611a90565b505b61071c8284610e84565b600061072b7f8b73c3c69bb8fe3d512ecc4cf759cc79239f7b179b0ffacaa9a75d522b39400f61106660655490565b6066546040805160208101859052908101839052606081018290524660808201523060a082015260009060c0016040516020818303038152906040528051906020012090509392505050565b6001600160a01b0382166111085760405162461bcd60e51b815260206004820152601f60248201527f45524332303a206d696e7420746f20746865207a65726f2061646472657373006044820152606401610445565b806035600082825461111a9190611a12565b90915550506001600160a01b03821660009081526033602052604081208054839290611147908490611a12565b90915550506040518181526001600160a01b03831690600090600080516020611ade8339815191529060200160405180910390a35050565b6001600160a01b03811660009081526099602052604090208054600181018255905b50919050565b60006107bf6111b4611037565b8360405161190160f01b6020820152602281018390526042810182905260009060620160405160208183030381529060405280519060200120905092915050565b600080600061120687878787611323565b9150915061121381611406565b5095945050505050565b600054610100900460ff166112445760405162461bcd60e51b815260040161044590611a45565b565b600054610100900460ff1661126d5760405162461bcd60e51b815260040161044590611a45565b815160209283012081519190920120606591909155606655565b600054610100900460ff166112ae5760405162461bcd60e51b815260040161044590611a45565b507f6e71edae12b1b97f4d1f60370fef10105fa2faae0126114a169c64845d6126c9609a55565b600054610100900460ff166112fc5760405162461bcd60e51b815260040161044590611a45565b815161130f9060369060208501906115bc565b50805161071c9060379060208401906115bc565b6000806fa2a8918ca85bafe22016d0b997e4df60600160ff1b0383111561135057506000905060036113fd565b8460ff16601b1415801561136857508460ff16601c14155b1561137957506000905060046113fd565b6040805160008082526020820180845289905260ff881692820192909252606081018690526080810185905260019060a0016020604051602081039080840390855afa1580156113cd573d6000803e3d6000fd5b5050604051601f1901519150506001600160a01b0381166113f6576000600192509250506113fd565b9150600090505b94509492505050565b600081600481111561141a5761141a611aa7565b14156114235750565b600181600481111561143757611437611aa7565b14156114805760405162461bcd60e51b815260206004820152601860248201527745434453413a20696e76616c6964207369676e617475726560401b6044820152606401610445565b600281600481111561149457611494611aa7565b14156114e25760405162461bcd60e51b815260206004820152601f60248201527f45434453413a20696e76616c6964207369676e6174757265206c656e677468006044820152606401610445565b60038160048111156114f6576114f6611aa7565b141561154f5760405162461bcd60e51b815260206004820152602260248201527f45434453413a20696e76616c6964207369676e6174757265202773272076616c604482015261756560f01b6064820152608401610445565b600481600481111561156357611563611aa7565b14156107cf5760405162461bcd60e51b815260206004820152602260248201527f45434453413a20696e76616c6964207369676e6174757265202776272076616c604482015261756560f01b6064820152608401610445565b8280546115c89061198e565b90600052602060002090601f0160209004810192826115ea5760008555611630565b82601f1061160357805160ff1916838001178555611630565b82800160010185558215611630579182015b82811115611630578251825591602001919060010190611615565b5061163c929150611640565b5090565b5b8082111561163c5760008155600101611641565b600060208083528351808285015260005b8181101561168257858101830151858201604001528201611666565b81811115611694576000604083870101525b50601f01601f1916929092016040019392505050565b634e487b7160e01b600052604160045260246000fd5b600082601f8301126116d157600080fd5b81356001600160401b03808211156116eb576116eb6116aa565b604051601f8301601f19908116603f01168101908282118183101715611713576117136116aa565b8160405283815286602085880101111561172c57600080fd5b836020870160208301376000602085830101528094505050505092915050565b6001600160a01b03811681146107cf57600080fd5b60008060006060848603121561177657600080fd5b83356001600160401b038082111561178d57600080fd5b611799878388016116c0565b945060208601359150808211156117af57600080fd5b506117bc868287016116c0565b92505060408401356117cd8161174c565b809150509250925092565b600080604083850312156117eb57600080fd5b82356117f68161174c565b946020939093013593505050565b60008060006060848603121561181957600080fd5b83356118248161174c565b925060208401356118348161174c565b929592945050506040919091013590565b6000806040838503121561185857600080fd5b82359150602083013561186a8161174c565b809150509250929050565b60006020828403121561188757600080fd5b81356118928161174c565b9392505050565b6000806000606084860312156118ae57600080fd5b8335925060208401356118c08161174c565b915060408401356117cd8161174c565b6000602082840312156118e257600080fd5b5035919050565b600080600080600080600060e0888a03121561190457600080fd5b873561190f8161174c565b9650602088013561191f8161174c565b95506040880135945060608801359350608088013560ff8116811461194357600080fd5b9699959850939692959460a0840135945060c09093013592915050565b6000806040838503121561197357600080fd5b823561197e8161174c565b9150602083013561186a8161174c565b600181811c908216806119a257607f821691505b602082108114156111a157634e487b7160e01b600052602260045260246000fd5b6000602082840312156119d557600080fd5b81516118928161174c565b602080825260029082015261333560f01b604082015260600190565b634e487b7160e01b600052601160045260246000fd5b60008219821115611a2557611a256119fc565b500190565b6020808252600190820152603160f81b604082015260600190565b6020808252602b908201527f496e697469616c697a61626c653a20636f6e7472616374206973206e6f74206960408201526a6e697469616c697a696e6760a81b606082015260800190565b600082821015611aa257611aa26119fc565b500390565b634e487b7160e01b600052602160045260246000fdfe98c15241d6c02bc5ee0b780e11b3ea737a2defd9d04877edbe9f9497065bd02fddf252ad1be2c89b69c2b068fc378daa952ba7f163c4a11628f55a4df523b3efa2646970667358221220763fef53639f5ecdb9affba82437c5331a3cab526ae0828f8d050bc908d7bc7764736f6c634300080c0033",
  "devdoc": {
    "author": "Angle Core Team",
    "details": "This contract is used to create and handle the stablecoins of Angle protocolIt is still possible for any address to burn its agTokens without redeeming collateral in exchange",
    "kind": "dev",
    "methods": {
      "DOMAIN_SEPARATOR()": {
        "details": "See {IERC20Permit-DOMAIN_SEPARATOR}."
      },
      "addMinter(address)": {
        "details": "Zero address checks are performed directly in the `Treasury` contract",
        "params": {
          "minter": "Minter address to add"
        }
      },
      "allowance(address,address)": {
        "details": "See {IERC20-allowance}."
      },
      "approve(address,uint256)": {
        "details": "See {IERC20-approve}. Requirements: - `spender` cannot be the zero address."
      },
      "balanceOf(address)": {
        "details": "See {IERC20-balanceOf}."
      },
      "burnFrom(uint256,address,address)": {
        "details": "This method is to be called by a contract with the minter right after being requested to do so by a `sender` address willing to burn tokens from another `burner` addressThe method checks the allowance between the `sender` and the `burner`",
        "params": {
          "amount": "Amount of tokens to burn",
          "burner": "Address to burn from",
          "sender": "Address which requested the burn from `burner`"
        }
      },
      "burnSelf(uint256,address)": {
        "details": "This method is to be called by a contract with a minter right on the AgToken after being requested to do so by an address willing to burn tokens from its address",
        "params": {
          "amount": "Amount of tokens to burn",
          "burner": "Address to burn from"
        }
      },
      "burnStablecoin(uint256)": {
        "details": "This function can typically be called if there is a settlement mechanism to burn stablecoins",
        "params": {
          "amount": "Amount of stablecoins to burn"
        }
      },
      "constructor": {
        "custom:oz-upgrades-unsafe-allow": "constructor"
      },
      "decimals()": {
        "details": "Returns the number of decimals used to get its user representation. For example, if `decimals` equals `2`, a balance of `505` tokens should be displayed to a user as `5.05` (`505 / 10 ** 2`). Tokens usually opt for a value of 18, imitating the relationship between Ether and Wei. This is the value {ERC20} uses, unless this function is overridden; NOTE: This information is only used for _display_ purposes: it in no way affects any of the arithmetic of the contract, including {IERC20-balanceOf} and {IERC20-transfer}."
      },
      "decreaseAllowance(address,uint256)": {
        "details": "Atomically decreases the allowance granted to `spender` by the caller. This is an alternative to {approve} that can be used as a mitigation for problems described in {IERC20-approve}. Emits an {Approval} event indicating the updated allowance. Requirements: - `spender` cannot be the zero address. - `spender` must have allowance for the caller of at least `subtractedValue`."
      },
      "increaseAllowance(address,uint256)": {
        "details": "Atomically increases the allowance granted to `spender` by the caller. This is an alternative to {approve} that can be used as a mitigation for problems described in {IERC20-approve}. Emits an {Approval} event indicating the updated allowance. Requirements: - `spender` cannot be the zero address."
      },
      "initialize(string,string,address)": {
        "details": "By default, agTokens are ERC-20 tokens with 18 decimals",
        "params": {
          "_treasury": "Reference to the `Treasury` contract associated to this agToken",
          "name_": "Name of the token",
          "symbol_": "Symbol of the token"
        }
      },
      "mint(address,uint256)": {
        "details": "The contracts allowed to issue agTokens are the `StableMaster` contract, `VaultManager` contracts associated to this stablecoin as well as the flash loan module (if activated) and potentially contracts whitelisted by governance",
        "params": {
          "account": "Address to mint to",
          "amount": "Amount to mint"
        }
      },
      "name()": {
        "details": "Returns the name of the token."
      },
      "nonces(address)": {
        "details": "See {IERC20Permit-nonces}."
      },
      "permit(address,address,uint256,uint256,uint8,bytes32,bytes32)": {
        "details": "See {IERC20Permit-permit}."
      },
      "removeMinter(address)": {
        "details": "This function can also be called by a minter wishing to revoke itself",
        "params": {
          "minter": "Minter address to remove"
        }
      },
      "setTreasury(address)": {
        "params": {
          "_treasury": "New treasury address"
        }
      },
      "symbol()": {
        "details": "Returns the symbol of the token, usually a shorter version of the name."
      },
      "totalSupply()": {
        "details": "See {IERC20-totalSupply}."
      },
      "transfer(address,uint256)": {
        "details": "See {IERC20-transfer}. Requirements: - `recipient` cannot be the zero address. - the caller must have a balance of at least `amount`."
      },
      "transferFrom(address,address,uint256)": {
        "details": "See {IERC20-transferFrom}. Emits an {Approval} event indicating the updated allowance. This is not required by the EIP. See the note at the beginning of {ERC20}. Requirements: - `sender` and `recipient` cannot be the zero address. - `sender` must have a balance of at least `amount`. - the caller must have allowance for ``sender``'s tokens of at least `amount`."
      }
    },
    "stateVariables": {
      "isMinter": {
        "params": {
          "minter": "Address for which the minting right should be checked"
        },
        "return": "Whether the address has the right to mint agTokens or not",
        "returns": {
          "_0": "Whether the address has the right to mint agTokens or not"
        }
      }
    },
    "title": "AgTokenSideChain",
    "version": 1
  },
  "userdoc": {
    "kind": "user",
    "methods": {
      "addMinter(address)": {
        "notice": "Adds a minter in the contract"
      },
      "burnFrom(uint256,address,address)": {
        "notice": "Burns `amount` tokens from a `burner` address after being asked to by `sender`"
      },
      "burnSelf(uint256,address)": {
        "notice": "Burns `amount` tokens from a `burner` address"
      },
      "burnStablecoin(uint256)": {
        "notice": "Allows anyone to burn agToken without redeeming collateral back"
      },
      "initialize(string,string,address)": {
        "notice": "Initializes the `AgToken` contract"
      },
      "isMinter(address)": {
        "notice": "Checks whether an address has the right to mint agTokens"
      },
      "mint(address,uint256)": {
        "notice": "Lets the `StableMaster` contract or another whitelisted contract mint agTokens"
      },
      "removeMinter(address)": {
        "notice": "Removes a minter from the contract"
      },
      "setTreasury(address)": {
        "notice": "Sets a new treasury contract"
      },
      "treasury()": {
        "notice": "Reference to the treasury contract which can grant minting rights"
      }
    },
    "notice": "Contract for Angle agTokens to be deployed on any other chain than Ethereum mainnet",
    "version": 1
  },
  "storageLayout": {
    "storage": [
      {
        "astId": 646,
        "contract": "contracts/agToken/AgTokenSideChain.sol:AgTokenSideChain",
        "label": "_initialized",
        "offset": 0,
        "slot": "0",
        "type": "t_bool"
      },
      {
        "astId": 649,
        "contract": "contracts/agToken/AgTokenSideChain.sol:AgTokenSideChain",
        "label": "_initializing",
        "offset": 1,
        "slot": "0",
        "type": "t_bool"
      },
      {
        "astId": 2353,
        "contract": "contracts/agToken/AgTokenSideChain.sol:AgTokenSideChain",
        "label": "__gap",
        "offset": 0,
        "slot": "1",
        "type": "t_array(t_uint256)50_storage"
      },
      {
        "astId": 790,
        "contract": "contracts/agToken/AgTokenSideChain.sol:AgTokenSideChain",
        "label": "_balances",
        "offset": 0,
        "slot": "51",
        "type": "t_mapping(t_address,t_uint256)"
      },
      {
        "astId": 796,
        "contract": "contracts/agToken/AgTokenSideChain.sol:AgTokenSideChain",
        "label": "_allowances",
        "offset": 0,
        "slot": "52",
        "type": "t_mapping(t_address,t_mapping(t_address,t_uint256))"
      },
      {
        "astId": 798,
        "contract": "contracts/agToken/AgTokenSideChain.sol:AgTokenSideChain",
        "label": "_totalSupply",
        "offset": 0,
        "slot": "53",
        "type": "t_uint256"
      },
      {
        "astId": 800,
        "contract": "contracts/agToken/AgTokenSideChain.sol:AgTokenSideChain",
        "label": "_name",
        "offset": 0,
        "slot": "54",
        "type": "t_string_storage"
      },
      {
        "astId": 802,
        "contract": "contracts/agToken/AgTokenSideChain.sol:AgTokenSideChain",
        "label": "_symbol",
        "offset": 0,
        "slot": "55",
        "type": "t_string_storage"
      },
      {
        "astId": 1343,
        "contract": "contracts/agToken/AgTokenSideChain.sol:AgTokenSideChain",
        "label": "__gap",
        "offset": 0,
        "slot": "56",
        "type": "t_array(t_uint256)45_storage"
      },
      {
        "astId": 3030,
        "contract": "contracts/agToken/AgTokenSideChain.sol:AgTokenSideChain",
        "label": "_HASHED_NAME",
        "offset": 0,
        "slot": "101",
        "type": "t_bytes32"
      },
      {
        "astId": 3032,
        "contract": "contracts/agToken/AgTokenSideChain.sol:AgTokenSideChain",
        "label": "_HASHED_VERSION",
        "offset": 0,
        "slot": "102",
        "type": "t_bytes32"
      },
      {
        "astId": 3169,
        "contract": "contracts/agToken/AgTokenSideChain.sol:AgTokenSideChain",
        "label": "__gap",
        "offset": 0,
        "slot": "103",
        "type": "t_array(t_uint256)50_storage"
      },
      {
        "astId": 1473,
        "contract": "contracts/agToken/AgTokenSideChain.sol:AgTokenSideChain",
        "label": "_nonces",
        "offset": 0,
        "slot": "153",
        "type": "t_mapping(t_address,t_struct(Counter)2360_storage)"
      },
      {
        "astId": 1475,
        "contract": "contracts/agToken/AgTokenSideChain.sol:AgTokenSideChain",
        "label": "_PERMIT_TYPEHASH",
        "offset": 0,
        "slot": "154",
        "type": "t_bytes32"
      },
      {
        "astId": 1643,
        "contract": "contracts/agToken/AgTokenSideChain.sol:AgTokenSideChain",
        "label": "__gap",
        "offset": 0,
        "slot": "155",
        "type": "t_array(t_uint256)49_storage"
      },
      {
        "astId": 7401,
        "contract": "contracts/agToken/AgTokenSideChain.sol:AgTokenSideChain",
        "label": "isMinter",
        "offset": 0,
        "slot": "204",
        "type": "t_mapping(t_address,t_bool)"
      },
      {
        "astId": 7405,
        "contract": "contracts/agToken/AgTokenSideChain.sol:AgTokenSideChain",
        "label": "treasury",
        "offset": 0,
        "slot": "205",
        "type": "t_contract(ITreasury)9684"
      }
    ],
    "types": {
      "t_address": {
        "encoding": "inplace",
        "label": "address",
        "numberOfBytes": "20"
      },
      "t_array(t_uint256)45_storage": {
        "base": "t_uint256",
        "encoding": "inplace",
        "label": "uint256[45]",
        "numberOfBytes": "1440"
      },
      "t_array(t_uint256)49_storage": {
        "base": "t_uint256",
        "encoding": "inplace",
        "label": "uint256[49]",
        "numberOfBytes": "1568"
      },
      "t_array(t_uint256)50_storage": {
        "base": "t_uint256",
        "encoding": "inplace",
        "label": "uint256[50]",
        "numberOfBytes": "1600"
      },
      "t_bool": {
        "encoding": "inplace",
        "label": "bool",
        "numberOfBytes": "1"
      },
      "t_bytes32": {
        "encoding": "inplace",
        "label": "bytes32",
        "numberOfBytes": "32"
      },
      "t_contract(ITreasury)9684": {
        "encoding": "inplace",
        "label": "contract ITreasury",
        "numberOfBytes": "20"
      },
      "t_mapping(t_address,t_bool)": {
        "encoding": "mapping",
        "key": "t_address",
        "label": "mapping(address => bool)",
        "numberOfBytes": "32",
        "value": "t_bool"
      },
      "t_mapping(t_address,t_mapping(t_address,t_uint256))": {
        "encoding": "mapping",
        "key": "t_address",
        "label": "mapping(address => mapping(address => uint256))",
        "numberOfBytes": "32",
        "value": "t_mapping(t_address,t_uint256)"
      },
      "t_mapping(t_address,t_struct(Counter)2360_storage)": {
        "encoding": "mapping",
        "key": "t_address",
        "label": "mapping(address => struct CountersUpgradeable.Counter)",
        "numberOfBytes": "32",
        "value": "t_struct(Counter)2360_storage"
      },
      "t_mapping(t_address,t_uint256)": {
        "encoding": "mapping",
        "key": "t_address",
        "label": "mapping(address => uint256)",
        "numberOfBytes": "32",
        "value": "t_uint256"
      },
      "t_string_storage": {
        "encoding": "bytes",
        "label": "string",
        "numberOfBytes": "32"
      },
      "t_struct(Counter)2360_storage": {
        "encoding": "inplace",
        "label": "struct CountersUpgradeable.Counter",
        "members": [
          {
            "astId": 2359,
            "contract": "contracts/agToken/AgTokenSideChain.sol:AgTokenSideChain",
            "label": "_value",
            "offset": 0,
            "slot": "0",
            "type": "t_uint256"
          }
        ],
        "numberOfBytes": "32"
      },
      "t_uint256": {
        "encoding": "inplace",
        "label": "uint256",
        "numberOfBytes": "32"
      }
    }
  }
}