{
  "address": "0x633Ec156AB5331437bCF77BD6ff483e1a4d035fe",
  "abi": [
    {
      "inputs": [],
      "stateMutability": "nonpayable",
      "type": "constructor"
    },
    {
      "inputs": [],
      "name": "BASE_PARAMS",
      "outputs": [
        {
          "internalType": "uint256",
          "name": "",
          "type": "uint256"
        }
      ],
      "stateMutability": "view",
      "type": "function"
    },
    {
      "inputs": [],
      "name": "CALLBACK_SUCCESS",
      "outputs": [
        {
          "internalType": "bytes32",
          "name": "",
          "type": "bytes32"
        }
      ],
      "stateMutability": "view",
      "type": "function"
    },
    {
      "inputs": [
        {
          "internalType": "contract IAgToken",
          "name": "stablecoin",
          "type": "address"
        }
      ],
      "name": "accrueInterestToTreasury",
      "outputs": [
        {
          "internalType": "uint256",
          "name": "balance",
          "type": "uint256"
        }
      ],
      "stateMutability": "nonpayable",
      "type": "function"
    },
    {
      "inputs": [
        {
          "internalType": "address",
          "name": "_treasury",
          "type": "address"
        }
      ],
      "name": "addStablecoinSupport",
      "outputs": [],
      "stateMutability": "nonpayable",
      "type": "function"
    },
    {
      "inputs": [],
      "name": "core",
      "outputs": [
        {
          "internalType": "contract ICoreBorrow",
          "name": "",
          "type": "address"
        }
      ],
      "stateMutability": "view",
      "type": "function"
    },
    {
      "inputs": [
        {
          "internalType": "address",
          "name": "token",
          "type": "address"
        },
        {
          "internalType": "uint256",
          "name": "amount",
          "type": "uint256"
        }
      ],
      "name": "flashFee",
      "outputs": [
        {
          "internalType": "uint256",
          "name": "",
          "type": "uint256"
        }
      ],
      "stateMutability": "view",
      "type": "function"
    },
    {
      "inputs": [
        {
          "internalType": "contract IERC3156FlashBorrower",
          "name": "receiver",
          "type": "address"
        },
        {
          "internalType": "address",
          "name": "token",
          "type": "address"
        },
        {
          "internalType": "uint256",
          "name": "amount",
          "type": "uint256"
        },
        {
          "internalType": "bytes",
          "name": "data",
          "type": "bytes"
        }
      ],
      "name": "flashLoan",
      "outputs": [
        {
          "internalType": "bool",
          "name": "",
          "type": "bool"
        }
      ],
      "stateMutability": "nonpayable",
      "type": "function"
    },
    {
      "inputs": [
        {
          "internalType": "contract ICoreBorrow",
          "name": "_core",
          "type": "address"
        }
      ],
      "name": "initialize",
      "outputs": [],
      "stateMutability": "nonpayable",
      "type": "function"
    },
    {
      "inputs": [
        {
          "internalType": "address",
          "name": "token",
          "type": "address"
        }
      ],
      "name": "maxFlashLoan",
      "outputs": [
        {
          "internalType": "uint256",
          "name": "",
          "type": "uint256"
        }
      ],
      "stateMutability": "view",
      "type": "function"
    },
    {
      "inputs": [
        {
          "internalType": "address",
          "name": "_treasury",
          "type": "address"
        }
      ],
      "name": "removeStablecoinSupport",
      "outputs": [],
      "stateMutability": "nonpayable",
      "type": "function"
    },
    {
      "inputs": [
        {
          "internalType": "address",
          "name": "_core",
          "type": "address"
        }
      ],
      "name": "setCore",
      "outputs": [],
      "stateMutability": "nonpayable",
      "type": "function"
    },
    {
      "inputs": [
        {
          "internalType": "contract IAgToken",
          "name": "stablecoin",
          "type": "address"
        },
        {
          "internalType": "uint64",
          "name": "_flashLoanFee",
          "type": "uint64"
        },
        {
          "internalType": "uint256",
          "name": "_maxBorrowable",
          "type": "uint256"
        }
      ],
      "name": "setFlashLoanParameters",
      "outputs": [],
      "stateMutability": "nonpayable",
      "type": "function"
    },
    {
      "inputs": [
        {
          "internalType": "contract IAgToken",
          "name": "",
          "type": "address"
        }
      ],
      "name": "stablecoinMap",
      "outputs": [
        {
          "internalType": "address",
          "name": "treasury",
          "type": "address"
        },
        {
          "internalType": "uint256",
          "name": "maxBorrowable",
          "type": "uint256"
        },
        {
          "internalType": "uint64",
          "name": "flashLoanFee",
          "type": "uint64"
        }
      ],
      "stateMutability": "view",
      "type": "function"
    }
  ],
  "transactionHash": "0x029130dedc441cf46806611268484ab15fd94d06073b30aed450838b706ea365",
  "args": [],
  "solcInputHash": "dbecfd0646ca35a67c6afa8d1f32a581",
  "bytecode": "0x608060405234801561001057600080fd5b50600054610100900460ff1661002c5760005460ff1615610034565b6100346100d5565b61009b5760405162461bcd60e51b815260206004820152602e60248201527f496e697469616c697a61626c653a20636f6e747261637420697320616c72656160448201526d191e481a5b9a5d1a585b1a5e995960921b606482015260840160405180910390fd5b600054610100900460ff161580156100bd576000805461ffff19166101011790555b80156100cf576000805461ff00191690555b506100f6565b60006100ea306100f060201b6109fb1760201c565b15905090565b3b151590565b61109a806101056000396000f3fe608060405234801561001057600080fd5b50600436106100af5760003560e01c80630e8f9c35146100b4578063442320c114610129578063543bd6471461013e5780635cffe9de14610151578063613255ab1461017457806380009630146101ae5780638237e538146101c157806396337bd5146101d65780639f48118f146101e9578063bd382e60146101f4578063c4d66de814610207578063d9d98ce41461021a578063f2f4eb261461022d575b600080fd5b6100f66100c2366004610d0d565b6033602052600090815260409020805460018201546002909201546001600160a01b0390911691906001600160401b031683565b604080516001600160a01b03909416845260208401929092526001600160401b0316908201526060015b60405180910390f35b61013c610137366004610d0d565b61024d565b005b61013c61014c366004610d0d565b61031b565b61016461015f366004610d2a565b6103f0565b6040519015158152602001610120565b6101a0610182366004610d0d565b6001600160a01b031660009081526033602052604090206001015490565b604051908152602001610120565b61013c6101bc366004610d0d565b610654565b6101a060008051602061104583398151915281565b6101a06101e4366004610d0d565b6106a0565b6101a0633b9aca0081565b61013c610202366004610dc8565b61077a565b61013c610215366004610d0d565b6108d9565b6101a0610228366004610e15565b6109e8565b603454610240906001600160a01b031681565b6040516101209190610e41565b6034546001600160a01b031633146102805760405162461bcd60e51b815260040161027790610e55565b60405180910390fd5b8060336000836001600160a01b031663e9cbd8226040518163ffffffff1660e01b8152600401602060405180830381865afa1580156102c3573d6000803e3d6000fd5b505050506040513d601f19601f820116820180604052508101906102e79190610e71565b6001600160a01b039081168252602082019290925260400160002080546001600160a01b0319169290911691909117905550565b6034546001600160a01b031633146103455760405162461bcd60e51b815260040161027790610e55565b60336000826001600160a01b031663e9cbd8226040518163ffffffff1660e01b8152600401602060405180830381865afa158015610387573d6000803e3d6000fd5b505050506040513d601f19601f820116820180604052508101906103ab9190610e71565b6001600160a01b031681526020810191909152604001600090812080546001600160a01b0319168155600181019190915560020180546001600160401b031916905550565b6000600260015414156104455760405162461bcd60e51b815260206004820152601f60248201527f5265656e7472616e637947756172643a207265656e7472616e742063616c6c006044820152606401610277565b600260015560006104568686610a01565b6001600160a01b0387166000908152603360205260409020600101549091508511156104a85760405162461bcd60e51b81526020600482015260016024820152600d60fa1b6044820152606401610277565b6040516340c10f1960e01b81526001600160a01b038716906340c10f19906104d6908a908990600401610e8e565b600060405180830381600087803b1580156104f057600080fd5b505af1158015610504573d6000803e3d6000fd5b50506040516323e30c8b60e01b815260008051602061104583398151915292506001600160a01b038a1691506323e30c8b9061054e9033908b908b9088908c908c90600401610ea7565b6020604051808303816000875af115801561056d573d6000803e3d6000fd5b505050506040513d601f19601f820116820180604052508101906105919190610f03565b146105c35760405162461bcd60e51b8152602060048201526002602482015261333960f01b6044820152606401610277565b6105e487306105d28489610f32565b6001600160a01b038a16929190610a83565b6040516315a38ec760e11b8152600481018690523060248201526001600160a01b03871690632b471d8e90604401600060405180830381600087803b15801561062c57600080fd5b505af1158015610640573d6000803e3d6000fd5b505060018080559998505050505050505050565b6034546001600160a01b0316331461067e5760405162461bcd60e51b815260040161027790610e55565b603480546001600160a01b0319166001600160a01b0392909216919091179055565b6001600160a01b038082166000908152603360205260408120549091163381146106f15760405162461bcd60e51b81526020600482015260026024820152610c4d60f21b6044820152606401610277565b6040516370a0823160e01b81526001600160a01b038416906370a082319061071d903090600401610e41565b602060405180830381865afa15801561073a573d6000803e3d6000fd5b505050506040513d601f19601f8201168201806040525081019061075e9190610f03565b91506107746001600160a01b0384168284610af4565b50919050565b6001600160a01b038084166000908152603360205260409020548491166107b35760405162461bcd60e51b815260040161027790610f4a565b60345460405163521d4de960e01b81526001600160a01b039091169063521d4de9906107e3903390600401610e41565b602060405180830381865afa158015610800573d6000803e3d6000fd5b505050506040513d601f19601f820116820180604052508101906108249190610f66565b6108545760405162461bcd60e51b81526020600482015260016024820152601960f91b6044820152606401610277565b633b9aca00836001600160401b031611156108955760405162461bcd60e51b81526020600482015260016024820152603960f81b6044820152606401610277565b506001600160a01b0390921660009081526033602052604090206002810180546001600160401b039093166001600160401b03199093169290921790915560010155565b600054610100900460ff166108f45760005460ff16156108f8565b303b155b61095b5760405162461bcd60e51b815260206004820152602e60248201527f496e697469616c697a61626c653a20636f6e747261637420697320616c72656160448201526d191e481a5b9a5d1a585b1a5e995960921b6064820152608401610277565b600054610100900460ff1615801561097d576000805461ffff19166101011790555b6001600160a01b0382166109b75760405162461bcd60e51b81526020600482015260016024820152600360fc1b6044820152606401610277565b603480546001600160a01b0319166001600160a01b03841617905580156109e4576000805461ff00191690555b5050565b60006109f48383610a01565b9392505050565b3b151590565b6001600160a01b038083166000908152603360205260408120549091849116610a3c5760405162461bcd60e51b815260040161027790610f4a565b6001600160a01b038416600090815260336020526040902060020154633b9aca0090610a71906001600160401b031685610f88565b610a7b9190610fa7565b949350505050565b6040516001600160a01b0380851660248301528316604482015260648101829052610aee9085906323b872dd60e01b906084015b60408051601f198184030181529190526020810180516001600160e01b03166001600160e01b031990931692909217909152610b18565b50505050565b610b138363a9059cbb60e01b8484604051602401610ab7929190610e8e565b505050565b6000610b6d826040518060400160405280602081526020017f5361666545524332303a206c6f772d6c6576656c2063616c6c206661696c6564815250856001600160a01b0316610bea9092919063ffffffff16565b805190915015610b135780806020019051810190610b8b9190610f66565b610b135760405162461bcd60e51b815260206004820152602a60248201527f5361666545524332303a204552433230206f7065726174696f6e20646964206e6044820152691bdd081cdd58d8d9595960b21b6064820152608401610277565b6060610a7b848460008585843b610c435760405162461bcd60e51b815260206004820152601d60248201527f416464726573733a2063616c6c20746f206e6f6e2d636f6e74726163740000006044820152606401610277565b600080866001600160a01b03168587604051610c5f9190610ff5565b60006040518083038185875af1925050503d8060008114610c9c576040519150601f19603f3d011682016040523d82523d6000602084013e610ca1565b606091505b5091509150610cb1828286610cbc565b979650505050505050565b60608315610ccb5750816109f4565b825115610cdb5782518084602001fd5b8160405162461bcd60e51b81526004016102779190611011565b6001600160a01b0381168114610d0a57600080fd5b50565b600060208284031215610d1f57600080fd5b81356109f481610cf5565b600080600080600060808688031215610d4257600080fd5b8535610d4d81610cf5565b94506020860135610d5d81610cf5565b93506040860135925060608601356001600160401b0380821115610d8057600080fd5b818801915088601f830112610d9457600080fd5b813581811115610da357600080fd5b896020828501011115610db557600080fd5b9699959850939650602001949392505050565b600080600060608486031215610ddd57600080fd5b8335610de881610cf5565b925060208401356001600160401b0381168114610e0457600080fd5b929592945050506040919091013590565b60008060408385031215610e2857600080fd5b8235610e3381610cf5565b946020939093013593505050565b6001600160a01b0391909116815260200190565b602080825260029082015261031360f41b604082015260600190565b600060208284031215610e8357600080fd5b81516109f481610cf5565b6001600160a01b03929092168252602082015260400190565b6001600160a01b03878116825286166020820152604081018590526060810184905260a06080820181905281018290526000828460c0840137600060c0848401015260c0601f19601f8501168301019050979650505050505050565b600060208284031215610f1557600080fd5b5051919050565b634e487b7160e01b600052601160045260246000fd5b60008219821115610f4557610f45610f1c565b500190565b602080825260029082015261313360f01b604082015260600190565b600060208284031215610f7857600080fd5b815180151581146109f457600080fd5b6000816000190483118215151615610fa257610fa2610f1c565b500290565b600082610fc457634e487b7160e01b600052601260045260246000fd5b500490565b60005b83811015610fe4578181015183820152602001610fcc565b83811115610aee5750506000910152565b60008251611007818460208701610fc9565b9190910192915050565b6020815260008251806020840152611030816040850160208701610fc9565b601f01601f1916919091016040019291505056fe439148f0bbc682ca079e46d6e2c2f0c1e3b820f1a291b069d8882abf8cf18dd9a2646970667358221220570bd3d7f44dada9185b996ae8ce774e88b51c9d83fdd829d3bca772a4f5db6c64736f6c634300080c0033",
  "devdoc": {
    "author": "Angle Core Team",
    "kind": "dev",
    "methods": {
      "accrueInterestToTreasury(address)": {
        "details": "This function can only be called by the treasury contract",
        "params": {
          "stablecoin": "Stablecoin from which profits should be sent"
        },
        "returns": {
          "balance": "Amount of profits sent"
        }
      },
      "addStablecoinSupport(address)": {
        "details": "This function can only be called by the `CoreBorrow` contract",
        "params": {
          "_treasury": "Treasury associated to the stablecoin to add support for"
        }
      },
      "constructor": {
        "custom:oz-upgrades-unsafe-allow": "constructor"
      },
      "flashFee(address,uint256)": {
        "details": "The fee to be charged for a given loan.",
        "params": {
          "amount": "The amount of tokens lent.",
          "token": "The loan currency."
        },
        "returns": {
          "_0": "The amount of `token` to be charged for the loan, on top of the returned principal."
        }
      },
      "flashLoan(address,address,uint256,bytes)": {
        "details": "Initiate a flash loan.",
        "params": {
          "amount": "The amount of tokens lent.",
          "data": "Arbitrary data structure, intended to contain user-defined parameters.",
          "receiver": "The receiver of the tokens in the loan, and the receiver of the callback.",
          "token": "The loan currency."
        }
      },
      "initialize(address)": {
        "params": {
          "_core": "Core address handling this module"
        }
      },
      "maxFlashLoan(address)": {
        "details": "The amount of currency available to be lended.",
        "params": {
          "token": "The loan currency."
        },
        "returns": {
          "_0": "The amount of `token` that can be borrowed."
        }
      },
      "removeStablecoinSupport(address)": {
        "details": "This function can only be called by the `CoreBorrow` contract",
        "params": {
          "_treasury": "Treasury associated to the stablecoin to remove support for"
        }
      },
      "setCore(address)": {
        "details": "This function can only be called by the `CoreBorrow` contract",
        "params": {
          "_core": "Core contract address to set"
        }
      },
      "setFlashLoanParameters(address,uint64,uint256)": {
        "details": "Setting a `maxBorrowable` parameter equal to 0 is a way to pause the functionalityParameters can only be modified for whitelisted stablecoins",
        "params": {
          "_flashLoanFee": "New flash loan fee for this stablecoin",
          "_maxBorrowable": "Maximum amount that can be borrowed in a single flash loan",
          "stablecoin": "Stablecoin to change the parameters for"
        }
      }
    },
    "title": "FlashAngle",
    "version": 1
  },
  "userdoc": {
    "kind": "user",
    "methods": {
      "BASE_PARAMS()": {
        "notice": "Base used for parameter computation"
      },
      "CALLBACK_SUCCESS()": {
        "notice": "Success message received when calling a `FlashBorrower` contract"
      },
      "accrueInterestToTreasury(address)": {
        "notice": "Sends the fees taken from flash loans to the treasury contract associated to the stablecoin"
      },
      "addStablecoinSupport(address)": {
        "notice": "Adds support for a stablecoin"
      },
      "core()": {
        "notice": "Reference to the `CoreBorrow` contract managing the FlashLoan module"
      },
      "initialize(address)": {
        "notice": "Initializes the contract"
      },
      "removeStablecoinSupport(address)": {
        "notice": "Removes support for a stablecoin"
      },
      "setCore(address)": {
        "notice": "Sets a new core contract"
      },
      "setFlashLoanParameters(address,uint64,uint256)": {
        "notice": "Sets the parameters for a given stablecoin"
      },
      "stablecoinMap(address)": {
        "notice": "Maps a stablecoin to the data and parameters for flash loans"
      }
    },
    "notice": "Contract to take flash loans on top of several AgToken contracts",
    "version": 1
  },
  "storageLayout": {
    "storage": [
      {
        "astId": 646,
        "contract": "contracts/flashloan/FlashAngle.sol:FlashAngle",
        "label": "_initialized",
        "offset": 0,
        "slot": "0",
        "type": "t_bool"
      },
      {
        "astId": 649,
        "contract": "contracts/flashloan/FlashAngle.sol:FlashAngle",
        "label": "_initializing",
        "offset": 1,
        "slot": "0",
        "type": "t_bool"
      },
      {
        "astId": 727,
        "contract": "contracts/flashloan/FlashAngle.sol:FlashAngle",
        "label": "_status",
        "offset": 0,
        "slot": "1",
        "type": "t_uint256"
      },
      {
        "astId": 770,
        "contract": "contracts/flashloan/FlashAngle.sol:FlashAngle",
        "label": "__gap",
        "offset": 0,
        "slot": "2",
        "type": "t_array(t_uint256)49_storage"
      },
      {
        "astId": 8465,
        "contract": "contracts/flashloan/FlashAngle.sol:FlashAngle",
        "label": "stablecoinMap",
        "offset": 0,
        "slot": "51",
        "type": "t_mapping(t_contract(IAgToken)8901,t_struct(StablecoinData)8458_storage)"
      },
      {
        "astId": 8469,
        "contract": "contracts/flashloan/FlashAngle.sol:FlashAngle",
        "label": "core",
        "offset": 0,
        "slot": "52",
        "type": "t_contract(ICoreBorrow)8929"
      }
    ],
    "types": {
      "t_address": {
        "encoding": "inplace",
        "label": "address",
        "numberOfBytes": "20"
      },
      "t_array(t_uint256)49_storage": {
        "base": "t_uint256",
        "encoding": "inplace",
        "label": "uint256[49]",
        "numberOfBytes": "1568"
      },
      "t_bool": {
        "encoding": "inplace",
        "label": "bool",
        "numberOfBytes": "1"
      },
      "t_contract(IAgToken)8901": {
        "encoding": "inplace",
        "label": "contract IAgToken",
        "numberOfBytes": "20"
      },
      "t_contract(ICoreBorrow)8929": {
        "encoding": "inplace",
        "label": "contract ICoreBorrow",
        "numberOfBytes": "20"
      },
      "t_mapping(t_contract(IAgToken)8901,t_struct(StablecoinData)8458_storage)": {
        "encoding": "mapping",
        "key": "t_contract(IAgToken)8901",
        "label": "mapping(contract IAgToken => struct FlashAngle.StablecoinData)",
        "numberOfBytes": "32",
        "value": "t_struct(StablecoinData)8458_storage"
      },
      "t_struct(StablecoinData)8458_storage": {
        "encoding": "inplace",
        "label": "struct FlashAngle.StablecoinData",
        "members": [
          {
            "astId": 8453,
            "contract": "contracts/flashloan/FlashAngle.sol:FlashAngle",
            "label": "treasury",
            "offset": 0,
            "slot": "0",
            "type": "t_address"
          },
          {
            "astId": 8455,
            "contract": "contracts/flashloan/FlashAngle.sol:FlashAngle",
            "label": "maxBorrowable",
            "offset": 0,
            "slot": "1",
            "type": "t_uint256"
          },
          {
            "astId": 8457,
            "contract": "contracts/flashloan/FlashAngle.sol:FlashAngle",
            "label": "flashLoanFee",
            "offset": 0,
            "slot": "2",
            "type": "t_uint64"
          }
        ],
        "numberOfBytes": "96"
      },
      "t_uint256": {
        "encoding": "inplace",
        "label": "uint256",
        "numberOfBytes": "32"
      },
      "t_uint64": {
        "encoding": "inplace",
        "label": "uint64",
        "numberOfBytes": "8"
      }
    }
  }
}