{
  "address": "0x347BbcE2CA425060C5020ae811C18bD8101aF448",
  "abi": [
    {
      "inputs": [
        {
          "internalType": "address[]",
          "name": "_circuitChainlink",
          "type": "address[]"
        },
        {
          "internalType": "uint8[]",
          "name": "_circuitChainIsMultiplied",
          "type": "uint8[]"
        },
        {
          "internalType": "uint256",
          "name": "_outBase",
          "type": "uint256"
        },
        {
          "internalType": "uint32",
          "name": "_stalePeriod",
          "type": "uint32"
        },
        {
          "internalType": "address",
          "name": "_treasury",
          "type": "address"
        },
        {
          "internalType": "string",
          "name": "_description",
          "type": "string"
        }
      ],
      "stateMutability": "nonpayable",
      "type": "constructor"
    },
    {
      "inputs": [],
      "name": "IncompatibleLengths",
      "type": "error"
    },
    {
      "inputs": [],
      "name": "InvalidChainlinkRate",
      "type": "error"
    },
    {
      "inputs": [],
      "name": "NotGovernorOrGuardian",
      "type": "error"
    },
    {
      "inputs": [],
      "name": "NotVaultManagerOrGovernor",
      "type": "error"
    },
    {
      "anonymous": false,
      "inputs": [
        {
          "indexed": false,
          "internalType": "uint32",
          "name": "_stalePeriod",
          "type": "uint32"
        }
      ],
      "name": "StalePeriodUpdated",
      "type": "event"
    },
    {
      "inputs": [
        {
          "internalType": "uint256",
          "name": "",
          "type": "uint256"
        }
      ],
      "name": "chainlinkDecimals",
      "outputs": [
        {
          "internalType": "uint8",
          "name": "",
          "type": "uint8"
        }
      ],
      "stateMutability": "view",
      "type": "function"
    },
    {
      "inputs": [
        {
          "internalType": "uint32",
          "name": "_stalePeriod",
          "type": "uint32"
        }
      ],
      "name": "changeStalePeriod",
      "outputs": [],
      "stateMutability": "nonpayable",
      "type": "function"
    },
    {
      "inputs": [
        {
          "internalType": "uint256",
          "name": "",
          "type": "uint256"
        }
      ],
      "name": "circuitChainIsMultiplied",
      "outputs": [
        {
          "internalType": "uint8",
          "name": "",
          "type": "uint8"
        }
      ],
      "stateMutability": "view",
      "type": "function"
    },
    {
      "inputs": [
        {
          "internalType": "uint256",
          "name": "",
          "type": "uint256"
        }
      ],
      "name": "circuitChainlink",
      "outputs": [
        {
          "internalType": "contract AggregatorV3Interface",
          "name": "",
          "type": "address"
        }
      ],
      "stateMutability": "view",
      "type": "function"
    },
    {
      "inputs": [],
      "name": "description",
      "outputs": [
        {
          "internalType": "string",
          "name": "",
          "type": "string"
        }
      ],
      "stateMutability": "view",
      "type": "function"
    },
    {
      "inputs": [],
      "name": "outBase",
      "outputs": [
        {
          "internalType": "uint256",
          "name": "",
          "type": "uint256"
        }
      ],
      "stateMutability": "view",
      "type": "function"
    },
    {
      "inputs": [],
      "name": "read",
      "outputs": [
        {
          "internalType": "uint256",
          "name": "quoteAmount",
          "type": "uint256"
        }
      ],
      "stateMutability": "view",
      "type": "function"
    },
    {
      "inputs": [
        {
          "internalType": "address",
          "name": "_treasury",
          "type": "address"
        }
      ],
      "name": "setTreasury",
      "outputs": [],
      "stateMutability": "nonpayable",
      "type": "function"
    },
    {
      "inputs": [],
      "name": "stalePeriod",
      "outputs": [
        {
          "internalType": "uint32",
          "name": "",
          "type": "uint32"
        }
      ],
      "stateMutability": "view",
      "type": "function"
    },
    {
      "inputs": [],
      "name": "treasury",
      "outputs": [
        {
          "internalType": "contract ITreasury",
          "name": "",
          "type": "address"
        }
      ],
      "stateMutability": "view",
      "type": "function"
    }
  ],
  "transactionHash": "0xe89cf699038daa3892c87c6c5180dc5cb720dfcafd05725fac0f60423254570e",
  "args": [
    [
      "0xd8bD0a1cB028a31AA859A21A3758685a95dE4623",
      "0x78F9e60608bF48a1155b4B2A5e31F32318a1d85F"
    ],
    [
      1,
      0
    ],
    "1000000000000000000",
    172800,
    "0x37D906BE462AdaE3B4A4370d9B082f1286c12984",
    "LINK/EUR Oracle"
  ],
  "solcInputHash": "0f313fcf3b5985c6510d3bdf5eb3060c",
  "bytecode": "0x60a06040523480156200001157600080fd5b50604051620013be380380620013be833981016040819052620000349162000513565b600080546001600160c01b031916600160a01b63ffffffff8616026001600160a01b031916176001600160a01b038416179055608084905280516200008190600490602084019062000206565b50855180158062000093575085518114155b15620000b2576040516346282e8d60e01b815260040160405180910390fd5b60005b81811015620001e2576000888281518110620000d557620000d562000638565b6020908102919091018101516001805480820182556000919091527fb10e2d527612073b26eecdfd717e6a320cf44b4afac2b0732d9fcbe2b7fa0cf60180546001600160a01b0319166001600160a01b0383169081179091556040805163313ce56760e01b81529051929450600393919263313ce567926004808401939192918290030181865afa1580156200016f573d6000803e3d6000fd5b505050506040513d601f19601f820116820180604052508101906200019591906200064e565b81546001810183556000928352602092839020928104909201805460ff928316601f9094166101000a93840292909302199092161790555080620001d98162000673565b915050620000b5565b508551620001f890600290602089019062000295565b5050505050505050620006da565b82805462000214906200069d565b90600052602060002090601f01602090048101928262000238576000855562000283565b82601f106200025357805160ff191683800117855562000283565b8280016001018555821562000283579182015b828111156200028357825182559160200191906001019062000266565b506200029192915062000338565b5090565b82805482825590600052602060002090601f01602090048101928215620002835791602002820160005b83821115620002ff57835183826101000a81548160ff021916908360ff1602179055509260200192600101602081600001049283019260010302620002bf565b80156200032e5782816101000a81549060ff0219169055600101602081600001049283019260010302620002ff565b5050620002919291505b5b8082111562000291576000815560010162000339565b634e487b7160e01b600052604160045260246000fd5b604051601f8201601f191681016001600160401b03811182821017156200039057620003906200034f565b604052919050565b60006001600160401b03821115620003b457620003b46200034f565b5060051b60200190565b80516001600160a01b0381168114620003d657600080fd5b919050565b805160ff81168114620003d657600080fd5b600082601f830112620003ff57600080fd5b8151602062000418620004128362000398565b62000365565b82815260059290921b840181019181810190868411156200043857600080fd5b8286015b848110156200045e576200045081620003db565b83529183019183016200043c565b509695505050505050565b805163ffffffff81168114620003d657600080fd5b600082601f8301126200049057600080fd5b81516001600160401b03811115620004ac57620004ac6200034f565b6020620004c2601f8301601f1916820162000365565b8281528582848701011115620004d757600080fd5b60005b83811015620004f7578581018301518282018401528201620004da565b83811115620005095760008385840101525b5095945050505050565b60008060008060008060c087890312156200052d57600080fd5b86516001600160401b03808211156200054557600080fd5b818901915089601f8301126200055a57600080fd5b815160206200056d620004128362000398565b82815260059290921b8401810191818101908d8411156200058d57600080fd5b948201945b83861015620005b657620005a686620003be565b8252948201949082019062000592565b918c0151919a50909350505080821115620005d057600080fd5b620005de8a838b01620003ed565b965060408901519550620005f560608a0162000469565b94506200060560808a01620003be565b935060a08901519150808211156200061c57600080fd5b506200062b89828a016200047e565b9150509295509295509295565b634e487b7160e01b600052603260045260246000fd5b6000602082840312156200066157600080fd5b6200066c82620003db565b9392505050565b60006000198214156200069657634e487b7160e01b600052601160045260246000fd5b5060010190565b600181811c90821680620006b257607f821691505b60208210811415620006d457634e487b7160e01b600052602260045260246000fd5b50919050565b608051610cc2620006fc6000396000818160c801526102110152610cc26000f3fe608060405234801561001057600080fd5b50600436106100be5760003560e01c80639e0a850011610076578063cf330c261161005b578063cf330c26146101d6578063dbda63de146101e9578063f0f44260146101fc57600080fd5b80639e0a850014610174578063a5b36a361461019957600080fd5b806361d027b3116100a757806361d027b314610105578063630914d11461014a5780637284e4161461015f57600080fd5b806322834baa146100c357806357de26a4146100fd575b600080fd5b6100ea7f000000000000000000000000000000000000000000000000000000000000000081565b6040519081526020015b60405180910390f35b6100ea61020f565b6000546101259073ffffffffffffffffffffffffffffffffffffffff1681565b60405173ffffffffffffffffffffffffffffffffffffffff90911681526020016100f4565b61015d610158366004610864565b6102fd565b005b610167610448565b6040516100f49190610891565b610187610182366004610904565b6104d6565b60405160ff90911681526020016100f4565b6000546101c19074010000000000000000000000000000000000000000900463ffffffff1681565b60405163ffffffff90911681526020016100f4565b6101256101e4366004610904565b61050a565b6101876101f7366004610904565b610541565b61015d61020a36600461091d565b610551565b7f000000000000000000000000000000000000000000000000000000000000000060005b6001548110156102f9576102e5826001838154811061025457610254610953565b6000918252602090912001546002805473ffffffffffffffffffffffffffffffffffffffff909216918590811061028d5761028d610953565b90600052602060002090602091828204019190069054906101000a900460ff16600385815481106102c0576102c0610953565b60009182526020918290209181049091015460ff601f9092166101000a9004166106fd565b9150806102f1816109b1565b915050610233565b5090565b6000546040517f521d4de900000000000000000000000000000000000000000000000000000000815233600482015273ffffffffffffffffffffffffffffffffffffffff9091169063521d4de990602401602060405180830381865afa15801561036b573d6000803e3d6000fd5b505050506040513d601f19601f8201168201806040525081019061038f91906109ea565b6103c5576040517f99e120bc00000000000000000000000000000000000000000000000000000000815260040160405180910390fd5b600080547fffffffffffffffff00000000ffffffffffffffffffffffffffffffffffffffff167401000000000000000000000000000000000000000063ffffffff8416908102919091179091556040519081527f4040b15332969bfd8b2035c1a701c8e13f2b5d62ce89b311684a601b2eb44e019060200160405180910390a150565b6004805461045590610a0c565b80601f016020809104026020016040519081016040528092919081815260200182805461048190610a0c565b80156104ce5780601f106104a3576101008083540402835291602001916104ce565b820191906000526020600020905b8154815290600101906020018083116104b157829003601f168201915b505050505081565b600281815481106104e657600080fd5b9060005260206000209060209182820401919006915054906101000a900460ff1681565b6001818154811061051a57600080fd5b60009182526020909120015473ffffffffffffffffffffffffffffffffffffffff16905081565b600381815481106104e657600080fd5b6000546040517f676a553e00000000000000000000000000000000000000000000000000000000815233600482015273ffffffffffffffffffffffffffffffffffffffff9091169063676a553e90602401602060405180830381865afa1580156105bf573d6000803e3d6000fd5b505050506040513d601f19601f820116820180604052508101906105e391906109ea565b15801561067f57506000546040517fe43581b800000000000000000000000000000000000000000000000000000000815233600482015273ffffffffffffffffffffffffffffffffffffffff9091169063e43581b890602401602060405180830381865afa158015610659573d6000803e3d6000fd5b505050506040513d601f19601f8201168201806040525081019061067d91906109ea565b155b156106b6576040517fb05b9b9f00000000000000000000000000000000000000000000000000000000815260040160405180910390fd5b600080547fffffffffffffffffffffffff00000000000000000000000000000000000000001673ffffffffffffffffffffffffffffffffffffffff92909216919091179055565b60008060008060008773ffffffffffffffffffffffffffffffffffffffff1663feaf968c6040518163ffffffff1660e01b815260040160a060405180830381865afa158015610750573d6000803e3d6000fd5b505050506040513d601f19601f820116820180604052508101906107749190610a7f565b9450945050935093506000831315806107a457508069ffffffffffffffffffff168469ffffffffffffffffffff16115b806107d7575060005474010000000000000000000000000000000000000000900463ffffffff166107d58342610acf565b115b1561080e576040517fae19356300000000000000000000000000000000000000000000000000000000815260040160405180910390fd5b82600160ff891614156108465761082687600a610c08565b610830828c610c14565b61083a9190610c51565b9550505050505061085c565b8061085288600a610c08565b610830908c610c14565b949350505050565b60006020828403121561087657600080fd5b813563ffffffff8116811461088a57600080fd5b9392505050565b600060208083528351808285015260005b818110156108be578581018301518582016040015282016108a2565b818111156108d0576000604083870101525b50601f017fffffffffffffffffffffffffffffffffffffffffffffffffffffffffffffffe016929092016040019392505050565b60006020828403121561091657600080fd5b5035919050565b60006020828403121561092f57600080fd5b813573ffffffffffffffffffffffffffffffffffffffff8116811461088a57600080fd5b7f4e487b7100000000000000000000000000000000000000000000000000000000600052603260045260246000fd5b7f4e487b7100000000000000000000000000000000000000000000000000000000600052601160045260246000fd5b60007fffffffffffffffffffffffffffffffffffffffffffffffffffffffffffffffff8214156109e3576109e3610982565b5060010190565b6000602082840312156109fc57600080fd5b8151801515811461088a57600080fd5b600181811c90821680610a2057607f821691505b60208210811415610a5a577f4e487b7100000000000000000000000000000000000000000000000000000000600052602260045260246000fd5b50919050565b805169ffffffffffffffffffff81168114610a7a57600080fd5b919050565b600080600080600060a08688031215610a9757600080fd5b610aa086610a60565b9450602086015193506040860151925060608601519150610ac360808701610a60565b90509295509295909350565b600082821015610ae157610ae1610982565b500390565b600181815b80851115610b3f57817fffffffffffffffffffffffffffffffffffffffffffffffffffffffffffffffff04821115610b2557610b25610982565b80851615610b3257918102915b93841c9390800290610aeb565b509250929050565b600082610b5657506001610c02565b81610b6357506000610c02565b8160018114610b795760028114610b8357610b9f565b6001915050610c02565b60ff841115610b9457610b94610982565b50506001821b610c02565b5060208310610133831016604e8410600b8410161715610bc2575081810a610c02565b610bcc8383610ae6565b807fffffffffffffffffffffffffffffffffffffffffffffffffffffffffffffffff04821115610bfe57610bfe610982565b0290505b92915050565b600061088a8383610b47565b6000817fffffffffffffffffffffffffffffffffffffffffffffffffffffffffffffffff0483118215151615610c4c57610c4c610982565b500290565b600082610c87577f4e487b7100000000000000000000000000000000000000000000000000000000600052601260045260246000fd5b50049056fea2646970667358221220b031ad08502fe2c3167dbac13206e0d756820e3766cce4e2711b2a83746b741e64736f6c634300080c0033",
  "devdoc": {
    "author": "Angle Core Team",
    "details": "This contract concerns an oracle that uses Chainlink with multiple pools to read fromTypically we expect to use this contract to read like the ETH/USD and then USD/EUR feed",
    "kind": "dev",
    "methods": {
      "changeStalePeriod(uint32)": {
        "params": {
          "_stalePeriod": "New stale period (in seconds)"
        }
      },
      "constructor": {
        "details": "For instance, if this oracle is supposed to give the price of ETH in EUR, and if the agEUR stablecoin associated to EUR has 18 decimals, then `outBase` should be 10**18",
        "params": {
          "_circuitChainIsMultiplied": "Whether we should multiply or divide by this rate",
          "_circuitChainlink": "Chainlink pool addresses (in order)",
          "_description": "Description of the assets concerned by the oracle",
          "_outBase": "Unit of the stablecoin (or the out asset) associated to the oracle",
          "_stalePeriod": "Minimum feed update frequency for the oracle to not revert",
          "_treasury": "Treasury associated to the VaultManager which reads from this feed"
        }
      },
      "read()": {
        "details": "For instance if the out currency is EUR (and hence agEUR), then the base of the returned value is 10**18",
        "returns": {
          "quoteAmount": "The current rate between the in-currency and out-currency in the base of the out currency"
        }
      },
      "setTreasury(address)": {
        "details": "This function can be called by an approved `VaultManager` contract which can call this function after being requested to do so by a `treasury` contractIn some situations (like reactor contracts), the `VaultManager` may not directly be linked to the `oracle` contract and as such we may need governors to be able to call this function as well",
        "params": {
          "_treasury": "Address of the new treasury contract"
        }
      }
    },
    "title": "OracleChainlinkMulti",
    "version": 1
  },
  "userdoc": {
    "kind": "user",
    "methods": {
      "chainlinkDecimals(uint256)": {
        "notice": "Decimals for each Chainlink pairs"
      },
      "changeStalePeriod(uint32)": {
        "notice": "Changes the stale period"
      },
      "circuitChainIsMultiplied(uint256)": {
        "notice": "Whether each rate for the pairs in `circuitChainlink` should be multiplied or divided"
      },
      "circuitChainlink(uint256)": {
        "notice": "Chainlink pools, the order of the pools has to be the order in which they are read for the computation of the price"
      },
      "constructor": {
        "notice": "Constructor for an oracle using Chainlink with multiple pools to read from"
      },
      "description()": {
        "notice": "Description of the assets concerned by the oracle and the price outputted"
      },
      "outBase()": {
        "notice": "Unit of the stablecoin"
      },
      "read()": {
        "notice": "Reads the rate from the Chainlink circuit and other data provided"
      },
      "setTreasury(address)": {
        "notice": "Changes the treasury contract"
      },
      "stalePeriod()": {
        "notice": "Represent the maximum amount of time (in seconds) between each Chainlink update before the price feed is considered stale"
      },
      "treasury()": {
        "notice": "Reference to the `treasury` contract handling this `VaultManager`"
      }
    },
    "notice": "Oracle contract, one contract is deployed per collateral/stablecoin pair",
    "version": 1
  },
  "storageLayout": {
    "storage": [
      {
        "astId": 15169,
        "contract": "contracts/oracle/OracleChainlinkMulti.sol:OracleChainlinkMulti",
        "label": "treasury",
        "offset": 0,
        "slot": "0",
        "type": "t_contract(ITreasury)11743"
      },
      {
        "astId": 15172,
        "contract": "contracts/oracle/OracleChainlinkMulti.sol:OracleChainlinkMulti",
        "label": "stalePeriod",
        "offset": 20,
        "slot": "0",
        "type": "t_uint32"
      },
      {
        "astId": 15354,
        "contract": "contracts/oracle/OracleChainlinkMulti.sol:OracleChainlinkMulti",
        "label": "circuitChainlink",
        "offset": 0,
        "slot": "1",
        "type": "t_array(t_contract(AggregatorV3Interface)45)dyn_storage"
      },
      {
        "astId": 15358,
        "contract": "contracts/oracle/OracleChainlinkMulti.sol:OracleChainlinkMulti",
        "label": "circuitChainIsMultiplied",
        "offset": 0,
        "slot": "2",
        "type": "t_array(t_uint8)dyn_storage"
      },
      {
        "astId": 15362,
        "contract": "contracts/oracle/OracleChainlinkMulti.sol:OracleChainlinkMulti",
        "label": "chainlinkDecimals",
        "offset": 0,
        "slot": "3",
        "type": "t_array(t_uint8)dyn_storage"
      },
      {
        "astId": 15368,
        "contract": "contracts/oracle/OracleChainlinkMulti.sol:OracleChainlinkMulti",
        "label": "description",
        "offset": 0,
        "slot": "4",
        "type": "t_string_storage"
      }
    ],
    "types": {
      "t_array(t_contract(AggregatorV3Interface)45)dyn_storage": {
        "base": "t_contract(AggregatorV3Interface)45",
        "encoding": "dynamic_array",
        "label": "contract AggregatorV3Interface[]",
        "numberOfBytes": "32"
      },
      "t_array(t_uint8)dyn_storage": {
        "base": "t_uint8",
        "encoding": "dynamic_array",
        "label": "uint8[]",
        "numberOfBytes": "32"
      },
      "t_contract(AggregatorV3Interface)45": {
        "encoding": "inplace",
        "label": "contract AggregatorV3Interface",
        "numberOfBytes": "20"
      },
      "t_contract(ITreasury)11743": {
        "encoding": "inplace",
        "label": "contract ITreasury",
        "numberOfBytes": "20"
      },
      "t_string_storage": {
        "encoding": "bytes",
        "label": "string",
        "numberOfBytes": "32"
      },
      "t_uint32": {
        "encoding": "inplace",
        "label": "uint32",
        "numberOfBytes": "4"
      },
      "t_uint8": {
        "encoding": "inplace",
        "label": "uint8",
        "numberOfBytes": "1"
      }
    }
  }
}