{
  "address": "0x1fB42b5e1d7ec3fdfDd4dca82feAA9D7a06090aB",
  "abi": [
    {
      "inputs": [
        {
          "internalType": "address[]",
          "name": "_circuitChainlink",
          "type": "address[]"
        },
        {
          "internalType": "uint8[]",
          "name": "_circuitChainIsMultiplied",
          "type": "uint8[]"
        },
        {
          "internalType": "uint256",
          "name": "_outBase",
          "type": "uint256"
        },
        {
          "internalType": "uint32",
          "name": "_stalePeriod",
          "type": "uint32"
        },
        {
          "internalType": "address",
          "name": "_treasury",
          "type": "address"
        },
        {
          "internalType": "bytes32",
          "name": "_description",
          "type": "bytes32"
        }
      ],
      "stateMutability": "nonpayable",
      "type": "constructor"
    },
    {
      "anonymous": false,
      "inputs": [
        {
          "indexed": false,
          "internalType": "uint32",
          "name": "_stalePeriod",
          "type": "uint32"
        }
      ],
      "name": "StalePeriodUpdated",
      "type": "event"
    },
    {
      "inputs": [
        {
          "internalType": "uint256",
          "name": "",
          "type": "uint256"
        }
      ],
      "name": "chainlinkDecimals",
      "outputs": [
        {
          "internalType": "uint8",
          "name": "",
          "type": "uint8"
        }
      ],
      "stateMutability": "view",
      "type": "function"
    },
    {
      "inputs": [
        {
          "internalType": "uint32",
          "name": "_stalePeriod",
          "type": "uint32"
        }
      ],
      "name": "changeStalePeriod",
      "outputs": [],
      "stateMutability": "nonpayable",
      "type": "function"
    },
    {
      "inputs": [
        {
          "internalType": "uint256",
          "name": "",
          "type": "uint256"
        }
      ],
      "name": "circuitChainIsMultiplied",
      "outputs": [
        {
          "internalType": "uint8",
          "name": "",
          "type": "uint8"
        }
      ],
      "stateMutability": "view",
      "type": "function"
    },
    {
      "inputs": [
        {
          "internalType": "uint256",
          "name": "",
          "type": "uint256"
        }
      ],
      "name": "circuitChainlink",
      "outputs": [
        {
          "internalType": "contract AggregatorV3Interface",
          "name": "",
          "type": "address"
        }
      ],
      "stateMutability": "view",
      "type": "function"
    },
    {
      "inputs": [],
      "name": "description",
      "outputs": [
        {
          "internalType": "bytes32",
          "name": "",
          "type": "bytes32"
        }
      ],
      "stateMutability": "view",
      "type": "function"
    },
    {
      "inputs": [],
      "name": "outBase",
      "outputs": [
        {
          "internalType": "uint256",
          "name": "",
          "type": "uint256"
        }
      ],
      "stateMutability": "view",
      "type": "function"
    },
    {
      "inputs": [],
      "name": "read",
      "outputs": [
        {
          "internalType": "uint256",
          "name": "quoteAmount",
          "type": "uint256"
        }
      ],
      "stateMutability": "view",
      "type": "function"
    },
    {
      "inputs": [
        {
          "internalType": "address",
          "name": "_treasury",
          "type": "address"
        }
      ],
      "name": "setTreasury",
      "outputs": [],
      "stateMutability": "nonpayable",
      "type": "function"
    },
    {
      "inputs": [],
      "name": "stalePeriod",
      "outputs": [
        {
          "internalType": "uint32",
          "name": "",
          "type": "uint32"
        }
      ],
      "stateMutability": "view",
      "type": "function"
    },
    {
      "inputs": [],
      "name": "treasury",
      "outputs": [
        {
          "internalType": "contract ITreasury",
          "name": "",
          "type": "address"
        }
      ],
      "stateMutability": "view",
      "type": "function"
    }
  ],
  "transactionHash": "0xee9e95b1cf40c9f370f96e3712b4ca8376825ab550ea46b15a161685a57e38bd",
  "args": [
    [
      "0xECe365B379E1dD183B20fc5f022230C044d51404",
      "0x78F9e60608bF48a1155b4B2A5e31F32318a1d85F"
    ],
    [
      1,
      0
    ],
    "1000000000000000000",
    172800,
    "0x5fa4c7f1DFDcdf3406A4473211A83d497018A869",
    "0x4b8b7d55c40807c3e6120666f6ceeeb936ed82db34af5bf463ff9d019faf2ab0"
  ],
  "solcInputHash": "dbecfd0646ca35a67c6afa8d1f32a581",
  "bytecode": "0x60c06040523480156200001157600080fd5b5060405162000ef438038062000ef4833981016040819052620000349162000400565b600080546001600160c01b031916600160a01b63ffffffff8616026001600160a01b031916176001600160a01b038416179055608084905260a081905285518015801590620000835750855181145b620000b95760405162461bcd60e51b8152602060048201526002602482015261323560f01b604482015260640160405180910390fd5b60005b81811015620001e9576000888281518110620000dc57620000dc62000507565b6020908102919091018101516001805480820182556000919091527fb10e2d527612073b26eecdfd717e6a320cf44b4afac2b0732d9fcbe2b7fa0cf60180546001600160a01b0319166001600160a01b0383169081179091556040805163313ce56760e01b81529051929450600393919263313ce567926004808401939192918290030181865afa15801562000176573d6000803e3d6000fd5b505050506040513d601f19601f820116820180604052508101906200019c91906200051d565b81546001810183556000928352602092839020928104909201805460ff928316601f9094166101000a93840292909302199092161790555080620001e08162000542565b915050620000bc565b508551620001ff9060029060208901906200020d565b50505050505050506200056c565b82805482825590600052602060002090601f01602090048101928215620002a85791602002820160005b838211156200027757835183826101000a81548160ff021916908360ff160217905550926020019260010160208160000104928301926001030262000237565b8015620002a65782816101000a81549060ff021916905560010160208160000104928301926001030262000277565b505b50620002b6929150620002ba565b5090565b5b80821115620002b65760008155600101620002bb565b634e487b7160e01b600052604160045260246000fd5b604051601f8201601f191681016001600160401b0381118282101715620003125762000312620002d1565b604052919050565b60006001600160401b03821115620003365762000336620002d1565b5060051b60200190565b80516001600160a01b03811681146200035857600080fd5b919050565b805160ff811681146200035857600080fd5b600082601f8301126200038157600080fd5b815160206200039a62000394836200031a565b620002e7565b82815260059290921b84018101918181019086841115620003ba57600080fd5b8286015b84811015620003e057620003d2816200035d565b8352918301918301620003be565b509695505050505050565b805163ffffffff811681146200035857600080fd5b60008060008060008060c087890312156200041a57600080fd5b86516001600160401b03808211156200043257600080fd5b818901915089601f8301126200044757600080fd5b815160206200045a62000394836200031a565b82815260059290921b8401810191818101908d8411156200047a57600080fd5b948201945b83861015620004a357620004938662000340565b825294820194908201906200047f565b918c0151919a50909350505080821115620004bd57600080fd5b50620004cc89828a016200036f565b95505060408701519350620004e460608801620003eb565b9250620004f46080880162000340565b915060a087015190509295509295509295565b634e487b7160e01b600052603260045260246000fd5b6000602082840312156200053057600080fd5b6200053b826200035d565b9392505050565b60006000198214156200056557634e487b7160e01b600052601160045260246000fd5b5060010190565b60805160a05161095c62000598600039600061010f015260008181609801526101bd015261095c6000f3fe608060405234801561001057600080fd5b506004361061008e5760003560e01c806322834baa1461009357806357de26a4146100cd57806361d027b3146100d5578063630914d1146100f55780637284e4161461010a5780639e0a850014610131578063a5b36a3614610156578063cf330c2614610182578063dbda63de14610195578063f0f44260146101a8575b600080fd5b6100ba7f000000000000000000000000000000000000000000000000000000000000000081565b6040519081526020015b60405180910390f35b6100ba6101bb565b6000546100e8906001600160a01b031681565b6040516100c49190610684565b610108610103366004610698565b61029c565b005b6100ba7f000000000000000000000000000000000000000000000000000000000000000081565b61014461013f3660046106c5565b61039c565b60405160ff90911681526020016100c4565b60005461016d90600160a01b900463ffffffff1681565b60405163ffffffff90911681526020016100c4565b6100e86101903660046106c5565b6103d0565b6101446101a33660046106c5565b6103fa565b6101086101b63660046106de565b61040a565b7f000000000000000000000000000000000000000000000000000000000000000060005b60015481101561029857610284826001838154811061020057610200610707565b600091825260209091200154600280546001600160a01b03909216918590811061022c5761022c610707565b90600052602060002090602091828204019190069054906101000a900460ff166003858154811061025f5761025f610707565b60009182526020918290209181049091015460ff601f9092166101000a900416610544565b91508061029081610733565b9150506101df565b5090565b60005460405163521d4de960e01b81526001600160a01b039091169063521d4de9906102cc903390600401610684565b602060405180830381865afa1580156102e9573d6000803e3d6000fd5b505050506040513d601f19601f8201168201806040525081019061030d919061074e565b6103425760405162461bcd60e51b81526020600482015260016024820152601960f91b60448201526064015b60405180910390fd5b6000805463ffffffff60a01b1916600160a01b63ffffffff8416908102919091179091556040519081527f4040b15332969bfd8b2035c1a701c8e13f2b5d62ce89b311684a601b2eb44e019060200160405180910390a150565b600281815481106103ac57600080fd5b9060005260206000209060209182820401919006915054906101000a900460ff1681565b600181815481106103e057600080fd5b6000918252602090912001546001600160a01b0316905081565b600381815481106103ac57600080fd5b6000546040516333b52a9f60e11b81526001600160a01b039091169063676a553e9061043a903390600401610684565b602060405180830381865afa158015610457573d6000803e3d6000fd5b505050506040513d601f19601f8201168201806040525081019061047b919061074e565b806104f25750600054604051631c86b03760e31b81526001600160a01b039091169063e43581b8906104b1903390600401610684565b602060405180830381865afa1580156104ce573d6000803e3d6000fd5b505050506040513d601f19601f820116820180604052508101906104f2919061074e565b6105225760405162461bcd60e51b81526020600482015260016024820152603360f81b6044820152606401610339565b600080546001600160a01b0319166001600160a01b0392909216919091179055565b6000806000806000876001600160a01b031663feaf968c6040518163ffffffff1660e01b815260040160a060405180830381865afa15801561058a573d6000803e3d6000fd5b505050506040513d601f19601f820116820180604052508101906105ae919061078c565b9450945050935093506000831380156105d95750806001600160501b0316846001600160501b031611155b80156105fd5750600054600160a01b900463ffffffff166105fa83426107dc565b11155b61062e5760405162461bcd60e51b8152602060048201526002602482015261333760f01b6044820152606401610339565b82600160ff891614156106665761064687600a6108d9565b610650828c6108e5565b61065a9190610904565b9550505050505061067c565b8061067288600a6108d9565b610650908c6108e5565b949350505050565b6001600160a01b0391909116815260200190565b6000602082840312156106aa57600080fd5b813563ffffffff811681146106be57600080fd5b9392505050565b6000602082840312156106d757600080fd5b5035919050565b6000602082840312156106f057600080fd5b81356001600160a01b03811681146106be57600080fd5b634e487b7160e01b600052603260045260246000fd5b634e487b7160e01b600052601160045260246000fd5b60006000198214156107475761074761071d565b5060010190565b60006020828403121561076057600080fd5b815180151581146106be57600080fd5b80516001600160501b038116811461078757600080fd5b919050565b600080600080600060a086880312156107a457600080fd5b6107ad86610770565b94506020860151935060408601519250606086015191506107d060808701610770565b90509295509295909350565b6000828210156107ee576107ee61071d565b500390565b600181815b8085111561082e5781600019048211156108145761081461071d565b8085161561082157918102915b93841c93908002906107f8565b509250929050565b600082610845575060016108d3565b81610852575060006108d3565b816001811461086857600281146108725761088e565b60019150506108d3565b60ff8411156108835761088361071d565b50506001821b6108d3565b5060208310610133831016604e8410600b84101617156108b1575081810a6108d3565b6108bb83836107f3565b80600019048211156108cf576108cf61071d565b0290505b92915050565b60006106be8383610836565b60008160001904831182151516156108ff576108ff61071d565b500290565b60008261092157634e487b7160e01b600052601260045260246000fd5b50049056fea26469706673582212202026c7f464025be4fa4d1ba3885543722a4ce8a7592c94817c77dfc2127e729764736f6c634300080c0033",
  "devdoc": {
    "author": "Angle Core Team",
    "details": "This contract concerns an oracle that uses Chainlink with multiple pools to read fromTypically we expect to use this contract to read like the ETH/USD and then USD/EUR feed",
    "kind": "dev",
    "methods": {
      "changeStalePeriod(uint32)": {
        "params": {
          "_stalePeriod": "New stale period (in seconds)"
        }
      },
      "constructor": {
        "details": "For instance, if this oracle is supposed to give the price of ETH in EUR, and if the agEUR stablecoin associated to EUR has 18 decimals, then `outBase` should be 10**18",
        "params": {
          "_circuitChainIsMultiplied": "Whether we should multiply or divide by this rate",
          "_circuitChainlink": "Chainlink pool addresses (in order)",
          "_description": "Description of the assets concerned by the oracle",
          "_outBase": "Unit of the stablecoin (or the out asset) associated to the oracle",
          "_stalePeriod": "Minimum feed update frequency for the oracle to not revert",
          "_treasury": "Treasury associated to the VaultManager which reads from this feed"
        }
      },
      "read()": {
        "details": "For instance if the out currency is EUR (and hence agEUR), then the base of the returned value is 10**18",
        "returns": {
          "quoteAmount": "The current rate between the in-currency and out-currency in the base of the out currency"
        }
      },
      "setTreasury(address)": {
        "details": "This function can be called by an approved `vaultManager` contract which can call this function after being requested to do so by a `treasury` contractIn some situations (like reactor contracts), the `vaultManager` may not directly be linked to the `oracle` contract and as such we may need governors to be able to call this function as well",
        "params": {
          "_treasury": "Address of the new treasury contract"
        }
      }
    },
    "title": "OracleChainlinkMulti",
    "version": 1
  },
  "userdoc": {
    "kind": "user",
    "methods": {
      "chainlinkDecimals(uint256)": {
        "notice": "Decimals for each Chainlink pairs"
      },
      "changeStalePeriod(uint32)": {
        "notice": "Changes the stale period"
      },
      "circuitChainIsMultiplied(uint256)": {
        "notice": "Whether each rate for the pairs in `circuitChainlink` should be multiplied or divided"
      },
      "circuitChainlink(uint256)": {
        "notice": "Chainlink pools, the order of the pools has to be the order in which they are read for the computation of the price"
      },
      "constructor": {
        "notice": "Constructor for an oracle using Chainlink with multiple pools to read from"
      },
      "description()": {
        "notice": "Description of the assets concerned by the oracle and the price outputted"
      },
      "outBase()": {
        "notice": "Unit of the stablecoin"
      },
      "read()": {
        "notice": "Reads the rate from the Chainlink circuit"
      },
      "setTreasury(address)": {
        "notice": "Changes the treasury contract"
      },
      "stalePeriod()": {
        "notice": "Represent the maximum amount of time (in seconds) between each Chainlink update before the price feed is considered stale"
      },
      "treasury()": {
        "notice": "Reference to the `treasury` contract handling this `VaultManager`"
      }
    },
    "notice": "Oracle contract, one contract is deployed per collateral/stablecoin pair",
    "version": 1
  },
  "storageLayout": {
    "storage": [
      {
        "astId": 11398,
        "contract": "contracts/oracle/OracleChainlinkMulti.sol:OracleChainlinkMulti",
        "label": "treasury",
        "offset": 0,
        "slot": "0",
        "type": "t_contract(ITreasury)9684"
      },
      {
        "astId": 11401,
        "contract": "contracts/oracle/OracleChainlinkMulti.sol:OracleChainlinkMulti",
        "label": "stalePeriod",
        "offset": 20,
        "slot": "0",
        "type": "t_uint32"
      },
      {
        "astId": 11574,
        "contract": "contracts/oracle/OracleChainlinkMulti.sol:OracleChainlinkMulti",
        "label": "circuitChainlink",
        "offset": 0,
        "slot": "1",
        "type": "t_array(t_contract(AggregatorV3Interface)45)dyn_storage"
      },
      {
        "astId": 11578,
        "contract": "contracts/oracle/OracleChainlinkMulti.sol:OracleChainlinkMulti",
        "label": "circuitChainIsMultiplied",
        "offset": 0,
        "slot": "2",
        "type": "t_array(t_uint8)dyn_storage"
      },
      {
        "astId": 11582,
        "contract": "contracts/oracle/OracleChainlinkMulti.sol:OracleChainlinkMulti",
        "label": "chainlinkDecimals",
        "offset": 0,
        "slot": "3",
        "type": "t_array(t_uint8)dyn_storage"
      }
    ],
    "types": {
      "t_array(t_contract(AggregatorV3Interface)45)dyn_storage": {
        "base": "t_contract(AggregatorV3Interface)45",
        "encoding": "dynamic_array",
        "label": "contract AggregatorV3Interface[]",
        "numberOfBytes": "32"
      },
      "t_array(t_uint8)dyn_storage": {
        "base": "t_uint8",
        "encoding": "dynamic_array",
        "label": "uint8[]",
        "numberOfBytes": "32"
      },
      "t_contract(AggregatorV3Interface)45": {
        "encoding": "inplace",
        "label": "contract AggregatorV3Interface",
        "numberOfBytes": "20"
      },
      "t_contract(ITreasury)9684": {
        "encoding": "inplace",
        "label": "contract ITreasury",
        "numberOfBytes": "20"
      },
      "t_uint32": {
        "encoding": "inplace",
        "label": "uint32",
        "numberOfBytes": "4"
      },
      "t_uint8": {
        "encoding": "inplace",
        "label": "uint8",
        "numberOfBytes": "1"
      }
    }
  }
}