{
  "address": "0xAc802b541a335643C98ACA43AA31bBB00217F1D2",
  "abi": [
    {
      "inputs": [],
      "stateMutability": "nonpayable",
      "type": "constructor"
    },
    {
      "anonymous": false,
      "inputs": [
        {
          "indexed": false,
          "internalType": "uint256",
          "name": "badDebtValue",
          "type": "uint256"
        }
      ],
      "name": "BadDebtUpdated",
      "type": "event"
    },
    {
      "anonymous": false,
      "inputs": [
        {
          "indexed": true,
          "internalType": "address",
          "name": "_core",
          "type": "address"
        }
      ],
      "name": "CoreUpdated",
      "type": "event"
    },
    {
      "anonymous": false,
      "inputs": [
        {
          "indexed": true,
          "internalType": "address",
          "name": "_treasury",
          "type": "address"
        }
      ],
      "name": "NewTreasurySet",
      "type": "event"
    },
    {
      "anonymous": false,
      "inputs": [
        {
          "indexed": true,
          "internalType": "address",
          "name": "token",
          "type": "address"
        },
        {
          "indexed": true,
          "internalType": "address",
          "name": "to",
          "type": "address"
        },
        {
          "indexed": false,
          "internalType": "uint256",
          "name": "amount",
          "type": "uint256"
        }
      ],
      "name": "Recovered",
      "type": "event"
    },
    {
      "anonymous": false,
      "inputs": [
        {
          "indexed": false,
          "internalType": "uint256",
          "name": "surplusBufferValue",
          "type": "uint256"
        }
      ],
      "name": "SurplusBufferUpdated",
      "type": "event"
    },
    {
      "anonymous": false,
      "inputs": [
        {
          "indexed": false,
          "internalType": "uint64",
          "name": "_surplusForGovernance",
          "type": "uint64"
        }
      ],
      "name": "SurplusForGovernanceUpdated",
      "type": "event"
    },
    {
      "anonymous": false,
      "inputs": [
        {
          "indexed": true,
          "internalType": "address",
          "name": "_surplusManager",
          "type": "address"
        }
      ],
      "name": "SurplusManagerUpdated",
      "type": "event"
    },
    {
      "anonymous": false,
      "inputs": [
        {
          "indexed": true,
          "internalType": "address",
          "name": "vaultManager",
          "type": "address"
        }
      ],
      "name": "VaultManagerToggled",
      "type": "event"
    },
    {
      "inputs": [],
      "name": "BASE_PARAMS",
      "outputs": [
        {
          "internalType": "uint256",
          "name": "",
          "type": "uint256"
        }
      ],
      "stateMutability": "view",
      "type": "function"
    },
    {
      "inputs": [
        {
          "internalType": "address",
          "name": "minter",
          "type": "address"
        }
      ],
      "name": "addMinter",
      "outputs": [],
      "stateMutability": "nonpayable",
      "type": "function"
    },
    {
      "inputs": [
        {
          "internalType": "address",
          "name": "vaultManager",
          "type": "address"
        }
      ],
      "name": "addVaultManager",
      "outputs": [],
      "stateMutability": "nonpayable",
      "type": "function"
    },
    {
      "inputs": [],
      "name": "badDebt",
      "outputs": [
        {
          "internalType": "uint256",
          "name": "",
          "type": "uint256"
        }
      ],
      "stateMutability": "view",
      "type": "function"
    },
    {
      "inputs": [],
      "name": "core",
      "outputs": [
        {
          "internalType": "contract ICoreBorrow",
          "name": "",
          "type": "address"
        }
      ],
      "stateMutability": "view",
      "type": "function"
    },
    {
      "inputs": [],
      "name": "fetchSurplusFromAll",
      "outputs": [
        {
          "internalType": "uint256",
          "name": "",
          "type": "uint256"
        },
        {
          "internalType": "uint256",
          "name": "",
          "type": "uint256"
        }
      ],
      "stateMutability": "nonpayable",
      "type": "function"
    },
    {
      "inputs": [],
      "name": "fetchSurplusFromFlashLoan",
      "outputs": [
        {
          "internalType": "uint256",
          "name": "",
          "type": "uint256"
        },
        {
          "internalType": "uint256",
          "name": "",
          "type": "uint256"
        }
      ],
      "stateMutability": "nonpayable",
      "type": "function"
    },
    {
      "inputs": [
        {
          "internalType": "address[]",
          "name": "vaultManagers",
          "type": "address[]"
        }
      ],
      "name": "fetchSurplusFromVaultManagers",
      "outputs": [
        {
          "internalType": "uint256",
          "name": "",
          "type": "uint256"
        },
        {
          "internalType": "uint256",
          "name": "",
          "type": "uint256"
        }
      ],
      "stateMutability": "nonpayable",
      "type": "function"
    },
    {
      "inputs": [],
      "name": "flashLoanModule",
      "outputs": [
        {
          "internalType": "contract IFlashAngle",
          "name": "",
          "type": "address"
        }
      ],
      "stateMutability": "view",
      "type": "function"
    },
    {
      "inputs": [
        {
          "internalType": "contract ICoreBorrow",
          "name": "_core",
          "type": "address"
        },
        {
          "internalType": "contract IAgToken",
          "name": "_stablecoin",
          "type": "address"
        }
      ],
      "name": "initialize",
      "outputs": [],
      "stateMutability": "nonpayable",
      "type": "function"
    },
    {
      "inputs": [
        {
          "internalType": "address",
          "name": "admin",
          "type": "address"
        }
      ],
      "name": "isGovernor",
      "outputs": [
        {
          "internalType": "bool",
          "name": "",
          "type": "bool"
        }
      ],
      "stateMutability": "view",
      "type": "function"
    },
    {
      "inputs": [
        {
          "internalType": "address",
          "name": "admin",
          "type": "address"
        }
      ],
      "name": "isGovernorOrGuardian",
      "outputs": [
        {
          "internalType": "bool",
          "name": "",
          "type": "bool"
        }
      ],
      "stateMutability": "view",
      "type": "function"
    },
    {
      "inputs": [
        {
          "internalType": "address",
          "name": "_vaultManager",
          "type": "address"
        }
      ],
      "name": "isVaultManager",
      "outputs": [
        {
          "internalType": "bool",
          "name": "",
          "type": "bool"
        }
      ],
      "stateMutability": "view",
      "type": "function"
    },
    {
      "inputs": [],
      "name": "pushSurplus",
      "outputs": [
        {
          "internalType": "uint256",
          "name": "governanceAllocation",
          "type": "uint256"
        }
      ],
      "stateMutability": "nonpayable",
      "type": "function"
    },
    {
      "inputs": [
        {
          "internalType": "address",
          "name": "tokenAddress",
          "type": "address"
        },
        {
          "internalType": "address",
          "name": "to",
          "type": "address"
        },
        {
          "internalType": "uint256",
          "name": "amountToRecover",
          "type": "uint256"
        }
      ],
      "name": "recoverERC20",
      "outputs": [],
      "stateMutability": "nonpayable",
      "type": "function"
    },
    {
      "inputs": [
        {
          "internalType": "address",
          "name": "minter",
          "type": "address"
        }
      ],
      "name": "removeMinter",
      "outputs": [],
      "stateMutability": "nonpayable",
      "type": "function"
    },
    {
      "inputs": [
        {
          "internalType": "address",
          "name": "vaultManager",
          "type": "address"
        }
      ],
      "name": "removeVaultManager",
      "outputs": [],
      "stateMutability": "nonpayable",
      "type": "function"
    },
    {
      "inputs": [
        {
          "internalType": "contract ICoreBorrow",
          "name": "_core",
          "type": "address"
        }
      ],
      "name": "setCore",
      "outputs": [],
      "stateMutability": "nonpayable",
      "type": "function"
    },
    {
      "inputs": [
        {
          "internalType": "address",
          "name": "_flashLoanModule",
          "type": "address"
        }
      ],
      "name": "setFlashLoanModule",
      "outputs": [],
      "stateMutability": "nonpayable",
      "type": "function"
    },
    {
      "inputs": [
        {
          "internalType": "uint64",
          "name": "_surplusForGovernance",
          "type": "uint64"
        }
      ],
      "name": "setSurplusForGovernance",
      "outputs": [],
      "stateMutability": "nonpayable",
      "type": "function"
    },
    {
      "inputs": [
        {
          "internalType": "address",
          "name": "_surplusManager",
          "type": "address"
        }
      ],
      "name": "setSurplusManager",
      "outputs": [],
      "stateMutability": "nonpayable",
      "type": "function"
    },
    {
      "inputs": [
        {
          "internalType": "address",
          "name": "_treasury",
          "type": "address"
        }
      ],
      "name": "setTreasury",
      "outputs": [],
      "stateMutability": "nonpayable",
      "type": "function"
    },
    {
      "inputs": [],
      "name": "stablecoin",
      "outputs": [
        {
          "internalType": "contract IAgToken",
          "name": "",
          "type": "address"
        }
      ],
      "stateMutability": "view",
      "type": "function"
    },
    {
      "inputs": [],
      "name": "surplusBuffer",
      "outputs": [
        {
          "internalType": "uint256",
          "name": "",
          "type": "uint256"
        }
      ],
      "stateMutability": "view",
      "type": "function"
    },
    {
      "inputs": [],
      "name": "surplusForGovernance",
      "outputs": [
        {
          "internalType": "uint64",
          "name": "",
          "type": "uint64"
        }
      ],
      "stateMutability": "view",
      "type": "function"
    },
    {
      "inputs": [],
      "name": "surplusManager",
      "outputs": [
        {
          "internalType": "address",
          "name": "",
          "type": "address"
        }
      ],
      "stateMutability": "view",
      "type": "function"
    },
    {
      "inputs": [
        {
          "internalType": "uint256",
          "name": "amount",
          "type": "uint256"
        }
      ],
      "name": "updateBadDebt",
      "outputs": [
        {
          "internalType": "uint256",
          "name": "badDebtValue",
          "type": "uint256"
        }
      ],
      "stateMutability": "nonpayable",
      "type": "function"
    },
    {
      "inputs": [
        {
          "internalType": "uint256",
          "name": "",
          "type": "uint256"
        }
      ],
      "name": "vaultManagerList",
      "outputs": [
        {
          "internalType": "address",
          "name": "",
          "type": "address"
        }
      ],
      "stateMutability": "view",
      "type": "function"
    },
    {
      "inputs": [
        {
          "internalType": "address",
          "name": "",
          "type": "address"
        }
      ],
      "name": "vaultManagerMap",
      "outputs": [
        {
          "internalType": "bool",
          "name": "",
          "type": "bool"
        }
      ],
      "stateMutability": "view",
      "type": "function"
    }
  ],
  "transactionHash": "0xd6e234a296b0c1aa2a9a745e347e31c69a82fafa5c7b584b3428444989af3fe0",
  "args": [],
  "solcInputHash": "889158584004053240c8dc2a15a012d3",
  "bytecode": "0x60806040523480156200001157600080fd5b50600054610100900460ff166200002f5760005460ff161562000039565b62000039620000de565b620000a15760405162461bcd60e51b815260206004820152602e60248201527f496e697469616c697a61626c653a20636f6e747261637420697320616c72656160448201526d191e481a5b9a5d1a585b1a5e995960921b606482015260840160405180910390fd5b600054610100900460ff16158015620000c4576000805461ffff19166101011790555b8015620000d7576000805461ff00191690555b5062000102565b6000620000f630620000fc60201b620019701760201c565b15905090565b3b151590565b6124cb80620001126000396000f3fe608060405234801561001057600080fd5b506004361061015f5760003560e01c80630d45456d146101645780631171bda914610186578063137f3b0a1461019b57806319106b67146101bc57806321c29f92146101c45780632a608d5b146101d75780632f15caed146101e05780633092afd514610200578063485cc95514610213578063521d4de9146102265780635290e6a6146102495780635c77f2851461025c5780635e654522146102645780635f80fcad14610277578063676a553e1461028a57806380009630146102b657806389110235146102c9578063959d5a01146102ec578063983b2d561461030c5780639f48118f1461031f578063a94624101461032a578063bbcac5571461033d578063cf87300314610346578063df48681914610359578063e43581b81461036c578063e9cbd8221461037f578063f0f4426014610392578063f2f4eb26146103a5578063f5ec243c146103be575b600080fd5b61016c6103d1565b604080519283526020830191909152015b60405180910390f35b610199610194366004611ff6565b6103e4565b005b6101ae6101a9366004612037565b610622565b60405190815260200161017d565b6101ae6106e3565b6101996101d2366004612050565b6107e8565b6101ae60075481565b6008546101f3906001600160401b031681565b60405161017d919061206d565b61019961020e366004612050565b610937565b610199610221366004612081565b610a7c565b610239610234366004612050565b610bc8565b604051901515815260200161017d565b610199610257366004612050565b610c45565b61016c610edc565b6101996102723660046120ba565b610f7e565b610199610285366004612050565b6110a7565b610239610298366004612050565b6001600160a01b031660009081526005602052604090205460ff1690565b6101996102c4366004612050565b6112bf565b6102396102d7366004612050565b60056020526000908152604090205460ff1681565b6001546102ff906001600160a01b031681565b60405161017d91906120e3565b61019961031a366004612050565b61142c565b6101ae633b9aca0081565b610199610338366004612050565b611514565b6101ae60065481565b61016c61035436600461210d565b611616565b6102ff610367366004612037565b61163e565b61023961037a366004612050565b611668565b6002546102ff906001600160a01b031681565b6101996103a0366004612050565b61169e565b6000546102ff906201000090046001600160a01b031681565b6003546102ff906001600160a01b031681565b6000806103dc611976565b915091509091565b600054604051631c86b03760e31b8152620100009091046001600160a01b03169063e43581b8906104199033906004016120e3565b602060405180830381865afa158015610436573d6000803e3d6000fd5b505050506040513d601f19601f8201168201806040525081019061045a91906121d1565b61047f5760405162461bcd60e51b8152600401610476906121f3565b60405180910390fd5b6002546001600160a01b03848116911614156105bc5761049d611976565b50506002546040516370a0823160e01b81526000916001600160a01b0316906370a08231906104d09030906004016120e3565b602060405180830381865afa1580156104ed573d6000803e3d6000fd5b505050506040513d601f19601f82011682018060405250810190610511919061220e565b90508060075483610522919061223d565b11156105405760405162461bcd60e51b815260040161047690612255565b60025460405163a9059cbb60e01b81526001600160a01b039091169063a9059cbb906105729086908690600401612270565b6020604051808303816000875af1158015610591573d6000803e3d6000fd5b505050506040513d601f19601f820116820180604052508101906105b591906121d1565b50506105d0565b6105d06001600160a01b0384168383611a89565b816001600160a01b0316836001600160a01b03167ffff3b3844276f57024e0b42afec1a37f75db36511e43819a4f2a63ab7862b6488360405161061591815260200190565b60405180910390a3505050565b600654808211156106455760405162461bcd60e51b815260040161047690612255565b6002546040516315a38ec760e11b81526001600160a01b0390911690632b471d8e906106779085903090600401612289565b600060405180830381600087803b15801561069157600080fd5b505af11580156106a5573d6000803e3d6000fd5b5050505081816106b591906122a0565b60068190556040518181529091506000805160206124768339815191529060200160405180910390a1919050565b6003546000906001600160a01b03168061070f5760405162461bcd60e51b8152600401610476906122b7565b6000610719611976565b50600060078190556040519081529091506000805160206124368339815191529060200160405180910390a1600854633b9aca00906107629083906001600160401b03166122d2565b61076c91906122f1565b60025460405163a9059cbb60e01b81529194506001600160a01b03169063a9059cbb9061079f9085908790600401612270565b6020604051808303816000875af11580156107be573d6000803e3d6000fd5b505050506040513d601f19601f820116820180604052508101906107e291906121d1565b50505090565b6000546201000090046001600160a01b0316331461082d5760405162461bcd60e51b8152602060048201526002602482015261031360f41b6044820152606401610476565b6001546001600160a01b031680156108a257600254604051633092afd560e01b81526001600160a01b0390911690633092afd59061086f9084906004016120e3565b600060405180830381600087803b15801561088957600080fd5b505af115801561089d573d6000803e3d6000fd5b505050505b6001600160a01b0382161561091457600254604051634c1d96ab60e11b81526001600160a01b039091169063983b2d56906108e19085906004016120e3565b600060405180830381600087803b1580156108fb57600080fd5b505af115801561090f573d6000803e3d6000fd5b505050505b50600180546001600160a01b0319166001600160a01b0392909216919091179055565b600054604051631c86b03760e31b8152620100009091046001600160a01b03169063e43581b89061096c9033906004016120e3565b602060405180830381865afa158015610989573d6000803e3d6000fd5b505050506040513d601f19601f820116820180604052508101906109ad91906121d1565b6109c95760405162461bcd60e51b8152600401610476906121f3565b6001600160a01b03811660009081526005602052604090205460ff1615610a175760405162461bcd60e51b8152602060048201526002602482015261199b60f11b6044820152606401610476565b600254604051633092afd560e01b81526001600160a01b0390911690633092afd590610a479084906004016120e3565b600060405180830381600087803b158015610a6157600080fd5b505af1158015610a75573d6000803e3d6000fd5b5050505050565b600054610100900460ff16610a975760005460ff1615610a9b565b303b155b610afe5760405162461bcd60e51b815260206004820152602e60248201527f496e697469616c697a61626c653a20636f6e747261637420697320616c72656160448201526d191e481a5b9a5d1a585b1a5e995960921b6064820152608401610476565b600054610100900460ff16158015610b20576000805461ffff19166101011790555b6001600160a01b03821615801590610b4057506001600160a01b03831615155b610b705760405162461bcd60e51b81526020600482015260016024820152604f60f81b6044820152606401610476565b6000805462010000600160b01b031916620100006001600160a01b038681169190910291909117909155600280546001600160a01b0319169184169190911790558015610bc3576000805461ff00191690555b505050565b6000805460405163521d4de960e01b8152620100009091046001600160a01b03169063521d4de990610bfe9085906004016120e3565b602060405180830381865afa158015610c1b573d6000803e3d6000fd5b505050506040513d601f19601f82011682018060405250810190610c3f91906121d1565b92915050565b600054604051631c86b03760e31b8152620100009091046001600160a01b03169063e43581b890610c7a9033906004016120e3565b602060405180830381865afa158015610c97573d6000803e3d6000fd5b505050506040513d601f19601f82011682018060405250810190610cbb91906121d1565b610cd75760405162461bcd60e51b8152600401610476906121f3565b6001600160a01b03811660009081526005602052604090205460ff16610d235760405162461bcd60e51b81526020600482015260016024820152603360f81b6044820152606401610476565b6001600160a01b0381166000908152600560205260408120805460ff19169055600454905b610d536001836122a0565b811015610e2057826001600160a01b031660048281548110610d7757610d77612313565b6000918252602090912001546001600160a01b03161415610e0e576004610d9f6001846122a0565b81548110610daf57610daf612313565b600091825260209091200154600480546001600160a01b039092169183908110610ddb57610ddb612313565b9060005260206000200160006101000a8154816001600160a01b0302191690836001600160a01b03160217905550610e20565b80610e1881612329565b915050610d48565b506004805480610e3257610e32612344565b600082815260208120820160001990810180546001600160a01b03191690559091019091556040516001600160a01b0384169160008051602061245683398151915291a2600254604051633092afd560e01b81526001600160a01b0390911690633092afd590610ea69085906004016120e3565b600060405180830381600087803b158015610ec057600080fd5b505af1158015610ed4573d6000803e3d6000fd5b505050505050565b6001546002546040516396337bd560e01b8152600092839283926001600160a01b03928316926396337bd592610f17929116906004016120e3565b6020604051808303816000875af1158015610f36573d6000803e3d6000fd5b505050506040513d601f19601f82011682018060405250810190610f5a919061220e565b600754610f67919061223d565b9050610f7581600654611adf565b92509250509091565b600054604051631c86b03760e31b8152620100009091046001600160a01b03169063e43581b890610fb39033906004016120e3565b602060405180830381865afa158015610fd0573d6000803e3d6000fd5b505050506040513d601f19601f82011682018060405250810190610ff491906121d1565b6110105760405162461bcd60e51b8152600401610476906121f3565b633b9aca00816001600160401b031611156110515760405162461bcd60e51b81526020600482015260016024820152603960f81b6044820152606401610476565b600880546001600160401b0319166001600160401b0383161790556040517fe4c9afce87963212e0d33e6b4b43fee7103b8c57228620e450e5064b95ee08ec9061109c90839061206d565b60405180910390a150565b600054604051631c86b03760e31b8152620100009091046001600160a01b03169063e43581b8906110dc9033906004016120e3565b602060405180830381865afa1580156110f9573d6000803e3d6000fd5b505050506040513d601f19601f8201168201806040525081019061111d91906121d1565b6111395760405162461bcd60e51b8152600401610476906121f3565b6001600160a01b03811660009081526005602052604090205460ff16156111865760405162461bcd60e51b81526020600482015260016024820152603560f81b6044820152606401610476565b306001600160a01b0316816001600160a01b03166361d027b36040518163ffffffff1660e01b8152600401602060405180830381865afa1580156111ce573d6000803e3d6000fd5b505050506040513d601f19601f820116820180604052508101906111f2919061235a565b6001600160a01b0316146112185760405162461bcd60e51b815260040161047690612377565b6001600160a01b038116600081815260056020526040808220805460ff1916600190811790915560048054918201815583527f8a35acfbc15ff81a39ae7d344fd709f28e8600b4aa8c65c6b64bfe7fe36bd19b0180546001600160a01b03191684179055516000805160206124568339815191529190a2600254604051634c1d96ab60e11b81526001600160a01b039091169063983b2d5690610a479084906004016120e3565b600054604051631c86b03760e31b8152620100009091046001600160a01b03169063e43581b8906112f49033906004016120e3565b602060405180830381865afa158015611311573d6000803e3d6000fd5b505050506040513d601f19601f8201168201806040525081019061133591906121d1565b6113515760405162461bcd60e51b8152600401610476906121f3565b604051631c86b03760e31b81526001600160a01b0382169063e43581b89061137d9033906004016120e3565b602060405180830381865afa15801561139a573d6000803e3d6000fd5b505050506040513d601f19601f820116820180604052508101906113be91906121d1565b6113da5760405162461bcd60e51b8152600401610476906121f3565b6000805462010000600160b01b031916620100006001600160a01b03841690810291909117825560405190917f0c9c0f914e121785e2cd2269d6698bc11f59a50b85ef9aa1197fb4ddb96c4e5691a250565b600054604051631c86b03760e31b8152620100009091046001600160a01b03169063e43581b8906114619033906004016120e3565b602060405180830381865afa15801561147e573d6000803e3d6000fd5b505050506040513d601f19601f820116820180604052508101906114a291906121d1565b6114be5760405162461bcd60e51b8152600401610476906121f3565b6001600160a01b0381166114e45760405162461bcd60e51b8152600401610476906122b7565b600254604051634c1d96ab60e11b81526001600160a01b039091169063983b2d5690610a479084906004016120e3565b600054604051631c86b03760e31b8152620100009091046001600160a01b03169063e43581b8906115499033906004016120e3565b602060405180830381865afa158015611566573d6000803e3d6000fd5b505050506040513d601f19601f8201168201806040525081019061158a91906121d1565b6115a65760405162461bcd60e51b8152600401610476906121f3565b6001600160a01b0381166115cc5760405162461bcd60e51b8152600401610476906122b7565b600380546001600160a01b0319166001600160a01b0383169081179091556040517f8e34f87614920d3825860be957926690888c7cb9ed7fb5ec457edaaad64bd28c90600090a250565b60008060008061162585611cba565b915091506116338282611adf565b935093505050915091565b6004818154811061164e57600080fd5b6000918252602090912001546001600160a01b0316905081565b60008054604051631c86b03760e31b8152620100009091046001600160a01b03169063e43581b890610bfe9085906004016120e3565b600054604051631c86b03760e31b8152620100009091046001600160a01b03169063e43581b8906116d39033906004016120e3565b602060405180830381865afa1580156116f0573d6000803e3d6000fd5b505050506040513d601f19601f8201168201806040525081019061171491906121d1565b6117305760405162461bcd60e51b8152600401610476906121f3565b600254604080516374e5ec1160e11b815290516001600160a01b039283169284169163e9cbd8229160048083019260209291908290030181865afa15801561177c573d6000803e3d6000fd5b505050506040513d601f19601f820116820180604052508101906117a0919061235a565b6001600160a01b0316146117c65760405162461bcd60e51b815260040161047690612377565b600054604051637816ec5160e11b8152620100009091046001600160a01b03169063f02dd8a2906117fb9030906004016120e3565b602060405180830381865afa158015611818573d6000803e3d6000fd5b505050506040513d601f19601f8201168201806040525081019061183c91906121d1565b1561186d5760405162461bcd60e51b81526020600482015260016024820152603760f81b6044820152606401610476565b6040516001600160a01b038216907fa74e71df5980104def7b321d0fa7d4b885191d40a2ae420acb543c3eba54253290600090a260005b60045481101561193f57600481815481106118c1576118c1612313565b600091825260209091200154604051630787a21360e51b81526001600160a01b039091169063f0f44260906118fa9085906004016120e3565b600060405180830381600087803b15801561191457600080fd5b505af1158015611928573d6000803e3d6000fd5b50505050808061193790612329565b9150506118a4565b50600254604051630787a21360e51b81526001600160a01b039091169063f0f4426090610a479084906004016120e3565b3b151590565b6000806119dc60048054806020026020016040519081016040528092919081815260200182805480156119d257602002820191906000526020600020905b81546001600160a01b031681526001909101906020018083116119b4575b5050505050611cba565b60015491935091506001600160a01b031615611a76576001546002546040516396337bd560e01b81526001600160a01b03928316926396337bd592611a26929116906004016120e3565b6020604051808303816000875af1158015611a45573d6000803e3d6000fd5b505050506040513d601f19601f82011682018060405250810190611a69919061220e565b611a73908361223d565b91505b611a808282611adf565b90939092509050565b610bc38363a9059cbb60e01b8484604051602401611aa8929190612270565b60408051601f198184030181529190526020810180516001600160e01b03166001600160e01b031990931692909217909152611d82565b6000808215611c66576002546040516370a0823160e01b81526000916001600160a01b0316906370a0823190611b199030906004016120e3565b602060405180830381865afa158015611b36573d6000803e3d6000fd5b505050506040513d601f19601f82011682018060405250810190611b5a919061220e565b905083811015611bdf576002546040516315a38ec760e11b81526001600160a01b0390911690632b471d8e90611b969084903090600401612289565b600060405180830381600087803b158015611bb057600080fd5b505af1158015611bc4573d6000803e3d6000fd5b50505050600094508084611bd891906122a0565b9350611c64565b6002546040516315a38ec760e11b81526001600160a01b0390911690632b471d8e90611c119087903090600401612289565b600060405180830381600087803b158015611c2b57600080fd5b505af1158015611c3f573d6000803e3d6000fd5b5050505084841015611c5a57611c5584866122a0565b611c5d565b60005b9450600093505b505b600784905560068390556040518481526000805160206124368339815191529060200160405180910390a16040518381526000805160206124768339815191529060200160405180910390a1509192909150565b60065460075490600080805b8551811015611d7a57858181518110611ce157611ce1612313565b60200260200101516001600160a01b031663fd527cf86040518163ffffffff1660e01b815260040160408051808303816000875af1158015611d27573d6000803e3d6000fd5b505050506040513d601f19601f82011682018060405250810190611d4b9190612392565b9093509150611d5a838661223d565b9450611d66828561223d565b935080611d7281612329565b915050611cc6565b505050915091565b6000611dd7826040518060400160405280602081526020017f5361666545524332303a206c6f772d6c6576656c2063616c6c206661696c6564815250856001600160a01b0316611e549092919063ffffffff16565b805190915015610bc35780806020019051810190611df591906121d1565b610bc35760405162461bcd60e51b815260206004820152602a60248201527f5361666545524332303a204552433230206f7065726174696f6e20646964206e6044820152691bdd081cdd58d8d9595960b21b6064820152608401610476565b6060611e638484600085611e6d565b90505b9392505050565b606082471015611ece5760405162461bcd60e51b815260206004820152602660248201527f416464726573733a20696e73756666696369656e742062616c616e636520666f6044820152651c8818d85b1b60d21b6064820152608401610476565b843b611f1c5760405162461bcd60e51b815260206004820152601d60248201527f416464726573733a2063616c6c20746f206e6f6e2d636f6e74726163740000006044820152606401610476565b600080866001600160a01b03168587604051611f3891906123e6565b60006040518083038185875af1925050503d8060008114611f75576040519150601f19603f3d011682016040523d82523d6000602084013e611f7a565b606091505b5091509150611f8a828286611f95565b979650505050505050565b60608315611fa4575081611e66565b825115611fb45782518084602001fd5b8160405162461bcd60e51b81526004016104769190612402565b6001600160a01b0381168114611fe357600080fd5b50565b8035611ff181611fce565b919050565b60008060006060848603121561200b57600080fd5b833561201681611fce565b9250602084013561202681611fce565b929592945050506040919091013590565b60006020828403121561204957600080fd5b5035919050565b60006020828403121561206257600080fd5b8135611e6681611fce565b6001600160401b0391909116815260200190565b6000806040838503121561209457600080fd5b823561209f81611fce565b915060208301356120af81611fce565b809150509250929050565b6000602082840312156120cc57600080fd5b81356001600160401b0381168114611e6657600080fd5b6001600160a01b0391909116815260200190565b634e487b7160e01b600052604160045260246000fd5b6000602080838503121561212057600080fd5b82356001600160401b038082111561213757600080fd5b818501915085601f83011261214b57600080fd5b81358181111561215d5761215d6120f7565b8060051b604051601f19603f83011681018181108582111715612182576121826120f7565b6040529182528482019250838101850191888311156121a057600080fd5b938501935b828510156121c5576121b685611fe6565b845293850193928501926121a5565b98975050505050505050565b6000602082840312156121e357600080fd5b81518015158114611e6657600080fd5b6020808252600190820152603160f81b604082015260600190565b60006020828403121561222057600080fd5b5051919050565b634e487b7160e01b600052601160045260246000fd5b6000821982111561225057612250612227565b500190565b6020808252600190820152600d60fa1b604082015260600190565b6001600160a01b03929092168252602082015260400190565b9182526001600160a01b0316602082015260400190565b6000828210156122b2576122b2612227565b500390565b6020808252600190820152600360fc1b604082015260600190565b60008160001904831182151516156122ec576122ec612227565b500290565b60008261230e57634e487b7160e01b600052601260045260246000fd5b500490565b634e487b7160e01b600052603260045260246000fd5b600060001982141561233d5761233d612227565b5060010190565b634e487b7160e01b600052603160045260246000fd5b60006020828403121561236c57600080fd5b8151611e6681611fce565b6020808252600190820152601b60f91b604082015260600190565b600080604083850312156123a557600080fd5b505080516020909101519092909150565b60005b838110156123d15781810151838201526020016123b9565b838111156123e0576000848401525b50505050565b600082516123f88184602087016123b6565b9190910192915050565b60208152600082518060208401526124218160408501602087016123b6565b601f01601f1916919091016040019291505056fe2f439c0500f79f2f3322b3665dcdaaa6967182caf9916f6ce2c64f296e609ed2f1e53200c691f394b84864158f7d32772fed29ce025460533f94d6b5ef6690646ec1ccf63c33130734196ff1971d19a46a2b28ce37b81f90ea52f4311319203fa26469706673582212205038a7f68c19eb3bd97325e8a725d1fdf17852a4bf5e8fa54f4f4491a0071aac64736f6c634300080c0033",
  "devdoc": {
    "author": "Angle Core Team",
    "kind": "dev",
    "methods": {
      "addMinter(address)": {
        "params": {
          "minter": "Minter address to add"
        }
      },
      "addVaultManager(address)": {
        "details": "This contract should have already been initialized with a correct treasury addressIt's this function that gives the minter right to the `vaultManager`",
        "params": {
          "vaultManager": "`VaultManager` contract to add"
        }
      },
      "constructor": {
        "custom:oz-upgrades-unsafe-allow": "constructor"
      },
      "fetchSurplusFromAll()": {
        "details": "This function pools surplus and bad debt across all contracts and then updates the `surplusBuffer` (or the `badDebt` if more losses were made than profits)",
        "returns": {
          "_0": "Surplus buffer value at the end of the call",
          "_1": "Bad debt value at the end of the call"
        }
      },
      "fetchSurplusFromFlashLoan()": {
        "details": "This function fails if the `flashLoanModule` has not been initialized yet",
        "returns": {
          "_0": "Surplus buffer value at the end of the call",
          "_1": "Bad debt value at the end of the call"
        }
      },
      "fetchSurplusFromVaultManagers(address[])": {
        "returns": {
          "_0": "Surplus buffer value at the end of the call",
          "_1": "Bad debt value at the end of the call TODO: could be removed or not?"
        }
      },
      "initialize(address,address)": {
        "params": {
          "_core": "Address of the `CoreBorrow` contract of the module",
          "_stablecoin": "Address of the stablecoin"
        }
      },
      "isGovernor(address)": {
        "details": "Access control is only kept in the `CoreBorrow` contract",
        "params": {
          "admin": "Address to check"
        },
        "returns": {
          "_0": "Whether the address has the governor role"
        }
      },
      "isGovernorOrGuardian(address)": {
        "details": "Access control is only kept in the `CoreBorrow` contract which means that this function queries the `CoreBorrow` contract",
        "params": {
          "admin": "Address to check"
        },
        "returns": {
          "_0": "Whether the address has the guardian or the governor role"
        }
      },
      "isVaultManager(address)": {
        "params": {
          "_vaultManager": "Address to check"
        },
        "returns": {
          "_0": "Whether the address has been initialized or not"
        }
      },
      "pushSurplus()": {
        "details": "This function will fail if the `surplusManager` has not been initialized yetIt makes sure to fetch the surplus from all the contracts handled by this treasury to avoid the situation where rewards are still distributed to governance even though a `VaultManager` has made a big lossTypically this function is to be called once every week by a keeper to distribute rewards to veANGLE holders`stablecoin` must be an AgToken and hence `transfer` reverts if the call is not successful",
        "returns": {
          "governanceAllocation": "Amount transferred to governance"
        }
      },
      "recoverERC20(address,address,uint256)": {
        "details": "It is impossible to recover the stablecoin of the protocol if there is some bad debt for itIn this case, the function makes sure to fetch the surplus/bad debt from all the `VaultManager` contracts and from the flash loan moduleIf the token to recover is the stablecoin, tokens recovered are fetched from the surplus and not from the `surplusBuffer`",
        "params": {
          "amountToRecover": "Amount of collateral to transfer",
          "to": "Address of the contract to send collateral to",
          "tokenAddress": "Address of the token to recover"
        }
      },
      "removeMinter(address)": {
        "params": {
          "minter": "Minter address to remove"
        }
      },
      "removeVaultManager(address)": {
        "details": "A removed `vaultManager` loses its minter right on the stablecoin",
        "params": {
          "vaultManager": "`VaultManager` contract to remove"
        }
      },
      "setCore(address)": {
        "details": "This function should typically be called on all treasury contracts after the `setCore` function has been called on the `Core` contractOne sanity check that can be performed here is to verify whether at least the governor calling the contract is still a governor in the new core"
      },
      "setFlashLoanModule(address)": {
        "details": "This function removes the minting right to the old flash loan module and grants it to the new module",
        "params": {
          "_flashLoanModule": "Reference to the new flash loan module"
        }
      },
      "setSurplusForGovernance(uint64)": {
        "details": "To pause surplus distribution, governance needs to set a zero value for `surplusForGovernance` which means",
        "params": {
          "_surplusForGovernance": "New value of the parameter"
        }
      },
      "setSurplusManager(address)": {
        "params": {
          "_surplusManager": "New address responsible for handling the surplus"
        }
      },
      "setTreasury(address)": {
        "details": "This function is basically a way to remove rights to this contract and grant them to a new oneIt could be used to set a new core contract",
        "params": {
          "_treasury": "New treasury address for this stablecoin"
        }
      },
      "updateBadDebt(uint256)": {
        "details": "If the protocol has made a loss and managed to make some profits to recover for this loss (through a program like Olympus Pro), then this function needs to be called`badDebt` is simply reduced here by burning stablecoinsIt is impossible to burn more than the `badDebt` otherwise this function could be used to manipulate the `surplusBuffer` and hence the amount going to governance",
        "params": {
          "amount": "Amount to reduce the bad debt of"
        },
        "returns": {
          "badDebtValue": "Value of the bad debt at the end of the call"
        }
      }
    },
    "title": "Treasury",
    "version": 1
  },
  "userdoc": {
    "kind": "user",
    "methods": {
      "BASE_PARAMS()": {
        "notice": "Base used for parameter computation"
      },
      "addMinter(address)": {
        "notice": "Adds a new minter for the stablecoin"
      },
      "addVaultManager(address)": {
        "notice": "Adds a new `vaultManager`"
      },
      "badDebt()": {
        "notice": "Amount of bad debt (unbacked stablecoin) accumulated across all `VaultManager` contracts linked to this stablecoin"
      },
      "core()": {
        "notice": "Reference to the Core contract of the module which handles all AccessControl logic"
      },
      "fetchSurplusFromAll()": {
        "notice": "Fetches the surplus accrued across all the `VaultManager` contracts controlled by this `Treasury` contract as well as from the fees of the `FlashLoan` module"
      },
      "fetchSurplusFromFlashLoan()": {
        "notice": "Fetches the surplus accrued in the flash loan module and updates the `surplusBuffer`"
      },
      "fetchSurplusFromVaultManagers(address[])": {
        "notice": "Fetches surplus a list of vaultManager contracts"
      },
      "flashLoanModule()": {
        "notice": "Flash Loan Module with a minter right on the stablecoin"
      },
      "initialize(address,address)": {
        "notice": "Initializes the treasury contract"
      },
      "isGovernor(address)": {
        "notice": "Checks whether a given address has the  governor role"
      },
      "isGovernorOrGuardian(address)": {
        "notice": "Checks whether a given address has the guardian or the governor role"
      },
      "isVaultManager(address)": {
        "notice": "Checks whether a given address has well been initialized in this contract as a `VaultManager``"
      },
      "pushSurplus()": {
        "notice": "Pushes the surplus buffer to the `surplusManager` contract"
      },
      "recoverERC20(address,address,uint256)": {
        "notice": "Allows to recover any ERC20 token, including the stablecoin handled by this contract, and to send it to a contract"
      },
      "removeMinter(address)": {
        "notice": "Removes a minter from the stablecoin contract"
      },
      "removeVaultManager(address)": {
        "notice": "Removes a `vaultManager`"
      },
      "setCore(address)": {
        "notice": "Sets a new `Core` contract"
      },
      "setFlashLoanModule(address)": {
        "notice": "Sets a new flash loan module for this stablecoin"
      },
      "setSurplusForGovernance(uint64)": {
        "notice": "Sets the `surplusForGovernance` parameter"
      },
      "setSurplusManager(address)": {
        "notice": "Sets the `surplusManager` contract responsible for handling the surplus of the protocol"
      },
      "setTreasury(address)": {
        "notice": "Changes the treasury contract and communicates this change to all `VaultManager` contract"
      },
      "stablecoin()": {
        "notice": "Stablecoin handled by this `treasury` contract"
      },
      "surplusBuffer()": {
        "notice": "Surplus amount accumulated by the contract waiting to be distributed to governance. Technically only a share of this `surplusBuffer` will go to governance. Once a share of the surplus buffer has been given to governance, then this surplus is reset"
      },
      "surplusForGovernance()": {
        "notice": "Share of the `surplusBuffer` distributed to governance (in `BASE_PARAMS`)"
      },
      "surplusManager()": {
        "notice": "Address responsible for handling the surplus made by the treasury"
      },
      "updateBadDebt(uint256)": {
        "notice": "Updates the bad debt of the protocol in case where the protocol has accumulated some revenue from an external source"
      },
      "vaultManagerList(uint256)": {
        "notice": "List of the accepted `VaultManager` of the protocol"
      },
      "vaultManagerMap(address)": {
        "notice": "Maps an address to whether it was initialized as a `VaultManager` contract"
      }
    },
    "notice": "Treasury of Angle Borrowing Module doing the accounting across all VaultManagers for a given stablecoin",
    "version": 1
  },
  "storageLayout": {
    "storage": [
      {
        "astId": 646,
        "contract": "contracts/treasury/Treasury.sol:Treasury",
        "label": "_initialized",
        "offset": 0,
        "slot": "0",
        "type": "t_bool"
      },
      {
        "astId": 649,
        "contract": "contracts/treasury/Treasury.sol:Treasury",
        "label": "_initializing",
        "offset": 1,
        "slot": "0",
        "type": "t_bool"
      },
      {
        "astId": 14448,
        "contract": "contracts/treasury/Treasury.sol:Treasury",
        "label": "core",
        "offset": 2,
        "slot": "0",
        "type": "t_contract(ICoreBorrow)8929"
      },
      {
        "astId": 14452,
        "contract": "contracts/treasury/Treasury.sol:Treasury",
        "label": "flashLoanModule",
        "offset": 0,
        "slot": "1",
        "type": "t_contract(IFlashAngle)9566"
      },
      {
        "astId": 14456,
        "contract": "contracts/treasury/Treasury.sol:Treasury",
        "label": "stablecoin",
        "offset": 0,
        "slot": "2",
        "type": "t_contract(IAgToken)8901"
      },
      {
        "astId": 14459,
        "contract": "contracts/treasury/Treasury.sol:Treasury",
        "label": "surplusManager",
        "offset": 0,
        "slot": "3",
        "type": "t_address"
      },
      {
        "astId": 14463,
        "contract": "contracts/treasury/Treasury.sol:Treasury",
        "label": "vaultManagerList",
        "offset": 0,
        "slot": "4",
        "type": "t_array(t_address)dyn_storage"
      },
      {
        "astId": 14468,
        "contract": "contracts/treasury/Treasury.sol:Treasury",
        "label": "vaultManagerMap",
        "offset": 0,
        "slot": "5",
        "type": "t_mapping(t_address,t_bool)"
      },
      {
        "astId": 14471,
        "contract": "contracts/treasury/Treasury.sol:Treasury",
        "label": "badDebt",
        "offset": 0,
        "slot": "6",
        "type": "t_uint256"
      },
      {
        "astId": 14474,
        "contract": "contracts/treasury/Treasury.sol:Treasury",
        "label": "surplusBuffer",
        "offset": 0,
        "slot": "7",
        "type": "t_uint256"
      },
      {
        "astId": 14477,
        "contract": "contracts/treasury/Treasury.sol:Treasury",
        "label": "surplusForGovernance",
        "offset": 0,
        "slot": "8",
        "type": "t_uint64"
      }
    ],
    "types": {
      "t_address": {
        "encoding": "inplace",
        "label": "address",
        "numberOfBytes": "20"
      },
      "t_array(t_address)dyn_storage": {
        "base": "t_address",
        "encoding": "dynamic_array",
        "label": "address[]",
        "numberOfBytes": "32"
      },
      "t_bool": {
        "encoding": "inplace",
        "label": "bool",
        "numberOfBytes": "1"
      },
      "t_contract(IAgToken)8901": {
        "encoding": "inplace",
        "label": "contract IAgToken",
        "numberOfBytes": "20"
      },
      "t_contract(ICoreBorrow)8929": {
        "encoding": "inplace",
        "label": "contract ICoreBorrow",
        "numberOfBytes": "20"
      },
      "t_contract(IFlashAngle)9566": {
        "encoding": "inplace",
        "label": "contract IFlashAngle",
        "numberOfBytes": "20"
      },
      "t_mapping(t_address,t_bool)": {
        "encoding": "mapping",
        "key": "t_address",
        "label": "mapping(address => bool)",
        "numberOfBytes": "32",
        "value": "t_bool"
      },
      "t_uint256": {
        "encoding": "inplace",
        "label": "uint256",
        "numberOfBytes": "32"
      },
      "t_uint64": {
        "encoding": "inplace",
        "label": "uint64",
        "numberOfBytes": "8"
      }
    }
  }
}