{
  "address": "0x9dF4B430d96748cE4EABcC4052BF15cfFE2d52ca",
  "abi": [
    {
      "inputs": [
        {
          "internalType": "uint256",
          "name": "dust_",
          "type": "uint256"
        },
        {
          "internalType": "uint256",
          "name": "dustCollateral_",
          "type": "uint256"
        }
      ],
      "stateMutability": "nonpayable",
      "type": "constructor"
    },
    {
      "anonymous": false,
      "inputs": [
        {
          "indexed": false,
          "internalType": "uint256",
          "name": "surplusEndValue",
          "type": "uint256"
        },
        {
          "indexed": false,
          "internalType": "uint256",
          "name": "badDebtEndValue",
          "type": "uint256"
        }
      ],
      "name": "AccruedToTreasury",
      "type": "event"
    },
    {
      "anonymous": false,
      "inputs": [
        {
          "indexed": true,
          "internalType": "address",
          "name": "owner",
          "type": "address"
        },
        {
          "indexed": true,
          "internalType": "address",
          "name": "approved",
          "type": "address"
        },
        {
          "indexed": true,
          "internalType": "uint256",
          "name": "tokenId",
          "type": "uint256"
        }
      ],
      "name": "Approval",
      "type": "event"
    },
    {
      "anonymous": false,
      "inputs": [
        {
          "indexed": true,
          "internalType": "address",
          "name": "owner",
          "type": "address"
        },
        {
          "indexed": true,
          "internalType": "address",
          "name": "operator",
          "type": "address"
        },
        {
          "indexed": false,
          "internalType": "bool",
          "name": "approved",
          "type": "bool"
        }
      ],
      "name": "ApprovalForAll",
      "type": "event"
    },
    {
      "anonymous": false,
      "inputs": [
        {
          "indexed": false,
          "internalType": "uint256",
          "name": "vaultID",
          "type": "uint256"
        },
        {
          "indexed": false,
          "internalType": "uint256",
          "name": "collateralAmount",
          "type": "uint256"
        },
        {
          "indexed": false,
          "internalType": "uint8",
          "name": "isIncrease",
          "type": "uint8"
        }
      ],
      "name": "CollateralAmountUpdated",
      "type": "event"
    },
    {
      "anonymous": false,
      "inputs": [
        {
          "indexed": false,
          "internalType": "uint256",
          "name": "debtCeiling",
          "type": "uint256"
        }
      ],
      "name": "DebtCeilingUpdated",
      "type": "event"
    },
    {
      "anonymous": false,
      "inputs": [
        {
          "indexed": false,
          "internalType": "uint64",
          "name": "param",
          "type": "uint64"
        },
        {
          "indexed": false,
          "internalType": "bytes32",
          "name": "what",
          "type": "bytes32"
        }
      ],
      "name": "FiledUint64",
      "type": "event"
    },
    {
      "anonymous": false,
      "inputs": [
        {
          "indexed": false,
          "internalType": "uint256",
          "name": "value",
          "type": "uint256"
        },
        {
          "indexed": false,
          "internalType": "uint256",
          "name": "timestamp",
          "type": "uint256"
        }
      ],
      "name": "InterestAccumulatorUpdated",
      "type": "event"
    },
    {
      "anonymous": false,
      "inputs": [
        {
          "indexed": false,
          "internalType": "uint256",
          "name": "vaultID",
          "type": "uint256"
        },
        {
          "indexed": false,
          "internalType": "uint256",
          "name": "internalAmount",
          "type": "uint256"
        },
        {
          "indexed": false,
          "internalType": "uint8",
          "name": "isIncrease",
          "type": "uint8"
        }
      ],
      "name": "InternalDebtUpdated",
      "type": "event"
    },
    {
      "anonymous": false,
      "inputs": [
        {
          "indexed": false,
          "internalType": "uint256[]",
          "name": "vaultIDs",
          "type": "uint256[]"
        }
      ],
      "name": "LiquidatedVaults",
      "type": "event"
    },
    {
      "anonymous": false,
      "inputs": [
        {
          "indexed": true,
          "internalType": "address",
          "name": "_veBoostProxy",
          "type": "address"
        },
        {
          "indexed": false,
          "internalType": "uint256[]",
          "name": "xBoost",
          "type": "uint256[]"
        },
        {
          "indexed": false,
          "internalType": "uint256[]",
          "name": "yBoost",
          "type": "uint256[]"
        }
      ],
      "name": "LiquidationBoostParametersUpdated",
      "type": "event"
    },
    {
      "anonymous": false,
      "inputs": [
        {
          "indexed": true,
          "internalType": "address",
          "name": "_oracle",
          "type": "address"
        }
      ],
      "name": "OracleUpdated",
      "type": "event"
    },
    {
      "anonymous": false,
      "inputs": [
        {
          "indexed": false,
          "internalType": "bool",
          "name": "",
          "type": "bool"
        }
      ],
      "name": "ToggledWhitelisting",
      "type": "event"
    },
    {
      "anonymous": false,
      "inputs": [
        {
          "indexed": true,
          "internalType": "address",
          "name": "from",
          "type": "address"
        },
        {
          "indexed": true,
          "internalType": "address",
          "name": "to",
          "type": "address"
        },
        {
          "indexed": true,
          "internalType": "uint256",
          "name": "tokenId",
          "type": "uint256"
        }
      ],
      "name": "Transfer",
      "type": "event"
    },
    {
      "inputs": [],
      "name": "BASE_INTEREST",
      "outputs": [
        {
          "internalType": "uint256",
          "name": "",
          "type": "uint256"
        }
      ],
      "stateMutability": "view",
      "type": "function"
    },
    {
      "inputs": [],
      "name": "BASE_PARAMS",
      "outputs": [
        {
          "internalType": "uint256",
          "name": "",
          "type": "uint256"
        }
      ],
      "stateMutability": "view",
      "type": "function"
    },
    {
      "inputs": [],
      "name": "HALF_BASE_INTEREST",
      "outputs": [
        {
          "internalType": "uint256",
          "name": "",
          "type": "uint256"
        }
      ],
      "stateMutability": "view",
      "type": "function"
    },
    {
      "inputs": [],
      "name": "accrueInterestToTreasury",
      "outputs": [
        {
          "internalType": "uint256",
          "name": "surplusValue",
          "type": "uint256"
        },
        {
          "internalType": "uint256",
          "name": "badDebtValue",
          "type": "uint256"
        }
      ],
      "stateMutability": "nonpayable",
      "type": "function"
    },
    {
      "inputs": [
        {
          "internalType": "enum ActionType[]",
          "name": "actions",
          "type": "uint8[]"
        },
        {
          "internalType": "bytes[]",
          "name": "datas",
          "type": "bytes[]"
        },
        {
          "internalType": "address",
          "name": "from",
          "type": "address"
        },
        {
          "internalType": "address",
          "name": "to",
          "type": "address"
        }
      ],
      "name": "angle",
      "outputs": [
        {
          "components": [
            {
              "internalType": "uint256",
              "name": "stablecoinAmountToGive",
              "type": "uint256"
            },
            {
              "internalType": "uint256",
              "name": "stablecoinAmountToReceive",
              "type": "uint256"
            },
            {
              "internalType": "uint256",
              "name": "collateralAmountToGive",
              "type": "uint256"
            },
            {
              "internalType": "uint256",
              "name": "collateralAmountToReceive",
              "type": "uint256"
            }
          ],
          "internalType": "struct PaymentData",
          "name": "",
          "type": "tuple"
        }
      ],
      "stateMutability": "payable",
      "type": "function"
    },
    {
      "inputs": [
        {
          "internalType": "enum ActionType[]",
          "name": "actions",
          "type": "uint8[]"
        },
        {
          "internalType": "bytes[]",
          "name": "datas",
          "type": "bytes[]"
        },
        {
          "internalType": "address",
          "name": "from",
          "type": "address"
        },
        {
          "internalType": "address",
          "name": "to",
          "type": "address"
        },
        {
          "internalType": "address",
          "name": "who",
          "type": "address"
        },
        {
          "internalType": "bytes",
          "name": "repayData",
          "type": "bytes"
        }
      ],
      "name": "angle",
      "outputs": [
        {
          "components": [
            {
              "internalType": "uint256",
              "name": "stablecoinAmountToGive",
              "type": "uint256"
            },
            {
              "internalType": "uint256",
              "name": "stablecoinAmountToReceive",
              "type": "uint256"
            },
            {
              "internalType": "uint256",
              "name": "collateralAmountToGive",
              "type": "uint256"
            },
            {
              "internalType": "uint256",
              "name": "collateralAmountToReceive",
              "type": "uint256"
            }
          ],
          "internalType": "struct PaymentData",
          "name": "paymentData",
          "type": "tuple"
        }
      ],
      "stateMutability": "payable",
      "type": "function"
    },
    {
      "inputs": [
        {
          "internalType": "address",
          "name": "to",
          "type": "address"
        },
        {
          "internalType": "uint256",
          "name": "vaultID",
          "type": "uint256"
        }
      ],
      "name": "approve",
      "outputs": [],
      "stateMutability": "nonpayable",
      "type": "function"
    },
    {
      "inputs": [],
      "name": "badDebt",
      "outputs": [
        {
          "internalType": "uint256",
          "name": "",
          "type": "uint256"
        }
      ],
      "stateMutability": "view",
      "type": "function"
    },
    {
      "inputs": [
        {
          "internalType": "address",
          "name": "owner",
          "type": "address"
        }
      ],
      "name": "balanceOf",
      "outputs": [
        {
          "internalType": "uint256",
          "name": "",
          "type": "uint256"
        }
      ],
      "stateMutability": "view",
      "type": "function"
    },
    {
      "inputs": [],
      "name": "borrowFee",
      "outputs": [
        {
          "internalType": "uint64",
          "name": "",
          "type": "uint64"
        }
      ],
      "stateMutability": "view",
      "type": "function"
    },
    {
      "inputs": [
        {
          "internalType": "uint256",
          "name": "vaultID",
          "type": "uint256"
        },
        {
          "internalType": "address",
          "name": "liquidator",
          "type": "address"
        }
      ],
      "name": "checkLiquidation",
      "outputs": [
        {
          "components": [
            {
              "internalType": "uint256",
              "name": "maxStablecoinAmountToRepay",
              "type": "uint256"
            },
            {
              "internalType": "uint256",
              "name": "maxCollateralAmountGiven",
              "type": "uint256"
            },
            {
              "internalType": "uint256",
              "name": "thresholdRepayAmount",
              "type": "uint256"
            },
            {
              "internalType": "uint256",
              "name": "discount",
              "type": "uint256"
            },
            {
              "internalType": "uint256",
              "name": "currentDebt",
              "type": "uint256"
            }
          ],
          "internalType": "struct LiquidationOpportunity",
          "name": "liqOpp",
          "type": "tuple"
        }
      ],
      "stateMutability": "view",
      "type": "function"
    },
    {
      "inputs": [],
      "name": "collateral",
      "outputs": [
        {
          "internalType": "contract IERC20",
          "name": "",
          "type": "address"
        }
      ],
      "stateMutability": "view",
      "type": "function"
    },
    {
      "inputs": [],
      "name": "collateralFactor",
      "outputs": [
        {
          "internalType": "uint64",
          "name": "",
          "type": "uint64"
        }
      ],
      "stateMutability": "view",
      "type": "function"
    },
    {
      "inputs": [
        {
          "internalType": "address",
          "name": "toVault",
          "type": "address"
        }
      ],
      "name": "createVault",
      "outputs": [
        {
          "internalType": "uint256",
          "name": "",
          "type": "uint256"
        }
      ],
      "stateMutability": "nonpayable",
      "type": "function"
    },
    {
      "inputs": [],
      "name": "debtCeiling",
      "outputs": [
        {
          "internalType": "uint256",
          "name": "",
          "type": "uint256"
        }
      ],
      "stateMutability": "view",
      "type": "function"
    },
    {
      "inputs": [],
      "name": "dust",
      "outputs": [
        {
          "internalType": "uint256",
          "name": "",
          "type": "uint256"
        }
      ],
      "stateMutability": "view",
      "type": "function"
    },
    {
      "inputs": [
        {
          "internalType": "uint256",
          "name": "vaultID",
          "type": "uint256"
        }
      ],
      "name": "getApproved",
      "outputs": [
        {
          "internalType": "address",
          "name": "",
          "type": "address"
        }
      ],
      "stateMutability": "view",
      "type": "function"
    },
    {
      "inputs": [
        {
          "internalType": "address",
          "name": "spender",
          "type": "address"
        }
      ],
      "name": "getControlledVaults",
      "outputs": [
        {
          "internalType": "uint256[]",
          "name": "",
          "type": "uint256[]"
        },
        {
          "internalType": "uint256",
          "name": "",
          "type": "uint256"
        }
      ],
      "stateMutability": "view",
      "type": "function"
    },
    {
      "inputs": [
        {
          "internalType": "uint256",
          "name": "vaultID",
          "type": "uint256"
        },
        {
          "internalType": "uint256",
          "name": "stablecoinAmount",
          "type": "uint256"
        },
        {
          "internalType": "uint256",
          "name": "senderBorrowFee",
          "type": "uint256"
        }
      ],
      "name": "getDebtOut",
      "outputs": [],
      "stateMutability": "nonpayable",
      "type": "function"
    },
    {
      "inputs": [],
      "name": "getTotalDebt",
      "outputs": [
        {
          "internalType": "uint256",
          "name": "",
          "type": "uint256"
        }
      ],
      "stateMutability": "view",
      "type": "function"
    },
    {
      "inputs": [
        {
          "internalType": "uint256",
          "name": "vaultID",
          "type": "uint256"
        }
      ],
      "name": "getVaultDebt",
      "outputs": [
        {
          "internalType": "uint256",
          "name": "",
          "type": "uint256"
        }
      ],
      "stateMutability": "view",
      "type": "function"
    },
    {
      "inputs": [
        {
          "internalType": "contract ITreasury",
          "name": "_treasury",
          "type": "address"
        },
        {
          "internalType": "contract IERC20",
          "name": "_collateral",
          "type": "address"
        },
        {
          "internalType": "contract IOracle",
          "name": "_oracle",
          "type": "address"
        },
        {
          "components": [
            {
              "internalType": "uint256",
              "name": "debtCeiling",
              "type": "uint256"
            },
            {
              "internalType": "uint64",
              "name": "collateralFactor",
              "type": "uint64"
            },
            {
              "internalType": "uint64",
              "name": "targetHealthFactor",
              "type": "uint64"
            },
            {
              "internalType": "uint64",
              "name": "borrowFee",
              "type": "uint64"
            },
            {
              "internalType": "uint64",
              "name": "interestRate",
              "type": "uint64"
            },
            {
              "internalType": "uint64",
              "name": "liquidationSurcharge",
              "type": "uint64"
            },
            {
              "internalType": "uint64",
              "name": "maxLiquidationDiscount",
              "type": "uint64"
            },
            {
              "internalType": "bool",
              "name": "whitelistingActivated",
              "type": "bool"
            },
            {
              "internalType": "uint256",
              "name": "baseBoost",
              "type": "uint256"
            }
          ],
          "internalType": "struct VaultParameters",
          "name": "params",
          "type": "tuple"
        },
        {
          "internalType": "string",
          "name": "_symbol",
          "type": "string"
        }
      ],
      "name": "initialize",
      "outputs": [],
      "stateMutability": "nonpayable",
      "type": "function"
    },
    {
      "inputs": [],
      "name": "interestAccumulator",
      "outputs": [
        {
          "internalType": "uint256",
          "name": "",
          "type": "uint256"
        }
      ],
      "stateMutability": "view",
      "type": "function"
    },
    {
      "inputs": [],
      "name": "interestRate",
      "outputs": [
        {
          "internalType": "uint64",
          "name": "",
          "type": "uint64"
        }
      ],
      "stateMutability": "view",
      "type": "function"
    },
    {
      "inputs": [
        {
          "internalType": "address",
          "name": "owner",
          "type": "address"
        },
        {
          "internalType": "address",
          "name": "operator",
          "type": "address"
        }
      ],
      "name": "isApprovedForAll",
      "outputs": [
        {
          "internalType": "bool",
          "name": "",
          "type": "bool"
        }
      ],
      "stateMutability": "view",
      "type": "function"
    },
    {
      "inputs": [
        {
          "internalType": "address",
          "name": "spender",
          "type": "address"
        },
        {
          "internalType": "uint256",
          "name": "vaultID",
          "type": "uint256"
        }
      ],
      "name": "isApprovedOrOwner",
      "outputs": [
        {
          "internalType": "bool",
          "name": "",
          "type": "bool"
        }
      ],
      "stateMutability": "view",
      "type": "function"
    },
    {
      "inputs": [
        {
          "internalType": "address",
          "name": "",
          "type": "address"
        }
      ],
      "name": "isWhitelisted",
      "outputs": [
        {
          "internalType": "bool",
          "name": "",
          "type": "bool"
        }
      ],
      "stateMutability": "view",
      "type": "function"
    },
    {
      "inputs": [],
      "name": "lastInterestAccumulatorUpdated",
      "outputs": [
        {
          "internalType": "uint256",
          "name": "",
          "type": "uint256"
        }
      ],
      "stateMutability": "view",
      "type": "function"
    },
    {
      "inputs": [
        {
          "internalType": "uint256[]",
          "name": "vaultIDs",
          "type": "uint256[]"
        },
        {
          "internalType": "uint256[]",
          "name": "amounts",
          "type": "uint256[]"
        },
        {
          "internalType": "address",
          "name": "from",
          "type": "address"
        },
        {
          "internalType": "address",
          "name": "to",
          "type": "address"
        },
        {
          "internalType": "address",
          "name": "who",
          "type": "address"
        },
        {
          "internalType": "bytes",
          "name": "data",
          "type": "bytes"
        }
      ],
      "name": "liquidate",
      "outputs": [
        {
          "components": [
            {
              "internalType": "uint256",
              "name": "stablecoinAmountToReceive",
              "type": "uint256"
            },
            {
              "internalType": "uint256",
              "name": "collateralAmountToGive",
              "type": "uint256"
            },
            {
              "internalType": "uint256",
              "name": "badDebtFromLiquidation",
              "type": "uint256"
            },
            {
              "internalType": "uint256",
              "name": "oracleValue",
              "type": "uint256"
            },
            {
              "internalType": "uint256",
              "name": "newInterestAccumulator",
              "type": "uint256"
            }
          ],
          "internalType": "struct LiquidatorData",
          "name": "liqData",
          "type": "tuple"
        }
      ],
      "stateMutability": "nonpayable",
      "type": "function"
    },
    {
      "inputs": [
        {
          "internalType": "uint256[]",
          "name": "vaultIDs",
          "type": "uint256[]"
        },
        {
          "internalType": "uint256[]",
          "name": "amounts",
          "type": "uint256[]"
        },
        {
          "internalType": "address",
          "name": "from",
          "type": "address"
        },
        {
          "internalType": "address",
          "name": "to",
          "type": "address"
        }
      ],
      "name": "liquidate",
      "outputs": [
        {
          "components": [
            {
              "internalType": "uint256",
              "name": "stablecoinAmountToReceive",
              "type": "uint256"
            },
            {
              "internalType": "uint256",
              "name": "collateralAmountToGive",
              "type": "uint256"
            },
            {
              "internalType": "uint256",
              "name": "badDebtFromLiquidation",
              "type": "uint256"
            },
            {
              "internalType": "uint256",
              "name": "oracleValue",
              "type": "uint256"
            },
            {
              "internalType": "uint256",
              "name": "newInterestAccumulator",
              "type": "uint256"
            }
          ],
          "internalType": "struct LiquidatorData",
          "name": "",
          "type": "tuple"
        }
      ],
      "stateMutability": "nonpayable",
      "type": "function"
    },
    {
      "inputs": [],
      "name": "liquidationSurcharge",
      "outputs": [
        {
          "internalType": "uint64",
          "name": "",
          "type": "uint64"
        }
      ],
      "stateMutability": "view",
      "type": "function"
    },
    {
      "inputs": [],
      "name": "maxLiquidationDiscount",
      "outputs": [
        {
          "internalType": "uint64",
          "name": "",
          "type": "uint64"
        }
      ],
      "stateMutability": "view",
      "type": "function"
    },
    {
      "inputs": [],
      "name": "name",
      "outputs": [
        {
          "internalType": "string",
          "name": "",
          "type": "string"
        }
      ],
      "stateMutability": "view",
      "type": "function"
    },
    {
      "inputs": [],
      "name": "oracle",
      "outputs": [
        {
          "internalType": "contract IOracle",
          "name": "",
          "type": "address"
        }
      ],
      "stateMutability": "view",
      "type": "function"
    },
    {
      "inputs": [
        {
          "internalType": "uint256",
          "name": "vaultID",
          "type": "uint256"
        }
      ],
      "name": "ownerOf",
      "outputs": [
        {
          "internalType": "address",
          "name": "",
          "type": "address"
        }
      ],
      "stateMutability": "view",
      "type": "function"
    },
    {
      "inputs": [],
      "name": "paused",
      "outputs": [
        {
          "internalType": "bool",
          "name": "",
          "type": "bool"
        }
      ],
      "stateMutability": "view",
      "type": "function"
    },
    {
      "inputs": [
        {
          "internalType": "address",
          "name": "from",
          "type": "address"
        },
        {
          "internalType": "address",
          "name": "to",
          "type": "address"
        },
        {
          "internalType": "uint256",
          "name": "vaultID",
          "type": "uint256"
        }
      ],
      "name": "safeTransferFrom",
      "outputs": [],
      "stateMutability": "nonpayable",
      "type": "function"
    },
    {
      "inputs": [
        {
          "internalType": "address",
          "name": "from",
          "type": "address"
        },
        {
          "internalType": "address",
          "name": "to",
          "type": "address"
        },
        {
          "internalType": "uint256",
          "name": "vaultID",
          "type": "uint256"
        },
        {
          "internalType": "bytes",
          "name": "_data",
          "type": "bytes"
        }
      ],
      "name": "safeTransferFrom",
      "outputs": [],
      "stateMutability": "nonpayable",
      "type": "function"
    },
    {
      "inputs": [
        {
          "internalType": "address",
          "name": "operator",
          "type": "address"
        },
        {
          "internalType": "bool",
          "name": "approved",
          "type": "bool"
        }
      ],
      "name": "setApprovalForAll",
      "outputs": [],
      "stateMutability": "nonpayable",
      "type": "function"
    },
    {
      "inputs": [
        {
          "internalType": "string",
          "name": "baseURI_",
          "type": "string"
        }
      ],
      "name": "setBaseURI",
      "outputs": [],
      "stateMutability": "nonpayable",
      "type": "function"
    },
    {
      "inputs": [
        {
          "internalType": "uint256",
          "name": "_debtCeiling",
          "type": "uint256"
        }
      ],
      "name": "setDebtCeiling",
      "outputs": [],
      "stateMutability": "nonpayable",
      "type": "function"
    },
    {
      "inputs": [
        {
          "internalType": "address",
          "name": "_veBoostProxy",
          "type": "address"
        },
        {
          "internalType": "uint256[]",
          "name": "xBoost",
          "type": "uint256[]"
        },
        {
          "internalType": "uint256[]",
          "name": "yBoost",
          "type": "uint256[]"
        }
      ],
      "name": "setLiquidationBoostParameters",
      "outputs": [],
      "stateMutability": "nonpayable",
      "type": "function"
    },
    {
      "inputs": [
        {
          "internalType": "address",
          "name": "_oracle",
          "type": "address"
        }
      ],
      "name": "setOracle",
      "outputs": [],
      "stateMutability": "nonpayable",
      "type": "function"
    },
    {
      "inputs": [
        {
          "internalType": "address",
          "name": "_treasury",
          "type": "address"
        }
      ],
      "name": "setTreasury",
      "outputs": [],
      "stateMutability": "nonpayable",
      "type": "function"
    },
    {
      "inputs": [
        {
          "internalType": "uint64",
          "name": "param",
          "type": "uint64"
        },
        {
          "internalType": "bytes32",
          "name": "what",
          "type": "bytes32"
        }
      ],
      "name": "setUint64",
      "outputs": [],
      "stateMutability": "nonpayable",
      "type": "function"
    },
    {
      "inputs": [],
      "name": "stablecoin",
      "outputs": [
        {
          "internalType": "contract IAgToken",
          "name": "",
          "type": "address"
        }
      ],
      "stateMutability": "view",
      "type": "function"
    },
    {
      "inputs": [
        {
          "internalType": "bytes4",
          "name": "interfaceId",
          "type": "bytes4"
        }
      ],
      "name": "supportsInterface",
      "outputs": [
        {
          "internalType": "bool",
          "name": "",
          "type": "bool"
        }
      ],
      "stateMutability": "pure",
      "type": "function"
    },
    {
      "inputs": [],
      "name": "surplus",
      "outputs": [
        {
          "internalType": "uint256",
          "name": "",
          "type": "uint256"
        }
      ],
      "stateMutability": "view",
      "type": "function"
    },
    {
      "inputs": [],
      "name": "symbol",
      "outputs": [
        {
          "internalType": "string",
          "name": "",
          "type": "string"
        }
      ],
      "stateMutability": "view",
      "type": "function"
    },
    {
      "inputs": [],
      "name": "targetHealthFactor",
      "outputs": [
        {
          "internalType": "uint64",
          "name": "",
          "type": "uint64"
        }
      ],
      "stateMutability": "view",
      "type": "function"
    },
    {
      "inputs": [],
      "name": "togglePause",
      "outputs": [],
      "stateMutability": "nonpayable",
      "type": "function"
    },
    {
      "inputs": [
        {
          "internalType": "address",
          "name": "target",
          "type": "address"
        }
      ],
      "name": "toggleWhitelist",
      "outputs": [],
      "stateMutability": "nonpayable",
      "type": "function"
    },
    {
      "inputs": [],
      "name": "toggleWhitelisting",
      "outputs": [],
      "stateMutability": "nonpayable",
      "type": "function"
    },
    {
      "inputs": [
        {
          "internalType": "uint256",
          "name": "vaultID",
          "type": "uint256"
        }
      ],
      "name": "tokenURI",
      "outputs": [
        {
          "internalType": "string",
          "name": "",
          "type": "string"
        }
      ],
      "stateMutability": "view",
      "type": "function"
    },
    {
      "inputs": [],
      "name": "totalNormalizedDebt",
      "outputs": [
        {
          "internalType": "uint256",
          "name": "",
          "type": "uint256"
        }
      ],
      "stateMutability": "view",
      "type": "function"
    },
    {
      "inputs": [
        {
          "internalType": "address",
          "name": "from",
          "type": "address"
        },
        {
          "internalType": "address",
          "name": "to",
          "type": "address"
        },
        {
          "internalType": "uint256",
          "name": "vaultID",
          "type": "uint256"
        }
      ],
      "name": "transferFrom",
      "outputs": [],
      "stateMutability": "nonpayable",
      "type": "function"
    },
    {
      "inputs": [],
      "name": "treasury",
      "outputs": [
        {
          "internalType": "contract ITreasury",
          "name": "",
          "type": "address"
        }
      ],
      "stateMutability": "view",
      "type": "function"
    },
    {
      "inputs": [
        {
          "internalType": "uint256",
          "name": "",
          "type": "uint256"
        }
      ],
      "name": "vaultData",
      "outputs": [
        {
          "internalType": "uint256",
          "name": "collateralAmount",
          "type": "uint256"
        },
        {
          "internalType": "uint256",
          "name": "normalizedDebt",
          "type": "uint256"
        }
      ],
      "stateMutability": "view",
      "type": "function"
    },
    {
      "inputs": [],
      "name": "vaultIDCount",
      "outputs": [
        {
          "internalType": "uint256",
          "name": "",
          "type": "uint256"
        }
      ],
      "stateMutability": "view",
      "type": "function"
    },
    {
      "inputs": [],
      "name": "veBoostProxy",
      "outputs": [
        {
          "internalType": "contract IVeBoostProxy",
          "name": "",
          "type": "address"
        }
      ],
      "stateMutability": "view",
      "type": "function"
    },
    {
      "inputs": [],
      "name": "whitelistingActivated",
      "outputs": [
        {
          "internalType": "bool",
          "name": "",
          "type": "bool"
        }
      ],
      "stateMutability": "view",
      "type": "function"
    },
    {
      "inputs": [
        {
          "internalType": "uint256",
          "name": "",
          "type": "uint256"
        }
      ],
      "name": "xLiquidationBoost",
      "outputs": [
        {
          "internalType": "uint256",
          "name": "",
          "type": "uint256"
        }
      ],
      "stateMutability": "view",
      "type": "function"
    },
    {
      "inputs": [
        {
          "internalType": "uint256",
          "name": "",
          "type": "uint256"
        }
      ],
      "name": "yLiquidationBoost",
      "outputs": [
        {
          "internalType": "uint256",
          "name": "",
          "type": "uint256"
        }
      ],
      "stateMutability": "view",
      "type": "function"
    }
  ],
  "transactionHash": "0x8cf1126581cb127643eb862b8f228672e679f7ed26af89a910372d8b65908849",
  "args": [
    "10000000000000000000000",
    "10000000000000000000000"
  ],
  "solcInputHash": "c04916bddcf9dd372a27b13287819e5e",
  "bytecode": "0x60c06040523480156200001157600080fd5b5060405162005f5e38038062005f5e833981016040819052620000349162000136565b60005482908290610100900460ff16620000555760005460ff16156200005f565b6200005f62000112565b620000c75760405162461bcd60e51b815260206004820152602e60248201527f496e697469616c697a61626c653a20636f6e747261637420697320616c72656160448201526d191e481a5b9a5d1a585b1a5e995960921b606482015260840160405180910390fd5b600054610100900460ff16158015620000ea576000805461ffff19166101011790555b608083905260a0829052801562000107576000805461ff00191690555b50505050506200015b565b60006200012a306200013060201b620033e01760201c565b15905090565b3b151590565b600080604083850312156200014a57600080fd5b505080516020909101519092909150565b60805160a051615dba620001a460003960008181613b2f0152613b60015260008181610aa901528181613a0d01528181613aab01528181613d3001526148450152615dba6000f3fe6080604052600436106102c85760003560e01c8063010db195146102cd57806301ffc9a71461030357806306fdde0314610333578063081812fc14610355578063087a600714610375578063095ea7b3146103995780630e198f22146103bb57806313888565146103d157806323b872dd146103e7578063254cf43914610407578063307439af1461044657806334ce998a1461047357806335836f151461048857806339393ac9146104a857806339eb4dc6146104c85780633ae2325f146104e95780633af32abf146105095780633c2e941b1461053957806342842e0e1461054f578063430c20811461056f5780634f7e43df1461058f57806355f804b3146105b65780635c975abb146105d657806361d027b3146105f75780636352211e1461061757806370a082311461063757806374107543146106575780637aacfffa146106775780637adbf973146106c05780637c3a00fd146106e05780637dc0d1d0146107075780637e53bd97146107275780637e56d47c1461074757806383ba59fc1461076757806389050f1d1461079557806395d89b41146107b45780639a3b6f2f146107c95780639f48118f1461080f578063a22cb46514610827578063af2c8c2e14610847578063b1511cc91461085d578063b4bd6f461461087d578063b88d4fde1461089d578063bbcac557146108bd578063c4ae3168146108d3578063c66d8b01146108e8578063c87b56dd14610908578063d645c39314610928578063d6bcab2a14610948578063d8dfeb4514610968578063de1f776514610988578063de8fc698146109a7578063df011c41146109ba578063e182b883146109da578063e1c84ea4146109fa578063e626648a14610a10578063e985e9c514610a37578063e9cbd82214610a57578063f0f4426014610a77578063fad9aba314610a97578063fbefa41314610acb578063fc29b02114610ae0578063fd527cf814610b00575b600080fd5b3480156102d957600080fd5b506037546102ed906001600160a01b031681565b6040516102fa9190614ccf565b60405180910390f35b34801561030f57600080fd5b5061032361031e366004614cfc565b610b15565b60405190151581526020016102fa565b34801561033f57600080fd5b50610348610b7a565b6040516102fa9190614d71565b34801561036157600080fd5b506102ed610370366004614d84565b610c08565b34801561038157600080fd5b5061038b603f5481565b6040519081526020016102fa565b3480156103a557600080fd5b506103b96103b4366004614db2565b610c41565b005b3480156103c757600080fd5b5061038b603e5481565b3480156103dd57600080fd5b5061038b60415481565b3480156103f357600080fd5b506103b9610402366004614dde565b610cdc565b34801561041357600080fd5b50603c5461042e90600160401b90046001600160401b031681565b6040516001600160401b0390911681526020016102fa565b34801561045257600080fd5b50610466610461366004614e1f565b610d16565b6040516102fa9190614e4f565b34801561047f57600080fd5b5061038b610dc8565b34801561049457600080fd5b5061038b6104a3366004614d84565b610dfa565b3480156104b457600080fd5b506103b96104c3366004614e88565b610e36565b3480156104d457600080fd5b50603d5461032390600160801b900460ff1681565b3480156104f557600080fd5b5061038b610504366004614d84565b610eec565b34801561051557600080fd5b50610323610524366004614e88565b60446020526000908152604090205460ff1681565b34801561054557600080fd5b5061038b60455481565b34801561055b57600080fd5b506103b961056a366004614dde565b610f0d565b34801561057b57600080fd5b5061032361058a366004614db2565b610f28565b34801561059b57600080fd5b50603d5461042e90600160401b90046001600160401b031681565b3480156105c257600080fd5b506103b96105d1366004614f5a565b610f34565b3480156105e257600080fd5b50603d5461032390600160881b900460ff1681565b34801561060357600080fd5b506033546102ed906001600160a01b031681565b34801561062357600080fd5b506102ed610632366004614d84565b610fd8565b34801561064357600080fd5b5061038b610652366004614e88565b610fe3565b34801561066357600080fd5b506103b9610672366004614fa5565b61103b565b34801561068357600080fd5b506106ab610692366004614d84565b6043602052600090815260409020805460019091015482565b604080519283526020830191909152016102fa565b3480156106cc57600080fd5b506103b96106db366004614e88565b6113ee565b3480156106ec57600080fd5b50603c5461042e90600160c01b90046001600160401b031681565b34801561071357600080fd5b506036546102ed906001600160a01b031681565b34801561073357600080fd5b506103b961074236600461504f565b61155b565b34801561075357600080fd5b506104666107623660046150c4565b611749565b34801561077357600080fd5b50610787610782366004614e88565b611c99565b6040516102fa9291906151c3565b3480156107a157600080fd5b5061038b676765c793fa10079d601a1b81565b3480156107c057600080fd5b50610348611db9565b6107dc6107d73660046152cd565b611dc6565b6040516102fa91908151815260208083015190820152604080830151908201526060918201519181019190915260800190565b34801561081b57600080fd5b5061038b633b9aca0081565b34801561083357600080fd5b506103b9610842366004615363565b611dfb565b34801561085357600080fd5b5061038b60405481565b34801561086957600080fd5b506103b9610878366004614d84565b611ea5565b34801561088957600080fd5b5061038b610898366004614e88565b611f6e565b3480156108a957600080fd5b506103b96108b8366004615391565b611fa9565b3480156108c957600080fd5b5061038b60425481565b3480156108df57600080fd5b506103b9611fe5565b3480156108f457600080fd5b50603d5461042e906001600160401b031681565b34801561091457600080fd5b50610348610923366004614d84565b612093565b34801561093457600080fd5b506103b96109433660046153fc565b6121eb565b34801561095457600080fd5b506103b9610963366004615428565b612345565b34801561097457600080fd5b506034546102ed906001600160a01b031681565b34801561099457600080fd5b5061038b676765c793fa10079d601b1b81565b6107dc6109b53660046154bc565b6128f1565b3480156109c657600080fd5b50603c5461042e906001600160401b031681565b3480156109e657600080fd5b5061038b6109f5366004614d84565b6130de565b348015610a0657600080fd5b5061038b60395481565b348015610a1c57600080fd5b50603c5461042e90600160801b90046001600160401b031681565b348015610a4357600080fd5b50610323610a5236600461551a565b6130ee565b348015610a6357600080fd5b506035546102ed906001600160a01b031681565b348015610a8357600080fd5b506103b9610a92366004614e88565b61311c565b348015610aa357600080fd5b5061038b7f000000000000000000000000000000000000000000000000000000000000000081565b348015610ad757600080fd5b506103b96131bb565b348015610aec57600080fd5b50610466610afb366004615548565b613298565b348015610b0c57600080fd5b506106ab6132c2565b60006001600160e01b03198216635b5e139f60e01b1480610b4657506001600160e01b031982166380ac58cd60e01b145b80610b5957506001600160e01b03198216155b80610b7457506001600160e01b031982166301ffc9a760e01b145b92915050565b607d8054610b87906155a4565b80601f0160208091040260200160405190810160405280929190818152602001828054610bb3906155a4565b8015610c005780601f10610bd557610100808354040283529160200191610c00565b820191906000526020600020905b815481529060010190602001808311610be357829003601f168201915b505050505081565b6000610c13826133e6565b610c385760405162461bcd60e51b8152600401610c2f906155d9565b60405180910390fd5b610b7482613403565b6000610c4c8261341e565b9050806001600160a01b0316836001600160a01b03161415610c955760405162461bcd60e51b8152602060048201526002602482015261323760f01b6044820152606401610c2f565b336001600160a01b0382161480610cb15750610cb181336130ee565b610ccd5760405162461bcd60e51b8152600401610c2f906155f5565b610cd78383613453565b505050565b3381610ce882826134c1565b610d045760405162461bcd60e51b8152600401610c2f906155f5565b610d0f85858561353f565b5050505050565b610d1e614ba5565b60008381526043602090815260409182902082518084018452815481526001909101548183015260365483516315f789a960e21b81529351610dc194929387936001600160a01b03909316926357de26a492600480830193928290030181865afa158015610d90573d6000803e3d6000fd5b505050506040513d601f19601f82011682018060405250810190610db49190615611565b610dbc61368b565b613827565b9392505050565b6000676765c793fa10079d601b1b610dde61368b565b604054610deb9190615640565b610df59190615675565b905090565b6000676765c793fa10079d601b1b610e1061368b565b600084815260436020526040902060010154610e2c9190615640565b610b749190615675565b603354604051631c86b03760e31b81526001600160a01b039091169063e43581b890610e66903390600401614ccf565b602060405180830381865afa158015610e83573d6000803e3d6000fd5b505050506040513d601f19601f82011682018060405250810190610ea79190615689565b610ec35760405162461bcd60e51b8152600401610c2f906156a6565b6001600160a01b03166000908152604460205260409020805460ff19811660ff90911615179055565b603b8181548110610efc57600080fd5b600091825260209091200154905081565b610cd783838360405180602001604052806000815250611fa9565b6000610dc183836134c1565b60335460405163521d4de960e01b81526001600160a01b039091169063521d4de990610f64903390600401614ccf565b602060405180830381865afa158015610f81573d6000803e3d6000fd5b505050506040513d601f19601f82011682018060405250810190610fa59190615689565b610fc15760405162461bcd60e51b8152600401610c2f906156c1565b8051610fd4906046906020840190614bd4565b5050565b6000610b748261341e565b60006001600160a01b03821661101f5760405162461bcd60e51b81526020600482015260016024820152600360fc1b6044820152606401610c2f565b506001600160a01b031660009081526048602052604090205490565b60335460405163521d4de960e01b81526001600160a01b039091169063521d4de99061106b903390600401614ccf565b602060405180830381865afa158015611088573d6000803e3d6000fd5b505050506040513d601f19601f820116820180604052508101906110ac9190615689565b6110c85760405162461bcd60e51b8152600401610c2f906156c1565b806f31b7b63630ba32b930b62330b1ba37b960811b141561113257603d546001600160401b0390811690831611156111125760405162461bcd60e51b8152600401610c2f906156dc565b603c80546001600160401b0319166001600160401b0384161790556113a7565b80713a30b933b2ba2432b0b63a342330b1ba37b960711b14156111ba57633b9aca00826001600160401b031610156111915760405162461bcd60e51b8152602060048201526002602482015261313760f01b6044820152606401610c2f565b603c8054600160401b600160801b031916600160401b6001600160401b038516021790556113a7565b8068626f72726f7746656560b81b141561122457633b9aca00826001600160401b031611156111fb5760405162461bcd60e51b8152600401610c2f906156dc565b603c8054600160801b600160c01b031916600160801b6001600160401b038516021790556113a7565b806b696e7465726573745261746560a01b141561126957611243613bda565b50603c80546001600160c01b0316600160c01b6001600160401b038516021790556113a7565b80736c69717569646174696f6e53757263686172676560601b141561130457603c546001600160401b038084169116118015906112b35750633b9aca00826001600160401b031611155b6112e45760405162461bcd60e51b8152602060048201526002602482015261062760f31b6044820152606401610c2f565b603d80546001600160401b0319166001600160401b0384161790556113a7565b80751b585e131a5c5d5a59185d1a5bdb911a5cd8dbdd5b9d60521b141561137a57633b9aca00826001600160401b0316106113515760405162461bcd60e51b8152600401610c2f906156dc565b603d8054600160401b600160801b031916600160401b6001600160401b038516021790556113a7565b60405162461bcd60e51b8152602060048201526002602482015261343360f01b6044820152606401610c2f565b604080516001600160401b0384168152602081018390527f13b367dac93b85d1ed9b3d8961d8b48e1a677c9800bb1613b4b0416b2d5b61d091015b60405180910390a15050565b603354604051631c86b03760e31b81526001600160a01b039091169063e43581b89061141e903390600401614ccf565b602060405180830381865afa15801561143b573d6000803e3d6000fd5b505050506040513d601f19601f8201168201806040525081019061145f9190615689565b61147b5760405162461bcd60e51b8152600401610c2f906156a6565b603354604080516361d027b360e01b815290516001600160a01b03928316928416916361d027b39160048083019260209291908290030181865afa1580156114c7573d6000803e3d6000fd5b505050506040513d601f19601f820116820180604052508101906114eb91906156f7565b6001600160a01b0316146115115760405162461bcd60e51b8152600401610c2f90615714565b603680546001600160a01b0319166001600160a01b0383169081179091556040517f3df77beb5db05fcdd70a30fc8adf3f83f9501b68579455adbd100b818094039490600090a250565b60335460405163521d4de960e01b81526001600160a01b039091169063521d4de99061158b903390600401614ccf565b602060405180830381865afa1580156115a8573d6000803e3d6000fd5b505050506040513d601f19601f820116820180604052508101906115cc9190615689565b6115e85760405162461bcd60e51b8152600401610c2f906156c1565b80518251148015611613575060008160008151811061160957611609615730565b6020026020010151115b80156116a257506001600160a01b03831615806116a257508160008151811061163e5761163e615730565b60200260200101518260018151811061165957611659615730565b60200260200101511180156116a257508060008151811061167c5761167c615730565b60200260200101518160018151811061169757611697615730565b602002602001015110155b6116be5760405162461bcd60e51b8152600401610c2f90615746565b603780546001600160a01b0319166001600160a01b03851617905581516116ec90603a906020850190614c58565b50805161170090603b906020840190614c58565b50826001600160a01b03167feb74d4d9fea592587c926aeb35eb6a7893fb28db0c1c8eb2eb3c586e7164b76c838360405161173c929190615762565b60405180910390a2505050565b611751614ba5565b603d54600160881b900460ff161561177b5760405162461bcd60e51b8152600401610c2f90615787565b6002600154141561179e5760405162461bcd60e51b8152600401610c2f906157a3565b600260015585518751146117d95760405162461bcd60e51b8152602060048201526002602482015261323560f01b6044820152606401610c2f565b603660009054906101000a90046001600160a01b03166001600160a01b03166357de26a46040518163ffffffff1660e01b8152600401602060405180830381865afa15801561182c573d6000803e3d6000fd5b505050506040513d601f19601f820116820180604052508101906118509190615611565b606082015261185d613bda565b60808201526040517f965a177723c641ee49150b583a0b9ad4730bb20d3474e00ae5a65e777c00d67b906118929089906157da565b60405180910390a160005b8751811015611c11576000604360008a84815181106118be576118be615730565b60200260200101518152602001908152602001600020604051806040016040529081600082015481526020016001820154815250509050600061190b823386606001518760800151613827565b90506000816040015111801561193d5750806040015189848151811061193357611933615730565b6020026020010151115b806119645750806000015189848151811061195a5761195a615730565b6020026020010151115b1561198d57806000015189848151811061198057611980615730565b6020026020010181815250505b6000846060015182606001516119a39190615640565b603854633b9aca008c87815181106119bd576119bd615730565b60200260200101516119cf9190615640565b6119d99190615640565b6119e39190615675565b905080836000015111611aff57508151602083015160408054600090611a0a9084906157ed565b92505081905550604360008c8681518110611a2757611a27615730565b6020908102919091018101518252810191909152604001600090812081815560010155603d548a51633b9aca00916001600160401b0316908c9087908110611a7157611a71615730565b6020026020010151611a839190615640565b611a8d9190615675565b8260800151611a9c91906157ed565b85604001818151611aad9190615804565b9052508a51600080516020615d25833981519152908c9086908110611ad457611ad4615730565b602002602001015184602001516000604051611af29392919061581c565b60405180910390a1611bb4565b80604360008d8781518110611b1657611b16615730565b602002602001015181526020019081526020016000206000016000828254611b3e91906157ed565b92505081905550611bb28b8581518110611b5a57611b5a615730565b6020908102919091010151603d548c51633b9aca00916001600160401b0316908e9089908110611b8c57611b8c615730565b6020026020010151611b9e9190615640565b611ba89190615675565b8760800151613c7b565b505b8085602001818151611bc69190615804565b90525089518a9085908110611bdd57611bdd615730565b602002602001015185600001818151611bf69190615804565b905250839250611c099150829050615835565b91505061189d565b50603d54633b9aca0090611c2e906001600160401b0316826157ed565b8251611c3a9190615640565b611c449190615675565b60416000828254611c559190615804565b9091555050604081015160428054600090611c71908490615804565b909155505060208101518151611c8b919087878787613dc1565b600180559695505050505050565b60455460609060009081816001600160401b03811115611cbb57611cbb614ea5565b604051908082528060200260200182016040528015611ce4578160200160208202803683370190505b50905060008060015b848111611dab576000818152604760205260409020546001600160a01b0390811693508816831480611d385750876001600160a01b0316611d2d82613403565b6001600160a01b0316145b80611d6857506001600160a01b038084166000908152604a60209081526040808320938c168352929052205460ff165b15611d995780848381518110611d8057611d80615730565b6020908102919091010152611d96600183615804565b91505b80611da381615835565b915050611ced565b509196919550909350505050565b607e8054610b87906155a4565b611dce614c92565b60408051600080825260208201909252611df0918791879187918791906128f1565b90505b949350505050565b6001600160a01b038216331415611e395760405162461bcd60e51b8152602060048201526002602482015261064760f31b6044820152606401610c2f565b336000818152604a602090815260408083206001600160a01b03871680855290835292819020805460ff191686151590811790915590519081529192917f17307eab39ab6107e8899845ad3d59bd9653f200f220920489ca2b5937696c31910160405180910390a35050565b60335460405163521d4de960e01b81526001600160a01b039091169063521d4de990611ed5903390600401614ccf565b602060405180830381865afa158015611ef2573d6000803e3d6000fd5b505050506040513d601f19601f82011682018060405250810190611f169190615689565b611f325760405162461bcd60e51b8152600401610c2f906156c1565b60398190556040518181527fdd63b3dcdbebad734892f7c7a26d0f647fbc7eec973e0775f5229018ac4ab47a906020015b60405180910390a150565b603d54600090600160881b900460ff1615611f9b5760405162461bcd60e51b8152600401610c2f90615787565b610b7482613ecb565b919050565b3382611fb582826134c1565b611fd15760405162461bcd60e51b8152600401610c2f906155f5565b611fdd86868686613fd1565b505050505050565b60335460405163521d4de960e01b81526001600160a01b039091169063521d4de990612015903390600401614ccf565b602060405180830381865afa158015612032573d6000803e3d6000fd5b505050506040513d601f19601f820116820180604052508101906120569190615689565b6120725760405162461bcd60e51b8152600401610c2f906156c1565b603d805460ff60881b198116600160881b9182900460ff1615909102179055565b606061209e826133e6565b6120ba5760405162461bcd60e51b8152600401610c2f906155d9565b8160005b81156120e457806120ce81615835565b91506120dd9050600a83615675565b91506120be565b6000816001600160401b038111156120fe576120fe614ea5565b6040519080825280601f01601f191660200182016040528015612128576020820181803683370190505b5090505b84156121935761213d6001836157ed565b915061214a600a86615850565b612155906030615804565b60f81b81838151811061216a5761216a615730565b60200101906001600160f81b031916908160001a90535061218c600a86615675565b945061212c565b6000604680546121a2906155a4565b9050116121be57604051806020016040528060008152506121e2565b6046816040516020016121d2929190615880565b6040516020818303038152906040525b95945050505050565b603d54600160881b900460ff16156122155760405162461bcd60e51b8152600401610c2f90615787565b6033546040516333b52a9f60e11b81526001600160a01b039091169063676a553e90612245903390600401614ccf565b602060405180830381865afa158015612262573d6000803e3d6000fd5b505050506040513d601f19601f820116820180604052508101906122869190615689565b6122b65760405162461bcd60e51b81526020600482015260016024820152603360f81b6044820152606401610c2f565b603c54600160801b90046001600160401b031681111561233357603c54600090633b9aca009084906122f890600160801b90046001600160401b0316856157ed565b6123029190615640565b61230c9190615675565b905061231881846157ed565b9250806041600082825461232c9190615804565b9091555050505b61233f83836000613c7b565b50505050565b600054610100900460ff166123605760005460ff1615612364565b303b155b6123c75760405162461bcd60e51b815260206004820152602e60248201527f496e697469616c697a61626c653a20636f6e747261637420697320616c72656160448201526d191e481a5b9a5d1a585b1a5e995960921b6064820152608401610c2f565b600054610100900460ff161580156123e9576000805461ffff19166101011790555b856001600160a01b0316846001600160a01b03166361d027b36040518163ffffffff1660e01b8152600401602060405180830381865afa158015612431573d6000803e3d6000fd5b505050506040513d601f19601f8201168201806040525081019061245591906156f7565b6001600160a01b03161461247b5760405162461bcd60e51b8152600401610c2f90615714565b603380546001600160a01b038089166001600160a01b0319928316179092556034805492881692909116821790556040805163313ce56760e01b8152905163313ce567916004808201926020929091908290030181865afa1580156124e4573d6000803e3d6000fd5b505050506040513d601f19601f82011682018060405250810190612508919061591e565b61251390600a615a25565b603881905550856001600160a01b031663e9cbd8226040518163ffffffff1660e01b8152600401602060405180830381865afa158015612557573d6000803e3d6000fd5b505050506040513d601f19601f8201168201806040525081019061257b91906156f7565b603580546001600160a01b03199081166001600160a01b0393841617909155603680549091169186169190911790556040516125bb908390602001615a34565b604051602081830303815290604052607d90805190602001906125df929190614bd4565b50816040516020016125f19190615a7b565b604051602081830303815290604052607e9080519060200190612615929190614bd4565b50676765c793fa10079d601b1b603f5542603e5561263960c0840160a08501615aa5565b6001600160401b03166126526040850160208601615aa5565b6001600160401b03161115801561268557506126746060840160408501615aa5565b6001600160401b0316633b9aca0011155b80156126ad5750633b9aca006126a160c0850160a08601615aa5565b6001600160401b031611155b80156126d55750633b9aca006126c96080850160608601615aa5565b6001600160401b031611155b80156126fc5750633b9aca006126f160e0850160c08601615aa5565b6001600160401b0316105b801561270d57508261010001356000105b6127295760405162461bcd60e51b8152600401610c2f90615746565b823560395561273e6040840160208501615aa5565b603c80546001600160401b0319166001600160401b039290921691909117905561276e6060840160408501615aa5565b603c80546001600160401b0392909216600160401b02600160401b600160801b03199092169190911790556127a96080840160608501615aa5565b603c80546001600160401b0392909216600160801b02600160801b600160c01b03199092169190911790556127e460a0840160808501615aa5565b603c80546001600160401b0392909216600160c01b026001600160c01b0390921691909117905561281b60c0840160a08501615aa5565b603d80546001600160401b0319166001600160401b039290921691909117905561284b60e0840160c08501615aa5565b603d80546001600160401b0392909216600160401b02600160401b600160801b0319909216919091179055612887610100840160e08501615ac0565b603d8054911515600160801b0260ff60801b19909216919091179055604080516020810190915261010084013581526128c490603b906001614c58565b50603d805460ff60881b1916600160881b1790558015611fdd576000805461ff0019169055505050505050565b6128f9614c92565b603d54600160881b900460ff16156129235760405162461bcd60e51b8152600401610c2f90615787565b600260015414156129465760405162461bcd60e51b8152600401610c2f906157a3565b6002600155600080808080805b8c51811015612e475760008d828151811061297057612970615730565b602002602001015190506000600781111561298d5761298d615add565b81600781111561299f5761299f615add565b14156129e0576129da8d83815181106129ba576129ba615730565b60200260200101518060200190518101906129d591906156f7565b613ecb565b50612e34565b60028160078111156129f4576129f4615add565b1415612a5a578c8281518110612a0c57612a0c615730565b6020026020010151806020019051810190612a279190615af3565b9550925082612a365760455492505b612a408386614004565b8488606001818151612a529190615804565b905250612e34565b6007816007811115612a6e57612a6e615add565b1415612b475760008060008f8581518110612a8b57612a8b615730565b6020026020010151806020019051810190612aa69190615b17565b60345460405163d505accf60e01b81526001600160a01b038089166004830152306024830152604482018890526064820187905260ff8616608483015260a4820185905260c48201849052969f50939d50939b509497509550929350169063d505accf9060e401600060405180830381600087803b158015612b2757600080fd5b505af1158015612b3b573d6000803e3d6000fd5b50505050505050612e34565b86612b5757612b54613bda565b96505b6004816007811115612b6b57612b6b615add565b1415612bcc578c8281518110612b8357612b83615730565b6020026020010151806020019051810190612b9e9190615af3565b9450925082612bad5760455492505b612bb8838589613c7b565b93508388602001818151612a529190615804565b85612c4b57603660009054906101000a90046001600160a01b03166001600160a01b03166357de26a46040518163ffffffff1660e01b8152600401602060405180830381865afa158015612c24573d6000803e3d6000fd5b505050506040513d601f19601f82011682018060405250810190612c489190615611565b95505b6001816007811115612c5f57612c5f615add565b1415612cdb578c8281518110612c7757612c77615730565b6020026020010151806020019051810190612c929190615611565b925082612c9f5760455492505b612caa83878961404a565b80965081955050508488604001818151612cc49190615804565b905250602088018051859190612a52908390615804565b6003816007811115612cef57612cef615add565b1415612d4f578c8281518110612d0757612d07615730565b6020026020010151806020019051810190612d229190615af3565b9550925082612d315760455492505b612d3d8386888a6140ed565b8488604001818151612a529190615804565b6005816007811115612d6357612d63615add565b1415612dc5578c8281518110612d7b57612d7b615730565b6020026020010151806020019051810190612d969190615af3565b9450925082612da55760455492505b612db18385888a6141c5565b93508388600001818151612a529190615804565b6006816007811115612dd957612dd9615add565b1415612e34576000808e8481518110612df457612df4615730565b6020026020010151806020019051810190612e0f9190615b6a565b98509196509250905084612e235760455494505b612e31858383898c8e61425f565b50505b5080612e3f81615835565b915050612953565b508551602087015110612f3e5785516020870151600091612e67916157ed565b90508660600151876040015110612e9e57612e9987606001518860400151612e8f91906157ed565b828d8d8d8d613dc1565b612f38565b8015612f0b57603554604051630d43af8160e21b81526001600160a01b039091169063350ebe0490612ed89084908f903390600401615ba8565b600060405180830381600087803b158015612ef257600080fd5b505af1158015612f06573d6000803e3d6000fd5b505050505b612f38333089604001518a60600151612f2491906157ed565b6034546001600160a01b031692919061433c565b506130ca565b60208601518651600091612f51916157ed565b6035546040516340c10f1960e01b81529192506001600160a01b0316906340c10f1990612f84908d908590600401615bc7565b600060405180830381600087803b158015612f9e57600080fd5b505af1158015612fb2573d6000803e3d6000fd5b50505050866060015187604001511115612ff657612ff18a88606001518960400151612fde91906157ed565b6034546001600160a01b031691906143a7565b6130c8565b60008760400151886060015161300c91906157ed565b905080156130c6578851156130ae57896001600160a01b031663a5d4096b603560009054906101000a90046001600160a01b0316603460009054906101000a90046001600160a01b03163386868f6040518763ffffffff1660e01b815260040161307b96959493929190615be0565b600060405180830381600087803b15801561309557600080fd5b505af11580156130a9573d6000803e3d6000fd5b505050505b6034546130c6906001600160a01b031633308461433c565b505b505b505060018055509198975050505050505050565b603a8181548110610efc57600080fd5b6001600160a01b039182166000908152604a6020908152604080832093909416825291909152205460ff1690565b6033546001600160a01b031633146131465760405162461bcd60e51b8152600401610c2f90615c22565b603380546001600160a01b0319166001600160a01b0383811691909117909155603654604051630787a21360e51b815291169063f0f442609061318d908490600401614ccf565b600060405180830381600087803b1580156131a757600080fd5b505af1158015610d0f573d6000803e3d6000fd5b603354604051631c86b03760e31b81526001600160a01b039091169063e43581b8906131eb903390600401614ccf565b602060405180830381865afa158015613208573d6000803e3d6000fd5b505050506040513d601f19601f8201168201806040525081019061322c9190615689565b6132485760405162461bcd60e51b8152600401610c2f906156a6565b603d805460ff60801b198116600160801b9182900460ff1615918202179091556040518181527f9c4ac7d44b0a53ec3cc5ee648f44fa9e0a29b95945172b5f74b52462b9c1d85b90602001611f63565b6132a0614ba5565b60408051600080825260208201909252611df091879187918791879190611749565b60335460009081906001600160a01b031633146132f15760405162461bcd60e51b8152600401610c2f90615c22565b6132f9613bda565b50604154915060425490508082106133885761331581836157ed565b6035546033546040516340c10f1960e01b8152929450600093506001600160a01b03918216926340c10f19926133519216908690600401615bc7565b600060405180830381600087803b15801561336b57600080fd5b505af115801561337f573d6000803e3d6000fd5b50505050613399565b61339282826157ed565b9050600091505b6000604181905560425560408051838152602081018390527ffeb12225c131aab793a00c5239afb778932d170fa28ce6e9d23703e4bd892121910160405180910390a19091565b3b151590565b6000908152604760205260409020546001600160a01b0316151590565b6000908152604960205260409020546001600160a01b031690565b6000818152604760205260409020546001600160a01b031680611fa45760405162461bcd60e51b8152600401610c2f906155d9565b600081815260496020526040902080546001600160a01b0319166001600160a01b03841690811790915581906134888261341e565b6001600160a01b03167f8c5be1e5ebec7d5bd14f71427d1e84f3dd0314c0f7b2291e5b200ac8c7c3b92560405160405180910390a45050565b6000806134cd8361341e565b9050806001600160a01b0316846001600160a01b031614806135085750836001600160a01b03166134fd84613403565b6001600160a01b0316145b80611df357506001600160a01b038082166000908152604a602090815260408083209388168352929052205460ff16949350505050565b826001600160a01b03166135528261341e565b6001600160a01b03161461358d5760405162461bcd60e51b8152602060048201526002602482015261033360f41b6044820152606401610c2f565b6001600160a01b0382166135c85760405162461bcd60e51b8152602060048201526002602482015261333160f01b6044820152606401610c2f565b603d54600160801b900460ff1615806135f957506001600160a01b03821660009081526044602052604090205460ff165b6136155760405162461bcd60e51b8152600401610c2f90615c3e565b613620600082613453565b6001600160a01b038084166000818152604860209081526040808320805460001901905593861680835284832080546001019055858352604790915283822080546001600160a01b03191682179055925184939291600080516020615d6583398151915291a4505050565b600080603e544261369c91906157ed565b603c54909150600160c01b90046001600160401b03168115806136bd575080155b156136cc57603f549250505090565b60006136d96001846157ed565b90506000600284116136ec5760006136f7565b6136f76002856157ed565b90506000676765c793fa10079d601b1b676765c793fa10079d601a1b61371d8680615640565b6137279190615804565b6137319190615675565b90506000676765c793fa10079d601b1b676765c793fa10079d601a1b6137578785615640565b6137619190615804565b61376b9190615675565b9050600060028361377c878a615640565b6137869190615640565b6137909190615675565b90506000600683866137a2898c615640565b6137ac9190615640565b6137b69190615640565b6137c09190615675565b9050676765c793fa10079d601b1b81836137da8b8b615640565b6137ef90676765c793fa10079d601b1b615804565b6137f99190615804565b6138039190615804565b603f546138109190615640565b61381a9190615675565b9850505050505050505090565b61382f614ba5565b600080600061383f8887876143c6565b925092509250633b9aca00831061387d5760405162461bcd60e51b81526020600482015260026024820152610d0d60f21b6044820152606401610c2f565b6000633b9aca0061388e85826157ed565b6138978a61444f565b6138a19190615640565b6138ab9190615675565b603d54909150600160401b90046001600160401b03168110156138db576138d681633b9aca006157ed565b6138fc565b603d546138fc90600160401b90046001600160401b0316633b9aca006157ed565b603d549091506001600160401b031660008061391d6002633b9aca00615a25565b603c5461393391906001600160401b0316615640565b8361393e868a615640565b6139489190615640565b10613aec57603c546001600160401b03166139686002633b9aca00615a25565b6139729190615640565b603c54859061399190600160401b90046001600160401b031686615640565b61399b9190615640565b6139a591906157ed565b603c548590633b9aca00906139c3906001600160401b031689615640565b603c546139e1908b90600160401b90046001600160401b0316615640565b6139eb91906157ed565b6139f59190615640565b6139ff9190615640565b613a099190615675565b91507f0000000000000000000000000000000000000000000000000000000000000000633b9aca00613a3b8585615640565b613a459190615675565b613a4f9190615804565b8611613ae757613a6a676765c793fa10079d601b1b84615640565b633b9aca008a8e60200151613a7f9190615640565b613a899190615640565b613a939190615675565b613a9e906001615804565b915082633b9aca00613ad07f0000000000000000000000000000000000000000000000000000000000000000896157ed565b613ada9190615640565b613ae49190615675565b90505b613b88565b603854613afd90633b9aca00615640565b8c518b90613b0c908790615640565b613b169190615640565b613b209190615675565b613b2b906001615804565b91507f0000000000000000000000000000000000000000000000000000000000000000851115613b8557633b9aca0084613ad07f0000000000000000000000000000000000000000000000000000000000000000886157ed565b50805b818852613b95848b615640565b603854613ba6633b9aca0085615640565b613bb09190615640565b613bba9190615675565b602089015260408801525050606085015250608083015250949350505050565b6000613be461368b565b90506000676765c793fa10079d601b1b603f5483613c0291906157ed565b604054613c0f9190615640565b613c199190615675565b90508060416000828254613c2d9190615804565b9091555050603f82905542603e8190556040805184815260208101929092527fd1fa8ba00a3bf20274346919dce0de62d2a140af2c71fe7e29fa6472eea3bb9d910160405180910390a15090565b600081613c8d57613c8a613bda565b91505b60008481526043602052604081206001015490676765c793fa10079d601b1b613cb68584615640565b613cc09190615675565b9050808510613cd157935080613cf4565b83613ce7676765c793fa10079d601b1b87615640565b613cf19190615675565b90505b613cfe81836157ed565b91508060406000828254613d1291906157ed565b9091555050811580613d605750613d54676765c793fa10079d601b1b7f0000000000000000000000000000000000000000000000000000000000000000615640565b613d5e8584615640565b115b613d7c5760405162461bcd60e51b8152600401610c2f90615c5a565b60008681526043602052604080822060010184905551600080516020615d2583398151915291613daf918991859161581c565b60405180910390a15092949350505050565b8515613dde57603454613dde906001600160a01b031684886143a7565b8415611fdd57805115613e5d5760345460355460405163a5d4096b60e01b81526001600160a01b038086169363a5d4096b93613e2a9391831692169089908b908d908990600401615be0565b600060405180830381600087803b158015613e4457600080fd5b505af1158015613e58573d6000803e3d6000fd5b505050505b603554604051630d43af8160e21b81526001600160a01b039091169063350ebe0490613e9190889088903390600401615ba8565b600060405180830381600087803b158015613eab57600080fd5b505af1158015613ebf573d6000803e3d6000fd5b50505050505050505050565b603d54600090600160801b900460ff161580613f1957506001600160a01b03821660009081526044602052604090205460ff168015613f1957503360009081526044602052604090205460ff165b613f355760405162461bcd60e51b8152600401610c2f90615c3e565b5060458054600190810182556001600160a01b038316600081815260486020908152604080832080549095019094559354808252604790945282812080546001600160a01b031916831790559151839290600080516020615d65833981519152908290a4613fb5600083836040518060200160405280600081525061467e565b611fa45760405162461bcd60e51b8152600401610c2f90615c76565b613fdc84848461353f565b613fe88484848461467e565b61233f5760405162461bcd60e51b8152600401610c2f90615c76565b60008281526043602052604081208054839290614022908490615804565b9091555050604051600080516020615d45833981519152906113e2908490849060019061581c565b600080338561405982826134c1565b6140755760405162461bcd60e51b8152600401610c2f906155f5565b6000878152604360209081526040808320815180830190925280548252600101549181019190915290806140aa838a8a6143c6565b5091509150633b9aca0082116140d25760405162461bcd60e51b8152600401610c2f90615c92565b6140db8a614779565b91519199919850909650505050505050565b33846140f982826134c1565b6141155760405162461bcd60e51b8152600401610c2f906155f5565b600086815260436020526040812080548792906141339084906157ed565b90915550506000868152604360209081526040808320815180830190925280548252600101549181019190915261416b9086866143c6565b50509050633b9aca0081116141925760405162461bcd60e51b8152600401610c2f90615c92565b600080516020615d45833981519152878760006040516141b49392919061581c565b60405180910390a150505050505050565b600033856141d382826134c1565b6141ef5760405162461bcd60e51b8152600401610c2f906155f5565b6141fb878787876147f8565b603c54909650600090633b9aca0090614225908990600160801b90046001600160401b0316615640565b61422f9190615675565b905080604160008282546142439190615804565b90915550614253905081886157ed565b98975050505050505050565b338661426b82826134c1565b6142875760405162461bcd60e51b8152600401610c2f906155f5565b614293888686866147f8565b94506001600160a01b0387163014156142b7576142b1868685613c7b565b50614332565b603c5460405163d645c39360e01b81526004810188905260248101879052600160801b9091046001600160401b031660448201526001600160a01b0388169063d645c39390606401600060405180830381600087803b15801561431957600080fd5b505af115801561432d573d6000803e3d6000fd5b505050505b5050505050505050565b6040516001600160a01b038085166024830152831660448201526064810182905261233f9085906323b872dd60e01b906084015b60408051601f198184030181529190526020810180516001600160e01b03166001600160e01b0319909316929092179091526149d8565b610cd78363a9059cbb60e01b8484604051602401614370929190615bc7565b6000806000676765c793fa10079d601b1b8487602001516143e79190615640565b6143f19190615675565b91506038548587600001516144069190615640565b6144109190615675565b905081614421576000199250614446565b603c548290614439906001600160401b031683615640565b6144439190615675565b92505b93509350939050565b6037546000906001600160a01b031661448857603b60008154811061447657614476615730565b90600052602060002001549050919050565b603754604051635dfba04560e11b81526000916001600160a01b03169063bbf7408a906144b9908690600401614ccf565b602060405180830381865afa1580156144d6573d6000803e3d6000fd5b505050506040513d601f19601f820116820180604052508101906144fa9190615611565b9050603a60018154811061451057614510615730565b9060005260206000200154811061454857603b60018154811061453557614535615730565b9060005260206000200154915050919050565b603a60008154811061455c5761455c615730565b9060005260206000200154811161458157603b60008154811061453557614535615730565b603a60008154811061459557614595615730565b9060005260206000200154603a6001815481106145b4576145b4615730565b90600052602060002001546145c991906157ed565b603a6000815481106145dd576145dd615730565b9060005260206000200154826145f391906157ed565b603b60008154811061460757614607615730565b9060005260206000200154603b60018154811061462657614626615730565b906000526020600020015461463b91906157ed565b6146459190615640565b61464f9190615675565b603b60008154811061466357614663615730565b9060005260206000200154610dc19190615804565b50919050565b60006001600160a01b0384163b1561477157604051630a85bd0160e11b81526001600160a01b0385169063150b7a02906146c2903390899088908890600401615cae565b6020604051808303816000875af19250505080156146fd575060408051601f3d908101601f191682019092526146fa91810190615ceb565b60015b614757573d80801561472b576040519150601f19603f3d011682016040523d82523d6000602084013e614730565b606091505b50805161474f5760405162461bcd60e51b8152600401610c2f90615c5a565b805181602001fd5b6001600160e01b031916630a85bd0160e11b149050611df3565b506001611df3565b60006147848261341e565b9050614791600083613453565b6001600160a01b038116600081815260486020908152604080832080546000190190558583526047825280832080546001600160a01b0319169055604390915280822082815560010182905551849290600080516020615d65833981519152908390a45050565b60008082614811676765c793fa10079d601b1b87615640565b61481b9190615675565b60008781526043602052604090206001015490915061489057614869676765c793fa10079d601b1b7f0000000000000000000000000000000000000000000000000000000000000000615640565b6148738483615640565b116148905760405162461bcd60e51b8152600401610c2f90615c5a565b600086815260436020526040812060010180548392906148b1908490615804565b9250508190555080604060008282546148ca9190615804565b90915550506039546148e890676765c793fa10079d601b1b90615640565b836040546148f69190615640565b11156149295760405162461bcd60e51b8152602060048201526002602482015261343560f01b6044820152606401610c2f565b6000868152604360209081526040808320815180830190925280548252600101549181019190915261495c9086866143c6565b50509050633b9aca0081116149835760405162461bcd60e51b8152600401610c2f90615c92565b600080516020615d25833981519152878360016040516149a59392919061581c565b60405180910390a1676765c793fa10079d601b1b6149c38584615640565b6149cd9190615675565b979650505050505050565b6000614a2d826040518060400160405280602081526020017f5361666545524332303a206c6f772d6c6576656c2063616c6c206661696c6564815250856001600160a01b0316614aaa9092919063ffffffff16565b805190915015610cd75780806020019051810190614a4b9190615689565b610cd75760405162461bcd60e51b815260206004820152602a60248201527f5361666545524332303a204552433230206f7065726174696f6e20646964206e6044820152691bdd081cdd58d8d9595960b21b6064820152608401610c2f565b6060611df3848460008585843b614b035760405162461bcd60e51b815260206004820152601d60248201527f416464726573733a2063616c6c20746f206e6f6e2d636f6e74726163740000006044820152606401610c2f565b600080866001600160a01b03168587604051614b1f9190615d08565b60006040518083038185875af1925050503d8060008114614b5c576040519150601f19603f3d011682016040523d82523d6000602084013e614b61565b606091505b50915091506149cd82828660608315614b7b575081610dc1565b825115614b8b5782518084602001fd5b8160405162461bcd60e51b8152600401610c2f9190614d71565b6040518060a0016040528060008152602001600081526020016000815260200160008152602001600081525090565b828054614be0906155a4565b90600052602060002090601f016020900481019282614c025760008555614c48565b82601f10614c1b57805160ff1916838001178555614c48565b82800160010185558215614c48579182015b82811115614c48578251825591602001919060010190614c2d565b50614c54929150614cba565b5090565b828054828255906000526020600020908101928215614c485791602002820182811115614c48578251825591602001919060010190614c2d565b6040518060800160405280600081526020016000815260200160008152602001600081525090565b5b80821115614c545760008155600101614cbb565b6001600160a01b0391909116815260200190565b6001600160e01b031981168114614cf957600080fd5b50565b600060208284031215614d0e57600080fd5b8135610dc181614ce3565b60005b83811015614d34578181015183820152602001614d1c565b8381111561233f5750506000910152565b60008151808452614d5d816020860160208601614d19565b601f01601f19169290920160200192915050565b602081526000610dc16020830184614d45565b600060208284031215614d9657600080fd5b5035919050565b6001600160a01b0381168114614cf957600080fd5b60008060408385031215614dc557600080fd5b8235614dd081614d9d565b946020939093013593505050565b600080600060608486031215614df357600080fd5b8335614dfe81614d9d565b92506020840135614e0e81614d9d565b929592945050506040919091013590565b60008060408385031215614e3257600080fd5b823591506020830135614e4481614d9d565b809150509250929050565b60a08101610b74828480518252602081015160208301526040810151604083015260608101516060830152608081015160808301525050565b600060208284031215614e9a57600080fd5b8135610dc181614d9d565b634e487b7160e01b600052604160045260246000fd5b604051601f8201601f191681016001600160401b0381118282101715614ee357614ee3614ea5565b604052919050565b600082601f830112614efc57600080fd5b81356001600160401b03811115614f1557614f15614ea5565b614f28601f8201601f1916602001614ebb565b818152846020838601011115614f3d57600080fd5b816020850160208301376000918101602001919091529392505050565b600060208284031215614f6c57600080fd5b81356001600160401b03811115614f8257600080fd5b611df384828501614eeb565b80356001600160401b0381168114611fa457600080fd5b60008060408385031215614fb857600080fd5b614dd083614f8e565b60006001600160401b03821115614fda57614fda614ea5565b5060051b60200190565b600082601f830112614ff557600080fd5b8135602061500a61500583614fc1565b614ebb565b82815260059290921b8401810191818101908684111561502957600080fd5b8286015b84811015615044578035835291830191830161502d565b509695505050505050565b60008060006060848603121561506457600080fd5b833561506f81614d9d565b925060208401356001600160401b038082111561508b57600080fd5b61509787838801614fe4565b935060408601359150808211156150ad57600080fd5b506150ba86828701614fe4565b9150509250925092565b60008060008060008060c087890312156150dd57600080fd5b86356001600160401b03808211156150f457600080fd5b6151008a838b01614fe4565b9750602089013591508082111561511657600080fd5b6151228a838b01614fe4565b96506040890135915061513482614d9d565b90945060608801359061514682614d9d565b90935060808801359061515882614d9d565b90925060a0880135908082111561516e57600080fd5b5061517b89828a01614eeb565b9150509295509295509295565b600081518084526020808501945080840160005b838110156151b85781518752958201959082019060010161519c565b509495945050505050565b6040815260006151d66040830185615188565b90508260208301529392505050565b600082601f8301126151f657600080fd5b8135602061520661500583614fc1565b82815260059290921b8401810191818101908684111561522557600080fd5b8286015b84811015615044578035600881106152415760008081fd5b8352918301918301615229565b600082601f83011261525f57600080fd5b8135602061526f61500583614fc1565b82815260059290921b8401810191818101908684111561528e57600080fd5b8286015b848110156150445780356001600160401b038111156152b15760008081fd5b6152bf8986838b0101614eeb565b845250918301918301615292565b600080600080608085870312156152e357600080fd5b84356001600160401b03808211156152fa57600080fd5b615306888389016151e5565b9550602087013591508082111561531c57600080fd5b506153298782880161524e565b935050604085013561533a81614d9d565b9150606085013561534a81614d9d565b939692955090935050565b8015158114614cf957600080fd5b6000806040838503121561537657600080fd5b823561538181614d9d565b91506020830135614e4481615355565b600080600080608085870312156153a757600080fd5b84356153b281614d9d565b935060208501356153c281614d9d565b92506040850135915060608501356001600160401b038111156153e457600080fd5b6153f087828801614eeb565b91505092959194509250565b60008060006060848603121561541157600080fd5b505081359360208301359350604090920135919050565b60008060008060008587036101a081121561544257600080fd5b863561544d81614d9d565b9550602087013561545d81614d9d565b9450604087013561546d81614d9d565b9350610120605f198201121561548257600080fd5b506060860191506101808601356001600160401b038111156154a357600080fd5b6154af88828901614eeb565b9150509295509295909350565b60008060008060008060c087890312156154d557600080fd5b86356001600160401b03808211156154ec57600080fd5b6154f88a838b016151e5565b9750602089013591508082111561550e57600080fd5b6151228a838b0161524e565b6000806040838503121561552d57600080fd5b823561553881614d9d565b91506020830135614e4481614d9d565b6000806000806080858703121561555e57600080fd5b84356001600160401b038082111561557557600080fd5b61558188838901614fe4565b9550602087013591508082111561559757600080fd5b5061532987828801614fe4565b600181811c908216806155b857607f821691505b6020821081141561467857634e487b7160e01b600052602260045260246000fd5b602080825260029082015261191b60f11b604082015260600190565b602080825260029082015261189b60f11b604082015260600190565b60006020828403121561562357600080fd5b5051919050565b634e487b7160e01b600052601160045260246000fd5b600081600019048311821515161561565a5761565a61562a565b500290565b634e487b7160e01b600052601260045260246000fd5b6000826156845761568461565f565b500490565b60006020828403121561569b57600080fd5b8151610dc181615355565b6020808252600190820152603160f81b604082015260600190565b6020808252600190820152601960f91b604082015260600190565b6020808252600190820152603960f81b604082015260600190565b60006020828403121561570957600080fd5b8151610dc181614d9d565b602080825260029082015261333360f01b604082015260600190565b634e487b7160e01b600052603260045260246000fd5b602080825260029082015261313560f01b604082015260600190565b6040815260006157756040830185615188565b82810360208401526121e28185615188565b6020808252600290820152611a1960f11b604082015260600190565b6020808252601f908201527f5265656e7472616e637947756172643a207265656e7472616e742063616c6c00604082015260600190565b602081526000610dc16020830184615188565b6000828210156157ff576157ff61562a565b500390565b600082198211156158175761581761562a565b500190565b928352602083019190915260ff16604082015260600190565b60006000198214156158495761584961562a565b5060010190565b60008261585f5761585f61565f565b500690565b60008151615876818560208601614d19565b9290920192915050565b600080845481600182811c91508083168061589c57607f831692505b60208084108214156158bc57634e487b7160e01b86526022600452602486fd5b8180156158d057600181146158e15761590e565b60ff1986168952848901965061590e565b60008b81526020902060005b868110156159065781548b8201529085019083016158ed565b505084890196505b5050505050506121e28185615864565b60006020828403121561593057600080fd5b815160ff81168114610dc157600080fd5b600181815b8085111561597c5781600019048211156159625761596261562a565b8085161561596f57918102915b93841c9390800290615946565b509250929050565b60008261599357506001610b74565b816159a057506000610b74565b81600181146159b657600281146159c0576159dc565b6001915050610b74565b60ff8411156159d1576159d161562a565b50506001821b610b74565b5060208310610133831016604e8410600b84101617156159ff575081810a610b74565b615a098383615941565b8060001904821115615a1d57615a1d61562a565b029392505050565b6000610dc160ff841683615984565b6e020b733b63290283937ba37b1b7b61608d1b815260008251615a5e81600f850160208701614d19565b650815985d5b1d60d21b600f939091019283015250601501919050565b60008251615a8d818460208701614d19565b650b5d985d5b1d60d21b920191825250600601919050565b600060208284031215615ab757600080fd5b610dc182614f8e565b600060208284031215615ad257600080fd5b8135610dc181615355565b634e487b7160e01b600052602160045260246000fd5b60008060408385031215615b0657600080fd5b505080516020909101519092909150565b60008060008060008060c08789031215615b3057600080fd5b8651615b3b81614d9d565b6020880151604089015160608a015160808b015160a0909b0151939c929b509099909850965090945092505050565b60008060008060808587031215615b8057600080fd5b845193506020850151615b9281614d9d565b6040860151606090960151949790965092505050565b9283526001600160a01b03918216602084015216604082015260600190565b6001600160a01b03929092168252602082015260400190565b6001600160a01b038781168252868116602083015285166040820152606081018490526080810183905260c060a0820181905260009061425390830184614d45565b6020808252600290820152610c4d60f21b604082015260600190565b602080825260029082015261032360f41b604082015260600190565b6020808252600290820152610c8d60f21b604082015260600190565b602080825260029082015261323960f01b604082015260600190565b602080825260029082015261323160f01b604082015260600190565b6001600160a01b0385811682528416602082015260408101839052608060608201819052600090615ce190830184614d45565b9695505050505050565b600060208284031215615cfd57600080fd5b8151610dc181614ce3565b60008251615d1a818460208701614d19565b919091019291505056fe70cf49afe7355562d5b022e594790f22b71ad8cc7eec902fa5feac7c67f71091722cb71fa87c947148cefc06dd890af5802a6a00207c5ddecf1191bf71ce3cd4ddf252ad1be2c89b69c2b068fc378daa952ba7f163c4a11628f55a4df523b3efa2646970667358221220b9e573db170ac1338b4643597577b723947ba69d03f3064caa06ef4077acf3fc64736f6c634300080c0033",
  "devdoc": {
    "author": "Angle Core Team",
    "details": "This implementation only supports non-rebasing ERC20 tokens as collateralThis contract is encoded as a NFT contract",
    "kind": "dev",
    "methods": {
      "accrueInterestToTreasury()": {
        "details": "`surplus` and `badDebt` should be reset to 0 once their current value have been given to the `treasury` contract",
        "returns": {
          "badDebtValue": "Value of the bad debt communicated to the `Treasury`",
          "surplusValue": "Value of the surplus communicated to the `Treasury`"
        }
      },
      "angle(uint8[],bytes[],address,address,address,bytes)": {
        "details": "This function is optimized to reduce gas cost due to payment from or to the user and that expensive calls or computations (like `oracleValue`) are done only once",
        "params": {
          "actions": "Set of actions to perform",
          "datas": "Data to be decoded for each action: it can include like the `vaultID` or the `stablecoinAmount` to borrow",
          "from": "Address from which stablecoins will be taken if one action includes burning stablecoins. This address should either be the `msg.sender` or be approved by the latter",
          "repayData": "Data to pass to the repayment contract in case of",
          "to": "Address to which stablecoins and/or collateral will be sent in case of",
          "who": "Address of the contract to handle in case of repayment of stablecoins from received collateral"
        },
        "returns": {
          "paymentData": "Struct containing the final transfers executed"
        }
      },
      "approve(address,uint256)": {
        "details": "Gives permission to `to` to transfer `tokenId` token to another account. The approval is cleared when the token is transferred. Only a single account can be approved at a time, so approving the zero address clears previous approvals. Requirements: - The caller must own the token or be an approved operator. - `tokenId` must exist. Emits an {Approval} event."
      },
      "balanceOf(address)": {
        "details": "Returns the number of tokens in ``owner``'s account."
      },
      "checkLiquidation(uint256,address)": {
        "details": "This function will revert if it's called on a vault that does not exist",
        "params": {
          "liquidator": "Address of the liquidator which will be performing the liquidation",
          "vaultID": "ID of the vault to check"
        },
        "returns": {
          "liqOpp": "Description of the opportunity of liquidation"
        }
      },
      "constructor": {
        "custom:oz-upgrades-unsafe-allow": "constructor"
      },
      "createVault(address)": {
        "details": "This function just creates the vault without doing any collateral or",
        "params": {
          "toVault": "Address for which the va"
        },
        "returns": {
          "_0": "vaultID ID of the vault created"
        }
      },
      "getApproved(uint256)": {
        "details": "Returns the account approved for `tokenId` token. Requirements: - `tokenId` must exist."
      },
      "getControlledVaults(address)": {
        "details": "This function is never to be called on-chain since it iterates over all vaultIDs. It is here to reduce dependency on an external graph to link an ID to its owner",
        "params": {
          "spender": "Address for which vault ownerships should be checked"
        },
        "returns": {
          "_0": "List of `vaultID` controlled by this address",
          "_1": "Count of vaults owned by the address"
        }
      },
      "getDebtOut(uint256,uint256,uint256)": {
        "details": "This function can only be called from a vaultManager registered in the same Treasury",
        "params": {
          "amountStablecoins": "Amount of stablecoins to remove from the debt: this amount is to be converted to an internal debt amount",
          "senderBorrowFee": "Borrowing fees from the contract which requested this: this is to make sure that people are not arbitraging difference in minting fees",
          "vaultID": "ID of the vault to remove debt from"
        }
      },
      "getTotalDebt()": {
        "returns": {
          "_0": "Total debt across all vaults, taking into account the interest accumulated over time"
        }
      },
      "getVaultDebt(uint256)": {
        "params": {
          "vaultID": "ID of the vault to check"
        },
        "returns": {
          "_0": "Debt of the vault"
        }
      },
      "initialize(address,address,address,(uint256,uint64,uint64,uint64,uint64,uint64,uint64,bool,uint256),string)": {
        "details": "The parameters and the oracle are the only elements which could be modified once the contract has been initializedFor the contract to be fully initialized, governance needs to set the parameters for the liquidation boost",
        "params": {
          "_collateral": "Collateral supported by this contract",
          "_oracle": "Oracle contract used",
          "_symbol": "Symbol used to define the `VaultManager` name and symbol",
          "_treasury": "Treasury address handling the contract"
        }
      },
      "isApprovedForAll(address,address)": {
        "details": "Returns if the `operator` is allowed to manage all of the assets of `owner`. See {setApprovalForAll}"
      },
      "isApprovedOrOwner(address,uint256)": {
        "params": {
          "spender": "Address for which vault ownership should be checked",
          "vaultID": "ID of the vault to check"
        },
        "returns": {
          "_0": "Whether the `spender` address owns or is approved for `vaultID`"
        }
      },
      "liquidate(uint256[],uint256[],address,address)": {
        "details": "This function is a simplified wrapper of the function below. It is built to remove for liquidators the need to specify a `who` and a `data` parameters"
      },
      "liquidate(uint256[],uint256[],address,address,address,bytes)": {
        "details": "This function will revert if it's called on a vault that cannot be liquidated or that does not exist",
        "params": {
          "amounts": "Amount of stablecoin to bring for the liquidation of each vault",
          "data": "Data to pass to the repayment contract in case of",
          "from": "Address from which the stablecoins for the liquidation should be taken: this address should be the `msg.sender` or have received an approval",
          "to": "Address to which discounted collateral should be sent",
          "vaultIDs": "List of the vaults to liquidate",
          "who": "Address of the contract to handle repayment of stablecoins from received collateral"
        }
      },
      "ownerOf(uint256)": {
        "details": "Returns the owner of the `tokenId` token. Requirements: - `tokenId` must exist."
      },
      "safeTransferFrom(address,address,uint256)": {
        "details": "Safely transfers `tokenId` token from `from` to `to`, checking first that contract recipients are aware of the ERC721 protocol to prevent tokens from being forever locked. Requirements: - `from` cannot be the zero address. - `to` cannot be the zero address. - `tokenId` token must exist and be owned by `from`. - If the caller is not `from`, it must be have been allowed to move this token by either {approve} or {setApprovalForAll}. - If `to` refers to a smart contract, it must implement {IERC721Receiver-onERC721Received}, which is called upon a safe transfer. Emits a {Transfer} event."
      },
      "safeTransferFrom(address,address,uint256,bytes)": {
        "details": "Safely transfers `tokenId` token from `from` to `to`. Requirements: - `from` cannot be the zero address. - `to` cannot be the zero address. - `tokenId` token must exist and be owned by `from`. - If the caller is not `from`, it must be approved to move this token by either {approve} or {setApprovalForAll}. - If `to` refers to a smart contract, it must implement {IERC721Receiver-onERC721Received}, which is called upon a safe transfer. Emits a {Transfer} event."
      },
      "setApprovalForAll(address,bool)": {
        "details": "Approve or remove `operator` as an operator for the caller. Operators can call {transferFrom} or {safeTransferFrom} for any token owned by the caller. Requirements: - The `operator` cannot be the caller. Emits an {ApprovalForAll} event."
      },
      "setDebtCeiling(uint256)": {
        "params": {
          "_debtCeiling": "New value for `debtCeiling`"
        }
      },
      "setLiquidationBoostParameters(address,uint256[],uint256[])": {
        "details": "There are 2 modes: When boost is enabled, `xBoost` and `yBoost` should have a length of 2, but if they have a higher length contract will still work as expected. Contract will also work as expected if their length differ When boost is disabled, `_veBoostProxy` needs to be zero address and `yBoost[0]` is the base boost",
        "params": {
          "_veBoostProxy": "Address which queries veANGLE balances and adjusted balances from delegation",
          "xBoost": "Threshold values of veANGLE adjusted balances",
          "yBoost": "Values of the liquidation boost at the threshold values of x"
        }
      },
      "setOracle(address)": {
        "params": {
          "_oracle": "Reference to the oracle contract"
        }
      },
      "setTreasury(address)": {
        "details": "All required checks when setting up a treasury contract are performed in the contract calling this function",
        "params": {
          "_treasury": "New treasury contract"
        }
      },
      "setUint64(uint64,bytes32)": {
        "details": "This function performs the required checks when updating a parameterWhen setting parameters governance should make sure that when `HF < CF/((1-surcharge)(1-discount))` and hence when liquidating a vault is going to decrease its health factor, `discount = max discount`. Otherwise, it may be profitable for the liquidator to liquidate in multiple times: as it will decrease the HF and therefore increase the discount between each time",
        "params": {
          "param": "Value for the parameter",
          "what": "Parameter to change"
        }
      },
      "supportsInterface(bytes4)": {
        "details": "Returns true if this contract implements the interface defined by `interfaceId`. See the corresponding https://eips.ethereum.org/EIPS/eip-165#how-interfaces-are-identified[EIP section] to learn more about how these ids are created. This function call must use less than 30 000 gas."
      },
      "toggleWhitelist(address)": {
        "params": {
          "target": "Address to toggle"
        }
      },
      "tokenURI(uint256)": {
        "details": "Returns the Uniform Resource Identifier (URI) for `tokenId` token."
      },
      "transferFrom(address,address,uint256)": {
        "details": "Transfers `tokenId` token from `from` to `to`. WARNING: Usage of this method is discouraged, use {safeTransferFrom} whenever possible. Requirements: - `from` cannot be the zero address. - `to` cannot be the zero address. - `tokenId` token must be owned by `from`. - If the caller is not `from`, it must be approved to move this token by either {approve} or {setApprovalForAll}. Emits a {Transfer} event."
      }
    },
    "title": "VaultManager",
    "version": 1
  },
  "userdoc": {
    "kind": "user",
    "methods": {
      "BASE_INTEREST()": {
        "notice": "Base used for interest rate computation"
      },
      "BASE_PARAMS()": {
        "notice": "Base used for parameter computation"
      },
      "HALF_BASE_INTEREST()": {
        "notice": "Used for interest rate computation"
      },
      "accrueInterestToTreasury()": {
        "notice": "Accrues interest accumulated across all vaults to the surplus and sends the surplus to the treasury"
      },
      "angle(uint8[],bytes[],address,address)": {
        "notice": "This function is a wrapper built on top of the function above. It enables users to interact with the contract without having to provide `who` and `repayData` parameters"
      },
      "angle(uint8[],bytes[],address,address,address,bytes)": {
        "notice": "Allows composability between calls to the different entry points of this module. Any user calling this function can perform any of the allowed actions in the order of their choice"
      },
      "badDebt()": {
        "notice": "Bad debt made from liquidated vaults which ended up having no collateral and a positive amount of stablecoins"
      },
      "borrowFee()": {
        "notice": "Upfront fee taken when borrowing stablecoins"
      },
      "checkLiquidation(uint256,address)": {
        "notice": "Checks whether a given vault is liquidable and if yes gives information regarding its liquidation"
      },
      "collateral()": {
        "notice": "Reference to the collateral handled by this `VaultManager`"
      },
      "collateralFactor()": {
        "notice": "Encodes the maximum ratio stablecoin/collateral a vault can have before being liquidated. It's what determines the minimum collateral ratio of a position"
      },
      "createVault(address)": {
        "notice": "Creates a vault"
      },
      "debtCeiling()": {
        "notice": "Maximum amount of stablecoins that can be issued with this contract"
      },
      "dust()": {
        "notice": "Minimum amount of debt a vault can have"
      },
      "getControlledVaults(address)": {
        "notice": "Returns all the vaults owned or controlled (under the form of approval) by an address"
      },
      "getDebtOut(uint256,uint256,uint256)": {
        "notice": "Removes debt from a vault after being requested to do so by another `VaultManager` contract"
      },
      "getTotalDebt()": {
        "notice": "Gets the total debt across all vaults"
      },
      "getVaultDebt(uint256)": {
        "notice": "Gets the current debt of a vault"
      },
      "initialize(address,address,address,(uint256,uint64,uint64,uint64,uint64,uint64,uint64,bool,uint256),string)": {
        "notice": "Initializes the `VaultManager` contract"
      },
      "interestAccumulator()": {
        "notice": "The `interestAccumulator` variable keeps track of the interest that should accrue to the protocol. The stored value is not necessarily the true value: this one is recomputed every time an action takes place within the protocol"
      },
      "interestRate()": {
        "notice": "Per second interest taken to borrowers taking agToken loans"
      },
      "isApprovedOrOwner(address,uint256)": {
        "notice": "Checks whether a given address is approved for a vault or owns this vault"
      },
      "isWhitelisted(address)": {
        "notice": "Maps an address to whether it's whitelisted and can open or own a vault"
      },
      "lastInterestAccumulatorUpdated()": {
        "notice": "Timestamp at which the `interestAccumulator` was updated"
      },
      "liquidate(uint256[],uint256[],address,address)": {
        "notice": "Liquidates an ensemble of vaults specified by their IDs"
      },
      "liquidate(uint256[],uint256[],address,address,address,bytes)": {
        "notice": "Liquidates an ensemble of vaults specified by their IDs"
      },
      "liquidationSurcharge()": {
        "notice": "Fee taken by the protocol during a liquidation. Technically, this value is not the fee per se, it's 1 - fee. For instance for a 2% fee, `liquidationSurcharge` should be 98%"
      },
      "maxLiquidationDiscount()": {
        "notice": "Maximum discount given to liquidators"
      },
      "oracle()": {
        "notice": "Oracle contract to get access to the price of the collateral with respect to the stablecoin"
      },
      "paused()": {
        "notice": "Whether the contract is paused or not"
      },
      "setBaseURI(string)": {
        "notice": "Changes the ERC721 metadata URI"
      },
      "setDebtCeiling(uint256)": {
        "notice": "Sets `debtCeiling`"
      },
      "setLiquidationBoostParameters(address,uint256[],uint256[])": {
        "notice": "Sets the parameters for the liquidation booster which encodes the slope of the discount"
      },
      "setOracle(address)": {
        "notice": "Changes the reference to the oracle contract used to get the price of the oracle"
      },
      "setTreasury(address)": {
        "notice": "Sets the treasury contract"
      },
      "setUint64(uint64,bytes32)": {
        "notice": "Sets parameters encoded as uint64"
      },
      "stablecoin()": {
        "notice": "Stablecoin handled by this contract. Another `VaultManager` contract could have the same rights as this `VaultManager` on the stablecoin contract"
      },
      "surplus()": {
        "notice": "Surplus accumulated by the contract: surplus is always in stablecoins, and is then reset when the value is communicated to the treasury contract"
      },
      "targetHealthFactor()": {
        "notice": "Maximum Health factor at which a vault can end up after a liquidation (unless it's fully liquidated)"
      },
      "togglePause()": {
        "notice": "Pauses external permissionless functions of the contract"
      },
      "toggleWhitelist(address)": {
        "notice": "Changes the whitelisting of an address"
      },
      "toggleWhitelisting()": {
        "notice": "Toggles permission for owning vaults by any account"
      },
      "totalNormalizedDebt()": {
        "notice": "Total normalized amount of stablecoins borrowed, not taking into account the potential bad debt accumulated"
      },
      "treasury()": {
        "notice": "Reference to the `treasury` contract handling this `VaultManager`"
      },
      "vaultData(uint256)": {
        "notice": "Maps a `vaultID` to its data (namely collateral amount and normalized debt)"
      },
      "vaultIDCount()": {
        "notice": "Counter to generate a unique `vaultID` for each vault: `vaultID` acts as `tokenID` in basic ERC721 contracts"
      },
      "veBoostProxy()": {
        "notice": "Reference to the contract which computes adjusted veANGLE balances for liquidators boosts"
      },
      "whitelistingActivated()": {
        "notice": "Whether whitelisting is required to own a vault or not"
      },
      "xLiquidationBoost(uint256)": {
        "notice": "Threshold veANGLE balance values for the computation of the boost for liquidators: the length of this array should be 2"
      },
      "yLiquidationBoost(uint256)": {
        "notice": "Values of the liquidation boost at the threshold values of x"
      }
    },
    "notice": "This contract allows people to deposit collateral and open up loans of a given AgToken. It handles all the loan logic (fees and interest rate) as well as the liquidation logic",
    "version": 1
  },
  "storageLayout": {
    "storage": [
      {
        "astId": 646,
        "contract": "contracts/vaultManager/VaultManager.sol:VaultManager",
        "label": "_initialized",
        "offset": 0,
        "slot": "0",
        "type": "t_bool"
      },
      {
        "astId": 649,
        "contract": "contracts/vaultManager/VaultManager.sol:VaultManager",
        "label": "_initializing",
        "offset": 1,
        "slot": "0",
        "type": "t_bool"
      },
      {
        "astId": 727,
        "contract": "contracts/vaultManager/VaultManager.sol:VaultManager",
        "label": "_status",
        "offset": 0,
        "slot": "1",
        "type": "t_uint256"
      },
      {
        "astId": 770,
        "contract": "contracts/vaultManager/VaultManager.sol:VaultManager",
        "label": "__gap",
        "offset": 0,
        "slot": "2",
        "type": "t_array(t_uint256)49_storage"
      },
      {
        "astId": 23588,
        "contract": "contracts/vaultManager/VaultManager.sol:VaultManager",
        "label": "treasury",
        "offset": 0,
        "slot": "51",
        "type": "t_contract(ITreasury)11966"
      },
      {
        "astId": 23592,
        "contract": "contracts/vaultManager/VaultManager.sol:VaultManager",
        "label": "collateral",
        "offset": 0,
        "slot": "52",
        "type": "t_contract(IERC20)5169"
      },
      {
        "astId": 23596,
        "contract": "contracts/vaultManager/VaultManager.sol:VaultManager",
        "label": "stablecoin",
        "offset": 0,
        "slot": "53",
        "type": "t_contract(IAgToken)11159"
      },
      {
        "astId": 23600,
        "contract": "contracts/vaultManager/VaultManager.sol:VaultManager",
        "label": "oracle",
        "offset": 0,
        "slot": "54",
        "type": "t_contract(IOracle)11888"
      },
      {
        "astId": 23604,
        "contract": "contracts/vaultManager/VaultManager.sol:VaultManager",
        "label": "veBoostProxy",
        "offset": 0,
        "slot": "55",
        "type": "t_contract(IVeBoostProxy)12232"
      },
      {
        "astId": 23607,
        "contract": "contracts/vaultManager/VaultManager.sol:VaultManager",
        "label": "_collatBase",
        "offset": 0,
        "slot": "56",
        "type": "t_uint256"
      },
      {
        "astId": 23616,
        "contract": "contracts/vaultManager/VaultManager.sol:VaultManager",
        "label": "debtCeiling",
        "offset": 0,
        "slot": "57",
        "type": "t_uint256"
      },
      {
        "astId": 23620,
        "contract": "contracts/vaultManager/VaultManager.sol:VaultManager",
        "label": "xLiquidationBoost",
        "offset": 0,
        "slot": "58",
        "type": "t_array(t_uint256)dyn_storage"
      },
      {
        "astId": 23624,
        "contract": "contracts/vaultManager/VaultManager.sol:VaultManager",
        "label": "yLiquidationBoost",
        "offset": 0,
        "slot": "59",
        "type": "t_array(t_uint256)dyn_storage"
      },
      {
        "astId": 23627,
        "contract": "contracts/vaultManager/VaultManager.sol:VaultManager",
        "label": "collateralFactor",
        "offset": 0,
        "slot": "60",
        "type": "t_uint64"
      },
      {
        "astId": 23630,
        "contract": "contracts/vaultManager/VaultManager.sol:VaultManager",
        "label": "targetHealthFactor",
        "offset": 8,
        "slot": "60",
        "type": "t_uint64"
      },
      {
        "astId": 23633,
        "contract": "contracts/vaultManager/VaultManager.sol:VaultManager",
        "label": "borrowFee",
        "offset": 16,
        "slot": "60",
        "type": "t_uint64"
      },
      {
        "astId": 23636,
        "contract": "contracts/vaultManager/VaultManager.sol:VaultManager",
        "label": "interestRate",
        "offset": 24,
        "slot": "60",
        "type": "t_uint64"
      },
      {
        "astId": 23639,
        "contract": "contracts/vaultManager/VaultManager.sol:VaultManager",
        "label": "liquidationSurcharge",
        "offset": 0,
        "slot": "61",
        "type": "t_uint64"
      },
      {
        "astId": 23642,
        "contract": "contracts/vaultManager/VaultManager.sol:VaultManager",
        "label": "maxLiquidationDiscount",
        "offset": 8,
        "slot": "61",
        "type": "t_uint64"
      },
      {
        "astId": 23645,
        "contract": "contracts/vaultManager/VaultManager.sol:VaultManager",
        "label": "whitelistingActivated",
        "offset": 16,
        "slot": "61",
        "type": "t_bool"
      },
      {
        "astId": 23648,
        "contract": "contracts/vaultManager/VaultManager.sol:VaultManager",
        "label": "paused",
        "offset": 17,
        "slot": "61",
        "type": "t_bool"
      },
      {
        "astId": 23651,
        "contract": "contracts/vaultManager/VaultManager.sol:VaultManager",
        "label": "lastInterestAccumulatorUpdated",
        "offset": 0,
        "slot": "62",
        "type": "t_uint256"
      },
      {
        "astId": 23654,
        "contract": "contracts/vaultManager/VaultManager.sol:VaultManager",
        "label": "interestAccumulator",
        "offset": 0,
        "slot": "63",
        "type": "t_uint256"
      },
      {
        "astId": 23657,
        "contract": "contracts/vaultManager/VaultManager.sol:VaultManager",
        "label": "totalNormalizedDebt",
        "offset": 0,
        "slot": "64",
        "type": "t_uint256"
      },
      {
        "astId": 23660,
        "contract": "contracts/vaultManager/VaultManager.sol:VaultManager",
        "label": "surplus",
        "offset": 0,
        "slot": "65",
        "type": "t_uint256"
      },
      {
        "astId": 23663,
        "contract": "contracts/vaultManager/VaultManager.sol:VaultManager",
        "label": "badDebt",
        "offset": 0,
        "slot": "66",
        "type": "t_uint256"
      },
      {
        "astId": 23669,
        "contract": "contracts/vaultManager/VaultManager.sol:VaultManager",
        "label": "vaultData",
        "offset": 0,
        "slot": "67",
        "type": "t_mapping(t_uint256,t_struct(Vault)11996_storage)"
      },
      {
        "astId": 23674,
        "contract": "contracts/vaultManager/VaultManager.sol:VaultManager",
        "label": "isWhitelisted",
        "offset": 0,
        "slot": "68",
        "type": "t_mapping(t_address,t_bool)"
      },
      {
        "astId": 23677,
        "contract": "contracts/vaultManager/VaultManager.sol:VaultManager",
        "label": "vaultIDCount",
        "offset": 0,
        "slot": "69",
        "type": "t_uint256"
      },
      {
        "astId": 23680,
        "contract": "contracts/vaultManager/VaultManager.sol:VaultManager",
        "label": "_baseURI",
        "offset": 0,
        "slot": "70",
        "type": "t_string_storage"
      },
      {
        "astId": 23684,
        "contract": "contracts/vaultManager/VaultManager.sol:VaultManager",
        "label": "_owners",
        "offset": 0,
        "slot": "71",
        "type": "t_mapping(t_uint256,t_address)"
      },
      {
        "astId": 23688,
        "contract": "contracts/vaultManager/VaultManager.sol:VaultManager",
        "label": "_balances",
        "offset": 0,
        "slot": "72",
        "type": "t_mapping(t_address,t_uint256)"
      },
      {
        "astId": 23692,
        "contract": "contracts/vaultManager/VaultManager.sol:VaultManager",
        "label": "_vaultApprovals",
        "offset": 0,
        "slot": "73",
        "type": "t_mapping(t_uint256,t_address)"
      },
      {
        "astId": 23698,
        "contract": "contracts/vaultManager/VaultManager.sol:VaultManager",
        "label": "_operatorApprovals",
        "offset": 0,
        "slot": "74",
        "type": "t_mapping(t_address,t_mapping(t_address,t_bool))"
      },
      {
        "astId": 23702,
        "contract": "contracts/vaultManager/VaultManager.sol:VaultManager",
        "label": "__gap",
        "offset": 0,
        "slot": "75",
        "type": "t_array(t_uint256)50_storage"
      },
      {
        "astId": 22682,
        "contract": "contracts/vaultManager/VaultManager.sol:VaultManager",
        "label": "name",
        "offset": 0,
        "slot": "125",
        "type": "t_string_storage"
      },
      {
        "astId": 22685,
        "contract": "contracts/vaultManager/VaultManager.sol:VaultManager",
        "label": "symbol",
        "offset": 0,
        "slot": "126",
        "type": "t_string_storage"
      }
    ],
    "types": {
      "t_address": {
        "encoding": "inplace",
        "label": "address",
        "numberOfBytes": "20"
      },
      "t_array(t_uint256)49_storage": {
        "base": "t_uint256",
        "encoding": "inplace",
        "label": "uint256[49]",
        "numberOfBytes": "1568"
      },
      "t_array(t_uint256)50_storage": {
        "base": "t_uint256",
        "encoding": "inplace",
        "label": "uint256[50]",
        "numberOfBytes": "1600"
      },
      "t_array(t_uint256)dyn_storage": {
        "base": "t_uint256",
        "encoding": "dynamic_array",
        "label": "uint256[]",
        "numberOfBytes": "32"
      },
      "t_bool": {
        "encoding": "inplace",
        "label": "bool",
        "numberOfBytes": "1"
      },
      "t_contract(IAgToken)11159": {
        "encoding": "inplace",
        "label": "contract IAgToken",
        "numberOfBytes": "20"
      },
      "t_contract(IERC20)5169": {
        "encoding": "inplace",
        "label": "contract IERC20",
        "numberOfBytes": "20"
      },
      "t_contract(IOracle)11888": {
        "encoding": "inplace",
        "label": "contract IOracle",
        "numberOfBytes": "20"
      },
      "t_contract(ITreasury)11966": {
        "encoding": "inplace",
        "label": "contract ITreasury",
        "numberOfBytes": "20"
      },
      "t_contract(IVeBoostProxy)12232": {
        "encoding": "inplace",
        "label": "contract IVeBoostProxy",
        "numberOfBytes": "20"
      },
      "t_mapping(t_address,t_bool)": {
        "encoding": "mapping",
        "key": "t_address",
        "label": "mapping(address => bool)",
        "numberOfBytes": "32",
        "value": "t_bool"
      },
      "t_mapping(t_address,t_mapping(t_address,t_bool))": {
        "encoding": "mapping",
        "key": "t_address",
        "label": "mapping(address => mapping(address => bool))",
        "numberOfBytes": "32",
        "value": "t_mapping(t_address,t_bool)"
      },
      "t_mapping(t_address,t_uint256)": {
        "encoding": "mapping",
        "key": "t_address",
        "label": "mapping(address => uint256)",
        "numberOfBytes": "32",
        "value": "t_uint256"
      },
      "t_mapping(t_uint256,t_address)": {
        "encoding": "mapping",
        "key": "t_uint256",
        "label": "mapping(uint256 => address)",
        "numberOfBytes": "32",
        "value": "t_address"
      },
      "t_mapping(t_uint256,t_struct(Vault)11996_storage)": {
        "encoding": "mapping",
        "key": "t_uint256",
        "label": "mapping(uint256 => struct Vault)",
        "numberOfBytes": "32",
        "value": "t_struct(Vault)11996_storage"
      },
      "t_string_storage": {
        "encoding": "bytes",
        "label": "string",
        "numberOfBytes": "32"
      },
      "t_struct(Vault)11996_storage": {
        "encoding": "inplace",
        "label": "struct Vault",
        "members": [
          {
            "astId": 11993,
            "contract": "contracts/vaultManager/VaultManager.sol:VaultManager",
            "label": "collateralAmount",
            "offset": 0,
            "slot": "0",
            "type": "t_uint256"
          },
          {
            "astId": 11995,
            "contract": "contracts/vaultManager/VaultManager.sol:VaultManager",
            "label": "normalizedDebt",
            "offset": 0,
            "slot": "1",
            "type": "t_uint256"
          }
        ],
        "numberOfBytes": "64"
      },
      "t_uint256": {
        "encoding": "inplace",
        "label": "uint256",
        "numberOfBytes": "32"
      },
      "t_uint64": {
        "encoding": "inplace",
        "label": "uint64",
        "numberOfBytes": "8"
      }
    }
  }
}