{
  "address": "0x14486b55668C289B12B7cbb84C54f03e093F51e4",
  "abi": [
    {
      "inputs": [
        {
          "internalType": "uint256",
          "name": "dust_",
          "type": "uint256"
        },
        {
          "internalType": "uint256",
          "name": "dustCollateral_",
          "type": "uint256"
        }
      ],
      "stateMutability": "nonpayable",
      "type": "constructor"
    },
    {
      "inputs": [],
      "name": "ApprovalToCaller",
      "type": "error"
    },
    {
      "inputs": [],
      "name": "ApprovalToOwner",
      "type": "error"
    },
    {
      "inputs": [],
      "name": "DebtCeilingExceeded",
      "type": "error"
    },
    {
      "inputs": [],
      "name": "DustyLeftoverAmount",
      "type": "error"
    },
    {
      "inputs": [],
      "name": "HealthyVault",
      "type": "error"
    },
    {
      "inputs": [],
      "name": "IncompatibleLengths",
      "type": "error"
    },
    {
      "inputs": [],
      "name": "InsolventVault",
      "type": "error"
    },
    {
      "inputs": [],
      "name": "InvalidParameterType",
      "type": "error"
    },
    {
      "inputs": [],
      "name": "InvalidParameterValue",
      "type": "error"
    },
    {
      "inputs": [],
      "name": "InvalidSetOfParameters",
      "type": "error"
    },
    {
      "inputs": [],
      "name": "InvalidTreasury",
      "type": "error"
    },
    {
      "inputs": [],
      "name": "NonERC721Receiver",
      "type": "error"
    },
    {
      "inputs": [],
      "name": "NonexistentVault",
      "type": "error"
    },
    {
      "inputs": [],
      "name": "NotApproved",
      "type": "error"
    },
    {
      "inputs": [],
      "name": "NotGovernor",
      "type": "error"
    },
    {
      "inputs": [],
      "name": "NotGovernorOrGuardian",
      "type": "error"
    },
    {
      "inputs": [],
      "name": "NotTreasury",
      "type": "error"
    },
    {
      "inputs": [],
      "name": "NotVaultManager",
      "type": "error"
    },
    {
      "inputs": [],
      "name": "NotWhitelisted",
      "type": "error"
    },
    {
      "inputs": [],
      "name": "Paused",
      "type": "error"
    },
    {
      "inputs": [],
      "name": "TooHighParameterValue",
      "type": "error"
    },
    {
      "inputs": [],
      "name": "TooSmallParameterValue",
      "type": "error"
    },
    {
      "inputs": [],
      "name": "ZeroAddress",
      "type": "error"
    },
    {
      "anonymous": false,
      "inputs": [
        {
          "indexed": false,
          "internalType": "uint256",
          "name": "surplusEndValue",
          "type": "uint256"
        },
        {
          "indexed": false,
          "internalType": "uint256",
          "name": "badDebtEndValue",
          "type": "uint256"
        }
      ],
      "name": "AccruedToTreasury",
      "type": "event"
    },
    {
      "anonymous": false,
      "inputs": [
        {
          "indexed": true,
          "internalType": "address",
          "name": "owner",
          "type": "address"
        },
        {
          "indexed": true,
          "internalType": "address",
          "name": "approved",
          "type": "address"
        },
        {
          "indexed": true,
          "internalType": "uint256",
          "name": "tokenId",
          "type": "uint256"
        }
      ],
      "name": "Approval",
      "type": "event"
    },
    {
      "anonymous": false,
      "inputs": [
        {
          "indexed": true,
          "internalType": "address",
          "name": "owner",
          "type": "address"
        },
        {
          "indexed": true,
          "internalType": "address",
          "name": "operator",
          "type": "address"
        },
        {
          "indexed": false,
          "internalType": "bool",
          "name": "approved",
          "type": "bool"
        }
      ],
      "name": "ApprovalForAll",
      "type": "event"
    },
    {
      "anonymous": false,
      "inputs": [
        {
          "indexed": false,
          "internalType": "uint256",
          "name": "vaultID",
          "type": "uint256"
        },
        {
          "indexed": false,
          "internalType": "uint256",
          "name": "collateralAmount",
          "type": "uint256"
        },
        {
          "indexed": false,
          "internalType": "uint8",
          "name": "isIncrease",
          "type": "uint8"
        }
      ],
      "name": "CollateralAmountUpdated",
      "type": "event"
    },
    {
      "anonymous": false,
      "inputs": [
        {
          "indexed": false,
          "internalType": "uint256",
          "name": "debtCeiling",
          "type": "uint256"
        }
      ],
      "name": "DebtCeilingUpdated",
      "type": "event"
    },
    {
      "anonymous": false,
      "inputs": [
        {
          "indexed": false,
          "internalType": "uint64",
          "name": "param",
          "type": "uint64"
        },
        {
          "indexed": false,
          "internalType": "bytes32",
          "name": "what",
          "type": "bytes32"
        }
      ],
      "name": "FiledUint64",
      "type": "event"
    },
    {
      "anonymous": false,
      "inputs": [
        {
          "indexed": false,
          "internalType": "uint256",
          "name": "value",
          "type": "uint256"
        },
        {
          "indexed": false,
          "internalType": "uint256",
          "name": "timestamp",
          "type": "uint256"
        }
      ],
      "name": "InterestAccumulatorUpdated",
      "type": "event"
    },
    {
      "anonymous": false,
      "inputs": [
        {
          "indexed": false,
          "internalType": "uint256",
          "name": "vaultID",
          "type": "uint256"
        },
        {
          "indexed": false,
          "internalType": "uint256",
          "name": "internalAmount",
          "type": "uint256"
        },
        {
          "indexed": false,
          "internalType": "uint8",
          "name": "isIncrease",
          "type": "uint8"
        }
      ],
      "name": "InternalDebtUpdated",
      "type": "event"
    },
    {
      "anonymous": false,
      "inputs": [
        {
          "indexed": false,
          "internalType": "uint256[]",
          "name": "vaultIDs",
          "type": "uint256[]"
        }
      ],
      "name": "LiquidatedVaults",
      "type": "event"
    },
    {
      "anonymous": false,
      "inputs": [
        {
          "indexed": true,
          "internalType": "address",
          "name": "_veBoostProxy",
          "type": "address"
        },
        {
          "indexed": false,
          "internalType": "uint256[]",
          "name": "xBoost",
          "type": "uint256[]"
        },
        {
          "indexed": false,
          "internalType": "uint256[]",
          "name": "yBoost",
          "type": "uint256[]"
        }
      ],
      "name": "LiquidationBoostParametersUpdated",
      "type": "event"
    },
    {
      "anonymous": false,
      "inputs": [
        {
          "indexed": true,
          "internalType": "address",
          "name": "from",
          "type": "address"
        },
        {
          "indexed": true,
          "internalType": "address",
          "name": "to",
          "type": "address"
        },
        {
          "indexed": true,
          "internalType": "uint256",
          "name": "tokenId",
          "type": "uint256"
        }
      ],
      "name": "Transfer",
      "type": "event"
    },
    {
      "inputs": [],
      "name": "BASE_INTEREST",
      "outputs": [
        {
          "internalType": "uint256",
          "name": "",
          "type": "uint256"
        }
      ],
      "stateMutability": "view",
      "type": "function"
    },
    {
      "inputs": [],
      "name": "BASE_PARAMS",
      "outputs": [
        {
          "internalType": "uint256",
          "name": "",
          "type": "uint256"
        }
      ],
      "stateMutability": "view",
      "type": "function"
    },
    {
      "inputs": [],
      "name": "HALF_BASE_INTEREST",
      "outputs": [
        {
          "internalType": "uint256",
          "name": "",
          "type": "uint256"
        }
      ],
      "stateMutability": "view",
      "type": "function"
    },
    {
      "inputs": [],
      "name": "accrueInterestToTreasury",
      "outputs": [
        {
          "internalType": "uint256",
          "name": "surplusValue",
          "type": "uint256"
        },
        {
          "internalType": "uint256",
          "name": "badDebtValue",
          "type": "uint256"
        }
      ],
      "stateMutability": "nonpayable",
      "type": "function"
    },
    {
      "inputs": [
        {
          "internalType": "enum ActionType[]",
          "name": "actions",
          "type": "uint8[]"
        },
        {
          "internalType": "bytes[]",
          "name": "datas",
          "type": "bytes[]"
        },
        {
          "internalType": "address",
          "name": "from",
          "type": "address"
        },
        {
          "internalType": "address",
          "name": "to",
          "type": "address"
        }
      ],
      "name": "angle",
      "outputs": [
        {
          "components": [
            {
              "internalType": "uint256",
              "name": "stablecoinAmountToGive",
              "type": "uint256"
            },
            {
              "internalType": "uint256",
              "name": "stablecoinAmountToReceive",
              "type": "uint256"
            },
            {
              "internalType": "uint256",
              "name": "collateralAmountToGive",
              "type": "uint256"
            },
            {
              "internalType": "uint256",
              "name": "collateralAmountToReceive",
              "type": "uint256"
            }
          ],
          "internalType": "struct PaymentData",
          "name": "",
          "type": "tuple"
        }
      ],
      "stateMutability": "payable",
      "type": "function"
    },
    {
      "inputs": [
        {
          "internalType": "enum ActionType[]",
          "name": "actions",
          "type": "uint8[]"
        },
        {
          "internalType": "bytes[]",
          "name": "datas",
          "type": "bytes[]"
        },
        {
          "internalType": "address",
          "name": "from",
          "type": "address"
        },
        {
          "internalType": "address",
          "name": "to",
          "type": "address"
        },
        {
          "internalType": "address",
          "name": "who",
          "type": "address"
        },
        {
          "internalType": "bytes",
          "name": "repayData",
          "type": "bytes"
        }
      ],
      "name": "angle",
      "outputs": [
        {
          "components": [
            {
              "internalType": "uint256",
              "name": "stablecoinAmountToGive",
              "type": "uint256"
            },
            {
              "internalType": "uint256",
              "name": "stablecoinAmountToReceive",
              "type": "uint256"
            },
            {
              "internalType": "uint256",
              "name": "collateralAmountToGive",
              "type": "uint256"
            },
            {
              "internalType": "uint256",
              "name": "collateralAmountToReceive",
              "type": "uint256"
            }
          ],
          "internalType": "struct PaymentData",
          "name": "paymentData",
          "type": "tuple"
        }
      ],
      "stateMutability": "payable",
      "type": "function"
    },
    {
      "inputs": [
        {
          "internalType": "address",
          "name": "to",
          "type": "address"
        },
        {
          "internalType": "uint256",
          "name": "vaultID",
          "type": "uint256"
        }
      ],
      "name": "approve",
      "outputs": [],
      "stateMutability": "nonpayable",
      "type": "function"
    },
    {
      "inputs": [],
      "name": "badDebt",
      "outputs": [
        {
          "internalType": "uint256",
          "name": "",
          "type": "uint256"
        }
      ],
      "stateMutability": "view",
      "type": "function"
    },
    {
      "inputs": [
        {
          "internalType": "address",
          "name": "owner",
          "type": "address"
        }
      ],
      "name": "balanceOf",
      "outputs": [
        {
          "internalType": "uint256",
          "name": "",
          "type": "uint256"
        }
      ],
      "stateMutability": "view",
      "type": "function"
    },
    {
      "inputs": [],
      "name": "borrowFee",
      "outputs": [
        {
          "internalType": "uint64",
          "name": "",
          "type": "uint64"
        }
      ],
      "stateMutability": "view",
      "type": "function"
    },
    {
      "inputs": [
        {
          "internalType": "uint256",
          "name": "vaultID",
          "type": "uint256"
        },
        {
          "internalType": "address",
          "name": "liquidator",
          "type": "address"
        }
      ],
      "name": "checkLiquidation",
      "outputs": [
        {
          "components": [
            {
              "internalType": "uint256",
              "name": "maxStablecoinAmountToRepay",
              "type": "uint256"
            },
            {
              "internalType": "uint256",
              "name": "maxCollateralAmountGiven",
              "type": "uint256"
            },
            {
              "internalType": "uint256",
              "name": "thresholdRepayAmount",
              "type": "uint256"
            },
            {
              "internalType": "uint256",
              "name": "discount",
              "type": "uint256"
            },
            {
              "internalType": "uint256",
              "name": "currentDebt",
              "type": "uint256"
            }
          ],
          "internalType": "struct LiquidationOpportunity",
          "name": "liqOpp",
          "type": "tuple"
        }
      ],
      "stateMutability": "view",
      "type": "function"
    },
    {
      "inputs": [],
      "name": "collateral",
      "outputs": [
        {
          "internalType": "contract IERC20",
          "name": "",
          "type": "address"
        }
      ],
      "stateMutability": "view",
      "type": "function"
    },
    {
      "inputs": [],
      "name": "collateralFactor",
      "outputs": [
        {
          "internalType": "uint64",
          "name": "",
          "type": "uint64"
        }
      ],
      "stateMutability": "view",
      "type": "function"
    },
    {
      "inputs": [
        {
          "internalType": "address",
          "name": "toVault",
          "type": "address"
        }
      ],
      "name": "createVault",
      "outputs": [
        {
          "internalType": "uint256",
          "name": "",
          "type": "uint256"
        }
      ],
      "stateMutability": "nonpayable",
      "type": "function"
    },
    {
      "inputs": [],
      "name": "debtCeiling",
      "outputs": [
        {
          "internalType": "uint256",
          "name": "",
          "type": "uint256"
        }
      ],
      "stateMutability": "view",
      "type": "function"
    },
    {
      "inputs": [],
      "name": "dust",
      "outputs": [
        {
          "internalType": "uint256",
          "name": "",
          "type": "uint256"
        }
      ],
      "stateMutability": "view",
      "type": "function"
    },
    {
      "inputs": [
        {
          "internalType": "uint256",
          "name": "vaultID",
          "type": "uint256"
        }
      ],
      "name": "getApproved",
      "outputs": [
        {
          "internalType": "address",
          "name": "",
          "type": "address"
        }
      ],
      "stateMutability": "view",
      "type": "function"
    },
    {
      "inputs": [
        {
          "internalType": "address",
          "name": "spender",
          "type": "address"
        }
      ],
      "name": "getControlledVaults",
      "outputs": [
        {
          "internalType": "uint256[]",
          "name": "",
          "type": "uint256[]"
        },
        {
          "internalType": "uint256",
          "name": "",
          "type": "uint256"
        }
      ],
      "stateMutability": "view",
      "type": "function"
    },
    {
      "inputs": [
        {
          "internalType": "uint256",
          "name": "vaultID",
          "type": "uint256"
        },
        {
          "internalType": "uint256",
          "name": "stablecoinAmount",
          "type": "uint256"
        },
        {
          "internalType": "uint256",
          "name": "senderBorrowFee",
          "type": "uint256"
        },
        {
          "internalType": "uint256",
          "name": "senderRepayFee",
          "type": "uint256"
        }
      ],
      "name": "getDebtOut",
      "outputs": [],
      "stateMutability": "nonpayable",
      "type": "function"
    },
    {
      "inputs": [],
      "name": "getTotalDebt",
      "outputs": [
        {
          "internalType": "uint256",
          "name": "",
          "type": "uint256"
        }
      ],
      "stateMutability": "view",
      "type": "function"
    },
    {
      "inputs": [
        {
          "internalType": "uint256",
          "name": "vaultID",
          "type": "uint256"
        }
      ],
      "name": "getVaultDebt",
      "outputs": [
        {
          "internalType": "uint256",
          "name": "",
          "type": "uint256"
        }
      ],
      "stateMutability": "view",
      "type": "function"
    },
    {
      "inputs": [
        {
          "internalType": "contract ITreasury",
          "name": "_treasury",
          "type": "address"
        },
        {
          "internalType": "contract IERC20",
          "name": "_collateral",
          "type": "address"
        },
        {
          "internalType": "contract IOracle",
          "name": "_oracle",
          "type": "address"
        },
        {
          "components": [
            {
              "internalType": "uint256",
              "name": "debtCeiling",
              "type": "uint256"
            },
            {
              "internalType": "uint64",
              "name": "collateralFactor",
              "type": "uint64"
            },
            {
              "internalType": "uint64",
              "name": "targetHealthFactor",
              "type": "uint64"
            },
            {
              "internalType": "uint64",
              "name": "interestRate",
              "type": "uint64"
            },
            {
              "internalType": "uint64",
              "name": "liquidationSurcharge",
              "type": "uint64"
            },
            {
              "internalType": "uint64",
              "name": "maxLiquidationDiscount",
              "type": "uint64"
            },
            {
              "internalType": "bool",
              "name": "whitelistingActivated",
              "type": "bool"
            },
            {
              "internalType": "uint256",
              "name": "baseBoost",
              "type": "uint256"
            }
          ],
          "internalType": "struct VaultParameters",
          "name": "params",
          "type": "tuple"
        },
        {
          "internalType": "string",
          "name": "_symbol",
          "type": "string"
        }
      ],
      "name": "initialize",
      "outputs": [],
      "stateMutability": "nonpayable",
      "type": "function"
    },
    {
      "inputs": [],
      "name": "interestAccumulator",
      "outputs": [
        {
          "internalType": "uint256",
          "name": "",
          "type": "uint256"
        }
      ],
      "stateMutability": "view",
      "type": "function"
    },
    {
      "inputs": [],
      "name": "interestRate",
      "outputs": [
        {
          "internalType": "uint64",
          "name": "",
          "type": "uint64"
        }
      ],
      "stateMutability": "view",
      "type": "function"
    },
    {
      "inputs": [
        {
          "internalType": "address",
          "name": "owner",
          "type": "address"
        },
        {
          "internalType": "address",
          "name": "operator",
          "type": "address"
        }
      ],
      "name": "isApprovedForAll",
      "outputs": [
        {
          "internalType": "bool",
          "name": "",
          "type": "bool"
        }
      ],
      "stateMutability": "view",
      "type": "function"
    },
    {
      "inputs": [
        {
          "internalType": "address",
          "name": "spender",
          "type": "address"
        },
        {
          "internalType": "uint256",
          "name": "vaultID",
          "type": "uint256"
        }
      ],
      "name": "isApprovedOrOwner",
      "outputs": [
        {
          "internalType": "bool",
          "name": "",
          "type": "bool"
        }
      ],
      "stateMutability": "view",
      "type": "function"
    },
    {
      "inputs": [
        {
          "internalType": "address",
          "name": "",
          "type": "address"
        }
      ],
      "name": "isWhitelisted",
      "outputs": [
        {
          "internalType": "bool",
          "name": "",
          "type": "bool"
        }
      ],
      "stateMutability": "view",
      "type": "function"
    },
    {
      "inputs": [],
      "name": "lastInterestAccumulatorUpdated",
      "outputs": [
        {
          "internalType": "uint256",
          "name": "",
          "type": "uint256"
        }
      ],
      "stateMutability": "view",
      "type": "function"
    },
    {
      "inputs": [
        {
          "internalType": "uint256[]",
          "name": "vaultIDs",
          "type": "uint256[]"
        },
        {
          "internalType": "uint256[]",
          "name": "amounts",
          "type": "uint256[]"
        },
        {
          "internalType": "address",
          "name": "from",
          "type": "address"
        },
        {
          "internalType": "address",
          "name": "to",
          "type": "address"
        },
        {
          "internalType": "address",
          "name": "who",
          "type": "address"
        },
        {
          "internalType": "bytes",
          "name": "data",
          "type": "bytes"
        }
      ],
      "name": "liquidate",
      "outputs": [
        {
          "components": [
            {
              "internalType": "uint256",
              "name": "stablecoinAmountToReceive",
              "type": "uint256"
            },
            {
              "internalType": "uint256",
              "name": "collateralAmountToGive",
              "type": "uint256"
            },
            {
              "internalType": "uint256",
              "name": "badDebtFromLiquidation",
              "type": "uint256"
            },
            {
              "internalType": "uint256",
              "name": "oracleValue",
              "type": "uint256"
            },
            {
              "internalType": "uint256",
              "name": "newInterestAccumulator",
              "type": "uint256"
            }
          ],
          "internalType": "struct LiquidatorData",
          "name": "liqData",
          "type": "tuple"
        }
      ],
      "stateMutability": "nonpayable",
      "type": "function"
    },
    {
      "inputs": [
        {
          "internalType": "uint256[]",
          "name": "vaultIDs",
          "type": "uint256[]"
        },
        {
          "internalType": "uint256[]",
          "name": "amounts",
          "type": "uint256[]"
        },
        {
          "internalType": "address",
          "name": "from",
          "type": "address"
        },
        {
          "internalType": "address",
          "name": "to",
          "type": "address"
        }
      ],
      "name": "liquidate",
      "outputs": [
        {
          "components": [
            {
              "internalType": "uint256",
              "name": "stablecoinAmountToReceive",
              "type": "uint256"
            },
            {
              "internalType": "uint256",
              "name": "collateralAmountToGive",
              "type": "uint256"
            },
            {
              "internalType": "uint256",
              "name": "badDebtFromLiquidation",
              "type": "uint256"
            },
            {
              "internalType": "uint256",
              "name": "oracleValue",
              "type": "uint256"
            },
            {
              "internalType": "uint256",
              "name": "newInterestAccumulator",
              "type": "uint256"
            }
          ],
          "internalType": "struct LiquidatorData",
          "name": "",
          "type": "tuple"
        }
      ],
      "stateMutability": "nonpayable",
      "type": "function"
    },
    {
      "inputs": [],
      "name": "liquidationSurcharge",
      "outputs": [
        {
          "internalType": "uint64",
          "name": "",
          "type": "uint64"
        }
      ],
      "stateMutability": "view",
      "type": "function"
    },
    {
      "inputs": [],
      "name": "maxLiquidationDiscount",
      "outputs": [
        {
          "internalType": "uint64",
          "name": "",
          "type": "uint64"
        }
      ],
      "stateMutability": "view",
      "type": "function"
    },
    {
      "inputs": [],
      "name": "name",
      "outputs": [
        {
          "internalType": "string",
          "name": "",
          "type": "string"
        }
      ],
      "stateMutability": "view",
      "type": "function"
    },
    {
      "inputs": [],
      "name": "oracle",
      "outputs": [
        {
          "internalType": "contract IOracle",
          "name": "",
          "type": "address"
        }
      ],
      "stateMutability": "view",
      "type": "function"
    },
    {
      "inputs": [
        {
          "internalType": "uint256",
          "name": "vaultID",
          "type": "uint256"
        }
      ],
      "name": "ownerOf",
      "outputs": [
        {
          "internalType": "address",
          "name": "",
          "type": "address"
        }
      ],
      "stateMutability": "view",
      "type": "function"
    },
    {
      "inputs": [],
      "name": "paused",
      "outputs": [
        {
          "internalType": "bool",
          "name": "",
          "type": "bool"
        }
      ],
      "stateMutability": "view",
      "type": "function"
    },
    {
      "inputs": [],
      "name": "repayFee",
      "outputs": [
        {
          "internalType": "uint64",
          "name": "",
          "type": "uint64"
        }
      ],
      "stateMutability": "view",
      "type": "function"
    },
    {
      "inputs": [
        {
          "internalType": "address",
          "name": "from",
          "type": "address"
        },
        {
          "internalType": "address",
          "name": "to",
          "type": "address"
        },
        {
          "internalType": "uint256",
          "name": "vaultID",
          "type": "uint256"
        }
      ],
      "name": "safeTransferFrom",
      "outputs": [],
      "stateMutability": "nonpayable",
      "type": "function"
    },
    {
      "inputs": [
        {
          "internalType": "address",
          "name": "from",
          "type": "address"
        },
        {
          "internalType": "address",
          "name": "to",
          "type": "address"
        },
        {
          "internalType": "uint256",
          "name": "vaultID",
          "type": "uint256"
        },
        {
          "internalType": "bytes",
          "name": "_data",
          "type": "bytes"
        }
      ],
      "name": "safeTransferFrom",
      "outputs": [],
      "stateMutability": "nonpayable",
      "type": "function"
    },
    {
      "inputs": [
        {
          "internalType": "address",
          "name": "operator",
          "type": "address"
        },
        {
          "internalType": "bool",
          "name": "approved",
          "type": "bool"
        }
      ],
      "name": "setApprovalForAll",
      "outputs": [],
      "stateMutability": "nonpayable",
      "type": "function"
    },
    {
      "inputs": [
        {
          "internalType": "string",
          "name": "baseURI_",
          "type": "string"
        }
      ],
      "name": "setBaseURI",
      "outputs": [],
      "stateMutability": "nonpayable",
      "type": "function"
    },
    {
      "inputs": [
        {
          "internalType": "uint256",
          "name": "_debtCeiling",
          "type": "uint256"
        }
      ],
      "name": "setDebtCeiling",
      "outputs": [],
      "stateMutability": "nonpayable",
      "type": "function"
    },
    {
      "inputs": [
        {
          "internalType": "address",
          "name": "_veBoostProxy",
          "type": "address"
        },
        {
          "internalType": "uint256[]",
          "name": "xBoost",
          "type": "uint256[]"
        },
        {
          "internalType": "uint256[]",
          "name": "yBoost",
          "type": "uint256[]"
        }
      ],
      "name": "setLiquidationBoostParameters",
      "outputs": [],
      "stateMutability": "nonpayable",
      "type": "function"
    },
    {
      "inputs": [
        {
          "internalType": "address",
          "name": "_oracle",
          "type": "address"
        }
      ],
      "name": "setOracle",
      "outputs": [],
      "stateMutability": "nonpayable",
      "type": "function"
    },
    {
      "inputs": [
        {
          "internalType": "address",
          "name": "_treasury",
          "type": "address"
        }
      ],
      "name": "setTreasury",
      "outputs": [],
      "stateMutability": "nonpayable",
      "type": "function"
    },
    {
      "inputs": [
        {
          "internalType": "uint64",
          "name": "param",
          "type": "uint64"
        },
        {
          "internalType": "bytes32",
          "name": "what",
          "type": "bytes32"
        }
      ],
      "name": "setUint64",
      "outputs": [],
      "stateMutability": "nonpayable",
      "type": "function"
    },
    {
      "inputs": [],
      "name": "stablecoin",
      "outputs": [
        {
          "internalType": "contract IAgToken",
          "name": "",
          "type": "address"
        }
      ],
      "stateMutability": "view",
      "type": "function"
    },
    {
      "inputs": [
        {
          "internalType": "bytes4",
          "name": "interfaceId",
          "type": "bytes4"
        }
      ],
      "name": "supportsInterface",
      "outputs": [
        {
          "internalType": "bool",
          "name": "",
          "type": "bool"
        }
      ],
      "stateMutability": "pure",
      "type": "function"
    },
    {
      "inputs": [],
      "name": "surplus",
      "outputs": [
        {
          "internalType": "uint256",
          "name": "",
          "type": "uint256"
        }
      ],
      "stateMutability": "view",
      "type": "function"
    },
    {
      "inputs": [],
      "name": "symbol",
      "outputs": [
        {
          "internalType": "string",
          "name": "",
          "type": "string"
        }
      ],
      "stateMutability": "view",
      "type": "function"
    },
    {
      "inputs": [],
      "name": "targetHealthFactor",
      "outputs": [
        {
          "internalType": "uint64",
          "name": "",
          "type": "uint64"
        }
      ],
      "stateMutability": "view",
      "type": "function"
    },
    {
      "inputs": [],
      "name": "togglePause",
      "outputs": [],
      "stateMutability": "nonpayable",
      "type": "function"
    },
    {
      "inputs": [
        {
          "internalType": "address",
          "name": "target",
          "type": "address"
        }
      ],
      "name": "toggleWhitelist",
      "outputs": [],
      "stateMutability": "nonpayable",
      "type": "function"
    },
    {
      "inputs": [
        {
          "internalType": "uint256",
          "name": "vaultID",
          "type": "uint256"
        }
      ],
      "name": "tokenURI",
      "outputs": [
        {
          "internalType": "string",
          "name": "",
          "type": "string"
        }
      ],
      "stateMutability": "view",
      "type": "function"
    },
    {
      "inputs": [],
      "name": "totalNormalizedDebt",
      "outputs": [
        {
          "internalType": "uint256",
          "name": "",
          "type": "uint256"
        }
      ],
      "stateMutability": "view",
      "type": "function"
    },
    {
      "inputs": [
        {
          "internalType": "address",
          "name": "from",
          "type": "address"
        },
        {
          "internalType": "address",
          "name": "to",
          "type": "address"
        },
        {
          "internalType": "uint256",
          "name": "vaultID",
          "type": "uint256"
        }
      ],
      "name": "transferFrom",
      "outputs": [],
      "stateMutability": "nonpayable",
      "type": "function"
    },
    {
      "inputs": [],
      "name": "treasury",
      "outputs": [
        {
          "internalType": "contract ITreasury",
          "name": "",
          "type": "address"
        }
      ],
      "stateMutability": "view",
      "type": "function"
    },
    {
      "inputs": [
        {
          "internalType": "uint256",
          "name": "",
          "type": "uint256"
        }
      ],
      "name": "vaultData",
      "outputs": [
        {
          "internalType": "uint256",
          "name": "collateralAmount",
          "type": "uint256"
        },
        {
          "internalType": "uint256",
          "name": "normalizedDebt",
          "type": "uint256"
        }
      ],
      "stateMutability": "view",
      "type": "function"
    },
    {
      "inputs": [],
      "name": "vaultIDCount",
      "outputs": [
        {
          "internalType": "uint256",
          "name": "",
          "type": "uint256"
        }
      ],
      "stateMutability": "view",
      "type": "function"
    },
    {
      "inputs": [],
      "name": "veBoostProxy",
      "outputs": [
        {
          "internalType": "contract IVeBoostProxy",
          "name": "",
          "type": "address"
        }
      ],
      "stateMutability": "view",
      "type": "function"
    },
    {
      "inputs": [],
      "name": "whitelistingActivated",
      "outputs": [
        {
          "internalType": "bool",
          "name": "",
          "type": "bool"
        }
      ],
      "stateMutability": "view",
      "type": "function"
    },
    {
      "inputs": [
        {
          "internalType": "uint256",
          "name": "",
          "type": "uint256"
        }
      ],
      "name": "xLiquidationBoost",
      "outputs": [
        {
          "internalType": "uint256",
          "name": "",
          "type": "uint256"
        }
      ],
      "stateMutability": "view",
      "type": "function"
    },
    {
      "inputs": [
        {
          "internalType": "uint256",
          "name": "",
          "type": "uint256"
        }
      ],
      "name": "yLiquidationBoost",
      "outputs": [
        {
          "internalType": "uint256",
          "name": "",
          "type": "uint256"
        }
      ],
      "stateMutability": "view",
      "type": "function"
    }
  ],
  "transactionHash": "0x3095be763b53f3519cd5b9ee0d6c570c101b060bcec42a3d27572e98c05ff2d5",
  "args": [
    "10000000000000000000000",
    "10000000000000000000000"
  ],
  "solcInputHash": "eed2adc40791a6f46558ac4962d61dfc",
  "bytecode": "0x60c06040523480156200001157600080fd5b5060405162005e1638038062005e16833981016040819052620000349162000136565b60005482908290610100900460ff16620000555760005460ff16156200005f565b6200005f62000112565b620000c75760405162461bcd60e51b815260206004820152602e60248201527f496e697469616c697a61626c653a20636f6e747261637420697320616c72656160448201526d191e481a5b9a5d1a585b1a5e995960921b606482015260840160405180910390fd5b600054610100900460ff16158015620000ea576000805461ffff19166101011790555b608083905260a0829052801562000107576000805461ff00191690555b50505050506200015b565b60006200012a306200013060201b6200337c1760201c565b15905090565b3b151590565b600080604083850312156200014a57600080fd5b505080516020909101519092909150565b60805160a051615c72620001a460003960008181613a930152613ac4015260008181610ad00152818161397101528181613a0f01528181613c96015261484a0152615c726000f3fe6080604052600436106102c85760003560e01c8063010db195146102cd57806301ffc9a71461030357806306fdde0314610333578063081812fc14610355578063087a600714610375578063095ea7b3146103995780630e198f22146103bb57806313888565146103d157806323b872dd146103e7578063254cf43914610407578063307439af1461044657806334ce998a1461047357806335836f151461048857806339393ac9146104a857806339eb4dc6146104c85780633ae2325f146104e95780633af32abf146105095780633c2e941b1461053957806342842e0e1461054f578063430c20811461056f5780634f7e43df1461058f57806355f804b3146105b65780635c975abb146105d657806361d027b3146105f75780636352211e1461061757806370a082311461063757806374107543146106575780637aacfffa146106775780637adbf973146106c05780637c0f59f4146106e05780637c3a00fd146107075780637dc0d1d0146107275780637e53bd97146107475780637e56d47c14610767578063835986b41461078757806383ba59fc146107a757806389050f1d146107d557806395d89b41146107f45780639a3b6f2f146108095780639f48118f1461084f578063a22cb46514610867578063af2c8c2e14610887578063b1511cc91461089d578063b4bd6f46146108bd578063b88d4fde146108dd578063bbcac557146108fd578063c4ae316814610913578063c66d8b0114610928578063c87b56dd1461094f578063d8dfeb451461096f578063d9b1cb5b1461098f578063de1f7765146109af578063de8fc698146109ce578063df011c41146109e1578063e182b88314610a01578063e1c84ea414610a21578063e626648a14610a37578063e985e9c514610a5e578063e9cbd82214610a7e578063f0f4426014610a9e578063fad9aba314610abe578063fc29b02114610af2578063fd527cf814610b12575b600080fd5b3480156102d957600080fd5b506037546102ed906001600160a01b031681565b6040516102fa9190614cc2565b60405180910390f35b34801561030f57600080fd5b5061032361031e366004614cec565b610b27565b60405190151581526020016102fa565b34801561033f57600080fd5b50610348610b8c565b6040516102fa9190614d61565b34801561036157600080fd5b506102ed610370366004614d74565b610c1a565b34801561038157600080fd5b5061038b603f5481565b6040519081526020016102fa565b3480156103a557600080fd5b506103b96103b4366004614da2565b610c4b565b005b3480156103c757600080fd5b5061038b603e5481565b3480156103dd57600080fd5b5061038b60415481565b3480156103f357600080fd5b506103b9610402366004614dce565b610cd8565b34801561041357600080fd5b50603c5461042e90600160401b90046001600160401b031681565b6040516001600160401b0390911681526020016102fa565b34801561045257600080fd5b50610466610461366004614e0f565b610d13565b6040516102fa9190614e3f565b34801561047f57600080fd5b5061038b610dc5565b34801561049457600080fd5b5061038b6104a3366004614d74565b610df7565b3480156104b457600080fd5b506103b96104c3366004614e78565b610e33565b3480156104d457600080fd5b50603d5461032390600160c01b900460ff1681565b3480156104f557600080fd5b5061038b610504366004614d74565b610f1c565b34801561051557600080fd5b50610323610524366004614e78565b60446020526000908152604090205460ff1681565b34801561054557600080fd5b5061038b60455481565b34801561055b57600080fd5b506103b961056a366004614dce565b610f3d565b34801561057b57600080fd5b5061032361058a366004614da2565b610f58565b34801561059b57600080fd5b50603d5461042e90600160801b90046001600160401b031681565b3480156105c257600080fd5b506103b96105d1366004614f4a565b610f64565b3480156105e257600080fd5b50603d5461032390600160c81b900460ff1681565b34801561060357600080fd5b506033546102ed906001600160a01b031681565b34801561062357600080fd5b506102ed610632366004614d74565b611009565b34801561064357600080fd5b5061038b610652366004614e78565b611014565b34801561066357600080fd5b506103b9610672366004614f95565b611059565b34801561068357600080fd5b506106ab610692366004614d74565b6043602052600090815260409020805460019091015482565b604080519283526020830191909152016102fa565b3480156106cc57600080fd5b506103b96106db366004614e78565b611425565b3480156106ec57600080fd5b50603c5461042e90600160c01b90046001600160401b031681565b34801561071357600080fd5b50603d5461042e906001600160401b031681565b34801561073357600080fd5b506036546102ed906001600160a01b031681565b34801561075357600080fd5b506103b961076236600461503f565b61156c565b34801561077357600080fd5b506104666107823660046150b4565b61175d565b34801561079357600080fd5b506103b96107a2366004615178565b611cbd565b3480156107b357600080fd5b506107c76107c2366004614e78565b611e75565b6040516102fa9291906151e5565b3480156107e157600080fd5b5061038b676765c793fa10079d601a1b81565b34801561080057600080fd5b50610348611f95565b61081c6108173660046152ef565b611fa2565b6040516102fa91908151815260208083015190820152604080830151908201526060918201519181019190915260800190565b34801561085b57600080fd5b5061038b633b9aca0081565b34801561087357600080fd5b506103b9610882366004615385565b611fd7565b34801561089357600080fd5b5061038b60405481565b3480156108a957600080fd5b506103b96108b8366004614d74565b61206d565b3480156108c957600080fd5b5061038b6108d8366004614e78565b612136565b3480156108e957600080fd5b506103b96108f83660046153b3565b612172565b34801561090957600080fd5b5061038b60425481565b34801561091f57600080fd5b506103b96121af565b34801561093457600080fd5b50603d5461042e90600160401b90046001600160401b031681565b34801561095b57600080fd5b5061034861096a366004614d74565b61225e565b34801561097b57600080fd5b506034546102ed906001600160a01b031681565b34801561099b57600080fd5b506103b96109aa36600461541e565b6123b7565b3480156109bb57600080fd5b5061038b676765c793fa10079d601b1b81565b61081c6109dc3660046154b2565b6128fc565b3480156109ed57600080fd5b50603c5461042e906001600160401b031681565b348015610a0d57600080fd5b5061038b610a1c366004614d74565b613155565b348015610a2d57600080fd5b5061038b60395481565b348015610a4357600080fd5b50603c5461042e90600160801b90046001600160401b031681565b348015610a6a57600080fd5b50610323610a79366004615510565b613165565b348015610a8a57600080fd5b506035546102ed906001600160a01b031681565b348015610aaa57600080fd5b506103b9610ab9366004614e78565b613193565b348015610aca57600080fd5b5061038b7f000000000000000000000000000000000000000000000000000000000000000081565b348015610afe57600080fd5b50610466610b0d36600461553e565b613233565b348015610b1e57600080fd5b506106ab61325d565b60006001600160e01b03198216635b5e139f60e01b1480610b5857506001600160e01b031982166380ac58cd60e01b145b80610b6b57506001600160e01b03198216155b80610b8657506001600160e01b031982166301ffc9a760e01b145b92915050565b607d8054610b999061559a565b80601f0160208091040260200160405190810160405280929190818152602001828054610bc59061559a565b8015610c125780601f10610be757610100808354040283529160200191610c12565b820191906000526020600020905b815481529060010190602001808311610bf557829003601f168201915b505050505081565b6000610c2582613382565b610c425760405163062a39dd60e11b815260040160405180910390fd5b610b868261339f565b6000610c56826133ba565b9050806001600160a01b0316836001600160a01b03161415610c8b576040516349fa8bc360e11b815260040160405180910390fd5b336001600160a01b03821614801590610cab5750610ca98133613165565b155b15610cc95760405163c19f17a960e01b815260040160405180910390fd5b610cd383836133f0565b505050565b3381610ce4828261345e565b610d015760405163c19f17a960e01b815260040160405180910390fd5b610d0c8585856134dc565b5050505050565b610d1b614b98565b60008381526043602090815260409182902082518084018452815481526001909101548183015260365483516315f789a960e21b81529351610dbe94929387936001600160a01b03909316926357de26a492600480830193928290030181865afa158015610d8d573d6000803e3d6000fd5b505050506040513d601f19601f82011682018060405250810190610db191906155cf565b610db9613603565b613798565b9392505050565b6000676765c793fa10079d601b1b610ddb613603565b604054610de891906155fe565b610df29190615633565b905090565b6000676765c793fa10079d601b1b610e0d613603565b600084815260436020526040902060010154610e2991906155fe565b610b869190615633565b603354604051631c86b03760e31b81526001600160a01b039091169063e43581b890610e63903390600401614cc2565b602060405180830381865afa158015610e80573d6000803e3d6000fd5b505050506040513d601f19601f82011682018060405250810190610ea49190615647565b610ec157604051633b8d9d7560e21b815260040160405180910390fd5b6001600160a01b03811615610ef9576001600160a01b03166000908152604460205260409020805460ff81161560ff19909116179055565b603d805460ff60c01b198116600160c01b9182900460ff16159091021790555b50565b603b8181548110610f2c57600080fd5b600091825260209091200154905081565b610cd383838360405180602001604052806000815250612172565b6000610dbe838361345e565b60335460405163521d4de960e01b81526001600160a01b039091169063521d4de990610f94903390600401614cc2565b602060405180830381865afa158015610fb1573d6000803e3d6000fd5b505050506040513d601f19601f82011682018060405250810190610fd59190615647565b610ff257604051632678482f60e21b815260040160405180910390fd5b8051611005906046906020840190614bc7565b5050565b6000610b86826133ba565b60006001600160a01b03821661103d5760405163d92e233d60e01b815260040160405180910390fd5b506001600160a01b031660009081526048602052604090205490565b60335460405163521d4de960e01b81526001600160a01b039091169063521d4de990611089903390600401614cc2565b602060405180830381865afa1580156110a6573d6000803e3d6000fd5b505050506040513d601f19601f820116820180604052508101906110ca9190615647565b6110e757604051632678482f60e21b815260040160405180910390fd5b806121a360f11b141561114b57603d546001600160401b03600160401b9091048116908316111561112b57604051637650e96360e11b815260040160405180910390fd5b603c80546001600160401b0319166001600160401b0384161790556113de565b80622a242360e91b14156111b057633b9aca00826001600160401b031610156111875760405163da6a17b960e01b815260040160405180910390fd5b603c8054600160401b600160801b031916600160401b6001600160401b038516021790556113de565b8061212360f11b141561121457633b9aca00826001600160401b031611156111eb57604051637650e96360e11b815260040160405180910390fd5b603c8054600160801b600160c01b031916600160801b6001600160401b038516021790556113de565b8061292360f11b141561129157603d54633b9aca009061124490600160401b90046001600160401b031684615664565b6001600160401b0316111561126c57604051637650e96360e11b815260040160405180910390fd5b603c80546001600160c01b0316600160c01b6001600160401b038516021790556113de565b806124a960f11b14156112c7576112a6613b3e565b50603d80546001600160401b0319166001600160401b0384161790556113de565b80614c5360f01b141561136057603c546001600160401b03808416911611806113195750603c54633b9aca009061130e90600160c01b90046001600160401b031684615664565b6001600160401b0316115b156113375760405163180d062b60e31b815260040160405180910390fd5b603d8054600160401b600160801b031916600160401b6001600160401b038516021790556113de565b806213531160ea1b14156113c557633b9aca00826001600160401b0316111561139c57604051637650e96360e11b815260040160405180910390fd5b603d8054600160801b600160c01b031916600160801b6001600160401b038516021790556113de565b60405163e1daa9cf60e01b815260040160405180910390fd5b604080516001600160401b0384168152602081018390527f13b367dac93b85d1ed9b3d8961d8b48e1a677c9800bb1613b4b0416b2d5b61d091015b60405180910390a15050565b603354604051631c86b03760e31b81526001600160a01b039091169063e43581b890611455903390600401614cc2565b602060405180830381865afa158015611472573d6000803e3d6000fd5b505050506040513d601f19601f820116820180604052508101906114969190615647565b6114b357604051633b8d9d7560e21b815260040160405180910390fd5b603354604080516361d027b360e01b815290516001600160a01b03928316928416916361d027b39160048083019260209291908290030181865afa1580156114ff573d6000803e3d6000fd5b505050506040513d601f19601f82011682018060405250810190611523919061568f565b6001600160a01b03161461154a576040516302979eb960e31b815260040160405180910390fd5b603680546001600160a01b0319166001600160a01b0392909216919091179055565b60335460405163521d4de960e01b81526001600160a01b039091169063521d4de99061159c903390600401614cc2565b602060405180830381865afa1580156115b9573d6000803e3d6000fd5b505050506040513d601f19601f820116820180604052508101906115dd9190615647565b6115fa57604051632678482f60e21b815260040160405180910390fd5b80518251141580611625575080600081518110611619576116196156ac565b60200260200101516000145b806116b457506001600160a01b038316158015906116b4575081600081518110611651576116516156ac565b60200260200101518260018151811061166c5761166c6156ac565b60200260200101511115806116b457508060008151811061168f5761168f6156ac565b6020026020010151816001815181106116aa576116aa6156ac565b6020026020010151105b156116d257604051631746545d60e11b815260040160405180910390fd5b603780546001600160a01b0319166001600160a01b038516179055815161170090603a906020850190614c4b565b50805161171490603b906020840190614c4b565b50826001600160a01b03167feb74d4d9fea592587c926aeb35eb6a7893fb28db0c1c8eb2eb3c586e7164b76c83836040516117509291906156c2565b60405180910390a2505050565b611765614b98565b603d54600160c81b900460ff1615611790576040516313d0ff5960e31b815260040160405180910390fd5b600260015414156117bc5760405162461bcd60e51b81526004016117b3906156e7565b60405180910390fd5b600260015585518751146117e3576040516346282e8d60e01b815260040160405180910390fd5b603660009054906101000a90046001600160a01b03166001600160a01b03166357de26a46040518163ffffffff1660e01b8152600401602060405180830381865afa158015611836573d6000803e3d6000fd5b505050506040513d601f19601f8201168201806040525081019061185a91906155cf565b6060820152611867613b3e565b60808201526040517f965a177723c641ee49150b583a0b9ad4730bb20d3474e00ae5a65e777c00d67b9061189c90899061571e565b60405180910390a160005b8751811015611c2e576000604360008a84815181106118c8576118c86156ac565b602002602001015181526020019081526020016000206040518060400160405290816000820154815260200160018201548152505090506000611915823386606001518760800151613798565b9050600081604001511180156119475750806040015189848151811061193d5761193d6156ac565b6020026020010151115b8061196e57508060000151898481518110611964576119646156ac565b6020026020010151115b1561199757806000015189848151811061198a5761198a6156ac565b6020026020010181815250505b6000846060015182606001516119ad91906155fe565b603854633b9aca008c87815181106119c7576119c76156ac565b60200260200101516119d991906155fe565b6119e391906155fe565b6119ed9190615633565b905080836000015111611b1057508151602083015160408054600090611a14908490615731565b92505081905550604360008c8681518110611a3157611a316156ac565b6020908102919091018101518252810191909152604001600090812081815560010155603d548a51633b9aca0091600160401b90046001600160401b0316908c9087908110611a8257611a826156ac565b6020026020010151611a9491906155fe565b611a9e9190615633565b8260800151611aad9190615731565b85604001818151611abe9190615748565b9052508a51600080516020615bdd833981519152908c9086908110611ae557611ae56156ac565b602002602001015184602001516000604051611b0393929190615760565b60405180910390a1611bd1565b80604360008d8781518110611b2757611b276156ac565b602002602001015181526020019081526020016000206000016000828254611b4f9190615731565b92505081905550611bcf8b8581518110611b6b57611b6b6156ac565b6020026020010151633b9aca00603d60089054906101000a90046001600160401b03166001600160401b03168d8881518110611ba957611ba96156ac565b6020026020010151611bbb91906155fe565b611bc59190615633565b8760800151613bdf565b505b8085602001818151611be39190615748565b90525089518a9085908110611bfa57611bfa6156ac565b602002602001015185600001818151611c139190615748565b905250839250611c269150829050615779565b9150506118a7565b50603d54633b9aca0090611c5290600160401b90046001600160401b031682615731565b8251611c5e91906155fe565b611c689190615633565b60416000828254611c799190615748565b9091555050604081015160428054600090611c95908490615748565b909155505060208101518151611caf919087878787613d2a565b600180559695505050505050565b603d54600160c81b900460ff1615611ce8576040516313d0ff5960e31b815260040160405180910390fd5b6033546040516333b52a9f60e11b81526001600160a01b039091169063676a553e90611d18903390600401614cc2565b602060405180830381865afa158015611d35573d6000803e3d6000fd5b505050506040513d601f19601f82011682018060405250810190611d599190615647565b611d765760405163027f480760e01b815260040160405180910390fd5b603c54600090600160c01b90046001600160401b0316821015611db457603c54611db1908390600160c01b90046001600160401b0316615731565b90505b603c54600090600160801b90046001600160401b0316841115611df157603c54611dee90600160801b90046001600160401b031685615731565b90505b6000611e026002633b9aca00615878565b611e1083633b9aca00615731565b611e1e85633b9aca00615731565b611e2890896155fe565b611e3291906155fe565b611e3c9190615633565b9050611e488187615731565b60416000828254611e599190615748565b90915550611e6b905087826000613bdf565b5050505050505050565b60455460609060009081816001600160401b03811115611e9757611e97614e95565b604051908082528060200260200182016040528015611ec0578160200160208202803683370190505b50905060008060015b848111611f87576000818152604760205260409020546001600160a01b0390811693508816831480611f145750876001600160a01b0316611f098261339f565b6001600160a01b0316145b80611f4457506001600160a01b038084166000908152604a60209081526040808320938c168352929052205460ff165b15611f755780848381518110611f5c57611f5c6156ac565b6020908102919091010152611f72600183615748565b91505b80611f7f81615779565b915050611ec9565b509196919550909350505050565b607e8054610b999061559a565b611faa614c85565b60408051600080825260208201909252611fcc918791879187918791906128fc565b90505b949350505050565b6001600160a01b038216331415612001576040516320c5195360e21b815260040160405180910390fd5b336000818152604a602090815260408083206001600160a01b03871680855290835292819020805460ff191686151590811790915590519081529192917f17307eab39ab6107e8899845ad3d59bd9653f200f220920489ca2b5937696c31910160405180910390a35050565b60335460405163521d4de960e01b81526001600160a01b039091169063521d4de99061209d903390600401614cc2565b602060405180830381865afa1580156120ba573d6000803e3d6000fd5b505050506040513d601f19601f820116820180604052508101906120de9190615647565b6120fb57604051632678482f60e21b815260040160405180910390fd5b60398190556040518181527fdd63b3dcdbebad734892f7c7a26d0f647fbc7eec973e0775f5229018ac4ab47a9060200160405180910390a150565b603d54600090600160c81b900460ff1615612164576040516313d0ff5960e31b815260040160405180910390fd5b610b8682613e34565b919050565b338261217e828261345e565b61219b5760405163c19f17a960e01b815260040160405180910390fd5b6121a786868686613f3e565b505050505050565b60335460405163521d4de960e01b81526001600160a01b039091169063521d4de9906121df903390600401614cc2565b602060405180830381865afa1580156121fc573d6000803e3d6000fd5b505050506040513d601f19601f820116820180604052508101906122209190615647565b61223d57604051632678482f60e21b815260040160405180910390fd5b603d805460ff60c81b198116600160c81b9182900460ff1615909102179055565b606061226982613382565b6122865760405163062a39dd60e11b815260040160405180910390fd5b8160005b81156122b0578061229a81615779565b91506122a99050600a83615633565b915061228a565b6000816001600160401b038111156122ca576122ca614e95565b6040519080825280601f01601f1916602001820160405280156122f4576020820181803683370190505b5090505b841561235f57612309600183615731565b9150612316600a86615887565b612321906030615748565b60f81b818381518110612336576123366156ac565b60200101906001600160f81b031916908160001a905350612358600a86615633565b94506122f8565b60006046805461236e9061559a565b90501161238a57604051806020016040528060008152506123ae565b60468160405160200161239e9291906158b7565b6040516020818303038152906040525b95945050505050565b600054610100900460ff166123d25760005460ff16156123d6565b303b155b6124395760405162461bcd60e51b815260206004820152602e60248201527f496e697469616c697a61626c653a20636f6e747261637420697320616c72656160448201526d191e481a5b9a5d1a585b1a5e995960921b60648201526084016117b3565b600054610100900460ff1615801561245b576000805461ffff19166101011790555b856001600160a01b0316846001600160a01b03166361d027b36040518163ffffffff1660e01b8152600401602060405180830381865afa1580156124a3573d6000803e3d6000fd5b505050506040513d601f19601f820116820180604052508101906124c7919061568f565b6001600160a01b0316146124ee576040516302979eb960e31b815260040160405180910390fd5b603380546001600160a01b038089166001600160a01b0319928316179092556034805492881692909116821790556040805163313ce56760e01b8152905163313ce567916004808201926020929091908290030181865afa158015612557573d6000803e3d6000fd5b505050506040513d601f19601f8201168201806040525081019061257b9190615955565b61258690600a615878565b603881905550856001600160a01b031663e9cbd8226040518163ffffffff1660e01b8152600401602060405180830381865afa1580156125ca573d6000803e3d6000fd5b505050506040513d601f19601f820116820180604052508101906125ee919061568f565b603580546001600160a01b03199081166001600160a01b03938416179091556036805490911691861691909117905560405161262e908390602001615978565b604051602081830303815290604052607d9080519060200190612652929190614bc7565b508160405160200161266491906159bf565b604051602081830303815290604052607e9080519060200190612688929190614bc7565b50676765c793fa10079d601b1b603f5542603e556126ac60a08401608085016159e9565b6001600160401b03166126c560408501602086016159e9565b6001600160401b031611806126f55750633b9aca006126ea60a08501608086016159e9565b6001600160401b0316115b8061271b575061270b60608401604085016159e9565b6001600160401b0316633b9aca00115b806127425750633b9aca0061273660c0850160a086016159e9565b6001600160401b031610155b8061274f575060e0830135155b1561276d57604051631746545d60e11b815260040160405180910390fd5b823560395561278260408401602085016159e9565b603c80546001600160401b0319166001600160401b03929092169190911790556127b260608401604085016159e9565b603c80546001600160401b0392909216600160401b02600160401b600160801b03199092169190911790556127ed60808401606085016159e9565b603d80546001600160401b0319166001600160401b039290921691909117905561281d60a08401608085016159e9565b603d80546001600160401b0392909216600160401b02600160401b600160801b031990921691909117905561285860c0840160a085016159e9565b603d80546001600160401b0392909216600160801b02600160801b600160c01b031990921691909117905561289360e0840160c08501615a04565b603d8054911515600160c01b0260ff60c01b19909216919091179055604080516020810190915260e084013581526128cf90603b906001614c4b565b50603d805460ff60c81b1916600160c81b17905580156121a7576000805461ff0019169055505050505050565b612904614c85565b603d54600160c81b900460ff161561292f576040516313d0ff5960e31b815260040160405180910390fd5b600260015414156129525760405162461bcd60e51b81526004016117b3906156e7565b6002600155600080808080805b8c51811015612ebe5760008d828151811061297c5761297c6156ac565b602002602001015190506000600781111561299957612999615a21565b8160078111156129ab576129ab615a21565b14156129ec576129e68d83815181106129c6576129c66156ac565b60200260200101518060200190518101906129e1919061568f565b613e34565b50612eab565b6002816007811115612a0057612a00615a21565b1415612a66578c8281518110612a1857612a186156ac565b6020026020010151806020019051810190612a339190615a37565b9550925082612a425760455492505b612a4c8386613f78565b8488606001818151612a5e9190615748565b905250612eab565b6007816007811115612a7a57612a7a615a21565b1415612b535760008060008f8581518110612a9757612a976156ac565b6020026020010151806020019051810190612ab29190615a5b565b60345460405163d505accf60e01b81526001600160a01b038089166004830152306024830152604482018890526064820187905260ff8616608483015260a4820185905260c48201849052969f50939d50939b509497509550929350169063d505accf9060e401600060405180830381600087803b158015612b3357600080fd5b505af1158015612b47573d6000803e3d6000fd5b50505050505050612eab565b86612b6357612b60613b3e565b96505b6004816007811115612b7757612b77615a21565b1415612c43578c8281518110612b8f57612b8f6156ac565b6020026020010151806020019051810190612baa9190615a37565b9450925082612bb95760455492505b612bc4838589613bdf565b603c54909450600090612beb90600160c01b90046001600160401b0316633b9aca00615731565b612bf9633b9aca00876155fe565b612c039190615633565b9050612c0f8582615731565b60416000828254612c209190615748565b925050819055508089602001818151612c399190615748565b905250612eab9050565b85612cc257603660009054906101000a90046001600160a01b03166001600160a01b03166357de26a46040518163ffffffff1660e01b8152600401602060405180830381865afa158015612c9b573d6000803e3d6000fd5b505050506040513d601f19601f82011682018060405250810190612cbf91906155cf565b95505b6001816007811115612cd657612cd6615a21565b1415612d52578c8281518110612cee57612cee6156ac565b6020026020010151806020019051810190612d0991906155cf565b925082612d165760455492505b612d21838789613fbe565b80965081955050508488604001818151612d3b9190615748565b905250602088018051859190612a5e908390615748565b6003816007811115612d6657612d66615a21565b1415612dc6578c8281518110612d7e57612d7e6156ac565b6020026020010151806020019051810190612d999190615a37565b9550925082612da85760455492505b612db48386888a6140de565b8488604001818151612a5e9190615748565b6005816007811115612dda57612dda615a21565b1415612e3c578c8281518110612df257612df26156ac565b6020026020010151806020019051810190612e0d9190615a37565b9450925082612e1c5760455492505b612e288385888a6141b8565b93508388600001818151612a5e9190615748565b6006816007811115612e5057612e50615a21565b1415612eab576000808e8481518110612e6b57612e6b6156ac565b6020026020010151806020019051810190612e869190615aae565b98509196509250905084612e9a5760455494505b612ea8858383898c8e614253565b50505b5080612eb681615779565b91505061295f565b508551602087015110612fb55785516020870151600091612ede91615731565b90508660600151876040015110612f1557612f1087606001518860400151612f069190615731565b828d8d8d8d613d2a565b612faf565b8015612f8257603554604051630d43af8160e21b81526001600160a01b039091169063350ebe0490612f4f9084908f903390600401615aec565b600060405180830381600087803b158015612f6957600080fd5b505af1158015612f7d573d6000803e3d6000fd5b505050505b612faf333089604001518a60600151612f9b9190615731565b6034546001600160a01b0316929190614340565b50613141565b60208601518651600091612fc891615731565b6035546040516340c10f1960e01b81529192506001600160a01b0316906340c10f1990612ffb908d908590600401615b0b565b600060405180830381600087803b15801561301557600080fd5b505af1158015613029573d6000803e3d6000fd5b5050505086606001518760400151111561306d576130688a886060015189604001516130559190615731565b6034546001600160a01b031691906143ab565b61313f565b6000876040015188606001516130839190615731565b9050801561313d5788511561312557896001600160a01b031663a5d4096b603560009054906101000a90046001600160a01b0316603460009054906101000a90046001600160a01b03163386868f6040518763ffffffff1660e01b81526004016130f296959493929190615b24565b600060405180830381600087803b15801561310c57600080fd5b505af1158015613120573d6000803e3d6000fd5b505050505b60345461313d906001600160a01b0316333084614340565b505b505b505060018055509198975050505050505050565b603a8181548110610f2c57600080fd5b6001600160a01b039182166000908152604a6020908152604080832093909416825291909152205460ff1690565b6033546001600160a01b031633146131be5760405163b90cdbb160e01b815260040160405180910390fd5b603380546001600160a01b0319166001600160a01b0383811691909117909155603654604051630787a21360e51b815291169063f0f4426090613205908490600401614cc2565b600060405180830381600087803b15801561321f57600080fd5b505af1158015610d0c573d6000803e3d6000fd5b61323b614b98565b60408051600080825260208201909252611fcc9187918791879187919061175d565b60335460009081906001600160a01b0316331461328d5760405163b90cdbb160e01b815260040160405180910390fd5b613295613b3e565b5060415491506042549050808210613324576132b18183615731565b6035546033546040516340c10f1960e01b8152929450600093506001600160a01b03918216926340c10f19926132ed9216908690600401615b0b565b600060405180830381600087803b15801561330757600080fd5b505af115801561331b573d6000803e3d6000fd5b50505050613335565b61332e8282615731565b9050600091505b6000604181905560425560408051838152602081018390527ffeb12225c131aab793a00c5239afb778932d170fa28ce6e9d23703e4bd892121910160405180910390a19091565b3b151590565b6000908152604760205260409020546001600160a01b0316151590565b6000908152604960205260409020546001600160a01b031690565b6000818152604760205260409020546001600160a01b03168061216d5760405163062a39dd60e11b815260040160405180910390fd5b600081815260496020526040902080546001600160a01b0319166001600160a01b0384169081179091558190613425826133ba565b6001600160a01b03167f8c5be1e5ebec7d5bd14f71427d1e84f3dd0314c0f7b2291e5b200ac8c7c3b92560405160405180910390a45050565b60008061346a836133ba565b9050806001600160a01b0316846001600160a01b031614806134a55750836001600160a01b031661349a8461339f565b6001600160a01b0316145b80611fcf57506001600160a01b038082166000908152604a602090815260408083209388168352929052205460ff16949350505050565b826001600160a01b03166134ef826133ba565b6001600160a01b0316146135165760405163c19f17a960e01b815260040160405180910390fd5b6001600160a01b03821661353d5760405163d92e233d60e01b815260040160405180910390fd5b603d54600160c01b900460ff16801561356f57506001600160a01b03821660009081526044602052604090205460ff16155b1561358d57604051630b094f2760e31b815260040160405180910390fd5b6135986000826133f0565b6001600160a01b038084166000818152604860209081526040808320805460001901905593861680835284832080546001019055858352604790915283822080546001600160a01b03191682179055925184939291600080516020615c1d83398151915291a4505050565b600080603e54426136149190615731565b603d549091506001600160401b031681158061362e575080155b1561363d57603f549250505090565b600061364a600184615731565b905060006002841161365d576000613668565b613668600285615731565b90506000676765c793fa10079d601b1b676765c793fa10079d601a1b61368e86806155fe565b6136989190615748565b6136a29190615633565b90506000676765c793fa10079d601b1b676765c793fa10079d601a1b6136c887856155fe565b6136d29190615748565b6136dc9190615633565b905060006002836136ed878a6155fe565b6136f791906155fe565b6137019190615633565b9050600060068386613713898c6155fe565b61371d91906155fe565b61372791906155fe565b6137319190615633565b9050676765c793fa10079d601b1b818361374b8b8b6155fe565b61376090676765c793fa10079d601b1b615748565b61376a9190615748565b6137749190615748565b603f5461378191906155fe565b61378b9190615633565b9850505050505050505090565b6137a0614b98565b60008060006137b08887876143ca565b925092509250633b9aca0083106137da576040516315fe9b6160e21b815260040160405180910390fd5b6000633b9aca006137eb8582615731565b6137f48a614453565b6137fe91906155fe565b6138089190615633565b603d54909150600160801b90046001600160401b03168110156138385761383381633b9aca00615731565b613859565b603d5461385990600160801b90046001600160401b0316633b9aca00615731565b603d54909150600160401b90046001600160401b03166000806138816002633b9aca00615878565b603c5461389791906001600160401b03166155fe565b836138a2868a6155fe565b6138ac91906155fe565b10613a5057603c546001600160401b03166138cc6002633b9aca00615878565b6138d691906155fe565b603c5485906138f590600160401b90046001600160401b0316866155fe565b6138ff91906155fe565b6139099190615731565b603c548590633b9aca0090613927906001600160401b0316896155fe565b603c54613945908b90600160401b90046001600160401b03166155fe565b61394f9190615731565b61395991906155fe565b61396391906155fe565b61396d9190615633565b91507f0000000000000000000000000000000000000000000000000000000000000000633b9aca0061399f85856155fe565b6139a99190615633565b6139b39190615748565b8611613a4b576139ce676765c793fa10079d601b1b846155fe565b633b9aca008a8e602001516139e391906155fe565b6139ed91906155fe565b6139f79190615633565b613a02906001615748565b915082633b9aca00613a347f000000000000000000000000000000000000000000000000000000000000000089615731565b613a3e91906155fe565b613a489190615633565b90505b613aec565b603854613a6190633b9aca006155fe565b8c518b90613a709087906155fe565b613a7a91906155fe565b613a849190615633565b613a8f906001615748565b91507f0000000000000000000000000000000000000000000000000000000000000000851115613ae957633b9aca0084613a347f000000000000000000000000000000000000000000000000000000000000000088615731565b50805b818852613af9848b6155fe565b603854613b0a633b9aca00856155fe565b613b1491906155fe565b613b1e9190615633565b602089015260408801525050606085015250608083015250949350505050565b6000613b48613603565b90506000676765c793fa10079d601b1b603f5483613b669190615731565b604054613b7391906155fe565b613b7d9190615633565b90508060416000828254613b919190615748565b9091555050603f82905542603e8190556040805184815260208101929092527fd1fa8ba00a3bf20274346919dce0de62d2a140af2c71fe7e29fa6472eea3bb9d910160405180910390a15090565b600081613bf157613bee613b3e565b91505b60008481526043602052604081206001015490676765c793fa10079d601b1b613c1a85846155fe565b613c249190615633565b9050808510613c3557935080613c58565b83613c4b676765c793fa10079d601b1b876155fe565b613c559190615633565b90505b613c628183615731565b91508060406000828254613c769190615731565b90915550508115801590613cc75750613cba676765c793fa10079d601b1b7f00000000000000000000000000000000000000000000000000000000000000006155fe565b613cc485846155fe565b11155b15613ce55760405163228af07f60e21b815260040160405180910390fd5b60008681526043602052604080822060010184905551600080516020615bdd83398151915291613d189189918591615760565b60405180910390a15092949350505050565b8515613d4757603454613d47906001600160a01b031684886143ab565b84156121a757805115613dc65760345460355460405163a5d4096b60e01b81526001600160a01b038086169363a5d4096b93613d939391831692169089908b908d908990600401615b24565b600060405180830381600087803b158015613dad57600080fd5b505af1158015613dc1573d6000803e3d6000fd5b505050505b603554604051630d43af8160e21b81526001600160a01b039091169063350ebe0490613dfa90889088903390600401615aec565b600060405180830381600087803b158015613e1457600080fd5b505af1158015613e28573d6000803e3d6000fd5b50505050505050505050565b603d54600090600160c01b900460ff168015613e8357506001600160a01b03821660009081526044602052604090205460ff161580613e8357503360009081526044602052604090205460ff16155b15613ea157604051630b094f2760e31b815260040160405180910390fd5b5060458054600190810182556001600160a01b038316600081815260486020908152604080832080549095019094559354808252604790945282812080546001600160a01b031916831790559151839290600080516020615c1d833981519152908290a4613f216000838360405180602001604052806000815250614682565b61216d576040516320149b4360e21b815260040160405180910390fd5b613f498484846134dc565b613f5584848484614682565b613f72576040516320149b4360e21b815260040160405180910390fd5b50505050565b60008281526043602052604081208054839290613f96908490615748565b9091555050604051600080516020615bfd833981519152906114199084908490600190615760565b6000803385613fcd828261345e565b613fea5760405163c19f17a960e01b815260040160405180910390fd5b60008781526043602090815260408083208151808301909252805482526001015491810191909152908061401f838a8a6143ca565b5091509150633b9aca00821161404857604051631527804d60e31b815260040160405180910390fd5b82602001516040600082825461405e9190615731565b9091555061406d90508a61477e565b603c5460009061409190600160c01b90046001600160401b0316633b9aca00615731565b61409f633b9aca00846155fe565b6140a99190615633565b90506140b58282615731565b604160008282546140c69190615748565b90915550509251929a92995091975050505050505050565b33846140ea828261345e565b6141075760405163c19f17a960e01b815260040160405180910390fd5b60008681526043602052604081208054879290614125908490615731565b90915550506000868152604360209081526040808320815180830190925280548252600101549181019190915261415d9086866143ca565b50509050633b9aca00811161418557604051631527804d60e31b815260040160405180910390fd5b600080516020615bfd833981519152878760006040516141a793929190615760565b60405180910390a150505050505050565b600033856141c6828261345e565b6141e35760405163c19f17a960e01b815260040160405180910390fd5b6141ef878787876147fd565b603c54909650600090633b9aca0090614219908990600160801b90046001600160401b03166155fe565b6142239190615633565b905080604160008282546142379190615748565b9091555061424790508188615731565b98975050505050505050565b338661425f828261345e565b61427c5760405163c19f17a960e01b815260040160405180910390fd5b614288888686866147fd565b94506001600160a01b0387163014156142ac576142a6868685613bdf565b50611e6b565b603c546040516320d661ad60e21b815260048101889052602481018790526001600160401b03600160801b830481166044830152600160c01b90920490911660648201526001600160a01b0388169063835986b490608401600060405180830381600087803b15801561431e57600080fd5b505af1158015614332573d6000803e3d6000fd5b505050505050505050505050565b6040516001600160a01b0380851660248301528316604482015260648101829052613f729085906323b872dd60e01b906084015b60408051601f198184030181529190526020810180516001600160e01b03166001600160e01b0319909316929092179091526149cb565b610cd38363a9059cbb60e01b8484604051602401614374929190615b0b565b6000806000676765c793fa10079d601b1b8487602001516143eb91906155fe565b6143f59190615633565b915060385485876000015161440a91906155fe565b6144149190615633565b90508161442557600019925061444a565b603c54829061443d906001600160401b0316836155fe565b6144479190615633565b92505b93509350939050565b6037546000906001600160a01b031661448c57603b60008154811061447a5761447a6156ac565b90600052602060002001549050919050565b603754604051635dfba04560e11b81526000916001600160a01b03169063bbf7408a906144bd908690600401614cc2565b602060405180830381865afa1580156144da573d6000803e3d6000fd5b505050506040513d601f19601f820116820180604052508101906144fe91906155cf565b9050603a600181548110614514576145146156ac565b9060005260206000200154811061454c57603b600181548110614539576145396156ac565b9060005260206000200154915050919050565b603a600081548110614560576145606156ac565b9060005260206000200154811161458557603b600081548110614539576145396156ac565b603a600081548110614599576145996156ac565b9060005260206000200154603a6001815481106145b8576145b86156ac565b90600052602060002001546145cd9190615731565b603a6000815481106145e1576145e16156ac565b9060005260206000200154826145f79190615731565b603b60008154811061460b5761460b6156ac565b9060005260206000200154603b60018154811061462a5761462a6156ac565b906000526020600020015461463f9190615731565b61464991906155fe565b6146539190615633565b603b600081548110614667576146676156ac565b9060005260206000200154610dbe9190615748565b50919050565b60006001600160a01b0384163b1561477657604051630a85bd0160e11b81526001600160a01b0385169063150b7a02906146c6903390899088908890600401615b66565b6020604051808303816000875af1925050508015614701575060408051601f3d908101601f191682019092526146fe91810190615ba3565b60015b61475c573d80801561472f576040519150601f19603f3d011682016040523d82523d6000602084013e614734565b606091505b508051614754576040516320149b4360e21b815260040160405180910390fd5b805181602001fd5b6001600160e01b031916630a85bd0160e11b149050611fcf565b506001611fcf565b6000614789826133ba565b90506147966000836133f0565b6001600160a01b038116600081815260486020908152604080832080546000190190558583526047825280832080546001600160a01b0319169055604390915280822082815560010182905551849290600080516020615c1d833981519152908390a45050565b60008082614816676765c793fa10079d601b1b876155fe565b6148209190615633565b6000878152604360205260409020600101549091506148965761486e676765c793fa10079d601b1b7f00000000000000000000000000000000000000000000000000000000000000006155fe565b61487884836155fe565b116148965760405163228af07f60e21b815260040160405180910390fd5b600086815260436020526040812060010180548392906148b7908490615748565b9250508190555080604060008282546148d09190615748565b90915550506039546148ee90676765c793fa10079d601b1b906155fe565b836040546148fc91906155fe565b111561491b576040516371239a6160e11b815260040160405180910390fd5b6000868152604360209081526040808320815180830190925280548252600101549181019190915261494e9086866143ca565b50509050633b9aca00811161497657604051631527804d60e31b815260040160405180910390fd5b600080516020615bdd8339815191528783600160405161499893929190615760565b60405180910390a1676765c793fa10079d601b1b6149b685846155fe565b6149c09190615633565b979650505050505050565b6000614a20826040518060400160405280602081526020017f5361666545524332303a206c6f772d6c6576656c2063616c6c206661696c6564815250856001600160a01b0316614a9d9092919063ffffffff16565b805190915015610cd35780806020019051810190614a3e9190615647565b610cd35760405162461bcd60e51b815260206004820152602a60248201527f5361666545524332303a204552433230206f7065726174696f6e20646964206e6044820152691bdd081cdd58d8d9595960b21b60648201526084016117b3565b6060611fcf848460008585843b614af65760405162461bcd60e51b815260206004820152601d60248201527f416464726573733a2063616c6c20746f206e6f6e2d636f6e747261637400000060448201526064016117b3565b600080866001600160a01b03168587604051614b129190615bc0565b60006040518083038185875af1925050503d8060008114614b4f576040519150601f19603f3d011682016040523d82523d6000602084013e614b54565b606091505b50915091506149c082828660608315614b6e575081610dbe565b825115614b7e5782518084602001fd5b8160405162461bcd60e51b81526004016117b39190614d61565b6040518060a0016040528060008152602001600081526020016000815260200160008152602001600081525090565b828054614bd39061559a565b90600052602060002090601f016020900481019282614bf55760008555614c3b565b82601f10614c0e57805160ff1916838001178555614c3b565b82800160010185558215614c3b579182015b82811115614c3b578251825591602001919060010190614c20565b50614c47929150614cad565b5090565b828054828255906000526020600020908101928215614c3b5791602002820182811115614c3b578251825591602001919060010190614c20565b6040518060800160405280600081526020016000815260200160008152602001600081525090565b5b80821115614c475760008155600101614cae565b6001600160a01b0391909116815260200190565b6001600160e01b031981168114610f1957600080fd5b600060208284031215614cfe57600080fd5b8135610dbe81614cd6565b60005b83811015614d24578181015183820152602001614d0c565b83811115613f725750506000910152565b60008151808452614d4d816020860160208601614d09565b601f01601f19169290920160200192915050565b602081526000610dbe6020830184614d35565b600060208284031215614d8657600080fd5b5035919050565b6001600160a01b0381168114610f1957600080fd5b60008060408385031215614db557600080fd5b8235614dc081614d8d565b946020939093013593505050565b600080600060608486031215614de357600080fd5b8335614dee81614d8d565b92506020840135614dfe81614d8d565b929592945050506040919091013590565b60008060408385031215614e2257600080fd5b823591506020830135614e3481614d8d565b809150509250929050565b60a08101610b86828480518252602081015160208301526040810151604083015260608101516060830152608081015160808301525050565b600060208284031215614e8a57600080fd5b8135610dbe81614d8d565b634e487b7160e01b600052604160045260246000fd5b604051601f8201601f191681016001600160401b0381118282101715614ed357614ed3614e95565b604052919050565b600082601f830112614eec57600080fd5b81356001600160401b03811115614f0557614f05614e95565b614f18601f8201601f1916602001614eab565b818152846020838601011115614f2d57600080fd5b816020850160208301376000918101602001919091529392505050565b600060208284031215614f5c57600080fd5b81356001600160401b03811115614f7257600080fd5b611fcf84828501614edb565b80356001600160401b038116811461216d57600080fd5b60008060408385031215614fa857600080fd5b614dc083614f7e565b60006001600160401b03821115614fca57614fca614e95565b5060051b60200190565b600082601f830112614fe557600080fd5b81356020614ffa614ff583614fb1565b614eab565b82815260059290921b8401810191818101908684111561501957600080fd5b8286015b84811015615034578035835291830191830161501d565b509695505050505050565b60008060006060848603121561505457600080fd5b833561505f81614d8d565b925060208401356001600160401b038082111561507b57600080fd5b61508787838801614fd4565b9350604086013591508082111561509d57600080fd5b506150aa86828701614fd4565b9150509250925092565b60008060008060008060c087890312156150cd57600080fd5b86356001600160401b03808211156150e457600080fd5b6150f08a838b01614fd4565b9750602089013591508082111561510657600080fd5b6151128a838b01614fd4565b96506040890135915061512482614d8d565b90945060608801359061513682614d8d565b90935060808801359061514882614d8d565b90925060a0880135908082111561515e57600080fd5b5061516b89828a01614edb565b9150509295509295509295565b6000806000806080858703121561518e57600080fd5b5050823594602084013594506040840135936060013592509050565b600081518084526020808501945080840160005b838110156151da578151875295820195908201906001016151be565b509495945050505050565b6040815260006151f860408301856151aa565b90508260208301529392505050565b600082601f83011261521857600080fd5b81356020615228614ff583614fb1565b82815260059290921b8401810191818101908684111561524757600080fd5b8286015b84811015615034578035600881106152635760008081fd5b835291830191830161524b565b600082601f83011261528157600080fd5b81356020615291614ff583614fb1565b82815260059290921b840181019181810190868411156152b057600080fd5b8286015b848110156150345780356001600160401b038111156152d35760008081fd5b6152e18986838b0101614edb565b8452509183019183016152b4565b6000806000806080858703121561530557600080fd5b84356001600160401b038082111561531c57600080fd5b61532888838901615207565b9550602087013591508082111561533e57600080fd5b5061534b87828801615270565b935050604085013561535c81614d8d565b9150606085013561536c81614d8d565b939692955090935050565b8015158114610f1957600080fd5b6000806040838503121561539857600080fd5b82356153a381614d8d565b91506020830135614e3481615377565b600080600080608085870312156153c957600080fd5b84356153d481614d8d565b935060208501356153e481614d8d565b92506040850135915060608501356001600160401b0381111561540657600080fd5b61541287828801614edb565b91505092959194509250565b600080600080600085870361018081121561543857600080fd5b863561544381614d8d565b9550602087013561545381614d8d565b9450604087013561546381614d8d565b9350610100605f198201121561547857600080fd5b506060860191506101608601356001600160401b0381111561549957600080fd5b6154a588828901614edb565b9150509295509295909350565b60008060008060008060c087890312156154cb57600080fd5b86356001600160401b03808211156154e257600080fd5b6154ee8a838b01615207565b9750602089013591508082111561550457600080fd5b6151128a838b01615270565b6000806040838503121561552357600080fd5b823561552e81614d8d565b91506020830135614e3481614d8d565b6000806000806080858703121561555457600080fd5b84356001600160401b038082111561556b57600080fd5b61557788838901614fd4565b9550602087013591508082111561558d57600080fd5b5061534b87828801614fd4565b600181811c908216806155ae57607f821691505b6020821081141561467c57634e487b7160e01b600052602260045260246000fd5b6000602082840312156155e157600080fd5b5051919050565b634e487b7160e01b600052601160045260246000fd5b6000816000190483118215151615615618576156186155e8565b500290565b634e487b7160e01b600052601260045260246000fd5b6000826156425761564261561d565b500490565b60006020828403121561565957600080fd5b8151610dbe81615377565b60006001600160401b03828116848216808303821115615686576156866155e8565b01949350505050565b6000602082840312156156a157600080fd5b8151610dbe81614d8d565b634e487b7160e01b600052603260045260246000fd5b6040815260006156d560408301856151aa565b82810360208401526123ae81856151aa565b6020808252601f908201527f5265656e7472616e637947756172643a207265656e7472616e742063616c6c00604082015260600190565b602081526000610dbe60208301846151aa565b600082821015615743576157436155e8565b500390565b6000821982111561575b5761575b6155e8565b500190565b928352602083019190915260ff16604082015260600190565b600060001982141561578d5761578d6155e8565b5060010190565b600181815b808511156157cf5781600019048211156157b5576157b56155e8565b808516156157c257918102915b93841c9390800290615799565b509250929050565b6000826157e657506001610b86565b816157f357506000610b86565b816001811461580957600281146158135761582f565b6001915050610b86565b60ff841115615824576158246155e8565b50506001821b610b86565b5060208310610133831016604e8410600b8410161715615852575081810a610b86565b61585c8383615794565b8060001904821115615870576158706155e8565b029392505050565b6000610dbe60ff8416836157d7565b6000826158965761589661561d565b500690565b600081516158ad818560208601614d09565b9290920192915050565b600080845481600182811c9150808316806158d357607f831692505b60208084108214156158f357634e487b7160e01b86526022600452602486fd5b818015615907576001811461591857615945565b60ff19861689528489019650615945565b60008b81526020902060005b8681101561593d5781548b820152908501908301615924565b505084890196505b5050505050506123ae818561589b565b60006020828403121561596757600080fd5b815160ff81168114610dbe57600080fd5b6e020b733b63290283937ba37b1b7b61608d1b8152600082516159a281600f850160208701614d09565b650815985d5b1d60d21b600f939091019283015250601501919050565b600082516159d1818460208701614d09565b650b5d985d5b1d60d21b920191825250600601919050565b6000602082840312156159fb57600080fd5b610dbe82614f7e565b600060208284031215615a1657600080fd5b8135610dbe81615377565b634e487b7160e01b600052602160045260246000fd5b60008060408385031215615a4a57600080fd5b505080516020909101519092909150565b60008060008060008060c08789031215615a7457600080fd5b8651615a7f81614d8d565b6020880151604089015160608a015160808b015160a0909b0151939c929b509099909850965090945092505050565b60008060008060808587031215615ac457600080fd5b845193506020850151615ad681614d8d565b6040860151606090960151949790965092505050565b9283526001600160a01b03918216602084015216604082015260600190565b6001600160a01b03929092168252602082015260400190565b6001600160a01b038781168252868116602083015285166040820152606081018490526080810183905260c060a0820181905260009061424790830184614d35565b6001600160a01b0385811682528416602082015260408101839052608060608201819052600090615b9990830184614d35565b9695505050505050565b600060208284031215615bb557600080fd5b8151610dbe81614cd6565b60008251615bd2818460208701614d09565b919091019291505056fe70cf49afe7355562d5b022e594790f22b71ad8cc7eec902fa5feac7c67f71091722cb71fa87c947148cefc06dd890af5802a6a00207c5ddecf1191bf71ce3cd4ddf252ad1be2c89b69c2b068fc378daa952ba7f163c4a11628f55a4df523b3efa264697066735822122095fe2cf2f8d50086643b37ee33771eb335a8f57e97370df3b960dcbfb1aa512064736f6c634300080c0033"
}