{
  "address": "0xb44c57a274BF5737873236F218b0c70C4aAc521C",
  "abi": [
    {
      "inputs": [],
      "stateMutability": "nonpayable",
      "type": "constructor"
    },
    {
      "anonymous": false,
      "inputs": [
        {
          "indexed": true,
          "internalType": "address",
          "name": "owner",
          "type": "address"
        },
        {
          "indexed": true,
          "internalType": "address",
          "name": "spender",
          "type": "address"
        },
        {
          "indexed": false,
          "internalType": "uint256",
          "name": "value",
          "type": "uint256"
        }
      ],
      "name": "Approval",
      "type": "event"
    },
    {
      "anonymous": false,
      "inputs": [
        {
          "indexed": true,
          "internalType": "address",
          "name": "minter",
          "type": "address"
        }
      ],
      "name": "MinterToggled",
      "type": "event"
    },
    {
      "anonymous": false,
      "inputs": [
        {
          "indexed": true,
          "internalType": "address",
          "name": "from",
          "type": "address"
        },
        {
          "indexed": true,
          "internalType": "address",
          "name": "to",
          "type": "address"
        },
        {
          "indexed": false,
          "internalType": "uint256",
          "name": "value",
          "type": "uint256"
        }
      ],
      "name": "Transfer",
      "type": "event"
    },
    {
      "inputs": [],
      "name": "DOMAIN_SEPARATOR",
      "outputs": [
        {
          "internalType": "bytes32",
          "name": "",
          "type": "bytes32"
        }
      ],
      "stateMutability": "view",
      "type": "function"
    },
    {
      "inputs": [
        {
          "internalType": "address",
          "name": "minter",
          "type": "address"
        }
      ],
      "name": "addMinter",
      "outputs": [],
      "stateMutability": "nonpayable",
      "type": "function"
    },
    {
      "inputs": [
        {
          "internalType": "address",
          "name": "owner",
          "type": "address"
        },
        {
          "internalType": "address",
          "name": "spender",
          "type": "address"
        }
      ],
      "name": "allowance",
      "outputs": [
        {
          "internalType": "uint256",
          "name": "",
          "type": "uint256"
        }
      ],
      "stateMutability": "view",
      "type": "function"
    },
    {
      "inputs": [
        {
          "internalType": "address",
          "name": "spender",
          "type": "address"
        },
        {
          "internalType": "uint256",
          "name": "amount",
          "type": "uint256"
        }
      ],
      "name": "approve",
      "outputs": [
        {
          "internalType": "bool",
          "name": "",
          "type": "bool"
        }
      ],
      "stateMutability": "nonpayable",
      "type": "function"
    },
    {
      "inputs": [
        {
          "internalType": "address",
          "name": "account",
          "type": "address"
        }
      ],
      "name": "balanceOf",
      "outputs": [
        {
          "internalType": "uint256",
          "name": "",
          "type": "uint256"
        }
      ],
      "stateMutability": "view",
      "type": "function"
    },
    {
      "inputs": [
        {
          "internalType": "uint256",
          "name": "amount",
          "type": "uint256"
        },
        {
          "internalType": "address",
          "name": "burner",
          "type": "address"
        },
        {
          "internalType": "address",
          "name": "sender",
          "type": "address"
        }
      ],
      "name": "burnFrom",
      "outputs": [],
      "stateMutability": "nonpayable",
      "type": "function"
    },
    {
      "inputs": [
        {
          "internalType": "address",
          "name": "account",
          "type": "address"
        },
        {
          "internalType": "uint256",
          "name": "amount",
          "type": "uint256"
        },
        {
          "internalType": "address",
          "name": "poolManager",
          "type": "address"
        }
      ],
      "name": "burnFromNoRedeem",
      "outputs": [],
      "stateMutability": "nonpayable",
      "type": "function"
    },
    {
      "inputs": [
        {
          "internalType": "uint256",
          "name": "amount",
          "type": "uint256"
        },
        {
          "internalType": "address",
          "name": "poolManager",
          "type": "address"
        }
      ],
      "name": "burnNoRedeem",
      "outputs": [],
      "stateMutability": "nonpayable",
      "type": "function"
    },
    {
      "inputs": [
        {
          "internalType": "uint256",
          "name": "amount",
          "type": "uint256"
        },
        {
          "internalType": "address",
          "name": "burner",
          "type": "address"
        }
      ],
      "name": "burnSelf",
      "outputs": [],
      "stateMutability": "nonpayable",
      "type": "function"
    },
    {
      "inputs": [],
      "name": "decimals",
      "outputs": [
        {
          "internalType": "uint8",
          "name": "",
          "type": "uint8"
        }
      ],
      "stateMutability": "view",
      "type": "function"
    },
    {
      "inputs": [
        {
          "internalType": "address",
          "name": "spender",
          "type": "address"
        },
        {
          "internalType": "uint256",
          "name": "subtractedValue",
          "type": "uint256"
        }
      ],
      "name": "decreaseAllowance",
      "outputs": [
        {
          "internalType": "bool",
          "name": "",
          "type": "bool"
        }
      ],
      "stateMutability": "nonpayable",
      "type": "function"
    },
    {
      "inputs": [
        {
          "internalType": "address",
          "name": "spender",
          "type": "address"
        },
        {
          "internalType": "uint256",
          "name": "addedValue",
          "type": "uint256"
        }
      ],
      "name": "increaseAllowance",
      "outputs": [
        {
          "internalType": "bool",
          "name": "",
          "type": "bool"
        }
      ],
      "stateMutability": "nonpayable",
      "type": "function"
    },
    {
      "inputs": [
        {
          "internalType": "string",
          "name": "name_",
          "type": "string"
        },
        {
          "internalType": "string",
          "name": "symbol_",
          "type": "string"
        },
        {
          "internalType": "address",
          "name": "stableMaster_",
          "type": "address"
        }
      ],
      "name": "initialize",
      "outputs": [],
      "stateMutability": "nonpayable",
      "type": "function"
    },
    {
      "inputs": [
        {
          "internalType": "address",
          "name": "",
          "type": "address"
        }
      ],
      "name": "isMinter",
      "outputs": [
        {
          "internalType": "bool",
          "name": "",
          "type": "bool"
        }
      ],
      "stateMutability": "view",
      "type": "function"
    },
    {
      "inputs": [
        {
          "internalType": "address",
          "name": "account",
          "type": "address"
        },
        {
          "internalType": "uint256",
          "name": "amount",
          "type": "uint256"
        }
      ],
      "name": "mint",
      "outputs": [],
      "stateMutability": "nonpayable",
      "type": "function"
    },
    {
      "inputs": [],
      "name": "name",
      "outputs": [
        {
          "internalType": "string",
          "name": "",
          "type": "string"
        }
      ],
      "stateMutability": "view",
      "type": "function"
    },
    {
      "inputs": [
        {
          "internalType": "address",
          "name": "owner",
          "type": "address"
        }
      ],
      "name": "nonces",
      "outputs": [
        {
          "internalType": "uint256",
          "name": "",
          "type": "uint256"
        }
      ],
      "stateMutability": "view",
      "type": "function"
    },
    {
      "inputs": [
        {
          "internalType": "address",
          "name": "owner",
          "type": "address"
        },
        {
          "internalType": "address",
          "name": "spender",
          "type": "address"
        },
        {
          "internalType": "uint256",
          "name": "value",
          "type": "uint256"
        },
        {
          "internalType": "uint256",
          "name": "deadline",
          "type": "uint256"
        },
        {
          "internalType": "uint8",
          "name": "v",
          "type": "uint8"
        },
        {
          "internalType": "bytes32",
          "name": "r",
          "type": "bytes32"
        },
        {
          "internalType": "bytes32",
          "name": "s",
          "type": "bytes32"
        }
      ],
      "name": "permit",
      "outputs": [],
      "stateMutability": "nonpayable",
      "type": "function"
    },
    {
      "inputs": [
        {
          "internalType": "address",
          "name": "minter",
          "type": "address"
        }
      ],
      "name": "removeMinter",
      "outputs": [],
      "stateMutability": "nonpayable",
      "type": "function"
    },
    {
      "inputs": [],
      "name": "setUpMinter",
      "outputs": [],
      "stateMutability": "nonpayable",
      "type": "function"
    },
    {
      "inputs": [],
      "name": "stableMaster",
      "outputs": [
        {
          "internalType": "address",
          "name": "",
          "type": "address"
        }
      ],
      "stateMutability": "view",
      "type": "function"
    },
    {
      "inputs": [],
      "name": "symbol",
      "outputs": [
        {
          "internalType": "string",
          "name": "",
          "type": "string"
        }
      ],
      "stateMutability": "view",
      "type": "function"
    },
    {
      "inputs": [],
      "name": "totalSupply",
      "outputs": [
        {
          "internalType": "uint256",
          "name": "",
          "type": "uint256"
        }
      ],
      "stateMutability": "view",
      "type": "function"
    },
    {
      "inputs": [
        {
          "internalType": "address",
          "name": "recipient",
          "type": "address"
        },
        {
          "internalType": "uint256",
          "name": "amount",
          "type": "uint256"
        }
      ],
      "name": "transfer",
      "outputs": [
        {
          "internalType": "bool",
          "name": "",
          "type": "bool"
        }
      ],
      "stateMutability": "nonpayable",
      "type": "function"
    },
    {
      "inputs": [
        {
          "internalType": "address",
          "name": "sender",
          "type": "address"
        },
        {
          "internalType": "address",
          "name": "recipient",
          "type": "address"
        },
        {
          "internalType": "uint256",
          "name": "amount",
          "type": "uint256"
        }
      ],
      "name": "transferFrom",
      "outputs": [
        {
          "internalType": "bool",
          "name": "",
          "type": "bool"
        }
      ],
      "stateMutability": "nonpayable",
      "type": "function"
    }
  ],
  "transactionHash": "0x2d6dc143f3332cf9e8b05cbcc7983d7d51d911ef6b6bb75c8dea350edd2acb12",
  "args": [],
  "solcInputHash": "1115656bb202efcda25fdb06c84db849",
  "bytecode": "0x60806040523480156200001157600080fd5b50600054610100900460ff166200002f5760005460ff161562000039565b62000039620000de565b620000a15760405162461bcd60e51b815260206004820152602e60248201527f496e697469616c697a61626c653a20636f6e747261637420697320616c72656160448201526d191e481a5b9a5d1a585b1a5e995960921b606482015260840160405180910390fd5b600054610100900460ff16158015620000c4576000805461ffff19166101011790555b8015620000d7576000805461ff00191690555b5062000102565b6000620000f630620000fc60201b62000b5c1760201c565b15905090565b3b151590565b611b6b80620001126000396000f3fe608060405234801561001057600080fd5b50600436106101335760003560e01c806306fdde0314610138578063077f224a14610156578063095ea7b31461016b57806318160ddd1461018e57806323b872dd146101a05780632b471d8e146101b35780633092afd5146101c6578063313ce567146101d9578063350ebe04146101e85780633644e515146101fb578063395093511461020357806340c10f19146102165780636ac5dc461461022957806370a08231146102545780637ecebe001461027d57806393bd6f6914610290578063956fe235146102a357806395d89b41146102ab57806397536325146102b3578063983b2d56146102c6578063a457c2d7146102d9578063a9059cbb146102ec578063aa271e1a146102ff578063d505accf14610322578063dd62ed3e14610335575b600080fd5b610140610348565b60405161014d91906116aa565b60405180910390f35b6101696101643660046117bd565b6103da565b005b61017e610179366004611830565b610503565b604051901515815260200161014d565b6035545b60405190815260200161014d565b61017e6101ae36600461185a565b610519565b6101696101c1366004611896565b6105c3565b6101696101d43660046118c2565b610615565b6040516012815260200161014d565b6101696101f63660046118e4565b6106a4565b6101926106f8565b61017e610211366004611830565b610707565b610169610224366004611830565b610743565b60cc5461023c906001600160a01b031681565b6040516001600160a01b03909116815260200161014d565b6101926102623660046118c2565b6001600160a01b031660009081526033602052604090205490565b61019261028b3660046118c2565b610791565b61016961029e366004611896565b6107b1565b610169610823565b61014061087e565b6101696102c1366004611917565b61088d565b6101696102d43660046118c2565b610901565b61017e6102e7366004611830565b610945565b61017e6102fa366004611830565b6109de565b61017e61030d3660046118c2565b60cd6020526000908152604090205460ff1681565b61016961033036600461194a565b6109eb565b6101926103433660046119bd565b610b31565b606060368054610357906119e7565b80601f0160208091040260200160405190810160405280929190818152602001828054610383906119e7565b80156103d05780601f106103a5576101008083540402835291602001916103d0565b820191906000526020600020905b8154815290600101906020018083116103b357829003601f168201915b5050505050905090565b600054610100900460ff166103f55760005460ff16156103f9565b303b155b6104615760405162461bcd60e51b815260206004820152602e60248201527f496e697469616c697a61626c653a20636f6e747261637420697320616c72656160448201526d191e481a5b9a5d1a585b1a5e995960921b60648201526084015b60405180910390fd5b600054610100900460ff16158015610483576000805461ffff19166101011790555b61048c84610b62565b6104968484610bc0565b6001600160a01b0382166104d05760405162461bcd60e51b81526020600482015260016024820152600360fc1b6044820152606401610458565b60cc80546001600160a01b0319166001600160a01b03841617905580156104fd576000805461ff00191690555b50505050565b6000610510338484610bf9565b50600192915050565b6000610526848484610d1d565b6001600160a01b0384166000908152603460209081526040808320338452909152902054828110156105ab5760405162461bcd60e51b815260206004820152602860248201527f45524332303a207472616e7366657220616d6f756e74206578636565647320616044820152676c6c6f77616e636560c01b6064820152608401610458565b6105b88533858403610bf9565b506001949350505050565b33600090815260cd602052604090205460ff16806105eb575060cc546001600160a01b031633145b6106075760405162461bcd60e51b815260040161045890611a1c565b6106118183610ed9565b5050565b336001600160a01b03821614801561063c575033600090815260cd602052604090205460ff165b61066d5760405162461bcd60e51b8152602060048201526002602482015261199b60f11b6044820152606401610458565b6001600160a01b038116600081815260cd6020526040808220805460ff1916905551600080516020611af68339815191529190a250565b33600090815260cd602052604090205460ff16806106cc575060cc546001600160a01b031633145b6106e85760405162461bcd60e51b815260040161045890611a1c565b6106f3838383611015565b505050565b600061070261108c565b905090565b3360008181526034602090815260408083206001600160a01b0387168452909152812054909161051091859061073e908690611a4e565b610bf9565b33600090815260cd602052604090205460ff168061076b575060cc546001600160a01b031633145b6107875760405162461bcd60e51b815260040161045890611a1c565b6106118282611107565b6001600160a01b0381166000908152609960205260408120545b92915050565b6107bb3383610ed9565b60cc5460405163251ad87360e01b81526001600160a01b039091169063251ad873906107ed9085908590600401611a66565b600060405180830381600087803b15801561080757600080fd5b505af115801561081b573d6000803e3d6000fd5b505050505050565b73dc4e6dfe07efca50a197df15d9200883ef4eb1c833811461084457600080fd5b6001600160a01b038116600081815260cd6020526040808220805460ff1916600117905551600080516020611af68339815191529190a250565b606060378054610357906119e7565b610898828433611015565b60cc5460405163251ad87360e01b81526001600160a01b039091169063251ad873906108ca9085908590600401611a66565b600060405180830381600087803b1580156108e457600080fd5b505af11580156108f8573d6000803e3d6000fd5b50505050505050565b33600090815260cd602052604090205460ff1680610929575060cc546001600160a01b031633145b6108445760405162461bcd60e51b815260040161045890611a1c565b3360009081526034602090815260408083206001600160a01b0386168452909152812054828110156109c75760405162461bcd60e51b815260206004820152602560248201527f45524332303a2064656372656173656420616c6c6f77616e63652062656c6f77604482015264207a65726f60d81b6064820152608401610458565b6109d43385858403610bf9565b5060019392505050565b6000610510338484610d1d565b83421115610a3b5760405162461bcd60e51b815260206004820152601d60248201527f45524332305065726d69743a206578706972656420646561646c696e650000006044820152606401610458565b6000609a54888888610a4c8c6111d4565b6040805160208101969096526001600160a01b0394851690860152929091166060840152608083015260a082015260c0810186905260e0016040516020818303038152906040528051906020012090506000610aa7826111fc565b90506000610ab78287878761124a565b9050896001600160a01b0316816001600160a01b031614610b1a5760405162461bcd60e51b815260206004820152601e60248201527f45524332305065726d69743a20696e76616c6964207369676e617475726500006044820152606401610458565b610b258a8a8a610bf9565b50505050505050505050565b6001600160a01b03918216600090815260346020908152604080832093909416825291909152205490565b3b151590565b600054610100900460ff16610b895760405162461bcd60e51b815260040161045890611a7d565b610b91611272565b610bb481604051806040016040528060018152602001603160f81b81525061129b565b610bbd816112dc565b50565b600054610100900460ff16610be75760405162461bcd60e51b815260040161045890611a7d565b610bef611272565b610611828261132a565b6001600160a01b038316610c5b5760405162461bcd60e51b8152602060048201526024808201527f45524332303a20617070726f76652066726f6d20746865207a65726f206164646044820152637265737360e01b6064820152608401610458565b6001600160a01b038216610cbc5760405162461bcd60e51b815260206004820152602260248201527f45524332303a20617070726f766520746f20746865207a65726f206164647265604482015261737360f01b6064820152608401610458565b6001600160a01b0383811660008181526034602090815260408083209487168084529482529182902085905590518481527f8c5be1e5ebec7d5bd14f71427d1e84f3dd0314c0f7b2291e5b200ac8c7c3b925910160405180910390a3505050565b6001600160a01b038316610d815760405162461bcd60e51b815260206004820152602560248201527f45524332303a207472616e736665722066726f6d20746865207a65726f206164604482015264647265737360d81b6064820152608401610458565b6001600160a01b038216610de35760405162461bcd60e51b815260206004820152602360248201527f45524332303a207472616e7366657220746f20746865207a65726f206164647260448201526265737360e81b6064820152608401610458565b6001600160a01b03831660009081526033602052604090205481811015610e5b5760405162461bcd60e51b815260206004820152602660248201527f45524332303a207472616e7366657220616d6f756e7420657863656564732062604482015265616c616e636560d01b6064820152608401610458565b6001600160a01b03808516600090815260336020526040808220858503905591851681529081208054849290610e92908490611a4e565b92505081905550826001600160a01b0316846001600160a01b0316600080516020611b1683398151915284604051610ecc91815260200190565b60405180910390a36104fd565b6001600160a01b038216610f395760405162461bcd60e51b815260206004820152602160248201527f45524332303a206275726e2066726f6d20746865207a65726f206164647265736044820152607360f81b6064820152608401610458565b6001600160a01b03821660009081526033602052604090205481811015610fad5760405162461bcd60e51b815260206004820152602260248201527f45524332303a206275726e20616d6f756e7420657863656564732062616c616e604482015261636560f01b6064820152608401610458565b6001600160a01b0383166000908152603360205260408120838303905560358054849290610fdc908490611ac8565b90915550506040518281526000906001600160a01b03851690600080516020611b168339815191529060200160405180910390a3505050565b806001600160a01b0316826001600160a01b03161461108257600061103a8383610b31565b9050838110156110715760405162461bcd60e51b8152602060048201526002602482015261323360f01b6044820152606401610458565b611080838361073e8785611ac8565b505b6106f38284610ed9565b60006107027f8b73c3c69bb8fe3d512ecc4cf759cc79239f7b179b0ffacaa9a75d522b39400f6110bb60655490565b6066546040805160208101859052908101839052606081018290524660808201523060a082015260009060c0016040516020818303038152906040528051906020012090509392505050565b6001600160a01b03821661115d5760405162461bcd60e51b815260206004820152601f60248201527f45524332303a206d696e7420746f20746865207a65726f2061646472657373006044820152606401610458565b806035600082825461116f9190611a4e565b90915550506001600160a01b0382166000908152603360205260408120805483929061119c908490611a4e565b90915550506040518181526001600160a01b03831690600090600080516020611b168339815191529060200160405180910390a35050565b6001600160a01b03811660009081526099602052604090208054600181018255905b50919050565b60006107ab61120961108c565b8360405161190160f01b6020820152602281018390526042810182905260009060620160405160208183030381529060405280519060200120905092915050565b600080600061125b87878787611378565b915091506112688161145b565b5095945050505050565b600054610100900460ff166112995760405162461bcd60e51b815260040161045890611a7d565b565b600054610100900460ff166112c25760405162461bcd60e51b815260040161045890611a7d565b815160209283012081519190920120606591909155606655565b600054610100900460ff166113035760405162461bcd60e51b815260040161045890611a7d565b507f6e71edae12b1b97f4d1f60370fef10105fa2faae0126114a169c64845d6126c9609a55565b600054610100900460ff166113515760405162461bcd60e51b815260040161045890611a7d565b8151611364906036906020850190611611565b5080516106f3906037906020840190611611565b6000806fa2a8918ca85bafe22016d0b997e4df60600160ff1b038311156113a55750600090506003611452565b8460ff16601b141580156113bd57508460ff16601c14155b156113ce5750600090506004611452565b6040805160008082526020820180845289905260ff881692820192909252606081018690526080810185905260019060a0016020604051602081039080840390855afa158015611422573d6000803e3d6000fd5b5050604051601f1901519150506001600160a01b03811661144b57600060019250925050611452565b9150600090505b94509492505050565b600081600481111561146f5761146f611adf565b14156114785750565b600181600481111561148c5761148c611adf565b14156114d55760405162461bcd60e51b815260206004820152601860248201527745434453413a20696e76616c6964207369676e617475726560401b6044820152606401610458565b60028160048111156114e9576114e9611adf565b14156115375760405162461bcd60e51b815260206004820152601f60248201527f45434453413a20696e76616c6964207369676e6174757265206c656e677468006044820152606401610458565b600381600481111561154b5761154b611adf565b14156115a45760405162461bcd60e51b815260206004820152602260248201527f45434453413a20696e76616c6964207369676e6174757265202773272076616c604482015261756560f01b6064820152608401610458565b60048160048111156115b8576115b8611adf565b1415610bbd5760405162461bcd60e51b815260206004820152602260248201527f45434453413a20696e76616c6964207369676e6174757265202776272076616c604482015261756560f01b6064820152608401610458565b82805461161d906119e7565b90600052602060002090601f01602090048101928261163f5760008555611685565b82601f1061165857805160ff1916838001178555611685565b82800160010185558215611685579182015b8281111561168557825182559160200191906001019061166a565b50611691929150611695565b5090565b5b808211156116915760008155600101611696565b600060208083528351808285015260005b818110156116d7578581018301518582016040015282016116bb565b818111156116e9576000604083870101525b50601f01601f1916929092016040019392505050565b634e487b7160e01b600052604160045260246000fd5b600082601f83011261172657600080fd5b81356001600160401b0380821115611740576117406116ff565b604051601f8301601f19908116603f01168101908282118183101715611768576117686116ff565b8160405283815286602085880101111561178157600080fd5b836020870160208301376000602085830101528094505050505092915050565b80356001600160a01b03811681146117b857600080fd5b919050565b6000806000606084860312156117d257600080fd5b83356001600160401b03808211156117e957600080fd5b6117f587838801611715565b9450602086013591508082111561180b57600080fd5b5061181886828701611715565b925050611827604085016117a1565b90509250925092565b6000806040838503121561184357600080fd5b61184c836117a1565b946020939093013593505050565b60008060006060848603121561186f57600080fd5b611878846117a1565b9250611886602085016117a1565b9150604084013590509250925092565b600080604083850312156118a957600080fd5b823591506118b9602084016117a1565b90509250929050565b6000602082840312156118d457600080fd5b6118dd826117a1565b9392505050565b6000806000606084860312156118f957600080fd5b83359250611909602085016117a1565b9150611827604085016117a1565b60008060006060848603121561192c57600080fd5b611935846117a1565b925060208401359150611827604085016117a1565b600080600080600080600060e0888a03121561196557600080fd5b61196e886117a1565b965061197c602089016117a1565b95506040880135945060608801359350608088013560ff811681146119a057600080fd5b9699959850939692959460a0840135945060c09093013592915050565b600080604083850312156119d057600080fd5b6119d9836117a1565b91506118b9602084016117a1565b600181811c908216806119fb57607f821691505b602082108114156111f657634e487b7160e01b600052602260045260246000fd5b602080825260029082015261333560f01b604082015260600190565b634e487b7160e01b600052601160045260246000fd5b60008219821115611a6157611a61611a38565b500190565b9182526001600160a01b0316602082015260400190565b6020808252602b908201527f496e697469616c697a61626c653a20636f6e7472616374206973206e6f74206960408201526a6e697469616c697a696e6760a81b606082015260800190565b600082821015611ada57611ada611a38565b500390565b634e487b7160e01b600052602160045260246000fdfe98c15241d6c02bc5ee0b780e11b3ea737a2defd9d04877edbe9f9497065bd02fddf252ad1be2c89b69c2b068fc378daa952ba7f163c4a11628f55a4df523b3efa2646970667358221220d8a548aa44eca38858aba6a36bfc89ca9b069757351841804f242fa3334c29b964736f6c634300080c0033",
  "devdoc": {
    "author": "Angle Core Team",
    "details": "This contract is used to create and handle the stablecoins of Angle protocolIt is still possible for any address to burn its agTokens without redeeming collateral in exchangeThis contract is the upgraded version of the AgToken that was first deployed on Ethereum mainnet and is used to add other minters as needed by AMOs",
    "kind": "dev",
    "methods": {
      "DOMAIN_SEPARATOR()": {
        "details": "See {IERC20Permit-DOMAIN_SEPARATOR}."
      },
      "addMinter(address)": {
        "params": {
          "minter": "Minter address to add"
        }
      },
      "allowance(address,address)": {
        "details": "See {IERC20-allowance}."
      },
      "approve(address,uint256)": {
        "details": "See {IERC20-approve}. Requirements: - `spender` cannot be the zero address."
      },
      "balanceOf(address)": {
        "details": "See {IERC20-balanceOf}."
      },
      "burnFrom(uint256,address,address)": {
        "details": "This method is to be called by a contract with the minter right after being requested to do so by a `sender` address willing to burn tokens from another `burner` addressThe method checks the allowance between the `sender` and the `burner`",
        "params": {
          "amount": "Amount of tokens to burn",
          "burner": "Address to burn from",
          "sender": "Address which requested the burn from `burner`"
        }
      },
      "burnFromNoRedeem(address,uint256,address)": {
        "params": {
          "account": "Account to burn on behalf of",
          "amount": "Amount to burn",
          "poolManager": "Reference to the `PoolManager` contract for which the `stocksUsers` will need to be updated"
        }
      },
      "burnNoRedeem(uint256,address)": {
        "details": "When calling this function, people should specify the `poolManager` for which they want to decrease the `stocksUsers`: this is a way for the protocol to maintain healthy accounting variables",
        "params": {
          "amount": "Amount to burn",
          "poolManager": "Reference to the `PoolManager` contract for which the `stocksUsers` will need to be updated"
        }
      },
      "burnSelf(uint256,address)": {
        "details": "This method is to be called by a contract with a minter right on the AgToken after being requested to do so by an address willing to burn tokens from its address",
        "params": {
          "amount": "Amount of tokens to burn",
          "burner": "Address to burn from"
        }
      },
      "constructor": {
        "custom:oz-upgrades-unsafe-allow": "constructor"
      },
      "decimals()": {
        "details": "Returns the number of decimals used to get its user representation. For example, if `decimals` equals `2`, a balance of `505` tokens should be displayed to a user as `5.05` (`505 / 10 ** 2`). Tokens usually opt for a value of 18, imitating the relationship between Ether and Wei. This is the value {ERC20} uses, unless this function is overridden; NOTE: This information is only used for _display_ purposes: it in no way affects any of the arithmetic of the contract, including {IERC20-balanceOf} and {IERC20-transfer}."
      },
      "decreaseAllowance(address,uint256)": {
        "details": "Atomically decreases the allowance granted to `spender` by the caller. This is an alternative to {approve} that can be used as a mitigation for problems described in {IERC20-approve}. Emits an {Approval} event indicating the updated allowance. Requirements: - `spender` cannot be the zero address. - `spender` must have allowance for the caller of at least `subtractedValue`."
      },
      "increaseAllowance(address,uint256)": {
        "details": "Atomically increases the allowance granted to `spender` by the caller. This is an alternative to {approve} that can be used as a mitigation for problems described in {IERC20-approve}. Emits an {Approval} event indicating the updated allowance. Requirements: - `spender` cannot be the zero address."
      },
      "initialize(string,string,address)": {
        "details": "By default, agTokens are ERC-20 tokens with 18 decimals",
        "params": {
          "name_": "Name of the token",
          "stableMaster_": "Reference to the `StableMaster` contract associated to this agToken",
          "symbol_": "Symbol of the token"
        }
      },
      "mint(address,uint256)": {
        "details": "The contracts allowed to issue agTokens are the `StableMaster` contract, `VaultManager` contracts associated to this stablecoin as well as the flash loan module (if activated) and potentially contracts whitelisted by governance",
        "params": {
          "account": "Address to mint to",
          "amount": "Amount to mint"
        }
      },
      "name()": {
        "details": "Returns the name of the token."
      },
      "nonces(address)": {
        "details": "See {IERC20Permit-nonces}."
      },
      "permit(address,address,uint256,uint256,uint8,bytes32,bytes32)": {
        "details": "See {IERC20Permit-permit}."
      },
      "removeMinter(address)": {
        "details": "This function can at the moment only be called by a minter wishing to revoke itself",
        "params": {
          "minter": "Minter address to remove"
        }
      },
      "setUpMinter()": {
        "details": "This function just has to be called once"
      },
      "symbol()": {
        "details": "Returns the symbol of the token, usually a shorter version of the name."
      },
      "totalSupply()": {
        "details": "See {IERC20-totalSupply}."
      },
      "transfer(address,uint256)": {
        "details": "See {IERC20-transfer}. Requirements: - `recipient` cannot be the zero address. - the caller must have a balance of at least `amount`."
      },
      "transferFrom(address,address,uint256)": {
        "details": "See {IERC20-transferFrom}. Emits an {Approval} event indicating the updated allowance. This is not required by the EIP. See the note at the beginning of {ERC20}. Requirements: - `sender` and `recipient` cannot be the zero address. - `sender` must have a balance of at least `amount`. - the caller must have allowance for ``sender``'s tokens of at least `amount`."
      }
    },
    "title": "AgTokenIntermediateUpgrade",
    "version": 1
  },
  "userdoc": {
    "kind": "user",
    "methods": {
      "addMinter(address)": {
        "notice": "Adds a minter in the contract"
      },
      "burnFrom(uint256,address,address)": {
        "notice": "Burns `amount` tokens from a `burner` address after being asked to by `sender`"
      },
      "burnFromNoRedeem(address,uint256,address)": {
        "notice": "Burns `amount` of agToken on behalf of another account without redeeming collateral back"
      },
      "burnNoRedeem(uint256,address)": {
        "notice": "Destroys `amount` token from the caller without giving collateral back"
      },
      "burnSelf(uint256,address)": {
        "notice": "Burns `amount` tokens from a `burner` address"
      },
      "initialize(string,string,address)": {
        "notice": "Initializes the `AgToken` contract"
      },
      "isMinter(address)": {
        "notice": "Checks whether an address has the right to mint agTokens"
      },
      "mint(address,uint256)": {
        "notice": "Lets the `StableMaster` contract or another whitelisted contract mint agTokens"
      },
      "removeMinter(address)": {
        "notice": "Removes a minter from the contract"
      },
      "setUpMinter()": {
        "notice": "Sets up the minter role and gives it to the governor"
      },
      "stableMaster()": {
        "notice": "Reference to the `StableMaster` contract associated to this `AgToken`"
      }
    },
    "notice": "Base contract for agToken, that is to say Angle's stablecoins",
    "version": 1
  },
  "storageLayout": {
    "storage": [
      {
        "astId": 646,
        "contract": "contracts/agToken/AgTokenIntermediateUpgrade.sol:AgTokenIntermediateUpgrade",
        "label": "_initialized",
        "offset": 0,
        "slot": "0",
        "type": "t_bool"
      },
      {
        "astId": 649,
        "contract": "contracts/agToken/AgTokenIntermediateUpgrade.sol:AgTokenIntermediateUpgrade",
        "label": "_initializing",
        "offset": 1,
        "slot": "0",
        "type": "t_bool"
      },
      {
        "astId": 2353,
        "contract": "contracts/agToken/AgTokenIntermediateUpgrade.sol:AgTokenIntermediateUpgrade",
        "label": "__gap",
        "offset": 0,
        "slot": "1",
        "type": "t_array(t_uint256)50_storage"
      },
      {
        "astId": 790,
        "contract": "contracts/agToken/AgTokenIntermediateUpgrade.sol:AgTokenIntermediateUpgrade",
        "label": "_balances",
        "offset": 0,
        "slot": "51",
        "type": "t_mapping(t_address,t_uint256)"
      },
      {
        "astId": 796,
        "contract": "contracts/agToken/AgTokenIntermediateUpgrade.sol:AgTokenIntermediateUpgrade",
        "label": "_allowances",
        "offset": 0,
        "slot": "52",
        "type": "t_mapping(t_address,t_mapping(t_address,t_uint256))"
      },
      {
        "astId": 798,
        "contract": "contracts/agToken/AgTokenIntermediateUpgrade.sol:AgTokenIntermediateUpgrade",
        "label": "_totalSupply",
        "offset": 0,
        "slot": "53",
        "type": "t_uint256"
      },
      {
        "astId": 800,
        "contract": "contracts/agToken/AgTokenIntermediateUpgrade.sol:AgTokenIntermediateUpgrade",
        "label": "_name",
        "offset": 0,
        "slot": "54",
        "type": "t_string_storage"
      },
      {
        "astId": 802,
        "contract": "contracts/agToken/AgTokenIntermediateUpgrade.sol:AgTokenIntermediateUpgrade",
        "label": "_symbol",
        "offset": 0,
        "slot": "55",
        "type": "t_string_storage"
      },
      {
        "astId": 1343,
        "contract": "contracts/agToken/AgTokenIntermediateUpgrade.sol:AgTokenIntermediateUpgrade",
        "label": "__gap",
        "offset": 0,
        "slot": "56",
        "type": "t_array(t_uint256)45_storage"
      },
      {
        "astId": 3030,
        "contract": "contracts/agToken/AgTokenIntermediateUpgrade.sol:AgTokenIntermediateUpgrade",
        "label": "_HASHED_NAME",
        "offset": 0,
        "slot": "101",
        "type": "t_bytes32"
      },
      {
        "astId": 3032,
        "contract": "contracts/agToken/AgTokenIntermediateUpgrade.sol:AgTokenIntermediateUpgrade",
        "label": "_HASHED_VERSION",
        "offset": 0,
        "slot": "102",
        "type": "t_bytes32"
      },
      {
        "astId": 3169,
        "contract": "contracts/agToken/AgTokenIntermediateUpgrade.sol:AgTokenIntermediateUpgrade",
        "label": "__gap",
        "offset": 0,
        "slot": "103",
        "type": "t_array(t_uint256)50_storage"
      },
      {
        "astId": 1473,
        "contract": "contracts/agToken/AgTokenIntermediateUpgrade.sol:AgTokenIntermediateUpgrade",
        "label": "_nonces",
        "offset": 0,
        "slot": "153",
        "type": "t_mapping(t_address,t_struct(Counter)2360_storage)"
      },
      {
        "astId": 1475,
        "contract": "contracts/agToken/AgTokenIntermediateUpgrade.sol:AgTokenIntermediateUpgrade",
        "label": "_PERMIT_TYPEHASH",
        "offset": 0,
        "slot": "154",
        "type": "t_bytes32"
      },
      {
        "astId": 1643,
        "contract": "contracts/agToken/AgTokenIntermediateUpgrade.sol:AgTokenIntermediateUpgrade",
        "label": "__gap",
        "offset": 0,
        "slot": "155",
        "type": "t_array(t_uint256)49_storage"
      },
      {
        "astId": 7378,
        "contract": "contracts/agToken/AgTokenIntermediateUpgrade.sol:AgTokenIntermediateUpgrade",
        "label": "stableMaster",
        "offset": 0,
        "slot": "204",
        "type": "t_address"
      },
      {
        "astId": 7426,
        "contract": "contracts/agToken/AgTokenIntermediateUpgrade.sol:AgTokenIntermediateUpgrade",
        "label": "isMinter",
        "offset": 0,
        "slot": "205",
        "type": "t_mapping(t_address,t_bool)"
      }
    ],
    "types": {
      "t_address": {
        "encoding": "inplace",
        "label": "address",
        "numberOfBytes": "20"
      },
      "t_array(t_uint256)45_storage": {
        "base": "t_uint256",
        "encoding": "inplace",
        "label": "uint256[45]",
        "numberOfBytes": "1440"
      },
      "t_array(t_uint256)49_storage": {
        "base": "t_uint256",
        "encoding": "inplace",
        "label": "uint256[49]",
        "numberOfBytes": "1568"
      },
      "t_array(t_uint256)50_storage": {
        "base": "t_uint256",
        "encoding": "inplace",
        "label": "uint256[50]",
        "numberOfBytes": "1600"
      },
      "t_bool": {
        "encoding": "inplace",
        "label": "bool",
        "numberOfBytes": "1"
      },
      "t_bytes32": {
        "encoding": "inplace",
        "label": "bytes32",
        "numberOfBytes": "32"
      },
      "t_mapping(t_address,t_bool)": {
        "encoding": "mapping",
        "key": "t_address",
        "label": "mapping(address => bool)",
        "numberOfBytes": "32",
        "value": "t_bool"
      },
      "t_mapping(t_address,t_mapping(t_address,t_uint256))": {
        "encoding": "mapping",
        "key": "t_address",
        "label": "mapping(address => mapping(address => uint256))",
        "numberOfBytes": "32",
        "value": "t_mapping(t_address,t_uint256)"
      },
      "t_mapping(t_address,t_struct(Counter)2360_storage)": {
        "encoding": "mapping",
        "key": "t_address",
        "label": "mapping(address => struct CountersUpgradeable.Counter)",
        "numberOfBytes": "32",
        "value": "t_struct(Counter)2360_storage"
      },
      "t_mapping(t_address,t_uint256)": {
        "encoding": "mapping",
        "key": "t_address",
        "label": "mapping(address => uint256)",
        "numberOfBytes": "32",
        "value": "t_uint256"
      },
      "t_string_storage": {
        "encoding": "bytes",
        "label": "string",
        "numberOfBytes": "32"
      },
      "t_struct(Counter)2360_storage": {
        "encoding": "inplace",
        "label": "struct CountersUpgradeable.Counter",
        "members": [
          {
            "astId": 2359,
            "contract": "contracts/agToken/AgTokenIntermediateUpgrade.sol:AgTokenIntermediateUpgrade",
            "label": "_value",
            "offset": 0,
            "slot": "0",
            "type": "t_uint256"
          }
        ],
        "numberOfBytes": "32"
      },
      "t_uint256": {
        "encoding": "inplace",
        "label": "uint256",
        "numberOfBytes": "32"
      }
    }
  }
}