{
  "address": "0xE876342cAB4bdF5DF1db99a47436f66E1cD172A6",
  "abi": [
    {
      "inputs": [],
      "name": "BurnAmountExceedsAllowance",
      "type": "error"
    },
    {
      "inputs": [],
      "name": "InvalidSender",
      "type": "error"
    },
    {
      "inputs": [],
      "name": "InvalidTreasury",
      "type": "error"
    },
    {
      "inputs": [],
      "name": "NotMinter",
      "type": "error"
    },
    {
      "inputs": [],
      "name": "NotTreasury",
      "type": "error"
    },
    {
      "anonymous": false,
      "inputs": [
        {
          "indexed": true,
          "internalType": "address",
          "name": "owner",
          "type": "address"
        },
        {
          "indexed": true,
          "internalType": "address",
          "name": "spender",
          "type": "address"
        },
        {
          "indexed": false,
          "internalType": "uint256",
          "name": "value",
          "type": "uint256"
        }
      ],
      "name": "Approval",
      "type": "event"
    },
    {
      "anonymous": false,
      "inputs": [
        {
          "indexed": false,
          "internalType": "uint8",
          "name": "version",
          "type": "uint8"
        }
      ],
      "name": "Initialized",
      "type": "event"
    },
    {
      "anonymous": false,
      "inputs": [
        {
          "indexed": true,
          "internalType": "address",
          "name": "minter",
          "type": "address"
        }
      ],
      "name": "MinterToggled",
      "type": "event"
    },
    {
      "anonymous": false,
      "inputs": [
        {
          "indexed": true,
          "internalType": "address",
          "name": "from",
          "type": "address"
        },
        {
          "indexed": true,
          "internalType": "address",
          "name": "to",
          "type": "address"
        },
        {
          "indexed": false,
          "internalType": "uint256",
          "name": "value",
          "type": "uint256"
        }
      ],
      "name": "Transfer",
      "type": "event"
    },
    {
      "anonymous": false,
      "inputs": [
        {
          "indexed": true,
          "internalType": "address",
          "name": "_treasury",
          "type": "address"
        }
      ],
      "name": "TreasuryUpdated",
      "type": "event"
    },
    {
      "inputs": [],
      "name": "DOMAIN_SEPARATOR",
      "outputs": [
        {
          "internalType": "bytes32",
          "name": "",
          "type": "bytes32"
        }
      ],
      "stateMutability": "view",
      "type": "function"
    },
    {
      "inputs": [
        {
          "internalType": "address",
          "name": "minter",
          "type": "address"
        }
      ],
      "name": "addMinter",
      "outputs": [],
      "stateMutability": "nonpayable",
      "type": "function"
    },
    {
      "inputs": [
        {
          "internalType": "address",
          "name": "owner",
          "type": "address"
        },
        {
          "internalType": "address",
          "name": "spender",
          "type": "address"
        }
      ],
      "name": "allowance",
      "outputs": [
        {
          "internalType": "uint256",
          "name": "",
          "type": "uint256"
        }
      ],
      "stateMutability": "view",
      "type": "function"
    },
    {
      "inputs": [
        {
          "internalType": "address",
          "name": "spender",
          "type": "address"
        },
        {
          "internalType": "uint256",
          "name": "amount",
          "type": "uint256"
        }
      ],
      "name": "approve",
      "outputs": [
        {
          "internalType": "bool",
          "name": "",
          "type": "bool"
        }
      ],
      "stateMutability": "nonpayable",
      "type": "function"
    },
    {
      "inputs": [
        {
          "internalType": "address",
          "name": "account",
          "type": "address"
        }
      ],
      "name": "balanceOf",
      "outputs": [
        {
          "internalType": "uint256",
          "name": "",
          "type": "uint256"
        }
      ],
      "stateMutability": "view",
      "type": "function"
    },
    {
      "inputs": [
        {
          "internalType": "uint256",
          "name": "amount",
          "type": "uint256"
        },
        {
          "internalType": "address",
          "name": "burner",
          "type": "address"
        },
        {
          "internalType": "address",
          "name": "sender",
          "type": "address"
        }
      ],
      "name": "burnFrom",
      "outputs": [],
      "stateMutability": "nonpayable",
      "type": "function"
    },
    {
      "inputs": [
        {
          "internalType": "uint256",
          "name": "amount",
          "type": "uint256"
        },
        {
          "internalType": "address",
          "name": "burner",
          "type": "address"
        }
      ],
      "name": "burnSelf",
      "outputs": [],
      "stateMutability": "nonpayable",
      "type": "function"
    },
    {
      "inputs": [
        {
          "internalType": "uint256",
          "name": "amount",
          "type": "uint256"
        }
      ],
      "name": "burnStablecoin",
      "outputs": [],
      "stateMutability": "nonpayable",
      "type": "function"
    },
    {
      "inputs": [],
      "name": "decimals",
      "outputs": [
        {
          "internalType": "uint8",
          "name": "",
          "type": "uint8"
        }
      ],
      "stateMutability": "view",
      "type": "function"
    },
    {
      "inputs": [
        {
          "internalType": "address",
          "name": "spender",
          "type": "address"
        },
        {
          "internalType": "uint256",
          "name": "subtractedValue",
          "type": "uint256"
        }
      ],
      "name": "decreaseAllowance",
      "outputs": [
        {
          "internalType": "bool",
          "name": "",
          "type": "bool"
        }
      ],
      "stateMutability": "nonpayable",
      "type": "function"
    },
    {
      "inputs": [
        {
          "internalType": "address",
          "name": "spender",
          "type": "address"
        },
        {
          "internalType": "uint256",
          "name": "addedValue",
          "type": "uint256"
        }
      ],
      "name": "increaseAllowance",
      "outputs": [
        {
          "internalType": "bool",
          "name": "",
          "type": "bool"
        }
      ],
      "stateMutability": "nonpayable",
      "type": "function"
    },
    {
      "inputs": [
        {
          "internalType": "string",
          "name": "name_",
          "type": "string"
        },
        {
          "internalType": "string",
          "name": "symbol_",
          "type": "string"
        },
        {
          "internalType": "address",
          "name": "_treasury",
          "type": "address"
        }
      ],
      "name": "initialize",
      "outputs": [],
      "stateMutability": "nonpayable",
      "type": "function"
    },
    {
      "inputs": [
        {
          "internalType": "address",
          "name": "",
          "type": "address"
        }
      ],
      "name": "isMinter",
      "outputs": [
        {
          "internalType": "bool",
          "name": "",
          "type": "bool"
        }
      ],
      "stateMutability": "view",
      "type": "function"
    },
    {
      "inputs": [
        {
          "internalType": "address",
          "name": "account",
          "type": "address"
        },
        {
          "internalType": "uint256",
          "name": "amount",
          "type": "uint256"
        }
      ],
      "name": "mint",
      "outputs": [],
      "stateMutability": "nonpayable",
      "type": "function"
    },
    {
      "inputs": [],
      "name": "name",
      "outputs": [
        {
          "internalType": "string",
          "name": "",
          "type": "string"
        }
      ],
      "stateMutability": "view",
      "type": "function"
    },
    {
      "inputs": [
        {
          "internalType": "address",
          "name": "owner",
          "type": "address"
        }
      ],
      "name": "nonces",
      "outputs": [
        {
          "internalType": "uint256",
          "name": "",
          "type": "uint256"
        }
      ],
      "stateMutability": "view",
      "type": "function"
    },
    {
      "inputs": [
        {
          "internalType": "address",
          "name": "owner",
          "type": "address"
        },
        {
          "internalType": "address",
          "name": "spender",
          "type": "address"
        },
        {
          "internalType": "uint256",
          "name": "value",
          "type": "uint256"
        },
        {
          "internalType": "uint256",
          "name": "deadline",
          "type": "uint256"
        },
        {
          "internalType": "uint8",
          "name": "v",
          "type": "uint8"
        },
        {
          "internalType": "bytes32",
          "name": "r",
          "type": "bytes32"
        },
        {
          "internalType": "bytes32",
          "name": "s",
          "type": "bytes32"
        }
      ],
      "name": "permit",
      "outputs": [],
      "stateMutability": "nonpayable",
      "type": "function"
    },
    {
      "inputs": [
        {
          "internalType": "address",
          "name": "minter",
          "type": "address"
        }
      ],
      "name": "removeMinter",
      "outputs": [],
      "stateMutability": "nonpayable",
      "type": "function"
    },
    {
      "inputs": [
        {
          "internalType": "address",
          "name": "_treasury",
          "type": "address"
        }
      ],
      "name": "setTreasury",
      "outputs": [],
      "stateMutability": "nonpayable",
      "type": "function"
    },
    {
      "inputs": [],
      "name": "symbol",
      "outputs": [
        {
          "internalType": "string",
          "name": "",
          "type": "string"
        }
      ],
      "stateMutability": "view",
      "type": "function"
    },
    {
      "inputs": [],
      "name": "totalSupply",
      "outputs": [
        {
          "internalType": "uint256",
          "name": "",
          "type": "uint256"
        }
      ],
      "stateMutability": "view",
      "type": "function"
    },
    {
      "inputs": [
        {
          "internalType": "address",
          "name": "to",
          "type": "address"
        },
        {
          "internalType": "uint256",
          "name": "amount",
          "type": "uint256"
        }
      ],
      "name": "transfer",
      "outputs": [
        {
          "internalType": "bool",
          "name": "",
          "type": "bool"
        }
      ],
      "stateMutability": "nonpayable",
      "type": "function"
    },
    {
      "inputs": [
        {
          "internalType": "address",
          "name": "from",
          "type": "address"
        },
        {
          "internalType": "address",
          "name": "to",
          "type": "address"
        },
        {
          "internalType": "uint256",
          "name": "amount",
          "type": "uint256"
        }
      ],
      "name": "transferFrom",
      "outputs": [
        {
          "internalType": "bool",
          "name": "",
          "type": "bool"
        }
      ],
      "stateMutability": "nonpayable",
      "type": "function"
    },
    {
      "inputs": [],
      "name": "treasury",
      "outputs": [
        {
          "internalType": "address",
          "name": "",
          "type": "address"
        }
      ],
      "stateMutability": "view",
      "type": "function"
    }
  ],
  "transactionHash": "0x5b58f25c718f20c212190caf13499d317b012a132235f4c08eaa93d81a10e708",
  "args": [],
  "numDeployments": 1,
  "solcInputHash": "67093b4a6e335f95b976e3bf91551d41",
  "bytecode": "0x60806040523480156200001157600080fd5b50600054610100900460ff1615808015620000335750600054600160ff909116105b8062000063575062000050306200013d60201b62000b931760201c565b15801562000063575060005460ff166001145b620000cb5760405162461bcd60e51b815260206004820152602e60248201527f496e697469616c697a61626c653a20636f6e747261637420697320616c72656160448201526d191e481a5b9a5d1a585b1a5e995960921b606482015260840160405180910390fd5b6000805460ff191660011790558015620000ef576000805461ff0019166101001790555b801562000136576000805461ff0019169055604051600181527f7f26b83ff96e1f2b6a682f133852f6798a09c465da95921460cefb38474024989060200160405180910390a15b506200014c565b6001600160a01b03163b151590565b612544806200015c6000396000f3fe608060405234801561001057600080fd5b50600436106101985760003560e01c806361d027b3116100e3578063a457c2d71161008c578063d505accf11610066578063d505accf14610393578063dd62ed3e146103a6578063f0f44260146103ec57600080fd5b8063a457c2d71461034a578063a9059cbb1461035d578063aa271e1a1461037057600080fd5b806390218cff116100bd57806390218cff1461031c57806395d89b411461032f578063983b2d561461033757600080fd5b806361d027b31461028e57806370a08231146102d35780637ecebe001461030957600080fd5b80633092afd5116101455780633644e5151161011f5780633644e51514610260578063395093511461026857806340c10f191461027b57600080fd5b80633092afd51461022b578063313ce5671461023e578063350ebe041461024d57600080fd5b806318160ddd1161017657806318160ddd146101f357806323b872dd146102055780632b471d8e1461021857600080fd5b806306fdde031461019d578063077f224a146101bb578063095ea7b3146101d0575b600080fd5b6101a56103ff565b6040516101b29190611f22565b60405180910390f35b6101ce6101c936600461208a565b610491565b005b6101e36101de366004612102565b6104a1565b60405190151581526020016101b2565b6035545b6040519081526020016101b2565b6101e361021336600461212e565b6104bb565b6101ce61022636600461216f565b6104df565b6101ce61023936600461219f565b610536565b604051601281526020016101b2565b6101ce61025b3660046121c3565b61061f565b6101f7610673565b6101e3610276366004612102565b610682565b6101ce610289366004612102565b6106ce565b60cd546102ae9073ffffffffffffffffffffffffffffffffffffffff1681565b60405173ffffffffffffffffffffffffffffffffffffffff90911681526020016101b2565b6101f76102e136600461219f565b73ffffffffffffffffffffffffffffffffffffffff1660009081526033602052604090205490565b6101f761031736600461219f565b610721565b6101ce61032a3660046121fa565b61074c565b6101a5610759565b6101ce61034536600461219f565b610768565b6101e3610358366004612102565b610830565b6101e361036b366004612102565b610906565b6101e361037e36600461219f565b60cc6020526000908152604090205460ff1681565b6101ce6103a1366004612213565b610914565b6101f76103b436600461228a565b73ffffffffffffffffffffffffffffffffffffffff918216600090815260346020908152604080832093909416825291909152205490565b6101ce6103fa36600461219f565b610ad3565b60606036805461040e906122b8565b80601f016020809104026020016040519081016040528092919081815260200182805461043a906122b8565b80156104875780601f1061045c57610100808354040283529160200191610487565b820191906000526020600020905b81548152906001019060200180831161046a57829003601f168201915b5050505050905090565b61049c838383610baf565b505050565b6000336104af818585610e1a565b60019150505b92915050565b6000336104c9858285610fcd565b6104d485858561109e565b506001949350505050565b33600090815260cc602052604090205460ff16610528576040517ff8d2906c00000000000000000000000000000000000000000000000000000000815260040160405180910390fd5b6105328183611351565b5050565b60cd5473ffffffffffffffffffffffffffffffffffffffff16331480159061057457503373ffffffffffffffffffffffffffffffffffffffff821614155b156105ab576040517fddb5de5e00000000000000000000000000000000000000000000000000000000815260040160405180910390fd5b73ffffffffffffffffffffffffffffffffffffffff8116600081815260cc602052604080822080547fffffffffffffffffffffffffffffffffffffffffffffffffffffffffffffff00169055517f98c15241d6c02bc5ee0b780e11b3ea737a2defd9d04877edbe9f9497065bd02f9190a250565b33600090815260cc602052604090205460ff16610668576040517ff8d2906c00000000000000000000000000000000000000000000000000000000815260040160405180910390fd5b61049c83838361153e565b600061067d6115f9565b905090565b33600081815260346020908152604080832073ffffffffffffffffffffffffffffffffffffffff871684529091528120549091906104af90829086906106c9908790612334565b610e1a565b33600090815260cc602052604090205460ff16610717576040517ff8d2906c00000000000000000000000000000000000000000000000000000000815260040160405180910390fd5b6105328282611674565b73ffffffffffffffffffffffffffffffffffffffff81166000908152609960205260408120546104b5565b6107563382611351565b50565b60606037805461040e906122b8565b60cd5473ffffffffffffffffffffffffffffffffffffffff1633146107b9576040517fb90cdbb100000000000000000000000000000000000000000000000000000000815260040160405180910390fd5b73ffffffffffffffffffffffffffffffffffffffff8116600081815260cc602052604080822080547fffffffffffffffffffffffffffffffffffffffffffffffffffffffffffffff00166001179055517f98c15241d6c02bc5ee0b780e11b3ea737a2defd9d04877edbe9f9497065bd02f9190a250565b33600081815260346020908152604080832073ffffffffffffffffffffffffffffffffffffffff87168452909152812054909190838110156108f9576040517f08c379a000000000000000000000000000000000000000000000000000000000815260206004820152602560248201527f45524332303a2064656372656173656420616c6c6f77616e63652062656c6f7760448201527f207a65726f00000000000000000000000000000000000000000000000000000060648201526084015b60405180910390fd5b6104d48286868403610e1a565b6000336104af81858561109e565b8342111561097e576040517f08c379a000000000000000000000000000000000000000000000000000000000815260206004820152601d60248201527f45524332305065726d69743a206578706972656420646561646c696e6500000060448201526064016108f0565b60007f6e71edae12b1b97f4d1f60370fef10105fa2faae0126114a169c64845d6126c98888886109ad8c611794565b60408051602081019690965273ffffffffffffffffffffffffffffffffffffffff94851690860152929091166060840152608083015260a082015260c0810186905260e0016040516020818303038152906040528051906020012090506000610a15826117c9565b90506000610a2582878787611832565b90508973ffffffffffffffffffffffffffffffffffffffff168173ffffffffffffffffffffffffffffffffffffffff1614610abc576040517f08c379a000000000000000000000000000000000000000000000000000000000815260206004820152601e60248201527f45524332305065726d69743a20696e76616c6964207369676e6174757265000060448201526064016108f0565b610ac78a8a8a610e1a565b50505050505050505050565b60cd5473ffffffffffffffffffffffffffffffffffffffff163314610b24576040517fb90cdbb100000000000000000000000000000000000000000000000000000000815260040160405180910390fd5b60cd80547fffffffffffffffffffffffff00000000000000000000000000000000000000001673ffffffffffffffffffffffffffffffffffffffff83169081179091556040517f7dae230f18360d76a040c81f050aa14eb9d6dc7901b20fc5d855e2a20fe814d190600090a250565b73ffffffffffffffffffffffffffffffffffffffff163b151590565b600054610100900460ff1615808015610bcf5750600054600160ff909116105b80610be95750303b158015610be9575060005460ff166001145b610c75576040517f08c379a000000000000000000000000000000000000000000000000000000000815260206004820152602e60248201527f496e697469616c697a61626c653a20636f6e747261637420697320616c72656160448201527f647920696e697469616c697a656400000000000000000000000000000000000060648201526084016108f0565b600080547fffffffffffffffffffffffffffffffffffffffffffffffffffffffffffffff001660011790558015610cd357600080547fffffffffffffffffffffffffffffffffffffffffffffffffffffffffffff00ff166101001790555b3073ffffffffffffffffffffffffffffffffffffffff168273ffffffffffffffffffffffffffffffffffffffff1663e9cbd8226040518163ffffffff1660e01b8152600401602060405180830381865afa158015610d35573d6000803e3d6000fd5b505050506040513d601f19601f82011682018060405250810190610d599190612347565b73ffffffffffffffffffffffffffffffffffffffff1614610da6576040517f14bcf5c800000000000000000000000000000000000000000000000000000000815260040160405180910390fd5b610db184848461185a565b8015610e1457600080547fffffffffffffffffffffffffffffffffffffffffffffffffffffffffffff00ff169055604051600181527f7f26b83ff96e1f2b6a682f133852f6798a09c465da95921460cefb38474024989060200160405180910390a15b50505050565b73ffffffffffffffffffffffffffffffffffffffff8316610ebc576040517f08c379a0000000000000000000000000000000000000000000000000000000008152602060048201526024808201527f45524332303a20617070726f76652066726f6d20746865207a65726f2061646460448201527f726573730000000000000000000000000000000000000000000000000000000060648201526084016108f0565b73ffffffffffffffffffffffffffffffffffffffff8216610f5f576040517f08c379a000000000000000000000000000000000000000000000000000000000815260206004820152602260248201527f45524332303a20617070726f766520746f20746865207a65726f20616464726560448201527f737300000000000000000000000000000000000000000000000000000000000060648201526084016108f0565b73ffffffffffffffffffffffffffffffffffffffff83811660008181526034602090815260408083209487168084529482529182902085905590518481527f8c5be1e5ebec7d5bd14f71427d1e84f3dd0314c0f7b2291e5b200ac8c7c3b925910160405180910390a3505050565b73ffffffffffffffffffffffffffffffffffffffff8381166000908152603460209081526040808320938616835292905220547fffffffffffffffffffffffffffffffffffffffffffffffffffffffffffffffff8114610e145781811015611091576040517f08c379a000000000000000000000000000000000000000000000000000000000815260206004820152601d60248201527f45524332303a20696e73756666696369656e7420616c6c6f77616e636500000060448201526064016108f0565b610e148484848403610e1a565b73ffffffffffffffffffffffffffffffffffffffff8316611141576040517f08c379a000000000000000000000000000000000000000000000000000000000815260206004820152602560248201527f45524332303a207472616e736665722066726f6d20746865207a65726f20616460448201527f647265737300000000000000000000000000000000000000000000000000000060648201526084016108f0565b73ffffffffffffffffffffffffffffffffffffffff82166111e4576040517f08c379a000000000000000000000000000000000000000000000000000000000815260206004820152602360248201527f45524332303a207472616e7366657220746f20746865207a65726f206164647260448201527f657373000000000000000000000000000000000000000000000000000000000060648201526084016108f0565b73ffffffffffffffffffffffffffffffffffffffff83166000908152603360205260409020548181101561129a576040517f08c379a000000000000000000000000000000000000000000000000000000000815260206004820152602660248201527f45524332303a207472616e7366657220616d6f756e742065786365656473206260448201527f616c616e6365000000000000000000000000000000000000000000000000000060648201526084016108f0565b73ffffffffffffffffffffffffffffffffffffffff8085166000908152603360205260408082208585039055918516815290812080548492906112de908490612334565b925050819055508273ffffffffffffffffffffffffffffffffffffffff168473ffffffffffffffffffffffffffffffffffffffff167fddf252ad1be2c89b69c2b068fc378daa952ba7f163c4a11628f55a4df523b3ef8460405161134491815260200190565b60405180910390a3610e14565b73ffffffffffffffffffffffffffffffffffffffff82166113f4576040517f08c379a000000000000000000000000000000000000000000000000000000000815260206004820152602160248201527f45524332303a206275726e2066726f6d20746865207a65726f2061646472657360448201527f730000000000000000000000000000000000000000000000000000000000000060648201526084016108f0565b73ffffffffffffffffffffffffffffffffffffffff8216600090815260336020526040902054818110156114aa576040517f08c379a000000000000000000000000000000000000000000000000000000000815260206004820152602260248201527f45524332303a206275726e20616d6f756e7420657863656564732062616c616e60448201527f636500000000000000000000000000000000000000000000000000000000000060648201526084016108f0565b73ffffffffffffffffffffffffffffffffffffffff831660009081526033602052604081208383039055603580548492906114e6908490612364565b909155505060405182815260009073ffffffffffffffffffffffffffffffffffffffff8516907fddf252ad1be2c89b69c2b068fc378daa952ba7f163c4a11628f55a4df523b3ef9060200160405180910390a3505050565b8073ffffffffffffffffffffffffffffffffffffffff168273ffffffffffffffffffffffffffffffffffffffff16146115ef5773ffffffffffffffffffffffffffffffffffffffff828116600090815260346020908152604080832093851683529290522054838110156115de576040517f715ec26c00000000000000000000000000000000000000000000000000000000815260040160405180910390fd5b6115ed83836106c98785612364565b505b61049c8284611351565b600061067d7f8b73c3c69bb8fe3d512ecc4cf759cc79239f7b179b0ffacaa9a75d522b39400f61162860655490565b6066546040805160208101859052908101839052606081018290524660808201523060a082015260009060c0016040516020818303038152906040528051906020012090509392505050565b73ffffffffffffffffffffffffffffffffffffffff82166116f1576040517f08c379a000000000000000000000000000000000000000000000000000000000815260206004820152601f60248201527f45524332303a206d696e7420746f20746865207a65726f20616464726573730060448201526064016108f0565b80603560008282546117039190612334565b909155505073ffffffffffffffffffffffffffffffffffffffff82166000908152603360205260408120805483929061173d908490612334565b909155505060405181815273ffffffffffffffffffffffffffffffffffffffff8316906000907fddf252ad1be2c89b69c2b068fc378daa952ba7f163c4a11628f55a4df523b3ef9060200160405180910390a35050565b73ffffffffffffffffffffffffffffffffffffffff811660009081526099602052604090208054600181018255905b50919050565b60006104b56117d66115f9565b836040517f19010000000000000000000000000000000000000000000000000000000000006020820152602281018390526042810182905260009060620160405160208183030381529060405280519060200120905092915050565b6000806000611843878787876118de565b91509150611850816119f6565b5095945050505050565b61186383611c4a565b61186d8383611d20565b60cd80547fffffffffffffffffffffffff00000000000000000000000000000000000000001673ffffffffffffffffffffffffffffffffffffffff83169081179091556040517f7dae230f18360d76a040c81f050aa14eb9d6dc7901b20fc5d855e2a20fe814d190600090a2505050565b6000807f7fffffffffffffffffffffffffffffff5d576e7357a4501ddfe92f46681b20a083111561191557506000905060036119ed565b8460ff16601b1415801561192d57508460ff16601c14155b1561193e57506000905060046119ed565b6040805160008082526020820180845289905260ff881692820192909252606081018690526080810185905260019060a0016020604051602081039080840390855afa158015611992573d6000803e3d6000fd5b50506040517fffffffffffffffffffffffffffffffffffffffffffffffffffffffffffffffe0015191505073ffffffffffffffffffffffffffffffffffffffff81166119e6576000600192509250506119ed565b9150600090505b94509492505050565b6000816004811115611a0a57611a0a612377565b03611a125750565b6001816004811115611a2657611a26612377565b03611a8d576040517f08c379a000000000000000000000000000000000000000000000000000000000815260206004820152601860248201527f45434453413a20696e76616c6964207369676e6174757265000000000000000060448201526064016108f0565b6002816004811115611aa157611aa1612377565b03611b08576040517f08c379a000000000000000000000000000000000000000000000000000000000815260206004820152601f60248201527f45434453413a20696e76616c6964207369676e6174757265206c656e6774680060448201526064016108f0565b6003816004811115611b1c57611b1c612377565b03611ba9576040517f08c379a000000000000000000000000000000000000000000000000000000000815260206004820152602260248201527f45434453413a20696e76616c6964207369676e6174757265202773272076616c60448201527f756500000000000000000000000000000000000000000000000000000000000060648201526084016108f0565b6004816004811115611bbd57611bbd612377565b03610756576040517f08c379a000000000000000000000000000000000000000000000000000000000815260206004820152602260248201527f45434453413a20696e76616c6964207369676e6174757265202776272076616c60448201527f756500000000000000000000000000000000000000000000000000000000000060648201526084016108f0565b600054610100900460ff16611ce1576040517f08c379a000000000000000000000000000000000000000000000000000000000815260206004820152602b60248201527f496e697469616c697a61626c653a20636f6e7472616374206973206e6f74206960448201527f6e697469616c697a696e6700000000000000000000000000000000000000000060648201526084016108f0565b610756816040518060400160405280600181526020017f3100000000000000000000000000000000000000000000000000000000000000815250611dc1565b600054610100900460ff16611db7576040517f08c379a000000000000000000000000000000000000000000000000000000000815260206004820152602b60248201527f496e697469616c697a61626c653a20636f6e7472616374206973206e6f74206960448201527f6e697469616c697a696e6700000000000000000000000000000000000000000060648201526084016108f0565b6105328282611e72565b600054610100900460ff16611e58576040517f08c379a000000000000000000000000000000000000000000000000000000000815260206004820152602b60248201527f496e697469616c697a61626c653a20636f6e7472616374206973206e6f74206960448201527f6e697469616c697a696e6700000000000000000000000000000000000000000060648201526084016108f0565b815160209283012081519190920120606591909155606655565b600054610100900460ff16611f09576040517f08c379a000000000000000000000000000000000000000000000000000000000815260206004820152602b60248201527f496e697469616c697a61626c653a20636f6e7472616374206973206e6f74206960448201527f6e697469616c697a696e6700000000000000000000000000000000000000000060648201526084016108f0565b6036611f1583826123f4565b50603761049c82826123f4565b600060208083528351808285015260005b81811015611f4f57858101830151858201604001528201611f33565b5060006040828601015260407fffffffffffffffffffffffffffffffffffffffffffffffffffffffffffffffe0601f8301168501019250505092915050565b7f4e487b7100000000000000000000000000000000000000000000000000000000600052604160045260246000fd5b600082601f830112611fce57600080fd5b813567ffffffffffffffff80821115611fe957611fe9611f8e565b604051601f83017fffffffffffffffffffffffffffffffffffffffffffffffffffffffffffffffe0908116603f0116810190828211818310171561202f5761202f611f8e565b8160405283815286602085880101111561204857600080fd5b836020870160208301376000602085830101528094505050505092915050565b73ffffffffffffffffffffffffffffffffffffffff8116811461075657600080fd5b60008060006060848603121561209f57600080fd5b833567ffffffffffffffff808211156120b757600080fd5b6120c387838801611fbd565b945060208601359150808211156120d957600080fd5b506120e686828701611fbd565b92505060408401356120f781612068565b809150509250925092565b6000806040838503121561211557600080fd5b823561212081612068565b946020939093013593505050565b60008060006060848603121561214357600080fd5b833561214e81612068565b9250602084013561215e81612068565b929592945050506040919091013590565b6000806040838503121561218257600080fd5b82359150602083013561219481612068565b809150509250929050565b6000602082840312156121b157600080fd5b81356121bc81612068565b9392505050565b6000806000606084860312156121d857600080fd5b8335925060208401356121ea81612068565b915060408401356120f781612068565b60006020828403121561220c57600080fd5b5035919050565b600080600080600080600060e0888a03121561222e57600080fd5b873561223981612068565b9650602088013561224981612068565b95506040880135945060608801359350608088013560ff8116811461226d57600080fd5b9699959850939692959460a0840135945060c09093013592915050565b6000806040838503121561229d57600080fd5b82356122a881612068565b9150602083013561219481612068565b600181811c908216806122cc57607f821691505b6020821081036117c3577f4e487b7100000000000000000000000000000000000000000000000000000000600052602260045260246000fd5b7f4e487b7100000000000000000000000000000000000000000000000000000000600052601160045260246000fd5b808201808211156104b5576104b5612305565b60006020828403121561235957600080fd5b81516121bc81612068565b818103818111156104b5576104b5612305565b7f4e487b7100000000000000000000000000000000000000000000000000000000600052602160045260246000fd5b601f82111561049c57600081815260208120601f850160051c810160208610156123cd5750805b601f850160051c820191505b818110156123ec578281556001016123d9565b505050505050565b815167ffffffffffffffff81111561240e5761240e611f8e565b6124228161241c84546122b8565b846123a6565b602080601f831160018114612475576000841561243f5750858301515b7fffffffffffffffffffffffffffffffffffffffffffffffffffffffffffffffff600386901b1c1916600185901b1785556123ec565b6000858152602081207fffffffffffffffffffffffffffffffffffffffffffffffffffffffffffffffe08616915b828110156124c2578886015182559484019460019091019084016124a3565b50858210156124fe57878501517fffffffffffffffffffffffffffffffffffffffffffffffffffffffffffffffff600388901b60f8161c191681555b5050505050600190811b0190555056fea2646970667358221220330c27423bddf64a1a9241f52955ef5f454a55d7a8385677fdd6b51bb93678ba64736f6c63430008110033",
  "devdoc": {
    "author": "Angle Labs, Inc.",
    "kind": "dev",
    "methods": {
      "DOMAIN_SEPARATOR()": {
        "details": "See {IERC20Permit-DOMAIN_SEPARATOR}."
      },
      "addMinter(address)": {
        "details": "Zero address checks are performed directly in the `Treasury` contract",
        "params": {
          "minter": "Minter address to add"
        }
      },
      "allowance(address,address)": {
        "details": "See {IERC20-allowance}."
      },
      "approve(address,uint256)": {
        "details": "See {IERC20-approve}. NOTE: If `amount` is the maximum `uint256`, the allowance is not updated on `transferFrom`. This is semantically equivalent to an infinite approval. Requirements: - `spender` cannot be the zero address."
      },
      "balanceOf(address)": {
        "details": "See {IERC20-balanceOf}."
      },
      "burnFrom(uint256,address,address)": {
        "details": "This method is to be called by a contract with the minter right after being requested to do so by a `sender` address willing to burn tokens from another `burner` addressThe method checks the allowance between the `sender` and the `burner`",
        "params": {
          "amount": "Amount of tokens to burn",
          "burner": "Address to burn from",
          "sender": "Address which requested the burn from `burner`"
        }
      },
      "burnSelf(uint256,address)": {
        "details": "This method is to be called by a contract with a minter right on the AgToken after being requested to do so by an address willing to burn tokens from its address",
        "params": {
          "amount": "Amount of tokens to burn",
          "burner": "Address to burn from"
        }
      },
      "burnStablecoin(uint256)": {
        "details": "This function can typically be called if there is a settlement mechanism to burn stablecoins",
        "params": {
          "amount": "Amount of stablecoins to burn"
        }
      },
      "decimals()": {
        "details": "Returns the number of decimals used to get its user representation. For example, if `decimals` equals `2`, a balance of `505` tokens should be displayed to a user as `5.05` (`505 / 10 ** 2`). Tokens usually opt for a value of 18, imitating the relationship between Ether and Wei. This is the value {ERC20} uses, unless this function is overridden; NOTE: This information is only used for _display_ purposes: it in no way affects any of the arithmetic of the contract, including {IERC20-balanceOf} and {IERC20-transfer}."
      },
      "decreaseAllowance(address,uint256)": {
        "details": "Atomically decreases the allowance granted to `spender` by the caller. This is an alternative to {approve} that can be used as a mitigation for problems described in {IERC20-approve}. Emits an {Approval} event indicating the updated allowance. Requirements: - `spender` cannot be the zero address. - `spender` must have allowance for the caller of at least `subtractedValue`."
      },
      "increaseAllowance(address,uint256)": {
        "details": "Atomically increases the allowance granted to `spender` by the caller. This is an alternative to {approve} that can be used as a mitigation for problems described in {IERC20-approve}. Emits an {Approval} event indicating the updated allowance. Requirements: - `spender` cannot be the zero address."
      },
      "mint(address,uint256)": {
        "details": "The contracts allowed to issue agTokens are the `StableMaster` contract, `VaultManager` contracts associated to this stablecoin as well as the flash loan module (if activated) and potentially contracts whitelisted by governance",
        "params": {
          "account": "Address to mint to",
          "amount": "Amount to mint"
        }
      },
      "name()": {
        "details": "Returns the name of the token."
      },
      "nonces(address)": {
        "details": "See {IERC20Permit-nonces}."
      },
      "permit(address,address,uint256,uint256,uint8,bytes32,bytes32)": {
        "details": "See {IERC20Permit-permit}."
      },
      "removeMinter(address)": {
        "details": "This function can also be called by a minter wishing to revoke itself",
        "params": {
          "minter": "Minter address to remove"
        }
      },
      "setTreasury(address)": {
        "params": {
          "_treasury": "New treasury address"
        }
      },
      "symbol()": {
        "details": "Returns the symbol of the token, usually a shorter version of the name."
      },
      "totalSupply()": {
        "details": "See {IERC20-totalSupply}."
      },
      "transfer(address,uint256)": {
        "details": "See {IERC20-transfer}. Requirements: - `to` cannot be the zero address. - the caller must have a balance of at least `amount`."
      },
      "transferFrom(address,address,uint256)": {
        "details": "See {IERC20-transferFrom}. Emits an {Approval} event indicating the updated allowance. This is not required by the EIP. See the note at the beginning of {ERC20}. NOTE: Does not update the allowance if the current allowance is the maximum `uint256`. Requirements: - `from` and `to` cannot be the zero address. - `from` must have a balance of at least `amount`. - the caller must have allowance for ``from``'s tokens of at least `amount`."
      }
    },
    "title": "AgTokenSideChain",
    "version": 1
  },
  "userdoc": {
    "kind": "user",
    "methods": {
      "addMinter(address)": {
        "notice": "Adds a minter in the contract"
      },
      "burnFrom(uint256,address,address)": {
        "notice": "Burns `amount` tokens from a `burner` address after being asked to by `sender`"
      },
      "burnSelf(uint256,address)": {
        "notice": "Burns `amount` tokens from a `burner` address"
      },
      "burnStablecoin(uint256)": {
        "notice": "Allows anyone to burn agToken without redeeming collateral back"
      },
      "isMinter(address)": {
        "notice": "Checks whether an address has the right to mint agTokens"
      },
      "mint(address,uint256)": {
        "notice": "Lets the `StableMaster` contract or another whitelisted contract mint agTokens"
      },
      "removeMinter(address)": {
        "notice": "Removes a minter from the contract"
      },
      "setTreasury(address)": {
        "notice": "Sets a new treasury contract"
      },
      "treasury()": {
        "notice": "Reference to the treasury contract which can grant minting rights"
      }
    },
    "notice": "Implementation for Angle agTokens to be deployed on chains where there is no need to support bridging and swapping in and out from other bridge tokens",
    "version": 1
  },
  "storageLayout": {
    "storage": [
      {
        "astId": 941,
        "contract": "contracts/agToken/AgTokenSideChain.sol:AgTokenSideChain",
        "label": "_initialized",
        "offset": 0,
        "slot": "0",
        "type": "t_uint8"
      },
      {
        "astId": 944,
        "contract": "contracts/agToken/AgTokenSideChain.sol:AgTokenSideChain",
        "label": "_initializing",
        "offset": 1,
        "slot": "0",
        "type": "t_bool"
      },
      {
        "astId": 2938,
        "contract": "contracts/agToken/AgTokenSideChain.sol:AgTokenSideChain",
        "label": "__gap",
        "offset": 0,
        "slot": "1",
        "type": "t_array(t_uint256)50_storage"
      },
      {
        "astId": 1290,
        "contract": "contracts/agToken/AgTokenSideChain.sol:AgTokenSideChain",
        "label": "_balances",
        "offset": 0,
        "slot": "51",
        "type": "t_mapping(t_address,t_uint256)"
      },
      {
        "astId": 1296,
        "contract": "contracts/agToken/AgTokenSideChain.sol:AgTokenSideChain",
        "label": "_allowances",
        "offset": 0,
        "slot": "52",
        "type": "t_mapping(t_address,t_mapping(t_address,t_uint256))"
      },
      {
        "astId": 1298,
        "contract": "contracts/agToken/AgTokenSideChain.sol:AgTokenSideChain",
        "label": "_totalSupply",
        "offset": 0,
        "slot": "53",
        "type": "t_uint256"
      },
      {
        "astId": 1300,
        "contract": "contracts/agToken/AgTokenSideChain.sol:AgTokenSideChain",
        "label": "_name",
        "offset": 0,
        "slot": "54",
        "type": "t_string_storage"
      },
      {
        "astId": 1302,
        "contract": "contracts/agToken/AgTokenSideChain.sol:AgTokenSideChain",
        "label": "_symbol",
        "offset": 0,
        "slot": "55",
        "type": "t_string_storage"
      },
      {
        "astId": 1881,
        "contract": "contracts/agToken/AgTokenSideChain.sol:AgTokenSideChain",
        "label": "__gap",
        "offset": 0,
        "slot": "56",
        "type": "t_array(t_uint256)45_storage"
      },
      {
        "astId": 3655,
        "contract": "contracts/agToken/AgTokenSideChain.sol:AgTokenSideChain",
        "label": "_HASHED_NAME",
        "offset": 0,
        "slot": "101",
        "type": "t_bytes32"
      },
      {
        "astId": 3657,
        "contract": "contracts/agToken/AgTokenSideChain.sol:AgTokenSideChain",
        "label": "_HASHED_VERSION",
        "offset": 0,
        "slot": "102",
        "type": "t_bytes32"
      },
      {
        "astId": 3795,
        "contract": "contracts/agToken/AgTokenSideChain.sol:AgTokenSideChain",
        "label": "__gap",
        "offset": 0,
        "slot": "103",
        "type": "t_array(t_uint256)50_storage"
      },
      {
        "astId": 2011,
        "contract": "contracts/agToken/AgTokenSideChain.sol:AgTokenSideChain",
        "label": "_nonces",
        "offset": 0,
        "slot": "153",
        "type": "t_mapping(t_address,t_struct(Counter)2945_storage)"
      },
      {
        "astId": 2019,
        "contract": "contracts/agToken/AgTokenSideChain.sol:AgTokenSideChain",
        "label": "_PERMIT_TYPEHASH_DEPRECATED_SLOT",
        "offset": 0,
        "slot": "154",
        "type": "t_bytes32"
      },
      {
        "astId": 2175,
        "contract": "contracts/agToken/AgTokenSideChain.sol:AgTokenSideChain",
        "label": "__gap",
        "offset": 0,
        "slot": "155",
        "type": "t_array(t_uint256)49_storage"
      },
      {
        "astId": 11202,
        "contract": "contracts/agToken/AgTokenSideChain.sol:AgTokenSideChain",
        "label": "isMinter",
        "offset": 0,
        "slot": "204",
        "type": "t_mapping(t_address,t_bool)"
      },
      {
        "astId": 11205,
        "contract": "contracts/agToken/AgTokenSideChain.sol:AgTokenSideChain",
        "label": "treasury",
        "offset": 0,
        "slot": "205",
        "type": "t_address"
      }
    ],
    "types": {
      "t_address": {
        "encoding": "inplace",
        "label": "address",
        "numberOfBytes": "20"
      },
      "t_array(t_uint256)45_storage": {
        "base": "t_uint256",
        "encoding": "inplace",
        "label": "uint256[45]",
        "numberOfBytes": "1440"
      },
      "t_array(t_uint256)49_storage": {
        "base": "t_uint256",
        "encoding": "inplace",
        "label": "uint256[49]",
        "numberOfBytes": "1568"
      },
      "t_array(t_uint256)50_storage": {
        "base": "t_uint256",
        "encoding": "inplace",
        "label": "uint256[50]",
        "numberOfBytes": "1600"
      },
      "t_bool": {
        "encoding": "inplace",
        "label": "bool",
        "numberOfBytes": "1"
      },
      "t_bytes32": {
        "encoding": "inplace",
        "label": "bytes32",
        "numberOfBytes": "32"
      },
      "t_mapping(t_address,t_bool)": {
        "encoding": "mapping",
        "key": "t_address",
        "label": "mapping(address => bool)",
        "numberOfBytes": "32",
        "value": "t_bool"
      },
      "t_mapping(t_address,t_mapping(t_address,t_uint256))": {
        "encoding": "mapping",
        "key": "t_address",
        "label": "mapping(address => mapping(address => uint256))",
        "numberOfBytes": "32",
        "value": "t_mapping(t_address,t_uint256)"
      },
      "t_mapping(t_address,t_struct(Counter)2945_storage)": {
        "encoding": "mapping",
        "key": "t_address",
        "label": "mapping(address => struct CountersUpgradeable.Counter)",
        "numberOfBytes": "32",
        "value": "t_struct(Counter)2945_storage"
      },
      "t_mapping(t_address,t_uint256)": {
        "encoding": "mapping",
        "key": "t_address",
        "label": "mapping(address => uint256)",
        "numberOfBytes": "32",
        "value": "t_uint256"
      },
      "t_string_storage": {
        "encoding": "bytes",
        "label": "string",
        "numberOfBytes": "32"
      },
      "t_struct(Counter)2945_storage": {
        "encoding": "inplace",
        "label": "struct CountersUpgradeable.Counter",
        "members": [
          {
            "astId": 2944,
            "contract": "contracts/agToken/AgTokenSideChain.sol:AgTokenSideChain",
            "label": "_value",
            "offset": 0,
            "slot": "0",
            "type": "t_uint256"
          }
        ],
        "numberOfBytes": "32"
      },
      "t_uint256": {
        "encoding": "inplace",
        "label": "uint256",
        "numberOfBytes": "32"
      },
      "t_uint8": {
        "encoding": "inplace",
        "label": "uint8",
        "numberOfBytes": "1"
      }
    }
  }
}