{
  "address": "0xa21d906bF21a58196c9F7566c366c10D5Fa1A723",
  "abi": [
    {
      "inputs": [],
      "stateMutability": "nonpayable",
      "type": "constructor"
    },
    {
      "inputs": [],
      "name": "InvalidAmount",
      "type": "error"
    },
    {
      "inputs": [],
      "name": "NotInitialized",
      "type": "error"
    },
    {
      "inputs": [],
      "name": "BASE_PARAMS",
      "outputs": [
        {
          "internalType": "uint256",
          "name": "",
          "type": "uint256"
        }
      ],
      "stateMutability": "view",
      "type": "function"
    },
    {
      "inputs": [],
      "name": "CORE",
      "outputs": [
        {
          "internalType": "contract ICore",
          "name": "",
          "type": "address"
        }
      ],
      "stateMutability": "view",
      "type": "function"
    },
    {
      "inputs": [],
      "name": "ROUTER",
      "outputs": [
        {
          "internalType": "contract IAngleRouter",
          "name": "",
          "type": "address"
        }
      ],
      "stateMutability": "view",
      "type": "function"
    },
    {
      "inputs": [],
      "name": "STABLE",
      "outputs": [
        {
          "internalType": "bytes32",
          "name": "",
          "type": "bytes32"
        }
      ],
      "stateMutability": "view",
      "type": "function"
    },
    {
      "inputs": [
        {
          "internalType": "address",
          "name": "agToken",
          "type": "address"
        },
        {
          "internalType": "address",
          "name": "collateral",
          "type": "address"
        }
      ],
      "name": "getCollateralAddresses",
      "outputs": [
        {
          "components": [
            {
              "internalType": "address",
              "name": "stableMaster",
              "type": "address"
            },
            {
              "internalType": "address",
              "name": "poolManager",
              "type": "address"
            },
            {
              "internalType": "address",
              "name": "perpetualManager",
              "type": "address"
            },
            {
              "internalType": "address",
              "name": "sanToken",
              "type": "address"
            },
            {
              "internalType": "address",
              "name": "oracle",
              "type": "address"
            },
            {
              "internalType": "address",
              "name": "gauge",
              "type": "address"
            },
            {
              "internalType": "address",
              "name": "feeManager",
              "type": "address"
            },
            {
              "internalType": "address[]",
              "name": "strategies",
              "type": "address[]"
            }
          ],
          "internalType": "struct CollateralAddresses",
          "name": "addresses",
          "type": "tuple"
        }
      ],
      "stateMutability": "view",
      "type": "function"
    },
    {
      "inputs": [
        {
          "internalType": "address",
          "name": "agToken",
          "type": "address"
        },
        {
          "internalType": "address",
          "name": "collateral",
          "type": "address"
        }
      ],
      "name": "getCollateralParameters",
      "outputs": [
        {
          "components": [
            {
              "components": [
                {
                  "internalType": "uint256",
                  "name": "lastBlockUpdated",
                  "type": "uint256"
                },
                {
                  "internalType": "uint256",
                  "name": "lockedInterests",
                  "type": "uint256"
                },
                {
                  "internalType": "uint256",
                  "name": "maxInterestsDistributed",
                  "type": "uint256"
                },
                {
                  "internalType": "uint256",
                  "name": "feesAside",
                  "type": "uint256"
                },
                {
                  "internalType": "uint64",
                  "name": "slippageFee",
                  "type": "uint64"
                },
                {
                  "internalType": "uint64",
                  "name": "feesForSLPs",
                  "type": "uint64"
                },
                {
                  "internalType": "uint64",
                  "name": "slippage",
                  "type": "uint64"
                },
                {
                  "internalType": "uint64",
                  "name": "interestsForSLPs",
                  "type": "uint64"
                }
              ],
              "internalType": "struct SLPData",
              "name": "slpData",
              "type": "tuple"
            },
            {
              "components": [
                {
                  "internalType": "uint64[]",
                  "name": "xFeeMint",
                  "type": "uint64[]"
                },
                {
                  "internalType": "uint64[]",
                  "name": "yFeeMint",
                  "type": "uint64[]"
                },
                {
                  "internalType": "uint64[]",
                  "name": "xFeeBurn",
                  "type": "uint64[]"
                },
                {
                  "internalType": "uint64[]",
                  "name": "yFeeBurn",
                  "type": "uint64[]"
                },
                {
                  "internalType": "uint64",
                  "name": "targetHAHedge",
                  "type": "uint64"
                },
                {
                  "internalType": "uint64",
                  "name": "bonusMalusMint",
                  "type": "uint64"
                },
                {
                  "internalType": "uint64",
                  "name": "bonusMalusBurn",
                  "type": "uint64"
                },
                {
                  "internalType": "uint256",
                  "name": "capOnStableMinted",
                  "type": "uint256"
                }
              ],
              "internalType": "struct MintBurnData",
              "name": "feeData",
              "type": "tuple"
            },
            {
              "components": [
                {
                  "internalType": "uint64[]",
                  "name": "xHAFeesDeposit",
                  "type": "uint64[]"
                },
                {
                  "internalType": "uint64[]",
                  "name": "yHAFeesDeposit",
                  "type": "uint64[]"
                },
                {
                  "internalType": "uint64[]",
                  "name": "xHAFeesWithdraw",
                  "type": "uint64[]"
                },
                {
                  "internalType": "uint64[]",
                  "name": "yHAFeesWithdraw",
                  "type": "uint64[]"
                },
                {
                  "internalType": "uint64",
                  "name": "haBonusMalusDeposit",
                  "type": "uint64"
                },
                {
                  "internalType": "uint64",
                  "name": "haBonusMalusWithdraw",
                  "type": "uint64"
                }
              ],
              "internalType": "struct PerpetualManagerFeeData",
              "name": "perpFeeData",
              "type": "tuple"
            },
            {
              "components": [
                {
                  "internalType": "uint64",
                  "name": "maintenanceMargin",
                  "type": "uint64"
                },
                {
                  "internalType": "uint64",
                  "name": "maxLeverage",
                  "type": "uint64"
                },
                {
                  "internalType": "uint64",
                  "name": "targetHAHedge",
                  "type": "uint64"
                },
                {
                  "internalType": "uint64",
                  "name": "limitHAHedge",
                  "type": "uint64"
                },
                {
                  "internalType": "uint64",
                  "name": "lockTime",
                  "type": "uint64"
                }
              ],
              "internalType": "struct PerpetualManagerParamData",
              "name": "perpParam",
              "type": "tuple"
            }
          ],
          "internalType": "struct Parameters",
          "name": "params",
          "type": "tuple"
        }
      ],
      "stateMutability": "view",
      "type": "function"
    },
    {
      "inputs": [
        {
          "internalType": "address",
          "name": "agToken",
          "type": "address"
        },
        {
          "internalType": "address",
          "name": "collateral",
          "type": "address"
        }
      ],
      "name": "getPoolManager",
      "outputs": [
        {
          "internalType": "address",
          "name": "poolManager",
          "type": "address"
        }
      ],
      "stateMutability": "view",
      "type": "function"
    },
    {
      "inputs": [],
      "name": "getStablecoinAddresses",
      "outputs": [
        {
          "internalType": "address[]",
          "name": "",
          "type": "address[]"
        },
        {
          "internalType": "address[]",
          "name": "",
          "type": "address[]"
        }
      ],
      "stateMutability": "view",
      "type": "function"
    },
    {
      "inputs": [
        {
          "internalType": "uint256",
          "name": "amount",
          "type": "uint256"
        },
        {
          "internalType": "address",
          "name": "agToken",
          "type": "address"
        },
        {
          "internalType": "address",
          "name": "collateral",
          "type": "address"
        }
      ],
      "name": "previewBurnAndFees",
      "outputs": [
        {
          "internalType": "uint256",
          "name": "",
          "type": "uint256"
        },
        {
          "internalType": "uint256",
          "name": "",
          "type": "uint256"
        }
      ],
      "stateMutability": "view",
      "type": "function"
    },
    {
      "inputs": [
        {
          "internalType": "uint256",
          "name": "amount",
          "type": "uint256"
        },
        {
          "internalType": "address",
          "name": "agToken",
          "type": "address"
        },
        {
          "internalType": "address",
          "name": "collateral",
          "type": "address"
        }
      ],
      "name": "previewMintAndFees",
      "outputs": [
        {
          "internalType": "uint256",
          "name": "",
          "type": "uint256"
        },
        {
          "internalType": "uint256",
          "name": "",
          "type": "uint256"
        }
      ],
      "stateMutability": "view",
      "type": "function"
    }
  ],
  "transactionHash": "0x34e8928ec40085e5c3681e7a4213b16c0a188c5ff53e05e350cc06292276948b",
  "args": [],
  "numDeployments": 1,
  "solcInputHash": "119ccc72274d7dfd183df52f488d03f7",
  "bytecode": "0x60806040523480156200001157600080fd5b50600054610100900460ff166200002f5760005460ff161562000039565b62000039620000de565b620000a15760405162461bcd60e51b815260206004820152602e60248201527f496e697469616c697a61626c653a20636f6e747261637420697320616c72656160448201526d191e481a5b9a5d1a585b1a5e995960921b606482015260840160405180910390fd5b600054610100900460ff16158015620000c4576000805461ffff19166101011790555b8015620000d7576000805461ff00191690555b5062000102565b6000620000f630620000fc60201b620016171760201c565b15905090565b3b151590565b61304480620001126000396000f3fe608060405234801561001057600080fd5b50600436106100be5760003560e01c80636b6c077411610076578063874699361161005b57806387469936146101c55780638f3badbd146101ed5780639f48118f1461020057600080fd5b80636b6c07741461018a578063841cb35b146101a557600080fd5b806332fe7b26116100a757806332fe7b261461010257806353429e731461014257806354d9f6531461015557600080fd5b80631c90239c146100c35780631ea98352146100e2575b600080fd5b6100cb61020b565b6040516100d9929190612438565b60405180910390f35b6100f56100f036600461248b565b6103e4565b6040516100d991906124c4565b61011d73bb755240596530be0c1de5dfd77ec6398471561d81565b60405173ffffffffffffffffffffffffffffffffffffffff90911681526020016100d9565b61011d61015036600461248b565b6109f2565b61017c7ffb286912c6eadba541f23a3bb3e83373ab139b6e65d84e2a473c186efc2b464281565b6040519081526020016100d9565b61011d7361ed74de9ca5796cf2f8fd60d54160d47e30b7c381565b6101b86101b336600461248b565b610a06565b6040516100d9919061275b565b6101d86101d336600461288c565b6115ef565b604080519283526020830191909152016100d9565b6101d86101fb36600461288c565b611609565b61017c633b9aca0081565b60608060007361ed74de9ca5796cf2f8fd60d54160d47e30b7c373ffffffffffffffffffffffffffffffffffffffff1663b13380346040518163ffffffff1660e01b8152600401600060405180830381865afa15801561026f573d6000803e3d6000fd5b505050506040513d6000823e601f3d9081017fffffffffffffffffffffffffffffffffffffffffffffffffffffffffffffffe01682016040526102b5919081019061299a565b90506000815167ffffffffffffffff8111156102d3576102d36128ce565b6040519080825280602002602001820160405280156102fc578160200160208202803683370190505b50905060005b82518110156103da5782818151811061031d5761031d612a39565b602002602001015173ffffffffffffffffffffffffffffffffffffffff1663ee565a636040518163ffffffff1660e01b8152600401602060405180830381865afa15801561036f573d6000803e3d6000fd5b505050506040513d601f19601f820116820180604052508101906103939190612a68565b8282815181106103a5576103a5612a39565b73ffffffffffffffffffffffffffffffffffffffff909216602092830291909101909101526103d381612ab4565b9050610302565b5090939092509050565b604080516101008101825260008082526020820181905291810182905260608082018390526080820183905260a0820183905260c082019290925260e081019190915260008373ffffffffffffffffffffffffffffffffffffffff16636ac5dc466040518163ffffffff1660e01b8152600401602060405180830381865afa158015610474573d6000803e3d6000fd5b505050506040513d601f19601f820116820180604052508101906104989190612a68565b6040517f7c295dfa00000000000000000000000000000000000000000000000000000000815273ffffffffffffffffffffffffffffffffffffffff80831660048301528516602482015290915060009081908190819073bb755240596530be0c1de5dfd77ec6398471561d90637c295dfa90604401608060405180830381865afa15801561052a573d6000803e3d6000fd5b505050506040513d601f19601f8201168201806040525081019061054e9190612aed565b6040517fba8b722300000000000000000000000000000000000000000000000000000000815273ffffffffffffffffffffffffffffffffffffffff8086166004830152949850929650909450925060009187169063ba8b722390602401600060405180830381865afa1580156105c8573d6000803e3d6000fd5b505050506040513d6000823e601f3d9081017fffffffffffffffffffffffffffffffffffffffffffffffffffffffffffffffe016820160405261060e9190810190612ccd565b5050505050935050505085876000019073ffffffffffffffffffffffffffffffffffffffff16908173ffffffffffffffffffffffffffffffffffffffff168152505084876020019073ffffffffffffffffffffffffffffffffffffffff16908173ffffffffffffffffffffffffffffffffffffffff168152505083876040019073ffffffffffffffffffffffffffffffffffffffff16908173ffffffffffffffffffffffffffffffffffffffff168152505082876060019073ffffffffffffffffffffffffffffffffffffffff16908173ffffffffffffffffffffffffffffffffffffffff1681525050818760a0019073ffffffffffffffffffffffffffffffffffffffff16908173ffffffffffffffffffffffffffffffffffffffff168152505080876080019073ffffffffffffffffffffffffffffffffffffffff16908173ffffffffffffffffffffffffffffffffffffffff16815250508473ffffffffffffffffffffffffffffffffffffffff1663d0fb02036040518163ffffffff1660e01b8152600401602060405180830381865afa1580156107b3573d6000803e3d6000fd5b505050506040513d601f19601f820116820180604052508101906107d79190612a68565b73ffffffffffffffffffffffffffffffffffffffff1660c088015260005b6040517fa267526b0000000000000000000000000000000000000000000000000000000081526004810182905273ffffffffffffffffffffffffffffffffffffffff87169063a267526b90602401602060405180830381865afa92505050801561089a575060408051601f3d9081017fffffffffffffffffffffffffffffffffffffffffffffffffffffffffffffffe016820190925261089791810190612a68565b60015b6108a3576108b6565b6108ae600183612e28565b9150506107f5565b60008167ffffffffffffffff8111156108d1576108d16128ce565b6040519080825280602002602001820160405280156108fa578160200160208202803683370190505b50905060005b828110156109de576040517fa267526b0000000000000000000000000000000000000000000000000000000081526004810182905273ffffffffffffffffffffffffffffffffffffffff89169063a267526b90602401602060405180830381865afa158015610973573d6000803e3d6000fd5b505050506040513d601f19601f820116820180604052508101906109979190612a68565b8282815181106109a9576109a9612a39565b73ffffffffffffffffffffffffffffffffffffffff909216602092830291909101909101526109d781612ab4565b9050610900565b5060e0890152509598975050505050505050565b60006109fe838361161d565b949350505050565b610afe60408051610180810190915260006080820181815260a0830182905260c0830182905260e08301829052610100830182905261012083018290526101408301829052610160830191909152819081526040805161010081018252606080825260208281018290529282018190528082015260006080820181905260a0820181905260c0820181905260e082015291019081526040805160c081018252606080825260208281018290529282018190528082015260006080820181905260a082015291019081526040805160a0810182526000808252602082810182905292820181905260608201819052608082015291015290565b600080610b0b858561161d565b6040517fba8b722300000000000000000000000000000000000000000000000000000000815273ffffffffffffffffffffffffffffffffffffffff80831660048301529294509092506000918291829186169063ba8b722390602401600060405180830381865afa158015610b84573d6000803e3d6000fd5b505050506040513d6000823e601f3d9081017fffffffffffffffffffffffffffffffffffffffffffffffffffffffffffffffe0168201604052610bca9190810190612ccd565b9850985050505050945050508186600001819052508086602001819052508273ffffffffffffffffffffffffffffffffffffffff1663d5eb05816040518163ffffffff1660e01b8152600401602060405180830381865afa158015610c33573d6000803e3d6000fd5b505050506040513d601f19601f82011682018060405250810190610c579190612e40565b606087015167ffffffffffffffff9091169052604080517fae3302c2000000000000000000000000000000000000000000000000000000008152905173ffffffffffffffffffffffffffffffffffffffff85169163ae3302c29160048083019260209291908290030181865afa158015610cd5573d6000803e3d6000fd5b505050506040513d601f19601f82011682018060405250810190610cf99190612e40565b606087015167ffffffffffffffff909116602091820152604080517f8d5e19f1000000000000000000000000000000000000000000000000000000008152905173ffffffffffffffffffffffffffffffffffffffff861692638d5e19f192600480820193918290030181865afa158015610d77573d6000803e3d6000fd5b505050506040513d601f19601f82011682018060405250810190610d9b9190612e40565b86606001516040019067ffffffffffffffff16908167ffffffffffffffff16815250508273ffffffffffffffffffffffffffffffffffffffff1663324f38156040518163ffffffff1660e01b8152600401602060405180830381865afa158015610e09573d6000803e3d6000fd5b505050506040513d601f19601f82011682018060405250810190610e2d9190612e40565b86606001516060019067ffffffffffffffff16908167ffffffffffffffff16815250508273ffffffffffffffffffffffffffffffffffffffff16630d6680876040518163ffffffff1660e01b8152600401602060405180830381865afa158015610e9b573d6000803e3d6000fd5b505050506040513d601f19601f82011682018060405250810190610ebf9190612e40565b86606001516080019067ffffffffffffffff16908167ffffffffffffffff16815250508273ffffffffffffffffffffffffffffffffffffffff1663c0212c726040518163ffffffff1660e01b8152600401602060405180830381865afa158015610f2d573d6000803e3d6000fd5b505050506040513d601f19601f82011682018060405250810190610f519190612e40565b86604001516080019067ffffffffffffffff16908167ffffffffffffffff16815250508273ffffffffffffffffffffffffffffffffffffffff16638e2401446040518163ffffffff1660e01b8152600401602060405180830381865afa158015610fbf573d6000803e3d6000fd5b505050506040513d601f19601f82011682018060405250810190610fe39190612e40565b604087015167ffffffffffffffff90911660a09091015260005b6040517fc1618dda0000000000000000000000000000000000000000000000000000000081526004810182905273ffffffffffffffffffffffffffffffffffffffff85169063c1618dda90602401602060405180830381865afa9250505080156110a2575060408051601f3d9081017fffffffffffffffffffffffffffffffffffffffffffffffffffffffffffffffe016820190925261109f91810190612e40565b60015b6110ab576110be565b6110b6600183612e28565b915050610ffd565b60008167ffffffffffffffff8111156110d9576110d96128ce565b604051908082528060200260200182016040528015611102578160200160208202803683370190505b50905060008267ffffffffffffffff811115611120576111206128ce565b604051908082528060200260200182016040528015611149578160200160208202803683370190505b50905060005b838110156112dc576040517fc1618dda0000000000000000000000000000000000000000000000000000000081526004810182905273ffffffffffffffffffffffffffffffffffffffff88169063c1618dda90602401602060405180830381865afa1580156111c2573d6000803e3d6000fd5b505050506040513d601f19601f820116820180604052508101906111e69190612e40565b8382815181106111f8576111f8612a39565b67ffffffffffffffff92909216602092830291909101909101526040517f142c3ba00000000000000000000000000000000000000000000000000000000081526004810182905273ffffffffffffffffffffffffffffffffffffffff88169063142c3ba090602401602060405180830381865afa15801561127d573d6000803e3d6000fd5b505050506040513d601f19601f820116820180604052508101906112a19190612e40565b8282815181106112b3576112b3612a39565b67ffffffffffffffff909216602092830291909101909101526112d581612ab4565b905061114f565b5060408901805183905251602001819052600092505b6040517f49a5d3ef0000000000000000000000000000000000000000000000000000000081526004810184905273ffffffffffffffffffffffffffffffffffffffff8716906349a5d3ef90602401602060405180830381865afa925050508015611397575060408051601f3d9081017fffffffffffffffffffffffffffffffffffffffffffffffffffffffffffffffe016820190925261139491810190612e40565b60015b6113a0576113b3565b6113ab600185612e28565b9350506112f2565b8267ffffffffffffffff8111156113cc576113cc6128ce565b6040519080825280602002602001820160405280156113f5578160200160208202803683370190505b5091508267ffffffffffffffff811115611411576114116128ce565b60405190808252806020026020018201604052801561143a578160200160208202803683370190505b50905060005b838110156115cd576040517f49a5d3ef0000000000000000000000000000000000000000000000000000000081526004810182905273ffffffffffffffffffffffffffffffffffffffff8816906349a5d3ef90602401602060405180830381865afa1580156114b3573d6000803e3d6000fd5b505050506040513d601f19601f820116820180604052508101906114d79190612e40565b8382815181106114e9576114e9612a39565b67ffffffffffffffff92909216602092830291909101909101526040517fd7f6328e0000000000000000000000000000000000000000000000000000000081526004810182905273ffffffffffffffffffffffffffffffffffffffff88169063d7f6328e90602401602060405180830381865afa15801561156e573d6000803e3d6000fd5b505050506040513d601f19601f820116820180604052508101906115929190612e40565b8282815181106115a4576115a4612a39565b67ffffffffffffffff909216602092830291909101909101526115c681612ab4565b9050611440565b506040808a018051909101929092529051606001525094979650505050505050565b6000806115fd85858561174a565b91509150935093915050565b6000806115fd858585611b7c565b3b151590565b6000808373ffffffffffffffffffffffffffffffffffffffff16636ac5dc466040518163ffffffff1660e01b8152600401602060405180830381865afa15801561166b573d6000803e3d6000fd5b505050506040513d601f19601f8201168201806040525081019061168f9190612a68565b6040517f7c295dfa00000000000000000000000000000000000000000000000000000000815273ffffffffffffffffffffffffffffffffffffffff80831660048301528516602482015290925073bb755240596530be0c1de5dfd77ec6398471561d90637c295dfa90604401608060405180830381865afa158015611718573d6000803e3d6000fd5b505050506040513d601f19601f8201168201806040525081019061173c9190612aed565b509396919550909350505050565b60008060008061175a868661161d565b6040517fba8b722300000000000000000000000000000000000000000000000000000000815273ffffffffffffffffffffffffffffffffffffffff8083166004830152929450909250600091829182918291829188169063ba8b722390602401600060405180830381865afa1580156117d7573d6000803e3d6000fd5b505050506040513d6000823e601f3d9081017fffffffffffffffffffffffffffffffffffffffffffffffffffffffffffffffe016820160405261181d9190810190612ccd565b9850505050955095509550509450600073ffffffffffffffffffffffffffffffffffffffff168573ffffffffffffffffffffffffffffffffffffffff16148061195357508673ffffffffffffffffffffffffffffffffffffffff16639e9e46667ffb286912c6eadba541f23a3bb3e83373ab139b6e65d84e2a473c186efc2b4642886040516020016118de92919091825260601b7fffffffffffffffffffffffffffffffffffffffff00000000000000000000000016602082015260340190565b604051602081830303815290604052805190602001206040518263ffffffff1660e01b815260040161191291815260200190565b602060405180830381865afa15801561192f573d6000803e3d6000fd5b505050506040513d601f19601f820116820180604052508101906119539190612e5b565b1561198a576040517f87138d5c00000000000000000000000000000000000000000000000000000000815260040160405180910390fd5b6040517f3593ba7b000000000000000000000000000000000000000000000000000000008152600481018d905273ffffffffffffffffffffffffffffffffffffffff841690633593ba7b90602401602060405180830381865afa1580156119f5573d6000803e3d6000fd5b505050506040513d601f19601f82011682018060405250810190611a199190612e7d565b81515190995060011415611a57578060200151600081518110611a3e57611a3e612a39565b602002602001015167ffffffffffffffff169750611ad5565b60808101516040805173ffffffffffffffffffffffffffffffffffffffff8716602082015267ffffffffffffffff90921682820152805180830382018152606090920190526000611ab1611aab858d612e28565b83611fa1565b9050611ac6818460000151856020015161208f565b67ffffffffffffffff16995050505b633b9aca008160a0015167ffffffffffffffff1689611af49190612e96565b611afe9190612f02565b9750633b9aca00611b0f8982612f16565b611b19908b612e96565b611b239190612f02565b60e0820151909950611b358a84612e28565b1115611b6d576040517f2c5211c600000000000000000000000000000000000000000000000000000000815260040160405180910390fd5b50505050505050935093915050565b600080600080611b8c868661161d565b915091506000806000806000808773ffffffffffffffffffffffffffffffffffffffff1663ba8b7223886040518263ffffffff1660e01b8152600401611bee919073ffffffffffffffffffffffffffffffffffffffff91909116815260200190565b600060405180830381865afa158015611c0b573d6000803e3d6000fd5b505050506040513d6000823e601f3d9081017fffffffffffffffffffffffffffffffffffffffffffffffffffffffffffffffe0168201604052611c519190810190612ccd565b985050975050965096509650509550600073ffffffffffffffffffffffffffffffffffffffff168673ffffffffffffffffffffffffffffffffffffffff161480611d8857508773ffffffffffffffffffffffffffffffffffffffff16639e9e46667ffb286912c6eadba541f23a3bb3e83373ab139b6e65d84e2a473c186efc2b464289604051602001611d1392919091825260601b7fffffffffffffffffffffffffffffffffffffffff00000000000000000000000016602082015260340190565b604051602081830303815290604052805190602001206040518263ffffffff1660e01b8152600401611d4791815260200190565b602060405180830381865afa158015611d64573d6000803e3d6000fd5b505050506040513d601f19601f82011682018060405250810190611d889190612e5b565b15611dbf576040517f87138d5c00000000000000000000000000000000000000000000000000000000815260040160405180910390fd5b828d1115611df9576040517f2c5211c600000000000000000000000000000000000000000000000000000000815260040160405180910390fd5b80604001515160011415611e37578060600151600081518110611e1e57611e1e612a39565b602002602001015167ffffffffffffffff169850611eb8565b60808101516040805173ffffffffffffffffffffffffffffffffffffffff8816602082015267ffffffffffffffff9092169082015260009060600160405160208183030381529060405290506000611e948f86611aab9190612f16565b9050611ea9818460400151856060015161208f565b67ffffffffffffffff169a5050505b633b9aca008160c0015167ffffffffffffffff168a611ed79190612e96565b611ee19190612f02565b9850633b9aca008473ffffffffffffffffffffffffffffffffffffffff1663442133bd6040518163ffffffff1660e01b8152600401602060405180830381865afa158015611f33573d6000803e3d6000fd5b505050506040513d601f19601f82011682018060405250810190611f579190612e7d565b611f619190612e96565b82611f708b633b9aca00612f16565b8f611f7b9190612e96565b611f859190612e96565b611f8f9190612f02565b99505050505050505050935093915050565b600080600083806020019051810190611fba9190612f2d565b9150915060008273ffffffffffffffffffffffffffffffffffffffff1663b8f368956040518163ffffffff1660e01b8152600401602060405180830381865afa15801561200b573d6000803e3d6000fd5b505050506040513d601f19601f8201168201806040525081019061202f9190612e7d565b9050633b9aca0061204a8767ffffffffffffffff8516612e96565b6120549190612f02565b95508086111561207e578561206d633b9aca0083612e96565b6120779190612f02565b9350612086565b633b9aca0093505b50505092915050565b600082600184516120a09190612f16565b815181106120b0576120b0612a39565b602002602001015167ffffffffffffffff168467ffffffffffffffff16106121005781600184516120e19190612f16565b815181106120f1576120f1612a39565b602002602001015190506123e0565b8260008151811061211357612113612a39565b602002602001015167ffffffffffffffff168467ffffffffffffffff161161214857816000815181106120f1576120f1612a39565b600080600185516121599190612f16565b905060005b600161216a8484612f16565b11156121d657600261217c8484612f16565b6121869190612f02565b6121909084612e28565b90508667ffffffffffffffff168682815181106121af576121af612a39565b602002602001015167ffffffffffffffff16116121ce5780925061215e565b80915061215e565b8483815181106121e8576121e8612a39565b602002602001015167ffffffffffffffff1685838151811061220c5761220c612a39565b602002602001015167ffffffffffffffff1611156123075785838151811061223657612236612a39565b602002602001015186838151811061225057612250612a39565b60200260200101516122629190612f62565b86848151811061227457612274612a39565b6020026020010151886122879190612f62565b86858151811061229957612299612a39565b60200260200101518785815181106122b3576122b3612a39565b60200260200101516122c59190612f62565b6122cf9190612f8b565b6122d99190612fbb565b8584815181106122eb576122eb612a39565b60200260200101516122fd9190612fe2565b93505050506123e0565b85838151811061231957612319612a39565b602002602001015186838151811061233357612333612a39565b60200260200101516123459190612f62565b86848151811061235757612357612a39565b60200260200101518861236a9190612f62565b86848151811061237c5761237c612a39565b602002602001015187868151811061239657612396612a39565b60200260200101516123a89190612f62565b6123b29190612f8b565b6123bc9190612fbb565b8584815181106123ce576123ce612a39565b60200260200101516122fd9190612f62565b9392505050565b600081518084526020808501945080840160005b8381101561242d57815173ffffffffffffffffffffffffffffffffffffffff16875295820195908201906001016123fb565b509495945050505050565b60408152600061244b60408301856123e7565b828103602084015261245d81856123e7565b95945050505050565b73ffffffffffffffffffffffffffffffffffffffff8116811461248857600080fd5b50565b6000806040838503121561249e57600080fd5b82356124a981612466565b915060208301356124b981612466565b809150509250929050565b60208152600073ffffffffffffffffffffffffffffffffffffffff80845116602084015280602085015116604084015250604083015161251c606084018273ffffffffffffffffffffffffffffffffffffffff169052565b50606083015173ffffffffffffffffffffffffffffffffffffffff8116608084015250608083015173ffffffffffffffffffffffffffffffffffffffff811660a08401525060a083015173ffffffffffffffffffffffffffffffffffffffff811660c08401525060c083015173ffffffffffffffffffffffffffffffffffffffff811660e08401525060e0830151610100838101526109fe6101208401826123e7565b600081518084526020808501945080840160005b8381101561242d57815167ffffffffffffffff16875295820195908201906001016125d3565b6000610100825181855261260f828601826125bf565b9150506020830151848203602086015261262982826125bf565b9150506040830151848203604086015261264382826125bf565b9150506060830151848203606086015261265d82826125bf565b915050608083015161267b608086018267ffffffffffffffff169052565b5060a083015161269760a086018267ffffffffffffffff169052565b5060c08301516126b360c086018267ffffffffffffffff169052565b5060e083015160e08501528091505092915050565b6000815160c084526126dd60c08501826125bf565b9050602083015184820360208601526126f682826125bf565b9150506040830151848203604086015261271082826125bf565b9150506060830151848203606086015261272a82826125bf565b915050608083015167ffffffffffffffff80821660808701528060a08601511660a087015250508091505092915050565b602081526000825180516020840152602081015160408401526040810151606084015260608101516080840152608081015167ffffffffffffffff80821660a08601528060a08401511660c08601528060c08401511660e0860152505060e081015190506127d661010084018267ffffffffffffffff169052565b5060208301516101e06101208401526127f36102008401826125f9565b905060408401517fffffffffffffffffffffffffffffffffffffffffffffffffffffffffffffffe08483030161014085015261282f82826126c8565b915050606084015161288461016085018267ffffffffffffffff808251168352806020830151166020840152806040830151166040840152806060830151166060840152806080830151166080840152505050565b509392505050565b6000806000606084860312156128a157600080fd5b8335925060208401356128b381612466565b915060408401356128c381612466565b809150509250925092565b7f4e487b7100000000000000000000000000000000000000000000000000000000600052604160045260246000fd5b604051610100810167ffffffffffffffff81118282101715612921576129216128ce565b60405290565b604051601f82017fffffffffffffffffffffffffffffffffffffffffffffffffffffffffffffffe016810167ffffffffffffffff8111828210171561296e5761296e6128ce565b604052919050565b600067ffffffffffffffff821115612990576129906128ce565b5060051b60200190565b600060208083850312156129ad57600080fd5b825167ffffffffffffffff8111156129c457600080fd5b8301601f810185136129d557600080fd5b80516129e86129e382612976565b612927565b81815260059190911b82018301908381019087831115612a0757600080fd5b928401925b82841015612a2e578351612a1f81612466565b82529284019290840190612a0c565b979650505050505050565b7f4e487b7100000000000000000000000000000000000000000000000000000000600052603260045260246000fd5b600060208284031215612a7a57600080fd5b81516123e081612466565b7f4e487b7100000000000000000000000000000000000000000000000000000000600052601160045260246000fd5b60007fffffffffffffffffffffffffffffffffffffffffffffffffffffffffffffffff821415612ae657612ae6612a85565b5060010190565b60008060008060808587031215612b0357600080fd5b8451612b0e81612466565b6020860151909450612b1f81612466565b6040860151909350612b3081612466565b6060860151909250612b4181612466565b939692955090935050565b805167ffffffffffffffff81168114612b6457600080fd5b919050565b600082601f830112612b7a57600080fd5b81516020612b8a6129e383612976565b82815260059290921b84018101918181019086841115612ba957600080fd5b8286015b84811015612bcb57612bbe81612b4c565b8352918301918301612bad565b509695505050505050565b60006101008284031215612be957600080fd5b612bf16128fd565b9050815167ffffffffffffffff80821115612c0b57600080fd5b612c1785838601612b69565b83526020840151915080821115612c2d57600080fd5b612c3985838601612b69565b60208401526040840151915080821115612c5257600080fd5b612c5e85838601612b69565b60408401526060840151915080821115612c7757600080fd5b50612c8484828501612b69565b606083015250612c9660808301612b4c565b6080820152612ca760a08301612b4c565b60a0820152612cb860c08301612b4c565b60c082015260e082015160e082015292915050565b6000806000806000806000806000898b03610200811215612ced57600080fd5b8a51612cf881612466565b60208c0151909a50612d0981612466565b60408c0151909950612d1a81612466565b60608c0151909850612d2b81612466565b8097505060808b0151955060a08b0151945060c08b01519350610100807fffffffffffffffffffffffffffffffffffffffffffffffffffffffffffffff2083011215612d7657600080fd5b612d7e6128fd565b60e08d01518152908c015160208201526101208c015160408201526101408c015160608201529050612db36101608c01612b4c565b6080820152612dc56101808c01612b4c565b60a0820152612dd76101a08c01612b4c565b60c0820152612de96101c08c01612b4c565b60e08201526101e08b015190925067ffffffffffffffff811115612e0c57600080fd5b612e188c828d01612bd6565b9150509295985092959850929598565b60008219821115612e3b57612e3b612a85565b500190565b600060208284031215612e5257600080fd5b6123e082612b4c565b600060208284031215612e6d57600080fd5b815180151581146123e057600080fd5b600060208284031215612e8f57600080fd5b5051919050565b6000817fffffffffffffffffffffffffffffffffffffffffffffffffffffffffffffffff0483118215151615612ece57612ece612a85565b500290565b7f4e487b7100000000000000000000000000000000000000000000000000000000600052601260045260246000fd5b600082612f1157612f11612ed3565b500490565b600082821015612f2857612f28612a85565b500390565b60008060408385031215612f4057600080fd5b8251612f4b81612466565b9150612f5960208401612b4c565b90509250929050565b600067ffffffffffffffff83811690831681811015612f8357612f83612a85565b039392505050565b600067ffffffffffffffff80831681851681830481118215151615612fb257612fb2612a85565b02949350505050565b600067ffffffffffffffff80841680612fd657612fd6612ed3565b92169190910492915050565b600067ffffffffffffffff80831681851680830382111561300557613005612a85565b0194935050505056fea264697066735822122038a921ca843cc76dc29c483bc1f0a9227b063599516d401cdfe35d9dd4197c9864736f6c634300080c0033",
  "devdoc": {
    "author": "Angle Core Team",
    "details": "This contract only contains view functions to be queried off-chain. It was thus not optimized for gas consumption",
    "kind": "dev",
    "methods": {
      "constructor": {
        "custom:oz-upgrades-unsafe-allow": "constructor"
      },
      "getCollateralAddresses(address,address)": {
        "returns": {
          "addresses": "A struct with all the addresses associated in the Core module"
        }
      },
      "getCollateralParameters(address,address)": {
        "details": "Check out the struct `Parameters` for the meaning of the return values",
        "returns": {
          "params": "Struct with most of the parameters in the `StableMaster` and `PerpetualManager` contracts"
        }
      },
      "getStablecoinAddresses()": {
        "details": "The place of an agToken address in the list is the same as the corresponding `StableMaster` address",
        "returns": {
          "_0": "List of the `StableMaster` addresses of the Angle protocol",
          "_1": "List of the `AgToken` addresses of the protocol"
        }
      },
      "previewBurnAndFees(uint256,address,address)": {
        "details": "This function reverts if the burn transaction was to revert in the same conditions (without taking into account potential approval problems to the `StableMaster` contract or agToken balance prior to the call)",
        "returns": {
          "_0": "Amount of `collateral` that would be obtained with a burn transaction in the same block",
          "_1": "Percentage of fees that would be taken during a burn transaction in the same block"
        }
      },
      "previewMintAndFees(uint256,address,address)": {
        "details": "This function reverts if the mint transaction was to revert in the same conditions (without taking into account potential approval problems to the `StableMaster` contract)",
        "returns": {
          "_0": "Amount of `agToken` that would be obtained with a mint transaction in the same block",
          "_1": "Percentage of fees that would be taken during a mint transaction in the same block"
        }
      }
    },
    "title": "AngleHelpers",
    "version": 1
  },
  "userdoc": {
    "kind": "user",
    "methods": {
      "getCollateralAddresses(address,address)": {
        "notice": "Returns all the addresses associated to the (`agToken`,`collateral`) pair given"
      },
      "getCollateralParameters(address,address)": {
        "notice": "Returns most of the governance parameters associated to the (`agToken`,`collateral`) pair given"
      },
      "getPoolManager(address,address)": {
        "notice": "Returns the address of the poolManager associated to an (`agToken`, `collateral`) pair in the Core module of the protocol"
      },
      "getStablecoinAddresses()": {
        "notice": "Gets the addresses of all the `StableMaster` contracts and their associated `AgToken` addresses"
      },
      "previewBurnAndFees(uint256,address,address)": {
        "notice": "Gives the amount of `collateral` you'd be getting if you were executing in the same block a burn transaction  with `amount` of `agToken` in the Core module of the Angle protocol as well as the value of the fees (in `BASE_PARAMS`) that would be applied during the burn"
      },
      "previewMintAndFees(uint256,address,address)": {
        "notice": "Gives the amount of `agToken` you'd be getting if you were executing in the same block a mint transaction with `amount` of `collateral` in the Core module of the Angle protocol as well as the value of the fees (in `BASE_PARAMS`) that would be applied during the mint"
      }
    },
    "notice": "Contract with view functions designed to facilitate integrations on the Core module of the Angle Protocol",
    "version": 1
  },
  "storageLayout": {
    "storage": [
      {
        "astId": 772,
        "contract": "contracts/ui-helpers/AngleHelpers.sol:AngleHelpers",
        "label": "_initialized",
        "offset": 0,
        "slot": "0",
        "type": "t_bool"
      },
      {
        "astId": 775,
        "contract": "contracts/ui-helpers/AngleHelpers.sol:AngleHelpers",
        "label": "_initializing",
        "offset": 1,
        "slot": "0",
        "type": "t_bool"
      }
    ],
    "types": {
      "t_bool": {
        "encoding": "inplace",
        "label": "bool",
        "numberOfBytes": "1"
      }
    }
  }
}