{
  "address": "0x4924E9740d317c58Edce2f02b4EF747Bc9046ed5",
  "abi": [
    {
      "inputs": [],
      "name": "InvalidAmount",
      "type": "error"
    },
    {
      "inputs": [],
      "name": "NotInitialized",
      "type": "error"
    },
    {
      "inputs": [],
      "name": "BASE_PARAMS",
      "outputs": [
        {
          "internalType": "uint256",
          "name": "",
          "type": "uint256"
        }
      ],
      "stateMutability": "view",
      "type": "function"
    },
    {
      "inputs": [],
      "name": "CORE",
      "outputs": [
        {
          "internalType": "contract ICore",
          "name": "",
          "type": "address"
        }
      ],
      "stateMutability": "view",
      "type": "function"
    },
    {
      "inputs": [],
      "name": "ROUTER",
      "outputs": [
        {
          "internalType": "contract IAngleRouter",
          "name": "",
          "type": "address"
        }
      ],
      "stateMutability": "view",
      "type": "function"
    },
    {
      "inputs": [],
      "name": "STABLE",
      "outputs": [
        {
          "internalType": "bytes32",
          "name": "",
          "type": "bytes32"
        }
      ],
      "stateMutability": "view",
      "type": "function"
    },
    {
      "inputs": [
        {
          "internalType": "address",
          "name": "agToken",
          "type": "address"
        },
        {
          "internalType": "address",
          "name": "collateral",
          "type": "address"
        }
      ],
      "name": "getCollateralAddresses",
      "outputs": [
        {
          "components": [
            {
              "internalType": "address",
              "name": "stableMaster",
              "type": "address"
            },
            {
              "internalType": "address",
              "name": "poolManager",
              "type": "address"
            },
            {
              "internalType": "address",
              "name": "perpetualManager",
              "type": "address"
            },
            {
              "internalType": "address",
              "name": "sanToken",
              "type": "address"
            },
            {
              "internalType": "address",
              "name": "oracle",
              "type": "address"
            },
            {
              "internalType": "address",
              "name": "gauge",
              "type": "address"
            },
            {
              "internalType": "address",
              "name": "feeManager",
              "type": "address"
            },
            {
              "internalType": "address[]",
              "name": "strategies",
              "type": "address[]"
            }
          ],
          "internalType": "struct CollateralAddresses",
          "name": "addresses",
          "type": "tuple"
        }
      ],
      "stateMutability": "view",
      "type": "function"
    },
    {
      "inputs": [
        {
          "internalType": "address",
          "name": "agToken",
          "type": "address"
        },
        {
          "internalType": "address",
          "name": "collateral",
          "type": "address"
        }
      ],
      "name": "getCollateralParameters",
      "outputs": [
        {
          "components": [
            {
              "components": [
                {
                  "internalType": "uint256",
                  "name": "lastBlockUpdated",
                  "type": "uint256"
                },
                {
                  "internalType": "uint256",
                  "name": "lockedInterests",
                  "type": "uint256"
                },
                {
                  "internalType": "uint256",
                  "name": "maxInterestsDistributed",
                  "type": "uint256"
                },
                {
                  "internalType": "uint256",
                  "name": "feesAside",
                  "type": "uint256"
                },
                {
                  "internalType": "uint64",
                  "name": "slippageFee",
                  "type": "uint64"
                },
                {
                  "internalType": "uint64",
                  "name": "feesForSLPs",
                  "type": "uint64"
                },
                {
                  "internalType": "uint64",
                  "name": "slippage",
                  "type": "uint64"
                },
                {
                  "internalType": "uint64",
                  "name": "interestsForSLPs",
                  "type": "uint64"
                }
              ],
              "internalType": "struct SLPData",
              "name": "slpData",
              "type": "tuple"
            },
            {
              "components": [
                {
                  "internalType": "uint64[]",
                  "name": "xFeeMint",
                  "type": "uint64[]"
                },
                {
                  "internalType": "uint64[]",
                  "name": "yFeeMint",
                  "type": "uint64[]"
                },
                {
                  "internalType": "uint64[]",
                  "name": "xFeeBurn",
                  "type": "uint64[]"
                },
                {
                  "internalType": "uint64[]",
                  "name": "yFeeBurn",
                  "type": "uint64[]"
                },
                {
                  "internalType": "uint64",
                  "name": "targetHAHedge",
                  "type": "uint64"
                },
                {
                  "internalType": "uint64",
                  "name": "bonusMalusMint",
                  "type": "uint64"
                },
                {
                  "internalType": "uint64",
                  "name": "bonusMalusBurn",
                  "type": "uint64"
                },
                {
                  "internalType": "uint256",
                  "name": "capOnStableMinted",
                  "type": "uint256"
                }
              ],
              "internalType": "struct MintBurnData",
              "name": "feeData",
              "type": "tuple"
            },
            {
              "components": [
                {
                  "internalType": "uint64[]",
                  "name": "xHAFeesDeposit",
                  "type": "uint64[]"
                },
                {
                  "internalType": "uint64[]",
                  "name": "yHAFeesDeposit",
                  "type": "uint64[]"
                },
                {
                  "internalType": "uint64[]",
                  "name": "xHAFeesWithdraw",
                  "type": "uint64[]"
                },
                {
                  "internalType": "uint64[]",
                  "name": "yHAFeesWithdraw",
                  "type": "uint64[]"
                },
                {
                  "internalType": "uint64",
                  "name": "haBonusMalusDeposit",
                  "type": "uint64"
                },
                {
                  "internalType": "uint64",
                  "name": "haBonusMalusWithdraw",
                  "type": "uint64"
                }
              ],
              "internalType": "struct PerpetualManagerFeeData",
              "name": "perpFeeData",
              "type": "tuple"
            },
            {
              "components": [
                {
                  "internalType": "uint64",
                  "name": "maintenanceMargin",
                  "type": "uint64"
                },
                {
                  "internalType": "uint64",
                  "name": "maxLeverage",
                  "type": "uint64"
                },
                {
                  "internalType": "uint64",
                  "name": "targetHAHedge",
                  "type": "uint64"
                },
                {
                  "internalType": "uint64",
                  "name": "limitHAHedge",
                  "type": "uint64"
                },
                {
                  "internalType": "uint64",
                  "name": "lockTime",
                  "type": "uint64"
                }
              ],
              "internalType": "struct PerpetualManagerParamData",
              "name": "perpParam",
              "type": "tuple"
            }
          ],
          "internalType": "struct Parameters",
          "name": "params",
          "type": "tuple"
        }
      ],
      "stateMutability": "view",
      "type": "function"
    },
    {
      "inputs": [
        {
          "internalType": "contract IVaultManager",
          "name": "vaultManager",
          "type": "address"
        },
        {
          "internalType": "address",
          "name": "spender",
          "type": "address"
        }
      ],
      "name": "getControlledVaults",
      "outputs": [
        {
          "internalType": "uint256[]",
          "name": "",
          "type": "uint256[]"
        },
        {
          "internalType": "uint256",
          "name": "",
          "type": "uint256"
        }
      ],
      "stateMutability": "view",
      "type": "function"
    },
    {
      "inputs": [
        {
          "internalType": "address",
          "name": "agToken",
          "type": "address"
        },
        {
          "internalType": "address",
          "name": "collateral",
          "type": "address"
        }
      ],
      "name": "getPoolManager",
      "outputs": [
        {
          "internalType": "address",
          "name": "poolManager",
          "type": "address"
        }
      ],
      "stateMutability": "view",
      "type": "function"
    },
    {
      "inputs": [],
      "name": "getStablecoinAddresses",
      "outputs": [
        {
          "internalType": "address[]",
          "name": "",
          "type": "address[]"
        },
        {
          "internalType": "address[]",
          "name": "",
          "type": "address[]"
        }
      ],
      "stateMutability": "view",
      "type": "function"
    },
    {
      "inputs": [
        {
          "internalType": "uint256",
          "name": "amount",
          "type": "uint256"
        },
        {
          "internalType": "address",
          "name": "agToken",
          "type": "address"
        },
        {
          "internalType": "address",
          "name": "collateral",
          "type": "address"
        }
      ],
      "name": "previewBurnAndFees",
      "outputs": [
        {
          "internalType": "uint256",
          "name": "",
          "type": "uint256"
        },
        {
          "internalType": "uint256",
          "name": "",
          "type": "uint256"
        }
      ],
      "stateMutability": "view",
      "type": "function"
    },
    {
      "inputs": [
        {
          "internalType": "uint256",
          "name": "amount",
          "type": "uint256"
        },
        {
          "internalType": "address",
          "name": "agToken",
          "type": "address"
        },
        {
          "internalType": "address",
          "name": "collateral",
          "type": "address"
        }
      ],
      "name": "previewMintAndFees",
      "outputs": [
        {
          "internalType": "uint256",
          "name": "",
          "type": "uint256"
        },
        {
          "internalType": "uint256",
          "name": "",
          "type": "uint256"
        }
      ],
      "stateMutability": "view",
      "type": "function"
    }
  ],
  "transactionHash": "0xe74480bd5fe74efd2a29693dd80b3e1a4a4e30e81569751391cd214241c4ff93",
  "args": [],
  "numDeployments": 1,
  "solcInputHash": "e49dc14d7106b3ed7417bcbb86d3114c",
  "bytecode": "0x60806040523480156200001157600080fd5b50600054610100900460ff166200002f5760005460ff161562000039565b62000039620000de565b620000a15760405162461bcd60e51b815260206004820152602e60248201527f496e697469616c697a61626c653a20636f6e747261637420697320616c72656160448201526d191e481a5b9a5d1a585b1a5e995960921b606482015260840160405180910390fd5b600054610100900460ff16158015620000c4576000805461ffff19166101011790555b8015620000d7576000805461ff00191690555b5062000102565b6000620000f630620000fc60201b620018151760201c565b15905090565b3b151590565b61328a80620001126000396000f3fe608060405234801561001057600080fd5b50600436106100c95760003560e01c806354d9f65311610081578063874699361161005b57806387469936146101f15780638f3badbd146102195780639f48118f1461022c57600080fd5b806354d9f653146101815780636b6c0774146101b6578063841cb35b146101d157600080fd5b80632ee43450116100b25780632ee434501461010d57806332fe7b261461012e57806353429e731461016e57600080fd5b80631c90239c146100ce5780631ea98352146100ed575b600080fd5b6100d6610237565b6040516100e4929190612636565b60405180910390f35b6101006100fb366004612689565b610410565b6040516100e491906126c2565b61012061011b366004612689565b610a1e565b6040516100e49291906127bd565b61014973bb755240596530be0c1de5dfd77ec6398471561d81565b60405173ffffffffffffffffffffffffffffffffffffffff90911681526020016100e4565b61014961017c366004612689565b610bf0565b6101a87ffb286912c6eadba541f23a3bb3e83373ab139b6e65d84e2a473c186efc2b464281565b6040519081526020016100e4565b6101497361ed74de9ca5796cf2f8fd60d54160d47e30b7c381565b6101e46101df366004612689565b610c04565b6040516100e491906129a1565b6102046101ff366004612ad2565b6117ed565b604080519283526020830191909152016100e4565b610204610227366004612ad2565b611807565b6101a8633b9aca0081565b60608060007361ed74de9ca5796cf2f8fd60d54160d47e30b7c373ffffffffffffffffffffffffffffffffffffffff1663b13380346040518163ffffffff1660e01b8152600401600060405180830381865afa15801561029b573d6000803e3d6000fd5b505050506040513d6000823e601f3d9081017fffffffffffffffffffffffffffffffffffffffffffffffffffffffffffffffe01682016040526102e19190810190612be0565b90506000815167ffffffffffffffff8111156102ff576102ff612b14565b604051908082528060200260200182016040528015610328578160200160208202803683370190505b50905060005b82518110156104065782818151811061034957610349612c7f565b602002602001015173ffffffffffffffffffffffffffffffffffffffff1663ee565a636040518163ffffffff1660e01b8152600401602060405180830381865afa15801561039b573d6000803e3d6000fd5b505050506040513d601f19601f820116820180604052508101906103bf9190612cae565b8282815181106103d1576103d1612c7f565b73ffffffffffffffffffffffffffffffffffffffff909216602092830291909101909101526103ff81612cfa565b905061032e565b5090939092509050565b604080516101008101825260008082526020820181905291810182905260608082018390526080820183905260a0820183905260c082019290925260e081019190915260008373ffffffffffffffffffffffffffffffffffffffff16636ac5dc466040518163ffffffff1660e01b8152600401602060405180830381865afa1580156104a0573d6000803e3d6000fd5b505050506040513d601f19601f820116820180604052508101906104c49190612cae565b6040517f7c295dfa00000000000000000000000000000000000000000000000000000000815273ffffffffffffffffffffffffffffffffffffffff80831660048301528516602482015290915060009081908190819073bb755240596530be0c1de5dfd77ec6398471561d90637c295dfa90604401608060405180830381865afa158015610556573d6000803e3d6000fd5b505050506040513d601f19601f8201168201806040525081019061057a9190612d33565b6040517fba8b722300000000000000000000000000000000000000000000000000000000815273ffffffffffffffffffffffffffffffffffffffff8086166004830152949850929650909450925060009187169063ba8b722390602401600060405180830381865afa1580156105f4573d6000803e3d6000fd5b505050506040513d6000823e601f3d9081017fffffffffffffffffffffffffffffffffffffffffffffffffffffffffffffffe016820160405261063a9190810190612f13565b5050505050935050505085876000019073ffffffffffffffffffffffffffffffffffffffff16908173ffffffffffffffffffffffffffffffffffffffff168152505084876020019073ffffffffffffffffffffffffffffffffffffffff16908173ffffffffffffffffffffffffffffffffffffffff168152505083876040019073ffffffffffffffffffffffffffffffffffffffff16908173ffffffffffffffffffffffffffffffffffffffff168152505082876060019073ffffffffffffffffffffffffffffffffffffffff16908173ffffffffffffffffffffffffffffffffffffffff1681525050818760a0019073ffffffffffffffffffffffffffffffffffffffff16908173ffffffffffffffffffffffffffffffffffffffff168152505080876080019073ffffffffffffffffffffffffffffffffffffffff16908173ffffffffffffffffffffffffffffffffffffffff16815250508473ffffffffffffffffffffffffffffffffffffffff1663d0fb02036040518163ffffffff1660e01b8152600401602060405180830381865afa1580156107df573d6000803e3d6000fd5b505050506040513d601f19601f820116820180604052508101906108039190612cae565b73ffffffffffffffffffffffffffffffffffffffff1660c088015260005b6040517fa267526b0000000000000000000000000000000000000000000000000000000081526004810182905273ffffffffffffffffffffffffffffffffffffffff87169063a267526b90602401602060405180830381865afa9250505080156108c6575060408051601f3d9081017fffffffffffffffffffffffffffffffffffffffffffffffffffffffffffffffe01682019092526108c391810190612cae565b60015b6108cf576108e2565b6108da60018361306e565b915050610821565b60008167ffffffffffffffff8111156108fd576108fd612b14565b604051908082528060200260200182016040528015610926578160200160208202803683370190505b50905060005b82811015610a0a576040517fa267526b0000000000000000000000000000000000000000000000000000000081526004810182905273ffffffffffffffffffffffffffffffffffffffff89169063a267526b90602401602060405180830381865afa15801561099f573d6000803e3d6000fd5b505050506040513d601f19601f820116820180604052508101906109c39190612cae565b8282815181106109d5576109d5612c7f565b73ffffffffffffffffffffffffffffffffffffffff90921660209283029190910190910152610a0381612cfa565b905061092c565b5060e0890152509598975050505050505050565b60606000808473ffffffffffffffffffffffffffffffffffffffff16633c2e941b6040518163ffffffff1660e01b8152600401602060405180830381865afa158015610a6e573d6000803e3d6000fd5b505050506040513d601f19601f82011682018060405250810190610a929190613086565b905060008167ffffffffffffffff811115610aaf57610aaf612b14565b604051908082528060200260200182016040528015610ad8578160200160208202803683370190505b509050600060015b838111610be3576040517f430c208100000000000000000000000000000000000000000000000000000000815273ffffffffffffffffffffffffffffffffffffffff88811660048301526024820183905289169063430c208190604401602060405180830381865afa925050508015610b94575060408051601f3d9081017fffffffffffffffffffffffffffffffffffffffffffffffffffffffffffffffe0168201909252610b919181019061309f565b60015b610b9d57610bd1565b8015610bcf5781848481518110610bb657610bb6612c7f565b6020908102919091010152610bcc60018461306e565b92505b505b80610bdb81612cfa565b915050610ae0565b5090969095509350505050565b6000610bfc838361181b565b949350505050565b610cfc60408051610180810190915260006080820181815260a0830182905260c0830182905260e08301829052610100830182905261012083018290526101408301829052610160830191909152819081526040805161010081018252606080825260208281018290529282018190528082015260006080820181905260a0820181905260c0820181905260e082015291019081526040805160c081018252606080825260208281018290529282018190528082015260006080820181905260a082015291019081526040805160a0810182526000808252602082810182905292820181905260608201819052608082015291015290565b600080610d09858561181b565b6040517fba8b722300000000000000000000000000000000000000000000000000000000815273ffffffffffffffffffffffffffffffffffffffff80831660048301529294509092506000918291829186169063ba8b722390602401600060405180830381865afa158015610d82573d6000803e3d6000fd5b505050506040513d6000823e601f3d9081017fffffffffffffffffffffffffffffffffffffffffffffffffffffffffffffffe0168201604052610dc89190810190612f13565b9850985050505050945050508186600001819052508086602001819052508273ffffffffffffffffffffffffffffffffffffffff1663d5eb05816040518163ffffffff1660e01b8152600401602060405180830381865afa158015610e31573d6000803e3d6000fd5b505050506040513d601f19601f82011682018060405250810190610e5591906130c1565b606087015167ffffffffffffffff9091169052604080517fae3302c2000000000000000000000000000000000000000000000000000000008152905173ffffffffffffffffffffffffffffffffffffffff85169163ae3302c29160048083019260209291908290030181865afa158015610ed3573d6000803e3d6000fd5b505050506040513d601f19601f82011682018060405250810190610ef791906130c1565b606087015167ffffffffffffffff909116602091820152604080517f8d5e19f1000000000000000000000000000000000000000000000000000000008152905173ffffffffffffffffffffffffffffffffffffffff861692638d5e19f192600480820193918290030181865afa158015610f75573d6000803e3d6000fd5b505050506040513d601f19601f82011682018060405250810190610f9991906130c1565b86606001516040019067ffffffffffffffff16908167ffffffffffffffff16815250508273ffffffffffffffffffffffffffffffffffffffff1663324f38156040518163ffffffff1660e01b8152600401602060405180830381865afa158015611007573d6000803e3d6000fd5b505050506040513d601f19601f8201168201806040525081019061102b91906130c1565b86606001516060019067ffffffffffffffff16908167ffffffffffffffff16815250508273ffffffffffffffffffffffffffffffffffffffff16630d6680876040518163ffffffff1660e01b8152600401602060405180830381865afa158015611099573d6000803e3d6000fd5b505050506040513d601f19601f820116820180604052508101906110bd91906130c1565b86606001516080019067ffffffffffffffff16908167ffffffffffffffff16815250508273ffffffffffffffffffffffffffffffffffffffff1663c0212c726040518163ffffffff1660e01b8152600401602060405180830381865afa15801561112b573d6000803e3d6000fd5b505050506040513d601f19601f8201168201806040525081019061114f91906130c1565b86604001516080019067ffffffffffffffff16908167ffffffffffffffff16815250508273ffffffffffffffffffffffffffffffffffffffff16638e2401446040518163ffffffff1660e01b8152600401602060405180830381865afa1580156111bd573d6000803e3d6000fd5b505050506040513d601f19601f820116820180604052508101906111e191906130c1565b604087015167ffffffffffffffff90911660a09091015260005b6040517fc1618dda0000000000000000000000000000000000000000000000000000000081526004810182905273ffffffffffffffffffffffffffffffffffffffff85169063c1618dda90602401602060405180830381865afa9250505080156112a0575060408051601f3d9081017fffffffffffffffffffffffffffffffffffffffffffffffffffffffffffffffe016820190925261129d918101906130c1565b60015b6112a9576112bc565b6112b460018361306e565b9150506111fb565b60008167ffffffffffffffff8111156112d7576112d7612b14565b604051908082528060200260200182016040528015611300578160200160208202803683370190505b50905060008267ffffffffffffffff81111561131e5761131e612b14565b604051908082528060200260200182016040528015611347578160200160208202803683370190505b50905060005b838110156114da576040517fc1618dda0000000000000000000000000000000000000000000000000000000081526004810182905273ffffffffffffffffffffffffffffffffffffffff88169063c1618dda90602401602060405180830381865afa1580156113c0573d6000803e3d6000fd5b505050506040513d601f19601f820116820180604052508101906113e491906130c1565b8382815181106113f6576113f6612c7f565b67ffffffffffffffff92909216602092830291909101909101526040517f142c3ba00000000000000000000000000000000000000000000000000000000081526004810182905273ffffffffffffffffffffffffffffffffffffffff88169063142c3ba090602401602060405180830381865afa15801561147b573d6000803e3d6000fd5b505050506040513d601f19601f8201168201806040525081019061149f91906130c1565b8282815181106114b1576114b1612c7f565b67ffffffffffffffff909216602092830291909101909101526114d381612cfa565b905061134d565b5060408901805183905251602001819052600092505b6040517f49a5d3ef0000000000000000000000000000000000000000000000000000000081526004810184905273ffffffffffffffffffffffffffffffffffffffff8716906349a5d3ef90602401602060405180830381865afa925050508015611595575060408051601f3d9081017fffffffffffffffffffffffffffffffffffffffffffffffffffffffffffffffe0168201909252611592918101906130c1565b60015b61159e576115b1565b6115a960018561306e565b9350506114f0565b8267ffffffffffffffff8111156115ca576115ca612b14565b6040519080825280602002602001820160405280156115f3578160200160208202803683370190505b5091508267ffffffffffffffff81111561160f5761160f612b14565b604051908082528060200260200182016040528015611638578160200160208202803683370190505b50905060005b838110156117cb576040517f49a5d3ef0000000000000000000000000000000000000000000000000000000081526004810182905273ffffffffffffffffffffffffffffffffffffffff8816906349a5d3ef90602401602060405180830381865afa1580156116b1573d6000803e3d6000fd5b505050506040513d601f19601f820116820180604052508101906116d591906130c1565b8382815181106116e7576116e7612c7f565b67ffffffffffffffff92909216602092830291909101909101526040517fd7f6328e0000000000000000000000000000000000000000000000000000000081526004810182905273ffffffffffffffffffffffffffffffffffffffff88169063d7f6328e90602401602060405180830381865afa15801561176c573d6000803e3d6000fd5b505050506040513d601f19601f8201168201806040525081019061179091906130c1565b8282815181106117a2576117a2612c7f565b67ffffffffffffffff909216602092830291909101909101526117c481612cfa565b905061163e565b506040808a018051909101929092529051606001525094979650505050505050565b6000806117fb858585611948565b91509150935093915050565b6000806117fb858585611d7a565b3b151590565b6000808373ffffffffffffffffffffffffffffffffffffffff16636ac5dc466040518163ffffffff1660e01b8152600401602060405180830381865afa158015611869573d6000803e3d6000fd5b505050506040513d601f19601f8201168201806040525081019061188d9190612cae565b6040517f7c295dfa00000000000000000000000000000000000000000000000000000000815273ffffffffffffffffffffffffffffffffffffffff80831660048301528516602482015290925073bb755240596530be0c1de5dfd77ec6398471561d90637c295dfa90604401608060405180830381865afa158015611916573d6000803e3d6000fd5b505050506040513d601f19601f8201168201806040525081019061193a9190612d33565b509396919550909350505050565b600080600080611958868661181b565b6040517fba8b722300000000000000000000000000000000000000000000000000000000815273ffffffffffffffffffffffffffffffffffffffff8083166004830152929450909250600091829182918291829188169063ba8b722390602401600060405180830381865afa1580156119d5573d6000803e3d6000fd5b505050506040513d6000823e601f3d9081017fffffffffffffffffffffffffffffffffffffffffffffffffffffffffffffffe0168201604052611a1b9190810190612f13565b9850505050955095509550509450600073ffffffffffffffffffffffffffffffffffffffff168573ffffffffffffffffffffffffffffffffffffffff161480611b5157508673ffffffffffffffffffffffffffffffffffffffff16639e9e46667ffb286912c6eadba541f23a3bb3e83373ab139b6e65d84e2a473c186efc2b464288604051602001611adc92919091825260601b7fffffffffffffffffffffffffffffffffffffffff00000000000000000000000016602082015260340190565b604051602081830303815290604052805190602001206040518263ffffffff1660e01b8152600401611b1091815260200190565b602060405180830381865afa158015611b2d573d6000803e3d6000fd5b505050506040513d601f19601f82011682018060405250810190611b51919061309f565b15611b88576040517f87138d5c00000000000000000000000000000000000000000000000000000000815260040160405180910390fd5b6040517f3593ba7b000000000000000000000000000000000000000000000000000000008152600481018d905273ffffffffffffffffffffffffffffffffffffffff841690633593ba7b90602401602060405180830381865afa158015611bf3573d6000803e3d6000fd5b505050506040513d601f19601f82011682018060405250810190611c179190613086565b81515190995060011415611c55578060200151600081518110611c3c57611c3c612c7f565b602002602001015167ffffffffffffffff169750611cd3565b60808101516040805173ffffffffffffffffffffffffffffffffffffffff8716602082015267ffffffffffffffff90921682820152805180830382018152606090920190526000611caf611ca9858d61306e565b8361219f565b9050611cc4818460000151856020015161228d565b67ffffffffffffffff16995050505b633b9aca008160a0015167ffffffffffffffff1689611cf291906130dc565b611cfc9190613148565b9750633b9aca00611d0d898261315c565b611d17908b6130dc565b611d219190613148565b60e0820151909950611d338a8461306e565b1115611d6b576040517f2c5211c600000000000000000000000000000000000000000000000000000000815260040160405180910390fd5b50505050505050935093915050565b600080600080611d8a868661181b565b915091506000806000806000808773ffffffffffffffffffffffffffffffffffffffff1663ba8b7223886040518263ffffffff1660e01b8152600401611dec919073ffffffffffffffffffffffffffffffffffffffff91909116815260200190565b600060405180830381865afa158015611e09573d6000803e3d6000fd5b505050506040513d6000823e601f3d9081017fffffffffffffffffffffffffffffffffffffffffffffffffffffffffffffffe0168201604052611e4f9190810190612f13565b985050975050965096509650509550600073ffffffffffffffffffffffffffffffffffffffff168673ffffffffffffffffffffffffffffffffffffffff161480611f8657508773ffffffffffffffffffffffffffffffffffffffff16639e9e46667ffb286912c6eadba541f23a3bb3e83373ab139b6e65d84e2a473c186efc2b464289604051602001611f1192919091825260601b7fffffffffffffffffffffffffffffffffffffffff00000000000000000000000016602082015260340190565b604051602081830303815290604052805190602001206040518263ffffffff1660e01b8152600401611f4591815260200190565b602060405180830381865afa158015611f62573d6000803e3d6000fd5b505050506040513d601f19601f82011682018060405250810190611f86919061309f565b15611fbd576040517f87138d5c00000000000000000000000000000000000000000000000000000000815260040160405180910390fd5b828d1115611ff7576040517f2c5211c600000000000000000000000000000000000000000000000000000000815260040160405180910390fd5b8060400151516001141561203557806060015160008151811061201c5761201c612c7f565b602002602001015167ffffffffffffffff1698506120b6565b60808101516040805173ffffffffffffffffffffffffffffffffffffffff8816602082015267ffffffffffffffff90921690820152600090606001604051602081830303815290604052905060006120928f86611ca9919061315c565b90506120a7818460400151856060015161228d565b67ffffffffffffffff169a5050505b633b9aca008160c0015167ffffffffffffffff168a6120d591906130dc565b6120df9190613148565b9850633b9aca008473ffffffffffffffffffffffffffffffffffffffff1663442133bd6040518163ffffffff1660e01b8152600401602060405180830381865afa158015612131573d6000803e3d6000fd5b505050506040513d601f19601f820116820180604052508101906121559190613086565b61215f91906130dc565b8261216e8b633b9aca0061315c565b8f61217991906130dc565b61218391906130dc565b61218d9190613148565b99505050505050505050935093915050565b6000806000838060200190518101906121b89190613173565b9150915060008273ffffffffffffffffffffffffffffffffffffffff1663b8f368956040518163ffffffff1660e01b8152600401602060405180830381865afa158015612209573d6000803e3d6000fd5b505050506040513d601f19601f8201168201806040525081019061222d9190613086565b9050633b9aca006122488767ffffffffffffffff85166130dc565b6122529190613148565b95508086111561227c578561226b633b9aca00836130dc565b6122759190613148565b9350612284565b633b9aca0093505b50505092915050565b6000826001845161229e919061315c565b815181106122ae576122ae612c7f565b602002602001015167ffffffffffffffff168467ffffffffffffffff16106122fe5781600184516122df919061315c565b815181106122ef576122ef612c7f565b602002602001015190506125de565b8260008151811061231157612311612c7f565b602002602001015167ffffffffffffffff168467ffffffffffffffff161161234657816000815181106122ef576122ef612c7f565b60008060018551612357919061315c565b905060005b6001612368848461315c565b11156123d457600261237a848461315c565b6123849190613148565b61238e908461306e565b90508667ffffffffffffffff168682815181106123ad576123ad612c7f565b602002602001015167ffffffffffffffff16116123cc5780925061235c565b80915061235c565b8483815181106123e6576123e6612c7f565b602002602001015167ffffffffffffffff1685838151811061240a5761240a612c7f565b602002602001015167ffffffffffffffff1611156125055785838151811061243457612434612c7f565b602002602001015186838151811061244e5761244e612c7f565b602002602001015161246091906131a8565b86848151811061247257612472612c7f565b60200260200101518861248591906131a8565b86858151811061249757612497612c7f565b60200260200101518785815181106124b1576124b1612c7f565b60200260200101516124c391906131a8565b6124cd91906131d1565b6124d79190613201565b8584815181106124e9576124e9612c7f565b60200260200101516124fb9190613228565b93505050506125de565b85838151811061251757612517612c7f565b602002602001015186838151811061253157612531612c7f565b602002602001015161254391906131a8565b86848151811061255557612555612c7f565b60200260200101518861256891906131a8565b86848151811061257a5761257a612c7f565b602002602001015187868151811061259457612594612c7f565b60200260200101516125a691906131a8565b6125b091906131d1565b6125ba9190613201565b8584815181106125cc576125cc612c7f565b60200260200101516124fb91906131a8565b9392505050565b600081518084526020808501945080840160005b8381101561262b57815173ffffffffffffffffffffffffffffffffffffffff16875295820195908201906001016125f9565b509495945050505050565b60408152600061264960408301856125e5565b828103602084015261265b81856125e5565b95945050505050565b73ffffffffffffffffffffffffffffffffffffffff8116811461268657600080fd5b50565b6000806040838503121561269c57600080fd5b82356126a781612664565b915060208301356126b781612664565b809150509250929050565b60208152600073ffffffffffffffffffffffffffffffffffffffff80845116602084015280602085015116604084015250604083015161271a606084018273ffffffffffffffffffffffffffffffffffffffff169052565b50606083015173ffffffffffffffffffffffffffffffffffffffff8116608084015250608083015173ffffffffffffffffffffffffffffffffffffffff811660a08401525060a083015173ffffffffffffffffffffffffffffffffffffffff811660c08401525060c083015173ffffffffffffffffffffffffffffffffffffffff811660e08401525060e083015161010083810152610bfc6101208401826125e5565b604080825283519082018190526000906020906060840190828701845b828110156127f6578151845292840192908401906001016127da565b50505092019290925292915050565b600081518084526020808501945080840160005b8381101561262b57815167ffffffffffffffff1687529582019590820190600101612819565b6000610100825181855261285582860182612805565b9150506020830151848203602086015261286f8282612805565b915050604083015184820360408601526128898282612805565b915050606083015184820360608601526128a38282612805565b91505060808301516128c1608086018267ffffffffffffffff169052565b5060a08301516128dd60a086018267ffffffffffffffff169052565b5060c08301516128f960c086018267ffffffffffffffff169052565b5060e083015160e08501528091505092915050565b6000815160c0845261292360c0850182612805565b90506020830151848203602086015261293c8282612805565b915050604083015184820360408601526129568282612805565b915050606083015184820360608601526129708282612805565b915050608083015167ffffffffffffffff80821660808701528060a08601511660a087015250508091505092915050565b602081526000825180516020840152602081015160408401526040810151606084015260608101516080840152608081015167ffffffffffffffff80821660a08601528060a08401511660c08601528060c08401511660e0860152505060e08101519050612a1c61010084018267ffffffffffffffff169052565b5060208301516101e0610120840152612a3961020084018261283f565b905060408401517fffffffffffffffffffffffffffffffffffffffffffffffffffffffffffffffe084830301610140850152612a75828261290e565b9150506060840151612aca61016085018267ffffffffffffffff808251168352806020830151166020840152806040830151166040840152806060830151166060840152806080830151166080840152505050565b509392505050565b600080600060608486031215612ae757600080fd5b833592506020840135612af981612664565b91506040840135612b0981612664565b809150509250925092565b7f4e487b7100000000000000000000000000000000000000000000000000000000600052604160045260246000fd5b604051610100810167ffffffffffffffff81118282101715612b6757612b67612b14565b60405290565b604051601f82017fffffffffffffffffffffffffffffffffffffffffffffffffffffffffffffffe016810167ffffffffffffffff81118282101715612bb457612bb4612b14565b604052919050565b600067ffffffffffffffff821115612bd657612bd6612b14565b5060051b60200190565b60006020808385031215612bf357600080fd5b825167ffffffffffffffff811115612c0a57600080fd5b8301601f81018513612c1b57600080fd5b8051612c2e612c2982612bbc565b612b6d565b81815260059190911b82018301908381019087831115612c4d57600080fd5b928401925b82841015612c74578351612c6581612664565b82529284019290840190612c52565b979650505050505050565b7f4e487b7100000000000000000000000000000000000000000000000000000000600052603260045260246000fd5b600060208284031215612cc057600080fd5b81516125de81612664565b7f4e487b7100000000000000000000000000000000000000000000000000000000600052601160045260246000fd5b60007fffffffffffffffffffffffffffffffffffffffffffffffffffffffffffffffff821415612d2c57612d2c612ccb565b5060010190565b60008060008060808587031215612d4957600080fd5b8451612d5481612664565b6020860151909450612d6581612664565b6040860151909350612d7681612664565b6060860151909250612d8781612664565b939692955090935050565b805167ffffffffffffffff81168114612daa57600080fd5b919050565b600082601f830112612dc057600080fd5b81516020612dd0612c2983612bbc565b82815260059290921b84018101918181019086841115612def57600080fd5b8286015b84811015612e1157612e0481612d92565b8352918301918301612df3565b509695505050505050565b60006101008284031215612e2f57600080fd5b612e37612b43565b9050815167ffffffffffffffff80821115612e5157600080fd5b612e5d85838601612daf565b83526020840151915080821115612e7357600080fd5b612e7f85838601612daf565b60208401526040840151915080821115612e9857600080fd5b612ea485838601612daf565b60408401526060840151915080821115612ebd57600080fd5b50612eca84828501612daf565b606083015250612edc60808301612d92565b6080820152612eed60a08301612d92565b60a0820152612efe60c08301612d92565b60c082015260e082015160e082015292915050565b6000806000806000806000806000898b03610200811215612f3357600080fd5b8a51612f3e81612664565b60208c0151909a50612f4f81612664565b60408c0151909950612f6081612664565b60608c0151909850612f7181612664565b8097505060808b0151955060a08b0151945060c08b01519350610100807fffffffffffffffffffffffffffffffffffffffffffffffffffffffffffffff2083011215612fbc57600080fd5b612fc4612b43565b60e08d01518152908c015160208201526101208c015160408201526101408c015160608201529050612ff96101608c01612d92565b608082015261300b6101808c01612d92565b60a082015261301d6101a08c01612d92565b60c082015261302f6101c08c01612d92565b60e08201526101e08b015190925067ffffffffffffffff81111561305257600080fd5b61305e8c828d01612e1c565b9150509295985092959850929598565b6000821982111561308157613081612ccb565b500190565b60006020828403121561309857600080fd5b5051919050565b6000602082840312156130b157600080fd5b815180151581146125de57600080fd5b6000602082840312156130d357600080fd5b6125de82612d92565b6000817fffffffffffffffffffffffffffffffffffffffffffffffffffffffffffffffff048311821515161561311457613114612ccb565b500290565b7f4e487b7100000000000000000000000000000000000000000000000000000000600052601260045260246000fd5b60008261315757613157613119565b500490565b60008282101561316e5761316e612ccb565b500390565b6000806040838503121561318657600080fd5b825161319181612664565b915061319f60208401612d92565b90509250929050565b600067ffffffffffffffff838116908316818110156131c9576131c9612ccb565b039392505050565b600067ffffffffffffffff808316818516818304811182151516156131f8576131f8612ccb565b02949350505050565b600067ffffffffffffffff8084168061321c5761321c613119565b92169190910492915050565b600067ffffffffffffffff80831681851680830382111561324b5761324b612ccb565b0194935050505056fea2646970667358221220e09745cf20b1838e04df99ebd7e2dff1aa9d52035f24be5e48bc719d8f98be5564736f6c634300080c0033",
  "devdoc": {
    "author": "Angle Labs, Inc.",
    "details": "This contract only contains view functions to be queried off-chain. It was thus not optimized for gas consumption",
    "kind": "dev",
    "methods": {
      "getCollateralAddresses(address,address)": {
        "returns": {
          "addresses": "A struct with all the addresses associated in the Core module"
        }
      },
      "getCollateralParameters(address,address)": {
        "details": "Check out the struct `Parameters` for the meaning of the return values",
        "returns": {
          "params": "Struct with most of the parameters in the `StableMaster` and `PerpetualManager` contracts"
        }
      },
      "getControlledVaults(address,address)": {
        "details": "This function is never to be called on-chain since it iterates over all vaultIDs. It is here to reduce dependency on an external graph to link an ID to its owner",
        "params": {
          "spender": "Address for which vault ownerships should be checked",
          "vaultManager": "VaultManager address to query vaultIDs on"
        },
        "returns": {
          "_0": "List of `vaultID` controlled by this address",
          "_1": "Count of vaults owned by the address"
        }
      },
      "getStablecoinAddresses()": {
        "details": "The place of an agToken address in the list is the same as the corresponding `StableMaster` address",
        "returns": {
          "_0": "List of the `StableMaster` addresses of the Angle protocol",
          "_1": "List of the `AgToken` addresses of the protocol"
        }
      },
      "previewBurnAndFees(uint256,address,address)": {
        "details": "This function reverts if the burn transaction was to revert in the same conditions (without taking into account potential approval problems to the `StableMaster` contract or agToken balance prior to the call)",
        "returns": {
          "_0": "Amount of `collateral` that would be obtained with a burn transaction in the same block",
          "_1": "Percentage of fees that would be taken during a burn transaction in the same block"
        }
      },
      "previewMintAndFees(uint256,address,address)": {
        "details": "This function reverts if the mint transaction was to revert in the same conditions (without taking into account potential approval problems to the `StableMaster` contract)",
        "returns": {
          "_0": "Amount of `agToken` that would be obtained with a mint transaction in the same block",
          "_1": "Percentage of fees that would be taken during a mint transaction in the same block"
        }
      }
    },
    "title": "AngleHelpers",
    "version": 1
  },
  "userdoc": {
    "kind": "user",
    "methods": {
      "getCollateralAddresses(address,address)": {
        "notice": "Returns all the addresses associated to the (`agToken`,`collateral`) pair given"
      },
      "getCollateralParameters(address,address)": {
        "notice": "Returns most of the governance parameters associated to the (`agToken`,`collateral`) pair given"
      },
      "getControlledVaults(address,address)": {
        "notice": "Returns all the vaults owned or controlled (under the form of approval) by an address"
      },
      "getPoolManager(address,address)": {
        "notice": "Returns the address of the poolManager associated to an (`agToken`, `collateral`) pair in the Core module of the protocol"
      },
      "getStablecoinAddresses()": {
        "notice": "Gets the addresses of all the `StableMaster` contracts and their associated `AgToken` addresses"
      },
      "previewBurnAndFees(uint256,address,address)": {
        "notice": "Gives the amount of `collateral` you'd be getting if you were executing in the same block a burn transaction  with `amount` of `agToken` in the Core module of the Angle protocol as well as the value of the fees (in `BASE_PARAMS`) that would be applied during the burn"
      },
      "previewMintAndFees(uint256,address,address)": {
        "notice": "Gives the amount of `agToken` you'd be getting if you were executing in the same block a mint transaction with `amount` of `collateral` in the Core module of the Angle protocol as well as the value of the fees (in `BASE_PARAMS`) that would be applied during the mint"
      }
    },
    "notice": "Contract with view functions designed to facilitate integrations on the Core and Borrow module of the Angle Protocol",
    "version": 1
  },
  "storageLayout": {
    "storage": [
      {
        "astId": 772,
        "contract": "contracts/ui-helpers/AngleHelpers.sol:AngleHelpers",
        "label": "_initialized",
        "offset": 0,
        "slot": "0",
        "type": "t_bool"
      },
      {
        "astId": 775,
        "contract": "contracts/ui-helpers/AngleHelpers.sol:AngleHelpers",
        "label": "_initializing",
        "offset": 1,
        "slot": "0",
        "type": "t_bool"
      }
    ],
    "types": {
      "t_bool": {
        "encoding": "inplace",
        "label": "bool",
        "numberOfBytes": "1"
      }
    }
  }
}