{
  "address": "0x2201fa47Bb4080fea7B41a4673eB1DEd3EB5AF6E",
  "abi": [
    {
      "inputs": [],
      "stateMutability": "nonpayable",
      "type": "constructor"
    },
    {
      "inputs": [],
      "name": "NotGovernorOrGuardian",
      "type": "error"
    },
    {
      "inputs": [],
      "name": "NotTrusted",
      "type": "error"
    },
    {
      "inputs": [],
      "name": "ZeroAddress",
      "type": "error"
    },
    {
      "anonymous": false,
      "inputs": [
        {
          "indexed": true,
          "internalType": "address",
          "name": "wallet",
          "type": "address"
        },
        {
          "indexed": false,
          "internalType": "bool",
          "name": "trust",
          "type": "bool"
        }
      ],
      "name": "TrustedToggled",
      "type": "event"
    },
    {
      "inputs": [],
      "name": "coreBorrow",
      "outputs": [
        {
          "internalType": "contract ICoreBorrow",
          "name": "",
          "type": "address"
        }
      ],
      "stateMutability": "view",
      "type": "function"
    },
    {
      "inputs": [
        {
          "internalType": "contract ICoreBorrow",
          "name": "_coreBorrow",
          "type": "address"
        }
      ],
      "name": "initialize",
      "outputs": [],
      "stateMutability": "nonpayable",
      "type": "function"
    },
    {
      "inputs": [
        {
          "internalType": "address",
          "name": "caller",
          "type": "address"
        }
      ],
      "name": "isTrusted",
      "outputs": [
        {
          "internalType": "bool",
          "name": "",
          "type": "bool"
        }
      ],
      "stateMutability": "view",
      "type": "function"
    },
    {
      "inputs": [
        {
          "internalType": "address",
          "name": "eoa",
          "type": "address"
        }
      ],
      "name": "toggleTrusted",
      "outputs": [],
      "stateMutability": "nonpayable",
      "type": "function"
    },
    {
      "inputs": [
        {
          "internalType": "address",
          "name": "",
          "type": "address"
        }
      ],
      "name": "trusted",
      "outputs": [
        {
          "internalType": "uint256",
          "name": "",
          "type": "uint256"
        }
      ],
      "stateMutability": "view",
      "type": "function"
    }
  ],
  "transactionHash": "0x694e0f0b52cc3d0bed61c8e8fcc8c51b24c5ce4980bb82d8638c244869be9a6e",
  "args": [],
  "numDeployments": 1,
  "solcInputHash": "c738595b9b57358bae83408c8b980d54",
  "bytecode": "0x608060405234801561001057600080fd5b50600054610100900460ff1661002c5760005460ff1615610034565b6100346100d5565b61009b5760405162461bcd60e51b815260206004820152602e60248201527f496e697469616c697a61626c653a20636f6e747261637420697320616c72656160448201526d191e481a5b9a5d1a585b1a5e995960921b606482015260840160405180910390fd5b600054610100900460ff161580156100bd576000805461ffff19166101011790555b80156100cf576000805461ff00191690555b506100f6565b60006100ea306100f060201b6104741760201c565b15905090565b3b151590565b610559806101056000396000f3fe608060405234801561001057600080fd5b50600436106100675760003560e01c80637ee84349116100505780637ee84349146100ea57806396d64879146100ff578063c4d66de81461014957600080fd5b80631b0c24d51461006c5780636e9821c2146100bc575b600080fd5b6000546100929062010000900473ffffffffffffffffffffffffffffffffffffffff1681565b60405173ffffffffffffffffffffffffffffffffffffffff90911681526020015b60405180910390f35b6100dc6100ca36600461049f565b60016020526000908152604090205481565b6040519081526020016100b3565b6100fd6100f836600461049f565b61015c565b005b61013961010d36600461049f565b73ffffffffffffffffffffffffffffffffffffffff166000908152600160208190526040909120541490565b60405190151581526020016100b3565b6100fd61015736600461049f565b6102c1565b6000546040517f521d4de90000000000000000000000000000000000000000000000000000000081523360048201526201000090910473ffffffffffffffffffffffffffffffffffffffff169063521d4de990602401602060405180830381865afa1580156101cf573d6000803e3d6000fd5b505050506040513d601f19601f820116820180604052508101906101f391906104c3565b610229576040517f99e120bc00000000000000000000000000000000000000000000000000000000815260040160405180910390fd5b73ffffffffffffffffffffffffffffffffffffffff8116600090815260016020819052604082205461025a916104e5565b73ffffffffffffffffffffffffffffffffffffffff83166000818152600160208181526040928390208590559151908414815292935090917f7628ea5f6112a16b36a8239aa208395a8e8f221688cfb3a5461faffb9700abcd910160405180910390a25050565b600054610100900460ff166102dc5760005460ff16156102e0565b303b155b610370576040517f08c379a000000000000000000000000000000000000000000000000000000000815260206004820152602e60248201527f496e697469616c697a61626c653a20636f6e747261637420697320616c72656160448201527f647920696e697469616c697a6564000000000000000000000000000000000000606482015260840160405180910390fd5b600054610100900460ff161580156103af57600080547fffffffffffffffffffffffffffffffffffffffffffffffffffffffffffff0000166101011790555b73ffffffffffffffffffffffffffffffffffffffff82166103fc576040517fd92e233d00000000000000000000000000000000000000000000000000000000815260040160405180910390fd5b600080547fffffffffffffffffffff0000000000000000000000000000000000000000ffff166201000073ffffffffffffffffffffffffffffffffffffffff851602179055801561047057600080547fffffffffffffffffffffffffffffffffffffffffffffffffffffffffffff00ff1690555b5050565b3b151590565b73ffffffffffffffffffffffffffffffffffffffff8116811461049c57600080fd5b50565b6000602082840312156104b157600080fd5b81356104bc8161047a565b9392505050565b6000602082840312156104d557600080fd5b815180151581146104bc57600080fd5b60008282101561051e577f4e487b7100000000000000000000000000000000000000000000000000000000600052601160045260246000fd5b50039056fea26469706673582212204cef671b5bb405601d1710764d72f35c5ce4c789f88de984fce982f8330e85f064736f6c634300080c0033",
  "devdoc": {
    "author": "Angle Core Team",
    "kind": "dev",
    "methods": {
      "isTrusted(address)": {
        "params": {
          "caller": "Address for which the whitelist should be checked"
        },
        "returns": {
          "_0": "Whether the address is trusted or not"
        }
      }
    },
    "title": "KeeperRegistry",
    "version": 1
  },
  "userdoc": {
    "kind": "user",
    "methods": {
      "coreBorrow()": {
        "notice": "Contract handling access control"
      },
      "isTrusted(address)": {
        "notice": "Checks whether an address is whitelisted during oracle updates"
      },
      "toggleTrusted(address)": {
        "notice": "Adds or removes a trusted keeper bot"
      },
      "trusted(address)": {
        "notice": "Trusted EOAs - needs to be tx.origin"
      }
    },
    "notice": "Maintains a mapping of keepers authorized to use the core module just after oracle updates",
    "version": 1
  },
  "storageLayout": {
    "storage": [
      {
        "astId": 772,
        "contract": "contracts/oracle/KeeperRegistry.sol:KeeperRegistry",
        "label": "_initialized",
        "offset": 0,
        "slot": "0",
        "type": "t_bool"
      },
      {
        "astId": 775,
        "contract": "contracts/oracle/KeeperRegistry.sol:KeeperRegistry",
        "label": "_initializing",
        "offset": 1,
        "slot": "0",
        "type": "t_bool"
      },
      {
        "astId": 22545,
        "contract": "contracts/oracle/KeeperRegistry.sol:KeeperRegistry",
        "label": "coreBorrow",
        "offset": 2,
        "slot": "0",
        "type": "t_contract(ICoreBorrow)14261"
      },
      {
        "astId": 22550,
        "contract": "contracts/oracle/KeeperRegistry.sol:KeeperRegistry",
        "label": "trusted",
        "offset": 0,
        "slot": "1",
        "type": "t_mapping(t_address,t_uint256)"
      },
      {
        "astId": 22554,
        "contract": "contracts/oracle/KeeperRegistry.sol:KeeperRegistry",
        "label": "__gap",
        "offset": 0,
        "slot": "2",
        "type": "t_array(t_uint256)48_storage"
      }
    ],
    "types": {
      "t_address": {
        "encoding": "inplace",
        "label": "address",
        "numberOfBytes": "20"
      },
      "t_array(t_uint256)48_storage": {
        "base": "t_uint256",
        "encoding": "inplace",
        "label": "uint256[48]",
        "numberOfBytes": "1536"
      },
      "t_bool": {
        "encoding": "inplace",
        "label": "bool",
        "numberOfBytes": "1"
      },
      "t_contract(ICoreBorrow)14261": {
        "encoding": "inplace",
        "label": "contract ICoreBorrow",
        "numberOfBytes": "20"
      },
      "t_mapping(t_address,t_uint256)": {
        "encoding": "mapping",
        "key": "t_address",
        "label": "mapping(address => uint256)",
        "numberOfBytes": "32",
        "value": "t_uint256"
      },
      "t_uint256": {
        "encoding": "inplace",
        "label": "uint256",
        "numberOfBytes": "32"
      }
    }
  }
}