{
  "address": "0x3c2C2e6cE8b9B086a46369a9Be32f88f9F7B40A8",
  "abi": [
    {
      "inputs": [],
      "stateMutability": "nonpayable",
      "type": "constructor"
    },
    {
      "inputs": [
        {
          "internalType": "uint256",
          "name": "amount",
          "type": "uint256"
        },
        {
          "internalType": "uint256",
          "name": "min",
          "type": "uint256"
        }
      ],
      "name": "AmountOutTooLow",
      "type": "error"
    },
    {
      "inputs": [],
      "name": "BalanceTooLow",
      "type": "error"
    },
    {
      "inputs": [
        {
          "internalType": "uint256",
          "name": "value",
          "type": "uint256"
        }
      ],
      "name": "FlashbotsErrorPayingMiner",
      "type": "error"
    },
    {
      "inputs": [],
      "name": "IncompatibleLengths",
      "type": "error"
    },
    {
      "inputs": [],
      "name": "RevertBytes",
      "type": "error"
    },
    {
      "inputs": [],
      "name": "WrongAmount",
      "type": "error"
    },
    {
      "inputs": [],
      "name": "ZeroAddress",
      "type": "error"
    },
    {
      "anonymous": false,
      "inputs": [
        {
          "indexed": true,
          "internalType": "address",
          "name": "target",
          "type": "address"
        },
        {
          "indexed": false,
          "internalType": "bytes",
          "name": "data",
          "type": "bytes"
        }
      ],
      "name": "LogAction",
      "type": "event"
    },
    {
      "anonymous": false,
      "inputs": [
        {
          "indexed": true,
          "internalType": "address",
          "name": "tokenAddress",
          "type": "address"
        },
        {
          "indexed": true,
          "internalType": "address",
          "name": "to",
          "type": "address"
        },
        {
          "indexed": false,
          "internalType": "uint256",
          "name": "amount",
          "type": "uint256"
        }
      ],
      "name": "Recovered",
      "type": "event"
    },
    {
      "anonymous": false,
      "inputs": [
        {
          "indexed": true,
          "internalType": "bytes32",
          "name": "role",
          "type": "bytes32"
        },
        {
          "indexed": true,
          "internalType": "bytes32",
          "name": "previousAdminRole",
          "type": "bytes32"
        },
        {
          "indexed": true,
          "internalType": "bytes32",
          "name": "newAdminRole",
          "type": "bytes32"
        }
      ],
      "name": "RoleAdminChanged",
      "type": "event"
    },
    {
      "anonymous": false,
      "inputs": [
        {
          "indexed": true,
          "internalType": "bytes32",
          "name": "role",
          "type": "bytes32"
        },
        {
          "indexed": true,
          "internalType": "address",
          "name": "account",
          "type": "address"
        },
        {
          "indexed": true,
          "internalType": "address",
          "name": "sender",
          "type": "address"
        }
      ],
      "name": "RoleGranted",
      "type": "event"
    },
    {
      "anonymous": false,
      "inputs": [
        {
          "indexed": true,
          "internalType": "bytes32",
          "name": "role",
          "type": "bytes32"
        },
        {
          "indexed": true,
          "internalType": "address",
          "name": "account",
          "type": "address"
        },
        {
          "indexed": true,
          "internalType": "address",
          "name": "sender",
          "type": "address"
        }
      ],
      "name": "RoleRevoked",
      "type": "event"
    },
    {
      "anonymous": false,
      "inputs": [
        {
          "indexed": true,
          "internalType": "uint256",
          "name": "value",
          "type": "uint256"
        }
      ],
      "name": "SentToMiner",
      "type": "event"
    },
    {
      "inputs": [],
      "name": "DEFAULT_ADMIN_ROLE",
      "outputs": [
        {
          "internalType": "bytes32",
          "name": "",
          "type": "bytes32"
        }
      ],
      "stateMutability": "view",
      "type": "function"
    },
    {
      "inputs": [],
      "name": "KEEPER_ROLE",
      "outputs": [
        {
          "internalType": "bytes32",
          "name": "",
          "type": "bytes32"
        }
      ],
      "stateMutability": "view",
      "type": "function"
    },
    {
      "inputs": [
        {
          "internalType": "contract IERC20",
          "name": "token",
          "type": "address"
        },
        {
          "internalType": "address",
          "name": "spender",
          "type": "address"
        },
        {
          "internalType": "uint256",
          "name": "amount",
          "type": "uint256"
        }
      ],
      "name": "approve",
      "outputs": [],
      "stateMutability": "nonpayable",
      "type": "function"
    },
    {
      "inputs": [
        {
          "components": [
            {
              "internalType": "address",
              "name": "target",
              "type": "address"
            },
            {
              "internalType": "bytes",
              "name": "data",
              "type": "bytes"
            },
            {
              "internalType": "bool",
              "name": "isDelegateCall",
              "type": "bool"
            }
          ],
          "internalType": "struct KeeperMulticall.Action[]",
          "name": "actions",
          "type": "tuple[]"
        },
        {
          "internalType": "uint256",
          "name": "percentageToMiner",
          "type": "uint256"
        }
      ],
      "name": "executeActions",
      "outputs": [
        {
          "internalType": "bytes[]",
          "name": "",
          "type": "bytes[]"
        }
      ],
      "stateMutability": "payable",
      "type": "function"
    },
    {
      "inputs": [
        {
          "internalType": "contract IERC20[]",
          "name": "tokens",
          "type": "address[]"
        },
        {
          "internalType": "uint256[]",
          "name": "minBalances",
          "type": "uint256[]"
        }
      ],
      "name": "finalBalanceCheck",
      "outputs": [
        {
          "internalType": "bool",
          "name": "",
          "type": "bool"
        }
      ],
      "stateMutability": "view",
      "type": "function"
    },
    {
      "inputs": [
        {
          "internalType": "bytes32",
          "name": "role",
          "type": "bytes32"
        }
      ],
      "name": "getRoleAdmin",
      "outputs": [
        {
          "internalType": "bytes32",
          "name": "",
          "type": "bytes32"
        }
      ],
      "stateMutability": "view",
      "type": "function"
    },
    {
      "inputs": [
        {
          "internalType": "bytes32",
          "name": "role",
          "type": "bytes32"
        },
        {
          "internalType": "address",
          "name": "account",
          "type": "address"
        }
      ],
      "name": "grantRole",
      "outputs": [],
      "stateMutability": "nonpayable",
      "type": "function"
    },
    {
      "inputs": [
        {
          "internalType": "bytes32",
          "name": "role",
          "type": "bytes32"
        },
        {
          "internalType": "address",
          "name": "account",
          "type": "address"
        }
      ],
      "name": "hasRole",
      "outputs": [
        {
          "internalType": "bool",
          "name": "",
          "type": "bool"
        }
      ],
      "stateMutability": "view",
      "type": "function"
    },
    {
      "inputs": [
        {
          "internalType": "address",
          "name": "keeper",
          "type": "address"
        }
      ],
      "name": "initialize",
      "outputs": [],
      "stateMutability": "nonpayable",
      "type": "function"
    },
    {
      "inputs": [
        {
          "internalType": "uint256",
          "name": "value",
          "type": "uint256"
        }
      ],
      "name": "payFlashbots",
      "outputs": [
        {
          "internalType": "bytes",
          "name": "",
          "type": "bytes"
        }
      ],
      "stateMutability": "payable",
      "type": "function"
    },
    {
      "inputs": [
        {
          "internalType": "bytes32",
          "name": "role",
          "type": "bytes32"
        },
        {
          "internalType": "address",
          "name": "account",
          "type": "address"
        }
      ],
      "name": "renounceRole",
      "outputs": [],
      "stateMutability": "nonpayable",
      "type": "function"
    },
    {
      "inputs": [
        {
          "internalType": "bytes32",
          "name": "role",
          "type": "bytes32"
        },
        {
          "internalType": "address",
          "name": "account",
          "type": "address"
        }
      ],
      "name": "revokeRole",
      "outputs": [],
      "stateMutability": "nonpayable",
      "type": "function"
    },
    {
      "inputs": [
        {
          "internalType": "bytes4",
          "name": "interfaceId",
          "type": "bytes4"
        }
      ],
      "name": "supportsInterface",
      "outputs": [
        {
          "internalType": "bool",
          "name": "",
          "type": "bool"
        }
      ],
      "stateMutability": "view",
      "type": "function"
    },
    {
      "inputs": [
        {
          "internalType": "uint256",
          "name": "minAmountOut",
          "type": "uint256"
        },
        {
          "internalType": "bytes",
          "name": "payload",
          "type": "bytes"
        }
      ],
      "name": "swapToken",
      "outputs": [],
      "stateMutability": "nonpayable",
      "type": "function"
    },
    {
      "inputs": [
        {
          "internalType": "address",
          "name": "token",
          "type": "address"
        },
        {
          "internalType": "address",
          "name": "receiver",
          "type": "address"
        },
        {
          "internalType": "uint256",
          "name": "amount",
          "type": "uint256"
        }
      ],
      "name": "withdrawStuckFunds",
      "outputs": [],
      "stateMutability": "nonpayable",
      "type": "function"
    },
    {
      "stateMutability": "payable",
      "type": "receive"
    }
  ],
  "transactionHash": "0x5fdedca27bd239f0346aeb19f9d342320deb0feaf790345fec86197839fd8600",
  "args": [],
  "solcInputHash": "c903799471e77bad32b45bacebf57423",
  "bytecode": "0x60806040523480156200001157600080fd5b50600054610100900460ff166200002f5760005460ff161562000039565b62000039620000de565b620000a15760405162461bcd60e51b815260206004820152602e60248201527f496e697469616c697a61626c653a20636f6e747261637420697320616c72656160448201526d191e481a5b9a5d1a585b1a5e995960921b606482015260840160405180910390fd5b600054610100900460ff16158015620000c4576000805461ffff19166101011790555b8015620000d7576000805461ff00191690555b5062000102565b6000620000f630620000fc60201b62000ec31760201c565b15905090565b3b151590565b612c3580620001126000396000f3fe6080604052600436106100ec5760003560e01c80636e60b2b91161008a578063c4d66de811610059578063c4d66de8146102c9578063c579d490146102e9578063d547741f14610309578063e1f21c671461032957600080fd5b80636e60b2b91461022157806378145b561461024157806391d1485414610261578063a217fddf146102b457600080fd5b8063364bc15a116100c6578063364bc15a1461018d57806336568abe146101c15780633e805e31146101e15780635cca04a41461020157600080fd5b806301ffc9a7146100f8578063248a9ca31461012d5780632f2ff15d1461016b57600080fd5b366100f357005b600080fd5b34801561010457600080fd5b5061011861011336600461224f565b610349565b60405190151581526020015b60405180910390f35b34801561013957600080fd5b5061015d610148366004612291565b60009081526065602052604090206001015490565b604051908152602001610124565b34801561017757600080fd5b5061018b6101863660046122cf565b6103e2565b005b34801561019957600080fd5b5061015d7ffc8737ab85eb45125971625a9ebdb75cc78e01d5c1fa80c4c6e5203f47bc4fab81565b3480156101cd57600080fd5b5061018b6101dc3660046122cf565b61040d565b6101f46101ef366004612291565b6104c5565b6040516101249190612375565b61021461020f3660046124ef565b6105ad565b6040516101249190612626565b34801561022d57600080fd5b5061011861023c36600461270c565b61076f565b34801561024d57600080fd5b5061018b61025c3660046127ce565b610996565b34801561026d57600080fd5b5061011861027c3660046122cf565b600091825260656020908152604080842073ffffffffffffffffffffffffffffffffffffffff93909316845291905290205460ff1690565b3480156102c057600080fd5b5061015d600081565b3480156102d557600080fd5b5061018b6102e436600461280b565b610ab6565b3480156102f557600080fd5b5061018b610304366004612828565b610c2e565b34801561031557600080fd5b5061018b6103243660046122cf565b610d62565b34801561033557600080fd5b5061018b610344366004612828565b610d88565b60007fffffffff0000000000000000000000000000000000000000000000000000000082167f7965db0b0000000000000000000000000000000000000000000000000000000014806103dc57507f01ffc9a7000000000000000000000000000000000000000000000000000000007fffffffff000000000000000000000000000000000000000000000000000000008316145b92915050565b6000828152606560205260409020600101546103fe8133610ec9565b6104088383610f9b565b505050565b73ffffffffffffffffffffffffffffffffffffffff811633146104b7576040517f08c379a000000000000000000000000000000000000000000000000000000000815260206004820152602f60248201527f416363657373436f6e74726f6c3a2063616e206f6e6c792072656e6f756e636560448201527f20726f6c657320666f722073656c66000000000000000000000000000000000060648201526084015b60405180910390fd5b6104c1828261108f565b5050565b60607ffc8737ab85eb45125971625a9ebdb75cc78e01d5c1fa80c4c6e5203f47bc4fab6104f28133610ec9565b6040516000908190419086908381818185875af1925050503d8060008114610536576040519150601f19603f3d011682016040523d82523d6000602084013e61053b565b606091505b50915091508161057a576040517fc3c57d1d000000000000000000000000000000000000000000000000000000008152600481018690526024016104ae565b60405185907fa92c4d1aa8dd9bec7642796776815dad1672e468fcbe70bc2c8c284cba022f4190600090a2949350505050565b60607ffc8737ab85eb45125971625a9ebdb75cc78e01d5c1fa80c4c6e5203f47bc4fab6105da8133610ec9565b835180610613576040517f46282e8d00000000000000000000000000000000000000000000000000000000815260040160405180910390fd5b6000610620826001612898565b67ffffffffffffffff81111561063857610638612388565b60405190808252806020026020018201604052801561066b57816020015b60608152602001906001900390816106565790505b5090504760005b838110156106ca5761069c88828151811061068f5761068f6128b0565b602002602001015161114a565b8382815181106106ae576106ae6128b0565b6020026020010181905250806106c3906128df565b9050610672565b50851561076557612710861061070c576040517f49986e7300000000000000000000000000000000000000000000000000000000815260040160405180910390fd5b4781811115610763576000612710886107258585612918565b61072f919061292f565b610739919061296c565b9050610744816104c5565b848681518110610756576107566128b0565b6020026020010181905250505b505b5095945050505050565b8151600090801580610782575082518114155b156107b9576040517f46282e8d00000000000000000000000000000000000000000000000000000000815260040160405180910390fd5b60005b8181101561098b578481815181106107d6576107d66128b0565b602002602001015173ffffffffffffffffffffffffffffffffffffffff1673eeeeeeeeeeeeeeeeeeeeeeeeeeeeeeeeeeeeeeee73ffffffffffffffffffffffffffffffffffffffff16141561087d57838181518110610837576108376128b0565b6020026020010151471015610878576040517fa328167200000000000000000000000000000000000000000000000000000000815260040160405180910390fd5b61097b565b83818151811061088f5761088f6128b0565b60200260200101518582815181106108a9576108a96128b0565b60209081029190910101516040517f70a0823100000000000000000000000000000000000000000000000000000000815230600482015273ffffffffffffffffffffffffffffffffffffffff909116906370a0823190602401602060405180830381865afa15801561091f573d6000803e3d6000fd5b505050506040513d601f19601f8201168201806040525081019061094391906129a7565b101561097b576040517fa328167200000000000000000000000000000000000000000000000000000000815260040160405180910390fd5b610984816128df565b90506107bc565b506001949350505050565b7ffc8737ab85eb45125971625a9ebdb75cc78e01d5c1fa80c4c6e5203f47bc4fab6109c18133610ec9565b600080731111111254fb6c44bac0bed2854e76f90643097d73ffffffffffffffffffffffffffffffffffffffff16846040516109fd91906129c0565b6000604051808303816000865af19150503d8060008114610a3a576040519150601f19603f3d011682016040523d82523d6000602084013e610a3f565b606091505b509150915081610a5257610a528161131e565b600081806020019051810190610a6891906129a7565b905085811015610aae576040517f57a55c7400000000000000000000000000000000000000000000000000000000815260048101829052602481018790526044016104ae565b505050505050565b600054610100900460ff16610ad15760005460ff1615610ad5565b303b155b610b61576040517f08c379a000000000000000000000000000000000000000000000000000000000815260206004820152602e60248201527f496e697469616c697a61626c653a20636f6e747261637420697320616c72656160448201527f647920696e697469616c697a656400000000000000000000000000000000000060648201526084016104ae565b600054610100900460ff16158015610ba057600080547fffffffffffffffffffffffffffffffffffffffffffffffffffffffffffff0000166101011790555b610ba861135f565b610bd27ffc8737ab85eb45125971625a9ebdb75cc78e01d5c1fa80c4c6e5203f47bc4fab83611410565b610bfc7ffc8737ab85eb45125971625a9ebdb75cc78e01d5c1fa80c4c6e5203f47bc4fab8061141a565b80156104c157600080547fffffffffffffffffffffffffffffffffffffffffffffffffffffffffffff00ff1690555050565b7ffc8737ab85eb45125971625a9ebdb75cc78e01d5c1fa80c4c6e5203f47bc4fab610c598133610ec9565b73eeeeeeeeeeeeeeeeeeeeeeeeeeeeeeeeeeeeeeee73ffffffffffffffffffffffffffffffffffffffff85161415610cd45760405173ffffffffffffffffffffffffffffffffffffffff84169083156108fc029084906000818181858888f19350505050158015610cce573d6000803e3d6000fd5b50610cf5565b610cf573ffffffffffffffffffffffffffffffffffffffff85168484611465565b8273ffffffffffffffffffffffffffffffffffffffff168473ffffffffffffffffffffffffffffffffffffffff167ffff3b3844276f57024e0b42afec1a37f75db36511e43819a4f2a63ab7862b64884604051610d5491815260200190565b60405180910390a350505050565b600082815260656020526040902060010154610d7e8133610ec9565b610408838361108f565b7ffc8737ab85eb45125971625a9ebdb75cc78e01d5c1fa80c4c6e5203f47bc4fab610db38133610ec9565b6040517fdd62ed3e00000000000000000000000000000000000000000000000000000000815230600482015273ffffffffffffffffffffffffffffffffffffffff84811660248301526000919086169063dd62ed3e90604401602060405180830381865afa158015610e29573d6000803e3d6000fd5b505050506040513d601f19601f82011682018060405250810190610e4d91906129a7565b905082811015610e8857610e8384610e658386612918565b73ffffffffffffffffffffffffffffffffffffffff88169190611539565b610ebc565b82811115610ebc57610ebc84610e9e8584612918565b73ffffffffffffffffffffffffffffffffffffffff8816919061163d565b5050505050565b3b151590565b600082815260656020908152604080832073ffffffffffffffffffffffffffffffffffffffff8516845290915290205460ff166104c157610f218173ffffffffffffffffffffffffffffffffffffffff1660146117c3565b610f2c8360206117c3565b604051602001610f3d9291906129dc565b604080517fffffffffffffffffffffffffffffffffffffffffffffffffffffffffffffffe0818403018152908290527f08c379a00000000000000000000000000000000000000000000000000000000082526104ae91600401612375565b600082815260656020908152604080832073ffffffffffffffffffffffffffffffffffffffff8516845290915290205460ff166104c157600082815260656020908152604080832073ffffffffffffffffffffffffffffffffffffffff85168452909152902080547fffffffffffffffffffffffffffffffffffffffffffffffffffffffffffffff001660011790556110313390565b73ffffffffffffffffffffffffffffffffffffffff168173ffffffffffffffffffffffffffffffffffffffff16837f2f8788117e7eff1d82e926ec794901d17c78024a50270940304540a733656f0d60405160405180910390a45050565b600082815260656020908152604080832073ffffffffffffffffffffffffffffffffffffffff8516845290915290205460ff16156104c157600082815260656020908152604080832073ffffffffffffffffffffffffffffffffffffffff8516808552925280832080547fffffffffffffffffffffffffffffffffffffffffffffffffffffffffffffff0016905551339285917ff6391f5c32d9c69d2a47ea670b442974b53935d1edc7fd64eb21e047a839171b9190a45050565b6060600060608360400151156111d257836000015173ffffffffffffffffffffffffffffffffffffffff16846020015160405161118791906129c0565b600060405180830381855af49150503d80600081146111c2576040519150601f19603f3d011682016040523d82523d6000602084013e6111c7565b606091505b509092509050611248565b836000015173ffffffffffffffffffffffffffffffffffffffff1684602001516040516111ff91906129c0565b6000604051808303816000865af19150503d806000811461123c576040519150601f19603f3d011682016040523d82523d6000602084013e611241565b606091505b5090925090505b81611288826040518060400160405280601181526020017f616374696f6e2072657665727465643a20000000000000000000000000000000815250611a0d565b906112c0576040517f08c379a00000000000000000000000000000000000000000000000000000000081526004016104ae9190612375565b50836000015173ffffffffffffffffffffffffffffffffffffffff167f8750b214e92c230f3a124abfc8fde4c619a901fdd895d7bb58e2155ce5dc090c856020015160405161130f9190612375565b60405180910390a29392505050565b80511561132d57805181602001fd5b6040517f8706aebb00000000000000000000000000000000000000000000000000000000815260040160405180910390fd5b600054610100900460ff166113f6576040517f08c379a000000000000000000000000000000000000000000000000000000000815260206004820152602b60248201527f496e697469616c697a61626c653a20636f6e7472616374206973206e6f74206960448201527f6e697469616c697a696e6700000000000000000000000000000000000000000060648201526084016104ae565b6113fe611bf5565b611406611bf5565b61140e611bf5565b565b6104c18282610f9b565b600082815260656020526040808220600101805490849055905190918391839186917fbd79b86ffe0ab8e8776151514217cd7cacd52c909f66475c3af44e129f0b00ff9190a4505050565b60405173ffffffffffffffffffffffffffffffffffffffff83166024820152604481018290526104089084907fa9059cbb00000000000000000000000000000000000000000000000000000000906064015b604080517fffffffffffffffffffffffffffffffffffffffffffffffffffffffffffffffe08184030181529190526020810180517bffffffffffffffffffffffffffffffffffffffffffffffffffffffff167fffffffff0000000000000000000000000000000000000000000000000000000090931692909217909152611c8c565b6040517fdd62ed3e00000000000000000000000000000000000000000000000000000000815230600482015273ffffffffffffffffffffffffffffffffffffffff8381166024830152600091839186169063dd62ed3e90604401602060405180830381865afa1580156115b0573d6000803e3d6000fd5b505050506040513d601f19601f820116820180604052508101906115d491906129a7565b6115de9190612898565b60405173ffffffffffffffffffffffffffffffffffffffff85166024820152604481018290529091506116379085907f095ea7b300000000000000000000000000000000000000000000000000000000906064016114b7565b50505050565b6040517fdd62ed3e00000000000000000000000000000000000000000000000000000000815230600482015273ffffffffffffffffffffffffffffffffffffffff83811660248301526000919085169063dd62ed3e90604401602060405180830381865afa1580156116b3573d6000803e3d6000fd5b505050506040513d601f19601f820116820180604052508101906116d791906129a7565b905081811015611769576040517f08c379a000000000000000000000000000000000000000000000000000000000815260206004820152602960248201527f5361666545524332303a2064656372656173656420616c6c6f77616e6365206260448201527f656c6f77207a65726f000000000000000000000000000000000000000000000060648201526084016104ae565b60405173ffffffffffffffffffffffffffffffffffffffff841660248201528282036044820181905290610ebc9086907f095ea7b300000000000000000000000000000000000000000000000000000000906064016114b7565b606060006117d283600261292f565b6117dd906002612898565b67ffffffffffffffff8111156117f5576117f5612388565b6040519080825280601f01601f19166020018201604052801561181f576020820181803683370190505b5090507f300000000000000000000000000000000000000000000000000000000000000081600081518110611856576118566128b0565b60200101907effffffffffffffffffffffffffffffffffffffffffffffffffffffffffffff1916908160001a9053507f7800000000000000000000000000000000000000000000000000000000000000816001815181106118b9576118b96128b0565b60200101907effffffffffffffffffffffffffffffffffffffffffffffffffffffffffffff1916908160001a90535060006118f584600261292f565b611900906001612898565b90505b600181111561199d577f303132333435363738396162636465660000000000000000000000000000000085600f1660108110611941576119416128b0565b1a60f81b828281518110611957576119576128b0565b60200101907effffffffffffffffffffffffffffffffffffffffffffffffffffffffffffff1916908160001a90535060049490941c9361199681612a5d565b9050611903565b508315611a06576040517f08c379a000000000000000000000000000000000000000000000000000000000815260206004820181905260248201527f537472696e67733a20686578206c656e67746820696e73756666696369656e7460448201526064016104ae565b9392505050565b60606004835110611bc35760208301517fffffffff0000000000000000000000000000000000000000000000000000000081167f08c379a000000000000000000000000000000000000000000000000000000000148015611a7057506044845110155b15611b3257602484810151808601820180519192909190611a92908490612898565b611a9c9190612898565b86511015611b06576040517f08c379a000000000000000000000000000000000000000000000000000000000815260206004820152601560248201527f496e76616c69642072657665727420726561736f6e000000000000000000000060448201526064016104ae565b8481604051602001611b19929190612a92565b60405160208183030381529060405293505050506103dc565b7fffffffff0000000000000000000000000000000000000000000000000000000081167f4e487b7100000000000000000000000000000000000000000000000000000000148015611b84575083516024145b15611bc157602484015183611b9882611d98565b604051602001611ba9929190612b14565b604051602081830303815290604052925050506103dc565b505b81611bcd84611dc0565b604051602001611bde929190612b60565b604051602081830303815290604052905092915050565b600054610100900460ff1661140e576040517f08c379a000000000000000000000000000000000000000000000000000000000815260206004820152602b60248201527f496e697469616c697a61626c653a20636f6e7472616374206973206e6f74206960448201527f6e697469616c697a696e6700000000000000000000000000000000000000000060648201526084016104ae565b6000611cee826040518060400160405280602081526020017f5361666545524332303a206c6f772d6c6576656c2063616c6c206661696c65648152508573ffffffffffffffffffffffffffffffffffffffff166120659092919063ffffffff16565b8051909150156104085780806020019051810190611d0c9190612be2565b610408576040517f08c379a000000000000000000000000000000000000000000000000000000000815260206004820152602a60248201527f5361666545524332303a204552433230206f7065726174696f6e20646964206e60448201527f6f7420737563636565640000000000000000000000000000000000000000000060648201526084016104ae565b60606103dc82604051602001611db091815260200190565b6040516020818303038152906040525b80516060907f303132333435363738396162636465660000000000000000000000000000000090600090611df590600261292f565b611e00906002612898565b67ffffffffffffffff811115611e1857611e18612388565b6040519080825280601f01601f191660200182016040528015611e42576020820181803683370190505b5090507f300000000000000000000000000000000000000000000000000000000000000081600081518110611e7957611e796128b0565b60200101907effffffffffffffffffffffffffffffffffffffffffffffffffffffffffffff1916908160001a9053507f780000000000000000000000000000000000000000000000000000000000000081600181518110611edc57611edc6128b0565b60200101907effffffffffffffffffffffffffffffffffffffffffffffffffffffffffffff1916908160001a90535060005b845181101561205d57826004868381518110611f2c57611f2c6128b0565b01602001517fff0000000000000000000000000000000000000000000000000000000000000016901c60f81c60108110611f6857611f686128b0565b1a60f81b82611f7883600261292f565b611f83906002612898565b81518110611f9357611f936128b0565b60200101907effffffffffffffffffffffffffffffffffffffffffffffffffffffffffffff1916908160001a90535082858281518110611fd557611fd56128b0565b60209101015160f81c600f1660108110611ff157611ff16128b0565b1a60f81b8261200183600261292f565b61200c906003612898565b8151811061201c5761201c6128b0565b60200101907effffffffffffffffffffffffffffffffffffffffffffffffffffffffffffff1916908160001a90535080612055816128df565b915050611f0e565b509392505050565b6060612074848460008561207c565b949350505050565b60608247101561210e576040517f08c379a000000000000000000000000000000000000000000000000000000000815260206004820152602660248201527f416464726573733a20696e73756666696369656e742062616c616e636520666f60448201527f722063616c6c000000000000000000000000000000000000000000000000000060648201526084016104ae565b843b612176576040517f08c379a000000000000000000000000000000000000000000000000000000000815260206004820152601d60248201527f416464726573733a2063616c6c20746f206e6f6e2d636f6e747261637400000060448201526064016104ae565b6000808673ffffffffffffffffffffffffffffffffffffffff16858760405161219f91906129c0565b60006040518083038185875af1925050503d80600081146121dc576040519150601f19603f3d011682016040523d82523d6000602084013e6121e1565b606091505b50915091506121f18282866121fc565b979650505050505050565b6060831561220b575081611a06565b82511561221b5782518084602001fd5b816040517f08c379a00000000000000000000000000000000000000000000000000000000081526004016104ae9190612375565b60006020828403121561226157600080fd5b81357fffffffff0000000000000000000000000000000000000000000000000000000081168114611a0657600080fd5b6000602082840312156122a357600080fd5b5035919050565b73ffffffffffffffffffffffffffffffffffffffff811681146122cc57600080fd5b50565b600080604083850312156122e257600080fd5b8235915060208301356122f4816122aa565b809150509250929050565b60005b8381101561231a578181015183820152602001612302565b838111156116375750506000910152565b600081518084526123438160208601602086016122ff565b601f017fffffffffffffffffffffffffffffffffffffffffffffffffffffffffffffffe0169290920160200192915050565b602081526000611a06602083018461232b565b7f4e487b7100000000000000000000000000000000000000000000000000000000600052604160045260246000fd5b6040516060810167ffffffffffffffff811182821017156123da576123da612388565b60405290565b604051601f82017fffffffffffffffffffffffffffffffffffffffffffffffffffffffffffffffe016810167ffffffffffffffff8111828210171561242757612427612388565b604052919050565b600067ffffffffffffffff82111561244957612449612388565b5060051b60200190565b600082601f83011261246457600080fd5b813567ffffffffffffffff81111561247e5761247e612388565b6124af60207fffffffffffffffffffffffffffffffffffffffffffffffffffffffffffffffe0601f840116016123e0565b8181528460208386010111156124c457600080fd5b816020850160208301376000918101602001919091529392505050565b80151581146122cc57600080fd5b6000806040838503121561250257600080fd5b823567ffffffffffffffff8082111561251a57600080fd5b818501915085601f83011261252e57600080fd5b8135602061254361253e8361242f565b6123e0565b82815260059290921b8401810191818101908984111561256257600080fd5b8286015b848110156126155780358681111561257e5760008081fd5b87016060818d037fffffffffffffffffffffffffffffffffffffffffffffffffffffffffffffffe0018113156125b45760008081fd5b6125bc6123b7565b868301356125c9816122aa565b81526040830135898111156125de5760008081fd5b6125ec8f8983870101612453565b828901525091810135916125ff836124e1565b6040810192909252508352918301918301612566565b509997909101359750505050505050565b6000602080830181845280855180835260408601915060408160051b870101925083870160005b82811015612699577fffffffffffffffffffffffffffffffffffffffffffffffffffffffffffffffc088860301845261268785835161232b565b9450928501929085019060010161264d565b5092979650505050505050565b600082601f8301126126b757600080fd5b813560206126c761253e8361242f565b82815260059290921b840181019181810190868411156126e657600080fd5b8286015b8481101561270157803583529183019183016126ea565b509695505050505050565b6000806040838503121561271f57600080fd5b823567ffffffffffffffff8082111561273757600080fd5b818501915085601f83011261274b57600080fd5b8135602061275b61253e8361242f565b82815260059290921b8401810191818101908984111561277a57600080fd5b948201945b838610156127a1578535612792816122aa565b8252948201949082019061277f565b965050860135925050808211156127b757600080fd5b506127c4858286016126a6565b9150509250929050565b600080604083850312156127e157600080fd5b82359150602083013567ffffffffffffffff8111156127ff57600080fd5b6127c485828601612453565b60006020828403121561281d57600080fd5b8135611a06816122aa565b60008060006060848603121561283d57600080fd5b8335612848816122aa565b92506020840135612858816122aa565b929592945050506040919091013590565b7f4e487b7100000000000000000000000000000000000000000000000000000000600052601160045260246000fd5b600082198211156128ab576128ab612869565b500190565b7f4e487b7100000000000000000000000000000000000000000000000000000000600052603260045260246000fd5b60007fffffffffffffffffffffffffffffffffffffffffffffffffffffffffffffffff82141561291157612911612869565b5060010190565b60008282101561292a5761292a612869565b500390565b6000817fffffffffffffffffffffffffffffffffffffffffffffffffffffffffffffffff048311821515161561296757612967612869565b500290565b6000826129a2577f4e487b7100000000000000000000000000000000000000000000000000000000600052601260045260246000fd5b500490565b6000602082840312156129b957600080fd5b5051919050565b600082516129d28184602087016122ff565b9190910192915050565b7f416363657373436f6e74726f6c3a206163636f756e7420000000000000000000815260008351612a148160178501602088016122ff565b7f206973206d697373696e6720726f6c65200000000000000000000000000000006017918401918201528351612a518160288401602088016122ff565b01602801949350505050565b600081612a6c57612a6c612869565b507fffffffffffffffffffffffffffffffffffffffffffffffffffffffffffffffff0190565b60008351612aa48184602088016122ff565b7f4572726f722800000000000000000000000000000000000000000000000000009083019081528351612ade8160068401602088016122ff565b7f290000000000000000000000000000000000000000000000000000000000000060069290910191820152600701949350505050565b60008351612b268184602088016122ff565b7f50616e69632800000000000000000000000000000000000000000000000000009083019081528351612ade8160068401602088016122ff565b60008351612b728184602088016122ff565b7f556e6b6e6f776e280000000000000000000000000000000000000000000000009083019081528351612bac8160088401602088016122ff565b7f290000000000000000000000000000000000000000000000000000000000000060089290910191820152600901949350505050565b600060208284031215612bf457600080fd5b8151611a06816124e156fea2646970667358221220bd2eca0578b5aa684dfbbe68b5ce942dd489d2ff335fb9478ee11894677bc61064736f6c634300080c0033",
  "devdoc": {
    "author": "Angle Core Team",
    "details": "Special features:         - ability to pay the miner (for private Flashbots transactions)         - swap tokens through 1inchTx need to be encoded as an array of Action. The flag `isDelegateCall` is used for calling functions within this same contract",
    "kind": "dev",
    "methods": {
      "approve(address,address,uint256)": {
        "params": {
          "amount": "Amount to approve",
          "spender": "Address of the spender to approve",
          "token": "Address of the token to approve"
        }
      },
      "executeActions((address,bytes,bool)[],uint256)": {
        "details": "This is the main entry point for actions to be executed. The `isDelegateCall` flag is used for calling function inside this `KeeperMulticall` contract, if we call other contracts, the flag should be false",
        "params": {
          "actions": "Actions to be executed",
          "percentageToMiner": "Percentage to pay to miner expressed in bps (10000)"
        }
      },
      "finalBalanceCheck(address[],uint256[])": {
        "params": {
          "minBalances": "Array of balances for each token",
          "tokens": "Array of tokens to check"
        }
      },
      "getRoleAdmin(bytes32)": {
        "details": "Returns the admin role that controls `role`. See {grantRole} and {revokeRole}. To change a role's admin, use {_setRoleAdmin}."
      },
      "grantRole(bytes32,address)": {
        "details": "Grants `role` to `account`. If `account` had not been already granted `role`, emits a {RoleGranted} event. Requirements: - the caller must have ``role``'s admin role."
      },
      "hasRole(bytes32,address)": {
        "details": "Returns `true` if `account` has been granted `role`."
      },
      "payFlashbots(uint256)": {
        "params": {
          "value": "Value to be sent"
        }
      },
      "renounceRole(bytes32,address)": {
        "details": "Revokes `role` from the calling account. Roles are often managed via {grantRole} and {revokeRole}: this function's purpose is to provide a mechanism for accounts to lose their privileges if they are compromised (such as when a trusted device is misplaced). If the calling account had been revoked `role`, emits a {RoleRevoked} event. Requirements: - the caller must be `account`."
      },
      "revokeRole(bytes32,address)": {
        "details": "Revokes `role` from `account`. If `account` had been granted `role`, emits a {RoleRevoked} event. Requirements: - the caller must have ``role``'s admin role."
      },
      "supportsInterface(bytes4)": {
        "details": "See {IERC165-supportsInterface}."
      },
      "swapToken(uint256,bytes)": {
        "params": {
          "minAmountOut": "Minimum amount of `out` token to receive for the swap to happen",
          "payload": "Bytes needed for 1Inch API"
        }
      },
      "withdrawStuckFunds(address,address,uint256)": {
        "params": {
          "amount": "Amount to recover",
          "receiver": "Address where to send the tokens",
          "token": "Address of the token to recover"
        }
      }
    },
    "title": "KeeperMulticall",
    "version": 1
  },
  "userdoc": {
    "kind": "user",
    "methods": {
      "approve(address,address,uint256)": {
        "notice": "Approve a `spender` for `token`"
      },
      "executeActions((address,bytes,bool)[],uint256)": {
        "notice": "Allows an authorized keeper to execute multiple actions in a single step"
      },
      "finalBalanceCheck(address[],uint256[])": {
        "notice": "Used to check the balances the token holds for each token. If we don't have enough of a token, we revert the tx"
      },
      "payFlashbots(uint256)": {
        "notice": "Ability to pay miner directly. Used for Flashbots to execute private transactions"
      },
      "swapToken(uint256,bytes)": {
        "notice": "Swap token to another through 1Inch"
      },
      "withdrawStuckFunds(address,address,uint256)": {
        "notice": "Withdraw stuck funds"
      }
    },
    "notice": "Allows an authorized caller (keeper) to execute multiple actions in a single tx.",
    "version": 1
  },
  "storageLayout": {
    "storage": [
      {
        "astId": 772,
        "contract": "contracts/keeperMulticall/KeeperMulticall.sol:KeeperMulticall",
        "label": "_initialized",
        "offset": 0,
        "slot": "0",
        "type": "t_bool"
      },
      {
        "astId": 775,
        "contract": "contracts/keeperMulticall/KeeperMulticall.sol:KeeperMulticall",
        "label": "_initializing",
        "offset": 1,
        "slot": "0",
        "type": "t_bool"
      },
      {
        "astId": 2479,
        "contract": "contracts/keeperMulticall/KeeperMulticall.sol:KeeperMulticall",
        "label": "__gap",
        "offset": 0,
        "slot": "1",
        "type": "t_array(t_uint256)50_storage"
      },
      {
        "astId": 3341,
        "contract": "contracts/keeperMulticall/KeeperMulticall.sol:KeeperMulticall",
        "label": "__gap",
        "offset": 0,
        "slot": "51",
        "type": "t_array(t_uint256)50_storage"
      },
      {
        "astId": 250,
        "contract": "contracts/keeperMulticall/KeeperMulticall.sol:KeeperMulticall",
        "label": "_roles",
        "offset": 0,
        "slot": "101",
        "type": "t_mapping(t_bytes32,t_struct(RoleData)245_storage)"
      },
      {
        "astId": 537,
        "contract": "contracts/keeperMulticall/KeeperMulticall.sol:KeeperMulticall",
        "label": "__gap",
        "offset": 0,
        "slot": "102",
        "type": "t_array(t_uint256)49_storage"
      }
    ],
    "types": {
      "t_address": {
        "encoding": "inplace",
        "label": "address",
        "numberOfBytes": "20"
      },
      "t_array(t_uint256)49_storage": {
        "base": "t_uint256",
        "encoding": "inplace",
        "label": "uint256[49]",
        "numberOfBytes": "1568"
      },
      "t_array(t_uint256)50_storage": {
        "base": "t_uint256",
        "encoding": "inplace",
        "label": "uint256[50]",
        "numberOfBytes": "1600"
      },
      "t_bool": {
        "encoding": "inplace",
        "label": "bool",
        "numberOfBytes": "1"
      },
      "t_bytes32": {
        "encoding": "inplace",
        "label": "bytes32",
        "numberOfBytes": "32"
      },
      "t_mapping(t_address,t_bool)": {
        "encoding": "mapping",
        "key": "t_address",
        "label": "mapping(address => bool)",
        "numberOfBytes": "32",
        "value": "t_bool"
      },
      "t_mapping(t_bytes32,t_struct(RoleData)245_storage)": {
        "encoding": "mapping",
        "key": "t_bytes32",
        "label": "mapping(bytes32 => struct AccessControlUpgradeable.RoleData)",
        "numberOfBytes": "32",
        "value": "t_struct(RoleData)245_storage"
      },
      "t_struct(RoleData)245_storage": {
        "encoding": "inplace",
        "label": "struct AccessControlUpgradeable.RoleData",
        "members": [
          {
            "astId": 242,
            "contract": "contracts/keeperMulticall/KeeperMulticall.sol:KeeperMulticall",
            "label": "members",
            "offset": 0,
            "slot": "0",
            "type": "t_mapping(t_address,t_bool)"
          },
          {
            "astId": 244,
            "contract": "contracts/keeperMulticall/KeeperMulticall.sol:KeeperMulticall",
            "label": "adminRole",
            "offset": 0,
            "slot": "1",
            "type": "t_bytes32"
          }
        ],
        "numberOfBytes": "64"
      },
      "t_uint256": {
        "encoding": "inplace",
        "label": "uint256",
        "numberOfBytes": "32"
      }
    }
  }
}