{
  "address": "0xd735611AE930D2fd3788AAbf7696e6D8f664d15e",
  "abi": [
    {
      "inputs": [],
      "stateMutability": "nonpayable",
      "type": "constructor"
    },
    {
      "inputs": [],
      "name": "InvalidCaller",
      "type": "error"
    },
    {
      "inputs": [],
      "name": "InvalidEndpoint",
      "type": "error"
    },
    {
      "inputs": [],
      "name": "InvalidPayload",
      "type": "error"
    },
    {
      "inputs": [],
      "name": "InvalidSource",
      "type": "error"
    },
    {
      "inputs": [],
      "name": "NotGovernor",
      "type": "error"
    },
    {
      "inputs": [],
      "name": "NotGovernorOrGuardian",
      "type": "error"
    },
    {
      "inputs": [],
      "name": "ZeroAddress",
      "type": "error"
    },
    {
      "anonymous": false,
      "inputs": [
        {
          "indexed": false,
          "internalType": "uint16",
          "name": "_srcChainId",
          "type": "uint16"
        },
        {
          "indexed": false,
          "internalType": "bytes",
          "name": "_srcAddress",
          "type": "bytes"
        },
        {
          "indexed": false,
          "internalType": "uint64",
          "name": "_nonce",
          "type": "uint64"
        },
        {
          "indexed": false,
          "internalType": "bytes",
          "name": "_payload",
          "type": "bytes"
        }
      ],
      "name": "MessageFailed",
      "type": "event"
    },
    {
      "anonymous": false,
      "inputs": [
        {
          "indexed": false,
          "internalType": "address",
          "name": "account",
          "type": "address"
        }
      ],
      "name": "Paused",
      "type": "event"
    },
    {
      "anonymous": false,
      "inputs": [
        {
          "indexed": true,
          "internalType": "uint16",
          "name": "_srcChainId",
          "type": "uint16"
        },
        {
          "indexed": true,
          "internalType": "bytes",
          "name": "_srcAddress",
          "type": "bytes"
        },
        {
          "indexed": true,
          "internalType": "address",
          "name": "_toAddress",
          "type": "address"
        },
        {
          "indexed": false,
          "internalType": "uint256",
          "name": "_amount",
          "type": "uint256"
        },
        {
          "indexed": false,
          "internalType": "uint64",
          "name": "_nonce",
          "type": "uint64"
        }
      ],
      "name": "ReceiveFromChain",
      "type": "event"
    },
    {
      "anonymous": false,
      "inputs": [
        {
          "indexed": true,
          "internalType": "address",
          "name": "_sender",
          "type": "address"
        },
        {
          "indexed": true,
          "internalType": "uint16",
          "name": "_dstChainId",
          "type": "uint16"
        },
        {
          "indexed": true,
          "internalType": "bytes",
          "name": "_toAddress",
          "type": "bytes"
        },
        {
          "indexed": false,
          "internalType": "uint256",
          "name": "_amount",
          "type": "uint256"
        },
        {
          "indexed": false,
          "internalType": "uint64",
          "name": "_nonce",
          "type": "uint64"
        }
      ],
      "name": "SendToChain",
      "type": "event"
    },
    {
      "anonymous": false,
      "inputs": [
        {
          "indexed": false,
          "internalType": "uint16",
          "name": "_srcChainId",
          "type": "uint16"
        },
        {
          "indexed": false,
          "internalType": "bytes",
          "name": "_srcAddress",
          "type": "bytes"
        }
      ],
      "name": "SetTrustedRemote",
      "type": "event"
    },
    {
      "anonymous": false,
      "inputs": [
        {
          "indexed": false,
          "internalType": "address",
          "name": "account",
          "type": "address"
        }
      ],
      "name": "Unpaused",
      "type": "event"
    },
    {
      "inputs": [
        {
          "internalType": "address",
          "name": "",
          "type": "address"
        }
      ],
      "name": "balanceOf",
      "outputs": [
        {
          "internalType": "uint256",
          "name": "",
          "type": "uint256"
        }
      ],
      "stateMutability": "view",
      "type": "function"
    },
    {
      "inputs": [],
      "name": "canonicalToken",
      "outputs": [
        {
          "internalType": "contract IERC20",
          "name": "",
          "type": "address"
        }
      ],
      "stateMutability": "view",
      "type": "function"
    },
    {
      "inputs": [
        {
          "internalType": "uint16",
          "name": "_dstChainId",
          "type": "uint16"
        },
        {
          "internalType": "bytes",
          "name": "_toAddress",
          "type": "bytes"
        },
        {
          "internalType": "uint256",
          "name": "_amount",
          "type": "uint256"
        },
        {
          "internalType": "bool",
          "name": "_useZro",
          "type": "bool"
        },
        {
          "internalType": "bytes",
          "name": "_adapterParams",
          "type": "bytes"
        }
      ],
      "name": "estimateSendFee",
      "outputs": [
        {
          "internalType": "uint256",
          "name": "nativeFee",
          "type": "uint256"
        },
        {
          "internalType": "uint256",
          "name": "zroFee",
          "type": "uint256"
        }
      ],
      "stateMutability": "view",
      "type": "function"
    },
    {
      "inputs": [
        {
          "internalType": "uint16",
          "name": "",
          "type": "uint16"
        },
        {
          "internalType": "bytes",
          "name": "",
          "type": "bytes"
        },
        {
          "internalType": "uint64",
          "name": "",
          "type": "uint64"
        }
      ],
      "name": "failedMessages",
      "outputs": [
        {
          "internalType": "bytes32",
          "name": "",
          "type": "bytes32"
        }
      ],
      "stateMutability": "view",
      "type": "function"
    },
    {
      "inputs": [
        {
          "internalType": "uint16",
          "name": "_srcChainId",
          "type": "uint16"
        },
        {
          "internalType": "bytes",
          "name": "_srcAddress",
          "type": "bytes"
        }
      ],
      "name": "forceResumeReceive",
      "outputs": [],
      "stateMutability": "nonpayable",
      "type": "function"
    },
    {
      "inputs": [
        {
          "internalType": "uint16",
          "name": "_version",
          "type": "uint16"
        },
        {
          "internalType": "uint16",
          "name": "_chainId",
          "type": "uint16"
        },
        {
          "internalType": "address",
          "name": "",
          "type": "address"
        },
        {
          "internalType": "uint256",
          "name": "_configType",
          "type": "uint256"
        }
      ],
      "name": "getConfig",
      "outputs": [
        {
          "internalType": "bytes",
          "name": "",
          "type": "bytes"
        }
      ],
      "stateMutability": "view",
      "type": "function"
    },
    {
      "inputs": [
        {
          "internalType": "string",
          "name": "_name",
          "type": "string"
        },
        {
          "internalType": "address",
          "name": "_lzEndpoint",
          "type": "address"
        },
        {
          "internalType": "address",
          "name": "_treasury",
          "type": "address"
        }
      ],
      "name": "initialize",
      "outputs": [],
      "stateMutability": "nonpayable",
      "type": "function"
    },
    {
      "inputs": [
        {
          "internalType": "uint16",
          "name": "_srcChainId",
          "type": "uint16"
        },
        {
          "internalType": "bytes",
          "name": "_srcAddress",
          "type": "bytes"
        }
      ],
      "name": "isTrustedRemote",
      "outputs": [
        {
          "internalType": "bool",
          "name": "",
          "type": "bool"
        }
      ],
      "stateMutability": "view",
      "type": "function"
    },
    {
      "inputs": [],
      "name": "lzEndpoint",
      "outputs": [
        {
          "internalType": "contract ILayerZeroEndpoint",
          "name": "",
          "type": "address"
        }
      ],
      "stateMutability": "view",
      "type": "function"
    },
    {
      "inputs": [
        {
          "internalType": "uint16",
          "name": "_srcChainId",
          "type": "uint16"
        },
        {
          "internalType": "bytes",
          "name": "_srcAddress",
          "type": "bytes"
        },
        {
          "internalType": "uint64",
          "name": "_nonce",
          "type": "uint64"
        },
        {
          "internalType": "bytes",
          "name": "_payload",
          "type": "bytes"
        }
      ],
      "name": "lzReceive",
      "outputs": [],
      "stateMutability": "nonpayable",
      "type": "function"
    },
    {
      "inputs": [],
      "name": "name",
      "outputs": [
        {
          "internalType": "string",
          "name": "",
          "type": "string"
        }
      ],
      "stateMutability": "view",
      "type": "function"
    },
    {
      "inputs": [
        {
          "internalType": "uint16",
          "name": "_srcChainId",
          "type": "uint16"
        },
        {
          "internalType": "bytes",
          "name": "_srcAddress",
          "type": "bytes"
        },
        {
          "internalType": "uint64",
          "name": "_nonce",
          "type": "uint64"
        },
        {
          "internalType": "bytes",
          "name": "_payload",
          "type": "bytes"
        }
      ],
      "name": "nonblockingLzReceive",
      "outputs": [],
      "stateMutability": "nonpayable",
      "type": "function"
    },
    {
      "inputs": [
        {
          "internalType": "bool",
          "name": "pause",
          "type": "bool"
        }
      ],
      "name": "pauseSendTokens",
      "outputs": [],
      "stateMutability": "nonpayable",
      "type": "function"
    },
    {
      "inputs": [],
      "name": "paused",
      "outputs": [
        {
          "internalType": "bool",
          "name": "",
          "type": "bool"
        }
      ],
      "stateMutability": "view",
      "type": "function"
    },
    {
      "inputs": [
        {
          "internalType": "uint16",
          "name": "_srcChainId",
          "type": "uint16"
        },
        {
          "internalType": "bytes",
          "name": "_srcAddress",
          "type": "bytes"
        },
        {
          "internalType": "uint64",
          "name": "_nonce",
          "type": "uint64"
        },
        {
          "internalType": "bytes",
          "name": "_payload",
          "type": "bytes"
        }
      ],
      "name": "retryMessage",
      "outputs": [],
      "stateMutability": "payable",
      "type": "function"
    },
    {
      "inputs": [
        {
          "internalType": "uint16",
          "name": "_dstChainId",
          "type": "uint16"
        },
        {
          "internalType": "bytes",
          "name": "_toAddress",
          "type": "bytes"
        },
        {
          "internalType": "uint256",
          "name": "_amount",
          "type": "uint256"
        },
        {
          "internalType": "address payable",
          "name": "_refundAddress",
          "type": "address"
        },
        {
          "internalType": "address",
          "name": "_zroPaymentAddress",
          "type": "address"
        },
        {
          "internalType": "bytes",
          "name": "_adapterParams",
          "type": "bytes"
        }
      ],
      "name": "send",
      "outputs": [],
      "stateMutability": "payable",
      "type": "function"
    },
    {
      "inputs": [
        {
          "internalType": "uint16",
          "name": "_dstChainId",
          "type": "uint16"
        },
        {
          "internalType": "bytes",
          "name": "_toAddress",
          "type": "bytes"
        },
        {
          "internalType": "uint256",
          "name": "_amount",
          "type": "uint256"
        },
        {
          "internalType": "address payable",
          "name": "_refundAddress",
          "type": "address"
        },
        {
          "internalType": "address",
          "name": "_zroPaymentAddress",
          "type": "address"
        },
        {
          "internalType": "bytes",
          "name": "_adapterParams",
          "type": "bytes"
        }
      ],
      "name": "sendCredit",
      "outputs": [],
      "stateMutability": "payable",
      "type": "function"
    },
    {
      "inputs": [
        {
          "internalType": "uint16",
          "name": "_dstChainId",
          "type": "uint16"
        },
        {
          "internalType": "bytes",
          "name": "_toAddress",
          "type": "bytes"
        },
        {
          "internalType": "uint256",
          "name": "_amount",
          "type": "uint256"
        },
        {
          "internalType": "address payable",
          "name": "_refundAddress",
          "type": "address"
        },
        {
          "internalType": "address",
          "name": "_zroPaymentAddress",
          "type": "address"
        },
        {
          "internalType": "bytes",
          "name": "_adapterParams",
          "type": "bytes"
        },
        {
          "internalType": "uint256",
          "name": "deadline",
          "type": "uint256"
        },
        {
          "internalType": "uint8",
          "name": "v",
          "type": "uint8"
        },
        {
          "internalType": "bytes32",
          "name": "r",
          "type": "bytes32"
        },
        {
          "internalType": "bytes32",
          "name": "s",
          "type": "bytes32"
        }
      ],
      "name": "sendWithPermit",
      "outputs": [],
      "stateMutability": "payable",
      "type": "function"
    },
    {
      "inputs": [
        {
          "internalType": "uint16",
          "name": "_version",
          "type": "uint16"
        },
        {
          "internalType": "uint16",
          "name": "_chainId",
          "type": "uint16"
        },
        {
          "internalType": "uint256",
          "name": "_configType",
          "type": "uint256"
        },
        {
          "internalType": "bytes",
          "name": "_config",
          "type": "bytes"
        }
      ],
      "name": "setConfig",
      "outputs": [],
      "stateMutability": "nonpayable",
      "type": "function"
    },
    {
      "inputs": [
        {
          "internalType": "uint16",
          "name": "_version",
          "type": "uint16"
        }
      ],
      "name": "setReceiveVersion",
      "outputs": [],
      "stateMutability": "nonpayable",
      "type": "function"
    },
    {
      "inputs": [
        {
          "internalType": "uint16",
          "name": "_version",
          "type": "uint16"
        }
      ],
      "name": "setSendVersion",
      "outputs": [],
      "stateMutability": "nonpayable",
      "type": "function"
    },
    {
      "inputs": [
        {
          "internalType": "uint16",
          "name": "_srcChainId",
          "type": "uint16"
        },
        {
          "internalType": "bytes",
          "name": "_srcAddress",
          "type": "bytes"
        }
      ],
      "name": "setTrustedRemote",
      "outputs": [],
      "stateMutability": "nonpayable",
      "type": "function"
    },
    {
      "inputs": [
        {
          "internalType": "bytes4",
          "name": "interfaceId",
          "type": "bytes4"
        }
      ],
      "name": "supportsInterface",
      "outputs": [
        {
          "internalType": "bool",
          "name": "",
          "type": "bool"
        }
      ],
      "stateMutability": "view",
      "type": "function"
    },
    {
      "inputs": [
        {
          "internalType": "uint256",
          "name": "amount",
          "type": "uint256"
        },
        {
          "internalType": "address",
          "name": "recipient",
          "type": "address"
        }
      ],
      "name": "sweep",
      "outputs": [],
      "stateMutability": "nonpayable",
      "type": "function"
    },
    {
      "inputs": [],
      "name": "treasury",
      "outputs": [
        {
          "internalType": "address",
          "name": "",
          "type": "address"
        }
      ],
      "stateMutability": "view",
      "type": "function"
    },
    {
      "inputs": [
        {
          "internalType": "uint16",
          "name": "",
          "type": "uint16"
        }
      ],
      "name": "trustedRemoteLookup",
      "outputs": [
        {
          "internalType": "bytes",
          "name": "",
          "type": "bytes"
        }
      ],
      "stateMutability": "view",
      "type": "function"
    },
    {
      "inputs": [
        {
          "internalType": "uint256",
          "name": "amount",
          "type": "uint256"
        },
        {
          "internalType": "address",
          "name": "recipient",
          "type": "address"
        }
      ],
      "name": "withdraw",
      "outputs": [
        {
          "internalType": "uint256",
          "name": "",
          "type": "uint256"
        }
      ],
      "stateMutability": "nonpayable",
      "type": "function"
    },
    {
      "inputs": [
        {
          "internalType": "uint256",
          "name": "amount",
          "type": "uint256"
        },
        {
          "internalType": "address",
          "name": "recipient",
          "type": "address"
        }
      ],
      "name": "withdrawFor",
      "outputs": [
        {
          "internalType": "uint256",
          "name": "",
          "type": "uint256"
        }
      ],
      "stateMutability": "nonpayable",
      "type": "function"
    }
  ],
  "transactionHash": "0x51cc25ed310e884c3abd1a5436acf2ecbad080d329e739a7b1004d5e0b95055d",
  "args": [],
  "solcInputHash": "7aaeb26b1865b76f877ed1f4b4e8b6db",
  "bytecode": "0x60806040523480156200001157600080fd5b50600054610100900460ff166200002f5760005460ff161562000039565b62000039620000de565b620000a15760405162461bcd60e51b815260206004820152602e60248201527f496e697469616c697a61626c653a20636f6e747261637420697320616c72656160448201526d191e481a5b9a5d1a585b1a5e995960921b606482015260840160405180910390fd5b600054610100900460ff16158015620000c4576000805461ffff19166101011790555b8015620000d7576000805461ff00191690555b5062000102565b6000620000f630620000fc60201b620018a81760201c565b15905090565b3b151590565b6131b680620001126000396000f3fe6080604052600436106101b55760003560e01c806361d027b3116100ec578063cbf9b84b1161008a578063eb8d72b711610064578063eb8d72b714610555578063eed33cef14610575578063f187892214610588578063f5ecbdbc146105a857600080fd5b8063cbf9b84b146104f5578063ceb76b5514610515578063d1deba1f1461054257600080fd5b80637533d788116100c65780637533d7881461046f57806385edd8ae1461048f578063b353aaa7146104a2578063cbed8b9c146104d557600080fd5b806361d027b3146103d057806366ad5c8a1461042257806370a082311461044257600080fd5b80632a205e3d1161015957806342d65a8d1161013357806342d65a8d14610329578063463fd1af146103495780635b8c41e6146103695780635c975abb146103b857600080fd5b80632a205e3d146102b45780633576f6cc146102e95780633d8b38f61461030957600080fd5b806306fdde031161019557806306fdde031461023f57806307e0db171461026157806310ddb1371461028157806310f95825146102a157600080fd5b80621d3567146101ba578062f714ce146101dc57806301ffc9a71461020f575b600080fd5b3480156101c657600080fd5b506101da6101d536600461273d565b6105c8565b005b3480156101e857600080fd5b506101fc6101f73660046127f3565b610726565b6040519081526020015b60405180910390f35b34801561021b57600080fd5b5061022f61022a366004612823565b61073a565b6040519015158152602001610206565b34801561024b57600080fd5b50610254610796565b60405161020691906128db565b34801561026d57600080fd5b506101da61027c3660046128ee565b610824565b34801561028d57600080fd5b506101da61029c3660046128ee565b610975565b6101da6102af366004612909565b610a9c565b3480156102c057600080fd5b506102d46102cf3660046129bd565b610abf565b60408051928352602083019190915201610206565b3480156102f557600080fd5b506101fc6103043660046127f3565b610bb7565b34801561031557600080fd5b5061022f610324366004612a99565b610bc4565b34801561033557600080fd5b506101da610344366004612a99565b610c90565b34801561035557600080fd5b506101da610364366004612aec565b610dee565b34801561037557600080fd5b506101fc610384366004612b64565b6001602090815260009384526040808520845180860184018051928152908401958401959095209452929052825290205481565b3480156103c457600080fd5b5060c85460ff1661022f565b3480156103dc57600080fd5b506003546103fd9073ffffffffffffffffffffffffffffffffffffffff1681565b60405173ffffffffffffffffffffffffffffffffffffffff9091168152602001610206565b34801561042e57600080fd5b506101da61043d36600461273d565b610fe4565b34801561044e57600080fd5b506101fc61045d366004612bbb565b60fc6020526000908152604090205481565b34801561047b57600080fd5b5061025461048a3660046128ee565b611029565b6101da61049d366004612be9565b611042565b3480156104ae57600080fd5b506000546103fd9062010000900473ffffffffffffffffffffffffffffffffffffffff1681565b3480156104e157600080fd5b506101da6104f0366004612cb8565b61110a565b34801561050157600080fd5b506101da6105103660046127f3565b61126e565b34801561052157600080fd5b5060fb546103fd9073ffffffffffffffffffffffffffffffffffffffff1681565b6101da61055036600461273d565b611391565b34801561056157600080fd5b506101da610570366004612a99565b611477565b6101da610583366004612909565b61159e565b34801561059457600080fd5b506101da6105a3366004612d27565b6116eb565b3480156105b457600080fd5b506102546105c3366004612d44565b6117cb565b60005462010000900473ffffffffffffffffffffffffffffffffffffffff16331461061f576040517ff1cbb56700000000000000000000000000000000000000000000000000000000815260040160405180910390fd5b61ffff84166000908152600260205260408120805461063d90612d91565b80601f016020809104026020016040519081016040528092919081815260200182805461066990612d91565b80156106b65780601f1061068b576101008083540402835291602001916106b6565b820191906000526020600020905b81548152906001019060200180831161069957829003601f168201915b50505050509050805184511415806106dc57508080519060200120848051906020012014155b15610713576040517f8154374b00000000000000000000000000000000000000000000000000000000815260040160405180910390fd5b61071f858585856118ae565b5050505050565b60006107338333846119b9565b9392505050565b60007fffffffff0000000000000000000000000000000000000000000000000000000082167f5110f697000000000000000000000000000000000000000000000000000000001480610790575061079082611b1a565b92915050565b60fa80546107a390612d91565b80601f01602080910402602001604051908101604052809291908181526020018280546107cf90612d91565b801561081c5780601f106107f15761010080835404028352916020019161081c565b820191906000526020600020905b8154815290600101906020018083116107ff57829003601f168201915b505050505081565b6003546040517f521d4de900000000000000000000000000000000000000000000000000000000815233600482015273ffffffffffffffffffffffffffffffffffffffff9091169063521d4de990602401602060405180830381865afa158015610892573d6000803e3d6000fd5b505050506040513d601f19601f820116820180604052508101906108b69190612de5565b6108ec576040517f99e120bc00000000000000000000000000000000000000000000000000000000815260040160405180910390fd5b6000546040517f07e0db1700000000000000000000000000000000000000000000000000000000815261ffff831660048201526201000090910473ffffffffffffffffffffffffffffffffffffffff16906307e0db17906024015b600060405180830381600087803b15801561096157600080fd5b505af115801561071f573d6000803e3d6000fd5b6003546040517f521d4de900000000000000000000000000000000000000000000000000000000815233600482015273ffffffffffffffffffffffffffffffffffffffff9091169063521d4de990602401602060405180830381865afa1580156109e3573d6000803e3d6000fd5b505050506040513d601f19601f82011682018060405250810190610a079190612de5565b610a3d576040517f99e120bc00000000000000000000000000000000000000000000000000000000815260040160405180910390fd5b6000546040517f10ddb13700000000000000000000000000000000000000000000000000000000815261ffff831660048201526201000090910473ffffffffffffffffffffffffffffffffffffffff16906310ddb13790602401610947565b610aa7868686611bb1565b9350610ab7868686868686611c52565b505050505050565b60008060008686604051602001610ad7929190612e02565b604080518083037fffffffffffffffffffffffffffffffffffffffffffffffffffffffffffffffe0018152908290526000547f40a7bb1000000000000000000000000000000000000000000000000000000000835290925062010000900473ffffffffffffffffffffffffffffffffffffffff16906340a7bb1090610b68908b90309086908b908b90600401612e24565b6040805180830381865afa158015610b84573d6000803e3d6000fd5b505050506040513d601f19601f82011682018060405250810190610ba89190612e83565b92509250509550959350505050565b60006107338383846119b9565b61ffff831660009081526002602052604081208054829190610be590612d91565b80601f0160208091040260200160405190810160405280929190818152602001828054610c1190612d91565b8015610c5e5780601f10610c3357610100808354040283529160200191610c5e565b820191906000526020600020905b815481529060010190602001808311610c4157829003601f168201915b505050505090508383604051610c75929190612ea7565b60405180910390208180519060200120149150509392505050565b6003546040517f521d4de900000000000000000000000000000000000000000000000000000000815233600482015273ffffffffffffffffffffffffffffffffffffffff9091169063521d4de990602401602060405180830381865afa158015610cfe573d6000803e3d6000fd5b505050506040513d601f19601f82011682018060405250810190610d229190612de5565b610d58576040517f99e120bc00000000000000000000000000000000000000000000000000000000815260040160405180910390fd5b6000546040517f42d65a8d0000000000000000000000000000000000000000000000000000000081526201000090910473ffffffffffffffffffffffffffffffffffffffff16906342d65a8d90610db790869086908690600401612f00565b600060405180830381600087803b158015610dd157600080fd5b505af1158015610de5573d6000803e3d6000fd5b50505050505050565b600054610100900460ff16610e095760005460ff1615610e0d565b303b155b610e9e576040517f08c379a000000000000000000000000000000000000000000000000000000000815260206004820152602e60248201527f496e697469616c697a61626c653a20636f6e747261637420697320616c72656160448201527f647920696e697469616c697a656400000000000000000000000000000000000060648201526084015b60405180910390fd5b600054610100900460ff16158015610edd57600080547fffffffffffffffffffffffffffffffffffffffffffffffffffffffffffff0000166101011790555b610ee78383611c67565b8351610efa9060fa9060208701906124c3565b508173ffffffffffffffffffffffffffffffffffffffff1663e9cbd8226040518163ffffffff1660e01b8152600401602060405180830381865afa158015610f46573d6000803e3d6000fd5b505050506040513d601f19601f82011682018060405250810190610f6a9190612f1e565b60fb80547fffffffffffffffffffffffff00000000000000000000000000000000000000001673ffffffffffffffffffffffffffffffffffffffff929092169190911790558015610fde57600080547fffffffffffffffffffffffffffffffffffffffffffffffffffffffffffff00ff1690555b50505050565b33301461101d576040517f48f5c3ed00000000000000000000000000000000000000000000000000000000815260040160405180910390fd5b610fde84848484611d4a565b600260205260009081526040902080546107a390612d91565b60fb546040517fd505accf000000000000000000000000000000000000000000000000000000008152336004820152306024820152604481018a90526064810186905260ff8516608482015260a4810184905260c4810183905273ffffffffffffffffffffffffffffffffffffffff9091169063d505accf9060e401600060405180830381600087803b1580156110d857600080fd5b505af11580156110ec573d6000803e3d6000fd5b505050506110fe8a8a8a8a8a8a61159e565b50505050505050505050565b6003546040517f521d4de900000000000000000000000000000000000000000000000000000000815233600482015273ffffffffffffffffffffffffffffffffffffffff9091169063521d4de990602401602060405180830381865afa158015611178573d6000803e3d6000fd5b505050506040513d601f19601f8201168201806040525081019061119c9190612de5565b6111d2576040517f99e120bc00000000000000000000000000000000000000000000000000000000815260040160405180910390fd5b6000546040517fcbed8b9c0000000000000000000000000000000000000000000000000000000081526201000090910473ffffffffffffffffffffffffffffffffffffffff169063cbed8b9c906112359088908890889088908890600401612f3b565b600060405180830381600087803b15801561124f57600080fd5b505af1158015611263573d6000803e3d6000fd5b505050505050505050565b6003546040517f521d4de900000000000000000000000000000000000000000000000000000000815233600482015273ffffffffffffffffffffffffffffffffffffffff9091169063521d4de990602401602060405180830381865afa1580156112dc573d6000803e3d6000fd5b505050506040513d601f19601f820116820180604052508101906113009190612de5565b611336576040517f99e120bc00000000000000000000000000000000000000000000000000000000815260040160405180910390fd5b73ffffffffffffffffffffffffffffffffffffffff8116600090815260fc6020526040902054611367908390612f74565b73ffffffffffffffffffffffffffffffffffffffff909116600090815260fc602052604090205550565b61ffff841660009081526001602052604080822090516113b2908690612fb2565b908152604080516020928190038301902067ffffffffffffffff86166000908152925290205490508015806113ed5750815160208301208114155b15611424576040517f7c6953f900000000000000000000000000000000000000000000000000000000815260040160405180910390fd5b61ffff85166000908152600160205260408082209051611445908790612fb2565b908152604080516020928190038301902067ffffffffffffffff87166000908152925290205561071f85858585611d4a565b6003546040517f521d4de900000000000000000000000000000000000000000000000000000000815233600482015273ffffffffffffffffffffffffffffffffffffffff9091169063521d4de990602401602060405180830381865afa1580156114e5573d6000803e3d6000fd5b505050506040513d601f19601f820116820180604052508101906115099190612de5565b61153f576040517f99e120bc00000000000000000000000000000000000000000000000000000000815260040160405180910390fd5b61ffff8316600090815260026020526040902061155d908383612547565b507ffa41487ad5d6728f0b19276fa1eddc16558578f5109fc39d2dc33c3230470dab83838360405161159193929190612f00565b60405180910390a1505050565b6115a9868686611df5565b9350600085856040516020016115c0929190612e02565b60405160208183030381529060405290506115de8782868686611f14565b600080546040517f7a14574800000000000000000000000000000000000000000000000000000000815261ffff8a1660048201523060248201526201000090910473ffffffffffffffffffffffffffffffffffffffff1690637a14574890604401602060405180830381865afa15801561165c573d6000803e3d6000fd5b505050506040513d601f19601f820116820180604052508101906116809190612fce565b9050866040516116909190612fb2565b6040805191829003822088835267ffffffffffffffff841660208401529161ffff8b169133917f024797cc77ce15dc717112d54fb1df125fdfd8c81344fb046c5e074427ce1543910160405180910390a45050505050505050565b6003546040517f521d4de900000000000000000000000000000000000000000000000000000000815233600482015273ffffffffffffffffffffffffffffffffffffffff9091169063521d4de990602401602060405180830381865afa158015611759573d6000803e3d6000fd5b505050506040513d601f19601f8201168201806040525081019061177d9190612de5565b6117b3576040517f99e120bc00000000000000000000000000000000000000000000000000000000815260040160405180910390fd5b806117c3576117c061208f565b50565b6117c0612170565b6000546040517ff5ecbdbc00000000000000000000000000000000000000000000000000000000815261ffff8087166004830152851660248201523060448201526064810183905260609162010000900473ffffffffffffffffffffffffffffffffffffffff169063f5ecbdbc90608401600060405180830381865afa158015611859573d6000803e3d6000fd5b505050506040513d6000823e601f3d9081017fffffffffffffffffffffffffffffffffffffffffffffffffffffffffffffffe016820160405261189f9190810190613038565b95945050505050565b3b151590565b6040517f66ad5c8a00000000000000000000000000000000000000000000000000000000815230906366ad5c8a906118f090879087908790879060040161306d565b600060405180830381600087803b15801561190a57600080fd5b505af192505050801561191b575060015b610fde578080519060200120600160008661ffff1661ffff168152602001908152602001600020846040516119509190612fb2565b90815260408051918290036020908101832067ffffffffffffffff87166000908152915220919091557fe6f254030bcb01ffd20558175c13fcaed6d1520be7becee4c961b65f79243b0d906119ac90869086908690869061306d565b60405180910390a1610fde565b60006119c760c85460ff1690565b15611a2e576040517f08c379a000000000000000000000000000000000000000000000000000000000815260206004820152601060248201527f5061757361626c653a20706175736564000000000000000000000000000000006044820152606401610e95565b73ffffffffffffffffffffffffffffffffffffffff8316600090815260fc6020526040902054611a5f908590612f74565b73ffffffffffffffffffffffffffffffffffffffff848116600090815260fc6020526040908190209290925560fb5491517fa9059cbb00000000000000000000000000000000000000000000000000000000815284821660048201526024810187905291169063a9059cbb906044016020604051808303816000875af1158015611aed573d6000803e3d6000fd5b505050506040513d601f19601f82011682018060405250810190611b119190612de5565b50929392505050565b60007fffffffff0000000000000000000000000000000000000000000000000000000082167f5110f69700000000000000000000000000000000000000000000000000000000148061079057507f01ffc9a7000000000000000000000000000000000000000000000000000000007fffffffff00000000000000000000000000000000000000000000000000000000831614610790565b6000611bbf60c85460ff1690565b15611c26576040517f08c379a000000000000000000000000000000000000000000000000000000000815260206004820152601060248201527f5061757361626c653a20706175736564000000000000000000000000000000006044820152606401610e95565b33600090815260fc602052604081208054849290611c45908490612f74565b9091555091949350505050565b600085856040516020016115c0929190612e02565b73ffffffffffffffffffffffffffffffffffffffff82161580611c9e575073ffffffffffffffffffffffffffffffffffffffff8116155b15611cd5576040517fd92e233d00000000000000000000000000000000000000000000000000000000815260040160405180910390fd5b600080547fffffffffffffffffffff0000000000000000000000000000000000000000ffff166201000073ffffffffffffffffffffffffffffffffffffffff94851602179055600380547fffffffffffffffffffffffff00000000000000000000000000000000000000001691909216179055565b60008082806020019051810190611d6191906130ac565b60148201519193509150611d76878284612230565b91508073ffffffffffffffffffffffffffffffffffffffff1686604051611d9d9190612fb2565b6040805191829003822085835267ffffffffffffffff891660208401529161ffff8b16917f64e10c37f404d128982dce114f5d233c14c5c7f6d8db93099e3d99dacb9e27ba910160405180910390a450505050505050565b6000611e0360c85460ff1690565b15611e6a576040517f08c379a000000000000000000000000000000000000000000000000000000000815260206004820152601060248201527f5061757361626c653a20706175736564000000000000000000000000000000006044820152606401610e95565b60fb546040517f23b872dd0000000000000000000000000000000000000000000000000000000081523360048201523060248201526044810184905273ffffffffffffffffffffffffffffffffffffffff909116906323b872dd906064016020604051808303816000875af1158015611ee7573d6000803e3d6000fd5b505050506040513d601f19601f82011682018060405250810190611f0b9190612de5565b50909392505050565b61ffff851660009081526002602052604081208054611f3290612d91565b80601f0160208091040260200160405190810160405280929190818152602001828054611f5e90612d91565b8015611fab5780601f10611f8057610100808354040283529160200191611fab565b820191906000526020600020905b815481529060010190602001808311611f8e57829003601f168201915b50505050509050805160001415611fee576040517f8154374b00000000000000000000000000000000000000000000000000000000815260040160405180910390fd5b6000546040517fc58031000000000000000000000000000000000000000000000000000000000081526201000090910473ffffffffffffffffffffffffffffffffffffffff169063c5803100903490612055908a9086908b908b908b908b906004016130f3565b6000604051808303818588803b15801561206e57600080fd5b505af1158015612082573d6000803e3d6000fd5b5050505050505050505050565b60c85460ff166120fb576040517f08c379a000000000000000000000000000000000000000000000000000000000815260206004820152601460248201527f5061757361626c653a206e6f74207061757365640000000000000000000000006044820152606401610e95565b60c880547fffffffffffffffffffffffffffffffffffffffffffffffffffffffffffffff001690557f5db9ee0a495bf2e6ff9c91a7834c1ba4fdd244a5e8aa4e537bd38aeae4b073aa335b60405173ffffffffffffffffffffffffffffffffffffffff909116815260200160405180910390a1565b60c85460ff16156121dd576040517f08c379a000000000000000000000000000000000000000000000000000000000815260206004820152601060248201527f5061757361626c653a20706175736564000000000000000000000000000000006044820152606401610e95565b60c880547fffffffffffffffffffffffffffffffffffffffffffffffffffffffffffffff001660011790557f62e78cea01bee320cd4e420270b5ea74000d11b0c9f74754ebdbfc544b05a2586121463390565b600061223e60c85460ff1690565b156122a5576040517f08c379a000000000000000000000000000000000000000000000000000000000815260206004820152601060248201527f5061757361626c653a20706175736564000000000000000000000000000000006044820152606401610e95565b60fb546040517f70a0823100000000000000000000000000000000000000000000000000000000815230600482015260009173ffffffffffffffffffffffffffffffffffffffff16906370a0823190602401602060405180830381865afa158015612314573d6000803e3d6000fd5b505050506040513d601f19601f820116820180604052508101906123389190613167565b90508281101561241c5761234c8184612f74565b73ffffffffffffffffffffffffffffffffffffffff8516600090815260fc602052604090205580156124175760fb546040517fa9059cbb00000000000000000000000000000000000000000000000000000000815273ffffffffffffffffffffffffffffffffffffffff8681166004830152602482018490529091169063a9059cbb906044016020604051808303816000875af11580156123f1573d6000803e3d6000fd5b505050506040513d601f19601f820116820180604052508101906124159190612de5565b505b611f0b565b60fb546040517fa9059cbb00000000000000000000000000000000000000000000000000000000815273ffffffffffffffffffffffffffffffffffffffff8681166004830152602482018690529091169063a9059cbb906044016020604051808303816000875af1158015612495573d6000803e3d6000fd5b505050506040513d601f19601f820116820180604052508101906124b99190612de5565b5050909392505050565b8280546124cf90612d91565b90600052602060002090601f0160209004810192826124f15760008555612537565b82601f1061250a57805160ff1916838001178555612537565b82800160010185558215612537579182015b8281111561253757825182559160200191906001019061251c565b506125439291506125d9565b5090565b82805461255390612d91565b90600052602060002090601f0160209004810192826125755760008555612537565b82601f106125ac578280017fffffffffffffffffffffffffffffffffffffffffffffffffffffffffffffff00823516178555612537565b82800160010185558215612537579182015b828111156125375782358255916020019190600101906125be565b5b8082111561254357600081556001016125da565b803561ffff8116811461260057600080fd5b919050565b7f4e487b7100000000000000000000000000000000000000000000000000000000600052604160045260246000fd5b604051601f82017fffffffffffffffffffffffffffffffffffffffffffffffffffffffffffffffe016810167ffffffffffffffff8111828210171561267b5761267b612605565b604052919050565b600067ffffffffffffffff82111561269d5761269d612605565b50601f017fffffffffffffffffffffffffffffffffffffffffffffffffffffffffffffffe01660200190565b60006126dc6126d784612683565b612634565b90508281528383830111156126f057600080fd5b828260208301376000602084830101529392505050565b600082601f83011261271857600080fd5b610733838335602085016126c9565b67ffffffffffffffff811681146117c057600080fd5b6000806000806080858703121561275357600080fd5b61275c856125ee565b9350602085013567ffffffffffffffff8082111561277957600080fd5b61278588838901612707565b94506040870135915061279782612727565b909250606086013590808211156127ad57600080fd5b506127ba87828801612707565b91505092959194509250565b73ffffffffffffffffffffffffffffffffffffffff811681146117c057600080fd5b8035612600816127c6565b6000806040838503121561280657600080fd5b823591506020830135612818816127c6565b809150509250929050565b60006020828403121561283557600080fd5b81357fffffffff000000000000000000000000000000000000000000000000000000008116811461073357600080fd5b60005b83811015612880578181015183820152602001612868565b83811115610fde5750506000910152565b600081518084526128a9816020860160208601612865565b601f017fffffffffffffffffffffffffffffffffffffffffffffffffffffffffffffffe0169290920160200192915050565b6020815260006107336020830184612891565b60006020828403121561290057600080fd5b610733826125ee565b60008060008060008060c0878903121561292257600080fd5b61292b876125ee565b9550602087013567ffffffffffffffff8082111561294857600080fd5b6129548a838b01612707565b9650604089013595506060890135915061296d826127c6565b90935060808801359061297f826127c6565b90925060a0880135908082111561299557600080fd5b506129a289828a01612707565b9150509295509295509295565b80151581146117c057600080fd5b600080600080600060a086880312156129d557600080fd5b6129de866125ee565b9450602086013567ffffffffffffffff808211156129fb57600080fd5b612a0789838a01612707565b95506040880135945060608801359150612a20826129af565b90925060808701359080821115612a3657600080fd5b50612a4388828901612707565b9150509295509295909350565b60008083601f840112612a6257600080fd5b50813567ffffffffffffffff811115612a7a57600080fd5b602083019150836020828501011115612a9257600080fd5b9250929050565b600080600060408486031215612aae57600080fd5b612ab7846125ee565b9250602084013567ffffffffffffffff811115612ad357600080fd5b612adf86828701612a50565b9497909650939450505050565b600080600060608486031215612b0157600080fd5b833567ffffffffffffffff811115612b1857600080fd5b8401601f81018613612b2957600080fd5b612b38868235602084016126c9565b9350506020840135612b49816127c6565b91506040840135612b59816127c6565b809150509250925092565b600080600060608486031215612b7957600080fd5b612b82846125ee565b9250602084013567ffffffffffffffff811115612b9e57600080fd5b612baa86828701612707565b9250506040840135612b5981612727565b600060208284031215612bcd57600080fd5b8135610733816127c6565b803560ff8116811461260057600080fd5b6000806000806000806000806000806101408b8d031215612c0957600080fd5b612c128b6125ee565b995060208b013567ffffffffffffffff80821115612c2f57600080fd5b612c3b8e838f01612707565b9a5060408d01359950612c5060608e016127e8565b9850612c5e60808e016127e8565b975060a08d0135915080821115612c7457600080fd5b50612c818d828e01612707565b95505060c08b01359350612c9760e08c01612bd8565b92506101008b013591506101208b013590509295989b9194979a5092959850565b600080600080600060808688031215612cd057600080fd5b612cd9866125ee565b9450612ce7602087016125ee565b935060408601359250606086013567ffffffffffffffff811115612d0a57600080fd5b612d1688828901612a50565b969995985093965092949392505050565b600060208284031215612d3957600080fd5b8135610733816129af565b60008060008060808587031215612d5a57600080fd5b612d63856125ee565b9350612d71602086016125ee565b92506040850135612d81816127c6565b9396929550929360600135925050565b600181811c90821680612da557607f821691505b60208210811415612ddf577f4e487b7100000000000000000000000000000000000000000000000000000000600052602260045260246000fd5b50919050565b600060208284031215612df757600080fd5b8151610733816129af565b604081526000612e156040830185612891565b90508260208301529392505050565b61ffff8616815273ffffffffffffffffffffffffffffffffffffffff8516602082015260a060408201526000612e5d60a0830186612891565b84151560608401528281036080840152612e778185612891565b98975050505050505050565b60008060408385031215612e9657600080fd5b505080516020909101519092909150565b8183823760009101908152919050565b8183528181602085013750600060208284010152600060207fffffffffffffffffffffffffffffffffffffffffffffffffffffffffffffffe0601f840116840101905092915050565b61ffff8416815260406020820152600061189f604083018486612eb7565b600060208284031215612f3057600080fd5b8151610733816127c6565b600061ffff808816835280871660208401525084604083015260806060830152612f69608083018486612eb7565b979650505050505050565b600082821015612fad577f4e487b7100000000000000000000000000000000000000000000000000000000600052601160045260246000fd5b500390565b60008251612fc4818460208701612865565b9190910192915050565b600060208284031215612fe057600080fd5b815161073381612727565b600082601f830112612ffc57600080fd5b815161300a6126d782612683565b81815284602083860101111561301f57600080fd5b613030826020830160208701612865565b949350505050565b60006020828403121561304a57600080fd5b815167ffffffffffffffff81111561306157600080fd5b61303084828501612feb565b61ffff8516815260806020820152600061308a6080830186612891565b67ffffffffffffffff851660408401528281036060840152612f698185612891565b600080604083850312156130bf57600080fd5b825167ffffffffffffffff8111156130d657600080fd5b6130e285828601612feb565b925050602083015190509250929050565b61ffff8716815260c06020820152600061311060c0830188612891565b82810360408401526131228188612891565b73ffffffffffffffffffffffffffffffffffffffff87811660608601528616608085015283810360a0850152905061315a8185612891565b9998505050505050505050565b60006020828403121561317957600080fd5b505191905056fea2646970667358221220e56b4719508e2893d826c4c981d747d5c191f32985f18b24d18ec8438303017f64736f6c634300080c0033",
  "devdoc": {
    "author": "Angle Core Team, forked from https://github.com/LayerZero-Labs/solidity-examples/blob/main/contracts/token/oft/OFT.sol",
    "kind": "dev",
    "methods": {
      "constructor": {
        "custom:oz-upgrades-unsafe-allow": "constructor"
      },
      "estimateSendFee(uint16,bytes,uint256,bool,bytes)": {
        "params": {
          "_adapterParams": "flexible bytes array to indicate messaging adapter services in L0",
          "_amount": "amount of the tokens to transfer",
          "_dstChainId": "L0 defined chain id to send tokens too",
          "_toAddress": "dynamic bytes array which contains the address to whom you are sending tokens to on the dstChain",
          "_useZro": "indicates to use zro to pay L0 fees"
        }
      },
      "initialize(string,address,address)": {
        "params": {
          "_lzEndpoint": "Layer zero endpoint to pass messages",
          "_name": "Name of the token corresponding to this contract",
          "_treasury": "Address of the treasury contract used for access control"
        }
      },
      "lzReceive(uint16,bytes,uint64,bytes)": {
        "params": {
          "_nonce": "Nounce of the message",
          "_payload": "Data: recipient address and amount",
          "_srcAddress": "Sender of the source chain",
          "_srcChainId": "ChainId of the source chain - LayerZero standard"
        }
      },
      "nonblockingLzReceive(uint16,bytes,uint64,bytes)": {
        "details": "public for the needs of try / catch but effectively internal",
        "params": {
          "_nonce": "Nounce of the message",
          "_payload": "Data: recipient address and amount",
          "_srcAddress": "Sender of the source chain",
          "_srcChainId": "ChainId of the source chain - LayerZero standard"
        }
      },
      "pauseSendTokens(bool)": {
        "params": {
          "pause": "Future pause status"
        }
      },
      "paused()": {
        "details": "Returns true if the contract is paused, and false otherwise."
      },
      "retryMessage(uint16,bytes,uint64,bytes)": {
        "params": {
          "_nonce": "Nounce of the message",
          "_payload": "Data: recipient address and amount",
          "_srcAddress": "Sender of the source chain",
          "_srcChainId": "ChainId of the source chain - LayerZero standard"
        }
      },
      "send(uint16,bytes,uint256,address,address,bytes)": {
        "params": {
          "_adapterParams": "is a flexible bytes array to indicate messaging adapter services",
          "_amount": "the quantity of tokens in wei",
          "_dstChainId": "the destination chain identifier",
          "_refundAddress": "the address LayerZero refunds if too much message fee is sent",
          "_toAddress": "can be any size depending on the `dstChainId`.",
          "_zroPaymentAddress": "set to address(0x0) if not paying in ZRO (LayerZero Token)"
        }
      },
      "sendCredit(uint16,bytes,uint256,address,address,bytes)": {
        "params": {
          "_adapterParams": "is a flexible bytes array to indicate messaging adapter services",
          "_amount": "the quantity of credit to send in wei",
          "_dstChainId": "the destination chain identifier",
          "_refundAddress": "the address LayerZero refunds if too much message fee is sent",
          "_toAddress": "can be any size depending on the `dstChainId`.",
          "_zroPaymentAddress": "set to address(0x0) if not paying in ZRO (LayerZero Token)"
        }
      },
      "sendWithPermit(uint16,bytes,uint256,address,address,bytes,uint256,uint8,bytes32,bytes32)": {
        "details": "The `v`, `r`, and `s` parameters are used as signature data",
        "params": {
          "_adapterParams": "Flexible bytes array to indicate messaging adapter services",
          "_amount": "Quantity of tokens in wei",
          "_dstChainId": "The destination chain identifier",
          "_refundAddress": "Address LayerZero refunds if too much message fee is sent",
          "_toAddress": "Can be any size depending on the `dstChainId`.",
          "_zroPaymentAddress": "Set to address(0x0) if not paying in ZRO (LayerZero Token)",
          "deadline": "Deadline parameter for the signature to be valid"
        }
      },
      "setTrustedRemote(uint16,bytes)": {
        "details": "Used for both receiving and sending messageThere can only be one trusted source per chainAllows owner to set it multiple times.",
        "params": {
          "_srcAddress": "Address on the source chain",
          "_srcChainId": "ChainId of the source chain - LayerZero standard"
        }
      },
      "supportsInterface(bytes4)": {
        "details": "See {IERC165-supportsInterface}."
      },
      "sweep(uint256,address)": {
        "params": {
          "amount": "Amount to withdraw from balance",
          "recipient": "Address to withdraw from"
        }
      },
      "withdraw(uint256,address)": {
        "params": {
          "amount": "Amount to withdraw",
          "recipient": "Address to send the canonical token to"
        },
        "returns": {
          "_0": "The amount of canonical token sent"
        }
      },
      "withdrawFor(uint256,address)": {
        "params": {
          "amount": "Amount to withdraw",
          "recipient": "Address to withdraw for"
        },
        "returns": {
          "_0": "The amount of canonical token sent"
        }
      }
    },
    "stateVariables": {
      "canonicalToken": {
        "details": "Immutable"
      }
    },
    "title": "LayerZeroBridge",
    "version": 1
  },
  "userdoc": {
    "kind": "user",
    "methods": {
      "balanceOf(address)": {
        "notice": "Maps an address to the amount of token bridged but not received"
      },
      "canonicalToken()": {
        "notice": "Address of the bridgeable token"
      },
      "estimateSendFee(uint16,bytes,uint256,bool,bytes)": {
        "notice": "Estimates send token `_tokenId` to (`_dstChainId`, `_toAddress`)"
      },
      "failedMessages(uint16,bytes,uint64)": {
        "notice": "Maps chainIds to failed messages to retry them"
      },
      "forceResumeReceive(uint16,bytes)": {
        "notice": "Unpauses the receive functionalities"
      },
      "getConfig(uint16,uint16,address,uint256)": {
        "notice": "Fetches the default LZ config"
      },
      "initialize(string,address,address)": {
        "notice": "Initializes the contract"
      },
      "isTrustedRemote(uint16,bytes)": {
        "notice": "Checks if the `_srcAddress` corresponds to the trusted source"
      },
      "lzEndpoint()": {
        "notice": "Layer Zero endpoint"
      },
      "lzReceive(uint16,bytes,uint64,bytes)": {
        "notice": "Receives a message from the LZ endpoint and process it"
      },
      "name()": {
        "notice": "Name of the contract for indexing purposes"
      },
      "nonblockingLzReceive(uint16,bytes,uint64,bytes)": {
        "notice": "Handles message receptions in a non blocking way"
      },
      "pauseSendTokens(bool)": {
        "notice": "Pauses bridging through the contract"
      },
      "retryMessage(uint16,bytes,uint64,bytes)": {
        "notice": "Retries a message that previously failed and was stored"
      },
      "send(uint16,bytes,uint256,address,address,bytes)": {
        "notice": "Sends `_amount` amount of token to (`_dstChainId`, `_toAddress`)"
      },
      "sendCredit(uint16,bytes,uint256,address,address,bytes)": {
        "notice": "Sends `_amount` amount of credit to (`_dstChainId`, `_toAddress`)"
      },
      "sendWithPermit(uint16,bytes,uint256,address,address,bytes,uint256,uint8,bytes32,bytes32)": {
        "notice": "Sends `_amount` amount of token to (`_dstChainId`, `_toAddress`)"
      },
      "setConfig(uint16,uint16,uint256,bytes)": {
        "notice": "Overrides the default LZ config"
      },
      "setReceiveVersion(uint16)": {
        "notice": "Overrides the default LZ config"
      },
      "setSendVersion(uint16)": {
        "notice": "Overrides the default LZ config"
      },
      "setTrustedRemote(uint16,bytes)": {
        "notice": "Sets the corresponding address on an other chain."
      },
      "sweep(uint256,address)": {
        "notice": "Decreases the balance of an address"
      },
      "treasury()": {
        "notice": "Reference to the treasury contract to fetch access control"
      },
      "trustedRemoteLookup(uint16)": {
        "notice": "Maps chainIds to their OFT address"
      },
      "withdraw(uint256,address)": {
        "notice": "Withdraws amount of canonical token from the `msg.sender` balance and sends it to the recipient"
      },
      "withdrawFor(uint256,address)": {
        "notice": "Withdraws amount of `token` from the contract and sends it to the recipient"
      }
    },
    "notice": "Contract to be deployed on Ethereum for bridging an AgToken using a bridge intermediate token and LayerZero",
    "version": 1
  },
  "storageLayout": {
    "storage": [
      {
        "astId": 772,
        "contract": "contracts/agToken/layerZero/LayerZeroBridge.sol:LayerZeroBridge",
        "label": "_initialized",
        "offset": 0,
        "slot": "0",
        "type": "t_bool"
      },
      {
        "astId": 775,
        "contract": "contracts/agToken/layerZero/LayerZeroBridge.sol:LayerZeroBridge",
        "label": "_initializing",
        "offset": 1,
        "slot": "0",
        "type": "t_bool"
      },
      {
        "astId": 10070,
        "contract": "contracts/agToken/layerZero/LayerZeroBridge.sol:LayerZeroBridge",
        "label": "lzEndpoint",
        "offset": 2,
        "slot": "0",
        "type": "t_contract(ILayerZeroEndpoint)15436"
      },
      {
        "astId": 10079,
        "contract": "contracts/agToken/layerZero/LayerZeroBridge.sol:LayerZeroBridge",
        "label": "failedMessages",
        "offset": 0,
        "slot": "1",
        "type": "t_mapping(t_uint16,t_mapping(t_bytes_memory_ptr,t_mapping(t_uint64,t_bytes32)))"
      },
      {
        "astId": 10084,
        "contract": "contracts/agToken/layerZero/LayerZeroBridge.sol:LayerZeroBridge",
        "label": "trustedRemoteLookup",
        "offset": 0,
        "slot": "2",
        "type": "t_mapping(t_uint16,t_bytes_storage)"
      },
      {
        "astId": 10087,
        "contract": "contracts/agToken/layerZero/LayerZeroBridge.sol:LayerZeroBridge",
        "label": "treasury",
        "offset": 0,
        "slot": "3",
        "type": "t_address"
      },
      {
        "astId": 10566,
        "contract": "contracts/agToken/layerZero/LayerZeroBridge.sol:LayerZeroBridge",
        "label": "__gap",
        "offset": 0,
        "slot": "4",
        "type": "t_array(t_uint256)46_storage"
      },
      {
        "astId": 3454,
        "contract": "contracts/agToken/layerZero/LayerZeroBridge.sol:LayerZeroBridge",
        "label": "__gap",
        "offset": 0,
        "slot": "50",
        "type": "t_array(t_uint256)50_storage"
      },
      {
        "astId": 10913,
        "contract": "contracts/agToken/layerZero/LayerZeroBridge.sol:LayerZeroBridge",
        "label": "__gap",
        "offset": 0,
        "slot": "100",
        "type": "t_array(t_uint256)50_storage"
      },
      {
        "astId": 2592,
        "contract": "contracts/agToken/layerZero/LayerZeroBridge.sol:LayerZeroBridge",
        "label": "__gap",
        "offset": 0,
        "slot": "150",
        "type": "t_array(t_uint256)50_storage"
      },
      {
        "astId": 860,
        "contract": "contracts/agToken/layerZero/LayerZeroBridge.sol:LayerZeroBridge",
        "label": "_paused",
        "offset": 0,
        "slot": "200",
        "type": "t_bool"
      },
      {
        "astId": 951,
        "contract": "contracts/agToken/layerZero/LayerZeroBridge.sol:LayerZeroBridge",
        "label": "__gap",
        "offset": 0,
        "slot": "201",
        "type": "t_array(t_uint256)49_storage"
      },
      {
        "astId": 9133,
        "contract": "contracts/agToken/layerZero/LayerZeroBridge.sol:LayerZeroBridge",
        "label": "name",
        "offset": 0,
        "slot": "250",
        "type": "t_string_storage"
      },
      {
        "astId": 9137,
        "contract": "contracts/agToken/layerZero/LayerZeroBridge.sol:LayerZeroBridge",
        "label": "canonicalToken",
        "offset": 0,
        "slot": "251",
        "type": "t_contract(IERC20)5408"
      },
      {
        "astId": 9142,
        "contract": "contracts/agToken/layerZero/LayerZeroBridge.sol:LayerZeroBridge",
        "label": "balanceOf",
        "offset": 0,
        "slot": "252",
        "type": "t_mapping(t_address,t_uint256)"
      },
      {
        "astId": 9487,
        "contract": "contracts/agToken/layerZero/LayerZeroBridge.sol:LayerZeroBridge",
        "label": "__gap",
        "offset": 0,
        "slot": "253",
        "type": "t_array(t_uint256)47_storage"
      }
    ],
    "types": {
      "t_address": {
        "encoding": "inplace",
        "label": "address",
        "numberOfBytes": "20"
      },
      "t_array(t_uint256)46_storage": {
        "base": "t_uint256",
        "encoding": "inplace",
        "label": "uint256[46]",
        "numberOfBytes": "1472"
      },
      "t_array(t_uint256)47_storage": {
        "base": "t_uint256",
        "encoding": "inplace",
        "label": "uint256[47]",
        "numberOfBytes": "1504"
      },
      "t_array(t_uint256)49_storage": {
        "base": "t_uint256",
        "encoding": "inplace",
        "label": "uint256[49]",
        "numberOfBytes": "1568"
      },
      "t_array(t_uint256)50_storage": {
        "base": "t_uint256",
        "encoding": "inplace",
        "label": "uint256[50]",
        "numberOfBytes": "1600"
      },
      "t_bool": {
        "encoding": "inplace",
        "label": "bool",
        "numberOfBytes": "1"
      },
      "t_bytes32": {
        "encoding": "inplace",
        "label": "bytes32",
        "numberOfBytes": "32"
      },
      "t_bytes_memory_ptr": {
        "encoding": "bytes",
        "label": "bytes",
        "numberOfBytes": "32"
      },
      "t_bytes_storage": {
        "encoding": "bytes",
        "label": "bytes",
        "numberOfBytes": "32"
      },
      "t_contract(IERC20)5408": {
        "encoding": "inplace",
        "label": "contract IERC20",
        "numberOfBytes": "20"
      },
      "t_contract(ILayerZeroEndpoint)15436": {
        "encoding": "inplace",
        "label": "contract ILayerZeroEndpoint",
        "numberOfBytes": "20"
      },
      "t_mapping(t_address,t_uint256)": {
        "encoding": "mapping",
        "key": "t_address",
        "label": "mapping(address => uint256)",
        "numberOfBytes": "32",
        "value": "t_uint256"
      },
      "t_mapping(t_bytes_memory_ptr,t_mapping(t_uint64,t_bytes32))": {
        "encoding": "mapping",
        "key": "t_bytes_memory_ptr",
        "label": "mapping(bytes => mapping(uint64 => bytes32))",
        "numberOfBytes": "32",
        "value": "t_mapping(t_uint64,t_bytes32)"
      },
      "t_mapping(t_uint16,t_bytes_storage)": {
        "encoding": "mapping",
        "key": "t_uint16",
        "label": "mapping(uint16 => bytes)",
        "numberOfBytes": "32",
        "value": "t_bytes_storage"
      },
      "t_mapping(t_uint16,t_mapping(t_bytes_memory_ptr,t_mapping(t_uint64,t_bytes32)))": {
        "encoding": "mapping",
        "key": "t_uint16",
        "label": "mapping(uint16 => mapping(bytes => mapping(uint64 => bytes32)))",
        "numberOfBytes": "32",
        "value": "t_mapping(t_bytes_memory_ptr,t_mapping(t_uint64,t_bytes32))"
      },
      "t_mapping(t_uint64,t_bytes32)": {
        "encoding": "mapping",
        "key": "t_uint64",
        "label": "mapping(uint64 => bytes32)",
        "numberOfBytes": "32",
        "value": "t_bytes32"
      },
      "t_string_storage": {
        "encoding": "bytes",
        "label": "string",
        "numberOfBytes": "32"
      },
      "t_uint16": {
        "encoding": "inplace",
        "label": "uint16",
        "numberOfBytes": "2"
      },
      "t_uint256": {
        "encoding": "inplace",
        "label": "uint256",
        "numberOfBytes": "32"
      },
      "t_uint64": {
        "encoding": "inplace",
        "label": "uint64",
        "numberOfBytes": "8"
      }
    }
  }
}