{
  "address": "0x20D43427fa6210FfB0305c00555e38cE0660af4B",
  "abi": [
    {
      "inputs": [],
      "stateMutability": "nonpayable",
      "type": "constructor"
    },
    {
      "inputs": [],
      "name": "InvalidLengths",
      "type": "error"
    },
    {
      "inputs": [],
      "name": "InvalidProof",
      "type": "error"
    },
    {
      "inputs": [],
      "name": "NotGovernorOrGuardian",
      "type": "error"
    },
    {
      "inputs": [],
      "name": "NotTrusted",
      "type": "error"
    },
    {
      "inputs": [],
      "name": "NotWhitelisted",
      "type": "error"
    },
    {
      "inputs": [],
      "name": "ZeroAddress",
      "type": "error"
    },
    {
      "anonymous": false,
      "inputs": [
        {
          "indexed": false,
          "internalType": "address",
          "name": "user",
          "type": "address"
        },
        {
          "indexed": false,
          "internalType": "address",
          "name": "token",
          "type": "address"
        },
        {
          "indexed": false,
          "internalType": "uint256",
          "name": "amount",
          "type": "uint256"
        }
      ],
      "name": "Claimed",
      "type": "event"
    },
    {
      "anonymous": false,
      "inputs": [
        {
          "indexed": false,
          "internalType": "address",
          "name": "user",
          "type": "address"
        },
        {
          "indexed": false,
          "internalType": "address",
          "name": "operator",
          "type": "address"
        },
        {
          "indexed": false,
          "internalType": "bool",
          "name": "isWhitelisted",
          "type": "bool"
        }
      ],
      "name": "OperatorToggled",
      "type": "event"
    },
    {
      "anonymous": false,
      "inputs": [
        {
          "indexed": true,
          "internalType": "address",
          "name": "token",
          "type": "address"
        },
        {
          "indexed": true,
          "internalType": "address",
          "name": "to",
          "type": "address"
        },
        {
          "indexed": false,
          "internalType": "uint256",
          "name": "amount",
          "type": "uint256"
        }
      ],
      "name": "Recovered",
      "type": "event"
    },
    {
      "anonymous": false,
      "inputs": [
        {
          "indexed": false,
          "internalType": "bytes32",
          "name": "merkleRoot",
          "type": "bytes32"
        },
        {
          "indexed": false,
          "internalType": "bytes32",
          "name": "ipfsHash",
          "type": "bytes32"
        }
      ],
      "name": "TreeUpdated",
      "type": "event"
    },
    {
      "anonymous": false,
      "inputs": [
        {
          "indexed": true,
          "internalType": "address",
          "name": "eoa",
          "type": "address"
        },
        {
          "indexed": false,
          "internalType": "bool",
          "name": "trust",
          "type": "bool"
        }
      ],
      "name": "TrustedToggled",
      "type": "event"
    },
    {
      "anonymous": false,
      "inputs": [
        {
          "indexed": false,
          "internalType": "address",
          "name": "user",
          "type": "address"
        },
        {
          "indexed": false,
          "internalType": "bool",
          "name": "isEnabled",
          "type": "bool"
        }
      ],
      "name": "WhitelistToggled",
      "type": "event"
    },
    {
      "inputs": [
        {
          "internalType": "address[]",
          "name": "users",
          "type": "address[]"
        },
        {
          "internalType": "address[]",
          "name": "tokens",
          "type": "address[]"
        },
        {
          "internalType": "uint256[]",
          "name": "amounts",
          "type": "uint256[]"
        },
        {
          "internalType": "bytes32[][]",
          "name": "proofs",
          "type": "bytes32[][]"
        }
      ],
      "name": "claim",
      "outputs": [],
      "stateMutability": "nonpayable",
      "type": "function"
    },
    {
      "inputs": [
        {
          "internalType": "address",
          "name": "",
          "type": "address"
        },
        {
          "internalType": "address",
          "name": "",
          "type": "address"
        }
      ],
      "name": "claimed",
      "outputs": [
        {
          "internalType": "uint256",
          "name": "",
          "type": "uint256"
        }
      ],
      "stateMutability": "view",
      "type": "function"
    },
    {
      "inputs": [
        {
          "internalType": "contract IERC20",
          "name": "token",
          "type": "address"
        },
        {
          "internalType": "uint256",
          "name": "amount",
          "type": "uint256"
        }
      ],
      "name": "deposit_reward_token",
      "outputs": [],
      "stateMutability": "nonpayable",
      "type": "function"
    },
    {
      "inputs": [
        {
          "internalType": "contract ITreasury",
          "name": "_treasury",
          "type": "address"
        }
      ],
      "name": "initialize",
      "outputs": [],
      "stateMutability": "nonpayable",
      "type": "function"
    },
    {
      "inputs": [
        {
          "internalType": "address",
          "name": "",
          "type": "address"
        },
        {
          "internalType": "address",
          "name": "",
          "type": "address"
        }
      ],
      "name": "operators",
      "outputs": [
        {
          "internalType": "uint256",
          "name": "",
          "type": "uint256"
        }
      ],
      "stateMutability": "view",
      "type": "function"
    },
    {
      "inputs": [
        {
          "internalType": "address",
          "name": "tokenAddress",
          "type": "address"
        },
        {
          "internalType": "address",
          "name": "to",
          "type": "address"
        },
        {
          "internalType": "uint256",
          "name": "amountToRecover",
          "type": "uint256"
        }
      ],
      "name": "recoverERC20",
      "outputs": [],
      "stateMutability": "nonpayable",
      "type": "function"
    },
    {
      "inputs": [
        {
          "internalType": "address",
          "name": "user",
          "type": "address"
        },
        {
          "internalType": "address",
          "name": "operator",
          "type": "address"
        }
      ],
      "name": "toggleOperator",
      "outputs": [],
      "stateMutability": "nonpayable",
      "type": "function"
    },
    {
      "inputs": [
        {
          "internalType": "address",
          "name": "eoa",
          "type": "address"
        }
      ],
      "name": "toggleTrusted",
      "outputs": [],
      "stateMutability": "nonpayable",
      "type": "function"
    },
    {
      "inputs": [
        {
          "internalType": "address",
          "name": "user",
          "type": "address"
        }
      ],
      "name": "toggleWhitelist",
      "outputs": [],
      "stateMutability": "nonpayable",
      "type": "function"
    },
    {
      "inputs": [],
      "name": "treasury",
      "outputs": [
        {
          "internalType": "contract ITreasury",
          "name": "",
          "type": "address"
        }
      ],
      "stateMutability": "view",
      "type": "function"
    },
    {
      "inputs": [],
      "name": "tree",
      "outputs": [
        {
          "internalType": "bytes32",
          "name": "merkleRoot",
          "type": "bytes32"
        },
        {
          "internalType": "bytes32",
          "name": "ipfsHash",
          "type": "bytes32"
        }
      ],
      "stateMutability": "view",
      "type": "function"
    },
    {
      "inputs": [
        {
          "internalType": "address",
          "name": "",
          "type": "address"
        }
      ],
      "name": "trusted",
      "outputs": [
        {
          "internalType": "uint256",
          "name": "",
          "type": "uint256"
        }
      ],
      "stateMutability": "view",
      "type": "function"
    },
    {
      "inputs": [
        {
          "components": [
            {
              "internalType": "bytes32",
              "name": "merkleRoot",
              "type": "bytes32"
            },
            {
              "internalType": "bytes32",
              "name": "ipfsHash",
              "type": "bytes32"
            }
          ],
          "internalType": "struct MerkleTree",
          "name": "_tree",
          "type": "tuple"
        }
      ],
      "name": "updateTree",
      "outputs": [],
      "stateMutability": "nonpayable",
      "type": "function"
    },
    {
      "inputs": [
        {
          "internalType": "address",
          "name": "",
          "type": "address"
        }
      ],
      "name": "whitelist",
      "outputs": [
        {
          "internalType": "uint256",
          "name": "",
          "type": "uint256"
        }
      ],
      "stateMutability": "view",
      "type": "function"
    }
  ],
  "transactionHash": "0x6535d358b4e6189899df70645001135b32b2809f1035bfad056c1bf794995654",
  "args": [],
  "numDeployments": 1,
  "solcInputHash": "34956aae82dd1e2cdd3c05a3251fbb3d",
  "bytecode": "0x60806040523480156200001157600080fd5b50600054610100900460ff166200002f5760005460ff161562000039565b62000039620000de565b620000a15760405162461bcd60e51b815260206004820152602e60248201527f496e697469616c697a61626c653a20636f6e747261637420697320616c72656160448201526d191e481a5b9a5d1a585b1a5e995960921b606482015260840160405180910390fd5b600054610100900460ff16158015620000c4576000805461ffff19166101011790555b8015620000d7576000805461ff00191690555b5062000102565b6000620000f630620000fc60201b62000fa31760201c565b15905090565b3b151590565b61184e80620001126000396000f3fe608060405234801561001057600080fd5b50600436106100ea5760003560e01c80637ee843491161008c578063bdac7ca311610066578063bdac7ca31461023e578063c4d66de814610251578063d9c9808714610264578063fd54b2281461027757600080fd5b80637ee84349146101f857806393f7aa671461020b5780639b19251a1461021e57600080fd5b806339393ac9116100c857806339393ac91461016d57806361d027b3146101805780636e9821c2146101c557806371ee95c0146101e557600080fd5b80630c9cbf0e146100ef5780631171bda91461012d5780632637588e14610142575b600080fd5b61011a6100fd366004611440565b600460209081526000928352604080842090915290825290205481565b6040519081526020015b60405180910390f35b61014061013b366004611479565b61029a565b005b61011a610150366004611440565b600760209081526000928352604080842090915290825290205481565b61014061017b3660046114ba565b6103ef565b6003546101a09073ffffffffffffffffffffffffffffffffffffffff1681565b60405173ffffffffffffffffffffffffffffffffffffffff9091168152602001610124565b61011a6101d33660046114ba565b60056020526000908152604090205481565b6101406101f3366004611523565b610594565b6101406102063660046114ba565b610904565b6101406102193660046115e7565b610a65565b61011a61022c3660046114ba565b60066020526000908152604090205481565b61014061024c366004611440565b610b07565b61014061025f3660046114ba565b610cc9565b610140610272366004611613565b610e78565b600154600254610285919082565b60408051928352602083019190915201610124565b6003546040517f521d4de900000000000000000000000000000000000000000000000000000000815233600482015273ffffffffffffffffffffffffffffffffffffffff9091169063521d4de990602401602060405180830381865afa158015610308573d6000803e3d6000fd5b505050506040513d601f19601f8201168201806040525081019061032c919061162b565b610362576040517f99e120bc00000000000000000000000000000000000000000000000000000000815260040160405180910390fd5b61038373ffffffffffffffffffffffffffffffffffffffff84168383610fa9565b8173ffffffffffffffffffffffffffffffffffffffff168373ffffffffffffffffffffffffffffffffffffffff167ffff3b3844276f57024e0b42afec1a37f75db36511e43819a4f2a63ab7862b648836040516103e291815260200190565b60405180910390a3505050565b73ffffffffffffffffffffffffffffffffffffffff811633148015906104a457506003546040517f521d4de900000000000000000000000000000000000000000000000000000000815233600482015273ffffffffffffffffffffffffffffffffffffffff9091169063521d4de990602401602060405180830381865afa15801561047e573d6000803e3d6000fd5b505050506040513d601f19601f820116820180604052508101906104a2919061162b565b155b80156104c0575033600090815260056020526040902054600114155b156104f7576040517fc22a648e00000000000000000000000000000000000000000000000000000000815260040160405180910390fd5b73ffffffffffffffffffffffffffffffffffffffff811660009081526006602052604090205461052890600161167c565b73ffffffffffffffffffffffffffffffffffffffff821660008181526006602090815260409182902084905581519283526001909314928201929092527fdb17f7dcc6b9d3c099107ae3eea3dcc0ce959cda4b7b164cac7f8f9c8413971991015b60405180910390a150565b8615806105a15750868514155b806105ac5750868314155b806105b75750868114155b156105ee576040517f1df89e8b00000000000000000000000000000000000000000000000000000000815260040160405180910390fd5b60005b878110156108f957600089898381811061060d5761060d611693565b905060200201602081019061062291906114ba565b9050600088888481811061063857610638611693565b905060200201602081019061064d91906114ba565b9050600087878581811061066357610663611693565b905060200201359050600660008473ffffffffffffffffffffffffffffffffffffffff1673ffffffffffffffffffffffffffffffffffffffff1681526020019081526020016000205460011480156106e9575073ffffffffffffffffffffffffffffffffffffffff83166000908152600760209081526040808320338452909152902054155b15610720576040517f584a793800000000000000000000000000000000000000000000000000000000815260040160405180910390fd5b6040805173ffffffffffffffffffffffffffffffffffffffff8086166020830152841691810191909152606081018290526000906080016040516020818303038152906040528051906020012090506107ce8188888881811061078557610785611693565b905060200281019061079791906116c2565b8080602002602001604051908101604052809392919081815260200183836020028082843760009201919091525061103692505050565b610804576040517f09bde33900000000000000000000000000000000000000000000000000000000815260040160405180910390fd5b73ffffffffffffffffffffffffffffffffffffffff8085166000908152600460209081526040808320938716835292905290812054610843908461167c565b73ffffffffffffffffffffffffffffffffffffffff8087166000908152600460209081526040808320938916808452939091529020859055909150610889908683610fa9565b6040805173ffffffffffffffffffffffffffffffffffffffff8088168252861660208201529081018290527ff7a40077ff7a04c7e61f6f26fb13774259ddf1b6bce9ecf26a8276cdd39926839060600160405180910390a1505050505080806108f19061172a565b9150506105f1565b505050505050505050565b6003546040517f521d4de900000000000000000000000000000000000000000000000000000000815233600482015273ffffffffffffffffffffffffffffffffffffffff9091169063521d4de990602401602060405180830381865afa158015610972573d6000803e3d6000fd5b505050506040513d601f19601f82011682018060405250810190610996919061162b565b6109cc576040517f99e120bc00000000000000000000000000000000000000000000000000000000815260040160405180910390fd5b73ffffffffffffffffffffffffffffffffffffffff81166000908152600560205260408120546109fd90600161167c565b73ffffffffffffffffffffffffffffffffffffffff8316600081815260056020908152604091829020849055905160018414815292935090917f7628ea5f6112a16b36a8239aa208395a8e8f221688cfb3a5461faffb9700abcd910160405180910390a25050565b6040517f23b872dd0000000000000000000000000000000000000000000000000000000081523360048201523060248201526044810182905273ffffffffffffffffffffffffffffffffffffffff8316906323b872dd906064016020604051808303816000875af1158015610ade573d6000803e3d6000fd5b505050506040513d601f19601f82011682018060405250810190610b02919061162b565b505050565b73ffffffffffffffffffffffffffffffffffffffff82163314801590610bbc57506003546040517f521d4de900000000000000000000000000000000000000000000000000000000815233600482015273ffffffffffffffffffffffffffffffffffffffff9091169063521d4de990602401602060405180830381865afa158015610b96573d6000803e3d6000fd5b505050506040513d601f19601f82011682018060405250810190610bba919061162b565b155b8015610bd8575033600090815260056020526040902054600114155b15610c0f576040517fc22a648e00000000000000000000000000000000000000000000000000000000815260040160405180910390fd5b73ffffffffffffffffffffffffffffffffffffffff808316600090815260076020908152604080832093851683529290522054610c4d90600161167c565b73ffffffffffffffffffffffffffffffffffffffff8381166000818152600760209081526040808320948716808452948252918290208590558151928352820192909252600190921482820152517f42343f44c66ea1eaffa334760d3da2cb731d2a0b3b3e30423df997faa36cc95c9181900360600190a15050565b600054610100900460ff16610ce45760005460ff1615610ce8565b303b155b610d79576040517f08c379a000000000000000000000000000000000000000000000000000000000815260206004820152602e60248201527f496e697469616c697a61626c653a20636f6e747261637420697320616c72656160448201527f647920696e697469616c697a656400000000000000000000000000000000000060648201526084015b60405180910390fd5b600054610100900460ff16158015610db857600080547fffffffffffffffffffffffffffffffffffffffffffffffffffffffffffff0000166101011790555b73ffffffffffffffffffffffffffffffffffffffff8216610e05576040517fd92e233d00000000000000000000000000000000000000000000000000000000815260040160405180910390fd5b600380547fffffffffffffffffffffffff00000000000000000000000000000000000000001673ffffffffffffffffffffffffffffffffffffffff84161790558015610e7457600080547fffffffffffffffffffffffffffffffffffffffffffffffffffffffffffff00ff1690555b5050565b6003546040517f521d4de900000000000000000000000000000000000000000000000000000000815233600482015273ffffffffffffffffffffffffffffffffffffffff9091169063521d4de990602401602060405180830381865afa158015610ee6573d6000803e3d6000fd5b505050506040513d601f19601f82011682018060405250810190610f0a919061162b565b158015610f27575033600090815260056020526040902054600114155b15610f5e576040517fc22a648e00000000000000000000000000000000000000000000000000000000815260040160405180910390fd5b80356001819055602080830135600281905560408051938452918301527f39f3c4d5c2bbcbf0e3945f22aa618f4e654952eaafcdaa119f0ef12dfce4f2f39101610589565b3b151590565b6040805173ffffffffffffffffffffffffffffffffffffffff8416602482015260448082018490528251808303909101815260649091019091526020810180517bffffffffffffffffffffffffffffffffffffffffffffffffffffffff167fa9059cbb00000000000000000000000000000000000000000000000000000000179052610b02908490611123565b600082815b83518110156111175783818151811061105657611056611693565b60200260200101518210156110b7578184828151811061107857611078611693565b602002602001015160405160200161109a929190918252602082015260400190565b604051602081830303815290604052805190602001209150611105565b8381815181106110c9576110c9611693565b6020026020010151826040516020016110ec929190918252602082015260400190565b6040516020818303038152906040528051906020012091505b611110600182611763565b905061103b565b50600154149392505050565b6000611185826040518060400160405280602081526020017f5361666545524332303a206c6f772d6c6576656c2063616c6c206661696c65648152508573ffffffffffffffffffffffffffffffffffffffff1661122f9092919063ffffffff16565b805190915015610b0257808060200190518101906111a3919061162b565b610b02576040517f08c379a000000000000000000000000000000000000000000000000000000000815260206004820152602a60248201527f5361666545524332303a204552433230206f7065726174696f6e20646964206e60448201527f6f742073756363656564000000000000000000000000000000000000000000006064820152608401610d70565b606061123e8484600085611248565b90505b9392505050565b6060824710156112da576040517f08c379a000000000000000000000000000000000000000000000000000000000815260206004820152602660248201527f416464726573733a20696e73756666696369656e742062616c616e636520666f60448201527f722063616c6c00000000000000000000000000000000000000000000000000006064820152608401610d70565b843b611342576040517f08c379a000000000000000000000000000000000000000000000000000000000815260206004820152601d60248201527f416464726573733a2063616c6c20746f206e6f6e2d636f6e74726163740000006044820152606401610d70565b6000808673ffffffffffffffffffffffffffffffffffffffff16858760405161136b91906117ab565b60006040518083038185875af1925050503d80600081146113a8576040519150601f19603f3d011682016040523d82523d6000602084013e6113ad565b606091505b50915091506113bd8282866113c8565b979650505050505050565b606083156113d7575081611241565b8251156113e75782518084602001fd5b816040517f08c379a0000000000000000000000000000000000000000000000000000000008152600401610d7091906117c7565b73ffffffffffffffffffffffffffffffffffffffff8116811461143d57600080fd5b50565b6000806040838503121561145357600080fd5b823561145e8161141b565b9150602083013561146e8161141b565b809150509250929050565b60008060006060848603121561148e57600080fd5b83356114998161141b565b925060208401356114a98161141b565b929592945050506040919091013590565b6000602082840312156114cc57600080fd5b81356112418161141b565b60008083601f8401126114e957600080fd5b50813567ffffffffffffffff81111561150157600080fd5b6020830191508360208260051b850101111561151c57600080fd5b9250929050565b6000806000806000806000806080898b03121561153f57600080fd5b883567ffffffffffffffff8082111561155757600080fd5b6115638c838d016114d7565b909a50985060208b013591508082111561157c57600080fd5b6115888c838d016114d7565b909850965060408b01359150808211156115a157600080fd5b6115ad8c838d016114d7565b909650945060608b01359150808211156115c657600080fd5b506115d38b828c016114d7565b999c989b5096995094979396929594505050565b600080604083850312156115fa57600080fd5b82356116058161141b565b946020939093013593505050565b60006040828403121561162557600080fd5b50919050565b60006020828403121561163d57600080fd5b8151801515811461124157600080fd5b7f4e487b7100000000000000000000000000000000000000000000000000000000600052601160045260246000fd5b60008282101561168e5761168e61164d565b500390565b7f4e487b7100000000000000000000000000000000000000000000000000000000600052603260045260246000fd5b60008083357fffffffffffffffffffffffffffffffffffffffffffffffffffffffffffffffe18436030181126116f757600080fd5b83018035915067ffffffffffffffff82111561171257600080fd5b6020019150600581901b360382131561151c57600080fd5b60007fffffffffffffffffffffffffffffffffffffffffffffffffffffffffffffffff82141561175c5761175c61164d565b5060010190565b600082198211156117765761177661164d565b500190565b60005b8381101561179657818101518382015260200161177e565b838111156117a5576000848401525b50505050565b600082516117bd81846020870161177b565b9190910192915050565b60208152600082518060208401526117e681604085016020870161177b565b601f017fffffffffffffffffffffffffffffffffffffffffffffffffffffffffffffffe016919091016040019291505056fea26469706673582212207cea7c85cf8f9a9bb49d6d3ae8b0a808af332ce6ba794864ea049aac7b9a2e0764736f6c634300080c0033",
  "devdoc": {
    "author": "Angle Core Team",
    "kind": "dev",
    "methods": {
      "claim(address[],address[],uint256[],bytes32[][])": {
        "details": "Anyone may call this function for anyone else, funds go to destination regardless, it's just a question of who provides the proof and pays the gas: `msg.sender` is not used in this function",
        "params": {
          "amounts": "Amount of tokens that will be sent to the corresponding users",
          "proofs": "Array of hashes bridging from leaf (hash of user | token | amount) to Merkle root",
          "tokens": "ERC20 claimed",
          "users": "Recipient of tokens"
        }
      }
    },
    "title": "MerkleRootDistributor",
    "version": 1
  },
  "userdoc": {
    "kind": "user",
    "methods": {
      "claim(address[],address[],uint256[],bytes32[][])": {
        "notice": "Claims rewards for a given set of users"
      },
      "claimed(address,address)": {
        "notice": "Mapping user -> token -> amount to track claimed amounts"
      },
      "deposit_reward_token(address,uint256)": {
        "notice": "Pull reward amount from caller"
      },
      "operators(address,address)": {
        "notice": "user -> operator -> authorisation to claim"
      },
      "recoverERC20(address,address,uint256)": {
        "notice": "Recovers any ERC20 token"
      },
      "toggleOperator(address,address)": {
        "notice": "Toggles whitelisting for a given user and a given operator"
      },
      "toggleTrusted(address)": {
        "notice": "Adds or removes trusted EOA"
      },
      "toggleWhitelist(address)": {
        "notice": "Toggles permissionless claiming for a given user"
      },
      "treasury()": {
        "notice": "Treasury contract handling access control"
      },
      "tree()": {
        "notice": "Tree of claimable tokens through this contract"
      },
      "trusted(address)": {
        "notice": "Trusted EOAs to update the merkle root"
      },
      "updateTree((bytes32,bytes32))": {
        "notice": "Updates Merkle Tree"
      },
      "whitelist(address)": {
        "notice": "Whether or not to enable permissionless claiming"
      }
    },
    "notice": "Allows the DAO to distribute rewards through Merkle Roots",
    "version": 1
  },
  "storageLayout": {
    "storage": [
      {
        "astId": 772,
        "contract": "contracts/merkleRootDistributor/MerkleRootDistributorV2.sol:MerkleRootDistributorV2",
        "label": "_initialized",
        "offset": 0,
        "slot": "0",
        "type": "t_bool"
      },
      {
        "astId": 775,
        "contract": "contracts/merkleRootDistributor/MerkleRootDistributorV2.sol:MerkleRootDistributorV2",
        "label": "_initializing",
        "offset": 1,
        "slot": "0",
        "type": "t_bool"
      },
      {
        "astId": 16864,
        "contract": "contracts/merkleRootDistributor/MerkleRootDistributorV2.sol:MerkleRootDistributorV2",
        "label": "tree",
        "offset": 0,
        "slot": "1",
        "type": "t_struct(MerkleTree)16853_storage"
      },
      {
        "astId": 16868,
        "contract": "contracts/merkleRootDistributor/MerkleRootDistributorV2.sol:MerkleRootDistributorV2",
        "label": "treasury",
        "offset": 0,
        "slot": "3",
        "type": "t_contract(ITreasury)14377"
      },
      {
        "astId": 16875,
        "contract": "contracts/merkleRootDistributor/MerkleRootDistributorV2.sol:MerkleRootDistributorV2",
        "label": "claimed",
        "offset": 0,
        "slot": "4",
        "type": "t_mapping(t_address,t_mapping(t_address,t_uint256))"
      },
      {
        "astId": 16880,
        "contract": "contracts/merkleRootDistributor/MerkleRootDistributorV2.sol:MerkleRootDistributorV2",
        "label": "trusted",
        "offset": 0,
        "slot": "5",
        "type": "t_mapping(t_address,t_uint256)"
      },
      {
        "astId": 16885,
        "contract": "contracts/merkleRootDistributor/MerkleRootDistributorV2.sol:MerkleRootDistributorV2",
        "label": "whitelist",
        "offset": 0,
        "slot": "6",
        "type": "t_mapping(t_address,t_uint256)"
      },
      {
        "astId": 16892,
        "contract": "contracts/merkleRootDistributor/MerkleRootDistributorV2.sol:MerkleRootDistributorV2",
        "label": "operators",
        "offset": 0,
        "slot": "7",
        "type": "t_mapping(t_address,t_mapping(t_address,t_uint256))"
      },
      {
        "astId": 16896,
        "contract": "contracts/merkleRootDistributor/MerkleRootDistributorV2.sol:MerkleRootDistributorV2",
        "label": "__gap",
        "offset": 0,
        "slot": "8",
        "type": "t_array(t_uint256)44_storage"
      }
    ],
    "types": {
      "t_address": {
        "encoding": "inplace",
        "label": "address",
        "numberOfBytes": "20"
      },
      "t_array(t_uint256)44_storage": {
        "base": "t_uint256",
        "encoding": "inplace",
        "label": "uint256[44]",
        "numberOfBytes": "1408"
      },
      "t_bool": {
        "encoding": "inplace",
        "label": "bool",
        "numberOfBytes": "1"
      },
      "t_bytes32": {
        "encoding": "inplace",
        "label": "bytes32",
        "numberOfBytes": "32"
      },
      "t_contract(ITreasury)14377": {
        "encoding": "inplace",
        "label": "contract ITreasury",
        "numberOfBytes": "20"
      },
      "t_mapping(t_address,t_mapping(t_address,t_uint256))": {
        "encoding": "mapping",
        "key": "t_address",
        "label": "mapping(address => mapping(address => uint256))",
        "numberOfBytes": "32",
        "value": "t_mapping(t_address,t_uint256)"
      },
      "t_mapping(t_address,t_uint256)": {
        "encoding": "mapping",
        "key": "t_address",
        "label": "mapping(address => uint256)",
        "numberOfBytes": "32",
        "value": "t_uint256"
      },
      "t_struct(MerkleTree)16853_storage": {
        "encoding": "inplace",
        "label": "struct MerkleTree",
        "members": [
          {
            "astId": 16850,
            "contract": "contracts/merkleRootDistributor/MerkleRootDistributorV2.sol:MerkleRootDistributorV2",
            "label": "merkleRoot",
            "offset": 0,
            "slot": "0",
            "type": "t_bytes32"
          },
          {
            "astId": 16852,
            "contract": "contracts/merkleRootDistributor/MerkleRootDistributorV2.sol:MerkleRootDistributorV2",
            "label": "ipfsHash",
            "offset": 0,
            "slot": "1",
            "type": "t_bytes32"
          }
        ],
        "numberOfBytes": "64"
      },
      "t_uint256": {
        "encoding": "inplace",
        "label": "uint256",
        "numberOfBytes": "32"
      }
    }
  }
}