{
  "address": "0x576e414fB89C54a21422b0A6feBd6AE2348F42e4",
  "abi": [
    {
      "inputs": [
        {
          "internalType": "uint32",
          "name": "_stalePeriod",
          "type": "uint32"
        },
        {
          "internalType": "address",
          "name": "_treasury",
          "type": "address"
        }
      ],
      "stateMutability": "nonpayable",
      "type": "constructor"
    },
    {
      "inputs": [],
      "name": "InvalidChainlinkRate",
      "type": "error"
    },
    {
      "inputs": [],
      "name": "NotGovernorOrGuardian",
      "type": "error"
    },
    {
      "inputs": [],
      "name": "NotVaultManagerOrGovernor",
      "type": "error"
    },
    {
      "anonymous": false,
      "inputs": [
        {
          "indexed": false,
          "internalType": "uint32",
          "name": "_stalePeriod",
          "type": "uint32"
        }
      ],
      "name": "StalePeriodUpdated",
      "type": "event"
    },
    {
      "inputs": [],
      "name": "DESCRIPTION",
      "outputs": [
        {
          "internalType": "string",
          "name": "",
          "type": "string"
        }
      ],
      "stateMutability": "view",
      "type": "function"
    },
    {
      "inputs": [],
      "name": "STETH",
      "outputs": [
        {
          "internalType": "contract IStETH",
          "name": "",
          "type": "address"
        }
      ],
      "stateMutability": "view",
      "type": "function"
    },
    {
      "inputs": [
        {
          "internalType": "uint32",
          "name": "_stalePeriod",
          "type": "uint32"
        }
      ],
      "name": "changeStalePeriod",
      "outputs": [],
      "stateMutability": "nonpayable",
      "type": "function"
    },
    {
      "inputs": [],
      "name": "circuitChainlink",
      "outputs": [
        {
          "internalType": "contract AggregatorV3Interface[]",
          "name": "",
          "type": "address[]"
        }
      ],
      "stateMutability": "pure",
      "type": "function"
    },
    {
      "inputs": [],
      "name": "read",
      "outputs": [
        {
          "internalType": "uint256",
          "name": "quoteAmount",
          "type": "uint256"
        }
      ],
      "stateMutability": "view",
      "type": "function"
    },
    {
      "inputs": [
        {
          "internalType": "address",
          "name": "_treasury",
          "type": "address"
        }
      ],
      "name": "setTreasury",
      "outputs": [],
      "stateMutability": "nonpayable",
      "type": "function"
    },
    {
      "inputs": [],
      "name": "stalePeriod",
      "outputs": [
        {
          "internalType": "uint32",
          "name": "",
          "type": "uint32"
        }
      ],
      "stateMutability": "view",
      "type": "function"
    },
    {
      "inputs": [],
      "name": "treasury",
      "outputs": [
        {
          "internalType": "contract ITreasury",
          "name": "",
          "type": "address"
        }
      ],
      "stateMutability": "view",
      "type": "function"
    }
  ],
  "transactionHash": "0x75e70cc987dbd9badb53e554ca3e48f06bc7dc904e114d8054365a01b7f0cc08",
  "args": [
    108000,
    "0x19F925a26A3a8eeE2438603CB04F39cbC007EfFB"
  ],
  "numDeployments": 1,
  "solcInputHash": "67093b4a6e335f95b976e3bf91551d41",
  "bytecode": "0x608060405234801561001057600080fd5b50604051610d63380380610d6383398101604081905261002f91610071565b600080546001600160c01b031916600160a01b63ffffffff94909416939093026001600160a01b031916929092176001600160a01b03919091161790556100c0565b6000806040838503121561008457600080fd5b825163ffffffff8116811461009857600080fd5b60208401519092506001600160a01b03811681146100b557600080fd5b809150509250929050565b610c94806100cf6000396000f3fe608060405234801561001057600080fd5b50600436106100885760003560e01c8063a5b36a361161005b578063a5b36a361461011b578063e00bfe5014610158578063f0f4426014610173578063f1ae88561461018657600080fd5b80634994cc671461008d57806357de26a4146100ab57806361d027b3146100c1578063630914d114610106575b600080fd5b6100956101cf565b6040516100a2919061085e565b60405180910390f35b6100b36102a8565b6040519081526020016100a2565b6000546100e19073ffffffffffffffffffffffffffffffffffffffff1681565b60405173ffffffffffffffffffffffffffffffffffffffff90911681526020016100a2565b6101196101143660046108b8565b610365565b005b6000546101439074010000000000000000000000000000000000000000900463ffffffff1681565b60405163ffffffff90911681526020016100a2565b6100e173ae7ab96520de3a18e5e111b5eaab095312d7fe8481565b6101196101813660046108e5565b6104b0565b6101c26040518060400160405280601181526020017f7753544554482f584155204f7261636c6500000000000000000000000000000081525081565b6040516100a2919061091b565b6040805160028082526060808301845292600092919060208301908036833701905050905073cfe54b5cd566ab89272946f602d76ea879cab4a88160008151811061021c5761021c610987565b602002602001019073ffffffffffffffffffffffffffffffffffffffff16908173ffffffffffffffffffffffffffffffffffffffff168152505073214ed9da11d2fbe465a6fc601a91e62ebec1a0d68160018151811061027e5761027e610987565b73ffffffffffffffffffffffffffffffffffffffff90921660209283029190910190910152919050565b60006102b261065c565b905060006102be6101cf565b6040805180820182526001815260006020808301829052835180850190945260088085529084015283519394509092905b8181101561035d5761034b8686838151811061030d5761030d610987565b602002602001015186846002811061032757610327610987565b602002015186856002811061033e5761033e610987565b602002015160ff166106f8565b9550610356816109e5565b90506102ef565b505050505090565b6000546040517f521d4de900000000000000000000000000000000000000000000000000000000815233600482015273ffffffffffffffffffffffffffffffffffffffff9091169063521d4de990602401602060405180830381865afa1580156103d3573d6000803e3d6000fd5b505050506040513d601f19601f820116820180604052508101906103f79190610a1d565b61042d576040517f99e120bc00000000000000000000000000000000000000000000000000000000815260040160405180910390fd5b600080547fffffffffffffffff00000000ffffffffffffffffffffffffffffffffffffffff167401000000000000000000000000000000000000000063ffffffff8416908102919091179091556040519081527f4040b15332969bfd8b2035c1a701c8e13f2b5d62ce89b311684a601b2eb44e019060200160405180910390a150565b6000546040517f676a553e00000000000000000000000000000000000000000000000000000000815233600482015273ffffffffffffffffffffffffffffffffffffffff9091169063676a553e90602401602060405180830381865afa15801561051e573d6000803e3d6000fd5b505050506040513d601f19601f820116820180604052508101906105429190610a1d565b1580156105de57506000546040517fe43581b800000000000000000000000000000000000000000000000000000000815233600482015273ffffffffffffffffffffffffffffffffffffffff9091169063e43581b890602401602060405180830381865afa1580156105b8573d6000803e3d6000fd5b505050506040513d601f19601f820116820180604052508101906105dc9190610a1d565b155b15610615576040517fb05b9b9f00000000000000000000000000000000000000000000000000000000815260040160405180910390fd5b600080547fffffffffffffffffffffffff00000000000000000000000000000000000000001673ffffffffffffffffffffffffffffffffffffffff92909216919091179055565b6040517f7a28fb88000000000000000000000000000000000000000000000000000000008152670de0b6b3a7640000600482015260009073ae7ab96520de3a18e5e111b5eaab095312d7fe8490637a28fb8890602401602060405180830381865afa1580156106cf573d6000803e3d6000fd5b505050506040513d601f19601f820116820180604052508101906106f39190610a3f565b905090565b60008060008060008773ffffffffffffffffffffffffffffffffffffffff1663feaf968c6040518163ffffffff1660e01b815260040160a060405180830381865afa15801561074b573d6000803e3d6000fd5b505050506040513d601f19601f8201168201806040525081019061076f9190610a77565b94509450509350935060008313158061079f57508069ffffffffffffffffffff168469ffffffffffffffffffff16115b806107d2575060005474010000000000000000000000000000000000000000900463ffffffff166107d08342610ac7565b115b15610809576040517fae19356300000000000000000000000000000000000000000000000000000000815260040160405180910390fd5b8260ff88166001036108405761082087600a610c00565b61082a828c610c0c565b6108349190610c23565b95505050505050610856565b8061084c88600a610c00565b61082a908c610c0c565b949350505050565b6020808252825182820181905260009190848201906040850190845b818110156108ac57835173ffffffffffffffffffffffffffffffffffffffff168352928401929184019160010161087a565b50909695505050505050565b6000602082840312156108ca57600080fd5b813563ffffffff811681146108de57600080fd5b9392505050565b6000602082840312156108f757600080fd5b813573ffffffffffffffffffffffffffffffffffffffff811681146108de57600080fd5b600060208083528351808285015260005b818110156109485785810183015185820160400152820161092c565b5060006040828601015260407fffffffffffffffffffffffffffffffffffffffffffffffffffffffffffffffe0601f8301168501019250505092915050565b7f4e487b7100000000000000000000000000000000000000000000000000000000600052603260045260246000fd5b7f4e487b7100000000000000000000000000000000000000000000000000000000600052601160045260246000fd5b60007fffffffffffffffffffffffffffffffffffffffffffffffffffffffffffffffff8203610a1657610a166109b6565b5060010190565b600060208284031215610a2f57600080fd5b815180151581146108de57600080fd5b600060208284031215610a5157600080fd5b5051919050565b805169ffffffffffffffffffff81168114610a7257600080fd5b919050565b600080600080600060a08688031215610a8f57600080fd5b610a9886610a58565b9450602086015193506040860151925060608601519150610abb60808701610a58565b90509295509295909350565b81810381811115610ada57610ada6109b6565b92915050565b600181815b80851115610b3957817fffffffffffffffffffffffffffffffffffffffffffffffffffffffffffffffff04821115610b1f57610b1f6109b6565b80851615610b2c57918102915b93841c9390800290610ae5565b509250929050565b600082610b5057506001610ada565b81610b5d57506000610ada565b8160018114610b735760028114610b7d57610b99565b6001915050610ada565b60ff841115610b8e57610b8e6109b6565b50506001821b610ada565b5060208310610133831016604e8410600b8410161715610bbc575081810a610ada565b610bc68383610ae0565b807fffffffffffffffffffffffffffffffffffffffffffffffffffffffffffffffff04821115610bf857610bf86109b6565b029392505050565b60006108de8383610b41565b8082028115828204841417610ada57610ada6109b6565b600082610c59577f4e487b7100000000000000000000000000000000000000000000000000000000600052601260045260246000fd5b50049056fea264697066735822122067bbbaf0132b5bec4bf960795e81a2cf5f39fa9a4a814b4ec92a0d1178afc34e64736f6c63430008110033",
  "devdoc": {
    "author": "Angle Labs, Inc.",
    "kind": "dev",
    "methods": {
      "changeStalePeriod(uint32)": {
        "params": {
          "_stalePeriod": "New stale period (in seconds)"
        }
      },
      "read()": {
        "details": "For instance if the out currency is EUR (and hence agEUR), then the base of the returned value is 10**18",
        "returns": {
          "quoteAmount": "The current rate between the in-currency and out-currency in the base of the out currency"
        }
      },
      "setTreasury(address)": {
        "details": "This function can be called by an approved `VaultManager` contract which can call this function after being requested to do so by a `treasury` contractIn some situations (like reactor contracts), the `VaultManager` may not directly be linked to the `oracle` contract and as such we may need governors to be able to call this function as well",
        "params": {
          "_treasury": "Address of the new treasury contract"
        }
      }
    },
    "title": "OracleWSTETHXAUChainlink",
    "version": 1
  },
  "userdoc": {
    "kind": "user",
    "methods": {
      "changeStalePeriod(uint32)": {
        "notice": "Changes the stale period"
      },
      "circuitChainlink()": {
        "notice": "Array with the list of Chainlink feeds in the order in which they are read"
      },
      "read()": {
        "notice": "Reads the rate from the Chainlink circuit and other data provided"
      },
      "setTreasury(address)": {
        "notice": "Changes the treasury contract"
      },
      "stalePeriod()": {
        "notice": "Represent the maximum amount of time (in seconds) between each Chainlink update before the price feed is considered stale"
      },
      "treasury()": {
        "notice": "Reference to the `treasury` contract handling this `VaultManager`"
      }
    },
    "notice": "Gives the price of wSTETH in XAU in base 18",
    "version": 1
  },
  "storageLayout": {
    "storage": [
      {
        "astId": 27844,
        "contract": "contracts/oracle/implementations/mainnet/XAU/OracleWSTETHXAUChainlink.sol:OracleWSTETHXAUChainlink",
        "label": "treasury",
        "offset": 0,
        "slot": "0",
        "type": "t_contract(ITreasury)19724"
      },
      {
        "astId": 27847,
        "contract": "contracts/oracle/implementations/mainnet/XAU/OracleWSTETHXAUChainlink.sol:OracleWSTETHXAUChainlink",
        "label": "stalePeriod",
        "offset": 20,
        "slot": "0",
        "type": "t_uint32"
      }
    ],
    "types": {
      "t_contract(ITreasury)19724": {
        "encoding": "inplace",
        "label": "contract ITreasury",
        "numberOfBytes": "20"
      },
      "t_uint32": {
        "encoding": "inplace",
        "label": "uint32",
        "numberOfBytes": "4"
      }
    }
  }
}