{
  "address": "0xC1603c0d679aeFC8e8a82b543B8855927625155A",
  "abi": [
    {
      "inputs": [
        {
          "internalType": "uint32",
          "name": "_stalePeriod",
          "type": "uint32"
        },
        {
          "internalType": "address",
          "name": "_treasury",
          "type": "address"
        }
      ],
      "stateMutability": "nonpayable",
      "type": "constructor"
    },
    {
      "inputs": [],
      "name": "InvalidChainlinkRate",
      "type": "error"
    },
    {
      "inputs": [],
      "name": "NotGovernorOrGuardian",
      "type": "error"
    },
    {
      "inputs": [],
      "name": "NotVaultManagerOrGovernor",
      "type": "error"
    },
    {
      "anonymous": false,
      "inputs": [
        {
          "indexed": false,
          "internalType": "uint32",
          "name": "_stalePeriod",
          "type": "uint32"
        }
      ],
      "name": "StalePeriodUpdated",
      "type": "event"
    },
    {
      "inputs": [],
      "name": "DESCRIPTION",
      "outputs": [
        {
          "internalType": "string",
          "name": "",
          "type": "string"
        }
      ],
      "stateMutability": "view",
      "type": "function"
    },
    {
      "inputs": [
        {
          "internalType": "uint32",
          "name": "_stalePeriod",
          "type": "uint32"
        }
      ],
      "name": "changeStalePeriod",
      "outputs": [],
      "stateMutability": "nonpayable",
      "type": "function"
    },
    {
      "inputs": [],
      "name": "circuitChainlink",
      "outputs": [
        {
          "internalType": "contract AggregatorV3Interface[]",
          "name": "",
          "type": "address[]"
        }
      ],
      "stateMutability": "pure",
      "type": "function"
    },
    {
      "inputs": [],
      "name": "read",
      "outputs": [
        {
          "internalType": "uint256",
          "name": "quoteAmount",
          "type": "uint256"
        }
      ],
      "stateMutability": "view",
      "type": "function"
    },
    {
      "inputs": [
        {
          "internalType": "address",
          "name": "_treasury",
          "type": "address"
        }
      ],
      "name": "setTreasury",
      "outputs": [],
      "stateMutability": "nonpayable",
      "type": "function"
    },
    {
      "inputs": [],
      "name": "stalePeriod",
      "outputs": [
        {
          "internalType": "uint32",
          "name": "",
          "type": "uint32"
        }
      ],
      "stateMutability": "view",
      "type": "function"
    },
    {
      "inputs": [],
      "name": "treasury",
      "outputs": [
        {
          "internalType": "contract ITreasury",
          "name": "",
          "type": "address"
        }
      ],
      "stateMutability": "view",
      "type": "function"
    }
  ],
  "transactionHash": "0xf6c5e278452dc2a462ac72c131dd40d150604ba9e8baf614f7353f9f6c98ba29",
  "args": [
    259200,
    "0x8667DBEBf68B0BFa6Db54f550f41Be16c4067d60"
  ],
  "numDeployments": 1,
  "solcInputHash": "24b1610c184975567a57199ee00015c7",
  "bytecode": "0x608060405234801561001057600080fd5b50604051610b70380380610b7083398101604081905261002f91610071565b600080546001600160c01b031916600160a01b63ffffffff94909416939093026001600160a01b031916929092176001600160a01b03919091161790556100c0565b6000806040838503121561008457600080fd5b825163ffffffff8116811461009857600080fd5b60208401519092506001600160a01b03811681146100b557600080fd5b809150509250929050565b610aa1806100cf6000396000f3fe608060405234801561001057600080fd5b506004361061007d5760003560e01c8063630914d11161005b578063630914d1146100fb578063a5b36a3614610110578063f0f442601461014d578063f1ae88561461016057600080fd5b80634994cc671461008257806357de26a4146100a057806361d027b3146100b6575b600080fd5b61008a6101a9565b60405161009791906106bc565b60405180910390f35b6100a8610221565b604051908152602001610097565b6000546100d69073ffffffffffffffffffffffffffffffffffffffff1681565b60405173ffffffffffffffffffffffffffffffffffffffff9091168152602001610097565b61010e610109366004610716565b61025f565b005b6000546101389074010000000000000000000000000000000000000000900463ffffffff1681565b60405163ffffffff9091168152602001610097565b61010e61015b366004610743565b6103aa565b61019c6040518060400160405280600f81526020017f484947482f455552204f7261636c65000000000000000000000000000000000081525081565b6040516100979190610779565b6040805160018082528183019092526060916000919060208083019080368337019050509050739e8e794ad6ecdb6d5c7eabe059d30e907f58859b816000815181106101f7576101f76107e5565b73ffffffffffffffffffffffffffffffffffffffff90921660209283029190910190910152919050565b600061025a670de0b6b3a76400006102376101a9565b600081518110610249576102496107e5565b602002602001015160016008610556565b905090565b6000546040517f521d4de900000000000000000000000000000000000000000000000000000000815233600482015273ffffffffffffffffffffffffffffffffffffffff9091169063521d4de990602401602060405180830381865afa1580156102cd573d6000803e3d6000fd5b505050506040513d601f19601f820116820180604052508101906102f19190610814565b610327576040517f99e120bc00000000000000000000000000000000000000000000000000000000815260040160405180910390fd5b600080547fffffffffffffffff00000000ffffffffffffffffffffffffffffffffffffffff167401000000000000000000000000000000000000000063ffffffff8416908102919091179091556040519081527f4040b15332969bfd8b2035c1a701c8e13f2b5d62ce89b311684a601b2eb44e019060200160405180910390a150565b6000546040517f676a553e00000000000000000000000000000000000000000000000000000000815233600482015273ffffffffffffffffffffffffffffffffffffffff9091169063676a553e90602401602060405180830381865afa158015610418573d6000803e3d6000fd5b505050506040513d601f19601f8201168201806040525081019061043c9190610814565b1580156104d857506000546040517fe43581b800000000000000000000000000000000000000000000000000000000815233600482015273ffffffffffffffffffffffffffffffffffffffff9091169063e43581b890602401602060405180830381865afa1580156104b2573d6000803e3d6000fd5b505050506040513d601f19601f820116820180604052508101906104d69190610814565b155b1561050f576040517fb05b9b9f00000000000000000000000000000000000000000000000000000000815260040160405180910390fd5b600080547fffffffffffffffffffffffff00000000000000000000000000000000000000001673ffffffffffffffffffffffffffffffffffffffff92909216919091179055565b60008060008060008773ffffffffffffffffffffffffffffffffffffffff1663feaf968c6040518163ffffffff1660e01b815260040160a060405180830381865afa1580156105a9573d6000803e3d6000fd5b505050506040513d601f19601f820116820180604052508101906105cd9190610855565b9450945050935093506000831315806105fd57508069ffffffffffffffffffff168469ffffffffffffffffffff16115b80610630575060005474010000000000000000000000000000000000000000900463ffffffff1661062e83426108d4565b115b15610667576040517fae19356300000000000000000000000000000000000000000000000000000000815260040160405180910390fd5b8260ff881660010361069e5761067e87600a610a0d565b610688828c610a19565b6106929190610a30565b955050505050506106b4565b806106aa88600a610a0d565b610688908c610a19565b949350505050565b6020808252825182820181905260009190848201906040850190845b8181101561070a57835173ffffffffffffffffffffffffffffffffffffffff16835292840192918401916001016106d8565b50909695505050505050565b60006020828403121561072857600080fd5b813563ffffffff8116811461073c57600080fd5b9392505050565b60006020828403121561075557600080fd5b813573ffffffffffffffffffffffffffffffffffffffff8116811461073c57600080fd5b600060208083528351808285015260005b818110156107a65785810183015185820160400152820161078a565b5060006040828601015260407fffffffffffffffffffffffffffffffffffffffffffffffffffffffffffffffe0601f8301168501019250505092915050565b7f4e487b7100000000000000000000000000000000000000000000000000000000600052603260045260246000fd5b60006020828403121561082657600080fd5b8151801515811461073c57600080fd5b805169ffffffffffffffffffff8116811461085057600080fd5b919050565b600080600080600060a0868803121561086d57600080fd5b61087686610836565b945060208601519350604086015192506060860151915061089960808701610836565b90509295509295909350565b7f4e487b7100000000000000000000000000000000000000000000000000000000600052601160045260246000fd5b818103818111156108e7576108e76108a5565b92915050565b600181815b8085111561094657817fffffffffffffffffffffffffffffffffffffffffffffffffffffffffffffffff0482111561092c5761092c6108a5565b8085161561093957918102915b93841c93908002906108f2565b509250929050565b60008261095d575060016108e7565b8161096a575060006108e7565b8160018114610980576002811461098a576109a6565b60019150506108e7565b60ff84111561099b5761099b6108a5565b50506001821b6108e7565b5060208310610133831016604e8410600b84101617156109c9575081810a6108e7565b6109d383836108ed565b807fffffffffffffffffffffffffffffffffffffffffffffffffffffffffffffffff04821115610a0557610a056108a5565b029392505050565b600061073c838361094e565b80820281158282048414176108e7576108e76108a5565b600082610a66577f4e487b7100000000000000000000000000000000000000000000000000000000600052601260045260246000fd5b50049056fea26469706673582212203c4ebe7f64d6ef11ac6af899de605782f2a7461272f81a2e542c09ff27ea47e464736f6c63430008110033",
  "devdoc": {
    "author": "Angle Labs, Inc.",
    "kind": "dev",
    "methods": {
      "changeStalePeriod(uint32)": {
        "params": {
          "_stalePeriod": "New stale period (in seconds)"
        }
      },
      "read()": {
        "details": "For instance if the out currency is EUR (and hence agEUR), then the base of the returned value is 10**18",
        "returns": {
          "quoteAmount": "The current rate between the in-currency and out-currency in the base of the out currency"
        }
      },
      "setTreasury(address)": {
        "details": "This function can be called by an approved `VaultManager` contract which can call this function after being requested to do so by a `treasury` contractIn some situations (like reactor contracts), the `VaultManager` may not directly be linked to the `oracle` contract and as such we may need governors to be able to call this function as well",
        "params": {
          "_treasury": "Address of the new treasury contract"
        }
      }
    },
    "title": "OracleHIGHEURChainlink",
    "version": 1
  },
  "userdoc": {
    "kind": "user",
    "methods": {
      "changeStalePeriod(uint32)": {
        "notice": "Changes the stale period"
      },
      "circuitChainlink()": {
        "notice": "Array with the list of Chainlink feeds in the order in which they are read"
      },
      "read()": {
        "notice": "Reads the rate from the Chainlink circuit and other data provided"
      },
      "setTreasury(address)": {
        "notice": "Changes the treasury contract"
      },
      "stalePeriod()": {
        "notice": "Represent the maximum amount of time (in seconds) between each Chainlink update before the price feed is considered stale"
      },
      "treasury()": {
        "notice": "Reference to the `treasury` contract handling this `VaultManager`"
      }
    },
    "notice": "Gives the price of HIGH in Euro in base 18",
    "version": 1
  },
  "storageLayout": {
    "storage": [
      {
        "astId": 25858,
        "contract": "contracts/oracle/implementations/mainnet/EUR/OracleHIGHEURChainlink.sol:OracleHIGHEURChainlink",
        "label": "treasury",
        "offset": 0,
        "slot": "0",
        "type": "t_contract(ITreasury)18511"
      },
      {
        "astId": 25861,
        "contract": "contracts/oracle/implementations/mainnet/EUR/OracleHIGHEURChainlink.sol:OracleHIGHEURChainlink",
        "label": "stalePeriod",
        "offset": 20,
        "slot": "0",
        "type": "t_uint32"
      }
    ],
    "types": {
      "t_contract(ITreasury)18511": {
        "encoding": "inplace",
        "label": "contract ITreasury",
        "numberOfBytes": "20"
      },
      "t_uint32": {
        "encoding": "inplace",
        "label": "uint32",
        "numberOfBytes": "4"
      }
    }
  }
}