{
  "address": "0xCf1AE61e2F65149355D8a340c47B592e1bCe6568",
  "abi": [
    {
      "inputs": [
        {
          "internalType": "uint32",
          "name": "_stalePeriod",
          "type": "uint32"
        },
        {
          "internalType": "address",
          "name": "_treasury",
          "type": "address"
        }
      ],
      "stateMutability": "nonpayable",
      "type": "constructor"
    },
    {
      "inputs": [],
      "name": "InvalidChainlinkRate",
      "type": "error"
    },
    {
      "inputs": [],
      "name": "NotGovernorOrGuardian",
      "type": "error"
    },
    {
      "inputs": [],
      "name": "NotVaultManagerOrGovernor",
      "type": "error"
    },
    {
      "anonymous": false,
      "inputs": [
        {
          "indexed": false,
          "internalType": "uint32",
          "name": "_stalePeriod",
          "type": "uint32"
        }
      ],
      "name": "StalePeriodUpdated",
      "type": "event"
    },
    {
      "inputs": [],
      "name": "DESCRIPTION",
      "outputs": [
        {
          "internalType": "string",
          "name": "",
          "type": "string"
        }
      ],
      "stateMutability": "view",
      "type": "function"
    },
    {
      "inputs": [],
      "name": "STETH",
      "outputs": [
        {
          "internalType": "contract IStETH",
          "name": "",
          "type": "address"
        }
      ],
      "stateMutability": "view",
      "type": "function"
    },
    {
      "inputs": [
        {
          "internalType": "uint32",
          "name": "_stalePeriod",
          "type": "uint32"
        }
      ],
      "name": "changeStalePeriod",
      "outputs": [],
      "stateMutability": "nonpayable",
      "type": "function"
    },
    {
      "inputs": [],
      "name": "circuitChainlink",
      "outputs": [
        {
          "internalType": "contract AggregatorV3Interface[]",
          "name": "",
          "type": "address[]"
        }
      ],
      "stateMutability": "pure",
      "type": "function"
    },
    {
      "inputs": [],
      "name": "read",
      "outputs": [
        {
          "internalType": "uint256",
          "name": "quoteAmount",
          "type": "uint256"
        }
      ],
      "stateMutability": "view",
      "type": "function"
    },
    {
      "inputs": [
        {
          "internalType": "address",
          "name": "_treasury",
          "type": "address"
        }
      ],
      "name": "setTreasury",
      "outputs": [],
      "stateMutability": "nonpayable",
      "type": "function"
    },
    {
      "inputs": [],
      "name": "stalePeriod",
      "outputs": [
        {
          "internalType": "uint32",
          "name": "",
          "type": "uint32"
        }
      ],
      "stateMutability": "view",
      "type": "function"
    },
    {
      "inputs": [],
      "name": "treasury",
      "outputs": [
        {
          "internalType": "contract ITreasury",
          "name": "",
          "type": "address"
        }
      ],
      "stateMutability": "view",
      "type": "function"
    }
  ],
  "transactionHash": "0xe6a82b7b9e002312a9998f593a8154cf4b8e7f20bdcf29f2880b3756518e5753",
  "args": [
    86400,
    "0xf8588520E760BB0b3bDD62Ecb25186A28b0830ee"
  ],
  "numDeployments": 1,
  "solcInputHash": "871924e0c138825a2736b76def8fef8d",
  "bytecode": "0x608060405234801561001057600080fd5b50604051610c4f380380610c4f83398101604081905261002f91610071565b600080546001600160c01b031916600160a01b63ffffffff94909416939093026001600160a01b031916929092176001600160a01b03919091161790556100c0565b6000806040838503121561008457600080fd5b825163ffffffff8116811461009857600080fd5b60208401519092506001600160a01b03811681146100b557600080fd5b809150509250929050565b610b80806100cf6000396000f3fe608060405234801561001057600080fd5b50600436106100885760003560e01c8063a5b36a361161005b578063a5b36a361461011b578063e00bfe5014610158578063f0f4426014610173578063f1ae88561461018657600080fd5b80634994cc671461008d57806357de26a4146100ab57806361d027b3146100c1578063630914d114610106575b600080fd5b6100956101cf565b6040516100a29190610782565b60405180910390f35b6100b3610247565b6040519081526020016100a2565b6000546100e19073ffffffffffffffffffffffffffffffffffffffff1681565b60405173ffffffffffffffffffffffffffffffffffffffff90911681526020016100a2565b6101196101143660046107dc565b610289565b005b6000546101439074010000000000000000000000000000000000000000900463ffffffff1681565b60405163ffffffff90911681526020016100a2565b6100e173ae7ab96520de3a18e5e111b5eaab095312d7fe8481565b610119610181366004610809565b6103d4565b6101c26040518060400160405280601181526020017f7753544554482f555344204f7261636c6500000000000000000000000000000081525081565b6040516100a2919061083f565b604080516001808252818301909252606091600091906020808301908036833701905050905073cfe54b5cd566ab89272946f602d76ea879cab4a88160008151811061021d5761021d6108ab565b73ffffffffffffffffffffffffffffffffffffffff90921660209283029190910190910152919050565b6000806102526101cf565b905061028361025f610580565b82600081518110610272576102726108ab565b60200260200101516001600861061c565b91505090565b6000546040517f521d4de900000000000000000000000000000000000000000000000000000000815233600482015273ffffffffffffffffffffffffffffffffffffffff9091169063521d4de990602401602060405180830381865afa1580156102f7573d6000803e3d6000fd5b505050506040513d601f19601f8201168201806040525081019061031b91906108da565b610351576040517f99e120bc00000000000000000000000000000000000000000000000000000000815260040160405180910390fd5b600080547fffffffffffffffff00000000ffffffffffffffffffffffffffffffffffffffff167401000000000000000000000000000000000000000063ffffffff8416908102919091179091556040519081527f4040b15332969bfd8b2035c1a701c8e13f2b5d62ce89b311684a601b2eb44e019060200160405180910390a150565b6000546040517f676a553e00000000000000000000000000000000000000000000000000000000815233600482015273ffffffffffffffffffffffffffffffffffffffff9091169063676a553e90602401602060405180830381865afa158015610442573d6000803e3d6000fd5b505050506040513d601f19601f8201168201806040525081019061046691906108da565b15801561050257506000546040517fe43581b800000000000000000000000000000000000000000000000000000000815233600482015273ffffffffffffffffffffffffffffffffffffffff9091169063e43581b890602401602060405180830381865afa1580156104dc573d6000803e3d6000fd5b505050506040513d601f19601f8201168201806040525081019061050091906108da565b155b15610539576040517fb05b9b9f00000000000000000000000000000000000000000000000000000000815260040160405180910390fd5b600080547fffffffffffffffffffffffff00000000000000000000000000000000000000001673ffffffffffffffffffffffffffffffffffffffff92909216919091179055565b6040517f7a28fb88000000000000000000000000000000000000000000000000000000008152670de0b6b3a7640000600482015260009073ae7ab96520de3a18e5e111b5eaab095312d7fe8490637a28fb8890602401602060405180830381865afa1580156105f3573d6000803e3d6000fd5b505050506040513d601f19601f8201168201806040525081019061061791906108fc565b905090565b60008060008060008773ffffffffffffffffffffffffffffffffffffffff1663feaf968c6040518163ffffffff1660e01b815260040160a060405180830381865afa15801561066f573d6000803e3d6000fd5b505050506040513d601f19601f820116820180604052508101906106939190610934565b9450945050935093506000831315806106c357508069ffffffffffffffffffff168469ffffffffffffffffffff16115b806106f6575060005474010000000000000000000000000000000000000000900463ffffffff166106f483426109b3565b115b1561072d576040517fae19356300000000000000000000000000000000000000000000000000000000815260040160405180910390fd5b8260ff88166001036107645761074487600a610aec565b61074e828c610af8565b6107589190610b0f565b9550505050505061077a565b8061077088600a610aec565b61074e908c610af8565b949350505050565b6020808252825182820181905260009190848201906040850190845b818110156107d057835173ffffffffffffffffffffffffffffffffffffffff168352928401929184019160010161079e565b50909695505050505050565b6000602082840312156107ee57600080fd5b813563ffffffff8116811461080257600080fd5b9392505050565b60006020828403121561081b57600080fd5b813573ffffffffffffffffffffffffffffffffffffffff8116811461080257600080fd5b600060208083528351808285015260005b8181101561086c57858101830151858201604001528201610850565b5060006040828601015260407fffffffffffffffffffffffffffffffffffffffffffffffffffffffffffffffe0601f8301168501019250505092915050565b7f4e487b7100000000000000000000000000000000000000000000000000000000600052603260045260246000fd5b6000602082840312156108ec57600080fd5b8151801515811461080257600080fd5b60006020828403121561090e57600080fd5b5051919050565b805169ffffffffffffffffffff8116811461092f57600080fd5b919050565b600080600080600060a0868803121561094c57600080fd5b61095586610915565b945060208601519350604086015192506060860151915061097860808701610915565b90509295509295909350565b7f4e487b7100000000000000000000000000000000000000000000000000000000600052601160045260246000fd5b818103818111156109c6576109c6610984565b92915050565b600181815b80851115610a2557817fffffffffffffffffffffffffffffffffffffffffffffffffffffffffffffffff04821115610a0b57610a0b610984565b80851615610a1857918102915b93841c93908002906109d1565b509250929050565b600082610a3c575060016109c6565b81610a49575060006109c6565b8160018114610a5f5760028114610a6957610a85565b60019150506109c6565b60ff841115610a7a57610a7a610984565b50506001821b6109c6565b5060208310610133831016604e8410600b8410161715610aa8575081810a6109c6565b610ab283836109cc565b807fffffffffffffffffffffffffffffffffffffffffffffffffffffffffffffffff04821115610ae457610ae4610984565b029392505050565b60006108028383610a2d565b80820281158282048414176109c6576109c6610984565b600082610b45577f4e487b7100000000000000000000000000000000000000000000000000000000600052601260045260246000fd5b50049056fea2646970667358221220193846081cd3acea9f4551c2d0c960400c3da7b00d900f8559969720c854993464736f6c63430008110033",
  "devdoc": {
    "author": "Angle Labs, Inc.",
    "kind": "dev",
    "methods": {
      "changeStalePeriod(uint32)": {
        "params": {
          "_stalePeriod": "New stale period (in seconds)"
        }
      },
      "read()": {
        "details": "For instance if the out currency is EUR (and hence agEUR), then the base of the returned value is 10**18",
        "returns": {
          "quoteAmount": "The current rate between the in-currency and out-currency in the base of the out currency"
        }
      },
      "setTreasury(address)": {
        "details": "This function can be called by an approved `VaultManager` contract which can call this function after being requested to do so by a `treasury` contractIn some situations (like reactor contracts), the `VaultManager` may not directly be linked to the `oracle` contract and as such we may need governors to be able to call this function as well",
        "params": {
          "_treasury": "Address of the new treasury contract"
        }
      }
    },
    "title": "OracleWSTETHUSDChainlink",
    "version": 1
  },
  "userdoc": {
    "kind": "user",
    "methods": {
      "changeStalePeriod(uint32)": {
        "notice": "Changes the stale period"
      },
      "circuitChainlink()": {
        "notice": "Array with the list of Chainlink feeds in the order in which they are read"
      },
      "read()": {
        "notice": "Reads the rate from the Chainlink circuit and other data provided"
      },
      "setTreasury(address)": {
        "notice": "Changes the treasury contract"
      },
      "stalePeriod()": {
        "notice": "Represent the maximum amount of time (in seconds) between each Chainlink update before the price feed is considered stale"
      },
      "treasury()": {
        "notice": "Reference to the `treasury` contract handling this `VaultManager`"
      }
    },
    "notice": "Gives the price of wSTETH in USD in base 18",
    "version": 1
  },
  "storageLayout": {
    "storage": [
      {
        "astId": 27276,
        "contract": "contracts/oracle/implementations/mainnet/USD/OracleWSTETHUSDChainlink.sol:OracleWSTETHUSDChainlink",
        "label": "treasury",
        "offset": 0,
        "slot": "0",
        "type": "t_contract(ITreasury)18699"
      },
      {
        "astId": 27279,
        "contract": "contracts/oracle/implementations/mainnet/USD/OracleWSTETHUSDChainlink.sol:OracleWSTETHUSDChainlink",
        "label": "stalePeriod",
        "offset": 20,
        "slot": "0",
        "type": "t_uint32"
      }
    ],
    "types": {
      "t_contract(ITreasury)18699": {
        "encoding": "inplace",
        "label": "contract ITreasury",
        "numberOfBytes": "20"
      },
      "t_uint32": {
        "encoding": "inplace",
        "label": "uint32",
        "numberOfBytes": "4"
      }
    }
  }
}