{
  "address": "0x6Eca8E792a178DCd863E1d4831D38FB9CC984cD9",
  "abi": [
    {
      "inputs": [
        {
          "internalType": "uint32",
          "name": "_stalePeriod",
          "type": "uint32"
        },
        {
          "internalType": "address",
          "name": "_treasury",
          "type": "address"
        }
      ],
      "stateMutability": "nonpayable",
      "type": "constructor"
    },
    {
      "inputs": [],
      "name": "InvalidChainlinkRate",
      "type": "error"
    },
    {
      "inputs": [],
      "name": "NotGovernorOrGuardian",
      "type": "error"
    },
    {
      "inputs": [],
      "name": "NotVaultManagerOrGovernor",
      "type": "error"
    },
    {
      "anonymous": false,
      "inputs": [
        {
          "indexed": false,
          "internalType": "uint32",
          "name": "_stalePeriod",
          "type": "uint32"
        }
      ],
      "name": "StalePeriodUpdated",
      "type": "event"
    },
    {
      "inputs": [],
      "name": "DESCRIPTION",
      "outputs": [
        {
          "internalType": "string",
          "name": "",
          "type": "string"
        }
      ],
      "stateMutability": "view",
      "type": "function"
    },
    {
      "inputs": [
        {
          "internalType": "uint32",
          "name": "_stalePeriod",
          "type": "uint32"
        }
      ],
      "name": "changeStalePeriod",
      "outputs": [],
      "stateMutability": "nonpayable",
      "type": "function"
    },
    {
      "inputs": [],
      "name": "circuitChainlink",
      "outputs": [
        {
          "internalType": "contract AggregatorV3Interface[]",
          "name": "",
          "type": "address[]"
        }
      ],
      "stateMutability": "pure",
      "type": "function"
    },
    {
      "inputs": [],
      "name": "read",
      "outputs": [
        {
          "internalType": "uint256",
          "name": "quoteAmount",
          "type": "uint256"
        }
      ],
      "stateMutability": "view",
      "type": "function"
    },
    {
      "inputs": [
        {
          "internalType": "address",
          "name": "_treasury",
          "type": "address"
        }
      ],
      "name": "setTreasury",
      "outputs": [],
      "stateMutability": "nonpayable",
      "type": "function"
    },
    {
      "inputs": [],
      "name": "stalePeriod",
      "outputs": [
        {
          "internalType": "uint32",
          "name": "",
          "type": "uint32"
        }
      ],
      "stateMutability": "view",
      "type": "function"
    },
    {
      "inputs": [],
      "name": "treasury",
      "outputs": [
        {
          "internalType": "contract ITreasury",
          "name": "",
          "type": "address"
        }
      ],
      "stateMutability": "view",
      "type": "function"
    }
  ],
  "transactionHash": "0x8748893a86e874148948510abfa209fc239cbac4937af45a8b32fdf133676b93",
  "args": [
    108000,
    "0x19F925a26A3a8eeE2438603CB04F39cbC007EfFB"
  ],
  "numDeployments": 1,
  "solcInputHash": "67093b4a6e335f95b976e3bf91551d41",
  "bytecode": "0x608060405234801561001057600080fd5b50604051610c85380380610c8583398101604081905261002f91610071565b600080546001600160c01b031916600160a01b63ffffffff94909416939093026001600160a01b031916929092176001600160a01b03919091161790556100c0565b6000806040838503121561008457600080fd5b825163ffffffff8116811461009857600080fd5b60208401519092506001600160a01b03811681146100b557600080fd5b809150509250929050565b610bb6806100cf6000396000f3fe608060405234801561001057600080fd5b506004361061007d5760003560e01c8063630914d11161005b578063630914d1146100fb578063a5b36a3614610110578063f0f442601461014d578063f1ae88561461016057600080fd5b80634994cc671461008257806357de26a4146100a057806361d027b3146100b6575b600080fd5b61008a6101a9565b6040516100979190610799565b60405180910390f35b6100a8610282565b604051908152602001610097565b6000546100d69073ffffffffffffffffffffffffffffffffffffffff1681565b60405173ffffffffffffffffffffffffffffffffffffffff9091168152602001610097565b61010e6101093660046107f3565b61033c565b005b6000546101389074010000000000000000000000000000000000000000900463ffffffff1681565b60405163ffffffff9091168152602001610097565b61010e61015b366004610820565b610487565b61019c6040518060400160405280600f81526020017f4554482f474f4c44204f7261636c65000000000000000000000000000000000081525081565b6040516100979190610856565b60408051600280825260608083018452926000929190602083019080368337019050509050735f4ec3df9cbd43714fe2740f5e3616155c5b8419816000815181106101f6576101f66108c2565b602002602001019073ffffffffffffffffffffffffffffffffffffffff16908173ffffffffffffffffffffffffffffffffffffffff168152505073214ed9da11d2fbe465a6fc601a91e62ebec1a0d681600181518110610258576102586108c2565b73ffffffffffffffffffffffffffffffffffffffff90921660209283029190910190910152919050565b670de0b6b3a764000060006102956101a9565b6040805180820182526001815260006020808301829052835180850190945260088085529084015283519394509092905b8181101561033457610322868683815181106102e4576102e46108c2565b60200260200101518684600281106102fe576102fe6108c2565b6020020151868560028110610315576103156108c2565b602002015160ff16610633565b955061032d81610920565b90506102c6565b505050505090565b6000546040517f521d4de900000000000000000000000000000000000000000000000000000000815233600482015273ffffffffffffffffffffffffffffffffffffffff9091169063521d4de990602401602060405180830381865afa1580156103aa573d6000803e3d6000fd5b505050506040513d601f19601f820116820180604052508101906103ce9190610958565b610404576040517f99e120bc00000000000000000000000000000000000000000000000000000000815260040160405180910390fd5b600080547fffffffffffffffff00000000ffffffffffffffffffffffffffffffffffffffff167401000000000000000000000000000000000000000063ffffffff8416908102919091179091556040519081527f4040b15332969bfd8b2035c1a701c8e13f2b5d62ce89b311684a601b2eb44e019060200160405180910390a150565b6000546040517f676a553e00000000000000000000000000000000000000000000000000000000815233600482015273ffffffffffffffffffffffffffffffffffffffff9091169063676a553e90602401602060405180830381865afa1580156104f5573d6000803e3d6000fd5b505050506040513d601f19601f820116820180604052508101906105199190610958565b1580156105b557506000546040517fe43581b800000000000000000000000000000000000000000000000000000000815233600482015273ffffffffffffffffffffffffffffffffffffffff9091169063e43581b890602401602060405180830381865afa15801561058f573d6000803e3d6000fd5b505050506040513d601f19601f820116820180604052508101906105b39190610958565b155b156105ec576040517fb05b9b9f00000000000000000000000000000000000000000000000000000000815260040160405180910390fd5b600080547fffffffffffffffffffffffff00000000000000000000000000000000000000001673ffffffffffffffffffffffffffffffffffffffff92909216919091179055565b60008060008060008773ffffffffffffffffffffffffffffffffffffffff1663feaf968c6040518163ffffffff1660e01b815260040160a060405180830381865afa158015610686573d6000803e3d6000fd5b505050506040513d601f19601f820116820180604052508101906106aa9190610999565b9450945050935093506000831315806106da57508069ffffffffffffffffffff168469ffffffffffffffffffff16115b8061070d575060005474010000000000000000000000000000000000000000900463ffffffff1661070b83426109e9565b115b15610744576040517fae19356300000000000000000000000000000000000000000000000000000000815260040160405180910390fd5b8260ff881660010361077b5761075b87600a610b22565b610765828c610b2e565b61076f9190610b45565b95505050505050610791565b8061078788600a610b22565b610765908c610b2e565b949350505050565b6020808252825182820181905260009190848201906040850190845b818110156107e757835173ffffffffffffffffffffffffffffffffffffffff16835292840192918401916001016107b5565b50909695505050505050565b60006020828403121561080557600080fd5b813563ffffffff8116811461081957600080fd5b9392505050565b60006020828403121561083257600080fd5b813573ffffffffffffffffffffffffffffffffffffffff8116811461081957600080fd5b600060208083528351808285015260005b8181101561088357858101830151858201604001528201610867565b5060006040828601015260407fffffffffffffffffffffffffffffffffffffffffffffffffffffffffffffffe0601f8301168501019250505092915050565b7f4e487b7100000000000000000000000000000000000000000000000000000000600052603260045260246000fd5b7f4e487b7100000000000000000000000000000000000000000000000000000000600052601160045260246000fd5b60007fffffffffffffffffffffffffffffffffffffffffffffffffffffffffffffffff8203610951576109516108f1565b5060010190565b60006020828403121561096a57600080fd5b8151801515811461081957600080fd5b805169ffffffffffffffffffff8116811461099457600080fd5b919050565b600080600080600060a086880312156109b157600080fd5b6109ba8661097a565b94506020860151935060408601519250606086015191506109dd6080870161097a565b90509295509295909350565b818103818111156109fc576109fc6108f1565b92915050565b600181815b80851115610a5b57817fffffffffffffffffffffffffffffffffffffffffffffffffffffffffffffffff04821115610a4157610a416108f1565b80851615610a4e57918102915b93841c9390800290610a07565b509250929050565b600082610a72575060016109fc565b81610a7f575060006109fc565b8160018114610a955760028114610a9f57610abb565b60019150506109fc565b60ff841115610ab057610ab06108f1565b50506001821b6109fc565b5060208310610133831016604e8410600b8410161715610ade575081810a6109fc565b610ae88383610a02565b807fffffffffffffffffffffffffffffffffffffffffffffffffffffffffffffffff04821115610b1a57610b1a6108f1565b029392505050565b60006108198383610a63565b80820281158282048414176109fc576109fc6108f1565b600082610b7b577f4e487b7100000000000000000000000000000000000000000000000000000000600052601260045260246000fd5b50049056fea2646970667358221220947a3cb7b5fa8b1bda92d272f00592c749fb6dada9719ec8269df001dbba97f464736f6c63430008110033",
  "devdoc": {
    "author": "Angle Labs, Inc.",
    "kind": "dev",
    "methods": {
      "changeStalePeriod(uint32)": {
        "params": {
          "_stalePeriod": "New stale period (in seconds)"
        }
      },
      "read()": {
        "details": "For instance if the out currency is EUR (and hence agEUR), then the base of the returned value is 10**18",
        "returns": {
          "quoteAmount": "The current rate between the in-currency and out-currency in the base of the out currency"
        }
      },
      "setTreasury(address)": {
        "details": "This function can be called by an approved `VaultManager` contract which can call this function after being requested to do so by a `treasury` contractIn some situations (like reactor contracts), the `VaultManager` may not directly be linked to the `oracle` contract and as such we may need governors to be able to call this function as well",
        "params": {
          "_treasury": "Address of the new treasury contract"
        }
      }
    },
    "title": "OracleETHXAUChainlink",
    "version": 1
  },
  "userdoc": {
    "kind": "user",
    "methods": {
      "changeStalePeriod(uint32)": {
        "notice": "Changes the stale period"
      },
      "circuitChainlink()": {
        "notice": "Array with the list of Chainlink feeds in the order in which they are read"
      },
      "read()": {
        "notice": "Reads the rate from the Chainlink circuit and other data provided"
      },
      "setTreasury(address)": {
        "notice": "Changes the treasury contract"
      },
      "stalePeriod()": {
        "notice": "Represent the maximum amount of time (in seconds) between each Chainlink update before the price feed is considered stale"
      },
      "treasury()": {
        "notice": "Reference to the `treasury` contract handling this `VaultManager`"
      }
    },
    "notice": "Gives the price of ETH in XAU in base 18",
    "version": 1
  },
  "storageLayout": {
    "storage": [
      {
        "astId": 27844,
        "contract": "contracts/oracle/implementations/mainnet/XAU/OracleETHXAUChainlink.sol:OracleETHXAUChainlink",
        "label": "treasury",
        "offset": 0,
        "slot": "0",
        "type": "t_contract(ITreasury)19724"
      },
      {
        "astId": 27847,
        "contract": "contracts/oracle/implementations/mainnet/XAU/OracleETHXAUChainlink.sol:OracleETHXAUChainlink",
        "label": "stalePeriod",
        "offset": 20,
        "slot": "0",
        "type": "t_uint32"
      }
    ],
    "types": {
      "t_contract(ITreasury)19724": {
        "encoding": "inplace",
        "label": "contract ITreasury",
        "numberOfBytes": "20"
      },
      "t_uint32": {
        "encoding": "inplace",
        "label": "uint32",
        "numberOfBytes": "4"
      }
    }
  }
}