{
  "address": "0x9a8A1D7Eac06871f60158f127704F3910613E3c3",
  "abi": [
    {
      "inputs": [],
      "name": "InsufficientAssets",
      "type": "error"
    },
    {
      "anonymous": false,
      "inputs": [
        {
          "indexed": true,
          "internalType": "address",
          "name": "owner",
          "type": "address"
        },
        {
          "indexed": true,
          "internalType": "address",
          "name": "spender",
          "type": "address"
        },
        {
          "indexed": false,
          "internalType": "uint256",
          "name": "value",
          "type": "uint256"
        }
      ],
      "name": "Approval",
      "type": "event"
    },
    {
      "anonymous": false,
      "inputs": [
        {
          "indexed": true,
          "internalType": "address",
          "name": "caller",
          "type": "address"
        },
        {
          "indexed": true,
          "internalType": "address",
          "name": "owner",
          "type": "address"
        },
        {
          "indexed": false,
          "internalType": "uint256",
          "name": "assets",
          "type": "uint256"
        },
        {
          "indexed": false,
          "internalType": "uint256",
          "name": "shares",
          "type": "uint256"
        }
      ],
      "name": "Deposit",
      "type": "event"
    },
    {
      "anonymous": false,
      "inputs": [
        {
          "indexed": false,
          "internalType": "uint8",
          "name": "version",
          "type": "uint8"
        }
      ],
      "name": "Initialized",
      "type": "event"
    },
    {
      "anonymous": false,
      "inputs": [
        {
          "indexed": true,
          "internalType": "address",
          "name": "from",
          "type": "address"
        },
        {
          "indexed": true,
          "internalType": "address",
          "name": "to",
          "type": "address"
        },
        {
          "indexed": false,
          "internalType": "uint256",
          "name": "value",
          "type": "uint256"
        }
      ],
      "name": "Transfer",
      "type": "event"
    },
    {
      "anonymous": false,
      "inputs": [
        {
          "indexed": true,
          "internalType": "address",
          "name": "caller",
          "type": "address"
        },
        {
          "indexed": true,
          "internalType": "address",
          "name": "receiver",
          "type": "address"
        },
        {
          "indexed": true,
          "internalType": "address",
          "name": "owner",
          "type": "address"
        },
        {
          "indexed": false,
          "internalType": "uint256",
          "name": "assets",
          "type": "uint256"
        },
        {
          "indexed": false,
          "internalType": "uint256",
          "name": "shares",
          "type": "uint256"
        }
      ],
      "name": "Withdraw",
      "type": "event"
    },
    {
      "inputs": [
        {
          "internalType": "address",
          "name": "owner",
          "type": "address"
        },
        {
          "internalType": "address",
          "name": "spender",
          "type": "address"
        }
      ],
      "name": "allowance",
      "outputs": [
        {
          "internalType": "uint256",
          "name": "",
          "type": "uint256"
        }
      ],
      "stateMutability": "view",
      "type": "function"
    },
    {
      "inputs": [
        {
          "internalType": "address",
          "name": "spender",
          "type": "address"
        },
        {
          "internalType": "uint256",
          "name": "amount",
          "type": "uint256"
        }
      ],
      "name": "approve",
      "outputs": [
        {
          "internalType": "bool",
          "name": "",
          "type": "bool"
        }
      ],
      "stateMutability": "nonpayable",
      "type": "function"
    },
    {
      "inputs": [],
      "name": "asset",
      "outputs": [
        {
          "internalType": "address",
          "name": "",
          "type": "address"
        }
      ],
      "stateMutability": "pure",
      "type": "function"
    },
    {
      "inputs": [],
      "name": "availableBalance",
      "outputs": [
        {
          "internalType": "uint256",
          "name": "",
          "type": "uint256"
        }
      ],
      "stateMutability": "view",
      "type": "function"
    },
    {
      "inputs": [
        {
          "internalType": "address",
          "name": "account",
          "type": "address"
        }
      ],
      "name": "balanceOf",
      "outputs": [
        {
          "internalType": "uint256",
          "name": "",
          "type": "uint256"
        }
      ],
      "stateMutability": "view",
      "type": "function"
    },
    {
      "inputs": [
        {
          "internalType": "address",
          "name": "from",
          "type": "address"
        }
      ],
      "name": "claimRewards",
      "outputs": [
        {
          "internalType": "uint256[]",
          "name": "",
          "type": "uint256[]"
        }
      ],
      "stateMutability": "nonpayable",
      "type": "function"
    },
    {
      "inputs": [
        {
          "internalType": "address",
          "name": "from",
          "type": "address"
        }
      ],
      "name": "claim_rewards",
      "outputs": [
        {
          "internalType": "uint256[]",
          "name": "",
          "type": "uint256[]"
        }
      ],
      "stateMutability": "nonpayable",
      "type": "function"
    },
    {
      "inputs": [
        {
          "internalType": "address",
          "name": "user",
          "type": "address"
        },
        {
          "internalType": "contract IERC20",
          "name": "_rewardToken",
          "type": "address"
        }
      ],
      "name": "claimableRewards",
      "outputs": [
        {
          "internalType": "uint256",
          "name": "",
          "type": "uint256"
        }
      ],
      "stateMutability": "view",
      "type": "function"
    },
    {
      "inputs": [
        {
          "internalType": "uint256",
          "name": "shares",
          "type": "uint256"
        }
      ],
      "name": "convertToAssets",
      "outputs": [
        {
          "internalType": "uint256",
          "name": "assets",
          "type": "uint256"
        }
      ],
      "stateMutability": "view",
      "type": "function"
    },
    {
      "inputs": [
        {
          "internalType": "uint256",
          "name": "assets",
          "type": "uint256"
        }
      ],
      "name": "convertToShares",
      "outputs": [
        {
          "internalType": "uint256",
          "name": "shares",
          "type": "uint256"
        }
      ],
      "stateMutability": "view",
      "type": "function"
    },
    {
      "inputs": [],
      "name": "decimals",
      "outputs": [
        {
          "internalType": "uint8",
          "name": "",
          "type": "uint8"
        }
      ],
      "stateMutability": "view",
      "type": "function"
    },
    {
      "inputs": [
        {
          "internalType": "address",
          "name": "spender",
          "type": "address"
        },
        {
          "internalType": "uint256",
          "name": "subtractedValue",
          "type": "uint256"
        }
      ],
      "name": "decreaseAllowance",
      "outputs": [
        {
          "internalType": "bool",
          "name": "",
          "type": "bool"
        }
      ],
      "stateMutability": "nonpayable",
      "type": "function"
    },
    {
      "inputs": [
        {
          "internalType": "uint256",
          "name": "assets",
          "type": "uint256"
        },
        {
          "internalType": "address",
          "name": "receiver",
          "type": "address"
        }
      ],
      "name": "deposit",
      "outputs": [
        {
          "internalType": "uint256",
          "name": "",
          "type": "uint256"
        }
      ],
      "stateMutability": "nonpayable",
      "type": "function"
    },
    {
      "inputs": [],
      "name": "gauge",
      "outputs": [
        {
          "internalType": "contract ILiquidityGauge",
          "name": "",
          "type": "address"
        }
      ],
      "stateMutability": "pure",
      "type": "function"
    },
    {
      "inputs": [
        {
          "internalType": "address",
          "name": "spender",
          "type": "address"
        },
        {
          "internalType": "uint256",
          "name": "addedValue",
          "type": "uint256"
        }
      ],
      "name": "increaseAllowance",
      "outputs": [
        {
          "internalType": "bool",
          "name": "",
          "type": "bool"
        }
      ],
      "stateMutability": "nonpayable",
      "type": "function"
    },
    {
      "inputs": [],
      "name": "initialize",
      "outputs": [],
      "stateMutability": "nonpayable",
      "type": "function"
    },
    {
      "inputs": [
        {
          "internalType": "contract IERC20",
          "name": "",
          "type": "address"
        }
      ],
      "name": "integral",
      "outputs": [
        {
          "internalType": "uint256",
          "name": "",
          "type": "uint256"
        }
      ],
      "stateMutability": "view",
      "type": "function"
    },
    {
      "inputs": [
        {
          "internalType": "contract IERC20",
          "name": "",
          "type": "address"
        },
        {
          "internalType": "address",
          "name": "",
          "type": "address"
        }
      ],
      "name": "integralOf",
      "outputs": [
        {
          "internalType": "uint256",
          "name": "",
          "type": "uint256"
        }
      ],
      "stateMutability": "view",
      "type": "function"
    },
    {
      "inputs": [
        {
          "internalType": "address",
          "name": "",
          "type": "address"
        }
      ],
      "name": "maxDeposit",
      "outputs": [
        {
          "internalType": "uint256",
          "name": "",
          "type": "uint256"
        }
      ],
      "stateMutability": "pure",
      "type": "function"
    },
    {
      "inputs": [
        {
          "internalType": "address",
          "name": "",
          "type": "address"
        }
      ],
      "name": "maxMint",
      "outputs": [
        {
          "internalType": "uint256",
          "name": "",
          "type": "uint256"
        }
      ],
      "stateMutability": "pure",
      "type": "function"
    },
    {
      "inputs": [
        {
          "internalType": "address",
          "name": "owner",
          "type": "address"
        }
      ],
      "name": "maxRedeem",
      "outputs": [
        {
          "internalType": "uint256",
          "name": "redeemable",
          "type": "uint256"
        }
      ],
      "stateMutability": "view",
      "type": "function"
    },
    {
      "inputs": [
        {
          "internalType": "address",
          "name": "owner",
          "type": "address"
        }
      ],
      "name": "maxWithdraw",
      "outputs": [
        {
          "internalType": "uint256",
          "name": "",
          "type": "uint256"
        }
      ],
      "stateMutability": "view",
      "type": "function"
    },
    {
      "inputs": [
        {
          "internalType": "uint256",
          "name": "shares",
          "type": "uint256"
        },
        {
          "internalType": "address",
          "name": "receiver",
          "type": "address"
        }
      ],
      "name": "mint",
      "outputs": [
        {
          "internalType": "uint256",
          "name": "",
          "type": "uint256"
        }
      ],
      "stateMutability": "nonpayable",
      "type": "function"
    },
    {
      "inputs": [],
      "name": "name",
      "outputs": [
        {
          "internalType": "string",
          "name": "",
          "type": "string"
        }
      ],
      "stateMutability": "view",
      "type": "function"
    },
    {
      "inputs": [
        {
          "internalType": "contract IERC20",
          "name": "",
          "type": "address"
        },
        {
          "internalType": "address",
          "name": "",
          "type": "address"
        }
      ],
      "name": "pendingRewardsOf",
      "outputs": [
        {
          "internalType": "uint256",
          "name": "",
          "type": "uint256"
        }
      ],
      "stateMutability": "view",
      "type": "function"
    },
    {
      "inputs": [],
      "name": "poolManager",
      "outputs": [
        {
          "internalType": "address",
          "name": "",
          "type": "address"
        }
      ],
      "stateMutability": "pure",
      "type": "function"
    },
    {
      "inputs": [
        {
          "internalType": "uint256",
          "name": "assets",
          "type": "uint256"
        }
      ],
      "name": "previewDeposit",
      "outputs": [
        {
          "internalType": "uint256",
          "name": "",
          "type": "uint256"
        }
      ],
      "stateMutability": "view",
      "type": "function"
    },
    {
      "inputs": [
        {
          "internalType": "uint256",
          "name": "shares",
          "type": "uint256"
        }
      ],
      "name": "previewMint",
      "outputs": [
        {
          "internalType": "uint256",
          "name": "",
          "type": "uint256"
        }
      ],
      "stateMutability": "view",
      "type": "function"
    },
    {
      "inputs": [
        {
          "internalType": "uint256",
          "name": "shares",
          "type": "uint256"
        }
      ],
      "name": "previewRedeem",
      "outputs": [
        {
          "internalType": "uint256",
          "name": "",
          "type": "uint256"
        }
      ],
      "stateMutability": "view",
      "type": "function"
    },
    {
      "inputs": [
        {
          "internalType": "uint256",
          "name": "assets",
          "type": "uint256"
        }
      ],
      "name": "previewWithdraw",
      "outputs": [
        {
          "internalType": "uint256",
          "name": "",
          "type": "uint256"
        }
      ],
      "stateMutability": "view",
      "type": "function"
    },
    {
      "inputs": [
        {
          "internalType": "uint256",
          "name": "shares",
          "type": "uint256"
        },
        {
          "internalType": "address",
          "name": "receiver",
          "type": "address"
        },
        {
          "internalType": "address",
          "name": "owner",
          "type": "address"
        }
      ],
      "name": "redeem",
      "outputs": [
        {
          "internalType": "uint256",
          "name": "",
          "type": "uint256"
        }
      ],
      "stateMutability": "nonpayable",
      "type": "function"
    },
    {
      "inputs": [],
      "name": "sanToken",
      "outputs": [
        {
          "internalType": "contract IERC20MetadataUpgradeable",
          "name": "",
          "type": "address"
        }
      ],
      "stateMutability": "pure",
      "type": "function"
    },
    {
      "inputs": [],
      "name": "stableMaster",
      "outputs": [
        {
          "internalType": "contract IStableMaster",
          "name": "",
          "type": "address"
        }
      ],
      "stateMutability": "pure",
      "type": "function"
    },
    {
      "inputs": [],
      "name": "symbol",
      "outputs": [
        {
          "internalType": "string",
          "name": "",
          "type": "string"
        }
      ],
      "stateMutability": "view",
      "type": "function"
    },
    {
      "inputs": [],
      "name": "totalAssets",
      "outputs": [
        {
          "internalType": "uint256",
          "name": "",
          "type": "uint256"
        }
      ],
      "stateMutability": "view",
      "type": "function"
    },
    {
      "inputs": [],
      "name": "totalSupply",
      "outputs": [
        {
          "internalType": "uint256",
          "name": "",
          "type": "uint256"
        }
      ],
      "stateMutability": "view",
      "type": "function"
    },
    {
      "inputs": [
        {
          "internalType": "address",
          "name": "to",
          "type": "address"
        },
        {
          "internalType": "uint256",
          "name": "amount",
          "type": "uint256"
        }
      ],
      "name": "transfer",
      "outputs": [
        {
          "internalType": "bool",
          "name": "",
          "type": "bool"
        }
      ],
      "stateMutability": "nonpayable",
      "type": "function"
    },
    {
      "inputs": [
        {
          "internalType": "address",
          "name": "from",
          "type": "address"
        },
        {
          "internalType": "address",
          "name": "to",
          "type": "address"
        },
        {
          "internalType": "uint256",
          "name": "amount",
          "type": "uint256"
        }
      ],
      "name": "transferFrom",
      "outputs": [
        {
          "internalType": "bool",
          "name": "",
          "type": "bool"
        }
      ],
      "stateMutability": "nonpayable",
      "type": "function"
    },
    {
      "inputs": [
        {
          "internalType": "uint256",
          "name": "assets",
          "type": "uint256"
        },
        {
          "internalType": "address",
          "name": "receiver",
          "type": "address"
        },
        {
          "internalType": "address",
          "name": "owner",
          "type": "address"
        }
      ],
      "name": "withdraw",
      "outputs": [
        {
          "internalType": "uint256",
          "name": "",
          "type": "uint256"
        }
      ],
      "stateMutability": "nonpayable",
      "type": "function"
    }
  ],
  "transactionHash": "0x3904322438fe020ce4f65b186680d3e68e39a171b1307f9027dd03b7d13a495a",
  "args": [],
  "numDeployments": 1,
  "solcInputHash": "a4185ef45e10f971f41e283046205063",
  "bytecode": "0x60806040523480156200001157600080fd5b50600054610100900460ff1615808015620000335750600054600160ff909116105b8062000063575062000050306200013d60201b620011c51760201c565b15801562000063575060005460ff166001145b620000cb5760405162461bcd60e51b815260206004820152602e60248201527f496e697469616c697a61626c653a20636f6e747261637420697320616c72656160448201526d191e481a5b9a5d1a585b1a5e995960921b606482015260840160405180910390fd5b6000805460ff191660011790558015620000ef576000805461ff0019166101001790555b801562000136576000805461ff0019169055604051600181527f7f26b83ff96e1f2b6a682f133852f6798a09c465da95921460cefb38474024989060200160405180910390a15b506200014c565b6001600160a01b03163b151590565b613ca6806200015c6000396000f3fe608060405234801561001057600080fd5b50600436106102ad5760003560e01c806394bf804d1161017b578063ba087652116100d8578063dc4c90d31161008c578063ec8a783311610071578063ec8a78331461062e578063ef5cfb8c14610659578063ef8b30f71461059557600080fd5b8063dc4c90d3146105ce578063dd62ed3e146105e857600080fd5b8063c6e6f592116100bd578063c6e6f59214610595578063ce96cb77146105a8578063d905777e146105bb57600080fd5b8063ba08765214610582578063c63d75b6146103ce57600080fd5b8063a9059cbb1161012f578063b18925af11610114578063b18925af14610542578063b3d7f6b91461055c578063b460af941461056f57600080fd5b8063a9059cbb14610527578063ab2f0e511461053a57600080fd5b806395d89b411161016057806395d89b41146104f2578063a457c2d7146104fa578063a6f19c841461050d57600080fd5b806394bf804d146104b457806395b586d1146104c757600080fd5b806338d52e0f116102295780636be9dcce116101dd57806370a08231116101c257806370a08231146104545780638129fc1c1461048a57806384e9bd7e1461049457600080fd5b80636be9dcce1461042e5780636e553f651461044157600080fd5b8063402d267d1161020e578063402d267d146103ce5780634cdad506146104015780636ac5dc461461041457600080fd5b806338d52e0f1461038057806339509351146103bb57600080fd5b80630a28a4771161028057806318160ddd1161026557806318160ddd1461034b57806323b872dd14610353578063313ce5671461036657600080fd5b80630a28a477146103185780630a5410da1461032b57600080fd5b806301e1d114146102b257806306fdde03146102cd57806307a2d13a146102e2578063095ea7b3146102f5575b600080fd5b6102ba61066c565b6040519081526020015b60405180910390f35b6102d5610720565b6040516102c4919061331c565b6102ba6102f036600461336d565b6107b2565b6103086103033660046133a8565b6107c5565b60405190151581526020016102c4565b6102ba61032636600461336d565b6107dd565b6102ba6103393660046133d4565b60976020526000908152604090205481565b6035546102ba565b6103086103613660046133f1565b61081e565b61036e610844565b60405160ff90911681526020016102c4565b73853d955acef822db058eb8505911ed77f175b99e5b60405173ffffffffffffffffffffffffffffffffffffffff90911681526020016102c4565b6103086103c93660046133a8565b6108c9565b6102ba6103dc3660046133d4565b507fffffffffffffffffffffffffffffffffffffffffffffffffffffffffffffffff90565b6102ba61040f36600461336d565b610915565b735addc89785d75c86ab939e9e15bfbbb7fc086a87610396565b6102ba61043c366004613432565b610941565b6102ba61044f36600461346b565b610ab8565b6102ba6104623660046133d4565b73ffffffffffffffffffffffffffffffffffffffff1660009081526033602052604090205490565b610492610ad2565b005b6104a76104a23660046133d4565b610eb6565b6040516102c49190613490565b6102ba6104c236600461346b565b610ecb565b6102ba6104d5366004613432565b609960209081526000928352604080842090915290825290205481565b6102d5610ee5565b6103086105083660046133a8565b610ef4565b73b40432243e4f317ce287398e72ab8f0312fc2fe8610396565b6103086105353660046133a8565b610fd0565b6102ba610fde565b73b3b209bb213a5da5b947c56f2c770b3e1015f1fe610396565b6102ba61056a36600461336d565b6110b2565b6102ba61057d3660046134d4565b6110bf565b6102ba6105903660046134d4565b6110e2565b6102ba6105a336600461336d565b611134565b6102ba6105b63660046133d4565b61113f565b6102ba6105c93660046133d4565b611180565b736b4ee7352406707003bc6f6b96595fd35925af48610396565b6102ba6105f6366004613432565b73ffffffffffffffffffffffffffffffffffffffff918216600090815260346020908152604080832093909416825291909152205490565b6102ba61063c366004613432565b609860209081526000928352604080842090915290825290205481565b6104a76106673660046133d4565b6111ba565b600061071b73b40432243e4f317ce287398e72ab8f0312fc2fe86040517f70a0823100000000000000000000000000000000000000000000000000000000815230600482015273ffffffffffffffffffffffffffffffffffffffff91909116906370a0823190602401602060405180830381865afa1580156106f2573d6000803e3d6000fd5b505050506040513d601f19601f820116820180604052508101906107169190613516565b6111e1565b905090565b60606036805461072f9061352f565b80601f016020809104026020016040519081016040528092919081815260200182805461075b9061352f565b80156107a85780601f1061077d576101008083540402835291602001916107a8565b820191906000526020600020905b81548152906001019060200180831161078b57829003601f168201915b5050505050905090565b60006107bf826000611225565b92915050565b6000336107d3818585611247565b5060019392505050565b60006107e7610fde565b82111561081557507fffffffffffffffffffffffffffffffffffffffffffffffffffffffffffffffff919050565b6107bf826113fa565b60003361082c85828561143f565b610837858585611516565b60019150505b9392505050565b600073853d955acef822db058eb8505911ed77f175b99e73ffffffffffffffffffffffffffffffffffffffff1663313ce5676040518163ffffffff1660e01b8152600401602060405180830381865afa1580156108a5573d6000803e3d6000fd5b505050506040513d601f19601f8201168201806040525081019061071b919061357d565b33600081815260346020908152604080832073ffffffffffffffffffffffffffffffffffffffff871684529091528120549091906107d390829086906109109087906135cf565b611247565b600080610921836111e1565b905061092b610fde565b8111156107bf5750600092915050565b50919050565b60008061094d60355490565b90506000816109815773ffffffffffffffffffffffffffffffffffffffff84166000908152609760205260409020546109df565b816ec097ce7bc90715b34b9f100000000061099b866117d4565b6109a591906135e7565b6109af9190613653565b73ffffffffffffffffffffffffffffffffffffffff85166000908152609760205260409020546109df91906135cf565b73ffffffffffffffffffffffffffffffffffffffff8086166000908152609960209081526040808320938a16835292905290812054919250906ec097ce7bc90715b34b9f100000000090610a33908461368e565b73ffffffffffffffffffffffffffffffffffffffff8816600090815260336020526040902054610a6391906135e7565b610a6d9190613653565b73ffffffffffffffffffffffffffffffffffffffff8087166000908152609860209081526040808320938b1683529290522054909150610aae9082906135cf565b9695505050505050565b600080610ac484611134565b905061083d33848684611883565b600054610100900460ff1615808015610af25750600054600160ff909116105b80610b0c5750303b158015610b0c575060005460ff166001145b610b9d576040517f08c379a000000000000000000000000000000000000000000000000000000000815260206004820152602e60248201527f496e697469616c697a61626c653a20636f6e747261637420697320616c72656160448201527f647920696e697469616c697a656400000000000000000000000000000000000060648201526084015b60405180910390fd5b600080547fffffffffffffffffffffffffffffffffffffffffffffffffffffffffffffff001660011790558015610bfb57600080547fffffffffffffffffffffffffffffffffffffffffffffffffffffffffffff00ff166101001790555b610d9173b3b209bb213a5da5b947c56f2c770b3e1015f1fe73ffffffffffffffffffffffffffffffffffffffff166306fdde036040518163ffffffff1660e01b8152600401600060405180830381865afa158015610c5d573d6000803e3d6000fd5b505050506040513d6000823e601f3d9081017fffffffffffffffffffffffffffffffffffffffffffffffffffffffffffffffe0168201604052610ca3919081019061374d565b604051602001610cb391906137ff565b604051602081830303815290604052610cdd73b3b209bb213a5da5b947c56f2c770b3e1015f1fe90565b73ffffffffffffffffffffffffffffffffffffffff166395d89b416040518163ffffffff1660e01b8152600401600060405180830381865afa158015610d27573d6000803e3d6000fd5b505050506040513d6000823e601f3d9081017fffffffffffffffffffffffffffffffffffffffffffffffffffffffffffffffe0168201604052610d6d919081019061374d565b604051602001610d7d919061386b565b6040516020818303038152906040526119c7565b610dfd735addc89785d75c86ab939e9e15bfbbb7fc086a877fffffffffffffffffffffffffffffffffffffffffffffffffffffffffffffffff73853d955acef822db058eb8505911ed77f175b99e5b73ffffffffffffffffffffffffffffffffffffffff169190611a8a565b610e5073b40432243e4f317ce287398e72ab8f0312fc2fe87fffffffffffffffffffffffffffffffffffffffffffffffffffffffffffffffff73b3b209bb213a5da5b947c56f2c770b3e1015f1fe610de0565b8015610eb357600080547fffffffffffffffffffffffffffffffffffffffffffffffffffffffffffff00ff169055604051600181527f7f26b83ff96e1f2b6a682f133852f6798a09c465da95921460cefb38474024989060200160405180910390a15b50565b6060610ec0611c06565b6107bf826001611edd565b600080610ed7846110b2565b905061083d33848387611883565b60606037805461072f9061352f565b33600081815260346020908152604080832073ffffffffffffffffffffffffffffffffffffffff8716845290915281205490919083811015610fb8576040517f08c379a000000000000000000000000000000000000000000000000000000000815260206004820152602560248201527f45524332303a2064656372656173656420616c6c6f77616e63652062656c6f7760448201527f207a65726f0000000000000000000000000000000000000000000000000000006064820152608401610b94565b610fc58286868403611247565b506001949350505050565b6000336107d3818585611516565b600073853d955acef822db058eb8505911ed77f175b99e73ffffffffffffffffffffffffffffffffffffffff166370a08231736b4ee7352406707003bc6f6b96595fd35925af486040517fffffffff0000000000000000000000000000000000000000000000000000000060e084901b16815273ffffffffffffffffffffffffffffffffffffffff9091166004820152602401602060405180830381865afa15801561108e573d6000803e3d6000fd5b505050506040513d601f19601f8201168201806040525081019061071b9190613516565b60006107bf826001611225565b6000806110cb856107dd565b90506110da33858588856123ff565b949350505050565b6000806110ee85610915565b905080611127576040517f96d8043300000000000000000000000000000000000000000000000000000000815260040160405180910390fd5b6110da33858584896123ff565b60006107bf826125bd565b60006107bf6111736107168473ffffffffffffffffffffffffffffffffffffffff1660009081526033602052604090205490565b61117b610fde565b6125e0565b73ffffffffffffffffffffffffffffffffffffffff81166000908152603360205260408120546107bf9061117b6111b5610fde565b6113fa565b60606107bf82610eb6565b73ffffffffffffffffffffffffffffffffffffffff163b151590565b60008060006111ee6125f6565b90925090506110da8261120583633b9aca0061368e565b61120f91906135e7565b85906b033b2e3c9fd0803ce80000006000612832565b6000806112306125f6565b5090506110da8482670de0b6b3a764000086612832565b73ffffffffffffffffffffffffffffffffffffffff83166112e9576040517f08c379a0000000000000000000000000000000000000000000000000000000008152602060048201526024808201527f45524332303a20617070726f76652066726f6d20746865207a65726f2061646460448201527f72657373000000000000000000000000000000000000000000000000000000006064820152608401610b94565b73ffffffffffffffffffffffffffffffffffffffff821661138c576040517f08c379a000000000000000000000000000000000000000000000000000000000815260206004820152602260248201527f45524332303a20617070726f766520746f20746865207a65726f20616464726560448201527f73730000000000000000000000000000000000000000000000000000000000006064820152608401610b94565b73ffffffffffffffffffffffffffffffffffffffff83811660008181526034602090815260408083209487168084529482529182902085905590518481527f8c5be1e5ebec7d5bd14f71427d1e84f3dd0314c0f7b2291e5b200ac8c7c3b925910160405180910390a3505050565b60008060006114076125f6565b90925090506110da6b033b2e3c9fd0803ce80000008361142b84633b9aca0061368e565b61143591906135e7565b8691906001612832565b73ffffffffffffffffffffffffffffffffffffffff8381166000908152603460209081526040808320938616835292905220547fffffffffffffffffffffffffffffffffffffffffffffffffffffffffffffffff81146115105781811015611503576040517f08c379a000000000000000000000000000000000000000000000000000000000815260206004820152601d60248201527f45524332303a20696e73756666696369656e7420616c6c6f77616e63650000006044820152606401610b94565b6115108484848403611247565b50505050565b73ffffffffffffffffffffffffffffffffffffffff83166115b9576040517f08c379a000000000000000000000000000000000000000000000000000000000815260206004820152602560248201527f45524332303a207472616e736665722066726f6d20746865207a65726f20616460448201527f64726573730000000000000000000000000000000000000000000000000000006064820152608401610b94565b73ffffffffffffffffffffffffffffffffffffffff821661165c576040517f08c379a000000000000000000000000000000000000000000000000000000000815260206004820152602360248201527f45524332303a207472616e7366657220746f20746865207a65726f206164647260448201527f65737300000000000000000000000000000000000000000000000000000000006064820152608401610b94565b61166783838361288f565b73ffffffffffffffffffffffffffffffffffffffff83166000908152603360205260409020548181101561171d576040517f08c379a000000000000000000000000000000000000000000000000000000000815260206004820152602660248201527f45524332303a207472616e7366657220616d6f756e742065786365656473206260448201527f616c616e636500000000000000000000000000000000000000000000000000006064820152608401610b94565b73ffffffffffffffffffffffffffffffffffffffff8085166000908152603360205260408082208585039055918516815290812080548492906117619084906135cf565b925050819055508273ffffffffffffffffffffffffffffffffffffffff168473ffffffffffffffffffffffffffffffffffffffff167fddf252ad1be2c89b69c2b068fc378daa952ba7f163c4a11628f55a4df523b3ef846040516117c791815260200190565b60405180910390a3611510565b600073b40432243e4f317ce287398e72ab8f0312fc2fe86040517f33fd6f7400000000000000000000000000000000000000000000000000000000815230600482015273ffffffffffffffffffffffffffffffffffffffff848116602483015291909116906333fd6f7490604401602060405180830381865afa15801561185f573d6000803e3d6000fd5b505050506040513d601f19601f820116820180604052508101906107bf9190613516565b6118a373853d955acef822db058eb8505911ed77f175b99e853085612a45565b604080517f2e2d298400000000000000000000000000000000000000000000000000000000815260048101849052306024820152736b4ee7352406707003bc6f6b96595fd35925af4860448201529051735addc89785d75c86ab939e9e15bfbbb7fc086a8791632e2d298491606480830192600092919082900301818387803b15801561192f57600080fd5b505af1158015611943573d6000803e3d6000fd5b505050506119518382612aa3565b8273ffffffffffffffffffffffffffffffffffffffff168473ffffffffffffffffffffffffffffffffffffffff167fdcbc1c05240f31ff3ad067ef1ee35ce4997762752e3a095284754544f4c709d784846040516119b9929190918252602082015260400190565b60405180910390a350505050565b600054610100900460ff16611a5e576040517f08c379a000000000000000000000000000000000000000000000000000000000815260206004820152602b60248201527f496e697469616c697a61626c653a20636f6e7472616374206973206e6f74206960448201527f6e697469616c697a696e670000000000000000000000000000000000000000006064820152608401610b94565b8151611a71906036906020850190613257565b508051611a85906037906020840190613257565b505050565b6040517fdd62ed3e00000000000000000000000000000000000000000000000000000000815230600482015273ffffffffffffffffffffffffffffffffffffffff8381166024830152600091839186169063dd62ed3e90604401602060405180830381865afa158015611b01573d6000803e3d6000fd5b505050506040513d601f19601f82011682018060405250810190611b259190613516565b611b2f91906135cf565b60405173ffffffffffffffffffffffffffffffffffffffff85166024820152604481018290529091506115109085907f095ea7b300000000000000000000000000000000000000000000000000000000906064015b604080517fffffffffffffffffffffffffffffffffffffffffffffffffffffffffffffffe08184030181529190526020810180517bffffffffffffffffffffffffffffffffffffffffffffffffffffffff167fffffffff0000000000000000000000000000000000000000000000000000000090931692909217909152612bcf565b6000611c10612cdb565b805190915060008167ffffffffffffffff811115611c3057611c306136a5565b604051908082528060200260200182016040528015611c59578160200160208202803683370190505b50905060005b82811015611d4057838181518110611c7957611c796138b0565b60209081029190910101516040517f70a0823100000000000000000000000000000000000000000000000000000000815230600482015273ffffffffffffffffffffffffffffffffffffffff909116906370a0823190602401602060405180830381865afa158015611cef573d6000803e3d6000fd5b505050506040513d601f19601f82011682018060405250810190611d139190613516565b828281518110611d2557611d256138b0565b6020908102919091010152611d39816138df565b9050611c5f565b5073b40432243e4f317ce287398e72ab8f0312fc2fe86040517f9faceb1b0000000000000000000000000000000000000000000000000000000081523060048201526000602482015273ffffffffffffffffffffffffffffffffffffffff9190911690639faceb1b90604401600060405180830381600087803b158015611dc657600080fd5b505af1158015611dda573d6000803e3d6000fd5b5050505060005b82811015611510576000848281518110611dfd57611dfd6138b0565b602002602001015190506000838381518110611e1b57611e1b6138b0565b60209081029190910101516040517f70a0823100000000000000000000000000000000000000000000000000000000815230600482015273ffffffffffffffffffffffffffffffffffffffff8416906370a0823190602401602060405180830381865afa158015611e90573d6000803e3d6000fd5b505050506040513d601f19601f82011682018060405250810190611eb49190613516565b611ebe919061368e565b9050611eca8282612d62565b505080611ed6906138df565b9050611de1565b60606000611ee9612cdb565b80519091508067ffffffffffffffff811115611f0757611f076136a5565b604051908082528060200260200182016040528015611f30578160200160208202803683370190505b50925073ffffffffffffffffffffffffffffffffffffffff8516611f555750506107bf565b73ffffffffffffffffffffffffffffffffffffffff8516600090815260336020526040812054905b828110156123f557600060986000868481518110611f9d57611f9d6138b0565b602002602001015173ffffffffffffffffffffffffffffffffffffffff1673ffffffffffffffffffffffffffffffffffffffff16815260200190815260200160002060008973ffffffffffffffffffffffffffffffffffffffff1673ffffffffffffffffffffffffffffffffffffffff168152602001908152602001600020546ec097ce7bc90715b34b9f100000000060996000888681518110612043576120436138b0565b602002602001015173ffffffffffffffffffffffffffffffffffffffff1673ffffffffffffffffffffffffffffffffffffffff16815260200190815260200160002060008b73ffffffffffffffffffffffffffffffffffffffff1673ffffffffffffffffffffffffffffffffffffffff16815260200190815260200160002054609760008987815181106120d9576120d96138b0565b602002602001015173ffffffffffffffffffffffffffffffffffffffff1673ffffffffffffffffffffffffffffffffffffffff16815260200190815260200160002054612126919061368e565b61213090866135e7565b61213a9190613653565b61214491906135cf565b905080156122f15786156122365760006098600087858151811061216a5761216a6138b0565b602002602001015173ffffffffffffffffffffffffffffffffffffffff1673ffffffffffffffffffffffffffffffffffffffff16815260200190815260200160002060008a73ffffffffffffffffffffffffffffffffffffffff1673ffffffffffffffffffffffffffffffffffffffff168152602001908152602001600020819055506122318882878581518110612204576122046138b0565b602002602001015173ffffffffffffffffffffffffffffffffffffffff16612dd89092919063ffffffff16565b6122d1565b806098600087858151811061224d5761224d6138b0565b602002602001015173ffffffffffffffffffffffffffffffffffffffff1673ffffffffffffffffffffffffffffffffffffffff16815260200190815260200160002060008a73ffffffffffffffffffffffffffffffffffffffff1673ffffffffffffffffffffffffffffffffffffffff168152602001908152602001600020819055505b808683815181106122e4576122e46138b0565b6020026020010181815250505b60976000868481518110612307576123076138b0565b602002602001015173ffffffffffffffffffffffffffffffffffffffff1673ffffffffffffffffffffffffffffffffffffffff1681526020019081526020016000205460996000878581518110612360576123606138b0565b602002602001015173ffffffffffffffffffffffffffffffffffffffff1673ffffffffffffffffffffffffffffffffffffffff16815260200190815260200160002060008a73ffffffffffffffffffffffffffffffffffffffff1673ffffffffffffffffffffffffffffffffffffffff1681526020019081526020016000208190555050806123ee906138df565b9050611f7d565b5050505092915050565b8273ffffffffffffffffffffffffffffffffffffffff168573ffffffffffffffffffffffffffffffffffffffff161461243d5761243d83868361143f565b6124478382612e2e565b604080517f23e103a80000000000000000000000000000000000000000000000000000000081526004810183905230602482018190526044820152736b4ee7352406707003bc6f6b96595fd35925af4860648201529051735addc89785d75c86ab939e9e15bfbbb7fc086a87916323e103a891608480830192600092919082900301818387803b1580156124da57600080fd5b505af11580156124ee573d6000803e3d6000fd5b5050505061252f848361251273853d955acef822db058eb8505911ed77f175b99e90565b73ffffffffffffffffffffffffffffffffffffffff169190612dd8565b8273ffffffffffffffffffffffffffffffffffffffff168473ffffffffffffffffffffffffffffffffffffffff168673ffffffffffffffffffffffffffffffffffffffff167ffbde797d201c681b91056529119e0b02407c7bb96a4a2c75c01fc9667232c8db85856040516125ae929190918252602082015260400190565b60405180910390a45050505050565b6000806125c86125f6565b50905061083d83670de0b6b3a7640000836000612832565b60008183106125ef578161083d565b5090919050565b6000808080735addc89785d75c86ab939e9e15bfbbb7fc086a8773ffffffffffffffffffffffffffffffffffffffff1663ba8b7223736b4ee7352406707003bc6f6b96595fd35925af486040517fffffffff0000000000000000000000000000000000000000000000000000000060e084901b16815273ffffffffffffffffffffffffffffffffffffffff9091166004820152602401600060405180830381865afa1580156126a9573d6000803e3d6000fd5b505050506040513d6000823e601f3d9081017fffffffffffffffffffffffffffffffffffffffffffffffffffffffffffffffe01682016040526126ef9190810190613aa8565b509750509650505050505080600001514214158015612712575060008160200151115b1561281a57600073b3b209bb213a5da5b947c56f2c770b3e1015f1fe73ffffffffffffffffffffffffffffffffffffffff166318160ddd6040518163ffffffff1660e01b8152600401602060405180830381865afa158015612778573d6000803e3d6000fd5b505050506040513d601f19601f8201168201806040525081019061279c9190613516565b90508015612818578160400151826020015111156127e85780670de0b6b3a764000083604001516127cd91906135e7565b6127d79190613653565b6127e190846135cf565b9250612818565b80670de0b6b3a7640000836020015161280191906135e7565b61280b9190613653565b61281590846135cf565b92505b505b60c00151909367ffffffffffffffff90911692509050565b600080612840868686613027565b9050600183600281111561285657612856613c03565b14801561287357506000848061286e5761286e613624565b868809115b15612886576128836001826135cf565b90505b95945050505050565b73ffffffffffffffffffffffffffffffffffffffff831615156128b0611c06565b6128ba8482611edd565b506128c58382611edd565b5073ffffffffffffffffffffffffffffffffffffffff83166129805773b40432243e4f317ce287398e72ab8f0312fc2fe86040517f38d07436000000000000000000000000000000000000000000000000000000008152600481018490526000602482015273ffffffffffffffffffffffffffffffffffffffff91909116906338d0743690604401600060405180830381600087803b15801561296757600080fd5b505af115801561297b573d6000803e3d6000fd5b505050505b73ffffffffffffffffffffffffffffffffffffffff84166115105773b40432243e4f317ce287398e72ab8f0312fc2fe86040517f83df6747000000000000000000000000000000000000000000000000000000008152600481018490523060248201526000604482015273ffffffffffffffffffffffffffffffffffffffff91909116906383df674790606401600060405180830381600087803b158015612a2757600080fd5b505af1158015612a3b573d6000803e3d6000fd5b5050505050505050565b60405173ffffffffffffffffffffffffffffffffffffffff808516602483015283166044820152606481018290526115109085907f23b872dd0000000000000000000000000000000000000000000000000000000090608401611b84565b73ffffffffffffffffffffffffffffffffffffffff8216612b20576040517f08c379a000000000000000000000000000000000000000000000000000000000815260206004820152601f60248201527f45524332303a206d696e7420746f20746865207a65726f2061646472657373006044820152606401610b94565b612b2c6000838361288f565b8060356000828254612b3e91906135cf565b909155505073ffffffffffffffffffffffffffffffffffffffff821660009081526033602052604081208054839290612b789084906135cf565b909155505060405181815273ffffffffffffffffffffffffffffffffffffffff8316906000907fddf252ad1be2c89b69c2b068fc378daa952ba7f163c4a11628f55a4df523b3ef9060200160405180910390a35050565b6000612c31826040518060400160405280602081526020017f5361666545524332303a206c6f772d6c6576656c2063616c6c206661696c65648152508573ffffffffffffffffffffffffffffffffffffffff166130f59092919063ffffffff16565b805190915015611a855780806020019051810190612c4f9190613c32565b611a85576040517f08c379a000000000000000000000000000000000000000000000000000000000815260206004820152602a60248201527f5361666545524332303a204552433230206f7065726174696f6e20646964206e60448201527f6f742073756363656564000000000000000000000000000000000000000000006064820152608401610b94565b604080516001808252818301909252606091602080830190803683370190505090507331429d1856ad1377a8a0079410b297e1a9e214c281600081518110612d2557612d256138b0565b602002602001019073ffffffffffffffffffffffffffffffffffffffff16908173ffffffffffffffffffffffffffffffffffffffff168152505090565b6000612d6d60355490565b90508015611a855780612d8f6ec097ce7bc90715b34b9f1000000000846135e7565b612d999190613653565b73ffffffffffffffffffffffffffffffffffffffff841660009081526097602052604081208054909190612dce9084906135cf565b9091555050505050565b60405173ffffffffffffffffffffffffffffffffffffffff8316602482015260448101829052611a859084907fa9059cbb0000000000000000000000000000000000000000000000000000000090606401611b84565b73ffffffffffffffffffffffffffffffffffffffff8216612ed1576040517f08c379a000000000000000000000000000000000000000000000000000000000815260206004820152602160248201527f45524332303a206275726e2066726f6d20746865207a65726f2061646472657360448201527f73000000000000000000000000000000000000000000000000000000000000006064820152608401610b94565b612edd8260008361288f565b73ffffffffffffffffffffffffffffffffffffffff821660009081526033602052604090205481811015612f93576040517f08c379a000000000000000000000000000000000000000000000000000000000815260206004820152602260248201527f45524332303a206275726e20616d6f756e7420657863656564732062616c616e60448201527f63650000000000000000000000000000000000000000000000000000000000006064820152608401610b94565b73ffffffffffffffffffffffffffffffffffffffff83166000908152603360205260408120838303905560358054849290612fcf90849061368e565b909155505060405182815260009073ffffffffffffffffffffffffffffffffffffffff8516907fddf252ad1be2c89b69c2b068fc378daa952ba7f163c4a11628f55a4df523b3ef9060200160405180910390a3505050565b600080807fffffffffffffffffffffffffffffffffffffffffffffffffffffffffffffffff85870985870292508281108382030391505080600014156130805783828161307657613076613624565b049250505061083d565b80841161308c57600080fd5b60008486880960026001871981018816978890046003810283188082028403028082028403028082028403028082028403028082028403029081029092039091026000889003889004909101858311909403939093029303949094049190911702949350505050565b60606110da84846000858573ffffffffffffffffffffffffffffffffffffffff85163b61317e576040517f08c379a000000000000000000000000000000000000000000000000000000000815260206004820152601d60248201527f416464726573733a2063616c6c20746f206e6f6e2d636f6e74726163740000006044820152606401610b94565b6000808673ffffffffffffffffffffffffffffffffffffffff1685876040516131a79190613c54565b60006040518083038185875af1925050503d80600081146131e4576040519150601f19603f3d011682016040523d82523d6000602084013e6131e9565b606091505b50915091506131f9828286613204565b979650505050505050565b6060831561321357508161083d565b8251156132235782518084602001fd5b816040517f08c379a0000000000000000000000000000000000000000000000000000000008152600401610b94919061331c565b8280546132639061352f565b90600052602060002090601f01602090048101928261328557600085556132cb565b82601f1061329e57805160ff19168380011785556132cb565b828001600101855582156132cb579182015b828111156132cb5782518255916020019190600101906132b0565b506132d79291506132db565b5090565b5b808211156132d757600081556001016132dc565b60005b8381101561330b5781810151838201526020016132f3565b838111156115105750506000910152565b602081526000825180602084015261333b8160408501602087016132f0565b601f017fffffffffffffffffffffffffffffffffffffffffffffffffffffffffffffffe0169190910160400192915050565b60006020828403121561337f57600080fd5b5035919050565b73ffffffffffffffffffffffffffffffffffffffff81168114610eb357600080fd5b600080604083850312156133bb57600080fd5b82356133c681613386565b946020939093013593505050565b6000602082840312156133e657600080fd5b813561083d81613386565b60008060006060848603121561340657600080fd5b833561341181613386565b9250602084013561342181613386565b929592945050506040919091013590565b6000806040838503121561344557600080fd5b823561345081613386565b9150602083013561346081613386565b809150509250929050565b6000806040838503121561347e57600080fd5b82359150602083013561346081613386565b6020808252825182820181905260009190848201906040850190845b818110156134c8578351835292840192918401916001016134ac565b50909695505050505050565b6000806000606084860312156134e957600080fd5b8335925060208401356134fb81613386565b9150604084013561350b81613386565b809150509250925092565b60006020828403121561352857600080fd5b5051919050565b600181811c9082168061354357607f821691505b6020821081141561093b577f4e487b7100000000000000000000000000000000000000000000000000000000600052602260045260246000fd5b60006020828403121561358f57600080fd5b815160ff8116811461083d57600080fd5b7f4e487b7100000000000000000000000000000000000000000000000000000000600052601160045260246000fd5b600082198211156135e2576135e26135a0565b500190565b6000817fffffffffffffffffffffffffffffffffffffffffffffffffffffffffffffffff048311821515161561361f5761361f6135a0565b500290565b7f4e487b7100000000000000000000000000000000000000000000000000000000600052601260045260246000fd5b600082613689577f4e487b7100000000000000000000000000000000000000000000000000000000600052601260045260246000fd5b500490565b6000828210156136a0576136a06135a0565b500390565b7f4e487b7100000000000000000000000000000000000000000000000000000000600052604160045260246000fd5b604051610100810167ffffffffffffffff811182821017156136f8576136f86136a5565b60405290565b604051601f82017fffffffffffffffffffffffffffffffffffffffffffffffffffffffffffffffe016810167ffffffffffffffff81118282101715613745576137456136a5565b604052919050565b60006020828403121561375f57600080fd5b815167ffffffffffffffff8082111561377757600080fd5b818401915084601f83011261378b57600080fd5b81518181111561379d5761379d6136a5565b6137ce60207fffffffffffffffffffffffffffffffffffffffffffffffffffffffffffffffe0601f840116016136fe565b91508082528560208285010111156137e557600080fd5b6137f68160208401602086016132f0565b50949350505050565b7f416e676c652000000000000000000000000000000000000000000000000000008152600082516138378160068501602087016132f0565b7f20577261707065720000000000000000000000000000000000000000000000006006939091019283015250600e01919050565b7f61672d777261707065722d0000000000000000000000000000000000000000008152600082516138a381600b8501602087016132f0565b91909101600b0192915050565b7f4e487b7100000000000000000000000000000000000000000000000000000000600052603260045260246000fd5b60007fffffffffffffffffffffffffffffffffffffffffffffffffffffffffffffffff821415613911576139116135a0565b5060010190565b805167ffffffffffffffff8116811461393057600080fd5b919050565b600082601f83011261394657600080fd5b8151602067ffffffffffffffff821115613962576139626136a5565b8160051b6139718282016136fe565b928352848101820192828101908785111561398b57600080fd5b83870192505b848310156131f9576139a283613918565b82529183019190830190613991565b600061010082840312156139c457600080fd5b6139cc6136d4565b9050815167ffffffffffffffff808211156139e657600080fd5b6139f285838601613935565b83526020840151915080821115613a0857600080fd5b613a1485838601613935565b60208401526040840151915080821115613a2d57600080fd5b613a3985838601613935565b60408401526060840151915080821115613a5257600080fd5b50613a5f84828501613935565b606083015250613a7160808301613918565b6080820152613a8260a08301613918565b60a0820152613a9360c08301613918565b60c082015260e082015160e082015292915050565b6000806000806000806000806000898b03610200811215613ac857600080fd5b8a51613ad381613386565b60208c0151909a50613ae481613386565b60408c0151909950613af581613386565b60608c0151909850613b0681613386565b8097505060808b0151955060a08b0151945060c08b01519350610100807fffffffffffffffffffffffffffffffffffffffffffffffffffffffffffffff2083011215613b5157600080fd5b613b596136d4565b60e08d01518152908c015160208201526101208c015160408201526101408c015160608201529050613b8e6101608c01613918565b6080820152613ba06101808c01613918565b60a0820152613bb26101a08c01613918565b60c0820152613bc46101c08c01613918565b60e08201526101e08b015190925067ffffffffffffffff811115613be757600080fd5b613bf38c828d016139b1565b9150509295985092959850929598565b7f4e487b7100000000000000000000000000000000000000000000000000000000600052602160045260246000fd5b600060208284031215613c4457600080fd5b8151801515811461083d57600080fd5b60008251613c668184602087016132f0565b919091019291505056fea264697066735822122057e131c5b121e18802f12f717474a87a7d7ce14c893ac5f9fa72e396102a9ba564736f6c634300080c0033",
  "devdoc": {
    "author": "Angle Labs, Inc.",
    "details": "FRAX stakable implementation",
    "kind": "dev",
    "methods": {
      "allowance(address,address)": {
        "details": "See {IERC20-allowance}."
      },
      "approve(address,uint256)": {
        "details": "See {IERC20-approve}. NOTE: If `amount` is the maximum `uint256`, the allowance is not updated on `transferFrom`. This is semantically equivalent to an infinite approval. Requirements: - `spender` cannot be the zero address."
      },
      "asset()": {
        "details": "Returns the address of the underlying token used for the Vault for accounting, depositing, and withdrawing. - MUST be an ERC-20 token contract. - MUST NOT revert."
      },
      "balanceOf(address)": {
        "details": "See {IERC20-balanceOf}."
      },
      "claim_rewards(address)": {
        "params": {
          "from": "Address to claim for"
        },
        "returns": {
          "_0": "rewardAmounts Amounts of each reward token claimed by the user"
        }
      },
      "claimableRewards(address,address)": {
        "params": {
          "_rewardToken": "Token to get rewards for",
          "user": "Address to claim for"
        }
      },
      "convertToAssets(uint256)": {
        "details": "Returns the amount of assets that the Vault would exchange for the amount of shares provided, in an ideal scenario where all the conditions are met. - MUST NOT be inclusive of any fees that are charged against assets in the Vault. - MUST NOT show any variations depending on the caller. - MUST NOT reflect slippage or other on-chain conditions, when performing the actual exchange. - MUST NOT revert. NOTE: This calculation MAY NOT reflect the per-user price-per-share, and instead should reflect the average-users price-per-share, meaning what the average user should expect to see when exchanging to and from."
      },
      "convertToShares(uint256)": {
        "details": "Returns the amount of shares that the Vault would exchange for the amount of assets provided, in an ideal scenario where all the conditions are met. - MUST NOT be inclusive of any fees that are charged against assets in the Vault. - MUST NOT show any variations depending on the caller. - MUST NOT reflect slippage or other on-chain conditions, when performing the actual exchange. - MUST NOT revert. NOTE: This calculation MAY NOT reflect the per-user price-per-share, and instead should reflect the average-users price-per-share, meaning what the average user should expect to see when exchanging to and from."
      },
      "decimals()": {
        "details": "Returns the decimals places of the token."
      },
      "decreaseAllowance(address,uint256)": {
        "details": "Atomically decreases the allowance granted to `spender` by the caller. This is an alternative to {approve} that can be used as a mitigation for problems described in {IERC20-approve}. Emits an {Approval} event indicating the updated allowance. Requirements: - `spender` cannot be the zero address. - `spender` must have allowance for the caller of at least `subtractedValue`."
      },
      "deposit(uint256,address)": {
        "details": "Mints shares Vault shares to receiver by depositing exactly amount of underlying tokens. - MUST emit the Deposit event. - MAY support an additional flow in which the underlying tokens are owned by the Vault contract before the   deposit execution, and are accounted for during deposit. - MUST revert if all of assets cannot be deposited (due to deposit limit being reached, slippage, the user not   approving enough underlying tokens to the Vault contract, etc). NOTE: most implementations will require pre-approval of the Vault with the Vaults underlying asset token."
      },
      "gauge()": {
        "details": "This function is only useful in the stakable implementation"
      },
      "increaseAllowance(address,uint256)": {
        "details": "Atomically increases the allowance granted to `spender` by the caller. This is an alternative to {approve} that can be used as a mitigation for problems described in {IERC20-approve}. Emits an {Approval} event indicating the updated allowance. Requirements: - `spender` cannot be the zero address."
      },
      "maxDeposit(address)": {
        "details": "Returns the maximum amount of the underlying asset that can be deposited into the Vault for the receiver, through a deposit call. - MUST return a limited value if receiver is subject to some deposit limit. - MUST return 2 ** 256 - 1 if there is no limit on the maximum amount of assets that may be deposited. - MUST NOT revert."
      },
      "maxMint(address)": {
        "details": "Returns the maximum amount of the Vault shares that can be minted for the receiver, through a mint call. - MUST return a limited value if receiver is subject to some mint limit. - MUST return 2 ** 256 - 1 if there is no limit on the maximum amount of shares that may be minted. - MUST NOT revert."
      },
      "maxRedeem(address)": {
        "details": "Returns the maximum amount of Vault shares that can be redeemed from the owner balance in the Vault, through a redeem call. - MUST return a limited value if owner is subject to some withdrawal limit or timelock. - MUST return balanceOf(owner) if owner is not subject to any withdrawal limit or timelock. - MUST NOT revert."
      },
      "maxWithdraw(address)": {
        "details": "Returns the maximum amount of the underlying asset that can be withdrawn from the owner balance in the Vault, through a withdraw call. - MUST return a limited value if owner is subject to some withdrawal limit or timelock. - MUST NOT revert."
      },
      "mint(uint256,address)": {
        "details": "Mints exactly shares Vault shares to receiver by depositing amount of underlying tokens. - MUST emit the Deposit event. - MAY support an additional flow in which the underlying tokens are owned by the Vault contract before the mint   execution, and are accounted for during mint. - MUST revert if all of shares cannot be minted (due to deposit limit being reached, slippage, the user not   approving enough underlying tokens to the Vault contract, etc). NOTE: most implementations will require pre-approval of the Vault with the Vaults underlying asset token."
      },
      "name()": {
        "details": "Returns the name of the token."
      },
      "previewDeposit(uint256)": {
        "details": "Allows an on-chain or off-chain user to simulate the effects of their deposit at the current block, given current on-chain conditions. - MUST return as close to and no more than the exact amount of Vault shares that would be minted in a deposit   call in the same transaction. I.e. deposit should return the same or more shares as previewDeposit if called   in the same transaction. - MUST NOT account for deposit limits like those returned from maxDeposit and should always act as though the   deposit would be accepted, regardless if the user has enough tokens approved, etc. - MUST be inclusive of deposit fees. Integrators should be aware of the existence of deposit fees. - MUST NOT revert. NOTE: any unfavorable discrepancy between convertToShares and previewDeposit SHOULD be considered slippage in share price or some other type of condition, meaning the depositor will lose assets by depositing."
      },
      "previewMint(uint256)": {
        "details": "Allows an on-chain or off-chain user to simulate the effects of their mint at the current block, given current on-chain conditions. - MUST return as close to and no fewer than the exact amount of assets that would be deposited in a mint call   in the same transaction. I.e. mint should return the same or fewer assets as previewMint if called in the   same transaction. - MUST NOT account for mint limits like those returned from maxMint and should always act as though the mint   would be accepted, regardless if the user has enough tokens approved, etc. - MUST be inclusive of deposit fees. Integrators should be aware of the existence of deposit fees. - MUST NOT revert. NOTE: any unfavorable discrepancy between convertToAssets and previewMint SHOULD be considered slippage in share price or some other type of condition, meaning the depositor will lose assets by minting."
      },
      "previewRedeem(uint256)": {
        "details": "Allows an on-chain or off-chain user to simulate the effects of their redeemption at the current block, given current on-chain conditions. - MUST return as close to and no more than the exact amount of assets that would be withdrawn in a redeem call   in the same transaction. I.e. redeem should return the same or more assets as previewRedeem if called in the   same transaction. - MUST NOT account for redemption limits like those returned from maxRedeem and should always act as though the   redemption would be accepted, regardless if the user has enough shares, etc. - MUST be inclusive of withdrawal fees. Integrators should be aware of the existence of withdrawal fees. - MUST NOT revert. NOTE: any unfavorable discrepancy between convertToAssets and previewRedeem SHOULD be considered slippage in share price or some other type of condition, meaning the depositor will lose assets by redeeming."
      },
      "previewWithdraw(uint256)": {
        "details": "Allows an on-chain or off-chain user to simulate the effects of their withdrawal at the current block, given current on-chain conditions. - MUST return as close to and no fewer than the exact amount of Vault shares that would be burned in a withdraw   call in the same transaction. I.e. withdraw should return the same or fewer shares as previewWithdraw if   called   in the same transaction. - MUST NOT account for withdrawal limits like those returned from maxWithdraw and should always act as though   the withdrawal would be accepted, regardless if the user has enough shares, etc. - MUST be inclusive of withdrawal fees. Integrators should be aware of the existence of withdrawal fees. - MUST NOT revert. NOTE: any unfavorable discrepancy between convertToShares and previewWithdraw SHOULD be considered slippage in share price or some other type of condition, meaning the depositor will lose assets by depositing."
      },
      "redeem(uint256,address,address)": {
        "details": "Burns exactly shares from owner and sends assets of underlying tokens to receiver. - MUST emit the Withdraw event. - MAY support an additional flow in which the underlying tokens are owned by the Vault contract before the   redeem execution, and are accounted for during redeem. - MUST revert if all of shares cannot be redeemed (due to withdrawal limit being reached, slippage, the owner   not having enough shares, etc). NOTE: some implementations will require pre-requesting to the Vault before a withdrawal may be performed. Those methods should be performed separately."
      },
      "symbol()": {
        "details": "Returns the symbol of the token, usually a shorter version of the name."
      },
      "totalAssets()": {
        "details": "Returns the total amount of the underlying asset that is managed by Vault. - SHOULD include any compounding that occurs from yield. - MUST be inclusive of any fees that are charged against assets in the Vault. - MUST NOT revert."
      },
      "totalSupply()": {
        "details": "See {IERC20-totalSupply}."
      },
      "transfer(address,uint256)": {
        "details": "See {IERC20-transfer}. Requirements: - `to` cannot be the zero address. - the caller must have a balance of at least `amount`."
      },
      "transferFrom(address,address,uint256)": {
        "details": "See {IERC20-transferFrom}. Emits an {Approval} event indicating the updated allowance. This is not required by the EIP. See the note at the beginning of {ERC20}. NOTE: Does not update the allowance if the current allowance is the maximum `uint256`. Requirements: - `from` and `to` cannot be the zero address. - `from` must have a balance of at least `amount`. - the caller must have allowance for ``from``'s tokens of at least `amount`."
      },
      "withdraw(uint256,address,address)": {
        "details": "Burns shares from owner and sends exactly assets of underlying tokens to receiver. - MUST emit the Withdraw event. - MAY support an additional flow in which the underlying tokens are owned by the Vault contract before the   withdraw execution, and are accounted for during withdraw. - MUST revert if all of assets cannot be withdrawn (due to withdrawal limit being reached, slippage, the owner   not having enough shares, etc). Note that some implementations will require pre-requesting to the Vault before a withdrawal may be performed. Those methods should be performed separately."
      }
    },
    "title": "SanFRAXEURERC4626AdapterStakable",
    "version": 1
  },
  "userdoc": {
    "kind": "user",
    "methods": {
      "availableBalance()": {
        "notice": "Returns the available balance of the token in the associated `PoolManager`"
      },
      "claimRewards(address)": {
        "notice": "Same as the function above"
      },
      "claim_rewards(address)": {
        "notice": "Claims earned rewards for user `from`"
      },
      "claimableRewards(address,address)": {
        "notice": "Returns the exact amount that will be received if calling `claim_rewards(from)` for a specific reward token"
      },
      "gauge()": {
        "notice": "Returns the gauge address"
      },
      "initialize()": {
        "notice": "Initializes the contract"
      },
      "integral(address)": {
        "notice": "Maps each reward token to a track record of cumulated rewards"
      },
      "integralOf(address,address)": {
        "notice": "Maps pairs of `(token,user)` to a track record of cumulated personal rewards"
      },
      "pendingRewardsOf(address,address)": {
        "notice": "Maps pairs of `(token,user)` to the currently pending claimable rewards"
      },
      "poolManager()": {
        "notice": "Address of the corresponding poolManager"
      },
      "sanToken()": {
        "notice": "Address of the associated sanToken"
      },
      "stableMaster()": {
        "notice": "Address of the `StableMaster` in the Core module of the protocol"
      }
    },
    "notice": "IERC4626 Adapter for SanTokens of the Angle Protocol",
    "version": 1
  },
  "storageLayout": {
    "storage": [
      {
        "astId": 941,
        "contract": "contracts/adapters/implementations/Stakable/SanFRAXEURERC4626AdapterStakable.sol:SanFRAXEURERC4626AdapterStakable",
        "label": "_initialized",
        "offset": 0,
        "slot": "0",
        "type": "t_uint8"
      },
      {
        "astId": 944,
        "contract": "contracts/adapters/implementations/Stakable/SanFRAXEURERC4626AdapterStakable.sol:SanFRAXEURERC4626AdapterStakable",
        "label": "_initializing",
        "offset": 1,
        "slot": "0",
        "type": "t_bool"
      },
      {
        "astId": 2938,
        "contract": "contracts/adapters/implementations/Stakable/SanFRAXEURERC4626AdapterStakable.sol:SanFRAXEURERC4626AdapterStakable",
        "label": "__gap",
        "offset": 0,
        "slot": "1",
        "type": "t_array(t_uint256)50_storage"
      },
      {
        "astId": 1290,
        "contract": "contracts/adapters/implementations/Stakable/SanFRAXEURERC4626AdapterStakable.sol:SanFRAXEURERC4626AdapterStakable",
        "label": "_balances",
        "offset": 0,
        "slot": "51",
        "type": "t_mapping(t_address,t_uint256)"
      },
      {
        "astId": 1296,
        "contract": "contracts/adapters/implementations/Stakable/SanFRAXEURERC4626AdapterStakable.sol:SanFRAXEURERC4626AdapterStakable",
        "label": "_allowances",
        "offset": 0,
        "slot": "52",
        "type": "t_mapping(t_address,t_mapping(t_address,t_uint256))"
      },
      {
        "astId": 1298,
        "contract": "contracts/adapters/implementations/Stakable/SanFRAXEURERC4626AdapterStakable.sol:SanFRAXEURERC4626AdapterStakable",
        "label": "_totalSupply",
        "offset": 0,
        "slot": "53",
        "type": "t_uint256"
      },
      {
        "astId": 1300,
        "contract": "contracts/adapters/implementations/Stakable/SanFRAXEURERC4626AdapterStakable.sol:SanFRAXEURERC4626AdapterStakable",
        "label": "_name",
        "offset": 0,
        "slot": "54",
        "type": "t_string_storage"
      },
      {
        "astId": 1302,
        "contract": "contracts/adapters/implementations/Stakable/SanFRAXEURERC4626AdapterStakable.sol:SanFRAXEURERC4626AdapterStakable",
        "label": "_symbol",
        "offset": 0,
        "slot": "55",
        "type": "t_string_storage"
      },
      {
        "astId": 1881,
        "contract": "contracts/adapters/implementations/Stakable/SanFRAXEURERC4626AdapterStakable.sol:SanFRAXEURERC4626AdapterStakable",
        "label": "__gap",
        "offset": 0,
        "slot": "56",
        "type": "t_array(t_uint256)45_storage"
      },
      {
        "astId": 8160,
        "contract": "contracts/adapters/implementations/Stakable/SanFRAXEURERC4626AdapterStakable.sol:SanFRAXEURERC4626AdapterStakable",
        "label": "__gap",
        "offset": 0,
        "slot": "101",
        "type": "t_array(t_uint256)50_storage"
      },
      {
        "astId": 8967,
        "contract": "contracts/adapters/implementations/Stakable/SanFRAXEURERC4626AdapterStakable.sol:SanFRAXEURERC4626AdapterStakable",
        "label": "integral",
        "offset": 0,
        "slot": "151",
        "type": "t_mapping(t_contract(IERC20)6220,t_uint256)"
      },
      {
        "astId": 8975,
        "contract": "contracts/adapters/implementations/Stakable/SanFRAXEURERC4626AdapterStakable.sol:SanFRAXEURERC4626AdapterStakable",
        "label": "pendingRewardsOf",
        "offset": 0,
        "slot": "152",
        "type": "t_mapping(t_contract(IERC20)6220,t_mapping(t_address,t_uint256))"
      },
      {
        "astId": 8983,
        "contract": "contracts/adapters/implementations/Stakable/SanFRAXEURERC4626AdapterStakable.sol:SanFRAXEURERC4626AdapterStakable",
        "label": "integralOf",
        "offset": 0,
        "slot": "153",
        "type": "t_mapping(t_contract(IERC20)6220,t_mapping(t_address,t_uint256))"
      },
      {
        "astId": 8987,
        "contract": "contracts/adapters/implementations/Stakable/SanFRAXEURERC4626AdapterStakable.sol:SanFRAXEURERC4626AdapterStakable",
        "label": "__gapStakable",
        "offset": 0,
        "slot": "154",
        "type": "t_array(t_uint256)47_storage"
      }
    ],
    "types": {
      "t_address": {
        "encoding": "inplace",
        "label": "address",
        "numberOfBytes": "20"
      },
      "t_array(t_uint256)45_storage": {
        "base": "t_uint256",
        "encoding": "inplace",
        "label": "uint256[45]",
        "numberOfBytes": "1440"
      },
      "t_array(t_uint256)47_storage": {
        "base": "t_uint256",
        "encoding": "inplace",
        "label": "uint256[47]",
        "numberOfBytes": "1504"
      },
      "t_array(t_uint256)50_storage": {
        "base": "t_uint256",
        "encoding": "inplace",
        "label": "uint256[50]",
        "numberOfBytes": "1600"
      },
      "t_bool": {
        "encoding": "inplace",
        "label": "bool",
        "numberOfBytes": "1"
      },
      "t_contract(IERC20)6220": {
        "encoding": "inplace",
        "label": "contract IERC20",
        "numberOfBytes": "20"
      },
      "t_mapping(t_address,t_mapping(t_address,t_uint256))": {
        "encoding": "mapping",
        "key": "t_address",
        "label": "mapping(address => mapping(address => uint256))",
        "numberOfBytes": "32",
        "value": "t_mapping(t_address,t_uint256)"
      },
      "t_mapping(t_address,t_uint256)": {
        "encoding": "mapping",
        "key": "t_address",
        "label": "mapping(address => uint256)",
        "numberOfBytes": "32",
        "value": "t_uint256"
      },
      "t_mapping(t_contract(IERC20)6220,t_mapping(t_address,t_uint256))": {
        "encoding": "mapping",
        "key": "t_contract(IERC20)6220",
        "label": "mapping(contract IERC20 => mapping(address => uint256))",
        "numberOfBytes": "32",
        "value": "t_mapping(t_address,t_uint256)"
      },
      "t_mapping(t_contract(IERC20)6220,t_uint256)": {
        "encoding": "mapping",
        "key": "t_contract(IERC20)6220",
        "label": "mapping(contract IERC20 => uint256)",
        "numberOfBytes": "32",
        "value": "t_uint256"
      },
      "t_string_storage": {
        "encoding": "bytes",
        "label": "string",
        "numberOfBytes": "32"
      },
      "t_uint256": {
        "encoding": "inplace",
        "label": "uint256",
        "numberOfBytes": "32"
      },
      "t_uint8": {
        "encoding": "inplace",
        "label": "uint8",
        "numberOfBytes": "1"
      }
    }
  }
}