{
  "address": "0x4E4A605c1F2E3303e6967Cb6D3D964474Eb3C4Fd",
  "abi": [
    {
      "inputs": [
        {
          "internalType": "contract ICoreBorrow",
          "name": "_core",
          "type": "address"
        },
        {
          "internalType": "contract IWStETH",
          "name": "_wStETH",
          "type": "address"
        },
        {
          "internalType": "contract IUniswapV3Router",
          "name": "_uniV3Router",
          "type": "address"
        },
        {
          "internalType": "address",
          "name": "_oneInch",
          "type": "address"
        },
        {
          "internalType": "contract IAngleRouter",
          "name": "_angleRouter",
          "type": "address"
        }
      ],
      "stateMutability": "nonpayable",
      "type": "constructor"
    },
    {
      "inputs": [],
      "name": "EmptyReturnMessage",
      "type": "error"
    },
    {
      "inputs": [],
      "name": "IncompatibleLengths",
      "type": "error"
    },
    {
      "inputs": [],
      "name": "NotGovernorOrGuardian",
      "type": "error"
    },
    {
      "inputs": [],
      "name": "TooSmallAmount",
      "type": "error"
    },
    {
      "inputs": [],
      "name": "ZeroAddress",
      "type": "error"
    },
    {
      "inputs": [],
      "name": "BASE_PARAMS",
      "outputs": [
        {
          "internalType": "uint256",
          "name": "",
          "type": "uint256"
        }
      ],
      "stateMutability": "view",
      "type": "function"
    },
    {
      "inputs": [],
      "name": "angleRouter",
      "outputs": [
        {
          "internalType": "contract IAngleRouter",
          "name": "",
          "type": "address"
        }
      ],
      "stateMutability": "view",
      "type": "function"
    },
    {
      "inputs": [
        {
          "internalType": "contract IERC20",
          "name": "",
          "type": "address"
        }
      ],
      "name": "angleRouterAllowedToken",
      "outputs": [
        {
          "internalType": "bool",
          "name": "",
          "type": "bool"
        }
      ],
      "stateMutability": "view",
      "type": "function"
    },
    {
      "inputs": [
        {
          "internalType": "contract IERC20[]",
          "name": "tokens",
          "type": "address[]"
        },
        {
          "internalType": "address[]",
          "name": "spenders",
          "type": "address[]"
        },
        {
          "internalType": "uint256[]",
          "name": "amounts",
          "type": "uint256[]"
        }
      ],
      "name": "changeAllowance",
      "outputs": [],
      "stateMutability": "nonpayable",
      "type": "function"
    },
    {
      "inputs": [],
      "name": "core",
      "outputs": [
        {
          "internalType": "contract ICoreBorrow",
          "name": "",
          "type": "address"
        }
      ],
      "stateMutability": "view",
      "type": "function"
    },
    {
      "inputs": [],
      "name": "oneInch",
      "outputs": [
        {
          "internalType": "address",
          "name": "",
          "type": "address"
        }
      ],
      "stateMutability": "view",
      "type": "function"
    },
    {
      "inputs": [
        {
          "internalType": "contract IERC20",
          "name": "",
          "type": "address"
        }
      ],
      "name": "oneInchAllowedToken",
      "outputs": [
        {
          "internalType": "bool",
          "name": "",
          "type": "bool"
        }
      ],
      "stateMutability": "view",
      "type": "function"
    },
    {
      "inputs": [
        {
          "internalType": "contract IERC20",
          "name": "inToken",
          "type": "address"
        },
        {
          "internalType": "contract IERC20",
          "name": "outToken",
          "type": "address"
        },
        {
          "internalType": "address",
          "name": "outTokenRecipient",
          "type": "address"
        },
        {
          "internalType": "uint256",
          "name": "outTokenOwed",
          "type": "uint256"
        },
        {
          "internalType": "uint256",
          "name": "inTokenObtained",
          "type": "uint256"
        },
        {
          "internalType": "bytes",
          "name": "data",
          "type": "bytes"
        }
      ],
      "name": "swap",
      "outputs": [],
      "stateMutability": "nonpayable",
      "type": "function"
    },
    {
      "inputs": [
        {
          "internalType": "contract IERC20",
          "name": "",
          "type": "address"
        }
      ],
      "name": "uniAllowedToken",
      "outputs": [
        {
          "internalType": "bool",
          "name": "",
          "type": "bool"
        }
      ],
      "stateMutability": "view",
      "type": "function"
    },
    {
      "inputs": [],
      "name": "uniV3Router",
      "outputs": [
        {
          "internalType": "contract IUniswapV3Router",
          "name": "",
          "type": "address"
        }
      ],
      "stateMutability": "view",
      "type": "function"
    },
    {
      "inputs": [],
      "name": "wStETH",
      "outputs": [
        {
          "internalType": "contract IWStETH",
          "name": "",
          "type": "address"
        }
      ],
      "stateMutability": "view",
      "type": "function"
    },
    {
      "stateMutability": "payable",
      "type": "receive"
    }
  ],
  "transactionHash": "0xa7a8ac18df9bfd6ab29ad835d4edcb418105bea2146f5c131e041a418e47fa35",
  "args": [
    "0x5bc6BEf80DA563EBf6Df6D6913513fa9A7ec89BE",
    "0x7f39C581F595B53c5cb19bD0b3f8dA6c935E2Ca0",
    "0xE592427A0AEce92De3Edee1F18E0157C05861564",
    "0x1111111254fb6c44bAC0beD2854e76F90643097d",
    "0xBB755240596530be0c1DE5DFD77ec6398471561d"
  ],
  "solcInputHash": "eb7de3603cc573bcb7c8cc81b533de56",
  "bytecode": "0x6101206040523480156200001257600080fd5b50604051620027ea380380620027ea83398101604081905262000035916200053e565b6001600160a01b03851615806200005357506001600160a01b038316155b806200006657506001600160a01b038216155b806200007957506001600160a01b038116155b15620000985760405163d92e233d60e01b815260040160405180910390fd5b846001600160a01b031660a0816001600160a01b0316815250506000846001600160a01b031663c1fe3e486040518163ffffffff1660e01b8152600401602060405180830381865afa158015620000f3573d6000803e3d6000fd5b505050506040513d601f19601f82011682018060405250810190620001199190620005be565b90506200014285600019836001600160a01b03166200016860201b62000a6d179092919060201c565b506001600160a01b0393841660c05291831660e0528216610100521660805250620006a2565b801580620001e65750604051636eb1769f60e11b81523060048201526001600160a01b03838116602483015284169063dd62ed3e90604401602060405180830381865afa158015620001be573d6000803e3d6000fd5b505050506040513d601f19601f82011682018060405250810190620001e49190620005de565b155b6200025e5760405162461bcd60e51b815260206004820152603660248201527f5361666545524332303a20617070726f76652066726f6d206e6f6e2d7a65726f60448201527f20746f206e6f6e2d7a65726f20616c6c6f77616e63650000000000000000000060648201526084015b60405180910390fd5b604080516001600160a01b038416602482015260448082018490528251808303909101815260649091019091526020810180516001600160e01b0390811663095ea7b360e01b17909152620002b6918591620002bb16565b505050565b600062000317826040518060400160405280602081526020017f5361666545524332303a206c6f772d6c6576656c2063616c6c206661696c6564815250856001600160a01b03166200039960201b62000c77179092919060201c565b805190915015620002b65780806020019051810190620003389190620005f8565b620002b65760405162461bcd60e51b815260206004820152602a60248201527f5361666545524332303a204552433230206f7065726174696f6e20646964206e6044820152691bdd081cdd58d8d9595960b21b606482015260840162000255565b6060620003aa8484600085620003b4565b90505b9392505050565b606082471015620004175760405162461bcd60e51b815260206004820152602660248201527f416464726573733a20696e73756666696369656e742062616c616e636520666f6044820152651c8818d85b1b60d21b606482015260840162000255565b843b620004675760405162461bcd60e51b815260206004820152601d60248201527f416464726573733a2063616c6c20746f206e6f6e2d636f6e7472616374000000604482015260640162000255565b600080866001600160a01b031685876040516200048591906200064f565b60006040518083038185875af1925050503d8060008114620004c4576040519150601f19603f3d011682016040523d82523d6000602084013e620004c9565b606091505b509092509050620004dc828286620004e7565b979650505050505050565b60608315620004f8575081620003ad565b825115620005095782518084602001fd5b8160405162461bcd60e51b81526004016200025591906200066d565b6001600160a01b03811681146200053b57600080fd5b50565b600080600080600060a086880312156200055757600080fd5b8551620005648162000525565b6020870151909550620005778162000525565b60408701519094506200058a8162000525565b60608701519093506200059d8162000525565b6080870151909250620005b08162000525565b809150509295509295909350565b600060208284031215620005d157600080fd5b8151620003ad8162000525565b600060208284031215620005f157600080fd5b5051919050565b6000602082840312156200060b57600080fd5b81518015158114620003ad57600080fd5b60005b83811015620006395781810151838201526020016200061f565b8381111562000649576000848401525b50505050565b60008251620006638184602087016200061c565b9190910192915050565b60208152600082518060208401526200068e8160408501602087016200061c565b601f01601f19169190910160400192915050565b60805160a05160c05160e051610100516120b06200073a6000396000818160de015281816110860152818161162d01526116c901526000818161021401528181610fe20152818161148d01526115830152600081816101b00152610df40152600081816102b001526108dc01526000818161013c015281816103d70152818161057f01528181610cc3015261112a01526120b06000f3fe6080604052600436106100c05760003560e01c80635fafa58911610074578063b82c4dc11161004e578063b82c4dc11461027e578063f2f4eb261461029e578063f5a418bb146102d257600080fd5b80635fafa589146102025780639f48118f14610236578063a5d4096b1461025c57600080fd5b80630db3280f116100a55780630db3280f1461015e5780630df8080f1461019e578063270a17c9146101d257600080fd5b8063045c08d5146100cc5780630b6942c21461012a57600080fd5b366100c757005b600080fd5b3480156100d857600080fd5b506101007f000000000000000000000000000000000000000000000000000000000000000081565b60405173ffffffffffffffffffffffffffffffffffffffff90911681526020015b60405180910390f35b34801561013657600080fd5b506101007f000000000000000000000000000000000000000000000000000000000000000081565b34801561016a57600080fd5b5061018e610179366004611abf565b60006020819052908152604090205460ff1681565b6040519015158152602001610121565b3480156101aa57600080fd5b506101007f000000000000000000000000000000000000000000000000000000000000000081565b3480156101de57600080fd5b5061018e6101ed366004611abf565b60026020526000908152604090205460ff1681565b34801561020e57600080fd5b506101007f000000000000000000000000000000000000000000000000000000000000000081565b34801561024257600080fd5b5061024e633b9aca0081565b604051908152602001610121565b34801561026857600080fd5b5061027c610277366004611ba0565b610302565b005b34801561028a57600080fd5b5061027c610299366004611cb6565b6108ae565b3480156102aa57600080fd5b506101007f000000000000000000000000000000000000000000000000000000000000000081565b3480156102de57600080fd5b5061018e6102ed366004611abf565b60016020526000908152604090205460ff1681565b60008060008060008580602001905181019061031e9190611da1565b9a5093985091965094509250905073ffffffffffffffffffffffffffffffffffffffff84161561034e5783610350565b885b9350806fffffffffffffffffffffffffffffffff16600114156104c9576103768b610c90565b6040517fee7b4950000000000000000000000000000000000000000000000000000000008152306004820152602481018890526000604482015273ffffffffffffffffffffffffffffffffffffffff8c8116606483015286811660848301527f0000000000000000000000000000000000000000000000000000000000000000169063ee7b49509060a401600060405180830381600087803b15801561041b57600080fd5b505af115801561042f573d6000803e3d6000fd5b50506040517f70a08231000000000000000000000000000000000000000000000000000000008152306004820152969c508c9673ffffffffffffffffffffffffffffffffffffffff881692506370a082319150602401602060405180830381865afa1580156104a2573d6000803e3d6000fd5b505050506040513d601f19601f820116820180604052508101906104c69190611e6b565b96505b6104f88b88846fffffffffffffffffffffffffffffffff1660038111156104f2576104f2611e84565b89610d5a565b9650806fffffffffffffffffffffffffffffffff16600214156105dc5761051e85610c90565b6040517fb044d1e0000000000000000000000000000000000000000000000000000000008152306004820152602481018890526000604482015273ffffffffffffffffffffffffffffffffffffffff8b8116606483015286811660848301527f0000000000000000000000000000000000000000000000000000000000000000169063b044d1e09060a401600060405180830381600087803b1580156105c357600080fd5b505af11580156105d7573d6000803e3d6000fd5b505050505b6040517f70a0823100000000000000000000000000000000000000000000000000000000815230600482015260009073ffffffffffffffffffffffffffffffffffffffff8c16906370a0823190602401602060405180830381865afa158015610649573d6000803e3d6000fd5b505050506040513d601f19601f8201168201806040525081019061066d9190611e6b565b90508381116106a8576040517f22313ae900000000000000000000000000000000000000000000000000000000815260040160405180910390fd5b6040517f70a0823100000000000000000000000000000000000000000000000000000000815273ffffffffffffffffffffffffffffffffffffffff8b81166004830152600091908d16906370a0823190602401602060405180830381865afa158015610718573d6000803e3d6000fd5b505050506040513d601f19601f8201168201806040525081019061073c9190611e6b565b9050898110158061077857508a73ffffffffffffffffffffffffffffffffffffffff168673ffffffffffffffffffffffffffffffffffffffff16145b156107a35761079e73ffffffffffffffffffffffffffffffffffffffff8d168784610e81565b6107e8565b6107cf8b6107b1838d611ee2565b73ffffffffffffffffffffffffffffffffffffffff8f169190610e81565b6107e8868b6107de8585611ef9565b6107b19190611ee2565b6040517f70a0823100000000000000000000000000000000000000000000000000000000815230600482015273ffffffffffffffffffffffffffffffffffffffff8e16906370a0823190602401602060405180830381865afa158015610852573d6000803e3d6000fd5b505050506040513d601f19601f820116820180604052508101906108769190611e6b565b9850881561089f5761089f73ffffffffffffffffffffffffffffffffffffffff8e16878b610e81565b50505050505050505050505050565b6040517f521d4de90000000000000000000000000000000000000000000000000000000081523360048201527f000000000000000000000000000000000000000000000000000000000000000073ffffffffffffffffffffffffffffffffffffffff169063521d4de990602401602060405180830381865afa158015610938573d6000803e3d6000fd5b505050506040513d601f19601f8201168201806040525081019061095c9190611f11565b610992576040517f99e120bc00000000000000000000000000000000000000000000000000000000815260040160405180910390fd5b84831415806109a15750848114155b156109d8576040517f46282e8d00000000000000000000000000000000000000000000000000000000815260040160405180910390fd5b60005b85811015610a6457610a528787838181106109f8576109f8611f33565b9050602002016020810190610a0d9190611abf565b868684818110610a1f57610a1f611f33565b9050602002016020810190610a349190611abf565b858585818110610a4657610a46611f33565b90506020020135610ed7565b80610a5c81611f62565b9150506109db565b50505050505050565b801580610b0d57506040517fdd62ed3e00000000000000000000000000000000000000000000000000000000815230600482015273ffffffffffffffffffffffffffffffffffffffff838116602483015284169063dd62ed3e90604401602060405180830381865afa158015610ae7573d6000803e3d6000fd5b505050506040513d601f19601f82011682018060405250810190610b0b9190611e6b565b155b610b9e576040517f08c379a000000000000000000000000000000000000000000000000000000000815260206004820152603660248201527f5361666545524332303a20617070726f76652066726f6d206e6f6e2d7a65726f60448201527f20746f206e6f6e2d7a65726f20616c6c6f77616e63650000000000000000000060648201526084015b60405180910390fd5b60405173ffffffffffffffffffffffffffffffffffffffff8316602482015260448101829052610c729084907f095ea7b300000000000000000000000000000000000000000000000000000000906064015b604080517fffffffffffffffffffffffffffffffffffffffffffffffffffffffffffffffe08184030181529190526020810180517bffffffffffffffffffffffffffffffffffffffffffffffffffffffff167fffffffff00000000000000000000000000000000000000000000000000000000909316929092179091526111ce565b505050565b6060610c8684846000856112da565b90505b9392505050565b73ffffffffffffffffffffffffffffffffffffffff811660009081526002602052604090205460ff16610d5757610d08817f00000000000000000000000000000000000000000000000000000000000000007fffffffffffffffffffffffffffffffffffffffffffffffffffffffffffffffff610ed7565b73ffffffffffffffffffffffffffffffffffffffff8116600090815260026020526040902080547fffffffffffffffffffffffffffffffffffffffffffffffffffffffffffffff001660011790555b50565b600080836003811115610d6f57610d6f611e84565b1415610d8757610d8085858461145a565b9050610e79565b6001836003811115610d9b57610d9b611e84565b1415610dab57610d8085836115fa565b6002836003811115610dbf57610dbf611e84565b1415610e76576040517fea598cb0000000000000000000000000000000000000000000000000000000008152600481018590527f000000000000000000000000000000000000000000000000000000000000000073ffffffffffffffffffffffffffffffffffffffff169063ea598cb0906024016020604051808303816000875af1158015610e52573d6000803e3d6000fd5b505050506040513d601f19601f82011682018060405250810190610d809190611e6b565b50825b949350505050565b60405173ffffffffffffffffffffffffffffffffffffffff8316602482015260448101829052610c729084907fa9059cbb0000000000000000000000000000000000000000000000000000000090606401610bf0565b6040517fdd62ed3e00000000000000000000000000000000000000000000000000000000815230600482015273ffffffffffffffffffffffffffffffffffffffff83811660248301526000919085169063dd62ed3e90604401602060405180830381865afa158015610f4d573d6000803e3d6000fd5b505050506040513d601f19601f82011682018060405250810190610f719190611e6b565b905081811015610fac57610fa783610f898385611ee2565b73ffffffffffffffffffffffffffffffffffffffff8716919061177e565b6111c8565b818111156111c857610fe083610fc28484611ee2565b73ffffffffffffffffffffffffffffffffffffffff8716919061187c565b7f000000000000000000000000000000000000000000000000000000000000000073ffffffffffffffffffffffffffffffffffffffff168373ffffffffffffffffffffffffffffffffffffffff1614156110845773ffffffffffffffffffffffffffffffffffffffff8416600090815260208190526040902080547fffffffffffffffffffffffffffffffffffffffffffffffffffffffffffffff001690556111c8565b7f000000000000000000000000000000000000000000000000000000000000000073ffffffffffffffffffffffffffffffffffffffff168373ffffffffffffffffffffffffffffffffffffffff1614156111285773ffffffffffffffffffffffffffffffffffffffff8416600090815260016020526040902080547fffffffffffffffffffffffffffffffffffffffffffffffffffffffffffffff001690556111c8565b7f000000000000000000000000000000000000000000000000000000000000000073ffffffffffffffffffffffffffffffffffffffff168373ffffffffffffffffffffffffffffffffffffffff1614156111c85773ffffffffffffffffffffffffffffffffffffffff8416600090815260026020526040902080547fffffffffffffffffffffffffffffffffffffffffffffffffffffffffffffff001690555b50505050565b6000611230826040518060400160405280602081526020017f5361666545524332303a206c6f772d6c6576656c2063616c6c206661696c65648152508573ffffffffffffffffffffffffffffffffffffffff16610c779092919063ffffffff16565b805190915015610c72578080602001905181019061124e9190611f11565b610c72576040517f08c379a000000000000000000000000000000000000000000000000000000000815260206004820152602a60248201527f5361666545524332303a204552433230206f7065726174696f6e20646964206e60448201527f6f742073756363656564000000000000000000000000000000000000000000006064820152608401610b95565b60608247101561136c576040517f08c379a000000000000000000000000000000000000000000000000000000000815260206004820152602660248201527f416464726573733a20696e73756666696369656e742062616c616e636520666f60448201527f722063616c6c00000000000000000000000000000000000000000000000000006064820152608401610b95565b843b6113d4576040517f08c379a000000000000000000000000000000000000000000000000000000000815260206004820152601d60248201527f416464726573733a2063616c6c20746f206e6f6e2d636f6e74726163740000006044820152606401610b95565b6000808673ffffffffffffffffffffffffffffffffffffffff1685876040516113fd9190611f9b565b60006040518083038185875af1925050503d806000811461143a576040519150601f19603f3d011682016040523d82523d6000602084013e61143f565b606091505b509150915061144f828286611a09565b979650505050505050565b73ffffffffffffffffffffffffffffffffffffffff831660009081526020819052604081205460ff16611521576114d2847f00000000000000000000000000000000000000000000000000000000000000007fffffffffffffffffffffffffffffffffffffffffffffffffffffffffffffffff610ed7565b73ffffffffffffffffffffffffffffffffffffffff8416600090815260208190526040902080547fffffffffffffffffffffffffffffffffffffffffffffffffffffffffffffff001660011790555b6040805160a0810182528381523060208201524281830152606081018590526000608082015290517fc04b8d5900000000000000000000000000000000000000000000000000000000815273ffffffffffffffffffffffffffffffffffffffff7f0000000000000000000000000000000000000000000000000000000000000000169163c04b8d59916115b79190600401612001565b6020604051808303816000875af11580156115d6573d6000803e3d6000fd5b505050506040513d601f19601f82011682018060405250810190610c869190611e6b565b73ffffffffffffffffffffffffffffffffffffffff821660009081526001602052604081205460ff166116c457611672837f00000000000000000000000000000000000000000000000000000000000000007fffffffffffffffffffffffffffffffffffffffffffffffffffffffffffffffff610ed7565b73ffffffffffffffffffffffffffffffffffffffff8316600090815260016020819052604090912080547fffffffffffffffffffffffffffffffffffffffffffffffffffffffffffffff001690911790555b6000807f000000000000000000000000000000000000000000000000000000000000000073ffffffffffffffffffffffffffffffffffffffff168460405161170c9190611f9b565b6000604051808303816000865af19150503d8060008114611749576040519150601f19603f3d011682016040523d82523d6000602084013e61174e565b606091505b5091509150816117615761176181611a5c565b808060200190518101906117759190611e6b565b95945050505050565b6040517fdd62ed3e00000000000000000000000000000000000000000000000000000000815230600482015273ffffffffffffffffffffffffffffffffffffffff8381166024830152600091839186169063dd62ed3e90604401602060405180830381865afa1580156117f5573d6000803e3d6000fd5b505050506040513d601f19601f820116820180604052508101906118199190611e6b565b6118239190611ef9565b60405173ffffffffffffffffffffffffffffffffffffffff85166024820152604481018290529091506111c89085907f095ea7b30000000000000000000000000000000000000000000000000000000090606401610bf0565b6040517fdd62ed3e00000000000000000000000000000000000000000000000000000000815230600482015273ffffffffffffffffffffffffffffffffffffffff83811660248301526000919085169063dd62ed3e90604401602060405180830381865afa1580156118f2573d6000803e3d6000fd5b505050506040513d601f19601f820116820180604052508101906119169190611e6b565b9050818110156119a8576040517f08c379a000000000000000000000000000000000000000000000000000000000815260206004820152602960248201527f5361666545524332303a2064656372656173656420616c6c6f77616e6365206260448201527f656c6f77207a65726f00000000000000000000000000000000000000000000006064820152608401610b95565b60405173ffffffffffffffffffffffffffffffffffffffff841660248201528282036044820181905290611a029086907f095ea7b30000000000000000000000000000000000000000000000000000000090606401610bf0565b5050505050565b60608315611a18575081610c89565b825115611a285782518084602001fd5b816040517f08c379a0000000000000000000000000000000000000000000000000000000008152600401610b959190612067565b805115611a6b57805181602001fd5b6040517f6a8df6a800000000000000000000000000000000000000000000000000000000815260040160405180910390fd5b73ffffffffffffffffffffffffffffffffffffffff81168114610d5757600080fd5b600060208284031215611ad157600080fd5b8135610c8981611a9d565b7f4e487b7100000000000000000000000000000000000000000000000000000000600052604160045260246000fd5b604051601f82017fffffffffffffffffffffffffffffffffffffffffffffffffffffffffffffffe016810167ffffffffffffffff81118282101715611b5257611b52611adc565b604052919050565b600067ffffffffffffffff821115611b7457611b74611adc565b50601f017fffffffffffffffffffffffffffffffffffffffffffffffffffffffffffffffe01660200190565b60008060008060008060c08789031215611bb957600080fd5b8635611bc481611a9d565b95506020870135611bd481611a9d565b94506040870135611be481611a9d565b9350606087013592506080870135915060a087013567ffffffffffffffff811115611c0e57600080fd5b8701601f81018913611c1f57600080fd5b8035611c32611c2d82611b5a565b611b0b565b8181528a6020838501011115611c4757600080fd5b816020840160208301376000602083830101528093505050509295509295509295565b60008083601f840112611c7c57600080fd5b50813567ffffffffffffffff811115611c9457600080fd5b6020830191508360208260051b8501011115611caf57600080fd5b9250929050565b60008060008060008060608789031215611ccf57600080fd5b863567ffffffffffffffff80821115611ce757600080fd5b611cf38a838b01611c6a565b90985096506020890135915080821115611d0c57600080fd5b611d188a838b01611c6a565b90965094506040890135915080821115611d3157600080fd5b50611d3e89828a01611c6a565b979a9699509497509295939492505050565b80516fffffffffffffffffffffffffffffffff81168114611d7057600080fd5b919050565b60005b83811015611d90578181015183820152602001611d78565b838111156111c85750506000910152565b60008060008060008060c08789031215611dba57600080fd5b8651611dc581611a9d565b6020880151909650611dd681611a9d565b60408801519095509350611dec60608801611d50565b9250611dfa60808801611d50565b915060a087015167ffffffffffffffff811115611e1657600080fd5b8701601f81018913611e2757600080fd5b8051611e35611c2d82611b5a565b8181528a6020838501011115611e4a57600080fd5b611e5b826020830160208601611d75565b8093505050509295509295509295565b600060208284031215611e7d57600080fd5b5051919050565b7f4e487b7100000000000000000000000000000000000000000000000000000000600052602160045260246000fd5b7f4e487b7100000000000000000000000000000000000000000000000000000000600052601160045260246000fd5b600082821015611ef457611ef4611eb3565b500390565b60008219821115611f0c57611f0c611eb3565b500190565b600060208284031215611f2357600080fd5b81518015158114610c8957600080fd5b7f4e487b7100000000000000000000000000000000000000000000000000000000600052603260045260246000fd5b60007fffffffffffffffffffffffffffffffffffffffffffffffffffffffffffffffff821415611f9457611f94611eb3565b5060010190565b60008251611fad818460208701611d75565b9190910192915050565b60008151808452611fcf816020860160208601611d75565b601f017fffffffffffffffffffffffffffffffffffffffffffffffffffffffffffffffe0169290920160200192915050565b602081526000825160a0602084015261201d60c0840182611fb7565b905073ffffffffffffffffffffffffffffffffffffffff60208501511660408401526040840151606084015260608401516080840152608084015160a08401528091505092915050565b602081526000610c896020830184611fb756fea2646970667358221220dff39895f28e4ad0a6b53aa7e61b07448e2fdd8b7392d5e60df1b73f7219f93f64736f6c634300080c0033",
  "devdoc": {
    "author": "Angle Core Team",
    "kind": "dev",
    "methods": {
      "changeAllowance(address[],address[],uint256[])": {
        "params": {
          "amounts": "Amounts to allow",
          "spenders": "Addresses to allow transfer",
          "tokens": "Addresses of the tokens to allow"
        }
      },
      "constructor": {
        "params": {
          "_angleRouter": "Address of the AngleRouter contract",
          "_core": "Core address",
          "_oneInch": "1Inch Router address",
          "_uniV3Router": "UniswapV3 Router address",
          "_wStETH": "wStETH Address"
        }
      },
      "swap(address,address,address,uint256,uint256,bytes)": {
        "details": "This function swaps the `inToken` to the `outToken` by either doing mint, or burn from the protocol or/and combining it with a UniV3 or 1Inch swapNo slippage checks are performed at the end of each operation, only one slippage check is performed at the end of the callIn this implementation, the function tries to make sure that the `outTokenRecipient` address has at the end of the call `outTokenOwed`, leftover tokens are sent to a `to` address which by default is the `outTokenRecipient`",
        "params": {
          "data": "Extra data needed (to encode Uniswap swaps for instance)",
          "inToken": "Address of the token received",
          "inTokenObtained": "Amount of collateral obtained by a related address prior to the call to this function",
          "outToken": "Address of the token to obtain",
          "outTokenOwed": "Minimum amount of outToken the `outTokenRecipient` address should have at the end of the call",
          "outTokenRecipient": "Address to which the outToken should be sent"
        }
      }
    },
    "title": "Swapper",
    "version": 1
  },
  "userdoc": {
    "kind": "user",
    "methods": {
      "BASE_PARAMS()": {
        "notice": "Base used for parameter computation"
      },
      "angleRouter()": {
        "notice": "AngleRouter"
      },
      "angleRouterAllowedToken(address)": {
        "notice": "Whether the token was already approved on AngleRouter"
      },
      "changeAllowance(address[],address[],uint256[])": {
        "notice": "Changes allowance for a contract"
      },
      "constructor": {
        "notice": "Constructor of the contract"
      },
      "core()": {
        "notice": "Reference to the `CoreBorrow` contract of the module which handles all AccessControl logic"
      },
      "oneInch()": {
        "notice": "1Inch Router"
      },
      "oneInchAllowedToken(address)": {
        "notice": "Whether the token was already approved on 1Inch"
      },
      "swap(address,address,address,uint256,uint256,bytes)": {
        "notice": "Notifies a contract that an address should be given `outToken` from `inToken`"
      },
      "uniAllowedToken(address)": {
        "notice": "Whether the token was already approved on Uniswap router"
      },
      "uniV3Router()": {
        "notice": "Uniswap Router contract"
      },
      "wStETH()": {
        "notice": "Wrapped StETH contract"
      }
    },
    "notice": "Swapper contract facilitating interactions with the VaultManager: to liquidate and get leverage",
    "version": 1
  },
  "storageLayout": {
    "storage": [
      {
        "astId": 19432,
        "contract": "contracts/swapper/Swapper.sol:Swapper",
        "label": "uniAllowedToken",
        "offset": 0,
        "slot": "0",
        "type": "t_mapping(t_contract(IERC20)5295,t_bool)"
      },
      {
        "astId": 19438,
        "contract": "contracts/swapper/Swapper.sol:Swapper",
        "label": "oneInchAllowedToken",
        "offset": 0,
        "slot": "1",
        "type": "t_mapping(t_contract(IERC20)5295,t_bool)"
      },
      {
        "astId": 19444,
        "contract": "contracts/swapper/Swapper.sol:Swapper",
        "label": "angleRouterAllowedToken",
        "offset": 0,
        "slot": "2",
        "type": "t_mapping(t_contract(IERC20)5295,t_bool)"
      }
    ],
    "types": {
      "t_bool": {
        "encoding": "inplace",
        "label": "bool",
        "numberOfBytes": "1"
      },
      "t_contract(IERC20)5295": {
        "encoding": "inplace",
        "label": "contract IERC20",
        "numberOfBytes": "20"
      },
      "t_mapping(t_contract(IERC20)5295,t_bool)": {
        "encoding": "mapping",
        "key": "t_contract(IERC20)5295",
        "label": "mapping(contract IERC20 => bool)",
        "numberOfBytes": "32",
        "value": "t_bool"
      }
    }
  }
}