{
  "address": "0x1a7e4e63778B4f12a199C062f3eFdD288afCBce8",
  "abi": [
    {
      "inputs": [],
      "name": "AssetStillControlledInReserves",
      "type": "error"
    },
    {
      "inputs": [],
      "name": "BurnAmountExceedsAllowance",
      "type": "error"
    },
    {
      "inputs": [],
      "name": "HourlyLimitExceeded",
      "type": "error"
    },
    {
      "inputs": [],
      "name": "InvalidSender",
      "type": "error"
    },
    {
      "inputs": [],
      "name": "InvalidToken",
      "type": "error"
    },
    {
      "inputs": [],
      "name": "InvalidTreasury",
      "type": "error"
    },
    {
      "inputs": [],
      "name": "NotGovernor",
      "type": "error"
    },
    {
      "inputs": [],
      "name": "NotGovernorOrGuardian",
      "type": "error"
    },
    {
      "inputs": [],
      "name": "NotMinter",
      "type": "error"
    },
    {
      "inputs": [],
      "name": "NotTreasury",
      "type": "error"
    },
    {
      "inputs": [],
      "name": "TooBigAmount",
      "type": "error"
    },
    {
      "inputs": [],
      "name": "TooHighParameterValue",
      "type": "error"
    },
    {
      "inputs": [],
      "name": "ZeroAddress",
      "type": "error"
    },
    {
      "anonymous": false,
      "inputs": [
        {
          "indexed": true,
          "internalType": "address",
          "name": "owner",
          "type": "address"
        },
        {
          "indexed": true,
          "internalType": "address",
          "name": "spender",
          "type": "address"
        },
        {
          "indexed": false,
          "internalType": "uint256",
          "name": "value",
          "type": "uint256"
        }
      ],
      "name": "Approval",
      "type": "event"
    },
    {
      "anonymous": false,
      "inputs": [
        {
          "indexed": true,
          "internalType": "address",
          "name": "bridgeToken",
          "type": "address"
        },
        {
          "indexed": false,
          "internalType": "uint256",
          "name": "limit",
          "type": "uint256"
        },
        {
          "indexed": false,
          "internalType": "uint256",
          "name": "hourlyLimit",
          "type": "uint256"
        },
        {
          "indexed": false,
          "internalType": "uint64",
          "name": "fee",
          "type": "uint64"
        },
        {
          "indexed": false,
          "internalType": "bool",
          "name": "paused",
          "type": "bool"
        }
      ],
      "name": "BridgeTokenAdded",
      "type": "event"
    },
    {
      "anonymous": false,
      "inputs": [
        {
          "indexed": true,
          "internalType": "address",
          "name": "bridgeToken",
          "type": "address"
        },
        {
          "indexed": false,
          "internalType": "uint64",
          "name": "fee",
          "type": "uint64"
        }
      ],
      "name": "BridgeTokenFeeUpdated",
      "type": "event"
    },
    {
      "anonymous": false,
      "inputs": [
        {
          "indexed": true,
          "internalType": "address",
          "name": "bridgeToken",
          "type": "address"
        },
        {
          "indexed": false,
          "internalType": "uint256",
          "name": "hourlyLimit",
          "type": "uint256"
        }
      ],
      "name": "BridgeTokenHourlyLimitUpdated",
      "type": "event"
    },
    {
      "anonymous": false,
      "inputs": [
        {
          "indexed": true,
          "internalType": "address",
          "name": "bridgeToken",
          "type": "address"
        },
        {
          "indexed": false,
          "internalType": "uint256",
          "name": "limit",
          "type": "uint256"
        }
      ],
      "name": "BridgeTokenLimitUpdated",
      "type": "event"
    },
    {
      "anonymous": false,
      "inputs": [
        {
          "indexed": true,
          "internalType": "address",
          "name": "bridgeToken",
          "type": "address"
        }
      ],
      "name": "BridgeTokenRemoved",
      "type": "event"
    },
    {
      "anonymous": false,
      "inputs": [
        {
          "indexed": true,
          "internalType": "address",
          "name": "bridgeToken",
          "type": "address"
        },
        {
          "indexed": false,
          "internalType": "bool",
          "name": "toggleStatus",
          "type": "bool"
        }
      ],
      "name": "BridgeTokenToggled",
      "type": "event"
    },
    {
      "anonymous": false,
      "inputs": [
        {
          "indexed": true,
          "internalType": "address",
          "name": "theAddress",
          "type": "address"
        },
        {
          "indexed": false,
          "internalType": "uint256",
          "name": "toggleStatus",
          "type": "uint256"
        }
      ],
      "name": "FeeToggled",
      "type": "event"
    },
    {
      "anonymous": false,
      "inputs": [
        {
          "indexed": true,
          "internalType": "address",
          "name": "minter",
          "type": "address"
        }
      ],
      "name": "MinterToggled",
      "type": "event"
    },
    {
      "anonymous": false,
      "inputs": [
        {
          "indexed": true,
          "internalType": "address",
          "name": "token",
          "type": "address"
        },
        {
          "indexed": true,
          "internalType": "address",
          "name": "to",
          "type": "address"
        },
        {
          "indexed": false,
          "internalType": "uint256",
          "name": "amount",
          "type": "uint256"
        }
      ],
      "name": "Recovered",
      "type": "event"
    },
    {
      "anonymous": false,
      "inputs": [
        {
          "indexed": true,
          "internalType": "address",
          "name": "from",
          "type": "address"
        },
        {
          "indexed": true,
          "internalType": "address",
          "name": "to",
          "type": "address"
        },
        {
          "indexed": false,
          "internalType": "uint256",
          "name": "value",
          "type": "uint256"
        }
      ],
      "name": "Transfer",
      "type": "event"
    },
    {
      "anonymous": false,
      "inputs": [
        {
          "indexed": true,
          "internalType": "address",
          "name": "_treasury",
          "type": "address"
        }
      ],
      "name": "TreasuryUpdated",
      "type": "event"
    },
    {
      "inputs": [],
      "name": "BASE_PARAMS",
      "outputs": [
        {
          "internalType": "uint256",
          "name": "",
          "type": "uint256"
        }
      ],
      "stateMutability": "view",
      "type": "function"
    },
    {
      "inputs": [],
      "name": "DOMAIN_SEPARATOR",
      "outputs": [
        {
          "internalType": "bytes32",
          "name": "",
          "type": "bytes32"
        }
      ],
      "stateMutability": "view",
      "type": "function"
    },
    {
      "inputs": [
        {
          "internalType": "address",
          "name": "bridgeToken",
          "type": "address"
        },
        {
          "internalType": "uint256",
          "name": "limit",
          "type": "uint256"
        },
        {
          "internalType": "uint256",
          "name": "hourlyLimit",
          "type": "uint256"
        },
        {
          "internalType": "uint64",
          "name": "fee",
          "type": "uint64"
        },
        {
          "internalType": "bool",
          "name": "paused",
          "type": "bool"
        }
      ],
      "name": "addBridgeToken",
      "outputs": [],
      "stateMutability": "nonpayable",
      "type": "function"
    },
    {
      "inputs": [
        {
          "internalType": "address",
          "name": "minter",
          "type": "address"
        }
      ],
      "name": "addMinter",
      "outputs": [],
      "stateMutability": "nonpayable",
      "type": "function"
    },
    {
      "inputs": [],
      "name": "allBridgeTokens",
      "outputs": [
        {
          "internalType": "address[]",
          "name": "",
          "type": "address[]"
        }
      ],
      "stateMutability": "view",
      "type": "function"
    },
    {
      "inputs": [
        {
          "internalType": "address",
          "name": "owner",
          "type": "address"
        },
        {
          "internalType": "address",
          "name": "spender",
          "type": "address"
        }
      ],
      "name": "allowance",
      "outputs": [
        {
          "internalType": "uint256",
          "name": "",
          "type": "uint256"
        }
      ],
      "stateMutability": "view",
      "type": "function"
    },
    {
      "inputs": [
        {
          "internalType": "address",
          "name": "spender",
          "type": "address"
        },
        {
          "internalType": "uint256",
          "name": "amount",
          "type": "uint256"
        }
      ],
      "name": "approve",
      "outputs": [
        {
          "internalType": "bool",
          "name": "",
          "type": "bool"
        }
      ],
      "stateMutability": "nonpayable",
      "type": "function"
    },
    {
      "inputs": [
        {
          "internalType": "address",
          "name": "account",
          "type": "address"
        }
      ],
      "name": "balanceOf",
      "outputs": [
        {
          "internalType": "uint256",
          "name": "",
          "type": "uint256"
        }
      ],
      "stateMutability": "view",
      "type": "function"
    },
    {
      "inputs": [
        {
          "internalType": "uint256",
          "name": "",
          "type": "uint256"
        }
      ],
      "name": "bridgeTokensList",
      "outputs": [
        {
          "internalType": "address",
          "name": "",
          "type": "address"
        }
      ],
      "stateMutability": "view",
      "type": "function"
    },
    {
      "inputs": [
        {
          "internalType": "address",
          "name": "",
          "type": "address"
        }
      ],
      "name": "bridges",
      "outputs": [
        {
          "internalType": "uint256",
          "name": "limit",
          "type": "uint256"
        },
        {
          "internalType": "uint256",
          "name": "hourlyLimit",
          "type": "uint256"
        },
        {
          "internalType": "uint64",
          "name": "fee",
          "type": "uint64"
        },
        {
          "internalType": "bool",
          "name": "allowed",
          "type": "bool"
        },
        {
          "internalType": "bool",
          "name": "paused",
          "type": "bool"
        }
      ],
      "stateMutability": "view",
      "type": "function"
    },
    {
      "inputs": [
        {
          "internalType": "uint256",
          "name": "amount",
          "type": "uint256"
        },
        {
          "internalType": "address",
          "name": "burner",
          "type": "address"
        },
        {
          "internalType": "address",
          "name": "sender",
          "type": "address"
        }
      ],
      "name": "burnFrom",
      "outputs": [],
      "stateMutability": "nonpayable",
      "type": "function"
    },
    {
      "inputs": [
        {
          "internalType": "uint256",
          "name": "amount",
          "type": "uint256"
        },
        {
          "internalType": "address",
          "name": "burner",
          "type": "address"
        }
      ],
      "name": "burnSelf",
      "outputs": [],
      "stateMutability": "nonpayable",
      "type": "function"
    },
    {
      "inputs": [
        {
          "internalType": "uint256",
          "name": "amount",
          "type": "uint256"
        }
      ],
      "name": "burnStablecoin",
      "outputs": [],
      "stateMutability": "nonpayable",
      "type": "function"
    },
    {
      "inputs": [
        {
          "internalType": "address",
          "name": "bridgeToken",
          "type": "address"
        }
      ],
      "name": "currentUsage",
      "outputs": [
        {
          "internalType": "uint256",
          "name": "",
          "type": "uint256"
        }
      ],
      "stateMutability": "view",
      "type": "function"
    },
    {
      "inputs": [],
      "name": "decimals",
      "outputs": [
        {
          "internalType": "uint8",
          "name": "",
          "type": "uint8"
        }
      ],
      "stateMutability": "view",
      "type": "function"
    },
    {
      "inputs": [
        {
          "internalType": "address",
          "name": "spender",
          "type": "address"
        },
        {
          "internalType": "uint256",
          "name": "subtractedValue",
          "type": "uint256"
        }
      ],
      "name": "decreaseAllowance",
      "outputs": [
        {
          "internalType": "bool",
          "name": "",
          "type": "bool"
        }
      ],
      "stateMutability": "nonpayable",
      "type": "function"
    },
    {
      "inputs": [
        {
          "internalType": "address",
          "name": "spender",
          "type": "address"
        },
        {
          "internalType": "uint256",
          "name": "addedValue",
          "type": "uint256"
        }
      ],
      "name": "increaseAllowance",
      "outputs": [
        {
          "internalType": "bool",
          "name": "",
          "type": "bool"
        }
      ],
      "stateMutability": "nonpayable",
      "type": "function"
    },
    {
      "inputs": [
        {
          "internalType": "string",
          "name": "name_",
          "type": "string"
        },
        {
          "internalType": "string",
          "name": "symbol_",
          "type": "string"
        },
        {
          "internalType": "address",
          "name": "_treasury",
          "type": "address"
        }
      ],
      "name": "initialize",
      "outputs": [],
      "stateMutability": "nonpayable",
      "type": "function"
    },
    {
      "inputs": [
        {
          "internalType": "address",
          "name": "",
          "type": "address"
        }
      ],
      "name": "isFeeExempt",
      "outputs": [
        {
          "internalType": "uint256",
          "name": "",
          "type": "uint256"
        }
      ],
      "stateMutability": "view",
      "type": "function"
    },
    {
      "inputs": [
        {
          "internalType": "address",
          "name": "",
          "type": "address"
        }
      ],
      "name": "isMinter",
      "outputs": [
        {
          "internalType": "bool",
          "name": "",
          "type": "bool"
        }
      ],
      "stateMutability": "view",
      "type": "function"
    },
    {
      "inputs": [
        {
          "internalType": "address",
          "name": "account",
          "type": "address"
        },
        {
          "internalType": "uint256",
          "name": "amount",
          "type": "uint256"
        }
      ],
      "name": "mint",
      "outputs": [],
      "stateMutability": "nonpayable",
      "type": "function"
    },
    {
      "inputs": [],
      "name": "name",
      "outputs": [
        {
          "internalType": "string",
          "name": "",
          "type": "string"
        }
      ],
      "stateMutability": "view",
      "type": "function"
    },
    {
      "inputs": [
        {
          "internalType": "address",
          "name": "owner",
          "type": "address"
        }
      ],
      "name": "nonces",
      "outputs": [
        {
          "internalType": "uint256",
          "name": "",
          "type": "uint256"
        }
      ],
      "stateMutability": "view",
      "type": "function"
    },
    {
      "inputs": [
        {
          "internalType": "address",
          "name": "owner",
          "type": "address"
        },
        {
          "internalType": "address",
          "name": "spender",
          "type": "address"
        },
        {
          "internalType": "uint256",
          "name": "value",
          "type": "uint256"
        },
        {
          "internalType": "uint256",
          "name": "deadline",
          "type": "uint256"
        },
        {
          "internalType": "uint8",
          "name": "v",
          "type": "uint8"
        },
        {
          "internalType": "bytes32",
          "name": "r",
          "type": "bytes32"
        },
        {
          "internalType": "bytes32",
          "name": "s",
          "type": "bytes32"
        }
      ],
      "name": "permit",
      "outputs": [],
      "stateMutability": "nonpayable",
      "type": "function"
    },
    {
      "inputs": [
        {
          "internalType": "address",
          "name": "tokenAddress",
          "type": "address"
        },
        {
          "internalType": "address",
          "name": "to",
          "type": "address"
        },
        {
          "internalType": "uint256",
          "name": "amountToRecover",
          "type": "uint256"
        }
      ],
      "name": "recoverERC20",
      "outputs": [],
      "stateMutability": "nonpayable",
      "type": "function"
    },
    {
      "inputs": [
        {
          "internalType": "address",
          "name": "bridgeToken",
          "type": "address"
        }
      ],
      "name": "removeBridgeToken",
      "outputs": [],
      "stateMutability": "nonpayable",
      "type": "function"
    },
    {
      "inputs": [
        {
          "internalType": "address",
          "name": "minter",
          "type": "address"
        }
      ],
      "name": "removeMinter",
      "outputs": [],
      "stateMutability": "nonpayable",
      "type": "function"
    },
    {
      "inputs": [
        {
          "internalType": "address",
          "name": "bridgeToken",
          "type": "address"
        },
        {
          "internalType": "uint256",
          "name": "hourlyLimit",
          "type": "uint256"
        }
      ],
      "name": "setHourlyLimit",
      "outputs": [],
      "stateMutability": "nonpayable",
      "type": "function"
    },
    {
      "inputs": [
        {
          "internalType": "address",
          "name": "bridgeToken",
          "type": "address"
        },
        {
          "internalType": "uint256",
          "name": "limit",
          "type": "uint256"
        }
      ],
      "name": "setLimit",
      "outputs": [],
      "stateMutability": "nonpayable",
      "type": "function"
    },
    {
      "inputs": [
        {
          "internalType": "address",
          "name": "bridgeToken",
          "type": "address"
        },
        {
          "internalType": "uint64",
          "name": "fee",
          "type": "uint64"
        }
      ],
      "name": "setSwapFee",
      "outputs": [],
      "stateMutability": "nonpayable",
      "type": "function"
    },
    {
      "inputs": [
        {
          "internalType": "address",
          "name": "_treasury",
          "type": "address"
        }
      ],
      "name": "setTreasury",
      "outputs": [],
      "stateMutability": "nonpayable",
      "type": "function"
    },
    {
      "inputs": [
        {
          "internalType": "address",
          "name": "bridgeToken",
          "type": "address"
        },
        {
          "internalType": "uint256",
          "name": "amount",
          "type": "uint256"
        },
        {
          "internalType": "address",
          "name": "to",
          "type": "address"
        }
      ],
      "name": "swapIn",
      "outputs": [
        {
          "internalType": "uint256",
          "name": "",
          "type": "uint256"
        }
      ],
      "stateMutability": "nonpayable",
      "type": "function"
    },
    {
      "inputs": [
        {
          "internalType": "address",
          "name": "bridgeToken",
          "type": "address"
        },
        {
          "internalType": "uint256",
          "name": "amount",
          "type": "uint256"
        },
        {
          "internalType": "address",
          "name": "to",
          "type": "address"
        }
      ],
      "name": "swapOut",
      "outputs": [
        {
          "internalType": "uint256",
          "name": "",
          "type": "uint256"
        }
      ],
      "stateMutability": "nonpayable",
      "type": "function"
    },
    {
      "inputs": [],
      "name": "symbol",
      "outputs": [
        {
          "internalType": "string",
          "name": "",
          "type": "string"
        }
      ],
      "stateMutability": "view",
      "type": "function"
    },
    {
      "inputs": [
        {
          "internalType": "address",
          "name": "bridgeToken",
          "type": "address"
        }
      ],
      "name": "toggleBridge",
      "outputs": [],
      "stateMutability": "nonpayable",
      "type": "function"
    },
    {
      "inputs": [
        {
          "internalType": "address",
          "name": "theAddress",
          "type": "address"
        }
      ],
      "name": "toggleFeesForAddress",
      "outputs": [],
      "stateMutability": "nonpayable",
      "type": "function"
    },
    {
      "inputs": [],
      "name": "totalSupply",
      "outputs": [
        {
          "internalType": "uint256",
          "name": "",
          "type": "uint256"
        }
      ],
      "stateMutability": "view",
      "type": "function"
    },
    {
      "inputs": [
        {
          "internalType": "address",
          "name": "recipient",
          "type": "address"
        },
        {
          "internalType": "uint256",
          "name": "amount",
          "type": "uint256"
        }
      ],
      "name": "transfer",
      "outputs": [
        {
          "internalType": "bool",
          "name": "",
          "type": "bool"
        }
      ],
      "stateMutability": "nonpayable",
      "type": "function"
    },
    {
      "inputs": [
        {
          "internalType": "address",
          "name": "sender",
          "type": "address"
        },
        {
          "internalType": "address",
          "name": "recipient",
          "type": "address"
        },
        {
          "internalType": "uint256",
          "name": "amount",
          "type": "uint256"
        }
      ],
      "name": "transferFrom",
      "outputs": [
        {
          "internalType": "bool",
          "name": "",
          "type": "bool"
        }
      ],
      "stateMutability": "nonpayable",
      "type": "function"
    },
    {
      "inputs": [],
      "name": "treasury",
      "outputs": [
        {
          "internalType": "address",
          "name": "",
          "type": "address"
        }
      ],
      "stateMutability": "view",
      "type": "function"
    },
    {
      "inputs": [
        {
          "internalType": "address",
          "name": "",
          "type": "address"
        },
        {
          "internalType": "uint256",
          "name": "",
          "type": "uint256"
        }
      ],
      "name": "usage",
      "outputs": [
        {
          "internalType": "uint256",
          "name": "",
          "type": "uint256"
        }
      ],
      "stateMutability": "view",
      "type": "function"
    }
  ],
  "transactionHash": "0xfc065f22d9788e8308ddfd219dd05101fca97d5a0714c25d95f4810db7c337fe",
  "args": [],
  "solcInputHash": "99462ec026e22672273cc435843cd98c",
  "bytecode": "0x60806040523480156200001157600080fd5b50600054610100900460ff166200002f5760005460ff161562000039565b62000039620000de565b620000a15760405162461bcd60e51b815260206004820152602e60248201527f496e697469616c697a61626c653a20636f6e747261637420697320616c72656160448201526d191e481a5b9a5d1a585b1a5e995960921b606482015260840160405180910390fd5b600054610100900460ff16158015620000c4576000805461ffff19166101011790555b8015620000d7576000805461ff00191690555b5062000102565b6000620000f630620000fc60201b620025b31760201c565b15905090565b3b151590565b61459680620001126000396000f3fe608060405234801561001057600080fd5b50600436106102d35760003560e01c806370a0823111610186578063a457c2d7116100e3578063ced67f0c11610097578063dd62ed3e11610071578063dd62ed3e146106b4578063e3e28655146106fa578063f0f442601461070d57600080fd5b8063ced67f0c146105fb578063d44ad63f1461068e578063d505accf146106a157600080fd5b8063aa271e1a116100c8578063aa271e1a146105b0578063ba330bd7146105d3578063cd4839ca146105e657600080fd5b8063a457c2d71461058a578063a9059cbb1461059d57600080fd5b806390218cff1161013a578063983b2d561161011f578063983b2d56146105595780639e4e0dae1461056c5780639f48118f1461057f57600080fd5b806390218cff1461053e57806395d89b411461055157600080fd5b80637d4c9c2d1161016b5780637d4c9c2d146104ed5780637ecebe00146105005780638933fb791461051357600080fd5b806370a08231146104a45780637334d020146104da57600080fd5b80633092afd51161023457806339509351116101e857806340c10f19116101cd57806340c10f19146104395780634dc32fcc1461044c57806361d027b31461045f57600080fd5b806339509351146104065780633f4218e01461041957600080fd5b8063350ebe0411610219578063350ebe04146103d85780633644e515146103eb57806336db43b5146103f357600080fd5b80633092afd5146103b6578063313ce567146103c957600080fd5b8063151dd7551161028b57806323b872dd1161027057806323b872dd1461037d5780632b471d8e146103905780632e403e14146103a357600080fd5b8063151dd7551461035457806318160ddd1461037557600080fd5b80630919a951116102bc5780630919a9511461030b578063095ea7b31461031e5780631171bda91461034157600080fd5b806306fdde03146102d8578063077f224a146102f6575b600080fd5b6102e0610720565b6040516102ed9190613e45565b60405180910390f35b610309610304366004613f92565b6107b2565b005b61030961031936600461400a565b6107c2565b61033161032c366004614027565b610925565b60405190151581526020016102ed565b61030961034f366004614053565b61093b565b610367610362366004614094565b610a90565b6040519081526020016102ed565b603554610367565b61033161038b366004614053565b610de1565b61030961039e3660046140cb565b610ecc565b6103096103b136600461400a565b610f23565b6103096103c436600461400a565b6112d5565b604051601281526020016102ed565b6103096103e63660046140fb565b6113be565b610367611412565b610309610401366004614027565b611421565b610331610414366004614027565b6115b1565b61036761042736600461400a565b60d16020526000908152604090205481565b610309610447366004614027565b6115fa565b61036761045a36600461400a565b61164d565b60cd5461047f9073ffffffffffffffffffffffffffffffffffffffff1681565b60405173ffffffffffffffffffffffffffffffffffffffff90911681526020016102ed565b6103676104b236600461400a565b73ffffffffffffffffffffffffffffffffffffffff1660009081526033602052604090205490565b6103096104e8366004614027565b611695565b6103096104fb36600461415d565b611828565b61036761050e36600461400a565b611b90565b610367610521366004614027565b60d060209081526000928352604080842090915290825290205481565b61030961054c3660046141ba565b611bbd565b6102e0611bca565b61030961056736600461400a565b611bd9565b61030961057a3660046141d3565b611ca1565b610367633b9aca0081565b610331610598366004614027565b611ead565b6103316105ab366004614027565b611f85565b6103316105be36600461400a565b60cc6020526000908152604090205460ff1681565b61047f6105e13660046141ba565b611f92565b6105ee611fc9565b6040516102ed9190614208565b61065561060936600461400a565b60ce6020526000908152604090208054600182015460029092015490919067ffffffffffffffff81169060ff680100000000000000008204811691690100000000000000000090041685565b60408051958652602086019490945267ffffffffffffffff9092169284019290925290151560608301521515608082015260a0016102ed565b61036761069c366004614094565b612037565b6103096106af366004614262565b61217e565b6103676106c23660046142d9565b73ffffffffffffffffffffffffffffffffffffffff918216600090815260346020908152604080832093909416825291909152205490565b61030961070836600461400a565b61231f565b61030961071b36600461400a565b6124f3565b60606036805461072f90614307565b80601f016020809104026020016040519081016040528092919081815260200182805461075b90614307565b80156107a85780601f1061077d576101008083540402835291602001916107a8565b820191906000526020600020905b81548152906001019060200180831161078b57829003601f168201915b5050505050905090565b6107bd8383836125b9565b505050565b60cd546040517f521d4de900000000000000000000000000000000000000000000000000000000815233600482015273ffffffffffffffffffffffffffffffffffffffff9091169063521d4de990602401602060405180830381865afa158015610830573d6000803e3d6000fd5b505050506040513d601f19601f820116820180604052508101906108549190614355565b61088a576040517f99e120bc00000000000000000000000000000000000000000000000000000000815260040160405180910390fd5b73ffffffffffffffffffffffffffffffffffffffff8116600090815260d160205260408120546108bb9060016143a1565b73ffffffffffffffffffffffffffffffffffffffff8316600081815260d160205260409081902083905551919250907f979ef83e7e7a87cb48064e296dd7e997870d50f43acf8d7ad221313526c8ca0f906109199084815260200190565b60405180910390a25050565b600061093233848461282a565b50600192915050565b60cd546040517fe43581b800000000000000000000000000000000000000000000000000000000815233600482015273ffffffffffffffffffffffffffffffffffffffff9091169063e43581b890602401602060405180830381865afa1580156109a9573d6000803e3d6000fd5b505050506040513d601f19601f820116820180604052508101906109cd9190614355565b610a03576040517fee3675d400000000000000000000000000000000000000000000000000000000815260040160405180910390fd5b610a2473ffffffffffffffffffffffffffffffffffffffff841683836129d5565b8173ffffffffffffffffffffffffffffffffffffffff168373ffffffffffffffffffffffffffffffffffffffff167ffff3b3844276f57024e0b42afec1a37f75db36511e43819a4f2a63ab7862b64883604051610a8391815260200190565b60405180910390a3505050565b73ffffffffffffffffffffffffffffffffffffffff8316600090815260ce60209081526040808320815160a081018352815481526001820154938101939093526002015467ffffffffffffffff81169183019190915260ff680100000000000000008204811615801560608501526901000000000000000000909204161515608083015280610b20575080608001515b15610b57576040517fc1ab6dc100000000000000000000000000000000000000000000000000000000815260040160405180910390fd5b6040517f70a0823100000000000000000000000000000000000000000000000000000000815230600482015260009073ffffffffffffffffffffffffffffffffffffffff8716906370a0823190602401602060405180830381865afa158015610bc4573d6000803e3d6000fd5b505050506040513d601f19601f82011682018060405250810190610be891906143b8565b8251909150610bf786836143d1565b1115610c1f578151811015610c1a578151610c139082906143a1565b9450610c1f565b600094505b6000610c2d610e10426143e9565b73ffffffffffffffffffffffffffffffffffffffff8816600090815260d06020908152604080832084845290915281205491925090610c6d9088906143d1565b90508360200151811115610d015773ffffffffffffffffffffffffffffffffffffffff8816600090815260d060209081526040808320858452825290912054908501511115610cfc5773ffffffffffffffffffffffffffffffffffffffff8816600090815260d06020908152604080832085845282529091205490850151610cf591906143a1565b9650610d01565b600096505b73ffffffffffffffffffffffffffffffffffffffff8816600090815260d060209081526040808320858452909152902054610d3d9088906143d1565b73ffffffffffffffffffffffffffffffffffffffff8916600081815260d060209081526040808320878452909152902091909155610d7d9033308a612aa9565b33600090815260d160205260409020548790610dc957633b9aca00856040015167ffffffffffffffff1682610db29190614424565b610dbc91906143e9565b610dc690826143a1565b90505b610dd38782612b07565b9450505050505b9392505050565b6000610dee848484612c27565b73ffffffffffffffffffffffffffffffffffffffff8416600090815260346020908152604080832033845290915290205482811015610eb4576040517f08c379a000000000000000000000000000000000000000000000000000000000815260206004820152602860248201527f45524332303a207472616e7366657220616d6f756e742065786365656473206160448201527f6c6c6f77616e636500000000000000000000000000000000000000000000000060648201526084015b60405180910390fd5b610ec1853385840361282a565b506001949350505050565b33600090815260cc602052604090205460ff16610f15576040517ff8d2906c00000000000000000000000000000000000000000000000000000000815260040160405180910390fd5b610f1f8183612eda565b5050565b60cd546040517fe43581b800000000000000000000000000000000000000000000000000000000815233600482015273ffffffffffffffffffffffffffffffffffffffff9091169063e43581b890602401602060405180830381865afa158015610f91573d6000803e3d6000fd5b505050506040513d601f19601f82011682018060405250810190610fb59190614355565b610feb576040517fee3675d400000000000000000000000000000000000000000000000000000000815260040160405180910390fd5b6040517f70a0823100000000000000000000000000000000000000000000000000000000815230600482015273ffffffffffffffffffffffffffffffffffffffff8216906370a0823190602401602060405180830381865afa158015611055573d6000803e3d6000fd5b505050506040513d601f19601f8201168201806040525081019061107991906143b8565b156110b0576040517f2ef630ec00000000000000000000000000000000000000000000000000000000815260040160405180910390fd5b73ffffffffffffffffffffffffffffffffffffffff8116600090815260ce602052604081208181556001810182905560020180547fffffffffffffffffffffffffffffffffffffffffffff0000000000000000000016905560cf54905b6111186001836143a1565b811015611226578273ffffffffffffffffffffffffffffffffffffffff1660cf828154811061114957611149614461565b60009182526020909120015473ffffffffffffffffffffffffffffffffffffffff1614156112145760cf61117e6001846143a1565b8154811061118e5761118e614461565b60009182526020909120015460cf805473ffffffffffffffffffffffffffffffffffffffff90921691839081106111c7576111c7614461565b9060005260206000200160006101000a81548173ffffffffffffffffffffffffffffffffffffffff021916908373ffffffffffffffffffffffffffffffffffffffff160217905550611226565b8061121e81614490565b91505061110d565b5060cf805480611238576112386144c9565b60008281526020812082017fffffffffffffffffffffffffffffffffffffffffffffffffffffffffffffffff90810180547fffffffffffffffffffffffff000000000000000000000000000000000000000016905590910190915560405173ffffffffffffffffffffffffffffffffffffffff8416917f5c95b49c4d59d97a2f044167723f29c74b30f99702e3fd406c3830160aa9ccb891a25050565b60cd5473ffffffffffffffffffffffffffffffffffffffff16331480159061131357503373ffffffffffffffffffffffffffffffffffffffff821614155b1561134a576040517fddb5de5e00000000000000000000000000000000000000000000000000000000815260040160405180910390fd5b73ffffffffffffffffffffffffffffffffffffffff8116600081815260cc602052604080822080547fffffffffffffffffffffffffffffffffffffffffffffffffffffffffffffff00169055517f98c15241d6c02bc5ee0b780e11b3ea737a2defd9d04877edbe9f9497065bd02f9190a250565b33600090815260cc602052604090205460ff16611407576040517ff8d2906c00000000000000000000000000000000000000000000000000000000815260040160405180910390fd5b6107bd8383836130c7565b600061141c613182565b905090565b60cd546040517f521d4de900000000000000000000000000000000000000000000000000000000815233600482015273ffffffffffffffffffffffffffffffffffffffff9091169063521d4de990602401602060405180830381865afa15801561148f573d6000803e3d6000fd5b505050506040513d601f19601f820116820180604052508101906114b39190614355565b6114e9576040517f99e120bc00000000000000000000000000000000000000000000000000000000815260040160405180910390fd5b73ffffffffffffffffffffffffffffffffffffffff8216600090815260ce602052604090206002015468010000000000000000900460ff16611557576040517fc1ab6dc100000000000000000000000000000000000000000000000000000000815260040160405180910390fd5b73ffffffffffffffffffffffffffffffffffffffff8216600081815260ce602052604090819020839055517fe7b113fba37131b6396680a0c55790a697ec975e198ff8cfd89dac90a6379e61906109199084815260200190565b33600081815260346020908152604080832073ffffffffffffffffffffffffffffffffffffffff8716845290915281205490916109329185906115f59086906143d1565b61282a565b33600090815260cc602052604090205460ff16611643576040517ff8d2906c00000000000000000000000000000000000000000000000000000000815260040160405180910390fd5b610f1f8282612b07565b73ffffffffffffffffffffffffffffffffffffffff8116600090815260d0602052604081208161167f610e10426143e9565b8152602001908152602001600020549050919050565b60cd546040517f521d4de900000000000000000000000000000000000000000000000000000000815233600482015273ffffffffffffffffffffffffffffffffffffffff9091169063521d4de990602401602060405180830381865afa158015611703573d6000803e3d6000fd5b505050506040513d601f19601f820116820180604052508101906117279190614355565b61175d576040517f99e120bc00000000000000000000000000000000000000000000000000000000815260040160405180910390fd5b73ffffffffffffffffffffffffffffffffffffffff8216600090815260ce602052604090206002015468010000000000000000900460ff166117cb576040517fc1ab6dc100000000000000000000000000000000000000000000000000000000815260040160405180910390fd5b73ffffffffffffffffffffffffffffffffffffffff8216600081815260ce602052604090819020600101839055517fe13ac9338b2ee623233f83c1b3ceab16490fa3e3737fac7f0970d0830a9f4871906109199084815260200190565b60cd546040517fe43581b800000000000000000000000000000000000000000000000000000000815233600482015273ffffffffffffffffffffffffffffffffffffffff9091169063e43581b890602401602060405180830381865afa158015611896573d6000803e3d6000fd5b505050506040513d601f19601f820116820180604052508101906118ba9190614355565b6118f0576040517fee3675d400000000000000000000000000000000000000000000000000000000815260040160405180910390fd5b73ffffffffffffffffffffffffffffffffffffffff8516600090815260ce602052604090206002015468010000000000000000900460ff1680611947575073ffffffffffffffffffffffffffffffffffffffff8516155b1561197e576040517fc1ab6dc100000000000000000000000000000000000000000000000000000000815260040160405180910390fd5b633b9aca008267ffffffffffffffff1611156119c6576040517feca1d2c600000000000000000000000000000000000000000000000000000000815260040160405180910390fd5b6040805160a08101825260008082526020820181905291810182905260608101829052608081019190915284815260208082018581528315156080840190815267ffffffffffffffff808716604080870191825260016060880181815273ffffffffffffffffffffffffffffffffffffffff8e16600081815260ce9099528389208a5181559751888401559351600290970180549151965115156901000000000000000000027fffffffffffffffffffffffffffffffffffffffffffff00ffffffffffffffffff97151568010000000000000000027fffffffffffffffffffffffffffffffffffffffffffffff000000000000000000909316989096169790971717949094169290921790935560cf805492830181559093527facb8d954e2cfef495862221e91bd7523613cf8808827cb33edfe4904cc51bf290180547fffffffffffffffffffffffff0000000000000000000000000000000000000000168217905590517f53087ff85d80a7671594bd2e86b92af22e0b3c2c441c8033bba7399b7b5cbe2390611b80908890889088908890938452602084019290925267ffffffffffffffff1660408301521515606082015260800190565b60405180910390a2505050505050565b73ffffffffffffffffffffffffffffffffffffffff81166000908152609960205260408120545b92915050565b611bc73382612eda565b50565b60606037805461072f90614307565b60cd5473ffffffffffffffffffffffffffffffffffffffff163314611c2a576040517fb90cdbb100000000000000000000000000000000000000000000000000000000815260040160405180910390fd5b73ffffffffffffffffffffffffffffffffffffffff8116600081815260cc602052604080822080547fffffffffffffffffffffffffffffffffffffffffffffffffffffffffffffff00166001179055517f98c15241d6c02bc5ee0b780e11b3ea737a2defd9d04877edbe9f9497065bd02f9190a250565b60cd546040517f521d4de900000000000000000000000000000000000000000000000000000000815233600482015273ffffffffffffffffffffffffffffffffffffffff9091169063521d4de990602401602060405180830381865afa158015611d0f573d6000803e3d6000fd5b505050506040513d601f19601f82011682018060405250810190611d339190614355565b611d69576040517f99e120bc00000000000000000000000000000000000000000000000000000000815260040160405180910390fd5b73ffffffffffffffffffffffffffffffffffffffff8216600090815260ce602052604090206002015468010000000000000000900460ff16611dd7576040517fc1ab6dc100000000000000000000000000000000000000000000000000000000815260040160405180910390fd5b633b9aca008167ffffffffffffffff161115611e1f576040517feca1d2c600000000000000000000000000000000000000000000000000000000815260040160405180910390fd5b73ffffffffffffffffffffffffffffffffffffffff8216600081815260ce602090815260409182902060020180547fffffffffffffffffffffffffffffffffffffffffffffffff00000000000000001667ffffffffffffffff861690811790915591519182527f901f9de19b475adc8da4110434b8df940dce085afd05e2281c86807f3a899d299101610919565b33600090815260346020908152604080832073ffffffffffffffffffffffffffffffffffffffff8616845290915281205482811015611f6e576040517f08c379a000000000000000000000000000000000000000000000000000000000815260206004820152602560248201527f45524332303a2064656372656173656420616c6c6f77616e63652062656c6f7760448201527f207a65726f0000000000000000000000000000000000000000000000000000006064820152608401610eab565b611f7b338585840361282a565b5060019392505050565b6000610932338484612c27565b60cf8181548110611fa257600080fd5b60009182526020909120015473ffffffffffffffffffffffffffffffffffffffff16905081565b606060cf8054806020026020016040519081016040528092919081815260200182805480156107a857602002820191906000526020600020905b815473ffffffffffffffffffffffffffffffffffffffff168152600190910190602001808311612003575050505050905090565b73ffffffffffffffffffffffffffffffffffffffff8316600090815260ce60209081526040808320815160a081018352815481526001820154938101939093526002015467ffffffffffffffff81169183019190915260ff6801000000000000000082048116158015606085015269010000000000000000009092041615156080830152806120c7575080608001515b156120fe576040517fc1ab6dc100000000000000000000000000000000000000000000000000000000815260040160405180910390fd5b6121083385612eda565b33600090815260d16020526040902054849061215457633b9aca00826040015167ffffffffffffffff168261213d9190614424565b61214791906143e9565b61215190826143a1565b90505b61217573ffffffffffffffffffffffffffffffffffffffff871685836129d5565b95945050505050565b834211156121e8576040517f08c379a000000000000000000000000000000000000000000000000000000000815260206004820152601d60248201527f45524332305065726d69743a206578706972656420646561646c696e650000006044820152606401610eab565b6000609a548888886121f98c6131fd565b60408051602081019690965273ffffffffffffffffffffffffffffffffffffffff94851690860152929091166060840152608083015260a082015260c0810186905260e001604051602081830303815290604052805190602001209050600061226182613232565b905060006122718287878761329b565b90508973ffffffffffffffffffffffffffffffffffffffff168173ffffffffffffffffffffffffffffffffffffffff1614612308576040517f08c379a000000000000000000000000000000000000000000000000000000000815260206004820152601e60248201527f45524332305065726d69743a20696e76616c6964207369676e617475726500006044820152606401610eab565b6123138a8a8a61282a565b50505050505050505050565b60cd546040517f521d4de900000000000000000000000000000000000000000000000000000000815233600482015273ffffffffffffffffffffffffffffffffffffffff9091169063521d4de990602401602060405180830381865afa15801561238d573d6000803e3d6000fd5b505050506040513d601f19601f820116820180604052508101906123b19190614355565b6123e7576040517f99e120bc00000000000000000000000000000000000000000000000000000000815260040160405180910390fd5b73ffffffffffffffffffffffffffffffffffffffff8116600090815260ce602052604090206002015468010000000000000000900460ff16612455576040517fc1ab6dc100000000000000000000000000000000000000000000000000000000815260040160405180910390fd5b73ffffffffffffffffffffffffffffffffffffffff8116600081815260ce602090815260409182902060020180547fffffffffffffffffffffffffffffffffffffffffffff00ffffffffffffffffff811669010000000000000000009182900460ff16801592830291909117909255925192835292917ff7c93079dcbf699749d66345a351afab7d24219bb1d915c9f4fc4cf03f00d3979101610919565b60cd5473ffffffffffffffffffffffffffffffffffffffff163314612544576040517fb90cdbb100000000000000000000000000000000000000000000000000000000815260040160405180910390fd5b60cd80547fffffffffffffffffffffffff00000000000000000000000000000000000000001673ffffffffffffffffffffffffffffffffffffffff83169081179091556040517f7dae230f18360d76a040c81f050aa14eb9d6dc7901b20fc5d855e2a20fe814d190600090a250565b3b151590565b600054610100900460ff166125d45760005460ff16156125d8565b303b155b612664576040517f08c379a000000000000000000000000000000000000000000000000000000000815260206004820152602e60248201527f496e697469616c697a61626c653a20636f6e747261637420697320616c72656160448201527f647920696e697469616c697a65640000000000000000000000000000000000006064820152608401610eab565b600054610100900460ff161580156126a357600080547fffffffffffffffffffffffffffffffffffffffffffffffffffffffffffff0000166101011790555b6126ac846132c3565b6126b684846133aa565b3073ffffffffffffffffffffffffffffffffffffffff168273ffffffffffffffffffffffffffffffffffffffff1663e9cbd8226040518163ffffffff1660e01b8152600401602060405180830381865afa158015612718573d6000803e3d6000fd5b505050506040513d601f19601f8201168201806040525081019061273c91906144f8565b73ffffffffffffffffffffffffffffffffffffffff1614612789576040517f14bcf5c800000000000000000000000000000000000000000000000000000000815260040160405180910390fd5b60cd80547fffffffffffffffffffffffff00000000000000000000000000000000000000001673ffffffffffffffffffffffffffffffffffffffff84169081179091556040517f7dae230f18360d76a040c81f050aa14eb9d6dc7901b20fc5d855e2a20fe814d190600090a2801561282457600080547fffffffffffffffffffffffffffffffffffffffffffffffffffffffffffff00ff1690555b50505050565b73ffffffffffffffffffffffffffffffffffffffff83166128cc576040517f08c379a0000000000000000000000000000000000000000000000000000000008152602060048201526024808201527f45524332303a20617070726f76652066726f6d20746865207a65726f2061646460448201527f72657373000000000000000000000000000000000000000000000000000000006064820152608401610eab565b73ffffffffffffffffffffffffffffffffffffffff821661296f576040517f08c379a000000000000000000000000000000000000000000000000000000000815260206004820152602260248201527f45524332303a20617070726f766520746f20746865207a65726f20616464726560448201527f73730000000000000000000000000000000000000000000000000000000000006064820152608401610eab565b73ffffffffffffffffffffffffffffffffffffffff83811660008181526034602090815260408083209487168084529482529182902085905590518481527f8c5be1e5ebec7d5bd14f71427d1e84f3dd0314c0f7b2291e5b200ac8c7c3b9259101610a83565b60405173ffffffffffffffffffffffffffffffffffffffff83166024820152604481018290526107bd9084907fa9059cbb00000000000000000000000000000000000000000000000000000000906064015b604080517fffffffffffffffffffffffffffffffffffffffffffffffffffffffffffffffe08184030181529190526020810180517bffffffffffffffffffffffffffffffffffffffffffffffffffffffff167fffffffff0000000000000000000000000000000000000000000000000000000090931692909217909152613453565b60405173ffffffffffffffffffffffffffffffffffffffff808516602483015283166044820152606481018290526128249085907f23b872dd0000000000000000000000000000000000000000000000000000000090608401612a27565b73ffffffffffffffffffffffffffffffffffffffff8216612b84576040517f08c379a000000000000000000000000000000000000000000000000000000000815260206004820152601f60248201527f45524332303a206d696e7420746f20746865207a65726f2061646472657373006044820152606401610eab565b8060356000828254612b9691906143d1565b909155505073ffffffffffffffffffffffffffffffffffffffff821660009081526033602052604081208054839290612bd09084906143d1565b909155505060405181815273ffffffffffffffffffffffffffffffffffffffff8316906000907fddf252ad1be2c89b69c2b068fc378daa952ba7f163c4a11628f55a4df523b3ef9060200160405180910390a35050565b73ffffffffffffffffffffffffffffffffffffffff8316612cca576040517f08c379a000000000000000000000000000000000000000000000000000000000815260206004820152602560248201527f45524332303a207472616e736665722066726f6d20746865207a65726f20616460448201527f64726573730000000000000000000000000000000000000000000000000000006064820152608401610eab565b73ffffffffffffffffffffffffffffffffffffffff8216612d6d576040517f08c379a000000000000000000000000000000000000000000000000000000000815260206004820152602360248201527f45524332303a207472616e7366657220746f20746865207a65726f206164647260448201527f65737300000000000000000000000000000000000000000000000000000000006064820152608401610eab565b73ffffffffffffffffffffffffffffffffffffffff831660009081526033602052604090205481811015612e23576040517f08c379a000000000000000000000000000000000000000000000000000000000815260206004820152602660248201527f45524332303a207472616e7366657220616d6f756e742065786365656473206260448201527f616c616e636500000000000000000000000000000000000000000000000000006064820152608401610eab565b73ffffffffffffffffffffffffffffffffffffffff808516600090815260336020526040808220858503905591851681529081208054849290612e679084906143d1565b925050819055508273ffffffffffffffffffffffffffffffffffffffff168473ffffffffffffffffffffffffffffffffffffffff167fddf252ad1be2c89b69c2b068fc378daa952ba7f163c4a11628f55a4df523b3ef84604051612ecd91815260200190565b60405180910390a3612824565b73ffffffffffffffffffffffffffffffffffffffff8216612f7d576040517f08c379a000000000000000000000000000000000000000000000000000000000815260206004820152602160248201527f45524332303a206275726e2066726f6d20746865207a65726f2061646472657360448201527f73000000000000000000000000000000000000000000000000000000000000006064820152608401610eab565b73ffffffffffffffffffffffffffffffffffffffff821660009081526033602052604090205481811015613033576040517f08c379a000000000000000000000000000000000000000000000000000000000815260206004820152602260248201527f45524332303a206275726e20616d6f756e7420657863656564732062616c616e60448201527f63650000000000000000000000000000000000000000000000000000000000006064820152608401610eab565b73ffffffffffffffffffffffffffffffffffffffff8316600090815260336020526040812083830390556035805484929061306f9084906143a1565b909155505060405182815260009073ffffffffffffffffffffffffffffffffffffffff8516907fddf252ad1be2c89b69c2b068fc378daa952ba7f163c4a11628f55a4df523b3ef9060200160405180910390a3505050565b8073ffffffffffffffffffffffffffffffffffffffff168273ffffffffffffffffffffffffffffffffffffffff16146131785773ffffffffffffffffffffffffffffffffffffffff82811660009081526034602090815260408083209385168352929052205483811015613167576040517f715ec26c00000000000000000000000000000000000000000000000000000000815260040160405180910390fd5b61317683836115f587856143a1565b505b6107bd8284612eda565b600061141c7f8b73c3c69bb8fe3d512ecc4cf759cc79239f7b179b0ffacaa9a75d522b39400f6131b160655490565b6066546040805160208101859052908101839052606081018290524660808201523060a082015260009060c0016040516020818303038152906040528051906020012090509392505050565b73ffffffffffffffffffffffffffffffffffffffff811660009081526099602052604090208054600181018255905b50919050565b6000611bb761323f613182565b836040517f19010000000000000000000000000000000000000000000000000000000000006020820152602281018390526042810182905260009060620160405160208183030381529060405280519060200120905092915050565b60008060006132ac8787878761355f565b915091506132b981613677565b5095945050505050565b600054610100900460ff1661335a576040517f08c379a000000000000000000000000000000000000000000000000000000000815260206004820152602b60248201527f496e697469616c697a61626c653a20636f6e7472616374206973206e6f74206960448201527f6e697469616c697a696e670000000000000000000000000000000000000000006064820152608401610eab565b6133626138d0565b6133a1816040518060400160405280600181526020017f3100000000000000000000000000000000000000000000000000000000000000815250613969565b611bc781613a1a565b600054610100900460ff16613441576040517f08c379a000000000000000000000000000000000000000000000000000000000815260206004820152602b60248201527f496e697469616c697a61626c653a20636f6e7472616374206973206e6f74206960448201527f6e697469616c697a696e670000000000000000000000000000000000000000006064820152608401610eab565b6134496138d0565b610f1f8282613ad8565b60006134b5826040518060400160405280602081526020017f5361666545524332303a206c6f772d6c6576656c2063616c6c206661696c65648152508573ffffffffffffffffffffffffffffffffffffffff16613b969092919063ffffffff16565b8051909150156107bd57808060200190518101906134d39190614355565b6107bd576040517f08c379a000000000000000000000000000000000000000000000000000000000815260206004820152602a60248201527f5361666545524332303a204552433230206f7065726174696f6e20646964206e60448201527f6f742073756363656564000000000000000000000000000000000000000000006064820152608401610eab565b6000807f7fffffffffffffffffffffffffffffff5d576e7357a4501ddfe92f46681b20a0831115613596575060009050600361366e565b8460ff16601b141580156135ae57508460ff16601c14155b156135bf575060009050600461366e565b6040805160008082526020820180845289905260ff881692820192909252606081018690526080810185905260019060a0016020604051602081039080840390855afa158015613613573d6000803e3d6000fd5b50506040517fffffffffffffffffffffffffffffffffffffffffffffffffffffffffffffffe0015191505073ffffffffffffffffffffffffffffffffffffffff81166136675760006001925092505061366e565b9150600090505b94509492505050565b600081600481111561368b5761368b614515565b14156136945750565b60018160048111156136a8576136a8614515565b1415613710576040517f08c379a000000000000000000000000000000000000000000000000000000000815260206004820152601860248201527f45434453413a20696e76616c6964207369676e617475726500000000000000006044820152606401610eab565b600281600481111561372457613724614515565b141561378c576040517f08c379a000000000000000000000000000000000000000000000000000000000815260206004820152601f60248201527f45434453413a20696e76616c6964207369676e6174757265206c656e677468006044820152606401610eab565b60038160048111156137a0576137a0614515565b141561382e576040517f08c379a000000000000000000000000000000000000000000000000000000000815260206004820152602260248201527f45434453413a20696e76616c6964207369676e6174757265202773272076616c60448201527f75650000000000000000000000000000000000000000000000000000000000006064820152608401610eab565b600481600481111561384257613842614515565b1415611bc7576040517f08c379a000000000000000000000000000000000000000000000000000000000815260206004820152602260248201527f45434453413a20696e76616c6964207369676e6174757265202776272076616c60448201527f75650000000000000000000000000000000000000000000000000000000000006064820152608401610eab565b600054610100900460ff16613967576040517f08c379a000000000000000000000000000000000000000000000000000000000815260206004820152602b60248201527f496e697469616c697a61626c653a20636f6e7472616374206973206e6f74206960448201527f6e697469616c697a696e670000000000000000000000000000000000000000006064820152608401610eab565b565b600054610100900460ff16613a00576040517f08c379a000000000000000000000000000000000000000000000000000000000815260206004820152602b60248201527f496e697469616c697a61626c653a20636f6e7472616374206973206e6f74206960448201527f6e697469616c697a696e670000000000000000000000000000000000000000006064820152608401610eab565b815160209283012081519190920120606591909155606655565b600054610100900460ff16613ab1576040517f08c379a000000000000000000000000000000000000000000000000000000000815260206004820152602b60248201527f496e697469616c697a61626c653a20636f6e7472616374206973206e6f74206960448201527f6e697469616c697a696e670000000000000000000000000000000000000000006064820152608401610eab565b507f6e71edae12b1b97f4d1f60370fef10105fa2faae0126114a169c64845d6126c9609a55565b600054610100900460ff16613b6f576040517f08c379a000000000000000000000000000000000000000000000000000000000815260206004820152602b60248201527f496e697469616c697a61626c653a20636f6e7472616374206973206e6f74206960448201527f6e697469616c697a696e670000000000000000000000000000000000000000006064820152608401610eab565b8151613b82906036906020850190613d80565b5080516107bd906037906020840190613d80565b6060613ba58484600085613bad565b949350505050565b606082471015613c3f576040517f08c379a000000000000000000000000000000000000000000000000000000000815260206004820152602660248201527f416464726573733a20696e73756666696369656e742062616c616e636520666f60448201527f722063616c6c00000000000000000000000000000000000000000000000000006064820152608401610eab565b843b613ca7576040517f08c379a000000000000000000000000000000000000000000000000000000000815260206004820152601d60248201527f416464726573733a2063616c6c20746f206e6f6e2d636f6e74726163740000006044820152606401610eab565b6000808673ffffffffffffffffffffffffffffffffffffffff168587604051613cd09190614544565b60006040518083038185875af1925050503d8060008114613d0d576040519150601f19603f3d011682016040523d82523d6000602084013e613d12565b606091505b5091509150613d22828286613d2d565b979650505050505050565b60608315613d3c575081610dda565b825115613d4c5782518084602001fd5b816040517f08c379a0000000000000000000000000000000000000000000000000000000008152600401610eab9190613e45565b828054613d8c90614307565b90600052602060002090601f016020900481019282613dae5760008555613df4565b82601f10613dc757805160ff1916838001178555613df4565b82800160010185558215613df4579182015b82811115613df4578251825591602001919060010190613dd9565b50613e00929150613e04565b5090565b5b80821115613e005760008155600101613e05565b60005b83811015613e34578181015183820152602001613e1c565b838111156128245750506000910152565b6020815260008251806020840152613e64816040850160208701613e19565b601f017fffffffffffffffffffffffffffffffffffffffffffffffffffffffffffffffe0169190910160400192915050565b7f4e487b7100000000000000000000000000000000000000000000000000000000600052604160045260246000fd5b600082601f830112613ed657600080fd5b813567ffffffffffffffff80821115613ef157613ef1613e96565b604051601f83017fffffffffffffffffffffffffffffffffffffffffffffffffffffffffffffffe0908116603f01168101908282118183101715613f3757613f37613e96565b81604052838152866020858801011115613f5057600080fd5b836020870160208301376000602085830101528094505050505092915050565b73ffffffffffffffffffffffffffffffffffffffff81168114611bc757600080fd5b600080600060608486031215613fa757600080fd5b833567ffffffffffffffff80821115613fbf57600080fd5b613fcb87838801613ec5565b94506020860135915080821115613fe157600080fd5b50613fee86828701613ec5565b9250506040840135613fff81613f70565b809150509250925092565b60006020828403121561401c57600080fd5b8135610dda81613f70565b6000806040838503121561403a57600080fd5b823561404581613f70565b946020939093013593505050565b60008060006060848603121561406857600080fd5b833561407381613f70565b9250602084013561408381613f70565b929592945050506040919091013590565b6000806000606084860312156140a957600080fd5b83356140b481613f70565b9250602084013591506040840135613fff81613f70565b600080604083850312156140de57600080fd5b8235915060208301356140f081613f70565b809150509250929050565b60008060006060848603121561411057600080fd5b83359250602084013561412281613f70565b91506040840135613fff81613f70565b803567ffffffffffffffff8116811461414a57600080fd5b919050565b8015158114611bc757600080fd5b600080600080600060a0868803121561417557600080fd5b853561418081613f70565b9450602086013593506040860135925061419c60608701614132565b915060808601356141ac8161414f565b809150509295509295909350565b6000602082840312156141cc57600080fd5b5035919050565b600080604083850312156141e657600080fd5b82356141f181613f70565b91506141ff60208401614132565b90509250929050565b6020808252825182820181905260009190848201906040850190845b8181101561425657835173ffffffffffffffffffffffffffffffffffffffff1683529284019291840191600101614224565b50909695505050505050565b600080600080600080600060e0888a03121561427d57600080fd5b873561428881613f70565b9650602088013561429881613f70565b95506040880135945060608801359350608088013560ff811681146142bc57600080fd5b9699959850939692959460a0840135945060c09093013592915050565b600080604083850312156142ec57600080fd5b82356142f781613f70565b915060208301356140f081613f70565b600181811c9082168061431b57607f821691505b6020821081141561322c577f4e487b7100000000000000000000000000000000000000000000000000000000600052602260045260246000fd5b60006020828403121561436757600080fd5b8151610dda8161414f565b7f4e487b7100000000000000000000000000000000000000000000000000000000600052601160045260246000fd5b6000828210156143b3576143b3614372565b500390565b6000602082840312156143ca57600080fd5b5051919050565b600082198211156143e4576143e4614372565b500190565b60008261441f577f4e487b7100000000000000000000000000000000000000000000000000000000600052601260045260246000fd5b500490565b6000817fffffffffffffffffffffffffffffffffffffffffffffffffffffffffffffffff048311821515161561445c5761445c614372565b500290565b7f4e487b7100000000000000000000000000000000000000000000000000000000600052603260045260246000fd5b60007fffffffffffffffffffffffffffffffffffffffffffffffffffffffffffffffff8214156144c2576144c2614372565b5060010190565b7f4e487b7100000000000000000000000000000000000000000000000000000000600052603160045260246000fd5b60006020828403121561450a57600080fd5b8151610dda81613f70565b7f4e487b7100000000000000000000000000000000000000000000000000000000600052602160045260246000fd5b60008251614556818460208701613e19565b919091019291505056fea26469706673582212207a905c95522f50e28ad88117cac8436bc72389d6bb65ed1188fc8618d5d8087364736f6c634300080c0033",
  "devdoc": {
    "author": "Angle Core Team",
    "details": "This contract supports bridge tokens having a minting right on the stablecoin (also referred to as the canonical or the native token)References:      - FRAX implementation: https://polygonscan.com/address/0x45c32fA6DF82ead1e2EF74d17b76547EDdFaFF89#code      - QiDAO implementation: https://snowtrace.io/address/0x5c49b268c9841AFF1Cc3B0a418ff5c3442eE3F3b#code",
    "kind": "dev",
    "methods": {
      "DOMAIN_SEPARATOR()": {
        "details": "See {IERC20Permit-DOMAIN_SEPARATOR}."
      },
      "addBridgeToken(address,uint256,uint256,uint64,bool)": {
        "params": {
          "bridgeToken": "Bridge token to add: it should be a version of the stablecoin from another bridge",
          "fee": "Fee taken upon swapping for or against this token",
          "hourlyLimit": "Limit on the hourly volume for this bridge",
          "limit": "Limit on the balance of bridge token this contract could hold",
          "paused": "Whether swapping for this token should be paused or not"
        }
      },
      "addMinter(address)": {
        "details": "Zero address checks are performed directly in the `Treasury` contract",
        "params": {
          "minter": "Minter address to add"
        }
      },
      "allBridgeTokens()": {
        "details": "Helpful for UIs"
      },
      "allowance(address,address)": {
        "details": "See {IERC20-allowance}."
      },
      "approve(address,uint256)": {
        "details": "See {IERC20-approve}. Requirements: - `spender` cannot be the zero address."
      },
      "balanceOf(address)": {
        "details": "See {IERC20-balanceOf}."
      },
      "burnFrom(uint256,address,address)": {
        "details": "This method is to be called by a contract with the minter right after being requested to do so by a `sender` address willing to burn tokens from another `burner` addressThe method checks the allowance between the `sender` and the `burner`",
        "params": {
          "amount": "Amount of tokens to burn",
          "burner": "Address to burn from",
          "sender": "Address which requested the burn from `burner`"
        }
      },
      "burnSelf(uint256,address)": {
        "details": "This method is to be called by a contract with a minter right on the AgToken after being requested to do so by an address willing to burn tokens from its address",
        "params": {
          "amount": "Amount of tokens to burn",
          "burner": "Address to burn from"
        }
      },
      "burnStablecoin(uint256)": {
        "details": "This function can typically be called if there is a settlement mechanism to burn stablecoins",
        "params": {
          "amount": "Amount of stablecoins to burn"
        }
      },
      "currentUsage(address)": {
        "details": "Helpful for UIs",
        "params": {
          "bridgeToken": "Bridge used to mint"
        }
      },
      "decimals()": {
        "details": "Returns the number of decimals used to get its user representation. For example, if `decimals` equals `2`, a balance of `505` tokens should be displayed to a user as `5.05` (`505 / 10 ** 2`). Tokens usually opt for a value of 18, imitating the relationship between Ether and Wei. This is the value {ERC20} uses, unless this function is overridden; NOTE: This information is only used for _display_ purposes: it in no way affects any of the arithmetic of the contract, including {IERC20-balanceOf} and {IERC20-transfer}."
      },
      "decreaseAllowance(address,uint256)": {
        "details": "Atomically decreases the allowance granted to `spender` by the caller. This is an alternative to {approve} that can be used as a mitigation for problems described in {IERC20-approve}. Emits an {Approval} event indicating the updated allowance. Requirements: - `spender` cannot be the zero address. - `spender` must have allowance for the caller of at least `subtractedValue`."
      },
      "increaseAllowance(address,uint256)": {
        "details": "Atomically increases the allowance granted to `spender` by the caller. This is an alternative to {approve} that can be used as a mitigation for problems described in {IERC20-approve}. Emits an {Approval} event indicating the updated allowance. Requirements: - `spender` cannot be the zero address."
      },
      "initialize(string,string,address)": {
        "details": "By default, agTokens are ERC-20 tokens with 18 decimals",
        "params": {
          "_treasury": "Reference to the `Treasury` contract associated to this agToken",
          "name_": "Name of the token",
          "symbol_": "Symbol of the token"
        }
      },
      "mint(address,uint256)": {
        "details": "The contracts allowed to issue agTokens are the `StableMaster` contract, `VaultManager` contracts associated to this stablecoin as well as the flash loan module (if activated) and potentially contracts whitelisted by governance",
        "params": {
          "account": "Address to mint to",
          "amount": "Amount to mint"
        }
      },
      "name()": {
        "details": "Returns the name of the token."
      },
      "nonces(address)": {
        "details": "See {IERC20Permit-nonces}."
      },
      "permit(address,address,uint256,uint256,uint8,bytes32,bytes32)": {
        "details": "See {IERC20Permit-permit}."
      },
      "recoverERC20(address,address,uint256)": {
        "details": "Can be used to withdraw bridge tokens for them to be de-bridged on mainnet"
      },
      "removeBridgeToken(address)": {
        "params": {
          "bridgeToken": "Address of the bridge token to remove support for"
        }
      },
      "removeMinter(address)": {
        "details": "This function can also be called by a minter wishing to revoke itself",
        "params": {
          "minter": "Minter address to remove"
        }
      },
      "setTreasury(address)": {
        "params": {
          "_treasury": "New treasury address"
        }
      },
      "swapIn(address,uint256,address)": {
        "details": "Some fees may be taken by the protocol depending on the token used and on the address calling",
        "params": {
          "amount": "Amount of bridge tokens to send",
          "bridgeToken": "Bridge token to use to mint",
          "to": "Address to which the stablecoin should be sent"
        },
        "returns": {
          "_0": "Amount of the canonical stablecoin actually minted"
        }
      },
      "swapOut(address,uint256,address)": {
        "details": "Some fees may be taken by the protocol depending on the token used and on the address calling",
        "params": {
          "amount": "Amount of canonical tokens to burn",
          "bridgeToken": "Bridge token required",
          "to": "Address to which the bridge token should be sent"
        },
        "returns": {
          "_0": "Amount of bridge tokens actually sent back"
        }
      },
      "symbol()": {
        "details": "Returns the symbol of the token, usually a shorter version of the name."
      },
      "totalSupply()": {
        "details": "See {IERC20-totalSupply}."
      },
      "transfer(address,uint256)": {
        "details": "See {IERC20-transfer}. Requirements: - `recipient` cannot be the zero address. - the caller must have a balance of at least `amount`."
      },
      "transferFrom(address,address,uint256)": {
        "details": "See {IERC20-transferFrom}. Emits an {Approval} event indicating the updated allowance. This is not required by the EIP. See the note at the beginning of {ERC20}. Requirements: - `sender` and `recipient` cannot be the zero address. - `sender` must have a balance of at least `amount`. - the caller must have allowance for ``sender``'s tokens of at least `amount`."
      }
    },
    "title": "AgTokenSideChainMultiBridge",
    "version": 1
  },
  "userdoc": {
    "kind": "user",
    "methods": {
      "BASE_PARAMS()": {
        "notice": "Base used for fee computation"
      },
      "addBridgeToken(address,uint256,uint256,uint64,bool)": {
        "notice": "Adds support for a bridge token"
      },
      "addMinter(address)": {
        "notice": "Adds a minter in the contract"
      },
      "allBridgeTokens()": {
        "notice": "Returns the list of all supported bridge tokens"
      },
      "bridgeTokensList(uint256)": {
        "notice": "List of all bridge tokens"
      },
      "bridges(address)": {
        "notice": "Maps a bridge token to data"
      },
      "burnFrom(uint256,address,address)": {
        "notice": "Burns `amount` tokens from a `burner` address after being asked to by `sender`"
      },
      "burnSelf(uint256,address)": {
        "notice": "Burns `amount` tokens from a `burner` address"
      },
      "burnStablecoin(uint256)": {
        "notice": "Allows anyone to burn agToken without redeeming collateral back"
      },
      "currentUsage(address)": {
        "notice": "Returns the current volume for a bridge, for the current hour"
      },
      "initialize(string,string,address)": {
        "notice": "Initializes the `AgToken` contract"
      },
      "isFeeExempt(address)": {
        "notice": "Maps an address to whether it is exempt of fees for when it comes to swapping in and out"
      },
      "isMinter(address)": {
        "notice": "Checks whether an address has the right to mint agTokens"
      },
      "mint(address,uint256)": {
        "notice": "Lets the `StableMaster` contract or another whitelisted contract mint agTokens"
      },
      "recoverERC20(address,address,uint256)": {
        "notice": "Recovers any ERC20 token"
      },
      "removeBridgeToken(address)": {
        "notice": "Removes support for a token"
      },
      "removeMinter(address)": {
        "notice": "Removes a minter from the contract"
      },
      "setHourlyLimit(address,uint256)": {
        "notice": "Updates the `hourlyLimit` amount for `bridgeToken`"
      },
      "setLimit(address,uint256)": {
        "notice": "Updates the `limit` amount for `bridgeToken`"
      },
      "setSwapFee(address,uint64)": {
        "notice": "Updates the `fee` value for `bridgeToken`"
      },
      "setTreasury(address)": {
        "notice": "Sets a new treasury contract"
      },
      "swapIn(address,uint256,address)": {
        "notice": "Mints the canonical token from a supported bridge token"
      },
      "swapOut(address,uint256,address)": {
        "notice": "Burns the canonical token in exchange for a bridge token"
      },
      "toggleBridge(address)": {
        "notice": "Pauses or unpauses swapping in and out for a token"
      },
      "toggleFeesForAddress(address)": {
        "notice": "Toggles fees for the address `theAddress`"
      },
      "treasury()": {
        "notice": "Reference to the treasury contract which can grant minting rights"
      },
      "usage(address,uint256)": {
        "notice": "Maps a bridge token to the associated hourly volume"
      }
    },
    "notice": "Contract for Angle agTokens on other chains than Ethereum mainnet",
    "version": 1
  },
  "storageLayout": {
    "storage": [
      {
        "astId": 772,
        "contract": "contracts/agToken/AgTokenSideChainMultiBridge.sol:AgTokenSideChainMultiBridge",
        "label": "_initialized",
        "offset": 0,
        "slot": "0",
        "type": "t_bool"
      },
      {
        "astId": 775,
        "contract": "contracts/agToken/AgTokenSideChainMultiBridge.sol:AgTokenSideChainMultiBridge",
        "label": "_initializing",
        "offset": 1,
        "slot": "0",
        "type": "t_bool"
      },
      {
        "astId": 2592,
        "contract": "contracts/agToken/AgTokenSideChainMultiBridge.sol:AgTokenSideChainMultiBridge",
        "label": "__gap",
        "offset": 0,
        "slot": "1",
        "type": "t_array(t_uint256)50_storage"
      },
      {
        "astId": 1029,
        "contract": "contracts/agToken/AgTokenSideChainMultiBridge.sol:AgTokenSideChainMultiBridge",
        "label": "_balances",
        "offset": 0,
        "slot": "51",
        "type": "t_mapping(t_address,t_uint256)"
      },
      {
        "astId": 1035,
        "contract": "contracts/agToken/AgTokenSideChainMultiBridge.sol:AgTokenSideChainMultiBridge",
        "label": "_allowances",
        "offset": 0,
        "slot": "52",
        "type": "t_mapping(t_address,t_mapping(t_address,t_uint256))"
      },
      {
        "astId": 1037,
        "contract": "contracts/agToken/AgTokenSideChainMultiBridge.sol:AgTokenSideChainMultiBridge",
        "label": "_totalSupply",
        "offset": 0,
        "slot": "53",
        "type": "t_uint256"
      },
      {
        "astId": 1039,
        "contract": "contracts/agToken/AgTokenSideChainMultiBridge.sol:AgTokenSideChainMultiBridge",
        "label": "_name",
        "offset": 0,
        "slot": "54",
        "type": "t_string_storage"
      },
      {
        "astId": 1041,
        "contract": "contracts/agToken/AgTokenSideChainMultiBridge.sol:AgTokenSideChainMultiBridge",
        "label": "_symbol",
        "offset": 0,
        "slot": "55",
        "type": "t_string_storage"
      },
      {
        "astId": 1582,
        "contract": "contracts/agToken/AgTokenSideChainMultiBridge.sol:AgTokenSideChainMultiBridge",
        "label": "__gap",
        "offset": 0,
        "slot": "56",
        "type": "t_array(t_uint256)45_storage"
      },
      {
        "astId": 3269,
        "contract": "contracts/agToken/AgTokenSideChainMultiBridge.sol:AgTokenSideChainMultiBridge",
        "label": "_HASHED_NAME",
        "offset": 0,
        "slot": "101",
        "type": "t_bytes32"
      },
      {
        "astId": 3271,
        "contract": "contracts/agToken/AgTokenSideChainMultiBridge.sol:AgTokenSideChainMultiBridge",
        "label": "_HASHED_VERSION",
        "offset": 0,
        "slot": "102",
        "type": "t_bytes32"
      },
      {
        "astId": 3408,
        "contract": "contracts/agToken/AgTokenSideChainMultiBridge.sol:AgTokenSideChainMultiBridge",
        "label": "__gap",
        "offset": 0,
        "slot": "103",
        "type": "t_array(t_uint256)50_storage"
      },
      {
        "astId": 1712,
        "contract": "contracts/agToken/AgTokenSideChainMultiBridge.sol:AgTokenSideChainMultiBridge",
        "label": "_nonces",
        "offset": 0,
        "slot": "153",
        "type": "t_mapping(t_address,t_struct(Counter)2599_storage)"
      },
      {
        "astId": 1714,
        "contract": "contracts/agToken/AgTokenSideChainMultiBridge.sol:AgTokenSideChainMultiBridge",
        "label": "_PERMIT_TYPEHASH",
        "offset": 0,
        "slot": "154",
        "type": "t_bytes32"
      },
      {
        "astId": 1882,
        "contract": "contracts/agToken/AgTokenSideChainMultiBridge.sol:AgTokenSideChainMultiBridge",
        "label": "__gap",
        "offset": 0,
        "slot": "155",
        "type": "t_array(t_uint256)49_storage"
      },
      {
        "astId": 8764,
        "contract": "contracts/agToken/AgTokenSideChainMultiBridge.sol:AgTokenSideChainMultiBridge",
        "label": "isMinter",
        "offset": 0,
        "slot": "204",
        "type": "t_mapping(t_address,t_bool)"
      },
      {
        "astId": 8767,
        "contract": "contracts/agToken/AgTokenSideChainMultiBridge.sol:AgTokenSideChainMultiBridge",
        "label": "treasury",
        "offset": 0,
        "slot": "205",
        "type": "t_address"
      },
      {
        "astId": 7979,
        "contract": "contracts/agToken/AgTokenSideChainMultiBridge.sol:AgTokenSideChainMultiBridge",
        "label": "bridges",
        "offset": 0,
        "slot": "206",
        "type": "t_mapping(t_address,t_struct(BridgeDetails)7973_storage)"
      },
      {
        "astId": 7983,
        "contract": "contracts/agToken/AgTokenSideChainMultiBridge.sol:AgTokenSideChainMultiBridge",
        "label": "bridgeTokensList",
        "offset": 0,
        "slot": "207",
        "type": "t_array(t_address)dyn_storage"
      },
      {
        "astId": 7990,
        "contract": "contracts/agToken/AgTokenSideChainMultiBridge.sol:AgTokenSideChainMultiBridge",
        "label": "usage",
        "offset": 0,
        "slot": "208",
        "type": "t_mapping(t_address,t_mapping(t_uint256,t_uint256))"
      },
      {
        "astId": 7995,
        "contract": "contracts/agToken/AgTokenSideChainMultiBridge.sol:AgTokenSideChainMultiBridge",
        "label": "isFeeExempt",
        "offset": 0,
        "slot": "209",
        "type": "t_mapping(t_address,t_uint256)"
      }
    ],
    "types": {
      "t_address": {
        "encoding": "inplace",
        "label": "address",
        "numberOfBytes": "20"
      },
      "t_array(t_address)dyn_storage": {
        "base": "t_address",
        "encoding": "dynamic_array",
        "label": "address[]",
        "numberOfBytes": "32"
      },
      "t_array(t_uint256)45_storage": {
        "base": "t_uint256",
        "encoding": "inplace",
        "label": "uint256[45]",
        "numberOfBytes": "1440"
      },
      "t_array(t_uint256)49_storage": {
        "base": "t_uint256",
        "encoding": "inplace",
        "label": "uint256[49]",
        "numberOfBytes": "1568"
      },
      "t_array(t_uint256)50_storage": {
        "base": "t_uint256",
        "encoding": "inplace",
        "label": "uint256[50]",
        "numberOfBytes": "1600"
      },
      "t_bool": {
        "encoding": "inplace",
        "label": "bool",
        "numberOfBytes": "1"
      },
      "t_bytes32": {
        "encoding": "inplace",
        "label": "bytes32",
        "numberOfBytes": "32"
      },
      "t_mapping(t_address,t_bool)": {
        "encoding": "mapping",
        "key": "t_address",
        "label": "mapping(address => bool)",
        "numberOfBytes": "32",
        "value": "t_bool"
      },
      "t_mapping(t_address,t_mapping(t_address,t_uint256))": {
        "encoding": "mapping",
        "key": "t_address",
        "label": "mapping(address => mapping(address => uint256))",
        "numberOfBytes": "32",
        "value": "t_mapping(t_address,t_uint256)"
      },
      "t_mapping(t_address,t_mapping(t_uint256,t_uint256))": {
        "encoding": "mapping",
        "key": "t_address",
        "label": "mapping(address => mapping(uint256 => uint256))",
        "numberOfBytes": "32",
        "value": "t_mapping(t_uint256,t_uint256)"
      },
      "t_mapping(t_address,t_struct(BridgeDetails)7973_storage)": {
        "encoding": "mapping",
        "key": "t_address",
        "label": "mapping(address => struct AgTokenSideChainMultiBridge.BridgeDetails)",
        "numberOfBytes": "32",
        "value": "t_struct(BridgeDetails)7973_storage"
      },
      "t_mapping(t_address,t_struct(Counter)2599_storage)": {
        "encoding": "mapping",
        "key": "t_address",
        "label": "mapping(address => struct CountersUpgradeable.Counter)",
        "numberOfBytes": "32",
        "value": "t_struct(Counter)2599_storage"
      },
      "t_mapping(t_address,t_uint256)": {
        "encoding": "mapping",
        "key": "t_address",
        "label": "mapping(address => uint256)",
        "numberOfBytes": "32",
        "value": "t_uint256"
      },
      "t_mapping(t_uint256,t_uint256)": {
        "encoding": "mapping",
        "key": "t_uint256",
        "label": "mapping(uint256 => uint256)",
        "numberOfBytes": "32",
        "value": "t_uint256"
      },
      "t_string_storage": {
        "encoding": "bytes",
        "label": "string",
        "numberOfBytes": "32"
      },
      "t_struct(BridgeDetails)7973_storage": {
        "encoding": "inplace",
        "label": "struct AgTokenSideChainMultiBridge.BridgeDetails",
        "members": [
          {
            "astId": 7964,
            "contract": "contracts/agToken/AgTokenSideChainMultiBridge.sol:AgTokenSideChainMultiBridge",
            "label": "limit",
            "offset": 0,
            "slot": "0",
            "type": "t_uint256"
          },
          {
            "astId": 7966,
            "contract": "contracts/agToken/AgTokenSideChainMultiBridge.sol:AgTokenSideChainMultiBridge",
            "label": "hourlyLimit",
            "offset": 0,
            "slot": "1",
            "type": "t_uint256"
          },
          {
            "astId": 7968,
            "contract": "contracts/agToken/AgTokenSideChainMultiBridge.sol:AgTokenSideChainMultiBridge",
            "label": "fee",
            "offset": 0,
            "slot": "2",
            "type": "t_uint64"
          },
          {
            "astId": 7970,
            "contract": "contracts/agToken/AgTokenSideChainMultiBridge.sol:AgTokenSideChainMultiBridge",
            "label": "allowed",
            "offset": 8,
            "slot": "2",
            "type": "t_bool"
          },
          {
            "astId": 7972,
            "contract": "contracts/agToken/AgTokenSideChainMultiBridge.sol:AgTokenSideChainMultiBridge",
            "label": "paused",
            "offset": 9,
            "slot": "2",
            "type": "t_bool"
          }
        ],
        "numberOfBytes": "96"
      },
      "t_struct(Counter)2599_storage": {
        "encoding": "inplace",
        "label": "struct CountersUpgradeable.Counter",
        "members": [
          {
            "astId": 2598,
            "contract": "contracts/agToken/AgTokenSideChainMultiBridge.sol:AgTokenSideChainMultiBridge",
            "label": "_value",
            "offset": 0,
            "slot": "0",
            "type": "t_uint256"
          }
        ],
        "numberOfBytes": "32"
      },
      "t_uint256": {
        "encoding": "inplace",
        "label": "uint256",
        "numberOfBytes": "32"
      },
      "t_uint64": {
        "encoding": "inplace",
        "label": "uint64",
        "numberOfBytes": "8"
      }
    }
  }
}