{
  "address": "0x3E399AE5B4D8bc0021e53b51c8BCdD66DD62c03b",
  "abi": [
    {
      "inputs": [],
      "stateMutability": "nonpayable",
      "type": "constructor"
    },
    {
      "inputs": [],
      "name": "InvalidReturnMessage",
      "type": "error"
    },
    {
      "inputs": [],
      "name": "NotCore",
      "type": "error"
    },
    {
      "inputs": [],
      "name": "NotGovernorOrGuardian",
      "type": "error"
    },
    {
      "inputs": [],
      "name": "NotTreasury",
      "type": "error"
    },
    {
      "inputs": [],
      "name": "TooBigAmount",
      "type": "error"
    },
    {
      "inputs": [],
      "name": "TooHighParameterValue",
      "type": "error"
    },
    {
      "inputs": [],
      "name": "UnsupportedStablecoin",
      "type": "error"
    },
    {
      "inputs": [],
      "name": "ZeroAddress",
      "type": "error"
    },
    {
      "anonymous": false,
      "inputs": [
        {
          "indexed": true,
          "internalType": "address",
          "name": "stablecoin",
          "type": "address"
        },
        {
          "indexed": false,
          "internalType": "uint256",
          "name": "amount",
          "type": "uint256"
        },
        {
          "indexed": true,
          "internalType": "contract IERC3156FlashBorrower",
          "name": "receiver",
          "type": "address"
        }
      ],
      "name": "FlashLoan",
      "type": "event"
    },
    {
      "anonymous": false,
      "inputs": [
        {
          "indexed": true,
          "internalType": "contract IAgToken",
          "name": "stablecoin",
          "type": "address"
        },
        {
          "indexed": false,
          "internalType": "uint64",
          "name": "_flashLoanFee",
          "type": "uint64"
        },
        {
          "indexed": false,
          "internalType": "uint256",
          "name": "_maxBorrowable",
          "type": "uint256"
        }
      ],
      "name": "FlashLoanParametersUpdated",
      "type": "event"
    },
    {
      "inputs": [],
      "name": "BASE_PARAMS",
      "outputs": [
        {
          "internalType": "uint256",
          "name": "",
          "type": "uint256"
        }
      ],
      "stateMutability": "view",
      "type": "function"
    },
    {
      "inputs": [],
      "name": "CALLBACK_SUCCESS",
      "outputs": [
        {
          "internalType": "bytes32",
          "name": "",
          "type": "bytes32"
        }
      ],
      "stateMutability": "view",
      "type": "function"
    },
    {
      "inputs": [
        {
          "internalType": "contract IAgToken",
          "name": "stablecoin",
          "type": "address"
        }
      ],
      "name": "accrueInterestToTreasury",
      "outputs": [
        {
          "internalType": "uint256",
          "name": "balance",
          "type": "uint256"
        }
      ],
      "stateMutability": "nonpayable",
      "type": "function"
    },
    {
      "inputs": [
        {
          "internalType": "address",
          "name": "_treasury",
          "type": "address"
        }
      ],
      "name": "addStablecoinSupport",
      "outputs": [],
      "stateMutability": "nonpayable",
      "type": "function"
    },
    {
      "inputs": [],
      "name": "core",
      "outputs": [
        {
          "internalType": "contract ICoreBorrow",
          "name": "",
          "type": "address"
        }
      ],
      "stateMutability": "view",
      "type": "function"
    },
    {
      "inputs": [
        {
          "internalType": "address",
          "name": "token",
          "type": "address"
        },
        {
          "internalType": "uint256",
          "name": "amount",
          "type": "uint256"
        }
      ],
      "name": "flashFee",
      "outputs": [
        {
          "internalType": "uint256",
          "name": "",
          "type": "uint256"
        }
      ],
      "stateMutability": "view",
      "type": "function"
    },
    {
      "inputs": [
        {
          "internalType": "contract IERC3156FlashBorrower",
          "name": "receiver",
          "type": "address"
        },
        {
          "internalType": "address",
          "name": "token",
          "type": "address"
        },
        {
          "internalType": "uint256",
          "name": "amount",
          "type": "uint256"
        },
        {
          "internalType": "bytes",
          "name": "data",
          "type": "bytes"
        }
      ],
      "name": "flashLoan",
      "outputs": [
        {
          "internalType": "bool",
          "name": "",
          "type": "bool"
        }
      ],
      "stateMutability": "nonpayable",
      "type": "function"
    },
    {
      "inputs": [
        {
          "internalType": "contract ICoreBorrow",
          "name": "_core",
          "type": "address"
        }
      ],
      "name": "initialize",
      "outputs": [],
      "stateMutability": "nonpayable",
      "type": "function"
    },
    {
      "inputs": [
        {
          "internalType": "address",
          "name": "token",
          "type": "address"
        }
      ],
      "name": "maxFlashLoan",
      "outputs": [
        {
          "internalType": "uint256",
          "name": "",
          "type": "uint256"
        }
      ],
      "stateMutability": "view",
      "type": "function"
    },
    {
      "inputs": [
        {
          "internalType": "address",
          "name": "_treasury",
          "type": "address"
        }
      ],
      "name": "removeStablecoinSupport",
      "outputs": [],
      "stateMutability": "nonpayable",
      "type": "function"
    },
    {
      "inputs": [
        {
          "internalType": "address",
          "name": "_core",
          "type": "address"
        }
      ],
      "name": "setCore",
      "outputs": [],
      "stateMutability": "nonpayable",
      "type": "function"
    },
    {
      "inputs": [
        {
          "internalType": "contract IAgToken",
          "name": "stablecoin",
          "type": "address"
        },
        {
          "internalType": "uint64",
          "name": "_flashLoanFee",
          "type": "uint64"
        },
        {
          "internalType": "uint256",
          "name": "_maxBorrowable",
          "type": "uint256"
        }
      ],
      "name": "setFlashLoanParameters",
      "outputs": [],
      "stateMutability": "nonpayable",
      "type": "function"
    },
    {
      "inputs": [
        {
          "internalType": "contract IAgToken",
          "name": "",
          "type": "address"
        }
      ],
      "name": "stablecoinMap",
      "outputs": [
        {
          "internalType": "uint256",
          "name": "maxBorrowable",
          "type": "uint256"
        },
        {
          "internalType": "uint64",
          "name": "flashLoanFee",
          "type": "uint64"
        },
        {
          "internalType": "address",
          "name": "treasury",
          "type": "address"
        }
      ],
      "stateMutability": "view",
      "type": "function"
    }
  ],
  "transactionHash": "0x352a438247b33492932e393bd5affb6f6d0ad75f0c76247f8f5843f8484def3c",
  "args": [],
  "solcInputHash": "d5ace9280091f91616a313b95eefc190",
  "bytecode": "0x60806040523480156200001157600080fd5b50600054610100900460ff166200002f5760005460ff161562000039565b62000039620000de565b620000a15760405162461bcd60e51b815260206004820152602e60248201527f496e697469616c697a61626c653a20636f6e747261637420697320616c72656160448201526d191e481a5b9a5d1a585b1a5e995960921b606482015260840160405180910390fd5b600054610100900460ff16158015620000c4576000805461ffff19166101011790555b8015620000d7576000805461ff00191690555b5062000102565b6000620000f630620000fc60201b62000e6e1760201c565b15905090565b3b151590565b61169680620001126000396000f3fe608060405234801561001057600080fd5b50600436106100df5760003560e01c80638237e5381161008c578063bd382e6011610066578063bd382e601461025f578063c4d66de814610272578063d9d98ce414610285578063f2f4eb261461029857600080fd5b80638237e5381461021a57806396337bd5146102415780639f48118f1461025457600080fd5b80635cffe9de116100bd5780635cffe9de146101a0578063613255ab146101c3578063800096301461020757600080fd5b80630e8f9c35146100e4578063442320c114610178578063543bd6471461018d575b600080fd5b6101396100f23660046112f4565b6033602052600090815260409020805460019091015467ffffffffffffffff81169068010000000000000000900473ffffffffffffffffffffffffffffffffffffffff1683565b6040805193845267ffffffffffffffff909216602084015273ffffffffffffffffffffffffffffffffffffffff16908201526060015b60405180910390f35b61018b6101863660046112f4565b6102dd565b005b61018b61019b3660046112f4565b610420565b6101b36101ae366004611311565b61053b565b604051901515815260200161016f565b6101f96101d13660046112f4565b73ffffffffffffffffffffffffffffffffffffffff1660009081526033602052604090205490565b60405190815260200161016f565b61018b6102153660046112f4565b6108cd565b6101f97f439148f0bbc682ca079e46d6e2c2f0c1e3b820f1a291b069d8882abf8cf18dd981565b6101f961024f3660046112f4565b610965565b6101f9633b9aca0081565b61018b61026d3660046113b0565b610a8f565b61018b6102803660046112f4565b610cb1565b6101f96102933660046113fe565b610e5b565b6034546102b89073ffffffffffffffffffffffffffffffffffffffff1681565b60405173ffffffffffffffffffffffffffffffffffffffff909116815260200161016f565b60345473ffffffffffffffffffffffffffffffffffffffff16331461032e576040517fe2aae06b00000000000000000000000000000000000000000000000000000000815260040160405180910390fd5b80603360008373ffffffffffffffffffffffffffffffffffffffff1663e9cbd8226040518163ffffffff1660e01b8152600401602060405180830381865afa15801561037e573d6000803e3d6000fd5b505050506040513d601f19601f820116820180604052508101906103a2919061142a565b73ffffffffffffffffffffffffffffffffffffffff1673ffffffffffffffffffffffffffffffffffffffff16815260200190815260200160002060010160086101000a81548173ffffffffffffffffffffffffffffffffffffffff021916908373ffffffffffffffffffffffffffffffffffffffff16021790555050565b60345473ffffffffffffffffffffffffffffffffffffffff163314610471576040517fe2aae06b00000000000000000000000000000000000000000000000000000000815260040160405180910390fd5b603360008273ffffffffffffffffffffffffffffffffffffffff1663e9cbd8226040518163ffffffff1660e01b8152600401602060405180830381865afa1580156104c0573d6000803e3d6000fd5b505050506040513d601f19601f820116820180604052508101906104e4919061142a565b73ffffffffffffffffffffffffffffffffffffffff1681526020810191909152604001600090812090815560010180547fffffffff0000000000000000000000000000000000000000000000000000000016905550565b6000600260015414156105af576040517f08c379a000000000000000000000000000000000000000000000000000000000815260206004820152601f60248201527f5265656e7472616e637947756172643a207265656e7472616e742063616c6c0060448201526064015b60405180910390fd5b600260015560006105c08686610e74565b73ffffffffffffffffffffffffffffffffffffffff8716600090815260336020526040902054909150851115610622576040517ff7432d9600000000000000000000000000000000000000000000000000000000815260040160405180910390fd5b6040517f40c10f1900000000000000000000000000000000000000000000000000000000815273ffffffffffffffffffffffffffffffffffffffff8881166004830152602482018790528716906340c10f1990604401600060405180830381600087803b15801561069257600080fd5b505af11580156106a6573d6000803e3d6000fd5b50506040517f23e30c8b0000000000000000000000000000000000000000000000000000000081527f439148f0bbc682ca079e46d6e2c2f0c1e3b820f1a291b069d8882abf8cf18dd9925073ffffffffffffffffffffffffffffffffffffffff8a1691506323e30c8b906107289033908b908b9088908c908c90600401611447565b6020604051808303816000875af1158015610747573d6000803e3d6000fd5b505050506040513d601f19601f8201168201806040525081019061076b91906114cd565b146107a2576040517fee418e3700000000000000000000000000000000000000000000000000000000815260040160405180910390fd5b6107d087306107b18489611515565b73ffffffffffffffffffffffffffffffffffffffff8a16929190610f3a565b6040517f2b471d8e0000000000000000000000000000000000000000000000000000000081526004810186905230602482015273ffffffffffffffffffffffffffffffffffffffff871690632b471d8e90604401600060405180830381600087803b15801561083e57600080fd5b505af1158015610852573d6000803e3d6000fd5b505050508673ffffffffffffffffffffffffffffffffffffffff168673ffffffffffffffffffffffffffffffffffffffff167f5931a93eeea518d0bc5077cf5bc1c1862e0277a160701fec6383d09edf305fbd876040516108b591815260200190565b60405180910390a35050600180805595945050505050565b60345473ffffffffffffffffffffffffffffffffffffffff16331461091e576040517fe2aae06b00000000000000000000000000000000000000000000000000000000815260040160405180910390fd5b603480547fffffffffffffffffffffffff00000000000000000000000000000000000000001673ffffffffffffffffffffffffffffffffffffffff92909216919091179055565b73ffffffffffffffffffffffffffffffffffffffff808216600090815260336020526040812060010154909168010000000000000000909104163381146109d8576040517fb90cdbb100000000000000000000000000000000000000000000000000000000815260040160405180910390fd5b6040517f70a0823100000000000000000000000000000000000000000000000000000000815230600482015273ffffffffffffffffffffffffffffffffffffffff8416906370a0823190602401602060405180830381865afa158015610a42573d6000803e3d6000fd5b505050506040513d601f19601f82011682018060405250810190610a6691906114cd565b9150610a8973ffffffffffffffffffffffffffffffffffffffff8416828461101c565b50919050565b73ffffffffffffffffffffffffffffffffffffffff80841660009081526033602052604090206001015484916801000000000000000090910416610aff576040517f5bfbc03900000000000000000000000000000000000000000000000000000000815260040160405180910390fd5b6034546040517f521d4de900000000000000000000000000000000000000000000000000000000815233600482015273ffffffffffffffffffffffffffffffffffffffff9091169063521d4de990602401602060405180830381865afa158015610b6d573d6000803e3d6000fd5b505050506040513d601f19601f82011682018060405250810190610b91919061152d565b610bc7576040517f99e120bc00000000000000000000000000000000000000000000000000000000815260040160405180910390fd5b633b9aca008367ffffffffffffffff161115610c0f576040517feca1d2c600000000000000000000000000000000000000000000000000000000815260040160405180910390fd5b73ffffffffffffffffffffffffffffffffffffffff84166000818152603360209081526040918290206001810180547fffffffffffffffffffffffffffffffffffffffffffffffff00000000000000001667ffffffffffffffff89169081179091559086905582519081529081018590527fc03320bf03992afbfc288ed41da52eed154cb4377eb1807a016e49a92fe573cf910160405180910390a250505050565b600054610100900460ff16610ccc5760005460ff1615610cd0565b303b155b610d5c576040517f08c379a000000000000000000000000000000000000000000000000000000000815260206004820152602e60248201527f496e697469616c697a61626c653a20636f6e747261637420697320616c72656160448201527f647920696e697469616c697a656400000000000000000000000000000000000060648201526084016105a6565b600054610100900460ff16158015610d9b57600080547fffffffffffffffffffffffffffffffffffffffffffffffffffffffffffff0000166101011790555b73ffffffffffffffffffffffffffffffffffffffff8216610de8576040517fd92e233d00000000000000000000000000000000000000000000000000000000815260040160405180910390fd5b603480547fffffffffffffffffffffffff00000000000000000000000000000000000000001673ffffffffffffffffffffffffffffffffffffffff84161790558015610e5757600080547fffffffffffffffffffffffffffffffffffffffffffffffffffffffffffff00ff1690555b5050565b6000610e678383610e74565b9392505050565b3b151590565b73ffffffffffffffffffffffffffffffffffffffff8083166000908152603360205260408120600101549091849168010000000000000000900416610ee5576040517f5bfbc03900000000000000000000000000000000000000000000000000000000815260040160405180910390fd5b73ffffffffffffffffffffffffffffffffffffffff8416600090815260336020526040902060010154633b9aca0090610f289067ffffffffffffffff168561154f565b610f32919061158c565b949350505050565b60405173ffffffffffffffffffffffffffffffffffffffff808516602483015283166044820152606481018290526110169085907f23b872dd00000000000000000000000000000000000000000000000000000000906084015b604080517fffffffffffffffffffffffffffffffffffffffffffffffffffffffffffffffe08184030181529190526020810180517bffffffffffffffffffffffffffffffffffffffffffffffffffffffff167fffffffff0000000000000000000000000000000000000000000000000000000090931692909217909152611077565b50505050565b60405173ffffffffffffffffffffffffffffffffffffffff83166024820152604481018290526110729084907fa9059cbb0000000000000000000000000000000000000000000000000000000090606401610f94565b505050565b60006110d9826040518060400160405280602081526020017f5361666545524332303a206c6f772d6c6576656c2063616c6c206661696c65648152508573ffffffffffffffffffffffffffffffffffffffff166111839092919063ffffffff16565b80519091501561107257808060200190518101906110f7919061152d565b611072576040517f08c379a000000000000000000000000000000000000000000000000000000000815260206004820152602a60248201527f5361666545524332303a204552433230206f7065726174696f6e20646964206e60448201527f6f7420737563636565640000000000000000000000000000000000000000000060648201526084016105a6565b6060610f32848460008585843b6111f6576040517f08c379a000000000000000000000000000000000000000000000000000000000815260206004820152601d60248201527f416464726573733a2063616c6c20746f206e6f6e2d636f6e747261637400000060448201526064016105a6565b6000808673ffffffffffffffffffffffffffffffffffffffff16858760405161121f91906115f3565b60006040518083038185875af1925050503d806000811461125c576040519150601f19603f3d011682016040523d82523d6000602084013e611261565b606091505b509150915061127182828661127c565b979650505050505050565b6060831561128b575081610e67565b82511561129b5782518084602001fd5b816040517f08c379a00000000000000000000000000000000000000000000000000000000081526004016105a6919061160f565b73ffffffffffffffffffffffffffffffffffffffff811681146112f157600080fd5b50565b60006020828403121561130657600080fd5b8135610e67816112cf565b60008060008060006080868803121561132957600080fd5b8535611334816112cf565b94506020860135611344816112cf565b935060408601359250606086013567ffffffffffffffff8082111561136857600080fd5b818801915088601f83011261137c57600080fd5b81358181111561138b57600080fd5b89602082850101111561139d57600080fd5b9699959850939650602001949392505050565b6000806000606084860312156113c557600080fd5b83356113d0816112cf565b9250602084013567ffffffffffffffff811681146113ed57600080fd5b929592945050506040919091013590565b6000806040838503121561141157600080fd5b823561141c816112cf565b946020939093013593505050565b60006020828403121561143c57600080fd5b8151610e67816112cf565b600073ffffffffffffffffffffffffffffffffffffffff808916835280881660208401525085604083015284606083015260a060808301528260a0830152828460c0840137600060c0848401015260c07fffffffffffffffffffffffffffffffffffffffffffffffffffffffffffffffe0601f8501168301019050979650505050505050565b6000602082840312156114df57600080fd5b5051919050565b7f4e487b7100000000000000000000000000000000000000000000000000000000600052601160045260246000fd5b60008219821115611528576115286114e6565b500190565b60006020828403121561153f57600080fd5b81518015158114610e6757600080fd5b6000817fffffffffffffffffffffffffffffffffffffffffffffffffffffffffffffffff0483118215151615611587576115876114e6565b500290565b6000826115c2577f4e487b7100000000000000000000000000000000000000000000000000000000600052601260045260246000fd5b500490565b60005b838110156115e25781810151838201526020016115ca565b838111156110165750506000910152565b600082516116058184602087016115c7565b9190910192915050565b602081526000825180602084015261162e8160408501602087016115c7565b601f017fffffffffffffffffffffffffffffffffffffffffffffffffffffffffffffffe016919091016040019291505056fea2646970667358221220f520077fac821463b502ca8830c54685e2c1500479e0d2825e71d821e57bb00664736f6c634300080c0033",
  "devdoc": {
    "author": "Angle Core Team",
    "kind": "dev",
    "methods": {
      "accrueInterestToTreasury(address)": {
        "details": "This function can only be called by the treasury contract",
        "params": {
          "stablecoin": "Stablecoin from which profits should be sent"
        },
        "returns": {
          "balance": "Amount of profits sent"
        }
      },
      "addStablecoinSupport(address)": {
        "details": "This function can only be called by the `CoreBorrow` contract",
        "params": {
          "_treasury": "Treasury associated to the stablecoin to add support for"
        }
      },
      "constructor": {
        "custom:oz-upgrades-unsafe-allow": "constructor"
      },
      "flashFee(address,uint256)": {
        "details": "The fee to be charged for a given loan.",
        "params": {
          "amount": "The amount of tokens lent.",
          "token": "The loan currency."
        },
        "returns": {
          "_0": "The amount of `token` to be charged for the loan, on top of the returned principal."
        }
      },
      "flashLoan(address,address,uint256,bytes)": {
        "details": "Initiate a flash loan.",
        "params": {
          "amount": "The amount of tokens lent.",
          "data": "Arbitrary data structure, intended to contain user-defined parameters.",
          "receiver": "The receiver of the tokens in the loan, and the receiver of the callback.",
          "token": "The loan currency."
        }
      },
      "initialize(address)": {
        "params": {
          "_core": "Core address handling this module"
        }
      },
      "maxFlashLoan(address)": {
        "details": "The amount of currency available to be lended.",
        "params": {
          "token": "The loan currency."
        },
        "returns": {
          "_0": "The amount of `token` that can be borrowed."
        }
      },
      "removeStablecoinSupport(address)": {
        "details": "This function can only be called by the `CoreBorrow` contract",
        "params": {
          "_treasury": "Treasury associated to the stablecoin to remove support for"
        }
      },
      "setCore(address)": {
        "details": "This function can only be called by the `CoreBorrow` contract",
        "params": {
          "_core": "Core contract address to set"
        }
      },
      "setFlashLoanParameters(address,uint64,uint256)": {
        "details": "Setting a `maxBorrowable` parameter equal to 0 is a way to pause the functionalityParameters can only be modified for whitelisted stablecoins",
        "params": {
          "_flashLoanFee": "New flash loan fee for this stablecoin",
          "_maxBorrowable": "Maximum amount that can be borrowed in a single flash loan",
          "stablecoin": "Stablecoin to change the parameters for"
        }
      }
    },
    "title": "FlashAngle",
    "version": 1
  },
  "userdoc": {
    "kind": "user",
    "methods": {
      "BASE_PARAMS()": {
        "notice": "Base used for parameter computation"
      },
      "CALLBACK_SUCCESS()": {
        "notice": "Success message received when calling a `FlashBorrower` contract"
      },
      "accrueInterestToTreasury(address)": {
        "notice": "Sends the fees taken from flash loans to the treasury contract associated to the stablecoin"
      },
      "addStablecoinSupport(address)": {
        "notice": "Adds support for a stablecoin"
      },
      "core()": {
        "notice": "Reference to the `CoreBorrow` contract managing the FlashLoan module"
      },
      "initialize(address)": {
        "notice": "Initializes the contract"
      },
      "removeStablecoinSupport(address)": {
        "notice": "Removes support for a stablecoin"
      },
      "setCore(address)": {
        "notice": "Sets a new core contract"
      },
      "setFlashLoanParameters(address,uint64,uint256)": {
        "notice": "Sets the parameters for a given stablecoin"
      },
      "stablecoinMap(address)": {
        "notice": "Maps a stablecoin to the data and parameters for flash loans"
      }
    },
    "notice": "Contract to take flash loans on top of several AgToken contracts",
    "version": 1
  },
  "storageLayout": {
    "storage": [
      {
        "astId": 772,
        "contract": "contracts/flashloan/FlashAngle.sol:FlashAngle",
        "label": "_initialized",
        "offset": 0,
        "slot": "0",
        "type": "t_bool"
      },
      {
        "astId": 775,
        "contract": "contracts/flashloan/FlashAngle.sol:FlashAngle",
        "label": "_initializing",
        "offset": 1,
        "slot": "0",
        "type": "t_bool"
      },
      {
        "astId": 853,
        "contract": "contracts/flashloan/FlashAngle.sol:FlashAngle",
        "label": "_status",
        "offset": 0,
        "slot": "1",
        "type": "t_uint256"
      },
      {
        "astId": 896,
        "contract": "contracts/flashloan/FlashAngle.sol:FlashAngle",
        "label": "__gap",
        "offset": 0,
        "slot": "2",
        "type": "t_array(t_uint256)49_storage"
      },
      {
        "astId": 11479,
        "contract": "contracts/flashloan/FlashAngle.sol:FlashAngle",
        "label": "stablecoinMap",
        "offset": 0,
        "slot": "51",
        "type": "t_mapping(t_contract(IAgToken)11962,t_struct(StablecoinData)11472_storage)"
      },
      {
        "astId": 11483,
        "contract": "contracts/flashloan/FlashAngle.sol:FlashAngle",
        "label": "core",
        "offset": 0,
        "slot": "52",
        "type": "t_contract(ICoreBorrow)12068"
      }
    ],
    "types": {
      "t_address": {
        "encoding": "inplace",
        "label": "address",
        "numberOfBytes": "20"
      },
      "t_array(t_uint256)49_storage": {
        "base": "t_uint256",
        "encoding": "inplace",
        "label": "uint256[49]",
        "numberOfBytes": "1568"
      },
      "t_bool": {
        "encoding": "inplace",
        "label": "bool",
        "numberOfBytes": "1"
      },
      "t_contract(IAgToken)11962": {
        "encoding": "inplace",
        "label": "contract IAgToken",
        "numberOfBytes": "20"
      },
      "t_contract(ICoreBorrow)12068": {
        "encoding": "inplace",
        "label": "contract ICoreBorrow",
        "numberOfBytes": "20"
      },
      "t_mapping(t_contract(IAgToken)11962,t_struct(StablecoinData)11472_storage)": {
        "encoding": "mapping",
        "key": "t_contract(IAgToken)11962",
        "label": "mapping(contract IAgToken => struct FlashAngle.StablecoinData)",
        "numberOfBytes": "32",
        "value": "t_struct(StablecoinData)11472_storage"
      },
      "t_struct(StablecoinData)11472_storage": {
        "encoding": "inplace",
        "label": "struct FlashAngle.StablecoinData",
        "members": [
          {
            "astId": 11467,
            "contract": "contracts/flashloan/FlashAngle.sol:FlashAngle",
            "label": "maxBorrowable",
            "offset": 0,
            "slot": "0",
            "type": "t_uint256"
          },
          {
            "astId": 11469,
            "contract": "contracts/flashloan/FlashAngle.sol:FlashAngle",
            "label": "flashLoanFee",
            "offset": 0,
            "slot": "1",
            "type": "t_uint64"
          },
          {
            "astId": 11471,
            "contract": "contracts/flashloan/FlashAngle.sol:FlashAngle",
            "label": "treasury",
            "offset": 8,
            "slot": "1",
            "type": "t_address"
          }
        ],
        "numberOfBytes": "64"
      },
      "t_uint256": {
        "encoding": "inplace",
        "label": "uint256",
        "numberOfBytes": "32"
      },
      "t_uint64": {
        "encoding": "inplace",
        "label": "uint64",
        "numberOfBytes": "8"
      }
    }
  }
}