{
  "address": "0x9418D0aa02fCE40804aBF77bb81a1CcBeB91eaFC",
  "abi": [
    {
      "inputs": [
        {
          "internalType": "uint32",
          "name": "_stalePeriod",
          "type": "uint32"
        },
        {
          "internalType": "address",
          "name": "_treasury",
          "type": "address"
        }
      ],
      "stateMutability": "nonpayable",
      "type": "constructor"
    },
    {
      "inputs": [],
      "name": "InvalidChainlinkRate",
      "type": "error"
    },
    {
      "inputs": [],
      "name": "NotGovernorOrGuardian",
      "type": "error"
    },
    {
      "inputs": [],
      "name": "NotVaultManagerOrGovernor",
      "type": "error"
    },
    {
      "anonymous": false,
      "inputs": [
        {
          "indexed": false,
          "internalType": "uint32",
          "name": "_stalePeriod",
          "type": "uint32"
        }
      ],
      "name": "StalePeriodUpdated",
      "type": "event"
    },
    {
      "inputs": [],
      "name": "DESCRIPTION",
      "outputs": [
        {
          "internalType": "string",
          "name": "",
          "type": "string"
        }
      ],
      "stateMutability": "view",
      "type": "function"
    },
    {
      "inputs": [],
      "name": "STEUR",
      "outputs": [
        {
          "internalType": "contract IERC4626",
          "name": "",
          "type": "address"
        }
      ],
      "stateMutability": "view",
      "type": "function"
    },
    {
      "inputs": [
        {
          "internalType": "uint32",
          "name": "_stalePeriod",
          "type": "uint32"
        }
      ],
      "name": "changeStalePeriod",
      "outputs": [],
      "stateMutability": "nonpayable",
      "type": "function"
    },
    {
      "inputs": [],
      "name": "circuitChainlink",
      "outputs": [
        {
          "internalType": "contract AggregatorV3Interface[]",
          "name": "",
          "type": "address[]"
        }
      ],
      "stateMutability": "pure",
      "type": "function"
    },
    {
      "inputs": [],
      "name": "decimals",
      "outputs": [
        {
          "internalType": "uint8",
          "name": "",
          "type": "uint8"
        }
      ],
      "stateMutability": "pure",
      "type": "function"
    },
    {
      "inputs": [],
      "name": "description",
      "outputs": [
        {
          "internalType": "string",
          "name": "desc",
          "type": "string"
        }
      ],
      "stateMutability": "pure",
      "type": "function"
    },
    {
      "inputs": [
        {
          "internalType": "uint80",
          "name": "",
          "type": "uint80"
        }
      ],
      "name": "getRoundData",
      "outputs": [
        {
          "internalType": "uint80",
          "name": "",
          "type": "uint80"
        },
        {
          "internalType": "int256",
          "name": "",
          "type": "int256"
        },
        {
          "internalType": "uint256",
          "name": "",
          "type": "uint256"
        },
        {
          "internalType": "uint256",
          "name": "",
          "type": "uint256"
        },
        {
          "internalType": "uint80",
          "name": "",
          "type": "uint80"
        }
      ],
      "stateMutability": "view",
      "type": "function"
    },
    {
      "inputs": [],
      "name": "latestRoundData",
      "outputs": [
        {
          "internalType": "uint80",
          "name": "",
          "type": "uint80"
        },
        {
          "internalType": "int256",
          "name": "",
          "type": "int256"
        },
        {
          "internalType": "uint256",
          "name": "",
          "type": "uint256"
        },
        {
          "internalType": "uint256",
          "name": "",
          "type": "uint256"
        },
        {
          "internalType": "uint80",
          "name": "",
          "type": "uint80"
        }
      ],
      "stateMutability": "view",
      "type": "function"
    },
    {
      "inputs": [],
      "name": "read",
      "outputs": [
        {
          "internalType": "uint256",
          "name": "quoteAmount",
          "type": "uint256"
        }
      ],
      "stateMutability": "view",
      "type": "function"
    },
    {
      "inputs": [
        {
          "internalType": "address",
          "name": "_treasury",
          "type": "address"
        }
      ],
      "name": "setTreasury",
      "outputs": [],
      "stateMutability": "nonpayable",
      "type": "function"
    },
    {
      "inputs": [],
      "name": "stalePeriod",
      "outputs": [
        {
          "internalType": "uint32",
          "name": "",
          "type": "uint32"
        }
      ],
      "stateMutability": "view",
      "type": "function"
    },
    {
      "inputs": [],
      "name": "treasury",
      "outputs": [
        {
          "internalType": "contract ITreasury",
          "name": "",
          "type": "address"
        }
      ],
      "stateMutability": "view",
      "type": "function"
    },
    {
      "inputs": [],
      "name": "version",
      "outputs": [
        {
          "internalType": "uint256",
          "name": "",
          "type": "uint256"
        }
      ],
      "stateMutability": "pure",
      "type": "function"
    }
  ],
  "transactionHash": "0x3fac689e680cbe36fbbc676d13cebf06e047b407a6573e9e0722a649a6d66146",
  "args": [
    129600,
    "0x0D710512E100C171139D2Cf5708f22C680eccF52"
  ],
  "numDeployments": 1,
  "solcInputHash": "ee130155c0ce7c2eaa2c9a7b8d6f574f",
  "bytecode": "0x608060405234801561001057600080fd5b50604051610eb4380380610eb483398101604081905261002f91610071565b600080546001600160c01b031916600160a01b63ffffffff94909416939093026001600160a01b031916929092176001600160a01b03919091161790556100c0565b6000806040838503121561008457600080fd5b825163ffffffff8116811461009857600080fd5b60208401519092506001600160a01b03811681146100b557600080fd5b809150509250929050565b610de5806100cf6000396000f3fe608060405234801561001057600080fd5b50600436106100df5760003560e01c80637284e4161161008c578063a5b36a3611610066578063a5b36a3614610226578063f0f4426014610263578063f1ae885614610276578063feaf968c146102b257600080fd5b80637284e416146101805780637ce5e35e146101c25780639a6fc8f5146101dc57600080fd5b806357de26a4116100bd57806357de26a41461011e57806361d027b314610126578063630914d11461016b57600080fd5b8063313ce567146100e45780634994cc67146100f857806354fd4d501461010d575b600080fd5b604051601281526020015b60405180910390f35b6101006102ba565b6040516100ef919061098e565b60015b6040519081526020016100ef565b610110610393565b6000546101469073ffffffffffffffffffffffffffffffffffffffff1681565b60405173ffffffffffffffffffffffffffffffffffffffff90911681526020016100ef565b61017e6101793660046109e8565b610450565b005b60408051808201909152601a81527f416e676c652073744555522f455448205072696365204665656400000000000060208201525b6040516100ef9190610a15565b610146724626a008b1acdc4c74ab51644093b155e59a2381565b6101ef6101ea366004610a9c565b61059b565b6040805169ffffffffffffffffffff968716815260208101959095528401929092526060830152909116608082015260a0016100ef565b60005461024e9074010000000000000000000000000000000000000000900463ffffffff1681565b60405163ffffffff90911681526020016100ef565b61017e610271366004610ab9565b6105bd565b6101b56040518060400160405280601081526020017f73744555522f455448204f7261636c650000000000000000000000000000000081525081565b6101ef610769565b604080516002808252606080830184529260009291906020830190803683370190505090507337963f10245e7c3a10c0e9d43a6e617b4bc8440a8160008151811061030757610307610aef565b602002602001019073ffffffffffffffffffffffffffffffffffffffff16908173ffffffffffffffffffffffffffffffffffffffff168152505073639fe6ab55c921f74e7fac1ee960c0b6293ba6128160018151811061036957610369610aef565b73ffffffffffffffffffffffffffffffffffffffff90921660209283029190910190910152919050565b600061039d61078d565b905060006103a96102ba565b6040805180820182526001815260006020808301829052835180850190945260088085529084015283519394509092905b8181101561044857610436868683815181106103f8576103f8610aef565b602002602001015186846002811061041257610412610aef565b602002015186856002811061042957610429610aef565b602002015160ff16610828565b955061044181610b4d565b90506103da565b505050505090565b6000546040517f521d4de900000000000000000000000000000000000000000000000000000000815233600482015273ffffffffffffffffffffffffffffffffffffffff9091169063521d4de990602401602060405180830381865afa1580156104be573d6000803e3d6000fd5b505050506040513d601f19601f820116820180604052508101906104e29190610b85565b610518576040517f99e120bc00000000000000000000000000000000000000000000000000000000815260040160405180910390fd5b600080547fffffffffffffffff00000000ffffffffffffffffffffffffffffffffffffffff167401000000000000000000000000000000000000000063ffffffff8416908102919091179091556040519081527f4040b15332969bfd8b2035c1a701c8e13f2b5d62ce89b311684a601b2eb44e019060200160405180910390a150565b60008060008060006105ab610769565b939a9299509097509550909350915050565b6000546040517f676a553e00000000000000000000000000000000000000000000000000000000815233600482015273ffffffffffffffffffffffffffffffffffffffff9091169063676a553e90602401602060405180830381865afa15801561062b573d6000803e3d6000fd5b505050506040513d601f19601f8201168201806040525081019061064f9190610b85565b1580156106eb57506000546040517fe43581b800000000000000000000000000000000000000000000000000000000815233600482015273ffffffffffffffffffffffffffffffffffffffff9091169063e43581b890602401602060405180830381865afa1580156106c5573d6000803e3d6000fd5b505050506040513d601f19601f820116820180604052508101906106e99190610b85565b155b15610722576040517fb05b9b9f00000000000000000000000000000000000000000000000000000000815260040160405180910390fd5b600080547fffffffffffffffffffffffff00000000000000000000000000000000000000001673ffffffffffffffffffffffffffffffffffffffff92909216919091179055565b60008060008060008061077a610393565b9096909550600094504293508492509050565b6040517f07a2d13a000000000000000000000000000000000000000000000000000000008152670de0b6b3a76400006004820152600090724626a008b1acdc4c74ab51644093b155e59a23906307a2d13a90602401602060405180830381865afa1580156107ff573d6000803e3d6000fd5b505050506040513d601f19601f820116820180604052508101906108239190610ba7565b905090565b60008060008060008773ffffffffffffffffffffffffffffffffffffffff1663feaf968c6040518163ffffffff1660e01b815260040160a060405180830381865afa15801561087b573d6000803e3d6000fd5b505050506040513d601f19601f8201168201806040525081019061089f9190610bc0565b9450945050935093506000831315806108cf57508069ffffffffffffffffffff168469ffffffffffffffffffff16115b80610902575060005474010000000000000000000000000000000000000000900463ffffffff166109008342610c18565b115b15610939576040517fae19356300000000000000000000000000000000000000000000000000000000815260040160405180910390fd5b8260ff88166001036109705761095087600a610d51565b61095a828c610d5d565b6109649190610d74565b95505050505050610986565b8061097c88600a610d51565b61095a908c610d5d565b949350505050565b6020808252825182820181905260009190848201906040850190845b818110156109dc57835173ffffffffffffffffffffffffffffffffffffffff16835292840192918401916001016109aa565b50909695505050505050565b6000602082840312156109fa57600080fd5b813563ffffffff81168114610a0e57600080fd5b9392505050565b600060208083528351808285015260005b81811015610a4257858101830151858201604001528201610a26565b5060006040828601015260407fffffffffffffffffffffffffffffffffffffffffffffffffffffffffffffffe0601f8301168501019250505092915050565b69ffffffffffffffffffff81168114610a9957600080fd5b50565b600060208284031215610aae57600080fd5b8135610a0e81610a81565b600060208284031215610acb57600080fd5b813573ffffffffffffffffffffffffffffffffffffffff81168114610a0e57600080fd5b7f4e487b7100000000000000000000000000000000000000000000000000000000600052603260045260246000fd5b7f4e487b7100000000000000000000000000000000000000000000000000000000600052601160045260246000fd5b60007fffffffffffffffffffffffffffffffffffffffffffffffffffffffffffffffff8203610b7e57610b7e610b1e565b5060010190565b600060208284031215610b9757600080fd5b81518015158114610a0e57600080fd5b600060208284031215610bb957600080fd5b5051919050565b600080600080600060a08688031215610bd857600080fd5b8551610be381610a81565b809550506020860151935060408601519250606086015191506080860151610c0a81610a81565b809150509295509295909350565b81810381811115610c2b57610c2b610b1e565b92915050565b600181815b80851115610c8a57817fffffffffffffffffffffffffffffffffffffffffffffffffffffffffffffffff04821115610c7057610c70610b1e565b80851615610c7d57918102915b93841c9390800290610c36565b509250929050565b600082610ca157506001610c2b565b81610cae57506000610c2b565b8160018114610cc45760028114610cce57610cea565b6001915050610c2b565b60ff841115610cdf57610cdf610b1e565b50506001821b610c2b565b5060208310610133831016604e8410600b8410161715610d0d575081810a610c2b565b610d178383610c31565b807fffffffffffffffffffffffffffffffffffffffffffffffffffffffffffffffff04821115610d4957610d49610b1e565b029392505050565b6000610a0e8383610c92565b8082028115828204841417610c2b57610c2b610b1e565b600082610daa577f4e487b7100000000000000000000000000000000000000000000000000000000600052601260045260246000fd5b50049056fea2646970667358221220d21f9e764662be56e36d33b2e26fdecd6e4a0d13879f4a020992c4cdfdbfeb1d64736f6c63430008110033",
  "devdoc": {
    "author": "Angle Labs, Inc.",
    "kind": "dev",
    "methods": {
      "changeStalePeriod(uint32)": {
        "params": {
          "_stalePeriod": "New stale period (in seconds)"
        }
      },
      "getRoundData(uint80)": {
        "details": "This function always returns the latestRoundData"
      },
      "latestRoundData()": {
        "details": "The `roundId`, `startedAt` and `answeredInRound` values return in this function must be disregardedIn order not to multiply oracle calls, the timestamp returned here is the `block.timestamp`. The contract still performs an heartbeat check for every oracle value that it reads, and the accurate value of the `timestamp` (if this one is taken as the minimum between the last update timestamp of the two oracles) is between: current timestamp and the current timestamp minus `stalePeriod`",
        "returns": {
          "_0": "roundID",
          "_1": "aggregatorPrice",
          "_2": "startedAt",
          "_3": "timestamp",
          "_4": "answeredInRound"
        }
      },
      "read()": {
        "details": "For instance if the out currency is EUR (and hence agEUR), then the base of the returned value is 10**18",
        "returns": {
          "quoteAmount": "The current rate between the in-currency and out-currency in the base of the out currency"
        }
      },
      "setTreasury(address)": {
        "details": "This function can be called by an approved `VaultManager` contract which can call this function after being requested to do so by a `treasury` contractIn some situations (like reactor contracts), the `VaultManager` may not directly be linked to the `oracle` contract and as such we may need governors to be able to call this function as well",
        "params": {
          "_treasury": "Address of the new treasury contract"
        }
      }
    },
    "title": "OracleSTEURETHChainlinkArbitrum",
    "version": 1
  },
  "userdoc": {
    "kind": "user",
    "methods": {
      "changeStalePeriod(uint32)": {
        "notice": "Changes the stale period"
      },
      "circuitChainlink()": {
        "notice": "Array with the list of Chainlink feeds in the order in which they are read"
      },
      "read()": {
        "notice": "Reads the rate from the Chainlink circuit and other data provided"
      },
      "setTreasury(address)": {
        "notice": "Changes the treasury contract"
      },
      "stalePeriod()": {
        "notice": "Represent the maximum amount of time (in seconds) between each Chainlink update before the price feed is considered stale"
      },
      "treasury()": {
        "notice": "Reference to the `treasury` contract handling this `VaultManager`"
      }
    },
    "notice": "Gives the price of stEUR in ETH in base 18",
    "version": 1
  },
  "storageLayout": {
    "storage": [
      {
        "astId": 1833,
        "contract": "contracts/oracle/implementations/arbitrum/EUR/OracleSTEURETHChainlinkArbitrum.sol:OracleSTEURETHChainlinkArbitrum",
        "label": "treasury",
        "offset": 0,
        "slot": "0",
        "type": "t_contract(ITreasury)1664"
      },
      {
        "astId": 1836,
        "contract": "contracts/oracle/implementations/arbitrum/EUR/OracleSTEURETHChainlinkArbitrum.sol:OracleSTEURETHChainlinkArbitrum",
        "label": "stalePeriod",
        "offset": 20,
        "slot": "0",
        "type": "t_uint32"
      }
    ],
    "types": {
      "t_contract(ITreasury)1664": {
        "encoding": "inplace",
        "label": "contract ITreasury",
        "numberOfBytes": "20"
      },
      "t_uint32": {
        "encoding": "inplace",
        "label": "uint32",
        "numberOfBytes": "4"
      }
    }
  }
}