{
  "address": "0x9C215206Da4bf108aE5aEEf9dA7caD3352A36Dad",
  "abi": [
    {
      "inputs": [
        {
          "internalType": "contract ICoreBorrow",
          "name": "_core",
          "type": "address"
        },
        {
          "internalType": "contract IUniswapV3Router",
          "name": "_uniV3Router",
          "type": "address"
        },
        {
          "internalType": "address",
          "name": "_oneInch",
          "type": "address"
        },
        {
          "internalType": "contract IAngleRouterSidechain",
          "name": "_angleRouter",
          "type": "address"
        }
      ],
      "stateMutability": "nonpayable",
      "type": "constructor"
    },
    {
      "inputs": [],
      "name": "EmptyReturnMessage",
      "type": "error"
    },
    {
      "inputs": [],
      "name": "IncompatibleLengths",
      "type": "error"
    },
    {
      "inputs": [],
      "name": "NotGovernorOrGuardian",
      "type": "error"
    },
    {
      "inputs": [],
      "name": "TooSmallAmountOut",
      "type": "error"
    },
    {
      "inputs": [],
      "name": "ZeroAddress",
      "type": "error"
    },
    {
      "inputs": [],
      "name": "angleRouter",
      "outputs": [
        {
          "internalType": "contract IAngleRouterSidechain",
          "name": "",
          "type": "address"
        }
      ],
      "stateMutability": "view",
      "type": "function"
    },
    {
      "inputs": [
        {
          "internalType": "contract IERC20[]",
          "name": "tokens",
          "type": "address[]"
        },
        {
          "internalType": "address[]",
          "name": "spenders",
          "type": "address[]"
        },
        {
          "internalType": "uint256[]",
          "name": "amounts",
          "type": "uint256[]"
        }
      ],
      "name": "changeAllowance",
      "outputs": [],
      "stateMutability": "nonpayable",
      "type": "function"
    },
    {
      "inputs": [],
      "name": "core",
      "outputs": [
        {
          "internalType": "contract ICoreBorrow",
          "name": "",
          "type": "address"
        }
      ],
      "stateMutability": "view",
      "type": "function"
    },
    {
      "inputs": [],
      "name": "oneInch",
      "outputs": [
        {
          "internalType": "address",
          "name": "",
          "type": "address"
        }
      ],
      "stateMutability": "view",
      "type": "function"
    },
    {
      "inputs": [
        {
          "internalType": "contract IERC20",
          "name": "inToken",
          "type": "address"
        },
        {
          "internalType": "contract IERC20",
          "name": "outToken",
          "type": "address"
        },
        {
          "internalType": "address",
          "name": "outTokenRecipient",
          "type": "address"
        },
        {
          "internalType": "uint256",
          "name": "outTokenOwed",
          "type": "uint256"
        },
        {
          "internalType": "uint256",
          "name": "inTokenObtained",
          "type": "uint256"
        },
        {
          "internalType": "bytes",
          "name": "data",
          "type": "bytes"
        }
      ],
      "name": "swap",
      "outputs": [],
      "stateMutability": "nonpayable",
      "type": "function"
    },
    {
      "inputs": [],
      "name": "uniV3Router",
      "outputs": [
        {
          "internalType": "contract IUniswapV3Router",
          "name": "",
          "type": "address"
        }
      ],
      "stateMutability": "view",
      "type": "function"
    }
  ],
  "transactionHash": "0x8f22e6573a6e10b4491fad9e48cf45eed63af16e51bfd0348ea9a9016f359c20",
  "args": [
    "0x31429d1856aD1377A8A0079410B297e1a9e214c2",
    "0xE592427A0AEce92De3Edee1F18E0157C05861564",
    "0x1111111254fb6c44bAC0beD2854e76F90643097d",
    "0xC16B81Af351BA9e64C1a069E3Ab18c244A1E3049"
  ],
  "solcInputHash": "8a26d6606024625e1a63f4cee8837487",
  "bytecode": "0x6101006040523480156200001257600080fd5b5060405162001d2038038062001d208339810160408190526200003591620000d4565b6001600160a01b03841615806200005357506001600160a01b038316155b806200006657506001600160a01b038216155b806200007957506001600160a01b038116155b15620000985760405163d92e233d60e01b815260040160405180910390fd5b6001600160a01b0393841660805291831660a052821660c0521660e0526200013c565b6001600160a01b0381168114620000d157600080fd5b50565b60008060008060808587031215620000eb57600080fd5b8451620000f881620000bb565b60208601519094506200010b81620000bb565b60408601519093506200011e81620000bb565b60608601519092506200013181620000bb565b939692955090935050565b60805160a05160c05160e051611b7c620001a46000396000818160cc01528181610afc0152610b81015260008181607c015281816109dc0152610a2601526000818160f3015281816108ce015261095501526000818161014201526104da0152611b7c6000f3fe608060405234801561001057600080fd5b50600436106100725760003560e01c8063a5d4096b11610050578063a5d4096b14610115578063b82c4dc11461012a578063f2f4eb261461013d57600080fd5b8063045c08d5146100775780630b6942c2146100c75780635fafa589146100ee575b600080fd5b61009e7f000000000000000000000000000000000000000000000000000000000000000081565b60405173ffffffffffffffffffffffffffffffffffffffff909116815260200160405180910390f35b61009e7f000000000000000000000000000000000000000000000000000000000000000081565b61009e7f000000000000000000000000000000000000000000000000000000000000000081565b610128610123366004611374565b610164565b005b61012861013836600461148a565b6104ac565b61009e7f000000000000000000000000000000000000000000000000000000000000000081565b60008060008380602001905181019061017d9190611595565b96509194509250905073ffffffffffffffffffffffffffffffffffffffff8316156101a857826101aa565b865b92506101db8986836fffffffffffffffffffffffffffffffff1660038111156101d5576101d5611618565b8761066b565b6040517f70a0823100000000000000000000000000000000000000000000000000000000815230600482015260009073ffffffffffffffffffffffffffffffffffffffff8a16906370a0823190602401602060405180830381865afa158015610248573d6000803e3d6000fd5b505050506040513d601f19601f8201168201806040525081019061026c9190611647565b9050828110156102a8576040517fa1aabbe100000000000000000000000000000000000000000000000000000000815260040160405180910390fd5b6040517f70a0823100000000000000000000000000000000000000000000000000000000815273ffffffffffffffffffffffffffffffffffffffff8981166004830152600091908b16906370a0823190602401602060405180830381865afa158015610318573d6000803e3d6000fd5b505050506040513d601f19601f8201168201806040525081019061033c9190611647565b9050878110158061037857508873ffffffffffffffffffffffffffffffffffffffff168573ffffffffffffffffffffffffffffffffffffffff16145b156103a35761039e73ffffffffffffffffffffffffffffffffffffffff8b1686846106e4565b6103e8565b6103cf896103b1838b61168f565b73ffffffffffffffffffffffffffffffffffffffff8d1691906106e4565b6103e885896103de85856116a6565b6103b1919061168f565b6040517f70a0823100000000000000000000000000000000000000000000000000000000815230600482015273ffffffffffffffffffffffffffffffffffffffff8c16906370a0823190602401602060405180830381865afa158015610452573d6000803e3d6000fd5b505050506040513d601f19601f820116820180604052508101906104769190611647565b9650861561049f5761049f73ffffffffffffffffffffffffffffffffffffffff8c1686896106e4565b5050505050505050505050565b6040517f521d4de90000000000000000000000000000000000000000000000000000000081523360048201527f000000000000000000000000000000000000000000000000000000000000000073ffffffffffffffffffffffffffffffffffffffff169063521d4de990602401602060405180830381865afa158015610536573d6000803e3d6000fd5b505050506040513d601f19601f8201168201806040525081019061055a91906116be565b610590576040517f99e120bc00000000000000000000000000000000000000000000000000000000815260040160405180910390fd5b848314158061059f5750848114155b156105d6576040517f46282e8d00000000000000000000000000000000000000000000000000000000815260040160405180910390fd5b60005b85811015610662576106508787838181106105f6576105f66116e0565b905060200201602081019061060b919061170f565b86868481811061061d5761061d6116e0565b9050602002016020810190610632919061170f565b858585818110610644576106446116e0565b905060200201356107bd565b8061065a8161172c565b9150506105d9565b50505050505050565b600082600381111561067f5761067f611618565b1415610696576106908484836108c6565b506106de565b60018260038111156106aa576106aa611618565b14156106ba5761069084826109d4565b60028260038111156106ce576106ce611618565b14156106de576106de8482610adb565b50505050565b60405173ffffffffffffffffffffffffffffffffffffffff83166024820152604481018290526107b89084907fa9059cbb00000000000000000000000000000000000000000000000000000000906064015b604080517fffffffffffffffffffffffffffffffffffffffffffffffffffffffffffffffe08184030181529190526020810180517bffffffffffffffffffffffffffffffffffffffffffffffffffffffff167fffffffff0000000000000000000000000000000000000000000000000000000090931692909217909152610bf3565b505050565b6040517fdd62ed3e00000000000000000000000000000000000000000000000000000000815230600482015273ffffffffffffffffffffffffffffffffffffffff83811660248301526000919085169063dd62ed3e90604401602060405180830381865afa158015610833573d6000803e3d6000fd5b505050506040513d601f19601f820116820180604052508101906108579190611647565b9050818110156108925761088d8361086f838561168f565b73ffffffffffffffffffffffffffffffffffffffff87169190610d04565b6106de565b818111156106de576106de836108a8848461168f565b73ffffffffffffffffffffffffffffffffffffffff87169190610e02565b60006108f3847f000000000000000000000000000000000000000000000000000000000000000085610f8f565b6040805160a0810182528381523060208201524281830152606081018590526000608082015290517fc04b8d5900000000000000000000000000000000000000000000000000000000815273ffffffffffffffffffffffffffffffffffffffff7f0000000000000000000000000000000000000000000000000000000000000000169163c04b8d599161098991906004016117af565b6020604051808303816000875af11580156109a8573d6000803e3d6000fd5b505050506040513d601f19601f820116820180604052508101906109cc9190611647565b949350505050565b6000610a21837f00000000000000000000000000000000000000000000000000000000000000007fffffffffffffffffffffffffffffffffffffffffffffffffffffffffffffffff6107bd565b6000807f000000000000000000000000000000000000000000000000000000000000000073ffffffffffffffffffffffffffffffffffffffff1684604051610a699190611815565b6000604051808303816000865af19150503d8060008114610aa6576040519150601f19603f3d011682016040523d82523d6000602084013e610aab565b606091505b509150915081610abe57610abe81611061565b80806020019051810190610ad29190611647565b95945050505050565b60008082806020019051810190610af291906118e0565b91509150610b41847f00000000000000000000000000000000000000000000000000000000000000007fffffffffffffffffffffffffffffffffffffffffffffffffffffffffffffffff6107bd565b6040517f848c48da00000000000000000000000000000000000000000000000000000000815260609073ffffffffffffffffffffffffffffffffffffffff7f0000000000000000000000000000000000000000000000000000000000000000169063848c48da90610bba90849087908790600401611a6e565b600060405180830381600087803b158015610bd457600080fd5b505af1158015610be8573d6000803e3d6000fd5b505050505050505050565b6000610c55826040518060400160405280602081526020017f5361666545524332303a206c6f772d6c6576656c2063616c6c206661696c65648152508573ffffffffffffffffffffffffffffffffffffffff166110a29092919063ffffffff16565b8051909150156107b85780806020019051810190610c7391906116be565b6107b8576040517f08c379a000000000000000000000000000000000000000000000000000000000815260206004820152602a60248201527f5361666545524332303a204552433230206f7065726174696f6e20646964206e60448201527f6f7420737563636565640000000000000000000000000000000000000000000060648201526084015b60405180910390fd5b6040517fdd62ed3e00000000000000000000000000000000000000000000000000000000815230600482015273ffffffffffffffffffffffffffffffffffffffff8381166024830152600091839186169063dd62ed3e90604401602060405180830381865afa158015610d7b573d6000803e3d6000fd5b505050506040513d601f19601f82011682018060405250810190610d9f9190611647565b610da991906116a6565b60405173ffffffffffffffffffffffffffffffffffffffff85166024820152604481018290529091506106de9085907f095ea7b30000000000000000000000000000000000000000000000000000000090606401610736565b6040517fdd62ed3e00000000000000000000000000000000000000000000000000000000815230600482015273ffffffffffffffffffffffffffffffffffffffff83811660248301526000919085169063dd62ed3e90604401602060405180830381865afa158015610e78573d6000803e3d6000fd5b505050506040513d601f19601f82011682018060405250810190610e9c9190611647565b905081811015610f2e576040517f08c379a000000000000000000000000000000000000000000000000000000000815260206004820152602960248201527f5361666545524332303a2064656372656173656420616c6c6f77616e6365206260448201527f656c6f77207a65726f00000000000000000000000000000000000000000000006064820152608401610cfb565b60405173ffffffffffffffffffffffffffffffffffffffff841660248201528282036044820181905290610f889086907f095ea7b30000000000000000000000000000000000000000000000000000000090606401610736565b5050505050565b6040517fdd62ed3e00000000000000000000000000000000000000000000000000000000815230600482015273ffffffffffffffffffffffffffffffffffffffff83811660248301526000919085169063dd62ed3e90604401602060405180830381865afa158015611005573d6000803e3d6000fd5b505050506040513d601f19601f820116820180604052508101906110299190611647565b9050818110156106de576106de8361086f837fffffffffffffffffffffffffffffffffffffffffffffffffffffffffffffffff61168f565b80511561107057805181602001fd5b6040517f6a8df6a800000000000000000000000000000000000000000000000000000000815260040160405180910390fd5b60606109cc84846000856110b8565b9392505050565b60608247101561114a576040517f08c379a000000000000000000000000000000000000000000000000000000000815260206004820152602660248201527f416464726573733a20696e73756666696369656e742062616c616e636520666f60448201527f722063616c6c00000000000000000000000000000000000000000000000000006064820152608401610cfb565b843b6111b2576040517f08c379a000000000000000000000000000000000000000000000000000000000815260206004820152601d60248201527f416464726573733a2063616c6c20746f206e6f6e2d636f6e74726163740000006044820152606401610cfb565b6000808673ffffffffffffffffffffffffffffffffffffffff1685876040516111db9190611815565b60006040518083038185875af1925050503d8060008114611218576040519150601f19603f3d011682016040523d82523d6000602084013e61121d565b606091505b509150915061122d828286611238565b979650505050505050565b606083156112475750816110b1565b8251156112575782518084602001fd5b816040517f08c379a0000000000000000000000000000000000000000000000000000000008152600401610cfb9190611b33565b73ffffffffffffffffffffffffffffffffffffffff811681146112ad57600080fd5b50565b7f4e487b7100000000000000000000000000000000000000000000000000000000600052604160045260246000fd5b604051601f82017fffffffffffffffffffffffffffffffffffffffffffffffffffffffffffffffe016810167ffffffffffffffff81118282101715611326576113266112b0565b604052919050565b600067ffffffffffffffff821115611348576113486112b0565b50601f017fffffffffffffffffffffffffffffffffffffffffffffffffffffffffffffffe01660200190565b60008060008060008060c0878903121561138d57600080fd5b86356113988161128b565b955060208701356113a88161128b565b945060408701356113b88161128b565b9350606087013592506080870135915060a087013567ffffffffffffffff8111156113e257600080fd5b8701601f810189136113f357600080fd5b80356114066114018261132e565b6112df565b8181528a602083850101111561141b57600080fd5b816020840160208301376000602083830101528093505050509295509295509295565b60008083601f84011261145057600080fd5b50813567ffffffffffffffff81111561146857600080fd5b6020830191508360208260051b850101111561148357600080fd5b9250929050565b600080600080600080606087890312156114a357600080fd5b863567ffffffffffffffff808211156114bb57600080fd5b6114c78a838b0161143e565b909850965060208901359150808211156114e057600080fd5b6114ec8a838b0161143e565b9096509450604089013591508082111561150557600080fd5b5061151289828a0161143e565b979a9699509497509295939492505050565b60005b8381101561153f578181015183820152602001611527565b838111156106de5750506000910152565b600082601f83011261156157600080fd5b815161156f6114018261132e565b81815284602083860101111561158457600080fd5b6109cc826020830160208701611524565b600080600080608085870312156115ab57600080fd5b84516115b68161128b565b6020860151604087015191955093506fffffffffffffffffffffffffffffffff811681146115e357600080fd5b606086015190925067ffffffffffffffff81111561160057600080fd5b61160c87828801611550565b91505092959194509250565b7f4e487b7100000000000000000000000000000000000000000000000000000000600052602160045260246000fd5b60006020828403121561165957600080fd5b5051919050565b7f4e487b7100000000000000000000000000000000000000000000000000000000600052601160045260246000fd5b6000828210156116a1576116a1611660565b500390565b600082198211156116b9576116b9611660565b500190565b6000602082840312156116d057600080fd5b815180151581146110b157600080fd5b7f4e487b7100000000000000000000000000000000000000000000000000000000600052603260045260246000fd5b60006020828403121561172157600080fd5b81356110b18161128b565b60007fffffffffffffffffffffffffffffffffffffffffffffffffffffffffffffffff82141561175e5761175e611660565b5060010190565b6000815180845261177d816020860160208601611524565b601f017fffffffffffffffffffffffffffffffffffffffffffffffffffffffffffffffe0169290920160200192915050565b602081526000825160a060208401526117cb60c0840182611765565b905073ffffffffffffffffffffffffffffffffffffffff60208501511660408401526040840151606084015260608401516080840152608084015160a08401528091505092915050565b60008251611827818460208701611524565b9190910192915050565b600067ffffffffffffffff82111561184b5761184b6112b0565b5060051b60200190565b600082601f83011261186657600080fd5b8151602061187661140183611831565b82815260059290921b8401810191818101908684111561189557600080fd5b8286015b848110156118d557805167ffffffffffffffff8111156118b95760008081fd5b6118c78986838b0101611550565b845250918301918301611899565b509695505050505050565b600080604083850312156118f357600080fd5b825167ffffffffffffffff8082111561190b57600080fd5b818501915085601f83011261191f57600080fd5b8151602061192f61140183611831565b82815260059290921b8401810191818101908984111561194e57600080fd5b948201945b8386101561197a578551600e811061196b5760008081fd5b82529482019490820190611953565b9188015191965090935050508082111561199357600080fd5b506119a085828601611855565b9150509250929050565b60008151808452602080850194508084016000805b84811015611a10578251600e81106119fe577f4e487b710000000000000000000000000000000000000000000000000000000083526021600452602483fd5b885296830196918301916001016119bf565b50959695505050505050565b6000815180845260208085019450848260051b860182860160005b85811015611a61578383038952611a4f838351611765565b98850198925090840190600101611a37565b5090979650505050505050565b6060808252845182820181905260009190608090818501906020808a01865b83811015611aff578151805173ffffffffffffffffffffffffffffffffffffffff90811687528482015116848701526040808201519087015287810151888701528681015160ff168787015260a0808201519087015260c0908101519086015260e09094019390820190600101611a8d565b50508683039087015250611b1381886119aa565b925050508281036040840152611b298185611a1c565b9695505050505050565b6020815260006110b1602083018461176556fea26469706673582212200493f2f566bb953a17c9f1f5e7dfc980b5d931c85c1ffb0b5b99aad67a980c2d64736f6c634300080c0033",
  "devdoc": {
    "author": "Angle Core Team",
    "kind": "dev",
    "methods": {
      "changeAllowance(address[],address[],uint256[])": {
        "params": {
          "amounts": "Amounts to allow",
          "spenders": "Addresses to allow transfer",
          "tokens": "Addresses of the tokens to allow"
        }
      },
      "constructor": {
        "params": {
          "_angleRouter": "AngleRouter contract address",
          "_core": "Core address",
          "_oneInch": "1Inch Router address",
          "_uniV3Router": "UniswapV3 Router address"
        }
      },
      "swap(address,address,address,uint256,uint256,bytes)": {
        "details": "This function swaps the `inToken` to the `outToken` by doing a UniV3 swap, a 1Inch swap or by interacting with the `AngleRouter` contractOne slippage check is performed at the end of the callIn this implementation, the function tries to make sure that the `outTokenRecipient` address has at the end of the call `outTokenOwed`, leftover tokens are sent to a `to` address which by default is the `outTokenRecipient`",
        "params": {
          "data": "Extra data needed (to encode Uniswap swaps for instance)",
          "inToken": "Address of the token received",
          "inTokenObtained": "Amount of collateral obtained by a related address prior to the call to this function",
          "outToken": "Address of the token to obtain",
          "outTokenOwed": "Minimum amount of outToken the `outTokenRecipient` address should have at the end of the call",
          "outTokenRecipient": "Address to which the outToken should be sent"
        }
      }
    },
    "title": "SwapperSidechain",
    "version": 1
  },
  "userdoc": {
    "kind": "user",
    "methods": {
      "angleRouter()": {
        "notice": "AngleRouter"
      },
      "changeAllowance(address[],address[],uint256[])": {
        "notice": "Changes allowances of this contract for different tokens"
      },
      "constructor": {
        "notice": "Constructor of the contract"
      },
      "core()": {
        "notice": "Reference to the `CoreBorrow` contract of the module which handles all AccessControl logic"
      },
      "oneInch()": {
        "notice": "1Inch Router"
      },
      "swap(address,address,address,uint256,uint256,bytes)": {
        "notice": "Notifies a contract that an address should be given `outToken` from `inToken`"
      },
      "uniV3Router()": {
        "notice": "Uniswap Router contract"
      }
    },
    "notice": "Swapper contract facilitating interactions with the VaultManager: to liquidate and get leverage",
    "version": 1
  },
  "storageLayout": {
    "storage": [],
    "types": null
  }
}